{
	"contracts/zapyield-mainnet-beta.0.1.2.sol": {
		"ZapYieldsV2Pro": {
			"abi": [
				{
					"inputs": [],
					"stateMutability": "nonpayable",
					"type": "constructor"
				},
				{
					"inputs": [
						{
							"internalType": "address",
							"name": "owner",
							"type": "address"
						}
					],
					"name": "OwnableInvalidOwner",
					"type": "error"
				},
				{
					"inputs": [
						{
							"internalType": "address",
							"name": "account",
							"type": "address"
						}
					],
					"name": "OwnableUnauthorizedAccount",
					"type": "error"
				},
				{
					"inputs": [
						{
							"internalType": "address",
							"name": "token",
							"type": "address"
						}
					],
					"name": "SafeERC20FailedOperation",
					"type": "error"
				},
				{
					"anonymous": false,
					"inputs": [
						{
							"indexed": true,
							"internalType": "address",
							"name": "previousOwner",
							"type": "address"
						},
						{
							"indexed": true,
							"internalType": "address",
							"name": "newOwner",
							"type": "address"
						}
					],
					"name": "OwnershipTransferred",
					"type": "event"
				},
				{
					"inputs": [],
					"name": "PROTOCOL_FEE",
					"outputs": [
						{
							"internalType": "uint256",
							"name": "",
							"type": "uint256"
						}
					],
					"stateMutability": "view",
					"type": "function"
				},
				{
					"inputs": [],
					"name": "REFERRAL_SHARE",
					"outputs": [
						{
							"internalType": "uint256",
							"name": "",
							"type": "uint256"
						}
					],
					"stateMutability": "view",
					"type": "function"
				},
				{
					"inputs": [],
					"name": "USDC",
					"outputs": [
						{
							"internalType": "contract IERC20",
							"name": "",
							"type": "address"
						}
					],
					"stateMutability": "view",
					"type": "function"
				},
				{
					"inputs": [],
					"name": "collectFees",
					"outputs": [],
					"stateMutability": "nonpayable",
					"type": "function"
				},
				{
					"inputs": [
						{
							"internalType": "address",
							"name": "_user",
							"type": "address"
						}
					],
					"name": "getAccountValue",
					"outputs": [
						{
							"internalType": "uint256",
							"name": "",
							"type": "uint256"
						}
					],
					"stateMutability": "view",
					"type": "function"
				},
				{
					"inputs": [
						{
							"internalType": "address",
							"name": "_user",
							"type": "address"
						}
					],
					"name": "getReferralEarnings",
					"outputs": [
						{
							"internalType": "uint256",
							"name": "",
							"type": "uint256"
						}
					],
					"stateMutability": "view",
					"type": "function"
				},
				{
					"inputs": [],
					"name": "mUSDC",
					"outputs": [
						{
							"internalType": "contract IMorphoVault",
							"name": "",
							"type": "address"
						}
					],
					"stateMutability": "view",
					"type": "function"
				},
				{
					"inputs": [],
					"name": "owner",
					"outputs": [
						{
							"internalType": "address",
							"name": "",
							"type": "address"
						}
					],
					"stateMutability": "view",
					"type": "function"
				},
				{
					"inputs": [],
					"name": "renounceOwnership",
					"outputs": [],
					"stateMutability": "nonpayable",
					"type": "function"
				},
				{
					"inputs": [],
					"name": "totalProtocolFees",
					"outputs": [
						{
							"internalType": "uint256",
							"name": "",
							"type": "uint256"
						}
					],
					"stateMutability": "view",
					"type": "function"
				},
				{
					"inputs": [
						{
							"internalType": "address",
							"name": "newOwner",
							"type": "address"
						}
					],
					"name": "transferOwnership",
					"outputs": [],
					"stateMutability": "nonpayable",
					"type": "function"
				},
				{
					"inputs": [
						{
							"internalType": "address",
							"name": "",
							"type": "address"
						}
					],
					"name": "users",
					"outputs": [
						{
							"internalType": "uint256",
							"name": "principal",
							"type": "uint256"
						},
						{
							"internalType": "uint256",
							"name": "shareBalance",
							"type": "uint256"
						},
						{
							"internalType": "address",
							"name": "referrer",
							"type": "address"
						},
						{
							"internalType": "uint256",
							"name": "totalReferralEarnings",
							"type": "uint256"
						}
					],
					"stateMutability": "view",
					"type": "function"
				},
				{
					"inputs": [
						{
							"internalType": "uint256",
							"name": "_amount",
							"type": "uint256"
						},
						{
							"internalType": "address",
							"name": "_referrer",
							"type": "address"
						}
					],
					"name": "zapIn",
					"outputs": [],
					"stateMutability": "nonpayable",
					"type": "function"
				},
				{
					"inputs": [],
					"name": "zapOut",
					"outputs": [],
					"stateMutability": "nonpayable",
					"type": "function"
				}
			],
			"devdoc": {
				"errors": {
					"OwnableInvalidOwner(address)": [
						{
							"details": "The owner is not a valid owner account. (eg. `address(0)`)"
						}
					],
					"OwnableUnauthorizedAccount(address)": [
						{
							"details": "The caller account is not authorized to perform an operation."
						}
					],
					"SafeERC20FailedOperation(address)": [
						{
							"details": "An operation with an ERC-20 token failed."
						}
					]
				},
				"kind": "dev",
				"methods": {
					"owner()": {
						"details": "Returns the address of the current owner."
					},
					"renounceOwnership()": {
						"details": "Leaves the contract without owner. It will not be possible to call `onlyOwner` functions. Can only be called by the current owner. NOTE: Renouncing ownership will leave the contract without an owner, thereby disabling any functionality that is only available to the owner."
					},
					"transferOwnership(address)": {
						"details": "Transfers ownership of the contract to a new account (`newOwner`). Can only be called by the current owner."
					}
				},
				"version": 1
			},
			"evm": {
				"assembly": "    /* \"contracts/zapyield-mainnet-beta.0.1.2.sol\":598:3884  contract ZapYieldsV2Pro is Ownable, ReentrancyGuard {... */\n  mstore(0x40, 0x80)\n    /* \"contracts/zapyield-mainnet-beta.0.1.2.sol\":1259:1295  constructor() Ownable(msg.sender) {} */\n  callvalue\n  dup1\n  iszero\n  tag_1\n  jumpi\n  0x00\n  dup1\n  revert\ntag_1:\n  pop\n    /* \"contracts/zapyield-mainnet-beta.0.1.2.sol\":1281:1291  msg.sender */\n  caller\n    /* \"@openzeppelin/contracts/access/Ownable.sol\":1297:1298  0 */\n  0x00\n    /* \"@openzeppelin/contracts/access/Ownable.sol\":1273:1299  initialOwner == address(0) */\n  0xffffffffffffffffffffffffffffffffffffffff\n  and\n    /* \"@openzeppelin/contracts/access/Ownable.sol\":1273:1285  initialOwner */\n  dup2\n    /* \"@openzeppelin/contracts/access/Ownable.sol\":1273:1299  initialOwner == address(0) */\n  0xffffffffffffffffffffffffffffffffffffffff\n  and\n  sub\n    /* \"@openzeppelin/contracts/access/Ownable.sol\":1269:1364  if (initialOwner == address(0)) {... */\n  tag_6\n  jumpi\n    /* \"@openzeppelin/contracts/access/Ownable.sol\":1350:1351  0 */\n  0x00\n    /* \"@openzeppelin/contracts/access/Ownable.sol\":1322:1353  OwnableInvalidOwner(address(0)) */\n  mload(0x40)\n  0x1e4fbdf700000000000000000000000000000000000000000000000000000000\n  dup2\n  mstore\n  0x04\n  add\n  tag_7\n  swap2\n  swap1\n  tag_8\n  jump\t// in\ntag_7:\n  mload(0x40)\n  dup1\n  swap2\n  sub\n  swap1\n  revert\n    /* \"@openzeppelin/contracts/access/Ownable.sol\":1269:1364  if (initialOwner == address(0)) {... */\ntag_6:\n    /* \"@openzeppelin/contracts/access/Ownable.sol\":1373:1405  _transferOwnership(initialOwner) */\n  tag_9\n    /* \"@openzeppelin/contracts/access/Ownable.sol\":1392:1404  initialOwner */\n  dup2\n    /* \"@openzeppelin/contracts/access/Ownable.sol\":1373:1391  _transferOwnership */\n  shl(0x20, tag_10)\n    /* \"@openzeppelin/contracts/access/Ownable.sol\":1373:1405  _transferOwnership(initialOwner) */\n  0x20\n  shr\n  jump\t// in\ntag_9:\n    /* \"@openzeppelin/contracts/access/Ownable.sol\":1225:1412  constructor(address initialOwner) {... */\n  pop\n    /* \"@openzeppelin/contracts/security/ReentrancyGuard.sol\":1716:1717  1 */\n  0x01\n    /* \"@openzeppelin/contracts/security/ReentrancyGuard.sol\":1821:1828  _status */\n  dup1\n    /* \"@openzeppelin/contracts/security/ReentrancyGuard.sol\":1821:1843  _status = _NOT_ENTERED */\n  dup2\n  swap1\n  sstore\n  pop\n    /* \"contracts/zapyield-mainnet-beta.0.1.2.sol\":598:3884  contract ZapYieldsV2Pro is Ownable, ReentrancyGuard {... */\n  jump(tag_13)\n    /* \"@openzeppelin/contracts/access/Ownable.sol\":2912:3099  function _transferOwnership(address newOwner) internal virtual {... */\ntag_10:\n    /* \"@openzeppelin/contracts/access/Ownable.sol\":2985:3001  address oldOwner */\n  0x00\n    /* \"@openzeppelin/contracts/access/Ownable.sol\":3004:3010  _owner */\n  dup1\n  0x00\n  swap1\n  sload\n  swap1\n  0x0100\n  exp\n  swap1\n  div\n  0xffffffffffffffffffffffffffffffffffffffff\n  and\n    /* \"@openzeppelin/contracts/access/Ownable.sol\":2985:3010  address oldOwner = _owner */\n  swap1\n  pop\n    /* \"@openzeppelin/contracts/access/Ownable.sol\":3029:3037  newOwner */\n  dup2\n    /* \"@openzeppelin/contracts/access/Ownable.sol\":3020:3026  _owner */\n  0x00\n  dup1\n    /* \"@openzeppelin/contracts/access/Ownable.sol\":3020:3037  _owner = newOwner */\n  0x0100\n  exp\n  dup2\n  sload\n  dup2\n  0xffffffffffffffffffffffffffffffffffffffff\n  mul\n  not\n  and\n  swap1\n  dup4\n  0xffffffffffffffffffffffffffffffffffffffff\n  and\n  mul\n  or\n  swap1\n  sstore\n  pop\n    /* \"@openzeppelin/contracts/access/Ownable.sol\":3083:3091  newOwner */\n  dup2\n    /* \"@openzeppelin/contracts/access/Ownable.sol\":3052:3092  OwnershipTransferred(oldOwner, newOwner) */\n  0xffffffffffffffffffffffffffffffffffffffff\n  and\n    /* \"@openzeppelin/contracts/access/Ownable.sol\":3073:3081  oldOwner */\n  dup2\n    /* \"@openzeppelin/contracts/access/Ownable.sol\":3052:3092  OwnershipTransferred(oldOwner, newOwner) */\n  0xffffffffffffffffffffffffffffffffffffffff\n  and\n  0x8be0079c531659141344cd1fd0a4f28419497f9722a3daafe3b4186f6b6457e0\n  mload(0x40)\n  mload(0x40)\n  dup1\n  swap2\n  sub\n  swap1\n  log3\n    /* \"@openzeppelin/contracts/access/Ownable.sol\":2975:3099  {... */\n  pop\n    /* \"@openzeppelin/contracts/access/Ownable.sol\":2912:3099  function _transferOwnership(address newOwner) internal virtual {... */\n  pop\n  jump\t// out\n    /* \"#utility.yul\":7:133   */\ntag_15:\n    /* \"#utility.yul\":44:51   */\n  0x00\n    /* \"#utility.yul\":84:126   */\n  0xffffffffffffffffffffffffffffffffffffffff\n    /* \"#utility.yul\":77:82   */\n  dup3\n    /* \"#utility.yul\":73:127   */\n  and\n    /* \"#utility.yul\":62:127   */\n  swap1\n  pop\n    /* \"#utility.yul\":7:133   */\n  swap2\n  swap1\n  pop\n  jump\t// out\n    /* \"#utility.yul\":139:235   */\ntag_16:\n    /* \"#utility.yul\":176:183   */\n  0x00\n    /* \"#utility.yul\":205:229   */\n  tag_21\n    /* \"#utility.yul\":223:228   */\n  dup3\n    /* \"#utility.yul\":205:229   */\n  tag_15\n  jump\t// in\ntag_21:\n    /* \"#utility.yul\":194:229   */\n  swap1\n  pop\n    /* \"#utility.yul\":139:235   */\n  swap2\n  swap1\n  pop\n  jump\t// out\n    /* \"#utility.yul\":241:359   */\ntag_17:\n    /* \"#utility.yul\":328:352   */\n  tag_23\n    /* \"#utility.yul\":346:351   */\n  dup2\n    /* \"#utility.yul\":328:352   */\n  tag_16\n  jump\t// in\ntag_23:\n    /* \"#utility.yul\":323:326   */\n  dup3\n    /* \"#utility.yul\":316:353   */\n  mstore\n    /* \"#utility.yul\":241:359   */\n  pop\n  pop\n  jump\t// out\n    /* \"#utility.yul\":365:587   */\ntag_8:\n    /* \"#utility.yul\":458:462   */\n  0x00\n    /* \"#utility.yul\":496:498   */\n  0x20\n    /* \"#utility.yul\":485:494   */\n  dup3\n    /* \"#utility.yul\":481:499   */\n  add\n    /* \"#utility.yul\":473:499   */\n  swap1\n  pop\n    /* \"#utility.yul\":509:580   */\n  tag_25\n    /* \"#utility.yul\":577:578   */\n  0x00\n    /* \"#utility.yul\":566:575   */\n  dup4\n    /* \"#utility.yul\":562:579   */\n  add\n    /* \"#utility.yul\":553:559   */\n  dup5\n    /* \"#utility.yul\":509:580   */\n  tag_17\n  jump\t// in\ntag_25:\n    /* \"#utility.yul\":365:587   */\n  swap3\n  swap2\n  pop\n  pop\n  jump\t// out\n    /* \"contracts/zapyield-mainnet-beta.0.1.2.sol\":598:3884  contract ZapYieldsV2Pro is Ownable, ReentrancyGuard {... */\ntag_13:\n  dataSize(sub_0)\n  dup1\n  dataOffset(sub_0)\n  0x00\n  codecopy\n  0x00\n  return\nstop\n\nsub_0: assembly {\n        /* \"contracts/zapyield-mainnet-beta.0.1.2.sol\":598:3884  contract ZapYieldsV2Pro is Ownable, ReentrancyGuard {... */\n      mstore(0x40, 0x80)\n      callvalue\n      dup1\n      iszero\n      tag_1\n      jumpi\n      0x00\n      dup1\n      revert\n    tag_1:\n      pop\n      jumpi(tag_2, lt(calldatasize, 0x04))\n      shr(0xe0, calldataload(0x00))\n      dup1\n      0xa87430ba\n      gt\n      tag_17\n      jumpi\n      dup1\n      0xdabeaecf\n      gt\n      tag_18\n      jumpi\n      dup1\n      0xdabeaecf\n      eq\n      tag_13\n      jumpi\n      dup1\n      0xf2fde38b\n      eq\n      tag_14\n      jumpi\n      dup1\n      0xf526e39a\n      eq\n      tag_15\n      jumpi\n      dup1\n      0xf89ec5f5\n      eq\n      tag_16\n      jumpi\n      jump(tag_2)\n    tag_18:\n      dup1\n      0xa87430ba\n      eq\n      tag_10\n      jumpi\n      dup1\n      0xb21b5a21\n      eq\n      tag_11\n      jumpi\n      dup1\n      0xc8796572\n      eq\n      tag_12\n      jumpi\n      jump(tag_2)\n    tag_17:\n      dup1\n      0x5ae80951\n      gt\n      tag_19\n      jumpi\n      dup1\n      0x5ae80951\n      eq\n      tag_6\n      jumpi\n      dup1\n      0x715018a6\n      eq\n      tag_7\n      jumpi\n      dup1\n      0x89a30271\n      eq\n      tag_8\n      jumpi\n      dup1\n      0x8da5cb5b\n      eq\n      tag_9\n      jumpi\n      jump(tag_2)\n    tag_19:\n      dup1\n      0x0b4501fd\n      eq\n      tag_3\n      jumpi\n      dup1\n      0x23544748\n      eq\n      tag_4\n      jumpi\n      dup1\n      0x5764b7c4\n      eq\n      tag_5\n      jumpi\n    tag_2:\n      0x00\n      dup1\n      revert\n        /* \"contracts/zapyield-mainnet-beta.0.1.2.sol\":966:1006  uint256 public constant PROTOCOL_FEE = 5 */\n    tag_3:\n      tag_20\n      tag_21\n      jump\t// in\n    tag_20:\n      mload(0x40)\n      tag_22\n      swap2\n      swap1\n      tag_23\n      jump\t// in\n    tag_22:\n      mload(0x40)\n      dup1\n      swap2\n      sub\n      swap1\n      return\n        /* \"contracts/zapyield-mainnet-beta.0.1.2.sol\":2006:3378  function zapOut() external nonReentrant {... */\n    tag_4:\n      tag_24\n      tag_25\n      jump\t// in\n    tag_24:\n      stop\n        /* \"contracts/zapyield-mainnet-beta.0.1.2.sol\":3574:3708  function getReferralEarnings(address _user) external view returns (uint256) {... */\n    tag_5:\n      tag_26\n      0x04\n      dup1\n      calldatasize\n      sub\n      dup2\n      add\n      swap1\n      tag_27\n      swap2\n      swap1\n      tag_28\n      jump\t// in\n    tag_27:\n      tag_29\n      jump\t// in\n    tag_26:\n      mload(0x40)\n      tag_30\n      swap2\n      swap1\n      tag_23\n      jump\t// in\n    tag_30:\n      mload(0x40)\n      dup1\n      swap2\n      sub\n      swap1\n      return\n        /* \"contracts/zapyield-mainnet-beta.0.1.2.sol\":3384:3528  function getAccountValue(address _user) external view returns (uint256) {... */\n    tag_6:\n      tag_31\n      0x04\n      dup1\n      calldatasize\n      sub\n      dup2\n      add\n      swap1\n      tag_32\n      swap2\n      swap1\n      tag_28\n      jump\t// in\n    tag_32:\n      tag_33\n      jump\t// in\n    tag_31:\n      mload(0x40)\n      tag_34\n      swap2\n      swap1\n      tag_23\n      jump\t// in\n    tag_34:\n      mload(0x40)\n      dup1\n      swap2\n      sub\n      swap1\n      return\n        /* \"@openzeppelin/contracts/access/Ownable.sol\":2293:2394  function renounceOwnership() public virtual onlyOwner {... */\n    tag_7:\n      tag_35\n      tag_36\n      jump\t// in\n    tag_35:\n      stop\n        /* \"contracts/zapyield-mainnet-beta.0.1.2.sol\":689:769  IERC20 public constant USDC = IERC20(0x833589fCD6eDb6E08f4c7C32D4f71b54bdA02913) */\n    tag_8:\n      tag_37\n      tag_38\n      jump\t// in\n    tag_37:\n      mload(0x40)\n      tag_39\n      swap2\n      swap1\n      tag_40\n      jump\t// in\n    tag_39:\n      mload(0x40)\n      dup1\n      swap2\n      sub\n      swap1\n      return\n        /* \"@openzeppelin/contracts/access/Ownable.sol\":1638:1723  function owner() public view virtual returns (address) {... */\n    tag_9:\n      tag_41\n      tag_42\n      jump\t// in\n    tag_41:\n      mload(0x40)\n      tag_43\n      swap2\n      swap1\n      tag_44\n      jump\t// in\n    tag_43:\n      mload(0x40)\n      dup1\n      swap2\n      sub\n      swap1\n      return\n        /* \"contracts/zapyield-mainnet-beta.0.1.2.sol\":1173:1214  mapping(address => UserInfo) public users */\n    tag_10:\n      tag_45\n      0x04\n      dup1\n      calldatasize\n      sub\n      dup2\n      add\n      swap1\n      tag_46\n      swap2\n      swap1\n      tag_28\n      jump\t// in\n    tag_46:\n      tag_47\n      jump\t// in\n    tag_45:\n      mload(0x40)\n      tag_48\n      swap5\n      swap4\n      swap3\n      swap2\n      swap1\n      tag_49\n      jump\t// in\n    tag_48:\n      mload(0x40)\n      dup1\n      swap2\n      sub\n      swap1\n      return\n        /* \"contracts/zapyield-mainnet-beta.0.1.2.sol\":910:953  uint256 public constant REFERRAL_SHARE = 10 */\n    tag_11:\n      tag_50\n      tag_51\n      jump\t// in\n    tag_50:\n      mload(0x40)\n      tag_52\n      swap2\n      swap1\n      tag_23\n      jump\t// in\n    tag_52:\n      mload(0x40)\n      dup1\n      swap2\n      sub\n      swap1\n      return\n        /* \"contracts/zapyield-mainnet-beta.0.1.2.sol\":3714:3882  function collectFees() external onlyOwner {... */\n    tag_12:\n      tag_53\n      tag_54\n      jump\t// in\n    tag_53:\n      stop\n        /* \"contracts/zapyield-mainnet-beta.0.1.2.sol\":1301:2000  function zapIn(uint256 _amount, address _referrer) external nonReentrant {... */\n    tag_13:\n      tag_55\n      0x04\n      dup1\n      calldatasize\n      sub\n      dup2\n      add\n      swap1\n      tag_56\n      swap2\n      swap1\n      tag_57\n      jump\t// in\n    tag_56:\n      tag_58\n      jump\t// in\n    tag_55:\n      stop\n        /* \"@openzeppelin/contracts/access/Ownable.sol\":2543:2758  function transferOwnership(address newOwner) public virtual onlyOwner {... */\n    tag_14:\n      tag_59\n      0x04\n      dup1\n      calldatasize\n      sub\n      dup2\n      add\n      swap1\n      tag_60\n      swap2\n      swap1\n      tag_28\n      jump\t// in\n    tag_60:\n      tag_61\n      jump\t// in\n    tag_59:\n      stop\n        /* \"contracts/zapyield-mainnet-beta.0.1.2.sol\":1220:1252  uint256 public totalProtocolFees */\n    tag_15:\n      tag_62\n      tag_63\n      jump\t// in\n    tag_62:\n      mload(0x40)\n      tag_64\n      swap2\n      swap1\n      tag_23\n      jump\t// in\n    tag_64:\n      mload(0x40)\n      dup1\n      swap2\n      sub\n      swap1\n      return\n        /* \"contracts/zapyield-mainnet-beta.0.1.2.sol\":776:869  IMorphoVault public constant mUSDC = IMorphoVault(0xc1256Ae5FF1cf2719D4937adb3bbCCab2E00A2Ca) */\n    tag_16:\n      tag_65\n      tag_66\n      jump\t// in\n    tag_65:\n      mload(0x40)\n      tag_67\n      swap2\n      swap1\n      tag_68\n      jump\t// in\n    tag_67:\n      mload(0x40)\n      dup1\n      swap2\n      sub\n      swap1\n      return\n        /* \"contracts/zapyield-mainnet-beta.0.1.2.sol\":966:1006  uint256 public constant PROTOCOL_FEE = 5 */\n    tag_21:\n        /* \"contracts/zapyield-mainnet-beta.0.1.2.sol\":1005:1006  5 */\n      0x05\n        /* \"contracts/zapyield-mainnet-beta.0.1.2.sol\":966:1006  uint256 public constant PROTOCOL_FEE = 5 */\n      dup2\n      jump\t// out\n        /* \"contracts/zapyield-mainnet-beta.0.1.2.sol\":2006:3378  function zapOut() external nonReentrant {... */\n    tag_25:\n        /* \"@openzeppelin/contracts/security/ReentrancyGuard.sol\":2261:2282  _nonReentrantBefore() */\n      tag_70\n        /* \"@openzeppelin/contracts/security/ReentrancyGuard.sol\":2261:2280  _nonReentrantBefore */\n      tag_71\n        /* \"@openzeppelin/contracts/security/ReentrancyGuard.sol\":2261:2282  _nonReentrantBefore() */\n      jump\t// in\n    tag_70:\n        /* \"contracts/zapyield-mainnet-beta.0.1.2.sol\":2056:2077  UserInfo storage user */\n      0x00\n        /* \"contracts/zapyield-mainnet-beta.0.1.2.sol\":2080:2085  users */\n      0x02\n        /* \"contracts/zapyield-mainnet-beta.0.1.2.sol\":2080:2097  users[msg.sender] */\n      0x00\n        /* \"contracts/zapyield-mainnet-beta.0.1.2.sol\":2086:2096  msg.sender */\n      caller\n        /* \"contracts/zapyield-mainnet-beta.0.1.2.sol\":2080:2097  users[msg.sender] */\n      0xffffffffffffffffffffffffffffffffffffffff\n      and\n      0xffffffffffffffffffffffffffffffffffffffff\n      and\n      dup2\n      mstore\n      0x20\n      add\n      swap1\n      dup2\n      mstore\n      0x20\n      add\n      0x00\n      keccak256\n        /* \"contracts/zapyield-mainnet-beta.0.1.2.sol\":2056:2097  UserInfo storage user = users[msg.sender] */\n      swap1\n      pop\n        /* \"contracts/zapyield-mainnet-beta.0.1.2.sol\":2135:2136  0 */\n      0x00\n        /* \"contracts/zapyield-mainnet-beta.0.1.2.sol\":2115:2119  user */\n      dup2\n        /* \"contracts/zapyield-mainnet-beta.0.1.2.sol\":2115:2132  user.shareBalance */\n      0x01\n      add\n      sload\n        /* \"contracts/zapyield-mainnet-beta.0.1.2.sol\":2115:2136  user.shareBalance > 0 */\n      gt\n        /* \"contracts/zapyield-mainnet-beta.0.1.2.sol\":2107:2151  require(user.shareBalance > 0, \"No balance\") */\n      tag_73\n      jumpi\n      mload(0x40)\n      0x08c379a000000000000000000000000000000000000000000000000000000000\n      dup2\n      mstore\n      0x04\n      add\n      tag_74\n      swap1\n      tag_75\n      jump\t// in\n    tag_74:\n      mload(0x40)\n      dup1\n      swap2\n      sub\n      swap1\n      revert\n    tag_73:\n        /* \"contracts/zapyield-mainnet-beta.0.1.2.sol\":2162:2176  uint256 shares */\n      0x00\n        /* \"contracts/zapyield-mainnet-beta.0.1.2.sol\":2179:2183  user */\n      dup2\n        /* \"contracts/zapyield-mainnet-beta.0.1.2.sol\":2179:2196  user.shareBalance */\n      0x01\n      add\n      sload\n        /* \"contracts/zapyield-mainnet-beta.0.1.2.sol\":2162:2196  uint256 shares = user.shareBalance */\n      swap1\n      pop\n        /* \"contracts/zapyield-mainnet-beta.0.1.2.sol\":2206:2223  uint256 principal */\n      0x00\n        /* \"contracts/zapyield-mainnet-beta.0.1.2.sol\":2226:2230  user */\n      dup3\n        /* \"contracts/zapyield-mainnet-beta.0.1.2.sol\":2226:2240  user.principal */\n      0x00\n      add\n      sload\n        /* \"contracts/zapyield-mainnet-beta.0.1.2.sol\":2206:2240  uint256 principal = user.principal */\n      swap1\n      pop\n        /* \"contracts/zapyield-mainnet-beta.0.1.2.sol\":2271:2272  0 */\n      0x00\n        /* \"contracts/zapyield-mainnet-beta.0.1.2.sol\":2251:2255  user */\n      dup4\n        /* \"contracts/zapyield-mainnet-beta.0.1.2.sol\":2251:2268  user.shareBalance */\n      0x01\n      add\n        /* \"contracts/zapyield-mainnet-beta.0.1.2.sol\":2251:2272  user.shareBalance = 0 */\n      dup2\n      swap1\n      sstore\n      pop\n        /* \"contracts/zapyield-mainnet-beta.0.1.2.sol\":2299:2300  0 */\n      0x00\n        /* \"contracts/zapyield-mainnet-beta.0.1.2.sol\":2282:2286  user */\n      dup4\n        /* \"contracts/zapyield-mainnet-beta.0.1.2.sol\":2282:2296  user.principal */\n      0x00\n      add\n        /* \"contracts/zapyield-mainnet-beta.0.1.2.sol\":2282:2300  user.principal = 0 */\n      dup2\n      swap1\n      sstore\n      pop\n        /* \"contracts/zapyield-mainnet-beta.0.1.2.sol\":826:868  0xc1256Ae5FF1cf2719D4937adb3bbCCab2E00A2Ca */\n      0xc1256ae5ff1cf2719d4937adb3bbccab2e00a2ca\n        /* \"contracts/zapyield-mainnet-beta.0.1.2.sol\":2333:2345  mUSDC.redeem */\n      0xffffffffffffffffffffffffffffffffffffffff\n      and\n      0xba087652\n        /* \"contracts/zapyield-mainnet-beta.0.1.2.sol\":2346:2352  shares */\n      dup4\n        /* \"contracts/zapyield-mainnet-beta.0.1.2.sol\":2362:2366  this */\n      address\n        /* \"contracts/zapyield-mainnet-beta.0.1.2.sol\":2377:2381  this */\n      address\n        /* \"contracts/zapyield-mainnet-beta.0.1.2.sol\":2333:2383  mUSDC.redeem(shares, address(this), address(this)) */\n      mload(0x40)\n      dup5\n      0xffffffff\n      and\n      0xe0\n      shl\n      dup2\n      mstore\n      0x04\n      add\n      tag_76\n      swap4\n      swap3\n      swap2\n      swap1\n      tag_77\n      jump\t// in\n    tag_76:\n      0x20\n      mload(0x40)\n      dup1\n      dup4\n      sub\n      dup2\n      0x00\n      dup8\n      gas\n      call\n      iszero\n      dup1\n      iszero\n      tag_79\n      jumpi\n      returndatasize\n      0x00\n      dup1\n      returndatacopy\n      revert(0x00, returndatasize)\n    tag_79:\n      pop\n      pop\n      pop\n      pop\n      mload(0x40)\n      returndatasize\n      not(0x1f)\n      0x1f\n      dup3\n      add\n      and\n      dup3\n      add\n      dup1\n      0x40\n      mstore\n      pop\n      dup2\n      add\n      swap1\n      tag_80\n      swap2\n      swap1\n      tag_81\n      jump\t// in\n    tag_80:\n      pop\n        /* \"contracts/zapyield-mainnet-beta.0.1.2.sol\":2393:2411  uint256 totalValue */\n      0x00\n        /* \"contracts/zapyield-mainnet-beta.0.1.2.sol\":826:868  0xc1256Ae5FF1cf2719D4937adb3bbCCab2E00A2Ca */\n      0xc1256ae5ff1cf2719d4937adb3bbccab2e00a2ca\n        /* \"contracts/zapyield-mainnet-beta.0.1.2.sol\":2414:2435  mUSDC.convertToAssets */\n      0xffffffffffffffffffffffffffffffffffffffff\n      and\n      0x07a2d13a\n        /* \"contracts/zapyield-mainnet-beta.0.1.2.sol\":2436:2442  shares */\n      dup5\n        /* \"contracts/zapyield-mainnet-beta.0.1.2.sol\":2414:2443  mUSDC.convertToAssets(shares) */\n      mload(0x40)\n      dup3\n      0xffffffff\n      and\n      0xe0\n      shl\n      dup2\n      mstore\n      0x04\n      add\n      tag_82\n      swap2\n      swap1\n      tag_23\n      jump\t// in\n    tag_82:\n      0x20\n      mload(0x40)\n      dup1\n      dup4\n      sub\n      dup2\n      dup7\n      gas\n      staticcall\n      iszero\n      dup1\n      iszero\n      tag_84\n      jumpi\n      returndatasize\n      0x00\n      dup1\n      returndatacopy\n      revert(0x00, returndatasize)\n    tag_84:\n      pop\n      pop\n      pop\n      pop\n      mload(0x40)\n      returndatasize\n      not(0x1f)\n      0x1f\n      dup3\n      add\n      and\n      dup3\n      add\n      dup1\n      0x40\n      mstore\n      pop\n      dup2\n      add\n      swap1\n      tag_85\n      swap2\n      swap1\n      tag_81\n      jump\t// in\n    tag_85:\n        /* \"contracts/zapyield-mainnet-beta.0.1.2.sol\":2393:2443  uint256 totalValue = mUSDC.convertToAssets(shares) */\n      swap1\n      pop\n        /* \"contracts/zapyield-mainnet-beta.0.1.2.sol\":2484:2498  uint256 profit */\n      0x00\n        /* \"contracts/zapyield-mainnet-beta.0.1.2.sol\":2529:2538  principal */\n      dup3\n        /* \"contracts/zapyield-mainnet-beta.0.1.2.sol\":2516:2526  totalValue */\n      dup3\n        /* \"contracts/zapyield-mainnet-beta.0.1.2.sol\":2516:2538  totalValue > principal */\n      gt\n        /* \"contracts/zapyield-mainnet-beta.0.1.2.sol\":2512:2596  if (totalValue > principal) {... */\n      iszero\n      tag_86\n      jumpi\n        /* \"contracts/zapyield-mainnet-beta.0.1.2.sol\":2576:2585  principal */\n      dup3\n        /* \"contracts/zapyield-mainnet-beta.0.1.2.sol\":2563:2573  totalValue */\n      dup3\n        /* \"contracts/zapyield-mainnet-beta.0.1.2.sol\":2563:2585  totalValue - principal */\n      tag_87\n      swap2\n      swap1\n      tag_88\n      jump\t// in\n    tag_87:\n        /* \"contracts/zapyield-mainnet-beta.0.1.2.sol\":2554:2585  profit = totalValue - principal */\n      swap1\n      pop\n        /* \"contracts/zapyield-mainnet-beta.0.1.2.sol\":2512:2596  if (totalValue > principal) {... */\n    tag_86:\n        /* \"contracts/zapyield-mainnet-beta.0.1.2.sol\":2649:2650  0 */\n      0x00\n        /* \"contracts/zapyield-mainnet-beta.0.1.2.sol\":2640:2646  profit */\n      dup2\n        /* \"contracts/zapyield-mainnet-beta.0.1.2.sol\":2640:2650  profit > 0 */\n      gt\n        /* \"contracts/zapyield-mainnet-beta.0.1.2.sol\":2636:3372  if (profit > 0) {... */\n      iszero\n      tag_89\n      jumpi\n        /* \"contracts/zapyield-mainnet-beta.0.1.2.sol\":2666:2683  uint256 refPayout */\n      0x00\n        /* \"contracts/zapyield-mainnet-beta.0.1.2.sol\":2714:2717  100 */\n      0x64\n        /* \"contracts/zapyield-mainnet-beta.0.1.2.sol\":951:953  10 */\n      0x0a\n        /* \"contracts/zapyield-mainnet-beta.0.1.2.sol\":2687:2693  profit */\n      dup4\n        /* \"contracts/zapyield-mainnet-beta.0.1.2.sol\":2687:2710  profit * REFERRAL_SHARE */\n      tag_90\n      swap2\n      swap1\n      tag_91\n      jump\t// in\n    tag_90:\n        /* \"contracts/zapyield-mainnet-beta.0.1.2.sol\":2686:2717  (profit * REFERRAL_SHARE) / 100 */\n      tag_92\n      swap2\n      swap1\n      tag_93\n      jump\t// in\n    tag_92:\n        /* \"contracts/zapyield-mainnet-beta.0.1.2.sol\":2666:2717  uint256 refPayout = (profit * REFERRAL_SHARE) / 100 */\n      swap1\n      pop\n        /* \"contracts/zapyield-mainnet-beta.0.1.2.sol\":2731:2747  uint256 ownerFee */\n      0x00\n        /* \"contracts/zapyield-mainnet-beta.0.1.2.sol\":2776:2779  100 */\n      0x64\n        /* \"contracts/zapyield-mainnet-beta.0.1.2.sol\":1005:1006  5 */\n      0x05\n        /* \"contracts/zapyield-mainnet-beta.0.1.2.sol\":2751:2757  profit */\n      dup5\n        /* \"contracts/zapyield-mainnet-beta.0.1.2.sol\":2751:2772  profit * PROTOCOL_FEE */\n      tag_94\n      swap2\n      swap1\n      tag_91\n      jump\t// in\n    tag_94:\n        /* \"contracts/zapyield-mainnet-beta.0.1.2.sol\":2750:2779  (profit * PROTOCOL_FEE) / 100 */\n      tag_95\n      swap2\n      swap1\n      tag_93\n      jump\t// in\n    tag_95:\n        /* \"contracts/zapyield-mainnet-beta.0.1.2.sol\":2731:2779  uint256 ownerFee = (profit * PROTOCOL_FEE) / 100 */\n      swap1\n      pop\n        /* \"contracts/zapyield-mainnet-beta.0.1.2.sol\":2793:2811  uint256 userProfit */\n      0x00\n        /* \"contracts/zapyield-mainnet-beta.0.1.2.sol\":2835:2843  ownerFee */\n      dup2\n        /* \"contracts/zapyield-mainnet-beta.0.1.2.sol\":2823:2832  refPayout */\n      dup4\n        /* \"contracts/zapyield-mainnet-beta.0.1.2.sol\":2814:2820  profit */\n      dup6\n        /* \"contracts/zapyield-mainnet-beta.0.1.2.sol\":2814:2832  profit - refPayout */\n      tag_96\n      swap2\n      swap1\n      tag_88\n      jump\t// in\n    tag_96:\n        /* \"contracts/zapyield-mainnet-beta.0.1.2.sol\":2814:2843  profit - refPayout - ownerFee */\n      tag_97\n      swap2\n      swap1\n      tag_88\n      jump\t// in\n    tag_97:\n        /* \"contracts/zapyield-mainnet-beta.0.1.2.sol\":2793:2843  uint256 userProfit = profit - refPayout - ownerFee */\n      swap1\n      pop\n        /* \"contracts/zapyield-mainnet-beta.0.1.2.sol\":2925:2926  0 */\n      0x00\n        /* \"contracts/zapyield-mainnet-beta.0.1.2.sol\":2900:2927  user.referrer != address(0) */\n      0xffffffffffffffffffffffffffffffffffffffff\n      and\n        /* \"contracts/zapyield-mainnet-beta.0.1.2.sol\":2900:2904  user */\n      dup9\n        /* \"contracts/zapyield-mainnet-beta.0.1.2.sol\":2900:2913  user.referrer */\n      0x02\n      add\n      0x00\n      swap1\n      sload\n      swap1\n      0x0100\n      exp\n      swap1\n      div\n      0xffffffffffffffffffffffffffffffffffffffff\n      and\n        /* \"contracts/zapyield-mainnet-beta.0.1.2.sol\":2900:2927  user.referrer != address(0) */\n      0xffffffffffffffffffffffffffffffffffffffff\n      and\n      eq\n        /* \"contracts/zapyield-mainnet-beta.0.1.2.sol\":2896:3180  if (user.referrer != address(0)) {... */\n      tag_98\n      jumpi\n        /* \"contracts/zapyield-mainnet-beta.0.1.2.sol\":2947:2990  USDC.safeTransfer(user.referrer, refPayout) */\n      tag_99\n        /* \"contracts/zapyield-mainnet-beta.0.1.2.sol\":2965:2969  user */\n      dup9\n        /* \"contracts/zapyield-mainnet-beta.0.1.2.sol\":2965:2978  user.referrer */\n      0x02\n      add\n      0x00\n      swap1\n      sload\n      swap1\n      0x0100\n      exp\n      swap1\n      div\n      0xffffffffffffffffffffffffffffffffffffffff\n      and\n        /* \"contracts/zapyield-mainnet-beta.0.1.2.sol\":2980:2989  refPayout */\n      dup5\n        /* \"contracts/zapyield-mainnet-beta.0.1.2.sol\":726:768  0x833589fCD6eDb6E08f4c7C32D4f71b54bdA02913 */\n      0x833589fcd6edb6e08f4c7c32d4f71b54bda02913\n        /* \"contracts/zapyield-mainnet-beta.0.1.2.sol\":2947:2964  USDC.safeTransfer */\n      0xffffffffffffffffffffffffffffffffffffffff\n      and\n      tag_100\n      swap1\n        /* \"contracts/zapyield-mainnet-beta.0.1.2.sol\":2947:2990  USDC.safeTransfer(user.referrer, refPayout) */\n      swap3\n      swap2\n      swap1\n      0xffffffff\n      and\n      jump\t// in\n    tag_99:\n        /* \"contracts/zapyield-mainnet-beta.0.1.2.sol\":3054:3063  refPayout */\n      dup3\n        /* \"contracts/zapyield-mainnet-beta.0.1.2.sol\":3008:3013  users */\n      0x02\n        /* \"contracts/zapyield-mainnet-beta.0.1.2.sol\":3008:3028  users[user.referrer] */\n      0x00\n        /* \"contracts/zapyield-mainnet-beta.0.1.2.sol\":3014:3018  user */\n      dup11\n        /* \"contracts/zapyield-mainnet-beta.0.1.2.sol\":3014:3027  user.referrer */\n      0x02\n      add\n      0x00\n      swap1\n      sload\n      swap1\n      0x0100\n      exp\n      swap1\n      div\n      0xffffffffffffffffffffffffffffffffffffffff\n      and\n        /* \"contracts/zapyield-mainnet-beta.0.1.2.sol\":3008:3028  users[user.referrer] */\n      0xffffffffffffffffffffffffffffffffffffffff\n      and\n      0xffffffffffffffffffffffffffffffffffffffff\n      and\n      dup2\n      mstore\n      0x20\n      add\n      swap1\n      dup2\n      mstore\n      0x20\n      add\n      0x00\n      keccak256\n        /* \"contracts/zapyield-mainnet-beta.0.1.2.sol\":3008:3050  users[user.referrer].totalReferralEarnings */\n      0x03\n      add\n      0x00\n        /* \"contracts/zapyield-mainnet-beta.0.1.2.sol\":3008:3063  users[user.referrer].totalReferralEarnings += refPayout */\n      dup3\n      dup3\n      sload\n      tag_101\n      swap2\n      swap1\n      tag_102\n      jump\t// in\n    tag_101:\n      swap3\n      pop\n      pop\n      dup2\n      swap1\n      sstore\n      pop\n        /* \"contracts/zapyield-mainnet-beta.0.1.2.sol\":2896:3180  if (user.referrer != address(0)) {... */\n      jump(tag_103)\n    tag_98:\n        /* \"contracts/zapyield-mainnet-beta.0.1.2.sol\":3123:3132  refPayout */\n      dup3\n        /* \"contracts/zapyield-mainnet-beta.0.1.2.sol\":3102:3119  totalProtocolFees */\n      0x03\n      0x00\n        /* \"contracts/zapyield-mainnet-beta.0.1.2.sol\":3102:3132  totalProtocolFees += refPayout */\n      dup3\n      dup3\n      sload\n      tag_104\n      swap2\n      swap1\n      tag_102\n      jump\t// in\n    tag_104:\n      swap3\n      pop\n      pop\n      dup2\n      swap1\n      sstore\n      pop\n        /* \"contracts/zapyield-mainnet-beta.0.1.2.sol\":2896:3180  if (user.referrer != address(0)) {... */\n    tag_103:\n        /* \"contracts/zapyield-mainnet-beta.0.1.2.sol\":3215:3223  ownerFee */\n      dup2\n        /* \"contracts/zapyield-mainnet-beta.0.1.2.sol\":3194:3211  totalProtocolFees */\n      0x03\n      0x00\n        /* \"contracts/zapyield-mainnet-beta.0.1.2.sol\":3194:3223  totalProtocolFees += ownerFee */\n      dup3\n      dup3\n      sload\n      tag_105\n      swap2\n      swap1\n      tag_102\n      jump\t// in\n    tag_105:\n      swap3\n      pop\n      pop\n      dup2\n      swap1\n      sstore\n      pop\n        /* \"contracts/zapyield-mainnet-beta.0.1.2.sol\":3237:3290  USDC.safeTransfer(msg.sender, principal + userProfit) */\n      tag_106\n        /* \"contracts/zapyield-mainnet-beta.0.1.2.sol\":3255:3265  msg.sender */\n      caller\n        /* \"contracts/zapyield-mainnet-beta.0.1.2.sol\":3279:3289  userProfit */\n      dup3\n        /* \"contracts/zapyield-mainnet-beta.0.1.2.sol\":3267:3276  principal */\n      dup9\n        /* \"contracts/zapyield-mainnet-beta.0.1.2.sol\":3267:3289  principal + userProfit */\n      tag_107\n      swap2\n      swap1\n      tag_102\n      jump\t// in\n    tag_107:\n        /* \"contracts/zapyield-mainnet-beta.0.1.2.sol\":726:768  0x833589fCD6eDb6E08f4c7C32D4f71b54bdA02913 */\n      0x833589fcd6edb6e08f4c7c32d4f71b54bda02913\n        /* \"contracts/zapyield-mainnet-beta.0.1.2.sol\":3237:3254  USDC.safeTransfer */\n      0xffffffffffffffffffffffffffffffffffffffff\n      and\n      tag_100\n      swap1\n        /* \"contracts/zapyield-mainnet-beta.0.1.2.sol\":3237:3290  USDC.safeTransfer(msg.sender, principal + userProfit) */\n      swap3\n      swap2\n      swap1\n      0xffffffff\n      and\n      jump\t// in\n    tag_106:\n        /* \"contracts/zapyield-mainnet-beta.0.1.2.sol\":2652:3301  {... */\n      pop\n      pop\n      pop\n        /* \"contracts/zapyield-mainnet-beta.0.1.2.sol\":2636:3372  if (profit > 0) {... */\n      jump(tag_108)\n    tag_89:\n        /* \"contracts/zapyield-mainnet-beta.0.1.2.sol\":3321:3361  USDC.safeTransfer(msg.sender, principal) */\n      tag_109\n        /* \"contracts/zapyield-mainnet-beta.0.1.2.sol\":3339:3349  msg.sender */\n      caller\n        /* \"contracts/zapyield-mainnet-beta.0.1.2.sol\":3351:3360  principal */\n      dup5\n        /* \"contracts/zapyield-mainnet-beta.0.1.2.sol\":726:768  0x833589fCD6eDb6E08f4c7C32D4f71b54bdA02913 */\n      0x833589fcd6edb6e08f4c7c32d4f71b54bda02913\n        /* \"contracts/zapyield-mainnet-beta.0.1.2.sol\":3321:3338  USDC.safeTransfer */\n      0xffffffffffffffffffffffffffffffffffffffff\n      and\n      tag_100\n      swap1\n        /* \"contracts/zapyield-mainnet-beta.0.1.2.sol\":3321:3361  USDC.safeTransfer(msg.sender, principal) */\n      swap3\n      swap2\n      swap1\n      0xffffffff\n      and\n      jump\t// in\n    tag_109:\n        /* \"contracts/zapyield-mainnet-beta.0.1.2.sol\":2636:3372  if (profit > 0) {... */\n    tag_108:\n        /* \"contracts/zapyield-mainnet-beta.0.1.2.sol\":2046:3378  {... */\n      pop\n      pop\n      pop\n      pop\n      pop\n        /* \"@openzeppelin/contracts/security/ReentrancyGuard.sol\":2303:2323  _nonReentrantAfter() */\n      tag_110\n        /* \"@openzeppelin/contracts/security/ReentrancyGuard.sol\":2303:2321  _nonReentrantAfter */\n      tag_111\n        /* \"@openzeppelin/contracts/security/ReentrancyGuard.sol\":2303:2323  _nonReentrantAfter() */\n      jump\t// in\n    tag_110:\n        /* \"contracts/zapyield-mainnet-beta.0.1.2.sol\":2006:3378  function zapOut() external nonReentrant {... */\n      jump\t// out\n        /* \"contracts/zapyield-mainnet-beta.0.1.2.sol\":3574:3708  function getReferralEarnings(address _user) external view returns (uint256) {... */\n    tag_29:\n        /* \"contracts/zapyield-mainnet-beta.0.1.2.sol\":3641:3648  uint256 */\n      0x00\n        /* \"contracts/zapyield-mainnet-beta.0.1.2.sol\":3667:3672  users */\n      0x02\n        /* \"contracts/zapyield-mainnet-beta.0.1.2.sol\":3667:3679  users[_user] */\n      0x00\n        /* \"contracts/zapyield-mainnet-beta.0.1.2.sol\":3673:3678  _user */\n      dup4\n        /* \"contracts/zapyield-mainnet-beta.0.1.2.sol\":3667:3679  users[_user] */\n      0xffffffffffffffffffffffffffffffffffffffff\n      and\n      0xffffffffffffffffffffffffffffffffffffffff\n      and\n      dup2\n      mstore\n      0x20\n      add\n      swap1\n      dup2\n      mstore\n      0x20\n      add\n      0x00\n      keccak256\n        /* \"contracts/zapyield-mainnet-beta.0.1.2.sol\":3667:3701  users[_user].totalReferralEarnings */\n      0x03\n      add\n      sload\n        /* \"contracts/zapyield-mainnet-beta.0.1.2.sol\":3660:3701  return users[_user].totalReferralEarnings */\n      swap1\n      pop\n        /* \"contracts/zapyield-mainnet-beta.0.1.2.sol\":3574:3708  function getReferralEarnings(address _user) external view returns (uint256) {... */\n      swap2\n      swap1\n      pop\n      jump\t// out\n        /* \"contracts/zapyield-mainnet-beta.0.1.2.sol\":3384:3528  function getAccountValue(address _user) external view returns (uint256) {... */\n    tag_33:\n        /* \"contracts/zapyield-mainnet-beta.0.1.2.sol\":3447:3454  uint256 */\n      0x00\n        /* \"contracts/zapyield-mainnet-beta.0.1.2.sol\":826:868  0xc1256Ae5FF1cf2719D4937adb3bbCCab2E00A2Ca */\n      0xc1256ae5ff1cf2719d4937adb3bbccab2e00a2ca\n        /* \"contracts/zapyield-mainnet-beta.0.1.2.sol\":3473:3494  mUSDC.convertToAssets */\n      0xffffffffffffffffffffffffffffffffffffffff\n      and\n      0x07a2d13a\n        /* \"contracts/zapyield-mainnet-beta.0.1.2.sol\":3495:3500  users */\n      0x02\n        /* \"contracts/zapyield-mainnet-beta.0.1.2.sol\":3495:3507  users[_user] */\n      0x00\n        /* \"contracts/zapyield-mainnet-beta.0.1.2.sol\":3501:3506  _user */\n      dup6\n        /* \"contracts/zapyield-mainnet-beta.0.1.2.sol\":3495:3507  users[_user] */\n      0xffffffffffffffffffffffffffffffffffffffff\n      and\n      0xffffffffffffffffffffffffffffffffffffffff\n      and\n      dup2\n      mstore\n      0x20\n      add\n      swap1\n      dup2\n      mstore\n      0x20\n      add\n      0x00\n      keccak256\n        /* \"contracts/zapyield-mainnet-beta.0.1.2.sol\":3495:3520  users[_user].shareBalance */\n      0x01\n      add\n      sload\n        /* \"contracts/zapyield-mainnet-beta.0.1.2.sol\":3473:3521  mUSDC.convertToAssets(users[_user].shareBalance) */\n      mload(0x40)\n      dup3\n      0xffffffff\n      and\n      0xe0\n      shl\n      dup2\n      mstore\n      0x04\n      add\n      tag_114\n      swap2\n      swap1\n      tag_23\n      jump\t// in\n    tag_114:\n      0x20\n      mload(0x40)\n      dup1\n      dup4\n      sub\n      dup2\n      dup7\n      gas\n      staticcall\n      iszero\n      dup1\n      iszero\n      tag_116\n      jumpi\n      returndatasize\n      0x00\n      dup1\n      returndatacopy\n      revert(0x00, returndatasize)\n    tag_116:\n      pop\n      pop\n      pop\n      pop\n      mload(0x40)\n      returndatasize\n      not(0x1f)\n      0x1f\n      dup3\n      add\n      and\n      dup3\n      add\n      dup1\n      0x40\n      mstore\n      pop\n      dup2\n      add\n      swap1\n      tag_117\n      swap2\n      swap1\n      tag_81\n      jump\t// in\n    tag_117:\n        /* \"contracts/zapyield-mainnet-beta.0.1.2.sol\":3466:3521  return mUSDC.convertToAssets(users[_user].shareBalance) */\n      swap1\n      pop\n        /* \"contracts/zapyield-mainnet-beta.0.1.2.sol\":3384:3528  function getAccountValue(address _user) external view returns (uint256) {... */\n      swap2\n      swap1\n      pop\n      jump\t// out\n        /* \"@openzeppelin/contracts/access/Ownable.sol\":2293:2394  function renounceOwnership() public virtual onlyOwner {... */\n    tag_36:\n        /* \"@openzeppelin/contracts/access/Ownable.sol\":1531:1544  _checkOwner() */\n      tag_119\n        /* \"@openzeppelin/contracts/access/Ownable.sol\":1531:1542  _checkOwner */\n      tag_120\n        /* \"@openzeppelin/contracts/access/Ownable.sol\":1531:1544  _checkOwner() */\n      jump\t// in\n    tag_119:\n        /* \"@openzeppelin/contracts/access/Ownable.sol\":2357:2387  _transferOwnership(address(0)) */\n      tag_122\n        /* \"@openzeppelin/contracts/access/Ownable.sol\":2384:2385  0 */\n      0x00\n        /* \"@openzeppelin/contracts/access/Ownable.sol\":2357:2375  _transferOwnership */\n      tag_123\n        /* \"@openzeppelin/contracts/access/Ownable.sol\":2357:2387  _transferOwnership(address(0)) */\n      jump\t// in\n    tag_122:\n        /* \"@openzeppelin/contracts/access/Ownable.sol\":2293:2394  function renounceOwnership() public virtual onlyOwner {... */\n      jump\t// out\n        /* \"contracts/zapyield-mainnet-beta.0.1.2.sol\":689:769  IERC20 public constant USDC = IERC20(0x833589fCD6eDb6E08f4c7C32D4f71b54bdA02913) */\n    tag_38:\n        /* \"contracts/zapyield-mainnet-beta.0.1.2.sol\":726:768  0x833589fCD6eDb6E08f4c7C32D4f71b54bdA02913 */\n      0x833589fcd6edb6e08f4c7c32d4f71b54bda02913\n        /* \"contracts/zapyield-mainnet-beta.0.1.2.sol\":689:769  IERC20 public constant USDC = IERC20(0x833589fCD6eDb6E08f4c7C32D4f71b54bdA02913) */\n      dup2\n      jump\t// out\n        /* \"@openzeppelin/contracts/access/Ownable.sol\":1638:1723  function owner() public view virtual returns (address) {... */\n    tag_42:\n        /* \"@openzeppelin/contracts/access/Ownable.sol\":1684:1691  address */\n      0x00\n        /* \"@openzeppelin/contracts/access/Ownable.sol\":1710:1716  _owner */\n      dup1\n      0x00\n      swap1\n      sload\n      swap1\n      0x0100\n      exp\n      swap1\n      div\n      0xffffffffffffffffffffffffffffffffffffffff\n      and\n        /* \"@openzeppelin/contracts/access/Ownable.sol\":1703:1716  return _owner */\n      swap1\n      pop\n        /* \"@openzeppelin/contracts/access/Ownable.sol\":1638:1723  function owner() public view virtual returns (address) {... */\n      swap1\n      jump\t// out\n        /* \"contracts/zapyield-mainnet-beta.0.1.2.sol\":1173:1214  mapping(address => UserInfo) public users */\n    tag_47:\n      mstore(0x20, 0x02)\n      dup1\n      0x00\n      mstore\n      keccak256(0x00, 0x40)\n      0x00\n      swap2\n      pop\n      swap1\n      pop\n      dup1\n      0x00\n      add\n      sload\n      swap1\n      dup1\n      0x01\n      add\n      sload\n      swap1\n      dup1\n      0x02\n      add\n      0x00\n      swap1\n      sload\n      swap1\n      0x0100\n      exp\n      swap1\n      div\n      0xffffffffffffffffffffffffffffffffffffffff\n      and\n      swap1\n      dup1\n      0x03\n      add\n      sload\n      swap1\n      pop\n      dup5\n      jump\t// out\n        /* \"contracts/zapyield-mainnet-beta.0.1.2.sol\":910:953  uint256 public constant REFERRAL_SHARE = 10 */\n    tag_51:\n        /* \"contracts/zapyield-mainnet-beta.0.1.2.sol\":951:953  10 */\n      0x0a\n        /* \"contracts/zapyield-mainnet-beta.0.1.2.sol\":910:953  uint256 public constant REFERRAL_SHARE = 10 */\n      dup2\n      jump\t// out\n        /* \"contracts/zapyield-mainnet-beta.0.1.2.sol\":3714:3882  function collectFees() external onlyOwner {... */\n    tag_54:\n        /* \"@openzeppelin/contracts/access/Ownable.sol\":1531:1544  _checkOwner() */\n      tag_126\n        /* \"@openzeppelin/contracts/access/Ownable.sol\":1531:1542  _checkOwner */\n      tag_120\n        /* \"@openzeppelin/contracts/access/Ownable.sol\":1531:1544  _checkOwner() */\n      jump\t// in\n    tag_126:\n        /* \"contracts/zapyield-mainnet-beta.0.1.2.sol\":3766:3780  uint256 amount */\n      0x00\n        /* \"contracts/zapyield-mainnet-beta.0.1.2.sol\":3783:3800  totalProtocolFees */\n      sload(0x03)\n        /* \"contracts/zapyield-mainnet-beta.0.1.2.sol\":3766:3800  uint256 amount = totalProtocolFees */\n      swap1\n      pop\n        /* \"contracts/zapyield-mainnet-beta.0.1.2.sol\":3830:3831  0 */\n      0x00\n        /* \"contracts/zapyield-mainnet-beta.0.1.2.sol\":3810:3827  totalProtocolFees */\n      0x03\n        /* \"contracts/zapyield-mainnet-beta.0.1.2.sol\":3810:3831  totalProtocolFees = 0 */\n      dup2\n      swap1\n      sstore\n      pop\n        /* \"contracts/zapyield-mainnet-beta.0.1.2.sol\":3841:3875  USDC.safeTransfer(owner(), amount) */\n      tag_128\n        /* \"contracts/zapyield-mainnet-beta.0.1.2.sol\":3859:3866  owner() */\n      tag_129\n        /* \"contracts/zapyield-mainnet-beta.0.1.2.sol\":3859:3864  owner */\n      tag_42\n        /* \"contracts/zapyield-mainnet-beta.0.1.2.sol\":3859:3866  owner() */\n      jump\t// in\n    tag_129:\n        /* \"contracts/zapyield-mainnet-beta.0.1.2.sol\":3868:3874  amount */\n      dup3\n        /* \"contracts/zapyield-mainnet-beta.0.1.2.sol\":726:768  0x833589fCD6eDb6E08f4c7C32D4f71b54bdA02913 */\n      0x833589fcd6edb6e08f4c7c32d4f71b54bda02913\n        /* \"contracts/zapyield-mainnet-beta.0.1.2.sol\":3841:3858  USDC.safeTransfer */\n      0xffffffffffffffffffffffffffffffffffffffff\n      and\n      tag_100\n      swap1\n        /* \"contracts/zapyield-mainnet-beta.0.1.2.sol\":3841:3875  USDC.safeTransfer(owner(), amount) */\n      swap3\n      swap2\n      swap1\n      0xffffffff\n      and\n      jump\t// in\n    tag_128:\n        /* \"contracts/zapyield-mainnet-beta.0.1.2.sol\":3756:3882  {... */\n      pop\n        /* \"contracts/zapyield-mainnet-beta.0.1.2.sol\":3714:3882  function collectFees() external onlyOwner {... */\n      jump\t// out\n        /* \"contracts/zapyield-mainnet-beta.0.1.2.sol\":1301:2000  function zapIn(uint256 _amount, address _referrer) external nonReentrant {... */\n    tag_58:\n        /* \"@openzeppelin/contracts/security/ReentrancyGuard.sol\":2261:2282  _nonReentrantBefore() */\n      tag_131\n        /* \"@openzeppelin/contracts/security/ReentrancyGuard.sol\":2261:2280  _nonReentrantBefore */\n      tag_71\n        /* \"@openzeppelin/contracts/security/ReentrancyGuard.sol\":2261:2282  _nonReentrantBefore() */\n      jump\t// in\n    tag_131:\n        /* \"contracts/zapyield-mainnet-beta.0.1.2.sol\":1403:1411  10 * 1e6 */\n      0x989680\n        /* \"contracts/zapyield-mainnet-beta.0.1.2.sol\":1392:1399  _amount */\n      dup3\n        /* \"contracts/zapyield-mainnet-beta.0.1.2.sol\":1392:1411  _amount >= 10 * 1e6 */\n      lt\n      iszero\n        /* \"contracts/zapyield-mainnet-beta.0.1.2.sol\":1384:1427  require(_amount >= 10 * 1e6, \"Min 10 USDC\") */\n      tag_133\n      jumpi\n      mload(0x40)\n      0x08c379a000000000000000000000000000000000000000000000000000000000\n      dup2\n      mstore\n      0x04\n      add\n      tag_134\n      swap1\n      tag_135\n      jump\t// in\n    tag_134:\n      mload(0x40)\n      dup1\n      swap2\n      sub\n      swap1\n      revert\n    tag_133:\n        /* \"contracts/zapyield-mainnet-beta.0.1.2.sol\":1458:1468  msg.sender */\n      caller\n        /* \"contracts/zapyield-mainnet-beta.0.1.2.sol\":1445:1468  _referrer != msg.sender */\n      0xffffffffffffffffffffffffffffffffffffffff\n      and\n        /* \"contracts/zapyield-mainnet-beta.0.1.2.sol\":1445:1454  _referrer */\n      dup2\n        /* \"contracts/zapyield-mainnet-beta.0.1.2.sol\":1445:1468  _referrer != msg.sender */\n      0xffffffffffffffffffffffffffffffffffffffff\n      and\n      sub\n        /* \"contracts/zapyield-mainnet-beta.0.1.2.sol\":1437:1489  require(_referrer != msg.sender, \"No self-referral\") */\n      tag_136\n      jumpi\n      mload(0x40)\n      0x08c379a000000000000000000000000000000000000000000000000000000000\n      dup2\n      mstore\n      0x04\n      add\n      tag_137\n      swap1\n      tag_138\n      jump\t// in\n    tag_137:\n      mload(0x40)\n      dup1\n      swap2\n      sub\n      swap1\n      revert\n    tag_136:\n        /* \"contracts/zapyield-mainnet-beta.0.1.2.sol\":1500:1521  UserInfo storage user */\n      0x00\n        /* \"contracts/zapyield-mainnet-beta.0.1.2.sol\":1524:1529  users */\n      0x02\n        /* \"contracts/zapyield-mainnet-beta.0.1.2.sol\":1524:1541  users[msg.sender] */\n      0x00\n        /* \"contracts/zapyield-mainnet-beta.0.1.2.sol\":1530:1540  msg.sender */\n      caller\n        /* \"contracts/zapyield-mainnet-beta.0.1.2.sol\":1524:1541  users[msg.sender] */\n      0xffffffffffffffffffffffffffffffffffffffff\n      and\n      0xffffffffffffffffffffffffffffffffffffffff\n      and\n      dup2\n      mstore\n      0x20\n      add\n      swap1\n      dup2\n      mstore\n      0x20\n      add\n      0x00\n      keccak256\n        /* \"contracts/zapyield-mainnet-beta.0.1.2.sol\":1500:1541  UserInfo storage user = users[msg.sender] */\n      swap1\n      pop\n        /* \"contracts/zapyield-mainnet-beta.0.1.2.sol\":1618:1619  0 */\n      0x00\n        /* \"contracts/zapyield-mainnet-beta.0.1.2.sol\":1593:1620  user.referrer == address(0) */\n      0xffffffffffffffffffffffffffffffffffffffff\n      and\n        /* \"contracts/zapyield-mainnet-beta.0.1.2.sol\":1593:1597  user */\n      dup2\n        /* \"contracts/zapyield-mainnet-beta.0.1.2.sol\":1593:1606  user.referrer */\n      0x02\n      add\n      0x00\n      swap1\n      sload\n      swap1\n      0x0100\n      exp\n      swap1\n      div\n      0xffffffffffffffffffffffffffffffffffffffff\n      and\n        /* \"contracts/zapyield-mainnet-beta.0.1.2.sol\":1593:1620  user.referrer == address(0) */\n      0xffffffffffffffffffffffffffffffffffffffff\n      and\n      eq\n        /* \"contracts/zapyield-mainnet-beta.0.1.2.sol\":1593:1647  user.referrer == address(0) && _referrer != address(0) */\n      dup1\n      iszero\n      tag_139\n      jumpi\n      pop\n        /* \"contracts/zapyield-mainnet-beta.0.1.2.sol\":1645:1646  0 */\n      0x00\n        /* \"contracts/zapyield-mainnet-beta.0.1.2.sol\":1624:1647  _referrer != address(0) */\n      0xffffffffffffffffffffffffffffffffffffffff\n      and\n        /* \"contracts/zapyield-mainnet-beta.0.1.2.sol\":1624:1633  _referrer */\n      dup3\n        /* \"contracts/zapyield-mainnet-beta.0.1.2.sol\":1624:1647  _referrer != address(0) */\n      0xffffffffffffffffffffffffffffffffffffffff\n      and\n      eq\n      iszero\n        /* \"contracts/zapyield-mainnet-beta.0.1.2.sol\":1593:1647  user.referrer == address(0) && _referrer != address(0) */\n    tag_139:\n        /* \"contracts/zapyield-mainnet-beta.0.1.2.sol\":1589:1699  if (user.referrer == address(0) && _referrer != address(0)) {... */\n      iszero\n      tag_140\n      jumpi\n        /* \"contracts/zapyield-mainnet-beta.0.1.2.sol\":1679:1688  _referrer */\n      dup2\n        /* \"contracts/zapyield-mainnet-beta.0.1.2.sol\":1663:1667  user */\n      dup2\n        /* \"contracts/zapyield-mainnet-beta.0.1.2.sol\":1663:1676  user.referrer */\n      0x02\n      add\n      0x00\n        /* \"contracts/zapyield-mainnet-beta.0.1.2.sol\":1663:1688  user.referrer = _referrer */\n      0x0100\n      exp\n      dup2\n      sload\n      dup2\n      0xffffffffffffffffffffffffffffffffffffffff\n      mul\n      not\n      and\n      swap1\n      dup4\n      0xffffffffffffffffffffffffffffffffffffffff\n      and\n      mul\n      or\n      swap1\n      sstore\n      pop\n        /* \"contracts/zapyield-mainnet-beta.0.1.2.sol\":1589:1699  if (user.referrer == address(0) && _referrer != address(0)) {... */\n    tag_140:\n        /* \"contracts/zapyield-mainnet-beta.0.1.2.sol\":1738:1795  USDC.safeTransferFrom(msg.sender, address(this), _amount) */\n      tag_141\n        /* \"contracts/zapyield-mainnet-beta.0.1.2.sol\":1760:1770  msg.sender */\n      caller\n        /* \"contracts/zapyield-mainnet-beta.0.1.2.sol\":1780:1784  this */\n      address\n        /* \"contracts/zapyield-mainnet-beta.0.1.2.sol\":1787:1794  _amount */\n      dup6\n        /* \"contracts/zapyield-mainnet-beta.0.1.2.sol\":726:768  0x833589fCD6eDb6E08f4c7C32D4f71b54bdA02913 */\n      0x833589fcd6edb6e08f4c7c32d4f71b54bda02913\n        /* \"contracts/zapyield-mainnet-beta.0.1.2.sol\":1738:1759  USDC.safeTransferFrom */\n      0xffffffffffffffffffffffffffffffffffffffff\n      and\n      tag_142\n      swap1\n        /* \"contracts/zapyield-mainnet-beta.0.1.2.sol\":1738:1795  USDC.safeTransferFrom(msg.sender, address(this), _amount) */\n      swap4\n      swap3\n      swap2\n      swap1\n      0xffffffff\n      and\n      jump\t// in\n    tag_141:\n        /* \"contracts/zapyield-mainnet-beta.0.1.2.sol\":726:768  0x833589fCD6eDb6E08f4c7C32D4f71b54bdA02913 */\n      0x833589fcd6edb6e08f4c7c32d4f71b54bda02913\n        /* \"contracts/zapyield-mainnet-beta.0.1.2.sol\":1805:1817  USDC.approve */\n      0xffffffffffffffffffffffffffffffffffffffff\n      and\n      0x095ea7b3\n        /* \"contracts/zapyield-mainnet-beta.0.1.2.sol\":826:868  0xc1256Ae5FF1cf2719D4937adb3bbCCab2E00A2Ca */\n      0xc1256ae5ff1cf2719d4937adb3bbccab2e00a2ca\n        /* \"contracts/zapyield-mainnet-beta.0.1.2.sol\":1834:1841  _amount */\n      dup6\n        /* \"contracts/zapyield-mainnet-beta.0.1.2.sol\":1805:1842  USDC.approve(address(mUSDC), _amount) */\n      mload(0x40)\n      dup4\n      0xffffffff\n      and\n      0xe0\n      shl\n      dup2\n      mstore\n      0x04\n      add\n      tag_143\n      swap3\n      swap2\n      swap1\n      tag_144\n      jump\t// in\n    tag_143:\n      0x20\n      mload(0x40)\n      dup1\n      dup4\n      sub\n      dup2\n      0x00\n      dup8\n      gas\n      call\n      iszero\n      dup1\n      iszero\n      tag_146\n      jumpi\n      returndatasize\n      0x00\n      dup1\n      returndatacopy\n      revert(0x00, returndatasize)\n    tag_146:\n      pop\n      pop\n      pop\n      pop\n      mload(0x40)\n      returndatasize\n      not(0x1f)\n      0x1f\n      dup3\n      add\n      and\n      dup3\n      add\n      dup1\n      0x40\n      mstore\n      pop\n      dup2\n      add\n      swap1\n      tag_147\n      swap2\n      swap1\n      tag_148\n      jump\t// in\n    tag_147:\n      pop\n        /* \"contracts/zapyield-mainnet-beta.0.1.2.sol\":1852:1869  uint256 newShares */\n      0x00\n        /* \"contracts/zapyield-mainnet-beta.0.1.2.sol\":826:868  0xc1256Ae5FF1cf2719D4937adb3bbCCab2E00A2Ca */\n      0xc1256ae5ff1cf2719d4937adb3bbccab2e00a2ca\n        /* \"contracts/zapyield-mainnet-beta.0.1.2.sol\":1872:1885  mUSDC.deposit */\n      0xffffffffffffffffffffffffffffffffffffffff\n      and\n      0x6e553f65\n        /* \"contracts/zapyield-mainnet-beta.0.1.2.sol\":1886:1893  _amount */\n      dup6\n        /* \"contracts/zapyield-mainnet-beta.0.1.2.sol\":1903:1907  this */\n      address\n        /* \"contracts/zapyield-mainnet-beta.0.1.2.sol\":1872:1909  mUSDC.deposit(_amount, address(this)) */\n      mload(0x40)\n      dup4\n      0xffffffff\n      and\n      0xe0\n      shl\n      dup2\n      mstore\n      0x04\n      add\n      tag_149\n      swap3\n      swap2\n      swap1\n      tag_150\n      jump\t// in\n    tag_149:\n      0x20\n      mload(0x40)\n      dup1\n      dup4\n      sub\n      dup2\n      0x00\n      dup8\n      gas\n      call\n      iszero\n      dup1\n      iszero\n      tag_152\n      jumpi\n      returndatasize\n      0x00\n      dup1\n      returndatacopy\n      revert(0x00, returndatasize)\n    tag_152:\n      pop\n      pop\n      pop\n      pop\n      mload(0x40)\n      returndatasize\n      not(0x1f)\n      0x1f\n      dup3\n      add\n      and\n      dup3\n      add\n      dup1\n      0x40\n      mstore\n      pop\n      dup2\n      add\n      swap1\n      tag_153\n      swap2\n      swap1\n      tag_81\n      jump\t// in\n    tag_153:\n        /* \"contracts/zapyield-mainnet-beta.0.1.2.sol\":1852:1909  uint256 newShares = mUSDC.deposit(_amount, address(this)) */\n      swap1\n      pop\n        /* \"contracts/zapyield-mainnet-beta.0.1.2.sol\":1946:1953  _amount */\n      dup4\n        /* \"contracts/zapyield-mainnet-beta.0.1.2.sol\":1928:1932  user */\n      dup3\n        /* \"contracts/zapyield-mainnet-beta.0.1.2.sol\":1928:1942  user.principal */\n      0x00\n      add\n      0x00\n        /* \"contracts/zapyield-mainnet-beta.0.1.2.sol\":1928:1953  user.principal += _amount */\n      dup3\n      dup3\n      sload\n      tag_154\n      swap2\n      swap1\n      tag_102\n      jump\t// in\n    tag_154:\n      swap3\n      pop\n      pop\n      dup2\n      swap1\n      sstore\n      pop\n        /* \"contracts/zapyield-mainnet-beta.0.1.2.sol\":1984:1993  newShares */\n      dup1\n        /* \"contracts/zapyield-mainnet-beta.0.1.2.sol\":1963:1967  user */\n      dup3\n        /* \"contracts/zapyield-mainnet-beta.0.1.2.sol\":1963:1980  user.shareBalance */\n      0x01\n      add\n      0x00\n        /* \"contracts/zapyield-mainnet-beta.0.1.2.sol\":1963:1993  user.shareBalance += newShares */\n      dup3\n      dup3\n      sload\n      tag_155\n      swap2\n      swap1\n      tag_102\n      jump\t// in\n    tag_155:\n      swap3\n      pop\n      pop\n      dup2\n      swap1\n      sstore\n      pop\n        /* \"contracts/zapyield-mainnet-beta.0.1.2.sol\":1374:2000  {... */\n      pop\n      pop\n        /* \"@openzeppelin/contracts/security/ReentrancyGuard.sol\":2303:2323  _nonReentrantAfter() */\n      tag_156\n        /* \"@openzeppelin/contracts/security/ReentrancyGuard.sol\":2303:2321  _nonReentrantAfter */\n      tag_111\n        /* \"@openzeppelin/contracts/security/ReentrancyGuard.sol\":2303:2323  _nonReentrantAfter() */\n      jump\t// in\n    tag_156:\n        /* \"contracts/zapyield-mainnet-beta.0.1.2.sol\":1301:2000  function zapIn(uint256 _amount, address _referrer) external nonReentrant {... */\n      pop\n      pop\n      jump\t// out\n        /* \"@openzeppelin/contracts/access/Ownable.sol\":2543:2758  function transferOwnership(address newOwner) public virtual onlyOwner {... */\n    tag_61:\n        /* \"@openzeppelin/contracts/access/Ownable.sol\":1531:1544  _checkOwner() */\n      tag_158\n        /* \"@openzeppelin/contracts/access/Ownable.sol\":1531:1542  _checkOwner */\n      tag_120\n        /* \"@openzeppelin/contracts/access/Ownable.sol\":1531:1544  _checkOwner() */\n      jump\t// in\n    tag_158:\n        /* \"@openzeppelin/contracts/access/Ownable.sol\":2647:2648  0 */\n      0x00\n        /* \"@openzeppelin/contracts/access/Ownable.sol\":2627:2649  newOwner == address(0) */\n      0xffffffffffffffffffffffffffffffffffffffff\n      and\n        /* \"@openzeppelin/contracts/access/Ownable.sol\":2627:2635  newOwner */\n      dup2\n        /* \"@openzeppelin/contracts/access/Ownable.sol\":2627:2649  newOwner == address(0) */\n      0xffffffffffffffffffffffffffffffffffffffff\n      and\n      sub\n        /* \"@openzeppelin/contracts/access/Ownable.sol\":2623:2714  if (newOwner == address(0)) {... */\n      tag_160\n      jumpi\n        /* \"@openzeppelin/contracts/access/Ownable.sol\":2700:2701  0 */\n      0x00\n        /* \"@openzeppelin/contracts/access/Ownable.sol\":2672:2703  OwnableInvalidOwner(address(0)) */\n      mload(0x40)\n      0x1e4fbdf700000000000000000000000000000000000000000000000000000000\n      dup2\n      mstore\n      0x04\n      add\n      tag_161\n      swap2\n      swap1\n      tag_44\n      jump\t// in\n    tag_161:\n      mload(0x40)\n      dup1\n      swap2\n      sub\n      swap1\n      revert\n        /* \"@openzeppelin/contracts/access/Ownable.sol\":2623:2714  if (newOwner == address(0)) {... */\n    tag_160:\n        /* \"@openzeppelin/contracts/access/Ownable.sol\":2723:2751  _transferOwnership(newOwner) */\n      tag_162\n        /* \"@openzeppelin/contracts/access/Ownable.sol\":2742:2750  newOwner */\n      dup2\n        /* \"@openzeppelin/contracts/access/Ownable.sol\":2723:2741  _transferOwnership */\n      tag_123\n        /* \"@openzeppelin/contracts/access/Ownable.sol\":2723:2751  _transferOwnership(newOwner) */\n      jump\t// in\n    tag_162:\n        /* \"@openzeppelin/contracts/access/Ownable.sol\":2543:2758  function transferOwnership(address newOwner) public virtual onlyOwner {... */\n      pop\n      jump\t// out\n        /* \"contracts/zapyield-mainnet-beta.0.1.2.sol\":1220:1252  uint256 public totalProtocolFees */\n    tag_63:\n      sload(0x03)\n      dup2\n      jump\t// out\n        /* \"contracts/zapyield-mainnet-beta.0.1.2.sol\":776:869  IMorphoVault public constant mUSDC = IMorphoVault(0xc1256Ae5FF1cf2719D4937adb3bbCCab2E00A2Ca) */\n    tag_66:\n        /* \"contracts/zapyield-mainnet-beta.0.1.2.sol\":826:868  0xc1256Ae5FF1cf2719D4937adb3bbCCab2E00A2Ca */\n      0xc1256ae5ff1cf2719d4937adb3bbccab2e00a2ca\n        /* \"contracts/zapyield-mainnet-beta.0.1.2.sol\":776:869  IMorphoVault public constant mUSDC = IMorphoVault(0xc1256Ae5FF1cf2719D4937adb3bbCCab2E00A2Ca) */\n      dup2\n      jump\t// out\n        /* \"@openzeppelin/contracts/security/ReentrancyGuard.sol\":2336:2623  function _nonReentrantBefore() private {... */\n    tag_71:\n        /* \"@openzeppelin/contracts/security/ReentrancyGuard.sol\":1759:1760  2 */\n      0x02\n        /* \"@openzeppelin/contracts/security/ReentrancyGuard.sol\":2468:2475  _status */\n      sload(0x01)\n        /* \"@openzeppelin/contracts/security/ReentrancyGuard.sol\":2468:2487  _status != _ENTERED */\n      sub\n        /* \"@openzeppelin/contracts/security/ReentrancyGuard.sol\":2460:2523  require(_status != _ENTERED, \"ReentrancyGuard: reentrant call\") */\n      tag_164\n      jumpi\n      mload(0x40)\n      0x08c379a000000000000000000000000000000000000000000000000000000000\n      dup2\n      mstore\n      0x04\n      add\n      tag_165\n      swap1\n      tag_166\n      jump\t// in\n    tag_165:\n      mload(0x40)\n      dup1\n      swap2\n      sub\n      swap1\n      revert\n    tag_164:\n        /* \"@openzeppelin/contracts/security/ReentrancyGuard.sol\":1759:1760  2 */\n      0x02\n        /* \"@openzeppelin/contracts/security/ReentrancyGuard.sol\":2598:2605  _status */\n      0x01\n        /* \"@openzeppelin/contracts/security/ReentrancyGuard.sol\":2598:2616  _status = _ENTERED */\n      dup2\n      swap1\n      sstore\n      pop\n        /* \"@openzeppelin/contracts/security/ReentrancyGuard.sol\":2336:2623  function _nonReentrantBefore() private {... */\n      jump\t// out\n        /* \"@openzeppelin/contracts/token/ERC20/utils/SafeERC20.sol\":1219:1379  function safeTransfer(IERC20 token, address to, uint256 value) internal {... */\n    tag_100:\n        /* \"@openzeppelin/contracts/token/ERC20/utils/SafeERC20.sol\":1301:1372  _callOptionalReturn(token, abi.encodeCall(token.transfer, (to, value))) */\n      tag_168\n        /* \"@openzeppelin/contracts/token/ERC20/utils/SafeERC20.sol\":1321:1326  token */\n      dup4\n        /* \"@openzeppelin/contracts/token/ERC20/utils/SafeERC20.sol\":1343:1348  token */\n      dup5\n        /* \"@openzeppelin/contracts/token/ERC20/utils/SafeERC20.sol\":1343:1357  token.transfer */\n      0xffffffffffffffffffffffffffffffffffffffff\n      and\n      0xa9059cbb\n        /* \"@openzeppelin/contracts/token/ERC20/utils/SafeERC20.sol\":1360:1362  to */\n      dup6\n        /* \"@openzeppelin/contracts/token/ERC20/utils/SafeERC20.sol\":1364:1369  value */\n      dup6\n        /* \"@openzeppelin/contracts/token/ERC20/utils/SafeERC20.sol\":1328:1371  abi.encodeCall(token.transfer, (to, value)) */\n      add(0x24, mload(0x40))\n      tag_169\n      swap3\n      swap2\n      swap1\n      tag_144\n      jump\t// in\n    tag_169:\n      mload(0x40)\n      0x20\n      dup2\n      dup4\n      sub\n      sub\n      dup2\n      mstore\n      swap1\n      0x40\n      mstore\n      swap2\n      pop\n      0xe0\n      shl\n      0x20\n      dup3\n      add\n      dup1\n      mload\n      0xffffffffffffffffffffffffffffffffffffffffffffffffffffffff\n      dup4\n      dup2\n      dup4\n      and\n      or\n      dup4\n      mstore\n      pop\n      pop\n      pop\n      pop\n        /* \"@openzeppelin/contracts/token/ERC20/utils/SafeERC20.sol\":1301:1320  _callOptionalReturn */\n      tag_170\n        /* \"@openzeppelin/contracts/token/ERC20/utils/SafeERC20.sol\":1301:1372  _callOptionalReturn(token, abi.encodeCall(token.transfer, (to, value))) */\n      jump\t// in\n    tag_168:\n        /* \"@openzeppelin/contracts/token/ERC20/utils/SafeERC20.sol\":1219:1379  function safeTransfer(IERC20 token, address to, uint256 value) internal {... */\n      pop\n      pop\n      pop\n      jump\t// out\n        /* \"@openzeppelin/contracts/security/ReentrancyGuard.sol\":2629:2838  function _nonReentrantAfter() private {... */\n    tag_111:\n        /* \"@openzeppelin/contracts/security/ReentrancyGuard.sol\":1716:1717  1 */\n      0x01\n        /* \"@openzeppelin/contracts/security/ReentrancyGuard.sol\":2809:2816  _status */\n      dup1\n        /* \"@openzeppelin/contracts/security/ReentrancyGuard.sol\":2809:2831  _status = _NOT_ENTERED */\n      dup2\n      swap1\n      sstore\n      pop\n        /* \"@openzeppelin/contracts/security/ReentrancyGuard.sol\":2629:2838  function _nonReentrantAfter() private {... */\n      jump\t// out\n        /* \"@openzeppelin/contracts/access/Ownable.sol\":1796:1958  function _checkOwner() internal view virtual {... */\n    tag_120:\n        /* \"@openzeppelin/contracts/access/Ownable.sol\":1866:1878  _msgSender() */\n      tag_173\n        /* \"@openzeppelin/contracts/access/Ownable.sol\":1866:1876  _msgSender */\n      tag_174\n        /* \"@openzeppelin/contracts/access/Ownable.sol\":1866:1878  _msgSender() */\n      jump\t// in\n    tag_173:\n        /* \"@openzeppelin/contracts/access/Ownable.sol\":1855:1878  owner() != _msgSender() */\n      0xffffffffffffffffffffffffffffffffffffffff\n      and\n        /* \"@openzeppelin/contracts/access/Ownable.sol\":1855:1862  owner() */\n      tag_175\n        /* \"@openzeppelin/contracts/access/Ownable.sol\":1855:1860  owner */\n      tag_42\n        /* \"@openzeppelin/contracts/access/Ownable.sol\":1855:1862  owner() */\n      jump\t// in\n    tag_175:\n        /* \"@openzeppelin/contracts/access/Ownable.sol\":1855:1878  owner() != _msgSender() */\n      0xffffffffffffffffffffffffffffffffffffffff\n      and\n      eq\n        /* \"@openzeppelin/contracts/access/Ownable.sol\":1851:1952  if (owner() != _msgSender()) {... */\n      tag_176\n      jumpi\n        /* \"@openzeppelin/contracts/access/Ownable.sol\":1928:1940  _msgSender() */\n      tag_177\n        /* \"@openzeppelin/contracts/access/Ownable.sol\":1928:1938  _msgSender */\n      tag_174\n        /* \"@openzeppelin/contracts/access/Ownable.sol\":1928:1940  _msgSender() */\n      jump\t// in\n    tag_177:\n        /* \"@openzeppelin/contracts/access/Ownable.sol\":1901:1941  OwnableUnauthorizedAccount(_msgSender()) */\n      mload(0x40)\n      0x118cdaa700000000000000000000000000000000000000000000000000000000\n      dup2\n      mstore\n      0x04\n      add\n      tag_178\n      swap2\n      swap1\n      tag_44\n      jump\t// in\n    tag_178:\n      mload(0x40)\n      dup1\n      swap2\n      sub\n      swap1\n      revert\n        /* \"@openzeppelin/contracts/access/Ownable.sol\":1851:1952  if (owner() != _msgSender()) {... */\n    tag_176:\n        /* \"@openzeppelin/contracts/access/Ownable.sol\":1796:1958  function _checkOwner() internal view virtual {... */\n      jump\t// out\n        /* \"@openzeppelin/contracts/access/Ownable.sol\":2912:3099  function _transferOwnership(address newOwner) internal virtual {... */\n    tag_123:\n        /* \"@openzeppelin/contracts/access/Ownable.sol\":2985:3001  address oldOwner */\n      0x00\n        /* \"@openzeppelin/contracts/access/Ownable.sol\":3004:3010  _owner */\n      dup1\n      0x00\n      swap1\n      sload\n      swap1\n      0x0100\n      exp\n      swap1\n      div\n      0xffffffffffffffffffffffffffffffffffffffff\n      and\n        /* \"@openzeppelin/contracts/access/Ownable.sol\":2985:3010  address oldOwner = _owner */\n      swap1\n      pop\n        /* \"@openzeppelin/contracts/access/Ownable.sol\":3029:3037  newOwner */\n      dup2\n        /* \"@openzeppelin/contracts/access/Ownable.sol\":3020:3026  _owner */\n      0x00\n      dup1\n        /* \"@openzeppelin/contracts/access/Ownable.sol\":3020:3037  _owner = newOwner */\n      0x0100\n      exp\n      dup2\n      sload\n      dup2\n      0xffffffffffffffffffffffffffffffffffffffff\n      mul\n      not\n      and\n      swap1\n      dup4\n      0xffffffffffffffffffffffffffffffffffffffff\n      and\n      mul\n      or\n      swap1\n      sstore\n      pop\n        /* \"@openzeppelin/contracts/access/Ownable.sol\":3083:3091  newOwner */\n      dup2\n        /* \"@openzeppelin/contracts/access/Ownable.sol\":3052:3092  OwnershipTransferred(oldOwner, newOwner) */\n      0xffffffffffffffffffffffffffffffffffffffff\n      and\n        /* \"@openzeppelin/contracts/access/Ownable.sol\":3073:3081  oldOwner */\n      dup2\n        /* \"@openzeppelin/contracts/access/Ownable.sol\":3052:3092  OwnershipTransferred(oldOwner, newOwner) */\n      0xffffffffffffffffffffffffffffffffffffffff\n      and\n      0x8be0079c531659141344cd1fd0a4f28419497f9722a3daafe3b4186f6b6457e0\n      mload(0x40)\n      mload(0x40)\n      dup1\n      swap2\n      sub\n      swap1\n      log3\n        /* \"@openzeppelin/contracts/access/Ownable.sol\":2975:3099  {... */\n      pop\n        /* \"@openzeppelin/contracts/access/Ownable.sol\":2912:3099  function _transferOwnership(address newOwner) internal virtual {... */\n      pop\n      jump\t// out\n        /* \"@openzeppelin/contracts/token/ERC20/utils/SafeERC20.sol\":1618:1806  function safeTransferFrom(IERC20 token, address from, address to, uint256 value) internal {... */\n    tag_142:\n        /* \"@openzeppelin/contracts/token/ERC20/utils/SafeERC20.sol\":1718:1799  _callOptionalReturn(token, abi.encodeCall(token.transferFrom, (from, to, value))) */\n      tag_181\n        /* \"@openzeppelin/contracts/token/ERC20/utils/SafeERC20.sol\":1738:1743  token */\n      dup5\n        /* \"@openzeppelin/contracts/token/ERC20/utils/SafeERC20.sol\":1760:1765  token */\n      dup6\n        /* \"@openzeppelin/contracts/token/ERC20/utils/SafeERC20.sol\":1760:1778  token.transferFrom */\n      0xffffffffffffffffffffffffffffffffffffffff\n      and\n      0x23b872dd\n        /* \"@openzeppelin/contracts/token/ERC20/utils/SafeERC20.sol\":1781:1785  from */\n      dup7\n        /* \"@openzeppelin/contracts/token/ERC20/utils/SafeERC20.sol\":1787:1789  to */\n      dup7\n        /* \"@openzeppelin/contracts/token/ERC20/utils/SafeERC20.sol\":1791:1796  value */\n      dup7\n        /* \"@openzeppelin/contracts/token/ERC20/utils/SafeERC20.sol\":1745:1798  abi.encodeCall(token.transferFrom, (from, to, value)) */\n      add(0x24, mload(0x40))\n      tag_182\n      swap4\n      swap3\n      swap2\n      swap1\n      tag_183\n      jump\t// in\n    tag_182:\n      mload(0x40)\n      0x20\n      dup2\n      dup4\n      sub\n      sub\n      dup2\n      mstore\n      swap1\n      0x40\n      mstore\n      swap2\n      pop\n      0xe0\n      shl\n      0x20\n      dup3\n      add\n      dup1\n      mload\n      0xffffffffffffffffffffffffffffffffffffffffffffffffffffffff\n      dup4\n      dup2\n      dup4\n      and\n      or\n      dup4\n      mstore\n      pop\n      pop\n      pop\n      pop\n        /* \"@openzeppelin/contracts/token/ERC20/utils/SafeERC20.sol\":1718:1737  _callOptionalReturn */\n      tag_170\n        /* \"@openzeppelin/contracts/token/ERC20/utils/SafeERC20.sol\":1718:1799  _callOptionalReturn(token, abi.encodeCall(token.transferFrom, (from, to, value))) */\n      jump\t// in\n    tag_181:\n        /* \"@openzeppelin/contracts/token/ERC20/utils/SafeERC20.sol\":1618:1806  function safeTransferFrom(IERC20 token, address from, address to, uint256 value) internal {... */\n      pop\n      pop\n      pop\n      pop\n      jump\t// out\n        /* \"@openzeppelin/contracts/token/ERC20/utils/SafeERC20.sol\":8370:9090  function _callOptionalReturn(IERC20 token, bytes memory data) private {... */\n    tag_170:\n        /* \"@openzeppelin/contracts/token/ERC20/utils/SafeERC20.sol\":8450:8468  uint256 returnSize */\n      0x00\n        /* \"@openzeppelin/contracts/token/ERC20/utils/SafeERC20.sol\":8478:8497  uint256 returnValue */\n      dup1\n        /* \"@openzeppelin/contracts/token/ERC20/utils/SafeERC20.sol\":8616:8620  0x20 */\n      0x20\n        /* \"@openzeppelin/contracts/token/ERC20/utils/SafeERC20.sol\":8613:8614  0 */\n      0x00\n        /* \"@openzeppelin/contracts/token/ERC20/utils/SafeERC20.sol\":8606:8610  data */\n      dup5\n        /* \"@openzeppelin/contracts/token/ERC20/utils/SafeERC20.sol\":8600:8611  mload(data) */\n      mload\n        /* \"@openzeppelin/contracts/token/ERC20/utils/SafeERC20.sol\":8593:8597  0x20 */\n      0x20\n        /* \"@openzeppelin/contracts/token/ERC20/utils/SafeERC20.sol\":8587:8591  data */\n      dup7\n        /* \"@openzeppelin/contracts/token/ERC20/utils/SafeERC20.sol\":8583:8598  add(data, 0x20) */\n      add\n        /* \"@openzeppelin/contracts/token/ERC20/utils/SafeERC20.sol\":8580:8581  0 */\n      0x00\n        /* \"@openzeppelin/contracts/token/ERC20/utils/SafeERC20.sol\":8573:8578  token */\n      dup9\n        /* \"@openzeppelin/contracts/token/ERC20/utils/SafeERC20.sol\":8566:8571  gas() */\n      gas\n        /* \"@openzeppelin/contracts/token/ERC20/utils/SafeERC20.sol\":8561:8621  call(gas(), token, 0, add(data, 0x20), mload(data), 0, 0x20) */\n      call\n        /* \"@openzeppelin/contracts/token/ERC20/utils/SafeERC20.sol\":8673:8680  success */\n      dup1\n        /* \"@openzeppelin/contracts/token/ERC20/utils/SafeERC20.sol\":8663:8839  if iszero(success) {... */\n      tag_185\n      jumpi\n        /* \"@openzeppelin/contracts/token/ERC20/utils/SafeERC20.sol\":8717:8721  0x40 */\n      0x40\n        /* \"@openzeppelin/contracts/token/ERC20/utils/SafeERC20.sol\":8711:8722  mload(0x40) */\n      mload\n        /* \"@openzeppelin/contracts/token/ERC20/utils/SafeERC20.sol\":8762:8778  returndatasize() */\n      returndatasize\n        /* \"@openzeppelin/contracts/token/ERC20/utils/SafeERC20.sol\":8759:8760  0 */\n      0x00\n        /* \"@openzeppelin/contracts/token/ERC20/utils/SafeERC20.sol\":8754:8757  ptr */\n      dup3\n        /* \"@openzeppelin/contracts/token/ERC20/utils/SafeERC20.sol\":8739:8779  returndatacopy(ptr, 0, returndatasize()) */\n      returndatacopy\n        /* \"@openzeppelin/contracts/token/ERC20/utils/SafeERC20.sol\":8808:8824  returndatasize() */\n      returndatasize\n        /* \"@openzeppelin/contracts/token/ERC20/utils/SafeERC20.sol\":8803:8806  ptr */\n      dup2\n        /* \"@openzeppelin/contracts/token/ERC20/utils/SafeERC20.sol\":8796:8825  revert(ptr, returndatasize()) */\n      revert\n        /* \"@openzeppelin/contracts/token/ERC20/utils/SafeERC20.sol\":8663:8839  if iszero(success) {... */\n    tag_185:\n        /* \"@openzeppelin/contracts/token/ERC20/utils/SafeERC20.sol\":8866:8882  returndatasize() */\n      returndatasize\n        /* \"@openzeppelin/contracts/token/ERC20/utils/SafeERC20.sol\":8852:8882  returnSize := returndatasize() */\n      swap3\n      pop\n        /* \"@openzeppelin/contracts/token/ERC20/utils/SafeERC20.sol\":8916:8917  0 */\n      0x00\n        /* \"@openzeppelin/contracts/token/ERC20/utils/SafeERC20.sol\":8910:8918  mload(0) */\n      mload\n        /* \"@openzeppelin/contracts/token/ERC20/utils/SafeERC20.sol\":8895:8918  returnValue := mload(0) */\n      swap2\n      pop\n        /* \"@openzeppelin/contracts/token/ERC20/utils/SafeERC20.sol\":8532:8928  {... */\n      pop\n        /* \"@openzeppelin/contracts/token/ERC20/utils/SafeERC20.sol\":8956:8957  0 */\n      0x00\n        /* \"@openzeppelin/contracts/token/ERC20/utils/SafeERC20.sol\":8942:8952  returnSize */\n      dup3\n        /* \"@openzeppelin/contracts/token/ERC20/utils/SafeERC20.sol\":8942:8957  returnSize == 0 */\n      eq\n        /* \"@openzeppelin/contracts/token/ERC20/utils/SafeERC20.sol\":8942:9010  returnSize == 0 ? address(token).code.length == 0 : returnValue != 1 */\n      tag_186\n      jumpi\n        /* \"@openzeppelin/contracts/token/ERC20/utils/SafeERC20.sol\":9009:9010  1 */\n      0x01\n        /* \"@openzeppelin/contracts/token/ERC20/utils/SafeERC20.sol\":8994:9005  returnValue */\n      dup2\n        /* \"@openzeppelin/contracts/token/ERC20/utils/SafeERC20.sol\":8994:9010  returnValue != 1 */\n      eq\n      iszero\n        /* \"@openzeppelin/contracts/token/ERC20/utils/SafeERC20.sol\":8942:9010  returnSize == 0 ? address(token).code.length == 0 : returnValue != 1 */\n      jump(tag_187)\n    tag_186:\n        /* \"@openzeppelin/contracts/token/ERC20/utils/SafeERC20.sol\":8990:8991  0 */\n      0x00\n        /* \"@openzeppelin/contracts/token/ERC20/utils/SafeERC20.sol\":8968:8973  token */\n      dup5\n        /* \"@openzeppelin/contracts/token/ERC20/utils/SafeERC20.sol\":8960:8986  address(token).code.length */\n      0xffffffffffffffffffffffffffffffffffffffff\n      and\n      extcodesize\n        /* \"@openzeppelin/contracts/token/ERC20/utils/SafeERC20.sol\":8960:8991  address(token).code.length == 0 */\n      eq\n        /* \"@openzeppelin/contracts/token/ERC20/utils/SafeERC20.sol\":8942:9010  returnSize == 0 ? address(token).code.length == 0 : returnValue != 1 */\n    tag_187:\n        /* \"@openzeppelin/contracts/token/ERC20/utils/SafeERC20.sol\":8938:9084  if (returnSize == 0 ? address(token).code.length == 0 : returnValue != 1) {... */\n      iszero\n      tag_188\n      jumpi\n        /* \"@openzeppelin/contracts/token/ERC20/utils/SafeERC20.sol\":9066:9071  token */\n      dup4\n        /* \"@openzeppelin/contracts/token/ERC20/utils/SafeERC20.sol\":9033:9073  SafeERC20FailedOperation(address(token)) */\n      mload(0x40)\n      0x5274afe700000000000000000000000000000000000000000000000000000000\n      dup2\n      mstore\n      0x04\n      add\n      tag_189\n      swap2\n      swap1\n      tag_44\n      jump\t// in\n    tag_189:\n      mload(0x40)\n      dup1\n      swap2\n      sub\n      swap1\n      revert\n        /* \"@openzeppelin/contracts/token/ERC20/utils/SafeERC20.sol\":8938:9084  if (returnSize == 0 ? address(token).code.length == 0 : returnValue != 1) {... */\n    tag_188:\n        /* \"@openzeppelin/contracts/token/ERC20/utils/SafeERC20.sol\":8440:9090  {... */\n      pop\n      pop\n        /* \"@openzeppelin/contracts/token/ERC20/utils/SafeERC20.sol\":8370:9090  function _callOptionalReturn(IERC20 token, bytes memory data) private {... */\n      pop\n      pop\n      jump\t// out\n        /* \"@openzeppelin/contracts/utils/Context.sol\":656:752  function _msgSender() internal view virtual returns (address) {... */\n    tag_174:\n        /* \"@openzeppelin/contracts/utils/Context.sol\":709:716  address */\n      0x00\n        /* \"@openzeppelin/contracts/utils/Context.sol\":735:745  msg.sender */\n      caller\n        /* \"@openzeppelin/contracts/utils/Context.sol\":728:745  return msg.sender */\n      swap1\n      pop\n        /* \"@openzeppelin/contracts/utils/Context.sol\":656:752  function _msgSender() internal view virtual returns (address) {... */\n      swap1\n      jump\t// out\n        /* \"#utility.yul\":7:84   */\n    tag_191:\n        /* \"#utility.yul\":44:51   */\n      0x00\n        /* \"#utility.yul\":73:78   */\n      dup2\n        /* \"#utility.yul\":62:78   */\n      swap1\n      pop\n        /* \"#utility.yul\":7:84   */\n      swap2\n      swap1\n      pop\n      jump\t// out\n        /* \"#utility.yul\":90:208   */\n    tag_192:\n        /* \"#utility.yul\":177:201   */\n      tag_228\n        /* \"#utility.yul\":195:200   */\n      dup2\n        /* \"#utility.yul\":177:201   */\n      tag_191\n      jump\t// in\n    tag_228:\n        /* \"#utility.yul\":172:175   */\n      dup3\n        /* \"#utility.yul\":165:202   */\n      mstore\n        /* \"#utility.yul\":90:208   */\n      pop\n      pop\n      jump\t// out\n        /* \"#utility.yul\":214:436   */\n    tag_23:\n        /* \"#utility.yul\":307:311   */\n      0x00\n        /* \"#utility.yul\":345:347   */\n      0x20\n        /* \"#utility.yul\":334:343   */\n      dup3\n        /* \"#utility.yul\":330:348   */\n      add\n        /* \"#utility.yul\":322:348   */\n      swap1\n      pop\n        /* \"#utility.yul\":358:429   */\n      tag_230\n        /* \"#utility.yul\":426:427   */\n      0x00\n        /* \"#utility.yul\":415:424   */\n      dup4\n        /* \"#utility.yul\":411:428   */\n      add\n        /* \"#utility.yul\":402:408   */\n      dup5\n        /* \"#utility.yul\":358:429   */\n      tag_192\n      jump\t// in\n    tag_230:\n        /* \"#utility.yul\":214:436   */\n      swap3\n      swap2\n      pop\n      pop\n      jump\t// out\n        /* \"#utility.yul\":523:640   */\n    tag_194:\n        /* \"#utility.yul\":632:633   */\n      0x00\n        /* \"#utility.yul\":629:630   */\n      dup1\n        /* \"#utility.yul\":622:634   */\n      revert\n        /* \"#utility.yul\":769:895   */\n    tag_196:\n        /* \"#utility.yul\":806:813   */\n      0x00\n        /* \"#utility.yul\":846:888   */\n      0xffffffffffffffffffffffffffffffffffffffff\n        /* \"#utility.yul\":839:844   */\n      dup3\n        /* \"#utility.yul\":835:889   */\n      and\n        /* \"#utility.yul\":824:889   */\n      swap1\n      pop\n        /* \"#utility.yul\":769:895   */\n      swap2\n      swap1\n      pop\n      jump\t// out\n        /* \"#utility.yul\":901:997   */\n    tag_197:\n        /* \"#utility.yul\":938:945   */\n      0x00\n        /* \"#utility.yul\":967:991   */\n      tag_236\n        /* \"#utility.yul\":985:990   */\n      dup3\n        /* \"#utility.yul\":967:991   */\n      tag_196\n      jump\t// in\n    tag_236:\n        /* \"#utility.yul\":956:991   */\n      swap1\n      pop\n        /* \"#utility.yul\":901:997   */\n      swap2\n      swap1\n      pop\n      jump\t// out\n        /* \"#utility.yul\":1003:1125   */\n    tag_198:\n        /* \"#utility.yul\":1076:1100   */\n      tag_238\n        /* \"#utility.yul\":1094:1099   */\n      dup2\n        /* \"#utility.yul\":1076:1100   */\n      tag_197\n      jump\t// in\n    tag_238:\n        /* \"#utility.yul\":1069:1074   */\n      dup2\n        /* \"#utility.yul\":1066:1101   */\n      eq\n        /* \"#utility.yul\":1056:1119   */\n      tag_239\n      jumpi\n        /* \"#utility.yul\":1115:1116   */\n      0x00\n        /* \"#utility.yul\":1112:1113   */\n      dup1\n        /* \"#utility.yul\":1105:1117   */\n      revert\n        /* \"#utility.yul\":1056:1119   */\n    tag_239:\n        /* \"#utility.yul\":1003:1125   */\n      pop\n      jump\t// out\n        /* \"#utility.yul\":1131:1270   */\n    tag_199:\n        /* \"#utility.yul\":1177:1182   */\n      0x00\n        /* \"#utility.yul\":1215:1221   */\n      dup2\n        /* \"#utility.yul\":1202:1222   */\n      calldataload\n        /* \"#utility.yul\":1193:1222   */\n      swap1\n      pop\n        /* \"#utility.yul\":1231:1264   */\n      tag_241\n        /* \"#utility.yul\":1258:1263   */\n      dup2\n        /* \"#utility.yul\":1231:1264   */\n      tag_198\n      jump\t// in\n    tag_241:\n        /* \"#utility.yul\":1131:1270   */\n      swap3\n      swap2\n      pop\n      pop\n      jump\t// out\n        /* \"#utility.yul\":1276:1605   */\n    tag_28:\n        /* \"#utility.yul\":1335:1341   */\n      0x00\n        /* \"#utility.yul\":1384:1386   */\n      0x20\n        /* \"#utility.yul\":1372:1381   */\n      dup3\n        /* \"#utility.yul\":1363:1370   */\n      dup5\n        /* \"#utility.yul\":1359:1382   */\n      sub\n        /* \"#utility.yul\":1355:1387   */\n      slt\n        /* \"#utility.yul\":1352:1471   */\n      iszero\n      tag_243\n      jumpi\n        /* \"#utility.yul\":1390:1469   */\n      tag_244\n      tag_194\n      jump\t// in\n    tag_244:\n        /* \"#utility.yul\":1352:1471   */\n    tag_243:\n        /* \"#utility.yul\":1510:1511   */\n      0x00\n        /* \"#utility.yul\":1535:1588   */\n      tag_245\n        /* \"#utility.yul\":1580:1587   */\n      dup5\n        /* \"#utility.yul\":1571:1577   */\n      dup3\n        /* \"#utility.yul\":1560:1569   */\n      dup6\n        /* \"#utility.yul\":1556:1578   */\n      add\n        /* \"#utility.yul\":1535:1588   */\n      tag_199\n      jump\t// in\n    tag_245:\n        /* \"#utility.yul\":1525:1588   */\n      swap2\n      pop\n        /* \"#utility.yul\":1481:1598   */\n      pop\n        /* \"#utility.yul\":1276:1605   */\n      swap3\n      swap2\n      pop\n      pop\n      jump\t// out\n        /* \"#utility.yul\":1611:1671   */\n    tag_200:\n        /* \"#utility.yul\":1639:1642   */\n      0x00\n        /* \"#utility.yul\":1660:1665   */\n      dup2\n        /* \"#utility.yul\":1653:1665   */\n      swap1\n      pop\n        /* \"#utility.yul\":1611:1671   */\n      swap2\n      swap1\n      pop\n      jump\t// out\n        /* \"#utility.yul\":1677:1819   */\n    tag_201:\n        /* \"#utility.yul\":1727:1736   */\n      0x00\n        /* \"#utility.yul\":1760:1813   */\n      tag_248\n        /* \"#utility.yul\":1778:1812   */\n      tag_249\n        /* \"#utility.yul\":1787:1811   */\n      tag_250\n        /* \"#utility.yul\":1805:1810   */\n      dup5\n        /* \"#utility.yul\":1787:1811   */\n      tag_196\n      jump\t// in\n    tag_250:\n        /* \"#utility.yul\":1778:1812   */\n      tag_200\n      jump\t// in\n    tag_249:\n        /* \"#utility.yul\":1760:1813   */\n      tag_196\n      jump\t// in\n    tag_248:\n        /* \"#utility.yul\":1747:1813   */\n      swap1\n      pop\n        /* \"#utility.yul\":1677:1819   */\n      swap2\n      swap1\n      pop\n      jump\t// out\n        /* \"#utility.yul\":1825:1951   */\n    tag_202:\n        /* \"#utility.yul\":1875:1884   */\n      0x00\n        /* \"#utility.yul\":1908:1945   */\n      tag_252\n        /* \"#utility.yul\":1939:1944   */\n      dup3\n        /* \"#utility.yul\":1908:1945   */\n      tag_201\n      jump\t// in\n    tag_252:\n        /* \"#utility.yul\":1895:1945   */\n      swap1\n      pop\n        /* \"#utility.yul\":1825:1951   */\n      swap2\n      swap1\n      pop\n      jump\t// out\n        /* \"#utility.yul\":1957:2097   */\n    tag_203:\n        /* \"#utility.yul\":2021:2030   */\n      0x00\n        /* \"#utility.yul\":2054:2091   */\n      tag_254\n        /* \"#utility.yul\":2085:2090   */\n      dup3\n        /* \"#utility.yul\":2054:2091   */\n      tag_202\n      jump\t// in\n    tag_254:\n        /* \"#utility.yul\":2041:2091   */\n      swap1\n      pop\n        /* \"#utility.yul\":1957:2097   */\n      swap2\n      swap1\n      pop\n      jump\t// out\n        /* \"#utility.yul\":2103:2262   */\n    tag_204:\n        /* \"#utility.yul\":2204:2255   */\n      tag_256\n        /* \"#utility.yul\":2249:2254   */\n      dup2\n        /* \"#utility.yul\":2204:2255   */\n      tag_203\n      jump\t// in\n    tag_256:\n        /* \"#utility.yul\":2199:2202   */\n      dup3\n        /* \"#utility.yul\":2192:2256   */\n      mstore\n        /* \"#utility.yul\":2103:2262   */\n      pop\n      pop\n      jump\t// out\n        /* \"#utility.yul\":2268:2518   */\n    tag_40:\n        /* \"#utility.yul\":2375:2379   */\n      0x00\n        /* \"#utility.yul\":2413:2415   */\n      0x20\n        /* \"#utility.yul\":2402:2411   */\n      dup3\n        /* \"#utility.yul\":2398:2416   */\n      add\n        /* \"#utility.yul\":2390:2416   */\n      swap1\n      pop\n        /* \"#utility.yul\":2426:2511   */\n      tag_258\n        /* \"#utility.yul\":2508:2509   */\n      0x00\n        /* \"#utility.yul\":2497:2506   */\n      dup4\n        /* \"#utility.yul\":2493:2510   */\n      add\n        /* \"#utility.yul\":2484:2490   */\n      dup5\n        /* \"#utility.yul\":2426:2511   */\n      tag_204\n      jump\t// in\n    tag_258:\n        /* \"#utility.yul\":2268:2518   */\n      swap3\n      swap2\n      pop\n      pop\n      jump\t// out\n        /* \"#utility.yul\":2524:2642   */\n    tag_205:\n        /* \"#utility.yul\":2611:2635   */\n      tag_260\n        /* \"#utility.yul\":2629:2634   */\n      dup2\n        /* \"#utility.yul\":2611:2635   */\n      tag_197\n      jump\t// in\n    tag_260:\n        /* \"#utility.yul\":2606:2609   */\n      dup3\n        /* \"#utility.yul\":2599:2636   */\n      mstore\n        /* \"#utility.yul\":2524:2642   */\n      pop\n      pop\n      jump\t// out\n        /* \"#utility.yul\":2648:2870   */\n    tag_44:\n        /* \"#utility.yul\":2741:2745   */\n      0x00\n        /* \"#utility.yul\":2779:2781   */\n      0x20\n        /* \"#utility.yul\":2768:2777   */\n      dup3\n        /* \"#utility.yul\":2764:2782   */\n      add\n        /* \"#utility.yul\":2756:2782   */\n      swap1\n      pop\n        /* \"#utility.yul\":2792:2863   */\n      tag_262\n        /* \"#utility.yul\":2860:2861   */\n      0x00\n        /* \"#utility.yul\":2849:2858   */\n      dup4\n        /* \"#utility.yul\":2845:2862   */\n      add\n        /* \"#utility.yul\":2836:2842   */\n      dup5\n        /* \"#utility.yul\":2792:2863   */\n      tag_205\n      jump\t// in\n    tag_262:\n        /* \"#utility.yul\":2648:2870   */\n      swap3\n      swap2\n      pop\n      pop\n      jump\t// out\n        /* \"#utility.yul\":2876:3429   */\n    tag_49:\n        /* \"#utility.yul\":3053:3057   */\n      0x00\n        /* \"#utility.yul\":3091:3094   */\n      0x80\n        /* \"#utility.yul\":3080:3089   */\n      dup3\n        /* \"#utility.yul\":3076:3095   */\n      add\n        /* \"#utility.yul\":3068:3095   */\n      swap1\n      pop\n        /* \"#utility.yul\":3105:3176   */\n      tag_264\n        /* \"#utility.yul\":3173:3174   */\n      0x00\n        /* \"#utility.yul\":3162:3171   */\n      dup4\n        /* \"#utility.yul\":3158:3175   */\n      add\n        /* \"#utility.yul\":3149:3155   */\n      dup8\n        /* \"#utility.yul\":3105:3176   */\n      tag_192\n      jump\t// in\n    tag_264:\n        /* \"#utility.yul\":3186:3258   */\n      tag_265\n        /* \"#utility.yul\":3254:3256   */\n      0x20\n        /* \"#utility.yul\":3243:3252   */\n      dup4\n        /* \"#utility.yul\":3239:3257   */\n      add\n        /* \"#utility.yul\":3230:3236   */\n      dup7\n        /* \"#utility.yul\":3186:3258   */\n      tag_192\n      jump\t// in\n    tag_265:\n        /* \"#utility.yul\":3268:3340   */\n      tag_266\n        /* \"#utility.yul\":3336:3338   */\n      0x40\n        /* \"#utility.yul\":3325:3334   */\n      dup4\n        /* \"#utility.yul\":3321:3339   */\n      add\n        /* \"#utility.yul\":3312:3318   */\n      dup6\n        /* \"#utility.yul\":3268:3340   */\n      tag_205\n      jump\t// in\n    tag_266:\n        /* \"#utility.yul\":3350:3422   */\n      tag_267\n        /* \"#utility.yul\":3418:3420   */\n      0x60\n        /* \"#utility.yul\":3407:3416   */\n      dup4\n        /* \"#utility.yul\":3403:3421   */\n      add\n        /* \"#utility.yul\":3394:3400   */\n      dup5\n        /* \"#utility.yul\":3350:3422   */\n      tag_192\n      jump\t// in\n    tag_267:\n        /* \"#utility.yul\":2876:3429   */\n      swap6\n      swap5\n      pop\n      pop\n      pop\n      pop\n      pop\n      jump\t// out\n        /* \"#utility.yul\":3435:3557   */\n    tag_206:\n        /* \"#utility.yul\":3508:3532   */\n      tag_269\n        /* \"#utility.yul\":3526:3531   */\n      dup2\n        /* \"#utility.yul\":3508:3532   */\n      tag_191\n      jump\t// in\n    tag_269:\n        /* \"#utility.yul\":3501:3506   */\n      dup2\n        /* \"#utility.yul\":3498:3533   */\n      eq\n        /* \"#utility.yul\":3488:3551   */\n      tag_270\n      jumpi\n        /* \"#utility.yul\":3547:3548   */\n      0x00\n        /* \"#utility.yul\":3544:3545   */\n      dup1\n        /* \"#utility.yul\":3537:3549   */\n      revert\n        /* \"#utility.yul\":3488:3551   */\n    tag_270:\n        /* \"#utility.yul\":3435:3557   */\n      pop\n      jump\t// out\n        /* \"#utility.yul\":3563:3702   */\n    tag_207:\n        /* \"#utility.yul\":3609:3614   */\n      0x00\n        /* \"#utility.yul\":3647:3653   */\n      dup2\n        /* \"#utility.yul\":3634:3654   */\n      calldataload\n        /* \"#utility.yul\":3625:3654   */\n      swap1\n      pop\n        /* \"#utility.yul\":3663:3696   */\n      tag_272\n        /* \"#utility.yul\":3690:3695   */\n      dup2\n        /* \"#utility.yul\":3663:3696   */\n      tag_206\n      jump\t// in\n    tag_272:\n        /* \"#utility.yul\":3563:3702   */\n      swap3\n      swap2\n      pop\n      pop\n      jump\t// out\n        /* \"#utility.yul\":3708:4182   */\n    tag_57:\n        /* \"#utility.yul\":3776:3782   */\n      0x00\n        /* \"#utility.yul\":3784:3790   */\n      dup1\n        /* \"#utility.yul\":3833:3835   */\n      0x40\n        /* \"#utility.yul\":3821:3830   */\n      dup4\n        /* \"#utility.yul\":3812:3819   */\n      dup6\n        /* \"#utility.yul\":3808:3831   */\n      sub\n        /* \"#utility.yul\":3804:3836   */\n      slt\n        /* \"#utility.yul\":3801:3920   */\n      iszero\n      tag_274\n      jumpi\n        /* \"#utility.yul\":3839:3918   */\n      tag_275\n      tag_194\n      jump\t// in\n    tag_275:\n        /* \"#utility.yul\":3801:3920   */\n    tag_274:\n        /* \"#utility.yul\":3959:3960   */\n      0x00\n        /* \"#utility.yul\":3984:4037   */\n      tag_276\n        /* \"#utility.yul\":4029:4036   */\n      dup6\n        /* \"#utility.yul\":4020:4026   */\n      dup3\n        /* \"#utility.yul\":4009:4018   */\n      dup7\n        /* \"#utility.yul\":4005:4027   */\n      add\n        /* \"#utility.yul\":3984:4037   */\n      tag_207\n      jump\t// in\n    tag_276:\n        /* \"#utility.yul\":3974:4037   */\n      swap3\n      pop\n        /* \"#utility.yul\":3930:4047   */\n      pop\n        /* \"#utility.yul\":4086:4088   */\n      0x20\n        /* \"#utility.yul\":4112:4165   */\n      tag_277\n        /* \"#utility.yul\":4157:4164   */\n      dup6\n        /* \"#utility.yul\":4148:4154   */\n      dup3\n        /* \"#utility.yul\":4137:4146   */\n      dup7\n        /* \"#utility.yul\":4133:4155   */\n      add\n        /* \"#utility.yul\":4112:4165   */\n      tag_199\n      jump\t// in\n    tag_277:\n        /* \"#utility.yul\":4102:4165   */\n      swap2\n      pop\n        /* \"#utility.yul\":4057:4175   */\n      pop\n        /* \"#utility.yul\":3708:4182   */\n      swap3\n      pop\n      swap3\n      swap1\n      pop\n      jump\t// out\n        /* \"#utility.yul\":4188:4334   */\n    tag_208:\n        /* \"#utility.yul\":4258:4267   */\n      0x00\n        /* \"#utility.yul\":4291:4328   */\n      tag_279\n        /* \"#utility.yul\":4322:4327   */\n      dup3\n        /* \"#utility.yul\":4291:4328   */\n      tag_202\n      jump\t// in\n    tag_279:\n        /* \"#utility.yul\":4278:4328   */\n      swap1\n      pop\n        /* \"#utility.yul\":4188:4334   */\n      swap2\n      swap1\n      pop\n      jump\t// out\n        /* \"#utility.yul\":4340:4511   */\n    tag_209:\n        /* \"#utility.yul\":4447:4504   */\n      tag_281\n        /* \"#utility.yul\":4498:4503   */\n      dup2\n        /* \"#utility.yul\":4447:4504   */\n      tag_208\n      jump\t// in\n    tag_281:\n        /* \"#utility.yul\":4442:4445   */\n      dup3\n        /* \"#utility.yul\":4435:4505   */\n      mstore\n        /* \"#utility.yul\":4340:4511   */\n      pop\n      pop\n      jump\t// out\n        /* \"#utility.yul\":4517:4779   */\n    tag_68:\n        /* \"#utility.yul\":4630:4634   */\n      0x00\n        /* \"#utility.yul\":4668:4670   */\n      0x20\n        /* \"#utility.yul\":4657:4666   */\n      dup3\n        /* \"#utility.yul\":4653:4671   */\n      add\n        /* \"#utility.yul\":4645:4671   */\n      swap1\n      pop\n        /* \"#utility.yul\":4681:4772   */\n      tag_283\n        /* \"#utility.yul\":4769:4770   */\n      0x00\n        /* \"#utility.yul\":4758:4767   */\n      dup4\n        /* \"#utility.yul\":4754:4771   */\n      add\n        /* \"#utility.yul\":4745:4751   */\n      dup5\n        /* \"#utility.yul\":4681:4772   */\n      tag_209\n      jump\t// in\n    tag_283:\n        /* \"#utility.yul\":4517:4779   */\n      swap3\n      swap2\n      pop\n      pop\n      jump\t// out\n        /* \"#utility.yul\":4785:4954   */\n    tag_210:\n        /* \"#utility.yul\":4869:4880   */\n      0x00\n        /* \"#utility.yul\":4903:4909   */\n      dup3\n        /* \"#utility.yul\":4898:4901   */\n      dup3\n        /* \"#utility.yul\":4891:4910   */\n      mstore\n        /* \"#utility.yul\":4943:4947   */\n      0x20\n        /* \"#utility.yul\":4938:4941   */\n      dup3\n        /* \"#utility.yul\":4934:4948   */\n      add\n        /* \"#utility.yul\":4919:4948   */\n      swap1\n      pop\n        /* \"#utility.yul\":4785:4954   */\n      swap3\n      swap2\n      pop\n      pop\n      jump\t// out\n        /* \"#utility.yul\":4960:5120   */\n    tag_211:\n        /* \"#utility.yul\":5100:5112   */\n      0x4e6f2062616c616e636500000000000000000000000000000000000000000000\n        /* \"#utility.yul\":5096:5097   */\n      0x00\n        /* \"#utility.yul\":5088:5094   */\n      dup3\n        /* \"#utility.yul\":5084:5098   */\n      add\n        /* \"#utility.yul\":5077:5113   */\n      mstore\n        /* \"#utility.yul\":4960:5120   */\n      pop\n      jump\t// out\n        /* \"#utility.yul\":5126:5492   */\n    tag_212:\n        /* \"#utility.yul\":5268:5271   */\n      0x00\n        /* \"#utility.yul\":5289:5356   */\n      tag_287\n        /* \"#utility.yul\":5353:5355   */\n      0x0a\n        /* \"#utility.yul\":5348:5351   */\n      dup4\n        /* \"#utility.yul\":5289:5356   */\n      tag_210\n      jump\t// in\n    tag_287:\n        /* \"#utility.yul\":5282:5356   */\n      swap2\n      pop\n        /* \"#utility.yul\":5365:5458   */\n      tag_288\n        /* \"#utility.yul\":5454:5457   */\n      dup3\n        /* \"#utility.yul\":5365:5458   */\n      tag_211\n      jump\t// in\n    tag_288:\n        /* \"#utility.yul\":5483:5485   */\n      0x20\n        /* \"#utility.yul\":5478:5481   */\n      dup3\n        /* \"#utility.yul\":5474:5486   */\n      add\n        /* \"#utility.yul\":5467:5486   */\n      swap1\n      pop\n        /* \"#utility.yul\":5126:5492   */\n      swap2\n      swap1\n      pop\n      jump\t// out\n        /* \"#utility.yul\":5498:5917   */\n    tag_75:\n        /* \"#utility.yul\":5664:5668   */\n      0x00\n        /* \"#utility.yul\":5702:5704   */\n      0x20\n        /* \"#utility.yul\":5691:5700   */\n      dup3\n        /* \"#utility.yul\":5687:5705   */\n      add\n        /* \"#utility.yul\":5679:5705   */\n      swap1\n      pop\n        /* \"#utility.yul\":5751:5760   */\n      dup2\n        /* \"#utility.yul\":5745:5749   */\n      dup2\n        /* \"#utility.yul\":5741:5761   */\n      sub\n        /* \"#utility.yul\":5737:5738   */\n      0x00\n        /* \"#utility.yul\":5726:5735   */\n      dup4\n        /* \"#utility.yul\":5722:5739   */\n      add\n        /* \"#utility.yul\":5715:5762   */\n      mstore\n        /* \"#utility.yul\":5779:5910   */\n      tag_290\n        /* \"#utility.yul\":5905:5909   */\n      dup2\n        /* \"#utility.yul\":5779:5910   */\n      tag_212\n      jump\t// in\n    tag_290:\n        /* \"#utility.yul\":5771:5910   */\n      swap1\n      pop\n        /* \"#utility.yul\":5498:5917   */\n      swap2\n      swap1\n      pop\n      jump\t// out\n        /* \"#utility.yul\":5923:6365   */\n    tag_77:\n        /* \"#utility.yul\":6072:6076   */\n      0x00\n        /* \"#utility.yul\":6110:6112   */\n      0x60\n        /* \"#utility.yul\":6099:6108   */\n      dup3\n        /* \"#utility.yul\":6095:6113   */\n      add\n        /* \"#utility.yul\":6087:6113   */\n      swap1\n      pop\n        /* \"#utility.yul\":6123:6194   */\n      tag_292\n        /* \"#utility.yul\":6191:6192   */\n      0x00\n        /* \"#utility.yul\":6180:6189   */\n      dup4\n        /* \"#utility.yul\":6176:6193   */\n      add\n        /* \"#utility.yul\":6167:6173   */\n      dup7\n        /* \"#utility.yul\":6123:6194   */\n      tag_192\n      jump\t// in\n    tag_292:\n        /* \"#utility.yul\":6204:6276   */\n      tag_293\n        /* \"#utility.yul\":6272:6274   */\n      0x20\n        /* \"#utility.yul\":6261:6270   */\n      dup4\n        /* \"#utility.yul\":6257:6275   */\n      add\n        /* \"#utility.yul\":6248:6254   */\n      dup6\n        /* \"#utility.yul\":6204:6276   */\n      tag_205\n      jump\t// in\n    tag_293:\n        /* \"#utility.yul\":6286:6358   */\n      tag_294\n        /* \"#utility.yul\":6354:6356   */\n      0x40\n        /* \"#utility.yul\":6343:6352   */\n      dup4\n        /* \"#utility.yul\":6339:6357   */\n      add\n        /* \"#utility.yul\":6330:6336   */\n      dup5\n        /* \"#utility.yul\":6286:6358   */\n      tag_205\n      jump\t// in\n    tag_294:\n        /* \"#utility.yul\":5923:6365   */\n      swap5\n      swap4\n      pop\n      pop\n      pop\n      pop\n      jump\t// out\n        /* \"#utility.yul\":6371:6514   */\n    tag_213:\n        /* \"#utility.yul\":6428:6433   */\n      0x00\n        /* \"#utility.yul\":6459:6465   */\n      dup2\n        /* \"#utility.yul\":6453:6466   */\n      mload\n        /* \"#utility.yul\":6444:6466   */\n      swap1\n      pop\n        /* \"#utility.yul\":6475:6508   */\n      tag_296\n        /* \"#utility.yul\":6502:6507   */\n      dup2\n        /* \"#utility.yul\":6475:6508   */\n      tag_206\n      jump\t// in\n    tag_296:\n        /* \"#utility.yul\":6371:6514   */\n      swap3\n      swap2\n      pop\n      pop\n      jump\t// out\n        /* \"#utility.yul\":6520:6871   */\n    tag_81:\n        /* \"#utility.yul\":6590:6596   */\n      0x00\n        /* \"#utility.yul\":6639:6641   */\n      0x20\n        /* \"#utility.yul\":6627:6636   */\n      dup3\n        /* \"#utility.yul\":6618:6625   */\n      dup5\n        /* \"#utility.yul\":6614:6637   */\n      sub\n        /* \"#utility.yul\":6610:6642   */\n      slt\n        /* \"#utility.yul\":6607:6726   */\n      iszero\n      tag_298\n      jumpi\n        /* \"#utility.yul\":6645:6724   */\n      tag_299\n      tag_194\n      jump\t// in\n    tag_299:\n        /* \"#utility.yul\":6607:6726   */\n    tag_298:\n        /* \"#utility.yul\":6765:6766   */\n      0x00\n        /* \"#utility.yul\":6790:6854   */\n      tag_300\n        /* \"#utility.yul\":6846:6853   */\n      dup5\n        /* \"#utility.yul\":6837:6843   */\n      dup3\n        /* \"#utility.yul\":6826:6835   */\n      dup6\n        /* \"#utility.yul\":6822:6844   */\n      add\n        /* \"#utility.yul\":6790:6854   */\n      tag_213\n      jump\t// in\n    tag_300:\n        /* \"#utility.yul\":6780:6854   */\n      swap2\n      pop\n        /* \"#utility.yul\":6736:6864   */\n      pop\n        /* \"#utility.yul\":6520:6871   */\n      swap3\n      swap2\n      pop\n      pop\n      jump\t// out\n        /* \"#utility.yul\":6877:7057   */\n    tag_214:\n        /* \"#utility.yul\":6925:7002   */\n      0x4e487b7100000000000000000000000000000000000000000000000000000000\n        /* \"#utility.yul\":6922:6923   */\n      0x00\n        /* \"#utility.yul\":6915:7003   */\n      mstore\n        /* \"#utility.yul\":7022:7026   */\n      0x11\n        /* \"#utility.yul\":7019:7020   */\n      0x04\n        /* \"#utility.yul\":7012:7027   */\n      mstore\n        /* \"#utility.yul\":7046:7050   */\n      0x24\n        /* \"#utility.yul\":7043:7044   */\n      0x00\n        /* \"#utility.yul\":7036:7051   */\n      revert\n        /* \"#utility.yul\":7063:7257   */\n    tag_88:\n        /* \"#utility.yul\":7103:7107   */\n      0x00\n        /* \"#utility.yul\":7123:7143   */\n      tag_303\n        /* \"#utility.yul\":7141:7142   */\n      dup3\n        /* \"#utility.yul\":7123:7143   */\n      tag_191\n      jump\t// in\n    tag_303:\n        /* \"#utility.yul\":7118:7143   */\n      swap2\n      pop\n        /* \"#utility.yul\":7157:7177   */\n      tag_304\n        /* \"#utility.yul\":7175:7176   */\n      dup4\n        /* \"#utility.yul\":7157:7177   */\n      tag_191\n      jump\t// in\n    tag_304:\n        /* \"#utility.yul\":7152:7177   */\n      swap3\n      pop\n        /* \"#utility.yul\":7201:7202   */\n      dup3\n        /* \"#utility.yul\":7198:7199   */\n      dup3\n        /* \"#utility.yul\":7194:7203   */\n      sub\n        /* \"#utility.yul\":7186:7203   */\n      swap1\n      pop\n        /* \"#utility.yul\":7225:7226   */\n      dup2\n        /* \"#utility.yul\":7219:7223   */\n      dup2\n        /* \"#utility.yul\":7216:7227   */\n      gt\n        /* \"#utility.yul\":7213:7250   */\n      iszero\n      tag_305\n      jumpi\n        /* \"#utility.yul\":7230:7248   */\n      tag_306\n      tag_214\n      jump\t// in\n    tag_306:\n        /* \"#utility.yul\":7213:7250   */\n    tag_305:\n        /* \"#utility.yul\":7063:7257   */\n      swap3\n      swap2\n      pop\n      pop\n      jump\t// out\n        /* \"#utility.yul\":7263:7673   */\n    tag_91:\n        /* \"#utility.yul\":7303:7310   */\n      0x00\n        /* \"#utility.yul\":7326:7346   */\n      tag_308\n        /* \"#utility.yul\":7344:7345   */\n      dup3\n        /* \"#utility.yul\":7326:7346   */\n      tag_191\n      jump\t// in\n    tag_308:\n        /* \"#utility.yul\":7321:7346   */\n      swap2\n      pop\n        /* \"#utility.yul\":7360:7380   */\n      tag_309\n        /* \"#utility.yul\":7378:7379   */\n      dup4\n        /* \"#utility.yul\":7360:7380   */\n      tag_191\n      jump\t// in\n    tag_309:\n        /* \"#utility.yul\":7355:7380   */\n      swap3\n      pop\n        /* \"#utility.yul\":7415:7416   */\n      dup3\n        /* \"#utility.yul\":7412:7413   */\n      dup3\n        /* \"#utility.yul\":7408:7417   */\n      mul\n        /* \"#utility.yul\":7437:7467   */\n      tag_310\n        /* \"#utility.yul\":7455:7466   */\n      dup2\n        /* \"#utility.yul\":7437:7467   */\n      tag_191\n      jump\t// in\n    tag_310:\n        /* \"#utility.yul\":7426:7467   */\n      swap2\n      pop\n        /* \"#utility.yul\":7616:7617   */\n      dup3\n        /* \"#utility.yul\":7607:7614   */\n      dup3\n        /* \"#utility.yul\":7603:7618   */\n      div\n        /* \"#utility.yul\":7600:7601   */\n      dup5\n        /* \"#utility.yul\":7597:7619   */\n      eq\n        /* \"#utility.yul\":7577:7578   */\n      dup4\n        /* \"#utility.yul\":7570:7579   */\n      iszero\n        /* \"#utility.yul\":7550:7633   */\n      or\n        /* \"#utility.yul\":7527:7666   */\n      tag_311\n      jumpi\n        /* \"#utility.yul\":7646:7664   */\n      tag_312\n      tag_214\n      jump\t// in\n    tag_312:\n        /* \"#utility.yul\":7527:7666   */\n    tag_311:\n        /* \"#utility.yul\":7311:7673   */\n      pop\n        /* \"#utility.yul\":7263:7673   */\n      swap3\n      swap2\n      pop\n      pop\n      jump\t// out\n        /* \"#utility.yul\":7679:7859   */\n    tag_215:\n        /* \"#utility.yul\":7727:7804   */\n      0x4e487b7100000000000000000000000000000000000000000000000000000000\n        /* \"#utility.yul\":7724:7725   */\n      0x00\n        /* \"#utility.yul\":7717:7805   */\n      mstore\n        /* \"#utility.yul\":7824:7828   */\n      0x12\n        /* \"#utility.yul\":7821:7822   */\n      0x04\n        /* \"#utility.yul\":7814:7829   */\n      mstore\n        /* \"#utility.yul\":7848:7852   */\n      0x24\n        /* \"#utility.yul\":7845:7846   */\n      0x00\n        /* \"#utility.yul\":7838:7853   */\n      revert\n        /* \"#utility.yul\":7865:8050   */\n    tag_93:\n        /* \"#utility.yul\":7905:7906   */\n      0x00\n        /* \"#utility.yul\":7922:7942   */\n      tag_315\n        /* \"#utility.yul\":7940:7941   */\n      dup3\n        /* \"#utility.yul\":7922:7942   */\n      tag_191\n      jump\t// in\n    tag_315:\n        /* \"#utility.yul\":7917:7942   */\n      swap2\n      pop\n        /* \"#utility.yul\":7956:7976   */\n      tag_316\n        /* \"#utility.yul\":7974:7975   */\n      dup4\n        /* \"#utility.yul\":7956:7976   */\n      tag_191\n      jump\t// in\n    tag_316:\n        /* \"#utility.yul\":7951:7976   */\n      swap3\n      pop\n        /* \"#utility.yul\":7995:7996   */\n      dup3\n        /* \"#utility.yul\":7985:8020   */\n      tag_317\n      jumpi\n        /* \"#utility.yul\":8000:8018   */\n      tag_318\n      tag_215\n      jump\t// in\n    tag_318:\n        /* \"#utility.yul\":7985:8020   */\n    tag_317:\n        /* \"#utility.yul\":8042:8043   */\n      dup3\n        /* \"#utility.yul\":8039:8040   */\n      dup3\n        /* \"#utility.yul\":8035:8044   */\n      div\n        /* \"#utility.yul\":8030:8044   */\n      swap1\n      pop\n        /* \"#utility.yul\":7865:8050   */\n      swap3\n      swap2\n      pop\n      pop\n      jump\t// out\n        /* \"#utility.yul\":8056:8247   */\n    tag_102:\n        /* \"#utility.yul\":8096:8099   */\n      0x00\n        /* \"#utility.yul\":8115:8135   */\n      tag_320\n        /* \"#utility.yul\":8133:8134   */\n      dup3\n        /* \"#utility.yul\":8115:8135   */\n      tag_191\n      jump\t// in\n    tag_320:\n        /* \"#utility.yul\":8110:8135   */\n      swap2\n      pop\n        /* \"#utility.yul\":8149:8169   */\n      tag_321\n        /* \"#utility.yul\":8167:8168   */\n      dup4\n        /* \"#utility.yul\":8149:8169   */\n      tag_191\n      jump\t// in\n    tag_321:\n        /* \"#utility.yul\":8144:8169   */\n      swap3\n      pop\n        /* \"#utility.yul\":8192:8193   */\n      dup3\n        /* \"#utility.yul\":8189:8190   */\n      dup3\n        /* \"#utility.yul\":8185:8194   */\n      add\n        /* \"#utility.yul\":8178:8194   */\n      swap1\n      pop\n        /* \"#utility.yul\":8213:8216   */\n      dup1\n        /* \"#utility.yul\":8210:8211   */\n      dup3\n        /* \"#utility.yul\":8207:8217   */\n      gt\n        /* \"#utility.yul\":8204:8240   */\n      iszero\n      tag_322\n      jumpi\n        /* \"#utility.yul\":8220:8238   */\n      tag_323\n      tag_214\n      jump\t// in\n    tag_323:\n        /* \"#utility.yul\":8204:8240   */\n    tag_322:\n        /* \"#utility.yul\":8056:8247   */\n      swap3\n      swap2\n      pop\n      pop\n      jump\t// out\n        /* \"#utility.yul\":8253:8414   */\n    tag_216:\n        /* \"#utility.yul\":8393:8406   */\n      0x4d696e2031302055534443000000000000000000000000000000000000000000\n        /* \"#utility.yul\":8389:8390   */\n      0x00\n        /* \"#utility.yul\":8381:8387   */\n      dup3\n        /* \"#utility.yul\":8377:8391   */\n      add\n        /* \"#utility.yul\":8370:8407   */\n      mstore\n        /* \"#utility.yul\":8253:8414   */\n      pop\n      jump\t// out\n        /* \"#utility.yul\":8420:8786   */\n    tag_217:\n        /* \"#utility.yul\":8562:8565   */\n      0x00\n        /* \"#utility.yul\":8583:8650   */\n      tag_326\n        /* \"#utility.yul\":8647:8649   */\n      0x0b\n        /* \"#utility.yul\":8642:8645   */\n      dup4\n        /* \"#utility.yul\":8583:8650   */\n      tag_210\n      jump\t// in\n    tag_326:\n        /* \"#utility.yul\":8576:8650   */\n      swap2\n      pop\n        /* \"#utility.yul\":8659:8752   */\n      tag_327\n        /* \"#utility.yul\":8748:8751   */\n      dup3\n        /* \"#utility.yul\":8659:8752   */\n      tag_216\n      jump\t// in\n    tag_327:\n        /* \"#utility.yul\":8777:8779   */\n      0x20\n        /* \"#utility.yul\":8772:8775   */\n      dup3\n        /* \"#utility.yul\":8768:8780   */\n      add\n        /* \"#utility.yul\":8761:8780   */\n      swap1\n      pop\n        /* \"#utility.yul\":8420:8786   */\n      swap2\n      swap1\n      pop\n      jump\t// out\n        /* \"#utility.yul\":8792:9211   */\n    tag_135:\n        /* \"#utility.yul\":8958:8962   */\n      0x00\n        /* \"#utility.yul\":8996:8998   */\n      0x20\n        /* \"#utility.yul\":8985:8994   */\n      dup3\n        /* \"#utility.yul\":8981:8999   */\n      add\n        /* \"#utility.yul\":8973:8999   */\n      swap1\n      pop\n        /* \"#utility.yul\":9045:9054   */\n      dup2\n        /* \"#utility.yul\":9039:9043   */\n      dup2\n        /* \"#utility.yul\":9035:9055   */\n      sub\n        /* \"#utility.yul\":9031:9032   */\n      0x00\n        /* \"#utility.yul\":9020:9029   */\n      dup4\n        /* \"#utility.yul\":9016:9033   */\n      add\n        /* \"#utility.yul\":9009:9056   */\n      mstore\n        /* \"#utility.yul\":9073:9204   */\n      tag_329\n        /* \"#utility.yul\":9199:9203   */\n      dup2\n        /* \"#utility.yul\":9073:9204   */\n      tag_217\n      jump\t// in\n    tag_329:\n        /* \"#utility.yul\":9065:9204   */\n      swap1\n      pop\n        /* \"#utility.yul\":8792:9211   */\n      swap2\n      swap1\n      pop\n      jump\t// out\n        /* \"#utility.yul\":9217:9383   */\n    tag_218:\n        /* \"#utility.yul\":9357:9375   */\n      0x4e6f2073656c662d726566657272616c00000000000000000000000000000000\n        /* \"#utility.yul\":9353:9354   */\n      0x00\n        /* \"#utility.yul\":9345:9351   */\n      dup3\n        /* \"#utility.yul\":9341:9355   */\n      add\n        /* \"#utility.yul\":9334:9376   */\n      mstore\n        /* \"#utility.yul\":9217:9383   */\n      pop\n      jump\t// out\n        /* \"#utility.yul\":9389:9755   */\n    tag_219:\n        /* \"#utility.yul\":9531:9534   */\n      0x00\n        /* \"#utility.yul\":9552:9619   */\n      tag_332\n        /* \"#utility.yul\":9616:9618   */\n      0x10\n        /* \"#utility.yul\":9611:9614   */\n      dup4\n        /* \"#utility.yul\":9552:9619   */\n      tag_210\n      jump\t// in\n    tag_332:\n        /* \"#utility.yul\":9545:9619   */\n      swap2\n      pop\n        /* \"#utility.yul\":9628:9721   */\n      tag_333\n        /* \"#utility.yul\":9717:9720   */\n      dup3\n        /* \"#utility.yul\":9628:9721   */\n      tag_218\n      jump\t// in\n    tag_333:\n        /* \"#utility.yul\":9746:9748   */\n      0x20\n        /* \"#utility.yul\":9741:9744   */\n      dup3\n        /* \"#utility.yul\":9737:9749   */\n      add\n        /* \"#utility.yul\":9730:9749   */\n      swap1\n      pop\n        /* \"#utility.yul\":9389:9755   */\n      swap2\n      swap1\n      pop\n      jump\t// out\n        /* \"#utility.yul\":9761:10180   */\n    tag_138:\n        /* \"#utility.yul\":9927:9931   */\n      0x00\n        /* \"#utility.yul\":9965:9967   */\n      0x20\n        /* \"#utility.yul\":9954:9963   */\n      dup3\n        /* \"#utility.yul\":9950:9968   */\n      add\n        /* \"#utility.yul\":9942:9968   */\n      swap1\n      pop\n        /* \"#utility.yul\":10014:10023   */\n      dup2\n        /* \"#utility.yul\":10008:10012   */\n      dup2\n        /* \"#utility.yul\":10004:10024   */\n      sub\n        /* \"#utility.yul\":10000:10001   */\n      0x00\n        /* \"#utility.yul\":9989:9998   */\n      dup4\n        /* \"#utility.yul\":9985:10002   */\n      add\n        /* \"#utility.yul\":9978:10025   */\n      mstore\n        /* \"#utility.yul\":10042:10173   */\n      tag_335\n        /* \"#utility.yul\":10168:10172   */\n      dup2\n        /* \"#utility.yul\":10042:10173   */\n      tag_219\n      jump\t// in\n    tag_335:\n        /* \"#utility.yul\":10034:10173   */\n      swap1\n      pop\n        /* \"#utility.yul\":9761:10180   */\n      swap2\n      swap1\n      pop\n      jump\t// out\n        /* \"#utility.yul\":10186:10518   */\n    tag_144:\n        /* \"#utility.yul\":10307:10311   */\n      0x00\n        /* \"#utility.yul\":10345:10347   */\n      0x40\n        /* \"#utility.yul\":10334:10343   */\n      dup3\n        /* \"#utility.yul\":10330:10348   */\n      add\n        /* \"#utility.yul\":10322:10348   */\n      swap1\n      pop\n        /* \"#utility.yul\":10358:10429   */\n      tag_337\n        /* \"#utility.yul\":10426:10427   */\n      0x00\n        /* \"#utility.yul\":10415:10424   */\n      dup4\n        /* \"#utility.yul\":10411:10428   */\n      add\n        /* \"#utility.yul\":10402:10408   */\n      dup6\n        /* \"#utility.yul\":10358:10429   */\n      tag_205\n      jump\t// in\n    tag_337:\n        /* \"#utility.yul\":10439:10511   */\n      tag_338\n        /* \"#utility.yul\":10507:10509   */\n      0x20\n        /* \"#utility.yul\":10496:10505   */\n      dup4\n        /* \"#utility.yul\":10492:10510   */\n      add\n        /* \"#utility.yul\":10483:10489   */\n      dup5\n        /* \"#utility.yul\":10439:10511   */\n      tag_192\n      jump\t// in\n    tag_338:\n        /* \"#utility.yul\":10186:10518   */\n      swap4\n      swap3\n      pop\n      pop\n      pop\n      jump\t// out\n        /* \"#utility.yul\":10524:10614   */\n    tag_220:\n        /* \"#utility.yul\":10558:10565   */\n      0x00\n        /* \"#utility.yul\":10601:10606   */\n      dup2\n        /* \"#utility.yul\":10594:10607   */\n      iszero\n        /* \"#utility.yul\":10587:10608   */\n      iszero\n        /* \"#utility.yul\":10576:10608   */\n      swap1\n      pop\n        /* \"#utility.yul\":10524:10614   */\n      swap2\n      swap1\n      pop\n      jump\t// out\n        /* \"#utility.yul\":10620:10736   */\n    tag_221:\n        /* \"#utility.yul\":10690:10711   */\n      tag_341\n        /* \"#utility.yul\":10705:10710   */\n      dup2\n        /* \"#utility.yul\":10690:10711   */\n      tag_220\n      jump\t// in\n    tag_341:\n        /* \"#utility.yul\":10683:10688   */\n      dup2\n        /* \"#utility.yul\":10680:10712   */\n      eq\n        /* \"#utility.yul\":10670:10730   */\n      tag_342\n      jumpi\n        /* \"#utility.yul\":10726:10727   */\n      0x00\n        /* \"#utility.yul\":10723:10724   */\n      dup1\n        /* \"#utility.yul\":10716:10728   */\n      revert\n        /* \"#utility.yul\":10670:10730   */\n    tag_342:\n        /* \"#utility.yul\":10620:10736   */\n      pop\n      jump\t// out\n        /* \"#utility.yul\":10742:10879   */\n    tag_222:\n        /* \"#utility.yul\":10796:10801   */\n      0x00\n        /* \"#utility.yul\":10827:10833   */\n      dup2\n        /* \"#utility.yul\":10821:10834   */\n      mload\n        /* \"#utility.yul\":10812:10834   */\n      swap1\n      pop\n        /* \"#utility.yul\":10843:10873   */\n      tag_344\n        /* \"#utility.yul\":10867:10872   */\n      dup2\n        /* \"#utility.yul\":10843:10873   */\n      tag_221\n      jump\t// in\n    tag_344:\n        /* \"#utility.yul\":10742:10879   */\n      swap3\n      swap2\n      pop\n      pop\n      jump\t// out\n        /* \"#utility.yul\":10885:11230   */\n    tag_148:\n        /* \"#utility.yul\":10952:10958   */\n      0x00\n        /* \"#utility.yul\":11001:11003   */\n      0x20\n        /* \"#utility.yul\":10989:10998   */\n      dup3\n        /* \"#utility.yul\":10980:10987   */\n      dup5\n        /* \"#utility.yul\":10976:10999   */\n      sub\n        /* \"#utility.yul\":10972:11004   */\n      slt\n        /* \"#utility.yul\":10969:11088   */\n      iszero\n      tag_346\n      jumpi\n        /* \"#utility.yul\":11007:11086   */\n      tag_347\n      tag_194\n      jump\t// in\n    tag_347:\n        /* \"#utility.yul\":10969:11088   */\n    tag_346:\n        /* \"#utility.yul\":11127:11128   */\n      0x00\n        /* \"#utility.yul\":11152:11213   */\n      tag_348\n        /* \"#utility.yul\":11205:11212   */\n      dup5\n        /* \"#utility.yul\":11196:11202   */\n      dup3\n        /* \"#utility.yul\":11185:11194   */\n      dup6\n        /* \"#utility.yul\":11181:11203   */\n      add\n        /* \"#utility.yul\":11152:11213   */\n      tag_222\n      jump\t// in\n    tag_348:\n        /* \"#utility.yul\":11142:11213   */\n      swap2\n      pop\n        /* \"#utility.yul\":11098:11223   */\n      pop\n        /* \"#utility.yul\":10885:11230   */\n      swap3\n      swap2\n      pop\n      pop\n      jump\t// out\n        /* \"#utility.yul\":11236:11568   */\n    tag_150:\n        /* \"#utility.yul\":11357:11361   */\n      0x00\n        /* \"#utility.yul\":11395:11397   */\n      0x40\n        /* \"#utility.yul\":11384:11393   */\n      dup3\n        /* \"#utility.yul\":11380:11398   */\n      add\n        /* \"#utility.yul\":11372:11398   */\n      swap1\n      pop\n        /* \"#utility.yul\":11408:11479   */\n      tag_350\n        /* \"#utility.yul\":11476:11477   */\n      0x00\n        /* \"#utility.yul\":11465:11474   */\n      dup4\n        /* \"#utility.yul\":11461:11478   */\n      add\n        /* \"#utility.yul\":11452:11458   */\n      dup6\n        /* \"#utility.yul\":11408:11479   */\n      tag_192\n      jump\t// in\n    tag_350:\n        /* \"#utility.yul\":11489:11561   */\n      tag_351\n        /* \"#utility.yul\":11557:11559   */\n      0x20\n        /* \"#utility.yul\":11546:11555   */\n      dup4\n        /* \"#utility.yul\":11542:11560   */\n      add\n        /* \"#utility.yul\":11533:11539   */\n      dup5\n        /* \"#utility.yul\":11489:11561   */\n      tag_205\n      jump\t// in\n    tag_351:\n        /* \"#utility.yul\":11236:11568   */\n      swap4\n      swap3\n      pop\n      pop\n      pop\n      jump\t// out\n        /* \"#utility.yul\":11574:11755   */\n    tag_223:\n        /* \"#utility.yul\":11714:11747   */\n      0x5265656e7472616e637947756172643a207265656e7472616e742063616c6c00\n        /* \"#utility.yul\":11710:11711   */\n      0x00\n        /* \"#utility.yul\":11702:11708   */\n      dup3\n        /* \"#utility.yul\":11698:11712   */\n      add\n        /* \"#utility.yul\":11691:11748   */\n      mstore\n        /* \"#utility.yul\":11574:11755   */\n      pop\n      jump\t// out\n        /* \"#utility.yul\":11761:12127   */\n    tag_224:\n        /* \"#utility.yul\":11903:11906   */\n      0x00\n        /* \"#utility.yul\":11924:11991   */\n      tag_354\n        /* \"#utility.yul\":11988:11990   */\n      0x1f\n        /* \"#utility.yul\":11983:11986   */\n      dup4\n        /* \"#utility.yul\":11924:11991   */\n      tag_210\n      jump\t// in\n    tag_354:\n        /* \"#utility.yul\":11917:11991   */\n      swap2\n      pop\n        /* \"#utility.yul\":12000:12093   */\n      tag_355\n        /* \"#utility.yul\":12089:12092   */\n      dup3\n        /* \"#utility.yul\":12000:12093   */\n      tag_223\n      jump\t// in\n    tag_355:\n        /* \"#utility.yul\":12118:12120   */\n      0x20\n        /* \"#utility.yul\":12113:12116   */\n      dup3\n        /* \"#utility.yul\":12109:12121   */\n      add\n        /* \"#utility.yul\":12102:12121   */\n      swap1\n      pop\n        /* \"#utility.yul\":11761:12127   */\n      swap2\n      swap1\n      pop\n      jump\t// out\n        /* \"#utility.yul\":12133:12552   */\n    tag_166:\n        /* \"#utility.yul\":12299:12303   */\n      0x00\n        /* \"#utility.yul\":12337:12339   */\n      0x20\n        /* \"#utility.yul\":12326:12335   */\n      dup3\n        /* \"#utility.yul\":12322:12340   */\n      add\n        /* \"#utility.yul\":12314:12340   */\n      swap1\n      pop\n        /* \"#utility.yul\":12386:12395   */\n      dup2\n        /* \"#utility.yul\":12380:12384   */\n      dup2\n        /* \"#utility.yul\":12376:12396   */\n      sub\n        /* \"#utility.yul\":12372:12373   */\n      0x00\n        /* \"#utility.yul\":12361:12370   */\n      dup4\n        /* \"#utility.yul\":12357:12374   */\n      add\n        /* \"#utility.yul\":12350:12397   */\n      mstore\n        /* \"#utility.yul\":12414:12545   */\n      tag_357\n        /* \"#utility.yul\":12540:12544   */\n      dup2\n        /* \"#utility.yul\":12414:12545   */\n      tag_224\n      jump\t// in\n    tag_357:\n        /* \"#utility.yul\":12406:12545   */\n      swap1\n      pop\n        /* \"#utility.yul\":12133:12552   */\n      swap2\n      swap1\n      pop\n      jump\t// out\n        /* \"#utility.yul\":12558:13000   */\n    tag_183:\n        /* \"#utility.yul\":12707:12711   */\n      0x00\n        /* \"#utility.yul\":12745:12747   */\n      0x60\n        /* \"#utility.yul\":12734:12743   */\n      dup3\n        /* \"#utility.yul\":12730:12748   */\n      add\n        /* \"#utility.yul\":12722:12748   */\n      swap1\n      pop\n        /* \"#utility.yul\":12758:12829   */\n      tag_359\n        /* \"#utility.yul\":12826:12827   */\n      0x00\n        /* \"#utility.yul\":12815:12824   */\n      dup4\n        /* \"#utility.yul\":12811:12828   */\n      add\n        /* \"#utility.yul\":12802:12808   */\n      dup7\n        /* \"#utility.yul\":12758:12829   */\n      tag_205\n      jump\t// in\n    tag_359:\n        /* \"#utility.yul\":12839:12911   */\n      tag_360\n        /* \"#utility.yul\":12907:12909   */\n      0x20\n        /* \"#utility.yul\":12896:12905   */\n      dup4\n        /* \"#utility.yul\":12892:12910   */\n      add\n        /* \"#utility.yul\":12883:12889   */\n      dup6\n        /* \"#utility.yul\":12839:12911   */\n      tag_205\n      jump\t// in\n    tag_360:\n        /* \"#utility.yul\":12921:12993   */\n      tag_361\n        /* \"#utility.yul\":12989:12991   */\n      0x40\n        /* \"#utility.yul\":12978:12987   */\n      dup4\n        /* \"#utility.yul\":12974:12992   */\n      add\n        /* \"#utility.yul\":12965:12971   */\n      dup5\n        /* \"#utility.yul\":12921:12993   */\n      tag_192\n      jump\t// in\n    tag_361:\n        /* \"#utility.yul\":12558:13000   */\n      swap5\n      swap4\n      pop\n      pop\n      pop\n      pop\n      jump\t// out\n\n    auxdata: 0xa26469706673582212201045857d3522f8c5cb0484c634f89b9c9aa77d4d131069f1735fd221d21ac38264736f6c63430008140033\n}\n",
				"bytecode": {
					"linkReferences": {},
					"object": "608060405234801562000010575f80fd5b50335f73ffffffffffffffffffffffffffffffffffffffff168173ffffffffffffffffffffffffffffffffffffffff160362000085575f6040517f1e4fbdf70000000000000000000000000000000000000000000000000000000081526004016200007c9190620001a8565b60405180910390fd5b6200009681620000a460201b60201c565b5060018081905550620001c3565b5f805f9054906101000a900473ffffffffffffffffffffffffffffffffffffffff169050815f806101000a81548173ffffffffffffffffffffffffffffffffffffffff021916908373ffffffffffffffffffffffffffffffffffffffff1602179055508173ffffffffffffffffffffffffffffffffffffffff168173ffffffffffffffffffffffffffffffffffffffff167f8be0079c531659141344cd1fd0a4f28419497f9722a3daafe3b4186f6b6457e060405160405180910390a35050565b5f73ffffffffffffffffffffffffffffffffffffffff82169050919050565b5f620001908262000165565b9050919050565b620001a28162000184565b82525050565b5f602082019050620001bd5f83018462000197565b92915050565b61170780620001d15f395ff3fe608060405234801561000f575f80fd5b50600436106100e8575f3560e01c8063a87430ba1161008a578063dabeaecf11610064578063dabeaecf14610215578063f2fde38b14610231578063f526e39a1461024d578063f89ec5f51461026b576100e8565b8063a87430ba146101ba578063b21b5a21146101ed578063c87965721461020b576100e8565b80635ae80951116100c65780635ae8095114610144578063715018a61461017457806389a302711461017e5780638da5cb5b1461019c576100e8565b80630b4501fd146100ec578063235447481461010a5780635764b7c414610114575b5f80fd5b6100f4610289565b6040516101019190611077565b60405180910390f35b61011261028e565b005b61012e600480360381019061012991906110ee565b6106d7565b60405161013b9190611077565b60405180910390f35b61015e600480360381019061015991906110ee565b610720565b60405161016b9190611077565b60405180910390f35b61017c6107f4565b005b610186610807565b6040516101939190611174565b60405180910390f35b6101a461081f565b6040516101b1919061119c565b60405180910390f35b6101d460048036038101906101cf91906110ee565b610846565b6040516101e494939291906111b5565b60405180910390f35b6101f5610891565b6040516102029190611077565b60405180910390f35b610213610896565b005b61022f600480360381019061022a9190611222565b6108f4565b005b61024b600480360381019061024691906110ee565b610c7a565b005b610255610cfe565b6040516102629190611077565b60405180910390f35b610273610d04565b6040516102809190611280565b60405180910390f35b600581565b610296610d1c565b5f60025f3373ffffffffffffffffffffffffffffffffffffffff1673ffffffffffffffffffffffffffffffffffffffff1681526020019081526020015f2090505f81600101541161031c576040517f08c379a0000000000000000000000000000000000000000000000000000000008152600401610313906112f3565b60405180910390fd5b5f816001015490505f825f015490505f83600101819055505f835f018190555073c1256ae5ff1cf2719d4937adb3bbccab2e00a2ca73ffffffffffffffffffffffffffffffffffffffff1663ba0876528330306040518463ffffffff1660e01b815260040161038d93929190611311565b6020604051808303815f875af11580156103a9573d5f803e3d5ffd5b505050506040513d601f19601f820116820180604052508101906103cd919061135a565b505f73c1256ae5ff1cf2719d4937adb3bbccab2e00a2ca73ffffffffffffffffffffffffffffffffffffffff166307a2d13a846040518263ffffffff1660e01b815260040161041c9190611077565b602060405180830381865afa158015610437573d5f803e3d5ffd5b505050506040513d601f19601f8201168201806040525081019061045b919061135a565b90505f8282111561047557828261047291906113b2565b90505b5f811115610688575f6064600a8361048d91906113e5565b6104979190611453565b90505f60646005846104a991906113e5565b6104b39190611453565b90505f8183856104c391906113b2565b6104cd91906113b2565b90505f73ffffffffffffffffffffffffffffffffffffffff16886002015f9054906101000a900473ffffffffffffffffffffffffffffffffffffffff1673ffffffffffffffffffffffffffffffffffffffff161461060557610587886002015f9054906101000a900473ffffffffffffffffffffffffffffffffffffffff168473833589fcd6edb6e08f4c7c32d4f71b54bda0291373ffffffffffffffffffffffffffffffffffffffff16610d6b9092919063ffffffff16565b8260025f8a6002015f9054906101000a900473ffffffffffffffffffffffffffffffffffffffff1673ffffffffffffffffffffffffffffffffffffffff1673ffffffffffffffffffffffffffffffffffffffff1681526020019081526020015f206003015f8282546105f99190611483565b9250508190555061061e565b8260035f8282546106169190611483565b925050819055505b8160035f82825461062f9190611483565b925050819055506106803382886106469190611483565b73833589fcd6edb6e08f4c7c32d4f71b54bda0291373ffffffffffffffffffffffffffffffffffffffff16610d6b9092919063ffffffff16565b5050506106c8565b6106c7338473833589fcd6edb6e08f4c7c32d4f71b54bda0291373ffffffffffffffffffffffffffffffffffffffff16610d6b9092919063ffffffff16565b5b50505050506106d5610dea565b565b5f60025f8373ffffffffffffffffffffffffffffffffffffffff1673ffffffffffffffffffffffffffffffffffffffff1681526020019081526020015f20600301549050919050565b5f73c1256ae5ff1cf2719d4937adb3bbccab2e00a2ca73ffffffffffffffffffffffffffffffffffffffff166307a2d13a60025f8573ffffffffffffffffffffffffffffffffffffffff1673ffffffffffffffffffffffffffffffffffffffff1681526020019081526020015f20600101546040518263ffffffff1660e01b81526004016107ae9190611077565b602060405180830381865afa1580156107c9573d5f803e3d5ffd5b505050506040513d601f19601f820116820180604052508101906107ed919061135a565b9050919050565b6107fc610df3565b6108055f610e7a565b565b73833589fcd6edb6e08f4c7c32d4f71b54bda0291381565b5f805f9054906101000a900473ffffffffffffffffffffffffffffffffffffffff16905090565b6002602052805f5260405f205f91509050805f015490806001015490806002015f9054906101000a900473ffffffffffffffffffffffffffffffffffffffff16908060030154905084565b600a81565b61089e610df3565b5f60035490505f6003819055506108f16108b661081f565b8273833589fcd6edb6e08f4c7c32d4f71b54bda0291373ffffffffffffffffffffffffffffffffffffffff16610d6b9092919063ffffffff16565b50565b6108fc610d1c565b62989680821015610942576040517f08c379a000000000000000000000000000000000000000000000000000000000815260040161093990611500565b60405180910390fd5b3373ffffffffffffffffffffffffffffffffffffffff168173ffffffffffffffffffffffffffffffffffffffff16036109b0576040517f08c379a00000000000000000000000000000000000000000000000000000000081526004016109a790611568565b60405180910390fd5b5f60025f3373ffffffffffffffffffffffffffffffffffffffff1673ffffffffffffffffffffffffffffffffffffffff1681526020019081526020015f2090505f73ffffffffffffffffffffffffffffffffffffffff16816002015f9054906101000a900473ffffffffffffffffffffffffffffffffffffffff1673ffffffffffffffffffffffffffffffffffffffff16148015610a7a57505f73ffffffffffffffffffffffffffffffffffffffff168273ffffffffffffffffffffffffffffffffffffffff1614155b15610ac25781816002015f6101000a81548173ffffffffffffffffffffffffffffffffffffffff021916908373ffffffffffffffffffffffffffffffffffffffff1602179055505b610b0333308573833589fcd6edb6e08f4c7c32d4f71b54bda0291373ffffffffffffffffffffffffffffffffffffffff16610f3b909392919063ffffffff16565b73833589fcd6edb6e08f4c7c32d4f71b54bda0291373ffffffffffffffffffffffffffffffffffffffff1663095ea7b373c1256ae5ff1cf2719d4937adb3bbccab2e00a2ca856040518363ffffffff1660e01b8152600401610b66929190611586565b6020604051808303815f875af1158015610b82573d5f803e3d5ffd5b505050506040513d601f19601f82011682018060405250810190610ba691906115e2565b505f73c1256ae5ff1cf2719d4937adb3bbccab2e00a2ca73ffffffffffffffffffffffffffffffffffffffff16636e553f6585306040518363ffffffff1660e01b8152600401610bf792919061160d565b6020604051808303815f875af1158015610c13573d5f803e3d5ffd5b505050506040513d601f19601f82011682018060405250810190610c37919061135a565b905083825f015f828254610c4b9190611483565b9250508190555080826001015f828254610c659190611483565b925050819055505050610c76610dea565b5050565b610c82610df3565b5f73ffffffffffffffffffffffffffffffffffffffff168173ffffffffffffffffffffffffffffffffffffffff1603610cf2575f6040517f1e4fbdf7000000000000000000000000000000000000000000000000000000008152600401610ce9919061119c565b60405180910390fd5b610cfb81610e7a565b50565b60035481565b73c1256ae5ff1cf2719d4937adb3bbccab2e00a2ca81565b600260015403610d61576040517f08c379a0000000000000000000000000000000000000000000000000000000008152600401610d589061167e565b60405180910390fd5b6002600181905550565b610de5838473ffffffffffffffffffffffffffffffffffffffff1663a9059cbb8585604051602401610d9e929190611586565b604051602081830303815290604052915060e01b6020820180517bffffffffffffffffffffffffffffffffffffffffffffffffffffffff8381831617835250505050610fbd565b505050565b60018081905550565b610dfb611058565b73ffffffffffffffffffffffffffffffffffffffff16610e1961081f565b73ffffffffffffffffffffffffffffffffffffffff1614610e7857610e3c611058565b6040517f118cdaa7000000000000000000000000000000000000000000000000000000008152600401610e6f919061119c565b60405180910390fd5b565b5f805f9054906101000a900473ffffffffffffffffffffffffffffffffffffffff169050815f806101000a81548173ffffffffffffffffffffffffffffffffffffffff021916908373ffffffffffffffffffffffffffffffffffffffff1602179055508173ffffffffffffffffffffffffffffffffffffffff168173ffffffffffffffffffffffffffffffffffffffff167f8be0079c531659141344cd1fd0a4f28419497f9722a3daafe3b4186f6b6457e060405160405180910390a35050565b610fb7848573ffffffffffffffffffffffffffffffffffffffff166323b872dd868686604051602401610f709392919061169c565b604051602081830303815290604052915060e01b6020820180517bffffffffffffffffffffffffffffffffffffffffffffffffffffffff8381831617835250505050610fbd565b50505050565b5f8060205f8451602086015f885af180610fdc576040513d5f823e3d81fd5b3d92505f519150505f8214610ff5576001811415611010565b5f8473ffffffffffffffffffffffffffffffffffffffff163b145b1561105257836040517f5274afe7000000000000000000000000000000000000000000000000000000008152600401611049919061119c565b60405180910390fd5b50505050565b5f33905090565b5f819050919050565b6110718161105f565b82525050565b5f60208201905061108a5f830184611068565b92915050565b5f80fd5b5f73ffffffffffffffffffffffffffffffffffffffff82169050919050565b5f6110bd82611094565b9050919050565b6110cd816110b3565b81146110d7575f80fd5b50565b5f813590506110e8816110c4565b92915050565b5f6020828403121561110357611102611090565b5b5f611110848285016110da565b91505092915050565b5f819050919050565b5f61113c61113761113284611094565b611119565b611094565b9050919050565b5f61114d82611122565b9050919050565b5f61115e82611143565b9050919050565b61116e81611154565b82525050565b5f6020820190506111875f830184611165565b92915050565b611196816110b3565b82525050565b5f6020820190506111af5f83018461118d565b92915050565b5f6080820190506111c85f830187611068565b6111d56020830186611068565b6111e2604083018561118d565b6111ef6060830184611068565b95945050505050565b6112018161105f565b811461120b575f80fd5b50565b5f8135905061121c816111f8565b92915050565b5f806040838503121561123857611237611090565b5b5f6112458582860161120e565b9250506020611256858286016110da565b9150509250929050565b5f61126a82611143565b9050919050565b61127a81611260565b82525050565b5f6020820190506112935f830184611271565b92915050565b5f82825260208201905092915050565b7f4e6f2062616c616e6365000000000000000000000000000000000000000000005f82015250565b5f6112dd600a83611299565b91506112e8826112a9565b602082019050919050565b5f6020820190508181035f83015261130a816112d1565b9050919050565b5f6060820190506113245f830186611068565b611331602083018561118d565b61133e604083018461118d565b949350505050565b5f81519050611354816111f8565b92915050565b5f6020828403121561136f5761136e611090565b5b5f61137c84828501611346565b91505092915050565b7f4e487b71000000000000000000000000000000000000000000000000000000005f52601160045260245ffd5b5f6113bc8261105f565b91506113c78361105f565b92508282039050818111156113df576113de611385565b5b92915050565b5f6113ef8261105f565b91506113fa8361105f565b92508282026114088161105f565b9150828204841483151761141f5761141e611385565b5b5092915050565b7f4e487b71000000000000000000000000000000000000000000000000000000005f52601260045260245ffd5b5f61145d8261105f565b91506114688361105f565b92508261147857611477611426565b5b828204905092915050565b5f61148d8261105f565b91506114988361105f565b92508282019050808211156114b0576114af611385565b5b92915050565b7f4d696e20313020555344430000000000000000000000000000000000000000005f82015250565b5f6114ea600b83611299565b91506114f5826114b6565b602082019050919050565b5f6020820190508181035f830152611517816114de565b9050919050565b7f4e6f2073656c662d726566657272616c000000000000000000000000000000005f82015250565b5f611552601083611299565b915061155d8261151e565b602082019050919050565b5f6020820190508181035f83015261157f81611546565b9050919050565b5f6040820190506115995f83018561118d565b6115a66020830184611068565b9392505050565b5f8115159050919050565b6115c1816115ad565b81146115cb575f80fd5b50565b5f815190506115dc816115b8565b92915050565b5f602082840312156115f7576115f6611090565b5b5f611604848285016115ce565b91505092915050565b5f6040820190506116205f830185611068565b61162d602083018461118d565b9392505050565b7f5265656e7472616e637947756172643a207265656e7472616e742063616c6c005f82015250565b5f611668601f83611299565b915061167382611634565b602082019050919050565b5f6020820190508181035f8301526116958161165c565b9050919050565b5f6060820190506116af5f83018661118d565b6116bc602083018561118d565b6116c96040830184611068565b94935050505056fea26469706673582212201045857d3522f8c5cb0484c634f89b9c9aa77d4d131069f1735fd221d21ac38264736f6c63430008140033",
					"opcodes": "PUSH1 0x80 PUSH1 0x40 MSTORE CALLVALUE DUP1 ISZERO PUSH3 0x10 JUMPI PUSH0 DUP1 REVERT JUMPDEST POP CALLER PUSH0 PUSH20 0xFFFFFFFFFFFFFFFFFFFFFFFFFFFFFFFFFFFFFFFF AND DUP2 PUSH20 0xFFFFFFFFFFFFFFFFFFFFFFFFFFFFFFFFFFFFFFFF AND SUB PUSH3 0x85 JUMPI PUSH0 PUSH1 0x40 MLOAD PUSH32 0x1E4FBDF700000000000000000000000000000000000000000000000000000000 DUP2 MSTORE PUSH1 0x4 ADD PUSH3 0x7C SWAP2 SWAP1 PUSH3 0x1A8 JUMP JUMPDEST PUSH1 0x40 MLOAD DUP1 SWAP2 SUB SWAP1 REVERT JUMPDEST PUSH3 0x96 DUP2 PUSH3 0xA4 PUSH1 0x20 SHL PUSH1 0x20 SHR JUMP JUMPDEST POP PUSH1 0x1 DUP1 DUP2 SWAP1 SSTORE POP PUSH3 0x1C3 JUMP JUMPDEST PUSH0 DUP1 PUSH0 SWAP1 SLOAD SWAP1 PUSH2 0x100 EXP SWAP1 DIV PUSH20 0xFFFFFFFFFFFFFFFFFFFFFFFFFFFFFFFFFFFFFFFF AND SWAP1 POP DUP2 PUSH0 DUP1 PUSH2 0x100 EXP DUP2 SLOAD DUP2 PUSH20 0xFFFFFFFFFFFFFFFFFFFFFFFFFFFFFFFFFFFFFFFF MUL NOT AND SWAP1 DUP4 PUSH20 0xFFFFFFFFFFFFFFFFFFFFFFFFFFFFFFFFFFFFFFFF AND MUL OR SWAP1 SSTORE POP DUP2 PUSH20 0xFFFFFFFFFFFFFFFFFFFFFFFFFFFFFFFFFFFFFFFF AND DUP2 PUSH20 0xFFFFFFFFFFFFFFFFFFFFFFFFFFFFFFFFFFFFFFFF AND PUSH32 0x8BE0079C531659141344CD1FD0A4F28419497F9722A3DAAFE3B4186F6B6457E0 PUSH1 0x40 MLOAD PUSH1 0x40 MLOAD DUP1 SWAP2 SUB SWAP1 LOG3 POP POP JUMP JUMPDEST PUSH0 PUSH20 0xFFFFFFFFFFFFFFFFFFFFFFFFFFFFFFFFFFFFFFFF DUP3 AND SWAP1 POP SWAP2 SWAP1 POP JUMP JUMPDEST PUSH0 PUSH3 0x190 DUP3 PUSH3 0x165 JUMP JUMPDEST SWAP1 POP SWAP2 SWAP1 POP JUMP JUMPDEST PUSH3 0x1A2 DUP2 PUSH3 0x184 JUMP JUMPDEST DUP3 MSTORE POP POP JUMP JUMPDEST PUSH0 PUSH1 0x20 DUP3 ADD SWAP1 POP PUSH3 0x1BD PUSH0 DUP4 ADD DUP5 PUSH3 0x197 JUMP JUMPDEST SWAP3 SWAP2 POP POP JUMP JUMPDEST PUSH2 0x1707 DUP1 PUSH3 0x1D1 PUSH0 CODECOPY PUSH0 RETURN INVALID PUSH1 0x80 PUSH1 0x40 MSTORE CALLVALUE DUP1 ISZERO PUSH2 0xF JUMPI PUSH0 DUP1 REVERT JUMPDEST POP PUSH1 0x4 CALLDATASIZE LT PUSH2 0xE8 JUMPI PUSH0 CALLDATALOAD PUSH1 0xE0 SHR DUP1 PUSH4 0xA87430BA GT PUSH2 0x8A JUMPI DUP1 PUSH4 0xDABEAECF GT PUSH2 0x64 JUMPI DUP1 PUSH4 0xDABEAECF EQ PUSH2 0x215 JUMPI DUP1 PUSH4 0xF2FDE38B EQ PUSH2 0x231 JUMPI DUP1 PUSH4 0xF526E39A EQ PUSH2 0x24D JUMPI DUP1 PUSH4 0xF89EC5F5 EQ PUSH2 0x26B JUMPI PUSH2 0xE8 JUMP JUMPDEST DUP1 PUSH4 0xA87430BA EQ PUSH2 0x1BA JUMPI DUP1 PUSH4 0xB21B5A21 EQ PUSH2 0x1ED JUMPI DUP1 PUSH4 0xC8796572 EQ PUSH2 0x20B JUMPI PUSH2 0xE8 JUMP JUMPDEST DUP1 PUSH4 0x5AE80951 GT PUSH2 0xC6 JUMPI DUP1 PUSH4 0x5AE80951 EQ PUSH2 0x144 JUMPI DUP1 PUSH4 0x715018A6 EQ PUSH2 0x174 JUMPI DUP1 PUSH4 0x89A30271 EQ PUSH2 0x17E JUMPI DUP1 PUSH4 0x8DA5CB5B EQ PUSH2 0x19C JUMPI PUSH2 0xE8 JUMP JUMPDEST DUP1 PUSH4 0xB4501FD EQ PUSH2 0xEC JUMPI DUP1 PUSH4 0x23544748 EQ PUSH2 0x10A JUMPI DUP1 PUSH4 0x5764B7C4 EQ PUSH2 0x114 JUMPI JUMPDEST PUSH0 DUP1 REVERT JUMPDEST PUSH2 0xF4 PUSH2 0x289 JUMP JUMPDEST PUSH1 0x40 MLOAD PUSH2 0x101 SWAP2 SWAP1 PUSH2 0x1077 JUMP JUMPDEST PUSH1 0x40 MLOAD DUP1 SWAP2 SUB SWAP1 RETURN JUMPDEST PUSH2 0x112 PUSH2 0x28E JUMP JUMPDEST STOP JUMPDEST PUSH2 0x12E PUSH1 0x4 DUP1 CALLDATASIZE SUB DUP2 ADD SWAP1 PUSH2 0x129 SWAP2 SWAP1 PUSH2 0x10EE JUMP JUMPDEST PUSH2 0x6D7 JUMP JUMPDEST PUSH1 0x40 MLOAD PUSH2 0x13B SWAP2 SWAP1 PUSH2 0x1077 JUMP JUMPDEST PUSH1 0x40 MLOAD DUP1 SWAP2 SUB SWAP1 RETURN JUMPDEST PUSH2 0x15E PUSH1 0x4 DUP1 CALLDATASIZE SUB DUP2 ADD SWAP1 PUSH2 0x159 SWAP2 SWAP1 PUSH2 0x10EE JUMP JUMPDEST PUSH2 0x720 JUMP JUMPDEST PUSH1 0x40 MLOAD PUSH2 0x16B SWAP2 SWAP1 PUSH2 0x1077 JUMP JUMPDEST PUSH1 0x40 MLOAD DUP1 SWAP2 SUB SWAP1 RETURN JUMPDEST PUSH2 0x17C PUSH2 0x7F4 JUMP JUMPDEST STOP JUMPDEST PUSH2 0x186 PUSH2 0x807 JUMP JUMPDEST PUSH1 0x40 MLOAD PUSH2 0x193 SWAP2 SWAP1 PUSH2 0x1174 JUMP JUMPDEST PUSH1 0x40 MLOAD DUP1 SWAP2 SUB SWAP1 RETURN JUMPDEST PUSH2 0x1A4 PUSH2 0x81F JUMP JUMPDEST PUSH1 0x40 MLOAD PUSH2 0x1B1 SWAP2 SWAP1 PUSH2 0x119C JUMP JUMPDEST PUSH1 0x40 MLOAD DUP1 SWAP2 SUB SWAP1 RETURN JUMPDEST PUSH2 0x1D4 PUSH1 0x4 DUP1 CALLDATASIZE SUB DUP2 ADD SWAP1 PUSH2 0x1CF SWAP2 SWAP1 PUSH2 0x10EE JUMP JUMPDEST PUSH2 0x846 JUMP JUMPDEST PUSH1 0x40 MLOAD PUSH2 0x1E4 SWAP5 SWAP4 SWAP3 SWAP2 SWAP1 PUSH2 0x11B5 JUMP JUMPDEST PUSH1 0x40 MLOAD DUP1 SWAP2 SUB SWAP1 RETURN JUMPDEST PUSH2 0x1F5 PUSH2 0x891 JUMP JUMPDEST PUSH1 0x40 MLOAD PUSH2 0x202 SWAP2 SWAP1 PUSH2 0x1077 JUMP JUMPDEST PUSH1 0x40 MLOAD DUP1 SWAP2 SUB SWAP1 RETURN JUMPDEST PUSH2 0x213 PUSH2 0x896 JUMP JUMPDEST STOP JUMPDEST PUSH2 0x22F PUSH1 0x4 DUP1 CALLDATASIZE SUB DUP2 ADD SWAP1 PUSH2 0x22A SWAP2 SWAP1 PUSH2 0x1222 JUMP JUMPDEST PUSH2 0x8F4 JUMP JUMPDEST STOP JUMPDEST PUSH2 0x24B PUSH1 0x4 DUP1 CALLDATASIZE SUB DUP2 ADD SWAP1 PUSH2 0x246 SWAP2 SWAP1 PUSH2 0x10EE JUMP JUMPDEST PUSH2 0xC7A JUMP JUMPDEST STOP JUMPDEST PUSH2 0x255 PUSH2 0xCFE JUMP JUMPDEST PUSH1 0x40 MLOAD PUSH2 0x262 SWAP2 SWAP1 PUSH2 0x1077 JUMP JUMPDEST PUSH1 0x40 MLOAD DUP1 SWAP2 SUB SWAP1 RETURN JUMPDEST PUSH2 0x273 PUSH2 0xD04 JUMP JUMPDEST PUSH1 0x40 MLOAD PUSH2 0x280 SWAP2 SWAP1 PUSH2 0x1280 JUMP JUMPDEST PUSH1 0x40 MLOAD DUP1 SWAP2 SUB SWAP1 RETURN JUMPDEST PUSH1 0x5 DUP2 JUMP JUMPDEST PUSH2 0x296 PUSH2 0xD1C JUMP JUMPDEST PUSH0 PUSH1 0x2 PUSH0 CALLER PUSH20 0xFFFFFFFFFFFFFFFFFFFFFFFFFFFFFFFFFFFFFFFF AND PUSH20 0xFFFFFFFFFFFFFFFFFFFFFFFFFFFFFFFFFFFFFFFF AND DUP2 MSTORE PUSH1 0x20 ADD SWAP1 DUP2 MSTORE PUSH1 0x20 ADD PUSH0 KECCAK256 SWAP1 POP PUSH0 DUP2 PUSH1 0x1 ADD SLOAD GT PUSH2 0x31C JUMPI PUSH1 0x40 MLOAD PUSH32 0x8C379A000000000000000000000000000000000000000000000000000000000 DUP2 MSTORE PUSH1 0x4 ADD PUSH2 0x313 SWAP1 PUSH2 0x12F3 JUMP JUMPDEST PUSH1 0x40 MLOAD DUP1 SWAP2 SUB SWAP1 REVERT JUMPDEST PUSH0 DUP2 PUSH1 0x1 ADD SLOAD SWAP1 POP PUSH0 DUP3 PUSH0 ADD SLOAD SWAP1 POP PUSH0 DUP4 PUSH1 0x1 ADD DUP2 SWAP1 SSTORE POP PUSH0 DUP4 PUSH0 ADD DUP2 SWAP1 SSTORE POP PUSH20 0xC1256AE5FF1CF2719D4937ADB3BBCCAB2E00A2CA PUSH20 0xFFFFFFFFFFFFFFFFFFFFFFFFFFFFFFFFFFFFFFFF AND PUSH4 0xBA087652 DUP4 ADDRESS ADDRESS PUSH1 0x40 MLOAD DUP5 PUSH4 0xFFFFFFFF AND PUSH1 0xE0 SHL DUP2 MSTORE PUSH1 0x4 ADD PUSH2 0x38D SWAP4 SWAP3 SWAP2 SWAP1 PUSH2 0x1311 JUMP JUMPDEST PUSH1 0x20 PUSH1 0x40 MLOAD DUP1 DUP4 SUB DUP2 PUSH0 DUP8 GAS CALL ISZERO DUP1 ISZERO PUSH2 0x3A9 JUMPI RETURNDATASIZE PUSH0 DUP1 RETURNDATACOPY RETURNDATASIZE PUSH0 REVERT JUMPDEST POP POP POP POP PUSH1 0x40 MLOAD RETURNDATASIZE PUSH1 0x1F NOT PUSH1 0x1F DUP3 ADD AND DUP3 ADD DUP1 PUSH1 0x40 MSTORE POP DUP2 ADD SWAP1 PUSH2 0x3CD SWAP2 SWAP1 PUSH2 0x135A JUMP JUMPDEST POP PUSH0 PUSH20 0xC1256AE5FF1CF2719D4937ADB3BBCCAB2E00A2CA PUSH20 0xFFFFFFFFFFFFFFFFFFFFFFFFFFFFFFFFFFFFFFFF AND PUSH4 0x7A2D13A DUP5 PUSH1 0x40 MLOAD DUP3 PUSH4 0xFFFFFFFF AND PUSH1 0xE0 SHL DUP2 MSTORE PUSH1 0x4 ADD PUSH2 0x41C SWAP2 SWAP1 PUSH2 0x1077 JUMP JUMPDEST PUSH1 0x20 PUSH1 0x40 MLOAD DUP1 DUP4 SUB DUP2 DUP7 GAS STATICCALL ISZERO DUP1 ISZERO PUSH2 0x437 JUMPI RETURNDATASIZE PUSH0 DUP1 RETURNDATACOPY RETURNDATASIZE PUSH0 REVERT JUMPDEST POP POP POP POP PUSH1 0x40 MLOAD RETURNDATASIZE PUSH1 0x1F NOT PUSH1 0x1F DUP3 ADD AND DUP3 ADD DUP1 PUSH1 0x40 MSTORE POP DUP2 ADD SWAP1 PUSH2 0x45B SWAP2 SWAP1 PUSH2 0x135A JUMP JUMPDEST SWAP1 POP PUSH0 DUP3 DUP3 GT ISZERO PUSH2 0x475 JUMPI DUP3 DUP3 PUSH2 0x472 SWAP2 SWAP1 PUSH2 0x13B2 JUMP JUMPDEST SWAP1 POP JUMPDEST PUSH0 DUP2 GT ISZERO PUSH2 0x688 JUMPI PUSH0 PUSH1 0x64 PUSH1 0xA DUP4 PUSH2 0x48D SWAP2 SWAP1 PUSH2 0x13E5 JUMP JUMPDEST PUSH2 0x497 SWAP2 SWAP1 PUSH2 0x1453 JUMP JUMPDEST SWAP1 POP PUSH0 PUSH1 0x64 PUSH1 0x5 DUP5 PUSH2 0x4A9 SWAP2 SWAP1 PUSH2 0x13E5 JUMP JUMPDEST PUSH2 0x4B3 SWAP2 SWAP1 PUSH2 0x1453 JUMP JUMPDEST SWAP1 POP PUSH0 DUP2 DUP4 DUP6 PUSH2 0x4C3 SWAP2 SWAP1 PUSH2 0x13B2 JUMP JUMPDEST PUSH2 0x4CD SWAP2 SWAP1 PUSH2 0x13B2 JUMP JUMPDEST SWAP1 POP PUSH0 PUSH20 0xFFFFFFFFFFFFFFFFFFFFFFFFFFFFFFFFFFFFFFFF AND DUP9 PUSH1 0x2 ADD PUSH0 SWAP1 SLOAD SWAP1 PUSH2 0x100 EXP SWAP1 DIV PUSH20 0xFFFFFFFFFFFFFFFFFFFFFFFFFFFFFFFFFFFFFFFF AND PUSH20 0xFFFFFFFFFFFFFFFFFFFFFFFFFFFFFFFFFFFFFFFF AND EQ PUSH2 0x605 JUMPI PUSH2 0x587 DUP9 PUSH1 0x2 ADD PUSH0 SWAP1 SLOAD SWAP1 PUSH2 0x100 EXP SWAP1 DIV PUSH20 0xFFFFFFFFFFFFFFFFFFFFFFFFFFFFFFFFFFFFFFFF AND DUP5 PUSH20 0x833589FCD6EDB6E08F4C7C32D4F71B54BDA02913 PUSH20 0xFFFFFFFFFFFFFFFFFFFFFFFFFFFFFFFFFFFFFFFF AND PUSH2 0xD6B SWAP1 SWAP3 SWAP2 SWAP1 PUSH4 0xFFFFFFFF AND JUMP JUMPDEST DUP3 PUSH1 0x2 PUSH0 DUP11 PUSH1 0x2 ADD PUSH0 SWAP1 SLOAD SWAP1 PUSH2 0x100 EXP SWAP1 DIV PUSH20 0xFFFFFFFFFFFFFFFFFFFFFFFFFFFFFFFFFFFFFFFF AND PUSH20 0xFFFFFFFFFFFFFFFFFFFFFFFFFFFFFFFFFFFFFFFF AND PUSH20 0xFFFFFFFFFFFFFFFFFFFFFFFFFFFFFFFFFFFFFFFF AND DUP2 MSTORE PUSH1 0x20 ADD SWAP1 DUP2 MSTORE PUSH1 0x20 ADD PUSH0 KECCAK256 PUSH1 0x3 ADD PUSH0 DUP3 DUP3 SLOAD PUSH2 0x5F9 SWAP2 SWAP1 PUSH2 0x1483 JUMP JUMPDEST SWAP3 POP POP DUP2 SWAP1 SSTORE POP PUSH2 0x61E JUMP JUMPDEST DUP3 PUSH1 0x3 PUSH0 DUP3 DUP3 SLOAD PUSH2 0x616 SWAP2 SWAP1 PUSH2 0x1483 JUMP JUMPDEST SWAP3 POP POP DUP2 SWAP1 SSTORE POP JUMPDEST DUP2 PUSH1 0x3 PUSH0 DUP3 DUP3 SLOAD PUSH2 0x62F SWAP2 SWAP1 PUSH2 0x1483 JUMP JUMPDEST SWAP3 POP POP DUP2 SWAP1 SSTORE POP PUSH2 0x680 CALLER DUP3 DUP9 PUSH2 0x646 SWAP2 SWAP1 PUSH2 0x1483 JUMP JUMPDEST PUSH20 0x833589FCD6EDB6E08F4C7C32D4F71B54BDA02913 PUSH20 0xFFFFFFFFFFFFFFFFFFFFFFFFFFFFFFFFFFFFFFFF AND PUSH2 0xD6B SWAP1 SWAP3 SWAP2 SWAP1 PUSH4 0xFFFFFFFF AND JUMP JUMPDEST POP POP POP PUSH2 0x6C8 JUMP JUMPDEST PUSH2 0x6C7 CALLER DUP5 PUSH20 0x833589FCD6EDB6E08F4C7C32D4F71B54BDA02913 PUSH20 0xFFFFFFFFFFFFFFFFFFFFFFFFFFFFFFFFFFFFFFFF AND PUSH2 0xD6B SWAP1 SWAP3 SWAP2 SWAP1 PUSH4 0xFFFFFFFF AND JUMP JUMPDEST JUMPDEST POP POP POP POP POP PUSH2 0x6D5 PUSH2 0xDEA JUMP JUMPDEST JUMP JUMPDEST PUSH0 PUSH1 0x2 PUSH0 DUP4 PUSH20 0xFFFFFFFFFFFFFFFFFFFFFFFFFFFFFFFFFFFFFFFF AND PUSH20 0xFFFFFFFFFFFFFFFFFFFFFFFFFFFFFFFFFFFFFFFF AND DUP2 MSTORE PUSH1 0x20 ADD SWAP1 DUP2 MSTORE PUSH1 0x20 ADD PUSH0 KECCAK256 PUSH1 0x3 ADD SLOAD SWAP1 POP SWAP2 SWAP1 POP JUMP JUMPDEST PUSH0 PUSH20 0xC1256AE5FF1CF2719D4937ADB3BBCCAB2E00A2CA PUSH20 0xFFFFFFFFFFFFFFFFFFFFFFFFFFFFFFFFFFFFFFFF AND PUSH4 0x7A2D13A PUSH1 0x2 PUSH0 DUP6 PUSH20 0xFFFFFFFFFFFFFFFFFFFFFFFFFFFFFFFFFFFFFFFF AND PUSH20 0xFFFFFFFFFFFFFFFFFFFFFFFFFFFFFFFFFFFFFFFF AND DUP2 MSTORE PUSH1 0x20 ADD SWAP1 DUP2 MSTORE PUSH1 0x20 ADD PUSH0 KECCAK256 PUSH1 0x1 ADD SLOAD PUSH1 0x40 MLOAD DUP3 PUSH4 0xFFFFFFFF AND PUSH1 0xE0 SHL DUP2 MSTORE PUSH1 0x4 ADD PUSH2 0x7AE SWAP2 SWAP1 PUSH2 0x1077 JUMP JUMPDEST PUSH1 0x20 PUSH1 0x40 MLOAD DUP1 DUP4 SUB DUP2 DUP7 GAS STATICCALL ISZERO DUP1 ISZERO PUSH2 0x7C9 JUMPI RETURNDATASIZE PUSH0 DUP1 RETURNDATACOPY RETURNDATASIZE PUSH0 REVERT JUMPDEST POP POP POP POP PUSH1 0x40 MLOAD RETURNDATASIZE PUSH1 0x1F NOT PUSH1 0x1F DUP3 ADD AND DUP3 ADD DUP1 PUSH1 0x40 MSTORE POP DUP2 ADD SWAP1 PUSH2 0x7ED SWAP2 SWAP1 PUSH2 0x135A JUMP JUMPDEST SWAP1 POP SWAP2 SWAP1 POP JUMP JUMPDEST PUSH2 0x7FC PUSH2 0xDF3 JUMP JUMPDEST PUSH2 0x805 PUSH0 PUSH2 0xE7A JUMP JUMPDEST JUMP JUMPDEST PUSH20 0x833589FCD6EDB6E08F4C7C32D4F71B54BDA02913 DUP2 JUMP JUMPDEST PUSH0 DUP1 PUSH0 SWAP1 SLOAD SWAP1 PUSH2 0x100 EXP SWAP1 DIV PUSH20 0xFFFFFFFFFFFFFFFFFFFFFFFFFFFFFFFFFFFFFFFF AND SWAP1 POP SWAP1 JUMP JUMPDEST PUSH1 0x2 PUSH1 0x20 MSTORE DUP1 PUSH0 MSTORE PUSH1 0x40 PUSH0 KECCAK256 PUSH0 SWAP2 POP SWAP1 POP DUP1 PUSH0 ADD SLOAD SWAP1 DUP1 PUSH1 0x1 ADD SLOAD SWAP1 DUP1 PUSH1 0x2 ADD PUSH0 SWAP1 SLOAD SWAP1 PUSH2 0x100 EXP SWAP1 DIV PUSH20 0xFFFFFFFFFFFFFFFFFFFFFFFFFFFFFFFFFFFFFFFF AND SWAP1 DUP1 PUSH1 0x3 ADD SLOAD SWAP1 POP DUP5 JUMP JUMPDEST PUSH1 0xA DUP2 JUMP JUMPDEST PUSH2 0x89E PUSH2 0xDF3 JUMP JUMPDEST PUSH0 PUSH1 0x3 SLOAD SWAP1 POP PUSH0 PUSH1 0x3 DUP2 SWAP1 SSTORE POP PUSH2 0x8F1 PUSH2 0x8B6 PUSH2 0x81F JUMP JUMPDEST DUP3 PUSH20 0x833589FCD6EDB6E08F4C7C32D4F71B54BDA02913 PUSH20 0xFFFFFFFFFFFFFFFFFFFFFFFFFFFFFFFFFFFFFFFF AND PUSH2 0xD6B SWAP1 SWAP3 SWAP2 SWAP1 PUSH4 0xFFFFFFFF AND JUMP JUMPDEST POP JUMP JUMPDEST PUSH2 0x8FC PUSH2 0xD1C JUMP JUMPDEST PUSH3 0x989680 DUP3 LT ISZERO PUSH2 0x942 JUMPI PUSH1 0x40 MLOAD PUSH32 0x8C379A000000000000000000000000000000000000000000000000000000000 DUP2 MSTORE PUSH1 0x4 ADD PUSH2 0x939 SWAP1 PUSH2 0x1500 JUMP JUMPDEST PUSH1 0x40 MLOAD DUP1 SWAP2 SUB SWAP1 REVERT JUMPDEST CALLER PUSH20 0xFFFFFFFFFFFFFFFFFFFFFFFFFFFFFFFFFFFFFFFF AND DUP2 PUSH20 0xFFFFFFFFFFFFFFFFFFFFFFFFFFFFFFFFFFFFFFFF AND SUB PUSH2 0x9B0 JUMPI PUSH1 0x40 MLOAD PUSH32 0x8C379A000000000000000000000000000000000000000000000000000000000 DUP2 MSTORE PUSH1 0x4 ADD PUSH2 0x9A7 SWAP1 PUSH2 0x1568 JUMP JUMPDEST PUSH1 0x40 MLOAD DUP1 SWAP2 SUB SWAP1 REVERT JUMPDEST PUSH0 PUSH1 0x2 PUSH0 CALLER PUSH20 0xFFFFFFFFFFFFFFFFFFFFFFFFFFFFFFFFFFFFFFFF AND PUSH20 0xFFFFFFFFFFFFFFFFFFFFFFFFFFFFFFFFFFFFFFFF AND DUP2 MSTORE PUSH1 0x20 ADD SWAP1 DUP2 MSTORE PUSH1 0x20 ADD PUSH0 KECCAK256 SWAP1 POP PUSH0 PUSH20 0xFFFFFFFFFFFFFFFFFFFFFFFFFFFFFFFFFFFFFFFF AND DUP2 PUSH1 0x2 ADD PUSH0 SWAP1 SLOAD SWAP1 PUSH2 0x100 EXP SWAP1 DIV PUSH20 0xFFFFFFFFFFFFFFFFFFFFFFFFFFFFFFFFFFFFFFFF AND PUSH20 0xFFFFFFFFFFFFFFFFFFFFFFFFFFFFFFFFFFFFFFFF AND EQ DUP1 ISZERO PUSH2 0xA7A JUMPI POP PUSH0 PUSH20 0xFFFFFFFFFFFFFFFFFFFFFFFFFFFFFFFFFFFFFFFF AND DUP3 PUSH20 0xFFFFFFFFFFFFFFFFFFFFFFFFFFFFFFFFFFFFFFFF AND EQ ISZERO JUMPDEST ISZERO PUSH2 0xAC2 JUMPI DUP2 DUP2 PUSH1 0x2 ADD PUSH0 PUSH2 0x100 EXP DUP2 SLOAD DUP2 PUSH20 0xFFFFFFFFFFFFFFFFFFFFFFFFFFFFFFFFFFFFFFFF MUL NOT AND SWAP1 DUP4 PUSH20 0xFFFFFFFFFFFFFFFFFFFFFFFFFFFFFFFFFFFFFFFF AND MUL OR SWAP1 SSTORE POP JUMPDEST PUSH2 0xB03 CALLER ADDRESS DUP6 PUSH20 0x833589FCD6EDB6E08F4C7C32D4F71B54BDA02913 PUSH20 0xFFFFFFFFFFFFFFFFFFFFFFFFFFFFFFFFFFFFFFFF AND PUSH2 0xF3B SWAP1 SWAP4 SWAP3 SWAP2 SWAP1 PUSH4 0xFFFFFFFF AND JUMP JUMPDEST PUSH20 0x833589FCD6EDB6E08F4C7C32D4F71B54BDA02913 PUSH20 0xFFFFFFFFFFFFFFFFFFFFFFFFFFFFFFFFFFFFFFFF AND PUSH4 0x95EA7B3 PUSH20 0xC1256AE5FF1CF2719D4937ADB3BBCCAB2E00A2CA DUP6 PUSH1 0x40 MLOAD DUP4 PUSH4 0xFFFFFFFF AND PUSH1 0xE0 SHL DUP2 MSTORE PUSH1 0x4 ADD PUSH2 0xB66 SWAP3 SWAP2 SWAP1 PUSH2 0x1586 JUMP JUMPDEST PUSH1 0x20 PUSH1 0x40 MLOAD DUP1 DUP4 SUB DUP2 PUSH0 DUP8 GAS CALL ISZERO DUP1 ISZERO PUSH2 0xB82 JUMPI RETURNDATASIZE PUSH0 DUP1 RETURNDATACOPY RETURNDATASIZE PUSH0 REVERT JUMPDEST POP POP POP POP PUSH1 0x40 MLOAD RETURNDATASIZE PUSH1 0x1F NOT PUSH1 0x1F DUP3 ADD AND DUP3 ADD DUP1 PUSH1 0x40 MSTORE POP DUP2 ADD SWAP1 PUSH2 0xBA6 SWAP2 SWAP1 PUSH2 0x15E2 JUMP JUMPDEST POP PUSH0 PUSH20 0xC1256AE5FF1CF2719D4937ADB3BBCCAB2E00A2CA PUSH20 0xFFFFFFFFFFFFFFFFFFFFFFFFFFFFFFFFFFFFFFFF AND PUSH4 0x6E553F65 DUP6 ADDRESS PUSH1 0x40 MLOAD DUP4 PUSH4 0xFFFFFFFF AND PUSH1 0xE0 SHL DUP2 MSTORE PUSH1 0x4 ADD PUSH2 0xBF7 SWAP3 SWAP2 SWAP1 PUSH2 0x160D JUMP JUMPDEST PUSH1 0x20 PUSH1 0x40 MLOAD DUP1 DUP4 SUB DUP2 PUSH0 DUP8 GAS CALL ISZERO DUP1 ISZERO PUSH2 0xC13 JUMPI RETURNDATASIZE PUSH0 DUP1 RETURNDATACOPY RETURNDATASIZE PUSH0 REVERT JUMPDEST POP POP POP POP PUSH1 0x40 MLOAD RETURNDATASIZE PUSH1 0x1F NOT PUSH1 0x1F DUP3 ADD AND DUP3 ADD DUP1 PUSH1 0x40 MSTORE POP DUP2 ADD SWAP1 PUSH2 0xC37 SWAP2 SWAP1 PUSH2 0x135A JUMP JUMPDEST SWAP1 POP DUP4 DUP3 PUSH0 ADD PUSH0 DUP3 DUP3 SLOAD PUSH2 0xC4B SWAP2 SWAP1 PUSH2 0x1483 JUMP JUMPDEST SWAP3 POP POP DUP2 SWAP1 SSTORE POP DUP1 DUP3 PUSH1 0x1 ADD PUSH0 DUP3 DUP3 SLOAD PUSH2 0xC65 SWAP2 SWAP1 PUSH2 0x1483 JUMP JUMPDEST SWAP3 POP POP DUP2 SWAP1 SSTORE POP POP POP PUSH2 0xC76 PUSH2 0xDEA JUMP JUMPDEST POP POP JUMP JUMPDEST PUSH2 0xC82 PUSH2 0xDF3 JUMP JUMPDEST PUSH0 PUSH20 0xFFFFFFFFFFFFFFFFFFFFFFFFFFFFFFFFFFFFFFFF AND DUP2 PUSH20 0xFFFFFFFFFFFFFFFFFFFFFFFFFFFFFFFFFFFFFFFF AND SUB PUSH2 0xCF2 JUMPI PUSH0 PUSH1 0x40 MLOAD PUSH32 0x1E4FBDF700000000000000000000000000000000000000000000000000000000 DUP2 MSTORE PUSH1 0x4 ADD PUSH2 0xCE9 SWAP2 SWAP1 PUSH2 0x119C JUMP JUMPDEST PUSH1 0x40 MLOAD DUP1 SWAP2 SUB SWAP1 REVERT JUMPDEST PUSH2 0xCFB DUP2 PUSH2 0xE7A JUMP JUMPDEST POP JUMP JUMPDEST PUSH1 0x3 SLOAD DUP2 JUMP JUMPDEST PUSH20 0xC1256AE5FF1CF2719D4937ADB3BBCCAB2E00A2CA DUP2 JUMP JUMPDEST PUSH1 0x2 PUSH1 0x1 SLOAD SUB PUSH2 0xD61 JUMPI PUSH1 0x40 MLOAD PUSH32 0x8C379A000000000000000000000000000000000000000000000000000000000 DUP2 MSTORE PUSH1 0x4 ADD PUSH2 0xD58 SWAP1 PUSH2 0x167E JUMP JUMPDEST PUSH1 0x40 MLOAD DUP1 SWAP2 SUB SWAP1 REVERT JUMPDEST PUSH1 0x2 PUSH1 0x1 DUP2 SWAP1 SSTORE POP JUMP JUMPDEST PUSH2 0xDE5 DUP4 DUP5 PUSH20 0xFFFFFFFFFFFFFFFFFFFFFFFFFFFFFFFFFFFFFFFF AND PUSH4 0xA9059CBB DUP6 DUP6 PUSH1 0x40 MLOAD PUSH1 0x24 ADD PUSH2 0xD9E SWAP3 SWAP2 SWAP1 PUSH2 0x1586 JUMP JUMPDEST PUSH1 0x40 MLOAD PUSH1 0x20 DUP2 DUP4 SUB SUB DUP2 MSTORE SWAP1 PUSH1 0x40 MSTORE SWAP2 POP PUSH1 0xE0 SHL PUSH1 0x20 DUP3 ADD DUP1 MLOAD PUSH28 0xFFFFFFFFFFFFFFFFFFFFFFFFFFFFFFFFFFFFFFFFFFFFFFFFFFFFFFFF DUP4 DUP2 DUP4 AND OR DUP4 MSTORE POP POP POP POP PUSH2 0xFBD JUMP JUMPDEST POP POP POP JUMP JUMPDEST PUSH1 0x1 DUP1 DUP2 SWAP1 SSTORE POP JUMP JUMPDEST PUSH2 0xDFB PUSH2 0x1058 JUMP JUMPDEST PUSH20 0xFFFFFFFFFFFFFFFFFFFFFFFFFFFFFFFFFFFFFFFF AND PUSH2 0xE19 PUSH2 0x81F JUMP JUMPDEST PUSH20 0xFFFFFFFFFFFFFFFFFFFFFFFFFFFFFFFFFFFFFFFF AND EQ PUSH2 0xE78 JUMPI PUSH2 0xE3C PUSH2 0x1058 JUMP JUMPDEST PUSH1 0x40 MLOAD PUSH32 0x118CDAA700000000000000000000000000000000000000000000000000000000 DUP2 MSTORE PUSH1 0x4 ADD PUSH2 0xE6F SWAP2 SWAP1 PUSH2 0x119C JUMP JUMPDEST PUSH1 0x40 MLOAD DUP1 SWAP2 SUB SWAP1 REVERT JUMPDEST JUMP JUMPDEST PUSH0 DUP1 PUSH0 SWAP1 SLOAD SWAP1 PUSH2 0x100 EXP SWAP1 DIV PUSH20 0xFFFFFFFFFFFFFFFFFFFFFFFFFFFFFFFFFFFFFFFF AND SWAP1 POP DUP2 PUSH0 DUP1 PUSH2 0x100 EXP DUP2 SLOAD DUP2 PUSH20 0xFFFFFFFFFFFFFFFFFFFFFFFFFFFFFFFFFFFFFFFF MUL NOT AND SWAP1 DUP4 PUSH20 0xFFFFFFFFFFFFFFFFFFFFFFFFFFFFFFFFFFFFFFFF AND MUL OR SWAP1 SSTORE POP DUP2 PUSH20 0xFFFFFFFFFFFFFFFFFFFFFFFFFFFFFFFFFFFFFFFF AND DUP2 PUSH20 0xFFFFFFFFFFFFFFFFFFFFFFFFFFFFFFFFFFFFFFFF AND PUSH32 0x8BE0079C531659141344CD1FD0A4F28419497F9722A3DAAFE3B4186F6B6457E0 PUSH1 0x40 MLOAD PUSH1 0x40 MLOAD DUP1 SWAP2 SUB SWAP1 LOG3 POP POP JUMP JUMPDEST PUSH2 0xFB7 DUP5 DUP6 PUSH20 0xFFFFFFFFFFFFFFFFFFFFFFFFFFFFFFFFFFFFFFFF AND PUSH4 0x23B872DD DUP7 DUP7 DUP7 PUSH1 0x40 MLOAD PUSH1 0x24 ADD PUSH2 0xF70 SWAP4 SWAP3 SWAP2 SWAP1 PUSH2 0x169C JUMP JUMPDEST PUSH1 0x40 MLOAD PUSH1 0x20 DUP2 DUP4 SUB SUB DUP2 MSTORE SWAP1 PUSH1 0x40 MSTORE SWAP2 POP PUSH1 0xE0 SHL PUSH1 0x20 DUP3 ADD DUP1 MLOAD PUSH28 0xFFFFFFFFFFFFFFFFFFFFFFFFFFFFFFFFFFFFFFFFFFFFFFFFFFFFFFFF DUP4 DUP2 DUP4 AND OR DUP4 MSTORE POP POP POP POP PUSH2 0xFBD JUMP JUMPDEST POP POP POP POP JUMP JUMPDEST PUSH0 DUP1 PUSH1 0x20 PUSH0 DUP5 MLOAD PUSH1 0x20 DUP7 ADD PUSH0 DUP9 GAS CALL DUP1 PUSH2 0xFDC JUMPI PUSH1 0x40 MLOAD RETURNDATASIZE PUSH0 DUP3 RETURNDATACOPY RETURNDATASIZE DUP2 REVERT JUMPDEST RETURNDATASIZE SWAP3 POP PUSH0 MLOAD SWAP2 POP POP PUSH0 DUP3 EQ PUSH2 0xFF5 JUMPI PUSH1 0x1 DUP2 EQ ISZERO PUSH2 0x1010 JUMP JUMPDEST PUSH0 DUP5 PUSH20 0xFFFFFFFFFFFFFFFFFFFFFFFFFFFFFFFFFFFFFFFF AND EXTCODESIZE EQ JUMPDEST ISZERO PUSH2 0x1052 JUMPI DUP4 PUSH1 0x40 MLOAD PUSH32 0x5274AFE700000000000000000000000000000000000000000000000000000000 DUP2 MSTORE PUSH1 0x4 ADD PUSH2 0x1049 SWAP2 SWAP1 PUSH2 0x119C JUMP JUMPDEST PUSH1 0x40 MLOAD DUP1 SWAP2 SUB SWAP1 REVERT JUMPDEST POP POP POP POP JUMP JUMPDEST PUSH0 CALLER SWAP1 POP SWAP1 JUMP JUMPDEST PUSH0 DUP2 SWAP1 POP SWAP2 SWAP1 POP JUMP JUMPDEST PUSH2 0x1071 DUP2 PUSH2 0x105F JUMP JUMPDEST DUP3 MSTORE POP POP JUMP JUMPDEST PUSH0 PUSH1 0x20 DUP3 ADD SWAP1 POP PUSH2 0x108A PUSH0 DUP4 ADD DUP5 PUSH2 0x1068 JUMP JUMPDEST SWAP3 SWAP2 POP POP JUMP JUMPDEST PUSH0 DUP1 REVERT JUMPDEST PUSH0 PUSH20 0xFFFFFFFFFFFFFFFFFFFFFFFFFFFFFFFFFFFFFFFF DUP3 AND SWAP1 POP SWAP2 SWAP1 POP JUMP JUMPDEST PUSH0 PUSH2 0x10BD DUP3 PUSH2 0x1094 JUMP JUMPDEST SWAP1 POP SWAP2 SWAP1 POP JUMP JUMPDEST PUSH2 0x10CD DUP2 PUSH2 0x10B3 JUMP JUMPDEST DUP2 EQ PUSH2 0x10D7 JUMPI PUSH0 DUP1 REVERT JUMPDEST POP JUMP JUMPDEST PUSH0 DUP2 CALLDATALOAD SWAP1 POP PUSH2 0x10E8 DUP2 PUSH2 0x10C4 JUMP JUMPDEST SWAP3 SWAP2 POP POP JUMP JUMPDEST PUSH0 PUSH1 0x20 DUP3 DUP5 SUB SLT ISZERO PUSH2 0x1103 JUMPI PUSH2 0x1102 PUSH2 0x1090 JUMP JUMPDEST JUMPDEST PUSH0 PUSH2 0x1110 DUP5 DUP3 DUP6 ADD PUSH2 0x10DA JUMP JUMPDEST SWAP2 POP POP SWAP3 SWAP2 POP POP JUMP JUMPDEST PUSH0 DUP2 SWAP1 POP SWAP2 SWAP1 POP JUMP JUMPDEST PUSH0 PUSH2 0x113C PUSH2 0x1137 PUSH2 0x1132 DUP5 PUSH2 0x1094 JUMP JUMPDEST PUSH2 0x1119 JUMP JUMPDEST PUSH2 0x1094 JUMP JUMPDEST SWAP1 POP SWAP2 SWAP1 POP JUMP JUMPDEST PUSH0 PUSH2 0x114D DUP3 PUSH2 0x1122 JUMP JUMPDEST SWAP1 POP SWAP2 SWAP1 POP JUMP JUMPDEST PUSH0 PUSH2 0x115E DUP3 PUSH2 0x1143 JUMP JUMPDEST SWAP1 POP SWAP2 SWAP1 POP JUMP JUMPDEST PUSH2 0x116E DUP2 PUSH2 0x1154 JUMP JUMPDEST DUP3 MSTORE POP POP JUMP JUMPDEST PUSH0 PUSH1 0x20 DUP3 ADD SWAP1 POP PUSH2 0x1187 PUSH0 DUP4 ADD DUP5 PUSH2 0x1165 JUMP JUMPDEST SWAP3 SWAP2 POP POP JUMP JUMPDEST PUSH2 0x1196 DUP2 PUSH2 0x10B3 JUMP JUMPDEST DUP3 MSTORE POP POP JUMP JUMPDEST PUSH0 PUSH1 0x20 DUP3 ADD SWAP1 POP PUSH2 0x11AF PUSH0 DUP4 ADD DUP5 PUSH2 0x118D JUMP JUMPDEST SWAP3 SWAP2 POP POP JUMP JUMPDEST PUSH0 PUSH1 0x80 DUP3 ADD SWAP1 POP PUSH2 0x11C8 PUSH0 DUP4 ADD DUP8 PUSH2 0x1068 JUMP JUMPDEST PUSH2 0x11D5 PUSH1 0x20 DUP4 ADD DUP7 PUSH2 0x1068 JUMP JUMPDEST PUSH2 0x11E2 PUSH1 0x40 DUP4 ADD DUP6 PUSH2 0x118D JUMP JUMPDEST PUSH2 0x11EF PUSH1 0x60 DUP4 ADD DUP5 PUSH2 0x1068 JUMP JUMPDEST SWAP6 SWAP5 POP POP POP POP POP JUMP JUMPDEST PUSH2 0x1201 DUP2 PUSH2 0x105F JUMP JUMPDEST DUP2 EQ PUSH2 0x120B JUMPI PUSH0 DUP1 REVERT JUMPDEST POP JUMP JUMPDEST PUSH0 DUP2 CALLDATALOAD SWAP1 POP PUSH2 0x121C DUP2 PUSH2 0x11F8 JUMP JUMPDEST SWAP3 SWAP2 POP POP JUMP JUMPDEST PUSH0 DUP1 PUSH1 0x40 DUP4 DUP6 SUB SLT ISZERO PUSH2 0x1238 JUMPI PUSH2 0x1237 PUSH2 0x1090 JUMP JUMPDEST JUMPDEST PUSH0 PUSH2 0x1245 DUP6 DUP3 DUP7 ADD PUSH2 0x120E JUMP JUMPDEST SWAP3 POP POP PUSH1 0x20 PUSH2 0x1256 DUP6 DUP3 DUP7 ADD PUSH2 0x10DA JUMP JUMPDEST SWAP2 POP POP SWAP3 POP SWAP3 SWAP1 POP JUMP JUMPDEST PUSH0 PUSH2 0x126A DUP3 PUSH2 0x1143 JUMP JUMPDEST SWAP1 POP SWAP2 SWAP1 POP JUMP JUMPDEST PUSH2 0x127A DUP2 PUSH2 0x1260 JUMP JUMPDEST DUP3 MSTORE POP POP JUMP JUMPDEST PUSH0 PUSH1 0x20 DUP3 ADD SWAP1 POP PUSH2 0x1293 PUSH0 DUP4 ADD DUP5 PUSH2 0x1271 JUMP JUMPDEST SWAP3 SWAP2 POP POP JUMP JUMPDEST PUSH0 DUP3 DUP3 MSTORE PUSH1 0x20 DUP3 ADD SWAP1 POP SWAP3 SWAP2 POP POP JUMP JUMPDEST PUSH32 0x4E6F2062616C616E636500000000000000000000000000000000000000000000 PUSH0 DUP3 ADD MSTORE POP JUMP JUMPDEST PUSH0 PUSH2 0x12DD PUSH1 0xA DUP4 PUSH2 0x1299 JUMP JUMPDEST SWAP2 POP PUSH2 0x12E8 DUP3 PUSH2 0x12A9 JUMP JUMPDEST PUSH1 0x20 DUP3 ADD SWAP1 POP SWAP2 SWAP1 POP JUMP JUMPDEST PUSH0 PUSH1 0x20 DUP3 ADD SWAP1 POP DUP2 DUP2 SUB PUSH0 DUP4 ADD MSTORE PUSH2 0x130A DUP2 PUSH2 0x12D1 JUMP JUMPDEST SWAP1 POP SWAP2 SWAP1 POP JUMP JUMPDEST PUSH0 PUSH1 0x60 DUP3 ADD SWAP1 POP PUSH2 0x1324 PUSH0 DUP4 ADD DUP7 PUSH2 0x1068 JUMP JUMPDEST PUSH2 0x1331 PUSH1 0x20 DUP4 ADD DUP6 PUSH2 0x118D JUMP JUMPDEST PUSH2 0x133E PUSH1 0x40 DUP4 ADD DUP5 PUSH2 0x118D JUMP JUMPDEST SWAP5 SWAP4 POP POP POP POP JUMP JUMPDEST PUSH0 DUP2 MLOAD SWAP1 POP PUSH2 0x1354 DUP2 PUSH2 0x11F8 JUMP JUMPDEST SWAP3 SWAP2 POP POP JUMP JUMPDEST PUSH0 PUSH1 0x20 DUP3 DUP5 SUB SLT ISZERO PUSH2 0x136F JUMPI PUSH2 0x136E PUSH2 0x1090 JUMP JUMPDEST JUMPDEST PUSH0 PUSH2 0x137C DUP5 DUP3 DUP6 ADD PUSH2 0x1346 JUMP JUMPDEST SWAP2 POP POP SWAP3 SWAP2 POP POP JUMP JUMPDEST PUSH32 0x4E487B7100000000000000000000000000000000000000000000000000000000 PUSH0 MSTORE PUSH1 0x11 PUSH1 0x4 MSTORE PUSH1 0x24 PUSH0 REVERT JUMPDEST PUSH0 PUSH2 0x13BC DUP3 PUSH2 0x105F JUMP JUMPDEST SWAP2 POP PUSH2 0x13C7 DUP4 PUSH2 0x105F JUMP JUMPDEST SWAP3 POP DUP3 DUP3 SUB SWAP1 POP DUP2 DUP2 GT ISZERO PUSH2 0x13DF JUMPI PUSH2 0x13DE PUSH2 0x1385 JUMP JUMPDEST JUMPDEST SWAP3 SWAP2 POP POP JUMP JUMPDEST PUSH0 PUSH2 0x13EF DUP3 PUSH2 0x105F JUMP JUMPDEST SWAP2 POP PUSH2 0x13FA DUP4 PUSH2 0x105F JUMP JUMPDEST SWAP3 POP DUP3 DUP3 MUL PUSH2 0x1408 DUP2 PUSH2 0x105F JUMP JUMPDEST SWAP2 POP DUP3 DUP3 DIV DUP5 EQ DUP4 ISZERO OR PUSH2 0x141F JUMPI PUSH2 0x141E PUSH2 0x1385 JUMP JUMPDEST JUMPDEST POP SWAP3 SWAP2 POP POP JUMP JUMPDEST PUSH32 0x4E487B7100000000000000000000000000000000000000000000000000000000 PUSH0 MSTORE PUSH1 0x12 PUSH1 0x4 MSTORE PUSH1 0x24 PUSH0 REVERT JUMPDEST PUSH0 PUSH2 0x145D DUP3 PUSH2 0x105F JUMP JUMPDEST SWAP2 POP PUSH2 0x1468 DUP4 PUSH2 0x105F JUMP JUMPDEST SWAP3 POP DUP3 PUSH2 0x1478 JUMPI PUSH2 0x1477 PUSH2 0x1426 JUMP JUMPDEST JUMPDEST DUP3 DUP3 DIV SWAP1 POP SWAP3 SWAP2 POP POP JUMP JUMPDEST PUSH0 PUSH2 0x148D DUP3 PUSH2 0x105F JUMP JUMPDEST SWAP2 POP PUSH2 0x1498 DUP4 PUSH2 0x105F JUMP JUMPDEST SWAP3 POP DUP3 DUP3 ADD SWAP1 POP DUP1 DUP3 GT ISZERO PUSH2 0x14B0 JUMPI PUSH2 0x14AF PUSH2 0x1385 JUMP JUMPDEST JUMPDEST SWAP3 SWAP2 POP POP JUMP JUMPDEST PUSH32 0x4D696E2031302055534443000000000000000000000000000000000000000000 PUSH0 DUP3 ADD MSTORE POP JUMP JUMPDEST PUSH0 PUSH2 0x14EA PUSH1 0xB DUP4 PUSH2 0x1299 JUMP JUMPDEST SWAP2 POP PUSH2 0x14F5 DUP3 PUSH2 0x14B6 JUMP JUMPDEST PUSH1 0x20 DUP3 ADD SWAP1 POP SWAP2 SWAP1 POP JUMP JUMPDEST PUSH0 PUSH1 0x20 DUP3 ADD SWAP1 POP DUP2 DUP2 SUB PUSH0 DUP4 ADD MSTORE PUSH2 0x1517 DUP2 PUSH2 0x14DE JUMP JUMPDEST SWAP1 POP SWAP2 SWAP1 POP JUMP JUMPDEST PUSH32 0x4E6F2073656C662D726566657272616C00000000000000000000000000000000 PUSH0 DUP3 ADD MSTORE POP JUMP JUMPDEST PUSH0 PUSH2 0x1552 PUSH1 0x10 DUP4 PUSH2 0x1299 JUMP JUMPDEST SWAP2 POP PUSH2 0x155D DUP3 PUSH2 0x151E JUMP JUMPDEST PUSH1 0x20 DUP3 ADD SWAP1 POP SWAP2 SWAP1 POP JUMP JUMPDEST PUSH0 PUSH1 0x20 DUP3 ADD SWAP1 POP DUP2 DUP2 SUB PUSH0 DUP4 ADD MSTORE PUSH2 0x157F DUP2 PUSH2 0x1546 JUMP JUMPDEST SWAP1 POP SWAP2 SWAP1 POP JUMP JUMPDEST PUSH0 PUSH1 0x40 DUP3 ADD SWAP1 POP PUSH2 0x1599 PUSH0 DUP4 ADD DUP6 PUSH2 0x118D JUMP JUMPDEST PUSH2 0x15A6 PUSH1 0x20 DUP4 ADD DUP5 PUSH2 0x1068 JUMP JUMPDEST SWAP4 SWAP3 POP POP POP JUMP JUMPDEST PUSH0 DUP2 ISZERO ISZERO SWAP1 POP SWAP2 SWAP1 POP JUMP JUMPDEST PUSH2 0x15C1 DUP2 PUSH2 0x15AD JUMP JUMPDEST DUP2 EQ PUSH2 0x15CB JUMPI PUSH0 DUP1 REVERT JUMPDEST POP JUMP JUMPDEST PUSH0 DUP2 MLOAD SWAP1 POP PUSH2 0x15DC DUP2 PUSH2 0x15B8 JUMP JUMPDEST SWAP3 SWAP2 POP POP JUMP JUMPDEST PUSH0 PUSH1 0x20 DUP3 DUP5 SUB SLT ISZERO PUSH2 0x15F7 JUMPI PUSH2 0x15F6 PUSH2 0x1090 JUMP JUMPDEST JUMPDEST PUSH0 PUSH2 0x1604 DUP5 DUP3 DUP6 ADD PUSH2 0x15CE JUMP JUMPDEST SWAP2 POP POP SWAP3 SWAP2 POP POP JUMP JUMPDEST PUSH0 PUSH1 0x40 DUP3 ADD SWAP1 POP PUSH2 0x1620 PUSH0 DUP4 ADD DUP6 PUSH2 0x1068 JUMP JUMPDEST PUSH2 0x162D PUSH1 0x20 DUP4 ADD DUP5 PUSH2 0x118D JUMP JUMPDEST SWAP4 SWAP3 POP POP POP JUMP JUMPDEST PUSH32 0x5265656E7472616E637947756172643A207265656E7472616E742063616C6C00 PUSH0 DUP3 ADD MSTORE POP JUMP JUMPDEST PUSH0 PUSH2 0x1668 PUSH1 0x1F DUP4 PUSH2 0x1299 JUMP JUMPDEST SWAP2 POP PUSH2 0x1673 DUP3 PUSH2 0x1634 JUMP JUMPDEST PUSH1 0x20 DUP3 ADD SWAP1 POP SWAP2 SWAP1 POP JUMP JUMPDEST PUSH0 PUSH1 0x20 DUP3 ADD SWAP1 POP DUP2 DUP2 SUB PUSH0 DUP4 ADD MSTORE PUSH2 0x1695 DUP2 PUSH2 0x165C JUMP JUMPDEST SWAP1 POP SWAP2 SWAP1 POP JUMP JUMPDEST PUSH0 PUSH1 0x60 DUP3 ADD SWAP1 POP PUSH2 0x16AF PUSH0 DUP4 ADD DUP7 PUSH2 0x118D JUMP JUMPDEST PUSH2 0x16BC PUSH1 0x20 DUP4 ADD DUP6 PUSH2 0x118D JUMP JUMPDEST PUSH2 0x16C9 PUSH1 0x40 DUP4 ADD DUP5 PUSH2 0x1068 JUMP JUMPDEST SWAP5 SWAP4 POP POP POP POP JUMP INVALID LOG2 PUSH5 0x6970667358 0x22 SLT KECCAK256 LT GASLIMIT DUP6 PUSH30 0x3522F8C5CB0484C634F89B9C9AA77D4D131069F1735FD221D21AC3826473 PUSH16 0x6C634300081400330000000000000000 "
				},
				"gasEstimates": {
					"creation": {
						"codeDepositCost": "1179000",
						"executionCost": "infinite",
						"totalCost": "infinite"
					},
					"external": {
						"PROTOCOL_FEE()": "349",
						"REFERRAL_SHARE()": "370",
						"USDC()": "infinite",
						"collectFees()": "infinite",
						"getAccountValue(address)": "infinite",
						"getReferralEarnings(address)": "2903",
						"mUSDC()": "infinite",
						"owner()": "2604",
						"renounceOwnership()": "infinite",
						"totalProtocolFees()": "2491",
						"transferOwnership(address)": "infinite",
						"users(address)": "infinite",
						"zapIn(uint256,address)": "infinite",
						"zapOut()": "infinite"
					}
				},
				"methodIdentifiers": {
					"PROTOCOL_FEE()": "0b4501fd",
					"REFERRAL_SHARE()": "b21b5a21",
					"USDC()": "89a30271",
					"collectFees()": "c8796572",
					"getAccountValue(address)": "5ae80951",
					"getReferralEarnings(address)": "5764b7c4",
					"mUSDC()": "f89ec5f5",
					"owner()": "8da5cb5b",
					"renounceOwnership()": "715018a6",
					"totalProtocolFees()": "f526e39a",
					"transferOwnership(address)": "f2fde38b",
					"users(address)": "a87430ba",
					"zapIn(uint256,address)": "dabeaecf",
					"zapOut()": "23544748"
				}
			},
			"storageLayout": {
				"storage": [
					{
						"astId": 8,
						"contract": "contracts/zapyield-mainnet-beta.0.1.2.sol:ZapYieldsV2Pro",
						"label": "_owner",
						"offset": 0,
						"slot": "0",
						"type": "t_address"
					},
					{
						"astId": 248,
						"contract": "contracts/zapyield-mainnet-beta.0.1.2.sol:ZapYieldsV2Pro",
						"label": "_status",
						"offset": 0,
						"slot": "1",
						"type": "t_uint256"
					},
					{
						"astId": 960,
						"contract": "contracts/zapyield-mainnet-beta.0.1.2.sol:ZapYieldsV2Pro",
						"label": "users",
						"offset": 0,
						"slot": "2",
						"type": "t_mapping(t_address,t_struct(UserInfo)955_storage)"
					},
					{
						"astId": 962,
						"contract": "contracts/zapyield-mainnet-beta.0.1.2.sol:ZapYieldsV2Pro",
						"label": "totalProtocolFees",
						"offset": 0,
						"slot": "3",
						"type": "t_uint256"
					}
				],
				"types": {
					"t_address": {
						"encoding": "inplace",
						"label": "address",
						"numberOfBytes": "20"
					},
					"t_mapping(t_address,t_struct(UserInfo)955_storage)": {
						"encoding": "mapping",
						"key": "t_address",
						"label": "mapping(address => struct ZapYieldsV2Pro.UserInfo)",
						"numberOfBytes": "32",
						"value": "t_struct(UserInfo)955_storage"
					},
					"t_struct(UserInfo)955_storage": {
						"encoding": "inplace",
						"label": "struct ZapYieldsV2Pro.UserInfo",
						"members": [
							{
								"astId": 948,
								"contract": "contracts/zapyield-mainnet-beta.0.1.2.sol:ZapYieldsV2Pro",
								"label": "principal",
								"offset": 0,
								"slot": "0",
								"type": "t_uint256"
							},
							{
								"astId": 950,
								"contract": "contracts/zapyield-mainnet-beta.0.1.2.sol:ZapYieldsV2Pro",
								"label": "shareBalance",
								"offset": 0,
								"slot": "1",
								"type": "t_uint256"
							},
							{
								"astId": 952,
								"contract": "contracts/zapyield-mainnet-beta.0.1.2.sol:ZapYieldsV2Pro",
								"label": "referrer",
								"offset": 0,
								"slot": "2",
								"type": "t_address"
							},
							{
								"astId": 954,
								"contract": "contracts/zapyield-mainnet-beta.0.1.2.sol:ZapYieldsV2Pro",
								"label": "totalReferralEarnings",
								"offset": 0,
								"slot": "3",
								"type": "t_uint256"
							}
						],
						"numberOfBytes": "128"
					},
					"t_uint256": {
						"encoding": "inplace",
						"label": "uint256",
						"numberOfBytes": "32"
					}
				}
			},
			"userdoc": {
				"kind": "user",
				"methods": {},
				"version": 1
			}
		}
	}
}