{
	"contracts/zapyield.sol": {
		"ZapYieldsVaultSepolia": {
			"abi": [
				{
					"inputs": [],
					"stateMutability": "nonpayable",
					"type": "constructor"
				},
				{
					"inputs": [
						{
							"internalType": "address",
							"name": "owner",
							"type": "address"
						}
					],
					"name": "OwnableInvalidOwner",
					"type": "error"
				},
				{
					"inputs": [
						{
							"internalType": "address",
							"name": "account",
							"type": "address"
						}
					],
					"name": "OwnableUnauthorizedAccount",
					"type": "error"
				},
				{
					"inputs": [
						{
							"internalType": "address",
							"name": "token",
							"type": "address"
						}
					],
					"name": "SafeERC20FailedOperation",
					"type": "error"
				},
				{
					"anonymous": false,
					"inputs": [
						{
							"indexed": true,
							"internalType": "address",
							"name": "user",
							"type": "address"
						},
						{
							"indexed": false,
							"internalType": "uint256",
							"name": "amount",
							"type": "uint256"
						},
						{
							"indexed": true,
							"internalType": "address",
							"name": "referrer",
							"type": "address"
						}
					],
					"name": "Deposit",
					"type": "event"
				},
				{
					"anonymous": false,
					"inputs": [
						{
							"indexed": true,
							"internalType": "address",
							"name": "previousOwner",
							"type": "address"
						},
						{
							"indexed": true,
							"internalType": "address",
							"name": "newOwner",
							"type": "address"
						}
					],
					"name": "OwnershipTransferred",
					"type": "event"
				},
				{
					"anonymous": false,
					"inputs": [
						{
							"indexed": true,
							"internalType": "address",
							"name": "user",
							"type": "address"
						},
						{
							"indexed": false,
							"internalType": "uint256",
							"name": "amount",
							"type": "uint256"
						},
						{
							"indexed": false,
							"internalType": "uint256",
							"name": "fee",
							"type": "uint256"
						}
					],
					"name": "Withdraw",
					"type": "event"
				},
				{
					"inputs": [],
					"name": "EARLY_WITHDRAW_FEE",
					"outputs": [
						{
							"internalType": "uint256",
							"name": "",
							"type": "uint256"
						}
					],
					"stateMutability": "view",
					"type": "function"
				},
				{
					"inputs": [],
					"name": "LOCK_PERIOD",
					"outputs": [
						{
							"internalType": "uint256",
							"name": "",
							"type": "uint256"
						}
					],
					"stateMutability": "view",
					"type": "function"
				},
				{
					"inputs": [],
					"name": "MIN_INVESTMENT",
					"outputs": [
						{
							"internalType": "uint256",
							"name": "",
							"type": "uint256"
						}
					],
					"stateMutability": "view",
					"type": "function"
				},
				{
					"inputs": [],
					"name": "PROTOCOL_FEE_PERCENT",
					"outputs": [
						{
							"internalType": "uint256",
							"name": "",
							"type": "uint256"
						}
					],
					"stateMutability": "view",
					"type": "function"
				},
				{
					"inputs": [],
					"name": "USDC",
					"outputs": [
						{
							"internalType": "contract IERC20",
							"name": "",
							"type": "address"
						}
					],
					"stateMutability": "view",
					"type": "function"
				},
				{
					"inputs": [],
					"name": "WITHDRAWAL_FEE_FLAT",
					"outputs": [
						{
							"internalType": "uint256",
							"name": "",
							"type": "uint256"
						}
					],
					"stateMutability": "view",
					"type": "function"
				},
				{
					"inputs": [
						{
							"internalType": "address",
							"name": "_user",
							"type": "address"
						}
					],
					"name": "getAccountValue",
					"outputs": [
						{
							"internalType": "uint256",
							"name": "",
							"type": "uint256"
						}
					],
					"stateMutability": "view",
					"type": "function"
				},
				{
					"inputs": [
						{
							"internalType": "address",
							"name": "_user",
							"type": "address"
						}
					],
					"name": "getDownlines",
					"outputs": [
						{
							"internalType": "address[]",
							"name": "",
							"type": "address[]"
						}
					],
					"stateMutability": "view",
					"type": "function"
				},
				{
					"inputs": [
						{
							"internalType": "address",
							"name": "_user",
							"type": "address"
						}
					],
					"name": "getReferralTierPercent",
					"outputs": [
						{
							"internalType": "uint256",
							"name": "",
							"type": "uint256"
						}
					],
					"stateMutability": "view",
					"type": "function"
				},
				{
					"inputs": [
						{
							"internalType": "address",
							"name": "_user",
							"type": "address"
						}
					],
					"name": "getTimeUntilFree",
					"outputs": [
						{
							"internalType": "uint256",
							"name": "",
							"type": "uint256"
						}
					],
					"stateMutability": "view",
					"type": "function"
				},
				{
					"inputs": [],
					"name": "mUSDC",
					"outputs": [
						{
							"internalType": "contract IMToken",
							"name": "",
							"type": "address"
						}
					],
					"stateMutability": "view",
					"type": "function"
				},
				{
					"inputs": [],
					"name": "owner",
					"outputs": [
						{
							"internalType": "address",
							"name": "",
							"type": "address"
						}
					],
					"stateMutability": "view",
					"type": "function"
				},
				{
					"inputs": [
						{
							"internalType": "address",
							"name": "",
							"type": "address"
						}
					],
					"name": "referralEarnings",
					"outputs": [
						{
							"internalType": "uint256",
							"name": "",
							"type": "uint256"
						}
					],
					"stateMutability": "view",
					"type": "function"
				},
				{
					"inputs": [
						{
							"internalType": "address",
							"name": "",
							"type": "address"
						},
						{
							"internalType": "uint256",
							"name": "",
							"type": "uint256"
						}
					],
					"name": "referralList",
					"outputs": [
						{
							"internalType": "address",
							"name": "",
							"type": "address"
						}
					],
					"stateMutability": "view",
					"type": "function"
				},
				{
					"inputs": [],
					"name": "renounceOwnership",
					"outputs": [],
					"stateMutability": "nonpayable",
					"type": "function"
				},
				{
					"inputs": [
						{
							"internalType": "address",
							"name": "newOwner",
							"type": "address"
						}
					],
					"name": "transferOwnership",
					"outputs": [],
					"stateMutability": "nonpayable",
					"type": "function"
				},
				{
					"inputs": [
						{
							"internalType": "address",
							"name": "",
							"type": "address"
						}
					],
					"name": "users",
					"outputs": [
						{
							"internalType": "uint256",
							"name": "principal",
							"type": "uint256"
						},
						{
							"internalType": "uint256",
							"name": "shareBalance",
							"type": "uint256"
						},
						{
							"internalType": "address",
							"name": "referrer",
							"type": "address"
						},
						{
							"internalType": "uint256",
							"name": "totalEarned",
							"type": "uint256"
						},
						{
							"internalType": "uint256",
							"name": "lastDepositTime",
							"type": "uint256"
						}
					],
					"stateMutability": "view",
					"type": "function"
				},
				{
					"inputs": [
						{
							"internalType": "uint256",
							"name": "_amount",
							"type": "uint256"
						},
						{
							"internalType": "address",
							"name": "_referrer",
							"type": "address"
						}
					],
					"name": "zapIn",
					"outputs": [],
					"stateMutability": "nonpayable",
					"type": "function"
				},
				{
					"inputs": [],
					"name": "zapOut",
					"outputs": [],
					"stateMutability": "nonpayable",
					"type": "function"
				}
			],
			"devdoc": {
				"errors": {
					"OwnableInvalidOwner(address)": [
						{
							"details": "The owner is not a valid owner account. (eg. `address(0)`)"
						}
					],
					"OwnableUnauthorizedAccount(address)": [
						{
							"details": "The caller account is not authorized to perform an operation."
						}
					],
					"SafeERC20FailedOperation(address)": [
						{
							"details": "An operation with an ERC-20 token failed."
						}
					]
				},
				"kind": "dev",
				"methods": {
					"owner()": {
						"details": "Returns the address of the current owner."
					},
					"renounceOwnership()": {
						"details": "Leaves the contract without owner. It will not be possible to call `onlyOwner` functions. Can only be called by the current owner. NOTE: Renouncing ownership will leave the contract without an owner, thereby disabling any functionality that is only available to the owner."
					},
					"transferOwnership(address)": {
						"details": "Transfers ownership of the contract to a new account (`newOwner`). Can only be called by the current owner."
					},
					"zapIn(uint256,address)": {
						"details": "Deposits USDC into the vault and mints mUSDC shares.",
						"params": {
							"_amount": "Amount of USDC (must be >= 10 * 1e6).",
							"_referrer": "Address of the user who referred the depositor."
						}
					},
					"zapOut()": {
						"details": "Withdraws all shares and principal. Applies fees based on lock time."
					}
				},
				"version": 1
			},
			"evm": {
				"assembly": "    /* \"contracts/zapyield.sol\":577:6200  contract ZapYieldsVaultSepolia is Ownable, ReentrancyGuard {... */\n  mstore(0x40, 0x80)\n    /* \"contracts/zapyield.sol\":1880:1916  constructor() Ownable(msg.sender) {} */\n  callvalue\n  dup1\n  iszero\n  tag_1\n  jumpi\n  revert(0x00, 0x00)\ntag_1:\n  pop\n    /* \"contracts/zapyield.sol\":1902:1912  msg.sender */\n  caller\n    /* \"@openzeppelin/contracts/access/Ownable.sol\":1297:1298  0 */\n  0x00\n    /* \"@openzeppelin/contracts/access/Ownable.sol\":1273:1299  initialOwner == address(0) */\n  0xffffffffffffffffffffffffffffffffffffffff\n  and\n    /* \"@openzeppelin/contracts/access/Ownable.sol\":1273:1285  initialOwner */\n  dup2\n    /* \"@openzeppelin/contracts/access/Ownable.sol\":1273:1299  initialOwner == address(0) */\n  0xffffffffffffffffffffffffffffffffffffffff\n  and\n  sub\n    /* \"@openzeppelin/contracts/access/Ownable.sol\":1269:1364  if (initialOwner == address(0)) {... */\n  tag_6\n  jumpi\n    /* \"@openzeppelin/contracts/access/Ownable.sol\":1350:1351  0 */\n  0x00\n    /* \"@openzeppelin/contracts/access/Ownable.sol\":1322:1353  OwnableInvalidOwner(address(0)) */\n  mload(0x40)\n  0x1e4fbdf700000000000000000000000000000000000000000000000000000000\n  dup2\n  mstore\n  0x04\n  add\n  tag_7\n  swap2\n  swap1\n  tag_8\n  jump\t// in\ntag_7:\n  mload(0x40)\n  dup1\n  swap2\n  sub\n  swap1\n  revert\n    /* \"@openzeppelin/contracts/access/Ownable.sol\":1269:1364  if (initialOwner == address(0)) {... */\ntag_6:\n    /* \"@openzeppelin/contracts/access/Ownable.sol\":1373:1405  _transferOwnership(initialOwner) */\n  tag_9\n    /* \"@openzeppelin/contracts/access/Ownable.sol\":1392:1404  initialOwner */\n  dup2\n    /* \"@openzeppelin/contracts/access/Ownable.sol\":1373:1391  _transferOwnership */\n  shl(0x20, tag_10)\n    /* \"@openzeppelin/contracts/access/Ownable.sol\":1373:1405  _transferOwnership(initialOwner) */\n  0x20\n  shr\n  jump\t// in\ntag_9:\n    /* \"@openzeppelin/contracts/access/Ownable.sol\":1225:1412  constructor(address initialOwner) {... */\n  pop\n    /* \"@openzeppelin/contracts/security/ReentrancyGuard.sol\":1716:1717  1 */\n  0x01\n    /* \"@openzeppelin/contracts/security/ReentrancyGuard.sol\":1821:1828  _status */\n  dup1\n    /* \"@openzeppelin/contracts/security/ReentrancyGuard.sol\":1821:1843  _status = _NOT_ENTERED */\n  dup2\n  swap1\n  sstore\n  pop\n    /* \"contracts/zapyield.sol\":577:6200  contract ZapYieldsVaultSepolia is Ownable, ReentrancyGuard {... */\n  jump(tag_13)\n    /* \"@openzeppelin/contracts/access/Ownable.sol\":2912:3099  function _transferOwnership(address newOwner) internal virtual {... */\ntag_10:\n    /* \"@openzeppelin/contracts/access/Ownable.sol\":2985:3001  address oldOwner */\n  0x00\n    /* \"@openzeppelin/contracts/access/Ownable.sol\":3004:3010  _owner */\n  0x00\n  0x00\n  swap1\n  sload\n  swap1\n  0x0100\n  exp\n  swap1\n  div\n  0xffffffffffffffffffffffffffffffffffffffff\n  and\n    /* \"@openzeppelin/contracts/access/Ownable.sol\":2985:3010  address oldOwner = _owner */\n  swap1\n  pop\n    /* \"@openzeppelin/contracts/access/Ownable.sol\":3029:3037  newOwner */\n  dup2\n    /* \"@openzeppelin/contracts/access/Ownable.sol\":3020:3026  _owner */\n  0x00\n  0x00\n    /* \"@openzeppelin/contracts/access/Ownable.sol\":3020:3037  _owner = newOwner */\n  0x0100\n  exp\n  dup2\n  sload\n  dup2\n  0xffffffffffffffffffffffffffffffffffffffff\n  mul\n  not\n  and\n  swap1\n  dup4\n  0xffffffffffffffffffffffffffffffffffffffff\n  and\n  mul\n  or\n  swap1\n  sstore\n  pop\n    /* \"@openzeppelin/contracts/access/Ownable.sol\":3083:3091  newOwner */\n  dup2\n    /* \"@openzeppelin/contracts/access/Ownable.sol\":3052:3092  OwnershipTransferred(oldOwner, newOwner) */\n  0xffffffffffffffffffffffffffffffffffffffff\n  and\n    /* \"@openzeppelin/contracts/access/Ownable.sol\":3073:3081  oldOwner */\n  dup2\n    /* \"@openzeppelin/contracts/access/Ownable.sol\":3052:3092  OwnershipTransferred(oldOwner, newOwner) */\n  0xffffffffffffffffffffffffffffffffffffffff\n  and\n  0x8be0079c531659141344cd1fd0a4f28419497f9722a3daafe3b4186f6b6457e0\n  mload(0x40)\n  mload(0x40)\n  dup1\n  swap2\n  sub\n  swap1\n  log3\n    /* \"@openzeppelin/contracts/access/Ownable.sol\":2975:3099  {... */\n  pop\n    /* \"@openzeppelin/contracts/access/Ownable.sol\":2912:3099  function _transferOwnership(address newOwner) internal virtual {... */\n  pop\n  jump\t// out\n    /* \"#utility.yul\":7:133   */\ntag_15:\n    /* \"#utility.yul\":44:51   */\n  0x00\n    /* \"#utility.yul\":84:126   */\n  0xffffffffffffffffffffffffffffffffffffffff\n    /* \"#utility.yul\":77:82   */\n  dup3\n    /* \"#utility.yul\":73:127   */\n  and\n    /* \"#utility.yul\":62:127   */\n  swap1\n  pop\n    /* \"#utility.yul\":7:133   */\n  swap2\n  swap1\n  pop\n  jump\t// out\n    /* \"#utility.yul\":139:235   */\ntag_16:\n    /* \"#utility.yul\":176:183   */\n  0x00\n    /* \"#utility.yul\":205:229   */\n  tag_21\n    /* \"#utility.yul\":223:228   */\n  dup3\n    /* \"#utility.yul\":205:229   */\n  tag_15\n  jump\t// in\ntag_21:\n    /* \"#utility.yul\":194:229   */\n  swap1\n  pop\n    /* \"#utility.yul\":139:235   */\n  swap2\n  swap1\n  pop\n  jump\t// out\n    /* \"#utility.yul\":241:359   */\ntag_17:\n    /* \"#utility.yul\":328:352   */\n  tag_23\n    /* \"#utility.yul\":346:351   */\n  dup2\n    /* \"#utility.yul\":328:352   */\n  tag_16\n  jump\t// in\ntag_23:\n    /* \"#utility.yul\":323:326   */\n  dup3\n    /* \"#utility.yul\":316:353   */\n  mstore\n    /* \"#utility.yul\":241:359   */\n  pop\n  pop\n  jump\t// out\n    /* \"#utility.yul\":365:587   */\ntag_8:\n    /* \"#utility.yul\":458:462   */\n  0x00\n    /* \"#utility.yul\":496:498   */\n  0x20\n    /* \"#utility.yul\":485:494   */\n  dup3\n    /* \"#utility.yul\":481:499   */\n  add\n    /* \"#utility.yul\":473:499   */\n  swap1\n  pop\n    /* \"#utility.yul\":509:580   */\n  tag_25\n    /* \"#utility.yul\":577:578   */\n  0x00\n    /* \"#utility.yul\":566:575   */\n  dup4\n    /* \"#utility.yul\":562:579   */\n  add\n    /* \"#utility.yul\":553:559   */\n  dup5\n    /* \"#utility.yul\":509:580   */\n  tag_17\n  jump\t// in\ntag_25:\n    /* \"#utility.yul\":365:587   */\n  swap3\n  swap2\n  pop\n  pop\n  jump\t// out\n    /* \"contracts/zapyield.sol\":577:6200  contract ZapYieldsVaultSepolia is Ownable, ReentrancyGuard {... */\ntag_13:\n  dataSize(sub_0)\n  dup1\n  dataOffset(sub_0)\n  0x00\n  codecopy\n  0x00\n  return\nstop\n\nsub_0: assembly {\n        /* \"contracts/zapyield.sol\":577:6200  contract ZapYieldsVaultSepolia is Ownable, ReentrancyGuard {... */\n      mstore(0x40, 0x80)\n      callvalue\n      dup1\n      iszero\n      tag_1\n      jumpi\n      revert(0x00, 0x00)\n    tag_1:\n      pop\n      jumpi(tag_2, lt(calldatasize, 0x04))\n      shr(0xe0, calldataload(0x00))\n      dup1\n      0x5ae80951\n      gt\n      tag_22\n      jumpi\n      dup1\n      0xc07b528a\n      gt\n      tag_23\n      jumpi\n      dup1\n      0xc07b528a\n      eq\n      tag_17\n      jumpi\n      dup1\n      0xd12eb0a3\n      eq\n      tag_18\n      jumpi\n      dup1\n      0xdabeaecf\n      eq\n      tag_19\n      jumpi\n      dup1\n      0xf2fde38b\n      eq\n      tag_20\n      jumpi\n      dup1\n      0xf89ec5f5\n      eq\n      tag_21\n      jumpi\n      jump(tag_2)\n    tag_23:\n      dup1\n      0x5ae80951\n      eq\n      tag_12\n      jumpi\n      dup1\n      0x715018a6\n      eq\n      tag_13\n      jumpi\n      dup1\n      0x89a30271\n      eq\n      tag_14\n      jumpi\n      dup1\n      0x8da5cb5b\n      eq\n      tag_15\n      jumpi\n      dup1\n      0xa87430ba\n      eq\n      tag_16\n      jumpi\n      jump(tag_2)\n    tag_22:\n      dup1\n      0x23544748\n      gt\n      tag_24\n      jumpi\n      dup1\n      0x23544748\n      eq\n      tag_7\n      jumpi\n      dup1\n      0x2982de0d\n      eq\n      tag_8\n      jumpi\n      dup1\n      0x40b2b7bf\n      eq\n      tag_9\n      jumpi\n      dup1\n      0x44051053\n      eq\n      tag_10\n      jumpi\n      dup1\n      0x4ef8ff33\n      eq\n      tag_11\n      jumpi\n      jump(tag_2)\n    tag_24:\n      dup1\n      0xd61646\n      eq\n      tag_3\n      jumpi\n      dup1\n      0x0df23164\n      eq\n      tag_4\n      jumpi\n      dup1\n      0x1820cabb\n      eq\n      tag_5\n      jumpi\n      dup1\n      0x19abfe00\n      eq\n      tag_6\n      jumpi\n    tag_2:\n      revert(0x00, 0x00)\n        /* \"contracts/zapyield.sol\":5974:6198  function getTimeUntilFree(address _user) external view returns (uint256) {... */\n    tag_3:\n      tag_25\n      0x04\n      dup1\n      calldatasize\n      sub\n      dup2\n      add\n      swap1\n      tag_26\n      swap2\n      swap1\n      tag_27\n      jump\t// in\n    tag_26:\n      tag_28\n      jump\t// in\n    tag_25:\n      mload(0x40)\n      tag_29\n      swap2\n      swap1\n      tag_30\n      jump\t// in\n    tag_29:\n      mload(0x40)\n      dup1\n      swap2\n      sub\n      swap1\n      return\n        /* \"contracts/zapyield.sol\":5330:5719  function getReferralTierPercent(address _user) public view returns (uint256) {... */\n    tag_4:\n      tag_31\n      0x04\n      dup1\n      calldatasize\n      sub\n      dup2\n      add\n      swap1\n      tag_32\n      swap2\n      swap1\n      tag_27\n      jump\t// in\n    tag_32:\n      tag_33\n      jump\t// in\n    tag_31:\n      mload(0x40)\n      tag_34\n      swap2\n      swap1\n      tag_30\n      jump\t// in\n    tag_34:\n      mload(0x40)\n      dup1\n      swap2\n      sub\n      swap1\n      return\n        /* \"contracts/zapyield.sol\":1260:1306  uint256 public constant LOCK_PERIOD = 36 hours */\n    tag_5:\n      tag_35\n      tag_36\n      jump\t// in\n    tag_35:\n      mload(0x40)\n      tag_37\n      swap2\n      swap1\n      tag_30\n      jump\t// in\n    tag_37:\n      mload(0x40)\n      dup1\n      swap2\n      sub\n      swap1\n      return\n        /* \"contracts/zapyield.sol\":1025:1078  uint256 public constant WITHDRAWAL_FEE_FLAT = 2 * 1e6 */\n    tag_6:\n      tag_38\n      tag_39\n      jump\t// in\n    tag_38:\n      mload(0x40)\n      tag_40\n      swap2\n      swap1\n      tag_30\n      jump\t// in\n    tag_40:\n      mload(0x40)\n      dup1\n      swap2\n      sub\n      swap1\n      return\n        /* \"contracts/zapyield.sol\":3352:5197  function zapOut() external nonReentrant {... */\n    tag_7:\n      tag_41\n      tag_42\n      jump\t// in\n    tag_41:\n      stop\n        /* \"contracts/zapyield.sol\":1100:1149  uint256 public constant PROTOCOL_FEE_PERCENT = 10 */\n    tag_8:\n      tag_43\n      tag_44\n      jump\t// in\n    tag_43:\n      mload(0x40)\n      tag_45\n      swap2\n      swap1\n      tag_30\n      jump\t// in\n    tag_45:\n      mload(0x40)\n      dup1\n      swap2\n      sub\n      swap1\n      return\n        /* \"contracts/zapyield.sol\":1179:1225  uint256 public constant EARLY_WITHDRAW_FEE = 1 */\n    tag_9:\n      tag_46\n      tag_47\n      jump\t// in\n    tag_46:\n      mload(0x40)\n      tag_48\n      swap2\n      swap1\n      tag_30\n      jump\t// in\n    tag_48:\n      mload(0x40)\n      dup1\n      swap2\n      sub\n      swap1\n      return\n        /* \"contracts/zapyield.sol\":5203:5324  function getDownlines(address _user) external view returns (address[] memory) {... */\n    tag_10:\n      tag_49\n      0x04\n      dup1\n      calldatasize\n      sub\n      dup2\n      add\n      swap1\n      tag_50\n      swap2\n      swap1\n      tag_27\n      jump\t// in\n    tag_50:\n      tag_51\n      jump\t// in\n    tag_49:\n      mload(0x40)\n      tag_52\n      swap2\n      swap1\n      tag_53\n      jump\t// in\n    tag_52:\n      mload(0x40)\n      dup1\n      swap2\n      sub\n      swap1\n      return\n        /* \"contracts/zapyield.sol\":924:973  uint256 public constant MIN_INVESTMENT = 10 * 1e6 */\n    tag_11:\n      tag_54\n      tag_55\n      jump\t// in\n    tag_54:\n      mload(0x40)\n      tag_56\n      swap2\n      swap1\n      tag_30\n      jump\t// in\n    tag_56:\n      mload(0x40)\n      dup1\n      swap2\n      sub\n      swap1\n      return\n        /* \"contracts/zapyield.sol\":5725:5968  function getAccountValue(address _user) external view returns (uint256) {... */\n    tag_12:\n      tag_57\n      0x04\n      dup1\n      calldatasize\n      sub\n      dup2\n      add\n      swap1\n      tag_58\n      swap2\n      swap1\n      tag_27\n      jump\t// in\n    tag_58:\n      tag_59\n      jump\t// in\n    tag_57:\n      mload(0x40)\n      tag_60\n      swap2\n      swap1\n      tag_30\n      jump\t// in\n    tag_60:\n      mload(0x40)\n      dup1\n      swap2\n      sub\n      swap1\n      return\n        /* \"@openzeppelin/contracts/access/Ownable.sol\":2293:2394  function renounceOwnership() public virtual onlyOwner {... */\n    tag_13:\n      tag_61\n      tag_62\n      jump\t// in\n    tag_61:\n      stop\n        /* \"contracts/zapyield.sol\":721:801  IERC20 public constant USDC = IERC20(0x036CbD53842c5426634e7929541eC2318f3dCF7e) */\n    tag_14:\n      tag_63\n      tag_64\n      jump\t// in\n    tag_63:\n      mload(0x40)\n      tag_65\n      swap2\n      swap1\n      tag_66\n      jump\t// in\n    tag_65:\n      mload(0x40)\n      dup1\n      swap2\n      sub\n      swap1\n      return\n        /* \"@openzeppelin/contracts/access/Ownable.sol\":1638:1723  function owner() public view virtual returns (address) {... */\n    tag_15:\n      tag_67\n      tag_68\n      jump\t// in\n    tag_67:\n      mload(0x40)\n      tag_69\n      swap2\n      swap1\n      tag_70\n      jump\t// in\n    tag_69:\n      mload(0x40)\n      dup1\n      swap2\n      sub\n      swap1\n      return\n        /* \"contracts/zapyield.sol\":1521:1562  mapping(address => UserInfo) public users */\n    tag_16:\n      tag_71\n      0x04\n      dup1\n      calldatasize\n      sub\n      dup2\n      add\n      swap1\n      tag_72\n      swap2\n      swap1\n      tag_27\n      jump\t// in\n    tag_72:\n      tag_73\n      jump\t// in\n    tag_71:\n      mload(0x40)\n      tag_74\n      swap6\n      swap5\n      swap4\n      swap3\n      swap2\n      swap1\n      tag_75\n      jump\t// in\n    tag_74:\n      mload(0x40)\n      dup1\n      swap2\n      sub\n      swap1\n      return\n        /* \"contracts/zapyield.sol\":1568:1619  mapping(address => uint256) public referralEarnings */\n    tag_17:\n      tag_76\n      0x04\n      dup1\n      calldatasize\n      sub\n      dup2\n      add\n      swap1\n      tag_77\n      swap2\n      swap1\n      tag_27\n      jump\t// in\n    tag_77:\n      tag_78\n      jump\t// in\n    tag_76:\n      mload(0x40)\n      tag_79\n      swap2\n      swap1\n      tag_30\n      jump\t// in\n    tag_79:\n      mload(0x40)\n      dup1\n      swap2\n      sub\n      swap1\n      return\n        /* \"contracts/zapyield.sol\":1625:1674  mapping(address => address[]) public referralList */\n    tag_18:\n      tag_80\n      0x04\n      dup1\n      calldatasize\n      sub\n      dup2\n      add\n      swap1\n      tag_81\n      swap2\n      swap1\n      tag_82\n      jump\t// in\n    tag_81:\n      tag_83\n      jump\t// in\n    tag_80:\n      mload(0x40)\n      tag_84\n      swap2\n      swap1\n      tag_70\n      jump\t// in\n    tag_84:\n      mload(0x40)\n      dup1\n      swap2\n      sub\n      swap1\n      return\n        /* \"contracts/zapyield.sol\":2135:3249  function zapIn(uint256 _amount, address _referrer) external nonReentrant {... */\n    tag_19:\n      tag_85\n      0x04\n      dup1\n      calldatasize\n      sub\n      dup2\n      add\n      swap1\n      tag_86\n      swap2\n      swap1\n      tag_87\n      jump\t// in\n    tag_86:\n      tag_88\n      jump\t// in\n    tag_85:\n      stop\n        /* \"@openzeppelin/contracts/access/Ownable.sol\":2543:2758  function transferOwnership(address newOwner) public virtual onlyOwner {... */\n    tag_20:\n      tag_89\n      0x04\n      dup1\n      calldatasize\n      sub\n      dup2\n      add\n      swap1\n      tag_90\n      swap2\n      swap1\n      tag_27\n      jump\t// in\n    tag_90:\n      tag_91\n      jump\t// in\n    tag_89:\n      stop\n        /* \"contracts/zapyield.sol\":808:891  IMToken public constant mUSDC = IMToken(0x403d64b3f6B4A2b095754877395ab3255476d081) */\n    tag_21:\n      tag_92\n      tag_93\n      jump\t// in\n    tag_92:\n      mload(0x40)\n      tag_94\n      swap2\n      swap1\n      tag_95\n      jump\t// in\n    tag_94:\n      mload(0x40)\n      dup1\n      swap2\n      sub\n      swap1\n      return\n        /* \"contracts/zapyield.sol\":5974:6198  function getTimeUntilFree(address _user) external view returns (uint256) {... */\n    tag_28:\n        /* \"contracts/zapyield.sol\":6038:6045  uint256 */\n      0x00\n        /* \"contracts/zapyield.sol\":6057:6071  uint256 unlock */\n      0x00\n        /* \"contracts/zapyield.sol\":1298:1306  36 hours */\n      0x01fa40\n        /* \"contracts/zapyield.sol\":6074:6079  users */\n      0x02\n        /* \"contracts/zapyield.sol\":6074:6086  users[_user] */\n      0x00\n        /* \"contracts/zapyield.sol\":6080:6085  _user */\n      dup6\n        /* \"contracts/zapyield.sol\":6074:6086  users[_user] */\n      0xffffffffffffffffffffffffffffffffffffffff\n      and\n      0xffffffffffffffffffffffffffffffffffffffff\n      and\n      dup2\n      mstore\n      0x20\n      add\n      swap1\n      dup2\n      mstore\n      0x20\n      add\n      0x00\n      keccak256\n        /* \"contracts/zapyield.sol\":6074:6102  users[_user].lastDepositTime */\n      0x04\n      add\n      sload\n        /* \"contracts/zapyield.sol\":6074:6116  users[_user].lastDepositTime + LOCK_PERIOD */\n      tag_97\n      swap2\n      swap1\n      tag_98\n      jump\t// in\n    tag_97:\n        /* \"contracts/zapyield.sol\":6057:6116  uint256 unlock = users[_user].lastDepositTime + LOCK_PERIOD */\n      swap1\n      pop\n        /* \"contracts/zapyield.sol\":6153:6159  unlock */\n      dup1\n        /* \"contracts/zapyield.sol\":6134:6149  block.timestamp */\n      timestamp\n        /* \"contracts/zapyield.sol\":6134:6159  block.timestamp >= unlock */\n      lt\n      iszero\n        /* \"contracts/zapyield.sol\":6133:6191  (block.timestamp >= unlock) ? 0 : unlock - block.timestamp */\n      tag_99\n      jumpi\n        /* \"contracts/zapyield.sol\":6176:6191  block.timestamp */\n      timestamp\n        /* \"contracts/zapyield.sol\":6167:6173  unlock */\n      dup2\n        /* \"contracts/zapyield.sol\":6167:6191  unlock - block.timestamp */\n      tag_100\n      swap2\n      swap1\n      tag_101\n      jump\t// in\n    tag_100:\n        /* \"contracts/zapyield.sol\":6133:6191  (block.timestamp >= unlock) ? 0 : unlock - block.timestamp */\n      jump(tag_102)\n    tag_99:\n        /* \"contracts/zapyield.sol\":6163:6164  0 */\n      0x00\n        /* \"contracts/zapyield.sol\":6133:6191  (block.timestamp >= unlock) ? 0 : unlock - block.timestamp */\n    tag_102:\n        /* \"contracts/zapyield.sol\":6126:6191  return (block.timestamp >= unlock) ? 0 : unlock - block.timestamp */\n      swap2\n      pop\n      pop\n        /* \"contracts/zapyield.sol\":5974:6198  function getTimeUntilFree(address _user) external view returns (uint256) {... */\n      swap2\n      swap1\n      pop\n      jump\t// out\n        /* \"contracts/zapyield.sol\":5330:5719  function getReferralTierPercent(address _user) public view returns (uint256) {... */\n    tag_33:\n        /* \"contracts/zapyield.sol\":5398:5405  uint256 */\n      0x00\n        /* \"contracts/zapyield.sol\":5417:5428  uint256 bal */\n      0x00\n        /* \"contracts/zapyield.sol\":5431:5436  users */\n      0x02\n        /* \"contracts/zapyield.sol\":5431:5443  users[_user] */\n      0x00\n        /* \"contracts/zapyield.sol\":5437:5442  _user */\n      dup5\n        /* \"contracts/zapyield.sol\":5431:5443  users[_user] */\n      0xffffffffffffffffffffffffffffffffffffffff\n      and\n      0xffffffffffffffffffffffffffffffffffffffff\n      and\n      dup2\n      mstore\n      0x20\n      add\n      swap1\n      dup2\n      mstore\n      0x20\n      add\n      0x00\n      keccak256\n        /* \"contracts/zapyield.sol\":5431:5453  users[_user].principal */\n      0x00\n      add\n      sload\n        /* \"contracts/zapyield.sol\":5417:5453  uint256 bal = users[_user].principal */\n      swap1\n      pop\n        /* \"contracts/zapyield.sol\":5474:5484  5000 * 1e6 */\n      0x012a05f200\n        /* \"contracts/zapyield.sol\":5467:5470  bal */\n      dup2\n        /* \"contracts/zapyield.sol\":5467:5484  bal >= 5000 * 1e6 */\n      lt\n        /* \"contracts/zapyield.sol\":5463:5495  if (bal >= 5000 * 1e6) return 80 */\n      tag_104\n      jumpi\n        /* \"contracts/zapyield.sol\":5493:5495  80 */\n      0x50\n        /* \"contracts/zapyield.sol\":5486:5495  return 80 */\n      swap2\n      pop\n      pop\n      jump(tag_103)\n        /* \"contracts/zapyield.sol\":5463:5495  if (bal >= 5000 * 1e6) return 80 */\n    tag_104:\n        /* \"contracts/zapyield.sol\":5547:5557  1000 * 1e6 */\n      0x3b9aca00\n        /* \"contracts/zapyield.sol\":5540:5543  bal */\n      dup2\n        /* \"contracts/zapyield.sol\":5540:5557  bal >= 1000 * 1e6 */\n      lt\n        /* \"contracts/zapyield.sol\":5536:5568  if (bal >= 1000 * 1e6) return 50 */\n      tag_105\n      jumpi\n        /* \"contracts/zapyield.sol\":5566:5568  50 */\n      0x32\n        /* \"contracts/zapyield.sol\":5559:5568  return 50 */\n      swap2\n      pop\n      pop\n      jump(tag_103)\n        /* \"contracts/zapyield.sol\":5536:5568  if (bal >= 1000 * 1e6) return 50 */\n    tag_105:\n        /* \"contracts/zapyield.sol\":5590:5599  200 * 1e6 */\n      0x0bebc200\n        /* \"contracts/zapyield.sol\":5583:5586  bal */\n      dup2\n        /* \"contracts/zapyield.sol\":5583:5599  bal >= 200 * 1e6 */\n      lt\n        /* \"contracts/zapyield.sol\":5579:5610  if (bal >= 200 * 1e6) return 30 */\n      tag_106\n      jumpi\n        /* \"contracts/zapyield.sol\":5608:5610  30 */\n      0x1e\n        /* \"contracts/zapyield.sol\":5601:5610  return 30 */\n      swap2\n      pop\n      pop\n      jump(tag_103)\n        /* \"contracts/zapyield.sol\":5579:5610  if (bal >= 200 * 1e6) return 30 */\n    tag_106:\n        /* \"contracts/zapyield.sol\":5632:5641  100 * 1e6 */\n      0x05f5e100\n        /* \"contracts/zapyield.sol\":5625:5628  bal */\n      dup2\n        /* \"contracts/zapyield.sol\":5625:5641  bal >= 100 * 1e6 */\n      lt\n        /* \"contracts/zapyield.sol\":5621:5652  if (bal >= 100 * 1e6) return 20 */\n      tag_107\n      jumpi\n        /* \"contracts/zapyield.sol\":5650:5652  20 */\n      0x14\n        /* \"contracts/zapyield.sol\":5643:5652  return 20 */\n      swap2\n      pop\n      pop\n      jump(tag_103)\n        /* \"contracts/zapyield.sol\":5621:5652  if (bal >= 100 * 1e6) return 20 */\n    tag_107:\n        /* \"contracts/zapyield.sol\":5674:5682  50 * 1e6 */\n      0x02faf080\n        /* \"contracts/zapyield.sol\":5667:5670  bal */\n      dup2\n        /* \"contracts/zapyield.sol\":5667:5682  bal >= 50 * 1e6 */\n      lt\n        /* \"contracts/zapyield.sol\":5663:5693  if (bal >= 50 * 1e6) return 10 */\n      tag_108\n      jumpi\n        /* \"contracts/zapyield.sol\":5691:5693  10 */\n      0x0a\n        /* \"contracts/zapyield.sol\":5684:5693  return 10 */\n      swap2\n      pop\n      pop\n      jump(tag_103)\n        /* \"contracts/zapyield.sol\":5663:5693  if (bal >= 50 * 1e6) return 10 */\n    tag_108:\n        /* \"contracts/zapyield.sol\":5711:5712  0 */\n      0x00\n        /* \"contracts/zapyield.sol\":5704:5712  return 0 */\n      swap2\n      pop\n      pop\n        /* \"contracts/zapyield.sol\":5330:5719  function getReferralTierPercent(address _user) public view returns (uint256) {... */\n    tag_103:\n      swap2\n      swap1\n      pop\n      jump\t// out\n        /* \"contracts/zapyield.sol\":1260:1306  uint256 public constant LOCK_PERIOD = 36 hours */\n    tag_36:\n        /* \"contracts/zapyield.sol\":1298:1306  36 hours */\n      0x01fa40\n        /* \"contracts/zapyield.sol\":1260:1306  uint256 public constant LOCK_PERIOD = 36 hours */\n      dup2\n      jump\t// out\n        /* \"contracts/zapyield.sol\":1025:1078  uint256 public constant WITHDRAWAL_FEE_FLAT = 2 * 1e6 */\n    tag_39:\n        /* \"contracts/zapyield.sol\":1071:1078  2 * 1e6 */\n      0x1e8480\n        /* \"contracts/zapyield.sol\":1025:1078  uint256 public constant WITHDRAWAL_FEE_FLAT = 2 * 1e6 */\n      dup2\n      jump\t// out\n        /* \"contracts/zapyield.sol\":3352:5197  function zapOut() external nonReentrant {... */\n    tag_42:\n        /* \"@openzeppelin/contracts/security/ReentrancyGuard.sol\":2261:2282  _nonReentrantBefore() */\n      tag_110\n        /* \"@openzeppelin/contracts/security/ReentrancyGuard.sol\":2261:2280  _nonReentrantBefore */\n      tag_111\n        /* \"@openzeppelin/contracts/security/ReentrancyGuard.sol\":2261:2282  _nonReentrantBefore() */\n      jump\t// in\n    tag_110:\n        /* \"contracts/zapyield.sol\":3402:3423  UserInfo storage user */\n      0x00\n        /* \"contracts/zapyield.sol\":3426:3431  users */\n      0x02\n        /* \"contracts/zapyield.sol\":3426:3443  users[msg.sender] */\n      0x00\n        /* \"contracts/zapyield.sol\":3432:3442  msg.sender */\n      caller\n        /* \"contracts/zapyield.sol\":3426:3443  users[msg.sender] */\n      0xffffffffffffffffffffffffffffffffffffffff\n      and\n      0xffffffffffffffffffffffffffffffffffffffff\n      and\n      dup2\n      mstore\n      0x20\n      add\n      swap1\n      dup2\n      mstore\n      0x20\n      add\n      0x00\n      keccak256\n        /* \"contracts/zapyield.sol\":3402:3443  UserInfo storage user = users[msg.sender] */\n      swap1\n      pop\n        /* \"contracts/zapyield.sol\":3481:3482  0 */\n      0x00\n        /* \"contracts/zapyield.sol\":3461:3465  user */\n      dup2\n        /* \"contracts/zapyield.sol\":3461:3478  user.shareBalance */\n      0x01\n      add\n      sload\n        /* \"contracts/zapyield.sol\":3461:3482  user.shareBalance > 0 */\n      gt\n        /* \"contracts/zapyield.sol\":3453:3500  require(user.shareBalance > 0, \"Empty balance\") */\n      tag_113\n      jumpi\n      mload(0x40)\n      0x08c379a000000000000000000000000000000000000000000000000000000000\n      dup2\n      mstore\n      0x04\n      add\n      tag_114\n      swap1\n      tag_115\n      jump\t// in\n    tag_114:\n      mload(0x40)\n      dup1\n      swap2\n      sub\n      swap1\n      revert\n    tag_113:\n        /* \"contracts/zapyield.sol\":3511:3526  uint256 preUSDC */\n      0x00\n        /* \"contracts/zapyield.sol\":758:800  0x036CbD53842c5426634e7929541eC2318f3dCF7e */\n      0x036cbd53842c5426634e7929541ec2318f3dcf7e\n        /* \"contracts/zapyield.sol\":3529:3543  USDC.balanceOf */\n      0xffffffffffffffffffffffffffffffffffffffff\n      and\n      0x70a08231\n        /* \"contracts/zapyield.sol\":3552:3556  this */\n      address\n        /* \"contracts/zapyield.sol\":3529:3558  USDC.balanceOf(address(this)) */\n      mload(0x40)\n      dup3\n      0xffffffff\n      and\n      0xe0\n      shl\n      dup2\n      mstore\n      0x04\n      add\n      tag_116\n      swap2\n      swap1\n      tag_70\n      jump\t// in\n    tag_116:\n      0x20\n      mload(0x40)\n      dup1\n      dup4\n      sub\n      dup2\n      dup7\n      gas\n      staticcall\n      iszero\n      dup1\n      iszero\n      tag_118\n      jumpi\n      returndatacopy(0x00, 0x00, returndatasize)\n      revert(0x00, returndatasize)\n    tag_118:\n      pop\n      pop\n      pop\n      pop\n      mload(0x40)\n      returndatasize\n      not(0x1f)\n      0x1f\n      dup3\n      add\n      and\n      dup3\n      add\n      dup1\n      0x40\n      mstore\n      pop\n      dup2\n      add\n      swap1\n      tag_119\n      swap2\n      swap1\n      tag_120\n      jump\t// in\n    tag_119:\n        /* \"contracts/zapyield.sol\":3511:3558  uint256 preUSDC = USDC.balanceOf(address(this)) */\n      swap1\n      pop\n        /* \"contracts/zapyield.sol\":3611:3612  0 */\n      0x00\n        /* \"contracts/zapyield.sol\":848:890  0x403d64b3f6B4A2b095754877395ab3255476d081 */\n      0x403d64b3f6b4a2b095754877395ab3255476d081\n        /* \"contracts/zapyield.sol\":3576:3588  mUSDC.redeem */\n      0xffffffffffffffffffffffffffffffffffffffff\n      and\n      0xdb006a75\n        /* \"contracts/zapyield.sol\":3589:3593  user */\n      dup5\n        /* \"contracts/zapyield.sol\":3589:3606  user.shareBalance */\n      0x01\n      add\n      sload\n        /* \"contracts/zapyield.sol\":3576:3607  mUSDC.redeem(user.shareBalance) */\n      mload(0x40)\n      dup3\n      0xffffffff\n      and\n      0xe0\n      shl\n      dup2\n      mstore\n      0x04\n      add\n      tag_121\n      swap2\n      swap1\n      tag_30\n      jump\t// in\n    tag_121:\n      0x20\n      mload(0x40)\n      dup1\n      dup4\n      sub\n      dup2\n      0x00\n      dup8\n      gas\n      call\n      iszero\n      dup1\n      iszero\n      tag_123\n      jumpi\n      returndatacopy(0x00, 0x00, returndatasize)\n      revert(0x00, returndatasize)\n    tag_123:\n      pop\n      pop\n      pop\n      pop\n      mload(0x40)\n      returndatasize\n      not(0x1f)\n      0x1f\n      dup3\n      add\n      and\n      dup3\n      add\n      dup1\n      0x40\n      mstore\n      pop\n      dup2\n      add\n      swap1\n      tag_124\n      swap2\n      swap1\n      tag_120\n      jump\t// in\n    tag_124:\n        /* \"contracts/zapyield.sol\":3576:3612  mUSDC.redeem(user.shareBalance) == 0 */\n      eq\n        /* \"contracts/zapyield.sol\":3568:3637  require(mUSDC.redeem(user.shareBalance) == 0, \"Morpho Redeem failed\") */\n      tag_125\n      jumpi\n      mload(0x40)\n      0x08c379a000000000000000000000000000000000000000000000000000000000\n      dup2\n      mstore\n      0x04\n      add\n      tag_126\n      swap1\n      tag_127\n      jump\t// in\n    tag_126:\n      mload(0x40)\n      dup1\n      swap2\n      sub\n      swap1\n      revert\n    tag_125:\n        /* \"contracts/zapyield.sol\":3647:3666  uint256 grossAmount */\n      0x00\n        /* \"contracts/zapyield.sol\":3701:3708  preUSDC */\n      dup2\n        /* \"contracts/zapyield.sol\":758:800  0x036CbD53842c5426634e7929541eC2318f3dCF7e */\n      0x036cbd53842c5426634e7929541ec2318f3dcf7e\n        /* \"contracts/zapyield.sol\":3669:3683  USDC.balanceOf */\n      0xffffffffffffffffffffffffffffffffffffffff\n      and\n      0x70a08231\n        /* \"contracts/zapyield.sol\":3692:3696  this */\n      address\n        /* \"contracts/zapyield.sol\":3669:3698  USDC.balanceOf(address(this)) */\n      mload(0x40)\n      dup3\n      0xffffffff\n      and\n      0xe0\n      shl\n      dup2\n      mstore\n      0x04\n      add\n      tag_128\n      swap2\n      swap1\n      tag_70\n      jump\t// in\n    tag_128:\n      0x20\n      mload(0x40)\n      dup1\n      dup4\n      sub\n      dup2\n      dup7\n      gas\n      staticcall\n      iszero\n      dup1\n      iszero\n      tag_130\n      jumpi\n      returndatacopy(0x00, 0x00, returndatasize)\n      revert(0x00, returndatasize)\n    tag_130:\n      pop\n      pop\n      pop\n      pop\n      mload(0x40)\n      returndatasize\n      not(0x1f)\n      0x1f\n      dup3\n      add\n      and\n      dup3\n      add\n      dup1\n      0x40\n      mstore\n      pop\n      dup2\n      add\n      swap1\n      tag_131\n      swap2\n      swap1\n      tag_120\n      jump\t// in\n    tag_131:\n        /* \"contracts/zapyield.sol\":3669:3708  USDC.balanceOf(address(this)) - preUSDC */\n      tag_132\n      swap2\n      swap1\n      tag_101\n      jump\t// in\n    tag_132:\n        /* \"contracts/zapyield.sol\":3647:3708  uint256 grossAmount = USDC.balanceOf(address(this)) - preUSDC */\n      swap1\n      pop\n        /* \"contracts/zapyield.sol\":3719:3737  uint256 userPayout */\n      0x00\n        /* \"contracts/zapyield.sol\":3747:3763  uint256 totalFee */\n      0x00\n        /* \"contracts/zapyield.sol\":1298:1306  36 hours */\n      0x01fa40\n        /* \"contracts/zapyield.sol\":3817:3821  user */\n      dup6\n        /* \"contracts/zapyield.sol\":3817:3837  user.lastDepositTime */\n      0x04\n      add\n      sload\n        /* \"contracts/zapyield.sol\":3817:3851  user.lastDepositTime + LOCK_PERIOD */\n      tag_133\n      swap2\n      swap1\n      tag_98\n      jump\t// in\n    tag_133:\n        /* \"contracts/zapyield.sol\":3799:3814  block.timestamp */\n      timestamp\n        /* \"contracts/zapyield.sol\":3799:3851  block.timestamp < user.lastDepositTime + LOCK_PERIOD */\n      lt\n        /* \"contracts/zapyield.sol\":3795:4986  if (block.timestamp < user.lastDepositTime + LOCK_PERIOD) {... */\n      iszero\n      tag_134\n      jumpi\n        /* \"contracts/zapyield.sol\":3964:3967  100 */\n      0x64\n        /* \"contracts/zapyield.sol\":1224:1225  1 */\n      0x01\n        /* \"contracts/zapyield.sol\":3928:3939  grossAmount */\n      dup5\n        /* \"contracts/zapyield.sol\":3928:3960  grossAmount * EARLY_WITHDRAW_FEE */\n      tag_135\n      swap2\n      swap1\n      tag_136\n      jump\t// in\n    tag_135:\n        /* \"contracts/zapyield.sol\":3927:3967  (grossAmount * EARLY_WITHDRAW_FEE) / 100 */\n      tag_137\n      swap2\n      swap1\n      tag_138\n      jump\t// in\n    tag_137:\n        /* \"contracts/zapyield.sol\":3916:3967  totalFee = (grossAmount * EARLY_WITHDRAW_FEE) / 100 */\n      swap1\n      pop\n        /* \"contracts/zapyield.sol\":4008:4016  totalFee */\n      dup1\n        /* \"contracts/zapyield.sol\":3994:4005  grossAmount */\n      dup4\n        /* \"contracts/zapyield.sol\":3994:4016  grossAmount - totalFee */\n      tag_139\n      swap2\n      swap1\n      tag_101\n      jump\t// in\n    tag_139:\n        /* \"contracts/zapyield.sol\":3981:4016  userPayout = grossAmount - totalFee */\n      swap2\n      pop\n        /* \"contracts/zapyield.sol\":4030:4066  USDC.safeTransfer(owner(), totalFee) */\n      tag_140\n        /* \"contracts/zapyield.sol\":4048:4055  owner() */\n      tag_141\n        /* \"contracts/zapyield.sol\":4048:4053  owner */\n      tag_68\n        /* \"contracts/zapyield.sol\":4048:4055  owner() */\n      jump\t// in\n    tag_141:\n        /* \"contracts/zapyield.sol\":4057:4065  totalFee */\n      dup3\n        /* \"contracts/zapyield.sol\":758:800  0x036CbD53842c5426634e7929541eC2318f3dCF7e */\n      0x036cbd53842c5426634e7929541ec2318f3dcf7e\n        /* \"contracts/zapyield.sol\":4030:4047  USDC.safeTransfer */\n      0xffffffffffffffffffffffffffffffffffffffff\n      and\n      tag_142\n      swap1\n        /* \"contracts/zapyield.sol\":4030:4066  USDC.safeTransfer(owner(), totalFee) */\n      swap3\n      swap2\n      swap1\n      0xffffffff\n      and\n      jump\t// in\n    tag_140:\n        /* \"contracts/zapyield.sol\":3795:4986  if (block.timestamp < user.lastDepositTime + LOCK_PERIOD) {... */\n      jump(tag_143)\n    tag_134:\n        /* \"contracts/zapyield.sol\":4163:4178  uint256 flatFee */\n      0x00\n        /* \"contracts/zapyield.sol\":1071:1078  2 * 1e6 */\n      0x1e8480\n        /* \"contracts/zapyield.sol\":4182:4193  grossAmount */\n      dup5\n        /* \"contracts/zapyield.sol\":4182:4216  grossAmount >= WITHDRAWAL_FEE_FLAT */\n      lt\n      iszero\n        /* \"contracts/zapyield.sol\":4181:4253  (grossAmount >= WITHDRAWAL_FEE_FLAT) ? WITHDRAWAL_FEE_FLAT : grossAmount */\n      tag_144\n      jumpi\n        /* \"contracts/zapyield.sol\":4242:4253  grossAmount */\n      dup4\n        /* \"contracts/zapyield.sol\":4181:4253  (grossAmount >= WITHDRAWAL_FEE_FLAT) ? WITHDRAWAL_FEE_FLAT : grossAmount */\n      jump(tag_145)\n    tag_144:\n        /* \"contracts/zapyield.sol\":1071:1078  2 * 1e6 */\n      0x1e8480\n        /* \"contracts/zapyield.sol\":4181:4253  (grossAmount >= WITHDRAWAL_FEE_FLAT) ? WITHDRAWAL_FEE_FLAT : grossAmount */\n    tag_145:\n        /* \"contracts/zapyield.sol\":4163:4253  uint256 flatFee = (grossAmount >= WITHDRAWAL_FEE_FLAT) ? WITHDRAWAL_FEE_FLAT : grossAmount */\n      swap1\n      pop\n        /* \"contracts/zapyield.sol\":4267:4283  uint256 interest */\n      0x00\n        /* \"contracts/zapyield.sol\":4311:4315  user */\n      dup7\n        /* \"contracts/zapyield.sol\":4311:4325  user.principal */\n      0x00\n      add\n      sload\n        /* \"contracts/zapyield.sol\":4301:4308  flatFee */\n      dup3\n        /* \"contracts/zapyield.sol\":4287:4298  grossAmount */\n      dup7\n        /* \"contracts/zapyield.sol\":4287:4308  grossAmount - flatFee */\n      tag_146\n      swap2\n      swap1\n      tag_101\n      jump\t// in\n    tag_146:\n        /* \"contracts/zapyield.sol\":4287:4325  grossAmount - flatFee > user.principal */\n      gt\n        /* \"contracts/zapyield.sol\":4286:4373  (grossAmount - flatFee > user.principal) ? (grossAmount - flatFee) - user.principal : 0 */\n      tag_147\n      jumpi\n        /* \"contracts/zapyield.sol\":4372:4373  0 */\n      0x00\n        /* \"contracts/zapyield.sol\":4286:4373  (grossAmount - flatFee > user.principal) ? (grossAmount - flatFee) - user.principal : 0 */\n      jump(tag_148)\n    tag_147:\n        /* \"contracts/zapyield.sol\":4355:4359  user */\n      dup7\n        /* \"contracts/zapyield.sol\":4355:4369  user.principal */\n      0x00\n      add\n      sload\n        /* \"contracts/zapyield.sol\":4344:4351  flatFee */\n      dup3\n        /* \"contracts/zapyield.sol\":4330:4341  grossAmount */\n      dup7\n        /* \"contracts/zapyield.sol\":4330:4351  grossAmount - flatFee */\n      tag_149\n      swap2\n      swap1\n      tag_101\n      jump\t// in\n    tag_149:\n        /* \"contracts/zapyield.sol\":4329:4369  (grossAmount - flatFee) - user.principal */\n      tag_150\n      swap2\n      swap1\n      tag_101\n      jump\t// in\n    tag_150:\n        /* \"contracts/zapyield.sol\":4286:4373  (grossAmount - flatFee > user.principal) ? (grossAmount - flatFee) - user.principal : 0 */\n    tag_148:\n        /* \"contracts/zapyield.sol\":4267:4373  uint256 interest = (grossAmount - flatFee > user.principal) ? (grossAmount - flatFee) - user.principal : 0 */\n      swap1\n      pop\n        /* \"contracts/zapyield.sol\":4387:4401  uint256 devFee */\n      0x00\n        /* \"contracts/zapyield.sol\":4440:4443  100 */\n      0x64\n        /* \"contracts/zapyield.sol\":1147:1149  10 */\n      0x0a\n        /* \"contracts/zapyield.sol\":4405:4413  interest */\n      dup4\n        /* \"contracts/zapyield.sol\":4405:4436  interest * PROTOCOL_FEE_PERCENT */\n      tag_151\n      swap2\n      swap1\n      tag_136\n      jump\t// in\n    tag_151:\n        /* \"contracts/zapyield.sol\":4404:4443  (interest * PROTOCOL_FEE_PERCENT) / 100 */\n      tag_152\n      swap2\n      swap1\n      tag_138\n      jump\t// in\n    tag_152:\n        /* \"contracts/zapyield.sol\":4387:4443  uint256 devFee = (interest * PROTOCOL_FEE_PERCENT) / 100 */\n      swap1\n      pop\n        /* \"contracts/zapyield.sol\":4524:4525  0 */\n      0x00\n        /* \"contracts/zapyield.sol\":4513:4521  interest */\n      dup3\n        /* \"contracts/zapyield.sol\":4513:4525  interest > 0 */\n      gt\n        /* \"contracts/zapyield.sol\":4513:4556  interest > 0 && user.referrer != address(0) */\n      dup1\n      iszero\n      tag_153\n      jumpi\n      pop\n        /* \"contracts/zapyield.sol\":4554:4555  0 */\n      0x00\n        /* \"contracts/zapyield.sol\":4529:4556  user.referrer != address(0) */\n      0xffffffffffffffffffffffffffffffffffffffff\n      and\n        /* \"contracts/zapyield.sol\":4529:4533  user */\n      dup9\n        /* \"contracts/zapyield.sol\":4529:4542  user.referrer */\n      0x02\n      add\n      0x00\n      swap1\n      sload\n      swap1\n      0x0100\n      exp\n      swap1\n      div\n      0xffffffffffffffffffffffffffffffffffffffff\n      and\n        /* \"contracts/zapyield.sol\":4529:4556  user.referrer != address(0) */\n      0xffffffffffffffffffffffffffffffffffffffff\n      and\n      eq\n      iszero\n        /* \"contracts/zapyield.sol\":4513:4556  interest > 0 && user.referrer != address(0) */\n    tag_153:\n        /* \"contracts/zapyield.sol\":4509:4885  if (interest > 0 && user.referrer != address(0)) {... */\n      iszero\n      tag_154\n      jumpi\n        /* \"contracts/zapyield.sol\":4576:4592  uint256 refShare */\n      0x00\n        /* \"contracts/zapyield.sol\":4648:4651  100 */\n      0x64\n        /* \"contracts/zapyield.sol\":4607:4644  getReferralTierPercent(user.referrer) */\n      tag_155\n        /* \"contracts/zapyield.sol\":4630:4634  user */\n      dup11\n        /* \"contracts/zapyield.sol\":4630:4643  user.referrer */\n      0x02\n      add\n      0x00\n      swap1\n      sload\n      swap1\n      0x0100\n      exp\n      swap1\n      div\n      0xffffffffffffffffffffffffffffffffffffffff\n      and\n        /* \"contracts/zapyield.sol\":4607:4629  getReferralTierPercent */\n      tag_33\n        /* \"contracts/zapyield.sol\":4607:4644  getReferralTierPercent(user.referrer) */\n      jump\t// in\n    tag_155:\n        /* \"contracts/zapyield.sol\":4596:4604  interest */\n      dup5\n        /* \"contracts/zapyield.sol\":4596:4644  interest * getReferralTierPercent(user.referrer) */\n      tag_156\n      swap2\n      swap1\n      tag_136\n      jump\t// in\n    tag_156:\n        /* \"contracts/zapyield.sol\":4595:4651  (interest * getReferralTierPercent(user.referrer)) / 100 */\n      tag_157\n      swap2\n      swap1\n      tag_138\n      jump\t// in\n    tag_157:\n        /* \"contracts/zapyield.sol\":4576:4651  uint256 refShare = (interest * getReferralTierPercent(user.referrer)) / 100 */\n      swap1\n      pop\n        /* \"contracts/zapyield.sol\":4704:4712  refShare */\n      dup1\n        /* \"contracts/zapyield.sol\":4669:4685  referralEarnings */\n      0x03\n        /* \"contracts/zapyield.sol\":4669:4700  referralEarnings[user.referrer] */\n      0x00\n        /* \"contracts/zapyield.sol\":4686:4690  user */\n      dup12\n        /* \"contracts/zapyield.sol\":4686:4699  user.referrer */\n      0x02\n      add\n      0x00\n      swap1\n      sload\n      swap1\n      0x0100\n      exp\n      swap1\n      div\n      0xffffffffffffffffffffffffffffffffffffffff\n      and\n        /* \"contracts/zapyield.sol\":4669:4700  referralEarnings[user.referrer] */\n      0xffffffffffffffffffffffffffffffffffffffff\n      and\n      0xffffffffffffffffffffffffffffffffffffffff\n      and\n      dup2\n      mstore\n      0x20\n      add\n      swap1\n      dup2\n      mstore\n      0x20\n      add\n      0x00\n      keccak256\n      0x00\n        /* \"contracts/zapyield.sol\":4669:4712  referralEarnings[user.referrer] += refShare */\n      dup3\n      dup3\n      sload\n      tag_158\n      swap2\n      swap1\n      tag_98\n      jump\t// in\n    tag_158:\n      swap3\n      pop\n      pop\n      dup2\n      swap1\n      sstore\n      pop\n        /* \"contracts/zapyield.sol\":4778:4786  refShare */\n      dup1\n        /* \"contracts/zapyield.sol\":4769:4775  devFee */\n      dup3\n        /* \"contracts/zapyield.sol\":4758:4765  flatFee */\n      dup6\n        /* \"contracts/zapyield.sol\":4744:4755  grossAmount */\n      dup10\n        /* \"contracts/zapyield.sol\":4744:4765  grossAmount - flatFee */\n      tag_159\n      swap2\n      swap1\n      tag_101\n      jump\t// in\n    tag_159:\n        /* \"contracts/zapyield.sol\":4743:4775  (grossAmount - flatFee) - devFee */\n      tag_160\n      swap2\n      swap1\n      tag_101\n      jump\t// in\n    tag_160:\n        /* \"contracts/zapyield.sol\":4743:4786  (grossAmount - flatFee) - devFee - refShare */\n      tag_161\n      swap2\n      swap1\n      tag_101\n      jump\t// in\n    tag_161:\n        /* \"contracts/zapyield.sol\":4730:4786  userPayout = (grossAmount - flatFee) - devFee - refShare */\n      swap6\n      pop\n        /* \"contracts/zapyield.sol\":4558:4801  {... */\n      pop\n        /* \"contracts/zapyield.sol\":4509:4885  if (interest > 0 && user.referrer != address(0)) {... */\n      jump(tag_162)\n    tag_154:\n        /* \"contracts/zapyield.sol\":4864:4870  devFee */\n      dup1\n        /* \"contracts/zapyield.sol\":4853:4860  flatFee */\n      dup4\n        /* \"contracts/zapyield.sol\":4839:4850  grossAmount */\n      dup8\n        /* \"contracts/zapyield.sol\":4839:4860  grossAmount - flatFee */\n      tag_163\n      swap2\n      swap1\n      tag_101\n      jump\t// in\n    tag_163:\n        /* \"contracts/zapyield.sol\":4838:4870  (grossAmount - flatFee) - devFee */\n      tag_164\n      swap2\n      swap1\n      tag_101\n      jump\t// in\n    tag_164:\n        /* \"contracts/zapyield.sol\":4825:4870  userPayout = (grossAmount - flatFee) - devFee */\n      swap5\n      pop\n        /* \"contracts/zapyield.sol\":4509:4885  if (interest > 0 && user.referrer != address(0)) {... */\n    tag_162:\n        /* \"contracts/zapyield.sol\":4919:4925  devFee */\n      dup1\n        /* \"contracts/zapyield.sol\":4909:4916  flatFee */\n      dup4\n        /* \"contracts/zapyield.sol\":4909:4925  flatFee + devFee */\n      tag_165\n      swap2\n      swap1\n      tag_98\n      jump\t// in\n    tag_165:\n        /* \"contracts/zapyield.sol\":4898:4925  totalFee = flatFee + devFee */\n      swap4\n      pop\n        /* \"contracts/zapyield.sol\":4939:4975  USDC.safeTransfer(owner(), totalFee) */\n      tag_166\n        /* \"contracts/zapyield.sol\":4957:4964  owner() */\n      tag_167\n        /* \"contracts/zapyield.sol\":4957:4962  owner */\n      tag_68\n        /* \"contracts/zapyield.sol\":4957:4964  owner() */\n      jump\t// in\n    tag_167:\n        /* \"contracts/zapyield.sol\":4966:4974  totalFee */\n      dup6\n        /* \"contracts/zapyield.sol\":758:800  0x036CbD53842c5426634e7929541eC2318f3dCF7e */\n      0x036cbd53842c5426634e7929541ec2318f3dcf7e\n        /* \"contracts/zapyield.sol\":4939:4956  USDC.safeTransfer */\n      0xffffffffffffffffffffffffffffffffffffffff\n      and\n      tag_142\n      swap1\n        /* \"contracts/zapyield.sol\":4939:4975  USDC.safeTransfer(owner(), totalFee) */\n      swap3\n      swap2\n      swap1\n      0xffffffff\n      and\n      jump\t// in\n    tag_166:\n        /* \"contracts/zapyield.sol\":4083:4986  {... */\n      pop\n      pop\n      pop\n        /* \"contracts/zapyield.sol\":3795:4986  if (block.timestamp < user.lastDepositTime + LOCK_PERIOD) {... */\n    tag_143:\n        /* \"contracts/zapyield.sol\":5041:5042  0 */\n      0x00\n        /* \"contracts/zapyield.sol\":5024:5028  user */\n      dup6\n        /* \"contracts/zapyield.sol\":5024:5038  user.principal */\n      0x00\n      add\n        /* \"contracts/zapyield.sol\":5024:5042  user.principal = 0 */\n      dup2\n      swap1\n      sstore\n      pop\n        /* \"contracts/zapyield.sol\":5072:5073  0 */\n      0x00\n        /* \"contracts/zapyield.sol\":5052:5056  user */\n      dup6\n        /* \"contracts/zapyield.sol\":5052:5069  user.shareBalance */\n      0x01\n      add\n        /* \"contracts/zapyield.sol\":5052:5073  user.shareBalance = 0 */\n      dup2\n      swap1\n      sstore\n      pop\n        /* \"contracts/zapyield.sol\":5092:5133  USDC.safeTransfer(msg.sender, userPayout) */\n      tag_168\n        /* \"contracts/zapyield.sol\":5110:5120  msg.sender */\n      caller\n        /* \"contracts/zapyield.sol\":5122:5132  userPayout */\n      dup4\n        /* \"contracts/zapyield.sol\":758:800  0x036CbD53842c5426634e7929541eC2318f3dCF7e */\n      0x036cbd53842c5426634e7929541ec2318f3dcf7e\n        /* \"contracts/zapyield.sol\":5092:5109  USDC.safeTransfer */\n      0xffffffffffffffffffffffffffffffffffffffff\n      and\n      tag_142\n      swap1\n        /* \"contracts/zapyield.sol\":5092:5133  USDC.safeTransfer(msg.sender, userPayout) */\n      swap3\n      swap2\n      swap1\n      0xffffffff\n      and\n      jump\t// in\n    tag_168:\n        /* \"contracts/zapyield.sol\":5157:5167  msg.sender */\n      caller\n        /* \"contracts/zapyield.sol\":5148:5190  Withdraw(msg.sender, userPayout, totalFee) */\n      0xffffffffffffffffffffffffffffffffffffffff\n      and\n      0xf279e6a1f5e320cca91135676d9cb6e44ca8a08c0b88342bcdb1144f6511b568\n        /* \"contracts/zapyield.sol\":5169:5179  userPayout */\n      dup4\n        /* \"contracts/zapyield.sol\":5181:5189  totalFee */\n      dup4\n        /* \"contracts/zapyield.sol\":5148:5190  Withdraw(msg.sender, userPayout, totalFee) */\n      mload(0x40)\n      tag_169\n      swap3\n      swap2\n      swap1\n      tag_170\n      jump\t// in\n    tag_169:\n      mload(0x40)\n      dup1\n      swap2\n      sub\n      swap1\n      log2\n        /* \"contracts/zapyield.sol\":3392:5197  {... */\n      pop\n      pop\n      pop\n      pop\n      pop\n        /* \"@openzeppelin/contracts/security/ReentrancyGuard.sol\":2303:2323  _nonReentrantAfter() */\n      tag_171\n        /* \"@openzeppelin/contracts/security/ReentrancyGuard.sol\":2303:2321  _nonReentrantAfter */\n      tag_172\n        /* \"@openzeppelin/contracts/security/ReentrancyGuard.sol\":2303:2323  _nonReentrantAfter() */\n      jump\t// in\n    tag_171:\n        /* \"contracts/zapyield.sol\":3352:5197  function zapOut() external nonReentrant {... */\n      jump\t// out\n        /* \"contracts/zapyield.sol\":1100:1149  uint256 public constant PROTOCOL_FEE_PERCENT = 10 */\n    tag_44:\n        /* \"contracts/zapyield.sol\":1147:1149  10 */\n      0x0a\n        /* \"contracts/zapyield.sol\":1100:1149  uint256 public constant PROTOCOL_FEE_PERCENT = 10 */\n      dup2\n      jump\t// out\n        /* \"contracts/zapyield.sol\":1179:1225  uint256 public constant EARLY_WITHDRAW_FEE = 1 */\n    tag_47:\n        /* \"contracts/zapyield.sol\":1224:1225  1 */\n      0x01\n        /* \"contracts/zapyield.sol\":1179:1225  uint256 public constant EARLY_WITHDRAW_FEE = 1 */\n      dup2\n      jump\t// out\n        /* \"contracts/zapyield.sol\":5203:5324  function getDownlines(address _user) external view returns (address[] memory) {... */\n    tag_51:\n        /* \"contracts/zapyield.sol\":5263:5279  address[] memory */\n      0x60\n        /* \"contracts/zapyield.sol\":5298:5310  referralList */\n      0x04\n        /* \"contracts/zapyield.sol\":5298:5317  referralList[_user] */\n      0x00\n        /* \"contracts/zapyield.sol\":5311:5316  _user */\n      dup4\n        /* \"contracts/zapyield.sol\":5298:5317  referralList[_user] */\n      0xffffffffffffffffffffffffffffffffffffffff\n      and\n      0xffffffffffffffffffffffffffffffffffffffff\n      and\n      dup2\n      mstore\n      0x20\n      add\n      swap1\n      dup2\n      mstore\n      0x20\n      add\n      0x00\n      keccak256\n        /* \"contracts/zapyield.sol\":5291:5317  return referralList[_user] */\n      dup1\n      sload\n      dup1\n      0x20\n      mul\n      0x20\n      add\n      mload(0x40)\n      swap1\n      dup2\n      add\n      0x40\n      mstore\n      dup1\n      swap3\n      swap2\n      swap1\n      dup2\n      dup2\n      mstore\n      0x20\n      add\n      dup3\n      dup1\n      sload\n      dup1\n      iszero\n      tag_174\n      jumpi\n      0x20\n      mul\n      dup3\n      add\n      swap2\n      swap1\n      0x00\n      mstore\n      keccak256(0x00, 0x20)\n      swap1\n    tag_175:\n      dup2\n      0x00\n      swap1\n      sload\n      swap1\n      0x0100\n      exp\n      swap1\n      div\n      0xffffffffffffffffffffffffffffffffffffffff\n      and\n      0xffffffffffffffffffffffffffffffffffffffff\n      and\n      dup2\n      mstore\n      0x20\n      add\n      swap1\n      0x01\n      add\n      swap1\n      dup1\n      dup4\n      gt\n      tag_175\n      jumpi\n    tag_174:\n      pop\n      pop\n      pop\n      pop\n      pop\n      swap1\n      pop\n        /* \"contracts/zapyield.sol\":5203:5324  function getDownlines(address _user) external view returns (address[] memory) {... */\n      swap2\n      swap1\n      pop\n      jump\t// out\n        /* \"contracts/zapyield.sol\":924:973  uint256 public constant MIN_INVESTMENT = 10 * 1e6 */\n    tag_55:\n        /* \"contracts/zapyield.sol\":965:973  10 * 1e6 */\n      0x989680\n        /* \"contracts/zapyield.sol\":924:973  uint256 public constant MIN_INVESTMENT = 10 * 1e6 */\n      dup2\n      jump\t// out\n        /* \"contracts/zapyield.sol\":5725:5968  function getAccountValue(address _user) external view returns (uint256) {... */\n    tag_59:\n        /* \"contracts/zapyield.sol\":5788:5795  uint256 */\n      0x00\n        /* \"contracts/zapyield.sol\":5807:5819  uint256 rate */\n      0x00\n        /* \"contracts/zapyield.sol\":848:890  0x403d64b3f6B4A2b095754877395ab3255476d081 */\n      0x403d64b3f6b4a2b095754877395ab3255476d081\n        /* \"contracts/zapyield.sol\":5822:5846  mUSDC.exchangeRateStored */\n      0xffffffffffffffffffffffffffffffffffffffff\n      and\n      0x182df0f5\n        /* \"contracts/zapyield.sol\":5822:5848  mUSDC.exchangeRateStored() */\n      mload(0x40)\n      dup2\n      0xffffffff\n      and\n      0xe0\n      shl\n      dup2\n      mstore\n      0x04\n      add\n      0x20\n      mload(0x40)\n      dup1\n      dup4\n      sub\n      dup2\n      dup7\n      gas\n      staticcall\n      iszero\n      dup1\n      iszero\n      tag_178\n      jumpi\n      returndatacopy(0x00, 0x00, returndatasize)\n      revert(0x00, returndatasize)\n    tag_178:\n      pop\n      pop\n      pop\n      pop\n      mload(0x40)\n      returndatasize\n      not(0x1f)\n      0x1f\n      dup3\n      add\n      and\n      dup3\n      add\n      dup1\n      0x40\n      mstore\n      pop\n      dup2\n      add\n      swap1\n      tag_179\n      swap2\n      swap1\n      tag_120\n      jump\t// in\n    tag_179:\n        /* \"contracts/zapyield.sol\":5807:5848  uint256 rate = mUSDC.exchangeRateStored() */\n      swap1\n      pop\n        /* \"contracts/zapyield.sol\":5957:5961  1e18 */\n      0x0de0b6b3a7640000\n        /* \"contracts/zapyield.sol\":5949:5953  rate */\n      dup2\n        /* \"contracts/zapyield.sol\":5921:5926  users */\n      0x02\n        /* \"contracts/zapyield.sol\":5921:5933  users[_user] */\n      0x00\n        /* \"contracts/zapyield.sol\":5927:5932  _user */\n      dup7\n        /* \"contracts/zapyield.sol\":5921:5933  users[_user] */\n      0xffffffffffffffffffffffffffffffffffffffff\n      and\n      0xffffffffffffffffffffffffffffffffffffffff\n      and\n      dup2\n      mstore\n      0x20\n      add\n      swap1\n      dup2\n      mstore\n      0x20\n      add\n      0x00\n      keccak256\n        /* \"contracts/zapyield.sol\":5921:5946  users[_user].shareBalance */\n      0x01\n      add\n      sload\n        /* \"contracts/zapyield.sol\":5921:5953  users[_user].shareBalance * rate */\n      tag_180\n      swap2\n      swap1\n      tag_136\n      jump\t// in\n    tag_180:\n        /* \"contracts/zapyield.sol\":5920:5961  (users[_user].shareBalance * rate) / 1e18 */\n      tag_181\n      swap2\n      swap1\n      tag_138\n      jump\t// in\n    tag_181:\n        /* \"contracts/zapyield.sol\":5913:5961  return (users[_user].shareBalance * rate) / 1e18 */\n      swap2\n      pop\n      pop\n        /* \"contracts/zapyield.sol\":5725:5968  function getAccountValue(address _user) external view returns (uint256) {... */\n      swap2\n      swap1\n      pop\n      jump\t// out\n        /* \"@openzeppelin/contracts/access/Ownable.sol\":2293:2394  function renounceOwnership() public virtual onlyOwner {... */\n    tag_62:\n        /* \"@openzeppelin/contracts/access/Ownable.sol\":1531:1544  _checkOwner() */\n      tag_183\n        /* \"@openzeppelin/contracts/access/Ownable.sol\":1531:1542  _checkOwner */\n      tag_184\n        /* \"@openzeppelin/contracts/access/Ownable.sol\":1531:1544  _checkOwner() */\n      jump\t// in\n    tag_183:\n        /* \"@openzeppelin/contracts/access/Ownable.sol\":2357:2387  _transferOwnership(address(0)) */\n      tag_186\n        /* \"@openzeppelin/contracts/access/Ownable.sol\":2384:2385  0 */\n      0x00\n        /* \"@openzeppelin/contracts/access/Ownable.sol\":2357:2375  _transferOwnership */\n      tag_187\n        /* \"@openzeppelin/contracts/access/Ownable.sol\":2357:2387  _transferOwnership(address(0)) */\n      jump\t// in\n    tag_186:\n        /* \"@openzeppelin/contracts/access/Ownable.sol\":2293:2394  function renounceOwnership() public virtual onlyOwner {... */\n      jump\t// out\n        /* \"contracts/zapyield.sol\":721:801  IERC20 public constant USDC = IERC20(0x036CbD53842c5426634e7929541eC2318f3dCF7e) */\n    tag_64:\n        /* \"contracts/zapyield.sol\":758:800  0x036CbD53842c5426634e7929541eC2318f3dCF7e */\n      0x036cbd53842c5426634e7929541ec2318f3dcf7e\n        /* \"contracts/zapyield.sol\":721:801  IERC20 public constant USDC = IERC20(0x036CbD53842c5426634e7929541eC2318f3dCF7e) */\n      dup2\n      jump\t// out\n        /* \"@openzeppelin/contracts/access/Ownable.sol\":1638:1723  function owner() public view virtual returns (address) {... */\n    tag_68:\n        /* \"@openzeppelin/contracts/access/Ownable.sol\":1684:1691  address */\n      0x00\n        /* \"@openzeppelin/contracts/access/Ownable.sol\":1710:1716  _owner */\n      0x00\n      0x00\n      swap1\n      sload\n      swap1\n      0x0100\n      exp\n      swap1\n      div\n      0xffffffffffffffffffffffffffffffffffffffff\n      and\n        /* \"@openzeppelin/contracts/access/Ownable.sol\":1703:1716  return _owner */\n      swap1\n      pop\n        /* \"@openzeppelin/contracts/access/Ownable.sol\":1638:1723  function owner() public view virtual returns (address) {... */\n      swap1\n      jump\t// out\n        /* \"contracts/zapyield.sol\":1521:1562  mapping(address => UserInfo) public users */\n    tag_73:\n      mstore(0x20, 0x02)\n      dup1\n      0x00\n      mstore\n      keccak256(0x00, 0x40)\n      0x00\n      swap2\n      pop\n      swap1\n      pop\n      dup1\n      0x00\n      add\n      sload\n      swap1\n      dup1\n      0x01\n      add\n      sload\n      swap1\n      dup1\n      0x02\n      add\n      0x00\n      swap1\n      sload\n      swap1\n      0x0100\n      exp\n      swap1\n      div\n      0xffffffffffffffffffffffffffffffffffffffff\n      and\n      swap1\n      dup1\n      0x03\n      add\n      sload\n      swap1\n      dup1\n      0x04\n      add\n      sload\n      swap1\n      pop\n      dup6\n      jump\t// out\n        /* \"contracts/zapyield.sol\":1568:1619  mapping(address => uint256) public referralEarnings */\n    tag_78:\n      mstore(0x20, 0x03)\n      dup1\n      0x00\n      mstore\n      keccak256(0x00, 0x40)\n      0x00\n      swap2\n      pop\n      swap1\n      pop\n      sload\n      dup2\n      jump\t// out\n        /* \"contracts/zapyield.sol\":1625:1674  mapping(address => address[]) public referralList */\n    tag_83:\n      mstore(0x20, 0x04)\n      dup2\n      0x00\n      mstore\n      keccak256(0x00, 0x40)\n      dup2\n      dup2\n      sload\n      dup2\n      lt\n      tag_189\n      jumpi\n      0x00\n      dup1\n      revert\n    tag_189:\n      swap1\n      0x00\n      mstore\n      keccak256(0x00, 0x20)\n      add\n      0x00\n      swap2\n      pop\n      swap2\n      pop\n      swap1\n      sload\n      swap1\n      0x0100\n      exp\n      swap1\n      div\n      0xffffffffffffffffffffffffffffffffffffffff\n      and\n      dup2\n      jump\t// out\n        /* \"contracts/zapyield.sol\":2135:3249  function zapIn(uint256 _amount, address _referrer) external nonReentrant {... */\n    tag_88:\n        /* \"@openzeppelin/contracts/security/ReentrancyGuard.sol\":2261:2282  _nonReentrantBefore() */\n      tag_192\n        /* \"@openzeppelin/contracts/security/ReentrancyGuard.sol\":2261:2280  _nonReentrantBefore */\n      tag_111\n        /* \"@openzeppelin/contracts/security/ReentrancyGuard.sol\":2261:2282  _nonReentrantBefore() */\n      jump\t// in\n    tag_192:\n        /* \"contracts/zapyield.sol\":965:973  10 * 1e6 */\n      0x989680\n        /* \"contracts/zapyield.sol\":2226:2233  _amount */\n      dup3\n        /* \"contracts/zapyield.sol\":2226:2251  _amount >= MIN_INVESTMENT */\n      lt\n      iszero\n        /* \"contracts/zapyield.sol\":2218:2285  require(_amount >= MIN_INVESTMENT, \"Minimum investment is 10 USDC\") */\n      tag_194\n      jumpi\n      mload(0x40)\n      0x08c379a000000000000000000000000000000000000000000000000000000000\n      dup2\n      mstore\n      0x04\n      add\n      tag_195\n      swap1\n      tag_196\n      jump\t// in\n    tag_195:\n      mload(0x40)\n      dup1\n      swap2\n      sub\n      swap1\n      revert\n    tag_194:\n        /* \"contracts/zapyield.sol\":2316:2326  msg.sender */\n      caller\n        /* \"contracts/zapyield.sol\":2303:2326  _referrer != msg.sender */\n      0xffffffffffffffffffffffffffffffffffffffff\n      and\n        /* \"contracts/zapyield.sol\":2303:2312  _referrer */\n      dup2\n        /* \"contracts/zapyield.sol\":2303:2326  _referrer != msg.sender */\n      0xffffffffffffffffffffffffffffffffffffffff\n      and\n      sub\n        /* \"contracts/zapyield.sol\":2295:2347  require(_referrer != msg.sender, \"No self-referral\") */\n      tag_197\n      jumpi\n      mload(0x40)\n      0x08c379a000000000000000000000000000000000000000000000000000000000\n      dup2\n      mstore\n      0x04\n      add\n      tag_198\n      swap1\n      tag_199\n      jump\t// in\n    tag_198:\n      mload(0x40)\n      dup1\n      swap2\n      sub\n      swap1\n      revert\n    tag_197:\n        /* \"contracts/zapyield.sol\":2434:2435  0 */\n      0x00\n        /* \"contracts/zapyield.sol\":2396:2436  users[msg.sender].referrer == address(0) */\n      0xffffffffffffffffffffffffffffffffffffffff\n      and\n        /* \"contracts/zapyield.sol\":2396:2401  users */\n      0x02\n        /* \"contracts/zapyield.sol\":2396:2413  users[msg.sender] */\n      0x00\n        /* \"contracts/zapyield.sol\":2402:2412  msg.sender */\n      caller\n        /* \"contracts/zapyield.sol\":2396:2413  users[msg.sender] */\n      0xffffffffffffffffffffffffffffffffffffffff\n      and\n      0xffffffffffffffffffffffffffffffffffffffff\n      and\n      dup2\n      mstore\n      0x20\n      add\n      swap1\n      dup2\n      mstore\n      0x20\n      add\n      0x00\n      keccak256\n        /* \"contracts/zapyield.sol\":2396:2422  users[msg.sender].referrer */\n      0x02\n      add\n      0x00\n      swap1\n      sload\n      swap1\n      0x0100\n      exp\n      swap1\n      div\n      0xffffffffffffffffffffffffffffffffffffffff\n      and\n        /* \"contracts/zapyield.sol\":2396:2436  users[msg.sender].referrer == address(0) */\n      0xffffffffffffffffffffffffffffffffffffffff\n      and\n      eq\n        /* \"contracts/zapyield.sol\":2396:2463  users[msg.sender].referrer == address(0) && _referrer != address(0) */\n      dup1\n      iszero\n      tag_200\n      jumpi\n      pop\n        /* \"contracts/zapyield.sol\":2461:2462  0 */\n      0x00\n        /* \"contracts/zapyield.sol\":2440:2463  _referrer != address(0) */\n      0xffffffffffffffffffffffffffffffffffffffff\n      and\n        /* \"contracts/zapyield.sol\":2440:2449  _referrer */\n      dup2\n        /* \"contracts/zapyield.sol\":2440:2463  _referrer != address(0) */\n      0xffffffffffffffffffffffffffffffffffffffff\n      and\n      eq\n      iszero\n        /* \"contracts/zapyield.sol\":2396:2463  users[msg.sender].referrer == address(0) && _referrer != address(0) */\n    tag_200:\n        /* \"contracts/zapyield.sol\":2392:2583  if (users[msg.sender].referrer == address(0) && _referrer != address(0)) {... */\n      iszero\n      tag_201\n      jumpi\n        /* \"contracts/zapyield.sol\":2508:2517  _referrer */\n      dup1\n        /* \"contracts/zapyield.sol\":2479:2484  users */\n      0x02\n        /* \"contracts/zapyield.sol\":2479:2496  users[msg.sender] */\n      0x00\n        /* \"contracts/zapyield.sol\":2485:2495  msg.sender */\n      caller\n        /* \"contracts/zapyield.sol\":2479:2496  users[msg.sender] */\n      0xffffffffffffffffffffffffffffffffffffffff\n      and\n      0xffffffffffffffffffffffffffffffffffffffff\n      and\n      dup2\n      mstore\n      0x20\n      add\n      swap1\n      dup2\n      mstore\n      0x20\n      add\n      0x00\n      keccak256\n        /* \"contracts/zapyield.sol\":2479:2505  users[msg.sender].referrer */\n      0x02\n      add\n      0x00\n        /* \"contracts/zapyield.sol\":2479:2517  users[msg.sender].referrer = _referrer */\n      0x0100\n      exp\n      dup2\n      sload\n      dup2\n      0xffffffffffffffffffffffffffffffffffffffff\n      mul\n      not\n      and\n      swap1\n      dup4\n      0xffffffffffffffffffffffffffffffffffffffff\n      and\n      mul\n      or\n      swap1\n      sstore\n      pop\n        /* \"contracts/zapyield.sol\":2531:2543  referralList */\n      0x04\n        /* \"contracts/zapyield.sol\":2531:2554  referralList[_referrer] */\n      0x00\n        /* \"contracts/zapyield.sol\":2544:2553  _referrer */\n      dup3\n        /* \"contracts/zapyield.sol\":2531:2554  referralList[_referrer] */\n      0xffffffffffffffffffffffffffffffffffffffff\n      and\n      0xffffffffffffffffffffffffffffffffffffffff\n      and\n      dup2\n      mstore\n      0x20\n      add\n      swap1\n      dup2\n      mstore\n      0x20\n      add\n      0x00\n      keccak256\n        /* \"contracts/zapyield.sol\":2560:2570  msg.sender */\n      caller\n        /* \"contracts/zapyield.sol\":2531:2571  referralList[_referrer].push(msg.sender) */\n      swap1\n      dup1\n      0x01\n      dup2\n      sload\n      add\n      dup1\n      dup3\n      sstore\n      dup1\n      swap2\n      pop\n      pop\n      0x01\n      swap1\n      sub\n      swap1\n      0x00\n      mstore\n      keccak256(0x00, 0x20)\n      add\n      0x00\n      swap1\n      swap2\n      swap1\n      swap2\n      swap1\n      swap2\n      0x0100\n      exp\n      dup2\n      sload\n      dup2\n      0xffffffffffffffffffffffffffffffffffffffff\n      mul\n      not\n      and\n      swap1\n      dup4\n      0xffffffffffffffffffffffffffffffffffffffff\n      and\n      mul\n      or\n      swap1\n      sstore\n      pop\n        /* \"contracts/zapyield.sol\":2392:2583  if (users[msg.sender].referrer == address(0) && _referrer != address(0)) {... */\n    tag_201:\n        /* \"contracts/zapyield.sol\":2643:2700  USDC.safeTransferFrom(msg.sender, address(this), _amount) */\n      tag_203\n        /* \"contracts/zapyield.sol\":2665:2675  msg.sender */\n      caller\n        /* \"contracts/zapyield.sol\":2685:2689  this */\n      address\n        /* \"contracts/zapyield.sol\":2692:2699  _amount */\n      dup5\n        /* \"contracts/zapyield.sol\":758:800  0x036CbD53842c5426634e7929541eC2318f3dCF7e */\n      0x036cbd53842c5426634e7929541ec2318f3dcf7e\n        /* \"contracts/zapyield.sol\":2643:2664  USDC.safeTransferFrom */\n      0xffffffffffffffffffffffffffffffffffffffff\n      and\n      tag_204\n      swap1\n        /* \"contracts/zapyield.sol\":2643:2700  USDC.safeTransferFrom(msg.sender, address(this), _amount) */\n      swap4\n      swap3\n      swap2\n      swap1\n      0xffffffff\n      and\n      jump\t// in\n    tag_203:\n        /* \"contracts/zapyield.sol\":758:800  0x036CbD53842c5426634e7929541eC2318f3dCF7e */\n      0x036cbd53842c5426634e7929541ec2318f3dcf7e\n        /* \"contracts/zapyield.sol\":2763:2775  USDC.approve */\n      0xffffffffffffffffffffffffffffffffffffffff\n      and\n      0x095ea7b3\n        /* \"contracts/zapyield.sol\":848:890  0x403d64b3f6B4A2b095754877395ab3255476d081 */\n      0x403d64b3f6b4a2b095754877395ab3255476d081\n        /* \"contracts/zapyield.sol\":2792:2799  _amount */\n      dup5\n        /* \"contracts/zapyield.sol\":2763:2800  USDC.approve(address(mUSDC), _amount) */\n      mload(0x40)\n      dup4\n      0xffffffff\n      and\n      0xe0\n      shl\n      dup2\n      mstore\n      0x04\n      add\n      tag_205\n      swap3\n      swap2\n      swap1\n      tag_206\n      jump\t// in\n    tag_205:\n      0x20\n      mload(0x40)\n      dup1\n      dup4\n      sub\n      dup2\n      0x00\n      dup8\n      gas\n      call\n      iszero\n      dup1\n      iszero\n      tag_208\n      jumpi\n      returndatacopy(0x00, 0x00, returndatasize)\n      revert(0x00, returndatasize)\n    tag_208:\n      pop\n      pop\n      pop\n      pop\n      mload(0x40)\n      returndatasize\n      not(0x1f)\n      0x1f\n      dup3\n      add\n      and\n      dup3\n      add\n      dup1\n      0x40\n      mstore\n      pop\n      dup2\n      add\n      swap1\n      tag_209\n      swap2\n      swap1\n      tag_210\n      jump\t// in\n    tag_209:\n      pop\n        /* \"contracts/zapyield.sol\":2810:2824  uint256 preBal */\n      0x00\n        /* \"contracts/zapyield.sol\":848:890  0x403d64b3f6B4A2b095754877395ab3255476d081 */\n      0x403d64b3f6b4a2b095754877395ab3255476d081\n        /* \"contracts/zapyield.sol\":2827:2842  mUSDC.balanceOf */\n      0xffffffffffffffffffffffffffffffffffffffff\n      and\n      0x70a08231\n        /* \"contracts/zapyield.sol\":2851:2855  this */\n      address\n        /* \"contracts/zapyield.sol\":2827:2857  mUSDC.balanceOf(address(this)) */\n      mload(0x40)\n      dup3\n      0xffffffff\n      and\n      0xe0\n      shl\n      dup2\n      mstore\n      0x04\n      add\n      tag_211\n      swap2\n      swap1\n      tag_70\n      jump\t// in\n    tag_211:\n      0x20\n      mload(0x40)\n      dup1\n      dup4\n      sub\n      dup2\n      dup7\n      gas\n      staticcall\n      iszero\n      dup1\n      iszero\n      tag_213\n      jumpi\n      returndatacopy(0x00, 0x00, returndatasize)\n      revert(0x00, returndatasize)\n    tag_213:\n      pop\n      pop\n      pop\n      pop\n      mload(0x40)\n      returndatasize\n      not(0x1f)\n      0x1f\n      dup3\n      add\n      and\n      dup3\n      add\n      dup1\n      0x40\n      mstore\n      pop\n      dup2\n      add\n      swap1\n      tag_214\n      swap2\n      swap1\n      tag_120\n      jump\t// in\n    tag_214:\n        /* \"contracts/zapyield.sol\":2810:2857  uint256 preBal = mUSDC.balanceOf(address(this)) */\n      swap1\n      pop\n        /* \"contracts/zapyield.sol\":2898:2899  0 */\n      0x00\n        /* \"contracts/zapyield.sol\":848:890  0x403d64b3f6B4A2b095754877395ab3255476d081 */\n      0x403d64b3f6b4a2b095754877395ab3255476d081\n        /* \"contracts/zapyield.sol\":2875:2885  mUSDC.mint */\n      0xffffffffffffffffffffffffffffffffffffffff\n      and\n      0xa0712d68\n        /* \"contracts/zapyield.sol\":2886:2893  _amount */\n      dup6\n        /* \"contracts/zapyield.sol\":2875:2894  mUSDC.mint(_amount) */\n      mload(0x40)\n      dup3\n      0xffffffff\n      and\n      0xe0\n      shl\n      dup2\n      mstore\n      0x04\n      add\n      tag_215\n      swap2\n      swap1\n      tag_30\n      jump\t// in\n    tag_215:\n      0x20\n      mload(0x40)\n      dup1\n      dup4\n      sub\n      dup2\n      0x00\n      dup8\n      gas\n      call\n      iszero\n      dup1\n      iszero\n      tag_217\n      jumpi\n      returndatacopy(0x00, 0x00, returndatasize)\n      revert(0x00, returndatasize)\n    tag_217:\n      pop\n      pop\n      pop\n      pop\n      mload(0x40)\n      returndatasize\n      not(0x1f)\n      0x1f\n      dup3\n      add\n      and\n      dup3\n      add\n      dup1\n      0x40\n      mstore\n      pop\n      dup2\n      add\n      swap1\n      tag_218\n      swap2\n      swap1\n      tag_120\n      jump\t// in\n    tag_218:\n        /* \"contracts/zapyield.sol\":2875:2899  mUSDC.mint(_amount) == 0 */\n      eq\n        /* \"contracts/zapyield.sol\":2867:2922  require(mUSDC.mint(_amount) == 0, \"Morpho Mint failed\") */\n      tag_219\n      jumpi\n      mload(0x40)\n      0x08c379a000000000000000000000000000000000000000000000000000000000\n      dup2\n      mstore\n      0x04\n      add\n      tag_220\n      swap1\n      tag_221\n      jump\t// in\n    tag_220:\n      mload(0x40)\n      dup1\n      swap2\n      sub\n      swap1\n      revert\n    tag_219:\n        /* \"contracts/zapyield.sol\":2932:2949  uint256 newShares */\n      0x00\n        /* \"contracts/zapyield.sol\":2985:2991  preBal */\n      dup2\n        /* \"contracts/zapyield.sol\":848:890  0x403d64b3f6B4A2b095754877395ab3255476d081 */\n      0x403d64b3f6b4a2b095754877395ab3255476d081\n        /* \"contracts/zapyield.sol\":2952:2967  mUSDC.balanceOf */\n      0xffffffffffffffffffffffffffffffffffffffff\n      and\n      0x70a08231\n        /* \"contracts/zapyield.sol\":2976:2980  this */\n      address\n        /* \"contracts/zapyield.sol\":2952:2982  mUSDC.balanceOf(address(this)) */\n      mload(0x40)\n      dup3\n      0xffffffff\n      and\n      0xe0\n      shl\n      dup2\n      mstore\n      0x04\n      add\n      tag_222\n      swap2\n      swap1\n      tag_70\n      jump\t// in\n    tag_222:\n      0x20\n      mload(0x40)\n      dup1\n      dup4\n      sub\n      dup2\n      dup7\n      gas\n      staticcall\n      iszero\n      dup1\n      iszero\n      tag_224\n      jumpi\n      returndatacopy(0x00, 0x00, returndatasize)\n      revert(0x00, returndatasize)\n    tag_224:\n      pop\n      pop\n      pop\n      pop\n      mload(0x40)\n      returndatasize\n      not(0x1f)\n      0x1f\n      dup3\n      add\n      and\n      dup3\n      add\n      dup1\n      0x40\n      mstore\n      pop\n      dup2\n      add\n      swap1\n      tag_225\n      swap2\n      swap1\n      tag_120\n      jump\t// in\n    tag_225:\n        /* \"contracts/zapyield.sol\":2952:2991  mUSDC.balanceOf(address(this)) - preBal */\n      tag_226\n      swap2\n      swap1\n      tag_101\n      jump\t// in\n    tag_226:\n        /* \"contracts/zapyield.sol\":2932:2991  uint256 newShares = mUSDC.balanceOf(address(this)) - preBal */\n      swap1\n      pop\n        /* \"contracts/zapyield.sol\":3066:3073  _amount */\n      dup4\n        /* \"contracts/zapyield.sol\":3035:3040  users */\n      0x02\n        /* \"contracts/zapyield.sol\":3035:3052  users[msg.sender] */\n      0x00\n        /* \"contracts/zapyield.sol\":3041:3051  msg.sender */\n      caller\n        /* \"contracts/zapyield.sol\":3035:3052  users[msg.sender] */\n      0xffffffffffffffffffffffffffffffffffffffff\n      and\n      0xffffffffffffffffffffffffffffffffffffffff\n      and\n      dup2\n      mstore\n      0x20\n      add\n      swap1\n      dup2\n      mstore\n      0x20\n      add\n      0x00\n      keccak256\n        /* \"contracts/zapyield.sol\":3035:3062  users[msg.sender].principal */\n      0x00\n      add\n      0x00\n        /* \"contracts/zapyield.sol\":3035:3073  users[msg.sender].principal += _amount */\n      dup3\n      dup3\n      sload\n      tag_227\n      swap2\n      swap1\n      tag_98\n      jump\t// in\n    tag_227:\n      swap3\n      pop\n      pop\n      dup2\n      swap1\n      sstore\n      pop\n        /* \"contracts/zapyield.sol\":3117:3126  newShares */\n      dup1\n        /* \"contracts/zapyield.sol\":3083:3088  users */\n      0x02\n        /* \"contracts/zapyield.sol\":3083:3100  users[msg.sender] */\n      0x00\n        /* \"contracts/zapyield.sol\":3089:3099  msg.sender */\n      caller\n        /* \"contracts/zapyield.sol\":3083:3100  users[msg.sender] */\n      0xffffffffffffffffffffffffffffffffffffffff\n      and\n      0xffffffffffffffffffffffffffffffffffffffff\n      and\n      dup2\n      mstore\n      0x20\n      add\n      swap1\n      dup2\n      mstore\n      0x20\n      add\n      0x00\n      keccak256\n        /* \"contracts/zapyield.sol\":3083:3113  users[msg.sender].shareBalance */\n      0x01\n      add\n      0x00\n        /* \"contracts/zapyield.sol\":3083:3126  users[msg.sender].shareBalance += newShares */\n      dup3\n      dup3\n      sload\n      tag_228\n      swap2\n      swap1\n      tag_98\n      jump\t// in\n    tag_228:\n      swap3\n      pop\n      pop\n      dup2\n      swap1\n      sstore\n      pop\n        /* \"contracts/zapyield.sol\":3172:3187  block.timestamp */\n      timestamp\n        /* \"contracts/zapyield.sol\":3136:3141  users */\n      0x02\n        /* \"contracts/zapyield.sol\":3136:3153  users[msg.sender] */\n      0x00\n        /* \"contracts/zapyield.sol\":3142:3152  msg.sender */\n      caller\n        /* \"contracts/zapyield.sol\":3136:3153  users[msg.sender] */\n      0xffffffffffffffffffffffffffffffffffffffff\n      and\n      0xffffffffffffffffffffffffffffffffffffffff\n      and\n      dup2\n      mstore\n      0x20\n      add\n      swap1\n      dup2\n      mstore\n      0x20\n      add\n      0x00\n      keccak256\n        /* \"contracts/zapyield.sol\":3136:3169  users[msg.sender].lastDepositTime */\n      0x04\n      add\n        /* \"contracts/zapyield.sol\":3136:3187  users[msg.sender].lastDepositTime = block.timestamp */\n      dup2\n      swap1\n      sstore\n      pop\n        /* \"contracts/zapyield.sol\":3232:3241  _referrer */\n      dup3\n        /* \"contracts/zapyield.sol\":3203:3242  Deposit(msg.sender, _amount, _referrer) */\n      0xffffffffffffffffffffffffffffffffffffffff\n      and\n        /* \"contracts/zapyield.sol\":3211:3221  msg.sender */\n      caller\n        /* \"contracts/zapyield.sol\":3203:3242  Deposit(msg.sender, _amount, _referrer) */\n      0xffffffffffffffffffffffffffffffffffffffff\n      and\n      0xe31c7b8d08ee7db0afa68782e1028ef92305caeea8626633ad44d413e30f6b2f\n        /* \"contracts/zapyield.sol\":3223:3230  _amount */\n      dup7\n        /* \"contracts/zapyield.sol\":3203:3242  Deposit(msg.sender, _amount, _referrer) */\n      mload(0x40)\n      tag_229\n      swap2\n      swap1\n      tag_30\n      jump\t// in\n    tag_229:\n      mload(0x40)\n      dup1\n      swap2\n      sub\n      swap1\n      log3\n        /* \"contracts/zapyield.sol\":2208:3249  {... */\n      pop\n      pop\n        /* \"@openzeppelin/contracts/security/ReentrancyGuard.sol\":2303:2323  _nonReentrantAfter() */\n      tag_230\n        /* \"@openzeppelin/contracts/security/ReentrancyGuard.sol\":2303:2321  _nonReentrantAfter */\n      tag_172\n        /* \"@openzeppelin/contracts/security/ReentrancyGuard.sol\":2303:2323  _nonReentrantAfter() */\n      jump\t// in\n    tag_230:\n        /* \"contracts/zapyield.sol\":2135:3249  function zapIn(uint256 _amount, address _referrer) external nonReentrant {... */\n      pop\n      pop\n      jump\t// out\n        /* \"@openzeppelin/contracts/access/Ownable.sol\":2543:2758  function transferOwnership(address newOwner) public virtual onlyOwner {... */\n    tag_91:\n        /* \"@openzeppelin/contracts/access/Ownable.sol\":1531:1544  _checkOwner() */\n      tag_232\n        /* \"@openzeppelin/contracts/access/Ownable.sol\":1531:1542  _checkOwner */\n      tag_184\n        /* \"@openzeppelin/contracts/access/Ownable.sol\":1531:1544  _checkOwner() */\n      jump\t// in\n    tag_232:\n        /* \"@openzeppelin/contracts/access/Ownable.sol\":2647:2648  0 */\n      0x00\n        /* \"@openzeppelin/contracts/access/Ownable.sol\":2627:2649  newOwner == address(0) */\n      0xffffffffffffffffffffffffffffffffffffffff\n      and\n        /* \"@openzeppelin/contracts/access/Ownable.sol\":2627:2635  newOwner */\n      dup2\n        /* \"@openzeppelin/contracts/access/Ownable.sol\":2627:2649  newOwner == address(0) */\n      0xffffffffffffffffffffffffffffffffffffffff\n      and\n      sub\n        /* \"@openzeppelin/contracts/access/Ownable.sol\":2623:2714  if (newOwner == address(0)) {... */\n      tag_234\n      jumpi\n        /* \"@openzeppelin/contracts/access/Ownable.sol\":2700:2701  0 */\n      0x00\n        /* \"@openzeppelin/contracts/access/Ownable.sol\":2672:2703  OwnableInvalidOwner(address(0)) */\n      mload(0x40)\n      0x1e4fbdf700000000000000000000000000000000000000000000000000000000\n      dup2\n      mstore\n      0x04\n      add\n      tag_235\n      swap2\n      swap1\n      tag_70\n      jump\t// in\n    tag_235:\n      mload(0x40)\n      dup1\n      swap2\n      sub\n      swap1\n      revert\n        /* \"@openzeppelin/contracts/access/Ownable.sol\":2623:2714  if (newOwner == address(0)) {... */\n    tag_234:\n        /* \"@openzeppelin/contracts/access/Ownable.sol\":2723:2751  _transferOwnership(newOwner) */\n      tag_236\n        /* \"@openzeppelin/contracts/access/Ownable.sol\":2742:2750  newOwner */\n      dup2\n        /* \"@openzeppelin/contracts/access/Ownable.sol\":2723:2741  _transferOwnership */\n      tag_187\n        /* \"@openzeppelin/contracts/access/Ownable.sol\":2723:2751  _transferOwnership(newOwner) */\n      jump\t// in\n    tag_236:\n        /* \"@openzeppelin/contracts/access/Ownable.sol\":2543:2758  function transferOwnership(address newOwner) public virtual onlyOwner {... */\n      pop\n      jump\t// out\n        /* \"contracts/zapyield.sol\":808:891  IMToken public constant mUSDC = IMToken(0x403d64b3f6B4A2b095754877395ab3255476d081) */\n    tag_93:\n        /* \"contracts/zapyield.sol\":848:890  0x403d64b3f6B4A2b095754877395ab3255476d081 */\n      0x403d64b3f6b4a2b095754877395ab3255476d081\n        /* \"contracts/zapyield.sol\":808:891  IMToken public constant mUSDC = IMToken(0x403d64b3f6B4A2b095754877395ab3255476d081) */\n      dup2\n      jump\t// out\n        /* \"@openzeppelin/contracts/security/ReentrancyGuard.sol\":2336:2623  function _nonReentrantBefore() private {... */\n    tag_111:\n        /* \"@openzeppelin/contracts/security/ReentrancyGuard.sol\":1759:1760  2 */\n      0x02\n        /* \"@openzeppelin/contracts/security/ReentrancyGuard.sol\":2468:2475  _status */\n      sload(0x01)\n        /* \"@openzeppelin/contracts/security/ReentrancyGuard.sol\":2468:2487  _status != _ENTERED */\n      sub\n        /* \"@openzeppelin/contracts/security/ReentrancyGuard.sol\":2460:2523  require(_status != _ENTERED, \"ReentrancyGuard: reentrant call\") */\n      tag_238\n      jumpi\n      mload(0x40)\n      0x08c379a000000000000000000000000000000000000000000000000000000000\n      dup2\n      mstore\n      0x04\n      add\n      tag_239\n      swap1\n      tag_240\n      jump\t// in\n    tag_239:\n      mload(0x40)\n      dup1\n      swap2\n      sub\n      swap1\n      revert\n    tag_238:\n        /* \"@openzeppelin/contracts/security/ReentrancyGuard.sol\":1759:1760  2 */\n      0x02\n        /* \"@openzeppelin/contracts/security/ReentrancyGuard.sol\":2598:2605  _status */\n      0x01\n        /* \"@openzeppelin/contracts/security/ReentrancyGuard.sol\":2598:2616  _status = _ENTERED */\n      dup2\n      swap1\n      sstore\n      pop\n        /* \"@openzeppelin/contracts/security/ReentrancyGuard.sol\":2336:2623  function _nonReentrantBefore() private {... */\n      jump\t// out\n        /* \"@openzeppelin/contracts/token/ERC20/utils/SafeERC20.sol\":1219:1379  function safeTransfer(IERC20 token, address to, uint256 value) internal {... */\n    tag_142:\n        /* \"@openzeppelin/contracts/token/ERC20/utils/SafeERC20.sol\":1301:1372  _callOptionalReturn(token, abi.encodeCall(token.transfer, (to, value))) */\n      tag_242\n        /* \"@openzeppelin/contracts/token/ERC20/utils/SafeERC20.sol\":1321:1326  token */\n      dup4\n        /* \"@openzeppelin/contracts/token/ERC20/utils/SafeERC20.sol\":1343:1348  token */\n      dup5\n        /* \"@openzeppelin/contracts/token/ERC20/utils/SafeERC20.sol\":1343:1357  token.transfer */\n      0xffffffffffffffffffffffffffffffffffffffff\n      and\n      0xa9059cbb\n        /* \"@openzeppelin/contracts/token/ERC20/utils/SafeERC20.sol\":1360:1362  to */\n      dup6\n        /* \"@openzeppelin/contracts/token/ERC20/utils/SafeERC20.sol\":1364:1369  value */\n      dup6\n        /* \"@openzeppelin/contracts/token/ERC20/utils/SafeERC20.sol\":1328:1371  abi.encodeCall(token.transfer, (to, value)) */\n      add(0x24, mload(0x40))\n      tag_243\n      swap3\n      swap2\n      swap1\n      tag_206\n      jump\t// in\n    tag_243:\n      mload(0x40)\n      0x20\n      dup2\n      dup4\n      sub\n      sub\n      dup2\n      mstore\n      swap1\n      0x40\n      mstore\n      swap2\n      pop\n      0xe0\n      shl\n      0x20\n      dup3\n      add\n      dup1\n      mload\n      0xffffffffffffffffffffffffffffffffffffffffffffffffffffffff\n      dup4\n      dup2\n      dup4\n      and\n      or\n      dup4\n      mstore\n      pop\n      pop\n      pop\n      pop\n        /* \"@openzeppelin/contracts/token/ERC20/utils/SafeERC20.sol\":1301:1320  _callOptionalReturn */\n      tag_244\n        /* \"@openzeppelin/contracts/token/ERC20/utils/SafeERC20.sol\":1301:1372  _callOptionalReturn(token, abi.encodeCall(token.transfer, (to, value))) */\n      jump\t// in\n    tag_242:\n        /* \"@openzeppelin/contracts/token/ERC20/utils/SafeERC20.sol\":1219:1379  function safeTransfer(IERC20 token, address to, uint256 value) internal {... */\n      pop\n      pop\n      pop\n      jump\t// out\n        /* \"@openzeppelin/contracts/security/ReentrancyGuard.sol\":2629:2838  function _nonReentrantAfter() private {... */\n    tag_172:\n        /* \"@openzeppelin/contracts/security/ReentrancyGuard.sol\":1716:1717  1 */\n      0x01\n        /* \"@openzeppelin/contracts/security/ReentrancyGuard.sol\":2809:2816  _status */\n      dup1\n        /* \"@openzeppelin/contracts/security/ReentrancyGuard.sol\":2809:2831  _status = _NOT_ENTERED */\n      dup2\n      swap1\n      sstore\n      pop\n        /* \"@openzeppelin/contracts/security/ReentrancyGuard.sol\":2629:2838  function _nonReentrantAfter() private {... */\n      jump\t// out\n        /* \"@openzeppelin/contracts/access/Ownable.sol\":1796:1958  function _checkOwner() internal view virtual {... */\n    tag_184:\n        /* \"@openzeppelin/contracts/access/Ownable.sol\":1866:1878  _msgSender() */\n      tag_247\n        /* \"@openzeppelin/contracts/access/Ownable.sol\":1866:1876  _msgSender */\n      tag_248\n        /* \"@openzeppelin/contracts/access/Ownable.sol\":1866:1878  _msgSender() */\n      jump\t// in\n    tag_247:\n        /* \"@openzeppelin/contracts/access/Ownable.sol\":1855:1878  owner() != _msgSender() */\n      0xffffffffffffffffffffffffffffffffffffffff\n      and\n        /* \"@openzeppelin/contracts/access/Ownable.sol\":1855:1862  owner() */\n      tag_249\n        /* \"@openzeppelin/contracts/access/Ownable.sol\":1855:1860  owner */\n      tag_68\n        /* \"@openzeppelin/contracts/access/Ownable.sol\":1855:1862  owner() */\n      jump\t// in\n    tag_249:\n        /* \"@openzeppelin/contracts/access/Ownable.sol\":1855:1878  owner() != _msgSender() */\n      0xffffffffffffffffffffffffffffffffffffffff\n      and\n      eq\n        /* \"@openzeppelin/contracts/access/Ownable.sol\":1851:1952  if (owner() != _msgSender()) {... */\n      tag_250\n      jumpi\n        /* \"@openzeppelin/contracts/access/Ownable.sol\":1928:1940  _msgSender() */\n      tag_251\n        /* \"@openzeppelin/contracts/access/Ownable.sol\":1928:1938  _msgSender */\n      tag_248\n        /* \"@openzeppelin/contracts/access/Ownable.sol\":1928:1940  _msgSender() */\n      jump\t// in\n    tag_251:\n        /* \"@openzeppelin/contracts/access/Ownable.sol\":1901:1941  OwnableUnauthorizedAccount(_msgSender()) */\n      mload(0x40)\n      0x118cdaa700000000000000000000000000000000000000000000000000000000\n      dup2\n      mstore\n      0x04\n      add\n      tag_252\n      swap2\n      swap1\n      tag_70\n      jump\t// in\n    tag_252:\n      mload(0x40)\n      dup1\n      swap2\n      sub\n      swap1\n      revert\n        /* \"@openzeppelin/contracts/access/Ownable.sol\":1851:1952  if (owner() != _msgSender()) {... */\n    tag_250:\n        /* \"@openzeppelin/contracts/access/Ownable.sol\":1796:1958  function _checkOwner() internal view virtual {... */\n      jump\t// out\n        /* \"@openzeppelin/contracts/access/Ownable.sol\":2912:3099  function _transferOwnership(address newOwner) internal virtual {... */\n    tag_187:\n        /* \"@openzeppelin/contracts/access/Ownable.sol\":2985:3001  address oldOwner */\n      0x00\n        /* \"@openzeppelin/contracts/access/Ownable.sol\":3004:3010  _owner */\n      0x00\n      0x00\n      swap1\n      sload\n      swap1\n      0x0100\n      exp\n      swap1\n      div\n      0xffffffffffffffffffffffffffffffffffffffff\n      and\n        /* \"@openzeppelin/contracts/access/Ownable.sol\":2985:3010  address oldOwner = _owner */\n      swap1\n      pop\n        /* \"@openzeppelin/contracts/access/Ownable.sol\":3029:3037  newOwner */\n      dup2\n        /* \"@openzeppelin/contracts/access/Ownable.sol\":3020:3026  _owner */\n      0x00\n      0x00\n        /* \"@openzeppelin/contracts/access/Ownable.sol\":3020:3037  _owner = newOwner */\n      0x0100\n      exp\n      dup2\n      sload\n      dup2\n      0xffffffffffffffffffffffffffffffffffffffff\n      mul\n      not\n      and\n      swap1\n      dup4\n      0xffffffffffffffffffffffffffffffffffffffff\n      and\n      mul\n      or\n      swap1\n      sstore\n      pop\n        /* \"@openzeppelin/contracts/access/Ownable.sol\":3083:3091  newOwner */\n      dup2\n        /* \"@openzeppelin/contracts/access/Ownable.sol\":3052:3092  OwnershipTransferred(oldOwner, newOwner) */\n      0xffffffffffffffffffffffffffffffffffffffff\n      and\n        /* \"@openzeppelin/contracts/access/Ownable.sol\":3073:3081  oldOwner */\n      dup2\n        /* \"@openzeppelin/contracts/access/Ownable.sol\":3052:3092  OwnershipTransferred(oldOwner, newOwner) */\n      0xffffffffffffffffffffffffffffffffffffffff\n      and\n      0x8be0079c531659141344cd1fd0a4f28419497f9722a3daafe3b4186f6b6457e0\n      mload(0x40)\n      mload(0x40)\n      dup1\n      swap2\n      sub\n      swap1\n      log3\n        /* \"@openzeppelin/contracts/access/Ownable.sol\":2975:3099  {... */\n      pop\n        /* \"@openzeppelin/contracts/access/Ownable.sol\":2912:3099  function _transferOwnership(address newOwner) internal virtual {... */\n      pop\n      jump\t// out\n        /* \"@openzeppelin/contracts/token/ERC20/utils/SafeERC20.sol\":1618:1806  function safeTransferFrom(IERC20 token, address from, address to, uint256 value) internal {... */\n    tag_204:\n        /* \"@openzeppelin/contracts/token/ERC20/utils/SafeERC20.sol\":1718:1799  _callOptionalReturn(token, abi.encodeCall(token.transferFrom, (from, to, value))) */\n      tag_255\n        /* \"@openzeppelin/contracts/token/ERC20/utils/SafeERC20.sol\":1738:1743  token */\n      dup5\n        /* \"@openzeppelin/contracts/token/ERC20/utils/SafeERC20.sol\":1760:1765  token */\n      dup6\n        /* \"@openzeppelin/contracts/token/ERC20/utils/SafeERC20.sol\":1760:1778  token.transferFrom */\n      0xffffffffffffffffffffffffffffffffffffffff\n      and\n      0x23b872dd\n        /* \"@openzeppelin/contracts/token/ERC20/utils/SafeERC20.sol\":1781:1785  from */\n      dup7\n        /* \"@openzeppelin/contracts/token/ERC20/utils/SafeERC20.sol\":1787:1789  to */\n      dup7\n        /* \"@openzeppelin/contracts/token/ERC20/utils/SafeERC20.sol\":1791:1796  value */\n      dup7\n        /* \"@openzeppelin/contracts/token/ERC20/utils/SafeERC20.sol\":1745:1798  abi.encodeCall(token.transferFrom, (from, to, value)) */\n      add(0x24, mload(0x40))\n      tag_256\n      swap4\n      swap3\n      swap2\n      swap1\n      tag_257\n      jump\t// in\n    tag_256:\n      mload(0x40)\n      0x20\n      dup2\n      dup4\n      sub\n      sub\n      dup2\n      mstore\n      swap1\n      0x40\n      mstore\n      swap2\n      pop\n      0xe0\n      shl\n      0x20\n      dup3\n      add\n      dup1\n      mload\n      0xffffffffffffffffffffffffffffffffffffffffffffffffffffffff\n      dup4\n      dup2\n      dup4\n      and\n      or\n      dup4\n      mstore\n      pop\n      pop\n      pop\n      pop\n        /* \"@openzeppelin/contracts/token/ERC20/utils/SafeERC20.sol\":1718:1737  _callOptionalReturn */\n      tag_244\n        /* \"@openzeppelin/contracts/token/ERC20/utils/SafeERC20.sol\":1718:1799  _callOptionalReturn(token, abi.encodeCall(token.transferFrom, (from, to, value))) */\n      jump\t// in\n    tag_255:\n        /* \"@openzeppelin/contracts/token/ERC20/utils/SafeERC20.sol\":1618:1806  function safeTransferFrom(IERC20 token, address from, address to, uint256 value) internal {... */\n      pop\n      pop\n      pop\n      pop\n      jump\t// out\n        /* \"@openzeppelin/contracts/token/ERC20/utils/SafeERC20.sol\":8370:9090  function _callOptionalReturn(IERC20 token, bytes memory data) private {... */\n    tag_244:\n        /* \"@openzeppelin/contracts/token/ERC20/utils/SafeERC20.sol\":8450:8468  uint256 returnSize */\n      0x00\n        /* \"@openzeppelin/contracts/token/ERC20/utils/SafeERC20.sol\":8478:8497  uint256 returnValue */\n      0x00\n        /* \"@openzeppelin/contracts/token/ERC20/utils/SafeERC20.sol\":8616:8620  0x20 */\n      0x20\n        /* \"@openzeppelin/contracts/token/ERC20/utils/SafeERC20.sol\":8613:8614  0 */\n      0x00\n        /* \"@openzeppelin/contracts/token/ERC20/utils/SafeERC20.sol\":8606:8610  data */\n      dup5\n        /* \"@openzeppelin/contracts/token/ERC20/utils/SafeERC20.sol\":8600:8611  mload(data) */\n      mload\n        /* \"@openzeppelin/contracts/token/ERC20/utils/SafeERC20.sol\":8593:8597  0x20 */\n      0x20\n        /* \"@openzeppelin/contracts/token/ERC20/utils/SafeERC20.sol\":8587:8591  data */\n      dup7\n        /* \"@openzeppelin/contracts/token/ERC20/utils/SafeERC20.sol\":8583:8598  add(data, 0x20) */\n      add\n        /* \"@openzeppelin/contracts/token/ERC20/utils/SafeERC20.sol\":8580:8581  0 */\n      0x00\n        /* \"@openzeppelin/contracts/token/ERC20/utils/SafeERC20.sol\":8573:8578  token */\n      dup9\n        /* \"@openzeppelin/contracts/token/ERC20/utils/SafeERC20.sol\":8566:8571  gas() */\n      gas\n        /* \"@openzeppelin/contracts/token/ERC20/utils/SafeERC20.sol\":8561:8621  call(gas(), token, 0, add(data, 0x20), mload(data), 0, 0x20) */\n      call\n        /* \"@openzeppelin/contracts/token/ERC20/utils/SafeERC20.sol\":8673:8680  success */\n      dup1\n        /* \"@openzeppelin/contracts/token/ERC20/utils/SafeERC20.sol\":8663:8839  if iszero(success) {... */\n      tag_259\n      jumpi\n        /* \"@openzeppelin/contracts/token/ERC20/utils/SafeERC20.sol\":8717:8721  0x40 */\n      0x40\n        /* \"@openzeppelin/contracts/token/ERC20/utils/SafeERC20.sol\":8711:8722  mload(0x40) */\n      mload\n        /* \"@openzeppelin/contracts/token/ERC20/utils/SafeERC20.sol\":8762:8778  returndatasize() */\n      returndatasize\n        /* \"@openzeppelin/contracts/token/ERC20/utils/SafeERC20.sol\":8759:8760  0 */\n      0x00\n        /* \"@openzeppelin/contracts/token/ERC20/utils/SafeERC20.sol\":8754:8757  ptr */\n      dup3\n        /* \"@openzeppelin/contracts/token/ERC20/utils/SafeERC20.sol\":8739:8779  returndatacopy(ptr, 0, returndatasize()) */\n      returndatacopy\n        /* \"@openzeppelin/contracts/token/ERC20/utils/SafeERC20.sol\":8808:8824  returndatasize() */\n      returndatasize\n        /* \"@openzeppelin/contracts/token/ERC20/utils/SafeERC20.sol\":8803:8806  ptr */\n      dup2\n        /* \"@openzeppelin/contracts/token/ERC20/utils/SafeERC20.sol\":8796:8825  revert(ptr, returndatasize()) */\n      revert\n        /* \"@openzeppelin/contracts/token/ERC20/utils/SafeERC20.sol\":8663:8839  if iszero(success) {... */\n    tag_259:\n        /* \"@openzeppelin/contracts/token/ERC20/utils/SafeERC20.sol\":8866:8882  returndatasize() */\n      returndatasize\n        /* \"@openzeppelin/contracts/token/ERC20/utils/SafeERC20.sol\":8852:8882  returnSize := returndatasize() */\n      swap3\n      pop\n        /* \"@openzeppelin/contracts/token/ERC20/utils/SafeERC20.sol\":8916:8917  0 */\n      0x00\n        /* \"@openzeppelin/contracts/token/ERC20/utils/SafeERC20.sol\":8910:8918  mload(0) */\n      mload\n        /* \"@openzeppelin/contracts/token/ERC20/utils/SafeERC20.sol\":8895:8918  returnValue := mload(0) */\n      swap2\n      pop\n        /* \"@openzeppelin/contracts/token/ERC20/utils/SafeERC20.sol\":8532:8928  {... */\n      pop\n        /* \"@openzeppelin/contracts/token/ERC20/utils/SafeERC20.sol\":8956:8957  0 */\n      0x00\n        /* \"@openzeppelin/contracts/token/ERC20/utils/SafeERC20.sol\":8942:8952  returnSize */\n      dup3\n        /* \"@openzeppelin/contracts/token/ERC20/utils/SafeERC20.sol\":8942:8957  returnSize == 0 */\n      eq\n        /* \"@openzeppelin/contracts/token/ERC20/utils/SafeERC20.sol\":8942:9010  returnSize == 0 ? address(token).code.length == 0 : returnValue != 1 */\n      tag_260\n      jumpi\n        /* \"@openzeppelin/contracts/token/ERC20/utils/SafeERC20.sol\":9009:9010  1 */\n      0x01\n        /* \"@openzeppelin/contracts/token/ERC20/utils/SafeERC20.sol\":8994:9005  returnValue */\n      dup2\n        /* \"@openzeppelin/contracts/token/ERC20/utils/SafeERC20.sol\":8994:9010  returnValue != 1 */\n      eq\n      iszero\n        /* \"@openzeppelin/contracts/token/ERC20/utils/SafeERC20.sol\":8942:9010  returnSize == 0 ? address(token).code.length == 0 : returnValue != 1 */\n      jump(tag_261)\n    tag_260:\n        /* \"@openzeppelin/contracts/token/ERC20/utils/SafeERC20.sol\":8990:8991  0 */\n      0x00\n        /* \"@openzeppelin/contracts/token/ERC20/utils/SafeERC20.sol\":8968:8973  token */\n      dup5\n        /* \"@openzeppelin/contracts/token/ERC20/utils/SafeERC20.sol\":8960:8986  address(token).code.length */\n      0xffffffffffffffffffffffffffffffffffffffff\n      and\n      extcodesize\n        /* \"@openzeppelin/contracts/token/ERC20/utils/SafeERC20.sol\":8960:8991  address(token).code.length == 0 */\n      eq\n        /* \"@openzeppelin/contracts/token/ERC20/utils/SafeERC20.sol\":8942:9010  returnSize == 0 ? address(token).code.length == 0 : returnValue != 1 */\n    tag_261:\n        /* \"@openzeppelin/contracts/token/ERC20/utils/SafeERC20.sol\":8938:9084  if (returnSize == 0 ? address(token).code.length == 0 : returnValue != 1) {... */\n      iszero\n      tag_262\n      jumpi\n        /* \"@openzeppelin/contracts/token/ERC20/utils/SafeERC20.sol\":9066:9071  token */\n      dup4\n        /* \"@openzeppelin/contracts/token/ERC20/utils/SafeERC20.sol\":9033:9073  SafeERC20FailedOperation(address(token)) */\n      mload(0x40)\n      0x5274afe700000000000000000000000000000000000000000000000000000000\n      dup2\n      mstore\n      0x04\n      add\n      tag_263\n      swap2\n      swap1\n      tag_70\n      jump\t// in\n    tag_263:\n      mload(0x40)\n      dup1\n      swap2\n      sub\n      swap1\n      revert\n        /* \"@openzeppelin/contracts/token/ERC20/utils/SafeERC20.sol\":8938:9084  if (returnSize == 0 ? address(token).code.length == 0 : returnValue != 1) {... */\n    tag_262:\n        /* \"@openzeppelin/contracts/token/ERC20/utils/SafeERC20.sol\":8440:9090  {... */\n      pop\n      pop\n        /* \"@openzeppelin/contracts/token/ERC20/utils/SafeERC20.sol\":8370:9090  function _callOptionalReturn(IERC20 token, bytes memory data) private {... */\n      pop\n      pop\n      jump\t// out\n        /* \"@openzeppelin/contracts/utils/Context.sol\":656:752  function _msgSender() internal view virtual returns (address) {... */\n    tag_248:\n        /* \"@openzeppelin/contracts/utils/Context.sol\":709:716  address */\n      0x00\n        /* \"@openzeppelin/contracts/utils/Context.sol\":735:745  msg.sender */\n      caller\n        /* \"@openzeppelin/contracts/utils/Context.sol\":728:745  return msg.sender */\n      swap1\n      pop\n        /* \"@openzeppelin/contracts/utils/Context.sol\":656:752  function _msgSender() internal view virtual returns (address) {... */\n      swap1\n      jump\t// out\n        /* \"#utility.yul\":88:205   */\n    tag_266:\n        /* \"#utility.yul\":197:198   */\n      0x00\n        /* \"#utility.yul\":194:195   */\n      0x00\n        /* \"#utility.yul\":187:199   */\n      revert\n        /* \"#utility.yul\":334:460   */\n    tag_268:\n        /* \"#utility.yul\":371:378   */\n      0x00\n        /* \"#utility.yul\":411:453   */\n      0xffffffffffffffffffffffffffffffffffffffff\n        /* \"#utility.yul\":404:409   */\n      dup3\n        /* \"#utility.yul\":400:454   */\n      and\n        /* \"#utility.yul\":389:454   */\n      swap1\n      pop\n        /* \"#utility.yul\":334:460   */\n      swap2\n      swap1\n      pop\n      jump\t// out\n        /* \"#utility.yul\":466:562   */\n    tag_269:\n        /* \"#utility.yul\":503:510   */\n      0x00\n        /* \"#utility.yul\":532:556   */\n      tag_316\n        /* \"#utility.yul\":550:555   */\n      dup3\n        /* \"#utility.yul\":532:556   */\n      tag_268\n      jump\t// in\n    tag_316:\n        /* \"#utility.yul\":521:556   */\n      swap1\n      pop\n        /* \"#utility.yul\":466:562   */\n      swap2\n      swap1\n      pop\n      jump\t// out\n        /* \"#utility.yul\":568:690   */\n    tag_270:\n        /* \"#utility.yul\":641:665   */\n      tag_318\n        /* \"#utility.yul\":659:664   */\n      dup2\n        /* \"#utility.yul\":641:665   */\n      tag_269\n      jump\t// in\n    tag_318:\n        /* \"#utility.yul\":634:639   */\n      dup2\n        /* \"#utility.yul\":631:666   */\n      eq\n        /* \"#utility.yul\":621:684   */\n      tag_319\n      jumpi\n        /* \"#utility.yul\":680:681   */\n      0x00\n        /* \"#utility.yul\":677:678   */\n      0x00\n        /* \"#utility.yul\":670:682   */\n      revert\n        /* \"#utility.yul\":621:684   */\n    tag_319:\n        /* \"#utility.yul\":568:690   */\n      pop\n      jump\t// out\n        /* \"#utility.yul\":696:835   */\n    tag_271:\n        /* \"#utility.yul\":742:747   */\n      0x00\n        /* \"#utility.yul\":780:786   */\n      dup2\n        /* \"#utility.yul\":767:787   */\n      calldataload\n        /* \"#utility.yul\":758:787   */\n      swap1\n      pop\n        /* \"#utility.yul\":796:829   */\n      tag_321\n        /* \"#utility.yul\":823:828   */\n      dup2\n        /* \"#utility.yul\":796:829   */\n      tag_270\n      jump\t// in\n    tag_321:\n        /* \"#utility.yul\":696:835   */\n      swap3\n      swap2\n      pop\n      pop\n      jump\t// out\n        /* \"#utility.yul\":841:1170   */\n    tag_27:\n        /* \"#utility.yul\":900:906   */\n      0x00\n        /* \"#utility.yul\":949:951   */\n      0x20\n        /* \"#utility.yul\":937:946   */\n      dup3\n        /* \"#utility.yul\":928:935   */\n      dup5\n        /* \"#utility.yul\":924:947   */\n      sub\n        /* \"#utility.yul\":920:952   */\n      slt\n        /* \"#utility.yul\":917:1036   */\n      iszero\n      tag_323\n      jumpi\n        /* \"#utility.yul\":955:1034   */\n      tag_324\n      tag_266\n      jump\t// in\n    tag_324:\n        /* \"#utility.yul\":917:1036   */\n    tag_323:\n        /* \"#utility.yul\":1075:1076   */\n      0x00\n        /* \"#utility.yul\":1100:1153   */\n      tag_325\n        /* \"#utility.yul\":1145:1152   */\n      dup5\n        /* \"#utility.yul\":1136:1142   */\n      dup3\n        /* \"#utility.yul\":1125:1134   */\n      dup6\n        /* \"#utility.yul\":1121:1143   */\n      add\n        /* \"#utility.yul\":1100:1153   */\n      tag_271\n      jump\t// in\n    tag_325:\n        /* \"#utility.yul\":1090:1153   */\n      swap2\n      pop\n        /* \"#utility.yul\":1046:1163   */\n      pop\n        /* \"#utility.yul\":841:1170   */\n      swap3\n      swap2\n      pop\n      pop\n      jump\t// out\n        /* \"#utility.yul\":1176:1253   */\n    tag_272:\n        /* \"#utility.yul\":1213:1220   */\n      0x00\n        /* \"#utility.yul\":1242:1247   */\n      dup2\n        /* \"#utility.yul\":1231:1247   */\n      swap1\n      pop\n        /* \"#utility.yul\":1176:1253   */\n      swap2\n      swap1\n      pop\n      jump\t// out\n        /* \"#utility.yul\":1259:1377   */\n    tag_273:\n        /* \"#utility.yul\":1346:1370   */\n      tag_328\n        /* \"#utility.yul\":1364:1369   */\n      dup2\n        /* \"#utility.yul\":1346:1370   */\n      tag_272\n      jump\t// in\n    tag_328:\n        /* \"#utility.yul\":1341:1344   */\n      dup3\n        /* \"#utility.yul\":1334:1371   */\n      mstore\n        /* \"#utility.yul\":1259:1377   */\n      pop\n      pop\n      jump\t// out\n        /* \"#utility.yul\":1383:1605   */\n    tag_30:\n        /* \"#utility.yul\":1476:1480   */\n      0x00\n        /* \"#utility.yul\":1514:1516   */\n      0x20\n        /* \"#utility.yul\":1503:1512   */\n      dup3\n        /* \"#utility.yul\":1499:1517   */\n      add\n        /* \"#utility.yul\":1491:1517   */\n      swap1\n      pop\n        /* \"#utility.yul\":1527:1598   */\n      tag_330\n        /* \"#utility.yul\":1595:1596   */\n      0x00\n        /* \"#utility.yul\":1584:1593   */\n      dup4\n        /* \"#utility.yul\":1580:1597   */\n      add\n        /* \"#utility.yul\":1571:1577   */\n      dup5\n        /* \"#utility.yul\":1527:1598   */\n      tag_273\n      jump\t// in\n    tag_330:\n        /* \"#utility.yul\":1383:1605   */\n      swap3\n      swap2\n      pop\n      pop\n      jump\t// out\n        /* \"#utility.yul\":1611:1725   */\n    tag_274:\n        /* \"#utility.yul\":1678:1684   */\n      0x00\n        /* \"#utility.yul\":1712:1717   */\n      dup2\n        /* \"#utility.yul\":1706:1718   */\n      mload\n        /* \"#utility.yul\":1696:1718   */\n      swap1\n      pop\n        /* \"#utility.yul\":1611:1725   */\n      swap2\n      swap1\n      pop\n      jump\t// out\n        /* \"#utility.yul\":1731:1915   */\n    tag_275:\n        /* \"#utility.yul\":1830:1841   */\n      0x00\n        /* \"#utility.yul\":1864:1870   */\n      dup3\n        /* \"#utility.yul\":1859:1862   */\n      dup3\n        /* \"#utility.yul\":1852:1871   */\n      mstore\n        /* \"#utility.yul\":1904:1908   */\n      0x20\n        /* \"#utility.yul\":1899:1902   */\n      dup3\n        /* \"#utility.yul\":1895:1909   */\n      add\n        /* \"#utility.yul\":1880:1909   */\n      swap1\n      pop\n        /* \"#utility.yul\":1731:1915   */\n      swap3\n      swap2\n      pop\n      pop\n      jump\t// out\n        /* \"#utility.yul\":1921:2053   */\n    tag_276:\n        /* \"#utility.yul\":1988:1992   */\n      0x00\n        /* \"#utility.yul\":2011:2014   */\n      dup2\n        /* \"#utility.yul\":2003:2014   */\n      swap1\n      pop\n        /* \"#utility.yul\":2041:2045   */\n      0x20\n        /* \"#utility.yul\":2036:2039   */\n      dup3\n        /* \"#utility.yul\":2032:2046   */\n      add\n        /* \"#utility.yul\":2024:2046   */\n      swap1\n      pop\n        /* \"#utility.yul\":1921:2053   */\n      swap2\n      swap1\n      pop\n      jump\t// out\n        /* \"#utility.yul\":2059:2167   */\n    tag_277:\n        /* \"#utility.yul\":2136:2160   */\n      tag_335\n        /* \"#utility.yul\":2154:2159   */\n      dup2\n        /* \"#utility.yul\":2136:2160   */\n      tag_269\n      jump\t// in\n    tag_335:\n        /* \"#utility.yul\":2131:2134   */\n      dup3\n        /* \"#utility.yul\":2124:2161   */\n      mstore\n        /* \"#utility.yul\":2059:2167   */\n      pop\n      pop\n      jump\t// out\n        /* \"#utility.yul\":2173:2352   */\n    tag_278:\n        /* \"#utility.yul\":2242:2252   */\n      0x00\n        /* \"#utility.yul\":2263:2309   */\n      tag_337\n        /* \"#utility.yul\":2305:2308   */\n      dup4\n        /* \"#utility.yul\":2297:2303   */\n      dup4\n        /* \"#utility.yul\":2263:2309   */\n      tag_277\n      jump\t// in\n    tag_337:\n        /* \"#utility.yul\":2341:2345   */\n      0x20\n        /* \"#utility.yul\":2336:2339   */\n      dup4\n        /* \"#utility.yul\":2332:2346   */\n      add\n        /* \"#utility.yul\":2318:2346   */\n      swap1\n      pop\n        /* \"#utility.yul\":2173:2352   */\n      swap3\n      swap2\n      pop\n      pop\n      jump\t// out\n        /* \"#utility.yul\":2358:2471   */\n    tag_279:\n        /* \"#utility.yul\":2428:2432   */\n      0x00\n        /* \"#utility.yul\":2460:2464   */\n      0x20\n        /* \"#utility.yul\":2455:2458   */\n      dup3\n        /* \"#utility.yul\":2451:2465   */\n      add\n        /* \"#utility.yul\":2443:2465   */\n      swap1\n      pop\n        /* \"#utility.yul\":2358:2471   */\n      swap2\n      swap1\n      pop\n      jump\t// out\n        /* \"#utility.yul\":2507:3239   */\n    tag_280:\n        /* \"#utility.yul\":2626:2629   */\n      0x00\n        /* \"#utility.yul\":2655:2709   */\n      tag_340\n        /* \"#utility.yul\":2703:2708   */\n      dup3\n        /* \"#utility.yul\":2655:2709   */\n      tag_274\n      jump\t// in\n    tag_340:\n        /* \"#utility.yul\":2725:2811   */\n      tag_341\n        /* \"#utility.yul\":2804:2810   */\n      dup2\n        /* \"#utility.yul\":2799:2802   */\n      dup6\n        /* \"#utility.yul\":2725:2811   */\n      tag_275\n      jump\t// in\n    tag_341:\n        /* \"#utility.yul\":2718:2811   */\n      swap4\n      pop\n        /* \"#utility.yul\":2835:2891   */\n      tag_342\n        /* \"#utility.yul\":2885:2890   */\n      dup4\n        /* \"#utility.yul\":2835:2891   */\n      tag_276\n      jump\t// in\n    tag_342:\n        /* \"#utility.yul\":2914:2921   */\n      dup1\n        /* \"#utility.yul\":2945:2946   */\n      0x00\n        /* \"#utility.yul\":2930:3214   */\n    tag_343:\n        /* \"#utility.yul\":2955:2961   */\n      dup4\n        /* \"#utility.yul\":2952:2953   */\n      dup2\n        /* \"#utility.yul\":2949:2962   */\n      lt\n        /* \"#utility.yul\":2930:3214   */\n      iszero\n      tag_345\n      jumpi\n        /* \"#utility.yul\":3031:3037   */\n      dup2\n        /* \"#utility.yul\":3025:3038   */\n      mload\n        /* \"#utility.yul\":3058:3121   */\n      tag_346\n        /* \"#utility.yul\":3117:3120   */\n      dup9\n        /* \"#utility.yul\":3102:3115   */\n      dup3\n        /* \"#utility.yul\":3058:3121   */\n      tag_278\n      jump\t// in\n    tag_346:\n        /* \"#utility.yul\":3051:3121   */\n      swap8\n      pop\n        /* \"#utility.yul\":3144:3204   */\n      tag_347\n        /* \"#utility.yul\":3197:3203   */\n      dup4\n        /* \"#utility.yul\":3144:3204   */\n      tag_279\n      jump\t// in\n    tag_347:\n        /* \"#utility.yul\":3134:3204   */\n      swap3\n      pop\n        /* \"#utility.yul\":2990:3214   */\n      pop\n        /* \"#utility.yul\":2977:2978   */\n      0x01\n        /* \"#utility.yul\":2974:2975   */\n      dup2\n        /* \"#utility.yul\":2970:2979   */\n      add\n        /* \"#utility.yul\":2965:2979   */\n      swap1\n      pop\n        /* \"#utility.yul\":2930:3214   */\n      jump(tag_343)\n    tag_345:\n        /* \"#utility.yul\":2934:2948   */\n      pop\n        /* \"#utility.yul\":3230:3233   */\n      dup6\n        /* \"#utility.yul\":3223:3233   */\n      swap4\n      pop\n        /* \"#utility.yul\":2631:3239   */\n      pop\n      pop\n      pop\n        /* \"#utility.yul\":2507:3239   */\n      swap3\n      swap2\n      pop\n      pop\n      jump\t// out\n        /* \"#utility.yul\":3245:3618   */\n    tag_53:\n        /* \"#utility.yul\":3388:3392   */\n      0x00\n        /* \"#utility.yul\":3426:3428   */\n      0x20\n        /* \"#utility.yul\":3415:3424   */\n      dup3\n        /* \"#utility.yul\":3411:3429   */\n      add\n        /* \"#utility.yul\":3403:3429   */\n      swap1\n      pop\n        /* \"#utility.yul\":3475:3484   */\n      dup2\n        /* \"#utility.yul\":3469:3473   */\n      dup2\n        /* \"#utility.yul\":3465:3485   */\n      sub\n        /* \"#utility.yul\":3461:3462   */\n      0x00\n        /* \"#utility.yul\":3450:3459   */\n      dup4\n        /* \"#utility.yul\":3446:3463   */\n      add\n        /* \"#utility.yul\":3439:3486   */\n      mstore\n        /* \"#utility.yul\":3503:3611   */\n      tag_349\n        /* \"#utility.yul\":3606:3610   */\n      dup2\n        /* \"#utility.yul\":3597:3603   */\n      dup5\n        /* \"#utility.yul\":3503:3611   */\n      tag_280\n      jump\t// in\n    tag_349:\n        /* \"#utility.yul\":3495:3611   */\n      swap1\n      pop\n        /* \"#utility.yul\":3245:3618   */\n      swap3\n      swap2\n      pop\n      pop\n      jump\t// out\n        /* \"#utility.yul\":3624:3684   */\n    tag_281:\n        /* \"#utility.yul\":3652:3655   */\n      0x00\n        /* \"#utility.yul\":3673:3678   */\n      dup2\n        /* \"#utility.yul\":3666:3678   */\n      swap1\n      pop\n        /* \"#utility.yul\":3624:3684   */\n      swap2\n      swap1\n      pop\n      jump\t// out\n        /* \"#utility.yul\":3690:3832   */\n    tag_282:\n        /* \"#utility.yul\":3740:3749   */\n      0x00\n        /* \"#utility.yul\":3773:3826   */\n      tag_352\n        /* \"#utility.yul\":3791:3825   */\n      tag_353\n        /* \"#utility.yul\":3800:3824   */\n      tag_354\n        /* \"#utility.yul\":3818:3823   */\n      dup5\n        /* \"#utility.yul\":3800:3824   */\n      tag_268\n      jump\t// in\n    tag_354:\n        /* \"#utility.yul\":3791:3825   */\n      tag_281\n      jump\t// in\n    tag_353:\n        /* \"#utility.yul\":3773:3826   */\n      tag_268\n      jump\t// in\n    tag_352:\n        /* \"#utility.yul\":3760:3826   */\n      swap1\n      pop\n        /* \"#utility.yul\":3690:3832   */\n      swap2\n      swap1\n      pop\n      jump\t// out\n        /* \"#utility.yul\":3838:3964   */\n    tag_283:\n        /* \"#utility.yul\":3888:3897   */\n      0x00\n        /* \"#utility.yul\":3921:3958   */\n      tag_356\n        /* \"#utility.yul\":3952:3957   */\n      dup3\n        /* \"#utility.yul\":3921:3958   */\n      tag_282\n      jump\t// in\n    tag_356:\n        /* \"#utility.yul\":3908:3958   */\n      swap1\n      pop\n        /* \"#utility.yul\":3838:3964   */\n      swap2\n      swap1\n      pop\n      jump\t// out\n        /* \"#utility.yul\":3970:4110   */\n    tag_284:\n        /* \"#utility.yul\":4034:4043   */\n      0x00\n        /* \"#utility.yul\":4067:4104   */\n      tag_358\n        /* \"#utility.yul\":4098:4103   */\n      dup3\n        /* \"#utility.yul\":4067:4104   */\n      tag_283\n      jump\t// in\n    tag_358:\n        /* \"#utility.yul\":4054:4104   */\n      swap1\n      pop\n        /* \"#utility.yul\":3970:4110   */\n      swap2\n      swap1\n      pop\n      jump\t// out\n        /* \"#utility.yul\":4116:4275   */\n    tag_285:\n        /* \"#utility.yul\":4217:4268   */\n      tag_360\n        /* \"#utility.yul\":4262:4267   */\n      dup2\n        /* \"#utility.yul\":4217:4268   */\n      tag_284\n      jump\t// in\n    tag_360:\n        /* \"#utility.yul\":4212:4215   */\n      dup3\n        /* \"#utility.yul\":4205:4269   */\n      mstore\n        /* \"#utility.yul\":4116:4275   */\n      pop\n      pop\n      jump\t// out\n        /* \"#utility.yul\":4281:4531   */\n    tag_66:\n        /* \"#utility.yul\":4388:4392   */\n      0x00\n        /* \"#utility.yul\":4426:4428   */\n      0x20\n        /* \"#utility.yul\":4415:4424   */\n      dup3\n        /* \"#utility.yul\":4411:4429   */\n      add\n        /* \"#utility.yul\":4403:4429   */\n      swap1\n      pop\n        /* \"#utility.yul\":4439:4524   */\n      tag_362\n        /* \"#utility.yul\":4521:4522   */\n      0x00\n        /* \"#utility.yul\":4510:4519   */\n      dup4\n        /* \"#utility.yul\":4506:4523   */\n      add\n        /* \"#utility.yul\":4497:4503   */\n      dup5\n        /* \"#utility.yul\":4439:4524   */\n      tag_285\n      jump\t// in\n    tag_362:\n        /* \"#utility.yul\":4281:4531   */\n      swap3\n      swap2\n      pop\n      pop\n      jump\t// out\n        /* \"#utility.yul\":4537:4655   */\n    tag_286:\n        /* \"#utility.yul\":4624:4648   */\n      tag_364\n        /* \"#utility.yul\":4642:4647   */\n      dup2\n        /* \"#utility.yul\":4624:4648   */\n      tag_269\n      jump\t// in\n    tag_364:\n        /* \"#utility.yul\":4619:4622   */\n      dup3\n        /* \"#utility.yul\":4612:4649   */\n      mstore\n        /* \"#utility.yul\":4537:4655   */\n      pop\n      pop\n      jump\t// out\n        /* \"#utility.yul\":4661:4883   */\n    tag_70:\n        /* \"#utility.yul\":4754:4758   */\n      0x00\n        /* \"#utility.yul\":4792:4794   */\n      0x20\n        /* \"#utility.yul\":4781:4790   */\n      dup3\n        /* \"#utility.yul\":4777:4795   */\n      add\n        /* \"#utility.yul\":4769:4795   */\n      swap1\n      pop\n        /* \"#utility.yul\":4805:4876   */\n      tag_366\n        /* \"#utility.yul\":4873:4874   */\n      0x00\n        /* \"#utility.yul\":4862:4871   */\n      dup4\n        /* \"#utility.yul\":4858:4875   */\n      add\n        /* \"#utility.yul\":4849:4855   */\n      dup5\n        /* \"#utility.yul\":4805:4876   */\n      tag_286\n      jump\t// in\n    tag_366:\n        /* \"#utility.yul\":4661:4883   */\n      swap3\n      swap2\n      pop\n      pop\n      jump\t// out\n        /* \"#utility.yul\":4889:5553   */\n    tag_75:\n        /* \"#utility.yul\":5094:5098   */\n      0x00\n        /* \"#utility.yul\":5132:5135   */\n      0xa0\n        /* \"#utility.yul\":5121:5130   */\n      dup3\n        /* \"#utility.yul\":5117:5136   */\n      add\n        /* \"#utility.yul\":5109:5136   */\n      swap1\n      pop\n        /* \"#utility.yul\":5146:5217   */\n      tag_368\n        /* \"#utility.yul\":5214:5215   */\n      0x00\n        /* \"#utility.yul\":5203:5212   */\n      dup4\n        /* \"#utility.yul\":5199:5216   */\n      add\n        /* \"#utility.yul\":5190:5196   */\n      dup9\n        /* \"#utility.yul\":5146:5217   */\n      tag_273\n      jump\t// in\n    tag_368:\n        /* \"#utility.yul\":5227:5299   */\n      tag_369\n        /* \"#utility.yul\":5295:5297   */\n      0x20\n        /* \"#utility.yul\":5284:5293   */\n      dup4\n        /* \"#utility.yul\":5280:5298   */\n      add\n        /* \"#utility.yul\":5271:5277   */\n      dup8\n        /* \"#utility.yul\":5227:5299   */\n      tag_273\n      jump\t// in\n    tag_369:\n        /* \"#utility.yul\":5309:5381   */\n      tag_370\n        /* \"#utility.yul\":5377:5379   */\n      0x40\n        /* \"#utility.yul\":5366:5375   */\n      dup4\n        /* \"#utility.yul\":5362:5380   */\n      add\n        /* \"#utility.yul\":5353:5359   */\n      dup7\n        /* \"#utility.yul\":5309:5381   */\n      tag_286\n      jump\t// in\n    tag_370:\n        /* \"#utility.yul\":5391:5463   */\n      tag_371\n        /* \"#utility.yul\":5459:5461   */\n      0x60\n        /* \"#utility.yul\":5448:5457   */\n      dup4\n        /* \"#utility.yul\":5444:5462   */\n      add\n        /* \"#utility.yul\":5435:5441   */\n      dup6\n        /* \"#utility.yul\":5391:5463   */\n      tag_273\n      jump\t// in\n    tag_371:\n        /* \"#utility.yul\":5473:5546   */\n      tag_372\n        /* \"#utility.yul\":5541:5544   */\n      0x80\n        /* \"#utility.yul\":5530:5539   */\n      dup4\n        /* \"#utility.yul\":5526:5545   */\n      add\n        /* \"#utility.yul\":5517:5523   */\n      dup5\n        /* \"#utility.yul\":5473:5546   */\n      tag_273\n      jump\t// in\n    tag_372:\n        /* \"#utility.yul\":4889:5553   */\n      swap7\n      swap6\n      pop\n      pop\n      pop\n      pop\n      pop\n      pop\n      jump\t// out\n        /* \"#utility.yul\":5559:5681   */\n    tag_287:\n        /* \"#utility.yul\":5632:5656   */\n      tag_374\n        /* \"#utility.yul\":5650:5655   */\n      dup2\n        /* \"#utility.yul\":5632:5656   */\n      tag_272\n      jump\t// in\n    tag_374:\n        /* \"#utility.yul\":5625:5630   */\n      dup2\n        /* \"#utility.yul\":5622:5657   */\n      eq\n        /* \"#utility.yul\":5612:5675   */\n      tag_375\n      jumpi\n        /* \"#utility.yul\":5671:5672   */\n      0x00\n        /* \"#utility.yul\":5668:5669   */\n      0x00\n        /* \"#utility.yul\":5661:5673   */\n      revert\n        /* \"#utility.yul\":5612:5675   */\n    tag_375:\n        /* \"#utility.yul\":5559:5681   */\n      pop\n      jump\t// out\n        /* \"#utility.yul\":5687:5826   */\n    tag_288:\n        /* \"#utility.yul\":5733:5738   */\n      0x00\n        /* \"#utility.yul\":5771:5777   */\n      dup2\n        /* \"#utility.yul\":5758:5778   */\n      calldataload\n        /* \"#utility.yul\":5749:5778   */\n      swap1\n      pop\n        /* \"#utility.yul\":5787:5820   */\n      tag_377\n        /* \"#utility.yul\":5814:5819   */\n      dup2\n        /* \"#utility.yul\":5787:5820   */\n      tag_287\n      jump\t// in\n    tag_377:\n        /* \"#utility.yul\":5687:5826   */\n      swap3\n      swap2\n      pop\n      pop\n      jump\t// out\n        /* \"#utility.yul\":5832:6306   */\n    tag_82:\n        /* \"#utility.yul\":5900:5906   */\n      0x00\n        /* \"#utility.yul\":5908:5914   */\n      0x00\n        /* \"#utility.yul\":5957:5959   */\n      0x40\n        /* \"#utility.yul\":5945:5954   */\n      dup4\n        /* \"#utility.yul\":5936:5943   */\n      dup6\n        /* \"#utility.yul\":5932:5955   */\n      sub\n        /* \"#utility.yul\":5928:5960   */\n      slt\n        /* \"#utility.yul\":5925:6044   */\n      iszero\n      tag_379\n      jumpi\n        /* \"#utility.yul\":5963:6042   */\n      tag_380\n      tag_266\n      jump\t// in\n    tag_380:\n        /* \"#utility.yul\":5925:6044   */\n    tag_379:\n        /* \"#utility.yul\":6083:6084   */\n      0x00\n        /* \"#utility.yul\":6108:6161   */\n      tag_381\n        /* \"#utility.yul\":6153:6160   */\n      dup6\n        /* \"#utility.yul\":6144:6150   */\n      dup3\n        /* \"#utility.yul\":6133:6142   */\n      dup7\n        /* \"#utility.yul\":6129:6151   */\n      add\n        /* \"#utility.yul\":6108:6161   */\n      tag_271\n      jump\t// in\n    tag_381:\n        /* \"#utility.yul\":6098:6161   */\n      swap3\n      pop\n        /* \"#utility.yul\":6054:6171   */\n      pop\n        /* \"#utility.yul\":6210:6212   */\n      0x20\n        /* \"#utility.yul\":6236:6289   */\n      tag_382\n        /* \"#utility.yul\":6281:6288   */\n      dup6\n        /* \"#utility.yul\":6272:6278   */\n      dup3\n        /* \"#utility.yul\":6261:6270   */\n      dup7\n        /* \"#utility.yul\":6257:6279   */\n      add\n        /* \"#utility.yul\":6236:6289   */\n      tag_288\n      jump\t// in\n    tag_382:\n        /* \"#utility.yul\":6226:6289   */\n      swap2\n      pop\n        /* \"#utility.yul\":6181:6299   */\n      pop\n        /* \"#utility.yul\":5832:6306   */\n      swap3\n      pop\n      swap3\n      swap1\n      pop\n      jump\t// out\n        /* \"#utility.yul\":6312:6786   */\n    tag_87:\n        /* \"#utility.yul\":6380:6386   */\n      0x00\n        /* \"#utility.yul\":6388:6394   */\n      0x00\n        /* \"#utility.yul\":6437:6439   */\n      0x40\n        /* \"#utility.yul\":6425:6434   */\n      dup4\n        /* \"#utility.yul\":6416:6423   */\n      dup6\n        /* \"#utility.yul\":6412:6435   */\n      sub\n        /* \"#utility.yul\":6408:6440   */\n      slt\n        /* \"#utility.yul\":6405:6524   */\n      iszero\n      tag_384\n      jumpi\n        /* \"#utility.yul\":6443:6522   */\n      tag_385\n      tag_266\n      jump\t// in\n    tag_385:\n        /* \"#utility.yul\":6405:6524   */\n    tag_384:\n        /* \"#utility.yul\":6563:6564   */\n      0x00\n        /* \"#utility.yul\":6588:6641   */\n      tag_386\n        /* \"#utility.yul\":6633:6640   */\n      dup6\n        /* \"#utility.yul\":6624:6630   */\n      dup3\n        /* \"#utility.yul\":6613:6622   */\n      dup7\n        /* \"#utility.yul\":6609:6631   */\n      add\n        /* \"#utility.yul\":6588:6641   */\n      tag_288\n      jump\t// in\n    tag_386:\n        /* \"#utility.yul\":6578:6641   */\n      swap3\n      pop\n        /* \"#utility.yul\":6534:6651   */\n      pop\n        /* \"#utility.yul\":6690:6692   */\n      0x20\n        /* \"#utility.yul\":6716:6769   */\n      tag_387\n        /* \"#utility.yul\":6761:6768   */\n      dup6\n        /* \"#utility.yul\":6752:6758   */\n      dup3\n        /* \"#utility.yul\":6741:6750   */\n      dup7\n        /* \"#utility.yul\":6737:6759   */\n      add\n        /* \"#utility.yul\":6716:6769   */\n      tag_271\n      jump\t// in\n    tag_387:\n        /* \"#utility.yul\":6706:6769   */\n      swap2\n      pop\n        /* \"#utility.yul\":6661:6779   */\n      pop\n        /* \"#utility.yul\":6312:6786   */\n      swap3\n      pop\n      swap3\n      swap1\n      pop\n      jump\t// out\n        /* \"#utility.yul\":6792:6933   */\n    tag_289:\n        /* \"#utility.yul\":6857:6866   */\n      0x00\n        /* \"#utility.yul\":6890:6927   */\n      tag_389\n        /* \"#utility.yul\":6921:6926   */\n      dup3\n        /* \"#utility.yul\":6890:6927   */\n      tag_283\n      jump\t// in\n    tag_389:\n        /* \"#utility.yul\":6877:6927   */\n      swap1\n      pop\n        /* \"#utility.yul\":6792:6933   */\n      swap2\n      swap1\n      pop\n      jump\t// out\n        /* \"#utility.yul\":6939:7100   */\n    tag_290:\n        /* \"#utility.yul\":7041:7093   */\n      tag_391\n        /* \"#utility.yul\":7087:7092   */\n      dup2\n        /* \"#utility.yul\":7041:7093   */\n      tag_289\n      jump\t// in\n    tag_391:\n        /* \"#utility.yul\":7036:7039   */\n      dup3\n        /* \"#utility.yul\":7029:7094   */\n      mstore\n        /* \"#utility.yul\":6939:7100   */\n      pop\n      pop\n      jump\t// out\n        /* \"#utility.yul\":7106:7358   */\n    tag_95:\n        /* \"#utility.yul\":7214:7218   */\n      0x00\n        /* \"#utility.yul\":7252:7254   */\n      0x20\n        /* \"#utility.yul\":7241:7250   */\n      dup3\n        /* \"#utility.yul\":7237:7255   */\n      add\n        /* \"#utility.yul\":7229:7255   */\n      swap1\n      pop\n        /* \"#utility.yul\":7265:7351   */\n      tag_393\n        /* \"#utility.yul\":7348:7349   */\n      0x00\n        /* \"#utility.yul\":7337:7346   */\n      dup4\n        /* \"#utility.yul\":7333:7350   */\n      add\n        /* \"#utility.yul\":7324:7330   */\n      dup5\n        /* \"#utility.yul\":7265:7351   */\n      tag_290\n      jump\t// in\n    tag_393:\n        /* \"#utility.yul\":7106:7358   */\n      swap3\n      swap2\n      pop\n      pop\n      jump\t// out\n        /* \"#utility.yul\":7364:7544   */\n    tag_291:\n        /* \"#utility.yul\":7412:7489   */\n      0x4e487b7100000000000000000000000000000000000000000000000000000000\n        /* \"#utility.yul\":7409:7410   */\n      0x00\n        /* \"#utility.yul\":7402:7490   */\n      mstore\n        /* \"#utility.yul\":7509:7513   */\n      0x11\n        /* \"#utility.yul\":7506:7507   */\n      0x04\n        /* \"#utility.yul\":7499:7514   */\n      mstore\n        /* \"#utility.yul\":7533:7537   */\n      0x24\n        /* \"#utility.yul\":7530:7531   */\n      0x00\n        /* \"#utility.yul\":7523:7538   */\n      revert\n        /* \"#utility.yul\":7550:7741   */\n    tag_98:\n        /* \"#utility.yul\":7590:7593   */\n      0x00\n        /* \"#utility.yul\":7609:7629   */\n      tag_396\n        /* \"#utility.yul\":7627:7628   */\n      dup3\n        /* \"#utility.yul\":7609:7629   */\n      tag_272\n      jump\t// in\n    tag_396:\n        /* \"#utility.yul\":7604:7629   */\n      swap2\n      pop\n        /* \"#utility.yul\":7643:7663   */\n      tag_397\n        /* \"#utility.yul\":7661:7662   */\n      dup4\n        /* \"#utility.yul\":7643:7663   */\n      tag_272\n      jump\t// in\n    tag_397:\n        /* \"#utility.yul\":7638:7663   */\n      swap3\n      pop\n        /* \"#utility.yul\":7686:7687   */\n      dup3\n        /* \"#utility.yul\":7683:7684   */\n      dup3\n        /* \"#utility.yul\":7679:7688   */\n      add\n        /* \"#utility.yul\":7672:7688   */\n      swap1\n      pop\n        /* \"#utility.yul\":7707:7710   */\n      dup1\n        /* \"#utility.yul\":7704:7705   */\n      dup3\n        /* \"#utility.yul\":7701:7711   */\n      gt\n        /* \"#utility.yul\":7698:7734   */\n      iszero\n      tag_398\n      jumpi\n        /* \"#utility.yul\":7714:7732   */\n      tag_399\n      tag_291\n      jump\t// in\n    tag_399:\n        /* \"#utility.yul\":7698:7734   */\n    tag_398:\n        /* \"#utility.yul\":7550:7741   */\n      swap3\n      swap2\n      pop\n      pop\n      jump\t// out\n        /* \"#utility.yul\":7747:7941   */\n    tag_101:\n        /* \"#utility.yul\":7787:7791   */\n      0x00\n        /* \"#utility.yul\":7807:7827   */\n      tag_401\n        /* \"#utility.yul\":7825:7826   */\n      dup3\n        /* \"#utility.yul\":7807:7827   */\n      tag_272\n      jump\t// in\n    tag_401:\n        /* \"#utility.yul\":7802:7827   */\n      swap2\n      pop\n        /* \"#utility.yul\":7841:7861   */\n      tag_402\n        /* \"#utility.yul\":7859:7860   */\n      dup4\n        /* \"#utility.yul\":7841:7861   */\n      tag_272\n      jump\t// in\n    tag_402:\n        /* \"#utility.yul\":7836:7861   */\n      swap3\n      pop\n        /* \"#utility.yul\":7885:7886   */\n      dup3\n        /* \"#utility.yul\":7882:7883   */\n      dup3\n        /* \"#utility.yul\":7878:7887   */\n      sub\n        /* \"#utility.yul\":7870:7887   */\n      swap1\n      pop\n        /* \"#utility.yul\":7909:7910   */\n      dup2\n        /* \"#utility.yul\":7903:7907   */\n      dup2\n        /* \"#utility.yul\":7900:7911   */\n      gt\n        /* \"#utility.yul\":7897:7934   */\n      iszero\n      tag_403\n      jumpi\n        /* \"#utility.yul\":7914:7932   */\n      tag_404\n      tag_291\n      jump\t// in\n    tag_404:\n        /* \"#utility.yul\":7897:7934   */\n    tag_403:\n        /* \"#utility.yul\":7747:7941   */\n      swap3\n      swap2\n      pop\n      pop\n      jump\t// out\n        /* \"#utility.yul\":7947:8116   */\n    tag_292:\n        /* \"#utility.yul\":8031:8042   */\n      0x00\n        /* \"#utility.yul\":8065:8071   */\n      dup3\n        /* \"#utility.yul\":8060:8063   */\n      dup3\n        /* \"#utility.yul\":8053:8072   */\n      mstore\n        /* \"#utility.yul\":8105:8109   */\n      0x20\n        /* \"#utility.yul\":8100:8103   */\n      dup3\n        /* \"#utility.yul\":8096:8110   */\n      add\n        /* \"#utility.yul\":8081:8110   */\n      swap1\n      pop\n        /* \"#utility.yul\":7947:8116   */\n      swap3\n      swap2\n      pop\n      pop\n      jump\t// out\n        /* \"#utility.yul\":8122:8285   */\n    tag_293:\n        /* \"#utility.yul\":8262:8277   */\n      0x456d7074792062616c616e636500000000000000000000000000000000000000\n        /* \"#utility.yul\":8258:8259   */\n      0x00\n        /* \"#utility.yul\":8250:8256   */\n      dup3\n        /* \"#utility.yul\":8246:8260   */\n      add\n        /* \"#utility.yul\":8239:8278   */\n      mstore\n        /* \"#utility.yul\":8122:8285   */\n      pop\n      jump\t// out\n        /* \"#utility.yul\":8291:8657   */\n    tag_294:\n        /* \"#utility.yul\":8433:8436   */\n      0x00\n        /* \"#utility.yul\":8454:8521   */\n      tag_408\n        /* \"#utility.yul\":8518:8520   */\n      0x0d\n        /* \"#utility.yul\":8513:8516   */\n      dup4\n        /* \"#utility.yul\":8454:8521   */\n      tag_292\n      jump\t// in\n    tag_408:\n        /* \"#utility.yul\":8447:8521   */\n      swap2\n      pop\n        /* \"#utility.yul\":8530:8623   */\n      tag_409\n        /* \"#utility.yul\":8619:8622   */\n      dup3\n        /* \"#utility.yul\":8530:8623   */\n      tag_293\n      jump\t// in\n    tag_409:\n        /* \"#utility.yul\":8648:8650   */\n      0x20\n        /* \"#utility.yul\":8643:8646   */\n      dup3\n        /* \"#utility.yul\":8639:8651   */\n      add\n        /* \"#utility.yul\":8632:8651   */\n      swap1\n      pop\n        /* \"#utility.yul\":8291:8657   */\n      swap2\n      swap1\n      pop\n      jump\t// out\n        /* \"#utility.yul\":8663:9082   */\n    tag_115:\n        /* \"#utility.yul\":8829:8833   */\n      0x00\n        /* \"#utility.yul\":8867:8869   */\n      0x20\n        /* \"#utility.yul\":8856:8865   */\n      dup3\n        /* \"#utility.yul\":8852:8870   */\n      add\n        /* \"#utility.yul\":8844:8870   */\n      swap1\n      pop\n        /* \"#utility.yul\":8916:8925   */\n      dup2\n        /* \"#utility.yul\":8910:8914   */\n      dup2\n        /* \"#utility.yul\":8906:8926   */\n      sub\n        /* \"#utility.yul\":8902:8903   */\n      0x00\n        /* \"#utility.yul\":8891:8900   */\n      dup4\n        /* \"#utility.yul\":8887:8904   */\n      add\n        /* \"#utility.yul\":8880:8927   */\n      mstore\n        /* \"#utility.yul\":8944:9075   */\n      tag_411\n        /* \"#utility.yul\":9070:9074   */\n      dup2\n        /* \"#utility.yul\":8944:9075   */\n      tag_294\n      jump\t// in\n    tag_411:\n        /* \"#utility.yul\":8936:9075   */\n      swap1\n      pop\n        /* \"#utility.yul\":8663:9082   */\n      swap2\n      swap1\n      pop\n      jump\t// out\n        /* \"#utility.yul\":9088:9231   */\n    tag_295:\n        /* \"#utility.yul\":9145:9150   */\n      0x00\n        /* \"#utility.yul\":9176:9182   */\n      dup2\n        /* \"#utility.yul\":9170:9183   */\n      mload\n        /* \"#utility.yul\":9161:9183   */\n      swap1\n      pop\n        /* \"#utility.yul\":9192:9225   */\n      tag_413\n        /* \"#utility.yul\":9219:9224   */\n      dup2\n        /* \"#utility.yul\":9192:9225   */\n      tag_287\n      jump\t// in\n    tag_413:\n        /* \"#utility.yul\":9088:9231   */\n      swap3\n      swap2\n      pop\n      pop\n      jump\t// out\n        /* \"#utility.yul\":9237:9588   */\n    tag_120:\n        /* \"#utility.yul\":9307:9313   */\n      0x00\n        /* \"#utility.yul\":9356:9358   */\n      0x20\n        /* \"#utility.yul\":9344:9353   */\n      dup3\n        /* \"#utility.yul\":9335:9342   */\n      dup5\n        /* \"#utility.yul\":9331:9354   */\n      sub\n        /* \"#utility.yul\":9327:9359   */\n      slt\n        /* \"#utility.yul\":9324:9443   */\n      iszero\n      tag_415\n      jumpi\n        /* \"#utility.yul\":9362:9441   */\n      tag_416\n      tag_266\n      jump\t// in\n    tag_416:\n        /* \"#utility.yul\":9324:9443   */\n    tag_415:\n        /* \"#utility.yul\":9482:9483   */\n      0x00\n        /* \"#utility.yul\":9507:9571   */\n      tag_417\n        /* \"#utility.yul\":9563:9570   */\n      dup5\n        /* \"#utility.yul\":9554:9560   */\n      dup3\n        /* \"#utility.yul\":9543:9552   */\n      dup6\n        /* \"#utility.yul\":9539:9561   */\n      add\n        /* \"#utility.yul\":9507:9571   */\n      tag_295\n      jump\t// in\n    tag_417:\n        /* \"#utility.yul\":9497:9571   */\n      swap2\n      pop\n        /* \"#utility.yul\":9453:9581   */\n      pop\n        /* \"#utility.yul\":9237:9588   */\n      swap3\n      swap2\n      pop\n      pop\n      jump\t// out\n        /* \"#utility.yul\":9594:9764   */\n    tag_296:\n        /* \"#utility.yul\":9734:9756   */\n      0x4d6f7270686f2052656465656d206661696c6564000000000000000000000000\n        /* \"#utility.yul\":9730:9731   */\n      0x00\n        /* \"#utility.yul\":9722:9728   */\n      dup3\n        /* \"#utility.yul\":9718:9732   */\n      add\n        /* \"#utility.yul\":9711:9757   */\n      mstore\n        /* \"#utility.yul\":9594:9764   */\n      pop\n      jump\t// out\n        /* \"#utility.yul\":9770:10136   */\n    tag_297:\n        /* \"#utility.yul\":9912:9915   */\n      0x00\n        /* \"#utility.yul\":9933:10000   */\n      tag_420\n        /* \"#utility.yul\":9997:9999   */\n      0x14\n        /* \"#utility.yul\":9992:9995   */\n      dup4\n        /* \"#utility.yul\":9933:10000   */\n      tag_292\n      jump\t// in\n    tag_420:\n        /* \"#utility.yul\":9926:10000   */\n      swap2\n      pop\n        /* \"#utility.yul\":10009:10102   */\n      tag_421\n        /* \"#utility.yul\":10098:10101   */\n      dup3\n        /* \"#utility.yul\":10009:10102   */\n      tag_296\n      jump\t// in\n    tag_421:\n        /* \"#utility.yul\":10127:10129   */\n      0x20\n        /* \"#utility.yul\":10122:10125   */\n      dup3\n        /* \"#utility.yul\":10118:10130   */\n      add\n        /* \"#utility.yul\":10111:10130   */\n      swap1\n      pop\n        /* \"#utility.yul\":9770:10136   */\n      swap2\n      swap1\n      pop\n      jump\t// out\n        /* \"#utility.yul\":10142:10561   */\n    tag_127:\n        /* \"#utility.yul\":10308:10312   */\n      0x00\n        /* \"#utility.yul\":10346:10348   */\n      0x20\n        /* \"#utility.yul\":10335:10344   */\n      dup3\n        /* \"#utility.yul\":10331:10349   */\n      add\n        /* \"#utility.yul\":10323:10349   */\n      swap1\n      pop\n        /* \"#utility.yul\":10395:10404   */\n      dup2\n        /* \"#utility.yul\":10389:10393   */\n      dup2\n        /* \"#utility.yul\":10385:10405   */\n      sub\n        /* \"#utility.yul\":10381:10382   */\n      0x00\n        /* \"#utility.yul\":10370:10379   */\n      dup4\n        /* \"#utility.yul\":10366:10383   */\n      add\n        /* \"#utility.yul\":10359:10406   */\n      mstore\n        /* \"#utility.yul\":10423:10554   */\n      tag_423\n        /* \"#utility.yul\":10549:10553   */\n      dup2\n        /* \"#utility.yul\":10423:10554   */\n      tag_297\n      jump\t// in\n    tag_423:\n        /* \"#utility.yul\":10415:10554   */\n      swap1\n      pop\n        /* \"#utility.yul\":10142:10561   */\n      swap2\n      swap1\n      pop\n      jump\t// out\n        /* \"#utility.yul\":10567:10977   */\n    tag_136:\n        /* \"#utility.yul\":10607:10614   */\n      0x00\n        /* \"#utility.yul\":10630:10650   */\n      tag_425\n        /* \"#utility.yul\":10648:10649   */\n      dup3\n        /* \"#utility.yul\":10630:10650   */\n      tag_272\n      jump\t// in\n    tag_425:\n        /* \"#utility.yul\":10625:10650   */\n      swap2\n      pop\n        /* \"#utility.yul\":10664:10684   */\n      tag_426\n        /* \"#utility.yul\":10682:10683   */\n      dup4\n        /* \"#utility.yul\":10664:10684   */\n      tag_272\n      jump\t// in\n    tag_426:\n        /* \"#utility.yul\":10659:10684   */\n      swap3\n      pop\n        /* \"#utility.yul\":10719:10720   */\n      dup3\n        /* \"#utility.yul\":10716:10717   */\n      dup3\n        /* \"#utility.yul\":10712:10721   */\n      mul\n        /* \"#utility.yul\":10741:10771   */\n      tag_427\n        /* \"#utility.yul\":10759:10770   */\n      dup2\n        /* \"#utility.yul\":10741:10771   */\n      tag_272\n      jump\t// in\n    tag_427:\n        /* \"#utility.yul\":10730:10771   */\n      swap2\n      pop\n        /* \"#utility.yul\":10920:10921   */\n      dup3\n        /* \"#utility.yul\":10911:10918   */\n      dup3\n        /* \"#utility.yul\":10907:10922   */\n      div\n        /* \"#utility.yul\":10904:10905   */\n      dup5\n        /* \"#utility.yul\":10901:10923   */\n      eq\n        /* \"#utility.yul\":10881:10882   */\n      dup4\n        /* \"#utility.yul\":10874:10883   */\n      iszero\n        /* \"#utility.yul\":10854:10937   */\n      or\n        /* \"#utility.yul\":10831:10970   */\n      tag_428\n      jumpi\n        /* \"#utility.yul\":10950:10968   */\n      tag_429\n      tag_291\n      jump\t// in\n    tag_429:\n        /* \"#utility.yul\":10831:10970   */\n    tag_428:\n        /* \"#utility.yul\":10615:10977   */\n      pop\n        /* \"#utility.yul\":10567:10977   */\n      swap3\n      swap2\n      pop\n      pop\n      jump\t// out\n        /* \"#utility.yul\":10983:11163   */\n    tag_298:\n        /* \"#utility.yul\":11031:11108   */\n      0x4e487b7100000000000000000000000000000000000000000000000000000000\n        /* \"#utility.yul\":11028:11029   */\n      0x00\n        /* \"#utility.yul\":11021:11109   */\n      mstore\n        /* \"#utility.yul\":11128:11132   */\n      0x12\n        /* \"#utility.yul\":11125:11126   */\n      0x04\n        /* \"#utility.yul\":11118:11133   */\n      mstore\n        /* \"#utility.yul\":11152:11156   */\n      0x24\n        /* \"#utility.yul\":11149:11150   */\n      0x00\n        /* \"#utility.yul\":11142:11157   */\n      revert\n        /* \"#utility.yul\":11169:11354   */\n    tag_138:\n        /* \"#utility.yul\":11209:11210   */\n      0x00\n        /* \"#utility.yul\":11226:11246   */\n      tag_432\n        /* \"#utility.yul\":11244:11245   */\n      dup3\n        /* \"#utility.yul\":11226:11246   */\n      tag_272\n      jump\t// in\n    tag_432:\n        /* \"#utility.yul\":11221:11246   */\n      swap2\n      pop\n        /* \"#utility.yul\":11260:11280   */\n      tag_433\n        /* \"#utility.yul\":11278:11279   */\n      dup4\n        /* \"#utility.yul\":11260:11280   */\n      tag_272\n      jump\t// in\n    tag_433:\n        /* \"#utility.yul\":11255:11280   */\n      swap3\n      pop\n        /* \"#utility.yul\":11299:11300   */\n      dup3\n        /* \"#utility.yul\":11289:11324   */\n      tag_434\n      jumpi\n        /* \"#utility.yul\":11304:11322   */\n      tag_435\n      tag_298\n      jump\t// in\n    tag_435:\n        /* \"#utility.yul\":11289:11324   */\n    tag_434:\n        /* \"#utility.yul\":11346:11347   */\n      dup3\n        /* \"#utility.yul\":11343:11344   */\n      dup3\n        /* \"#utility.yul\":11339:11348   */\n      div\n        /* \"#utility.yul\":11334:11348   */\n      swap1\n      pop\n        /* \"#utility.yul\":11169:11354   */\n      swap3\n      swap2\n      pop\n      pop\n      jump\t// out\n        /* \"#utility.yul\":11360:11692   */\n    tag_170:\n        /* \"#utility.yul\":11481:11485   */\n      0x00\n        /* \"#utility.yul\":11519:11521   */\n      0x40\n        /* \"#utility.yul\":11508:11517   */\n      dup3\n        /* \"#utility.yul\":11504:11522   */\n      add\n        /* \"#utility.yul\":11496:11522   */\n      swap1\n      pop\n        /* \"#utility.yul\":11532:11603   */\n      tag_437\n        /* \"#utility.yul\":11600:11601   */\n      0x00\n        /* \"#utility.yul\":11589:11598   */\n      dup4\n        /* \"#utility.yul\":11585:11602   */\n      add\n        /* \"#utility.yul\":11576:11582   */\n      dup6\n        /* \"#utility.yul\":11532:11603   */\n      tag_273\n      jump\t// in\n    tag_437:\n        /* \"#utility.yul\":11613:11685   */\n      tag_438\n        /* \"#utility.yul\":11681:11683   */\n      0x20\n        /* \"#utility.yul\":11670:11679   */\n      dup4\n        /* \"#utility.yul\":11666:11684   */\n      add\n        /* \"#utility.yul\":11657:11663   */\n      dup5\n        /* \"#utility.yul\":11613:11685   */\n      tag_273\n      jump\t// in\n    tag_438:\n        /* \"#utility.yul\":11360:11692   */\n      swap4\n      swap3\n      pop\n      pop\n      pop\n      jump\t// out\n        /* \"#utility.yul\":11698:11877   */\n    tag_299:\n        /* \"#utility.yul\":11838:11869   */\n      0x4d696e696d756d20696e766573746d656e742069732031302055534443000000\n        /* \"#utility.yul\":11834:11835   */\n      0x00\n        /* \"#utility.yul\":11826:11832   */\n      dup3\n        /* \"#utility.yul\":11822:11836   */\n      add\n        /* \"#utility.yul\":11815:11870   */\n      mstore\n        /* \"#utility.yul\":11698:11877   */\n      pop\n      jump\t// out\n        /* \"#utility.yul\":11883:12249   */\n    tag_300:\n        /* \"#utility.yul\":12025:12028   */\n      0x00\n        /* \"#utility.yul\":12046:12113   */\n      tag_441\n        /* \"#utility.yul\":12110:12112   */\n      0x1d\n        /* \"#utility.yul\":12105:12108   */\n      dup4\n        /* \"#utility.yul\":12046:12113   */\n      tag_292\n      jump\t// in\n    tag_441:\n        /* \"#utility.yul\":12039:12113   */\n      swap2\n      pop\n        /* \"#utility.yul\":12122:12215   */\n      tag_442\n        /* \"#utility.yul\":12211:12214   */\n      dup3\n        /* \"#utility.yul\":12122:12215   */\n      tag_299\n      jump\t// in\n    tag_442:\n        /* \"#utility.yul\":12240:12242   */\n      0x20\n        /* \"#utility.yul\":12235:12238   */\n      dup3\n        /* \"#utility.yul\":12231:12243   */\n      add\n        /* \"#utility.yul\":12224:12243   */\n      swap1\n      pop\n        /* \"#utility.yul\":11883:12249   */\n      swap2\n      swap1\n      pop\n      jump\t// out\n        /* \"#utility.yul\":12255:12674   */\n    tag_196:\n        /* \"#utility.yul\":12421:12425   */\n      0x00\n        /* \"#utility.yul\":12459:12461   */\n      0x20\n        /* \"#utility.yul\":12448:12457   */\n      dup3\n        /* \"#utility.yul\":12444:12462   */\n      add\n        /* \"#utility.yul\":12436:12462   */\n      swap1\n      pop\n        /* \"#utility.yul\":12508:12517   */\n      dup2\n        /* \"#utility.yul\":12502:12506   */\n      dup2\n        /* \"#utility.yul\":12498:12518   */\n      sub\n        /* \"#utility.yul\":12494:12495   */\n      0x00\n        /* \"#utility.yul\":12483:12492   */\n      dup4\n        /* \"#utility.yul\":12479:12496   */\n      add\n        /* \"#utility.yul\":12472:12519   */\n      mstore\n        /* \"#utility.yul\":12536:12667   */\n      tag_444\n        /* \"#utility.yul\":12662:12666   */\n      dup2\n        /* \"#utility.yul\":12536:12667   */\n      tag_300\n      jump\t// in\n    tag_444:\n        /* \"#utility.yul\":12528:12667   */\n      swap1\n      pop\n        /* \"#utility.yul\":12255:12674   */\n      swap2\n      swap1\n      pop\n      jump\t// out\n        /* \"#utility.yul\":12680:12846   */\n    tag_301:\n        /* \"#utility.yul\":12820:12838   */\n      0x4e6f2073656c662d726566657272616c00000000000000000000000000000000\n        /* \"#utility.yul\":12816:12817   */\n      0x00\n        /* \"#utility.yul\":12808:12814   */\n      dup3\n        /* \"#utility.yul\":12804:12818   */\n      add\n        /* \"#utility.yul\":12797:12839   */\n      mstore\n        /* \"#utility.yul\":12680:12846   */\n      pop\n      jump\t// out\n        /* \"#utility.yul\":12852:13218   */\n    tag_302:\n        /* \"#utility.yul\":12994:12997   */\n      0x00\n        /* \"#utility.yul\":13015:13082   */\n      tag_447\n        /* \"#utility.yul\":13079:13081   */\n      0x10\n        /* \"#utility.yul\":13074:13077   */\n      dup4\n        /* \"#utility.yul\":13015:13082   */\n      tag_292\n      jump\t// in\n    tag_447:\n        /* \"#utility.yul\":13008:13082   */\n      swap2\n      pop\n        /* \"#utility.yul\":13091:13184   */\n      tag_448\n        /* \"#utility.yul\":13180:13183   */\n      dup3\n        /* \"#utility.yul\":13091:13184   */\n      tag_301\n      jump\t// in\n    tag_448:\n        /* \"#utility.yul\":13209:13211   */\n      0x20\n        /* \"#utility.yul\":13204:13207   */\n      dup3\n        /* \"#utility.yul\":13200:13212   */\n      add\n        /* \"#utility.yul\":13193:13212   */\n      swap1\n      pop\n        /* \"#utility.yul\":12852:13218   */\n      swap2\n      swap1\n      pop\n      jump\t// out\n        /* \"#utility.yul\":13224:13643   */\n    tag_199:\n        /* \"#utility.yul\":13390:13394   */\n      0x00\n        /* \"#utility.yul\":13428:13430   */\n      0x20\n        /* \"#utility.yul\":13417:13426   */\n      dup3\n        /* \"#utility.yul\":13413:13431   */\n      add\n        /* \"#utility.yul\":13405:13431   */\n      swap1\n      pop\n        /* \"#utility.yul\":13477:13486   */\n      dup2\n        /* \"#utility.yul\":13471:13475   */\n      dup2\n        /* \"#utility.yul\":13467:13487   */\n      sub\n        /* \"#utility.yul\":13463:13464   */\n      0x00\n        /* \"#utility.yul\":13452:13461   */\n      dup4\n        /* \"#utility.yul\":13448:13465   */\n      add\n        /* \"#utility.yul\":13441:13488   */\n      mstore\n        /* \"#utility.yul\":13505:13636   */\n      tag_450\n        /* \"#utility.yul\":13631:13635   */\n      dup2\n        /* \"#utility.yul\":13505:13636   */\n      tag_302\n      jump\t// in\n    tag_450:\n        /* \"#utility.yul\":13497:13636   */\n      swap1\n      pop\n        /* \"#utility.yul\":13224:13643   */\n      swap2\n      swap1\n      pop\n      jump\t// out\n        /* \"#utility.yul\":13649:13981   */\n    tag_206:\n        /* \"#utility.yul\":13770:13774   */\n      0x00\n        /* \"#utility.yul\":13808:13810   */\n      0x40\n        /* \"#utility.yul\":13797:13806   */\n      dup3\n        /* \"#utility.yul\":13793:13811   */\n      add\n        /* \"#utility.yul\":13785:13811   */\n      swap1\n      pop\n        /* \"#utility.yul\":13821:13892   */\n      tag_452\n        /* \"#utility.yul\":13889:13890   */\n      0x00\n        /* \"#utility.yul\":13878:13887   */\n      dup4\n        /* \"#utility.yul\":13874:13891   */\n      add\n        /* \"#utility.yul\":13865:13871   */\n      dup6\n        /* \"#utility.yul\":13821:13892   */\n      tag_286\n      jump\t// in\n    tag_452:\n        /* \"#utility.yul\":13902:13974   */\n      tag_453\n        /* \"#utility.yul\":13970:13972   */\n      0x20\n        /* \"#utility.yul\":13959:13968   */\n      dup4\n        /* \"#utility.yul\":13955:13973   */\n      add\n        /* \"#utility.yul\":13946:13952   */\n      dup5\n        /* \"#utility.yul\":13902:13974   */\n      tag_273\n      jump\t// in\n    tag_453:\n        /* \"#utility.yul\":13649:13981   */\n      swap4\n      swap3\n      pop\n      pop\n      pop\n      jump\t// out\n        /* \"#utility.yul\":13987:14077   */\n    tag_303:\n        /* \"#utility.yul\":14021:14028   */\n      0x00\n        /* \"#utility.yul\":14064:14069   */\n      dup2\n        /* \"#utility.yul\":14057:14070   */\n      iszero\n        /* \"#utility.yul\":14050:14071   */\n      iszero\n        /* \"#utility.yul\":14039:14071   */\n      swap1\n      pop\n        /* \"#utility.yul\":13987:14077   */\n      swap2\n      swap1\n      pop\n      jump\t// out\n        /* \"#utility.yul\":14083:14199   */\n    tag_304:\n        /* \"#utility.yul\":14153:14174   */\n      tag_456\n        /* \"#utility.yul\":14168:14173   */\n      dup2\n        /* \"#utility.yul\":14153:14174   */\n      tag_303\n      jump\t// in\n    tag_456:\n        /* \"#utility.yul\":14146:14151   */\n      dup2\n        /* \"#utility.yul\":14143:14175   */\n      eq\n        /* \"#utility.yul\":14133:14193   */\n      tag_457\n      jumpi\n        /* \"#utility.yul\":14189:14190   */\n      0x00\n        /* \"#utility.yul\":14186:14187   */\n      0x00\n        /* \"#utility.yul\":14179:14191   */\n      revert\n        /* \"#utility.yul\":14133:14193   */\n    tag_457:\n        /* \"#utility.yul\":14083:14199   */\n      pop\n      jump\t// out\n        /* \"#utility.yul\":14205:14342   */\n    tag_305:\n        /* \"#utility.yul\":14259:14264   */\n      0x00\n        /* \"#utility.yul\":14290:14296   */\n      dup2\n        /* \"#utility.yul\":14284:14297   */\n      mload\n        /* \"#utility.yul\":14275:14297   */\n      swap1\n      pop\n        /* \"#utility.yul\":14306:14336   */\n      tag_459\n        /* \"#utility.yul\":14330:14335   */\n      dup2\n        /* \"#utility.yul\":14306:14336   */\n      tag_304\n      jump\t// in\n    tag_459:\n        /* \"#utility.yul\":14205:14342   */\n      swap3\n      swap2\n      pop\n      pop\n      jump\t// out\n        /* \"#utility.yul\":14348:14693   */\n    tag_210:\n        /* \"#utility.yul\":14415:14421   */\n      0x00\n        /* \"#utility.yul\":14464:14466   */\n      0x20\n        /* \"#utility.yul\":14452:14461   */\n      dup3\n        /* \"#utility.yul\":14443:14450   */\n      dup5\n        /* \"#utility.yul\":14439:14462   */\n      sub\n        /* \"#utility.yul\":14435:14467   */\n      slt\n        /* \"#utility.yul\":14432:14551   */\n      iszero\n      tag_461\n      jumpi\n        /* \"#utility.yul\":14470:14549   */\n      tag_462\n      tag_266\n      jump\t// in\n    tag_462:\n        /* \"#utility.yul\":14432:14551   */\n    tag_461:\n        /* \"#utility.yul\":14590:14591   */\n      0x00\n        /* \"#utility.yul\":14615:14676   */\n      tag_463\n        /* \"#utility.yul\":14668:14675   */\n      dup5\n        /* \"#utility.yul\":14659:14665   */\n      dup3\n        /* \"#utility.yul\":14648:14657   */\n      dup6\n        /* \"#utility.yul\":14644:14666   */\n      add\n        /* \"#utility.yul\":14615:14676   */\n      tag_305\n      jump\t// in\n    tag_463:\n        /* \"#utility.yul\":14605:14676   */\n      swap2\n      pop\n        /* \"#utility.yul\":14561:14686   */\n      pop\n        /* \"#utility.yul\":14348:14693   */\n      swap3\n      swap2\n      pop\n      pop\n      jump\t// out\n        /* \"#utility.yul\":14699:14867   */\n    tag_306:\n        /* \"#utility.yul\":14839:14859   */\n      0x4d6f7270686f204d696e74206661696c65640000000000000000000000000000\n        /* \"#utility.yul\":14835:14836   */\n      0x00\n        /* \"#utility.yul\":14827:14833   */\n      dup3\n        /* \"#utility.yul\":14823:14837   */\n      add\n        /* \"#utility.yul\":14816:14860   */\n      mstore\n        /* \"#utility.yul\":14699:14867   */\n      pop\n      jump\t// out\n        /* \"#utility.yul\":14873:15239   */\n    tag_307:\n        /* \"#utility.yul\":15015:15018   */\n      0x00\n        /* \"#utility.yul\":15036:15103   */\n      tag_466\n        /* \"#utility.yul\":15100:15102   */\n      0x12\n        /* \"#utility.yul\":15095:15098   */\n      dup4\n        /* \"#utility.yul\":15036:15103   */\n      tag_292\n      jump\t// in\n    tag_466:\n        /* \"#utility.yul\":15029:15103   */\n      swap2\n      pop\n        /* \"#utility.yul\":15112:15205   */\n      tag_467\n        /* \"#utility.yul\":15201:15204   */\n      dup3\n        /* \"#utility.yul\":15112:15205   */\n      tag_306\n      jump\t// in\n    tag_467:\n        /* \"#utility.yul\":15230:15232   */\n      0x20\n        /* \"#utility.yul\":15225:15228   */\n      dup3\n        /* \"#utility.yul\":15221:15233   */\n      add\n        /* \"#utility.yul\":15214:15233   */\n      swap1\n      pop\n        /* \"#utility.yul\":14873:15239   */\n      swap2\n      swap1\n      pop\n      jump\t// out\n        /* \"#utility.yul\":15245:15664   */\n    tag_221:\n        /* \"#utility.yul\":15411:15415   */\n      0x00\n        /* \"#utility.yul\":15449:15451   */\n      0x20\n        /* \"#utility.yul\":15438:15447   */\n      dup3\n        /* \"#utility.yul\":15434:15452   */\n      add\n        /* \"#utility.yul\":15426:15452   */\n      swap1\n      pop\n        /* \"#utility.yul\":15498:15507   */\n      dup2\n        /* \"#utility.yul\":15492:15496   */\n      dup2\n        /* \"#utility.yul\":15488:15508   */\n      sub\n        /* \"#utility.yul\":15484:15485   */\n      0x00\n        /* \"#utility.yul\":15473:15482   */\n      dup4\n        /* \"#utility.yul\":15469:15486   */\n      add\n        /* \"#utility.yul\":15462:15509   */\n      mstore\n        /* \"#utility.yul\":15526:15657   */\n      tag_469\n        /* \"#utility.yul\":15652:15656   */\n      dup2\n        /* \"#utility.yul\":15526:15657   */\n      tag_307\n      jump\t// in\n    tag_469:\n        /* \"#utility.yul\":15518:15657   */\n      swap1\n      pop\n        /* \"#utility.yul\":15245:15664   */\n      swap2\n      swap1\n      pop\n      jump\t// out\n        /* \"#utility.yul\":15670:15851   */\n    tag_308:\n        /* \"#utility.yul\":15810:15843   */\n      0x5265656e7472616e637947756172643a207265656e7472616e742063616c6c00\n        /* \"#utility.yul\":15806:15807   */\n      0x00\n        /* \"#utility.yul\":15798:15804   */\n      dup3\n        /* \"#utility.yul\":15794:15808   */\n      add\n        /* \"#utility.yul\":15787:15844   */\n      mstore\n        /* \"#utility.yul\":15670:15851   */\n      pop\n      jump\t// out\n        /* \"#utility.yul\":15857:16223   */\n    tag_309:\n        /* \"#utility.yul\":15999:16002   */\n      0x00\n        /* \"#utility.yul\":16020:16087   */\n      tag_472\n        /* \"#utility.yul\":16084:16086   */\n      0x1f\n        /* \"#utility.yul\":16079:16082   */\n      dup4\n        /* \"#utility.yul\":16020:16087   */\n      tag_292\n      jump\t// in\n    tag_472:\n        /* \"#utility.yul\":16013:16087   */\n      swap2\n      pop\n        /* \"#utility.yul\":16096:16189   */\n      tag_473\n        /* \"#utility.yul\":16185:16188   */\n      dup3\n        /* \"#utility.yul\":16096:16189   */\n      tag_308\n      jump\t// in\n    tag_473:\n        /* \"#utility.yul\":16214:16216   */\n      0x20\n        /* \"#utility.yul\":16209:16212   */\n      dup3\n        /* \"#utility.yul\":16205:16217   */\n      add\n        /* \"#utility.yul\":16198:16217   */\n      swap1\n      pop\n        /* \"#utility.yul\":15857:16223   */\n      swap2\n      swap1\n      pop\n      jump\t// out\n        /* \"#utility.yul\":16229:16648   */\n    tag_240:\n        /* \"#utility.yul\":16395:16399   */\n      0x00\n        /* \"#utility.yul\":16433:16435   */\n      0x20\n        /* \"#utility.yul\":16422:16431   */\n      dup3\n        /* \"#utility.yul\":16418:16436   */\n      add\n        /* \"#utility.yul\":16410:16436   */\n      swap1\n      pop\n        /* \"#utility.yul\":16482:16491   */\n      dup2\n        /* \"#utility.yul\":16476:16480   */\n      dup2\n        /* \"#utility.yul\":16472:16492   */\n      sub\n        /* \"#utility.yul\":16468:16469   */\n      0x00\n        /* \"#utility.yul\":16457:16466   */\n      dup4\n        /* \"#utility.yul\":16453:16470   */\n      add\n        /* \"#utility.yul\":16446:16493   */\n      mstore\n        /* \"#utility.yul\":16510:16641   */\n      tag_475\n        /* \"#utility.yul\":16636:16640   */\n      dup2\n        /* \"#utility.yul\":16510:16641   */\n      tag_309\n      jump\t// in\n    tag_475:\n        /* \"#utility.yul\":16502:16641   */\n      swap1\n      pop\n        /* \"#utility.yul\":16229:16648   */\n      swap2\n      swap1\n      pop\n      jump\t// out\n        /* \"#utility.yul\":16654:17096   */\n    tag_257:\n        /* \"#utility.yul\":16803:16807   */\n      0x00\n        /* \"#utility.yul\":16841:16843   */\n      0x60\n        /* \"#utility.yul\":16830:16839   */\n      dup3\n        /* \"#utility.yul\":16826:16844   */\n      add\n        /* \"#utility.yul\":16818:16844   */\n      swap1\n      pop\n        /* \"#utility.yul\":16854:16925   */\n      tag_477\n        /* \"#utility.yul\":16922:16923   */\n      0x00\n        /* \"#utility.yul\":16911:16920   */\n      dup4\n        /* \"#utility.yul\":16907:16924   */\n      add\n        /* \"#utility.yul\":16898:16904   */\n      dup7\n        /* \"#utility.yul\":16854:16925   */\n      tag_286\n      jump\t// in\n    tag_477:\n        /* \"#utility.yul\":16935:17007   */\n      tag_478\n        /* \"#utility.yul\":17003:17005   */\n      0x20\n        /* \"#utility.yul\":16992:17001   */\n      dup4\n        /* \"#utility.yul\":16988:17006   */\n      add\n        /* \"#utility.yul\":16979:16985   */\n      dup6\n        /* \"#utility.yul\":16935:17007   */\n      tag_286\n      jump\t// in\n    tag_478:\n        /* \"#utility.yul\":17017:17089   */\n      tag_479\n        /* \"#utility.yul\":17085:17087   */\n      0x40\n        /* \"#utility.yul\":17074:17083   */\n      dup4\n        /* \"#utility.yul\":17070:17088   */\n      add\n        /* \"#utility.yul\":17061:17067   */\n      dup5\n        /* \"#utility.yul\":17017:17089   */\n      tag_273\n      jump\t// in\n    tag_479:\n        /* \"#utility.yul\":16654:17096   */\n      swap5\n      swap4\n      pop\n      pop\n      pop\n      pop\n      jump\t// out\n\n    auxdata: 0xa264697066735822122045ff5e2e8506fbb5cff4b5f1d54b287d6ee9634b591947458e49ec8a7e34cdc664736f6c634300081f0033\n}\n",
				"bytecode": {
					"linkReferences": {},
					"object": "608060405234801561000f575f5ffd5b50335f73ffffffffffffffffffffffffffffffffffffffff168173ffffffffffffffffffffffffffffffffffffffff1603610081575f6040517f1e4fbdf7000000000000000000000000000000000000000000000000000000008152600401610078919061019d565b60405180910390fd5b6100908161009d60201b60201c565b50600180819055506101b6565b5f5f5f9054906101000a900473ffffffffffffffffffffffffffffffffffffffff169050815f5f6101000a81548173ffffffffffffffffffffffffffffffffffffffff021916908373ffffffffffffffffffffffffffffffffffffffff1602179055508173ffffffffffffffffffffffffffffffffffffffff168173ffffffffffffffffffffffffffffffffffffffff167f8be0079c531659141344cd1fd0a4f28419497f9722a3daafe3b4186f6b6457e060405160405180910390a35050565b5f73ffffffffffffffffffffffffffffffffffffffff82169050919050565b5f6101878261015e565b9050919050565b6101978161017d565b82525050565b5f6020820190506101b05f83018461018e565b92915050565b6120c9806101c35f395ff3fe608060405234801561000f575f5ffd5b506004361061011e575f3560e01c80635ae80951116100ab578063c07b528a1161006f578063c07b528a146102fc578063d12eb0a31461032c578063dabeaecf1461035c578063f2fde38b14610378578063f89ec5f5146103945761011e565b80635ae8095114610252578063715018a61461028257806389a302711461028c5780638da5cb5b146102aa578063a87430ba146102c85761011e565b806323544748116100f257806323544748146101be5780632982de0d146101c857806340b2b7bf146101e657806344051053146102045780634ef8ff33146102345761011e565b8062d61646146101225780630df23164146101525780631820cabb1461018257806319abfe00146101a0575b5f5ffd5b61013c600480360381019061013791906118c1565b6103b2565b6040516101499190611904565b60405180910390f35b61016c600480360381019061016791906118c1565b610428565b6040516101799190611904565b60405180910390f35b61018a6104e0565b6040516101979190611904565b60405180910390f35b6101a86104e7565b6040516101b59190611904565b60405180910390f35b6101c66104ee565b005b6101d0610adf565b6040516101dd9190611904565b60405180910390f35b6101ee610ae4565b6040516101fb9190611904565b60405180910390f35b61021e600480360381019061021991906118c1565b610ae9565b60405161022b91906119d4565b60405180910390f35b61023c610bb1565b6040516102499190611904565b60405180910390f35b61026c600480360381019061026791906118c1565b610bb8565b6040516102799190611904565b60405180910390f35b61028a610ca4565b005b610294610cb7565b6040516102a19190611a4f565b60405180910390f35b6102b2610ccf565b6040516102bf9190611a77565b60405180910390f35b6102e260048036038101906102dd91906118c1565b610cf6565b6040516102f3959493929190611a90565b60405180910390f35b610316600480360381019061031191906118c1565b610d47565b6040516103239190611904565b60405180910390f35b61034660048036038101906103419190611b0b565b610d5c565b6040516103539190611a77565b60405180910390f35b61037660048036038101906103719190611b49565b610da4565b005b610392600480360381019061038d91906118c1565b611484565b005b61039c611508565b6040516103a99190611ba7565b60405180910390f35b5f5f6201fa4060025f8573ffffffffffffffffffffffffffffffffffffffff1673ffffffffffffffffffffffffffffffffffffffff1681526020019081526020015f20600401546104039190611bed565b90508042101561041e5742816104199190611c20565b610420565b5f5b915050919050565b5f5f60025f8473ffffffffffffffffffffffffffffffffffffffff1673ffffffffffffffffffffffffffffffffffffffff1681526020019081526020015f205f0154905064012a05f20081106104825760509150506104db565b633b9aca0081106104975760329150506104db565b630bebc20081106104ac57601e9150506104db565b6305f5e10081106104c15760149150506104db565b6302faf08081106104d657600a9150506104db565b5f9150505b919050565b6201fa4081565b621e848081565b6104f6611520565b5f60025f3373ffffffffffffffffffffffffffffffffffffffff1673ffffffffffffffffffffffffffffffffffffffff1681526020019081526020015f2090505f81600101541161057c576040517f08c379a000000000000000000000000000000000000000000000000000000000815260040161057390611cad565b60405180910390fd5b5f73036cbd53842c5426634e7929541ec2318f3dcf7e73ffffffffffffffffffffffffffffffffffffffff166370a08231306040518263ffffffff1660e01b81526004016105ca9190611a77565b602060405180830381865afa1580156105e5573d5f5f3e3d5ffd5b505050506040513d601f19601f820116820180604052508101906106099190611cdf565b90505f73403d64b3f6b4a2b095754877395ab3255476d08173ffffffffffffffffffffffffffffffffffffffff1663db006a7584600101546040518263ffffffff1660e01b815260040161065d9190611904565b6020604051808303815f875af1158015610679573d5f5f3e3d5ffd5b505050506040513d601f19601f8201168201806040525081019061069d9190611cdf565b146106dd576040517f08c379a00000000000000000000000000000000000000000000000000000000081526004016106d490611d54565b60405180910390fd5b5f8173036cbd53842c5426634e7929541ec2318f3dcf7e73ffffffffffffffffffffffffffffffffffffffff166370a08231306040518263ffffffff1660e01b815260040161072c9190611a77565b602060405180830381865afa158015610747573d5f5f3e3d5ffd5b505050506040513d601f19601f8201168201806040525081019061076b9190611cdf565b6107759190611c20565b90505f5f6201fa40856004015461078c9190611bed565b4210156108075760646001846107a29190611d72565b6107ac9190611de0565b905080836107ba9190611c20565b91506108026107c7610ccf565b8273036cbd53842c5426634e7929541ec2318f3dcf7e73ffffffffffffffffffffffffffffffffffffffff1661156f9092919063ffffffff16565b610a30565b5f621e8480841015610819578361081e565b621e84805b90505f865f015482866108319190611c20565b1161083c575f610857565b865f0154828661084c9190611c20565b6108569190611c20565b5b90505f6064600a836108699190611d72565b6108739190611de0565b90505f821180156108d357505f73ffffffffffffffffffffffffffffffffffffffff16886002015f9054906101000a900473ffffffffffffffffffffffffffffffffffffffff1673ffffffffffffffffffffffffffffffffffffffff1614155b156109be575f60646109078a6002015f9054906101000a900473ffffffffffffffffffffffffffffffffffffffff16610428565b846109129190611d72565b61091c9190611de0565b90508060035f8b6002015f9054906101000a900473ffffffffffffffffffffffffffffffffffffffff1673ffffffffffffffffffffffffffffffffffffffff1673ffffffffffffffffffffffffffffffffffffffff1681526020019081526020015f205f82825461098d9190611bed565b92505081905550808285896109a29190611c20565b6109ac9190611c20565b6109b69190611c20565b9550506109d8565b8083876109cb9190611c20565b6109d59190611c20565b94505b80836109e49190611bed565b9350610a2c6109f1610ccf565b8573036cbd53842c5426634e7929541ec2318f3dcf7e73ffffffffffffffffffffffffffffffffffffffff1661156f9092919063ffffffff16565b5050505b5f855f01819055505f8560010181905550610a80338373036cbd53842c5426634e7929541ec2318f3dcf7e73ffffffffffffffffffffffffffffffffffffffff1661156f9092919063ffffffff16565b3373ffffffffffffffffffffffffffffffffffffffff167ff279e6a1f5e320cca91135676d9cb6e44ca8a08c0b88342bcdb1144f6511b5688383604051610ac8929190611e10565b60405180910390a25050505050610add6115ee565b565b600a81565b600181565b606060045f8373ffffffffffffffffffffffffffffffffffffffff1673ffffffffffffffffffffffffffffffffffffffff1681526020019081526020015f20805480602002602001604051908101604052809291908181526020018280548015610ba557602002820191905f5260205f20905b815f9054906101000a900473ffffffffffffffffffffffffffffffffffffffff1673ffffffffffffffffffffffffffffffffffffffff1681526020019060010190808311610b5c575b50505050509050919050565b6298968081565b5f5f73403d64b3f6b4a2b095754877395ab3255476d08173ffffffffffffffffffffffffffffffffffffffff1663182df0f56040518163ffffffff1660e01b8152600401602060405180830381865afa158015610c17573d5f5f3e3d5ffd5b505050506040513d601f19601f82011682018060405250810190610c3b9190611cdf565b9050670de0b6b3a76400008160025f8673ffffffffffffffffffffffffffffffffffffffff1673ffffffffffffffffffffffffffffffffffffffff1681526020019081526020015f2060010154610c929190611d72565b610c9c9190611de0565b915050919050565b610cac6115f7565b610cb55f61167e565b565b73036cbd53842c5426634e7929541ec2318f3dcf7e81565b5f5f5f9054906101000a900473ffffffffffffffffffffffffffffffffffffffff16905090565b6002602052805f5260405f205f91509050805f015490806001015490806002015f9054906101000a900473ffffffffffffffffffffffffffffffffffffffff16908060030154908060040154905085565b6003602052805f5260405f205f915090505481565b6004602052815f5260405f208181548110610d75575f80fd5b905f5260205f20015f915091509054906101000a900473ffffffffffffffffffffffffffffffffffffffff1681565b610dac611520565b62989680821015610df2576040517f08c379a0000000000000000000000000000000000000000000000000000000008152600401610de990611e81565b60405180910390fd5b3373ffffffffffffffffffffffffffffffffffffffff168173ffffffffffffffffffffffffffffffffffffffff1603610e60576040517f08c379a0000000000000000000000000000000000000000000000000000000008152600401610e5790611ee9565b60405180910390fd5b5f73ffffffffffffffffffffffffffffffffffffffff1660025f3373ffffffffffffffffffffffffffffffffffffffff1673ffffffffffffffffffffffffffffffffffffffff1681526020019081526020015f206002015f9054906101000a900473ffffffffffffffffffffffffffffffffffffffff1673ffffffffffffffffffffffffffffffffffffffff16148015610f2657505f73ffffffffffffffffffffffffffffffffffffffff168173ffffffffffffffffffffffffffffffffffffffff1614155b15611045578060025f3373ffffffffffffffffffffffffffffffffffffffff1673ffffffffffffffffffffffffffffffffffffffff1681526020019081526020015f206002015f6101000a81548173ffffffffffffffffffffffffffffffffffffffff021916908373ffffffffffffffffffffffffffffffffffffffff16021790555060045f8273ffffffffffffffffffffffffffffffffffffffff1673ffffffffffffffffffffffffffffffffffffffff1681526020019081526020015f2033908060018154018082558091505060019003905f5260205f20015f9091909190916101000a81548173ffffffffffffffffffffffffffffffffffffffff021916908373ffffffffffffffffffffffffffffffffffffffff1602179055505b61108633308473036cbd53842c5426634e7929541ec2318f3dcf7e73ffffffffffffffffffffffffffffffffffffffff1661173f909392919063ffffffff16565b73036cbd53842c5426634e7929541ec2318f3dcf7e73ffffffffffffffffffffffffffffffffffffffff1663095ea7b373403d64b3f6b4a2b095754877395ab3255476d081846040518363ffffffff1660e01b81526004016110e9929190611f07565b6020604051808303815f875af1158015611105573d5f5f3e3d5ffd5b505050506040513d601f19601f820116820180604052508101906111299190611f63565b505f73403d64b3f6b4a2b095754877395ab3255476d08173ffffffffffffffffffffffffffffffffffffffff166370a08231306040518263ffffffff1660e01b81526004016111789190611a77565b602060405180830381865afa158015611193573d5f5f3e3d5ffd5b505050506040513d601f19601f820116820180604052508101906111b79190611cdf565b90505f73403d64b3f6b4a2b095754877395ab3255476d08173ffffffffffffffffffffffffffffffffffffffff1663a0712d68856040518263ffffffff1660e01b81526004016112079190611904565b6020604051808303815f875af1158015611223573d5f5f3e3d5ffd5b505050506040513d601f19601f820116820180604052508101906112479190611cdf565b14611287576040517f08c379a000000000000000000000000000000000000000000000000000000000815260040161127e90611fd8565b60405180910390fd5b5f8173403d64b3f6b4a2b095754877395ab3255476d08173ffffffffffffffffffffffffffffffffffffffff166370a08231306040518263ffffffff1660e01b81526004016112d69190611a77565b602060405180830381865afa1580156112f1573d5f5f3e3d5ffd5b505050506040513d601f19601f820116820180604052508101906113159190611cdf565b61131f9190611c20565b90508360025f3373ffffffffffffffffffffffffffffffffffffffff1673ffffffffffffffffffffffffffffffffffffffff1681526020019081526020015f205f015f82825461136f9190611bed565b925050819055508060025f3373ffffffffffffffffffffffffffffffffffffffff1673ffffffffffffffffffffffffffffffffffffffff1681526020019081526020015f206001015f8282546113c59190611bed565b925050819055504260025f3373ffffffffffffffffffffffffffffffffffffffff1673ffffffffffffffffffffffffffffffffffffffff1681526020019081526020015f20600401819055508273ffffffffffffffffffffffffffffffffffffffff163373ffffffffffffffffffffffffffffffffffffffff167fe31c7b8d08ee7db0afa68782e1028ef92305caeea8626633ad44d413e30f6b2f8660405161146e9190611904565b60405180910390a350506114806115ee565b5050565b61148c6115f7565b5f73ffffffffffffffffffffffffffffffffffffffff168173ffffffffffffffffffffffffffffffffffffffff16036114fc575f6040517f1e4fbdf70000000000000000000000000000000000000000000000000000000081526004016114f39190611a77565b60405180910390fd5b6115058161167e565b50565b73403d64b3f6b4a2b095754877395ab3255476d08181565b600260015403611565576040517f08c379a000000000000000000000000000000000000000000000000000000000815260040161155c90612040565b60405180910390fd5b6002600181905550565b6115e9838473ffffffffffffffffffffffffffffffffffffffff1663a9059cbb85856040516024016115a2929190611f07565b604051602081830303815290604052915060e01b6020820180517bffffffffffffffffffffffffffffffffffffffffffffffffffffffff83818316178352505050506117c1565b505050565b60018081905550565b6115ff61185c565b73ffffffffffffffffffffffffffffffffffffffff1661161d610ccf565b73ffffffffffffffffffffffffffffffffffffffff161461167c5761164061185c565b6040517f118cdaa70000000000000000000000000000000000000000000000000000000081526004016116739190611a77565b60405180910390fd5b565b5f5f5f9054906101000a900473ffffffffffffffffffffffffffffffffffffffff169050815f5f6101000a81548173ffffffffffffffffffffffffffffffffffffffff021916908373ffffffffffffffffffffffffffffffffffffffff1602179055508173ffffffffffffffffffffffffffffffffffffffff168173ffffffffffffffffffffffffffffffffffffffff167f8be0079c531659141344cd1fd0a4f28419497f9722a3daafe3b4186f6b6457e060405160405180910390a35050565b6117bb848573ffffffffffffffffffffffffffffffffffffffff166323b872dd8686866040516024016117749392919061205e565b604051602081830303815290604052915060e01b6020820180517bffffffffffffffffffffffffffffffffffffffffffffffffffffffff83818316178352505050506117c1565b50505050565b5f5f60205f8451602086015f885af1806117e0576040513d5f823e3d81fd5b3d92505f519150505f82146117f9576001811415611814565b5f8473ffffffffffffffffffffffffffffffffffffffff163b145b1561185657836040517f5274afe700000000000000000000000000000000000000000000000000000000815260040161184d9190611a77565b60405180910390fd5b50505050565b5f33905090565b5f5ffd5b5f73ffffffffffffffffffffffffffffffffffffffff82169050919050565b5f61189082611867565b9050919050565b6118a081611886565b81146118aa575f5ffd5b50565b5f813590506118bb81611897565b92915050565b5f602082840312156118d6576118d5611863565b5b5f6118e3848285016118ad565b91505092915050565b5f819050919050565b6118fe816118ec565b82525050565b5f6020820190506119175f8301846118f5565b92915050565b5f81519050919050565b5f82825260208201905092915050565b5f819050602082019050919050565b61194f81611886565b82525050565b5f6119608383611946565b60208301905092915050565b5f602082019050919050565b5f6119828261191d565b61198c8185611927565b935061199783611937565b805f5b838110156119c75781516119ae8882611955565b97506119b98361196c565b92505060018101905061199a565b5085935050505092915050565b5f6020820190508181035f8301526119ec8184611978565b905092915050565b5f819050919050565b5f611a17611a12611a0d84611867565b6119f4565b611867565b9050919050565b5f611a28826119fd565b9050919050565b5f611a3982611a1e565b9050919050565b611a4981611a2f565b82525050565b5f602082019050611a625f830184611a40565b92915050565b611a7181611886565b82525050565b5f602082019050611a8a5f830184611a68565b92915050565b5f60a082019050611aa35f8301886118f5565b611ab060208301876118f5565b611abd6040830186611a68565b611aca60608301856118f5565b611ad760808301846118f5565b9695505050505050565b611aea816118ec565b8114611af4575f5ffd5b50565b5f81359050611b0581611ae1565b92915050565b5f5f60408385031215611b2157611b20611863565b5b5f611b2e858286016118ad565b9250506020611b3f85828601611af7565b9150509250929050565b5f5f60408385031215611b5f57611b5e611863565b5b5f611b6c85828601611af7565b9250506020611b7d858286016118ad565b9150509250929050565b5f611b9182611a1e565b9050919050565b611ba181611b87565b82525050565b5f602082019050611bba5f830184611b98565b92915050565b7f4e487b71000000000000000000000000000000000000000000000000000000005f52601160045260245ffd5b5f611bf7826118ec565b9150611c02836118ec565b9250828201905080821115611c1a57611c19611bc0565b5b92915050565b5f611c2a826118ec565b9150611c35836118ec565b9250828203905081811115611c4d57611c4c611bc0565b5b92915050565b5f82825260208201905092915050565b7f456d7074792062616c616e6365000000000000000000000000000000000000005f82015250565b5f611c97600d83611c53565b9150611ca282611c63565b602082019050919050565b5f6020820190508181035f830152611cc481611c8b565b9050919050565b5f81519050611cd981611ae1565b92915050565b5f60208284031215611cf457611cf3611863565b5b5f611d0184828501611ccb565b91505092915050565b7f4d6f7270686f2052656465656d206661696c65640000000000000000000000005f82015250565b5f611d3e601483611c53565b9150611d4982611d0a565b602082019050919050565b5f6020820190508181035f830152611d6b81611d32565b9050919050565b5f611d7c826118ec565b9150611d87836118ec565b9250828202611d95816118ec565b91508282048414831517611dac57611dab611bc0565b5b5092915050565b7f4e487b71000000000000000000000000000000000000000000000000000000005f52601260045260245ffd5b5f611dea826118ec565b9150611df5836118ec565b925082611e0557611e04611db3565b5b828204905092915050565b5f604082019050611e235f8301856118f5565b611e3060208301846118f5565b9392505050565b7f4d696e696d756d20696e766573746d656e7420697320313020555344430000005f82015250565b5f611e6b601d83611c53565b9150611e7682611e37565b602082019050919050565b5f6020820190508181035f830152611e9881611e5f565b9050919050565b7f4e6f2073656c662d726566657272616c000000000000000000000000000000005f82015250565b5f611ed3601083611c53565b9150611ede82611e9f565b602082019050919050565b5f6020820190508181035f830152611f0081611ec7565b9050919050565b5f604082019050611f1a5f830185611a68565b611f2760208301846118f5565b9392505050565b5f8115159050919050565b611f4281611f2e565b8114611f4c575f5ffd5b50565b5f81519050611f5d81611f39565b92915050565b5f60208284031215611f7857611f77611863565b5b5f611f8584828501611f4f565b91505092915050565b7f4d6f7270686f204d696e74206661696c656400000000000000000000000000005f82015250565b5f611fc2601283611c53565b9150611fcd82611f8e565b602082019050919050565b5f6020820190508181035f830152611fef81611fb6565b9050919050565b7f5265656e7472616e637947756172643a207265656e7472616e742063616c6c005f82015250565b5f61202a601f83611c53565b915061203582611ff6565b602082019050919050565b5f6020820190508181035f8301526120578161201e565b9050919050565b5f6060820190506120715f830186611a68565b61207e6020830185611a68565b61208b60408301846118f5565b94935050505056fea264697066735822122045ff5e2e8506fbb5cff4b5f1d54b287d6ee9634b591947458e49ec8a7e34cdc664736f6c634300081f0033",
					"opcodes": "PUSH1 0x80 PUSH1 0x40 MSTORE CALLVALUE DUP1 ISZERO PUSH2 0xF JUMPI PUSH0 PUSH0 REVERT JUMPDEST POP CALLER PUSH0 PUSH20 0xFFFFFFFFFFFFFFFFFFFFFFFFFFFFFFFFFFFFFFFF AND DUP2 PUSH20 0xFFFFFFFFFFFFFFFFFFFFFFFFFFFFFFFFFFFFFFFF AND SUB PUSH2 0x81 JUMPI PUSH0 PUSH1 0x40 MLOAD PUSH32 0x1E4FBDF700000000000000000000000000000000000000000000000000000000 DUP2 MSTORE PUSH1 0x4 ADD PUSH2 0x78 SWAP2 SWAP1 PUSH2 0x19D JUMP JUMPDEST PUSH1 0x40 MLOAD DUP1 SWAP2 SUB SWAP1 REVERT JUMPDEST PUSH2 0x90 DUP2 PUSH2 0x9D PUSH1 0x20 SHL PUSH1 0x20 SHR JUMP JUMPDEST POP PUSH1 0x1 DUP1 DUP2 SWAP1 SSTORE POP PUSH2 0x1B6 JUMP JUMPDEST PUSH0 PUSH0 PUSH0 SWAP1 SLOAD SWAP1 PUSH2 0x100 EXP SWAP1 DIV PUSH20 0xFFFFFFFFFFFFFFFFFFFFFFFFFFFFFFFFFFFFFFFF AND SWAP1 POP DUP2 PUSH0 PUSH0 PUSH2 0x100 EXP DUP2 SLOAD DUP2 PUSH20 0xFFFFFFFFFFFFFFFFFFFFFFFFFFFFFFFFFFFFFFFF MUL NOT AND SWAP1 DUP4 PUSH20 0xFFFFFFFFFFFFFFFFFFFFFFFFFFFFFFFFFFFFFFFF AND MUL OR SWAP1 SSTORE POP DUP2 PUSH20 0xFFFFFFFFFFFFFFFFFFFFFFFFFFFFFFFFFFFFFFFF AND DUP2 PUSH20 0xFFFFFFFFFFFFFFFFFFFFFFFFFFFFFFFFFFFFFFFF AND PUSH32 0x8BE0079C531659141344CD1FD0A4F28419497F9722A3DAAFE3B4186F6B6457E0 PUSH1 0x40 MLOAD PUSH1 0x40 MLOAD DUP1 SWAP2 SUB SWAP1 LOG3 POP POP JUMP JUMPDEST PUSH0 PUSH20 0xFFFFFFFFFFFFFFFFFFFFFFFFFFFFFFFFFFFFFFFF DUP3 AND SWAP1 POP SWAP2 SWAP1 POP JUMP JUMPDEST PUSH0 PUSH2 0x187 DUP3 PUSH2 0x15E JUMP JUMPDEST SWAP1 POP SWAP2 SWAP1 POP JUMP JUMPDEST PUSH2 0x197 DUP2 PUSH2 0x17D JUMP JUMPDEST DUP3 MSTORE POP POP JUMP JUMPDEST PUSH0 PUSH1 0x20 DUP3 ADD SWAP1 POP PUSH2 0x1B0 PUSH0 DUP4 ADD DUP5 PUSH2 0x18E JUMP JUMPDEST SWAP3 SWAP2 POP POP JUMP JUMPDEST PUSH2 0x20C9 DUP1 PUSH2 0x1C3 PUSH0 CODECOPY PUSH0 RETURN INVALID PUSH1 0x80 PUSH1 0x40 MSTORE CALLVALUE DUP1 ISZERO PUSH2 0xF JUMPI PUSH0 PUSH0 REVERT JUMPDEST POP PUSH1 0x4 CALLDATASIZE LT PUSH2 0x11E JUMPI PUSH0 CALLDATALOAD PUSH1 0xE0 SHR DUP1 PUSH4 0x5AE80951 GT PUSH2 0xAB JUMPI DUP1 PUSH4 0xC07B528A GT PUSH2 0x6F JUMPI DUP1 PUSH4 0xC07B528A EQ PUSH2 0x2FC JUMPI DUP1 PUSH4 0xD12EB0A3 EQ PUSH2 0x32C JUMPI DUP1 PUSH4 0xDABEAECF EQ PUSH2 0x35C JUMPI DUP1 PUSH4 0xF2FDE38B EQ PUSH2 0x378 JUMPI DUP1 PUSH4 0xF89EC5F5 EQ PUSH2 0x394 JUMPI PUSH2 0x11E JUMP JUMPDEST DUP1 PUSH4 0x5AE80951 EQ PUSH2 0x252 JUMPI DUP1 PUSH4 0x715018A6 EQ PUSH2 0x282 JUMPI DUP1 PUSH4 0x89A30271 EQ PUSH2 0x28C JUMPI DUP1 PUSH4 0x8DA5CB5B EQ PUSH2 0x2AA JUMPI DUP1 PUSH4 0xA87430BA EQ PUSH2 0x2C8 JUMPI PUSH2 0x11E JUMP JUMPDEST DUP1 PUSH4 0x23544748 GT PUSH2 0xF2 JUMPI DUP1 PUSH4 0x23544748 EQ PUSH2 0x1BE JUMPI DUP1 PUSH4 0x2982DE0D EQ PUSH2 0x1C8 JUMPI DUP1 PUSH4 0x40B2B7BF EQ PUSH2 0x1E6 JUMPI DUP1 PUSH4 0x44051053 EQ PUSH2 0x204 JUMPI DUP1 PUSH4 0x4EF8FF33 EQ PUSH2 0x234 JUMPI PUSH2 0x11E JUMP JUMPDEST DUP1 PUSH3 0xD61646 EQ PUSH2 0x122 JUMPI DUP1 PUSH4 0xDF23164 EQ PUSH2 0x152 JUMPI DUP1 PUSH4 0x1820CABB EQ PUSH2 0x182 JUMPI DUP1 PUSH4 0x19ABFE00 EQ PUSH2 0x1A0 JUMPI JUMPDEST PUSH0 PUSH0 REVERT JUMPDEST PUSH2 0x13C PUSH1 0x4 DUP1 CALLDATASIZE SUB DUP2 ADD SWAP1 PUSH2 0x137 SWAP2 SWAP1 PUSH2 0x18C1 JUMP JUMPDEST PUSH2 0x3B2 JUMP JUMPDEST PUSH1 0x40 MLOAD PUSH2 0x149 SWAP2 SWAP1 PUSH2 0x1904 JUMP JUMPDEST PUSH1 0x40 MLOAD DUP1 SWAP2 SUB SWAP1 RETURN JUMPDEST PUSH2 0x16C PUSH1 0x4 DUP1 CALLDATASIZE SUB DUP2 ADD SWAP1 PUSH2 0x167 SWAP2 SWAP1 PUSH2 0x18C1 JUMP JUMPDEST PUSH2 0x428 JUMP JUMPDEST PUSH1 0x40 MLOAD PUSH2 0x179 SWAP2 SWAP1 PUSH2 0x1904 JUMP JUMPDEST PUSH1 0x40 MLOAD DUP1 SWAP2 SUB SWAP1 RETURN JUMPDEST PUSH2 0x18A PUSH2 0x4E0 JUMP JUMPDEST PUSH1 0x40 MLOAD PUSH2 0x197 SWAP2 SWAP1 PUSH2 0x1904 JUMP JUMPDEST PUSH1 0x40 MLOAD DUP1 SWAP2 SUB SWAP1 RETURN JUMPDEST PUSH2 0x1A8 PUSH2 0x4E7 JUMP JUMPDEST PUSH1 0x40 MLOAD PUSH2 0x1B5 SWAP2 SWAP1 PUSH2 0x1904 JUMP JUMPDEST PUSH1 0x40 MLOAD DUP1 SWAP2 SUB SWAP1 RETURN JUMPDEST PUSH2 0x1C6 PUSH2 0x4EE JUMP JUMPDEST STOP JUMPDEST PUSH2 0x1D0 PUSH2 0xADF JUMP JUMPDEST PUSH1 0x40 MLOAD PUSH2 0x1DD SWAP2 SWAP1 PUSH2 0x1904 JUMP JUMPDEST PUSH1 0x40 MLOAD DUP1 SWAP2 SUB SWAP1 RETURN JUMPDEST PUSH2 0x1EE PUSH2 0xAE4 JUMP JUMPDEST PUSH1 0x40 MLOAD PUSH2 0x1FB SWAP2 SWAP1 PUSH2 0x1904 JUMP JUMPDEST PUSH1 0x40 MLOAD DUP1 SWAP2 SUB SWAP1 RETURN JUMPDEST PUSH2 0x21E PUSH1 0x4 DUP1 CALLDATASIZE SUB DUP2 ADD SWAP1 PUSH2 0x219 SWAP2 SWAP1 PUSH2 0x18C1 JUMP JUMPDEST PUSH2 0xAE9 JUMP JUMPDEST PUSH1 0x40 MLOAD PUSH2 0x22B SWAP2 SWAP1 PUSH2 0x19D4 JUMP JUMPDEST PUSH1 0x40 MLOAD DUP1 SWAP2 SUB SWAP1 RETURN JUMPDEST PUSH2 0x23C PUSH2 0xBB1 JUMP JUMPDEST PUSH1 0x40 MLOAD PUSH2 0x249 SWAP2 SWAP1 PUSH2 0x1904 JUMP JUMPDEST PUSH1 0x40 MLOAD DUP1 SWAP2 SUB SWAP1 RETURN JUMPDEST PUSH2 0x26C PUSH1 0x4 DUP1 CALLDATASIZE SUB DUP2 ADD SWAP1 PUSH2 0x267 SWAP2 SWAP1 PUSH2 0x18C1 JUMP JUMPDEST PUSH2 0xBB8 JUMP JUMPDEST PUSH1 0x40 MLOAD PUSH2 0x279 SWAP2 SWAP1 PUSH2 0x1904 JUMP JUMPDEST PUSH1 0x40 MLOAD DUP1 SWAP2 SUB SWAP1 RETURN JUMPDEST PUSH2 0x28A PUSH2 0xCA4 JUMP JUMPDEST STOP JUMPDEST PUSH2 0x294 PUSH2 0xCB7 JUMP JUMPDEST PUSH1 0x40 MLOAD PUSH2 0x2A1 SWAP2 SWAP1 PUSH2 0x1A4F JUMP JUMPDEST PUSH1 0x40 MLOAD DUP1 SWAP2 SUB SWAP1 RETURN JUMPDEST PUSH2 0x2B2 PUSH2 0xCCF JUMP JUMPDEST PUSH1 0x40 MLOAD PUSH2 0x2BF SWAP2 SWAP1 PUSH2 0x1A77 JUMP JUMPDEST PUSH1 0x40 MLOAD DUP1 SWAP2 SUB SWAP1 RETURN JUMPDEST PUSH2 0x2E2 PUSH1 0x4 DUP1 CALLDATASIZE SUB DUP2 ADD SWAP1 PUSH2 0x2DD SWAP2 SWAP1 PUSH2 0x18C1 JUMP JUMPDEST PUSH2 0xCF6 JUMP JUMPDEST PUSH1 0x40 MLOAD PUSH2 0x2F3 SWAP6 SWAP5 SWAP4 SWAP3 SWAP2 SWAP1 PUSH2 0x1A90 JUMP JUMPDEST PUSH1 0x40 MLOAD DUP1 SWAP2 SUB SWAP1 RETURN JUMPDEST PUSH2 0x316 PUSH1 0x4 DUP1 CALLDATASIZE SUB DUP2 ADD SWAP1 PUSH2 0x311 SWAP2 SWAP1 PUSH2 0x18C1 JUMP JUMPDEST PUSH2 0xD47 JUMP JUMPDEST PUSH1 0x40 MLOAD PUSH2 0x323 SWAP2 SWAP1 PUSH2 0x1904 JUMP JUMPDEST PUSH1 0x40 MLOAD DUP1 SWAP2 SUB SWAP1 RETURN JUMPDEST PUSH2 0x346 PUSH1 0x4 DUP1 CALLDATASIZE SUB DUP2 ADD SWAP1 PUSH2 0x341 SWAP2 SWAP1 PUSH2 0x1B0B JUMP JUMPDEST PUSH2 0xD5C JUMP JUMPDEST PUSH1 0x40 MLOAD PUSH2 0x353 SWAP2 SWAP1 PUSH2 0x1A77 JUMP JUMPDEST PUSH1 0x40 MLOAD DUP1 SWAP2 SUB SWAP1 RETURN JUMPDEST PUSH2 0x376 PUSH1 0x4 DUP1 CALLDATASIZE SUB DUP2 ADD SWAP1 PUSH2 0x371 SWAP2 SWAP1 PUSH2 0x1B49 JUMP JUMPDEST PUSH2 0xDA4 JUMP JUMPDEST STOP JUMPDEST PUSH2 0x392 PUSH1 0x4 DUP1 CALLDATASIZE SUB DUP2 ADD SWAP1 PUSH2 0x38D SWAP2 SWAP1 PUSH2 0x18C1 JUMP JUMPDEST PUSH2 0x1484 JUMP JUMPDEST STOP JUMPDEST PUSH2 0x39C PUSH2 0x1508 JUMP JUMPDEST PUSH1 0x40 MLOAD PUSH2 0x3A9 SWAP2 SWAP1 PUSH2 0x1BA7 JUMP JUMPDEST PUSH1 0x40 MLOAD DUP1 SWAP2 SUB SWAP1 RETURN JUMPDEST PUSH0 PUSH0 PUSH3 0x1FA40 PUSH1 0x2 PUSH0 DUP6 PUSH20 0xFFFFFFFFFFFFFFFFFFFFFFFFFFFFFFFFFFFFFFFF AND PUSH20 0xFFFFFFFFFFFFFFFFFFFFFFFFFFFFFFFFFFFFFFFF AND DUP2 MSTORE PUSH1 0x20 ADD SWAP1 DUP2 MSTORE PUSH1 0x20 ADD PUSH0 KECCAK256 PUSH1 0x4 ADD SLOAD PUSH2 0x403 SWAP2 SWAP1 PUSH2 0x1BED JUMP JUMPDEST SWAP1 POP DUP1 TIMESTAMP LT ISZERO PUSH2 0x41E JUMPI TIMESTAMP DUP2 PUSH2 0x419 SWAP2 SWAP1 PUSH2 0x1C20 JUMP JUMPDEST PUSH2 0x420 JUMP JUMPDEST PUSH0 JUMPDEST SWAP2 POP POP SWAP2 SWAP1 POP JUMP JUMPDEST PUSH0 PUSH0 PUSH1 0x2 PUSH0 DUP5 PUSH20 0xFFFFFFFFFFFFFFFFFFFFFFFFFFFFFFFFFFFFFFFF AND PUSH20 0xFFFFFFFFFFFFFFFFFFFFFFFFFFFFFFFFFFFFFFFF AND DUP2 MSTORE PUSH1 0x20 ADD SWAP1 DUP2 MSTORE PUSH1 0x20 ADD PUSH0 KECCAK256 PUSH0 ADD SLOAD SWAP1 POP PUSH5 0x12A05F200 DUP2 LT PUSH2 0x482 JUMPI PUSH1 0x50 SWAP2 POP POP PUSH2 0x4DB JUMP JUMPDEST PUSH4 0x3B9ACA00 DUP2 LT PUSH2 0x497 JUMPI PUSH1 0x32 SWAP2 POP POP PUSH2 0x4DB JUMP JUMPDEST PUSH4 0xBEBC200 DUP2 LT PUSH2 0x4AC JUMPI PUSH1 0x1E SWAP2 POP POP PUSH2 0x4DB JUMP JUMPDEST PUSH4 0x5F5E100 DUP2 LT PUSH2 0x4C1 JUMPI PUSH1 0x14 SWAP2 POP POP PUSH2 0x4DB JUMP JUMPDEST PUSH4 0x2FAF080 DUP2 LT PUSH2 0x4D6 JUMPI PUSH1 0xA SWAP2 POP POP PUSH2 0x4DB JUMP JUMPDEST PUSH0 SWAP2 POP POP JUMPDEST SWAP2 SWAP1 POP JUMP JUMPDEST PUSH3 0x1FA40 DUP2 JUMP JUMPDEST PUSH3 0x1E8480 DUP2 JUMP JUMPDEST PUSH2 0x4F6 PUSH2 0x1520 JUMP JUMPDEST PUSH0 PUSH1 0x2 PUSH0 CALLER PUSH20 0xFFFFFFFFFFFFFFFFFFFFFFFFFFFFFFFFFFFFFFFF AND PUSH20 0xFFFFFFFFFFFFFFFFFFFFFFFFFFFFFFFFFFFFFFFF AND DUP2 MSTORE PUSH1 0x20 ADD SWAP1 DUP2 MSTORE PUSH1 0x20 ADD PUSH0 KECCAK256 SWAP1 POP PUSH0 DUP2 PUSH1 0x1 ADD SLOAD GT PUSH2 0x57C JUMPI PUSH1 0x40 MLOAD PUSH32 0x8C379A000000000000000000000000000000000000000000000000000000000 DUP2 MSTORE PUSH1 0x4 ADD PUSH2 0x573 SWAP1 PUSH2 0x1CAD JUMP JUMPDEST PUSH1 0x40 MLOAD DUP1 SWAP2 SUB SWAP1 REVERT JUMPDEST PUSH0 PUSH20 0x36CBD53842C5426634E7929541EC2318F3DCF7E PUSH20 0xFFFFFFFFFFFFFFFFFFFFFFFFFFFFFFFFFFFFFFFF AND PUSH4 0x70A08231 ADDRESS PUSH1 0x40 MLOAD DUP3 PUSH4 0xFFFFFFFF AND PUSH1 0xE0 SHL DUP2 MSTORE PUSH1 0x4 ADD PUSH2 0x5CA SWAP2 SWAP1 PUSH2 0x1A77 JUMP JUMPDEST PUSH1 0x20 PUSH1 0x40 MLOAD DUP1 DUP4 SUB DUP2 DUP7 GAS STATICCALL ISZERO DUP1 ISZERO PUSH2 0x5E5 JUMPI RETURNDATASIZE PUSH0 PUSH0 RETURNDATACOPY RETURNDATASIZE PUSH0 REVERT JUMPDEST POP POP POP POP PUSH1 0x40 MLOAD RETURNDATASIZE PUSH1 0x1F NOT PUSH1 0x1F DUP3 ADD AND DUP3 ADD DUP1 PUSH1 0x40 MSTORE POP DUP2 ADD SWAP1 PUSH2 0x609 SWAP2 SWAP1 PUSH2 0x1CDF JUMP JUMPDEST SWAP1 POP PUSH0 PUSH20 0x403D64B3F6B4A2B095754877395AB3255476D081 PUSH20 0xFFFFFFFFFFFFFFFFFFFFFFFFFFFFFFFFFFFFFFFF AND PUSH4 0xDB006A75 DUP5 PUSH1 0x1 ADD SLOAD PUSH1 0x40 MLOAD DUP3 PUSH4 0xFFFFFFFF AND PUSH1 0xE0 SHL DUP2 MSTORE PUSH1 0x4 ADD PUSH2 0x65D SWAP2 SWAP1 PUSH2 0x1904 JUMP JUMPDEST PUSH1 0x20 PUSH1 0x40 MLOAD DUP1 DUP4 SUB DUP2 PUSH0 DUP8 GAS CALL ISZERO DUP1 ISZERO PUSH2 0x679 JUMPI RETURNDATASIZE PUSH0 PUSH0 RETURNDATACOPY RETURNDATASIZE PUSH0 REVERT JUMPDEST POP POP POP POP PUSH1 0x40 MLOAD RETURNDATASIZE PUSH1 0x1F NOT PUSH1 0x1F DUP3 ADD AND DUP3 ADD DUP1 PUSH1 0x40 MSTORE POP DUP2 ADD SWAP1 PUSH2 0x69D SWAP2 SWAP1 PUSH2 0x1CDF JUMP JUMPDEST EQ PUSH2 0x6DD JUMPI PUSH1 0x40 MLOAD PUSH32 0x8C379A000000000000000000000000000000000000000000000000000000000 DUP2 MSTORE PUSH1 0x4 ADD PUSH2 0x6D4 SWAP1 PUSH2 0x1D54 JUMP JUMPDEST PUSH1 0x40 MLOAD DUP1 SWAP2 SUB SWAP1 REVERT JUMPDEST PUSH0 DUP2 PUSH20 0x36CBD53842C5426634E7929541EC2318F3DCF7E PUSH20 0xFFFFFFFFFFFFFFFFFFFFFFFFFFFFFFFFFFFFFFFF AND PUSH4 0x70A08231 ADDRESS PUSH1 0x40 MLOAD DUP3 PUSH4 0xFFFFFFFF AND PUSH1 0xE0 SHL DUP2 MSTORE PUSH1 0x4 ADD PUSH2 0x72C SWAP2 SWAP1 PUSH2 0x1A77 JUMP JUMPDEST PUSH1 0x20 PUSH1 0x40 MLOAD DUP1 DUP4 SUB DUP2 DUP7 GAS STATICCALL ISZERO DUP1 ISZERO PUSH2 0x747 JUMPI RETURNDATASIZE PUSH0 PUSH0 RETURNDATACOPY RETURNDATASIZE PUSH0 REVERT JUMPDEST POP POP POP POP PUSH1 0x40 MLOAD RETURNDATASIZE PUSH1 0x1F NOT PUSH1 0x1F DUP3 ADD AND DUP3 ADD DUP1 PUSH1 0x40 MSTORE POP DUP2 ADD SWAP1 PUSH2 0x76B SWAP2 SWAP1 PUSH2 0x1CDF JUMP JUMPDEST PUSH2 0x775 SWAP2 SWAP1 PUSH2 0x1C20 JUMP JUMPDEST SWAP1 POP PUSH0 PUSH0 PUSH3 0x1FA40 DUP6 PUSH1 0x4 ADD SLOAD PUSH2 0x78C SWAP2 SWAP1 PUSH2 0x1BED JUMP JUMPDEST TIMESTAMP LT ISZERO PUSH2 0x807 JUMPI PUSH1 0x64 PUSH1 0x1 DUP5 PUSH2 0x7A2 SWAP2 SWAP1 PUSH2 0x1D72 JUMP JUMPDEST PUSH2 0x7AC SWAP2 SWAP1 PUSH2 0x1DE0 JUMP JUMPDEST SWAP1 POP DUP1 DUP4 PUSH2 0x7BA SWAP2 SWAP1 PUSH2 0x1C20 JUMP JUMPDEST SWAP2 POP PUSH2 0x802 PUSH2 0x7C7 PUSH2 0xCCF JUMP JUMPDEST DUP3 PUSH20 0x36CBD53842C5426634E7929541EC2318F3DCF7E PUSH20 0xFFFFFFFFFFFFFFFFFFFFFFFFFFFFFFFFFFFFFFFF AND PUSH2 0x156F SWAP1 SWAP3 SWAP2 SWAP1 PUSH4 0xFFFFFFFF AND JUMP JUMPDEST PUSH2 0xA30 JUMP JUMPDEST PUSH0 PUSH3 0x1E8480 DUP5 LT ISZERO PUSH2 0x819 JUMPI DUP4 PUSH2 0x81E JUMP JUMPDEST PUSH3 0x1E8480 JUMPDEST SWAP1 POP PUSH0 DUP7 PUSH0 ADD SLOAD DUP3 DUP7 PUSH2 0x831 SWAP2 SWAP1 PUSH2 0x1C20 JUMP JUMPDEST GT PUSH2 0x83C JUMPI PUSH0 PUSH2 0x857 JUMP JUMPDEST DUP7 PUSH0 ADD SLOAD DUP3 DUP7 PUSH2 0x84C SWAP2 SWAP1 PUSH2 0x1C20 JUMP JUMPDEST PUSH2 0x856 SWAP2 SWAP1 PUSH2 0x1C20 JUMP JUMPDEST JUMPDEST SWAP1 POP PUSH0 PUSH1 0x64 PUSH1 0xA DUP4 PUSH2 0x869 SWAP2 SWAP1 PUSH2 0x1D72 JUMP JUMPDEST PUSH2 0x873 SWAP2 SWAP1 PUSH2 0x1DE0 JUMP JUMPDEST SWAP1 POP PUSH0 DUP3 GT DUP1 ISZERO PUSH2 0x8D3 JUMPI POP PUSH0 PUSH20 0xFFFFFFFFFFFFFFFFFFFFFFFFFFFFFFFFFFFFFFFF AND DUP9 PUSH1 0x2 ADD PUSH0 SWAP1 SLOAD SWAP1 PUSH2 0x100 EXP SWAP1 DIV PUSH20 0xFFFFFFFFFFFFFFFFFFFFFFFFFFFFFFFFFFFFFFFF AND PUSH20 0xFFFFFFFFFFFFFFFFFFFFFFFFFFFFFFFFFFFFFFFF AND EQ ISZERO JUMPDEST ISZERO PUSH2 0x9BE JUMPI PUSH0 PUSH1 0x64 PUSH2 0x907 DUP11 PUSH1 0x2 ADD PUSH0 SWAP1 SLOAD SWAP1 PUSH2 0x100 EXP SWAP1 DIV PUSH20 0xFFFFFFFFFFFFFFFFFFFFFFFFFFFFFFFFFFFFFFFF AND PUSH2 0x428 JUMP JUMPDEST DUP5 PUSH2 0x912 SWAP2 SWAP1 PUSH2 0x1D72 JUMP JUMPDEST PUSH2 0x91C SWAP2 SWAP1 PUSH2 0x1DE0 JUMP JUMPDEST SWAP1 POP DUP1 PUSH1 0x3 PUSH0 DUP12 PUSH1 0x2 ADD PUSH0 SWAP1 SLOAD SWAP1 PUSH2 0x100 EXP SWAP1 DIV PUSH20 0xFFFFFFFFFFFFFFFFFFFFFFFFFFFFFFFFFFFFFFFF AND PUSH20 0xFFFFFFFFFFFFFFFFFFFFFFFFFFFFFFFFFFFFFFFF AND PUSH20 0xFFFFFFFFFFFFFFFFFFFFFFFFFFFFFFFFFFFFFFFF AND DUP2 MSTORE PUSH1 0x20 ADD SWAP1 DUP2 MSTORE PUSH1 0x20 ADD PUSH0 KECCAK256 PUSH0 DUP3 DUP3 SLOAD PUSH2 0x98D SWAP2 SWAP1 PUSH2 0x1BED JUMP JUMPDEST SWAP3 POP POP DUP2 SWAP1 SSTORE POP DUP1 DUP3 DUP6 DUP10 PUSH2 0x9A2 SWAP2 SWAP1 PUSH2 0x1C20 JUMP JUMPDEST PUSH2 0x9AC SWAP2 SWAP1 PUSH2 0x1C20 JUMP JUMPDEST PUSH2 0x9B6 SWAP2 SWAP1 PUSH2 0x1C20 JUMP JUMPDEST SWAP6 POP POP PUSH2 0x9D8 JUMP JUMPDEST DUP1 DUP4 DUP8 PUSH2 0x9CB SWAP2 SWAP1 PUSH2 0x1C20 JUMP JUMPDEST PUSH2 0x9D5 SWAP2 SWAP1 PUSH2 0x1C20 JUMP JUMPDEST SWAP5 POP JUMPDEST DUP1 DUP4 PUSH2 0x9E4 SWAP2 SWAP1 PUSH2 0x1BED JUMP JUMPDEST SWAP4 POP PUSH2 0xA2C PUSH2 0x9F1 PUSH2 0xCCF JUMP JUMPDEST DUP6 PUSH20 0x36CBD53842C5426634E7929541EC2318F3DCF7E PUSH20 0xFFFFFFFFFFFFFFFFFFFFFFFFFFFFFFFFFFFFFFFF AND PUSH2 0x156F SWAP1 SWAP3 SWAP2 SWAP1 PUSH4 0xFFFFFFFF AND JUMP JUMPDEST POP POP POP JUMPDEST PUSH0 DUP6 PUSH0 ADD DUP2 SWAP1 SSTORE POP PUSH0 DUP6 PUSH1 0x1 ADD DUP2 SWAP1 SSTORE POP PUSH2 0xA80 CALLER DUP4 PUSH20 0x36CBD53842C5426634E7929541EC2318F3DCF7E PUSH20 0xFFFFFFFFFFFFFFFFFFFFFFFFFFFFFFFFFFFFFFFF AND PUSH2 0x156F SWAP1 SWAP3 SWAP2 SWAP1 PUSH4 0xFFFFFFFF AND JUMP JUMPDEST CALLER PUSH20 0xFFFFFFFFFFFFFFFFFFFFFFFFFFFFFFFFFFFFFFFF AND PUSH32 0xF279E6A1F5E320CCA91135676D9CB6E44CA8A08C0B88342BCDB1144F6511B568 DUP4 DUP4 PUSH1 0x40 MLOAD PUSH2 0xAC8 SWAP3 SWAP2 SWAP1 PUSH2 0x1E10 JUMP JUMPDEST PUSH1 0x40 MLOAD DUP1 SWAP2 SUB SWAP1 LOG2 POP POP POP POP POP PUSH2 0xADD PUSH2 0x15EE JUMP JUMPDEST JUMP JUMPDEST PUSH1 0xA DUP2 JUMP JUMPDEST PUSH1 0x1 DUP2 JUMP JUMPDEST PUSH1 0x60 PUSH1 0x4 PUSH0 DUP4 PUSH20 0xFFFFFFFFFFFFFFFFFFFFFFFFFFFFFFFFFFFFFFFF AND PUSH20 0xFFFFFFFFFFFFFFFFFFFFFFFFFFFFFFFFFFFFFFFF AND DUP2 MSTORE PUSH1 0x20 ADD SWAP1 DUP2 MSTORE PUSH1 0x20 ADD PUSH0 KECCAK256 DUP1 SLOAD DUP1 PUSH1 0x20 MUL PUSH1 0x20 ADD PUSH1 0x40 MLOAD SWAP1 DUP2 ADD PUSH1 0x40 MSTORE DUP1 SWAP3 SWAP2 SWAP1 DUP2 DUP2 MSTORE PUSH1 0x20 ADD DUP3 DUP1 SLOAD DUP1 ISZERO PUSH2 0xBA5 JUMPI PUSH1 0x20 MUL DUP3 ADD SWAP2 SWAP1 PUSH0 MSTORE PUSH1 0x20 PUSH0 KECCAK256 SWAP1 JUMPDEST DUP2 PUSH0 SWAP1 SLOAD SWAP1 PUSH2 0x100 EXP SWAP1 DIV PUSH20 0xFFFFFFFFFFFFFFFFFFFFFFFFFFFFFFFFFFFFFFFF AND PUSH20 0xFFFFFFFFFFFFFFFFFFFFFFFFFFFFFFFFFFFFFFFF AND DUP2 MSTORE PUSH1 0x20 ADD SWAP1 PUSH1 0x1 ADD SWAP1 DUP1 DUP4 GT PUSH2 0xB5C JUMPI JUMPDEST POP POP POP POP POP SWAP1 POP SWAP2 SWAP1 POP JUMP JUMPDEST PUSH3 0x989680 DUP2 JUMP JUMPDEST PUSH0 PUSH0 PUSH20 0x403D64B3F6B4A2B095754877395AB3255476D081 PUSH20 0xFFFFFFFFFFFFFFFFFFFFFFFFFFFFFFFFFFFFFFFF AND PUSH4 0x182DF0F5 PUSH1 0x40 MLOAD DUP2 PUSH4 0xFFFFFFFF AND PUSH1 0xE0 SHL DUP2 MSTORE PUSH1 0x4 ADD PUSH1 0x20 PUSH1 0x40 MLOAD DUP1 DUP4 SUB DUP2 DUP7 GAS STATICCALL ISZERO DUP1 ISZERO PUSH2 0xC17 JUMPI RETURNDATASIZE PUSH0 PUSH0 RETURNDATACOPY RETURNDATASIZE PUSH0 REVERT JUMPDEST POP POP POP POP PUSH1 0x40 MLOAD RETURNDATASIZE PUSH1 0x1F NOT PUSH1 0x1F DUP3 ADD AND DUP3 ADD DUP1 PUSH1 0x40 MSTORE POP DUP2 ADD SWAP1 PUSH2 0xC3B SWAP2 SWAP1 PUSH2 0x1CDF JUMP JUMPDEST SWAP1 POP PUSH8 0xDE0B6B3A7640000 DUP2 PUSH1 0x2 PUSH0 DUP7 PUSH20 0xFFFFFFFFFFFFFFFFFFFFFFFFFFFFFFFFFFFFFFFF AND PUSH20 0xFFFFFFFFFFFFFFFFFFFFFFFFFFFFFFFFFFFFFFFF AND DUP2 MSTORE PUSH1 0x20 ADD SWAP1 DUP2 MSTORE PUSH1 0x20 ADD PUSH0 KECCAK256 PUSH1 0x1 ADD SLOAD PUSH2 0xC92 SWAP2 SWAP1 PUSH2 0x1D72 JUMP JUMPDEST PUSH2 0xC9C SWAP2 SWAP1 PUSH2 0x1DE0 JUMP JUMPDEST SWAP2 POP POP SWAP2 SWAP1 POP JUMP JUMPDEST PUSH2 0xCAC PUSH2 0x15F7 JUMP JUMPDEST PUSH2 0xCB5 PUSH0 PUSH2 0x167E JUMP JUMPDEST JUMP JUMPDEST PUSH20 0x36CBD53842C5426634E7929541EC2318F3DCF7E DUP2 JUMP JUMPDEST PUSH0 PUSH0 PUSH0 SWAP1 SLOAD SWAP1 PUSH2 0x100 EXP SWAP1 DIV PUSH20 0xFFFFFFFFFFFFFFFFFFFFFFFFFFFFFFFFFFFFFFFF AND SWAP1 POP SWAP1 JUMP JUMPDEST PUSH1 0x2 PUSH1 0x20 MSTORE DUP1 PUSH0 MSTORE PUSH1 0x40 PUSH0 KECCAK256 PUSH0 SWAP2 POP SWAP1 POP DUP1 PUSH0 ADD SLOAD SWAP1 DUP1 PUSH1 0x1 ADD SLOAD SWAP1 DUP1 PUSH1 0x2 ADD PUSH0 SWAP1 SLOAD SWAP1 PUSH2 0x100 EXP SWAP1 DIV PUSH20 0xFFFFFFFFFFFFFFFFFFFFFFFFFFFFFFFFFFFFFFFF AND SWAP1 DUP1 PUSH1 0x3 ADD SLOAD SWAP1 DUP1 PUSH1 0x4 ADD SLOAD SWAP1 POP DUP6 JUMP JUMPDEST PUSH1 0x3 PUSH1 0x20 MSTORE DUP1 PUSH0 MSTORE PUSH1 0x40 PUSH0 KECCAK256 PUSH0 SWAP2 POP SWAP1 POP SLOAD DUP2 JUMP JUMPDEST PUSH1 0x4 PUSH1 0x20 MSTORE DUP2 PUSH0 MSTORE PUSH1 0x40 PUSH0 KECCAK256 DUP2 DUP2 SLOAD DUP2 LT PUSH2 0xD75 JUMPI PUSH0 DUP1 REVERT JUMPDEST SWAP1 PUSH0 MSTORE PUSH1 0x20 PUSH0 KECCAK256 ADD PUSH0 SWAP2 POP SWAP2 POP SWAP1 SLOAD SWAP1 PUSH2 0x100 EXP SWAP1 DIV PUSH20 0xFFFFFFFFFFFFFFFFFFFFFFFFFFFFFFFFFFFFFFFF AND DUP2 JUMP JUMPDEST PUSH2 0xDAC PUSH2 0x1520 JUMP JUMPDEST PUSH3 0x989680 DUP3 LT ISZERO PUSH2 0xDF2 JUMPI PUSH1 0x40 MLOAD PUSH32 0x8C379A000000000000000000000000000000000000000000000000000000000 DUP2 MSTORE PUSH1 0x4 ADD PUSH2 0xDE9 SWAP1 PUSH2 0x1E81 JUMP JUMPDEST PUSH1 0x40 MLOAD DUP1 SWAP2 SUB SWAP1 REVERT JUMPDEST CALLER PUSH20 0xFFFFFFFFFFFFFFFFFFFFFFFFFFFFFFFFFFFFFFFF AND DUP2 PUSH20 0xFFFFFFFFFFFFFFFFFFFFFFFFFFFFFFFFFFFFFFFF AND SUB PUSH2 0xE60 JUMPI PUSH1 0x40 MLOAD PUSH32 0x8C379A000000000000000000000000000000000000000000000000000000000 DUP2 MSTORE PUSH1 0x4 ADD PUSH2 0xE57 SWAP1 PUSH2 0x1EE9 JUMP JUMPDEST PUSH1 0x40 MLOAD DUP1 SWAP2 SUB SWAP1 REVERT JUMPDEST PUSH0 PUSH20 0xFFFFFFFFFFFFFFFFFFFFFFFFFFFFFFFFFFFFFFFF AND PUSH1 0x2 PUSH0 CALLER PUSH20 0xFFFFFFFFFFFFFFFFFFFFFFFFFFFFFFFFFFFFFFFF AND PUSH20 0xFFFFFFFFFFFFFFFFFFFFFFFFFFFFFFFFFFFFFFFF AND DUP2 MSTORE PUSH1 0x20 ADD SWAP1 DUP2 MSTORE PUSH1 0x20 ADD PUSH0 KECCAK256 PUSH1 0x2 ADD PUSH0 SWAP1 SLOAD SWAP1 PUSH2 0x100 EXP SWAP1 DIV PUSH20 0xFFFFFFFFFFFFFFFFFFFFFFFFFFFFFFFFFFFFFFFF AND PUSH20 0xFFFFFFFFFFFFFFFFFFFFFFFFFFFFFFFFFFFFFFFF AND EQ DUP1 ISZERO PUSH2 0xF26 JUMPI POP PUSH0 PUSH20 0xFFFFFFFFFFFFFFFFFFFFFFFFFFFFFFFFFFFFFFFF AND DUP2 PUSH20 0xFFFFFFFFFFFFFFFFFFFFFFFFFFFFFFFFFFFFFFFF AND EQ ISZERO JUMPDEST ISZERO PUSH2 0x1045 JUMPI DUP1 PUSH1 0x2 PUSH0 CALLER PUSH20 0xFFFFFFFFFFFFFFFFFFFFFFFFFFFFFFFFFFFFFFFF AND PUSH20 0xFFFFFFFFFFFFFFFFFFFFFFFFFFFFFFFFFFFFFFFF AND DUP2 MSTORE PUSH1 0x20 ADD SWAP1 DUP2 MSTORE PUSH1 0x20 ADD PUSH0 KECCAK256 PUSH1 0x2 ADD PUSH0 PUSH2 0x100 EXP DUP2 SLOAD DUP2 PUSH20 0xFFFFFFFFFFFFFFFFFFFFFFFFFFFFFFFFFFFFFFFF MUL NOT AND SWAP1 DUP4 PUSH20 0xFFFFFFFFFFFFFFFFFFFFFFFFFFFFFFFFFFFFFFFF AND MUL OR SWAP1 SSTORE POP PUSH1 0x4 PUSH0 DUP3 PUSH20 0xFFFFFFFFFFFFFFFFFFFFFFFFFFFFFFFFFFFFFFFF AND PUSH20 0xFFFFFFFFFFFFFFFFFFFFFFFFFFFFFFFFFFFFFFFF AND DUP2 MSTORE PUSH1 0x20 ADD SWAP1 DUP2 MSTORE PUSH1 0x20 ADD PUSH0 KECCAK256 CALLER SWAP1 DUP1 PUSH1 0x1 DUP2 SLOAD ADD DUP1 DUP3 SSTORE DUP1 SWAP2 POP POP PUSH1 0x1 SWAP1 SUB SWAP1 PUSH0 MSTORE PUSH1 0x20 PUSH0 KECCAK256 ADD PUSH0 SWAP1 SWAP2 SWAP1 SWAP2 SWAP1 SWAP2 PUSH2 0x100 EXP DUP2 SLOAD DUP2 PUSH20 0xFFFFFFFFFFFFFFFFFFFFFFFFFFFFFFFFFFFFFFFF MUL NOT AND SWAP1 DUP4 PUSH20 0xFFFFFFFFFFFFFFFFFFFFFFFFFFFFFFFFFFFFFFFF AND MUL OR SWAP1 SSTORE POP JUMPDEST PUSH2 0x1086 CALLER ADDRESS DUP5 PUSH20 0x36CBD53842C5426634E7929541EC2318F3DCF7E PUSH20 0xFFFFFFFFFFFFFFFFFFFFFFFFFFFFFFFFFFFFFFFF AND PUSH2 0x173F SWAP1 SWAP4 SWAP3 SWAP2 SWAP1 PUSH4 0xFFFFFFFF AND JUMP JUMPDEST PUSH20 0x36CBD53842C5426634E7929541EC2318F3DCF7E PUSH20 0xFFFFFFFFFFFFFFFFFFFFFFFFFFFFFFFFFFFFFFFF AND PUSH4 0x95EA7B3 PUSH20 0x403D64B3F6B4A2B095754877395AB3255476D081 DUP5 PUSH1 0x40 MLOAD DUP4 PUSH4 0xFFFFFFFF AND PUSH1 0xE0 SHL DUP2 MSTORE PUSH1 0x4 ADD PUSH2 0x10E9 SWAP3 SWAP2 SWAP1 PUSH2 0x1F07 JUMP JUMPDEST PUSH1 0x20 PUSH1 0x40 MLOAD DUP1 DUP4 SUB DUP2 PUSH0 DUP8 GAS CALL ISZERO DUP1 ISZERO PUSH2 0x1105 JUMPI RETURNDATASIZE PUSH0 PUSH0 RETURNDATACOPY RETURNDATASIZE PUSH0 REVERT JUMPDEST POP POP POP POP PUSH1 0x40 MLOAD RETURNDATASIZE PUSH1 0x1F NOT PUSH1 0x1F DUP3 ADD AND DUP3 ADD DUP1 PUSH1 0x40 MSTORE POP DUP2 ADD SWAP1 PUSH2 0x1129 SWAP2 SWAP1 PUSH2 0x1F63 JUMP JUMPDEST POP PUSH0 PUSH20 0x403D64B3F6B4A2B095754877395AB3255476D081 PUSH20 0xFFFFFFFFFFFFFFFFFFFFFFFFFFFFFFFFFFFFFFFF AND PUSH4 0x70A08231 ADDRESS PUSH1 0x40 MLOAD DUP3 PUSH4 0xFFFFFFFF AND PUSH1 0xE0 SHL DUP2 MSTORE PUSH1 0x4 ADD PUSH2 0x1178 SWAP2 SWAP1 PUSH2 0x1A77 JUMP JUMPDEST PUSH1 0x20 PUSH1 0x40 MLOAD DUP1 DUP4 SUB DUP2 DUP7 GAS STATICCALL ISZERO DUP1 ISZERO PUSH2 0x1193 JUMPI RETURNDATASIZE PUSH0 PUSH0 RETURNDATACOPY RETURNDATASIZE PUSH0 REVERT JUMPDEST POP POP POP POP PUSH1 0x40 MLOAD RETURNDATASIZE PUSH1 0x1F NOT PUSH1 0x1F DUP3 ADD AND DUP3 ADD DUP1 PUSH1 0x40 MSTORE POP DUP2 ADD SWAP1 PUSH2 0x11B7 SWAP2 SWAP1 PUSH2 0x1CDF JUMP JUMPDEST SWAP1 POP PUSH0 PUSH20 0x403D64B3F6B4A2B095754877395AB3255476D081 PUSH20 0xFFFFFFFFFFFFFFFFFFFFFFFFFFFFFFFFFFFFFFFF AND PUSH4 0xA0712D68 DUP6 PUSH1 0x40 MLOAD DUP3 PUSH4 0xFFFFFFFF AND PUSH1 0xE0 SHL DUP2 MSTORE PUSH1 0x4 ADD PUSH2 0x1207 SWAP2 SWAP1 PUSH2 0x1904 JUMP JUMPDEST PUSH1 0x20 PUSH1 0x40 MLOAD DUP1 DUP4 SUB DUP2 PUSH0 DUP8 GAS CALL ISZERO DUP1 ISZERO PUSH2 0x1223 JUMPI RETURNDATASIZE PUSH0 PUSH0 RETURNDATACOPY RETURNDATASIZE PUSH0 REVERT JUMPDEST POP POP POP POP PUSH1 0x40 MLOAD RETURNDATASIZE PUSH1 0x1F NOT PUSH1 0x1F DUP3 ADD AND DUP3 ADD DUP1 PUSH1 0x40 MSTORE POP DUP2 ADD SWAP1 PUSH2 0x1247 SWAP2 SWAP1 PUSH2 0x1CDF JUMP JUMPDEST EQ PUSH2 0x1287 JUMPI PUSH1 0x40 MLOAD PUSH32 0x8C379A000000000000000000000000000000000000000000000000000000000 DUP2 MSTORE PUSH1 0x4 ADD PUSH2 0x127E SWAP1 PUSH2 0x1FD8 JUMP JUMPDEST PUSH1 0x40 MLOAD DUP1 SWAP2 SUB SWAP1 REVERT JUMPDEST PUSH0 DUP2 PUSH20 0x403D64B3F6B4A2B095754877395AB3255476D081 PUSH20 0xFFFFFFFFFFFFFFFFFFFFFFFFFFFFFFFFFFFFFFFF AND PUSH4 0x70A08231 ADDRESS PUSH1 0x40 MLOAD DUP3 PUSH4 0xFFFFFFFF AND PUSH1 0xE0 SHL DUP2 MSTORE PUSH1 0x4 ADD PUSH2 0x12D6 SWAP2 SWAP1 PUSH2 0x1A77 JUMP JUMPDEST PUSH1 0x20 PUSH1 0x40 MLOAD DUP1 DUP4 SUB DUP2 DUP7 GAS STATICCALL ISZERO DUP1 ISZERO PUSH2 0x12F1 JUMPI RETURNDATASIZE PUSH0 PUSH0 RETURNDATACOPY RETURNDATASIZE PUSH0 REVERT JUMPDEST POP POP POP POP PUSH1 0x40 MLOAD RETURNDATASIZE PUSH1 0x1F NOT PUSH1 0x1F DUP3 ADD AND DUP3 ADD DUP1 PUSH1 0x40 MSTORE POP DUP2 ADD SWAP1 PUSH2 0x1315 SWAP2 SWAP1 PUSH2 0x1CDF JUMP JUMPDEST PUSH2 0x131F SWAP2 SWAP1 PUSH2 0x1C20 JUMP JUMPDEST SWAP1 POP DUP4 PUSH1 0x2 PUSH0 CALLER PUSH20 0xFFFFFFFFFFFFFFFFFFFFFFFFFFFFFFFFFFFFFFFF AND PUSH20 0xFFFFFFFFFFFFFFFFFFFFFFFFFFFFFFFFFFFFFFFF AND DUP2 MSTORE PUSH1 0x20 ADD SWAP1 DUP2 MSTORE PUSH1 0x20 ADD PUSH0 KECCAK256 PUSH0 ADD PUSH0 DUP3 DUP3 SLOAD PUSH2 0x136F SWAP2 SWAP1 PUSH2 0x1BED JUMP JUMPDEST SWAP3 POP POP DUP2 SWAP1 SSTORE POP DUP1 PUSH1 0x2 PUSH0 CALLER PUSH20 0xFFFFFFFFFFFFFFFFFFFFFFFFFFFFFFFFFFFFFFFF AND PUSH20 0xFFFFFFFFFFFFFFFFFFFFFFFFFFFFFFFFFFFFFFFF AND DUP2 MSTORE PUSH1 0x20 ADD SWAP1 DUP2 MSTORE PUSH1 0x20 ADD PUSH0 KECCAK256 PUSH1 0x1 ADD PUSH0 DUP3 DUP3 SLOAD PUSH2 0x13C5 SWAP2 SWAP1 PUSH2 0x1BED JUMP JUMPDEST SWAP3 POP POP DUP2 SWAP1 SSTORE POP TIMESTAMP PUSH1 0x2 PUSH0 CALLER PUSH20 0xFFFFFFFFFFFFFFFFFFFFFFFFFFFFFFFFFFFFFFFF AND PUSH20 0xFFFFFFFFFFFFFFFFFFFFFFFFFFFFFFFFFFFFFFFF AND DUP2 MSTORE PUSH1 0x20 ADD SWAP1 DUP2 MSTORE PUSH1 0x20 ADD PUSH0 KECCAK256 PUSH1 0x4 ADD DUP2 SWAP1 SSTORE POP DUP3 PUSH20 0xFFFFFFFFFFFFFFFFFFFFFFFFFFFFFFFFFFFFFFFF AND CALLER PUSH20 0xFFFFFFFFFFFFFFFFFFFFFFFFFFFFFFFFFFFFFFFF AND PUSH32 0xE31C7B8D08EE7DB0AFA68782E1028EF92305CAEEA8626633AD44D413E30F6B2F DUP7 PUSH1 0x40 MLOAD PUSH2 0x146E SWAP2 SWAP1 PUSH2 0x1904 JUMP JUMPDEST PUSH1 0x40 MLOAD DUP1 SWAP2 SUB SWAP1 LOG3 POP POP PUSH2 0x1480 PUSH2 0x15EE JUMP JUMPDEST POP POP JUMP JUMPDEST PUSH2 0x148C PUSH2 0x15F7 JUMP JUMPDEST PUSH0 PUSH20 0xFFFFFFFFFFFFFFFFFFFFFFFFFFFFFFFFFFFFFFFF AND DUP2 PUSH20 0xFFFFFFFFFFFFFFFFFFFFFFFFFFFFFFFFFFFFFFFF AND SUB PUSH2 0x14FC JUMPI PUSH0 PUSH1 0x40 MLOAD PUSH32 0x1E4FBDF700000000000000000000000000000000000000000000000000000000 DUP2 MSTORE PUSH1 0x4 ADD PUSH2 0x14F3 SWAP2 SWAP1 PUSH2 0x1A77 JUMP JUMPDEST PUSH1 0x40 MLOAD DUP1 SWAP2 SUB SWAP1 REVERT JUMPDEST PUSH2 0x1505 DUP2 PUSH2 0x167E JUMP JUMPDEST POP JUMP JUMPDEST PUSH20 0x403D64B3F6B4A2B095754877395AB3255476D081 DUP2 JUMP JUMPDEST PUSH1 0x2 PUSH1 0x1 SLOAD SUB PUSH2 0x1565 JUMPI PUSH1 0x40 MLOAD PUSH32 0x8C379A000000000000000000000000000000000000000000000000000000000 DUP2 MSTORE PUSH1 0x4 ADD PUSH2 0x155C SWAP1 PUSH2 0x2040 JUMP JUMPDEST PUSH1 0x40 MLOAD DUP1 SWAP2 SUB SWAP1 REVERT JUMPDEST PUSH1 0x2 PUSH1 0x1 DUP2 SWAP1 SSTORE POP JUMP JUMPDEST PUSH2 0x15E9 DUP4 DUP5 PUSH20 0xFFFFFFFFFFFFFFFFFFFFFFFFFFFFFFFFFFFFFFFF AND PUSH4 0xA9059CBB DUP6 DUP6 PUSH1 0x40 MLOAD PUSH1 0x24 ADD PUSH2 0x15A2 SWAP3 SWAP2 SWAP1 PUSH2 0x1F07 JUMP JUMPDEST PUSH1 0x40 MLOAD PUSH1 0x20 DUP2 DUP4 SUB SUB DUP2 MSTORE SWAP1 PUSH1 0x40 MSTORE SWAP2 POP PUSH1 0xE0 SHL PUSH1 0x20 DUP3 ADD DUP1 MLOAD PUSH28 0xFFFFFFFFFFFFFFFFFFFFFFFFFFFFFFFFFFFFFFFFFFFFFFFFFFFFFFFF DUP4 DUP2 DUP4 AND OR DUP4 MSTORE POP POP POP POP PUSH2 0x17C1 JUMP JUMPDEST POP POP POP JUMP JUMPDEST PUSH1 0x1 DUP1 DUP2 SWAP1 SSTORE POP JUMP JUMPDEST PUSH2 0x15FF PUSH2 0x185C JUMP JUMPDEST PUSH20 0xFFFFFFFFFFFFFFFFFFFFFFFFFFFFFFFFFFFFFFFF AND PUSH2 0x161D PUSH2 0xCCF JUMP JUMPDEST PUSH20 0xFFFFFFFFFFFFFFFFFFFFFFFFFFFFFFFFFFFFFFFF AND EQ PUSH2 0x167C JUMPI PUSH2 0x1640 PUSH2 0x185C JUMP JUMPDEST PUSH1 0x40 MLOAD PUSH32 0x118CDAA700000000000000000000000000000000000000000000000000000000 DUP2 MSTORE PUSH1 0x4 ADD PUSH2 0x1673 SWAP2 SWAP1 PUSH2 0x1A77 JUMP JUMPDEST PUSH1 0x40 MLOAD DUP1 SWAP2 SUB SWAP1 REVERT JUMPDEST JUMP JUMPDEST PUSH0 PUSH0 PUSH0 SWAP1 SLOAD SWAP1 PUSH2 0x100 EXP SWAP1 DIV PUSH20 0xFFFFFFFFFFFFFFFFFFFFFFFFFFFFFFFFFFFFFFFF AND SWAP1 POP DUP2 PUSH0 PUSH0 PUSH2 0x100 EXP DUP2 SLOAD DUP2 PUSH20 0xFFFFFFFFFFFFFFFFFFFFFFFFFFFFFFFFFFFFFFFF MUL NOT AND SWAP1 DUP4 PUSH20 0xFFFFFFFFFFFFFFFFFFFFFFFFFFFFFFFFFFFFFFFF AND MUL OR SWAP1 SSTORE POP DUP2 PUSH20 0xFFFFFFFFFFFFFFFFFFFFFFFFFFFFFFFFFFFFFFFF AND DUP2 PUSH20 0xFFFFFFFFFFFFFFFFFFFFFFFFFFFFFFFFFFFFFFFF AND PUSH32 0x8BE0079C531659141344CD1FD0A4F28419497F9722A3DAAFE3B4186F6B6457E0 PUSH1 0x40 MLOAD PUSH1 0x40 MLOAD DUP1 SWAP2 SUB SWAP1 LOG3 POP POP JUMP JUMPDEST PUSH2 0x17BB DUP5 DUP6 PUSH20 0xFFFFFFFFFFFFFFFFFFFFFFFFFFFFFFFFFFFFFFFF AND PUSH4 0x23B872DD DUP7 DUP7 DUP7 PUSH1 0x40 MLOAD PUSH1 0x24 ADD PUSH2 0x1774 SWAP4 SWAP3 SWAP2 SWAP1 PUSH2 0x205E JUMP JUMPDEST PUSH1 0x40 MLOAD PUSH1 0x20 DUP2 DUP4 SUB SUB DUP2 MSTORE SWAP1 PUSH1 0x40 MSTORE SWAP2 POP PUSH1 0xE0 SHL PUSH1 0x20 DUP3 ADD DUP1 MLOAD PUSH28 0xFFFFFFFFFFFFFFFFFFFFFFFFFFFFFFFFFFFFFFFFFFFFFFFFFFFFFFFF DUP4 DUP2 DUP4 AND OR DUP4 MSTORE POP POP POP POP PUSH2 0x17C1 JUMP JUMPDEST POP POP POP POP JUMP JUMPDEST PUSH0 PUSH0 PUSH1 0x20 PUSH0 DUP5 MLOAD PUSH1 0x20 DUP7 ADD PUSH0 DUP9 GAS CALL DUP1 PUSH2 0x17E0 JUMPI PUSH1 0x40 MLOAD RETURNDATASIZE PUSH0 DUP3 RETURNDATACOPY RETURNDATASIZE DUP2 REVERT JUMPDEST RETURNDATASIZE SWAP3 POP PUSH0 MLOAD SWAP2 POP POP PUSH0 DUP3 EQ PUSH2 0x17F9 JUMPI PUSH1 0x1 DUP2 EQ ISZERO PUSH2 0x1814 JUMP JUMPDEST PUSH0 DUP5 PUSH20 0xFFFFFFFFFFFFFFFFFFFFFFFFFFFFFFFFFFFFFFFF AND EXTCODESIZE EQ JUMPDEST ISZERO PUSH2 0x1856 JUMPI DUP4 PUSH1 0x40 MLOAD PUSH32 0x5274AFE700000000000000000000000000000000000000000000000000000000 DUP2 MSTORE PUSH1 0x4 ADD PUSH2 0x184D SWAP2 SWAP1 PUSH2 0x1A77 JUMP JUMPDEST PUSH1 0x40 MLOAD DUP1 SWAP2 SUB SWAP1 REVERT JUMPDEST POP POP POP POP JUMP JUMPDEST PUSH0 CALLER SWAP1 POP SWAP1 JUMP JUMPDEST PUSH0 PUSH0 REVERT JUMPDEST PUSH0 PUSH20 0xFFFFFFFFFFFFFFFFFFFFFFFFFFFFFFFFFFFFFFFF DUP3 AND SWAP1 POP SWAP2 SWAP1 POP JUMP JUMPDEST PUSH0 PUSH2 0x1890 DUP3 PUSH2 0x1867 JUMP JUMPDEST SWAP1 POP SWAP2 SWAP1 POP JUMP JUMPDEST PUSH2 0x18A0 DUP2 PUSH2 0x1886 JUMP JUMPDEST DUP2 EQ PUSH2 0x18AA JUMPI PUSH0 PUSH0 REVERT JUMPDEST POP JUMP JUMPDEST PUSH0 DUP2 CALLDATALOAD SWAP1 POP PUSH2 0x18BB DUP2 PUSH2 0x1897 JUMP JUMPDEST SWAP3 SWAP2 POP POP JUMP JUMPDEST PUSH0 PUSH1 0x20 DUP3 DUP5 SUB SLT ISZERO PUSH2 0x18D6 JUMPI PUSH2 0x18D5 PUSH2 0x1863 JUMP JUMPDEST JUMPDEST PUSH0 PUSH2 0x18E3 DUP5 DUP3 DUP6 ADD PUSH2 0x18AD JUMP JUMPDEST SWAP2 POP POP SWAP3 SWAP2 POP POP JUMP JUMPDEST PUSH0 DUP2 SWAP1 POP SWAP2 SWAP1 POP JUMP JUMPDEST PUSH2 0x18FE DUP2 PUSH2 0x18EC JUMP JUMPDEST DUP3 MSTORE POP POP JUMP JUMPDEST PUSH0 PUSH1 0x20 DUP3 ADD SWAP1 POP PUSH2 0x1917 PUSH0 DUP4 ADD DUP5 PUSH2 0x18F5 JUMP JUMPDEST SWAP3 SWAP2 POP POP JUMP JUMPDEST PUSH0 DUP2 MLOAD SWAP1 POP SWAP2 SWAP1 POP JUMP JUMPDEST PUSH0 DUP3 DUP3 MSTORE PUSH1 0x20 DUP3 ADD SWAP1 POP SWAP3 SWAP2 POP POP JUMP JUMPDEST PUSH0 DUP2 SWAP1 POP PUSH1 0x20 DUP3 ADD SWAP1 POP SWAP2 SWAP1 POP JUMP JUMPDEST PUSH2 0x194F DUP2 PUSH2 0x1886 JUMP JUMPDEST DUP3 MSTORE POP POP JUMP JUMPDEST PUSH0 PUSH2 0x1960 DUP4 DUP4 PUSH2 0x1946 JUMP JUMPDEST PUSH1 0x20 DUP4 ADD SWAP1 POP SWAP3 SWAP2 POP POP JUMP JUMPDEST PUSH0 PUSH1 0x20 DUP3 ADD SWAP1 POP SWAP2 SWAP1 POP JUMP JUMPDEST PUSH0 PUSH2 0x1982 DUP3 PUSH2 0x191D JUMP JUMPDEST PUSH2 0x198C DUP2 DUP6 PUSH2 0x1927 JUMP JUMPDEST SWAP4 POP PUSH2 0x1997 DUP4 PUSH2 0x1937 JUMP JUMPDEST DUP1 PUSH0 JUMPDEST DUP4 DUP2 LT ISZERO PUSH2 0x19C7 JUMPI DUP2 MLOAD PUSH2 0x19AE DUP9 DUP3 PUSH2 0x1955 JUMP JUMPDEST SWAP8 POP PUSH2 0x19B9 DUP4 PUSH2 0x196C JUMP JUMPDEST SWAP3 POP POP PUSH1 0x1 DUP2 ADD SWAP1 POP PUSH2 0x199A JUMP JUMPDEST POP DUP6 SWAP4 POP POP POP POP SWAP3 SWAP2 POP POP JUMP JUMPDEST PUSH0 PUSH1 0x20 DUP3 ADD SWAP1 POP DUP2 DUP2 SUB PUSH0 DUP4 ADD MSTORE PUSH2 0x19EC DUP2 DUP5 PUSH2 0x1978 JUMP JUMPDEST SWAP1 POP SWAP3 SWAP2 POP POP JUMP JUMPDEST PUSH0 DUP2 SWAP1 POP SWAP2 SWAP1 POP JUMP JUMPDEST PUSH0 PUSH2 0x1A17 PUSH2 0x1A12 PUSH2 0x1A0D DUP5 PUSH2 0x1867 JUMP JUMPDEST PUSH2 0x19F4 JUMP JUMPDEST PUSH2 0x1867 JUMP JUMPDEST SWAP1 POP SWAP2 SWAP1 POP JUMP JUMPDEST PUSH0 PUSH2 0x1A28 DUP3 PUSH2 0x19FD JUMP JUMPDEST SWAP1 POP SWAP2 SWAP1 POP JUMP JUMPDEST PUSH0 PUSH2 0x1A39 DUP3 PUSH2 0x1A1E JUMP JUMPDEST SWAP1 POP SWAP2 SWAP1 POP JUMP JUMPDEST PUSH2 0x1A49 DUP2 PUSH2 0x1A2F JUMP JUMPDEST DUP3 MSTORE POP POP JUMP JUMPDEST PUSH0 PUSH1 0x20 DUP3 ADD SWAP1 POP PUSH2 0x1A62 PUSH0 DUP4 ADD DUP5 PUSH2 0x1A40 JUMP JUMPDEST SWAP3 SWAP2 POP POP JUMP JUMPDEST PUSH2 0x1A71 DUP2 PUSH2 0x1886 JUMP JUMPDEST DUP3 MSTORE POP POP JUMP JUMPDEST PUSH0 PUSH1 0x20 DUP3 ADD SWAP1 POP PUSH2 0x1A8A PUSH0 DUP4 ADD DUP5 PUSH2 0x1A68 JUMP JUMPDEST SWAP3 SWAP2 POP POP JUMP JUMPDEST PUSH0 PUSH1 0xA0 DUP3 ADD SWAP1 POP PUSH2 0x1AA3 PUSH0 DUP4 ADD DUP9 PUSH2 0x18F5 JUMP JUMPDEST PUSH2 0x1AB0 PUSH1 0x20 DUP4 ADD DUP8 PUSH2 0x18F5 JUMP JUMPDEST PUSH2 0x1ABD PUSH1 0x40 DUP4 ADD DUP7 PUSH2 0x1A68 JUMP JUMPDEST PUSH2 0x1ACA PUSH1 0x60 DUP4 ADD DUP6 PUSH2 0x18F5 JUMP JUMPDEST PUSH2 0x1AD7 PUSH1 0x80 DUP4 ADD DUP5 PUSH2 0x18F5 JUMP JUMPDEST SWAP7 SWAP6 POP POP POP POP POP POP JUMP JUMPDEST PUSH2 0x1AEA DUP2 PUSH2 0x18EC JUMP JUMPDEST DUP2 EQ PUSH2 0x1AF4 JUMPI PUSH0 PUSH0 REVERT JUMPDEST POP JUMP JUMPDEST PUSH0 DUP2 CALLDATALOAD SWAP1 POP PUSH2 0x1B05 DUP2 PUSH2 0x1AE1 JUMP JUMPDEST SWAP3 SWAP2 POP POP JUMP JUMPDEST PUSH0 PUSH0 PUSH1 0x40 DUP4 DUP6 SUB SLT ISZERO PUSH2 0x1B21 JUMPI PUSH2 0x1B20 PUSH2 0x1863 JUMP JUMPDEST JUMPDEST PUSH0 PUSH2 0x1B2E DUP6 DUP3 DUP7 ADD PUSH2 0x18AD JUMP JUMPDEST SWAP3 POP POP PUSH1 0x20 PUSH2 0x1B3F DUP6 DUP3 DUP7 ADD PUSH2 0x1AF7 JUMP JUMPDEST SWAP2 POP POP SWAP3 POP SWAP3 SWAP1 POP JUMP JUMPDEST PUSH0 PUSH0 PUSH1 0x40 DUP4 DUP6 SUB SLT ISZERO PUSH2 0x1B5F JUMPI PUSH2 0x1B5E PUSH2 0x1863 JUMP JUMPDEST JUMPDEST PUSH0 PUSH2 0x1B6C DUP6 DUP3 DUP7 ADD PUSH2 0x1AF7 JUMP JUMPDEST SWAP3 POP POP PUSH1 0x20 PUSH2 0x1B7D DUP6 DUP3 DUP7 ADD PUSH2 0x18AD JUMP JUMPDEST SWAP2 POP POP SWAP3 POP SWAP3 SWAP1 POP JUMP JUMPDEST PUSH0 PUSH2 0x1B91 DUP3 PUSH2 0x1A1E JUMP JUMPDEST SWAP1 POP SWAP2 SWAP1 POP JUMP JUMPDEST PUSH2 0x1BA1 DUP2 PUSH2 0x1B87 JUMP JUMPDEST DUP3 MSTORE POP POP JUMP JUMPDEST PUSH0 PUSH1 0x20 DUP3 ADD SWAP1 POP PUSH2 0x1BBA PUSH0 DUP4 ADD DUP5 PUSH2 0x1B98 JUMP JUMPDEST SWAP3 SWAP2 POP POP JUMP JUMPDEST PUSH32 0x4E487B7100000000000000000000000000000000000000000000000000000000 PUSH0 MSTORE PUSH1 0x11 PUSH1 0x4 MSTORE PUSH1 0x24 PUSH0 REVERT JUMPDEST PUSH0 PUSH2 0x1BF7 DUP3 PUSH2 0x18EC JUMP JUMPDEST SWAP2 POP PUSH2 0x1C02 DUP4 PUSH2 0x18EC JUMP JUMPDEST SWAP3 POP DUP3 DUP3 ADD SWAP1 POP DUP1 DUP3 GT ISZERO PUSH2 0x1C1A JUMPI PUSH2 0x1C19 PUSH2 0x1BC0 JUMP JUMPDEST JUMPDEST SWAP3 SWAP2 POP POP JUMP JUMPDEST PUSH0 PUSH2 0x1C2A DUP3 PUSH2 0x18EC JUMP JUMPDEST SWAP2 POP PUSH2 0x1C35 DUP4 PUSH2 0x18EC JUMP JUMPDEST SWAP3 POP DUP3 DUP3 SUB SWAP1 POP DUP2 DUP2 GT ISZERO PUSH2 0x1C4D JUMPI PUSH2 0x1C4C PUSH2 0x1BC0 JUMP JUMPDEST JUMPDEST SWAP3 SWAP2 POP POP JUMP JUMPDEST PUSH0 DUP3 DUP3 MSTORE PUSH1 0x20 DUP3 ADD SWAP1 POP SWAP3 SWAP2 POP POP JUMP JUMPDEST PUSH32 0x456D7074792062616C616E636500000000000000000000000000000000000000 PUSH0 DUP3 ADD MSTORE POP JUMP JUMPDEST PUSH0 PUSH2 0x1C97 PUSH1 0xD DUP4 PUSH2 0x1C53 JUMP JUMPDEST SWAP2 POP PUSH2 0x1CA2 DUP3 PUSH2 0x1C63 JUMP JUMPDEST PUSH1 0x20 DUP3 ADD SWAP1 POP SWAP2 SWAP1 POP JUMP JUMPDEST PUSH0 PUSH1 0x20 DUP3 ADD SWAP1 POP DUP2 DUP2 SUB PUSH0 DUP4 ADD MSTORE PUSH2 0x1CC4 DUP2 PUSH2 0x1C8B JUMP JUMPDEST SWAP1 POP SWAP2 SWAP1 POP JUMP JUMPDEST PUSH0 DUP2 MLOAD SWAP1 POP PUSH2 0x1CD9 DUP2 PUSH2 0x1AE1 JUMP JUMPDEST SWAP3 SWAP2 POP POP JUMP JUMPDEST PUSH0 PUSH1 0x20 DUP3 DUP5 SUB SLT ISZERO PUSH2 0x1CF4 JUMPI PUSH2 0x1CF3 PUSH2 0x1863 JUMP JUMPDEST JUMPDEST PUSH0 PUSH2 0x1D01 DUP5 DUP3 DUP6 ADD PUSH2 0x1CCB JUMP JUMPDEST SWAP2 POP POP SWAP3 SWAP2 POP POP JUMP JUMPDEST PUSH32 0x4D6F7270686F2052656465656D206661696C6564000000000000000000000000 PUSH0 DUP3 ADD MSTORE POP JUMP JUMPDEST PUSH0 PUSH2 0x1D3E PUSH1 0x14 DUP4 PUSH2 0x1C53 JUMP JUMPDEST SWAP2 POP PUSH2 0x1D49 DUP3 PUSH2 0x1D0A JUMP JUMPDEST PUSH1 0x20 DUP3 ADD SWAP1 POP SWAP2 SWAP1 POP JUMP JUMPDEST PUSH0 PUSH1 0x20 DUP3 ADD SWAP1 POP DUP2 DUP2 SUB PUSH0 DUP4 ADD MSTORE PUSH2 0x1D6B DUP2 PUSH2 0x1D32 JUMP JUMPDEST SWAP1 POP SWAP2 SWAP1 POP JUMP JUMPDEST PUSH0 PUSH2 0x1D7C DUP3 PUSH2 0x18EC JUMP JUMPDEST SWAP2 POP PUSH2 0x1D87 DUP4 PUSH2 0x18EC JUMP JUMPDEST SWAP3 POP DUP3 DUP3 MUL PUSH2 0x1D95 DUP2 PUSH2 0x18EC JUMP JUMPDEST SWAP2 POP DUP3 DUP3 DIV DUP5 EQ DUP4 ISZERO OR PUSH2 0x1DAC JUMPI PUSH2 0x1DAB PUSH2 0x1BC0 JUMP JUMPDEST JUMPDEST POP SWAP3 SWAP2 POP POP JUMP JUMPDEST PUSH32 0x4E487B7100000000000000000000000000000000000000000000000000000000 PUSH0 MSTORE PUSH1 0x12 PUSH1 0x4 MSTORE PUSH1 0x24 PUSH0 REVERT JUMPDEST PUSH0 PUSH2 0x1DEA DUP3 PUSH2 0x18EC JUMP JUMPDEST SWAP2 POP PUSH2 0x1DF5 DUP4 PUSH2 0x18EC JUMP JUMPDEST SWAP3 POP DUP3 PUSH2 0x1E05 JUMPI PUSH2 0x1E04 PUSH2 0x1DB3 JUMP JUMPDEST JUMPDEST DUP3 DUP3 DIV SWAP1 POP SWAP3 SWAP2 POP POP JUMP JUMPDEST PUSH0 PUSH1 0x40 DUP3 ADD SWAP1 POP PUSH2 0x1E23 PUSH0 DUP4 ADD DUP6 PUSH2 0x18F5 JUMP JUMPDEST PUSH2 0x1E30 PUSH1 0x20 DUP4 ADD DUP5 PUSH2 0x18F5 JUMP JUMPDEST SWAP4 SWAP3 POP POP POP JUMP JUMPDEST PUSH32 0x4D696E696D756D20696E766573746D656E742069732031302055534443000000 PUSH0 DUP3 ADD MSTORE POP JUMP JUMPDEST PUSH0 PUSH2 0x1E6B PUSH1 0x1D DUP4 PUSH2 0x1C53 JUMP JUMPDEST SWAP2 POP PUSH2 0x1E76 DUP3 PUSH2 0x1E37 JUMP JUMPDEST PUSH1 0x20 DUP3 ADD SWAP1 POP SWAP2 SWAP1 POP JUMP JUMPDEST PUSH0 PUSH1 0x20 DUP3 ADD SWAP1 POP DUP2 DUP2 SUB PUSH0 DUP4 ADD MSTORE PUSH2 0x1E98 DUP2 PUSH2 0x1E5F JUMP JUMPDEST SWAP1 POP SWAP2 SWAP1 POP JUMP JUMPDEST PUSH32 0x4E6F2073656C662D726566657272616C00000000000000000000000000000000 PUSH0 DUP3 ADD MSTORE POP JUMP JUMPDEST PUSH0 PUSH2 0x1ED3 PUSH1 0x10 DUP4 PUSH2 0x1C53 JUMP JUMPDEST SWAP2 POP PUSH2 0x1EDE DUP3 PUSH2 0x1E9F JUMP JUMPDEST PUSH1 0x20 DUP3 ADD SWAP1 POP SWAP2 SWAP1 POP JUMP JUMPDEST PUSH0 PUSH1 0x20 DUP3 ADD SWAP1 POP DUP2 DUP2 SUB PUSH0 DUP4 ADD MSTORE PUSH2 0x1F00 DUP2 PUSH2 0x1EC7 JUMP JUMPDEST SWAP1 POP SWAP2 SWAP1 POP JUMP JUMPDEST PUSH0 PUSH1 0x40 DUP3 ADD SWAP1 POP PUSH2 0x1F1A PUSH0 DUP4 ADD DUP6 PUSH2 0x1A68 JUMP JUMPDEST PUSH2 0x1F27 PUSH1 0x20 DUP4 ADD DUP5 PUSH2 0x18F5 JUMP JUMPDEST SWAP4 SWAP3 POP POP POP JUMP JUMPDEST PUSH0 DUP2 ISZERO ISZERO SWAP1 POP SWAP2 SWAP1 POP JUMP JUMPDEST PUSH2 0x1F42 DUP2 PUSH2 0x1F2E JUMP JUMPDEST DUP2 EQ PUSH2 0x1F4C JUMPI PUSH0 PUSH0 REVERT JUMPDEST POP JUMP JUMPDEST PUSH0 DUP2 MLOAD SWAP1 POP PUSH2 0x1F5D DUP2 PUSH2 0x1F39 JUMP JUMPDEST SWAP3 SWAP2 POP POP JUMP JUMPDEST PUSH0 PUSH1 0x20 DUP3 DUP5 SUB SLT ISZERO PUSH2 0x1F78 JUMPI PUSH2 0x1F77 PUSH2 0x1863 JUMP JUMPDEST JUMPDEST PUSH0 PUSH2 0x1F85 DUP5 DUP3 DUP6 ADD PUSH2 0x1F4F JUMP JUMPDEST SWAP2 POP POP SWAP3 SWAP2 POP POP JUMP JUMPDEST PUSH32 0x4D6F7270686F204D696E74206661696C65640000000000000000000000000000 PUSH0 DUP3 ADD MSTORE POP JUMP JUMPDEST PUSH0 PUSH2 0x1FC2 PUSH1 0x12 DUP4 PUSH2 0x1C53 JUMP JUMPDEST SWAP2 POP PUSH2 0x1FCD DUP3 PUSH2 0x1F8E JUMP JUMPDEST PUSH1 0x20 DUP3 ADD SWAP1 POP SWAP2 SWAP1 POP JUMP JUMPDEST PUSH0 PUSH1 0x20 DUP3 ADD SWAP1 POP DUP2 DUP2 SUB PUSH0 DUP4 ADD MSTORE PUSH2 0x1FEF DUP2 PUSH2 0x1FB6 JUMP JUMPDEST SWAP1 POP SWAP2 SWAP1 POP JUMP JUMPDEST PUSH32 0x5265656E7472616E637947756172643A207265656E7472616E742063616C6C00 PUSH0 DUP3 ADD MSTORE POP JUMP JUMPDEST PUSH0 PUSH2 0x202A PUSH1 0x1F DUP4 PUSH2 0x1C53 JUMP JUMPDEST SWAP2 POP PUSH2 0x2035 DUP3 PUSH2 0x1FF6 JUMP JUMPDEST PUSH1 0x20 DUP3 ADD SWAP1 POP SWAP2 SWAP1 POP JUMP JUMPDEST PUSH0 PUSH1 0x20 DUP3 ADD SWAP1 POP DUP2 DUP2 SUB PUSH0 DUP4 ADD MSTORE PUSH2 0x2057 DUP2 PUSH2 0x201E JUMP JUMPDEST SWAP1 POP SWAP2 SWAP1 POP JUMP JUMPDEST PUSH0 PUSH1 0x60 DUP3 ADD SWAP1 POP PUSH2 0x2071 PUSH0 DUP4 ADD DUP7 PUSH2 0x1A68 JUMP JUMPDEST PUSH2 0x207E PUSH1 0x20 DUP4 ADD DUP6 PUSH2 0x1A68 JUMP JUMPDEST PUSH2 0x208B PUSH1 0x40 DUP4 ADD DUP5 PUSH2 0x18F5 JUMP JUMPDEST SWAP5 SWAP4 POP POP POP POP JUMP INVALID LOG2 PUSH5 0x6970667358 0x22 SLT KECCAK256 GASLIMIT SELFDESTRUCT MCOPY 0x2E DUP6 MOD EXTSTATICCALL 0xB5 0xCF DELEGATECALL 0xB5 CALL 0xD5 0x4B 0x28 PUSH30 0x6EE9634B591947458E49EC8A7E34CDC664736F6C634300081F0033000000 "
				},
				"gasEstimates": {
					"creation": {
						"codeDepositCost": "1678600",
						"executionCost": "infinite",
						"totalCost": "infinite"
					},
					"external": {
						"EARLY_WITHDRAW_FEE()": "392",
						"LOCK_PERIOD()": "393",
						"MIN_INVESTMENT()": "436",
						"PROTOCOL_FEE_PERCENT()": "370",
						"USDC()": "infinite",
						"WITHDRAWAL_FEE_FLAT()": "415",
						"getAccountValue(address)": "infinite",
						"getDownlines(address)": "infinite",
						"getReferralTierPercent(address)": "3018",
						"getTimeUntilFree(address)": "infinite",
						"mUSDC()": "infinite",
						"owner()": "2603",
						"referralEarnings(address)": "2824",
						"referralList(address,uint256)": "infinite",
						"renounceOwnership()": "infinite",
						"transferOwnership(address)": "infinite",
						"users(address)": "infinite",
						"zapIn(uint256,address)": "infinite",
						"zapOut()": "infinite"
					}
				},
				"methodIdentifiers": {
					"EARLY_WITHDRAW_FEE()": "40b2b7bf",
					"LOCK_PERIOD()": "1820cabb",
					"MIN_INVESTMENT()": "4ef8ff33",
					"PROTOCOL_FEE_PERCENT()": "2982de0d",
					"USDC()": "89a30271",
					"WITHDRAWAL_FEE_FLAT()": "19abfe00",
					"getAccountValue(address)": "5ae80951",
					"getDownlines(address)": "44051053",
					"getReferralTierPercent(address)": "0df23164",
					"getTimeUntilFree(address)": "00d61646",
					"mUSDC()": "f89ec5f5",
					"owner()": "8da5cb5b",
					"referralEarnings(address)": "c07b528a",
					"referralList(address,uint256)": "d12eb0a3",
					"renounceOwnership()": "715018a6",
					"transferOwnership(address)": "f2fde38b",
					"users(address)": "a87430ba",
					"zapIn(uint256,address)": "dabeaecf",
					"zapOut()": "23544748"
				}
			},
			"storageLayout": {
				"storage": [
					{
						"astId": 8,
						"contract": "contracts/zapyield.sol:ZapYieldsVaultSepolia",
						"label": "_owner",
						"offset": 0,
						"slot": "0",
						"type": "t_address"
					},
					{
						"astId": 248,
						"contract": "contracts/zapyield.sol:ZapYieldsVaultSepolia",
						"label": "_status",
						"offset": 0,
						"slot": "1",
						"type": "t_uint256"
					},
					{
						"astId": 974,
						"contract": "contracts/zapyield.sol:ZapYieldsVaultSepolia",
						"label": "users",
						"offset": 0,
						"slot": "2",
						"type": "t_mapping(t_address,t_struct(UserInfo)969_storage)"
					},
					{
						"astId": 978,
						"contract": "contracts/zapyield.sol:ZapYieldsVaultSepolia",
						"label": "referralEarnings",
						"offset": 0,
						"slot": "3",
						"type": "t_mapping(t_address,t_uint256)"
					},
					{
						"astId": 983,
						"contract": "contracts/zapyield.sol:ZapYieldsVaultSepolia",
						"label": "referralList",
						"offset": 0,
						"slot": "4",
						"type": "t_mapping(t_address,t_array(t_address)dyn_storage)"
					}
				],
				"types": {
					"t_address": {
						"encoding": "inplace",
						"label": "address",
						"numberOfBytes": "20"
					},
					"t_array(t_address)dyn_storage": {
						"base": "t_address",
						"encoding": "dynamic_array",
						"label": "address[]",
						"numberOfBytes": "32"
					},
					"t_mapping(t_address,t_array(t_address)dyn_storage)": {
						"encoding": "mapping",
						"key": "t_address",
						"label": "mapping(address => address[])",
						"numberOfBytes": "32",
						"value": "t_array(t_address)dyn_storage"
					},
					"t_mapping(t_address,t_struct(UserInfo)969_storage)": {
						"encoding": "mapping",
						"key": "t_address",
						"label": "mapping(address => struct ZapYieldsVaultSepolia.UserInfo)",
						"numberOfBytes": "32",
						"value": "t_struct(UserInfo)969_storage"
					},
					"t_mapping(t_address,t_uint256)": {
						"encoding": "mapping",
						"key": "t_address",
						"label": "mapping(address => uint256)",
						"numberOfBytes": "32",
						"value": "t_uint256"
					},
					"t_struct(UserInfo)969_storage": {
						"encoding": "inplace",
						"label": "struct ZapYieldsVaultSepolia.UserInfo",
						"members": [
							{
								"astId": 960,
								"contract": "contracts/zapyield.sol:ZapYieldsVaultSepolia",
								"label": "principal",
								"offset": 0,
								"slot": "0",
								"type": "t_uint256"
							},
							{
								"astId": 962,
								"contract": "contracts/zapyield.sol:ZapYieldsVaultSepolia",
								"label": "shareBalance",
								"offset": 0,
								"slot": "1",
								"type": "t_uint256"
							},
							{
								"astId": 964,
								"contract": "contracts/zapyield.sol:ZapYieldsVaultSepolia",
								"label": "referrer",
								"offset": 0,
								"slot": "2",
								"type": "t_address"
							},
							{
								"astId": 966,
								"contract": "contracts/zapyield.sol:ZapYieldsVaultSepolia",
								"label": "totalEarned",
								"offset": 0,
								"slot": "3",
								"type": "t_uint256"
							},
							{
								"astId": 968,
								"contract": "contracts/zapyield.sol:ZapYieldsVaultSepolia",
								"label": "lastDepositTime",
								"offset": 0,
								"slot": "4",
								"type": "t_uint256"
							}
						],
						"numberOfBytes": "160"
					},
					"t_uint256": {
						"encoding": "inplace",
						"label": "uint256",
						"numberOfBytes": "32"
					}
				}
			},
			"userdoc": {
				"kind": "user",
				"methods": {},
				"version": 1
			}
		}
	}
}