{
	"contracts/zapyield-mainnet-beta.0.1.4.sol": {
		"ZapApyV2Pro": {
			"abi": [
				{
					"inputs": [],
					"stateMutability": "nonpayable",
					"type": "constructor"
				},
				{
					"inputs": [
						{
							"internalType": "address",
							"name": "owner",
							"type": "address"
						}
					],
					"name": "OwnableInvalidOwner",
					"type": "error"
				},
				{
					"inputs": [
						{
							"internalType": "address",
							"name": "account",
							"type": "address"
						}
					],
					"name": "OwnableUnauthorizedAccount",
					"type": "error"
				},
				{
					"inputs": [
						{
							"internalType": "address",
							"name": "token",
							"type": "address"
						}
					],
					"name": "SafeERC20FailedOperation",
					"type": "error"
				},
				{
					"anonymous": false,
					"inputs": [
						{
							"indexed": true,
							"internalType": "address",
							"name": "previousOwner",
							"type": "address"
						},
						{
							"indexed": true,
							"internalType": "address",
							"name": "newOwner",
							"type": "address"
						}
					],
					"name": "OwnershipTransferred",
					"type": "event"
				},
				{
					"inputs": [],
					"name": "EARLY_EXIT_PENALTY",
					"outputs": [
						{
							"internalType": "uint256",
							"name": "",
							"type": "uint256"
						}
					],
					"stateMutability": "view",
					"type": "function"
				},
				{
					"inputs": [],
					"name": "LOCK_TIME",
					"outputs": [
						{
							"internalType": "uint256",
							"name": "",
							"type": "uint256"
						}
					],
					"stateMutability": "view",
					"type": "function"
				},
				{
					"inputs": [],
					"name": "PROTOCOL_FEE",
					"outputs": [
						{
							"internalType": "uint256",
							"name": "",
							"type": "uint256"
						}
					],
					"stateMutability": "view",
					"type": "function"
				},
				{
					"inputs": [],
					"name": "REFERRAL_SHARE",
					"outputs": [
						{
							"internalType": "uint256",
							"name": "",
							"type": "uint256"
						}
					],
					"stateMutability": "view",
					"type": "function"
				},
				{
					"inputs": [],
					"name": "USDC",
					"outputs": [
						{
							"internalType": "contract IERC20",
							"name": "",
							"type": "address"
						}
					],
					"stateMutability": "view",
					"type": "function"
				},
				{
					"inputs": [],
					"name": "collectFees",
					"outputs": [],
					"stateMutability": "nonpayable",
					"type": "function"
				},
				{
					"inputs": [
						{
							"internalType": "address",
							"name": "_user",
							"type": "address"
						}
					],
					"name": "getAccountValue",
					"outputs": [
						{
							"internalType": "uint256",
							"name": "",
							"type": "uint256"
						}
					],
					"stateMutability": "view",
					"type": "function"
				},
				{
					"inputs": [
						{
							"internalType": "address",
							"name": "_user",
							"type": "address"
						}
					],
					"name": "getReferralEarnings",
					"outputs": [
						{
							"internalType": "uint256",
							"name": "",
							"type": "uint256"
						}
					],
					"stateMutability": "view",
					"type": "function"
				},
				{
					"inputs": [],
					"name": "mUSDC",
					"outputs": [
						{
							"internalType": "contract IMorphoVault",
							"name": "",
							"type": "address"
						}
					],
					"stateMutability": "view",
					"type": "function"
				},
				{
					"inputs": [],
					"name": "owner",
					"outputs": [
						{
							"internalType": "address",
							"name": "",
							"type": "address"
						}
					],
					"stateMutability": "view",
					"type": "function"
				},
				{
					"inputs": [],
					"name": "renounceOwnership",
					"outputs": [],
					"stateMutability": "nonpayable",
					"type": "function"
				},
				{
					"inputs": [],
					"name": "totalProtocolFees",
					"outputs": [
						{
							"internalType": "uint256",
							"name": "",
							"type": "uint256"
						}
					],
					"stateMutability": "view",
					"type": "function"
				},
				{
					"inputs": [
						{
							"internalType": "address",
							"name": "newOwner",
							"type": "address"
						}
					],
					"name": "transferOwnership",
					"outputs": [],
					"stateMutability": "nonpayable",
					"type": "function"
				},
				{
					"inputs": [
						{
							"internalType": "address",
							"name": "",
							"type": "address"
						}
					],
					"name": "users",
					"outputs": [
						{
							"internalType": "uint256",
							"name": "principal",
							"type": "uint256"
						},
						{
							"internalType": "uint256",
							"name": "shareBalance",
							"type": "uint256"
						},
						{
							"internalType": "address",
							"name": "referrer",
							"type": "address"
						},
						{
							"internalType": "uint256",
							"name": "totalReferralEarnings",
							"type": "uint256"
						},
						{
							"internalType": "uint256",
							"name": "lastDepositTime",
							"type": "uint256"
						}
					],
					"stateMutability": "view",
					"type": "function"
				},
				{
					"inputs": [
						{
							"internalType": "uint256",
							"name": "_amount",
							"type": "uint256"
						},
						{
							"internalType": "address",
							"name": "_referrer",
							"type": "address"
						}
					],
					"name": "zapIn",
					"outputs": [],
					"stateMutability": "nonpayable",
					"type": "function"
				},
				{
					"inputs": [],
					"name": "zapOut",
					"outputs": [],
					"stateMutability": "nonpayable",
					"type": "function"
				}
			],
			"devdoc": {
				"errors": {
					"OwnableInvalidOwner(address)": [
						{
							"details": "The owner is not a valid owner account. (eg. `address(0)`)"
						}
					],
					"OwnableUnauthorizedAccount(address)": [
						{
							"details": "The caller account is not authorized to perform an operation."
						}
					],
					"SafeERC20FailedOperation(address)": [
						{
							"details": "An operation with an ERC-20 token failed."
						}
					]
				},
				"kind": "dev",
				"methods": {
					"owner()": {
						"details": "Returns the address of the current owner."
					},
					"renounceOwnership()": {
						"details": "Leaves the contract without owner. It will not be possible to call `onlyOwner` functions. Can only be called by the current owner. NOTE: Renouncing ownership will leave the contract without an owner, thereby disabling any functionality that is only available to the owner."
					},
					"transferOwnership(address)": {
						"details": "Transfers ownership of the contract to a new account (`newOwner`). Can only be called by the current owner."
					}
				},
				"version": 1
			},
			"evm": {
				"assembly": "    /* \"contracts/zapyield-mainnet-beta.0.1.4.sol\":619:4708  contract ZapApyV2Pro is Ownable, ReentrancyGuard {... */\n  mstore(0x40, 0x80)\n    /* \"contracts/zapyield-mainnet-beta.0.1.4.sol\":1485:1521  constructor() Ownable(msg.sender) {} */\n  callvalue\n  dup1\n  iszero\n  tag_1\n  jumpi\n  0x00\n  dup1\n  revert\ntag_1:\n  pop\n    /* \"contracts/zapyield-mainnet-beta.0.1.4.sol\":1507:1517  msg.sender */\n  caller\n    /* \"@openzeppelin/contracts/access/Ownable.sol\":1297:1298  0 */\n  0x00\n    /* \"@openzeppelin/contracts/access/Ownable.sol\":1273:1299  initialOwner == address(0) */\n  0xffffffffffffffffffffffffffffffffffffffff\n  and\n    /* \"@openzeppelin/contracts/access/Ownable.sol\":1273:1285  initialOwner */\n  dup2\n    /* \"@openzeppelin/contracts/access/Ownable.sol\":1273:1299  initialOwner == address(0) */\n  0xffffffffffffffffffffffffffffffffffffffff\n  and\n  sub\n    /* \"@openzeppelin/contracts/access/Ownable.sol\":1269:1364  if (initialOwner == address(0)) {... */\n  tag_6\n  jumpi\n    /* \"@openzeppelin/contracts/access/Ownable.sol\":1350:1351  0 */\n  0x00\n    /* \"@openzeppelin/contracts/access/Ownable.sol\":1322:1353  OwnableInvalidOwner(address(0)) */\n  mload(0x40)\n  0x1e4fbdf700000000000000000000000000000000000000000000000000000000\n  dup2\n  mstore\n  0x04\n  add\n  tag_7\n  swap2\n  swap1\n  tag_8\n  jump\t// in\ntag_7:\n  mload(0x40)\n  dup1\n  swap2\n  sub\n  swap1\n  revert\n    /* \"@openzeppelin/contracts/access/Ownable.sol\":1269:1364  if (initialOwner == address(0)) {... */\ntag_6:\n    /* \"@openzeppelin/contracts/access/Ownable.sol\":1373:1405  _transferOwnership(initialOwner) */\n  tag_9\n    /* \"@openzeppelin/contracts/access/Ownable.sol\":1392:1404  initialOwner */\n  dup2\n    /* \"@openzeppelin/contracts/access/Ownable.sol\":1373:1391  _transferOwnership */\n  shl(0x20, tag_10)\n    /* \"@openzeppelin/contracts/access/Ownable.sol\":1373:1405  _transferOwnership(initialOwner) */\n  0x20\n  shr\n  jump\t// in\ntag_9:\n    /* \"@openzeppelin/contracts/access/Ownable.sol\":1225:1412  constructor(address initialOwner) {... */\n  pop\n    /* \"@openzeppelin/contracts/security/ReentrancyGuard.sol\":1716:1717  1 */\n  0x01\n    /* \"@openzeppelin/contracts/security/ReentrancyGuard.sol\":1821:1828  _status */\n  dup1\n    /* \"@openzeppelin/contracts/security/ReentrancyGuard.sol\":1821:1843  _status = _NOT_ENTERED */\n  dup2\n  swap1\n  sstore\n  pop\n    /* \"contracts/zapyield-mainnet-beta.0.1.4.sol\":619:4708  contract ZapApyV2Pro is Ownable, ReentrancyGuard {... */\n  jump(tag_13)\n    /* \"@openzeppelin/contracts/access/Ownable.sol\":2912:3099  function _transferOwnership(address newOwner) internal virtual {... */\ntag_10:\n    /* \"@openzeppelin/contracts/access/Ownable.sol\":2985:3001  address oldOwner */\n  0x00\n    /* \"@openzeppelin/contracts/access/Ownable.sol\":3004:3010  _owner */\n  dup1\n  0x00\n  swap1\n  sload\n  swap1\n  0x0100\n  exp\n  swap1\n  div\n  0xffffffffffffffffffffffffffffffffffffffff\n  and\n    /* \"@openzeppelin/contracts/access/Ownable.sol\":2985:3010  address oldOwner = _owner */\n  swap1\n  pop\n    /* \"@openzeppelin/contracts/access/Ownable.sol\":3029:3037  newOwner */\n  dup2\n    /* \"@openzeppelin/contracts/access/Ownable.sol\":3020:3026  _owner */\n  0x00\n  dup1\n    /* \"@openzeppelin/contracts/access/Ownable.sol\":3020:3037  _owner = newOwner */\n  0x0100\n  exp\n  dup2\n  sload\n  dup2\n  0xffffffffffffffffffffffffffffffffffffffff\n  mul\n  not\n  and\n  swap1\n  dup4\n  0xffffffffffffffffffffffffffffffffffffffff\n  and\n  mul\n  or\n  swap1\n  sstore\n  pop\n    /* \"@openzeppelin/contracts/access/Ownable.sol\":3083:3091  newOwner */\n  dup2\n    /* \"@openzeppelin/contracts/access/Ownable.sol\":3052:3092  OwnershipTransferred(oldOwner, newOwner) */\n  0xffffffffffffffffffffffffffffffffffffffff\n  and\n    /* \"@openzeppelin/contracts/access/Ownable.sol\":3073:3081  oldOwner */\n  dup2\n    /* \"@openzeppelin/contracts/access/Ownable.sol\":3052:3092  OwnershipTransferred(oldOwner, newOwner) */\n  0xffffffffffffffffffffffffffffffffffffffff\n  and\n  0x8be0079c531659141344cd1fd0a4f28419497f9722a3daafe3b4186f6b6457e0\n  mload(0x40)\n  mload(0x40)\n  dup1\n  swap2\n  sub\n  swap1\n  log3\n    /* \"@openzeppelin/contracts/access/Ownable.sol\":2975:3099  {... */\n  pop\n    /* \"@openzeppelin/contracts/access/Ownable.sol\":2912:3099  function _transferOwnership(address newOwner) internal virtual {... */\n  pop\n  jump\t// out\n    /* \"#utility.yul\":7:133   */\ntag_15:\n    /* \"#utility.yul\":44:51   */\n  0x00\n    /* \"#utility.yul\":84:126   */\n  0xffffffffffffffffffffffffffffffffffffffff\n    /* \"#utility.yul\":77:82   */\n  dup3\n    /* \"#utility.yul\":73:127   */\n  and\n    /* \"#utility.yul\":62:127   */\n  swap1\n  pop\n    /* \"#utility.yul\":7:133   */\n  swap2\n  swap1\n  pop\n  jump\t// out\n    /* \"#utility.yul\":139:235   */\ntag_16:\n    /* \"#utility.yul\":176:183   */\n  0x00\n    /* \"#utility.yul\":205:229   */\n  tag_21\n    /* \"#utility.yul\":223:228   */\n  dup3\n    /* \"#utility.yul\":205:229   */\n  tag_15\n  jump\t// in\ntag_21:\n    /* \"#utility.yul\":194:229   */\n  swap1\n  pop\n    /* \"#utility.yul\":139:235   */\n  swap2\n  swap1\n  pop\n  jump\t// out\n    /* \"#utility.yul\":241:359   */\ntag_17:\n    /* \"#utility.yul\":328:352   */\n  tag_23\n    /* \"#utility.yul\":346:351   */\n  dup2\n    /* \"#utility.yul\":328:352   */\n  tag_16\n  jump\t// in\ntag_23:\n    /* \"#utility.yul\":323:326   */\n  dup3\n    /* \"#utility.yul\":316:353   */\n  mstore\n    /* \"#utility.yul\":241:359   */\n  pop\n  pop\n  jump\t// out\n    /* \"#utility.yul\":365:587   */\ntag_8:\n    /* \"#utility.yul\":458:462   */\n  0x00\n    /* \"#utility.yul\":496:498   */\n  0x20\n    /* \"#utility.yul\":485:494   */\n  dup3\n    /* \"#utility.yul\":481:499   */\n  add\n    /* \"#utility.yul\":473:499   */\n  swap1\n  pop\n    /* \"#utility.yul\":509:580   */\n  tag_25\n    /* \"#utility.yul\":577:578   */\n  0x00\n    /* \"#utility.yul\":566:575   */\n  dup4\n    /* \"#utility.yul\":562:579   */\n  add\n    /* \"#utility.yul\":553:559   */\n  dup5\n    /* \"#utility.yul\":509:580   */\n  tag_17\n  jump\t// in\ntag_25:\n    /* \"#utility.yul\":365:587   */\n  swap3\n  swap2\n  pop\n  pop\n  jump\t// out\n    /* \"contracts/zapyield-mainnet-beta.0.1.4.sol\":619:4708  contract ZapApyV2Pro is Ownable, ReentrancyGuard {... */\ntag_13:\n  dataSize(sub_0)\n  dup1\n  dataOffset(sub_0)\n  0x00\n  codecopy\n  0x00\n  return\nstop\n\nsub_0: assembly {\n        /* \"contracts/zapyield-mainnet-beta.0.1.4.sol\":619:4708  contract ZapApyV2Pro is Ownable, ReentrancyGuard {... */\n      mstore(0x40, 0x80)\n      callvalue\n      dup1\n      iszero\n      tag_1\n      jumpi\n      0x00\n      dup1\n      revert\n    tag_1:\n      pop\n      jumpi(tag_2, lt(calldatasize, 0x04))\n      shr(0xe0, calldataload(0x00))\n      dup1\n      0x8da5cb5b\n      gt\n      tag_19\n      jumpi\n      dup1\n      0xdabeaecf\n      gt\n      tag_20\n      jumpi\n      dup1\n      0xdabeaecf\n      eq\n      tag_15\n      jumpi\n      dup1\n      0xf2fde38b\n      eq\n      tag_16\n      jumpi\n      dup1\n      0xf526e39a\n      eq\n      tag_17\n      jumpi\n      dup1\n      0xf89ec5f5\n      eq\n      tag_18\n      jumpi\n      jump(tag_2)\n    tag_20:\n      dup1\n      0x8da5cb5b\n      eq\n      tag_11\n      jumpi\n      dup1\n      0xa87430ba\n      eq\n      tag_12\n      jumpi\n      dup1\n      0xb21b5a21\n      eq\n      tag_13\n      jumpi\n      dup1\n      0xc8796572\n      eq\n      tag_14\n      jumpi\n      jump(tag_2)\n    tag_19:\n      dup1\n      0x5ae80951\n      gt\n      tag_21\n      jumpi\n      dup1\n      0x5ae80951\n      eq\n      tag_7\n      jumpi\n      dup1\n      0x715018a6\n      eq\n      tag_8\n      jumpi\n      dup1\n      0x760a545e\n      eq\n      tag_9\n      jumpi\n      dup1\n      0x89a30271\n      eq\n      tag_10\n      jumpi\n      jump(tag_2)\n    tag_21:\n      dup1\n      0x0b4501fd\n      eq\n      tag_3\n      jumpi\n      dup1\n      0x23544748\n      eq\n      tag_4\n      jumpi\n      dup1\n      0x413d9c3a\n      eq\n      tag_5\n      jumpi\n      dup1\n      0x5764b7c4\n      eq\n      tag_6\n      jumpi\n    tag_2:\n      0x00\n      dup1\n      revert\n        /* \"contracts/zapyield-mainnet-beta.0.1.4.sol\":999:1039  uint256 public constant PROTOCOL_FEE = 5 */\n    tag_3:\n      tag_22\n      tag_23\n      jump\t// in\n    tag_22:\n      mload(0x40)\n      tag_24\n      swap2\n      swap1\n      tag_25\n      jump\t// in\n    tag_24:\n      mload(0x40)\n      dup1\n      swap2\n      sub\n      swap1\n      return\n        /* \"contracts/zapyield-mainnet-beta.0.1.4.sol\":2300:4242  function zapOut() external nonReentrant {... */\n    tag_4:\n      tag_26\n      tag_27\n      jump\t// in\n    tag_26:\n      stop\n        /* \"contracts/zapyield-mainnet-beta.0.1.4.sol\":1064:1108  uint256 public constant LOCK_TIME = 76 hours */\n    tag_5:\n      tag_28\n      tag_29\n      jump\t// in\n    tag_28:\n      mload(0x40)\n      tag_30\n      swap2\n      swap1\n      tag_25\n      jump\t// in\n    tag_30:\n      mload(0x40)\n      dup1\n      swap2\n      sub\n      swap1\n      return\n        /* \"contracts/zapyield-mainnet-beta.0.1.4.sol\":4398:4532  function getReferralEarnings(address _user) external view returns (uint256) {... */\n    tag_6:\n      tag_31\n      0x04\n      dup1\n      calldatasize\n      sub\n      dup2\n      add\n      swap1\n      tag_32\n      swap2\n      swap1\n      tag_33\n      jump\t// in\n    tag_32:\n      tag_34\n      jump\t// in\n    tag_31:\n      mload(0x40)\n      tag_35\n      swap2\n      swap1\n      tag_25\n      jump\t// in\n    tag_35:\n      mload(0x40)\n      dup1\n      swap2\n      sub\n      swap1\n      return\n        /* \"contracts/zapyield-mainnet-beta.0.1.4.sol\":4248:4392  function getAccountValue(address _user) external view returns (uint256) {... */\n    tag_7:\n      tag_36\n      0x04\n      dup1\n      calldatasize\n      sub\n      dup2\n      add\n      swap1\n      tag_37\n      swap2\n      swap1\n      tag_33\n      jump\t// in\n    tag_37:\n      tag_38\n      jump\t// in\n    tag_36:\n      mload(0x40)\n      tag_39\n      swap2\n      swap1\n      tag_25\n      jump\t// in\n    tag_39:\n      mload(0x40)\n      dup1\n      swap2\n      sub\n      swap1\n      return\n        /* \"@openzeppelin/contracts/access/Ownable.sol\":2293:2394  function renounceOwnership() public virtual onlyOwner {... */\n    tag_8:\n      tag_40\n      tag_41\n      jump\t// in\n    tag_40:\n      stop\n        /* \"contracts/zapyield-mainnet-beta.0.1.4.sol\":1114:1160  uint256 public constant EARLY_EXIT_PENALTY = 1 */\n    tag_9:\n      tag_42\n      tag_43\n      jump\t// in\n    tag_42:\n      mload(0x40)\n      tag_44\n      swap2\n      swap1\n      tag_25\n      jump\t// in\n    tag_44:\n      mload(0x40)\n      dup1\n      swap2\n      sub\n      swap1\n      return\n        /* \"contracts/zapyield-mainnet-beta.0.1.4.sol\":707:787  IERC20 public constant USDC = IERC20(0x833589fCD6eDb6E08f4c7C32D4f71b54bdA02913) */\n    tag_10:\n      tag_45\n      tag_46\n      jump\t// in\n    tag_45:\n      mload(0x40)\n      tag_47\n      swap2\n      swap1\n      tag_48\n      jump\t// in\n    tag_47:\n      mload(0x40)\n      dup1\n      swap2\n      sub\n      swap1\n      return\n        /* \"@openzeppelin/contracts/access/Ownable.sol\":1638:1723  function owner() public view virtual returns (address) {... */\n    tag_11:\n      tag_49\n      tag_50\n      jump\t// in\n    tag_49:\n      mload(0x40)\n      tag_51\n      swap2\n      swap1\n      tag_52\n      jump\t// in\n    tag_51:\n      mload(0x40)\n      dup1\n      swap2\n      sub\n      swap1\n      return\n        /* \"contracts/zapyield-mainnet-beta.0.1.4.sol\":1399:1440  mapping(address => UserInfo) public users */\n    tag_12:\n      tag_53\n      0x04\n      dup1\n      calldatasize\n      sub\n      dup2\n      add\n      swap1\n      tag_54\n      swap2\n      swap1\n      tag_33\n      jump\t// in\n    tag_54:\n      tag_55\n      jump\t// in\n    tag_53:\n      mload(0x40)\n      tag_56\n      swap6\n      swap5\n      swap4\n      swap3\n      swap2\n      swap1\n      tag_57\n      jump\t// in\n    tag_56:\n      mload(0x40)\n      dup1\n      swap2\n      sub\n      swap1\n      return\n        /* \"contracts/zapyield-mainnet-beta.0.1.4.sol\":933:976  uint256 public constant REFERRAL_SHARE = 10 */\n    tag_13:\n      tag_58\n      tag_59\n      jump\t// in\n    tag_58:\n      mload(0x40)\n      tag_60\n      swap2\n      swap1\n      tag_25\n      jump\t// in\n    tag_60:\n      mload(0x40)\n      dup1\n      swap2\n      sub\n      swap1\n      return\n        /* \"contracts/zapyield-mainnet-beta.0.1.4.sol\":4538:4706  function collectFees() external onlyOwner {... */\n    tag_14:\n      tag_61\n      tag_62\n      jump\t// in\n    tag_61:\n      stop\n        /* \"contracts/zapyield-mainnet-beta.0.1.4.sol\":1527:2294  function zapIn(uint256 _amount, address _referrer) external nonReentrant {... */\n    tag_15:\n      tag_63\n      0x04\n      dup1\n      calldatasize\n      sub\n      dup2\n      add\n      swap1\n      tag_64\n      swap2\n      swap1\n      tag_65\n      jump\t// in\n    tag_64:\n      tag_66\n      jump\t// in\n    tag_63:\n      stop\n        /* \"@openzeppelin/contracts/access/Ownable.sol\":2543:2758  function transferOwnership(address newOwner) public virtual onlyOwner {... */\n    tag_16:\n      tag_67\n      0x04\n      dup1\n      calldatasize\n      sub\n      dup2\n      add\n      swap1\n      tag_68\n      swap2\n      swap1\n      tag_33\n      jump\t// in\n    tag_68:\n      tag_69\n      jump\t// in\n    tag_67:\n      stop\n        /* \"contracts/zapyield-mainnet-beta.0.1.4.sol\":1446:1478  uint256 public totalProtocolFees */\n    tag_17:\n      tag_70\n      tag_71\n      jump\t// in\n    tag_70:\n      mload(0x40)\n      tag_72\n      swap2\n      swap1\n      tag_25\n      jump\t// in\n    tag_72:\n      mload(0x40)\n      dup1\n      swap2\n      sub\n      swap1\n      return\n        /* \"contracts/zapyield-mainnet-beta.0.1.4.sol\":794:887  IMorphoVault public constant mUSDC = IMorphoVault(0xc1256Ae5FF1cf2719D4937adb3bbCCab2E00A2Ca) */\n    tag_18:\n      tag_73\n      tag_74\n      jump\t// in\n    tag_73:\n      mload(0x40)\n      tag_75\n      swap2\n      swap1\n      tag_76\n      jump\t// in\n    tag_75:\n      mload(0x40)\n      dup1\n      swap2\n      sub\n      swap1\n      return\n        /* \"contracts/zapyield-mainnet-beta.0.1.4.sol\":999:1039  uint256 public constant PROTOCOL_FEE = 5 */\n    tag_23:\n        /* \"contracts/zapyield-mainnet-beta.0.1.4.sol\":1038:1039  5 */\n      0x05\n        /* \"contracts/zapyield-mainnet-beta.0.1.4.sol\":999:1039  uint256 public constant PROTOCOL_FEE = 5 */\n      dup2\n      jump\t// out\n        /* \"contracts/zapyield-mainnet-beta.0.1.4.sol\":2300:4242  function zapOut() external nonReentrant {... */\n    tag_27:\n        /* \"@openzeppelin/contracts/security/ReentrancyGuard.sol\":2261:2282  _nonReentrantBefore() */\n      tag_78\n        /* \"@openzeppelin/contracts/security/ReentrancyGuard.sol\":2261:2280  _nonReentrantBefore */\n      tag_79\n        /* \"@openzeppelin/contracts/security/ReentrancyGuard.sol\":2261:2282  _nonReentrantBefore() */\n      jump\t// in\n    tag_78:\n        /* \"contracts/zapyield-mainnet-beta.0.1.4.sol\":2350:2371  UserInfo storage user */\n      0x00\n        /* \"contracts/zapyield-mainnet-beta.0.1.4.sol\":2374:2379  users */\n      0x02\n        /* \"contracts/zapyield-mainnet-beta.0.1.4.sol\":2374:2391  users[msg.sender] */\n      0x00\n        /* \"contracts/zapyield-mainnet-beta.0.1.4.sol\":2380:2390  msg.sender */\n      caller\n        /* \"contracts/zapyield-mainnet-beta.0.1.4.sol\":2374:2391  users[msg.sender] */\n      0xffffffffffffffffffffffffffffffffffffffff\n      and\n      0xffffffffffffffffffffffffffffffffffffffff\n      and\n      dup2\n      mstore\n      0x20\n      add\n      swap1\n      dup2\n      mstore\n      0x20\n      add\n      0x00\n      keccak256\n        /* \"contracts/zapyield-mainnet-beta.0.1.4.sol\":2350:2391  UserInfo storage user = users[msg.sender] */\n      swap1\n      pop\n        /* \"contracts/zapyield-mainnet-beta.0.1.4.sol\":2429:2430  0 */\n      0x00\n        /* \"contracts/zapyield-mainnet-beta.0.1.4.sol\":2409:2413  user */\n      dup2\n        /* \"contracts/zapyield-mainnet-beta.0.1.4.sol\":2409:2426  user.shareBalance */\n      0x01\n      add\n      sload\n        /* \"contracts/zapyield-mainnet-beta.0.1.4.sol\":2409:2430  user.shareBalance > 0 */\n      gt\n        /* \"contracts/zapyield-mainnet-beta.0.1.4.sol\":2401:2445  require(user.shareBalance > 0, \"No balance\") */\n      tag_81\n      jumpi\n      mload(0x40)\n      0x08c379a000000000000000000000000000000000000000000000000000000000\n      dup2\n      mstore\n      0x04\n      add\n      tag_82\n      swap1\n      tag_83\n      jump\t// in\n    tag_82:\n      mload(0x40)\n      dup1\n      swap2\n      sub\n      swap1\n      revert\n    tag_81:\n        /* \"contracts/zapyield-mainnet-beta.0.1.4.sol\":2456:2470  uint256 shares */\n      0x00\n        /* \"contracts/zapyield-mainnet-beta.0.1.4.sol\":2473:2477  user */\n      dup2\n        /* \"contracts/zapyield-mainnet-beta.0.1.4.sol\":2473:2490  user.shareBalance */\n      0x01\n      add\n      sload\n        /* \"contracts/zapyield-mainnet-beta.0.1.4.sol\":2456:2490  uint256 shares = user.shareBalance */\n      swap1\n      pop\n        /* \"contracts/zapyield-mainnet-beta.0.1.4.sol\":2500:2517  uint256 principal */\n      0x00\n        /* \"contracts/zapyield-mainnet-beta.0.1.4.sol\":2520:2524  user */\n      dup3\n        /* \"contracts/zapyield-mainnet-beta.0.1.4.sol\":2520:2534  user.principal */\n      0x00\n      add\n      sload\n        /* \"contracts/zapyield-mainnet-beta.0.1.4.sol\":2500:2534  uint256 principal = user.principal */\n      swap1\n      pop\n        /* \"contracts/zapyield-mainnet-beta.0.1.4.sol\":2544:2563  uint256 depositTime */\n      0x00\n        /* \"contracts/zapyield-mainnet-beta.0.1.4.sol\":2566:2570  user */\n      dup4\n        /* \"contracts/zapyield-mainnet-beta.0.1.4.sol\":2566:2586  user.lastDepositTime */\n      0x04\n      add\n      sload\n        /* \"contracts/zapyield-mainnet-beta.0.1.4.sol\":2544:2586  uint256 depositTime = user.lastDepositTime */\n      swap1\n      pop\n        /* \"contracts/zapyield-mainnet-beta.0.1.4.sol\":2617:2618  0 */\n      0x00\n        /* \"contracts/zapyield-mainnet-beta.0.1.4.sol\":2597:2601  user */\n      dup5\n        /* \"contracts/zapyield-mainnet-beta.0.1.4.sol\":2597:2614  user.shareBalance */\n      0x01\n      add\n        /* \"contracts/zapyield-mainnet-beta.0.1.4.sol\":2597:2618  user.shareBalance = 0 */\n      dup2\n      swap1\n      sstore\n      pop\n        /* \"contracts/zapyield-mainnet-beta.0.1.4.sol\":2645:2646  0 */\n      0x00\n        /* \"contracts/zapyield-mainnet-beta.0.1.4.sol\":2628:2632  user */\n      dup5\n        /* \"contracts/zapyield-mainnet-beta.0.1.4.sol\":2628:2642  user.principal */\n      0x00\n      add\n        /* \"contracts/zapyield-mainnet-beta.0.1.4.sol\":2628:2646  user.principal = 0 */\n      dup2\n      swap1\n      sstore\n      pop\n        /* \"contracts/zapyield-mainnet-beta.0.1.4.sol\":844:886  0xc1256Ae5FF1cf2719D4937adb3bbCCab2E00A2Ca */\n      0xc1256ae5ff1cf2719d4937adb3bbccab2e00a2ca\n        /* \"contracts/zapyield-mainnet-beta.0.1.4.sol\":2679:2691  mUSDC.redeem */\n      0xffffffffffffffffffffffffffffffffffffffff\n      and\n      0xba087652\n        /* \"contracts/zapyield-mainnet-beta.0.1.4.sol\":2692:2698  shares */\n      dup5\n        /* \"contracts/zapyield-mainnet-beta.0.1.4.sol\":2708:2712  this */\n      address\n        /* \"contracts/zapyield-mainnet-beta.0.1.4.sol\":2723:2727  this */\n      address\n        /* \"contracts/zapyield-mainnet-beta.0.1.4.sol\":2679:2729  mUSDC.redeem(shares, address(this), address(this)) */\n      mload(0x40)\n      dup5\n      0xffffffff\n      and\n      0xe0\n      shl\n      dup2\n      mstore\n      0x04\n      add\n      tag_84\n      swap4\n      swap3\n      swap2\n      swap1\n      tag_85\n      jump\t// in\n    tag_84:\n      0x20\n      mload(0x40)\n      dup1\n      dup4\n      sub\n      dup2\n      0x00\n      dup8\n      gas\n      call\n      iszero\n      dup1\n      iszero\n      tag_87\n      jumpi\n      returndatasize\n      0x00\n      dup1\n      returndatacopy\n      revert(0x00, returndatasize)\n    tag_87:\n      pop\n      pop\n      pop\n      pop\n      mload(0x40)\n      returndatasize\n      not(0x1f)\n      0x1f\n      dup3\n      add\n      and\n      dup3\n      add\n      dup1\n      0x40\n      mstore\n      pop\n      dup2\n      add\n      swap1\n      tag_88\n      swap2\n      swap1\n      tag_89\n      jump\t// in\n    tag_88:\n      pop\n        /* \"contracts/zapyield-mainnet-beta.0.1.4.sol\":2739:2757  uint256 totalValue */\n      0x00\n        /* \"contracts/zapyield-mainnet-beta.0.1.4.sol\":844:886  0xc1256Ae5FF1cf2719D4937adb3bbCCab2E00A2Ca */\n      0xc1256ae5ff1cf2719d4937adb3bbccab2e00a2ca\n        /* \"contracts/zapyield-mainnet-beta.0.1.4.sol\":2760:2781  mUSDC.convertToAssets */\n      0xffffffffffffffffffffffffffffffffffffffff\n      and\n      0x07a2d13a\n        /* \"contracts/zapyield-mainnet-beta.0.1.4.sol\":2782:2788  shares */\n      dup6\n        /* \"contracts/zapyield-mainnet-beta.0.1.4.sol\":2760:2789  mUSDC.convertToAssets(shares) */\n      mload(0x40)\n      dup3\n      0xffffffff\n      and\n      0xe0\n      shl\n      dup2\n      mstore\n      0x04\n      add\n      tag_90\n      swap2\n      swap1\n      tag_25\n      jump\t// in\n    tag_90:\n      0x20\n      mload(0x40)\n      dup1\n      dup4\n      sub\n      dup2\n      dup7\n      gas\n      staticcall\n      iszero\n      dup1\n      iszero\n      tag_92\n      jumpi\n      returndatasize\n      0x00\n      dup1\n      returndatacopy\n      revert(0x00, returndatasize)\n    tag_92:\n      pop\n      pop\n      pop\n      pop\n      mload(0x40)\n      returndatasize\n      not(0x1f)\n      0x1f\n      dup3\n      add\n      and\n      dup3\n      add\n      dup1\n      0x40\n      mstore\n      pop\n      dup2\n      add\n      swap1\n      tag_93\n      swap2\n      swap1\n      tag_89\n      jump\t// in\n    tag_93:\n        /* \"contracts/zapyield-mainnet-beta.0.1.4.sol\":2739:2789  uint256 totalValue = mUSDC.convertToAssets(shares) */\n      swap1\n      pop\n        /* \"contracts/zapyield-mainnet-beta.0.1.4.sol\":1100:1108  76 hours */\n      0x042cc0\n        /* \"contracts/zapyield-mainnet-beta.0.1.4.sol\":2868:2879  depositTime */\n      dup3\n        /* \"contracts/zapyield-mainnet-beta.0.1.4.sol\":2868:2891  depositTime + LOCK_TIME */\n      tag_94\n      swap2\n      swap1\n      tag_95\n      jump\t// in\n    tag_94:\n        /* \"contracts/zapyield-mainnet-beta.0.1.4.sol\":2850:2865  block.timestamp */\n      timestamp\n        /* \"contracts/zapyield-mainnet-beta.0.1.4.sol\":2850:2891  block.timestamp < depositTime + LOCK_TIME */\n      lt\n        /* \"contracts/zapyield-mainnet-beta.0.1.4.sol\":2846:3192  if (block.timestamp < depositTime + LOCK_TIME) {... */\n      iszero\n      tag_96\n      jumpi\n        /* \"contracts/zapyield-mainnet-beta.0.1.4.sol\":2980:2995  uint256 penalty */\n      0x00\n        /* \"contracts/zapyield-mainnet-beta.0.1.4.sol\":3034:3037  100 */\n      0x64\n        /* \"contracts/zapyield-mainnet-beta.0.1.4.sol\":1159:1160  1 */\n      0x01\n        /* \"contracts/zapyield-mainnet-beta.0.1.4.sol\":2999:3009  totalValue */\n      dup4\n        /* \"contracts/zapyield-mainnet-beta.0.1.4.sol\":2999:3030  totalValue * EARLY_EXIT_PENALTY */\n      tag_97\n      swap2\n      swap1\n      tag_98\n      jump\t// in\n    tag_97:\n        /* \"contracts/zapyield-mainnet-beta.0.1.4.sol\":2998:3037  (totalValue * EARLY_EXIT_PENALTY) / 100 */\n      tag_99\n      swap2\n      swap1\n      tag_100\n      jump\t// in\n    tag_99:\n        /* \"contracts/zapyield-mainnet-beta.0.1.4.sol\":2980:3037  uint256 penalty = (totalValue * EARLY_EXIT_PENALTY) / 100 */\n      swap1\n      pop\n        /* \"contracts/zapyield-mainnet-beta.0.1.4.sol\":3072:3079  penalty */\n      dup1\n        /* \"contracts/zapyield-mainnet-beta.0.1.4.sol\":3051:3068  totalProtocolFees */\n      0x03\n      0x00\n        /* \"contracts/zapyield-mainnet-beta.0.1.4.sol\":3051:3079  totalProtocolFees += penalty */\n      dup3\n      dup3\n      sload\n      tag_101\n      swap2\n      swap1\n      tag_95\n      jump\t// in\n    tag_101:\n      swap3\n      pop\n      pop\n      dup2\n      swap1\n      sstore\n      pop\n        /* \"contracts/zapyield-mainnet-beta.0.1.4.sol\":3093:3144  USDC.safeTransfer(msg.sender, totalValue - penalty) */\n      tag_102\n        /* \"contracts/zapyield-mainnet-beta.0.1.4.sol\":3111:3121  msg.sender */\n      caller\n        /* \"contracts/zapyield-mainnet-beta.0.1.4.sol\":3136:3143  penalty */\n      dup3\n        /* \"contracts/zapyield-mainnet-beta.0.1.4.sol\":3123:3133  totalValue */\n      dup5\n        /* \"contracts/zapyield-mainnet-beta.0.1.4.sol\":3123:3143  totalValue - penalty */\n      tag_103\n      swap2\n      swap1\n      tag_104\n      jump\t// in\n    tag_103:\n        /* \"contracts/zapyield-mainnet-beta.0.1.4.sol\":744:786  0x833589fCD6eDb6E08f4c7C32D4f71b54bdA02913 */\n      0x833589fcd6edb6e08f4c7c32d4f71b54bda02913\n        /* \"contracts/zapyield-mainnet-beta.0.1.4.sol\":3093:3110  USDC.safeTransfer */\n      0xffffffffffffffffffffffffffffffffffffffff\n      and\n      tag_105\n      swap1\n        /* \"contracts/zapyield-mainnet-beta.0.1.4.sol\":3093:3144  USDC.safeTransfer(msg.sender, totalValue - penalty) */\n      swap3\n      swap2\n      swap1\n      0xffffffff\n      and\n      jump\t// in\n    tag_102:\n        /* \"contracts/zapyield-mainnet-beta.0.1.4.sol\":3158:3165  return; */\n      pop\n      pop\n      pop\n      pop\n      pop\n      pop\n      jump(tag_80)\n        /* \"contracts/zapyield-mainnet-beta.0.1.4.sol\":2846:3192  if (block.timestamp < depositTime + LOCK_TIME) {... */\n    tag_96:\n        /* \"contracts/zapyield-mainnet-beta.0.1.4.sol\":3259:3273  uint256 profit */\n      0x00\n        /* \"contracts/zapyield-mainnet-beta.0.1.4.sol\":3304:3313  principal */\n      dup4\n        /* \"contracts/zapyield-mainnet-beta.0.1.4.sol\":3291:3301  totalValue */\n      dup3\n        /* \"contracts/zapyield-mainnet-beta.0.1.4.sol\":3291:3313  totalValue > principal */\n      gt\n        /* \"contracts/zapyield-mainnet-beta.0.1.4.sol\":3287:3371  if (totalValue > principal) {... */\n      iszero\n      tag_106\n      jumpi\n        /* \"contracts/zapyield-mainnet-beta.0.1.4.sol\":3351:3360  principal */\n      dup4\n        /* \"contracts/zapyield-mainnet-beta.0.1.4.sol\":3338:3348  totalValue */\n      dup3\n        /* \"contracts/zapyield-mainnet-beta.0.1.4.sol\":3338:3360  totalValue - principal */\n      tag_107\n      swap2\n      swap1\n      tag_104\n      jump\t// in\n    tag_107:\n        /* \"contracts/zapyield-mainnet-beta.0.1.4.sol\":3329:3360  profit = totalValue - principal */\n      swap1\n      pop\n        /* \"contracts/zapyield-mainnet-beta.0.1.4.sol\":3287:3371  if (totalValue > principal) {... */\n    tag_106:\n        /* \"contracts/zapyield-mainnet-beta.0.1.4.sol\":3394:3395  0 */\n      0x00\n        /* \"contracts/zapyield-mainnet-beta.0.1.4.sol\":3385:3391  profit */\n      dup2\n        /* \"contracts/zapyield-mainnet-beta.0.1.4.sol\":3385:3395  profit > 0 */\n      gt\n        /* \"contracts/zapyield-mainnet-beta.0.1.4.sol\":3381:4236  if (profit > 0) {... */\n      iszero\n      tag_108\n      jumpi\n        /* \"contracts/zapyield-mainnet-beta.0.1.4.sol\":3454:3471  uint256 refPayout */\n      0x00\n        /* \"contracts/zapyield-mainnet-beta.0.1.4.sol\":3502:3505  100 */\n      0x64\n        /* \"contracts/zapyield-mainnet-beta.0.1.4.sol\":974:976  10 */\n      0x0a\n        /* \"contracts/zapyield-mainnet-beta.0.1.4.sol\":3475:3481  profit */\n      dup4\n        /* \"contracts/zapyield-mainnet-beta.0.1.4.sol\":3475:3498  profit * REFERRAL_SHARE */\n      tag_109\n      swap2\n      swap1\n      tag_98\n      jump\t// in\n    tag_109:\n        /* \"contracts/zapyield-mainnet-beta.0.1.4.sol\":3474:3505  (profit * REFERRAL_SHARE) / 100 */\n      tag_110\n      swap2\n      swap1\n      tag_100\n      jump\t// in\n    tag_110:\n        /* \"contracts/zapyield-mainnet-beta.0.1.4.sol\":3454:3505  uint256 refPayout = (profit * REFERRAL_SHARE) / 100 */\n      swap1\n      pop\n        /* \"contracts/zapyield-mainnet-beta.0.1.4.sol\":3561:3577  uint256 ownerFee */\n      0x00\n        /* \"contracts/zapyield-mainnet-beta.0.1.4.sol\":3606:3609  100 */\n      0x64\n        /* \"contracts/zapyield-mainnet-beta.0.1.4.sol\":1038:1039  5 */\n      0x05\n        /* \"contracts/zapyield-mainnet-beta.0.1.4.sol\":3581:3587  profit */\n      dup5\n        /* \"contracts/zapyield-mainnet-beta.0.1.4.sol\":3581:3602  profit * PROTOCOL_FEE */\n      tag_111\n      swap2\n      swap1\n      tag_98\n      jump\t// in\n    tag_111:\n        /* \"contracts/zapyield-mainnet-beta.0.1.4.sol\":3580:3609  (profit * PROTOCOL_FEE) / 100 */\n      tag_112\n      swap2\n      swap1\n      tag_100\n      jump\t// in\n    tag_112:\n        /* \"contracts/zapyield-mainnet-beta.0.1.4.sol\":3561:3609  uint256 ownerFee = (profit * PROTOCOL_FEE) / 100 */\n      swap1\n      pop\n        /* \"contracts/zapyield-mainnet-beta.0.1.4.sol\":3689:3707  uint256 userProfit */\n      0x00\n        /* \"contracts/zapyield-mainnet-beta.0.1.4.sol\":3731:3739  ownerFee */\n      dup2\n        /* \"contracts/zapyield-mainnet-beta.0.1.4.sol\":3719:3728  refPayout */\n      dup4\n        /* \"contracts/zapyield-mainnet-beta.0.1.4.sol\":3710:3716  profit */\n      dup6\n        /* \"contracts/zapyield-mainnet-beta.0.1.4.sol\":3710:3728  profit - refPayout */\n      tag_113\n      swap2\n      swap1\n      tag_104\n      jump\t// in\n    tag_113:\n        /* \"contracts/zapyield-mainnet-beta.0.1.4.sol\":3710:3739  profit - refPayout - ownerFee */\n      tag_114\n      swap2\n      swap1\n      tag_104\n      jump\t// in\n    tag_114:\n        /* \"contracts/zapyield-mainnet-beta.0.1.4.sol\":3689:3739  uint256 userProfit = profit - refPayout - ownerFee */\n      swap1\n      pop\n        /* \"contracts/zapyield-mainnet-beta.0.1.4.sol\":3821:3822  0 */\n      0x00\n        /* \"contracts/zapyield-mainnet-beta.0.1.4.sol\":3796:3823  user.referrer != address(0) */\n      0xffffffffffffffffffffffffffffffffffffffff\n      and\n        /* \"contracts/zapyield-mainnet-beta.0.1.4.sol\":3796:3800  user */\n      dup10\n        /* \"contracts/zapyield-mainnet-beta.0.1.4.sol\":3796:3809  user.referrer */\n      0x02\n      add\n      0x00\n      swap1\n      sload\n      swap1\n      0x0100\n      exp\n      swap1\n      div\n      0xffffffffffffffffffffffffffffffffffffffff\n      and\n        /* \"contracts/zapyield-mainnet-beta.0.1.4.sol\":3796:3823  user.referrer != address(0) */\n      0xffffffffffffffffffffffffffffffffffffffff\n      and\n      eq\n        /* \"contracts/zapyield-mainnet-beta.0.1.4.sol\":3792:4044  if (user.referrer != address(0)) {... */\n      tag_115\n      jumpi\n        /* \"contracts/zapyield-mainnet-beta.0.1.4.sol\":3843:3886  USDC.safeTransfer(user.referrer, refPayout) */\n      tag_116\n        /* \"contracts/zapyield-mainnet-beta.0.1.4.sol\":3861:3865  user */\n      dup10\n        /* \"contracts/zapyield-mainnet-beta.0.1.4.sol\":3861:3874  user.referrer */\n      0x02\n      add\n      0x00\n      swap1\n      sload\n      swap1\n      0x0100\n      exp\n      swap1\n      div\n      0xffffffffffffffffffffffffffffffffffffffff\n      and\n        /* \"contracts/zapyield-mainnet-beta.0.1.4.sol\":3876:3885  refPayout */\n      dup5\n        /* \"contracts/zapyield-mainnet-beta.0.1.4.sol\":744:786  0x833589fCD6eDb6E08f4c7C32D4f71b54bdA02913 */\n      0x833589fcd6edb6e08f4c7c32d4f71b54bda02913\n        /* \"contracts/zapyield-mainnet-beta.0.1.4.sol\":3843:3860  USDC.safeTransfer */\n      0xffffffffffffffffffffffffffffffffffffffff\n      and\n      tag_105\n      swap1\n        /* \"contracts/zapyield-mainnet-beta.0.1.4.sol\":3843:3886  USDC.safeTransfer(user.referrer, refPayout) */\n      swap3\n      swap2\n      swap1\n      0xffffffff\n      and\n      jump\t// in\n    tag_116:\n        /* \"contracts/zapyield-mainnet-beta.0.1.4.sol\":3950:3959  refPayout */\n      dup3\n        /* \"contracts/zapyield-mainnet-beta.0.1.4.sol\":3904:3909  users */\n      0x02\n        /* \"contracts/zapyield-mainnet-beta.0.1.4.sol\":3904:3924  users[user.referrer] */\n      0x00\n        /* \"contracts/zapyield-mainnet-beta.0.1.4.sol\":3910:3914  user */\n      dup12\n        /* \"contracts/zapyield-mainnet-beta.0.1.4.sol\":3910:3923  user.referrer */\n      0x02\n      add\n      0x00\n      swap1\n      sload\n      swap1\n      0x0100\n      exp\n      swap1\n      div\n      0xffffffffffffffffffffffffffffffffffffffff\n      and\n        /* \"contracts/zapyield-mainnet-beta.0.1.4.sol\":3904:3924  users[user.referrer] */\n      0xffffffffffffffffffffffffffffffffffffffff\n      and\n      0xffffffffffffffffffffffffffffffffffffffff\n      and\n      dup2\n      mstore\n      0x20\n      add\n      swap1\n      dup2\n      mstore\n      0x20\n      add\n      0x00\n      keccak256\n        /* \"contracts/zapyield-mainnet-beta.0.1.4.sol\":3904:3946  users[user.referrer].totalReferralEarnings */\n      0x03\n      add\n      0x00\n        /* \"contracts/zapyield-mainnet-beta.0.1.4.sol\":3904:3959  users[user.referrer].totalReferralEarnings += refPayout */\n      dup3\n      dup3\n      sload\n      tag_117\n      swap2\n      swap1\n      tag_95\n      jump\t// in\n    tag_117:\n      swap3\n      pop\n      pop\n      dup2\n      swap1\n      sstore\n      pop\n        /* \"contracts/zapyield-mainnet-beta.0.1.4.sol\":3792:4044  if (user.referrer != address(0)) {... */\n      jump(tag_118)\n    tag_115:\n        /* \"contracts/zapyield-mainnet-beta.0.1.4.sol\":4019:4028  refPayout */\n      dup3\n        /* \"contracts/zapyield-mainnet-beta.0.1.4.sol\":3998:4015  totalProtocolFees */\n      0x03\n      0x00\n        /* \"contracts/zapyield-mainnet-beta.0.1.4.sol\":3998:4028  totalProtocolFees += refPayout */\n      dup3\n      dup3\n      sload\n      tag_119\n      swap2\n      swap1\n      tag_95\n      jump\t// in\n    tag_119:\n      swap3\n      pop\n      pop\n      dup2\n      swap1\n      sstore\n      pop\n        /* \"contracts/zapyield-mainnet-beta.0.1.4.sol\":3792:4044  if (user.referrer != address(0)) {... */\n    tag_118:\n        /* \"contracts/zapyield-mainnet-beta.0.1.4.sol\":4079:4087  ownerFee */\n      dup2\n        /* \"contracts/zapyield-mainnet-beta.0.1.4.sol\":4058:4075  totalProtocolFees */\n      0x03\n      0x00\n        /* \"contracts/zapyield-mainnet-beta.0.1.4.sol\":4058:4087  totalProtocolFees += ownerFee */\n      dup3\n      dup3\n      sload\n      tag_120\n      swap2\n      swap1\n      tag_95\n      jump\t// in\n    tag_120:\n      swap3\n      pop\n      pop\n      dup2\n      swap1\n      sstore\n      pop\n        /* \"contracts/zapyield-mainnet-beta.0.1.4.sol\":4101:4154  USDC.safeTransfer(msg.sender, principal + userProfit) */\n      tag_121\n        /* \"contracts/zapyield-mainnet-beta.0.1.4.sol\":4119:4129  msg.sender */\n      caller\n        /* \"contracts/zapyield-mainnet-beta.0.1.4.sol\":4143:4153  userProfit */\n      dup3\n        /* \"contracts/zapyield-mainnet-beta.0.1.4.sol\":4131:4140  principal */\n      dup10\n        /* \"contracts/zapyield-mainnet-beta.0.1.4.sol\":4131:4153  principal + userProfit */\n      tag_122\n      swap2\n      swap1\n      tag_95\n      jump\t// in\n    tag_122:\n        /* \"contracts/zapyield-mainnet-beta.0.1.4.sol\":744:786  0x833589fCD6eDb6E08f4c7C32D4f71b54bdA02913 */\n      0x833589fcd6edb6e08f4c7c32d4f71b54bda02913\n        /* \"contracts/zapyield-mainnet-beta.0.1.4.sol\":4101:4118  USDC.safeTransfer */\n      0xffffffffffffffffffffffffffffffffffffffff\n      and\n      tag_105\n      swap1\n        /* \"contracts/zapyield-mainnet-beta.0.1.4.sol\":4101:4154  USDC.safeTransfer(msg.sender, principal + userProfit) */\n      swap3\n      swap2\n      swap1\n      0xffffffff\n      and\n      jump\t// in\n    tag_121:\n        /* \"contracts/zapyield-mainnet-beta.0.1.4.sol\":3397:4165  {... */\n      pop\n      pop\n      pop\n        /* \"contracts/zapyield-mainnet-beta.0.1.4.sol\":3381:4236  if (profit > 0) {... */\n      jump(tag_123)\n    tag_108:\n        /* \"contracts/zapyield-mainnet-beta.0.1.4.sol\":4185:4225  USDC.safeTransfer(msg.sender, principal) */\n      tag_124\n        /* \"contracts/zapyield-mainnet-beta.0.1.4.sol\":4203:4213  msg.sender */\n      caller\n        /* \"contracts/zapyield-mainnet-beta.0.1.4.sol\":4215:4224  principal */\n      dup6\n        /* \"contracts/zapyield-mainnet-beta.0.1.4.sol\":744:786  0x833589fCD6eDb6E08f4c7C32D4f71b54bdA02913 */\n      0x833589fcd6edb6e08f4c7c32d4f71b54bda02913\n        /* \"contracts/zapyield-mainnet-beta.0.1.4.sol\":4185:4202  USDC.safeTransfer */\n      0xffffffffffffffffffffffffffffffffffffffff\n      and\n      tag_105\n      swap1\n        /* \"contracts/zapyield-mainnet-beta.0.1.4.sol\":4185:4225  USDC.safeTransfer(msg.sender, principal) */\n      swap3\n      swap2\n      swap1\n      0xffffffff\n      and\n      jump\t// in\n    tag_124:\n        /* \"contracts/zapyield-mainnet-beta.0.1.4.sol\":3381:4236  if (profit > 0) {... */\n    tag_123:\n        /* \"contracts/zapyield-mainnet-beta.0.1.4.sol\":2340:4242  {... */\n      pop\n      pop\n      pop\n      pop\n      pop\n      pop\n        /* \"@openzeppelin/contracts/security/ReentrancyGuard.sol\":2292:2293  _ */\n    tag_80:\n        /* \"@openzeppelin/contracts/security/ReentrancyGuard.sol\":2303:2323  _nonReentrantAfter() */\n      tag_125\n        /* \"@openzeppelin/contracts/security/ReentrancyGuard.sol\":2303:2321  _nonReentrantAfter */\n      tag_126\n        /* \"@openzeppelin/contracts/security/ReentrancyGuard.sol\":2303:2323  _nonReentrantAfter() */\n      jump\t// in\n    tag_125:\n        /* \"contracts/zapyield-mainnet-beta.0.1.4.sol\":2300:4242  function zapOut() external nonReentrant {... */\n      jump\t// out\n        /* \"contracts/zapyield-mainnet-beta.0.1.4.sol\":1064:1108  uint256 public constant LOCK_TIME = 76 hours */\n    tag_29:\n        /* \"contracts/zapyield-mainnet-beta.0.1.4.sol\":1100:1108  76 hours */\n      0x042cc0\n        /* \"contracts/zapyield-mainnet-beta.0.1.4.sol\":1064:1108  uint256 public constant LOCK_TIME = 76 hours */\n      dup2\n      jump\t// out\n        /* \"contracts/zapyield-mainnet-beta.0.1.4.sol\":4398:4532  function getReferralEarnings(address _user) external view returns (uint256) {... */\n    tag_34:\n        /* \"contracts/zapyield-mainnet-beta.0.1.4.sol\":4465:4472  uint256 */\n      0x00\n        /* \"contracts/zapyield-mainnet-beta.0.1.4.sol\":4491:4496  users */\n      0x02\n        /* \"contracts/zapyield-mainnet-beta.0.1.4.sol\":4491:4503  users[_user] */\n      0x00\n        /* \"contracts/zapyield-mainnet-beta.0.1.4.sol\":4497:4502  _user */\n      dup4\n        /* \"contracts/zapyield-mainnet-beta.0.1.4.sol\":4491:4503  users[_user] */\n      0xffffffffffffffffffffffffffffffffffffffff\n      and\n      0xffffffffffffffffffffffffffffffffffffffff\n      and\n      dup2\n      mstore\n      0x20\n      add\n      swap1\n      dup2\n      mstore\n      0x20\n      add\n      0x00\n      keccak256\n        /* \"contracts/zapyield-mainnet-beta.0.1.4.sol\":4491:4525  users[_user].totalReferralEarnings */\n      0x03\n      add\n      sload\n        /* \"contracts/zapyield-mainnet-beta.0.1.4.sol\":4484:4525  return users[_user].totalReferralEarnings */\n      swap1\n      pop\n        /* \"contracts/zapyield-mainnet-beta.0.1.4.sol\":4398:4532  function getReferralEarnings(address _user) external view returns (uint256) {... */\n      swap2\n      swap1\n      pop\n      jump\t// out\n        /* \"contracts/zapyield-mainnet-beta.0.1.4.sol\":4248:4392  function getAccountValue(address _user) external view returns (uint256) {... */\n    tag_38:\n        /* \"contracts/zapyield-mainnet-beta.0.1.4.sol\":4311:4318  uint256 */\n      0x00\n        /* \"contracts/zapyield-mainnet-beta.0.1.4.sol\":844:886  0xc1256Ae5FF1cf2719D4937adb3bbCCab2E00A2Ca */\n      0xc1256ae5ff1cf2719d4937adb3bbccab2e00a2ca\n        /* \"contracts/zapyield-mainnet-beta.0.1.4.sol\":4337:4358  mUSDC.convertToAssets */\n      0xffffffffffffffffffffffffffffffffffffffff\n      and\n      0x07a2d13a\n        /* \"contracts/zapyield-mainnet-beta.0.1.4.sol\":4359:4364  users */\n      0x02\n        /* \"contracts/zapyield-mainnet-beta.0.1.4.sol\":4359:4371  users[_user] */\n      0x00\n        /* \"contracts/zapyield-mainnet-beta.0.1.4.sol\":4365:4370  _user */\n      dup6\n        /* \"contracts/zapyield-mainnet-beta.0.1.4.sol\":4359:4371  users[_user] */\n      0xffffffffffffffffffffffffffffffffffffffff\n      and\n      0xffffffffffffffffffffffffffffffffffffffff\n      and\n      dup2\n      mstore\n      0x20\n      add\n      swap1\n      dup2\n      mstore\n      0x20\n      add\n      0x00\n      keccak256\n        /* \"contracts/zapyield-mainnet-beta.0.1.4.sol\":4359:4384  users[_user].shareBalance */\n      0x01\n      add\n      sload\n        /* \"contracts/zapyield-mainnet-beta.0.1.4.sol\":4337:4385  mUSDC.convertToAssets(users[_user].shareBalance) */\n      mload(0x40)\n      dup3\n      0xffffffff\n      and\n      0xe0\n      shl\n      dup2\n      mstore\n      0x04\n      add\n      tag_129\n      swap2\n      swap1\n      tag_25\n      jump\t// in\n    tag_129:\n      0x20\n      mload(0x40)\n      dup1\n      dup4\n      sub\n      dup2\n      dup7\n      gas\n      staticcall\n      iszero\n      dup1\n      iszero\n      tag_131\n      jumpi\n      returndatasize\n      0x00\n      dup1\n      returndatacopy\n      revert(0x00, returndatasize)\n    tag_131:\n      pop\n      pop\n      pop\n      pop\n      mload(0x40)\n      returndatasize\n      not(0x1f)\n      0x1f\n      dup3\n      add\n      and\n      dup3\n      add\n      dup1\n      0x40\n      mstore\n      pop\n      dup2\n      add\n      swap1\n      tag_132\n      swap2\n      swap1\n      tag_89\n      jump\t// in\n    tag_132:\n        /* \"contracts/zapyield-mainnet-beta.0.1.4.sol\":4330:4385  return mUSDC.convertToAssets(users[_user].shareBalance) */\n      swap1\n      pop\n        /* \"contracts/zapyield-mainnet-beta.0.1.4.sol\":4248:4392  function getAccountValue(address _user) external view returns (uint256) {... */\n      swap2\n      swap1\n      pop\n      jump\t// out\n        /* \"@openzeppelin/contracts/access/Ownable.sol\":2293:2394  function renounceOwnership() public virtual onlyOwner {... */\n    tag_41:\n        /* \"@openzeppelin/contracts/access/Ownable.sol\":1531:1544  _checkOwner() */\n      tag_134\n        /* \"@openzeppelin/contracts/access/Ownable.sol\":1531:1542  _checkOwner */\n      tag_135\n        /* \"@openzeppelin/contracts/access/Ownable.sol\":1531:1544  _checkOwner() */\n      jump\t// in\n    tag_134:\n        /* \"@openzeppelin/contracts/access/Ownable.sol\":2357:2387  _transferOwnership(address(0)) */\n      tag_137\n        /* \"@openzeppelin/contracts/access/Ownable.sol\":2384:2385  0 */\n      0x00\n        /* \"@openzeppelin/contracts/access/Ownable.sol\":2357:2375  _transferOwnership */\n      tag_138\n        /* \"@openzeppelin/contracts/access/Ownable.sol\":2357:2387  _transferOwnership(address(0)) */\n      jump\t// in\n    tag_137:\n        /* \"@openzeppelin/contracts/access/Ownable.sol\":2293:2394  function renounceOwnership() public virtual onlyOwner {... */\n      jump\t// out\n        /* \"contracts/zapyield-mainnet-beta.0.1.4.sol\":1114:1160  uint256 public constant EARLY_EXIT_PENALTY = 1 */\n    tag_43:\n        /* \"contracts/zapyield-mainnet-beta.0.1.4.sol\":1159:1160  1 */\n      0x01\n        /* \"contracts/zapyield-mainnet-beta.0.1.4.sol\":1114:1160  uint256 public constant EARLY_EXIT_PENALTY = 1 */\n      dup2\n      jump\t// out\n        /* \"contracts/zapyield-mainnet-beta.0.1.4.sol\":707:787  IERC20 public constant USDC = IERC20(0x833589fCD6eDb6E08f4c7C32D4f71b54bdA02913) */\n    tag_46:\n        /* \"contracts/zapyield-mainnet-beta.0.1.4.sol\":744:786  0x833589fCD6eDb6E08f4c7C32D4f71b54bdA02913 */\n      0x833589fcd6edb6e08f4c7c32d4f71b54bda02913\n        /* \"contracts/zapyield-mainnet-beta.0.1.4.sol\":707:787  IERC20 public constant USDC = IERC20(0x833589fCD6eDb6E08f4c7C32D4f71b54bdA02913) */\n      dup2\n      jump\t// out\n        /* \"@openzeppelin/contracts/access/Ownable.sol\":1638:1723  function owner() public view virtual returns (address) {... */\n    tag_50:\n        /* \"@openzeppelin/contracts/access/Ownable.sol\":1684:1691  address */\n      0x00\n        /* \"@openzeppelin/contracts/access/Ownable.sol\":1710:1716  _owner */\n      dup1\n      0x00\n      swap1\n      sload\n      swap1\n      0x0100\n      exp\n      swap1\n      div\n      0xffffffffffffffffffffffffffffffffffffffff\n      and\n        /* \"@openzeppelin/contracts/access/Ownable.sol\":1703:1716  return _owner */\n      swap1\n      pop\n        /* \"@openzeppelin/contracts/access/Ownable.sol\":1638:1723  function owner() public view virtual returns (address) {... */\n      swap1\n      jump\t// out\n        /* \"contracts/zapyield-mainnet-beta.0.1.4.sol\":1399:1440  mapping(address => UserInfo) public users */\n    tag_55:\n      mstore(0x20, 0x02)\n      dup1\n      0x00\n      mstore\n      keccak256(0x00, 0x40)\n      0x00\n      swap2\n      pop\n      swap1\n      pop\n      dup1\n      0x00\n      add\n      sload\n      swap1\n      dup1\n      0x01\n      add\n      sload\n      swap1\n      dup1\n      0x02\n      add\n      0x00\n      swap1\n      sload\n      swap1\n      0x0100\n      exp\n      swap1\n      div\n      0xffffffffffffffffffffffffffffffffffffffff\n      and\n      swap1\n      dup1\n      0x03\n      add\n      sload\n      swap1\n      dup1\n      0x04\n      add\n      sload\n      swap1\n      pop\n      dup6\n      jump\t// out\n        /* \"contracts/zapyield-mainnet-beta.0.1.4.sol\":933:976  uint256 public constant REFERRAL_SHARE = 10 */\n    tag_59:\n        /* \"contracts/zapyield-mainnet-beta.0.1.4.sol\":974:976  10 */\n      0x0a\n        /* \"contracts/zapyield-mainnet-beta.0.1.4.sol\":933:976  uint256 public constant REFERRAL_SHARE = 10 */\n      dup2\n      jump\t// out\n        /* \"contracts/zapyield-mainnet-beta.0.1.4.sol\":4538:4706  function collectFees() external onlyOwner {... */\n    tag_62:\n        /* \"@openzeppelin/contracts/access/Ownable.sol\":1531:1544  _checkOwner() */\n      tag_141\n        /* \"@openzeppelin/contracts/access/Ownable.sol\":1531:1542  _checkOwner */\n      tag_135\n        /* \"@openzeppelin/contracts/access/Ownable.sol\":1531:1544  _checkOwner() */\n      jump\t// in\n    tag_141:\n        /* \"contracts/zapyield-mainnet-beta.0.1.4.sol\":4590:4604  uint256 amount */\n      0x00\n        /* \"contracts/zapyield-mainnet-beta.0.1.4.sol\":4607:4624  totalProtocolFees */\n      sload(0x03)\n        /* \"contracts/zapyield-mainnet-beta.0.1.4.sol\":4590:4624  uint256 amount = totalProtocolFees */\n      swap1\n      pop\n        /* \"contracts/zapyield-mainnet-beta.0.1.4.sol\":4654:4655  0 */\n      0x00\n        /* \"contracts/zapyield-mainnet-beta.0.1.4.sol\":4634:4651  totalProtocolFees */\n      0x03\n        /* \"contracts/zapyield-mainnet-beta.0.1.4.sol\":4634:4655  totalProtocolFees = 0 */\n      dup2\n      swap1\n      sstore\n      pop\n        /* \"contracts/zapyield-mainnet-beta.0.1.4.sol\":4665:4699  USDC.safeTransfer(owner(), amount) */\n      tag_143\n        /* \"contracts/zapyield-mainnet-beta.0.1.4.sol\":4683:4690  owner() */\n      tag_144\n        /* \"contracts/zapyield-mainnet-beta.0.1.4.sol\":4683:4688  owner */\n      tag_50\n        /* \"contracts/zapyield-mainnet-beta.0.1.4.sol\":4683:4690  owner() */\n      jump\t// in\n    tag_144:\n        /* \"contracts/zapyield-mainnet-beta.0.1.4.sol\":4692:4698  amount */\n      dup3\n        /* \"contracts/zapyield-mainnet-beta.0.1.4.sol\":744:786  0x833589fCD6eDb6E08f4c7C32D4f71b54bdA02913 */\n      0x833589fcd6edb6e08f4c7c32d4f71b54bda02913\n        /* \"contracts/zapyield-mainnet-beta.0.1.4.sol\":4665:4682  USDC.safeTransfer */\n      0xffffffffffffffffffffffffffffffffffffffff\n      and\n      tag_105\n      swap1\n        /* \"contracts/zapyield-mainnet-beta.0.1.4.sol\":4665:4699  USDC.safeTransfer(owner(), amount) */\n      swap3\n      swap2\n      swap1\n      0xffffffff\n      and\n      jump\t// in\n    tag_143:\n        /* \"contracts/zapyield-mainnet-beta.0.1.4.sol\":4580:4706  {... */\n      pop\n        /* \"contracts/zapyield-mainnet-beta.0.1.4.sol\":4538:4706  function collectFees() external onlyOwner {... */\n      jump\t// out\n        /* \"contracts/zapyield-mainnet-beta.0.1.4.sol\":1527:2294  function zapIn(uint256 _amount, address _referrer) external nonReentrant {... */\n    tag_66:\n        /* \"@openzeppelin/contracts/security/ReentrancyGuard.sol\":2261:2282  _nonReentrantBefore() */\n      tag_146\n        /* \"@openzeppelin/contracts/security/ReentrancyGuard.sol\":2261:2280  _nonReentrantBefore */\n      tag_79\n        /* \"@openzeppelin/contracts/security/ReentrancyGuard.sol\":2261:2282  _nonReentrantBefore() */\n      jump\t// in\n    tag_146:\n        /* \"contracts/zapyield-mainnet-beta.0.1.4.sol\":1629:1637  10 * 1e6 */\n      0x989680\n        /* \"contracts/zapyield-mainnet-beta.0.1.4.sol\":1618:1625  _amount */\n      dup3\n        /* \"contracts/zapyield-mainnet-beta.0.1.4.sol\":1618:1637  _amount >= 10 * 1e6 */\n      lt\n      iszero\n        /* \"contracts/zapyield-mainnet-beta.0.1.4.sol\":1610:1653  require(_amount >= 10 * 1e6, \"Min 10 USDC\") */\n      tag_148\n      jumpi\n      mload(0x40)\n      0x08c379a000000000000000000000000000000000000000000000000000000000\n      dup2\n      mstore\n      0x04\n      add\n      tag_149\n      swap1\n      tag_150\n      jump\t// in\n    tag_149:\n      mload(0x40)\n      dup1\n      swap2\n      sub\n      swap1\n      revert\n    tag_148:\n        /* \"contracts/zapyield-mainnet-beta.0.1.4.sol\":1684:1694  msg.sender */\n      caller\n        /* \"contracts/zapyield-mainnet-beta.0.1.4.sol\":1671:1694  _referrer != msg.sender */\n      0xffffffffffffffffffffffffffffffffffffffff\n      and\n        /* \"contracts/zapyield-mainnet-beta.0.1.4.sol\":1671:1680  _referrer */\n      dup2\n        /* \"contracts/zapyield-mainnet-beta.0.1.4.sol\":1671:1694  _referrer != msg.sender */\n      0xffffffffffffffffffffffffffffffffffffffff\n      and\n      sub\n        /* \"contracts/zapyield-mainnet-beta.0.1.4.sol\":1663:1715  require(_referrer != msg.sender, \"No self-referral\") */\n      tag_151\n      jumpi\n      mload(0x40)\n      0x08c379a000000000000000000000000000000000000000000000000000000000\n      dup2\n      mstore\n      0x04\n      add\n      tag_152\n      swap1\n      tag_153\n      jump\t// in\n    tag_152:\n      mload(0x40)\n      dup1\n      swap2\n      sub\n      swap1\n      revert\n    tag_151:\n        /* \"contracts/zapyield-mainnet-beta.0.1.4.sol\":1726:1747  UserInfo storage user */\n      0x00\n        /* \"contracts/zapyield-mainnet-beta.0.1.4.sol\":1750:1755  users */\n      0x02\n        /* \"contracts/zapyield-mainnet-beta.0.1.4.sol\":1750:1767  users[msg.sender] */\n      0x00\n        /* \"contracts/zapyield-mainnet-beta.0.1.4.sol\":1756:1766  msg.sender */\n      caller\n        /* \"contracts/zapyield-mainnet-beta.0.1.4.sol\":1750:1767  users[msg.sender] */\n      0xffffffffffffffffffffffffffffffffffffffff\n      and\n      0xffffffffffffffffffffffffffffffffffffffff\n      and\n      dup2\n      mstore\n      0x20\n      add\n      swap1\n      dup2\n      mstore\n      0x20\n      add\n      0x00\n      keccak256\n        /* \"contracts/zapyield-mainnet-beta.0.1.4.sol\":1726:1767  UserInfo storage user = users[msg.sender] */\n      swap1\n      pop\n        /* \"contracts/zapyield-mainnet-beta.0.1.4.sol\":1844:1845  0 */\n      0x00\n        /* \"contracts/zapyield-mainnet-beta.0.1.4.sol\":1819:1846  user.referrer == address(0) */\n      0xffffffffffffffffffffffffffffffffffffffff\n      and\n        /* \"contracts/zapyield-mainnet-beta.0.1.4.sol\":1819:1823  user */\n      dup2\n        /* \"contracts/zapyield-mainnet-beta.0.1.4.sol\":1819:1832  user.referrer */\n      0x02\n      add\n      0x00\n      swap1\n      sload\n      swap1\n      0x0100\n      exp\n      swap1\n      div\n      0xffffffffffffffffffffffffffffffffffffffff\n      and\n        /* \"contracts/zapyield-mainnet-beta.0.1.4.sol\":1819:1846  user.referrer == address(0) */\n      0xffffffffffffffffffffffffffffffffffffffff\n      and\n      eq\n        /* \"contracts/zapyield-mainnet-beta.0.1.4.sol\":1819:1873  user.referrer == address(0) && _referrer != address(0) */\n      dup1\n      iszero\n      tag_154\n      jumpi\n      pop\n        /* \"contracts/zapyield-mainnet-beta.0.1.4.sol\":1871:1872  0 */\n      0x00\n        /* \"contracts/zapyield-mainnet-beta.0.1.4.sol\":1850:1873  _referrer != address(0) */\n      0xffffffffffffffffffffffffffffffffffffffff\n      and\n        /* \"contracts/zapyield-mainnet-beta.0.1.4.sol\":1850:1859  _referrer */\n      dup3\n        /* \"contracts/zapyield-mainnet-beta.0.1.4.sol\":1850:1873  _referrer != address(0) */\n      0xffffffffffffffffffffffffffffffffffffffff\n      and\n      eq\n      iszero\n        /* \"contracts/zapyield-mainnet-beta.0.1.4.sol\":1819:1873  user.referrer == address(0) && _referrer != address(0) */\n    tag_154:\n        /* \"contracts/zapyield-mainnet-beta.0.1.4.sol\":1815:1925  if (user.referrer == address(0) && _referrer != address(0)) {... */\n      iszero\n      tag_155\n      jumpi\n        /* \"contracts/zapyield-mainnet-beta.0.1.4.sol\":1905:1914  _referrer */\n      dup2\n        /* \"contracts/zapyield-mainnet-beta.0.1.4.sol\":1889:1893  user */\n      dup2\n        /* \"contracts/zapyield-mainnet-beta.0.1.4.sol\":1889:1902  user.referrer */\n      0x02\n      add\n      0x00\n        /* \"contracts/zapyield-mainnet-beta.0.1.4.sol\":1889:1914  user.referrer = _referrer */\n      0x0100\n      exp\n      dup2\n      sload\n      dup2\n      0xffffffffffffffffffffffffffffffffffffffff\n      mul\n      not\n      and\n      swap1\n      dup4\n      0xffffffffffffffffffffffffffffffffffffffff\n      and\n      mul\n      or\n      swap1\n      sstore\n      pop\n        /* \"contracts/zapyield-mainnet-beta.0.1.4.sol\":1815:1925  if (user.referrer == address(0) && _referrer != address(0)) {... */\n    tag_155:\n        /* \"contracts/zapyield-mainnet-beta.0.1.4.sol\":1964:2021  USDC.safeTransferFrom(msg.sender, address(this), _amount) */\n      tag_156\n        /* \"contracts/zapyield-mainnet-beta.0.1.4.sol\":1986:1996  msg.sender */\n      caller\n        /* \"contracts/zapyield-mainnet-beta.0.1.4.sol\":2006:2010  this */\n      address\n        /* \"contracts/zapyield-mainnet-beta.0.1.4.sol\":2013:2020  _amount */\n      dup6\n        /* \"contracts/zapyield-mainnet-beta.0.1.4.sol\":744:786  0x833589fCD6eDb6E08f4c7C32D4f71b54bdA02913 */\n      0x833589fcd6edb6e08f4c7c32d4f71b54bda02913\n        /* \"contracts/zapyield-mainnet-beta.0.1.4.sol\":1964:1985  USDC.safeTransferFrom */\n      0xffffffffffffffffffffffffffffffffffffffff\n      and\n      tag_157\n      swap1\n        /* \"contracts/zapyield-mainnet-beta.0.1.4.sol\":1964:2021  USDC.safeTransferFrom(msg.sender, address(this), _amount) */\n      swap4\n      swap3\n      swap2\n      swap1\n      0xffffffff\n      and\n      jump\t// in\n    tag_156:\n        /* \"contracts/zapyield-mainnet-beta.0.1.4.sol\":744:786  0x833589fCD6eDb6E08f4c7C32D4f71b54bdA02913 */\n      0x833589fcd6edb6e08f4c7c32d4f71b54bda02913\n        /* \"contracts/zapyield-mainnet-beta.0.1.4.sol\":2031:2043  USDC.approve */\n      0xffffffffffffffffffffffffffffffffffffffff\n      and\n      0x095ea7b3\n        /* \"contracts/zapyield-mainnet-beta.0.1.4.sol\":844:886  0xc1256Ae5FF1cf2719D4937adb3bbCCab2E00A2Ca */\n      0xc1256ae5ff1cf2719d4937adb3bbccab2e00a2ca\n        /* \"contracts/zapyield-mainnet-beta.0.1.4.sol\":2060:2067  _amount */\n      dup6\n        /* \"contracts/zapyield-mainnet-beta.0.1.4.sol\":2031:2068  USDC.approve(address(mUSDC), _amount) */\n      mload(0x40)\n      dup4\n      0xffffffff\n      and\n      0xe0\n      shl\n      dup2\n      mstore\n      0x04\n      add\n      tag_158\n      swap3\n      swap2\n      swap1\n      tag_159\n      jump\t// in\n    tag_158:\n      0x20\n      mload(0x40)\n      dup1\n      dup4\n      sub\n      dup2\n      0x00\n      dup8\n      gas\n      call\n      iszero\n      dup1\n      iszero\n      tag_161\n      jumpi\n      returndatasize\n      0x00\n      dup1\n      returndatacopy\n      revert(0x00, returndatasize)\n    tag_161:\n      pop\n      pop\n      pop\n      pop\n      mload(0x40)\n      returndatasize\n      not(0x1f)\n      0x1f\n      dup3\n      add\n      and\n      dup3\n      add\n      dup1\n      0x40\n      mstore\n      pop\n      dup2\n      add\n      swap1\n      tag_162\n      swap2\n      swap1\n      tag_163\n      jump\t// in\n    tag_162:\n      pop\n        /* \"contracts/zapyield-mainnet-beta.0.1.4.sol\":2078:2095  uint256 newShares */\n      0x00\n        /* \"contracts/zapyield-mainnet-beta.0.1.4.sol\":844:886  0xc1256Ae5FF1cf2719D4937adb3bbCCab2E00A2Ca */\n      0xc1256ae5ff1cf2719d4937adb3bbccab2e00a2ca\n        /* \"contracts/zapyield-mainnet-beta.0.1.4.sol\":2098:2111  mUSDC.deposit */\n      0xffffffffffffffffffffffffffffffffffffffff\n      and\n      0x6e553f65\n        /* \"contracts/zapyield-mainnet-beta.0.1.4.sol\":2112:2119  _amount */\n      dup6\n        /* \"contracts/zapyield-mainnet-beta.0.1.4.sol\":2129:2133  this */\n      address\n        /* \"contracts/zapyield-mainnet-beta.0.1.4.sol\":2098:2135  mUSDC.deposit(_amount, address(this)) */\n      mload(0x40)\n      dup4\n      0xffffffff\n      and\n      0xe0\n      shl\n      dup2\n      mstore\n      0x04\n      add\n      tag_164\n      swap3\n      swap2\n      swap1\n      tag_165\n      jump\t// in\n    tag_164:\n      0x20\n      mload(0x40)\n      dup1\n      dup4\n      sub\n      dup2\n      0x00\n      dup8\n      gas\n      call\n      iszero\n      dup1\n      iszero\n      tag_167\n      jumpi\n      returndatasize\n      0x00\n      dup1\n      returndatacopy\n      revert(0x00, returndatasize)\n    tag_167:\n      pop\n      pop\n      pop\n      pop\n      mload(0x40)\n      returndatasize\n      not(0x1f)\n      0x1f\n      dup3\n      add\n      and\n      dup3\n      add\n      dup1\n      0x40\n      mstore\n      pop\n      dup2\n      add\n      swap1\n      tag_168\n      swap2\n      swap1\n      tag_89\n      jump\t// in\n    tag_168:\n        /* \"contracts/zapyield-mainnet-beta.0.1.4.sol\":2078:2135  uint256 newShares = mUSDC.deposit(_amount, address(this)) */\n      swap1\n      pop\n        /* \"contracts/zapyield-mainnet-beta.0.1.4.sol\":2172:2179  _amount */\n      dup4\n        /* \"contracts/zapyield-mainnet-beta.0.1.4.sol\":2154:2158  user */\n      dup3\n        /* \"contracts/zapyield-mainnet-beta.0.1.4.sol\":2154:2168  user.principal */\n      0x00\n      add\n      0x00\n        /* \"contracts/zapyield-mainnet-beta.0.1.4.sol\":2154:2179  user.principal += _amount */\n      dup3\n      dup3\n      sload\n      tag_169\n      swap2\n      swap1\n      tag_95\n      jump\t// in\n    tag_169:\n      swap3\n      pop\n      pop\n      dup2\n      swap1\n      sstore\n      pop\n        /* \"contracts/zapyield-mainnet-beta.0.1.4.sol\":2210:2219  newShares */\n      dup1\n        /* \"contracts/zapyield-mainnet-beta.0.1.4.sol\":2189:2193  user */\n      dup3\n        /* \"contracts/zapyield-mainnet-beta.0.1.4.sol\":2189:2206  user.shareBalance */\n      0x01\n      add\n      0x00\n        /* \"contracts/zapyield-mainnet-beta.0.1.4.sol\":2189:2219  user.shareBalance += newShares */\n      dup3\n      dup3\n      sload\n      tag_170\n      swap2\n      swap1\n      tag_95\n      jump\t// in\n    tag_170:\n      swap3\n      pop\n      pop\n      dup2\n      swap1\n      sstore\n      pop\n        /* \"contracts/zapyield-mainnet-beta.0.1.4.sol\":2252:2267  block.timestamp */\n      timestamp\n        /* \"contracts/zapyield-mainnet-beta.0.1.4.sol\":2229:2233  user */\n      dup3\n        /* \"contracts/zapyield-mainnet-beta.0.1.4.sol\":2229:2249  user.lastDepositTime */\n      0x04\n      add\n        /* \"contracts/zapyield-mainnet-beta.0.1.4.sol\":2229:2267  user.lastDepositTime = block.timestamp */\n      dup2\n      swap1\n      sstore\n      pop\n        /* \"contracts/zapyield-mainnet-beta.0.1.4.sol\":1600:2294  {... */\n      pop\n      pop\n        /* \"@openzeppelin/contracts/security/ReentrancyGuard.sol\":2303:2323  _nonReentrantAfter() */\n      tag_171\n        /* \"@openzeppelin/contracts/security/ReentrancyGuard.sol\":2303:2321  _nonReentrantAfter */\n      tag_126\n        /* \"@openzeppelin/contracts/security/ReentrancyGuard.sol\":2303:2323  _nonReentrantAfter() */\n      jump\t// in\n    tag_171:\n        /* \"contracts/zapyield-mainnet-beta.0.1.4.sol\":1527:2294  function zapIn(uint256 _amount, address _referrer) external nonReentrant {... */\n      pop\n      pop\n      jump\t// out\n        /* \"@openzeppelin/contracts/access/Ownable.sol\":2543:2758  function transferOwnership(address newOwner) public virtual onlyOwner {... */\n    tag_69:\n        /* \"@openzeppelin/contracts/access/Ownable.sol\":1531:1544  _checkOwner() */\n      tag_173\n        /* \"@openzeppelin/contracts/access/Ownable.sol\":1531:1542  _checkOwner */\n      tag_135\n        /* \"@openzeppelin/contracts/access/Ownable.sol\":1531:1544  _checkOwner() */\n      jump\t// in\n    tag_173:\n        /* \"@openzeppelin/contracts/access/Ownable.sol\":2647:2648  0 */\n      0x00\n        /* \"@openzeppelin/contracts/access/Ownable.sol\":2627:2649  newOwner == address(0) */\n      0xffffffffffffffffffffffffffffffffffffffff\n      and\n        /* \"@openzeppelin/contracts/access/Ownable.sol\":2627:2635  newOwner */\n      dup2\n        /* \"@openzeppelin/contracts/access/Ownable.sol\":2627:2649  newOwner == address(0) */\n      0xffffffffffffffffffffffffffffffffffffffff\n      and\n      sub\n        /* \"@openzeppelin/contracts/access/Ownable.sol\":2623:2714  if (newOwner == address(0)) {... */\n      tag_175\n      jumpi\n        /* \"@openzeppelin/contracts/access/Ownable.sol\":2700:2701  0 */\n      0x00\n        /* \"@openzeppelin/contracts/access/Ownable.sol\":2672:2703  OwnableInvalidOwner(address(0)) */\n      mload(0x40)\n      0x1e4fbdf700000000000000000000000000000000000000000000000000000000\n      dup2\n      mstore\n      0x04\n      add\n      tag_176\n      swap2\n      swap1\n      tag_52\n      jump\t// in\n    tag_176:\n      mload(0x40)\n      dup1\n      swap2\n      sub\n      swap1\n      revert\n        /* \"@openzeppelin/contracts/access/Ownable.sol\":2623:2714  if (newOwner == address(0)) {... */\n    tag_175:\n        /* \"@openzeppelin/contracts/access/Ownable.sol\":2723:2751  _transferOwnership(newOwner) */\n      tag_177\n        /* \"@openzeppelin/contracts/access/Ownable.sol\":2742:2750  newOwner */\n      dup2\n        /* \"@openzeppelin/contracts/access/Ownable.sol\":2723:2741  _transferOwnership */\n      tag_138\n        /* \"@openzeppelin/contracts/access/Ownable.sol\":2723:2751  _transferOwnership(newOwner) */\n      jump\t// in\n    tag_177:\n        /* \"@openzeppelin/contracts/access/Ownable.sol\":2543:2758  function transferOwnership(address newOwner) public virtual onlyOwner {... */\n      pop\n      jump\t// out\n        /* \"contracts/zapyield-mainnet-beta.0.1.4.sol\":1446:1478  uint256 public totalProtocolFees */\n    tag_71:\n      sload(0x03)\n      dup2\n      jump\t// out\n        /* \"contracts/zapyield-mainnet-beta.0.1.4.sol\":794:887  IMorphoVault public constant mUSDC = IMorphoVault(0xc1256Ae5FF1cf2719D4937adb3bbCCab2E00A2Ca) */\n    tag_74:\n        /* \"contracts/zapyield-mainnet-beta.0.1.4.sol\":844:886  0xc1256Ae5FF1cf2719D4937adb3bbCCab2E00A2Ca */\n      0xc1256ae5ff1cf2719d4937adb3bbccab2e00a2ca\n        /* \"contracts/zapyield-mainnet-beta.0.1.4.sol\":794:887  IMorphoVault public constant mUSDC = IMorphoVault(0xc1256Ae5FF1cf2719D4937adb3bbCCab2E00A2Ca) */\n      dup2\n      jump\t// out\n        /* \"@openzeppelin/contracts/security/ReentrancyGuard.sol\":2336:2623  function _nonReentrantBefore() private {... */\n    tag_79:\n        /* \"@openzeppelin/contracts/security/ReentrancyGuard.sol\":1759:1760  2 */\n      0x02\n        /* \"@openzeppelin/contracts/security/ReentrancyGuard.sol\":2468:2475  _status */\n      sload(0x01)\n        /* \"@openzeppelin/contracts/security/ReentrancyGuard.sol\":2468:2487  _status != _ENTERED */\n      sub\n        /* \"@openzeppelin/contracts/security/ReentrancyGuard.sol\":2460:2523  require(_status != _ENTERED, \"ReentrancyGuard: reentrant call\") */\n      tag_179\n      jumpi\n      mload(0x40)\n      0x08c379a000000000000000000000000000000000000000000000000000000000\n      dup2\n      mstore\n      0x04\n      add\n      tag_180\n      swap1\n      tag_181\n      jump\t// in\n    tag_180:\n      mload(0x40)\n      dup1\n      swap2\n      sub\n      swap1\n      revert\n    tag_179:\n        /* \"@openzeppelin/contracts/security/ReentrancyGuard.sol\":1759:1760  2 */\n      0x02\n        /* \"@openzeppelin/contracts/security/ReentrancyGuard.sol\":2598:2605  _status */\n      0x01\n        /* \"@openzeppelin/contracts/security/ReentrancyGuard.sol\":2598:2616  _status = _ENTERED */\n      dup2\n      swap1\n      sstore\n      pop\n        /* \"@openzeppelin/contracts/security/ReentrancyGuard.sol\":2336:2623  function _nonReentrantBefore() private {... */\n      jump\t// out\n        /* \"@openzeppelin/contracts/token/ERC20/utils/SafeERC20.sol\":1219:1379  function safeTransfer(IERC20 token, address to, uint256 value) internal {... */\n    tag_105:\n        /* \"@openzeppelin/contracts/token/ERC20/utils/SafeERC20.sol\":1301:1372  _callOptionalReturn(token, abi.encodeCall(token.transfer, (to, value))) */\n      tag_183\n        /* \"@openzeppelin/contracts/token/ERC20/utils/SafeERC20.sol\":1321:1326  token */\n      dup4\n        /* \"@openzeppelin/contracts/token/ERC20/utils/SafeERC20.sol\":1343:1348  token */\n      dup5\n        /* \"@openzeppelin/contracts/token/ERC20/utils/SafeERC20.sol\":1343:1357  token.transfer */\n      0xffffffffffffffffffffffffffffffffffffffff\n      and\n      0xa9059cbb\n        /* \"@openzeppelin/contracts/token/ERC20/utils/SafeERC20.sol\":1360:1362  to */\n      dup6\n        /* \"@openzeppelin/contracts/token/ERC20/utils/SafeERC20.sol\":1364:1369  value */\n      dup6\n        /* \"@openzeppelin/contracts/token/ERC20/utils/SafeERC20.sol\":1328:1371  abi.encodeCall(token.transfer, (to, value)) */\n      add(0x24, mload(0x40))\n      tag_184\n      swap3\n      swap2\n      swap1\n      tag_159\n      jump\t// in\n    tag_184:\n      mload(0x40)\n      0x20\n      dup2\n      dup4\n      sub\n      sub\n      dup2\n      mstore\n      swap1\n      0x40\n      mstore\n      swap2\n      pop\n      0xe0\n      shl\n      0x20\n      dup3\n      add\n      dup1\n      mload\n      0xffffffffffffffffffffffffffffffffffffffffffffffffffffffff\n      dup4\n      dup2\n      dup4\n      and\n      or\n      dup4\n      mstore\n      pop\n      pop\n      pop\n      pop\n        /* \"@openzeppelin/contracts/token/ERC20/utils/SafeERC20.sol\":1301:1320  _callOptionalReturn */\n      tag_185\n        /* \"@openzeppelin/contracts/token/ERC20/utils/SafeERC20.sol\":1301:1372  _callOptionalReturn(token, abi.encodeCall(token.transfer, (to, value))) */\n      jump\t// in\n    tag_183:\n        /* \"@openzeppelin/contracts/token/ERC20/utils/SafeERC20.sol\":1219:1379  function safeTransfer(IERC20 token, address to, uint256 value) internal {... */\n      pop\n      pop\n      pop\n      jump\t// out\n        /* \"@openzeppelin/contracts/security/ReentrancyGuard.sol\":2629:2838  function _nonReentrantAfter() private {... */\n    tag_126:\n        /* \"@openzeppelin/contracts/security/ReentrancyGuard.sol\":1716:1717  1 */\n      0x01\n        /* \"@openzeppelin/contracts/security/ReentrancyGuard.sol\":2809:2816  _status */\n      dup1\n        /* \"@openzeppelin/contracts/security/ReentrancyGuard.sol\":2809:2831  _status = _NOT_ENTERED */\n      dup2\n      swap1\n      sstore\n      pop\n        /* \"@openzeppelin/contracts/security/ReentrancyGuard.sol\":2629:2838  function _nonReentrantAfter() private {... */\n      jump\t// out\n        /* \"@openzeppelin/contracts/access/Ownable.sol\":1796:1958  function _checkOwner() internal view virtual {... */\n    tag_135:\n        /* \"@openzeppelin/contracts/access/Ownable.sol\":1866:1878  _msgSender() */\n      tag_188\n        /* \"@openzeppelin/contracts/access/Ownable.sol\":1866:1876  _msgSender */\n      tag_189\n        /* \"@openzeppelin/contracts/access/Ownable.sol\":1866:1878  _msgSender() */\n      jump\t// in\n    tag_188:\n        /* \"@openzeppelin/contracts/access/Ownable.sol\":1855:1878  owner() != _msgSender() */\n      0xffffffffffffffffffffffffffffffffffffffff\n      and\n        /* \"@openzeppelin/contracts/access/Ownable.sol\":1855:1862  owner() */\n      tag_190\n        /* \"@openzeppelin/contracts/access/Ownable.sol\":1855:1860  owner */\n      tag_50\n        /* \"@openzeppelin/contracts/access/Ownable.sol\":1855:1862  owner() */\n      jump\t// in\n    tag_190:\n        /* \"@openzeppelin/contracts/access/Ownable.sol\":1855:1878  owner() != _msgSender() */\n      0xffffffffffffffffffffffffffffffffffffffff\n      and\n      eq\n        /* \"@openzeppelin/contracts/access/Ownable.sol\":1851:1952  if (owner() != _msgSender()) {... */\n      tag_191\n      jumpi\n        /* \"@openzeppelin/contracts/access/Ownable.sol\":1928:1940  _msgSender() */\n      tag_192\n        /* \"@openzeppelin/contracts/access/Ownable.sol\":1928:1938  _msgSender */\n      tag_189\n        /* \"@openzeppelin/contracts/access/Ownable.sol\":1928:1940  _msgSender() */\n      jump\t// in\n    tag_192:\n        /* \"@openzeppelin/contracts/access/Ownable.sol\":1901:1941  OwnableUnauthorizedAccount(_msgSender()) */\n      mload(0x40)\n      0x118cdaa700000000000000000000000000000000000000000000000000000000\n      dup2\n      mstore\n      0x04\n      add\n      tag_193\n      swap2\n      swap1\n      tag_52\n      jump\t// in\n    tag_193:\n      mload(0x40)\n      dup1\n      swap2\n      sub\n      swap1\n      revert\n        /* \"@openzeppelin/contracts/access/Ownable.sol\":1851:1952  if (owner() != _msgSender()) {... */\n    tag_191:\n        /* \"@openzeppelin/contracts/access/Ownable.sol\":1796:1958  function _checkOwner() internal view virtual {... */\n      jump\t// out\n        /* \"@openzeppelin/contracts/access/Ownable.sol\":2912:3099  function _transferOwnership(address newOwner) internal virtual {... */\n    tag_138:\n        /* \"@openzeppelin/contracts/access/Ownable.sol\":2985:3001  address oldOwner */\n      0x00\n        /* \"@openzeppelin/contracts/access/Ownable.sol\":3004:3010  _owner */\n      dup1\n      0x00\n      swap1\n      sload\n      swap1\n      0x0100\n      exp\n      swap1\n      div\n      0xffffffffffffffffffffffffffffffffffffffff\n      and\n        /* \"@openzeppelin/contracts/access/Ownable.sol\":2985:3010  address oldOwner = _owner */\n      swap1\n      pop\n        /* \"@openzeppelin/contracts/access/Ownable.sol\":3029:3037  newOwner */\n      dup2\n        /* \"@openzeppelin/contracts/access/Ownable.sol\":3020:3026  _owner */\n      0x00\n      dup1\n        /* \"@openzeppelin/contracts/access/Ownable.sol\":3020:3037  _owner = newOwner */\n      0x0100\n      exp\n      dup2\n      sload\n      dup2\n      0xffffffffffffffffffffffffffffffffffffffff\n      mul\n      not\n      and\n      swap1\n      dup4\n      0xffffffffffffffffffffffffffffffffffffffff\n      and\n      mul\n      or\n      swap1\n      sstore\n      pop\n        /* \"@openzeppelin/contracts/access/Ownable.sol\":3083:3091  newOwner */\n      dup2\n        /* \"@openzeppelin/contracts/access/Ownable.sol\":3052:3092  OwnershipTransferred(oldOwner, newOwner) */\n      0xffffffffffffffffffffffffffffffffffffffff\n      and\n        /* \"@openzeppelin/contracts/access/Ownable.sol\":3073:3081  oldOwner */\n      dup2\n        /* \"@openzeppelin/contracts/access/Ownable.sol\":3052:3092  OwnershipTransferred(oldOwner, newOwner) */\n      0xffffffffffffffffffffffffffffffffffffffff\n      and\n      0x8be0079c531659141344cd1fd0a4f28419497f9722a3daafe3b4186f6b6457e0\n      mload(0x40)\n      mload(0x40)\n      dup1\n      swap2\n      sub\n      swap1\n      log3\n        /* \"@openzeppelin/contracts/access/Ownable.sol\":2975:3099  {... */\n      pop\n        /* \"@openzeppelin/contracts/access/Ownable.sol\":2912:3099  function _transferOwnership(address newOwner) internal virtual {... */\n      pop\n      jump\t// out\n        /* \"@openzeppelin/contracts/token/ERC20/utils/SafeERC20.sol\":1618:1806  function safeTransferFrom(IERC20 token, address from, address to, uint256 value) internal {... */\n    tag_157:\n        /* \"@openzeppelin/contracts/token/ERC20/utils/SafeERC20.sol\":1718:1799  _callOptionalReturn(token, abi.encodeCall(token.transferFrom, (from, to, value))) */\n      tag_196\n        /* \"@openzeppelin/contracts/token/ERC20/utils/SafeERC20.sol\":1738:1743  token */\n      dup5\n        /* \"@openzeppelin/contracts/token/ERC20/utils/SafeERC20.sol\":1760:1765  token */\n      dup6\n        /* \"@openzeppelin/contracts/token/ERC20/utils/SafeERC20.sol\":1760:1778  token.transferFrom */\n      0xffffffffffffffffffffffffffffffffffffffff\n      and\n      0x23b872dd\n        /* \"@openzeppelin/contracts/token/ERC20/utils/SafeERC20.sol\":1781:1785  from */\n      dup7\n        /* \"@openzeppelin/contracts/token/ERC20/utils/SafeERC20.sol\":1787:1789  to */\n      dup7\n        /* \"@openzeppelin/contracts/token/ERC20/utils/SafeERC20.sol\":1791:1796  value */\n      dup7\n        /* \"@openzeppelin/contracts/token/ERC20/utils/SafeERC20.sol\":1745:1798  abi.encodeCall(token.transferFrom, (from, to, value)) */\n      add(0x24, mload(0x40))\n      tag_197\n      swap4\n      swap3\n      swap2\n      swap1\n      tag_198\n      jump\t// in\n    tag_197:\n      mload(0x40)\n      0x20\n      dup2\n      dup4\n      sub\n      sub\n      dup2\n      mstore\n      swap1\n      0x40\n      mstore\n      swap2\n      pop\n      0xe0\n      shl\n      0x20\n      dup3\n      add\n      dup1\n      mload\n      0xffffffffffffffffffffffffffffffffffffffffffffffffffffffff\n      dup4\n      dup2\n      dup4\n      and\n      or\n      dup4\n      mstore\n      pop\n      pop\n      pop\n      pop\n        /* \"@openzeppelin/contracts/token/ERC20/utils/SafeERC20.sol\":1718:1737  _callOptionalReturn */\n      tag_185\n        /* \"@openzeppelin/contracts/token/ERC20/utils/SafeERC20.sol\":1718:1799  _callOptionalReturn(token, abi.encodeCall(token.transferFrom, (from, to, value))) */\n      jump\t// in\n    tag_196:\n        /* \"@openzeppelin/contracts/token/ERC20/utils/SafeERC20.sol\":1618:1806  function safeTransferFrom(IERC20 token, address from, address to, uint256 value) internal {... */\n      pop\n      pop\n      pop\n      pop\n      jump\t// out\n        /* \"@openzeppelin/contracts/token/ERC20/utils/SafeERC20.sol\":8370:9090  function _callOptionalReturn(IERC20 token, bytes memory data) private {... */\n    tag_185:\n        /* \"@openzeppelin/contracts/token/ERC20/utils/SafeERC20.sol\":8450:8468  uint256 returnSize */\n      0x00\n        /* \"@openzeppelin/contracts/token/ERC20/utils/SafeERC20.sol\":8478:8497  uint256 returnValue */\n      dup1\n        /* \"@openzeppelin/contracts/token/ERC20/utils/SafeERC20.sol\":8616:8620  0x20 */\n      0x20\n        /* \"@openzeppelin/contracts/token/ERC20/utils/SafeERC20.sol\":8613:8614  0 */\n      0x00\n        /* \"@openzeppelin/contracts/token/ERC20/utils/SafeERC20.sol\":8606:8610  data */\n      dup5\n        /* \"@openzeppelin/contracts/token/ERC20/utils/SafeERC20.sol\":8600:8611  mload(data) */\n      mload\n        /* \"@openzeppelin/contracts/token/ERC20/utils/SafeERC20.sol\":8593:8597  0x20 */\n      0x20\n        /* \"@openzeppelin/contracts/token/ERC20/utils/SafeERC20.sol\":8587:8591  data */\n      dup7\n        /* \"@openzeppelin/contracts/token/ERC20/utils/SafeERC20.sol\":8583:8598  add(data, 0x20) */\n      add\n        /* \"@openzeppelin/contracts/token/ERC20/utils/SafeERC20.sol\":8580:8581  0 */\n      0x00\n        /* \"@openzeppelin/contracts/token/ERC20/utils/SafeERC20.sol\":8573:8578  token */\n      dup9\n        /* \"@openzeppelin/contracts/token/ERC20/utils/SafeERC20.sol\":8566:8571  gas() */\n      gas\n        /* \"@openzeppelin/contracts/token/ERC20/utils/SafeERC20.sol\":8561:8621  call(gas(), token, 0, add(data, 0x20), mload(data), 0, 0x20) */\n      call\n        /* \"@openzeppelin/contracts/token/ERC20/utils/SafeERC20.sol\":8673:8680  success */\n      dup1\n        /* \"@openzeppelin/contracts/token/ERC20/utils/SafeERC20.sol\":8663:8839  if iszero(success) {... */\n      tag_200\n      jumpi\n        /* \"@openzeppelin/contracts/token/ERC20/utils/SafeERC20.sol\":8717:8721  0x40 */\n      0x40\n        /* \"@openzeppelin/contracts/token/ERC20/utils/SafeERC20.sol\":8711:8722  mload(0x40) */\n      mload\n        /* \"@openzeppelin/contracts/token/ERC20/utils/SafeERC20.sol\":8762:8778  returndatasize() */\n      returndatasize\n        /* \"@openzeppelin/contracts/token/ERC20/utils/SafeERC20.sol\":8759:8760  0 */\n      0x00\n        /* \"@openzeppelin/contracts/token/ERC20/utils/SafeERC20.sol\":8754:8757  ptr */\n      dup3\n        /* \"@openzeppelin/contracts/token/ERC20/utils/SafeERC20.sol\":8739:8779  returndatacopy(ptr, 0, returndatasize()) */\n      returndatacopy\n        /* \"@openzeppelin/contracts/token/ERC20/utils/SafeERC20.sol\":8808:8824  returndatasize() */\n      returndatasize\n        /* \"@openzeppelin/contracts/token/ERC20/utils/SafeERC20.sol\":8803:8806  ptr */\n      dup2\n        /* \"@openzeppelin/contracts/token/ERC20/utils/SafeERC20.sol\":8796:8825  revert(ptr, returndatasize()) */\n      revert\n        /* \"@openzeppelin/contracts/token/ERC20/utils/SafeERC20.sol\":8663:8839  if iszero(success) {... */\n    tag_200:\n        /* \"@openzeppelin/contracts/token/ERC20/utils/SafeERC20.sol\":8866:8882  returndatasize() */\n      returndatasize\n        /* \"@openzeppelin/contracts/token/ERC20/utils/SafeERC20.sol\":8852:8882  returnSize := returndatasize() */\n      swap3\n      pop\n        /* \"@openzeppelin/contracts/token/ERC20/utils/SafeERC20.sol\":8916:8917  0 */\n      0x00\n        /* \"@openzeppelin/contracts/token/ERC20/utils/SafeERC20.sol\":8910:8918  mload(0) */\n      mload\n        /* \"@openzeppelin/contracts/token/ERC20/utils/SafeERC20.sol\":8895:8918  returnValue := mload(0) */\n      swap2\n      pop\n        /* \"@openzeppelin/contracts/token/ERC20/utils/SafeERC20.sol\":8532:8928  {... */\n      pop\n        /* \"@openzeppelin/contracts/token/ERC20/utils/SafeERC20.sol\":8956:8957  0 */\n      0x00\n        /* \"@openzeppelin/contracts/token/ERC20/utils/SafeERC20.sol\":8942:8952  returnSize */\n      dup3\n        /* \"@openzeppelin/contracts/token/ERC20/utils/SafeERC20.sol\":8942:8957  returnSize == 0 */\n      eq\n        /* \"@openzeppelin/contracts/token/ERC20/utils/SafeERC20.sol\":8942:9010  returnSize == 0 ? address(token).code.length == 0 : returnValue != 1 */\n      tag_201\n      jumpi\n        /* \"@openzeppelin/contracts/token/ERC20/utils/SafeERC20.sol\":9009:9010  1 */\n      0x01\n        /* \"@openzeppelin/contracts/token/ERC20/utils/SafeERC20.sol\":8994:9005  returnValue */\n      dup2\n        /* \"@openzeppelin/contracts/token/ERC20/utils/SafeERC20.sol\":8994:9010  returnValue != 1 */\n      eq\n      iszero\n        /* \"@openzeppelin/contracts/token/ERC20/utils/SafeERC20.sol\":8942:9010  returnSize == 0 ? address(token).code.length == 0 : returnValue != 1 */\n      jump(tag_202)\n    tag_201:\n        /* \"@openzeppelin/contracts/token/ERC20/utils/SafeERC20.sol\":8990:8991  0 */\n      0x00\n        /* \"@openzeppelin/contracts/token/ERC20/utils/SafeERC20.sol\":8968:8973  token */\n      dup5\n        /* \"@openzeppelin/contracts/token/ERC20/utils/SafeERC20.sol\":8960:8986  address(token).code.length */\n      0xffffffffffffffffffffffffffffffffffffffff\n      and\n      extcodesize\n        /* \"@openzeppelin/contracts/token/ERC20/utils/SafeERC20.sol\":8960:8991  address(token).code.length == 0 */\n      eq\n        /* \"@openzeppelin/contracts/token/ERC20/utils/SafeERC20.sol\":8942:9010  returnSize == 0 ? address(token).code.length == 0 : returnValue != 1 */\n    tag_202:\n        /* \"@openzeppelin/contracts/token/ERC20/utils/SafeERC20.sol\":8938:9084  if (returnSize == 0 ? address(token).code.length == 0 : returnValue != 1) {... */\n      iszero\n      tag_203\n      jumpi\n        /* \"@openzeppelin/contracts/token/ERC20/utils/SafeERC20.sol\":9066:9071  token */\n      dup4\n        /* \"@openzeppelin/contracts/token/ERC20/utils/SafeERC20.sol\":9033:9073  SafeERC20FailedOperation(address(token)) */\n      mload(0x40)\n      0x5274afe700000000000000000000000000000000000000000000000000000000\n      dup2\n      mstore\n      0x04\n      add\n      tag_204\n      swap2\n      swap1\n      tag_52\n      jump\t// in\n    tag_204:\n      mload(0x40)\n      dup1\n      swap2\n      sub\n      swap1\n      revert\n        /* \"@openzeppelin/contracts/token/ERC20/utils/SafeERC20.sol\":8938:9084  if (returnSize == 0 ? address(token).code.length == 0 : returnValue != 1) {... */\n    tag_203:\n        /* \"@openzeppelin/contracts/token/ERC20/utils/SafeERC20.sol\":8440:9090  {... */\n      pop\n      pop\n        /* \"@openzeppelin/contracts/token/ERC20/utils/SafeERC20.sol\":8370:9090  function _callOptionalReturn(IERC20 token, bytes memory data) private {... */\n      pop\n      pop\n      jump\t// out\n        /* \"@openzeppelin/contracts/utils/Context.sol\":656:752  function _msgSender() internal view virtual returns (address) {... */\n    tag_189:\n        /* \"@openzeppelin/contracts/utils/Context.sol\":709:716  address */\n      0x00\n        /* \"@openzeppelin/contracts/utils/Context.sol\":735:745  msg.sender */\n      caller\n        /* \"@openzeppelin/contracts/utils/Context.sol\":728:745  return msg.sender */\n      swap1\n      pop\n        /* \"@openzeppelin/contracts/utils/Context.sol\":656:752  function _msgSender() internal view virtual returns (address) {... */\n      swap1\n      jump\t// out\n        /* \"#utility.yul\":7:84   */\n    tag_206:\n        /* \"#utility.yul\":44:51   */\n      0x00\n        /* \"#utility.yul\":73:78   */\n      dup2\n        /* \"#utility.yul\":62:78   */\n      swap1\n      pop\n        /* \"#utility.yul\":7:84   */\n      swap2\n      swap1\n      pop\n      jump\t// out\n        /* \"#utility.yul\":90:208   */\n    tag_207:\n        /* \"#utility.yul\":177:201   */\n      tag_243\n        /* \"#utility.yul\":195:200   */\n      dup2\n        /* \"#utility.yul\":177:201   */\n      tag_206\n      jump\t// in\n    tag_243:\n        /* \"#utility.yul\":172:175   */\n      dup3\n        /* \"#utility.yul\":165:202   */\n      mstore\n        /* \"#utility.yul\":90:208   */\n      pop\n      pop\n      jump\t// out\n        /* \"#utility.yul\":214:436   */\n    tag_25:\n        /* \"#utility.yul\":307:311   */\n      0x00\n        /* \"#utility.yul\":345:347   */\n      0x20\n        /* \"#utility.yul\":334:343   */\n      dup3\n        /* \"#utility.yul\":330:348   */\n      add\n        /* \"#utility.yul\":322:348   */\n      swap1\n      pop\n        /* \"#utility.yul\":358:429   */\n      tag_245\n        /* \"#utility.yul\":426:427   */\n      0x00\n        /* \"#utility.yul\":415:424   */\n      dup4\n        /* \"#utility.yul\":411:428   */\n      add\n        /* \"#utility.yul\":402:408   */\n      dup5\n        /* \"#utility.yul\":358:429   */\n      tag_207\n      jump\t// in\n    tag_245:\n        /* \"#utility.yul\":214:436   */\n      swap3\n      swap2\n      pop\n      pop\n      jump\t// out\n        /* \"#utility.yul\":523:640   */\n    tag_209:\n        /* \"#utility.yul\":632:633   */\n      0x00\n        /* \"#utility.yul\":629:630   */\n      dup1\n        /* \"#utility.yul\":622:634   */\n      revert\n        /* \"#utility.yul\":769:895   */\n    tag_211:\n        /* \"#utility.yul\":806:813   */\n      0x00\n        /* \"#utility.yul\":846:888   */\n      0xffffffffffffffffffffffffffffffffffffffff\n        /* \"#utility.yul\":839:844   */\n      dup3\n        /* \"#utility.yul\":835:889   */\n      and\n        /* \"#utility.yul\":824:889   */\n      swap1\n      pop\n        /* \"#utility.yul\":769:895   */\n      swap2\n      swap1\n      pop\n      jump\t// out\n        /* \"#utility.yul\":901:997   */\n    tag_212:\n        /* \"#utility.yul\":938:945   */\n      0x00\n        /* \"#utility.yul\":967:991   */\n      tag_251\n        /* \"#utility.yul\":985:990   */\n      dup3\n        /* \"#utility.yul\":967:991   */\n      tag_211\n      jump\t// in\n    tag_251:\n        /* \"#utility.yul\":956:991   */\n      swap1\n      pop\n        /* \"#utility.yul\":901:997   */\n      swap2\n      swap1\n      pop\n      jump\t// out\n        /* \"#utility.yul\":1003:1125   */\n    tag_213:\n        /* \"#utility.yul\":1076:1100   */\n      tag_253\n        /* \"#utility.yul\":1094:1099   */\n      dup2\n        /* \"#utility.yul\":1076:1100   */\n      tag_212\n      jump\t// in\n    tag_253:\n        /* \"#utility.yul\":1069:1074   */\n      dup2\n        /* \"#utility.yul\":1066:1101   */\n      eq\n        /* \"#utility.yul\":1056:1119   */\n      tag_254\n      jumpi\n        /* \"#utility.yul\":1115:1116   */\n      0x00\n        /* \"#utility.yul\":1112:1113   */\n      dup1\n        /* \"#utility.yul\":1105:1117   */\n      revert\n        /* \"#utility.yul\":1056:1119   */\n    tag_254:\n        /* \"#utility.yul\":1003:1125   */\n      pop\n      jump\t// out\n        /* \"#utility.yul\":1131:1270   */\n    tag_214:\n        /* \"#utility.yul\":1177:1182   */\n      0x00\n        /* \"#utility.yul\":1215:1221   */\n      dup2\n        /* \"#utility.yul\":1202:1222   */\n      calldataload\n        /* \"#utility.yul\":1193:1222   */\n      swap1\n      pop\n        /* \"#utility.yul\":1231:1264   */\n      tag_256\n        /* \"#utility.yul\":1258:1263   */\n      dup2\n        /* \"#utility.yul\":1231:1264   */\n      tag_213\n      jump\t// in\n    tag_256:\n        /* \"#utility.yul\":1131:1270   */\n      swap3\n      swap2\n      pop\n      pop\n      jump\t// out\n        /* \"#utility.yul\":1276:1605   */\n    tag_33:\n        /* \"#utility.yul\":1335:1341   */\n      0x00\n        /* \"#utility.yul\":1384:1386   */\n      0x20\n        /* \"#utility.yul\":1372:1381   */\n      dup3\n        /* \"#utility.yul\":1363:1370   */\n      dup5\n        /* \"#utility.yul\":1359:1382   */\n      sub\n        /* \"#utility.yul\":1355:1387   */\n      slt\n        /* \"#utility.yul\":1352:1471   */\n      iszero\n      tag_258\n      jumpi\n        /* \"#utility.yul\":1390:1469   */\n      tag_259\n      tag_209\n      jump\t// in\n    tag_259:\n        /* \"#utility.yul\":1352:1471   */\n    tag_258:\n        /* \"#utility.yul\":1510:1511   */\n      0x00\n        /* \"#utility.yul\":1535:1588   */\n      tag_260\n        /* \"#utility.yul\":1580:1587   */\n      dup5\n        /* \"#utility.yul\":1571:1577   */\n      dup3\n        /* \"#utility.yul\":1560:1569   */\n      dup6\n        /* \"#utility.yul\":1556:1578   */\n      add\n        /* \"#utility.yul\":1535:1588   */\n      tag_214\n      jump\t// in\n    tag_260:\n        /* \"#utility.yul\":1525:1588   */\n      swap2\n      pop\n        /* \"#utility.yul\":1481:1598   */\n      pop\n        /* \"#utility.yul\":1276:1605   */\n      swap3\n      swap2\n      pop\n      pop\n      jump\t// out\n        /* \"#utility.yul\":1611:1671   */\n    tag_215:\n        /* \"#utility.yul\":1639:1642   */\n      0x00\n        /* \"#utility.yul\":1660:1665   */\n      dup2\n        /* \"#utility.yul\":1653:1665   */\n      swap1\n      pop\n        /* \"#utility.yul\":1611:1671   */\n      swap2\n      swap1\n      pop\n      jump\t// out\n        /* \"#utility.yul\":1677:1819   */\n    tag_216:\n        /* \"#utility.yul\":1727:1736   */\n      0x00\n        /* \"#utility.yul\":1760:1813   */\n      tag_263\n        /* \"#utility.yul\":1778:1812   */\n      tag_264\n        /* \"#utility.yul\":1787:1811   */\n      tag_265\n        /* \"#utility.yul\":1805:1810   */\n      dup5\n        /* \"#utility.yul\":1787:1811   */\n      tag_211\n      jump\t// in\n    tag_265:\n        /* \"#utility.yul\":1778:1812   */\n      tag_215\n      jump\t// in\n    tag_264:\n        /* \"#utility.yul\":1760:1813   */\n      tag_211\n      jump\t// in\n    tag_263:\n        /* \"#utility.yul\":1747:1813   */\n      swap1\n      pop\n        /* \"#utility.yul\":1677:1819   */\n      swap2\n      swap1\n      pop\n      jump\t// out\n        /* \"#utility.yul\":1825:1951   */\n    tag_217:\n        /* \"#utility.yul\":1875:1884   */\n      0x00\n        /* \"#utility.yul\":1908:1945   */\n      tag_267\n        /* \"#utility.yul\":1939:1944   */\n      dup3\n        /* \"#utility.yul\":1908:1945   */\n      tag_216\n      jump\t// in\n    tag_267:\n        /* \"#utility.yul\":1895:1945   */\n      swap1\n      pop\n        /* \"#utility.yul\":1825:1951   */\n      swap2\n      swap1\n      pop\n      jump\t// out\n        /* \"#utility.yul\":1957:2097   */\n    tag_218:\n        /* \"#utility.yul\":2021:2030   */\n      0x00\n        /* \"#utility.yul\":2054:2091   */\n      tag_269\n        /* \"#utility.yul\":2085:2090   */\n      dup3\n        /* \"#utility.yul\":2054:2091   */\n      tag_217\n      jump\t// in\n    tag_269:\n        /* \"#utility.yul\":2041:2091   */\n      swap1\n      pop\n        /* \"#utility.yul\":1957:2097   */\n      swap2\n      swap1\n      pop\n      jump\t// out\n        /* \"#utility.yul\":2103:2262   */\n    tag_219:\n        /* \"#utility.yul\":2204:2255   */\n      tag_271\n        /* \"#utility.yul\":2249:2254   */\n      dup2\n        /* \"#utility.yul\":2204:2255   */\n      tag_218\n      jump\t// in\n    tag_271:\n        /* \"#utility.yul\":2199:2202   */\n      dup3\n        /* \"#utility.yul\":2192:2256   */\n      mstore\n        /* \"#utility.yul\":2103:2262   */\n      pop\n      pop\n      jump\t// out\n        /* \"#utility.yul\":2268:2518   */\n    tag_48:\n        /* \"#utility.yul\":2375:2379   */\n      0x00\n        /* \"#utility.yul\":2413:2415   */\n      0x20\n        /* \"#utility.yul\":2402:2411   */\n      dup3\n        /* \"#utility.yul\":2398:2416   */\n      add\n        /* \"#utility.yul\":2390:2416   */\n      swap1\n      pop\n        /* \"#utility.yul\":2426:2511   */\n      tag_273\n        /* \"#utility.yul\":2508:2509   */\n      0x00\n        /* \"#utility.yul\":2497:2506   */\n      dup4\n        /* \"#utility.yul\":2493:2510   */\n      add\n        /* \"#utility.yul\":2484:2490   */\n      dup5\n        /* \"#utility.yul\":2426:2511   */\n      tag_219\n      jump\t// in\n    tag_273:\n        /* \"#utility.yul\":2268:2518   */\n      swap3\n      swap2\n      pop\n      pop\n      jump\t// out\n        /* \"#utility.yul\":2524:2642   */\n    tag_220:\n        /* \"#utility.yul\":2611:2635   */\n      tag_275\n        /* \"#utility.yul\":2629:2634   */\n      dup2\n        /* \"#utility.yul\":2611:2635   */\n      tag_212\n      jump\t// in\n    tag_275:\n        /* \"#utility.yul\":2606:2609   */\n      dup3\n        /* \"#utility.yul\":2599:2636   */\n      mstore\n        /* \"#utility.yul\":2524:2642   */\n      pop\n      pop\n      jump\t// out\n        /* \"#utility.yul\":2648:2870   */\n    tag_52:\n        /* \"#utility.yul\":2741:2745   */\n      0x00\n        /* \"#utility.yul\":2779:2781   */\n      0x20\n        /* \"#utility.yul\":2768:2777   */\n      dup3\n        /* \"#utility.yul\":2764:2782   */\n      add\n        /* \"#utility.yul\":2756:2782   */\n      swap1\n      pop\n        /* \"#utility.yul\":2792:2863   */\n      tag_277\n        /* \"#utility.yul\":2860:2861   */\n      0x00\n        /* \"#utility.yul\":2849:2858   */\n      dup4\n        /* \"#utility.yul\":2845:2862   */\n      add\n        /* \"#utility.yul\":2836:2842   */\n      dup5\n        /* \"#utility.yul\":2792:2863   */\n      tag_220\n      jump\t// in\n    tag_277:\n        /* \"#utility.yul\":2648:2870   */\n      swap3\n      swap2\n      pop\n      pop\n      jump\t// out\n        /* \"#utility.yul\":2876:3540   */\n    tag_57:\n        /* \"#utility.yul\":3081:3085   */\n      0x00\n        /* \"#utility.yul\":3119:3122   */\n      0xa0\n        /* \"#utility.yul\":3108:3117   */\n      dup3\n        /* \"#utility.yul\":3104:3123   */\n      add\n        /* \"#utility.yul\":3096:3123   */\n      swap1\n      pop\n        /* \"#utility.yul\":3133:3204   */\n      tag_279\n        /* \"#utility.yul\":3201:3202   */\n      0x00\n        /* \"#utility.yul\":3190:3199   */\n      dup4\n        /* \"#utility.yul\":3186:3203   */\n      add\n        /* \"#utility.yul\":3177:3183   */\n      dup9\n        /* \"#utility.yul\":3133:3204   */\n      tag_207\n      jump\t// in\n    tag_279:\n        /* \"#utility.yul\":3214:3286   */\n      tag_280\n        /* \"#utility.yul\":3282:3284   */\n      0x20\n        /* \"#utility.yul\":3271:3280   */\n      dup4\n        /* \"#utility.yul\":3267:3285   */\n      add\n        /* \"#utility.yul\":3258:3264   */\n      dup8\n        /* \"#utility.yul\":3214:3286   */\n      tag_207\n      jump\t// in\n    tag_280:\n        /* \"#utility.yul\":3296:3368   */\n      tag_281\n        /* \"#utility.yul\":3364:3366   */\n      0x40\n        /* \"#utility.yul\":3353:3362   */\n      dup4\n        /* \"#utility.yul\":3349:3367   */\n      add\n        /* \"#utility.yul\":3340:3346   */\n      dup7\n        /* \"#utility.yul\":3296:3368   */\n      tag_220\n      jump\t// in\n    tag_281:\n        /* \"#utility.yul\":3378:3450   */\n      tag_282\n        /* \"#utility.yul\":3446:3448   */\n      0x60\n        /* \"#utility.yul\":3435:3444   */\n      dup4\n        /* \"#utility.yul\":3431:3449   */\n      add\n        /* \"#utility.yul\":3422:3428   */\n      dup6\n        /* \"#utility.yul\":3378:3450   */\n      tag_207\n      jump\t// in\n    tag_282:\n        /* \"#utility.yul\":3460:3533   */\n      tag_283\n        /* \"#utility.yul\":3528:3531   */\n      0x80\n        /* \"#utility.yul\":3517:3526   */\n      dup4\n        /* \"#utility.yul\":3513:3532   */\n      add\n        /* \"#utility.yul\":3504:3510   */\n      dup5\n        /* \"#utility.yul\":3460:3533   */\n      tag_207\n      jump\t// in\n    tag_283:\n        /* \"#utility.yul\":2876:3540   */\n      swap7\n      swap6\n      pop\n      pop\n      pop\n      pop\n      pop\n      pop\n      jump\t// out\n        /* \"#utility.yul\":3546:3668   */\n    tag_221:\n        /* \"#utility.yul\":3619:3643   */\n      tag_285\n        /* \"#utility.yul\":3637:3642   */\n      dup2\n        /* \"#utility.yul\":3619:3643   */\n      tag_206\n      jump\t// in\n    tag_285:\n        /* \"#utility.yul\":3612:3617   */\n      dup2\n        /* \"#utility.yul\":3609:3644   */\n      eq\n        /* \"#utility.yul\":3599:3662   */\n      tag_286\n      jumpi\n        /* \"#utility.yul\":3658:3659   */\n      0x00\n        /* \"#utility.yul\":3655:3656   */\n      dup1\n        /* \"#utility.yul\":3648:3660   */\n      revert\n        /* \"#utility.yul\":3599:3662   */\n    tag_286:\n        /* \"#utility.yul\":3546:3668   */\n      pop\n      jump\t// out\n        /* \"#utility.yul\":3674:3813   */\n    tag_222:\n        /* \"#utility.yul\":3720:3725   */\n      0x00\n        /* \"#utility.yul\":3758:3764   */\n      dup2\n        /* \"#utility.yul\":3745:3765   */\n      calldataload\n        /* \"#utility.yul\":3736:3765   */\n      swap1\n      pop\n        /* \"#utility.yul\":3774:3807   */\n      tag_288\n        /* \"#utility.yul\":3801:3806   */\n      dup2\n        /* \"#utility.yul\":3774:3807   */\n      tag_221\n      jump\t// in\n    tag_288:\n        /* \"#utility.yul\":3674:3813   */\n      swap3\n      swap2\n      pop\n      pop\n      jump\t// out\n        /* \"#utility.yul\":3819:4293   */\n    tag_65:\n        /* \"#utility.yul\":3887:3893   */\n      0x00\n        /* \"#utility.yul\":3895:3901   */\n      dup1\n        /* \"#utility.yul\":3944:3946   */\n      0x40\n        /* \"#utility.yul\":3932:3941   */\n      dup4\n        /* \"#utility.yul\":3923:3930   */\n      dup6\n        /* \"#utility.yul\":3919:3942   */\n      sub\n        /* \"#utility.yul\":3915:3947   */\n      slt\n        /* \"#utility.yul\":3912:4031   */\n      iszero\n      tag_290\n      jumpi\n        /* \"#utility.yul\":3950:4029   */\n      tag_291\n      tag_209\n      jump\t// in\n    tag_291:\n        /* \"#utility.yul\":3912:4031   */\n    tag_290:\n        /* \"#utility.yul\":4070:4071   */\n      0x00\n        /* \"#utility.yul\":4095:4148   */\n      tag_292\n        /* \"#utility.yul\":4140:4147   */\n      dup6\n        /* \"#utility.yul\":4131:4137   */\n      dup3\n        /* \"#utility.yul\":4120:4129   */\n      dup7\n        /* \"#utility.yul\":4116:4138   */\n      add\n        /* \"#utility.yul\":4095:4148   */\n      tag_222\n      jump\t// in\n    tag_292:\n        /* \"#utility.yul\":4085:4148   */\n      swap3\n      pop\n        /* \"#utility.yul\":4041:4158   */\n      pop\n        /* \"#utility.yul\":4197:4199   */\n      0x20\n        /* \"#utility.yul\":4223:4276   */\n      tag_293\n        /* \"#utility.yul\":4268:4275   */\n      dup6\n        /* \"#utility.yul\":4259:4265   */\n      dup3\n        /* \"#utility.yul\":4248:4257   */\n      dup7\n        /* \"#utility.yul\":4244:4266   */\n      add\n        /* \"#utility.yul\":4223:4276   */\n      tag_214\n      jump\t// in\n    tag_293:\n        /* \"#utility.yul\":4213:4276   */\n      swap2\n      pop\n        /* \"#utility.yul\":4168:4286   */\n      pop\n        /* \"#utility.yul\":3819:4293   */\n      swap3\n      pop\n      swap3\n      swap1\n      pop\n      jump\t// out\n        /* \"#utility.yul\":4299:4445   */\n    tag_223:\n        /* \"#utility.yul\":4369:4378   */\n      0x00\n        /* \"#utility.yul\":4402:4439   */\n      tag_295\n        /* \"#utility.yul\":4433:4438   */\n      dup3\n        /* \"#utility.yul\":4402:4439   */\n      tag_217\n      jump\t// in\n    tag_295:\n        /* \"#utility.yul\":4389:4439   */\n      swap1\n      pop\n        /* \"#utility.yul\":4299:4445   */\n      swap2\n      swap1\n      pop\n      jump\t// out\n        /* \"#utility.yul\":4451:4622   */\n    tag_224:\n        /* \"#utility.yul\":4558:4615   */\n      tag_297\n        /* \"#utility.yul\":4609:4614   */\n      dup2\n        /* \"#utility.yul\":4558:4615   */\n      tag_223\n      jump\t// in\n    tag_297:\n        /* \"#utility.yul\":4553:4556   */\n      dup3\n        /* \"#utility.yul\":4546:4616   */\n      mstore\n        /* \"#utility.yul\":4451:4622   */\n      pop\n      pop\n      jump\t// out\n        /* \"#utility.yul\":4628:4890   */\n    tag_76:\n        /* \"#utility.yul\":4741:4745   */\n      0x00\n        /* \"#utility.yul\":4779:4781   */\n      0x20\n        /* \"#utility.yul\":4768:4777   */\n      dup3\n        /* \"#utility.yul\":4764:4782   */\n      add\n        /* \"#utility.yul\":4756:4782   */\n      swap1\n      pop\n        /* \"#utility.yul\":4792:4883   */\n      tag_299\n        /* \"#utility.yul\":4880:4881   */\n      0x00\n        /* \"#utility.yul\":4869:4878   */\n      dup4\n        /* \"#utility.yul\":4865:4882   */\n      add\n        /* \"#utility.yul\":4856:4862   */\n      dup5\n        /* \"#utility.yul\":4792:4883   */\n      tag_224\n      jump\t// in\n    tag_299:\n        /* \"#utility.yul\":4628:4890   */\n      swap3\n      swap2\n      pop\n      pop\n      jump\t// out\n        /* \"#utility.yul\":4896:5065   */\n    tag_225:\n        /* \"#utility.yul\":4980:4991   */\n      0x00\n        /* \"#utility.yul\":5014:5020   */\n      dup3\n        /* \"#utility.yul\":5009:5012   */\n      dup3\n        /* \"#utility.yul\":5002:5021   */\n      mstore\n        /* \"#utility.yul\":5054:5058   */\n      0x20\n        /* \"#utility.yul\":5049:5052   */\n      dup3\n        /* \"#utility.yul\":5045:5059   */\n      add\n        /* \"#utility.yul\":5030:5059   */\n      swap1\n      pop\n        /* \"#utility.yul\":4896:5065   */\n      swap3\n      swap2\n      pop\n      pop\n      jump\t// out\n        /* \"#utility.yul\":5071:5231   */\n    tag_226:\n        /* \"#utility.yul\":5211:5223   */\n      0x4e6f2062616c616e636500000000000000000000000000000000000000000000\n        /* \"#utility.yul\":5207:5208   */\n      0x00\n        /* \"#utility.yul\":5199:5205   */\n      dup3\n        /* \"#utility.yul\":5195:5209   */\n      add\n        /* \"#utility.yul\":5188:5224   */\n      mstore\n        /* \"#utility.yul\":5071:5231   */\n      pop\n      jump\t// out\n        /* \"#utility.yul\":5237:5603   */\n    tag_227:\n        /* \"#utility.yul\":5379:5382   */\n      0x00\n        /* \"#utility.yul\":5400:5467   */\n      tag_303\n        /* \"#utility.yul\":5464:5466   */\n      0x0a\n        /* \"#utility.yul\":5459:5462   */\n      dup4\n        /* \"#utility.yul\":5400:5467   */\n      tag_225\n      jump\t// in\n    tag_303:\n        /* \"#utility.yul\":5393:5467   */\n      swap2\n      pop\n        /* \"#utility.yul\":5476:5569   */\n      tag_304\n        /* \"#utility.yul\":5565:5568   */\n      dup3\n        /* \"#utility.yul\":5476:5569   */\n      tag_226\n      jump\t// in\n    tag_304:\n        /* \"#utility.yul\":5594:5596   */\n      0x20\n        /* \"#utility.yul\":5589:5592   */\n      dup3\n        /* \"#utility.yul\":5585:5597   */\n      add\n        /* \"#utility.yul\":5578:5597   */\n      swap1\n      pop\n        /* \"#utility.yul\":5237:5603   */\n      swap2\n      swap1\n      pop\n      jump\t// out\n        /* \"#utility.yul\":5609:6028   */\n    tag_83:\n        /* \"#utility.yul\":5775:5779   */\n      0x00\n        /* \"#utility.yul\":5813:5815   */\n      0x20\n        /* \"#utility.yul\":5802:5811   */\n      dup3\n        /* \"#utility.yul\":5798:5816   */\n      add\n        /* \"#utility.yul\":5790:5816   */\n      swap1\n      pop\n        /* \"#utility.yul\":5862:5871   */\n      dup2\n        /* \"#utility.yul\":5856:5860   */\n      dup2\n        /* \"#utility.yul\":5852:5872   */\n      sub\n        /* \"#utility.yul\":5848:5849   */\n      0x00\n        /* \"#utility.yul\":5837:5846   */\n      dup4\n        /* \"#utility.yul\":5833:5850   */\n      add\n        /* \"#utility.yul\":5826:5873   */\n      mstore\n        /* \"#utility.yul\":5890:6021   */\n      tag_306\n        /* \"#utility.yul\":6016:6020   */\n      dup2\n        /* \"#utility.yul\":5890:6021   */\n      tag_227\n      jump\t// in\n    tag_306:\n        /* \"#utility.yul\":5882:6021   */\n      swap1\n      pop\n        /* \"#utility.yul\":5609:6028   */\n      swap2\n      swap1\n      pop\n      jump\t// out\n        /* \"#utility.yul\":6034:6476   */\n    tag_85:\n        /* \"#utility.yul\":6183:6187   */\n      0x00\n        /* \"#utility.yul\":6221:6223   */\n      0x60\n        /* \"#utility.yul\":6210:6219   */\n      dup3\n        /* \"#utility.yul\":6206:6224   */\n      add\n        /* \"#utility.yul\":6198:6224   */\n      swap1\n      pop\n        /* \"#utility.yul\":6234:6305   */\n      tag_308\n        /* \"#utility.yul\":6302:6303   */\n      0x00\n        /* \"#utility.yul\":6291:6300   */\n      dup4\n        /* \"#utility.yul\":6287:6304   */\n      add\n        /* \"#utility.yul\":6278:6284   */\n      dup7\n        /* \"#utility.yul\":6234:6305   */\n      tag_207\n      jump\t// in\n    tag_308:\n        /* \"#utility.yul\":6315:6387   */\n      tag_309\n        /* \"#utility.yul\":6383:6385   */\n      0x20\n        /* \"#utility.yul\":6372:6381   */\n      dup4\n        /* \"#utility.yul\":6368:6386   */\n      add\n        /* \"#utility.yul\":6359:6365   */\n      dup6\n        /* \"#utility.yul\":6315:6387   */\n      tag_220\n      jump\t// in\n    tag_309:\n        /* \"#utility.yul\":6397:6469   */\n      tag_310\n        /* \"#utility.yul\":6465:6467   */\n      0x40\n        /* \"#utility.yul\":6454:6463   */\n      dup4\n        /* \"#utility.yul\":6450:6468   */\n      add\n        /* \"#utility.yul\":6441:6447   */\n      dup5\n        /* \"#utility.yul\":6397:6469   */\n      tag_220\n      jump\t// in\n    tag_310:\n        /* \"#utility.yul\":6034:6476   */\n      swap5\n      swap4\n      pop\n      pop\n      pop\n      pop\n      jump\t// out\n        /* \"#utility.yul\":6482:6625   */\n    tag_228:\n        /* \"#utility.yul\":6539:6544   */\n      0x00\n        /* \"#utility.yul\":6570:6576   */\n      dup2\n        /* \"#utility.yul\":6564:6577   */\n      mload\n        /* \"#utility.yul\":6555:6577   */\n      swap1\n      pop\n        /* \"#utility.yul\":6586:6619   */\n      tag_312\n        /* \"#utility.yul\":6613:6618   */\n      dup2\n        /* \"#utility.yul\":6586:6619   */\n      tag_221\n      jump\t// in\n    tag_312:\n        /* \"#utility.yul\":6482:6625   */\n      swap3\n      swap2\n      pop\n      pop\n      jump\t// out\n        /* \"#utility.yul\":6631:6982   */\n    tag_89:\n        /* \"#utility.yul\":6701:6707   */\n      0x00\n        /* \"#utility.yul\":6750:6752   */\n      0x20\n        /* \"#utility.yul\":6738:6747   */\n      dup3\n        /* \"#utility.yul\":6729:6736   */\n      dup5\n        /* \"#utility.yul\":6725:6748   */\n      sub\n        /* \"#utility.yul\":6721:6753   */\n      slt\n        /* \"#utility.yul\":6718:6837   */\n      iszero\n      tag_314\n      jumpi\n        /* \"#utility.yul\":6756:6835   */\n      tag_315\n      tag_209\n      jump\t// in\n    tag_315:\n        /* \"#utility.yul\":6718:6837   */\n    tag_314:\n        /* \"#utility.yul\":6876:6877   */\n      0x00\n        /* \"#utility.yul\":6901:6965   */\n      tag_316\n        /* \"#utility.yul\":6957:6964   */\n      dup5\n        /* \"#utility.yul\":6948:6954   */\n      dup3\n        /* \"#utility.yul\":6937:6946   */\n      dup6\n        /* \"#utility.yul\":6933:6955   */\n      add\n        /* \"#utility.yul\":6901:6965   */\n      tag_228\n      jump\t// in\n    tag_316:\n        /* \"#utility.yul\":6891:6965   */\n      swap2\n      pop\n        /* \"#utility.yul\":6847:6975   */\n      pop\n        /* \"#utility.yul\":6631:6982   */\n      swap3\n      swap2\n      pop\n      pop\n      jump\t// out\n        /* \"#utility.yul\":6988:7168   */\n    tag_229:\n        /* \"#utility.yul\":7036:7113   */\n      0x4e487b7100000000000000000000000000000000000000000000000000000000\n        /* \"#utility.yul\":7033:7034   */\n      0x00\n        /* \"#utility.yul\":7026:7114   */\n      mstore\n        /* \"#utility.yul\":7133:7137   */\n      0x11\n        /* \"#utility.yul\":7130:7131   */\n      0x04\n        /* \"#utility.yul\":7123:7138   */\n      mstore\n        /* \"#utility.yul\":7157:7161   */\n      0x24\n        /* \"#utility.yul\":7154:7155   */\n      0x00\n        /* \"#utility.yul\":7147:7162   */\n      revert\n        /* \"#utility.yul\":7174:7365   */\n    tag_95:\n        /* \"#utility.yul\":7214:7217   */\n      0x00\n        /* \"#utility.yul\":7233:7253   */\n      tag_319\n        /* \"#utility.yul\":7251:7252   */\n      dup3\n        /* \"#utility.yul\":7233:7253   */\n      tag_206\n      jump\t// in\n    tag_319:\n        /* \"#utility.yul\":7228:7253   */\n      swap2\n      pop\n        /* \"#utility.yul\":7267:7287   */\n      tag_320\n        /* \"#utility.yul\":7285:7286   */\n      dup4\n        /* \"#utility.yul\":7267:7287   */\n      tag_206\n      jump\t// in\n    tag_320:\n        /* \"#utility.yul\":7262:7287   */\n      swap3\n      pop\n        /* \"#utility.yul\":7310:7311   */\n      dup3\n        /* \"#utility.yul\":7307:7308   */\n      dup3\n        /* \"#utility.yul\":7303:7312   */\n      add\n        /* \"#utility.yul\":7296:7312   */\n      swap1\n      pop\n        /* \"#utility.yul\":7331:7334   */\n      dup1\n        /* \"#utility.yul\":7328:7329   */\n      dup3\n        /* \"#utility.yul\":7325:7335   */\n      gt\n        /* \"#utility.yul\":7322:7358   */\n      iszero\n      tag_321\n      jumpi\n        /* \"#utility.yul\":7338:7356   */\n      tag_322\n      tag_229\n      jump\t// in\n    tag_322:\n        /* \"#utility.yul\":7322:7358   */\n    tag_321:\n        /* \"#utility.yul\":7174:7365   */\n      swap3\n      swap2\n      pop\n      pop\n      jump\t// out\n        /* \"#utility.yul\":7371:7781   */\n    tag_98:\n        /* \"#utility.yul\":7411:7418   */\n      0x00\n        /* \"#utility.yul\":7434:7454   */\n      tag_324\n        /* \"#utility.yul\":7452:7453   */\n      dup3\n        /* \"#utility.yul\":7434:7454   */\n      tag_206\n      jump\t// in\n    tag_324:\n        /* \"#utility.yul\":7429:7454   */\n      swap2\n      pop\n        /* \"#utility.yul\":7468:7488   */\n      tag_325\n        /* \"#utility.yul\":7486:7487   */\n      dup4\n        /* \"#utility.yul\":7468:7488   */\n      tag_206\n      jump\t// in\n    tag_325:\n        /* \"#utility.yul\":7463:7488   */\n      swap3\n      pop\n        /* \"#utility.yul\":7523:7524   */\n      dup3\n        /* \"#utility.yul\":7520:7521   */\n      dup3\n        /* \"#utility.yul\":7516:7525   */\n      mul\n        /* \"#utility.yul\":7545:7575   */\n      tag_326\n        /* \"#utility.yul\":7563:7574   */\n      dup2\n        /* \"#utility.yul\":7545:7575   */\n      tag_206\n      jump\t// in\n    tag_326:\n        /* \"#utility.yul\":7534:7575   */\n      swap2\n      pop\n        /* \"#utility.yul\":7724:7725   */\n      dup3\n        /* \"#utility.yul\":7715:7722   */\n      dup3\n        /* \"#utility.yul\":7711:7726   */\n      div\n        /* \"#utility.yul\":7708:7709   */\n      dup5\n        /* \"#utility.yul\":7705:7727   */\n      eq\n        /* \"#utility.yul\":7685:7686   */\n      dup4\n        /* \"#utility.yul\":7678:7687   */\n      iszero\n        /* \"#utility.yul\":7658:7741   */\n      or\n        /* \"#utility.yul\":7635:7774   */\n      tag_327\n      jumpi\n        /* \"#utility.yul\":7754:7772   */\n      tag_328\n      tag_229\n      jump\t// in\n    tag_328:\n        /* \"#utility.yul\":7635:7774   */\n    tag_327:\n        /* \"#utility.yul\":7419:7781   */\n      pop\n        /* \"#utility.yul\":7371:7781   */\n      swap3\n      swap2\n      pop\n      pop\n      jump\t// out\n        /* \"#utility.yul\":7787:7967   */\n    tag_230:\n        /* \"#utility.yul\":7835:7912   */\n      0x4e487b7100000000000000000000000000000000000000000000000000000000\n        /* \"#utility.yul\":7832:7833   */\n      0x00\n        /* \"#utility.yul\":7825:7913   */\n      mstore\n        /* \"#utility.yul\":7932:7936   */\n      0x12\n        /* \"#utility.yul\":7929:7930   */\n      0x04\n        /* \"#utility.yul\":7922:7937   */\n      mstore\n        /* \"#utility.yul\":7956:7960   */\n      0x24\n        /* \"#utility.yul\":7953:7954   */\n      0x00\n        /* \"#utility.yul\":7946:7961   */\n      revert\n        /* \"#utility.yul\":7973:8158   */\n    tag_100:\n        /* \"#utility.yul\":8013:8014   */\n      0x00\n        /* \"#utility.yul\":8030:8050   */\n      tag_331\n        /* \"#utility.yul\":8048:8049   */\n      dup3\n        /* \"#utility.yul\":8030:8050   */\n      tag_206\n      jump\t// in\n    tag_331:\n        /* \"#utility.yul\":8025:8050   */\n      swap2\n      pop\n        /* \"#utility.yul\":8064:8084   */\n      tag_332\n        /* \"#utility.yul\":8082:8083   */\n      dup4\n        /* \"#utility.yul\":8064:8084   */\n      tag_206\n      jump\t// in\n    tag_332:\n        /* \"#utility.yul\":8059:8084   */\n      swap3\n      pop\n        /* \"#utility.yul\":8103:8104   */\n      dup3\n        /* \"#utility.yul\":8093:8128   */\n      tag_333\n      jumpi\n        /* \"#utility.yul\":8108:8126   */\n      tag_334\n      tag_230\n      jump\t// in\n    tag_334:\n        /* \"#utility.yul\":8093:8128   */\n    tag_333:\n        /* \"#utility.yul\":8150:8151   */\n      dup3\n        /* \"#utility.yul\":8147:8148   */\n      dup3\n        /* \"#utility.yul\":8143:8152   */\n      div\n        /* \"#utility.yul\":8138:8152   */\n      swap1\n      pop\n        /* \"#utility.yul\":7973:8158   */\n      swap3\n      swap2\n      pop\n      pop\n      jump\t// out\n        /* \"#utility.yul\":8164:8358   */\n    tag_104:\n        /* \"#utility.yul\":8204:8208   */\n      0x00\n        /* \"#utility.yul\":8224:8244   */\n      tag_336\n        /* \"#utility.yul\":8242:8243   */\n      dup3\n        /* \"#utility.yul\":8224:8244   */\n      tag_206\n      jump\t// in\n    tag_336:\n        /* \"#utility.yul\":8219:8244   */\n      swap2\n      pop\n        /* \"#utility.yul\":8258:8278   */\n      tag_337\n        /* \"#utility.yul\":8276:8277   */\n      dup4\n        /* \"#utility.yul\":8258:8278   */\n      tag_206\n      jump\t// in\n    tag_337:\n        /* \"#utility.yul\":8253:8278   */\n      swap3\n      pop\n        /* \"#utility.yul\":8302:8303   */\n      dup3\n        /* \"#utility.yul\":8299:8300   */\n      dup3\n        /* \"#utility.yul\":8295:8304   */\n      sub\n        /* \"#utility.yul\":8287:8304   */\n      swap1\n      pop\n        /* \"#utility.yul\":8326:8327   */\n      dup2\n        /* \"#utility.yul\":8320:8324   */\n      dup2\n        /* \"#utility.yul\":8317:8328   */\n      gt\n        /* \"#utility.yul\":8314:8351   */\n      iszero\n      tag_338\n      jumpi\n        /* \"#utility.yul\":8331:8349   */\n      tag_339\n      tag_229\n      jump\t// in\n    tag_339:\n        /* \"#utility.yul\":8314:8351   */\n    tag_338:\n        /* \"#utility.yul\":8164:8358   */\n      swap3\n      swap2\n      pop\n      pop\n      jump\t// out\n        /* \"#utility.yul\":8364:8525   */\n    tag_231:\n        /* \"#utility.yul\":8504:8517   */\n      0x4d696e2031302055534443000000000000000000000000000000000000000000\n        /* \"#utility.yul\":8500:8501   */\n      0x00\n        /* \"#utility.yul\":8492:8498   */\n      dup3\n        /* \"#utility.yul\":8488:8502   */\n      add\n        /* \"#utility.yul\":8481:8518   */\n      mstore\n        /* \"#utility.yul\":8364:8525   */\n      pop\n      jump\t// out\n        /* \"#utility.yul\":8531:8897   */\n    tag_232:\n        /* \"#utility.yul\":8673:8676   */\n      0x00\n        /* \"#utility.yul\":8694:8761   */\n      tag_342\n        /* \"#utility.yul\":8758:8760   */\n      0x0b\n        /* \"#utility.yul\":8753:8756   */\n      dup4\n        /* \"#utility.yul\":8694:8761   */\n      tag_225\n      jump\t// in\n    tag_342:\n        /* \"#utility.yul\":8687:8761   */\n      swap2\n      pop\n        /* \"#utility.yul\":8770:8863   */\n      tag_343\n        /* \"#utility.yul\":8859:8862   */\n      dup3\n        /* \"#utility.yul\":8770:8863   */\n      tag_231\n      jump\t// in\n    tag_343:\n        /* \"#utility.yul\":8888:8890   */\n      0x20\n        /* \"#utility.yul\":8883:8886   */\n      dup3\n        /* \"#utility.yul\":8879:8891   */\n      add\n        /* \"#utility.yul\":8872:8891   */\n      swap1\n      pop\n        /* \"#utility.yul\":8531:8897   */\n      swap2\n      swap1\n      pop\n      jump\t// out\n        /* \"#utility.yul\":8903:9322   */\n    tag_150:\n        /* \"#utility.yul\":9069:9073   */\n      0x00\n        /* \"#utility.yul\":9107:9109   */\n      0x20\n        /* \"#utility.yul\":9096:9105   */\n      dup3\n        /* \"#utility.yul\":9092:9110   */\n      add\n        /* \"#utility.yul\":9084:9110   */\n      swap1\n      pop\n        /* \"#utility.yul\":9156:9165   */\n      dup2\n        /* \"#utility.yul\":9150:9154   */\n      dup2\n        /* \"#utility.yul\":9146:9166   */\n      sub\n        /* \"#utility.yul\":9142:9143   */\n      0x00\n        /* \"#utility.yul\":9131:9140   */\n      dup4\n        /* \"#utility.yul\":9127:9144   */\n      add\n        /* \"#utility.yul\":9120:9167   */\n      mstore\n        /* \"#utility.yul\":9184:9315   */\n      tag_345\n        /* \"#utility.yul\":9310:9314   */\n      dup2\n        /* \"#utility.yul\":9184:9315   */\n      tag_232\n      jump\t// in\n    tag_345:\n        /* \"#utility.yul\":9176:9315   */\n      swap1\n      pop\n        /* \"#utility.yul\":8903:9322   */\n      swap2\n      swap1\n      pop\n      jump\t// out\n        /* \"#utility.yul\":9328:9494   */\n    tag_233:\n        /* \"#utility.yul\":9468:9486   */\n      0x4e6f2073656c662d726566657272616c00000000000000000000000000000000\n        /* \"#utility.yul\":9464:9465   */\n      0x00\n        /* \"#utility.yul\":9456:9462   */\n      dup3\n        /* \"#utility.yul\":9452:9466   */\n      add\n        /* \"#utility.yul\":9445:9487   */\n      mstore\n        /* \"#utility.yul\":9328:9494   */\n      pop\n      jump\t// out\n        /* \"#utility.yul\":9500:9866   */\n    tag_234:\n        /* \"#utility.yul\":9642:9645   */\n      0x00\n        /* \"#utility.yul\":9663:9730   */\n      tag_348\n        /* \"#utility.yul\":9727:9729   */\n      0x10\n        /* \"#utility.yul\":9722:9725   */\n      dup4\n        /* \"#utility.yul\":9663:9730   */\n      tag_225\n      jump\t// in\n    tag_348:\n        /* \"#utility.yul\":9656:9730   */\n      swap2\n      pop\n        /* \"#utility.yul\":9739:9832   */\n      tag_349\n        /* \"#utility.yul\":9828:9831   */\n      dup3\n        /* \"#utility.yul\":9739:9832   */\n      tag_233\n      jump\t// in\n    tag_349:\n        /* \"#utility.yul\":9857:9859   */\n      0x20\n        /* \"#utility.yul\":9852:9855   */\n      dup3\n        /* \"#utility.yul\":9848:9860   */\n      add\n        /* \"#utility.yul\":9841:9860   */\n      swap1\n      pop\n        /* \"#utility.yul\":9500:9866   */\n      swap2\n      swap1\n      pop\n      jump\t// out\n        /* \"#utility.yul\":9872:10291   */\n    tag_153:\n        /* \"#utility.yul\":10038:10042   */\n      0x00\n        /* \"#utility.yul\":10076:10078   */\n      0x20\n        /* \"#utility.yul\":10065:10074   */\n      dup3\n        /* \"#utility.yul\":10061:10079   */\n      add\n        /* \"#utility.yul\":10053:10079   */\n      swap1\n      pop\n        /* \"#utility.yul\":10125:10134   */\n      dup2\n        /* \"#utility.yul\":10119:10123   */\n      dup2\n        /* \"#utility.yul\":10115:10135   */\n      sub\n        /* \"#utility.yul\":10111:10112   */\n      0x00\n        /* \"#utility.yul\":10100:10109   */\n      dup4\n        /* \"#utility.yul\":10096:10113   */\n      add\n        /* \"#utility.yul\":10089:10136   */\n      mstore\n        /* \"#utility.yul\":10153:10284   */\n      tag_351\n        /* \"#utility.yul\":10279:10283   */\n      dup2\n        /* \"#utility.yul\":10153:10284   */\n      tag_234\n      jump\t// in\n    tag_351:\n        /* \"#utility.yul\":10145:10284   */\n      swap1\n      pop\n        /* \"#utility.yul\":9872:10291   */\n      swap2\n      swap1\n      pop\n      jump\t// out\n        /* \"#utility.yul\":10297:10629   */\n    tag_159:\n        /* \"#utility.yul\":10418:10422   */\n      0x00\n        /* \"#utility.yul\":10456:10458   */\n      0x40\n        /* \"#utility.yul\":10445:10454   */\n      dup3\n        /* \"#utility.yul\":10441:10459   */\n      add\n        /* \"#utility.yul\":10433:10459   */\n      swap1\n      pop\n        /* \"#utility.yul\":10469:10540   */\n      tag_353\n        /* \"#utility.yul\":10537:10538   */\n      0x00\n        /* \"#utility.yul\":10526:10535   */\n      dup4\n        /* \"#utility.yul\":10522:10539   */\n      add\n        /* \"#utility.yul\":10513:10519   */\n      dup6\n        /* \"#utility.yul\":10469:10540   */\n      tag_220\n      jump\t// in\n    tag_353:\n        /* \"#utility.yul\":10550:10622   */\n      tag_354\n        /* \"#utility.yul\":10618:10620   */\n      0x20\n        /* \"#utility.yul\":10607:10616   */\n      dup4\n        /* \"#utility.yul\":10603:10621   */\n      add\n        /* \"#utility.yul\":10594:10600   */\n      dup5\n        /* \"#utility.yul\":10550:10622   */\n      tag_207\n      jump\t// in\n    tag_354:\n        /* \"#utility.yul\":10297:10629   */\n      swap4\n      swap3\n      pop\n      pop\n      pop\n      jump\t// out\n        /* \"#utility.yul\":10635:10725   */\n    tag_235:\n        /* \"#utility.yul\":10669:10676   */\n      0x00\n        /* \"#utility.yul\":10712:10717   */\n      dup2\n        /* \"#utility.yul\":10705:10718   */\n      iszero\n        /* \"#utility.yul\":10698:10719   */\n      iszero\n        /* \"#utility.yul\":10687:10719   */\n      swap1\n      pop\n        /* \"#utility.yul\":10635:10725   */\n      swap2\n      swap1\n      pop\n      jump\t// out\n        /* \"#utility.yul\":10731:10847   */\n    tag_236:\n        /* \"#utility.yul\":10801:10822   */\n      tag_357\n        /* \"#utility.yul\":10816:10821   */\n      dup2\n        /* \"#utility.yul\":10801:10822   */\n      tag_235\n      jump\t// in\n    tag_357:\n        /* \"#utility.yul\":10794:10799   */\n      dup2\n        /* \"#utility.yul\":10791:10823   */\n      eq\n        /* \"#utility.yul\":10781:10841   */\n      tag_358\n      jumpi\n        /* \"#utility.yul\":10837:10838   */\n      0x00\n        /* \"#utility.yul\":10834:10835   */\n      dup1\n        /* \"#utility.yul\":10827:10839   */\n      revert\n        /* \"#utility.yul\":10781:10841   */\n    tag_358:\n        /* \"#utility.yul\":10731:10847   */\n      pop\n      jump\t// out\n        /* \"#utility.yul\":10853:10990   */\n    tag_237:\n        /* \"#utility.yul\":10907:10912   */\n      0x00\n        /* \"#utility.yul\":10938:10944   */\n      dup2\n        /* \"#utility.yul\":10932:10945   */\n      mload\n        /* \"#utility.yul\":10923:10945   */\n      swap1\n      pop\n        /* \"#utility.yul\":10954:10984   */\n      tag_360\n        /* \"#utility.yul\":10978:10983   */\n      dup2\n        /* \"#utility.yul\":10954:10984   */\n      tag_236\n      jump\t// in\n    tag_360:\n        /* \"#utility.yul\":10853:10990   */\n      swap3\n      swap2\n      pop\n      pop\n      jump\t// out\n        /* \"#utility.yul\":10996:11341   */\n    tag_163:\n        /* \"#utility.yul\":11063:11069   */\n      0x00\n        /* \"#utility.yul\":11112:11114   */\n      0x20\n        /* \"#utility.yul\":11100:11109   */\n      dup3\n        /* \"#utility.yul\":11091:11098   */\n      dup5\n        /* \"#utility.yul\":11087:11110   */\n      sub\n        /* \"#utility.yul\":11083:11115   */\n      slt\n        /* \"#utility.yul\":11080:11199   */\n      iszero\n      tag_362\n      jumpi\n        /* \"#utility.yul\":11118:11197   */\n      tag_363\n      tag_209\n      jump\t// in\n    tag_363:\n        /* \"#utility.yul\":11080:11199   */\n    tag_362:\n        /* \"#utility.yul\":11238:11239   */\n      0x00\n        /* \"#utility.yul\":11263:11324   */\n      tag_364\n        /* \"#utility.yul\":11316:11323   */\n      dup5\n        /* \"#utility.yul\":11307:11313   */\n      dup3\n        /* \"#utility.yul\":11296:11305   */\n      dup6\n        /* \"#utility.yul\":11292:11314   */\n      add\n        /* \"#utility.yul\":11263:11324   */\n      tag_237\n      jump\t// in\n    tag_364:\n        /* \"#utility.yul\":11253:11324   */\n      swap2\n      pop\n        /* \"#utility.yul\":11209:11334   */\n      pop\n        /* \"#utility.yul\":10996:11341   */\n      swap3\n      swap2\n      pop\n      pop\n      jump\t// out\n        /* \"#utility.yul\":11347:11679   */\n    tag_165:\n        /* \"#utility.yul\":11468:11472   */\n      0x00\n        /* \"#utility.yul\":11506:11508   */\n      0x40\n        /* \"#utility.yul\":11495:11504   */\n      dup3\n        /* \"#utility.yul\":11491:11509   */\n      add\n        /* \"#utility.yul\":11483:11509   */\n      swap1\n      pop\n        /* \"#utility.yul\":11519:11590   */\n      tag_366\n        /* \"#utility.yul\":11587:11588   */\n      0x00\n        /* \"#utility.yul\":11576:11585   */\n      dup4\n        /* \"#utility.yul\":11572:11589   */\n      add\n        /* \"#utility.yul\":11563:11569   */\n      dup6\n        /* \"#utility.yul\":11519:11590   */\n      tag_207\n      jump\t// in\n    tag_366:\n        /* \"#utility.yul\":11600:11672   */\n      tag_367\n        /* \"#utility.yul\":11668:11670   */\n      0x20\n        /* \"#utility.yul\":11657:11666   */\n      dup4\n        /* \"#utility.yul\":11653:11671   */\n      add\n        /* \"#utility.yul\":11644:11650   */\n      dup5\n        /* \"#utility.yul\":11600:11672   */\n      tag_220\n      jump\t// in\n    tag_367:\n        /* \"#utility.yul\":11347:11679   */\n      swap4\n      swap3\n      pop\n      pop\n      pop\n      jump\t// out\n        /* \"#utility.yul\":11685:11866   */\n    tag_238:\n        /* \"#utility.yul\":11825:11858   */\n      0x5265656e7472616e637947756172643a207265656e7472616e742063616c6c00\n        /* \"#utility.yul\":11821:11822   */\n      0x00\n        /* \"#utility.yul\":11813:11819   */\n      dup3\n        /* \"#utility.yul\":11809:11823   */\n      add\n        /* \"#utility.yul\":11802:11859   */\n      mstore\n        /* \"#utility.yul\":11685:11866   */\n      pop\n      jump\t// out\n        /* \"#utility.yul\":11872:12238   */\n    tag_239:\n        /* \"#utility.yul\":12014:12017   */\n      0x00\n        /* \"#utility.yul\":12035:12102   */\n      tag_370\n        /* \"#utility.yul\":12099:12101   */\n      0x1f\n        /* \"#utility.yul\":12094:12097   */\n      dup4\n        /* \"#utility.yul\":12035:12102   */\n      tag_225\n      jump\t// in\n    tag_370:\n        /* \"#utility.yul\":12028:12102   */\n      swap2\n      pop\n        /* \"#utility.yul\":12111:12204   */\n      tag_371\n        /* \"#utility.yul\":12200:12203   */\n      dup3\n        /* \"#utility.yul\":12111:12204   */\n      tag_238\n      jump\t// in\n    tag_371:\n        /* \"#utility.yul\":12229:12231   */\n      0x20\n        /* \"#utility.yul\":12224:12227   */\n      dup3\n        /* \"#utility.yul\":12220:12232   */\n      add\n        /* \"#utility.yul\":12213:12232   */\n      swap1\n      pop\n        /* \"#utility.yul\":11872:12238   */\n      swap2\n      swap1\n      pop\n      jump\t// out\n        /* \"#utility.yul\":12244:12663   */\n    tag_181:\n        /* \"#utility.yul\":12410:12414   */\n      0x00\n        /* \"#utility.yul\":12448:12450   */\n      0x20\n        /* \"#utility.yul\":12437:12446   */\n      dup3\n        /* \"#utility.yul\":12433:12451   */\n      add\n        /* \"#utility.yul\":12425:12451   */\n      swap1\n      pop\n        /* \"#utility.yul\":12497:12506   */\n      dup2\n        /* \"#utility.yul\":12491:12495   */\n      dup2\n        /* \"#utility.yul\":12487:12507   */\n      sub\n        /* \"#utility.yul\":12483:12484   */\n      0x00\n        /* \"#utility.yul\":12472:12481   */\n      dup4\n        /* \"#utility.yul\":12468:12485   */\n      add\n        /* \"#utility.yul\":12461:12508   */\n      mstore\n        /* \"#utility.yul\":12525:12656   */\n      tag_373\n        /* \"#utility.yul\":12651:12655   */\n      dup2\n        /* \"#utility.yul\":12525:12656   */\n      tag_239\n      jump\t// in\n    tag_373:\n        /* \"#utility.yul\":12517:12656   */\n      swap1\n      pop\n        /* \"#utility.yul\":12244:12663   */\n      swap2\n      swap1\n      pop\n      jump\t// out\n        /* \"#utility.yul\":12669:13111   */\n    tag_198:\n        /* \"#utility.yul\":12818:12822   */\n      0x00\n        /* \"#utility.yul\":12856:12858   */\n      0x60\n        /* \"#utility.yul\":12845:12854   */\n      dup3\n        /* \"#utility.yul\":12841:12859   */\n      add\n        /* \"#utility.yul\":12833:12859   */\n      swap1\n      pop\n        /* \"#utility.yul\":12869:12940   */\n      tag_375\n        /* \"#utility.yul\":12937:12938   */\n      0x00\n        /* \"#utility.yul\":12926:12935   */\n      dup4\n        /* \"#utility.yul\":12922:12939   */\n      add\n        /* \"#utility.yul\":12913:12919   */\n      dup7\n        /* \"#utility.yul\":12869:12940   */\n      tag_220\n      jump\t// in\n    tag_375:\n        /* \"#utility.yul\":12950:13022   */\n      tag_376\n        /* \"#utility.yul\":13018:13020   */\n      0x20\n        /* \"#utility.yul\":13007:13016   */\n      dup4\n        /* \"#utility.yul\":13003:13021   */\n      add\n        /* \"#utility.yul\":12994:13000   */\n      dup6\n        /* \"#utility.yul\":12950:13022   */\n      tag_220\n      jump\t// in\n    tag_376:\n        /* \"#utility.yul\":13032:13104   */\n      tag_377\n        /* \"#utility.yul\":13100:13102   */\n      0x40\n        /* \"#utility.yul\":13089:13098   */\n      dup4\n        /* \"#utility.yul\":13085:13103   */\n      add\n        /* \"#utility.yul\":13076:13082   */\n      dup5\n        /* \"#utility.yul\":13032:13104   */\n      tag_207\n      jump\t// in\n    tag_377:\n        /* \"#utility.yul\":12669:13111   */\n      swap5\n      swap4\n      pop\n      pop\n      pop\n      pop\n      jump\t// out\n\n    auxdata: 0xa264697066735822122046d99333bdf4a7b7621b1703505c4449f61c313192bb197a35968b07485ad34d64736f6c63430008140033\n}\n",
				"bytecode": {
					"linkReferences": {},
					"object": "608060405234801562000010575f80fd5b50335f73ffffffffffffffffffffffffffffffffffffffff168173ffffffffffffffffffffffffffffffffffffffff160362000085575f6040517f1e4fbdf70000000000000000000000000000000000000000000000000000000081526004016200007c9190620001a8565b60405180910390fd5b6200009681620000a460201b60201c565b5060018081905550620001c3565b5f805f9054906101000a900473ffffffffffffffffffffffffffffffffffffffff169050815f806101000a81548173ffffffffffffffffffffffffffffffffffffffff021916908373ffffffffffffffffffffffffffffffffffffffff1602179055508173ffffffffffffffffffffffffffffffffffffffff168173ffffffffffffffffffffffffffffffffffffffff167f8be0079c531659141344cd1fd0a4f28419497f9722a3daafe3b4186f6b6457e060405160405180910390a35050565b5f73ffffffffffffffffffffffffffffffffffffffff82169050919050565b5f620001908262000165565b9050919050565b620001a28162000184565b82525050565b5f602082019050620001bd5f83018462000197565b92915050565b61182c80620001d15f395ff3fe608060405234801561000f575f80fd5b50600436106100fe575f3560e01c80638da5cb5b11610095578063dabeaecf11610064578063dabeaecf14610268578063f2fde38b14610284578063f526e39a146102a0578063f89ec5f5146102be576100fe565b80638da5cb5b146101ee578063a87430ba1461020c578063b21b5a2114610240578063c87965721461025e576100fe565b80635ae80951116100d15780635ae8095114610178578063715018a6146101a8578063760a545e146101b257806389a30271146101d0576100fe565b80630b4501fd146101025780632354474814610120578063413d9c3a1461012a5780635764b7c414610148575b5f80fd5b61010a6102dc565b604051610117919061118e565b60405180910390f35b6101286102e1565b005b6101326107d3565b60405161013f919061118e565b60405180910390f35b610162600480360381019061015d9190611205565b6107da565b60405161016f919061118e565b60405180910390f35b610192600480360381019061018d9190611205565b610823565b60405161019f919061118e565b60405180910390f35b6101b06108f7565b005b6101ba61090a565b6040516101c7919061118e565b60405180910390f35b6101d861090f565b6040516101e5919061128b565b60405180910390f35b6101f6610927565b60405161020391906112b3565b60405180910390f35b61022660048036038101906102219190611205565b61094e565b6040516102379594939291906112cc565b60405180910390f35b61024861099f565b604051610255919061118e565b60405180910390f35b6102666109a4565b005b610282600480360381019061027d9190611347565b610a02565b005b61029e60048036038101906102999190611205565b610d91565b005b6102a8610e15565b6040516102b5919061118e565b60405180910390f35b6102c6610e1b565b6040516102d391906113a5565b60405180910390f35b600581565b6102e9610e33565b5f60025f3373ffffffffffffffffffffffffffffffffffffffff1673ffffffffffffffffffffffffffffffffffffffff1681526020019081526020015f2090505f81600101541161036f576040517f08c379a000000000000000000000000000000000000000000000000000000000815260040161036690611418565b60405180910390fd5b5f816001015490505f825f015490505f836004015490505f84600101819055505f845f018190555073c1256ae5ff1cf2719d4937adb3bbccab2e00a2ca73ffffffffffffffffffffffffffffffffffffffff1663ba0876528430306040518463ffffffff1660e01b81526004016103e893929190611436565b6020604051808303815f875af1158015610404573d5f803e3d5ffd5b505050506040513d601f19601f82011682018060405250810190610428919061147f565b505f73c1256ae5ff1cf2719d4937adb3bbccab2e00a2ca73ffffffffffffffffffffffffffffffffffffffff166307a2d13a856040518263ffffffff1660e01b8152600401610477919061118e565b602060405180830381865afa158015610492573d5f803e3d5ffd5b505050506040513d601f19601f820116820180604052508101906104b6919061147f565b905062042cc0826104c791906114d7565b421015610557575f60646001836104de919061150a565b6104e89190611578565b90508060035f8282546104fb91906114d7565b9250508190555061054c33828461051291906115a8565b73833589fcd6edb6e08f4c7c32d4f71b54bda0291373ffffffffffffffffffffffffffffffffffffffff16610e829092919063ffffffff16565b5050505050506107c9565b5f8382111561056f57838261056c91906115a8565b90505b5f811115610782575f6064600a83610587919061150a565b6105919190611578565b90505f60646005846105a3919061150a565b6105ad9190611578565b90505f8183856105bd91906115a8565b6105c791906115a8565b90505f73ffffffffffffffffffffffffffffffffffffffff16896002015f9054906101000a900473ffffffffffffffffffffffffffffffffffffffff1673ffffffffffffffffffffffffffffffffffffffff16146106ff57610681896002015f9054906101000a900473ffffffffffffffffffffffffffffffffffffffff168473833589fcd6edb6e08f4c7c32d4f71b54bda0291373ffffffffffffffffffffffffffffffffffffffff16610e829092919063ffffffff16565b8260025f8b6002015f9054906101000a900473ffffffffffffffffffffffffffffffffffffffff1673ffffffffffffffffffffffffffffffffffffffff1673ffffffffffffffffffffffffffffffffffffffff1681526020019081526020015f206003015f8282546106f391906114d7565b92505081905550610718565b8260035f82825461071091906114d7565b925050819055505b8160035f82825461072991906114d7565b9250508190555061077a33828961074091906114d7565b73833589fcd6edb6e08f4c7c32d4f71b54bda0291373ffffffffffffffffffffffffffffffffffffffff16610e829092919063ffffffff16565b5050506107c2565b6107c1338573833589fcd6edb6e08f4c7c32d4f71b54bda0291373ffffffffffffffffffffffffffffffffffffffff16610e829092919063ffffffff16565b5b5050505050505b6107d1610f01565b565b62042cc081565b5f60025f8373ffffffffffffffffffffffffffffffffffffffff1673ffffffffffffffffffffffffffffffffffffffff1681526020019081526020015f20600301549050919050565b5f73c1256ae5ff1cf2719d4937adb3bbccab2e00a2ca73ffffffffffffffffffffffffffffffffffffffff166307a2d13a60025f8573ffffffffffffffffffffffffffffffffffffffff1673ffffffffffffffffffffffffffffffffffffffff1681526020019081526020015f20600101546040518263ffffffff1660e01b81526004016108b1919061118e565b602060405180830381865afa1580156108cc573d5f803e3d5ffd5b505050506040513d601f19601f820116820180604052508101906108f0919061147f565b9050919050565b6108ff610f0a565b6109085f610f91565b565b600181565b73833589fcd6edb6e08f4c7c32d4f71b54bda0291381565b5f805f9054906101000a900473ffffffffffffffffffffffffffffffffffffffff16905090565b6002602052805f5260405f205f91509050805f015490806001015490806002015f9054906101000a900473ffffffffffffffffffffffffffffffffffffffff16908060030154908060040154905085565b600a81565b6109ac610f0a565b5f60035490505f6003819055506109ff6109c4610927565b8273833589fcd6edb6e08f4c7c32d4f71b54bda0291373ffffffffffffffffffffffffffffffffffffffff16610e829092919063ffffffff16565b50565b610a0a610e33565b62989680821015610a50576040517f08c379a0000000000000000000000000000000000000000000000000000000008152600401610a4790611625565b60405180910390fd5b3373ffffffffffffffffffffffffffffffffffffffff168173ffffffffffffffffffffffffffffffffffffffff1603610abe576040517f08c379a0000000000000000000000000000000000000000000000000000000008152600401610ab59061168d565b60405180910390fd5b5f60025f3373ffffffffffffffffffffffffffffffffffffffff1673ffffffffffffffffffffffffffffffffffffffff1681526020019081526020015f2090505f73ffffffffffffffffffffffffffffffffffffffff16816002015f9054906101000a900473ffffffffffffffffffffffffffffffffffffffff1673ffffffffffffffffffffffffffffffffffffffff16148015610b8857505f73ffffffffffffffffffffffffffffffffffffffff168273ffffffffffffffffffffffffffffffffffffffff1614155b15610bd05781816002015f6101000a81548173ffffffffffffffffffffffffffffffffffffffff021916908373ffffffffffffffffffffffffffffffffffffffff1602179055505b610c1133308573833589fcd6edb6e08f4c7c32d4f71b54bda0291373ffffffffffffffffffffffffffffffffffffffff16611052909392919063ffffffff16565b73833589fcd6edb6e08f4c7c32d4f71b54bda0291373ffffffffffffffffffffffffffffffffffffffff1663095ea7b373c1256ae5ff1cf2719d4937adb3bbccab2e00a2ca856040518363ffffffff1660e01b8152600401610c749291906116ab565b6020604051808303815f875af1158015610c90573d5f803e3d5ffd5b505050506040513d601f19601f82011682018060405250810190610cb49190611707565b505f73c1256ae5ff1cf2719d4937adb3bbccab2e00a2ca73ffffffffffffffffffffffffffffffffffffffff16636e553f6585306040518363ffffffff1660e01b8152600401610d05929190611732565b6020604051808303815f875af1158015610d21573d5f803e3d5ffd5b505050506040513d601f19601f82011682018060405250810190610d45919061147f565b905083825f015f828254610d5991906114d7565b9250508190555080826001015f828254610d7391906114d7565b925050819055504282600401819055505050610d8d610f01565b5050565b610d99610f0a565b5f73ffffffffffffffffffffffffffffffffffffffff168173ffffffffffffffffffffffffffffffffffffffff1603610e09575f6040517f1e4fbdf7000000000000000000000000000000000000000000000000000000008152600401610e0091906112b3565b60405180910390fd5b610e1281610f91565b50565b60035481565b73c1256ae5ff1cf2719d4937adb3bbccab2e00a2ca81565b600260015403610e78576040517f08c379a0000000000000000000000000000000000000000000000000000000008152600401610e6f906117a3565b60405180910390fd5b6002600181905550565b610efc838473ffffffffffffffffffffffffffffffffffffffff1663a9059cbb8585604051602401610eb59291906116ab565b604051602081830303815290604052915060e01b6020820180517bffffffffffffffffffffffffffffffffffffffffffffffffffffffff83818316178352505050506110d4565b505050565b60018081905550565b610f1261116f565b73ffffffffffffffffffffffffffffffffffffffff16610f30610927565b73ffffffffffffffffffffffffffffffffffffffff1614610f8f57610f5361116f565b6040517f118cdaa7000000000000000000000000000000000000000000000000000000008152600401610f8691906112b3565b60405180910390fd5b565b5f805f9054906101000a900473ffffffffffffffffffffffffffffffffffffffff169050815f806101000a81548173ffffffffffffffffffffffffffffffffffffffff021916908373ffffffffffffffffffffffffffffffffffffffff1602179055508173ffffffffffffffffffffffffffffffffffffffff168173ffffffffffffffffffffffffffffffffffffffff167f8be0079c531659141344cd1fd0a4f28419497f9722a3daafe3b4186f6b6457e060405160405180910390a35050565b6110ce848573ffffffffffffffffffffffffffffffffffffffff166323b872dd868686604051602401611087939291906117c1565b604051602081830303815290604052915060e01b6020820180517bffffffffffffffffffffffffffffffffffffffffffffffffffffffff83818316178352505050506110d4565b50505050565b5f8060205f8451602086015f885af1806110f3576040513d5f823e3d81fd5b3d92505f519150505f821461110c576001811415611127565b5f8473ffffffffffffffffffffffffffffffffffffffff163b145b1561116957836040517f5274afe700000000000000000000000000000000000000000000000000000000815260040161116091906112b3565b60405180910390fd5b50505050565b5f33905090565b5f819050919050565b61118881611176565b82525050565b5f6020820190506111a15f83018461117f565b92915050565b5f80fd5b5f73ffffffffffffffffffffffffffffffffffffffff82169050919050565b5f6111d4826111ab565b9050919050565b6111e4816111ca565b81146111ee575f80fd5b50565b5f813590506111ff816111db565b92915050565b5f6020828403121561121a576112196111a7565b5b5f611227848285016111f1565b91505092915050565b5f819050919050565b5f61125361124e611249846111ab565b611230565b6111ab565b9050919050565b5f61126482611239565b9050919050565b5f6112758261125a565b9050919050565b6112858161126b565b82525050565b5f60208201905061129e5f83018461127c565b92915050565b6112ad816111ca565b82525050565b5f6020820190506112c65f8301846112a4565b92915050565b5f60a0820190506112df5f83018861117f565b6112ec602083018761117f565b6112f960408301866112a4565b611306606083018561117f565b611313608083018461117f565b9695505050505050565b61132681611176565b8114611330575f80fd5b50565b5f813590506113418161131d565b92915050565b5f806040838503121561135d5761135c6111a7565b5b5f61136a85828601611333565b925050602061137b858286016111f1565b9150509250929050565b5f61138f8261125a565b9050919050565b61139f81611385565b82525050565b5f6020820190506113b85f830184611396565b92915050565b5f82825260208201905092915050565b7f4e6f2062616c616e6365000000000000000000000000000000000000000000005f82015250565b5f611402600a836113be565b915061140d826113ce565b602082019050919050565b5f6020820190508181035f83015261142f816113f6565b9050919050565b5f6060820190506114495f83018661117f565b61145660208301856112a4565b61146360408301846112a4565b949350505050565b5f815190506114798161131d565b92915050565b5f60208284031215611494576114936111a7565b5b5f6114a18482850161146b565b91505092915050565b7f4e487b71000000000000000000000000000000000000000000000000000000005f52601160045260245ffd5b5f6114e182611176565b91506114ec83611176565b9250828201905080821115611504576115036114aa565b5b92915050565b5f61151482611176565b915061151f83611176565b925082820261152d81611176565b91508282048414831517611544576115436114aa565b5b5092915050565b7f4e487b71000000000000000000000000000000000000000000000000000000005f52601260045260245ffd5b5f61158282611176565b915061158d83611176565b92508261159d5761159c61154b565b5b828204905092915050565b5f6115b282611176565b91506115bd83611176565b92508282039050818111156115d5576115d46114aa565b5b92915050565b7f4d696e20313020555344430000000000000000000000000000000000000000005f82015250565b5f61160f600b836113be565b915061161a826115db565b602082019050919050565b5f6020820190508181035f83015261163c81611603565b9050919050565b7f4e6f2073656c662d726566657272616c000000000000000000000000000000005f82015250565b5f6116776010836113be565b915061168282611643565b602082019050919050565b5f6020820190508181035f8301526116a48161166b565b9050919050565b5f6040820190506116be5f8301856112a4565b6116cb602083018461117f565b9392505050565b5f8115159050919050565b6116e6816116d2565b81146116f0575f80fd5b50565b5f81519050611701816116dd565b92915050565b5f6020828403121561171c5761171b6111a7565b5b5f611729848285016116f3565b91505092915050565b5f6040820190506117455f83018561117f565b61175260208301846112a4565b9392505050565b7f5265656e7472616e637947756172643a207265656e7472616e742063616c6c005f82015250565b5f61178d601f836113be565b915061179882611759565b602082019050919050565b5f6020820190508181035f8301526117ba81611781565b9050919050565b5f6060820190506117d45f8301866112a4565b6117e160208301856112a4565b6117ee604083018461117f565b94935050505056fea264697066735822122046d99333bdf4a7b7621b1703505c4449f61c313192bb197a35968b07485ad34d64736f6c63430008140033",
					"opcodes": "PUSH1 0x80 PUSH1 0x40 MSTORE CALLVALUE DUP1 ISZERO PUSH3 0x10 JUMPI PUSH0 DUP1 REVERT JUMPDEST POP CALLER PUSH0 PUSH20 0xFFFFFFFFFFFFFFFFFFFFFFFFFFFFFFFFFFFFFFFF AND DUP2 PUSH20 0xFFFFFFFFFFFFFFFFFFFFFFFFFFFFFFFFFFFFFFFF AND SUB PUSH3 0x85 JUMPI PUSH0 PUSH1 0x40 MLOAD PUSH32 0x1E4FBDF700000000000000000000000000000000000000000000000000000000 DUP2 MSTORE PUSH1 0x4 ADD PUSH3 0x7C SWAP2 SWAP1 PUSH3 0x1A8 JUMP JUMPDEST PUSH1 0x40 MLOAD DUP1 SWAP2 SUB SWAP1 REVERT JUMPDEST PUSH3 0x96 DUP2 PUSH3 0xA4 PUSH1 0x20 SHL PUSH1 0x20 SHR JUMP JUMPDEST POP PUSH1 0x1 DUP1 DUP2 SWAP1 SSTORE POP PUSH3 0x1C3 JUMP JUMPDEST PUSH0 DUP1 PUSH0 SWAP1 SLOAD SWAP1 PUSH2 0x100 EXP SWAP1 DIV PUSH20 0xFFFFFFFFFFFFFFFFFFFFFFFFFFFFFFFFFFFFFFFF AND SWAP1 POP DUP2 PUSH0 DUP1 PUSH2 0x100 EXP DUP2 SLOAD DUP2 PUSH20 0xFFFFFFFFFFFFFFFFFFFFFFFFFFFFFFFFFFFFFFFF MUL NOT AND SWAP1 DUP4 PUSH20 0xFFFFFFFFFFFFFFFFFFFFFFFFFFFFFFFFFFFFFFFF AND MUL OR SWAP1 SSTORE POP DUP2 PUSH20 0xFFFFFFFFFFFFFFFFFFFFFFFFFFFFFFFFFFFFFFFF AND DUP2 PUSH20 0xFFFFFFFFFFFFFFFFFFFFFFFFFFFFFFFFFFFFFFFF AND PUSH32 0x8BE0079C531659141344CD1FD0A4F28419497F9722A3DAAFE3B4186F6B6457E0 PUSH1 0x40 MLOAD PUSH1 0x40 MLOAD DUP1 SWAP2 SUB SWAP1 LOG3 POP POP JUMP JUMPDEST PUSH0 PUSH20 0xFFFFFFFFFFFFFFFFFFFFFFFFFFFFFFFFFFFFFFFF DUP3 AND SWAP1 POP SWAP2 SWAP1 POP JUMP JUMPDEST PUSH0 PUSH3 0x190 DUP3 PUSH3 0x165 JUMP JUMPDEST SWAP1 POP SWAP2 SWAP1 POP JUMP JUMPDEST PUSH3 0x1A2 DUP2 PUSH3 0x184 JUMP JUMPDEST DUP3 MSTORE POP POP JUMP JUMPDEST PUSH0 PUSH1 0x20 DUP3 ADD SWAP1 POP PUSH3 0x1BD PUSH0 DUP4 ADD DUP5 PUSH3 0x197 JUMP JUMPDEST SWAP3 SWAP2 POP POP JUMP JUMPDEST PUSH2 0x182C DUP1 PUSH3 0x1D1 PUSH0 CODECOPY PUSH0 RETURN INVALID PUSH1 0x80 PUSH1 0x40 MSTORE CALLVALUE DUP1 ISZERO PUSH2 0xF JUMPI PUSH0 DUP1 REVERT JUMPDEST POP PUSH1 0x4 CALLDATASIZE LT PUSH2 0xFE JUMPI PUSH0 CALLDATALOAD PUSH1 0xE0 SHR DUP1 PUSH4 0x8DA5CB5B GT PUSH2 0x95 JUMPI DUP1 PUSH4 0xDABEAECF GT PUSH2 0x64 JUMPI DUP1 PUSH4 0xDABEAECF EQ PUSH2 0x268 JUMPI DUP1 PUSH4 0xF2FDE38B EQ PUSH2 0x284 JUMPI DUP1 PUSH4 0xF526E39A EQ PUSH2 0x2A0 JUMPI DUP1 PUSH4 0xF89EC5F5 EQ PUSH2 0x2BE JUMPI PUSH2 0xFE JUMP JUMPDEST DUP1 PUSH4 0x8DA5CB5B EQ PUSH2 0x1EE JUMPI DUP1 PUSH4 0xA87430BA EQ PUSH2 0x20C JUMPI DUP1 PUSH4 0xB21B5A21 EQ PUSH2 0x240 JUMPI DUP1 PUSH4 0xC8796572 EQ PUSH2 0x25E JUMPI PUSH2 0xFE JUMP JUMPDEST DUP1 PUSH4 0x5AE80951 GT PUSH2 0xD1 JUMPI DUP1 PUSH4 0x5AE80951 EQ PUSH2 0x178 JUMPI DUP1 PUSH4 0x715018A6 EQ PUSH2 0x1A8 JUMPI DUP1 PUSH4 0x760A545E EQ PUSH2 0x1B2 JUMPI DUP1 PUSH4 0x89A30271 EQ PUSH2 0x1D0 JUMPI PUSH2 0xFE JUMP JUMPDEST DUP1 PUSH4 0xB4501FD EQ PUSH2 0x102 JUMPI DUP1 PUSH4 0x23544748 EQ PUSH2 0x120 JUMPI DUP1 PUSH4 0x413D9C3A EQ PUSH2 0x12A JUMPI DUP1 PUSH4 0x5764B7C4 EQ PUSH2 0x148 JUMPI JUMPDEST PUSH0 DUP1 REVERT JUMPDEST PUSH2 0x10A PUSH2 0x2DC JUMP JUMPDEST PUSH1 0x40 MLOAD PUSH2 0x117 SWAP2 SWAP1 PUSH2 0x118E JUMP JUMPDEST PUSH1 0x40 MLOAD DUP1 SWAP2 SUB SWAP1 RETURN JUMPDEST PUSH2 0x128 PUSH2 0x2E1 JUMP JUMPDEST STOP JUMPDEST PUSH2 0x132 PUSH2 0x7D3 JUMP JUMPDEST PUSH1 0x40 MLOAD PUSH2 0x13F SWAP2 SWAP1 PUSH2 0x118E JUMP JUMPDEST PUSH1 0x40 MLOAD DUP1 SWAP2 SUB SWAP1 RETURN JUMPDEST PUSH2 0x162 PUSH1 0x4 DUP1 CALLDATASIZE SUB DUP2 ADD SWAP1 PUSH2 0x15D SWAP2 SWAP1 PUSH2 0x1205 JUMP JUMPDEST PUSH2 0x7DA JUMP JUMPDEST PUSH1 0x40 MLOAD PUSH2 0x16F SWAP2 SWAP1 PUSH2 0x118E JUMP JUMPDEST PUSH1 0x40 MLOAD DUP1 SWAP2 SUB SWAP1 RETURN JUMPDEST PUSH2 0x192 PUSH1 0x4 DUP1 CALLDATASIZE SUB DUP2 ADD SWAP1 PUSH2 0x18D SWAP2 SWAP1 PUSH2 0x1205 JUMP JUMPDEST PUSH2 0x823 JUMP JUMPDEST PUSH1 0x40 MLOAD PUSH2 0x19F SWAP2 SWAP1 PUSH2 0x118E JUMP JUMPDEST PUSH1 0x40 MLOAD DUP1 SWAP2 SUB SWAP1 RETURN JUMPDEST PUSH2 0x1B0 PUSH2 0x8F7 JUMP JUMPDEST STOP JUMPDEST PUSH2 0x1BA PUSH2 0x90A JUMP JUMPDEST PUSH1 0x40 MLOAD PUSH2 0x1C7 SWAP2 SWAP1 PUSH2 0x118E JUMP JUMPDEST PUSH1 0x40 MLOAD DUP1 SWAP2 SUB SWAP1 RETURN JUMPDEST PUSH2 0x1D8 PUSH2 0x90F JUMP JUMPDEST PUSH1 0x40 MLOAD PUSH2 0x1E5 SWAP2 SWAP1 PUSH2 0x128B JUMP JUMPDEST PUSH1 0x40 MLOAD DUP1 SWAP2 SUB SWAP1 RETURN JUMPDEST PUSH2 0x1F6 PUSH2 0x927 JUMP JUMPDEST PUSH1 0x40 MLOAD PUSH2 0x203 SWAP2 SWAP1 PUSH2 0x12B3 JUMP JUMPDEST PUSH1 0x40 MLOAD DUP1 SWAP2 SUB SWAP1 RETURN JUMPDEST PUSH2 0x226 PUSH1 0x4 DUP1 CALLDATASIZE SUB DUP2 ADD SWAP1 PUSH2 0x221 SWAP2 SWAP1 PUSH2 0x1205 JUMP JUMPDEST PUSH2 0x94E JUMP JUMPDEST PUSH1 0x40 MLOAD PUSH2 0x237 SWAP6 SWAP5 SWAP4 SWAP3 SWAP2 SWAP1 PUSH2 0x12CC JUMP JUMPDEST PUSH1 0x40 MLOAD DUP1 SWAP2 SUB SWAP1 RETURN JUMPDEST PUSH2 0x248 PUSH2 0x99F JUMP JUMPDEST PUSH1 0x40 MLOAD PUSH2 0x255 SWAP2 SWAP1 PUSH2 0x118E JUMP JUMPDEST PUSH1 0x40 MLOAD DUP1 SWAP2 SUB SWAP1 RETURN JUMPDEST PUSH2 0x266 PUSH2 0x9A4 JUMP JUMPDEST STOP JUMPDEST PUSH2 0x282 PUSH1 0x4 DUP1 CALLDATASIZE SUB DUP2 ADD SWAP1 PUSH2 0x27D SWAP2 SWAP1 PUSH2 0x1347 JUMP JUMPDEST PUSH2 0xA02 JUMP JUMPDEST STOP JUMPDEST PUSH2 0x29E PUSH1 0x4 DUP1 CALLDATASIZE SUB DUP2 ADD SWAP1 PUSH2 0x299 SWAP2 SWAP1 PUSH2 0x1205 JUMP JUMPDEST PUSH2 0xD91 JUMP JUMPDEST STOP JUMPDEST PUSH2 0x2A8 PUSH2 0xE15 JUMP JUMPDEST PUSH1 0x40 MLOAD PUSH2 0x2B5 SWAP2 SWAP1 PUSH2 0x118E JUMP JUMPDEST PUSH1 0x40 MLOAD DUP1 SWAP2 SUB SWAP1 RETURN JUMPDEST PUSH2 0x2C6 PUSH2 0xE1B JUMP JUMPDEST PUSH1 0x40 MLOAD PUSH2 0x2D3 SWAP2 SWAP1 PUSH2 0x13A5 JUMP JUMPDEST PUSH1 0x40 MLOAD DUP1 SWAP2 SUB SWAP1 RETURN JUMPDEST PUSH1 0x5 DUP2 JUMP JUMPDEST PUSH2 0x2E9 PUSH2 0xE33 JUMP JUMPDEST PUSH0 PUSH1 0x2 PUSH0 CALLER PUSH20 0xFFFFFFFFFFFFFFFFFFFFFFFFFFFFFFFFFFFFFFFF AND PUSH20 0xFFFFFFFFFFFFFFFFFFFFFFFFFFFFFFFFFFFFFFFF AND DUP2 MSTORE PUSH1 0x20 ADD SWAP1 DUP2 MSTORE PUSH1 0x20 ADD PUSH0 KECCAK256 SWAP1 POP PUSH0 DUP2 PUSH1 0x1 ADD SLOAD GT PUSH2 0x36F JUMPI PUSH1 0x40 MLOAD PUSH32 0x8C379A000000000000000000000000000000000000000000000000000000000 DUP2 MSTORE PUSH1 0x4 ADD PUSH2 0x366 SWAP1 PUSH2 0x1418 JUMP JUMPDEST PUSH1 0x40 MLOAD DUP1 SWAP2 SUB SWAP1 REVERT JUMPDEST PUSH0 DUP2 PUSH1 0x1 ADD SLOAD SWAP1 POP PUSH0 DUP3 PUSH0 ADD SLOAD SWAP1 POP PUSH0 DUP4 PUSH1 0x4 ADD SLOAD SWAP1 POP PUSH0 DUP5 PUSH1 0x1 ADD DUP2 SWAP1 SSTORE POP PUSH0 DUP5 PUSH0 ADD DUP2 SWAP1 SSTORE POP PUSH20 0xC1256AE5FF1CF2719D4937ADB3BBCCAB2E00A2CA PUSH20 0xFFFFFFFFFFFFFFFFFFFFFFFFFFFFFFFFFFFFFFFF AND PUSH4 0xBA087652 DUP5 ADDRESS ADDRESS PUSH1 0x40 MLOAD DUP5 PUSH4 0xFFFFFFFF AND PUSH1 0xE0 SHL DUP2 MSTORE PUSH1 0x4 ADD PUSH2 0x3E8 SWAP4 SWAP3 SWAP2 SWAP1 PUSH2 0x1436 JUMP JUMPDEST PUSH1 0x20 PUSH1 0x40 MLOAD DUP1 DUP4 SUB DUP2 PUSH0 DUP8 GAS CALL ISZERO DUP1 ISZERO PUSH2 0x404 JUMPI RETURNDATASIZE PUSH0 DUP1 RETURNDATACOPY RETURNDATASIZE PUSH0 REVERT JUMPDEST POP POP POP POP PUSH1 0x40 MLOAD RETURNDATASIZE PUSH1 0x1F NOT PUSH1 0x1F DUP3 ADD AND DUP3 ADD DUP1 PUSH1 0x40 MSTORE POP DUP2 ADD SWAP1 PUSH2 0x428 SWAP2 SWAP1 PUSH2 0x147F JUMP JUMPDEST POP PUSH0 PUSH20 0xC1256AE5FF1CF2719D4937ADB3BBCCAB2E00A2CA PUSH20 0xFFFFFFFFFFFFFFFFFFFFFFFFFFFFFFFFFFFFFFFF AND PUSH4 0x7A2D13A DUP6 PUSH1 0x40 MLOAD DUP3 PUSH4 0xFFFFFFFF AND PUSH1 0xE0 SHL DUP2 MSTORE PUSH1 0x4 ADD PUSH2 0x477 SWAP2 SWAP1 PUSH2 0x118E JUMP JUMPDEST PUSH1 0x20 PUSH1 0x40 MLOAD DUP1 DUP4 SUB DUP2 DUP7 GAS STATICCALL ISZERO DUP1 ISZERO PUSH2 0x492 JUMPI RETURNDATASIZE PUSH0 DUP1 RETURNDATACOPY RETURNDATASIZE PUSH0 REVERT JUMPDEST POP POP POP POP PUSH1 0x40 MLOAD RETURNDATASIZE PUSH1 0x1F NOT PUSH1 0x1F DUP3 ADD AND DUP3 ADD DUP1 PUSH1 0x40 MSTORE POP DUP2 ADD SWAP1 PUSH2 0x4B6 SWAP2 SWAP1 PUSH2 0x147F JUMP JUMPDEST SWAP1 POP PUSH3 0x42CC0 DUP3 PUSH2 0x4C7 SWAP2 SWAP1 PUSH2 0x14D7 JUMP JUMPDEST TIMESTAMP LT ISZERO PUSH2 0x557 JUMPI PUSH0 PUSH1 0x64 PUSH1 0x1 DUP4 PUSH2 0x4DE SWAP2 SWAP1 PUSH2 0x150A JUMP JUMPDEST PUSH2 0x4E8 SWAP2 SWAP1 PUSH2 0x1578 JUMP JUMPDEST SWAP1 POP DUP1 PUSH1 0x3 PUSH0 DUP3 DUP3 SLOAD PUSH2 0x4FB SWAP2 SWAP1 PUSH2 0x14D7 JUMP JUMPDEST SWAP3 POP POP DUP2 SWAP1 SSTORE POP PUSH2 0x54C CALLER DUP3 DUP5 PUSH2 0x512 SWAP2 SWAP1 PUSH2 0x15A8 JUMP JUMPDEST PUSH20 0x833589FCD6EDB6E08F4C7C32D4F71B54BDA02913 PUSH20 0xFFFFFFFFFFFFFFFFFFFFFFFFFFFFFFFFFFFFFFFF AND PUSH2 0xE82 SWAP1 SWAP3 SWAP2 SWAP1 PUSH4 0xFFFFFFFF AND JUMP JUMPDEST POP POP POP POP POP POP PUSH2 0x7C9 JUMP JUMPDEST PUSH0 DUP4 DUP3 GT ISZERO PUSH2 0x56F JUMPI DUP4 DUP3 PUSH2 0x56C SWAP2 SWAP1 PUSH2 0x15A8 JUMP JUMPDEST SWAP1 POP JUMPDEST PUSH0 DUP2 GT ISZERO PUSH2 0x782 JUMPI PUSH0 PUSH1 0x64 PUSH1 0xA DUP4 PUSH2 0x587 SWAP2 SWAP1 PUSH2 0x150A JUMP JUMPDEST PUSH2 0x591 SWAP2 SWAP1 PUSH2 0x1578 JUMP JUMPDEST SWAP1 POP PUSH0 PUSH1 0x64 PUSH1 0x5 DUP5 PUSH2 0x5A3 SWAP2 SWAP1 PUSH2 0x150A JUMP JUMPDEST PUSH2 0x5AD SWAP2 SWAP1 PUSH2 0x1578 JUMP JUMPDEST SWAP1 POP PUSH0 DUP2 DUP4 DUP6 PUSH2 0x5BD SWAP2 SWAP1 PUSH2 0x15A8 JUMP JUMPDEST PUSH2 0x5C7 SWAP2 SWAP1 PUSH2 0x15A8 JUMP JUMPDEST SWAP1 POP PUSH0 PUSH20 0xFFFFFFFFFFFFFFFFFFFFFFFFFFFFFFFFFFFFFFFF AND DUP10 PUSH1 0x2 ADD PUSH0 SWAP1 SLOAD SWAP1 PUSH2 0x100 EXP SWAP1 DIV PUSH20 0xFFFFFFFFFFFFFFFFFFFFFFFFFFFFFFFFFFFFFFFF AND PUSH20 0xFFFFFFFFFFFFFFFFFFFFFFFFFFFFFFFFFFFFFFFF AND EQ PUSH2 0x6FF JUMPI PUSH2 0x681 DUP10 PUSH1 0x2 ADD PUSH0 SWAP1 SLOAD SWAP1 PUSH2 0x100 EXP SWAP1 DIV PUSH20 0xFFFFFFFFFFFFFFFFFFFFFFFFFFFFFFFFFFFFFFFF AND DUP5 PUSH20 0x833589FCD6EDB6E08F4C7C32D4F71B54BDA02913 PUSH20 0xFFFFFFFFFFFFFFFFFFFFFFFFFFFFFFFFFFFFFFFF AND PUSH2 0xE82 SWAP1 SWAP3 SWAP2 SWAP1 PUSH4 0xFFFFFFFF AND JUMP JUMPDEST DUP3 PUSH1 0x2 PUSH0 DUP12 PUSH1 0x2 ADD PUSH0 SWAP1 SLOAD SWAP1 PUSH2 0x100 EXP SWAP1 DIV PUSH20 0xFFFFFFFFFFFFFFFFFFFFFFFFFFFFFFFFFFFFFFFF AND PUSH20 0xFFFFFFFFFFFFFFFFFFFFFFFFFFFFFFFFFFFFFFFF AND PUSH20 0xFFFFFFFFFFFFFFFFFFFFFFFFFFFFFFFFFFFFFFFF AND DUP2 MSTORE PUSH1 0x20 ADD SWAP1 DUP2 MSTORE PUSH1 0x20 ADD PUSH0 KECCAK256 PUSH1 0x3 ADD PUSH0 DUP3 DUP3 SLOAD PUSH2 0x6F3 SWAP2 SWAP1 PUSH2 0x14D7 JUMP JUMPDEST SWAP3 POP POP DUP2 SWAP1 SSTORE POP PUSH2 0x718 JUMP JUMPDEST DUP3 PUSH1 0x3 PUSH0 DUP3 DUP3 SLOAD PUSH2 0x710 SWAP2 SWAP1 PUSH2 0x14D7 JUMP JUMPDEST SWAP3 POP POP DUP2 SWAP1 SSTORE POP JUMPDEST DUP2 PUSH1 0x3 PUSH0 DUP3 DUP3 SLOAD PUSH2 0x729 SWAP2 SWAP1 PUSH2 0x14D7 JUMP JUMPDEST SWAP3 POP POP DUP2 SWAP1 SSTORE POP PUSH2 0x77A CALLER DUP3 DUP10 PUSH2 0x740 SWAP2 SWAP1 PUSH2 0x14D7 JUMP JUMPDEST PUSH20 0x833589FCD6EDB6E08F4C7C32D4F71B54BDA02913 PUSH20 0xFFFFFFFFFFFFFFFFFFFFFFFFFFFFFFFFFFFFFFFF AND PUSH2 0xE82 SWAP1 SWAP3 SWAP2 SWAP1 PUSH4 0xFFFFFFFF AND JUMP JUMPDEST POP POP POP PUSH2 0x7C2 JUMP JUMPDEST PUSH2 0x7C1 CALLER DUP6 PUSH20 0x833589FCD6EDB6E08F4C7C32D4F71B54BDA02913 PUSH20 0xFFFFFFFFFFFFFFFFFFFFFFFFFFFFFFFFFFFFFFFF AND PUSH2 0xE82 SWAP1 SWAP3 SWAP2 SWAP1 PUSH4 0xFFFFFFFF AND JUMP JUMPDEST JUMPDEST POP POP POP POP POP POP JUMPDEST PUSH2 0x7D1 PUSH2 0xF01 JUMP JUMPDEST JUMP JUMPDEST PUSH3 0x42CC0 DUP2 JUMP JUMPDEST PUSH0 PUSH1 0x2 PUSH0 DUP4 PUSH20 0xFFFFFFFFFFFFFFFFFFFFFFFFFFFFFFFFFFFFFFFF AND PUSH20 0xFFFFFFFFFFFFFFFFFFFFFFFFFFFFFFFFFFFFFFFF AND DUP2 MSTORE PUSH1 0x20 ADD SWAP1 DUP2 MSTORE PUSH1 0x20 ADD PUSH0 KECCAK256 PUSH1 0x3 ADD SLOAD SWAP1 POP SWAP2 SWAP1 POP JUMP JUMPDEST PUSH0 PUSH20 0xC1256AE5FF1CF2719D4937ADB3BBCCAB2E00A2CA PUSH20 0xFFFFFFFFFFFFFFFFFFFFFFFFFFFFFFFFFFFFFFFF AND PUSH4 0x7A2D13A PUSH1 0x2 PUSH0 DUP6 PUSH20 0xFFFFFFFFFFFFFFFFFFFFFFFFFFFFFFFFFFFFFFFF AND PUSH20 0xFFFFFFFFFFFFFFFFFFFFFFFFFFFFFFFFFFFFFFFF AND DUP2 MSTORE PUSH1 0x20 ADD SWAP1 DUP2 MSTORE PUSH1 0x20 ADD PUSH0 KECCAK256 PUSH1 0x1 ADD SLOAD PUSH1 0x40 MLOAD DUP3 PUSH4 0xFFFFFFFF AND PUSH1 0xE0 SHL DUP2 MSTORE PUSH1 0x4 ADD PUSH2 0x8B1 SWAP2 SWAP1 PUSH2 0x118E JUMP JUMPDEST PUSH1 0x20 PUSH1 0x40 MLOAD DUP1 DUP4 SUB DUP2 DUP7 GAS STATICCALL ISZERO DUP1 ISZERO PUSH2 0x8CC JUMPI RETURNDATASIZE PUSH0 DUP1 RETURNDATACOPY RETURNDATASIZE PUSH0 REVERT JUMPDEST POP POP POP POP PUSH1 0x40 MLOAD RETURNDATASIZE PUSH1 0x1F NOT PUSH1 0x1F DUP3 ADD AND DUP3 ADD DUP1 PUSH1 0x40 MSTORE POP DUP2 ADD SWAP1 PUSH2 0x8F0 SWAP2 SWAP1 PUSH2 0x147F JUMP JUMPDEST SWAP1 POP SWAP2 SWAP1 POP JUMP JUMPDEST PUSH2 0x8FF PUSH2 0xF0A JUMP JUMPDEST PUSH2 0x908 PUSH0 PUSH2 0xF91 JUMP JUMPDEST JUMP JUMPDEST PUSH1 0x1 DUP2 JUMP JUMPDEST PUSH20 0x833589FCD6EDB6E08F4C7C32D4F71B54BDA02913 DUP2 JUMP JUMPDEST PUSH0 DUP1 PUSH0 SWAP1 SLOAD SWAP1 PUSH2 0x100 EXP SWAP1 DIV PUSH20 0xFFFFFFFFFFFFFFFFFFFFFFFFFFFFFFFFFFFFFFFF AND SWAP1 POP SWAP1 JUMP JUMPDEST PUSH1 0x2 PUSH1 0x20 MSTORE DUP1 PUSH0 MSTORE PUSH1 0x40 PUSH0 KECCAK256 PUSH0 SWAP2 POP SWAP1 POP DUP1 PUSH0 ADD SLOAD SWAP1 DUP1 PUSH1 0x1 ADD SLOAD SWAP1 DUP1 PUSH1 0x2 ADD PUSH0 SWAP1 SLOAD SWAP1 PUSH2 0x100 EXP SWAP1 DIV PUSH20 0xFFFFFFFFFFFFFFFFFFFFFFFFFFFFFFFFFFFFFFFF AND SWAP1 DUP1 PUSH1 0x3 ADD SLOAD SWAP1 DUP1 PUSH1 0x4 ADD SLOAD SWAP1 POP DUP6 JUMP JUMPDEST PUSH1 0xA DUP2 JUMP JUMPDEST PUSH2 0x9AC PUSH2 0xF0A JUMP JUMPDEST PUSH0 PUSH1 0x3 SLOAD SWAP1 POP PUSH0 PUSH1 0x3 DUP2 SWAP1 SSTORE POP PUSH2 0x9FF PUSH2 0x9C4 PUSH2 0x927 JUMP JUMPDEST DUP3 PUSH20 0x833589FCD6EDB6E08F4C7C32D4F71B54BDA02913 PUSH20 0xFFFFFFFFFFFFFFFFFFFFFFFFFFFFFFFFFFFFFFFF AND PUSH2 0xE82 SWAP1 SWAP3 SWAP2 SWAP1 PUSH4 0xFFFFFFFF AND JUMP JUMPDEST POP JUMP JUMPDEST PUSH2 0xA0A PUSH2 0xE33 JUMP JUMPDEST PUSH3 0x989680 DUP3 LT ISZERO PUSH2 0xA50 JUMPI PUSH1 0x40 MLOAD PUSH32 0x8C379A000000000000000000000000000000000000000000000000000000000 DUP2 MSTORE PUSH1 0x4 ADD PUSH2 0xA47 SWAP1 PUSH2 0x1625 JUMP JUMPDEST PUSH1 0x40 MLOAD DUP1 SWAP2 SUB SWAP1 REVERT JUMPDEST CALLER PUSH20 0xFFFFFFFFFFFFFFFFFFFFFFFFFFFFFFFFFFFFFFFF AND DUP2 PUSH20 0xFFFFFFFFFFFFFFFFFFFFFFFFFFFFFFFFFFFFFFFF AND SUB PUSH2 0xABE JUMPI PUSH1 0x40 MLOAD PUSH32 0x8C379A000000000000000000000000000000000000000000000000000000000 DUP2 MSTORE PUSH1 0x4 ADD PUSH2 0xAB5 SWAP1 PUSH2 0x168D JUMP JUMPDEST PUSH1 0x40 MLOAD DUP1 SWAP2 SUB SWAP1 REVERT JUMPDEST PUSH0 PUSH1 0x2 PUSH0 CALLER PUSH20 0xFFFFFFFFFFFFFFFFFFFFFFFFFFFFFFFFFFFFFFFF AND PUSH20 0xFFFFFFFFFFFFFFFFFFFFFFFFFFFFFFFFFFFFFFFF AND DUP2 MSTORE PUSH1 0x20 ADD SWAP1 DUP2 MSTORE PUSH1 0x20 ADD PUSH0 KECCAK256 SWAP1 POP PUSH0 PUSH20 0xFFFFFFFFFFFFFFFFFFFFFFFFFFFFFFFFFFFFFFFF AND DUP2 PUSH1 0x2 ADD PUSH0 SWAP1 SLOAD SWAP1 PUSH2 0x100 EXP SWAP1 DIV PUSH20 0xFFFFFFFFFFFFFFFFFFFFFFFFFFFFFFFFFFFFFFFF AND PUSH20 0xFFFFFFFFFFFFFFFFFFFFFFFFFFFFFFFFFFFFFFFF AND EQ DUP1 ISZERO PUSH2 0xB88 JUMPI POP PUSH0 PUSH20 0xFFFFFFFFFFFFFFFFFFFFFFFFFFFFFFFFFFFFFFFF AND DUP3 PUSH20 0xFFFFFFFFFFFFFFFFFFFFFFFFFFFFFFFFFFFFFFFF AND EQ ISZERO JUMPDEST ISZERO PUSH2 0xBD0 JUMPI DUP2 DUP2 PUSH1 0x2 ADD PUSH0 PUSH2 0x100 EXP DUP2 SLOAD DUP2 PUSH20 0xFFFFFFFFFFFFFFFFFFFFFFFFFFFFFFFFFFFFFFFF MUL NOT AND SWAP1 DUP4 PUSH20 0xFFFFFFFFFFFFFFFFFFFFFFFFFFFFFFFFFFFFFFFF AND MUL OR SWAP1 SSTORE POP JUMPDEST PUSH2 0xC11 CALLER ADDRESS DUP6 PUSH20 0x833589FCD6EDB6E08F4C7C32D4F71B54BDA02913 PUSH20 0xFFFFFFFFFFFFFFFFFFFFFFFFFFFFFFFFFFFFFFFF AND PUSH2 0x1052 SWAP1 SWAP4 SWAP3 SWAP2 SWAP1 PUSH4 0xFFFFFFFF AND JUMP JUMPDEST PUSH20 0x833589FCD6EDB6E08F4C7C32D4F71B54BDA02913 PUSH20 0xFFFFFFFFFFFFFFFFFFFFFFFFFFFFFFFFFFFFFFFF AND PUSH4 0x95EA7B3 PUSH20 0xC1256AE5FF1CF2719D4937ADB3BBCCAB2E00A2CA DUP6 PUSH1 0x40 MLOAD DUP4 PUSH4 0xFFFFFFFF AND PUSH1 0xE0 SHL DUP2 MSTORE PUSH1 0x4 ADD PUSH2 0xC74 SWAP3 SWAP2 SWAP1 PUSH2 0x16AB JUMP JUMPDEST PUSH1 0x20 PUSH1 0x40 MLOAD DUP1 DUP4 SUB DUP2 PUSH0 DUP8 GAS CALL ISZERO DUP1 ISZERO PUSH2 0xC90 JUMPI RETURNDATASIZE PUSH0 DUP1 RETURNDATACOPY RETURNDATASIZE PUSH0 REVERT JUMPDEST POP POP POP POP PUSH1 0x40 MLOAD RETURNDATASIZE PUSH1 0x1F NOT PUSH1 0x1F DUP3 ADD AND DUP3 ADD DUP1 PUSH1 0x40 MSTORE POP DUP2 ADD SWAP1 PUSH2 0xCB4 SWAP2 SWAP1 PUSH2 0x1707 JUMP JUMPDEST POP PUSH0 PUSH20 0xC1256AE5FF1CF2719D4937ADB3BBCCAB2E00A2CA PUSH20 0xFFFFFFFFFFFFFFFFFFFFFFFFFFFFFFFFFFFFFFFF AND PUSH4 0x6E553F65 DUP6 ADDRESS PUSH1 0x40 MLOAD DUP4 PUSH4 0xFFFFFFFF AND PUSH1 0xE0 SHL DUP2 MSTORE PUSH1 0x4 ADD PUSH2 0xD05 SWAP3 SWAP2 SWAP1 PUSH2 0x1732 JUMP JUMPDEST PUSH1 0x20 PUSH1 0x40 MLOAD DUP1 DUP4 SUB DUP2 PUSH0 DUP8 GAS CALL ISZERO DUP1 ISZERO PUSH2 0xD21 JUMPI RETURNDATASIZE PUSH0 DUP1 RETURNDATACOPY RETURNDATASIZE PUSH0 REVERT JUMPDEST POP POP POP POP PUSH1 0x40 MLOAD RETURNDATASIZE PUSH1 0x1F NOT PUSH1 0x1F DUP3 ADD AND DUP3 ADD DUP1 PUSH1 0x40 MSTORE POP DUP2 ADD SWAP1 PUSH2 0xD45 SWAP2 SWAP1 PUSH2 0x147F JUMP JUMPDEST SWAP1 POP DUP4 DUP3 PUSH0 ADD PUSH0 DUP3 DUP3 SLOAD PUSH2 0xD59 SWAP2 SWAP1 PUSH2 0x14D7 JUMP JUMPDEST SWAP3 POP POP DUP2 SWAP1 SSTORE POP DUP1 DUP3 PUSH1 0x1 ADD PUSH0 DUP3 DUP3 SLOAD PUSH2 0xD73 SWAP2 SWAP1 PUSH2 0x14D7 JUMP JUMPDEST SWAP3 POP POP DUP2 SWAP1 SSTORE POP TIMESTAMP DUP3 PUSH1 0x4 ADD DUP2 SWAP1 SSTORE POP POP POP PUSH2 0xD8D PUSH2 0xF01 JUMP JUMPDEST POP POP JUMP JUMPDEST PUSH2 0xD99 PUSH2 0xF0A JUMP JUMPDEST PUSH0 PUSH20 0xFFFFFFFFFFFFFFFFFFFFFFFFFFFFFFFFFFFFFFFF AND DUP2 PUSH20 0xFFFFFFFFFFFFFFFFFFFFFFFFFFFFFFFFFFFFFFFF AND SUB PUSH2 0xE09 JUMPI PUSH0 PUSH1 0x40 MLOAD PUSH32 0x1E4FBDF700000000000000000000000000000000000000000000000000000000 DUP2 MSTORE PUSH1 0x4 ADD PUSH2 0xE00 SWAP2 SWAP1 PUSH2 0x12B3 JUMP JUMPDEST PUSH1 0x40 MLOAD DUP1 SWAP2 SUB SWAP1 REVERT JUMPDEST PUSH2 0xE12 DUP2 PUSH2 0xF91 JUMP JUMPDEST POP JUMP JUMPDEST PUSH1 0x3 SLOAD DUP2 JUMP JUMPDEST PUSH20 0xC1256AE5FF1CF2719D4937ADB3BBCCAB2E00A2CA DUP2 JUMP JUMPDEST PUSH1 0x2 PUSH1 0x1 SLOAD SUB PUSH2 0xE78 JUMPI PUSH1 0x40 MLOAD PUSH32 0x8C379A000000000000000000000000000000000000000000000000000000000 DUP2 MSTORE PUSH1 0x4 ADD PUSH2 0xE6F SWAP1 PUSH2 0x17A3 JUMP JUMPDEST PUSH1 0x40 MLOAD DUP1 SWAP2 SUB SWAP1 REVERT JUMPDEST PUSH1 0x2 PUSH1 0x1 DUP2 SWAP1 SSTORE POP JUMP JUMPDEST PUSH2 0xEFC DUP4 DUP5 PUSH20 0xFFFFFFFFFFFFFFFFFFFFFFFFFFFFFFFFFFFFFFFF AND PUSH4 0xA9059CBB DUP6 DUP6 PUSH1 0x40 MLOAD PUSH1 0x24 ADD PUSH2 0xEB5 SWAP3 SWAP2 SWAP1 PUSH2 0x16AB JUMP JUMPDEST PUSH1 0x40 MLOAD PUSH1 0x20 DUP2 DUP4 SUB SUB DUP2 MSTORE SWAP1 PUSH1 0x40 MSTORE SWAP2 POP PUSH1 0xE0 SHL PUSH1 0x20 DUP3 ADD DUP1 MLOAD PUSH28 0xFFFFFFFFFFFFFFFFFFFFFFFFFFFFFFFFFFFFFFFFFFFFFFFFFFFFFFFF DUP4 DUP2 DUP4 AND OR DUP4 MSTORE POP POP POP POP PUSH2 0x10D4 JUMP JUMPDEST POP POP POP JUMP JUMPDEST PUSH1 0x1 DUP1 DUP2 SWAP1 SSTORE POP JUMP JUMPDEST PUSH2 0xF12 PUSH2 0x116F JUMP JUMPDEST PUSH20 0xFFFFFFFFFFFFFFFFFFFFFFFFFFFFFFFFFFFFFFFF AND PUSH2 0xF30 PUSH2 0x927 JUMP JUMPDEST PUSH20 0xFFFFFFFFFFFFFFFFFFFFFFFFFFFFFFFFFFFFFFFF AND EQ PUSH2 0xF8F JUMPI PUSH2 0xF53 PUSH2 0x116F JUMP JUMPDEST PUSH1 0x40 MLOAD PUSH32 0x118CDAA700000000000000000000000000000000000000000000000000000000 DUP2 MSTORE PUSH1 0x4 ADD PUSH2 0xF86 SWAP2 SWAP1 PUSH2 0x12B3 JUMP JUMPDEST PUSH1 0x40 MLOAD DUP1 SWAP2 SUB SWAP1 REVERT JUMPDEST JUMP JUMPDEST PUSH0 DUP1 PUSH0 SWAP1 SLOAD SWAP1 PUSH2 0x100 EXP SWAP1 DIV PUSH20 0xFFFFFFFFFFFFFFFFFFFFFFFFFFFFFFFFFFFFFFFF AND SWAP1 POP DUP2 PUSH0 DUP1 PUSH2 0x100 EXP DUP2 SLOAD DUP2 PUSH20 0xFFFFFFFFFFFFFFFFFFFFFFFFFFFFFFFFFFFFFFFF MUL NOT AND SWAP1 DUP4 PUSH20 0xFFFFFFFFFFFFFFFFFFFFFFFFFFFFFFFFFFFFFFFF AND MUL OR SWAP1 SSTORE POP DUP2 PUSH20 0xFFFFFFFFFFFFFFFFFFFFFFFFFFFFFFFFFFFFFFFF AND DUP2 PUSH20 0xFFFFFFFFFFFFFFFFFFFFFFFFFFFFFFFFFFFFFFFF AND PUSH32 0x8BE0079C531659141344CD1FD0A4F28419497F9722A3DAAFE3B4186F6B6457E0 PUSH1 0x40 MLOAD PUSH1 0x40 MLOAD DUP1 SWAP2 SUB SWAP1 LOG3 POP POP JUMP JUMPDEST PUSH2 0x10CE DUP5 DUP6 PUSH20 0xFFFFFFFFFFFFFFFFFFFFFFFFFFFFFFFFFFFFFFFF AND PUSH4 0x23B872DD DUP7 DUP7 DUP7 PUSH1 0x40 MLOAD PUSH1 0x24 ADD PUSH2 0x1087 SWAP4 SWAP3 SWAP2 SWAP1 PUSH2 0x17C1 JUMP JUMPDEST PUSH1 0x40 MLOAD PUSH1 0x20 DUP2 DUP4 SUB SUB DUP2 MSTORE SWAP1 PUSH1 0x40 MSTORE SWAP2 POP PUSH1 0xE0 SHL PUSH1 0x20 DUP3 ADD DUP1 MLOAD PUSH28 0xFFFFFFFFFFFFFFFFFFFFFFFFFFFFFFFFFFFFFFFFFFFFFFFFFFFFFFFF DUP4 DUP2 DUP4 AND OR DUP4 MSTORE POP POP POP POP PUSH2 0x10D4 JUMP JUMPDEST POP POP POP POP JUMP JUMPDEST PUSH0 DUP1 PUSH1 0x20 PUSH0 DUP5 MLOAD PUSH1 0x20 DUP7 ADD PUSH0 DUP9 GAS CALL DUP1 PUSH2 0x10F3 JUMPI PUSH1 0x40 MLOAD RETURNDATASIZE PUSH0 DUP3 RETURNDATACOPY RETURNDATASIZE DUP2 REVERT JUMPDEST RETURNDATASIZE SWAP3 POP PUSH0 MLOAD SWAP2 POP POP PUSH0 DUP3 EQ PUSH2 0x110C JUMPI PUSH1 0x1 DUP2 EQ ISZERO PUSH2 0x1127 JUMP JUMPDEST PUSH0 DUP5 PUSH20 0xFFFFFFFFFFFFFFFFFFFFFFFFFFFFFFFFFFFFFFFF AND EXTCODESIZE EQ JUMPDEST ISZERO PUSH2 0x1169 JUMPI DUP4 PUSH1 0x40 MLOAD PUSH32 0x5274AFE700000000000000000000000000000000000000000000000000000000 DUP2 MSTORE PUSH1 0x4 ADD PUSH2 0x1160 SWAP2 SWAP1 PUSH2 0x12B3 JUMP JUMPDEST PUSH1 0x40 MLOAD DUP1 SWAP2 SUB SWAP1 REVERT JUMPDEST POP POP POP POP JUMP JUMPDEST PUSH0 CALLER SWAP1 POP SWAP1 JUMP JUMPDEST PUSH0 DUP2 SWAP1 POP SWAP2 SWAP1 POP JUMP JUMPDEST PUSH2 0x1188 DUP2 PUSH2 0x1176 JUMP JUMPDEST DUP3 MSTORE POP POP JUMP JUMPDEST PUSH0 PUSH1 0x20 DUP3 ADD SWAP1 POP PUSH2 0x11A1 PUSH0 DUP4 ADD DUP5 PUSH2 0x117F JUMP JUMPDEST SWAP3 SWAP2 POP POP JUMP JUMPDEST PUSH0 DUP1 REVERT JUMPDEST PUSH0 PUSH20 0xFFFFFFFFFFFFFFFFFFFFFFFFFFFFFFFFFFFFFFFF DUP3 AND SWAP1 POP SWAP2 SWAP1 POP JUMP JUMPDEST PUSH0 PUSH2 0x11D4 DUP3 PUSH2 0x11AB JUMP JUMPDEST SWAP1 POP SWAP2 SWAP1 POP JUMP JUMPDEST PUSH2 0x11E4 DUP2 PUSH2 0x11CA JUMP JUMPDEST DUP2 EQ PUSH2 0x11EE JUMPI PUSH0 DUP1 REVERT JUMPDEST POP JUMP JUMPDEST PUSH0 DUP2 CALLDATALOAD SWAP1 POP PUSH2 0x11FF DUP2 PUSH2 0x11DB JUMP JUMPDEST SWAP3 SWAP2 POP POP JUMP JUMPDEST PUSH0 PUSH1 0x20 DUP3 DUP5 SUB SLT ISZERO PUSH2 0x121A JUMPI PUSH2 0x1219 PUSH2 0x11A7 JUMP JUMPDEST JUMPDEST PUSH0 PUSH2 0x1227 DUP5 DUP3 DUP6 ADD PUSH2 0x11F1 JUMP JUMPDEST SWAP2 POP POP SWAP3 SWAP2 POP POP JUMP JUMPDEST PUSH0 DUP2 SWAP1 POP SWAP2 SWAP1 POP JUMP JUMPDEST PUSH0 PUSH2 0x1253 PUSH2 0x124E PUSH2 0x1249 DUP5 PUSH2 0x11AB JUMP JUMPDEST PUSH2 0x1230 JUMP JUMPDEST PUSH2 0x11AB JUMP JUMPDEST SWAP1 POP SWAP2 SWAP1 POP JUMP JUMPDEST PUSH0 PUSH2 0x1264 DUP3 PUSH2 0x1239 JUMP JUMPDEST SWAP1 POP SWAP2 SWAP1 POP JUMP JUMPDEST PUSH0 PUSH2 0x1275 DUP3 PUSH2 0x125A JUMP JUMPDEST SWAP1 POP SWAP2 SWAP1 POP JUMP JUMPDEST PUSH2 0x1285 DUP2 PUSH2 0x126B JUMP JUMPDEST DUP3 MSTORE POP POP JUMP JUMPDEST PUSH0 PUSH1 0x20 DUP3 ADD SWAP1 POP PUSH2 0x129E PUSH0 DUP4 ADD DUP5 PUSH2 0x127C JUMP JUMPDEST SWAP3 SWAP2 POP POP JUMP JUMPDEST PUSH2 0x12AD DUP2 PUSH2 0x11CA JUMP JUMPDEST DUP3 MSTORE POP POP JUMP JUMPDEST PUSH0 PUSH1 0x20 DUP3 ADD SWAP1 POP PUSH2 0x12C6 PUSH0 DUP4 ADD DUP5 PUSH2 0x12A4 JUMP JUMPDEST SWAP3 SWAP2 POP POP JUMP JUMPDEST PUSH0 PUSH1 0xA0 DUP3 ADD SWAP1 POP PUSH2 0x12DF PUSH0 DUP4 ADD DUP9 PUSH2 0x117F JUMP JUMPDEST PUSH2 0x12EC PUSH1 0x20 DUP4 ADD DUP8 PUSH2 0x117F JUMP JUMPDEST PUSH2 0x12F9 PUSH1 0x40 DUP4 ADD DUP7 PUSH2 0x12A4 JUMP JUMPDEST PUSH2 0x1306 PUSH1 0x60 DUP4 ADD DUP6 PUSH2 0x117F JUMP JUMPDEST PUSH2 0x1313 PUSH1 0x80 DUP4 ADD DUP5 PUSH2 0x117F JUMP JUMPDEST SWAP7 SWAP6 POP POP POP POP POP POP JUMP JUMPDEST PUSH2 0x1326 DUP2 PUSH2 0x1176 JUMP JUMPDEST DUP2 EQ PUSH2 0x1330 JUMPI PUSH0 DUP1 REVERT JUMPDEST POP JUMP JUMPDEST PUSH0 DUP2 CALLDATALOAD SWAP1 POP PUSH2 0x1341 DUP2 PUSH2 0x131D JUMP JUMPDEST SWAP3 SWAP2 POP POP JUMP JUMPDEST PUSH0 DUP1 PUSH1 0x40 DUP4 DUP6 SUB SLT ISZERO PUSH2 0x135D JUMPI PUSH2 0x135C PUSH2 0x11A7 JUMP JUMPDEST JUMPDEST PUSH0 PUSH2 0x136A DUP6 DUP3 DUP7 ADD PUSH2 0x1333 JUMP JUMPDEST SWAP3 POP POP PUSH1 0x20 PUSH2 0x137B DUP6 DUP3 DUP7 ADD PUSH2 0x11F1 JUMP JUMPDEST SWAP2 POP POP SWAP3 POP SWAP3 SWAP1 POP JUMP JUMPDEST PUSH0 PUSH2 0x138F DUP3 PUSH2 0x125A JUMP JUMPDEST SWAP1 POP SWAP2 SWAP1 POP JUMP JUMPDEST PUSH2 0x139F DUP2 PUSH2 0x1385 JUMP JUMPDEST DUP3 MSTORE POP POP JUMP JUMPDEST PUSH0 PUSH1 0x20 DUP3 ADD SWAP1 POP PUSH2 0x13B8 PUSH0 DUP4 ADD DUP5 PUSH2 0x1396 JUMP JUMPDEST SWAP3 SWAP2 POP POP JUMP JUMPDEST PUSH0 DUP3 DUP3 MSTORE PUSH1 0x20 DUP3 ADD SWAP1 POP SWAP3 SWAP2 POP POP JUMP JUMPDEST PUSH32 0x4E6F2062616C616E636500000000000000000000000000000000000000000000 PUSH0 DUP3 ADD MSTORE POP JUMP JUMPDEST PUSH0 PUSH2 0x1402 PUSH1 0xA DUP4 PUSH2 0x13BE JUMP JUMPDEST SWAP2 POP PUSH2 0x140D DUP3 PUSH2 0x13CE JUMP JUMPDEST PUSH1 0x20 DUP3 ADD SWAP1 POP SWAP2 SWAP1 POP JUMP JUMPDEST PUSH0 PUSH1 0x20 DUP3 ADD SWAP1 POP DUP2 DUP2 SUB PUSH0 DUP4 ADD MSTORE PUSH2 0x142F DUP2 PUSH2 0x13F6 JUMP JUMPDEST SWAP1 POP SWAP2 SWAP1 POP JUMP JUMPDEST PUSH0 PUSH1 0x60 DUP3 ADD SWAP1 POP PUSH2 0x1449 PUSH0 DUP4 ADD DUP7 PUSH2 0x117F JUMP JUMPDEST PUSH2 0x1456 PUSH1 0x20 DUP4 ADD DUP6 PUSH2 0x12A4 JUMP JUMPDEST PUSH2 0x1463 PUSH1 0x40 DUP4 ADD DUP5 PUSH2 0x12A4 JUMP JUMPDEST SWAP5 SWAP4 POP POP POP POP JUMP JUMPDEST PUSH0 DUP2 MLOAD SWAP1 POP PUSH2 0x1479 DUP2 PUSH2 0x131D JUMP JUMPDEST SWAP3 SWAP2 POP POP JUMP JUMPDEST PUSH0 PUSH1 0x20 DUP3 DUP5 SUB SLT ISZERO PUSH2 0x1494 JUMPI PUSH2 0x1493 PUSH2 0x11A7 JUMP JUMPDEST JUMPDEST PUSH0 PUSH2 0x14A1 DUP5 DUP3 DUP6 ADD PUSH2 0x146B JUMP JUMPDEST SWAP2 POP POP SWAP3 SWAP2 POP POP JUMP JUMPDEST PUSH32 0x4E487B7100000000000000000000000000000000000000000000000000000000 PUSH0 MSTORE PUSH1 0x11 PUSH1 0x4 MSTORE PUSH1 0x24 PUSH0 REVERT JUMPDEST PUSH0 PUSH2 0x14E1 DUP3 PUSH2 0x1176 JUMP JUMPDEST SWAP2 POP PUSH2 0x14EC DUP4 PUSH2 0x1176 JUMP JUMPDEST SWAP3 POP DUP3 DUP3 ADD SWAP1 POP DUP1 DUP3 GT ISZERO PUSH2 0x1504 JUMPI PUSH2 0x1503 PUSH2 0x14AA JUMP JUMPDEST JUMPDEST SWAP3 SWAP2 POP POP JUMP JUMPDEST PUSH0 PUSH2 0x1514 DUP3 PUSH2 0x1176 JUMP JUMPDEST SWAP2 POP PUSH2 0x151F DUP4 PUSH2 0x1176 JUMP JUMPDEST SWAP3 POP DUP3 DUP3 MUL PUSH2 0x152D DUP2 PUSH2 0x1176 JUMP JUMPDEST SWAP2 POP DUP3 DUP3 DIV DUP5 EQ DUP4 ISZERO OR PUSH2 0x1544 JUMPI PUSH2 0x1543 PUSH2 0x14AA JUMP JUMPDEST JUMPDEST POP SWAP3 SWAP2 POP POP JUMP JUMPDEST PUSH32 0x4E487B7100000000000000000000000000000000000000000000000000000000 PUSH0 MSTORE PUSH1 0x12 PUSH1 0x4 MSTORE PUSH1 0x24 PUSH0 REVERT JUMPDEST PUSH0 PUSH2 0x1582 DUP3 PUSH2 0x1176 JUMP JUMPDEST SWAP2 POP PUSH2 0x158D DUP4 PUSH2 0x1176 JUMP JUMPDEST SWAP3 POP DUP3 PUSH2 0x159D JUMPI PUSH2 0x159C PUSH2 0x154B JUMP JUMPDEST JUMPDEST DUP3 DUP3 DIV SWAP1 POP SWAP3 SWAP2 POP POP JUMP JUMPDEST PUSH0 PUSH2 0x15B2 DUP3 PUSH2 0x1176 JUMP JUMPDEST SWAP2 POP PUSH2 0x15BD DUP4 PUSH2 0x1176 JUMP JUMPDEST SWAP3 POP DUP3 DUP3 SUB SWAP1 POP DUP2 DUP2 GT ISZERO PUSH2 0x15D5 JUMPI PUSH2 0x15D4 PUSH2 0x14AA JUMP JUMPDEST JUMPDEST SWAP3 SWAP2 POP POP JUMP JUMPDEST PUSH32 0x4D696E2031302055534443000000000000000000000000000000000000000000 PUSH0 DUP3 ADD MSTORE POP JUMP JUMPDEST PUSH0 PUSH2 0x160F PUSH1 0xB DUP4 PUSH2 0x13BE JUMP JUMPDEST SWAP2 POP PUSH2 0x161A DUP3 PUSH2 0x15DB JUMP JUMPDEST PUSH1 0x20 DUP3 ADD SWAP1 POP SWAP2 SWAP1 POP JUMP JUMPDEST PUSH0 PUSH1 0x20 DUP3 ADD SWAP1 POP DUP2 DUP2 SUB PUSH0 DUP4 ADD MSTORE PUSH2 0x163C DUP2 PUSH2 0x1603 JUMP JUMPDEST SWAP1 POP SWAP2 SWAP1 POP JUMP JUMPDEST PUSH32 0x4E6F2073656C662D726566657272616C00000000000000000000000000000000 PUSH0 DUP3 ADD MSTORE POP JUMP JUMPDEST PUSH0 PUSH2 0x1677 PUSH1 0x10 DUP4 PUSH2 0x13BE JUMP JUMPDEST SWAP2 POP PUSH2 0x1682 DUP3 PUSH2 0x1643 JUMP JUMPDEST PUSH1 0x20 DUP3 ADD SWAP1 POP SWAP2 SWAP1 POP JUMP JUMPDEST PUSH0 PUSH1 0x20 DUP3 ADD SWAP1 POP DUP2 DUP2 SUB PUSH0 DUP4 ADD MSTORE PUSH2 0x16A4 DUP2 PUSH2 0x166B JUMP JUMPDEST SWAP1 POP SWAP2 SWAP1 POP JUMP JUMPDEST PUSH0 PUSH1 0x40 DUP3 ADD SWAP1 POP PUSH2 0x16BE PUSH0 DUP4 ADD DUP6 PUSH2 0x12A4 JUMP JUMPDEST PUSH2 0x16CB PUSH1 0x20 DUP4 ADD DUP5 PUSH2 0x117F JUMP JUMPDEST SWAP4 SWAP3 POP POP POP JUMP JUMPDEST PUSH0 DUP2 ISZERO ISZERO SWAP1 POP SWAP2 SWAP1 POP JUMP JUMPDEST PUSH2 0x16E6 DUP2 PUSH2 0x16D2 JUMP JUMPDEST DUP2 EQ PUSH2 0x16F0 JUMPI PUSH0 DUP1 REVERT JUMPDEST POP JUMP JUMPDEST PUSH0 DUP2 MLOAD SWAP1 POP PUSH2 0x1701 DUP2 PUSH2 0x16DD JUMP JUMPDEST SWAP3 SWAP2 POP POP JUMP JUMPDEST PUSH0 PUSH1 0x20 DUP3 DUP5 SUB SLT ISZERO PUSH2 0x171C JUMPI PUSH2 0x171B PUSH2 0x11A7 JUMP JUMPDEST JUMPDEST PUSH0 PUSH2 0x1729 DUP5 DUP3 DUP6 ADD PUSH2 0x16F3 JUMP JUMPDEST SWAP2 POP POP SWAP3 SWAP2 POP POP JUMP JUMPDEST PUSH0 PUSH1 0x40 DUP3 ADD SWAP1 POP PUSH2 0x1745 PUSH0 DUP4 ADD DUP6 PUSH2 0x117F JUMP JUMPDEST PUSH2 0x1752 PUSH1 0x20 DUP4 ADD DUP5 PUSH2 0x12A4 JUMP JUMPDEST SWAP4 SWAP3 POP POP POP JUMP JUMPDEST PUSH32 0x5265656E7472616E637947756172643A207265656E7472616E742063616C6C00 PUSH0 DUP3 ADD MSTORE POP JUMP JUMPDEST PUSH0 PUSH2 0x178D PUSH1 0x1F DUP4 PUSH2 0x13BE JUMP JUMPDEST SWAP2 POP PUSH2 0x1798 DUP3 PUSH2 0x1759 JUMP JUMPDEST PUSH1 0x20 DUP3 ADD SWAP1 POP SWAP2 SWAP1 POP JUMP JUMPDEST PUSH0 PUSH1 0x20 DUP3 ADD SWAP1 POP DUP2 DUP2 SUB PUSH0 DUP4 ADD MSTORE PUSH2 0x17BA DUP2 PUSH2 0x1781 JUMP JUMPDEST SWAP1 POP SWAP2 SWAP1 POP JUMP JUMPDEST PUSH0 PUSH1 0x60 DUP3 ADD SWAP1 POP PUSH2 0x17D4 PUSH0 DUP4 ADD DUP7 PUSH2 0x12A4 JUMP JUMPDEST PUSH2 0x17E1 PUSH1 0x20 DUP4 ADD DUP6 PUSH2 0x12A4 JUMP JUMPDEST PUSH2 0x17EE PUSH1 0x40 DUP4 ADD DUP5 PUSH2 0x117F JUMP JUMPDEST SWAP5 SWAP4 POP POP POP POP JUMP INVALID LOG2 PUSH5 0x6970667358 0x22 SLT KECCAK256 CHAINID 0xD9 SWAP4 CALLER 0xBD DELEGATECALL 0xA7 0xB7 PUSH3 0x1B1703 POP 0x5C PREVRANDAO 0x49 0xF6 SHR BALANCE BALANCE SWAP3 0xBB NOT PUSH27 0x35968B07485AD34D64736F6C634300081400330000000000000000 "
				},
				"gasEstimates": {
					"creation": {
						"codeDepositCost": "1237600",
						"executionCost": "infinite",
						"totalCost": "infinite"
					},
					"external": {
						"EARLY_EXIT_PENALTY()": "392",
						"LOCK_TIME()": "393",
						"PROTOCOL_FEE()": "349",
						"REFERRAL_SHARE()": "392",
						"USDC()": "infinite",
						"collectFees()": "infinite",
						"getAccountValue(address)": "infinite",
						"getReferralEarnings(address)": "2925",
						"mUSDC()": "infinite",
						"owner()": "2538",
						"renounceOwnership()": "infinite",
						"totalProtocolFees()": "2491",
						"transferOwnership(address)": "infinite",
						"users(address)": "infinite",
						"zapIn(uint256,address)": "infinite",
						"zapOut()": "infinite"
					}
				},
				"methodIdentifiers": {
					"EARLY_EXIT_PENALTY()": "760a545e",
					"LOCK_TIME()": "413d9c3a",
					"PROTOCOL_FEE()": "0b4501fd",
					"REFERRAL_SHARE()": "b21b5a21",
					"USDC()": "89a30271",
					"collectFees()": "c8796572",
					"getAccountValue(address)": "5ae80951",
					"getReferralEarnings(address)": "5764b7c4",
					"mUSDC()": "f89ec5f5",
					"owner()": "8da5cb5b",
					"renounceOwnership()": "715018a6",
					"totalProtocolFees()": "f526e39a",
					"transferOwnership(address)": "f2fde38b",
					"users(address)": "a87430ba",
					"zapIn(uint256,address)": "dabeaecf",
					"zapOut()": "23544748"
				}
			},
			"storageLayout": {
				"storage": [
					{
						"astId": 8,
						"contract": "contracts/zapyield-mainnet-beta.0.1.4.sol:ZapApyV2Pro",
						"label": "_owner",
						"offset": 0,
						"slot": "0",
						"type": "t_address"
					},
					{
						"astId": 248,
						"contract": "contracts/zapyield-mainnet-beta.0.1.4.sol:ZapApyV2Pro",
						"label": "_status",
						"offset": 0,
						"slot": "1",
						"type": "t_uint256"
					},
					{
						"astId": 968,
						"contract": "contracts/zapyield-mainnet-beta.0.1.4.sol:ZapApyV2Pro",
						"label": "users",
						"offset": 0,
						"slot": "2",
						"type": "t_mapping(t_address,t_struct(UserInfo)963_storage)"
					},
					{
						"astId": 970,
						"contract": "contracts/zapyield-mainnet-beta.0.1.4.sol:ZapApyV2Pro",
						"label": "totalProtocolFees",
						"offset": 0,
						"slot": "3",
						"type": "t_uint256"
					}
				],
				"types": {
					"t_address": {
						"encoding": "inplace",
						"label": "address",
						"numberOfBytes": "20"
					},
					"t_mapping(t_address,t_struct(UserInfo)963_storage)": {
						"encoding": "mapping",
						"key": "t_address",
						"label": "mapping(address => struct ZapApyV2Pro.UserInfo)",
						"numberOfBytes": "32",
						"value": "t_struct(UserInfo)963_storage"
					},
					"t_struct(UserInfo)963_storage": {
						"encoding": "inplace",
						"label": "struct ZapApyV2Pro.UserInfo",
						"members": [
							{
								"astId": 954,
								"contract": "contracts/zapyield-mainnet-beta.0.1.4.sol:ZapApyV2Pro",
								"label": "principal",
								"offset": 0,
								"slot": "0",
								"type": "t_uint256"
							},
							{
								"astId": 956,
								"contract": "contracts/zapyield-mainnet-beta.0.1.4.sol:ZapApyV2Pro",
								"label": "shareBalance",
								"offset": 0,
								"slot": "1",
								"type": "t_uint256"
							},
							{
								"astId": 958,
								"contract": "contracts/zapyield-mainnet-beta.0.1.4.sol:ZapApyV2Pro",
								"label": "referrer",
								"offset": 0,
								"slot": "2",
								"type": "t_address"
							},
							{
								"astId": 960,
								"contract": "contracts/zapyield-mainnet-beta.0.1.4.sol:ZapApyV2Pro",
								"label": "totalReferralEarnings",
								"offset": 0,
								"slot": "3",
								"type": "t_uint256"
							},
							{
								"astId": 962,
								"contract": "contracts/zapyield-mainnet-beta.0.1.4.sol:ZapApyV2Pro",
								"label": "lastDepositTime",
								"offset": 0,
								"slot": "4",
								"type": "t_uint256"
							}
						],
						"numberOfBytes": "160"
					},
					"t_uint256": {
						"encoding": "inplace",
						"label": "uint256",
						"numberOfBytes": "32"
					}
				}
			},
			"userdoc": {
				"kind": "user",
				"methods": {},
				"version": 1
			}
		}
	}
}