{
	"contracts/zapyield-mainnet-beta.0.1.5.sol": {
		"ZapApyV2Pro": {
			"abi": [
				{
					"inputs": [],
					"stateMutability": "nonpayable",
					"type": "constructor"
				},
				{
					"inputs": [
						{
							"internalType": "address",
							"name": "owner",
							"type": "address"
						}
					],
					"name": "OwnableInvalidOwner",
					"type": "error"
				},
				{
					"inputs": [
						{
							"internalType": "address",
							"name": "account",
							"type": "address"
						}
					],
					"name": "OwnableUnauthorizedAccount",
					"type": "error"
				},
				{
					"inputs": [
						{
							"internalType": "address",
							"name": "token",
							"type": "address"
						}
					],
					"name": "SafeERC20FailedOperation",
					"type": "error"
				},
				{
					"anonymous": false,
					"inputs": [
						{
							"indexed": true,
							"internalType": "address",
							"name": "previousOwner",
							"type": "address"
						},
						{
							"indexed": true,
							"internalType": "address",
							"name": "newOwner",
							"type": "address"
						}
					],
					"name": "OwnershipTransferred",
					"type": "event"
				},
				{
					"anonymous": false,
					"inputs": [
						{
							"indexed": true,
							"internalType": "address",
							"name": "user",
							"type": "address"
						},
						{
							"indexed": false,
							"internalType": "uint256",
							"name": "amount",
							"type": "uint256"
						},
						{
							"indexed": true,
							"internalType": "address",
							"name": "referrer",
							"type": "address"
						}
					],
					"name": "ZapIn",
					"type": "event"
				},
				{
					"inputs": [],
					"name": "EARLY_EXIT_PENALTY",
					"outputs": [
						{
							"internalType": "uint256",
							"name": "",
							"type": "uint256"
						}
					],
					"stateMutability": "view",
					"type": "function"
				},
				{
					"inputs": [],
					"name": "LOCK_TIME",
					"outputs": [
						{
							"internalType": "uint256",
							"name": "",
							"type": "uint256"
						}
					],
					"stateMutability": "view",
					"type": "function"
				},
				{
					"inputs": [],
					"name": "PROTOCOL_FEE",
					"outputs": [
						{
							"internalType": "uint256",
							"name": "",
							"type": "uint256"
						}
					],
					"stateMutability": "view",
					"type": "function"
				},
				{
					"inputs": [],
					"name": "USDC",
					"outputs": [
						{
							"internalType": "contract IERC20",
							"name": "",
							"type": "address"
						}
					],
					"stateMutability": "view",
					"type": "function"
				},
				{
					"inputs": [],
					"name": "collectFees",
					"outputs": [],
					"stateMutability": "nonpayable",
					"type": "function"
				},
				{
					"inputs": [
						{
							"internalType": "address",
							"name": "_user",
							"type": "address"
						}
					],
					"name": "getAccountValue",
					"outputs": [
						{
							"internalType": "uint256",
							"name": "",
							"type": "uint256"
						}
					],
					"stateMutability": "view",
					"type": "function"
				},
				{
					"inputs": [
						{
							"internalType": "address",
							"name": "_user",
							"type": "address"
						}
					],
					"name": "getReferralEarnings",
					"outputs": [
						{
							"internalType": "uint256",
							"name": "",
							"type": "uint256"
						}
					],
					"stateMutability": "view",
					"type": "function"
				},
				{
					"inputs": [
						{
							"internalType": "uint256",
							"name": "_principal",
							"type": "uint256"
						}
					],
					"name": "getReferralRate",
					"outputs": [
						{
							"internalType": "uint256",
							"name": "",
							"type": "uint256"
						}
					],
					"stateMutability": "pure",
					"type": "function"
				},
				{
					"inputs": [],
					"name": "mUSDC",
					"outputs": [
						{
							"internalType": "contract IMorphoVault",
							"name": "",
							"type": "address"
						}
					],
					"stateMutability": "view",
					"type": "function"
				},
				{
					"inputs": [],
					"name": "owner",
					"outputs": [
						{
							"internalType": "address",
							"name": "",
							"type": "address"
						}
					],
					"stateMutability": "view",
					"type": "function"
				},
				{
					"inputs": [],
					"name": "renounceOwnership",
					"outputs": [],
					"stateMutability": "nonpayable",
					"type": "function"
				},
				{
					"inputs": [],
					"name": "totalProtocolFees",
					"outputs": [
						{
							"internalType": "uint256",
							"name": "",
							"type": "uint256"
						}
					],
					"stateMutability": "view",
					"type": "function"
				},
				{
					"inputs": [
						{
							"internalType": "address",
							"name": "newOwner",
							"type": "address"
						}
					],
					"name": "transferOwnership",
					"outputs": [],
					"stateMutability": "nonpayable",
					"type": "function"
				},
				{
					"inputs": [
						{
							"internalType": "address",
							"name": "",
							"type": "address"
						}
					],
					"name": "users",
					"outputs": [
						{
							"internalType": "uint256",
							"name": "principal",
							"type": "uint256"
						},
						{
							"internalType": "uint256",
							"name": "shareBalance",
							"type": "uint256"
						},
						{
							"internalType": "address",
							"name": "referrer",
							"type": "address"
						},
						{
							"internalType": "uint256",
							"name": "totalReferralEarnings",
							"type": "uint256"
						},
						{
							"internalType": "uint256",
							"name": "lastDepositTime",
							"type": "uint256"
						}
					],
					"stateMutability": "view",
					"type": "function"
				},
				{
					"inputs": [
						{
							"internalType": "uint256",
							"name": "_amount",
							"type": "uint256"
						},
						{
							"internalType": "address",
							"name": "_referrer",
							"type": "address"
						}
					],
					"name": "zapIn",
					"outputs": [],
					"stateMutability": "nonpayable",
					"type": "function"
				},
				{
					"inputs": [],
					"name": "zapOut",
					"outputs": [],
					"stateMutability": "nonpayable",
					"type": "function"
				}
			],
			"devdoc": {
				"errors": {
					"OwnableInvalidOwner(address)": [
						{
							"details": "The owner is not a valid owner account. (eg. `address(0)`)"
						}
					],
					"OwnableUnauthorizedAccount(address)": [
						{
							"details": "The caller account is not authorized to perform an operation."
						}
					],
					"SafeERC20FailedOperation(address)": [
						{
							"details": "An operation with an ERC-20 token failed."
						}
					]
				},
				"kind": "dev",
				"methods": {
					"owner()": {
						"details": "Returns the address of the current owner."
					},
					"renounceOwnership()": {
						"details": "Leaves the contract without owner. It will not be possible to call `onlyOwner` functions. Can only be called by the current owner. NOTE: Renouncing ownership will leave the contract without an owner, thereby disabling any functionality that is only available to the owner."
					},
					"transferOwnership(address)": {
						"details": "Transfers ownership of the contract to a new account (`newOwner`). Can only be called by the current owner."
					}
				},
				"version": 1
			},
			"evm": {
				"assembly": "    /* \"contracts/zapyield-mainnet-beta.0.1.5.sol\":598:5088  contract ZapApyV2Pro is Ownable, ReentrancyGuard {... */\n  mstore(0x40, 0x80)\n    /* \"contracts/zapyield-mainnet-beta.0.1.5.sol\":1471:1507  constructor() Ownable(msg.sender) {} */\n  callvalue\n  dup1\n  iszero\n  tag_1\n  jumpi\n  0x00\n  dup1\n  revert\ntag_1:\n  pop\n    /* \"contracts/zapyield-mainnet-beta.0.1.5.sol\":1493:1503  msg.sender */\n  caller\n    /* \"@openzeppelin/contracts/access/Ownable.sol\":1297:1298  0 */\n  0x00\n    /* \"@openzeppelin/contracts/access/Ownable.sol\":1273:1299  initialOwner == address(0) */\n  0xffffffffffffffffffffffffffffffffffffffff\n  and\n    /* \"@openzeppelin/contracts/access/Ownable.sol\":1273:1285  initialOwner */\n  dup2\n    /* \"@openzeppelin/contracts/access/Ownable.sol\":1273:1299  initialOwner == address(0) */\n  0xffffffffffffffffffffffffffffffffffffffff\n  and\n  sub\n    /* \"@openzeppelin/contracts/access/Ownable.sol\":1269:1364  if (initialOwner == address(0)) {... */\n  tag_6\n  jumpi\n    /* \"@openzeppelin/contracts/access/Ownable.sol\":1350:1351  0 */\n  0x00\n    /* \"@openzeppelin/contracts/access/Ownable.sol\":1322:1353  OwnableInvalidOwner(address(0)) */\n  mload(0x40)\n  0x1e4fbdf700000000000000000000000000000000000000000000000000000000\n  dup2\n  mstore\n  0x04\n  add\n  tag_7\n  swap2\n  swap1\n  tag_8\n  jump\t// in\ntag_7:\n  mload(0x40)\n  dup1\n  swap2\n  sub\n  swap1\n  revert\n    /* \"@openzeppelin/contracts/access/Ownable.sol\":1269:1364  if (initialOwner == address(0)) {... */\ntag_6:\n    /* \"@openzeppelin/contracts/access/Ownable.sol\":1373:1405  _transferOwnership(initialOwner) */\n  tag_9\n    /* \"@openzeppelin/contracts/access/Ownable.sol\":1392:1404  initialOwner */\n  dup2\n    /* \"@openzeppelin/contracts/access/Ownable.sol\":1373:1391  _transferOwnership */\n  shl(0x20, tag_10)\n    /* \"@openzeppelin/contracts/access/Ownable.sol\":1373:1405  _transferOwnership(initialOwner) */\n  0x20\n  shr\n  jump\t// in\ntag_9:\n    /* \"@openzeppelin/contracts/access/Ownable.sol\":1225:1412  constructor(address initialOwner) {... */\n  pop\n    /* \"@openzeppelin/contracts/security/ReentrancyGuard.sol\":1716:1717  1 */\n  0x01\n    /* \"@openzeppelin/contracts/security/ReentrancyGuard.sol\":1821:1828  _status */\n  dup1\n    /* \"@openzeppelin/contracts/security/ReentrancyGuard.sol\":1821:1843  _status = _NOT_ENTERED */\n  dup2\n  swap1\n  sstore\n  pop\n    /* \"contracts/zapyield-mainnet-beta.0.1.5.sol\":598:5088  contract ZapApyV2Pro is Ownable, ReentrancyGuard {... */\n  jump(tag_13)\n    /* \"@openzeppelin/contracts/access/Ownable.sol\":2912:3099  function _transferOwnership(address newOwner) internal virtual {... */\ntag_10:\n    /* \"@openzeppelin/contracts/access/Ownable.sol\":2985:3001  address oldOwner */\n  0x00\n    /* \"@openzeppelin/contracts/access/Ownable.sol\":3004:3010  _owner */\n  dup1\n  0x00\n  swap1\n  sload\n  swap1\n  0x0100\n  exp\n  swap1\n  div\n  0xffffffffffffffffffffffffffffffffffffffff\n  and\n    /* \"@openzeppelin/contracts/access/Ownable.sol\":2985:3010  address oldOwner = _owner */\n  swap1\n  pop\n    /* \"@openzeppelin/contracts/access/Ownable.sol\":3029:3037  newOwner */\n  dup2\n    /* \"@openzeppelin/contracts/access/Ownable.sol\":3020:3026  _owner */\n  0x00\n  dup1\n    /* \"@openzeppelin/contracts/access/Ownable.sol\":3020:3037  _owner = newOwner */\n  0x0100\n  exp\n  dup2\n  sload\n  dup2\n  0xffffffffffffffffffffffffffffffffffffffff\n  mul\n  not\n  and\n  swap1\n  dup4\n  0xffffffffffffffffffffffffffffffffffffffff\n  and\n  mul\n  or\n  swap1\n  sstore\n  pop\n    /* \"@openzeppelin/contracts/access/Ownable.sol\":3083:3091  newOwner */\n  dup2\n    /* \"@openzeppelin/contracts/access/Ownable.sol\":3052:3092  OwnershipTransferred(oldOwner, newOwner) */\n  0xffffffffffffffffffffffffffffffffffffffff\n  and\n    /* \"@openzeppelin/contracts/access/Ownable.sol\":3073:3081  oldOwner */\n  dup2\n    /* \"@openzeppelin/contracts/access/Ownable.sol\":3052:3092  OwnershipTransferred(oldOwner, newOwner) */\n  0xffffffffffffffffffffffffffffffffffffffff\n  and\n  0x8be0079c531659141344cd1fd0a4f28419497f9722a3daafe3b4186f6b6457e0\n  mload(0x40)\n  mload(0x40)\n  dup1\n  swap2\n  sub\n  swap1\n  log3\n    /* \"@openzeppelin/contracts/access/Ownable.sol\":2975:3099  {... */\n  pop\n    /* \"@openzeppelin/contracts/access/Ownable.sol\":2912:3099  function _transferOwnership(address newOwner) internal virtual {... */\n  pop\n  jump\t// out\n    /* \"#utility.yul\":7:133   */\ntag_15:\n    /* \"#utility.yul\":44:51   */\n  0x00\n    /* \"#utility.yul\":84:126   */\n  0xffffffffffffffffffffffffffffffffffffffff\n    /* \"#utility.yul\":77:82   */\n  dup3\n    /* \"#utility.yul\":73:127   */\n  and\n    /* \"#utility.yul\":62:127   */\n  swap1\n  pop\n    /* \"#utility.yul\":7:133   */\n  swap2\n  swap1\n  pop\n  jump\t// out\n    /* \"#utility.yul\":139:235   */\ntag_16:\n    /* \"#utility.yul\":176:183   */\n  0x00\n    /* \"#utility.yul\":205:229   */\n  tag_21\n    /* \"#utility.yul\":223:228   */\n  dup3\n    /* \"#utility.yul\":205:229   */\n  tag_15\n  jump\t// in\ntag_21:\n    /* \"#utility.yul\":194:229   */\n  swap1\n  pop\n    /* \"#utility.yul\":139:235   */\n  swap2\n  swap1\n  pop\n  jump\t// out\n    /* \"#utility.yul\":241:359   */\ntag_17:\n    /* \"#utility.yul\":328:352   */\n  tag_23\n    /* \"#utility.yul\":346:351   */\n  dup2\n    /* \"#utility.yul\":328:352   */\n  tag_16\n  jump\t// in\ntag_23:\n    /* \"#utility.yul\":323:326   */\n  dup3\n    /* \"#utility.yul\":316:353   */\n  mstore\n    /* \"#utility.yul\":241:359   */\n  pop\n  pop\n  jump\t// out\n    /* \"#utility.yul\":365:587   */\ntag_8:\n    /* \"#utility.yul\":458:462   */\n  0x00\n    /* \"#utility.yul\":496:498   */\n  0x20\n    /* \"#utility.yul\":485:494   */\n  dup3\n    /* \"#utility.yul\":481:499   */\n  add\n    /* \"#utility.yul\":473:499   */\n  swap1\n  pop\n    /* \"#utility.yul\":509:580   */\n  tag_25\n    /* \"#utility.yul\":577:578   */\n  0x00\n    /* \"#utility.yul\":566:575   */\n  dup4\n    /* \"#utility.yul\":562:579   */\n  add\n    /* \"#utility.yul\":553:559   */\n  dup5\n    /* \"#utility.yul\":509:580   */\n  tag_17\n  jump\t// in\ntag_25:\n    /* \"#utility.yul\":365:587   */\n  swap3\n  swap2\n  pop\n  pop\n  jump\t// out\n    /* \"contracts/zapyield-mainnet-beta.0.1.5.sol\":598:5088  contract ZapApyV2Pro is Ownable, ReentrancyGuard {... */\ntag_13:\n  dataSize(sub_0)\n  dup1\n  dataOffset(sub_0)\n  0x00\n  codecopy\n  0x00\n  return\nstop\n\nsub_0: assembly {\n        /* \"contracts/zapyield-mainnet-beta.0.1.5.sol\":598:5088  contract ZapApyV2Pro is Ownable, ReentrancyGuard {... */\n      mstore(0x40, 0x80)\n      callvalue\n      dup1\n      iszero\n      tag_1\n      jumpi\n      0x00\n      dup1\n      revert\n    tag_1:\n      pop\n      jumpi(tag_2, lt(calldatasize, 0x04))\n      shr(0xe0, calldataload(0x00))\n      dup1\n      0x89a30271\n      gt\n      tag_19\n      jumpi\n      dup1\n      0xdabeaecf\n      gt\n      tag_20\n      jumpi\n      dup1\n      0xdabeaecf\n      eq\n      tag_15\n      jumpi\n      dup1\n      0xf2fde38b\n      eq\n      tag_16\n      jumpi\n      dup1\n      0xf526e39a\n      eq\n      tag_17\n      jumpi\n      dup1\n      0xf89ec5f5\n      eq\n      tag_18\n      jumpi\n      jump(tag_2)\n    tag_20:\n      dup1\n      0x89a30271\n      eq\n      tag_11\n      jumpi\n      dup1\n      0x8da5cb5b\n      eq\n      tag_12\n      jumpi\n      dup1\n      0xa87430ba\n      eq\n      tag_13\n      jumpi\n      dup1\n      0xc8796572\n      eq\n      tag_14\n      jumpi\n      jump(tag_2)\n    tag_19:\n      dup1\n      0x5764b7c4\n      gt\n      tag_21\n      jumpi\n      dup1\n      0x5764b7c4\n      eq\n      tag_7\n      jumpi\n      dup1\n      0x5ae80951\n      eq\n      tag_8\n      jumpi\n      dup1\n      0x715018a6\n      eq\n      tag_9\n      jumpi\n      dup1\n      0x760a545e\n      eq\n      tag_10\n      jumpi\n      jump(tag_2)\n    tag_21:\n      dup1\n      0x0b4501fd\n      eq\n      tag_3\n      jumpi\n      dup1\n      0x23544748\n      eq\n      tag_4\n      jumpi\n      dup1\n      0x413d9c3a\n      eq\n      tag_5\n      jumpi\n      dup1\n      0x52e21f29\n      eq\n      tag_6\n      jumpi\n    tag_2:\n      0x00\n      dup1\n      revert\n        /* \"contracts/zapyield-mainnet-beta.0.1.5.sol\":874:914  uint256 public constant PROTOCOL_FEE = 5 */\n    tag_3:\n      tag_22\n      tag_23\n      jump\t// in\n    tag_22:\n      mload(0x40)\n      tag_24\n      swap2\n      swap1\n      tag_25\n      jump\t// in\n    tag_24:\n      mload(0x40)\n      dup1\n      swap2\n      sub\n      swap1\n      return\n        /* \"contracts/zapyield-mainnet-beta.0.1.5.sol\":2718:4622  function zapOut() external nonReentrant {... */\n    tag_4:\n      tag_26\n      tag_27\n      jump\t// in\n    tag_26:\n      stop\n        /* \"contracts/zapyield-mainnet-beta.0.1.5.sol\":939:983  uint256 public constant LOCK_TIME = 76 hours */\n    tag_5:\n      tag_28\n      tag_29\n      jump\t// in\n    tag_28:\n      mload(0x40)\n      tag_30\n      swap2\n      swap1\n      tag_25\n      jump\t// in\n    tag_30:\n      mload(0x40)\n      dup1\n      swap2\n      sub\n      swap1\n      return\n        /* \"contracts/zapyield-mainnet-beta.0.1.5.sol\":1552:1968  function getReferralRate(uint256 _principal) public pure returns (uint256) {... */\n    tag_6:\n      tag_31\n      0x04\n      dup1\n      calldatasize\n      sub\n      dup2\n      add\n      swap1\n      tag_32\n      swap2\n      swap1\n      tag_33\n      jump\t// in\n    tag_32:\n      tag_34\n      jump\t// in\n    tag_31:\n      mload(0x40)\n      tag_35\n      swap2\n      swap1\n      tag_25\n      jump\t// in\n    tag_35:\n      mload(0x40)\n      dup1\n      swap2\n      sub\n      swap1\n      return\n        /* \"contracts/zapyield-mainnet-beta.0.1.5.sol\":4778:4912  function getReferralEarnings(address _user) external view returns (uint256) {... */\n    tag_7:\n      tag_36\n      0x04\n      dup1\n      calldatasize\n      sub\n      dup2\n      add\n      swap1\n      tag_37\n      swap2\n      swap1\n      tag_38\n      jump\t// in\n    tag_37:\n      tag_39\n      jump\t// in\n    tag_36:\n      mload(0x40)\n      tag_40\n      swap2\n      swap1\n      tag_25\n      jump\t// in\n    tag_40:\n      mload(0x40)\n      dup1\n      swap2\n      sub\n      swap1\n      return\n        /* \"contracts/zapyield-mainnet-beta.0.1.5.sol\":4628:4772  function getAccountValue(address _user) external view returns (uint256) {... */\n    tag_8:\n      tag_41\n      0x04\n      dup1\n      calldatasize\n      sub\n      dup2\n      add\n      swap1\n      tag_42\n      swap2\n      swap1\n      tag_38\n      jump\t// in\n    tag_42:\n      tag_43\n      jump\t// in\n    tag_41:\n      mload(0x40)\n      tag_44\n      swap2\n      swap1\n      tag_25\n      jump\t// in\n    tag_44:\n      mload(0x40)\n      dup1\n      swap2\n      sub\n      swap1\n      return\n        /* \"@openzeppelin/contracts/access/Ownable.sol\":2293:2394  function renounceOwnership() public virtual onlyOwner {... */\n    tag_9:\n      tag_45\n      tag_46\n      jump\t// in\n    tag_45:\n      stop\n        /* \"contracts/zapyield-mainnet-beta.0.1.5.sol\":989:1035  uint256 public constant EARLY_EXIT_PENALTY = 1 */\n    tag_10:\n      tag_47\n      tag_48\n      jump\t// in\n    tag_47:\n      mload(0x40)\n      tag_49\n      swap2\n      swap1\n      tag_25\n      jump\t// in\n    tag_49:\n      mload(0x40)\n      dup1\n      swap2\n      sub\n      swap1\n      return\n        /* \"contracts/zapyield-mainnet-beta.0.1.5.sol\":686:766  IERC20 public constant USDC = IERC20(0x833589fCD6eDb6E08f4c7C32D4f71b54bdA02913) */\n    tag_11:\n      tag_50\n      tag_51\n      jump\t// in\n    tag_50:\n      mload(0x40)\n      tag_52\n      swap2\n      swap1\n      tag_53\n      jump\t// in\n    tag_52:\n      mload(0x40)\n      dup1\n      swap2\n      sub\n      swap1\n      return\n        /* \"@openzeppelin/contracts/access/Ownable.sol\":1638:1723  function owner() public view virtual returns (address) {... */\n    tag_12:\n      tag_54\n      tag_55\n      jump\t// in\n    tag_54:\n      mload(0x40)\n      tag_56\n      swap2\n      swap1\n      tag_57\n      jump\t// in\n    tag_56:\n      mload(0x40)\n      dup1\n      swap2\n      sub\n      swap1\n      return\n        /* \"contracts/zapyield-mainnet-beta.0.1.5.sol\":1247:1288  mapping(address => UserInfo) public users */\n    tag_13:\n      tag_58\n      0x04\n      dup1\n      calldatasize\n      sub\n      dup2\n      add\n      swap1\n      tag_59\n      swap2\n      swap1\n      tag_38\n      jump\t// in\n    tag_59:\n      tag_60\n      jump\t// in\n    tag_58:\n      mload(0x40)\n      tag_61\n      swap6\n      swap5\n      swap4\n      swap3\n      swap2\n      swap1\n      tag_62\n      jump\t// in\n    tag_61:\n      mload(0x40)\n      dup1\n      swap2\n      sub\n      swap1\n      return\n        /* \"contracts/zapyield-mainnet-beta.0.1.5.sol\":4918:5086  function collectFees() external onlyOwner {... */\n    tag_14:\n      tag_63\n      tag_64\n      jump\t// in\n    tag_63:\n      stop\n        /* \"contracts/zapyield-mainnet-beta.0.1.5.sol\":1974:2712  function zapIn(uint256 _amount, address _referrer) external nonReentrant {... */\n    tag_15:\n      tag_65\n      0x04\n      dup1\n      calldatasize\n      sub\n      dup2\n      add\n      swap1\n      tag_66\n      swap2\n      swap1\n      tag_67\n      jump\t// in\n    tag_66:\n      tag_68\n      jump\t// in\n    tag_65:\n      stop\n        /* \"@openzeppelin/contracts/access/Ownable.sol\":2543:2758  function transferOwnership(address newOwner) public virtual onlyOwner {... */\n    tag_16:\n      tag_69\n      0x04\n      dup1\n      calldatasize\n      sub\n      dup2\n      add\n      swap1\n      tag_70\n      swap2\n      swap1\n      tag_38\n      jump\t// in\n    tag_70:\n      tag_71\n      jump\t// in\n    tag_69:\n      stop\n        /* \"contracts/zapyield-mainnet-beta.0.1.5.sol\":1294:1326  uint256 public totalProtocolFees */\n    tag_17:\n      tag_72\n      tag_73\n      jump\t// in\n    tag_72:\n      mload(0x40)\n      tag_74\n      swap2\n      swap1\n      tag_25\n      jump\t// in\n    tag_74:\n      mload(0x40)\n      dup1\n      swap2\n      sub\n      swap1\n      return\n        /* \"contracts/zapyield-mainnet-beta.0.1.5.sol\":773:866  IMorphoVault public constant mUSDC = IMorphoVault(0xc1256Ae5FF1cf2719D4937adb3bbCCab2E00A2Ca) */\n    tag_18:\n      tag_75\n      tag_76\n      jump\t// in\n    tag_75:\n      mload(0x40)\n      tag_77\n      swap2\n      swap1\n      tag_78\n      jump\t// in\n    tag_77:\n      mload(0x40)\n      dup1\n      swap2\n      sub\n      swap1\n      return\n        /* \"contracts/zapyield-mainnet-beta.0.1.5.sol\":874:914  uint256 public constant PROTOCOL_FEE = 5 */\n    tag_23:\n        /* \"contracts/zapyield-mainnet-beta.0.1.5.sol\":913:914  5 */\n      0x05\n        /* \"contracts/zapyield-mainnet-beta.0.1.5.sol\":874:914  uint256 public constant PROTOCOL_FEE = 5 */\n      dup2\n      jump\t// out\n        /* \"contracts/zapyield-mainnet-beta.0.1.5.sol\":2718:4622  function zapOut() external nonReentrant {... */\n    tag_27:\n        /* \"@openzeppelin/contracts/security/ReentrancyGuard.sol\":2261:2282  _nonReentrantBefore() */\n      tag_80\n        /* \"@openzeppelin/contracts/security/ReentrancyGuard.sol\":2261:2280  _nonReentrantBefore */\n      tag_81\n        /* \"@openzeppelin/contracts/security/ReentrancyGuard.sol\":2261:2282  _nonReentrantBefore() */\n      jump\t// in\n    tag_80:\n        /* \"contracts/zapyield-mainnet-beta.0.1.5.sol\":2768:2789  UserInfo storage user */\n      0x00\n        /* \"contracts/zapyield-mainnet-beta.0.1.5.sol\":2792:2797  users */\n      0x02\n        /* \"contracts/zapyield-mainnet-beta.0.1.5.sol\":2792:2809  users[msg.sender] */\n      0x00\n        /* \"contracts/zapyield-mainnet-beta.0.1.5.sol\":2798:2808  msg.sender */\n      caller\n        /* \"contracts/zapyield-mainnet-beta.0.1.5.sol\":2792:2809  users[msg.sender] */\n      0xffffffffffffffffffffffffffffffffffffffff\n      and\n      0xffffffffffffffffffffffffffffffffffffffff\n      and\n      dup2\n      mstore\n      0x20\n      add\n      swap1\n      dup2\n      mstore\n      0x20\n      add\n      0x00\n      keccak256\n        /* \"contracts/zapyield-mainnet-beta.0.1.5.sol\":2768:2809  UserInfo storage user = users[msg.sender] */\n      swap1\n      pop\n        /* \"contracts/zapyield-mainnet-beta.0.1.5.sol\":2847:2848  0 */\n      0x00\n        /* \"contracts/zapyield-mainnet-beta.0.1.5.sol\":2827:2831  user */\n      dup2\n        /* \"contracts/zapyield-mainnet-beta.0.1.5.sol\":2827:2844  user.shareBalance */\n      0x01\n      add\n      sload\n        /* \"contracts/zapyield-mainnet-beta.0.1.5.sol\":2827:2848  user.shareBalance > 0 */\n      gt\n        /* \"contracts/zapyield-mainnet-beta.0.1.5.sol\":2819:2863  require(user.shareBalance > 0, \"No balance\") */\n      tag_83\n      jumpi\n      mload(0x40)\n      0x08c379a000000000000000000000000000000000000000000000000000000000\n      dup2\n      mstore\n      0x04\n      add\n      tag_84\n      swap1\n      tag_85\n      jump\t// in\n    tag_84:\n      mload(0x40)\n      dup1\n      swap2\n      sub\n      swap1\n      revert\n    tag_83:\n        /* \"contracts/zapyield-mainnet-beta.0.1.5.sol\":2874:2888  uint256 shares */\n      0x00\n        /* \"contracts/zapyield-mainnet-beta.0.1.5.sol\":2891:2895  user */\n      dup2\n        /* \"contracts/zapyield-mainnet-beta.0.1.5.sol\":2891:2908  user.shareBalance */\n      0x01\n      add\n      sload\n        /* \"contracts/zapyield-mainnet-beta.0.1.5.sol\":2874:2908  uint256 shares = user.shareBalance */\n      swap1\n      pop\n        /* \"contracts/zapyield-mainnet-beta.0.1.5.sol\":2918:2935  uint256 principal */\n      0x00\n        /* \"contracts/zapyield-mainnet-beta.0.1.5.sol\":2938:2942  user */\n      dup3\n        /* \"contracts/zapyield-mainnet-beta.0.1.5.sol\":2938:2952  user.principal */\n      0x00\n      add\n      sload\n        /* \"contracts/zapyield-mainnet-beta.0.1.5.sol\":2918:2952  uint256 principal = user.principal */\n      swap1\n      pop\n        /* \"contracts/zapyield-mainnet-beta.0.1.5.sol\":2962:2981  uint256 depositTime */\n      0x00\n        /* \"contracts/zapyield-mainnet-beta.0.1.5.sol\":2984:2988  user */\n      dup4\n        /* \"contracts/zapyield-mainnet-beta.0.1.5.sol\":2984:3004  user.lastDepositTime */\n      0x04\n      add\n      sload\n        /* \"contracts/zapyield-mainnet-beta.0.1.5.sol\":2962:3004  uint256 depositTime = user.lastDepositTime */\n      swap1\n      pop\n        /* \"contracts/zapyield-mainnet-beta.0.1.5.sol\":3014:3029  address refAddr */\n      0x00\n        /* \"contracts/zapyield-mainnet-beta.0.1.5.sol\":3032:3036  user */\n      dup5\n        /* \"contracts/zapyield-mainnet-beta.0.1.5.sol\":3032:3045  user.referrer */\n      0x02\n      add\n      0x00\n      swap1\n      sload\n      swap1\n      0x0100\n      exp\n      swap1\n      div\n      0xffffffffffffffffffffffffffffffffffffffff\n      and\n        /* \"contracts/zapyield-mainnet-beta.0.1.5.sol\":3014:3045  address refAddr = user.referrer */\n      swap1\n      pop\n        /* \"contracts/zapyield-mainnet-beta.0.1.5.sol\":3076:3077  0 */\n      0x00\n        /* \"contracts/zapyield-mainnet-beta.0.1.5.sol\":3056:3060  user */\n      dup6\n        /* \"contracts/zapyield-mainnet-beta.0.1.5.sol\":3056:3073  user.shareBalance */\n      0x01\n      add\n        /* \"contracts/zapyield-mainnet-beta.0.1.5.sol\":3056:3077  user.shareBalance = 0 */\n      dup2\n      swap1\n      sstore\n      pop\n        /* \"contracts/zapyield-mainnet-beta.0.1.5.sol\":3104:3105  0 */\n      0x00\n        /* \"contracts/zapyield-mainnet-beta.0.1.5.sol\":3087:3091  user */\n      dup6\n        /* \"contracts/zapyield-mainnet-beta.0.1.5.sol\":3087:3101  user.principal */\n      0x00\n      add\n        /* \"contracts/zapyield-mainnet-beta.0.1.5.sol\":3087:3105  user.principal = 0 */\n      dup2\n      swap1\n      sstore\n      pop\n        /* \"contracts/zapyield-mainnet-beta.0.1.5.sol\":823:865  0xc1256Ae5FF1cf2719D4937adb3bbCCab2E00A2Ca */\n      0xc1256ae5ff1cf2719d4937adb3bbccab2e00a2ca\n        /* \"contracts/zapyield-mainnet-beta.0.1.5.sol\":3116:3128  mUSDC.redeem */\n      0xffffffffffffffffffffffffffffffffffffffff\n      and\n      0xba087652\n        /* \"contracts/zapyield-mainnet-beta.0.1.5.sol\":3129:3135  shares */\n      dup6\n        /* \"contracts/zapyield-mainnet-beta.0.1.5.sol\":3145:3149  this */\n      address\n        /* \"contracts/zapyield-mainnet-beta.0.1.5.sol\":3160:3164  this */\n      address\n        /* \"contracts/zapyield-mainnet-beta.0.1.5.sol\":3116:3166  mUSDC.redeem(shares, address(this), address(this)) */\n      mload(0x40)\n      dup5\n      0xffffffff\n      and\n      0xe0\n      shl\n      dup2\n      mstore\n      0x04\n      add\n      tag_86\n      swap4\n      swap3\n      swap2\n      swap1\n      tag_87\n      jump\t// in\n    tag_86:\n      0x20\n      mload(0x40)\n      dup1\n      dup4\n      sub\n      dup2\n      0x00\n      dup8\n      gas\n      call\n      iszero\n      dup1\n      iszero\n      tag_89\n      jumpi\n      returndatasize\n      0x00\n      dup1\n      returndatacopy\n      revert(0x00, returndatasize)\n    tag_89:\n      pop\n      pop\n      pop\n      pop\n      mload(0x40)\n      returndatasize\n      not(0x1f)\n      0x1f\n      dup3\n      add\n      and\n      dup3\n      add\n      dup1\n      0x40\n      mstore\n      pop\n      dup2\n      add\n      swap1\n      tag_90\n      swap2\n      swap1\n      tag_91\n      jump\t// in\n    tag_90:\n      pop\n        /* \"contracts/zapyield-mainnet-beta.0.1.5.sol\":3176:3194  uint256 totalValue */\n      0x00\n        /* \"contracts/zapyield-mainnet-beta.0.1.5.sol\":823:865  0xc1256Ae5FF1cf2719D4937adb3bbCCab2E00A2Ca */\n      0xc1256ae5ff1cf2719d4937adb3bbccab2e00a2ca\n        /* \"contracts/zapyield-mainnet-beta.0.1.5.sol\":3197:3218  mUSDC.convertToAssets */\n      0xffffffffffffffffffffffffffffffffffffffff\n      and\n      0x07a2d13a\n        /* \"contracts/zapyield-mainnet-beta.0.1.5.sol\":3219:3225  shares */\n      dup7\n        /* \"contracts/zapyield-mainnet-beta.0.1.5.sol\":3197:3226  mUSDC.convertToAssets(shares) */\n      mload(0x40)\n      dup3\n      0xffffffff\n      and\n      0xe0\n      shl\n      dup2\n      mstore\n      0x04\n      add\n      tag_92\n      swap2\n      swap1\n      tag_25\n      jump\t// in\n    tag_92:\n      0x20\n      mload(0x40)\n      dup1\n      dup4\n      sub\n      dup2\n      dup7\n      gas\n      staticcall\n      iszero\n      dup1\n      iszero\n      tag_94\n      jumpi\n      returndatasize\n      0x00\n      dup1\n      returndatacopy\n      revert(0x00, returndatasize)\n    tag_94:\n      pop\n      pop\n      pop\n      pop\n      mload(0x40)\n      returndatasize\n      not(0x1f)\n      0x1f\n      dup3\n      add\n      and\n      dup3\n      add\n      dup1\n      0x40\n      mstore\n      pop\n      dup2\n      add\n      swap1\n      tag_95\n      swap2\n      swap1\n      tag_91\n      jump\t// in\n    tag_95:\n        /* \"contracts/zapyield-mainnet-beta.0.1.5.sol\":3176:3226  uint256 totalValue = mUSDC.convertToAssets(shares) */\n      swap1\n      pop\n        /* \"contracts/zapyield-mainnet-beta.0.1.5.sol\":975:983  76 hours */\n      0x042cc0\n        /* \"contracts/zapyield-mainnet-beta.0.1.5.sol\":3259:3270  depositTime */\n      dup4\n        /* \"contracts/zapyield-mainnet-beta.0.1.5.sol\":3259:3282  depositTime + LOCK_TIME */\n      tag_96\n      swap2\n      swap1\n      tag_97\n      jump\t// in\n    tag_96:\n        /* \"contracts/zapyield-mainnet-beta.0.1.5.sol\":3241:3256  block.timestamp */\n      timestamp\n        /* \"contracts/zapyield-mainnet-beta.0.1.5.sol\":3241:3282  block.timestamp < depositTime + LOCK_TIME */\n      lt\n        /* \"contracts/zapyield-mainnet-beta.0.1.5.sol\":3237:3493  if (block.timestamp < depositTime + LOCK_TIME) {... */\n      iszero\n      tag_98\n      jumpi\n        /* \"contracts/zapyield-mainnet-beta.0.1.5.sol\":3298:3313  uint256 penalty */\n      0x00\n        /* \"contracts/zapyield-mainnet-beta.0.1.5.sol\":3352:3355  100 */\n      0x64\n        /* \"contracts/zapyield-mainnet-beta.0.1.5.sol\":1034:1035  1 */\n      0x01\n        /* \"contracts/zapyield-mainnet-beta.0.1.5.sol\":3317:3327  totalValue */\n      dup4\n        /* \"contracts/zapyield-mainnet-beta.0.1.5.sol\":3317:3348  totalValue * EARLY_EXIT_PENALTY */\n      tag_99\n      swap2\n      swap1\n      tag_100\n      jump\t// in\n    tag_99:\n        /* \"contracts/zapyield-mainnet-beta.0.1.5.sol\":3316:3355  (totalValue * EARLY_EXIT_PENALTY) / 100 */\n      tag_101\n      swap2\n      swap1\n      tag_102\n      jump\t// in\n    tag_101:\n        /* \"contracts/zapyield-mainnet-beta.0.1.5.sol\":3298:3355  uint256 penalty = (totalValue * EARLY_EXIT_PENALTY) / 100 */\n      swap1\n      pop\n        /* \"contracts/zapyield-mainnet-beta.0.1.5.sol\":3390:3397  penalty */\n      dup1\n        /* \"contracts/zapyield-mainnet-beta.0.1.5.sol\":3369:3386  totalProtocolFees */\n      0x03\n      0x00\n        /* \"contracts/zapyield-mainnet-beta.0.1.5.sol\":3369:3397  totalProtocolFees += penalty */\n      dup3\n      dup3\n      sload\n      tag_103\n      swap2\n      swap1\n      tag_97\n      jump\t// in\n    tag_103:\n      swap3\n      pop\n      pop\n      dup2\n      swap1\n      sstore\n      pop\n        /* \"contracts/zapyield-mainnet-beta.0.1.5.sol\":3411:3462  USDC.safeTransfer(msg.sender, totalValue - penalty) */\n      tag_104\n        /* \"contracts/zapyield-mainnet-beta.0.1.5.sol\":3429:3439  msg.sender */\n      caller\n        /* \"contracts/zapyield-mainnet-beta.0.1.5.sol\":3454:3461  penalty */\n      dup3\n        /* \"contracts/zapyield-mainnet-beta.0.1.5.sol\":3441:3451  totalValue */\n      dup5\n        /* \"contracts/zapyield-mainnet-beta.0.1.5.sol\":3441:3461  totalValue - penalty */\n      tag_105\n      swap2\n      swap1\n      tag_106\n      jump\t// in\n    tag_105:\n        /* \"contracts/zapyield-mainnet-beta.0.1.5.sol\":723:765  0x833589fCD6eDb6E08f4c7C32D4f71b54bdA02913 */\n      0x833589fcd6edb6e08f4c7c32d4f71b54bda02913\n        /* \"contracts/zapyield-mainnet-beta.0.1.5.sol\":3411:3428  USDC.safeTransfer */\n      0xffffffffffffffffffffffffffffffffffffffff\n      and\n      tag_107\n      swap1\n        /* \"contracts/zapyield-mainnet-beta.0.1.5.sol\":3411:3462  USDC.safeTransfer(msg.sender, totalValue - penalty) */\n      swap3\n      swap2\n      swap1\n      0xffffffff\n      and\n      jump\t// in\n    tag_104:\n        /* \"contracts/zapyield-mainnet-beta.0.1.5.sol\":3476:3483  return; */\n      pop\n      pop\n      pop\n      pop\n      pop\n      pop\n      pop\n      jump(tag_82)\n        /* \"contracts/zapyield-mainnet-beta.0.1.5.sol\":3237:3493  if (block.timestamp < depositTime + LOCK_TIME) {... */\n    tag_98:\n        /* \"contracts/zapyield-mainnet-beta.0.1.5.sol\":3503:3517  uint256 profit */\n      0x00\n        /* \"contracts/zapyield-mainnet-beta.0.1.5.sol\":3533:3542  principal */\n      dup5\n        /* \"contracts/zapyield-mainnet-beta.0.1.5.sol\":3520:3530  totalValue */\n      dup3\n        /* \"contracts/zapyield-mainnet-beta.0.1.5.sol\":3520:3542  totalValue > principal */\n      gt\n        /* \"contracts/zapyield-mainnet-beta.0.1.5.sol\":3520:3571  totalValue > principal ? totalValue - principal : 0 */\n      tag_108\n      jumpi\n        /* \"contracts/zapyield-mainnet-beta.0.1.5.sol\":3570:3571  0 */\n      0x00\n        /* \"contracts/zapyield-mainnet-beta.0.1.5.sol\":3520:3571  totalValue > principal ? totalValue - principal : 0 */\n      jump(tag_109)\n    tag_108:\n        /* \"contracts/zapyield-mainnet-beta.0.1.5.sol\":3558:3567  principal */\n      dup5\n        /* \"contracts/zapyield-mainnet-beta.0.1.5.sol\":3545:3555  totalValue */\n      dup3\n        /* \"contracts/zapyield-mainnet-beta.0.1.5.sol\":3545:3567  totalValue - principal */\n      tag_110\n      swap2\n      swap1\n      tag_106\n      jump\t// in\n    tag_110:\n        /* \"contracts/zapyield-mainnet-beta.0.1.5.sol\":3520:3571  totalValue > principal ? totalValue - principal : 0 */\n    tag_109:\n        /* \"contracts/zapyield-mainnet-beta.0.1.5.sol\":3503:3571  uint256 profit = totalValue > principal ? totalValue - principal : 0 */\n      swap1\n      pop\n        /* \"contracts/zapyield-mainnet-beta.0.1.5.sol\":3595:3596  0 */\n      0x00\n        /* \"contracts/zapyield-mainnet-beta.0.1.5.sol\":3586:3592  profit */\n      dup2\n        /* \"contracts/zapyield-mainnet-beta.0.1.5.sol\":3586:3596  profit > 0 */\n      gt\n        /* \"contracts/zapyield-mainnet-beta.0.1.5.sol\":3582:4616  if (profit > 0) {... */\n      iszero\n      tag_111\n      jumpi\n        /* \"contracts/zapyield-mainnet-beta.0.1.5.sol\":3682:3697  uint256 refRate */\n      0x00\n        /* \"contracts/zapyield-mainnet-beta.0.1.5.sol\":3700:3701  5 */\n      0x05\n        /* \"contracts/zapyield-mainnet-beta.0.1.5.sol\":3682:3701  uint256 refRate = 5 */\n      swap1\n      pop\n        /* \"contracts/zapyield-mainnet-beta.0.1.5.sol\":3739:3740  0 */\n      0x00\n        /* \"contracts/zapyield-mainnet-beta.0.1.5.sol\":3720:3741  refAddr != address(0) */\n      0xffffffffffffffffffffffffffffffffffffffff\n      and\n        /* \"contracts/zapyield-mainnet-beta.0.1.5.sol\":3720:3727  refAddr */\n      dup5\n        /* \"contracts/zapyield-mainnet-beta.0.1.5.sol\":3720:3741  refAddr != address(0) */\n      0xffffffffffffffffffffffffffffffffffffffff\n      and\n      eq\n        /* \"contracts/zapyield-mainnet-beta.0.1.5.sol\":3716:3827  if (refAddr != address(0)) {... */\n      tag_112\n      jumpi\n        /* \"contracts/zapyield-mainnet-beta.0.1.5.sol\":3771:3812  getReferralRate(users[refAddr].principal) */\n      tag_113\n        /* \"contracts/zapyield-mainnet-beta.0.1.5.sol\":3787:3792  users */\n      0x02\n        /* \"contracts/zapyield-mainnet-beta.0.1.5.sol\":3787:3801  users[refAddr] */\n      0x00\n        /* \"contracts/zapyield-mainnet-beta.0.1.5.sol\":3793:3800  refAddr */\n      dup7\n        /* \"contracts/zapyield-mainnet-beta.0.1.5.sol\":3787:3801  users[refAddr] */\n      0xffffffffffffffffffffffffffffffffffffffff\n      and\n      0xffffffffffffffffffffffffffffffffffffffff\n      and\n      dup2\n      mstore\n      0x20\n      add\n      swap1\n      dup2\n      mstore\n      0x20\n      add\n      0x00\n      keccak256\n        /* \"contracts/zapyield-mainnet-beta.0.1.5.sol\":3787:3811  users[refAddr].principal */\n      0x00\n      add\n      sload\n        /* \"contracts/zapyield-mainnet-beta.0.1.5.sol\":3771:3786  getReferralRate */\n      tag_34\n        /* \"contracts/zapyield-mainnet-beta.0.1.5.sol\":3771:3812  getReferralRate(users[refAddr].principal) */\n      jump\t// in\n    tag_113:\n        /* \"contracts/zapyield-mainnet-beta.0.1.5.sol\":3761:3812  refRate = getReferralRate(users[refAddr].principal) */\n      swap1\n      pop\n        /* \"contracts/zapyield-mainnet-beta.0.1.5.sol\":3716:3827  if (refAddr != address(0)) {... */\n    tag_112:\n        /* \"contracts/zapyield-mainnet-beta.0.1.5.sol\":3841:3858  uint256 refPayout */\n      0x00\n        /* \"contracts/zapyield-mainnet-beta.0.1.5.sol\":3882:3885  100 */\n      0x64\n        /* \"contracts/zapyield-mainnet-beta.0.1.5.sol\":3871:3878  refRate */\n      dup3\n        /* \"contracts/zapyield-mainnet-beta.0.1.5.sol\":3862:3868  profit */\n      dup5\n        /* \"contracts/zapyield-mainnet-beta.0.1.5.sol\":3862:3878  profit * refRate */\n      tag_114\n      swap2\n      swap1\n      tag_100\n      jump\t// in\n    tag_114:\n        /* \"contracts/zapyield-mainnet-beta.0.1.5.sol\":3861:3885  (profit * refRate) / 100 */\n      tag_115\n      swap2\n      swap1\n      tag_102\n      jump\t// in\n    tag_115:\n        /* \"contracts/zapyield-mainnet-beta.0.1.5.sol\":3841:3885  uint256 refPayout = (profit * refRate) / 100 */\n      swap1\n      pop\n        /* \"contracts/zapyield-mainnet-beta.0.1.5.sol\":3899:3915  uint256 ownerFee */\n      0x00\n        /* \"contracts/zapyield-mainnet-beta.0.1.5.sol\":3944:3947  100 */\n      0x64\n        /* \"contracts/zapyield-mainnet-beta.0.1.5.sol\":913:914  5 */\n      0x05\n        /* \"contracts/zapyield-mainnet-beta.0.1.5.sol\":3919:3925  profit */\n      dup6\n        /* \"contracts/zapyield-mainnet-beta.0.1.5.sol\":3919:3940  profit * PROTOCOL_FEE */\n      tag_116\n      swap2\n      swap1\n      tag_100\n      jump\t// in\n    tag_116:\n        /* \"contracts/zapyield-mainnet-beta.0.1.5.sol\":3918:3947  (profit * PROTOCOL_FEE) / 100 */\n      tag_117\n      swap2\n      swap1\n      tag_102\n      jump\t// in\n    tag_117:\n        /* \"contracts/zapyield-mainnet-beta.0.1.5.sol\":3899:3947  uint256 ownerFee = (profit * PROTOCOL_FEE) / 100 */\n      swap1\n      pop\n        /* \"contracts/zapyield-mainnet-beta.0.1.5.sol\":4040:4063  uint256 totalDeductions */\n      0x00\n        /* \"contracts/zapyield-mainnet-beta.0.1.5.sol\":4078:4086  ownerFee */\n      dup2\n        /* \"contracts/zapyield-mainnet-beta.0.1.5.sol\":4066:4075  refPayout */\n      dup4\n        /* \"contracts/zapyield-mainnet-beta.0.1.5.sol\":4066:4086  refPayout + ownerFee */\n      tag_118\n      swap2\n      swap1\n      tag_97\n      jump\t// in\n    tag_118:\n        /* \"contracts/zapyield-mainnet-beta.0.1.5.sol\":4040:4086  uint256 totalDeductions = refPayout + ownerFee */\n      swap1\n      pop\n        /* \"contracts/zapyield-mainnet-beta.0.1.5.sol\":4100:4118  uint256 userProfit */\n      0x00\n        /* \"contracts/zapyield-mainnet-beta.0.1.5.sol\":4130:4145  totalDeductions */\n      dup2\n        /* \"contracts/zapyield-mainnet-beta.0.1.5.sol\":4121:4127  profit */\n      dup7\n        /* \"contracts/zapyield-mainnet-beta.0.1.5.sol\":4121:4145  profit > totalDeductions */\n      gt\n        /* \"contracts/zapyield-mainnet-beta.0.1.5.sol\":4121:4176  profit > totalDeductions ? profit - totalDeductions : 0 */\n      tag_119\n      jumpi\n        /* \"contracts/zapyield-mainnet-beta.0.1.5.sol\":4175:4176  0 */\n      0x00\n        /* \"contracts/zapyield-mainnet-beta.0.1.5.sol\":4121:4176  profit > totalDeductions ? profit - totalDeductions : 0 */\n      jump(tag_120)\n    tag_119:\n        /* \"contracts/zapyield-mainnet-beta.0.1.5.sol\":4157:4172  totalDeductions */\n      dup2\n        /* \"contracts/zapyield-mainnet-beta.0.1.5.sol\":4148:4154  profit */\n      dup7\n        /* \"contracts/zapyield-mainnet-beta.0.1.5.sol\":4148:4172  profit - totalDeductions */\n      tag_121\n      swap2\n      swap1\n      tag_106\n      jump\t// in\n    tag_121:\n        /* \"contracts/zapyield-mainnet-beta.0.1.5.sol\":4121:4176  profit > totalDeductions ? profit - totalDeductions : 0 */\n    tag_120:\n        /* \"contracts/zapyield-mainnet-beta.0.1.5.sol\":4100:4176  uint256 userProfit = profit > totalDeductions ? profit - totalDeductions : 0 */\n      swap1\n      pop\n        /* \"contracts/zapyield-mainnet-beta.0.1.5.sol\":4214:4215  0 */\n      0x00\n        /* \"contracts/zapyield-mainnet-beta.0.1.5.sol\":4195:4216  refAddr != address(0) */\n      0xffffffffffffffffffffffffffffffffffffffff\n      and\n        /* \"contracts/zapyield-mainnet-beta.0.1.5.sol\":4195:4202  refAddr */\n      dup9\n        /* \"contracts/zapyield-mainnet-beta.0.1.5.sol\":4195:4216  refAddr != address(0) */\n      0xffffffffffffffffffffffffffffffffffffffff\n      and\n      eq\n        /* \"contracts/zapyield-mainnet-beta.0.1.5.sol\":4191:4424  if (refAddr != address(0)) {... */\n      tag_122\n      jumpi\n        /* \"contracts/zapyield-mainnet-beta.0.1.5.sol\":4236:4273  USDC.safeTransfer(refAddr, refPayout) */\n      tag_123\n        /* \"contracts/zapyield-mainnet-beta.0.1.5.sol\":4254:4261  refAddr */\n      dup9\n        /* \"contracts/zapyield-mainnet-beta.0.1.5.sol\":4263:4272  refPayout */\n      dup6\n        /* \"contracts/zapyield-mainnet-beta.0.1.5.sol\":723:765  0x833589fCD6eDb6E08f4c7C32D4f71b54bdA02913 */\n      0x833589fcd6edb6e08f4c7c32d4f71b54bda02913\n        /* \"contracts/zapyield-mainnet-beta.0.1.5.sol\":4236:4253  USDC.safeTransfer */\n      0xffffffffffffffffffffffffffffffffffffffff\n      and\n      tag_107\n      swap1\n        /* \"contracts/zapyield-mainnet-beta.0.1.5.sol\":4236:4273  USDC.safeTransfer(refAddr, refPayout) */\n      swap3\n      swap2\n      swap1\n      0xffffffff\n      and\n      jump\t// in\n    tag_123:\n        /* \"contracts/zapyield-mainnet-beta.0.1.5.sol\":4331:4340  refPayout */\n      dup4\n        /* \"contracts/zapyield-mainnet-beta.0.1.5.sol\":4291:4296  users */\n      0x02\n        /* \"contracts/zapyield-mainnet-beta.0.1.5.sol\":4291:4305  users[refAddr] */\n      0x00\n        /* \"contracts/zapyield-mainnet-beta.0.1.5.sol\":4297:4304  refAddr */\n      dup11\n        /* \"contracts/zapyield-mainnet-beta.0.1.5.sol\":4291:4305  users[refAddr] */\n      0xffffffffffffffffffffffffffffffffffffffff\n      and\n      0xffffffffffffffffffffffffffffffffffffffff\n      and\n      dup2\n      mstore\n      0x20\n      add\n      swap1\n      dup2\n      mstore\n      0x20\n      add\n      0x00\n      keccak256\n        /* \"contracts/zapyield-mainnet-beta.0.1.5.sol\":4291:4327  users[refAddr].totalReferralEarnings */\n      0x03\n      add\n      0x00\n        /* \"contracts/zapyield-mainnet-beta.0.1.5.sol\":4291:4340  users[refAddr].totalReferralEarnings += refPayout */\n      dup3\n      dup3\n      sload\n      tag_124\n      swap2\n      swap1\n      tag_97\n      jump\t// in\n    tag_124:\n      swap3\n      pop\n      pop\n      dup2\n      swap1\n      sstore\n      pop\n        /* \"contracts/zapyield-mainnet-beta.0.1.5.sol\":4191:4424  if (refAddr != address(0)) {... */\n      jump(tag_125)\n    tag_122:\n        /* \"contracts/zapyield-mainnet-beta.0.1.5.sol\":4400:4409  refPayout */\n      dup4\n        /* \"contracts/zapyield-mainnet-beta.0.1.5.sol\":4379:4396  totalProtocolFees */\n      0x03\n      0x00\n        /* \"contracts/zapyield-mainnet-beta.0.1.5.sol\":4379:4409  totalProtocolFees += refPayout */\n      dup3\n      dup3\n      sload\n      tag_126\n      swap2\n      swap1\n      tag_97\n      jump\t// in\n    tag_126:\n      swap3\n      pop\n      pop\n      dup2\n      swap1\n      sstore\n      pop\n        /* \"contracts/zapyield-mainnet-beta.0.1.5.sol\":4191:4424  if (refAddr != address(0)) {... */\n    tag_125:\n        /* \"contracts/zapyield-mainnet-beta.0.1.5.sol\":4459:4467  ownerFee */\n      dup3\n        /* \"contracts/zapyield-mainnet-beta.0.1.5.sol\":4438:4455  totalProtocolFees */\n      0x03\n      0x00\n        /* \"contracts/zapyield-mainnet-beta.0.1.5.sol\":4438:4467  totalProtocolFees += ownerFee */\n      dup3\n      dup3\n      sload\n      tag_127\n      swap2\n      swap1\n      tag_97\n      jump\t// in\n    tag_127:\n      swap3\n      pop\n      pop\n      dup2\n      swap1\n      sstore\n      pop\n        /* \"contracts/zapyield-mainnet-beta.0.1.5.sol\":4481:4534  USDC.safeTransfer(msg.sender, principal + userProfit) */\n      tag_128\n        /* \"contracts/zapyield-mainnet-beta.0.1.5.sol\":4499:4509  msg.sender */\n      caller\n        /* \"contracts/zapyield-mainnet-beta.0.1.5.sol\":4523:4533  userProfit */\n      dup3\n        /* \"contracts/zapyield-mainnet-beta.0.1.5.sol\":4511:4520  principal */\n      dup13\n        /* \"contracts/zapyield-mainnet-beta.0.1.5.sol\":4511:4533  principal + userProfit */\n      tag_129\n      swap2\n      swap1\n      tag_97\n      jump\t// in\n    tag_129:\n        /* \"contracts/zapyield-mainnet-beta.0.1.5.sol\":723:765  0x833589fCD6eDb6E08f4c7C32D4f71b54bdA02913 */\n      0x833589fcd6edb6e08f4c7c32d4f71b54bda02913\n        /* \"contracts/zapyield-mainnet-beta.0.1.5.sol\":4481:4498  USDC.safeTransfer */\n      0xffffffffffffffffffffffffffffffffffffffff\n      and\n      tag_107\n      swap1\n        /* \"contracts/zapyield-mainnet-beta.0.1.5.sol\":4481:4534  USDC.safeTransfer(msg.sender, principal + userProfit) */\n      swap3\n      swap2\n      swap1\n      0xffffffff\n      and\n      jump\t// in\n    tag_128:\n        /* \"contracts/zapyield-mainnet-beta.0.1.5.sol\":3598:4545  {... */\n      pop\n      pop\n      pop\n      pop\n      pop\n        /* \"contracts/zapyield-mainnet-beta.0.1.5.sol\":3582:4616  if (profit > 0) {... */\n      jump(tag_130)\n    tag_111:\n        /* \"contracts/zapyield-mainnet-beta.0.1.5.sol\":4565:4605  USDC.safeTransfer(msg.sender, principal) */\n      tag_131\n        /* \"contracts/zapyield-mainnet-beta.0.1.5.sol\":4583:4593  msg.sender */\n      caller\n        /* \"contracts/zapyield-mainnet-beta.0.1.5.sol\":4595:4604  principal */\n      dup7\n        /* \"contracts/zapyield-mainnet-beta.0.1.5.sol\":723:765  0x833589fCD6eDb6E08f4c7C32D4f71b54bdA02913 */\n      0x833589fcd6edb6e08f4c7c32d4f71b54bda02913\n        /* \"contracts/zapyield-mainnet-beta.0.1.5.sol\":4565:4582  USDC.safeTransfer */\n      0xffffffffffffffffffffffffffffffffffffffff\n      and\n      tag_107\n      swap1\n        /* \"contracts/zapyield-mainnet-beta.0.1.5.sol\":4565:4605  USDC.safeTransfer(msg.sender, principal) */\n      swap3\n      swap2\n      swap1\n      0xffffffff\n      and\n      jump\t// in\n    tag_131:\n        /* \"contracts/zapyield-mainnet-beta.0.1.5.sol\":3582:4616  if (profit > 0) {... */\n    tag_130:\n        /* \"contracts/zapyield-mainnet-beta.0.1.5.sol\":2758:4622  {... */\n      pop\n      pop\n      pop\n      pop\n      pop\n      pop\n      pop\n        /* \"@openzeppelin/contracts/security/ReentrancyGuard.sol\":2292:2293  _ */\n    tag_82:\n        /* \"@openzeppelin/contracts/security/ReentrancyGuard.sol\":2303:2323  _nonReentrantAfter() */\n      tag_132\n        /* \"@openzeppelin/contracts/security/ReentrancyGuard.sol\":2303:2321  _nonReentrantAfter */\n      tag_133\n        /* \"@openzeppelin/contracts/security/ReentrancyGuard.sol\":2303:2323  _nonReentrantAfter() */\n      jump\t// in\n    tag_132:\n        /* \"contracts/zapyield-mainnet-beta.0.1.5.sol\":2718:4622  function zapOut() external nonReentrant {... */\n      jump\t// out\n        /* \"contracts/zapyield-mainnet-beta.0.1.5.sol\":939:983  uint256 public constant LOCK_TIME = 76 hours */\n    tag_29:\n        /* \"contracts/zapyield-mainnet-beta.0.1.5.sol\":975:983  76 hours */\n      0x042cc0\n        /* \"contracts/zapyield-mainnet-beta.0.1.5.sol\":939:983  uint256 public constant LOCK_TIME = 76 hours */\n      dup2\n      jump\t// out\n        /* \"contracts/zapyield-mainnet-beta.0.1.5.sol\":1552:1968  function getReferralRate(uint256 _principal) public pure returns (uint256) {... */\n    tag_34:\n        /* \"contracts/zapyield-mainnet-beta.0.1.5.sol\":1618:1625  uint256 */\n      0x00\n        /* \"contracts/zapyield-mainnet-beta.0.1.5.sol\":1655:1665  5000 * 1e6 */\n      0x012a05f200\n        /* \"contracts/zapyield-mainnet-beta.0.1.5.sol\":1641:1651  _principal */\n      dup3\n        /* \"contracts/zapyield-mainnet-beta.0.1.5.sol\":1641:1665  _principal >= 5000 * 1e6 */\n      lt\n        /* \"contracts/zapyield-mainnet-beta.0.1.5.sol\":1637:1676  if (_principal >= 5000 * 1e6) return 80 */\n      tag_135\n      jumpi\n        /* \"contracts/zapyield-mainnet-beta.0.1.5.sol\":1674:1676  80 */\n      0x50\n        /* \"contracts/zapyield-mainnet-beta.0.1.5.sol\":1667:1676  return 80 */\n      swap1\n      pop\n      jump(tag_134)\n        /* \"contracts/zapyield-mainnet-beta.0.1.5.sol\":1637:1676  if (_principal >= 5000 * 1e6) return 80 */\n    tag_135:\n        /* \"contracts/zapyield-mainnet-beta.0.1.5.sol\":1717:1727  1000 * 1e6 */\n      0x3b9aca00\n        /* \"contracts/zapyield-mainnet-beta.0.1.5.sol\":1703:1713  _principal */\n      dup3\n        /* \"contracts/zapyield-mainnet-beta.0.1.5.sol\":1703:1727  _principal >= 1000 * 1e6 */\n      lt\n        /* \"contracts/zapyield-mainnet-beta.0.1.5.sol\":1699:1738  if (_principal >= 1000 * 1e6) return 50 */\n      tag_136\n      jumpi\n        /* \"contracts/zapyield-mainnet-beta.0.1.5.sol\":1736:1738  50 */\n      0x32\n        /* \"contracts/zapyield-mainnet-beta.0.1.5.sol\":1729:1738  return 50 */\n      swap1\n      pop\n      jump(tag_134)\n        /* \"contracts/zapyield-mainnet-beta.0.1.5.sol\":1699:1738  if (_principal >= 1000 * 1e6) return 50 */\n    tag_136:\n        /* \"contracts/zapyield-mainnet-beta.0.1.5.sol\":1777:1786  200 * 1e6 */\n      0x0bebc200\n        /* \"contracts/zapyield-mainnet-beta.0.1.5.sol\":1763:1773  _principal */\n      dup3\n        /* \"contracts/zapyield-mainnet-beta.0.1.5.sol\":1763:1786  _principal >= 200 * 1e6 */\n      lt\n        /* \"contracts/zapyield-mainnet-beta.0.1.5.sol\":1759:1798  if (_principal >= 200 * 1e6)  return 30 */\n      tag_137\n      jumpi\n        /* \"contracts/zapyield-mainnet-beta.0.1.5.sol\":1796:1798  30 */\n      0x1e\n        /* \"contracts/zapyield-mainnet-beta.0.1.5.sol\":1789:1798  return 30 */\n      swap1\n      pop\n      jump(tag_134)\n        /* \"contracts/zapyield-mainnet-beta.0.1.5.sol\":1759:1798  if (_principal >= 200 * 1e6)  return 30 */\n    tag_137:\n        /* \"contracts/zapyield-mainnet-beta.0.1.5.sol\":1835:1844  100 * 1e6 */\n      0x05f5e100\n        /* \"contracts/zapyield-mainnet-beta.0.1.5.sol\":1821:1831  _principal */\n      dup3\n        /* \"contracts/zapyield-mainnet-beta.0.1.5.sol\":1821:1844  _principal >= 100 * 1e6 */\n      lt\n        /* \"contracts/zapyield-mainnet-beta.0.1.5.sol\":1817:1856  if (_principal >= 100 * 1e6)  return 20 */\n      tag_138\n      jumpi\n        /* \"contracts/zapyield-mainnet-beta.0.1.5.sol\":1854:1856  20 */\n      0x14\n        /* \"contracts/zapyield-mainnet-beta.0.1.5.sol\":1847:1856  return 20 */\n      swap1\n      pop\n      jump(tag_134)\n        /* \"contracts/zapyield-mainnet-beta.0.1.5.sol\":1817:1856  if (_principal >= 100 * 1e6)  return 20 */\n    tag_138:\n        /* \"contracts/zapyield-mainnet-beta.0.1.5.sol\":1892:1900  50 * 1e6 */\n      0x02faf080\n        /* \"contracts/zapyield-mainnet-beta.0.1.5.sol\":1878:1888  _principal */\n      dup3\n        /* \"contracts/zapyield-mainnet-beta.0.1.5.sol\":1878:1900  _principal >= 50 * 1e6 */\n      lt\n        /* \"contracts/zapyield-mainnet-beta.0.1.5.sol\":1874:1913  if (_principal >= 50 * 1e6)   return 10 */\n      tag_139\n      jumpi\n        /* \"contracts/zapyield-mainnet-beta.0.1.5.sol\":1911:1913  10 */\n      0x0a\n        /* \"contracts/zapyield-mainnet-beta.0.1.5.sol\":1904:1913  return 10 */\n      swap1\n      pop\n      jump(tag_134)\n        /* \"contracts/zapyield-mainnet-beta.0.1.5.sol\":1874:1913  if (_principal >= 50 * 1e6)   return 10 */\n    tag_139:\n        /* \"contracts/zapyield-mainnet-beta.0.1.5.sol\":1939:1940  5 */\n      0x05\n        /* \"contracts/zapyield-mainnet-beta.0.1.5.sol\":1932:1940  return 5 */\n      swap1\n      pop\n        /* \"contracts/zapyield-mainnet-beta.0.1.5.sol\":1552:1968  function getReferralRate(uint256 _principal) public pure returns (uint256) {... */\n    tag_134:\n      swap2\n      swap1\n      pop\n      jump\t// out\n        /* \"contracts/zapyield-mainnet-beta.0.1.5.sol\":4778:4912  function getReferralEarnings(address _user) external view returns (uint256) {... */\n    tag_39:\n        /* \"contracts/zapyield-mainnet-beta.0.1.5.sol\":4845:4852  uint256 */\n      0x00\n        /* \"contracts/zapyield-mainnet-beta.0.1.5.sol\":4871:4876  users */\n      0x02\n        /* \"contracts/zapyield-mainnet-beta.0.1.5.sol\":4871:4883  users[_user] */\n      0x00\n        /* \"contracts/zapyield-mainnet-beta.0.1.5.sol\":4877:4882  _user */\n      dup4\n        /* \"contracts/zapyield-mainnet-beta.0.1.5.sol\":4871:4883  users[_user] */\n      0xffffffffffffffffffffffffffffffffffffffff\n      and\n      0xffffffffffffffffffffffffffffffffffffffff\n      and\n      dup2\n      mstore\n      0x20\n      add\n      swap1\n      dup2\n      mstore\n      0x20\n      add\n      0x00\n      keccak256\n        /* \"contracts/zapyield-mainnet-beta.0.1.5.sol\":4871:4905  users[_user].totalReferralEarnings */\n      0x03\n      add\n      sload\n        /* \"contracts/zapyield-mainnet-beta.0.1.5.sol\":4864:4905  return users[_user].totalReferralEarnings */\n      swap1\n      pop\n        /* \"contracts/zapyield-mainnet-beta.0.1.5.sol\":4778:4912  function getReferralEarnings(address _user) external view returns (uint256) {... */\n      swap2\n      swap1\n      pop\n      jump\t// out\n        /* \"contracts/zapyield-mainnet-beta.0.1.5.sol\":4628:4772  function getAccountValue(address _user) external view returns (uint256) {... */\n    tag_43:\n        /* \"contracts/zapyield-mainnet-beta.0.1.5.sol\":4691:4698  uint256 */\n      0x00\n        /* \"contracts/zapyield-mainnet-beta.0.1.5.sol\":823:865  0xc1256Ae5FF1cf2719D4937adb3bbCCab2E00A2Ca */\n      0xc1256ae5ff1cf2719d4937adb3bbccab2e00a2ca\n        /* \"contracts/zapyield-mainnet-beta.0.1.5.sol\":4717:4738  mUSDC.convertToAssets */\n      0xffffffffffffffffffffffffffffffffffffffff\n      and\n      0x07a2d13a\n        /* \"contracts/zapyield-mainnet-beta.0.1.5.sol\":4739:4744  users */\n      0x02\n        /* \"contracts/zapyield-mainnet-beta.0.1.5.sol\":4739:4751  users[_user] */\n      0x00\n        /* \"contracts/zapyield-mainnet-beta.0.1.5.sol\":4745:4750  _user */\n      dup6\n        /* \"contracts/zapyield-mainnet-beta.0.1.5.sol\":4739:4751  users[_user] */\n      0xffffffffffffffffffffffffffffffffffffffff\n      and\n      0xffffffffffffffffffffffffffffffffffffffff\n      and\n      dup2\n      mstore\n      0x20\n      add\n      swap1\n      dup2\n      mstore\n      0x20\n      add\n      0x00\n      keccak256\n        /* \"contracts/zapyield-mainnet-beta.0.1.5.sol\":4739:4764  users[_user].shareBalance */\n      0x01\n      add\n      sload\n        /* \"contracts/zapyield-mainnet-beta.0.1.5.sol\":4717:4765  mUSDC.convertToAssets(users[_user].shareBalance) */\n      mload(0x40)\n      dup3\n      0xffffffff\n      and\n      0xe0\n      shl\n      dup2\n      mstore\n      0x04\n      add\n      tag_142\n      swap2\n      swap1\n      tag_25\n      jump\t// in\n    tag_142:\n      0x20\n      mload(0x40)\n      dup1\n      dup4\n      sub\n      dup2\n      dup7\n      gas\n      staticcall\n      iszero\n      dup1\n      iszero\n      tag_144\n      jumpi\n      returndatasize\n      0x00\n      dup1\n      returndatacopy\n      revert(0x00, returndatasize)\n    tag_144:\n      pop\n      pop\n      pop\n      pop\n      mload(0x40)\n      returndatasize\n      not(0x1f)\n      0x1f\n      dup3\n      add\n      and\n      dup3\n      add\n      dup1\n      0x40\n      mstore\n      pop\n      dup2\n      add\n      swap1\n      tag_145\n      swap2\n      swap1\n      tag_91\n      jump\t// in\n    tag_145:\n        /* \"contracts/zapyield-mainnet-beta.0.1.5.sol\":4710:4765  return mUSDC.convertToAssets(users[_user].shareBalance) */\n      swap1\n      pop\n        /* \"contracts/zapyield-mainnet-beta.0.1.5.sol\":4628:4772  function getAccountValue(address _user) external view returns (uint256) {... */\n      swap2\n      swap1\n      pop\n      jump\t// out\n        /* \"@openzeppelin/contracts/access/Ownable.sol\":2293:2394  function renounceOwnership() public virtual onlyOwner {... */\n    tag_46:\n        /* \"@openzeppelin/contracts/access/Ownable.sol\":1531:1544  _checkOwner() */\n      tag_147\n        /* \"@openzeppelin/contracts/access/Ownable.sol\":1531:1542  _checkOwner */\n      tag_148\n        /* \"@openzeppelin/contracts/access/Ownable.sol\":1531:1544  _checkOwner() */\n      jump\t// in\n    tag_147:\n        /* \"@openzeppelin/contracts/access/Ownable.sol\":2357:2387  _transferOwnership(address(0)) */\n      tag_150\n        /* \"@openzeppelin/contracts/access/Ownable.sol\":2384:2385  0 */\n      0x00\n        /* \"@openzeppelin/contracts/access/Ownable.sol\":2357:2375  _transferOwnership */\n      tag_151\n        /* \"@openzeppelin/contracts/access/Ownable.sol\":2357:2387  _transferOwnership(address(0)) */\n      jump\t// in\n    tag_150:\n        /* \"@openzeppelin/contracts/access/Ownable.sol\":2293:2394  function renounceOwnership() public virtual onlyOwner {... */\n      jump\t// out\n        /* \"contracts/zapyield-mainnet-beta.0.1.5.sol\":989:1035  uint256 public constant EARLY_EXIT_PENALTY = 1 */\n    tag_48:\n        /* \"contracts/zapyield-mainnet-beta.0.1.5.sol\":1034:1035  1 */\n      0x01\n        /* \"contracts/zapyield-mainnet-beta.0.1.5.sol\":989:1035  uint256 public constant EARLY_EXIT_PENALTY = 1 */\n      dup2\n      jump\t// out\n        /* \"contracts/zapyield-mainnet-beta.0.1.5.sol\":686:766  IERC20 public constant USDC = IERC20(0x833589fCD6eDb6E08f4c7C32D4f71b54bdA02913) */\n    tag_51:\n        /* \"contracts/zapyield-mainnet-beta.0.1.5.sol\":723:765  0x833589fCD6eDb6E08f4c7C32D4f71b54bdA02913 */\n      0x833589fcd6edb6e08f4c7c32d4f71b54bda02913\n        /* \"contracts/zapyield-mainnet-beta.0.1.5.sol\":686:766  IERC20 public constant USDC = IERC20(0x833589fCD6eDb6E08f4c7C32D4f71b54bdA02913) */\n      dup2\n      jump\t// out\n        /* \"@openzeppelin/contracts/access/Ownable.sol\":1638:1723  function owner() public view virtual returns (address) {... */\n    tag_55:\n        /* \"@openzeppelin/contracts/access/Ownable.sol\":1684:1691  address */\n      0x00\n        /* \"@openzeppelin/contracts/access/Ownable.sol\":1710:1716  _owner */\n      dup1\n      0x00\n      swap1\n      sload\n      swap1\n      0x0100\n      exp\n      swap1\n      div\n      0xffffffffffffffffffffffffffffffffffffffff\n      and\n        /* \"@openzeppelin/contracts/access/Ownable.sol\":1703:1716  return _owner */\n      swap1\n      pop\n        /* \"@openzeppelin/contracts/access/Ownable.sol\":1638:1723  function owner() public view virtual returns (address) {... */\n      swap1\n      jump\t// out\n        /* \"contracts/zapyield-mainnet-beta.0.1.5.sol\":1247:1288  mapping(address => UserInfo) public users */\n    tag_60:\n      mstore(0x20, 0x02)\n      dup1\n      0x00\n      mstore\n      keccak256(0x00, 0x40)\n      0x00\n      swap2\n      pop\n      swap1\n      pop\n      dup1\n      0x00\n      add\n      sload\n      swap1\n      dup1\n      0x01\n      add\n      sload\n      swap1\n      dup1\n      0x02\n      add\n      0x00\n      swap1\n      sload\n      swap1\n      0x0100\n      exp\n      swap1\n      div\n      0xffffffffffffffffffffffffffffffffffffffff\n      and\n      swap1\n      dup1\n      0x03\n      add\n      sload\n      swap1\n      dup1\n      0x04\n      add\n      sload\n      swap1\n      pop\n      dup6\n      jump\t// out\n        /* \"contracts/zapyield-mainnet-beta.0.1.5.sol\":4918:5086  function collectFees() external onlyOwner {... */\n    tag_64:\n        /* \"@openzeppelin/contracts/access/Ownable.sol\":1531:1544  _checkOwner() */\n      tag_154\n        /* \"@openzeppelin/contracts/access/Ownable.sol\":1531:1542  _checkOwner */\n      tag_148\n        /* \"@openzeppelin/contracts/access/Ownable.sol\":1531:1544  _checkOwner() */\n      jump\t// in\n    tag_154:\n        /* \"contracts/zapyield-mainnet-beta.0.1.5.sol\":4970:4984  uint256 amount */\n      0x00\n        /* \"contracts/zapyield-mainnet-beta.0.1.5.sol\":4987:5004  totalProtocolFees */\n      sload(0x03)\n        /* \"contracts/zapyield-mainnet-beta.0.1.5.sol\":4970:5004  uint256 amount = totalProtocolFees */\n      swap1\n      pop\n        /* \"contracts/zapyield-mainnet-beta.0.1.5.sol\":5034:5035  0 */\n      0x00\n        /* \"contracts/zapyield-mainnet-beta.0.1.5.sol\":5014:5031  totalProtocolFees */\n      0x03\n        /* \"contracts/zapyield-mainnet-beta.0.1.5.sol\":5014:5035  totalProtocolFees = 0 */\n      dup2\n      swap1\n      sstore\n      pop\n        /* \"contracts/zapyield-mainnet-beta.0.1.5.sol\":5045:5079  USDC.safeTransfer(owner(), amount) */\n      tag_156\n        /* \"contracts/zapyield-mainnet-beta.0.1.5.sol\":5063:5070  owner() */\n      tag_157\n        /* \"contracts/zapyield-mainnet-beta.0.1.5.sol\":5063:5068  owner */\n      tag_55\n        /* \"contracts/zapyield-mainnet-beta.0.1.5.sol\":5063:5070  owner() */\n      jump\t// in\n    tag_157:\n        /* \"contracts/zapyield-mainnet-beta.0.1.5.sol\":5072:5078  amount */\n      dup3\n        /* \"contracts/zapyield-mainnet-beta.0.1.5.sol\":723:765  0x833589fCD6eDb6E08f4c7C32D4f71b54bdA02913 */\n      0x833589fcd6edb6e08f4c7c32d4f71b54bda02913\n        /* \"contracts/zapyield-mainnet-beta.0.1.5.sol\":5045:5062  USDC.safeTransfer */\n      0xffffffffffffffffffffffffffffffffffffffff\n      and\n      tag_107\n      swap1\n        /* \"contracts/zapyield-mainnet-beta.0.1.5.sol\":5045:5079  USDC.safeTransfer(owner(), amount) */\n      swap3\n      swap2\n      swap1\n      0xffffffff\n      and\n      jump\t// in\n    tag_156:\n        /* \"contracts/zapyield-mainnet-beta.0.1.5.sol\":4960:5086  {... */\n      pop\n        /* \"contracts/zapyield-mainnet-beta.0.1.5.sol\":4918:5086  function collectFees() external onlyOwner {... */\n      jump\t// out\n        /* \"contracts/zapyield-mainnet-beta.0.1.5.sol\":1974:2712  function zapIn(uint256 _amount, address _referrer) external nonReentrant {... */\n    tag_68:\n        /* \"@openzeppelin/contracts/security/ReentrancyGuard.sol\":2261:2282  _nonReentrantBefore() */\n      tag_159\n        /* \"@openzeppelin/contracts/security/ReentrancyGuard.sol\":2261:2280  _nonReentrantBefore */\n      tag_81\n        /* \"@openzeppelin/contracts/security/ReentrancyGuard.sol\":2261:2282  _nonReentrantBefore() */\n      jump\t// in\n    tag_159:\n        /* \"contracts/zapyield-mainnet-beta.0.1.5.sol\":2076:2084  10 * 1e6 */\n      0x989680\n        /* \"contracts/zapyield-mainnet-beta.0.1.5.sol\":2065:2072  _amount */\n      dup3\n        /* \"contracts/zapyield-mainnet-beta.0.1.5.sol\":2065:2084  _amount >= 10 * 1e6 */\n      lt\n      iszero\n        /* \"contracts/zapyield-mainnet-beta.0.1.5.sol\":2057:2100  require(_amount >= 10 * 1e6, \"Min 10 USDC\") */\n      tag_161\n      jumpi\n      mload(0x40)\n      0x08c379a000000000000000000000000000000000000000000000000000000000\n      dup2\n      mstore\n      0x04\n      add\n      tag_162\n      swap1\n      tag_163\n      jump\t// in\n    tag_162:\n      mload(0x40)\n      dup1\n      swap2\n      sub\n      swap1\n      revert\n    tag_161:\n        /* \"contracts/zapyield-mainnet-beta.0.1.5.sol\":2131:2141  msg.sender */\n      caller\n        /* \"contracts/zapyield-mainnet-beta.0.1.5.sol\":2118:2141  _referrer != msg.sender */\n      0xffffffffffffffffffffffffffffffffffffffff\n      and\n        /* \"contracts/zapyield-mainnet-beta.0.1.5.sol\":2118:2127  _referrer */\n      dup2\n        /* \"contracts/zapyield-mainnet-beta.0.1.5.sol\":2118:2141  _referrer != msg.sender */\n      0xffffffffffffffffffffffffffffffffffffffff\n      and\n      sub\n        /* \"contracts/zapyield-mainnet-beta.0.1.5.sol\":2110:2162  require(_referrer != msg.sender, \"No self-referral\") */\n      tag_164\n      jumpi\n      mload(0x40)\n      0x08c379a000000000000000000000000000000000000000000000000000000000\n      dup2\n      mstore\n      0x04\n      add\n      tag_165\n      swap1\n      tag_166\n      jump\t// in\n    tag_165:\n      mload(0x40)\n      dup1\n      swap2\n      sub\n      swap1\n      revert\n    tag_164:\n        /* \"contracts/zapyield-mainnet-beta.0.1.5.sol\":2173:2194  UserInfo storage user */\n      0x00\n        /* \"contracts/zapyield-mainnet-beta.0.1.5.sol\":2197:2202  users */\n      0x02\n        /* \"contracts/zapyield-mainnet-beta.0.1.5.sol\":2197:2214  users[msg.sender] */\n      0x00\n        /* \"contracts/zapyield-mainnet-beta.0.1.5.sol\":2203:2213  msg.sender */\n      caller\n        /* \"contracts/zapyield-mainnet-beta.0.1.5.sol\":2197:2214  users[msg.sender] */\n      0xffffffffffffffffffffffffffffffffffffffff\n      and\n      0xffffffffffffffffffffffffffffffffffffffff\n      and\n      dup2\n      mstore\n      0x20\n      add\n      swap1\n      dup2\n      mstore\n      0x20\n      add\n      0x00\n      keccak256\n        /* \"contracts/zapyield-mainnet-beta.0.1.5.sol\":2173:2214  UserInfo storage user = users[msg.sender] */\n      swap1\n      pop\n        /* \"contracts/zapyield-mainnet-beta.0.1.5.sol\":2254:2255  0 */\n      0x00\n        /* \"contracts/zapyield-mainnet-beta.0.1.5.sol\":2229:2256  user.referrer == address(0) */\n      0xffffffffffffffffffffffffffffffffffffffff\n      and\n        /* \"contracts/zapyield-mainnet-beta.0.1.5.sol\":2229:2233  user */\n      dup2\n        /* \"contracts/zapyield-mainnet-beta.0.1.5.sol\":2229:2242  user.referrer */\n      0x02\n      add\n      0x00\n      swap1\n      sload\n      swap1\n      0x0100\n      exp\n      swap1\n      div\n      0xffffffffffffffffffffffffffffffffffffffff\n      and\n        /* \"contracts/zapyield-mainnet-beta.0.1.5.sol\":2229:2256  user.referrer == address(0) */\n      0xffffffffffffffffffffffffffffffffffffffff\n      and\n      eq\n        /* \"contracts/zapyield-mainnet-beta.0.1.5.sol\":2229:2283  user.referrer == address(0) && _referrer != address(0) */\n      dup1\n      iszero\n      tag_167\n      jumpi\n      pop\n        /* \"contracts/zapyield-mainnet-beta.0.1.5.sol\":2281:2282  0 */\n      0x00\n        /* \"contracts/zapyield-mainnet-beta.0.1.5.sol\":2260:2283  _referrer != address(0) */\n      0xffffffffffffffffffffffffffffffffffffffff\n      and\n        /* \"contracts/zapyield-mainnet-beta.0.1.5.sol\":2260:2269  _referrer */\n      dup3\n        /* \"contracts/zapyield-mainnet-beta.0.1.5.sol\":2260:2283  _referrer != address(0) */\n      0xffffffffffffffffffffffffffffffffffffffff\n      and\n      eq\n      iszero\n        /* \"contracts/zapyield-mainnet-beta.0.1.5.sol\":2229:2283  user.referrer == address(0) && _referrer != address(0) */\n    tag_167:\n        /* \"contracts/zapyield-mainnet-beta.0.1.5.sol\":2225:2335  if (user.referrer == address(0) && _referrer != address(0)) {... */\n      iszero\n      tag_168\n      jumpi\n        /* \"contracts/zapyield-mainnet-beta.0.1.5.sol\":2315:2324  _referrer */\n      dup2\n        /* \"contracts/zapyield-mainnet-beta.0.1.5.sol\":2299:2303  user */\n      dup2\n        /* \"contracts/zapyield-mainnet-beta.0.1.5.sol\":2299:2312  user.referrer */\n      0x02\n      add\n      0x00\n        /* \"contracts/zapyield-mainnet-beta.0.1.5.sol\":2299:2324  user.referrer = _referrer */\n      0x0100\n      exp\n      dup2\n      sload\n      dup2\n      0xffffffffffffffffffffffffffffffffffffffff\n      mul\n      not\n      and\n      swap1\n      dup4\n      0xffffffffffffffffffffffffffffffffffffffff\n      and\n      mul\n      or\n      swap1\n      sstore\n      pop\n        /* \"contracts/zapyield-mainnet-beta.0.1.5.sol\":2225:2335  if (user.referrer == address(0) && _referrer != address(0)) {... */\n    tag_168:\n        /* \"contracts/zapyield-mainnet-beta.0.1.5.sol\":2345:2402  USDC.safeTransferFrom(msg.sender, address(this), _amount) */\n      tag_169\n        /* \"contracts/zapyield-mainnet-beta.0.1.5.sol\":2367:2377  msg.sender */\n      caller\n        /* \"contracts/zapyield-mainnet-beta.0.1.5.sol\":2387:2391  this */\n      address\n        /* \"contracts/zapyield-mainnet-beta.0.1.5.sol\":2394:2401  _amount */\n      dup6\n        /* \"contracts/zapyield-mainnet-beta.0.1.5.sol\":723:765  0x833589fCD6eDb6E08f4c7C32D4f71b54bdA02913 */\n      0x833589fcd6edb6e08f4c7c32d4f71b54bda02913\n        /* \"contracts/zapyield-mainnet-beta.0.1.5.sol\":2345:2366  USDC.safeTransferFrom */\n      0xffffffffffffffffffffffffffffffffffffffff\n      and\n      tag_170\n      swap1\n        /* \"contracts/zapyield-mainnet-beta.0.1.5.sol\":2345:2402  USDC.safeTransferFrom(msg.sender, address(this), _amount) */\n      swap4\n      swap3\n      swap2\n      swap1\n      0xffffffff\n      and\n      jump\t// in\n    tag_169:\n        /* \"contracts/zapyield-mainnet-beta.0.1.5.sol\":723:765  0x833589fCD6eDb6E08f4c7C32D4f71b54bdA02913 */\n      0x833589fcd6edb6e08f4c7c32d4f71b54bda02913\n        /* \"contracts/zapyield-mainnet-beta.0.1.5.sol\":2412:2424  USDC.approve */\n      0xffffffffffffffffffffffffffffffffffffffff\n      and\n      0x095ea7b3\n        /* \"contracts/zapyield-mainnet-beta.0.1.5.sol\":823:865  0xc1256Ae5FF1cf2719D4937adb3bbCCab2E00A2Ca */\n      0xc1256ae5ff1cf2719d4937adb3bbccab2e00a2ca\n        /* \"contracts/zapyield-mainnet-beta.0.1.5.sol\":2441:2448  _amount */\n      dup6\n        /* \"contracts/zapyield-mainnet-beta.0.1.5.sol\":2412:2449  USDC.approve(address(mUSDC), _amount) */\n      mload(0x40)\n      dup4\n      0xffffffff\n      and\n      0xe0\n      shl\n      dup2\n      mstore\n      0x04\n      add\n      tag_171\n      swap3\n      swap2\n      swap1\n      tag_172\n      jump\t// in\n    tag_171:\n      0x20\n      mload(0x40)\n      dup1\n      dup4\n      sub\n      dup2\n      0x00\n      dup8\n      gas\n      call\n      iszero\n      dup1\n      iszero\n      tag_174\n      jumpi\n      returndatasize\n      0x00\n      dup1\n      returndatacopy\n      revert(0x00, returndatasize)\n    tag_174:\n      pop\n      pop\n      pop\n      pop\n      mload(0x40)\n      returndatasize\n      not(0x1f)\n      0x1f\n      dup3\n      add\n      and\n      dup3\n      add\n      dup1\n      0x40\n      mstore\n      pop\n      dup2\n      add\n      swap1\n      tag_175\n      swap2\n      swap1\n      tag_176\n      jump\t// in\n    tag_175:\n      pop\n        /* \"contracts/zapyield-mainnet-beta.0.1.5.sol\":2459:2476  uint256 newShares */\n      0x00\n        /* \"contracts/zapyield-mainnet-beta.0.1.5.sol\":823:865  0xc1256Ae5FF1cf2719D4937adb3bbCCab2E00A2Ca */\n      0xc1256ae5ff1cf2719d4937adb3bbccab2e00a2ca\n        /* \"contracts/zapyield-mainnet-beta.0.1.5.sol\":2479:2492  mUSDC.deposit */\n      0xffffffffffffffffffffffffffffffffffffffff\n      and\n      0x6e553f65\n        /* \"contracts/zapyield-mainnet-beta.0.1.5.sol\":2493:2500  _amount */\n      dup6\n        /* \"contracts/zapyield-mainnet-beta.0.1.5.sol\":2510:2514  this */\n      address\n        /* \"contracts/zapyield-mainnet-beta.0.1.5.sol\":2479:2516  mUSDC.deposit(_amount, address(this)) */\n      mload(0x40)\n      dup4\n      0xffffffff\n      and\n      0xe0\n      shl\n      dup2\n      mstore\n      0x04\n      add\n      tag_177\n      swap3\n      swap2\n      swap1\n      tag_178\n      jump\t// in\n    tag_177:\n      0x20\n      mload(0x40)\n      dup1\n      dup4\n      sub\n      dup2\n      0x00\n      dup8\n      gas\n      call\n      iszero\n      dup1\n      iszero\n      tag_180\n      jumpi\n      returndatasize\n      0x00\n      dup1\n      returndatacopy\n      revert(0x00, returndatasize)\n    tag_180:\n      pop\n      pop\n      pop\n      pop\n      mload(0x40)\n      returndatasize\n      not(0x1f)\n      0x1f\n      dup3\n      add\n      and\n      dup3\n      add\n      dup1\n      0x40\n      mstore\n      pop\n      dup2\n      add\n      swap1\n      tag_181\n      swap2\n      swap1\n      tag_91\n      jump\t// in\n    tag_181:\n        /* \"contracts/zapyield-mainnet-beta.0.1.5.sol\":2459:2516  uint256 newShares = mUSDC.deposit(_amount, address(this)) */\n      swap1\n      pop\n        /* \"contracts/zapyield-mainnet-beta.0.1.5.sol\":2553:2560  _amount */\n      dup4\n        /* \"contracts/zapyield-mainnet-beta.0.1.5.sol\":2535:2539  user */\n      dup3\n        /* \"contracts/zapyield-mainnet-beta.0.1.5.sol\":2535:2549  user.principal */\n      0x00\n      add\n      0x00\n        /* \"contracts/zapyield-mainnet-beta.0.1.5.sol\":2535:2560  user.principal += _amount */\n      dup3\n      dup3\n      sload\n      tag_182\n      swap2\n      swap1\n      tag_97\n      jump\t// in\n    tag_182:\n      swap3\n      pop\n      pop\n      dup2\n      swap1\n      sstore\n      pop\n        /* \"contracts/zapyield-mainnet-beta.0.1.5.sol\":2591:2600  newShares */\n      dup1\n        /* \"contracts/zapyield-mainnet-beta.0.1.5.sol\":2570:2574  user */\n      dup3\n        /* \"contracts/zapyield-mainnet-beta.0.1.5.sol\":2570:2587  user.shareBalance */\n      0x01\n      add\n      0x00\n        /* \"contracts/zapyield-mainnet-beta.0.1.5.sol\":2570:2600  user.shareBalance += newShares */\n      dup3\n      dup3\n      sload\n      tag_183\n      swap2\n      swap1\n      tag_97\n      jump\t// in\n    tag_183:\n      swap3\n      pop\n      pop\n      dup2\n      swap1\n      sstore\n      pop\n        /* \"contracts/zapyield-mainnet-beta.0.1.5.sol\":2633:2648  block.timestamp */\n      timestamp\n        /* \"contracts/zapyield-mainnet-beta.0.1.5.sol\":2610:2614  user */\n      dup3\n        /* \"contracts/zapyield-mainnet-beta.0.1.5.sol\":2610:2630  user.lastDepositTime */\n      0x04\n      add\n        /* \"contracts/zapyield-mainnet-beta.0.1.5.sol\":2610:2648  user.lastDepositTime = block.timestamp */\n      dup2\n      swap1\n      sstore\n      pop\n        /* \"contracts/zapyield-mainnet-beta.0.1.5.sol\":2691:2695  user */\n      dup2\n        /* \"contracts/zapyield-mainnet-beta.0.1.5.sol\":2691:2704  user.referrer */\n      0x02\n      add\n      0x00\n      swap1\n      sload\n      swap1\n      0x0100\n      exp\n      swap1\n      div\n      0xffffffffffffffffffffffffffffffffffffffff\n      and\n        /* \"contracts/zapyield-mainnet-beta.0.1.5.sol\":2664:2705  ZapIn(msg.sender, _amount, user.referrer) */\n      0xffffffffffffffffffffffffffffffffffffffff\n      and\n        /* \"contracts/zapyield-mainnet-beta.0.1.5.sol\":2670:2680  msg.sender */\n      caller\n        /* \"contracts/zapyield-mainnet-beta.0.1.5.sol\":2664:2705  ZapIn(msg.sender, _amount, user.referrer) */\n      0xffffffffffffffffffffffffffffffffffffffff\n      and\n      0x7cfbfcb3643fe336f1dcfbb142544338eb64be14c66360deb7a5c6c305d5a89c\n        /* \"contracts/zapyield-mainnet-beta.0.1.5.sol\":2682:2689  _amount */\n      dup7\n        /* \"contracts/zapyield-mainnet-beta.0.1.5.sol\":2664:2705  ZapIn(msg.sender, _amount, user.referrer) */\n      mload(0x40)\n      tag_184\n      swap2\n      swap1\n      tag_25\n      jump\t// in\n    tag_184:\n      mload(0x40)\n      dup1\n      swap2\n      sub\n      swap1\n      log3\n        /* \"contracts/zapyield-mainnet-beta.0.1.5.sol\":2047:2712  {... */\n      pop\n      pop\n        /* \"@openzeppelin/contracts/security/ReentrancyGuard.sol\":2303:2323  _nonReentrantAfter() */\n      tag_185\n        /* \"@openzeppelin/contracts/security/ReentrancyGuard.sol\":2303:2321  _nonReentrantAfter */\n      tag_133\n        /* \"@openzeppelin/contracts/security/ReentrancyGuard.sol\":2303:2323  _nonReentrantAfter() */\n      jump\t// in\n    tag_185:\n        /* \"contracts/zapyield-mainnet-beta.0.1.5.sol\":1974:2712  function zapIn(uint256 _amount, address _referrer) external nonReentrant {... */\n      pop\n      pop\n      jump\t// out\n        /* \"@openzeppelin/contracts/access/Ownable.sol\":2543:2758  function transferOwnership(address newOwner) public virtual onlyOwner {... */\n    tag_71:\n        /* \"@openzeppelin/contracts/access/Ownable.sol\":1531:1544  _checkOwner() */\n      tag_187\n        /* \"@openzeppelin/contracts/access/Ownable.sol\":1531:1542  _checkOwner */\n      tag_148\n        /* \"@openzeppelin/contracts/access/Ownable.sol\":1531:1544  _checkOwner() */\n      jump\t// in\n    tag_187:\n        /* \"@openzeppelin/contracts/access/Ownable.sol\":2647:2648  0 */\n      0x00\n        /* \"@openzeppelin/contracts/access/Ownable.sol\":2627:2649  newOwner == address(0) */\n      0xffffffffffffffffffffffffffffffffffffffff\n      and\n        /* \"@openzeppelin/contracts/access/Ownable.sol\":2627:2635  newOwner */\n      dup2\n        /* \"@openzeppelin/contracts/access/Ownable.sol\":2627:2649  newOwner == address(0) */\n      0xffffffffffffffffffffffffffffffffffffffff\n      and\n      sub\n        /* \"@openzeppelin/contracts/access/Ownable.sol\":2623:2714  if (newOwner == address(0)) {... */\n      tag_189\n      jumpi\n        /* \"@openzeppelin/contracts/access/Ownable.sol\":2700:2701  0 */\n      0x00\n        /* \"@openzeppelin/contracts/access/Ownable.sol\":2672:2703  OwnableInvalidOwner(address(0)) */\n      mload(0x40)\n      0x1e4fbdf700000000000000000000000000000000000000000000000000000000\n      dup2\n      mstore\n      0x04\n      add\n      tag_190\n      swap2\n      swap1\n      tag_57\n      jump\t// in\n    tag_190:\n      mload(0x40)\n      dup1\n      swap2\n      sub\n      swap1\n      revert\n        /* \"@openzeppelin/contracts/access/Ownable.sol\":2623:2714  if (newOwner == address(0)) {... */\n    tag_189:\n        /* \"@openzeppelin/contracts/access/Ownable.sol\":2723:2751  _transferOwnership(newOwner) */\n      tag_191\n        /* \"@openzeppelin/contracts/access/Ownable.sol\":2742:2750  newOwner */\n      dup2\n        /* \"@openzeppelin/contracts/access/Ownable.sol\":2723:2741  _transferOwnership */\n      tag_151\n        /* \"@openzeppelin/contracts/access/Ownable.sol\":2723:2751  _transferOwnership(newOwner) */\n      jump\t// in\n    tag_191:\n        /* \"@openzeppelin/contracts/access/Ownable.sol\":2543:2758  function transferOwnership(address newOwner) public virtual onlyOwner {... */\n      pop\n      jump\t// out\n        /* \"contracts/zapyield-mainnet-beta.0.1.5.sol\":1294:1326  uint256 public totalProtocolFees */\n    tag_73:\n      sload(0x03)\n      dup2\n      jump\t// out\n        /* \"contracts/zapyield-mainnet-beta.0.1.5.sol\":773:866  IMorphoVault public constant mUSDC = IMorphoVault(0xc1256Ae5FF1cf2719D4937adb3bbCCab2E00A2Ca) */\n    tag_76:\n        /* \"contracts/zapyield-mainnet-beta.0.1.5.sol\":823:865  0xc1256Ae5FF1cf2719D4937adb3bbCCab2E00A2Ca */\n      0xc1256ae5ff1cf2719d4937adb3bbccab2e00a2ca\n        /* \"contracts/zapyield-mainnet-beta.0.1.5.sol\":773:866  IMorphoVault public constant mUSDC = IMorphoVault(0xc1256Ae5FF1cf2719D4937adb3bbCCab2E00A2Ca) */\n      dup2\n      jump\t// out\n        /* \"@openzeppelin/contracts/security/ReentrancyGuard.sol\":2336:2623  function _nonReentrantBefore() private {... */\n    tag_81:\n        /* \"@openzeppelin/contracts/security/ReentrancyGuard.sol\":1759:1760  2 */\n      0x02\n        /* \"@openzeppelin/contracts/security/ReentrancyGuard.sol\":2468:2475  _status */\n      sload(0x01)\n        /* \"@openzeppelin/contracts/security/ReentrancyGuard.sol\":2468:2487  _status != _ENTERED */\n      sub\n        /* \"@openzeppelin/contracts/security/ReentrancyGuard.sol\":2460:2523  require(_status != _ENTERED, \"ReentrancyGuard: reentrant call\") */\n      tag_193\n      jumpi\n      mload(0x40)\n      0x08c379a000000000000000000000000000000000000000000000000000000000\n      dup2\n      mstore\n      0x04\n      add\n      tag_194\n      swap1\n      tag_195\n      jump\t// in\n    tag_194:\n      mload(0x40)\n      dup1\n      swap2\n      sub\n      swap1\n      revert\n    tag_193:\n        /* \"@openzeppelin/contracts/security/ReentrancyGuard.sol\":1759:1760  2 */\n      0x02\n        /* \"@openzeppelin/contracts/security/ReentrancyGuard.sol\":2598:2605  _status */\n      0x01\n        /* \"@openzeppelin/contracts/security/ReentrancyGuard.sol\":2598:2616  _status = _ENTERED */\n      dup2\n      swap1\n      sstore\n      pop\n        /* \"@openzeppelin/contracts/security/ReentrancyGuard.sol\":2336:2623  function _nonReentrantBefore() private {... */\n      jump\t// out\n        /* \"@openzeppelin/contracts/token/ERC20/utils/SafeERC20.sol\":1219:1379  function safeTransfer(IERC20 token, address to, uint256 value) internal {... */\n    tag_107:\n        /* \"@openzeppelin/contracts/token/ERC20/utils/SafeERC20.sol\":1301:1372  _callOptionalReturn(token, abi.encodeCall(token.transfer, (to, value))) */\n      tag_197\n        /* \"@openzeppelin/contracts/token/ERC20/utils/SafeERC20.sol\":1321:1326  token */\n      dup4\n        /* \"@openzeppelin/contracts/token/ERC20/utils/SafeERC20.sol\":1343:1348  token */\n      dup5\n        /* \"@openzeppelin/contracts/token/ERC20/utils/SafeERC20.sol\":1343:1357  token.transfer */\n      0xffffffffffffffffffffffffffffffffffffffff\n      and\n      0xa9059cbb\n        /* \"@openzeppelin/contracts/token/ERC20/utils/SafeERC20.sol\":1360:1362  to */\n      dup6\n        /* \"@openzeppelin/contracts/token/ERC20/utils/SafeERC20.sol\":1364:1369  value */\n      dup6\n        /* \"@openzeppelin/contracts/token/ERC20/utils/SafeERC20.sol\":1328:1371  abi.encodeCall(token.transfer, (to, value)) */\n      add(0x24, mload(0x40))\n      tag_198\n      swap3\n      swap2\n      swap1\n      tag_172\n      jump\t// in\n    tag_198:\n      mload(0x40)\n      0x20\n      dup2\n      dup4\n      sub\n      sub\n      dup2\n      mstore\n      swap1\n      0x40\n      mstore\n      swap2\n      pop\n      0xe0\n      shl\n      0x20\n      dup3\n      add\n      dup1\n      mload\n      0xffffffffffffffffffffffffffffffffffffffffffffffffffffffff\n      dup4\n      dup2\n      dup4\n      and\n      or\n      dup4\n      mstore\n      pop\n      pop\n      pop\n      pop\n        /* \"@openzeppelin/contracts/token/ERC20/utils/SafeERC20.sol\":1301:1320  _callOptionalReturn */\n      tag_199\n        /* \"@openzeppelin/contracts/token/ERC20/utils/SafeERC20.sol\":1301:1372  _callOptionalReturn(token, abi.encodeCall(token.transfer, (to, value))) */\n      jump\t// in\n    tag_197:\n        /* \"@openzeppelin/contracts/token/ERC20/utils/SafeERC20.sol\":1219:1379  function safeTransfer(IERC20 token, address to, uint256 value) internal {... */\n      pop\n      pop\n      pop\n      jump\t// out\n        /* \"@openzeppelin/contracts/security/ReentrancyGuard.sol\":2629:2838  function _nonReentrantAfter() private {... */\n    tag_133:\n        /* \"@openzeppelin/contracts/security/ReentrancyGuard.sol\":1716:1717  1 */\n      0x01\n        /* \"@openzeppelin/contracts/security/ReentrancyGuard.sol\":2809:2816  _status */\n      dup1\n        /* \"@openzeppelin/contracts/security/ReentrancyGuard.sol\":2809:2831  _status = _NOT_ENTERED */\n      dup2\n      swap1\n      sstore\n      pop\n        /* \"@openzeppelin/contracts/security/ReentrancyGuard.sol\":2629:2838  function _nonReentrantAfter() private {... */\n      jump\t// out\n        /* \"@openzeppelin/contracts/access/Ownable.sol\":1796:1958  function _checkOwner() internal view virtual {... */\n    tag_148:\n        /* \"@openzeppelin/contracts/access/Ownable.sol\":1866:1878  _msgSender() */\n      tag_202\n        /* \"@openzeppelin/contracts/access/Ownable.sol\":1866:1876  _msgSender */\n      tag_203\n        /* \"@openzeppelin/contracts/access/Ownable.sol\":1866:1878  _msgSender() */\n      jump\t// in\n    tag_202:\n        /* \"@openzeppelin/contracts/access/Ownable.sol\":1855:1878  owner() != _msgSender() */\n      0xffffffffffffffffffffffffffffffffffffffff\n      and\n        /* \"@openzeppelin/contracts/access/Ownable.sol\":1855:1862  owner() */\n      tag_204\n        /* \"@openzeppelin/contracts/access/Ownable.sol\":1855:1860  owner */\n      tag_55\n        /* \"@openzeppelin/contracts/access/Ownable.sol\":1855:1862  owner() */\n      jump\t// in\n    tag_204:\n        /* \"@openzeppelin/contracts/access/Ownable.sol\":1855:1878  owner() != _msgSender() */\n      0xffffffffffffffffffffffffffffffffffffffff\n      and\n      eq\n        /* \"@openzeppelin/contracts/access/Ownable.sol\":1851:1952  if (owner() != _msgSender()) {... */\n      tag_205\n      jumpi\n        /* \"@openzeppelin/contracts/access/Ownable.sol\":1928:1940  _msgSender() */\n      tag_206\n        /* \"@openzeppelin/contracts/access/Ownable.sol\":1928:1938  _msgSender */\n      tag_203\n        /* \"@openzeppelin/contracts/access/Ownable.sol\":1928:1940  _msgSender() */\n      jump\t// in\n    tag_206:\n        /* \"@openzeppelin/contracts/access/Ownable.sol\":1901:1941  OwnableUnauthorizedAccount(_msgSender()) */\n      mload(0x40)\n      0x118cdaa700000000000000000000000000000000000000000000000000000000\n      dup2\n      mstore\n      0x04\n      add\n      tag_207\n      swap2\n      swap1\n      tag_57\n      jump\t// in\n    tag_207:\n      mload(0x40)\n      dup1\n      swap2\n      sub\n      swap1\n      revert\n        /* \"@openzeppelin/contracts/access/Ownable.sol\":1851:1952  if (owner() != _msgSender()) {... */\n    tag_205:\n        /* \"@openzeppelin/contracts/access/Ownable.sol\":1796:1958  function _checkOwner() internal view virtual {... */\n      jump\t// out\n        /* \"@openzeppelin/contracts/access/Ownable.sol\":2912:3099  function _transferOwnership(address newOwner) internal virtual {... */\n    tag_151:\n        /* \"@openzeppelin/contracts/access/Ownable.sol\":2985:3001  address oldOwner */\n      0x00\n        /* \"@openzeppelin/contracts/access/Ownable.sol\":3004:3010  _owner */\n      dup1\n      0x00\n      swap1\n      sload\n      swap1\n      0x0100\n      exp\n      swap1\n      div\n      0xffffffffffffffffffffffffffffffffffffffff\n      and\n        /* \"@openzeppelin/contracts/access/Ownable.sol\":2985:3010  address oldOwner = _owner */\n      swap1\n      pop\n        /* \"@openzeppelin/contracts/access/Ownable.sol\":3029:3037  newOwner */\n      dup2\n        /* \"@openzeppelin/contracts/access/Ownable.sol\":3020:3026  _owner */\n      0x00\n      dup1\n        /* \"@openzeppelin/contracts/access/Ownable.sol\":3020:3037  _owner = newOwner */\n      0x0100\n      exp\n      dup2\n      sload\n      dup2\n      0xffffffffffffffffffffffffffffffffffffffff\n      mul\n      not\n      and\n      swap1\n      dup4\n      0xffffffffffffffffffffffffffffffffffffffff\n      and\n      mul\n      or\n      swap1\n      sstore\n      pop\n        /* \"@openzeppelin/contracts/access/Ownable.sol\":3083:3091  newOwner */\n      dup2\n        /* \"@openzeppelin/contracts/access/Ownable.sol\":3052:3092  OwnershipTransferred(oldOwner, newOwner) */\n      0xffffffffffffffffffffffffffffffffffffffff\n      and\n        /* \"@openzeppelin/contracts/access/Ownable.sol\":3073:3081  oldOwner */\n      dup2\n        /* \"@openzeppelin/contracts/access/Ownable.sol\":3052:3092  OwnershipTransferred(oldOwner, newOwner) */\n      0xffffffffffffffffffffffffffffffffffffffff\n      and\n      0x8be0079c531659141344cd1fd0a4f28419497f9722a3daafe3b4186f6b6457e0\n      mload(0x40)\n      mload(0x40)\n      dup1\n      swap2\n      sub\n      swap1\n      log3\n        /* \"@openzeppelin/contracts/access/Ownable.sol\":2975:3099  {... */\n      pop\n        /* \"@openzeppelin/contracts/access/Ownable.sol\":2912:3099  function _transferOwnership(address newOwner) internal virtual {... */\n      pop\n      jump\t// out\n        /* \"@openzeppelin/contracts/token/ERC20/utils/SafeERC20.sol\":1618:1806  function safeTransferFrom(IERC20 token, address from, address to, uint256 value) internal {... */\n    tag_170:\n        /* \"@openzeppelin/contracts/token/ERC20/utils/SafeERC20.sol\":1718:1799  _callOptionalReturn(token, abi.encodeCall(token.transferFrom, (from, to, value))) */\n      tag_210\n        /* \"@openzeppelin/contracts/token/ERC20/utils/SafeERC20.sol\":1738:1743  token */\n      dup5\n        /* \"@openzeppelin/contracts/token/ERC20/utils/SafeERC20.sol\":1760:1765  token */\n      dup6\n        /* \"@openzeppelin/contracts/token/ERC20/utils/SafeERC20.sol\":1760:1778  token.transferFrom */\n      0xffffffffffffffffffffffffffffffffffffffff\n      and\n      0x23b872dd\n        /* \"@openzeppelin/contracts/token/ERC20/utils/SafeERC20.sol\":1781:1785  from */\n      dup7\n        /* \"@openzeppelin/contracts/token/ERC20/utils/SafeERC20.sol\":1787:1789  to */\n      dup7\n        /* \"@openzeppelin/contracts/token/ERC20/utils/SafeERC20.sol\":1791:1796  value */\n      dup7\n        /* \"@openzeppelin/contracts/token/ERC20/utils/SafeERC20.sol\":1745:1798  abi.encodeCall(token.transferFrom, (from, to, value)) */\n      add(0x24, mload(0x40))\n      tag_211\n      swap4\n      swap3\n      swap2\n      swap1\n      tag_212\n      jump\t// in\n    tag_211:\n      mload(0x40)\n      0x20\n      dup2\n      dup4\n      sub\n      sub\n      dup2\n      mstore\n      swap1\n      0x40\n      mstore\n      swap2\n      pop\n      0xe0\n      shl\n      0x20\n      dup3\n      add\n      dup1\n      mload\n      0xffffffffffffffffffffffffffffffffffffffffffffffffffffffff\n      dup4\n      dup2\n      dup4\n      and\n      or\n      dup4\n      mstore\n      pop\n      pop\n      pop\n      pop\n        /* \"@openzeppelin/contracts/token/ERC20/utils/SafeERC20.sol\":1718:1737  _callOptionalReturn */\n      tag_199\n        /* \"@openzeppelin/contracts/token/ERC20/utils/SafeERC20.sol\":1718:1799  _callOptionalReturn(token, abi.encodeCall(token.transferFrom, (from, to, value))) */\n      jump\t// in\n    tag_210:\n        /* \"@openzeppelin/contracts/token/ERC20/utils/SafeERC20.sol\":1618:1806  function safeTransferFrom(IERC20 token, address from, address to, uint256 value) internal {... */\n      pop\n      pop\n      pop\n      pop\n      jump\t// out\n        /* \"@openzeppelin/contracts/token/ERC20/utils/SafeERC20.sol\":8370:9090  function _callOptionalReturn(IERC20 token, bytes memory data) private {... */\n    tag_199:\n        /* \"@openzeppelin/contracts/token/ERC20/utils/SafeERC20.sol\":8450:8468  uint256 returnSize */\n      0x00\n        /* \"@openzeppelin/contracts/token/ERC20/utils/SafeERC20.sol\":8478:8497  uint256 returnValue */\n      dup1\n        /* \"@openzeppelin/contracts/token/ERC20/utils/SafeERC20.sol\":8616:8620  0x20 */\n      0x20\n        /* \"@openzeppelin/contracts/token/ERC20/utils/SafeERC20.sol\":8613:8614  0 */\n      0x00\n        /* \"@openzeppelin/contracts/token/ERC20/utils/SafeERC20.sol\":8606:8610  data */\n      dup5\n        /* \"@openzeppelin/contracts/token/ERC20/utils/SafeERC20.sol\":8600:8611  mload(data) */\n      mload\n        /* \"@openzeppelin/contracts/token/ERC20/utils/SafeERC20.sol\":8593:8597  0x20 */\n      0x20\n        /* \"@openzeppelin/contracts/token/ERC20/utils/SafeERC20.sol\":8587:8591  data */\n      dup7\n        /* \"@openzeppelin/contracts/token/ERC20/utils/SafeERC20.sol\":8583:8598  add(data, 0x20) */\n      add\n        /* \"@openzeppelin/contracts/token/ERC20/utils/SafeERC20.sol\":8580:8581  0 */\n      0x00\n        /* \"@openzeppelin/contracts/token/ERC20/utils/SafeERC20.sol\":8573:8578  token */\n      dup9\n        /* \"@openzeppelin/contracts/token/ERC20/utils/SafeERC20.sol\":8566:8571  gas() */\n      gas\n        /* \"@openzeppelin/contracts/token/ERC20/utils/SafeERC20.sol\":8561:8621  call(gas(), token, 0, add(data, 0x20), mload(data), 0, 0x20) */\n      call\n        /* \"@openzeppelin/contracts/token/ERC20/utils/SafeERC20.sol\":8673:8680  success */\n      dup1\n        /* \"@openzeppelin/contracts/token/ERC20/utils/SafeERC20.sol\":8663:8839  if iszero(success) {... */\n      tag_214\n      jumpi\n        /* \"@openzeppelin/contracts/token/ERC20/utils/SafeERC20.sol\":8717:8721  0x40 */\n      0x40\n        /* \"@openzeppelin/contracts/token/ERC20/utils/SafeERC20.sol\":8711:8722  mload(0x40) */\n      mload\n        /* \"@openzeppelin/contracts/token/ERC20/utils/SafeERC20.sol\":8762:8778  returndatasize() */\n      returndatasize\n        /* \"@openzeppelin/contracts/token/ERC20/utils/SafeERC20.sol\":8759:8760  0 */\n      0x00\n        /* \"@openzeppelin/contracts/token/ERC20/utils/SafeERC20.sol\":8754:8757  ptr */\n      dup3\n        /* \"@openzeppelin/contracts/token/ERC20/utils/SafeERC20.sol\":8739:8779  returndatacopy(ptr, 0, returndatasize()) */\n      returndatacopy\n        /* \"@openzeppelin/contracts/token/ERC20/utils/SafeERC20.sol\":8808:8824  returndatasize() */\n      returndatasize\n        /* \"@openzeppelin/contracts/token/ERC20/utils/SafeERC20.sol\":8803:8806  ptr */\n      dup2\n        /* \"@openzeppelin/contracts/token/ERC20/utils/SafeERC20.sol\":8796:8825  revert(ptr, returndatasize()) */\n      revert\n        /* \"@openzeppelin/contracts/token/ERC20/utils/SafeERC20.sol\":8663:8839  if iszero(success) {... */\n    tag_214:\n        /* \"@openzeppelin/contracts/token/ERC20/utils/SafeERC20.sol\":8866:8882  returndatasize() */\n      returndatasize\n        /* \"@openzeppelin/contracts/token/ERC20/utils/SafeERC20.sol\":8852:8882  returnSize := returndatasize() */\n      swap3\n      pop\n        /* \"@openzeppelin/contracts/token/ERC20/utils/SafeERC20.sol\":8916:8917  0 */\n      0x00\n        /* \"@openzeppelin/contracts/token/ERC20/utils/SafeERC20.sol\":8910:8918  mload(0) */\n      mload\n        /* \"@openzeppelin/contracts/token/ERC20/utils/SafeERC20.sol\":8895:8918  returnValue := mload(0) */\n      swap2\n      pop\n        /* \"@openzeppelin/contracts/token/ERC20/utils/SafeERC20.sol\":8532:8928  {... */\n      pop\n        /* \"@openzeppelin/contracts/token/ERC20/utils/SafeERC20.sol\":8956:8957  0 */\n      0x00\n        /* \"@openzeppelin/contracts/token/ERC20/utils/SafeERC20.sol\":8942:8952  returnSize */\n      dup3\n        /* \"@openzeppelin/contracts/token/ERC20/utils/SafeERC20.sol\":8942:8957  returnSize == 0 */\n      eq\n        /* \"@openzeppelin/contracts/token/ERC20/utils/SafeERC20.sol\":8942:9010  returnSize == 0 ? address(token).code.length == 0 : returnValue != 1 */\n      tag_215\n      jumpi\n        /* \"@openzeppelin/contracts/token/ERC20/utils/SafeERC20.sol\":9009:9010  1 */\n      0x01\n        /* \"@openzeppelin/contracts/token/ERC20/utils/SafeERC20.sol\":8994:9005  returnValue */\n      dup2\n        /* \"@openzeppelin/contracts/token/ERC20/utils/SafeERC20.sol\":8994:9010  returnValue != 1 */\n      eq\n      iszero\n        /* \"@openzeppelin/contracts/token/ERC20/utils/SafeERC20.sol\":8942:9010  returnSize == 0 ? address(token).code.length == 0 : returnValue != 1 */\n      jump(tag_216)\n    tag_215:\n        /* \"@openzeppelin/contracts/token/ERC20/utils/SafeERC20.sol\":8990:8991  0 */\n      0x00\n        /* \"@openzeppelin/contracts/token/ERC20/utils/SafeERC20.sol\":8968:8973  token */\n      dup5\n        /* \"@openzeppelin/contracts/token/ERC20/utils/SafeERC20.sol\":8960:8986  address(token).code.length */\n      0xffffffffffffffffffffffffffffffffffffffff\n      and\n      extcodesize\n        /* \"@openzeppelin/contracts/token/ERC20/utils/SafeERC20.sol\":8960:8991  address(token).code.length == 0 */\n      eq\n        /* \"@openzeppelin/contracts/token/ERC20/utils/SafeERC20.sol\":8942:9010  returnSize == 0 ? address(token).code.length == 0 : returnValue != 1 */\n    tag_216:\n        /* \"@openzeppelin/contracts/token/ERC20/utils/SafeERC20.sol\":8938:9084  if (returnSize == 0 ? address(token).code.length == 0 : returnValue != 1) {... */\n      iszero\n      tag_217\n      jumpi\n        /* \"@openzeppelin/contracts/token/ERC20/utils/SafeERC20.sol\":9066:9071  token */\n      dup4\n        /* \"@openzeppelin/contracts/token/ERC20/utils/SafeERC20.sol\":9033:9073  SafeERC20FailedOperation(address(token)) */\n      mload(0x40)\n      0x5274afe700000000000000000000000000000000000000000000000000000000\n      dup2\n      mstore\n      0x04\n      add\n      tag_218\n      swap2\n      swap1\n      tag_57\n      jump\t// in\n    tag_218:\n      mload(0x40)\n      dup1\n      swap2\n      sub\n      swap1\n      revert\n        /* \"@openzeppelin/contracts/token/ERC20/utils/SafeERC20.sol\":8938:9084  if (returnSize == 0 ? address(token).code.length == 0 : returnValue != 1) {... */\n    tag_217:\n        /* \"@openzeppelin/contracts/token/ERC20/utils/SafeERC20.sol\":8440:9090  {... */\n      pop\n      pop\n        /* \"@openzeppelin/contracts/token/ERC20/utils/SafeERC20.sol\":8370:9090  function _callOptionalReturn(IERC20 token, bytes memory data) private {... */\n      pop\n      pop\n      jump\t// out\n        /* \"@openzeppelin/contracts/utils/Context.sol\":656:752  function _msgSender() internal view virtual returns (address) {... */\n    tag_203:\n        /* \"@openzeppelin/contracts/utils/Context.sol\":709:716  address */\n      0x00\n        /* \"@openzeppelin/contracts/utils/Context.sol\":735:745  msg.sender */\n      caller\n        /* \"@openzeppelin/contracts/utils/Context.sol\":728:745  return msg.sender */\n      swap1\n      pop\n        /* \"@openzeppelin/contracts/utils/Context.sol\":656:752  function _msgSender() internal view virtual returns (address) {... */\n      swap1\n      jump\t// out\n        /* \"#utility.yul\":7:84   */\n    tag_220:\n        /* \"#utility.yul\":44:51   */\n      0x00\n        /* \"#utility.yul\":73:78   */\n      dup2\n        /* \"#utility.yul\":62:78   */\n      swap1\n      pop\n        /* \"#utility.yul\":7:84   */\n      swap2\n      swap1\n      pop\n      jump\t// out\n        /* \"#utility.yul\":90:208   */\n    tag_221:\n        /* \"#utility.yul\":177:201   */\n      tag_257\n        /* \"#utility.yul\":195:200   */\n      dup2\n        /* \"#utility.yul\":177:201   */\n      tag_220\n      jump\t// in\n    tag_257:\n        /* \"#utility.yul\":172:175   */\n      dup3\n        /* \"#utility.yul\":165:202   */\n      mstore\n        /* \"#utility.yul\":90:208   */\n      pop\n      pop\n      jump\t// out\n        /* \"#utility.yul\":214:436   */\n    tag_25:\n        /* \"#utility.yul\":307:311   */\n      0x00\n        /* \"#utility.yul\":345:347   */\n      0x20\n        /* \"#utility.yul\":334:343   */\n      dup3\n        /* \"#utility.yul\":330:348   */\n      add\n        /* \"#utility.yul\":322:348   */\n      swap1\n      pop\n        /* \"#utility.yul\":358:429   */\n      tag_259\n        /* \"#utility.yul\":426:427   */\n      0x00\n        /* \"#utility.yul\":415:424   */\n      dup4\n        /* \"#utility.yul\":411:428   */\n      add\n        /* \"#utility.yul\":402:408   */\n      dup5\n        /* \"#utility.yul\":358:429   */\n      tag_221\n      jump\t// in\n    tag_259:\n        /* \"#utility.yul\":214:436   */\n      swap3\n      swap2\n      pop\n      pop\n      jump\t// out\n        /* \"#utility.yul\":523:640   */\n    tag_223:\n        /* \"#utility.yul\":632:633   */\n      0x00\n        /* \"#utility.yul\":629:630   */\n      dup1\n        /* \"#utility.yul\":622:634   */\n      revert\n        /* \"#utility.yul\":769:891   */\n    tag_225:\n        /* \"#utility.yul\":842:866   */\n      tag_264\n        /* \"#utility.yul\":860:865   */\n      dup2\n        /* \"#utility.yul\":842:866   */\n      tag_220\n      jump\t// in\n    tag_264:\n        /* \"#utility.yul\":835:840   */\n      dup2\n        /* \"#utility.yul\":832:867   */\n      eq\n        /* \"#utility.yul\":822:885   */\n      tag_265\n      jumpi\n        /* \"#utility.yul\":881:882   */\n      0x00\n        /* \"#utility.yul\":878:879   */\n      dup1\n        /* \"#utility.yul\":871:883   */\n      revert\n        /* \"#utility.yul\":822:885   */\n    tag_265:\n        /* \"#utility.yul\":769:891   */\n      pop\n      jump\t// out\n        /* \"#utility.yul\":897:1036   */\n    tag_226:\n        /* \"#utility.yul\":943:948   */\n      0x00\n        /* \"#utility.yul\":981:987   */\n      dup2\n        /* \"#utility.yul\":968:988   */\n      calldataload\n        /* \"#utility.yul\":959:988   */\n      swap1\n      pop\n        /* \"#utility.yul\":997:1030   */\n      tag_267\n        /* \"#utility.yul\":1024:1029   */\n      dup2\n        /* \"#utility.yul\":997:1030   */\n      tag_225\n      jump\t// in\n    tag_267:\n        /* \"#utility.yul\":897:1036   */\n      swap3\n      swap2\n      pop\n      pop\n      jump\t// out\n        /* \"#utility.yul\":1042:1371   */\n    tag_33:\n        /* \"#utility.yul\":1101:1107   */\n      0x00\n        /* \"#utility.yul\":1150:1152   */\n      0x20\n        /* \"#utility.yul\":1138:1147   */\n      dup3\n        /* \"#utility.yul\":1129:1136   */\n      dup5\n        /* \"#utility.yul\":1125:1148   */\n      sub\n        /* \"#utility.yul\":1121:1153   */\n      slt\n        /* \"#utility.yul\":1118:1237   */\n      iszero\n      tag_269\n      jumpi\n        /* \"#utility.yul\":1156:1235   */\n      tag_270\n      tag_223\n      jump\t// in\n    tag_270:\n        /* \"#utility.yul\":1118:1237   */\n    tag_269:\n        /* \"#utility.yul\":1276:1277   */\n      0x00\n        /* \"#utility.yul\":1301:1354   */\n      tag_271\n        /* \"#utility.yul\":1346:1353   */\n      dup5\n        /* \"#utility.yul\":1337:1343   */\n      dup3\n        /* \"#utility.yul\":1326:1335   */\n      dup6\n        /* \"#utility.yul\":1322:1344   */\n      add\n        /* \"#utility.yul\":1301:1354   */\n      tag_226\n      jump\t// in\n    tag_271:\n        /* \"#utility.yul\":1291:1354   */\n      swap2\n      pop\n        /* \"#utility.yul\":1247:1364   */\n      pop\n        /* \"#utility.yul\":1042:1371   */\n      swap3\n      swap2\n      pop\n      pop\n      jump\t// out\n        /* \"#utility.yul\":1377:1503   */\n    tag_227:\n        /* \"#utility.yul\":1414:1421   */\n      0x00\n        /* \"#utility.yul\":1454:1496   */\n      0xffffffffffffffffffffffffffffffffffffffff\n        /* \"#utility.yul\":1447:1452   */\n      dup3\n        /* \"#utility.yul\":1443:1497   */\n      and\n        /* \"#utility.yul\":1432:1497   */\n      swap1\n      pop\n        /* \"#utility.yul\":1377:1503   */\n      swap2\n      swap1\n      pop\n      jump\t// out\n        /* \"#utility.yul\":1509:1605   */\n    tag_228:\n        /* \"#utility.yul\":1546:1553   */\n      0x00\n        /* \"#utility.yul\":1575:1599   */\n      tag_274\n        /* \"#utility.yul\":1593:1598   */\n      dup3\n        /* \"#utility.yul\":1575:1599   */\n      tag_227\n      jump\t// in\n    tag_274:\n        /* \"#utility.yul\":1564:1599   */\n      swap1\n      pop\n        /* \"#utility.yul\":1509:1605   */\n      swap2\n      swap1\n      pop\n      jump\t// out\n        /* \"#utility.yul\":1611:1733   */\n    tag_229:\n        /* \"#utility.yul\":1684:1708   */\n      tag_276\n        /* \"#utility.yul\":1702:1707   */\n      dup2\n        /* \"#utility.yul\":1684:1708   */\n      tag_228\n      jump\t// in\n    tag_276:\n        /* \"#utility.yul\":1677:1682   */\n      dup2\n        /* \"#utility.yul\":1674:1709   */\n      eq\n        /* \"#utility.yul\":1664:1727   */\n      tag_277\n      jumpi\n        /* \"#utility.yul\":1723:1724   */\n      0x00\n        /* \"#utility.yul\":1720:1721   */\n      dup1\n        /* \"#utility.yul\":1713:1725   */\n      revert\n        /* \"#utility.yul\":1664:1727   */\n    tag_277:\n        /* \"#utility.yul\":1611:1733   */\n      pop\n      jump\t// out\n        /* \"#utility.yul\":1739:1878   */\n    tag_230:\n        /* \"#utility.yul\":1785:1790   */\n      0x00\n        /* \"#utility.yul\":1823:1829   */\n      dup2\n        /* \"#utility.yul\":1810:1830   */\n      calldataload\n        /* \"#utility.yul\":1801:1830   */\n      swap1\n      pop\n        /* \"#utility.yul\":1839:1872   */\n      tag_279\n        /* \"#utility.yul\":1866:1871   */\n      dup2\n        /* \"#utility.yul\":1839:1872   */\n      tag_229\n      jump\t// in\n    tag_279:\n        /* \"#utility.yul\":1739:1878   */\n      swap3\n      swap2\n      pop\n      pop\n      jump\t// out\n        /* \"#utility.yul\":1884:2213   */\n    tag_38:\n        /* \"#utility.yul\":1943:1949   */\n      0x00\n        /* \"#utility.yul\":1992:1994   */\n      0x20\n        /* \"#utility.yul\":1980:1989   */\n      dup3\n        /* \"#utility.yul\":1971:1978   */\n      dup5\n        /* \"#utility.yul\":1967:1990   */\n      sub\n        /* \"#utility.yul\":1963:1995   */\n      slt\n        /* \"#utility.yul\":1960:2079   */\n      iszero\n      tag_281\n      jumpi\n        /* \"#utility.yul\":1998:2077   */\n      tag_282\n      tag_223\n      jump\t// in\n    tag_282:\n        /* \"#utility.yul\":1960:2079   */\n    tag_281:\n        /* \"#utility.yul\":2118:2119   */\n      0x00\n        /* \"#utility.yul\":2143:2196   */\n      tag_283\n        /* \"#utility.yul\":2188:2195   */\n      dup5\n        /* \"#utility.yul\":2179:2185   */\n      dup3\n        /* \"#utility.yul\":2168:2177   */\n      dup6\n        /* \"#utility.yul\":2164:2186   */\n      add\n        /* \"#utility.yul\":2143:2196   */\n      tag_230\n      jump\t// in\n    tag_283:\n        /* \"#utility.yul\":2133:2196   */\n      swap2\n      pop\n        /* \"#utility.yul\":2089:2206   */\n      pop\n        /* \"#utility.yul\":1884:2213   */\n      swap3\n      swap2\n      pop\n      pop\n      jump\t// out\n        /* \"#utility.yul\":2219:2279   */\n    tag_231:\n        /* \"#utility.yul\":2247:2250   */\n      0x00\n        /* \"#utility.yul\":2268:2273   */\n      dup2\n        /* \"#utility.yul\":2261:2273   */\n      swap1\n      pop\n        /* \"#utility.yul\":2219:2279   */\n      swap2\n      swap1\n      pop\n      jump\t// out\n        /* \"#utility.yul\":2285:2427   */\n    tag_232:\n        /* \"#utility.yul\":2335:2344   */\n      0x00\n        /* \"#utility.yul\":2368:2421   */\n      tag_286\n        /* \"#utility.yul\":2386:2420   */\n      tag_287\n        /* \"#utility.yul\":2395:2419   */\n      tag_288\n        /* \"#utility.yul\":2413:2418   */\n      dup5\n        /* \"#utility.yul\":2395:2419   */\n      tag_227\n      jump\t// in\n    tag_288:\n        /* \"#utility.yul\":2386:2420   */\n      tag_231\n      jump\t// in\n    tag_287:\n        /* \"#utility.yul\":2368:2421   */\n      tag_227\n      jump\t// in\n    tag_286:\n        /* \"#utility.yul\":2355:2421   */\n      swap1\n      pop\n        /* \"#utility.yul\":2285:2427   */\n      swap2\n      swap1\n      pop\n      jump\t// out\n        /* \"#utility.yul\":2433:2559   */\n    tag_233:\n        /* \"#utility.yul\":2483:2492   */\n      0x00\n        /* \"#utility.yul\":2516:2553   */\n      tag_290\n        /* \"#utility.yul\":2547:2552   */\n      dup3\n        /* \"#utility.yul\":2516:2553   */\n      tag_232\n      jump\t// in\n    tag_290:\n        /* \"#utility.yul\":2503:2553   */\n      swap1\n      pop\n        /* \"#utility.yul\":2433:2559   */\n      swap2\n      swap1\n      pop\n      jump\t// out\n        /* \"#utility.yul\":2565:2705   */\n    tag_234:\n        /* \"#utility.yul\":2629:2638   */\n      0x00\n        /* \"#utility.yul\":2662:2699   */\n      tag_292\n        /* \"#utility.yul\":2693:2698   */\n      dup3\n        /* \"#utility.yul\":2662:2699   */\n      tag_233\n      jump\t// in\n    tag_292:\n        /* \"#utility.yul\":2649:2699   */\n      swap1\n      pop\n        /* \"#utility.yul\":2565:2705   */\n      swap2\n      swap1\n      pop\n      jump\t// out\n        /* \"#utility.yul\":2711:2870   */\n    tag_235:\n        /* \"#utility.yul\":2812:2863   */\n      tag_294\n        /* \"#utility.yul\":2857:2862   */\n      dup2\n        /* \"#utility.yul\":2812:2863   */\n      tag_234\n      jump\t// in\n    tag_294:\n        /* \"#utility.yul\":2807:2810   */\n      dup3\n        /* \"#utility.yul\":2800:2864   */\n      mstore\n        /* \"#utility.yul\":2711:2870   */\n      pop\n      pop\n      jump\t// out\n        /* \"#utility.yul\":2876:3126   */\n    tag_53:\n        /* \"#utility.yul\":2983:2987   */\n      0x00\n        /* \"#utility.yul\":3021:3023   */\n      0x20\n        /* \"#utility.yul\":3010:3019   */\n      dup3\n        /* \"#utility.yul\":3006:3024   */\n      add\n        /* \"#utility.yul\":2998:3024   */\n      swap1\n      pop\n        /* \"#utility.yul\":3034:3119   */\n      tag_296\n        /* \"#utility.yul\":3116:3117   */\n      0x00\n        /* \"#utility.yul\":3105:3114   */\n      dup4\n        /* \"#utility.yul\":3101:3118   */\n      add\n        /* \"#utility.yul\":3092:3098   */\n      dup5\n        /* \"#utility.yul\":3034:3119   */\n      tag_235\n      jump\t// in\n    tag_296:\n        /* \"#utility.yul\":2876:3126   */\n      swap3\n      swap2\n      pop\n      pop\n      jump\t// out\n        /* \"#utility.yul\":3132:3250   */\n    tag_236:\n        /* \"#utility.yul\":3219:3243   */\n      tag_298\n        /* \"#utility.yul\":3237:3242   */\n      dup2\n        /* \"#utility.yul\":3219:3243   */\n      tag_228\n      jump\t// in\n    tag_298:\n        /* \"#utility.yul\":3214:3217   */\n      dup3\n        /* \"#utility.yul\":3207:3244   */\n      mstore\n        /* \"#utility.yul\":3132:3250   */\n      pop\n      pop\n      jump\t// out\n        /* \"#utility.yul\":3256:3478   */\n    tag_57:\n        /* \"#utility.yul\":3349:3353   */\n      0x00\n        /* \"#utility.yul\":3387:3389   */\n      0x20\n        /* \"#utility.yul\":3376:3385   */\n      dup3\n        /* \"#utility.yul\":3372:3390   */\n      add\n        /* \"#utility.yul\":3364:3390   */\n      swap1\n      pop\n        /* \"#utility.yul\":3400:3471   */\n      tag_300\n        /* \"#utility.yul\":3468:3469   */\n      0x00\n        /* \"#utility.yul\":3457:3466   */\n      dup4\n        /* \"#utility.yul\":3453:3470   */\n      add\n        /* \"#utility.yul\":3444:3450   */\n      dup5\n        /* \"#utility.yul\":3400:3471   */\n      tag_236\n      jump\t// in\n    tag_300:\n        /* \"#utility.yul\":3256:3478   */\n      swap3\n      swap2\n      pop\n      pop\n      jump\t// out\n        /* \"#utility.yul\":3484:4148   */\n    tag_62:\n        /* \"#utility.yul\":3689:3693   */\n      0x00\n        /* \"#utility.yul\":3727:3730   */\n      0xa0\n        /* \"#utility.yul\":3716:3725   */\n      dup3\n        /* \"#utility.yul\":3712:3731   */\n      add\n        /* \"#utility.yul\":3704:3731   */\n      swap1\n      pop\n        /* \"#utility.yul\":3741:3812   */\n      tag_302\n        /* \"#utility.yul\":3809:3810   */\n      0x00\n        /* \"#utility.yul\":3798:3807   */\n      dup4\n        /* \"#utility.yul\":3794:3811   */\n      add\n        /* \"#utility.yul\":3785:3791   */\n      dup9\n        /* \"#utility.yul\":3741:3812   */\n      tag_221\n      jump\t// in\n    tag_302:\n        /* \"#utility.yul\":3822:3894   */\n      tag_303\n        /* \"#utility.yul\":3890:3892   */\n      0x20\n        /* \"#utility.yul\":3879:3888   */\n      dup4\n        /* \"#utility.yul\":3875:3893   */\n      add\n        /* \"#utility.yul\":3866:3872   */\n      dup8\n        /* \"#utility.yul\":3822:3894   */\n      tag_221\n      jump\t// in\n    tag_303:\n        /* \"#utility.yul\":3904:3976   */\n      tag_304\n        /* \"#utility.yul\":3972:3974   */\n      0x40\n        /* \"#utility.yul\":3961:3970   */\n      dup4\n        /* \"#utility.yul\":3957:3975   */\n      add\n        /* \"#utility.yul\":3948:3954   */\n      dup7\n        /* \"#utility.yul\":3904:3976   */\n      tag_236\n      jump\t// in\n    tag_304:\n        /* \"#utility.yul\":3986:4058   */\n      tag_305\n        /* \"#utility.yul\":4054:4056   */\n      0x60\n        /* \"#utility.yul\":4043:4052   */\n      dup4\n        /* \"#utility.yul\":4039:4057   */\n      add\n        /* \"#utility.yul\":4030:4036   */\n      dup6\n        /* \"#utility.yul\":3986:4058   */\n      tag_221\n      jump\t// in\n    tag_305:\n        /* \"#utility.yul\":4068:4141   */\n      tag_306\n        /* \"#utility.yul\":4136:4139   */\n      0x80\n        /* \"#utility.yul\":4125:4134   */\n      dup4\n        /* \"#utility.yul\":4121:4140   */\n      add\n        /* \"#utility.yul\":4112:4118   */\n      dup5\n        /* \"#utility.yul\":4068:4141   */\n      tag_221\n      jump\t// in\n    tag_306:\n        /* \"#utility.yul\":3484:4148   */\n      swap7\n      swap6\n      pop\n      pop\n      pop\n      pop\n      pop\n      pop\n      jump\t// out\n        /* \"#utility.yul\":4154:4628   */\n    tag_67:\n        /* \"#utility.yul\":4222:4228   */\n      0x00\n        /* \"#utility.yul\":4230:4236   */\n      dup1\n        /* \"#utility.yul\":4279:4281   */\n      0x40\n        /* \"#utility.yul\":4267:4276   */\n      dup4\n        /* \"#utility.yul\":4258:4265   */\n      dup6\n        /* \"#utility.yul\":4254:4277   */\n      sub\n        /* \"#utility.yul\":4250:4282   */\n      slt\n        /* \"#utility.yul\":4247:4366   */\n      iszero\n      tag_308\n      jumpi\n        /* \"#utility.yul\":4285:4364   */\n      tag_309\n      tag_223\n      jump\t// in\n    tag_309:\n        /* \"#utility.yul\":4247:4366   */\n    tag_308:\n        /* \"#utility.yul\":4405:4406   */\n      0x00\n        /* \"#utility.yul\":4430:4483   */\n      tag_310\n        /* \"#utility.yul\":4475:4482   */\n      dup6\n        /* \"#utility.yul\":4466:4472   */\n      dup3\n        /* \"#utility.yul\":4455:4464   */\n      dup7\n        /* \"#utility.yul\":4451:4473   */\n      add\n        /* \"#utility.yul\":4430:4483   */\n      tag_226\n      jump\t// in\n    tag_310:\n        /* \"#utility.yul\":4420:4483   */\n      swap3\n      pop\n        /* \"#utility.yul\":4376:4493   */\n      pop\n        /* \"#utility.yul\":4532:4534   */\n      0x20\n        /* \"#utility.yul\":4558:4611   */\n      tag_311\n        /* \"#utility.yul\":4603:4610   */\n      dup6\n        /* \"#utility.yul\":4594:4600   */\n      dup3\n        /* \"#utility.yul\":4583:4592   */\n      dup7\n        /* \"#utility.yul\":4579:4601   */\n      add\n        /* \"#utility.yul\":4558:4611   */\n      tag_230\n      jump\t// in\n    tag_311:\n        /* \"#utility.yul\":4548:4611   */\n      swap2\n      pop\n        /* \"#utility.yul\":4503:4621   */\n      pop\n        /* \"#utility.yul\":4154:4628   */\n      swap3\n      pop\n      swap3\n      swap1\n      pop\n      jump\t// out\n        /* \"#utility.yul\":4634:4780   */\n    tag_237:\n        /* \"#utility.yul\":4704:4713   */\n      0x00\n        /* \"#utility.yul\":4737:4774   */\n      tag_313\n        /* \"#utility.yul\":4768:4773   */\n      dup3\n        /* \"#utility.yul\":4737:4774   */\n      tag_233\n      jump\t// in\n    tag_313:\n        /* \"#utility.yul\":4724:4774   */\n      swap1\n      pop\n        /* \"#utility.yul\":4634:4780   */\n      swap2\n      swap1\n      pop\n      jump\t// out\n        /* \"#utility.yul\":4786:4957   */\n    tag_238:\n        /* \"#utility.yul\":4893:4950   */\n      tag_315\n        /* \"#utility.yul\":4944:4949   */\n      dup2\n        /* \"#utility.yul\":4893:4950   */\n      tag_237\n      jump\t// in\n    tag_315:\n        /* \"#utility.yul\":4888:4891   */\n      dup3\n        /* \"#utility.yul\":4881:4951   */\n      mstore\n        /* \"#utility.yul\":4786:4957   */\n      pop\n      pop\n      jump\t// out\n        /* \"#utility.yul\":4963:5225   */\n    tag_78:\n        /* \"#utility.yul\":5076:5080   */\n      0x00\n        /* \"#utility.yul\":5114:5116   */\n      0x20\n        /* \"#utility.yul\":5103:5112   */\n      dup3\n        /* \"#utility.yul\":5099:5117   */\n      add\n        /* \"#utility.yul\":5091:5117   */\n      swap1\n      pop\n        /* \"#utility.yul\":5127:5218   */\n      tag_317\n        /* \"#utility.yul\":5215:5216   */\n      0x00\n        /* \"#utility.yul\":5204:5213   */\n      dup4\n        /* \"#utility.yul\":5200:5217   */\n      add\n        /* \"#utility.yul\":5191:5197   */\n      dup5\n        /* \"#utility.yul\":5127:5218   */\n      tag_238\n      jump\t// in\n    tag_317:\n        /* \"#utility.yul\":4963:5225   */\n      swap3\n      swap2\n      pop\n      pop\n      jump\t// out\n        /* \"#utility.yul\":5231:5400   */\n    tag_239:\n        /* \"#utility.yul\":5315:5326   */\n      0x00\n        /* \"#utility.yul\":5349:5355   */\n      dup3\n        /* \"#utility.yul\":5344:5347   */\n      dup3\n        /* \"#utility.yul\":5337:5356   */\n      mstore\n        /* \"#utility.yul\":5389:5393   */\n      0x20\n        /* \"#utility.yul\":5384:5387   */\n      dup3\n        /* \"#utility.yul\":5380:5394   */\n      add\n        /* \"#utility.yul\":5365:5394   */\n      swap1\n      pop\n        /* \"#utility.yul\":5231:5400   */\n      swap3\n      swap2\n      pop\n      pop\n      jump\t// out\n        /* \"#utility.yul\":5406:5566   */\n    tag_240:\n        /* \"#utility.yul\":5546:5558   */\n      0x4e6f2062616c616e636500000000000000000000000000000000000000000000\n        /* \"#utility.yul\":5542:5543   */\n      0x00\n        /* \"#utility.yul\":5534:5540   */\n      dup3\n        /* \"#utility.yul\":5530:5544   */\n      add\n        /* \"#utility.yul\":5523:5559   */\n      mstore\n        /* \"#utility.yul\":5406:5566   */\n      pop\n      jump\t// out\n        /* \"#utility.yul\":5572:5938   */\n    tag_241:\n        /* \"#utility.yul\":5714:5717   */\n      0x00\n        /* \"#utility.yul\":5735:5802   */\n      tag_321\n        /* \"#utility.yul\":5799:5801   */\n      0x0a\n        /* \"#utility.yul\":5794:5797   */\n      dup4\n        /* \"#utility.yul\":5735:5802   */\n      tag_239\n      jump\t// in\n    tag_321:\n        /* \"#utility.yul\":5728:5802   */\n      swap2\n      pop\n        /* \"#utility.yul\":5811:5904   */\n      tag_322\n        /* \"#utility.yul\":5900:5903   */\n      dup3\n        /* \"#utility.yul\":5811:5904   */\n      tag_240\n      jump\t// in\n    tag_322:\n        /* \"#utility.yul\":5929:5931   */\n      0x20\n        /* \"#utility.yul\":5924:5927   */\n      dup3\n        /* \"#utility.yul\":5920:5932   */\n      add\n        /* \"#utility.yul\":5913:5932   */\n      swap1\n      pop\n        /* \"#utility.yul\":5572:5938   */\n      swap2\n      swap1\n      pop\n      jump\t// out\n        /* \"#utility.yul\":5944:6363   */\n    tag_85:\n        /* \"#utility.yul\":6110:6114   */\n      0x00\n        /* \"#utility.yul\":6148:6150   */\n      0x20\n        /* \"#utility.yul\":6137:6146   */\n      dup3\n        /* \"#utility.yul\":6133:6151   */\n      add\n        /* \"#utility.yul\":6125:6151   */\n      swap1\n      pop\n        /* \"#utility.yul\":6197:6206   */\n      dup2\n        /* \"#utility.yul\":6191:6195   */\n      dup2\n        /* \"#utility.yul\":6187:6207   */\n      sub\n        /* \"#utility.yul\":6183:6184   */\n      0x00\n        /* \"#utility.yul\":6172:6181   */\n      dup4\n        /* \"#utility.yul\":6168:6185   */\n      add\n        /* \"#utility.yul\":6161:6208   */\n      mstore\n        /* \"#utility.yul\":6225:6356   */\n      tag_324\n        /* \"#utility.yul\":6351:6355   */\n      dup2\n        /* \"#utility.yul\":6225:6356   */\n      tag_241\n      jump\t// in\n    tag_324:\n        /* \"#utility.yul\":6217:6356   */\n      swap1\n      pop\n        /* \"#utility.yul\":5944:6363   */\n      swap2\n      swap1\n      pop\n      jump\t// out\n        /* \"#utility.yul\":6369:6811   */\n    tag_87:\n        /* \"#utility.yul\":6518:6522   */\n      0x00\n        /* \"#utility.yul\":6556:6558   */\n      0x60\n        /* \"#utility.yul\":6545:6554   */\n      dup3\n        /* \"#utility.yul\":6541:6559   */\n      add\n        /* \"#utility.yul\":6533:6559   */\n      swap1\n      pop\n        /* \"#utility.yul\":6569:6640   */\n      tag_326\n        /* \"#utility.yul\":6637:6638   */\n      0x00\n        /* \"#utility.yul\":6626:6635   */\n      dup4\n        /* \"#utility.yul\":6622:6639   */\n      add\n        /* \"#utility.yul\":6613:6619   */\n      dup7\n        /* \"#utility.yul\":6569:6640   */\n      tag_221\n      jump\t// in\n    tag_326:\n        /* \"#utility.yul\":6650:6722   */\n      tag_327\n        /* \"#utility.yul\":6718:6720   */\n      0x20\n        /* \"#utility.yul\":6707:6716   */\n      dup4\n        /* \"#utility.yul\":6703:6721   */\n      add\n        /* \"#utility.yul\":6694:6700   */\n      dup6\n        /* \"#utility.yul\":6650:6722   */\n      tag_236\n      jump\t// in\n    tag_327:\n        /* \"#utility.yul\":6732:6804   */\n      tag_328\n        /* \"#utility.yul\":6800:6802   */\n      0x40\n        /* \"#utility.yul\":6789:6798   */\n      dup4\n        /* \"#utility.yul\":6785:6803   */\n      add\n        /* \"#utility.yul\":6776:6782   */\n      dup5\n        /* \"#utility.yul\":6732:6804   */\n      tag_236\n      jump\t// in\n    tag_328:\n        /* \"#utility.yul\":6369:6811   */\n      swap5\n      swap4\n      pop\n      pop\n      pop\n      pop\n      jump\t// out\n        /* \"#utility.yul\":6817:6960   */\n    tag_242:\n        /* \"#utility.yul\":6874:6879   */\n      0x00\n        /* \"#utility.yul\":6905:6911   */\n      dup2\n        /* \"#utility.yul\":6899:6912   */\n      mload\n        /* \"#utility.yul\":6890:6912   */\n      swap1\n      pop\n        /* \"#utility.yul\":6921:6954   */\n      tag_330\n        /* \"#utility.yul\":6948:6953   */\n      dup2\n        /* \"#utility.yul\":6921:6954   */\n      tag_225\n      jump\t// in\n    tag_330:\n        /* \"#utility.yul\":6817:6960   */\n      swap3\n      swap2\n      pop\n      pop\n      jump\t// out\n        /* \"#utility.yul\":6966:7317   */\n    tag_91:\n        /* \"#utility.yul\":7036:7042   */\n      0x00\n        /* \"#utility.yul\":7085:7087   */\n      0x20\n        /* \"#utility.yul\":7073:7082   */\n      dup3\n        /* \"#utility.yul\":7064:7071   */\n      dup5\n        /* \"#utility.yul\":7060:7083   */\n      sub\n        /* \"#utility.yul\":7056:7088   */\n      slt\n        /* \"#utility.yul\":7053:7172   */\n      iszero\n      tag_332\n      jumpi\n        /* \"#utility.yul\":7091:7170   */\n      tag_333\n      tag_223\n      jump\t// in\n    tag_333:\n        /* \"#utility.yul\":7053:7172   */\n    tag_332:\n        /* \"#utility.yul\":7211:7212   */\n      0x00\n        /* \"#utility.yul\":7236:7300   */\n      tag_334\n        /* \"#utility.yul\":7292:7299   */\n      dup5\n        /* \"#utility.yul\":7283:7289   */\n      dup3\n        /* \"#utility.yul\":7272:7281   */\n      dup6\n        /* \"#utility.yul\":7268:7290   */\n      add\n        /* \"#utility.yul\":7236:7300   */\n      tag_242\n      jump\t// in\n    tag_334:\n        /* \"#utility.yul\":7226:7300   */\n      swap2\n      pop\n        /* \"#utility.yul\":7182:7310   */\n      pop\n        /* \"#utility.yul\":6966:7317   */\n      swap3\n      swap2\n      pop\n      pop\n      jump\t// out\n        /* \"#utility.yul\":7323:7503   */\n    tag_243:\n        /* \"#utility.yul\":7371:7448   */\n      0x4e487b7100000000000000000000000000000000000000000000000000000000\n        /* \"#utility.yul\":7368:7369   */\n      0x00\n        /* \"#utility.yul\":7361:7449   */\n      mstore\n        /* \"#utility.yul\":7468:7472   */\n      0x11\n        /* \"#utility.yul\":7465:7466   */\n      0x04\n        /* \"#utility.yul\":7458:7473   */\n      mstore\n        /* \"#utility.yul\":7492:7496   */\n      0x24\n        /* \"#utility.yul\":7489:7490   */\n      0x00\n        /* \"#utility.yul\":7482:7497   */\n      revert\n        /* \"#utility.yul\":7509:7700   */\n    tag_97:\n        /* \"#utility.yul\":7549:7552   */\n      0x00\n        /* \"#utility.yul\":7568:7588   */\n      tag_337\n        /* \"#utility.yul\":7586:7587   */\n      dup3\n        /* \"#utility.yul\":7568:7588   */\n      tag_220\n      jump\t// in\n    tag_337:\n        /* \"#utility.yul\":7563:7588   */\n      swap2\n      pop\n        /* \"#utility.yul\":7602:7622   */\n      tag_338\n        /* \"#utility.yul\":7620:7621   */\n      dup4\n        /* \"#utility.yul\":7602:7622   */\n      tag_220\n      jump\t// in\n    tag_338:\n        /* \"#utility.yul\":7597:7622   */\n      swap3\n      pop\n        /* \"#utility.yul\":7645:7646   */\n      dup3\n        /* \"#utility.yul\":7642:7643   */\n      dup3\n        /* \"#utility.yul\":7638:7647   */\n      add\n        /* \"#utility.yul\":7631:7647   */\n      swap1\n      pop\n        /* \"#utility.yul\":7666:7669   */\n      dup1\n        /* \"#utility.yul\":7663:7664   */\n      dup3\n        /* \"#utility.yul\":7660:7670   */\n      gt\n        /* \"#utility.yul\":7657:7693   */\n      iszero\n      tag_339\n      jumpi\n        /* \"#utility.yul\":7673:7691   */\n      tag_340\n      tag_243\n      jump\t// in\n    tag_340:\n        /* \"#utility.yul\":7657:7693   */\n    tag_339:\n        /* \"#utility.yul\":7509:7700   */\n      swap3\n      swap2\n      pop\n      pop\n      jump\t// out\n        /* \"#utility.yul\":7706:8116   */\n    tag_100:\n        /* \"#utility.yul\":7746:7753   */\n      0x00\n        /* \"#utility.yul\":7769:7789   */\n      tag_342\n        /* \"#utility.yul\":7787:7788   */\n      dup3\n        /* \"#utility.yul\":7769:7789   */\n      tag_220\n      jump\t// in\n    tag_342:\n        /* \"#utility.yul\":7764:7789   */\n      swap2\n      pop\n        /* \"#utility.yul\":7803:7823   */\n      tag_343\n        /* \"#utility.yul\":7821:7822   */\n      dup4\n        /* \"#utility.yul\":7803:7823   */\n      tag_220\n      jump\t// in\n    tag_343:\n        /* \"#utility.yul\":7798:7823   */\n      swap3\n      pop\n        /* \"#utility.yul\":7858:7859   */\n      dup3\n        /* \"#utility.yul\":7855:7856   */\n      dup3\n        /* \"#utility.yul\":7851:7860   */\n      mul\n        /* \"#utility.yul\":7880:7910   */\n      tag_344\n        /* \"#utility.yul\":7898:7909   */\n      dup2\n        /* \"#utility.yul\":7880:7910   */\n      tag_220\n      jump\t// in\n    tag_344:\n        /* \"#utility.yul\":7869:7910   */\n      swap2\n      pop\n        /* \"#utility.yul\":8059:8060   */\n      dup3\n        /* \"#utility.yul\":8050:8057   */\n      dup3\n        /* \"#utility.yul\":8046:8061   */\n      div\n        /* \"#utility.yul\":8043:8044   */\n      dup5\n        /* \"#utility.yul\":8040:8062   */\n      eq\n        /* \"#utility.yul\":8020:8021   */\n      dup4\n        /* \"#utility.yul\":8013:8022   */\n      iszero\n        /* \"#utility.yul\":7993:8076   */\n      or\n        /* \"#utility.yul\":7970:8109   */\n      tag_345\n      jumpi\n        /* \"#utility.yul\":8089:8107   */\n      tag_346\n      tag_243\n      jump\t// in\n    tag_346:\n        /* \"#utility.yul\":7970:8109   */\n    tag_345:\n        /* \"#utility.yul\":7754:8116   */\n      pop\n        /* \"#utility.yul\":7706:8116   */\n      swap3\n      swap2\n      pop\n      pop\n      jump\t// out\n        /* \"#utility.yul\":8122:8302   */\n    tag_244:\n        /* \"#utility.yul\":8170:8247   */\n      0x4e487b7100000000000000000000000000000000000000000000000000000000\n        /* \"#utility.yul\":8167:8168   */\n      0x00\n        /* \"#utility.yul\":8160:8248   */\n      mstore\n        /* \"#utility.yul\":8267:8271   */\n      0x12\n        /* \"#utility.yul\":8264:8265   */\n      0x04\n        /* \"#utility.yul\":8257:8272   */\n      mstore\n        /* \"#utility.yul\":8291:8295   */\n      0x24\n        /* \"#utility.yul\":8288:8289   */\n      0x00\n        /* \"#utility.yul\":8281:8296   */\n      revert\n        /* \"#utility.yul\":8308:8493   */\n    tag_102:\n        /* \"#utility.yul\":8348:8349   */\n      0x00\n        /* \"#utility.yul\":8365:8385   */\n      tag_349\n        /* \"#utility.yul\":8383:8384   */\n      dup3\n        /* \"#utility.yul\":8365:8385   */\n      tag_220\n      jump\t// in\n    tag_349:\n        /* \"#utility.yul\":8360:8385   */\n      swap2\n      pop\n        /* \"#utility.yul\":8399:8419   */\n      tag_350\n        /* \"#utility.yul\":8417:8418   */\n      dup4\n        /* \"#utility.yul\":8399:8419   */\n      tag_220\n      jump\t// in\n    tag_350:\n        /* \"#utility.yul\":8394:8419   */\n      swap3\n      pop\n        /* \"#utility.yul\":8438:8439   */\n      dup3\n        /* \"#utility.yul\":8428:8463   */\n      tag_351\n      jumpi\n        /* \"#utility.yul\":8443:8461   */\n      tag_352\n      tag_244\n      jump\t// in\n    tag_352:\n        /* \"#utility.yul\":8428:8463   */\n    tag_351:\n        /* \"#utility.yul\":8485:8486   */\n      dup3\n        /* \"#utility.yul\":8482:8483   */\n      dup3\n        /* \"#utility.yul\":8478:8487   */\n      div\n        /* \"#utility.yul\":8473:8487   */\n      swap1\n      pop\n        /* \"#utility.yul\":8308:8493   */\n      swap3\n      swap2\n      pop\n      pop\n      jump\t// out\n        /* \"#utility.yul\":8499:8693   */\n    tag_106:\n        /* \"#utility.yul\":8539:8543   */\n      0x00\n        /* \"#utility.yul\":8559:8579   */\n      tag_354\n        /* \"#utility.yul\":8577:8578   */\n      dup3\n        /* \"#utility.yul\":8559:8579   */\n      tag_220\n      jump\t// in\n    tag_354:\n        /* \"#utility.yul\":8554:8579   */\n      swap2\n      pop\n        /* \"#utility.yul\":8593:8613   */\n      tag_355\n        /* \"#utility.yul\":8611:8612   */\n      dup4\n        /* \"#utility.yul\":8593:8613   */\n      tag_220\n      jump\t// in\n    tag_355:\n        /* \"#utility.yul\":8588:8613   */\n      swap3\n      pop\n        /* \"#utility.yul\":8637:8638   */\n      dup3\n        /* \"#utility.yul\":8634:8635   */\n      dup3\n        /* \"#utility.yul\":8630:8639   */\n      sub\n        /* \"#utility.yul\":8622:8639   */\n      swap1\n      pop\n        /* \"#utility.yul\":8661:8662   */\n      dup2\n        /* \"#utility.yul\":8655:8659   */\n      dup2\n        /* \"#utility.yul\":8652:8663   */\n      gt\n        /* \"#utility.yul\":8649:8686   */\n      iszero\n      tag_356\n      jumpi\n        /* \"#utility.yul\":8666:8684   */\n      tag_357\n      tag_243\n      jump\t// in\n    tag_357:\n        /* \"#utility.yul\":8649:8686   */\n    tag_356:\n        /* \"#utility.yul\":8499:8693   */\n      swap3\n      swap2\n      pop\n      pop\n      jump\t// out\n        /* \"#utility.yul\":8699:8860   */\n    tag_245:\n        /* \"#utility.yul\":8839:8852   */\n      0x4d696e2031302055534443000000000000000000000000000000000000000000\n        /* \"#utility.yul\":8835:8836   */\n      0x00\n        /* \"#utility.yul\":8827:8833   */\n      dup3\n        /* \"#utility.yul\":8823:8837   */\n      add\n        /* \"#utility.yul\":8816:8853   */\n      mstore\n        /* \"#utility.yul\":8699:8860   */\n      pop\n      jump\t// out\n        /* \"#utility.yul\":8866:9232   */\n    tag_246:\n        /* \"#utility.yul\":9008:9011   */\n      0x00\n        /* \"#utility.yul\":9029:9096   */\n      tag_360\n        /* \"#utility.yul\":9093:9095   */\n      0x0b\n        /* \"#utility.yul\":9088:9091   */\n      dup4\n        /* \"#utility.yul\":9029:9096   */\n      tag_239\n      jump\t// in\n    tag_360:\n        /* \"#utility.yul\":9022:9096   */\n      swap2\n      pop\n        /* \"#utility.yul\":9105:9198   */\n      tag_361\n        /* \"#utility.yul\":9194:9197   */\n      dup3\n        /* \"#utility.yul\":9105:9198   */\n      tag_245\n      jump\t// in\n    tag_361:\n        /* \"#utility.yul\":9223:9225   */\n      0x20\n        /* \"#utility.yul\":9218:9221   */\n      dup3\n        /* \"#utility.yul\":9214:9226   */\n      add\n        /* \"#utility.yul\":9207:9226   */\n      swap1\n      pop\n        /* \"#utility.yul\":8866:9232   */\n      swap2\n      swap1\n      pop\n      jump\t// out\n        /* \"#utility.yul\":9238:9657   */\n    tag_163:\n        /* \"#utility.yul\":9404:9408   */\n      0x00\n        /* \"#utility.yul\":9442:9444   */\n      0x20\n        /* \"#utility.yul\":9431:9440   */\n      dup3\n        /* \"#utility.yul\":9427:9445   */\n      add\n        /* \"#utility.yul\":9419:9445   */\n      swap1\n      pop\n        /* \"#utility.yul\":9491:9500   */\n      dup2\n        /* \"#utility.yul\":9485:9489   */\n      dup2\n        /* \"#utility.yul\":9481:9501   */\n      sub\n        /* \"#utility.yul\":9477:9478   */\n      0x00\n        /* \"#utility.yul\":9466:9475   */\n      dup4\n        /* \"#utility.yul\":9462:9479   */\n      add\n        /* \"#utility.yul\":9455:9502   */\n      mstore\n        /* \"#utility.yul\":9519:9650   */\n      tag_363\n        /* \"#utility.yul\":9645:9649   */\n      dup2\n        /* \"#utility.yul\":9519:9650   */\n      tag_246\n      jump\t// in\n    tag_363:\n        /* \"#utility.yul\":9511:9650   */\n      swap1\n      pop\n        /* \"#utility.yul\":9238:9657   */\n      swap2\n      swap1\n      pop\n      jump\t// out\n        /* \"#utility.yul\":9663:9829   */\n    tag_247:\n        /* \"#utility.yul\":9803:9821   */\n      0x4e6f2073656c662d726566657272616c00000000000000000000000000000000\n        /* \"#utility.yul\":9799:9800   */\n      0x00\n        /* \"#utility.yul\":9791:9797   */\n      dup3\n        /* \"#utility.yul\":9787:9801   */\n      add\n        /* \"#utility.yul\":9780:9822   */\n      mstore\n        /* \"#utility.yul\":9663:9829   */\n      pop\n      jump\t// out\n        /* \"#utility.yul\":9835:10201   */\n    tag_248:\n        /* \"#utility.yul\":9977:9980   */\n      0x00\n        /* \"#utility.yul\":9998:10065   */\n      tag_366\n        /* \"#utility.yul\":10062:10064   */\n      0x10\n        /* \"#utility.yul\":10057:10060   */\n      dup4\n        /* \"#utility.yul\":9998:10065   */\n      tag_239\n      jump\t// in\n    tag_366:\n        /* \"#utility.yul\":9991:10065   */\n      swap2\n      pop\n        /* \"#utility.yul\":10074:10167   */\n      tag_367\n        /* \"#utility.yul\":10163:10166   */\n      dup3\n        /* \"#utility.yul\":10074:10167   */\n      tag_247\n      jump\t// in\n    tag_367:\n        /* \"#utility.yul\":10192:10194   */\n      0x20\n        /* \"#utility.yul\":10187:10190   */\n      dup3\n        /* \"#utility.yul\":10183:10195   */\n      add\n        /* \"#utility.yul\":10176:10195   */\n      swap1\n      pop\n        /* \"#utility.yul\":9835:10201   */\n      swap2\n      swap1\n      pop\n      jump\t// out\n        /* \"#utility.yul\":10207:10626   */\n    tag_166:\n        /* \"#utility.yul\":10373:10377   */\n      0x00\n        /* \"#utility.yul\":10411:10413   */\n      0x20\n        /* \"#utility.yul\":10400:10409   */\n      dup3\n        /* \"#utility.yul\":10396:10414   */\n      add\n        /* \"#utility.yul\":10388:10414   */\n      swap1\n      pop\n        /* \"#utility.yul\":10460:10469   */\n      dup2\n        /* \"#utility.yul\":10454:10458   */\n      dup2\n        /* \"#utility.yul\":10450:10470   */\n      sub\n        /* \"#utility.yul\":10446:10447   */\n      0x00\n        /* \"#utility.yul\":10435:10444   */\n      dup4\n        /* \"#utility.yul\":10431:10448   */\n      add\n        /* \"#utility.yul\":10424:10471   */\n      mstore\n        /* \"#utility.yul\":10488:10619   */\n      tag_369\n        /* \"#utility.yul\":10614:10618   */\n      dup2\n        /* \"#utility.yul\":10488:10619   */\n      tag_248\n      jump\t// in\n    tag_369:\n        /* \"#utility.yul\":10480:10619   */\n      swap1\n      pop\n        /* \"#utility.yul\":10207:10626   */\n      swap2\n      swap1\n      pop\n      jump\t// out\n        /* \"#utility.yul\":10632:10964   */\n    tag_172:\n        /* \"#utility.yul\":10753:10757   */\n      0x00\n        /* \"#utility.yul\":10791:10793   */\n      0x40\n        /* \"#utility.yul\":10780:10789   */\n      dup3\n        /* \"#utility.yul\":10776:10794   */\n      add\n        /* \"#utility.yul\":10768:10794   */\n      swap1\n      pop\n        /* \"#utility.yul\":10804:10875   */\n      tag_371\n        /* \"#utility.yul\":10872:10873   */\n      0x00\n        /* \"#utility.yul\":10861:10870   */\n      dup4\n        /* \"#utility.yul\":10857:10874   */\n      add\n        /* \"#utility.yul\":10848:10854   */\n      dup6\n        /* \"#utility.yul\":10804:10875   */\n      tag_236\n      jump\t// in\n    tag_371:\n        /* \"#utility.yul\":10885:10957   */\n      tag_372\n        /* \"#utility.yul\":10953:10955   */\n      0x20\n        /* \"#utility.yul\":10942:10951   */\n      dup4\n        /* \"#utility.yul\":10938:10956   */\n      add\n        /* \"#utility.yul\":10929:10935   */\n      dup5\n        /* \"#utility.yul\":10885:10957   */\n      tag_221\n      jump\t// in\n    tag_372:\n        /* \"#utility.yul\":10632:10964   */\n      swap4\n      swap3\n      pop\n      pop\n      pop\n      jump\t// out\n        /* \"#utility.yul\":10970:11060   */\n    tag_249:\n        /* \"#utility.yul\":11004:11011   */\n      0x00\n        /* \"#utility.yul\":11047:11052   */\n      dup2\n        /* \"#utility.yul\":11040:11053   */\n      iszero\n        /* \"#utility.yul\":11033:11054   */\n      iszero\n        /* \"#utility.yul\":11022:11054   */\n      swap1\n      pop\n        /* \"#utility.yul\":10970:11060   */\n      swap2\n      swap1\n      pop\n      jump\t// out\n        /* \"#utility.yul\":11066:11182   */\n    tag_250:\n        /* \"#utility.yul\":11136:11157   */\n      tag_375\n        /* \"#utility.yul\":11151:11156   */\n      dup2\n        /* \"#utility.yul\":11136:11157   */\n      tag_249\n      jump\t// in\n    tag_375:\n        /* \"#utility.yul\":11129:11134   */\n      dup2\n        /* \"#utility.yul\":11126:11158   */\n      eq\n        /* \"#utility.yul\":11116:11176   */\n      tag_376\n      jumpi\n        /* \"#utility.yul\":11172:11173   */\n      0x00\n        /* \"#utility.yul\":11169:11170   */\n      dup1\n        /* \"#utility.yul\":11162:11174   */\n      revert\n        /* \"#utility.yul\":11116:11176   */\n    tag_376:\n        /* \"#utility.yul\":11066:11182   */\n      pop\n      jump\t// out\n        /* \"#utility.yul\":11188:11325   */\n    tag_251:\n        /* \"#utility.yul\":11242:11247   */\n      0x00\n        /* \"#utility.yul\":11273:11279   */\n      dup2\n        /* \"#utility.yul\":11267:11280   */\n      mload\n        /* \"#utility.yul\":11258:11280   */\n      swap1\n      pop\n        /* \"#utility.yul\":11289:11319   */\n      tag_378\n        /* \"#utility.yul\":11313:11318   */\n      dup2\n        /* \"#utility.yul\":11289:11319   */\n      tag_250\n      jump\t// in\n    tag_378:\n        /* \"#utility.yul\":11188:11325   */\n      swap3\n      swap2\n      pop\n      pop\n      jump\t// out\n        /* \"#utility.yul\":11331:11676   */\n    tag_176:\n        /* \"#utility.yul\":11398:11404   */\n      0x00\n        /* \"#utility.yul\":11447:11449   */\n      0x20\n        /* \"#utility.yul\":11435:11444   */\n      dup3\n        /* \"#utility.yul\":11426:11433   */\n      dup5\n        /* \"#utility.yul\":11422:11445   */\n      sub\n        /* \"#utility.yul\":11418:11450   */\n      slt\n        /* \"#utility.yul\":11415:11534   */\n      iszero\n      tag_380\n      jumpi\n        /* \"#utility.yul\":11453:11532   */\n      tag_381\n      tag_223\n      jump\t// in\n    tag_381:\n        /* \"#utility.yul\":11415:11534   */\n    tag_380:\n        /* \"#utility.yul\":11573:11574   */\n      0x00\n        /* \"#utility.yul\":11598:11659   */\n      tag_382\n        /* \"#utility.yul\":11651:11658   */\n      dup5\n        /* \"#utility.yul\":11642:11648   */\n      dup3\n        /* \"#utility.yul\":11631:11640   */\n      dup6\n        /* \"#utility.yul\":11627:11649   */\n      add\n        /* \"#utility.yul\":11598:11659   */\n      tag_251\n      jump\t// in\n    tag_382:\n        /* \"#utility.yul\":11588:11659   */\n      swap2\n      pop\n        /* \"#utility.yul\":11544:11669   */\n      pop\n        /* \"#utility.yul\":11331:11676   */\n      swap3\n      swap2\n      pop\n      pop\n      jump\t// out\n        /* \"#utility.yul\":11682:12014   */\n    tag_178:\n        /* \"#utility.yul\":11803:11807   */\n      0x00\n        /* \"#utility.yul\":11841:11843   */\n      0x40\n        /* \"#utility.yul\":11830:11839   */\n      dup3\n        /* \"#utility.yul\":11826:11844   */\n      add\n        /* \"#utility.yul\":11818:11844   */\n      swap1\n      pop\n        /* \"#utility.yul\":11854:11925   */\n      tag_384\n        /* \"#utility.yul\":11922:11923   */\n      0x00\n        /* \"#utility.yul\":11911:11920   */\n      dup4\n        /* \"#utility.yul\":11907:11924   */\n      add\n        /* \"#utility.yul\":11898:11904   */\n      dup6\n        /* \"#utility.yul\":11854:11925   */\n      tag_221\n      jump\t// in\n    tag_384:\n        /* \"#utility.yul\":11935:12007   */\n      tag_385\n        /* \"#utility.yul\":12003:12005   */\n      0x20\n        /* \"#utility.yul\":11992:12001   */\n      dup4\n        /* \"#utility.yul\":11988:12006   */\n      add\n        /* \"#utility.yul\":11979:11985   */\n      dup5\n        /* \"#utility.yul\":11935:12007   */\n      tag_236\n      jump\t// in\n    tag_385:\n        /* \"#utility.yul\":11682:12014   */\n      swap4\n      swap3\n      pop\n      pop\n      pop\n      jump\t// out\n        /* \"#utility.yul\":12020:12201   */\n    tag_252:\n        /* \"#utility.yul\":12160:12193   */\n      0x5265656e7472616e637947756172643a207265656e7472616e742063616c6c00\n        /* \"#utility.yul\":12156:12157   */\n      0x00\n        /* \"#utility.yul\":12148:12154   */\n      dup3\n        /* \"#utility.yul\":12144:12158   */\n      add\n        /* \"#utility.yul\":12137:12194   */\n      mstore\n        /* \"#utility.yul\":12020:12201   */\n      pop\n      jump\t// out\n        /* \"#utility.yul\":12207:12573   */\n    tag_253:\n        /* \"#utility.yul\":12349:12352   */\n      0x00\n        /* \"#utility.yul\":12370:12437   */\n      tag_388\n        /* \"#utility.yul\":12434:12436   */\n      0x1f\n        /* \"#utility.yul\":12429:12432   */\n      dup4\n        /* \"#utility.yul\":12370:12437   */\n      tag_239\n      jump\t// in\n    tag_388:\n        /* \"#utility.yul\":12363:12437   */\n      swap2\n      pop\n        /* \"#utility.yul\":12446:12539   */\n      tag_389\n        /* \"#utility.yul\":12535:12538   */\n      dup3\n        /* \"#utility.yul\":12446:12539   */\n      tag_252\n      jump\t// in\n    tag_389:\n        /* \"#utility.yul\":12564:12566   */\n      0x20\n        /* \"#utility.yul\":12559:12562   */\n      dup3\n        /* \"#utility.yul\":12555:12567   */\n      add\n        /* \"#utility.yul\":12548:12567   */\n      swap1\n      pop\n        /* \"#utility.yul\":12207:12573   */\n      swap2\n      swap1\n      pop\n      jump\t// out\n        /* \"#utility.yul\":12579:12998   */\n    tag_195:\n        /* \"#utility.yul\":12745:12749   */\n      0x00\n        /* \"#utility.yul\":12783:12785   */\n      0x20\n        /* \"#utility.yul\":12772:12781   */\n      dup3\n        /* \"#utility.yul\":12768:12786   */\n      add\n        /* \"#utility.yul\":12760:12786   */\n      swap1\n      pop\n        /* \"#utility.yul\":12832:12841   */\n      dup2\n        /* \"#utility.yul\":12826:12830   */\n      dup2\n        /* \"#utility.yul\":12822:12842   */\n      sub\n        /* \"#utility.yul\":12818:12819   */\n      0x00\n        /* \"#utility.yul\":12807:12816   */\n      dup4\n        /* \"#utility.yul\":12803:12820   */\n      add\n        /* \"#utility.yul\":12796:12843   */\n      mstore\n        /* \"#utility.yul\":12860:12991   */\n      tag_391\n        /* \"#utility.yul\":12986:12990   */\n      dup2\n        /* \"#utility.yul\":12860:12991   */\n      tag_253\n      jump\t// in\n    tag_391:\n        /* \"#utility.yul\":12852:12991   */\n      swap1\n      pop\n        /* \"#utility.yul\":12579:12998   */\n      swap2\n      swap1\n      pop\n      jump\t// out\n        /* \"#utility.yul\":13004:13446   */\n    tag_212:\n        /* \"#utility.yul\":13153:13157   */\n      0x00\n        /* \"#utility.yul\":13191:13193   */\n      0x60\n        /* \"#utility.yul\":13180:13189   */\n      dup3\n        /* \"#utility.yul\":13176:13194   */\n      add\n        /* \"#utility.yul\":13168:13194   */\n      swap1\n      pop\n        /* \"#utility.yul\":13204:13275   */\n      tag_393\n        /* \"#utility.yul\":13272:13273   */\n      0x00\n        /* \"#utility.yul\":13261:13270   */\n      dup4\n        /* \"#utility.yul\":13257:13274   */\n      add\n        /* \"#utility.yul\":13248:13254   */\n      dup7\n        /* \"#utility.yul\":13204:13275   */\n      tag_236\n      jump\t// in\n    tag_393:\n        /* \"#utility.yul\":13285:13357   */\n      tag_394\n        /* \"#utility.yul\":13353:13355   */\n      0x20\n        /* \"#utility.yul\":13342:13351   */\n      dup4\n        /* \"#utility.yul\":13338:13356   */\n      add\n        /* \"#utility.yul\":13329:13335   */\n      dup6\n        /* \"#utility.yul\":13285:13357   */\n      tag_236\n      jump\t// in\n    tag_394:\n        /* \"#utility.yul\":13367:13439   */\n      tag_395\n        /* \"#utility.yul\":13435:13437   */\n      0x40\n        /* \"#utility.yul\":13424:13433   */\n      dup4\n        /* \"#utility.yul\":13420:13438   */\n      add\n        /* \"#utility.yul\":13411:13417   */\n      dup5\n        /* \"#utility.yul\":13367:13439   */\n      tag_221\n      jump\t// in\n    tag_395:\n        /* \"#utility.yul\":13004:13446   */\n      swap5\n      swap4\n      pop\n      pop\n      pop\n      pop\n      jump\t// out\n\n    auxdata: 0xa2646970667358221220bf4e9d39c0961b9b42e7b9373940d1f6bbf759f5d03774e81c5bcc3ab6c0ab3164736f6c63430008140033\n}\n",
				"bytecode": {
					"linkReferences": {},
					"object": "608060405234801562000010575f80fd5b50335f73ffffffffffffffffffffffffffffffffffffffff168173ffffffffffffffffffffffffffffffffffffffff160362000085575f6040517f1e4fbdf70000000000000000000000000000000000000000000000000000000081526004016200007c9190620001a8565b60405180910390fd5b6200009681620000a460201b60201c565b5060018081905550620001c3565b5f805f9054906101000a900473ffffffffffffffffffffffffffffffffffffffff169050815f806101000a81548173ffffffffffffffffffffffffffffffffffffffff021916908373ffffffffffffffffffffffffffffffffffffffff1602179055508173ffffffffffffffffffffffffffffffffffffffff168173ffffffffffffffffffffffffffffffffffffffff167f8be0079c531659141344cd1fd0a4f28419497f9722a3daafe3b4186f6b6457e060405160405180910390a35050565b5f73ffffffffffffffffffffffffffffffffffffffff82169050919050565b5f620001908262000165565b9050919050565b620001a28162000184565b82525050565b5f602082019050620001bd5f83018462000197565b92915050565b6119b780620001d15f395ff3fe608060405234801561000f575f80fd5b50600436106100fe575f3560e01c806389a3027111610095578063dabeaecf11610064578063dabeaecf1461027a578063f2fde38b14610296578063f526e39a146102b2578063f89ec5f5146102d0576100fe565b806389a30271146102005780638da5cb5b1461021e578063a87430ba1461023c578063c879657214610270576100fe565b80635764b7c4116100d15780635764b7c4146101785780635ae80951146101a8578063715018a6146101d8578063760a545e146101e2576100fe565b80630b4501fd146101025780632354474814610120578063413d9c3a1461012a57806352e21f2914610148575b5f80fd5b61010a6102ee565b60405161011791906112ee565b60405180910390f35b6101286102f3565b005b610132610840565b60405161013f91906112ee565b60405180910390f35b610162600480360381019061015d9190611335565b610847565b60405161016f91906112ee565b60405180910390f35b610192600480360381019061018d91906113ba565b6108b7565b60405161019f91906112ee565b60405180910390f35b6101c260048036038101906101bd91906113ba565b610900565b6040516101cf91906112ee565b60405180910390f35b6101e06109d4565b005b6101ea6109e7565b6040516101f791906112ee565b60405180910390f35b6102086109ec565b6040516102159190611440565b60405180910390f35b610226610a04565b6040516102339190611468565b60405180910390f35b610256600480360381019061025191906113ba565b610a2b565b604051610267959493929190611481565b60405180910390f35b610278610a7c565b005b610294600480360381019061028f91906114d2565b610ada565b005b6102b060048036038101906102ab91906113ba565b610ef1565b005b6102ba610f75565b6040516102c791906112ee565b60405180910390f35b6102d8610f7b565b6040516102e59190611530565b60405180910390f35b600581565b6102fb610f93565b5f60025f3373ffffffffffffffffffffffffffffffffffffffff1673ffffffffffffffffffffffffffffffffffffffff1681526020019081526020015f2090505f816001015411610381576040517f08c379a0000000000000000000000000000000000000000000000000000000008152600401610378906115a3565b60405180910390fd5b5f816001015490505f825f015490505f836004015490505f846002015f9054906101000a900473ffffffffffffffffffffffffffffffffffffffff1690505f85600101819055505f855f018190555073c1256ae5ff1cf2719d4937adb3bbccab2e00a2ca73ffffffffffffffffffffffffffffffffffffffff1663ba0876528530306040518463ffffffff1660e01b8152600401610421939291906115c1565b6020604051808303815f875af115801561043d573d5f803e3d5ffd5b505050506040513d601f19601f82011682018060405250810190610461919061160a565b505f73c1256ae5ff1cf2719d4937adb3bbccab2e00a2ca73ffffffffffffffffffffffffffffffffffffffff166307a2d13a866040518263ffffffff1660e01b81526004016104b091906112ee565b602060405180830381865afa1580156104cb573d5f803e3d5ffd5b505050506040513d601f19601f820116820180604052508101906104ef919061160a565b905062042cc0836105009190611662565b421015610591575f60646001836105179190611695565b6105219190611703565b90508060035f8282546105349190611662565b9250508190555061058533828461054b9190611733565b73833589fcd6edb6e08f4c7c32d4f71b54bda0291373ffffffffffffffffffffffffffffffffffffffff16610fe29092919063ffffffff16565b50505050505050610836565b5f84821161059f575f6105ac565b84826105ab9190611733565b5b90505f8111156107ee575f600590505f73ffffffffffffffffffffffffffffffffffffffff168473ffffffffffffffffffffffffffffffffffffffff16146106395761063660025f8673ffffffffffffffffffffffffffffffffffffffff1673ffffffffffffffffffffffffffffffffffffffff1681526020019081526020015f205f0154610847565b90505b5f606482846106489190611695565b6106529190611703565b90505f60646005856106649190611695565b61066e9190611703565b90505f818361067d9190611662565b90505f81861161068d575f61069a565b81866106999190611733565b5b90505f73ffffffffffffffffffffffffffffffffffffffff168873ffffffffffffffffffffffffffffffffffffffff16146107695761070e888573833589fcd6edb6e08f4c7c32d4f71b54bda0291373ffffffffffffffffffffffffffffffffffffffff16610fe29092919063ffffffff16565b8360025f8a73ffffffffffffffffffffffffffffffffffffffff1673ffffffffffffffffffffffffffffffffffffffff1681526020019081526020015f206003015f82825461075d9190611662565b92505081905550610782565b8360035f82825461077a9190611662565b925050819055505b8260035f8282546107939190611662565b925050819055506107e433828c6107aa9190611662565b73833589fcd6edb6e08f4c7c32d4f71b54bda0291373ffffffffffffffffffffffffffffffffffffffff16610fe29092919063ffffffff16565b505050505061082e565b61082d338673833589fcd6edb6e08f4c7c32d4f71b54bda0291373ffffffffffffffffffffffffffffffffffffffff16610fe29092919063ffffffff16565b5b505050505050505b61083e611061565b565b62042cc081565b5f64012a05f200821061085d57605090506108b2565b633b9aca00821061087157603290506108b2565b630bebc200821061088557601e90506108b2565b6305f5e100821061089957601490506108b2565b6302faf08082106108ad57600a90506108b2565b600590505b919050565b5f60025f8373ffffffffffffffffffffffffffffffffffffffff1673ffffffffffffffffffffffffffffffffffffffff1681526020019081526020015f20600301549050919050565b5f73c1256ae5ff1cf2719d4937adb3bbccab2e00a2ca73ffffffffffffffffffffffffffffffffffffffff166307a2d13a60025f8573ffffffffffffffffffffffffffffffffffffffff1673ffffffffffffffffffffffffffffffffffffffff1681526020019081526020015f20600101546040518263ffffffff1660e01b815260040161098e91906112ee565b602060405180830381865afa1580156109a9573d5f803e3d5ffd5b505050506040513d601f19601f820116820180604052508101906109cd919061160a565b9050919050565b6109dc61106a565b6109e55f6110f1565b565b600181565b73833589fcd6edb6e08f4c7c32d4f71b54bda0291381565b5f805f9054906101000a900473ffffffffffffffffffffffffffffffffffffffff16905090565b6002602052805f5260405f205f91509050805f015490806001015490806002015f9054906101000a900473ffffffffffffffffffffffffffffffffffffffff16908060030154908060040154905085565b610a8461106a565b5f60035490505f600381905550610ad7610a9c610a04565b8273833589fcd6edb6e08f4c7c32d4f71b54bda0291373ffffffffffffffffffffffffffffffffffffffff16610fe29092919063ffffffff16565b50565b610ae2610f93565b62989680821015610b28576040517f08c379a0000000000000000000000000000000000000000000000000000000008152600401610b1f906117b0565b60405180910390fd5b3373ffffffffffffffffffffffffffffffffffffffff168173ffffffffffffffffffffffffffffffffffffffff1603610b96576040517f08c379a0000000000000000000000000000000000000000000000000000000008152600401610b8d90611818565b60405180910390fd5b5f60025f3373ffffffffffffffffffffffffffffffffffffffff1673ffffffffffffffffffffffffffffffffffffffff1681526020019081526020015f2090505f73ffffffffffffffffffffffffffffffffffffffff16816002015f9054906101000a900473ffffffffffffffffffffffffffffffffffffffff1673ffffffffffffffffffffffffffffffffffffffff16148015610c6057505f73ffffffffffffffffffffffffffffffffffffffff168273ffffffffffffffffffffffffffffffffffffffff1614155b15610ca85781816002015f6101000a81548173ffffffffffffffffffffffffffffffffffffffff021916908373ffffffffffffffffffffffffffffffffffffffff1602179055505b610ce933308573833589fcd6edb6e08f4c7c32d4f71b54bda0291373ffffffffffffffffffffffffffffffffffffffff166111b2909392919063ffffffff16565b73833589fcd6edb6e08f4c7c32d4f71b54bda0291373ffffffffffffffffffffffffffffffffffffffff1663095ea7b373c1256ae5ff1cf2719d4937adb3bbccab2e00a2ca856040518363ffffffff1660e01b8152600401610d4c929190611836565b6020604051808303815f875af1158015610d68573d5f803e3d5ffd5b505050506040513d601f19601f82011682018060405250810190610d8c9190611892565b505f73c1256ae5ff1cf2719d4937adb3bbccab2e00a2ca73ffffffffffffffffffffffffffffffffffffffff16636e553f6585306040518363ffffffff1660e01b8152600401610ddd9291906118bd565b6020604051808303815f875af1158015610df9573d5f803e3d5ffd5b505050506040513d601f19601f82011682018060405250810190610e1d919061160a565b905083825f015f828254610e319190611662565b9250508190555080826001015f828254610e4b9190611662565b92505081905550428260040181905550816002015f9054906101000a900473ffffffffffffffffffffffffffffffffffffffff1673ffffffffffffffffffffffffffffffffffffffff163373ffffffffffffffffffffffffffffffffffffffff167f7cfbfcb3643fe336f1dcfbb142544338eb64be14c66360deb7a5c6c305d5a89c86604051610edb91906112ee565b60405180910390a35050610eed611061565b5050565b610ef961106a565b5f73ffffffffffffffffffffffffffffffffffffffff168173ffffffffffffffffffffffffffffffffffffffff1603610f69575f6040517f1e4fbdf7000000000000000000000000000000000000000000000000000000008152600401610f609190611468565b60405180910390fd5b610f72816110f1565b50565b60035481565b73c1256ae5ff1cf2719d4937adb3bbccab2e00a2ca81565b600260015403610fd8576040517f08c379a0000000000000000000000000000000000000000000000000000000008152600401610fcf9061192e565b60405180910390fd5b6002600181905550565b61105c838473ffffffffffffffffffffffffffffffffffffffff1663a9059cbb8585604051602401611015929190611836565b604051602081830303815290604052915060e01b6020820180517bffffffffffffffffffffffffffffffffffffffffffffffffffffffff8381831617835250505050611234565b505050565b60018081905550565b6110726112cf565b73ffffffffffffffffffffffffffffffffffffffff16611090610a04565b73ffffffffffffffffffffffffffffffffffffffff16146110ef576110b36112cf565b6040517f118cdaa70000000000000000000000000000000000000000000000000000000081526004016110e69190611468565b60405180910390fd5b565b5f805f9054906101000a900473ffffffffffffffffffffffffffffffffffffffff169050815f806101000a81548173ffffffffffffffffffffffffffffffffffffffff021916908373ffffffffffffffffffffffffffffffffffffffff1602179055508173ffffffffffffffffffffffffffffffffffffffff168173ffffffffffffffffffffffffffffffffffffffff167f8be0079c531659141344cd1fd0a4f28419497f9722a3daafe3b4186f6b6457e060405160405180910390a35050565b61122e848573ffffffffffffffffffffffffffffffffffffffff166323b872dd8686866040516024016111e79392919061194c565b604051602081830303815290604052915060e01b6020820180517bffffffffffffffffffffffffffffffffffffffffffffffffffffffff8381831617835250505050611234565b50505050565b5f8060205f8451602086015f885af180611253576040513d5f823e3d81fd5b3d92505f519150505f821461126c576001811415611287565b5f8473ffffffffffffffffffffffffffffffffffffffff163b145b156112c957836040517f5274afe70000000000000000000000000000000000000000000000000000000081526004016112c09190611468565b60405180910390fd5b50505050565b5f33905090565b5f819050919050565b6112e8816112d6565b82525050565b5f6020820190506113015f8301846112df565b92915050565b5f80fd5b611314816112d6565b811461131e575f80fd5b50565b5f8135905061132f8161130b565b92915050565b5f6020828403121561134a57611349611307565b5b5f61135784828501611321565b91505092915050565b5f73ffffffffffffffffffffffffffffffffffffffff82169050919050565b5f61138982611360565b9050919050565b6113998161137f565b81146113a3575f80fd5b50565b5f813590506113b481611390565b92915050565b5f602082840312156113cf576113ce611307565b5b5f6113dc848285016113a6565b91505092915050565b5f819050919050565b5f6114086114036113fe84611360565b6113e5565b611360565b9050919050565b5f611419826113ee565b9050919050565b5f61142a8261140f565b9050919050565b61143a81611420565b82525050565b5f6020820190506114535f830184611431565b92915050565b6114628161137f565b82525050565b5f60208201905061147b5f830184611459565b92915050565b5f60a0820190506114945f8301886112df565b6114a160208301876112df565b6114ae6040830186611459565b6114bb60608301856112df565b6114c860808301846112df565b9695505050505050565b5f80604083850312156114e8576114e7611307565b5b5f6114f585828601611321565b9250506020611506858286016113a6565b9150509250929050565b5f61151a8261140f565b9050919050565b61152a81611510565b82525050565b5f6020820190506115435f830184611521565b92915050565b5f82825260208201905092915050565b7f4e6f2062616c616e6365000000000000000000000000000000000000000000005f82015250565b5f61158d600a83611549565b915061159882611559565b602082019050919050565b5f6020820190508181035f8301526115ba81611581565b9050919050565b5f6060820190506115d45f8301866112df565b6115e16020830185611459565b6115ee6040830184611459565b949350505050565b5f815190506116048161130b565b92915050565b5f6020828403121561161f5761161e611307565b5b5f61162c848285016115f6565b91505092915050565b7f4e487b71000000000000000000000000000000000000000000000000000000005f52601160045260245ffd5b5f61166c826112d6565b9150611677836112d6565b925082820190508082111561168f5761168e611635565b5b92915050565b5f61169f826112d6565b91506116aa836112d6565b92508282026116b8816112d6565b915082820484148315176116cf576116ce611635565b5b5092915050565b7f4e487b71000000000000000000000000000000000000000000000000000000005f52601260045260245ffd5b5f61170d826112d6565b9150611718836112d6565b925082611728576117276116d6565b5b828204905092915050565b5f61173d826112d6565b9150611748836112d6565b92508282039050818111156117605761175f611635565b5b92915050565b7f4d696e20313020555344430000000000000000000000000000000000000000005f82015250565b5f61179a600b83611549565b91506117a582611766565b602082019050919050565b5f6020820190508181035f8301526117c78161178e565b9050919050565b7f4e6f2073656c662d726566657272616c000000000000000000000000000000005f82015250565b5f611802601083611549565b915061180d826117ce565b602082019050919050565b5f6020820190508181035f83015261182f816117f6565b9050919050565b5f6040820190506118495f830185611459565b61185660208301846112df565b9392505050565b5f8115159050919050565b6118718161185d565b811461187b575f80fd5b50565b5f8151905061188c81611868565b92915050565b5f602082840312156118a7576118a6611307565b5b5f6118b48482850161187e565b91505092915050565b5f6040820190506118d05f8301856112df565b6118dd6020830184611459565b9392505050565b7f5265656e7472616e637947756172643a207265656e7472616e742063616c6c005f82015250565b5f611918601f83611549565b9150611923826118e4565b602082019050919050565b5f6020820190508181035f8301526119458161190c565b9050919050565b5f60608201905061195f5f830186611459565b61196c6020830185611459565b61197960408301846112df565b94935050505056fea2646970667358221220bf4e9d39c0961b9b42e7b9373940d1f6bbf759f5d03774e81c5bcc3ab6c0ab3164736f6c63430008140033",
					"opcodes": "PUSH1 0x80 PUSH1 0x40 MSTORE CALLVALUE DUP1 ISZERO PUSH3 0x10 JUMPI PUSH0 DUP1 REVERT JUMPDEST POP CALLER PUSH0 PUSH20 0xFFFFFFFFFFFFFFFFFFFFFFFFFFFFFFFFFFFFFFFF AND DUP2 PUSH20 0xFFFFFFFFFFFFFFFFFFFFFFFFFFFFFFFFFFFFFFFF AND SUB PUSH3 0x85 JUMPI PUSH0 PUSH1 0x40 MLOAD PUSH32 0x1E4FBDF700000000000000000000000000000000000000000000000000000000 DUP2 MSTORE PUSH1 0x4 ADD PUSH3 0x7C SWAP2 SWAP1 PUSH3 0x1A8 JUMP JUMPDEST PUSH1 0x40 MLOAD DUP1 SWAP2 SUB SWAP1 REVERT JUMPDEST PUSH3 0x96 DUP2 PUSH3 0xA4 PUSH1 0x20 SHL PUSH1 0x20 SHR JUMP JUMPDEST POP PUSH1 0x1 DUP1 DUP2 SWAP1 SSTORE POP PUSH3 0x1C3 JUMP JUMPDEST PUSH0 DUP1 PUSH0 SWAP1 SLOAD SWAP1 PUSH2 0x100 EXP SWAP1 DIV PUSH20 0xFFFFFFFFFFFFFFFFFFFFFFFFFFFFFFFFFFFFFFFF AND SWAP1 POP DUP2 PUSH0 DUP1 PUSH2 0x100 EXP DUP2 SLOAD DUP2 PUSH20 0xFFFFFFFFFFFFFFFFFFFFFFFFFFFFFFFFFFFFFFFF MUL NOT AND SWAP1 DUP4 PUSH20 0xFFFFFFFFFFFFFFFFFFFFFFFFFFFFFFFFFFFFFFFF AND MUL OR SWAP1 SSTORE POP DUP2 PUSH20 0xFFFFFFFFFFFFFFFFFFFFFFFFFFFFFFFFFFFFFFFF AND DUP2 PUSH20 0xFFFFFFFFFFFFFFFFFFFFFFFFFFFFFFFFFFFFFFFF AND PUSH32 0x8BE0079C531659141344CD1FD0A4F28419497F9722A3DAAFE3B4186F6B6457E0 PUSH1 0x40 MLOAD PUSH1 0x40 MLOAD DUP1 SWAP2 SUB SWAP1 LOG3 POP POP JUMP JUMPDEST PUSH0 PUSH20 0xFFFFFFFFFFFFFFFFFFFFFFFFFFFFFFFFFFFFFFFF DUP3 AND SWAP1 POP SWAP2 SWAP1 POP JUMP JUMPDEST PUSH0 PUSH3 0x190 DUP3 PUSH3 0x165 JUMP JUMPDEST SWAP1 POP SWAP2 SWAP1 POP JUMP JUMPDEST PUSH3 0x1A2 DUP2 PUSH3 0x184 JUMP JUMPDEST DUP3 MSTORE POP POP JUMP JUMPDEST PUSH0 PUSH1 0x20 DUP3 ADD SWAP1 POP PUSH3 0x1BD PUSH0 DUP4 ADD DUP5 PUSH3 0x197 JUMP JUMPDEST SWAP3 SWAP2 POP POP JUMP JUMPDEST PUSH2 0x19B7 DUP1 PUSH3 0x1D1 PUSH0 CODECOPY PUSH0 RETURN INVALID PUSH1 0x80 PUSH1 0x40 MSTORE CALLVALUE DUP1 ISZERO PUSH2 0xF JUMPI PUSH0 DUP1 REVERT JUMPDEST POP PUSH1 0x4 CALLDATASIZE LT PUSH2 0xFE JUMPI PUSH0 CALLDATALOAD PUSH1 0xE0 SHR DUP1 PUSH4 0x89A30271 GT PUSH2 0x95 JUMPI DUP1 PUSH4 0xDABEAECF GT PUSH2 0x64 JUMPI DUP1 PUSH4 0xDABEAECF EQ PUSH2 0x27A JUMPI DUP1 PUSH4 0xF2FDE38B EQ PUSH2 0x296 JUMPI DUP1 PUSH4 0xF526E39A EQ PUSH2 0x2B2 JUMPI DUP1 PUSH4 0xF89EC5F5 EQ PUSH2 0x2D0 JUMPI PUSH2 0xFE JUMP JUMPDEST DUP1 PUSH4 0x89A30271 EQ PUSH2 0x200 JUMPI DUP1 PUSH4 0x8DA5CB5B EQ PUSH2 0x21E JUMPI DUP1 PUSH4 0xA87430BA EQ PUSH2 0x23C JUMPI DUP1 PUSH4 0xC8796572 EQ PUSH2 0x270 JUMPI PUSH2 0xFE JUMP JUMPDEST DUP1 PUSH4 0x5764B7C4 GT PUSH2 0xD1 JUMPI DUP1 PUSH4 0x5764B7C4 EQ PUSH2 0x178 JUMPI DUP1 PUSH4 0x5AE80951 EQ PUSH2 0x1A8 JUMPI DUP1 PUSH4 0x715018A6 EQ PUSH2 0x1D8 JUMPI DUP1 PUSH4 0x760A545E EQ PUSH2 0x1E2 JUMPI PUSH2 0xFE JUMP JUMPDEST DUP1 PUSH4 0xB4501FD EQ PUSH2 0x102 JUMPI DUP1 PUSH4 0x23544748 EQ PUSH2 0x120 JUMPI DUP1 PUSH4 0x413D9C3A EQ PUSH2 0x12A JUMPI DUP1 PUSH4 0x52E21F29 EQ PUSH2 0x148 JUMPI JUMPDEST PUSH0 DUP1 REVERT JUMPDEST PUSH2 0x10A PUSH2 0x2EE JUMP JUMPDEST PUSH1 0x40 MLOAD PUSH2 0x117 SWAP2 SWAP1 PUSH2 0x12EE JUMP JUMPDEST PUSH1 0x40 MLOAD DUP1 SWAP2 SUB SWAP1 RETURN JUMPDEST PUSH2 0x128 PUSH2 0x2F3 JUMP JUMPDEST STOP JUMPDEST PUSH2 0x132 PUSH2 0x840 JUMP JUMPDEST PUSH1 0x40 MLOAD PUSH2 0x13F SWAP2 SWAP1 PUSH2 0x12EE JUMP JUMPDEST PUSH1 0x40 MLOAD DUP1 SWAP2 SUB SWAP1 RETURN JUMPDEST PUSH2 0x162 PUSH1 0x4 DUP1 CALLDATASIZE SUB DUP2 ADD SWAP1 PUSH2 0x15D SWAP2 SWAP1 PUSH2 0x1335 JUMP JUMPDEST PUSH2 0x847 JUMP JUMPDEST PUSH1 0x40 MLOAD PUSH2 0x16F SWAP2 SWAP1 PUSH2 0x12EE JUMP JUMPDEST PUSH1 0x40 MLOAD DUP1 SWAP2 SUB SWAP1 RETURN JUMPDEST PUSH2 0x192 PUSH1 0x4 DUP1 CALLDATASIZE SUB DUP2 ADD SWAP1 PUSH2 0x18D SWAP2 SWAP1 PUSH2 0x13BA JUMP JUMPDEST PUSH2 0x8B7 JUMP JUMPDEST PUSH1 0x40 MLOAD PUSH2 0x19F SWAP2 SWAP1 PUSH2 0x12EE JUMP JUMPDEST PUSH1 0x40 MLOAD DUP1 SWAP2 SUB SWAP1 RETURN JUMPDEST PUSH2 0x1C2 PUSH1 0x4 DUP1 CALLDATASIZE SUB DUP2 ADD SWAP1 PUSH2 0x1BD SWAP2 SWAP1 PUSH2 0x13BA JUMP JUMPDEST PUSH2 0x900 JUMP JUMPDEST PUSH1 0x40 MLOAD PUSH2 0x1CF SWAP2 SWAP1 PUSH2 0x12EE JUMP JUMPDEST PUSH1 0x40 MLOAD DUP1 SWAP2 SUB SWAP1 RETURN JUMPDEST PUSH2 0x1E0 PUSH2 0x9D4 JUMP JUMPDEST STOP JUMPDEST PUSH2 0x1EA PUSH2 0x9E7 JUMP JUMPDEST PUSH1 0x40 MLOAD PUSH2 0x1F7 SWAP2 SWAP1 PUSH2 0x12EE JUMP JUMPDEST PUSH1 0x40 MLOAD DUP1 SWAP2 SUB SWAP1 RETURN JUMPDEST PUSH2 0x208 PUSH2 0x9EC JUMP JUMPDEST PUSH1 0x40 MLOAD PUSH2 0x215 SWAP2 SWAP1 PUSH2 0x1440 JUMP JUMPDEST PUSH1 0x40 MLOAD DUP1 SWAP2 SUB SWAP1 RETURN JUMPDEST PUSH2 0x226 PUSH2 0xA04 JUMP JUMPDEST PUSH1 0x40 MLOAD PUSH2 0x233 SWAP2 SWAP1 PUSH2 0x1468 JUMP JUMPDEST PUSH1 0x40 MLOAD DUP1 SWAP2 SUB SWAP1 RETURN JUMPDEST PUSH2 0x256 PUSH1 0x4 DUP1 CALLDATASIZE SUB DUP2 ADD SWAP1 PUSH2 0x251 SWAP2 SWAP1 PUSH2 0x13BA JUMP JUMPDEST PUSH2 0xA2B JUMP JUMPDEST PUSH1 0x40 MLOAD PUSH2 0x267 SWAP6 SWAP5 SWAP4 SWAP3 SWAP2 SWAP1 PUSH2 0x1481 JUMP JUMPDEST PUSH1 0x40 MLOAD DUP1 SWAP2 SUB SWAP1 RETURN JUMPDEST PUSH2 0x278 PUSH2 0xA7C JUMP JUMPDEST STOP JUMPDEST PUSH2 0x294 PUSH1 0x4 DUP1 CALLDATASIZE SUB DUP2 ADD SWAP1 PUSH2 0x28F SWAP2 SWAP1 PUSH2 0x14D2 JUMP JUMPDEST PUSH2 0xADA JUMP JUMPDEST STOP JUMPDEST PUSH2 0x2B0 PUSH1 0x4 DUP1 CALLDATASIZE SUB DUP2 ADD SWAP1 PUSH2 0x2AB SWAP2 SWAP1 PUSH2 0x13BA JUMP JUMPDEST PUSH2 0xEF1 JUMP JUMPDEST STOP JUMPDEST PUSH2 0x2BA PUSH2 0xF75 JUMP JUMPDEST PUSH1 0x40 MLOAD PUSH2 0x2C7 SWAP2 SWAP1 PUSH2 0x12EE JUMP JUMPDEST PUSH1 0x40 MLOAD DUP1 SWAP2 SUB SWAP1 RETURN JUMPDEST PUSH2 0x2D8 PUSH2 0xF7B JUMP JUMPDEST PUSH1 0x40 MLOAD PUSH2 0x2E5 SWAP2 SWAP1 PUSH2 0x1530 JUMP JUMPDEST PUSH1 0x40 MLOAD DUP1 SWAP2 SUB SWAP1 RETURN JUMPDEST PUSH1 0x5 DUP2 JUMP JUMPDEST PUSH2 0x2FB PUSH2 0xF93 JUMP JUMPDEST PUSH0 PUSH1 0x2 PUSH0 CALLER PUSH20 0xFFFFFFFFFFFFFFFFFFFFFFFFFFFFFFFFFFFFFFFF AND PUSH20 0xFFFFFFFFFFFFFFFFFFFFFFFFFFFFFFFFFFFFFFFF AND DUP2 MSTORE PUSH1 0x20 ADD SWAP1 DUP2 MSTORE PUSH1 0x20 ADD PUSH0 KECCAK256 SWAP1 POP PUSH0 DUP2 PUSH1 0x1 ADD SLOAD GT PUSH2 0x381 JUMPI PUSH1 0x40 MLOAD PUSH32 0x8C379A000000000000000000000000000000000000000000000000000000000 DUP2 MSTORE PUSH1 0x4 ADD PUSH2 0x378 SWAP1 PUSH2 0x15A3 JUMP JUMPDEST PUSH1 0x40 MLOAD DUP1 SWAP2 SUB SWAP1 REVERT JUMPDEST PUSH0 DUP2 PUSH1 0x1 ADD SLOAD SWAP1 POP PUSH0 DUP3 PUSH0 ADD SLOAD SWAP1 POP PUSH0 DUP4 PUSH1 0x4 ADD SLOAD SWAP1 POP PUSH0 DUP5 PUSH1 0x2 ADD PUSH0 SWAP1 SLOAD SWAP1 PUSH2 0x100 EXP SWAP1 DIV PUSH20 0xFFFFFFFFFFFFFFFFFFFFFFFFFFFFFFFFFFFFFFFF AND SWAP1 POP PUSH0 DUP6 PUSH1 0x1 ADD DUP2 SWAP1 SSTORE POP PUSH0 DUP6 PUSH0 ADD DUP2 SWAP1 SSTORE POP PUSH20 0xC1256AE5FF1CF2719D4937ADB3BBCCAB2E00A2CA PUSH20 0xFFFFFFFFFFFFFFFFFFFFFFFFFFFFFFFFFFFFFFFF AND PUSH4 0xBA087652 DUP6 ADDRESS ADDRESS PUSH1 0x40 MLOAD DUP5 PUSH4 0xFFFFFFFF AND PUSH1 0xE0 SHL DUP2 MSTORE PUSH1 0x4 ADD PUSH2 0x421 SWAP4 SWAP3 SWAP2 SWAP1 PUSH2 0x15C1 JUMP JUMPDEST PUSH1 0x20 PUSH1 0x40 MLOAD DUP1 DUP4 SUB DUP2 PUSH0 DUP8 GAS CALL ISZERO DUP1 ISZERO PUSH2 0x43D JUMPI RETURNDATASIZE PUSH0 DUP1 RETURNDATACOPY RETURNDATASIZE PUSH0 REVERT JUMPDEST POP POP POP POP PUSH1 0x40 MLOAD RETURNDATASIZE PUSH1 0x1F NOT PUSH1 0x1F DUP3 ADD AND DUP3 ADD DUP1 PUSH1 0x40 MSTORE POP DUP2 ADD SWAP1 PUSH2 0x461 SWAP2 SWAP1 PUSH2 0x160A JUMP JUMPDEST POP PUSH0 PUSH20 0xC1256AE5FF1CF2719D4937ADB3BBCCAB2E00A2CA PUSH20 0xFFFFFFFFFFFFFFFFFFFFFFFFFFFFFFFFFFFFFFFF AND PUSH4 0x7A2D13A DUP7 PUSH1 0x40 MLOAD DUP3 PUSH4 0xFFFFFFFF AND PUSH1 0xE0 SHL DUP2 MSTORE PUSH1 0x4 ADD PUSH2 0x4B0 SWAP2 SWAP1 PUSH2 0x12EE JUMP JUMPDEST PUSH1 0x20 PUSH1 0x40 MLOAD DUP1 DUP4 SUB DUP2 DUP7 GAS STATICCALL ISZERO DUP1 ISZERO PUSH2 0x4CB JUMPI RETURNDATASIZE PUSH0 DUP1 RETURNDATACOPY RETURNDATASIZE PUSH0 REVERT JUMPDEST POP POP POP POP PUSH1 0x40 MLOAD RETURNDATASIZE PUSH1 0x1F NOT PUSH1 0x1F DUP3 ADD AND DUP3 ADD DUP1 PUSH1 0x40 MSTORE POP DUP2 ADD SWAP1 PUSH2 0x4EF SWAP2 SWAP1 PUSH2 0x160A JUMP JUMPDEST SWAP1 POP PUSH3 0x42CC0 DUP4 PUSH2 0x500 SWAP2 SWAP1 PUSH2 0x1662 JUMP JUMPDEST TIMESTAMP LT ISZERO PUSH2 0x591 JUMPI PUSH0 PUSH1 0x64 PUSH1 0x1 DUP4 PUSH2 0x517 SWAP2 SWAP1 PUSH2 0x1695 JUMP JUMPDEST PUSH2 0x521 SWAP2 SWAP1 PUSH2 0x1703 JUMP JUMPDEST SWAP1 POP DUP1 PUSH1 0x3 PUSH0 DUP3 DUP3 SLOAD PUSH2 0x534 SWAP2 SWAP1 PUSH2 0x1662 JUMP JUMPDEST SWAP3 POP POP DUP2 SWAP1 SSTORE POP PUSH2 0x585 CALLER DUP3 DUP5 PUSH2 0x54B SWAP2 SWAP1 PUSH2 0x1733 JUMP JUMPDEST PUSH20 0x833589FCD6EDB6E08F4C7C32D4F71B54BDA02913 PUSH20 0xFFFFFFFFFFFFFFFFFFFFFFFFFFFFFFFFFFFFFFFF AND PUSH2 0xFE2 SWAP1 SWAP3 SWAP2 SWAP1 PUSH4 0xFFFFFFFF AND JUMP JUMPDEST POP POP POP POP POP POP POP PUSH2 0x836 JUMP JUMPDEST PUSH0 DUP5 DUP3 GT PUSH2 0x59F JUMPI PUSH0 PUSH2 0x5AC JUMP JUMPDEST DUP5 DUP3 PUSH2 0x5AB SWAP2 SWAP1 PUSH2 0x1733 JUMP JUMPDEST JUMPDEST SWAP1 POP PUSH0 DUP2 GT ISZERO PUSH2 0x7EE JUMPI PUSH0 PUSH1 0x5 SWAP1 POP PUSH0 PUSH20 0xFFFFFFFFFFFFFFFFFFFFFFFFFFFFFFFFFFFFFFFF AND DUP5 PUSH20 0xFFFFFFFFFFFFFFFFFFFFFFFFFFFFFFFFFFFFFFFF AND EQ PUSH2 0x639 JUMPI PUSH2 0x636 PUSH1 0x2 PUSH0 DUP7 PUSH20 0xFFFFFFFFFFFFFFFFFFFFFFFFFFFFFFFFFFFFFFFF AND PUSH20 0xFFFFFFFFFFFFFFFFFFFFFFFFFFFFFFFFFFFFFFFF AND DUP2 MSTORE PUSH1 0x20 ADD SWAP1 DUP2 MSTORE PUSH1 0x20 ADD PUSH0 KECCAK256 PUSH0 ADD SLOAD PUSH2 0x847 JUMP JUMPDEST SWAP1 POP JUMPDEST PUSH0 PUSH1 0x64 DUP3 DUP5 PUSH2 0x648 SWAP2 SWAP1 PUSH2 0x1695 JUMP JUMPDEST PUSH2 0x652 SWAP2 SWAP1 PUSH2 0x1703 JUMP JUMPDEST SWAP1 POP PUSH0 PUSH1 0x64 PUSH1 0x5 DUP6 PUSH2 0x664 SWAP2 SWAP1 PUSH2 0x1695 JUMP JUMPDEST PUSH2 0x66E SWAP2 SWAP1 PUSH2 0x1703 JUMP JUMPDEST SWAP1 POP PUSH0 DUP2 DUP4 PUSH2 0x67D SWAP2 SWAP1 PUSH2 0x1662 JUMP JUMPDEST SWAP1 POP PUSH0 DUP2 DUP7 GT PUSH2 0x68D JUMPI PUSH0 PUSH2 0x69A JUMP JUMPDEST DUP2 DUP7 PUSH2 0x699 SWAP2 SWAP1 PUSH2 0x1733 JUMP JUMPDEST JUMPDEST SWAP1 POP PUSH0 PUSH20 0xFFFFFFFFFFFFFFFFFFFFFFFFFFFFFFFFFFFFFFFF AND DUP9 PUSH20 0xFFFFFFFFFFFFFFFFFFFFFFFFFFFFFFFFFFFFFFFF AND EQ PUSH2 0x769 JUMPI PUSH2 0x70E DUP9 DUP6 PUSH20 0x833589FCD6EDB6E08F4C7C32D4F71B54BDA02913 PUSH20 0xFFFFFFFFFFFFFFFFFFFFFFFFFFFFFFFFFFFFFFFF AND PUSH2 0xFE2 SWAP1 SWAP3 SWAP2 SWAP1 PUSH4 0xFFFFFFFF AND JUMP JUMPDEST DUP4 PUSH1 0x2 PUSH0 DUP11 PUSH20 0xFFFFFFFFFFFFFFFFFFFFFFFFFFFFFFFFFFFFFFFF AND PUSH20 0xFFFFFFFFFFFFFFFFFFFFFFFFFFFFFFFFFFFFFFFF AND DUP2 MSTORE PUSH1 0x20 ADD SWAP1 DUP2 MSTORE PUSH1 0x20 ADD PUSH0 KECCAK256 PUSH1 0x3 ADD PUSH0 DUP3 DUP3 SLOAD PUSH2 0x75D SWAP2 SWAP1 PUSH2 0x1662 JUMP JUMPDEST SWAP3 POP POP DUP2 SWAP1 SSTORE POP PUSH2 0x782 JUMP JUMPDEST DUP4 PUSH1 0x3 PUSH0 DUP3 DUP3 SLOAD PUSH2 0x77A SWAP2 SWAP1 PUSH2 0x1662 JUMP JUMPDEST SWAP3 POP POP DUP2 SWAP1 SSTORE POP JUMPDEST DUP3 PUSH1 0x3 PUSH0 DUP3 DUP3 SLOAD PUSH2 0x793 SWAP2 SWAP1 PUSH2 0x1662 JUMP JUMPDEST SWAP3 POP POP DUP2 SWAP1 SSTORE POP PUSH2 0x7E4 CALLER DUP3 DUP13 PUSH2 0x7AA SWAP2 SWAP1 PUSH2 0x1662 JUMP JUMPDEST PUSH20 0x833589FCD6EDB6E08F4C7C32D4F71B54BDA02913 PUSH20 0xFFFFFFFFFFFFFFFFFFFFFFFFFFFFFFFFFFFFFFFF AND PUSH2 0xFE2 SWAP1 SWAP3 SWAP2 SWAP1 PUSH4 0xFFFFFFFF AND JUMP JUMPDEST POP POP POP POP POP PUSH2 0x82E JUMP JUMPDEST PUSH2 0x82D CALLER DUP7 PUSH20 0x833589FCD6EDB6E08F4C7C32D4F71B54BDA02913 PUSH20 0xFFFFFFFFFFFFFFFFFFFFFFFFFFFFFFFFFFFFFFFF AND PUSH2 0xFE2 SWAP1 SWAP3 SWAP2 SWAP1 PUSH4 0xFFFFFFFF AND JUMP JUMPDEST JUMPDEST POP POP POP POP POP POP POP JUMPDEST PUSH2 0x83E PUSH2 0x1061 JUMP JUMPDEST JUMP JUMPDEST PUSH3 0x42CC0 DUP2 JUMP JUMPDEST PUSH0 PUSH5 0x12A05F200 DUP3 LT PUSH2 0x85D JUMPI PUSH1 0x50 SWAP1 POP PUSH2 0x8B2 JUMP JUMPDEST PUSH4 0x3B9ACA00 DUP3 LT PUSH2 0x871 JUMPI PUSH1 0x32 SWAP1 POP PUSH2 0x8B2 JUMP JUMPDEST PUSH4 0xBEBC200 DUP3 LT PUSH2 0x885 JUMPI PUSH1 0x1E SWAP1 POP PUSH2 0x8B2 JUMP JUMPDEST PUSH4 0x5F5E100 DUP3 LT PUSH2 0x899 JUMPI PUSH1 0x14 SWAP1 POP PUSH2 0x8B2 JUMP JUMPDEST PUSH4 0x2FAF080 DUP3 LT PUSH2 0x8AD JUMPI PUSH1 0xA SWAP1 POP PUSH2 0x8B2 JUMP JUMPDEST PUSH1 0x5 SWAP1 POP JUMPDEST SWAP2 SWAP1 POP JUMP JUMPDEST PUSH0 PUSH1 0x2 PUSH0 DUP4 PUSH20 0xFFFFFFFFFFFFFFFFFFFFFFFFFFFFFFFFFFFFFFFF AND PUSH20 0xFFFFFFFFFFFFFFFFFFFFFFFFFFFFFFFFFFFFFFFF AND DUP2 MSTORE PUSH1 0x20 ADD SWAP1 DUP2 MSTORE PUSH1 0x20 ADD PUSH0 KECCAK256 PUSH1 0x3 ADD SLOAD SWAP1 POP SWAP2 SWAP1 POP JUMP JUMPDEST PUSH0 PUSH20 0xC1256AE5FF1CF2719D4937ADB3BBCCAB2E00A2CA PUSH20 0xFFFFFFFFFFFFFFFFFFFFFFFFFFFFFFFFFFFFFFFF AND PUSH4 0x7A2D13A PUSH1 0x2 PUSH0 DUP6 PUSH20 0xFFFFFFFFFFFFFFFFFFFFFFFFFFFFFFFFFFFFFFFF AND PUSH20 0xFFFFFFFFFFFFFFFFFFFFFFFFFFFFFFFFFFFFFFFF AND DUP2 MSTORE PUSH1 0x20 ADD SWAP1 DUP2 MSTORE PUSH1 0x20 ADD PUSH0 KECCAK256 PUSH1 0x1 ADD SLOAD PUSH1 0x40 MLOAD DUP3 PUSH4 0xFFFFFFFF AND PUSH1 0xE0 SHL DUP2 MSTORE PUSH1 0x4 ADD PUSH2 0x98E SWAP2 SWAP1 PUSH2 0x12EE JUMP JUMPDEST PUSH1 0x20 PUSH1 0x40 MLOAD DUP1 DUP4 SUB DUP2 DUP7 GAS STATICCALL ISZERO DUP1 ISZERO PUSH2 0x9A9 JUMPI RETURNDATASIZE PUSH0 DUP1 RETURNDATACOPY RETURNDATASIZE PUSH0 REVERT JUMPDEST POP POP POP POP PUSH1 0x40 MLOAD RETURNDATASIZE PUSH1 0x1F NOT PUSH1 0x1F DUP3 ADD AND DUP3 ADD DUP1 PUSH1 0x40 MSTORE POP DUP2 ADD SWAP1 PUSH2 0x9CD SWAP2 SWAP1 PUSH2 0x160A JUMP JUMPDEST SWAP1 POP SWAP2 SWAP1 POP JUMP JUMPDEST PUSH2 0x9DC PUSH2 0x106A JUMP JUMPDEST PUSH2 0x9E5 PUSH0 PUSH2 0x10F1 JUMP JUMPDEST JUMP JUMPDEST PUSH1 0x1 DUP2 JUMP JUMPDEST PUSH20 0x833589FCD6EDB6E08F4C7C32D4F71B54BDA02913 DUP2 JUMP JUMPDEST PUSH0 DUP1 PUSH0 SWAP1 SLOAD SWAP1 PUSH2 0x100 EXP SWAP1 DIV PUSH20 0xFFFFFFFFFFFFFFFFFFFFFFFFFFFFFFFFFFFFFFFF AND SWAP1 POP SWAP1 JUMP JUMPDEST PUSH1 0x2 PUSH1 0x20 MSTORE DUP1 PUSH0 MSTORE PUSH1 0x40 PUSH0 KECCAK256 PUSH0 SWAP2 POP SWAP1 POP DUP1 PUSH0 ADD SLOAD SWAP1 DUP1 PUSH1 0x1 ADD SLOAD SWAP1 DUP1 PUSH1 0x2 ADD PUSH0 SWAP1 SLOAD SWAP1 PUSH2 0x100 EXP SWAP1 DIV PUSH20 0xFFFFFFFFFFFFFFFFFFFFFFFFFFFFFFFFFFFFFFFF AND SWAP1 DUP1 PUSH1 0x3 ADD SLOAD SWAP1 DUP1 PUSH1 0x4 ADD SLOAD SWAP1 POP DUP6 JUMP JUMPDEST PUSH2 0xA84 PUSH2 0x106A JUMP JUMPDEST PUSH0 PUSH1 0x3 SLOAD SWAP1 POP PUSH0 PUSH1 0x3 DUP2 SWAP1 SSTORE POP PUSH2 0xAD7 PUSH2 0xA9C PUSH2 0xA04 JUMP JUMPDEST DUP3 PUSH20 0x833589FCD6EDB6E08F4C7C32D4F71B54BDA02913 PUSH20 0xFFFFFFFFFFFFFFFFFFFFFFFFFFFFFFFFFFFFFFFF AND PUSH2 0xFE2 SWAP1 SWAP3 SWAP2 SWAP1 PUSH4 0xFFFFFFFF AND JUMP JUMPDEST POP JUMP JUMPDEST PUSH2 0xAE2 PUSH2 0xF93 JUMP JUMPDEST PUSH3 0x989680 DUP3 LT ISZERO PUSH2 0xB28 JUMPI PUSH1 0x40 MLOAD PUSH32 0x8C379A000000000000000000000000000000000000000000000000000000000 DUP2 MSTORE PUSH1 0x4 ADD PUSH2 0xB1F SWAP1 PUSH2 0x17B0 JUMP JUMPDEST PUSH1 0x40 MLOAD DUP1 SWAP2 SUB SWAP1 REVERT JUMPDEST CALLER PUSH20 0xFFFFFFFFFFFFFFFFFFFFFFFFFFFFFFFFFFFFFFFF AND DUP2 PUSH20 0xFFFFFFFFFFFFFFFFFFFFFFFFFFFFFFFFFFFFFFFF AND SUB PUSH2 0xB96 JUMPI PUSH1 0x40 MLOAD PUSH32 0x8C379A000000000000000000000000000000000000000000000000000000000 DUP2 MSTORE PUSH1 0x4 ADD PUSH2 0xB8D SWAP1 PUSH2 0x1818 JUMP JUMPDEST PUSH1 0x40 MLOAD DUP1 SWAP2 SUB SWAP1 REVERT JUMPDEST PUSH0 PUSH1 0x2 PUSH0 CALLER PUSH20 0xFFFFFFFFFFFFFFFFFFFFFFFFFFFFFFFFFFFFFFFF AND PUSH20 0xFFFFFFFFFFFFFFFFFFFFFFFFFFFFFFFFFFFFFFFF AND DUP2 MSTORE PUSH1 0x20 ADD SWAP1 DUP2 MSTORE PUSH1 0x20 ADD PUSH0 KECCAK256 SWAP1 POP PUSH0 PUSH20 0xFFFFFFFFFFFFFFFFFFFFFFFFFFFFFFFFFFFFFFFF AND DUP2 PUSH1 0x2 ADD PUSH0 SWAP1 SLOAD SWAP1 PUSH2 0x100 EXP SWAP1 DIV PUSH20 0xFFFFFFFFFFFFFFFFFFFFFFFFFFFFFFFFFFFFFFFF AND PUSH20 0xFFFFFFFFFFFFFFFFFFFFFFFFFFFFFFFFFFFFFFFF AND EQ DUP1 ISZERO PUSH2 0xC60 JUMPI POP PUSH0 PUSH20 0xFFFFFFFFFFFFFFFFFFFFFFFFFFFFFFFFFFFFFFFF AND DUP3 PUSH20 0xFFFFFFFFFFFFFFFFFFFFFFFFFFFFFFFFFFFFFFFF AND EQ ISZERO JUMPDEST ISZERO PUSH2 0xCA8 JUMPI DUP2 DUP2 PUSH1 0x2 ADD PUSH0 PUSH2 0x100 EXP DUP2 SLOAD DUP2 PUSH20 0xFFFFFFFFFFFFFFFFFFFFFFFFFFFFFFFFFFFFFFFF MUL NOT AND SWAP1 DUP4 PUSH20 0xFFFFFFFFFFFFFFFFFFFFFFFFFFFFFFFFFFFFFFFF AND MUL OR SWAP1 SSTORE POP JUMPDEST PUSH2 0xCE9 CALLER ADDRESS DUP6 PUSH20 0x833589FCD6EDB6E08F4C7C32D4F71B54BDA02913 PUSH20 0xFFFFFFFFFFFFFFFFFFFFFFFFFFFFFFFFFFFFFFFF AND PUSH2 0x11B2 SWAP1 SWAP4 SWAP3 SWAP2 SWAP1 PUSH4 0xFFFFFFFF AND JUMP JUMPDEST PUSH20 0x833589FCD6EDB6E08F4C7C32D4F71B54BDA02913 PUSH20 0xFFFFFFFFFFFFFFFFFFFFFFFFFFFFFFFFFFFFFFFF AND PUSH4 0x95EA7B3 PUSH20 0xC1256AE5FF1CF2719D4937ADB3BBCCAB2E00A2CA DUP6 PUSH1 0x40 MLOAD DUP4 PUSH4 0xFFFFFFFF AND PUSH1 0xE0 SHL DUP2 MSTORE PUSH1 0x4 ADD PUSH2 0xD4C SWAP3 SWAP2 SWAP1 PUSH2 0x1836 JUMP JUMPDEST PUSH1 0x20 PUSH1 0x40 MLOAD DUP1 DUP4 SUB DUP2 PUSH0 DUP8 GAS CALL ISZERO DUP1 ISZERO PUSH2 0xD68 JUMPI RETURNDATASIZE PUSH0 DUP1 RETURNDATACOPY RETURNDATASIZE PUSH0 REVERT JUMPDEST POP POP POP POP PUSH1 0x40 MLOAD RETURNDATASIZE PUSH1 0x1F NOT PUSH1 0x1F DUP3 ADD AND DUP3 ADD DUP1 PUSH1 0x40 MSTORE POP DUP2 ADD SWAP1 PUSH2 0xD8C SWAP2 SWAP1 PUSH2 0x1892 JUMP JUMPDEST POP PUSH0 PUSH20 0xC1256AE5FF1CF2719D4937ADB3BBCCAB2E00A2CA PUSH20 0xFFFFFFFFFFFFFFFFFFFFFFFFFFFFFFFFFFFFFFFF AND PUSH4 0x6E553F65 DUP6 ADDRESS PUSH1 0x40 MLOAD DUP4 PUSH4 0xFFFFFFFF AND PUSH1 0xE0 SHL DUP2 MSTORE PUSH1 0x4 ADD PUSH2 0xDDD SWAP3 SWAP2 SWAP1 PUSH2 0x18BD JUMP JUMPDEST PUSH1 0x20 PUSH1 0x40 MLOAD DUP1 DUP4 SUB DUP2 PUSH0 DUP8 GAS CALL ISZERO DUP1 ISZERO PUSH2 0xDF9 JUMPI RETURNDATASIZE PUSH0 DUP1 RETURNDATACOPY RETURNDATASIZE PUSH0 REVERT JUMPDEST POP POP POP POP PUSH1 0x40 MLOAD RETURNDATASIZE PUSH1 0x1F NOT PUSH1 0x1F DUP3 ADD AND DUP3 ADD DUP1 PUSH1 0x40 MSTORE POP DUP2 ADD SWAP1 PUSH2 0xE1D SWAP2 SWAP1 PUSH2 0x160A JUMP JUMPDEST SWAP1 POP DUP4 DUP3 PUSH0 ADD PUSH0 DUP3 DUP3 SLOAD PUSH2 0xE31 SWAP2 SWAP1 PUSH2 0x1662 JUMP JUMPDEST SWAP3 POP POP DUP2 SWAP1 SSTORE POP DUP1 DUP3 PUSH1 0x1 ADD PUSH0 DUP3 DUP3 SLOAD PUSH2 0xE4B SWAP2 SWAP1 PUSH2 0x1662 JUMP JUMPDEST SWAP3 POP POP DUP2 SWAP1 SSTORE POP TIMESTAMP DUP3 PUSH1 0x4 ADD DUP2 SWAP1 SSTORE POP DUP2 PUSH1 0x2 ADD PUSH0 SWAP1 SLOAD SWAP1 PUSH2 0x100 EXP SWAP1 DIV PUSH20 0xFFFFFFFFFFFFFFFFFFFFFFFFFFFFFFFFFFFFFFFF AND PUSH20 0xFFFFFFFFFFFFFFFFFFFFFFFFFFFFFFFFFFFFFFFF AND CALLER PUSH20 0xFFFFFFFFFFFFFFFFFFFFFFFFFFFFFFFFFFFFFFFF AND PUSH32 0x7CFBFCB3643FE336F1DCFBB142544338EB64BE14C66360DEB7A5C6C305D5A89C DUP7 PUSH1 0x40 MLOAD PUSH2 0xEDB SWAP2 SWAP1 PUSH2 0x12EE JUMP JUMPDEST PUSH1 0x40 MLOAD DUP1 SWAP2 SUB SWAP1 LOG3 POP POP PUSH2 0xEED PUSH2 0x1061 JUMP JUMPDEST POP POP JUMP JUMPDEST PUSH2 0xEF9 PUSH2 0x106A JUMP JUMPDEST PUSH0 PUSH20 0xFFFFFFFFFFFFFFFFFFFFFFFFFFFFFFFFFFFFFFFF AND DUP2 PUSH20 0xFFFFFFFFFFFFFFFFFFFFFFFFFFFFFFFFFFFFFFFF AND SUB PUSH2 0xF69 JUMPI PUSH0 PUSH1 0x40 MLOAD PUSH32 0x1E4FBDF700000000000000000000000000000000000000000000000000000000 DUP2 MSTORE PUSH1 0x4 ADD PUSH2 0xF60 SWAP2 SWAP1 PUSH2 0x1468 JUMP JUMPDEST PUSH1 0x40 MLOAD DUP1 SWAP2 SUB SWAP1 REVERT JUMPDEST PUSH2 0xF72 DUP2 PUSH2 0x10F1 JUMP JUMPDEST POP JUMP JUMPDEST PUSH1 0x3 SLOAD DUP2 JUMP JUMPDEST PUSH20 0xC1256AE5FF1CF2719D4937ADB3BBCCAB2E00A2CA DUP2 JUMP JUMPDEST PUSH1 0x2 PUSH1 0x1 SLOAD SUB PUSH2 0xFD8 JUMPI PUSH1 0x40 MLOAD PUSH32 0x8C379A000000000000000000000000000000000000000000000000000000000 DUP2 MSTORE PUSH1 0x4 ADD PUSH2 0xFCF SWAP1 PUSH2 0x192E JUMP JUMPDEST PUSH1 0x40 MLOAD DUP1 SWAP2 SUB SWAP1 REVERT JUMPDEST PUSH1 0x2 PUSH1 0x1 DUP2 SWAP1 SSTORE POP JUMP JUMPDEST PUSH2 0x105C DUP4 DUP5 PUSH20 0xFFFFFFFFFFFFFFFFFFFFFFFFFFFFFFFFFFFFFFFF AND PUSH4 0xA9059CBB DUP6 DUP6 PUSH1 0x40 MLOAD PUSH1 0x24 ADD PUSH2 0x1015 SWAP3 SWAP2 SWAP1 PUSH2 0x1836 JUMP JUMPDEST PUSH1 0x40 MLOAD PUSH1 0x20 DUP2 DUP4 SUB SUB DUP2 MSTORE SWAP1 PUSH1 0x40 MSTORE SWAP2 POP PUSH1 0xE0 SHL PUSH1 0x20 DUP3 ADD DUP1 MLOAD PUSH28 0xFFFFFFFFFFFFFFFFFFFFFFFFFFFFFFFFFFFFFFFFFFFFFFFFFFFFFFFF DUP4 DUP2 DUP4 AND OR DUP4 MSTORE POP POP POP POP PUSH2 0x1234 JUMP JUMPDEST POP POP POP JUMP JUMPDEST PUSH1 0x1 DUP1 DUP2 SWAP1 SSTORE POP JUMP JUMPDEST PUSH2 0x1072 PUSH2 0x12CF JUMP JUMPDEST PUSH20 0xFFFFFFFFFFFFFFFFFFFFFFFFFFFFFFFFFFFFFFFF AND PUSH2 0x1090 PUSH2 0xA04 JUMP JUMPDEST PUSH20 0xFFFFFFFFFFFFFFFFFFFFFFFFFFFFFFFFFFFFFFFF AND EQ PUSH2 0x10EF JUMPI PUSH2 0x10B3 PUSH2 0x12CF JUMP JUMPDEST PUSH1 0x40 MLOAD PUSH32 0x118CDAA700000000000000000000000000000000000000000000000000000000 DUP2 MSTORE PUSH1 0x4 ADD PUSH2 0x10E6 SWAP2 SWAP1 PUSH2 0x1468 JUMP JUMPDEST PUSH1 0x40 MLOAD DUP1 SWAP2 SUB SWAP1 REVERT JUMPDEST JUMP JUMPDEST PUSH0 DUP1 PUSH0 SWAP1 SLOAD SWAP1 PUSH2 0x100 EXP SWAP1 DIV PUSH20 0xFFFFFFFFFFFFFFFFFFFFFFFFFFFFFFFFFFFFFFFF AND SWAP1 POP DUP2 PUSH0 DUP1 PUSH2 0x100 EXP DUP2 SLOAD DUP2 PUSH20 0xFFFFFFFFFFFFFFFFFFFFFFFFFFFFFFFFFFFFFFFF MUL NOT AND SWAP1 DUP4 PUSH20 0xFFFFFFFFFFFFFFFFFFFFFFFFFFFFFFFFFFFFFFFF AND MUL OR SWAP1 SSTORE POP DUP2 PUSH20 0xFFFFFFFFFFFFFFFFFFFFFFFFFFFFFFFFFFFFFFFF AND DUP2 PUSH20 0xFFFFFFFFFFFFFFFFFFFFFFFFFFFFFFFFFFFFFFFF AND PUSH32 0x8BE0079C531659141344CD1FD0A4F28419497F9722A3DAAFE3B4186F6B6457E0 PUSH1 0x40 MLOAD PUSH1 0x40 MLOAD DUP1 SWAP2 SUB SWAP1 LOG3 POP POP JUMP JUMPDEST PUSH2 0x122E DUP5 DUP6 PUSH20 0xFFFFFFFFFFFFFFFFFFFFFFFFFFFFFFFFFFFFFFFF AND PUSH4 0x23B872DD DUP7 DUP7 DUP7 PUSH1 0x40 MLOAD PUSH1 0x24 ADD PUSH2 0x11E7 SWAP4 SWAP3 SWAP2 SWAP1 PUSH2 0x194C JUMP JUMPDEST PUSH1 0x40 MLOAD PUSH1 0x20 DUP2 DUP4 SUB SUB DUP2 MSTORE SWAP1 PUSH1 0x40 MSTORE SWAP2 POP PUSH1 0xE0 SHL PUSH1 0x20 DUP3 ADD DUP1 MLOAD PUSH28 0xFFFFFFFFFFFFFFFFFFFFFFFFFFFFFFFFFFFFFFFFFFFFFFFFFFFFFFFF DUP4 DUP2 DUP4 AND OR DUP4 MSTORE POP POP POP POP PUSH2 0x1234 JUMP JUMPDEST POP POP POP POP JUMP JUMPDEST PUSH0 DUP1 PUSH1 0x20 PUSH0 DUP5 MLOAD PUSH1 0x20 DUP7 ADD PUSH0 DUP9 GAS CALL DUP1 PUSH2 0x1253 JUMPI PUSH1 0x40 MLOAD RETURNDATASIZE PUSH0 DUP3 RETURNDATACOPY RETURNDATASIZE DUP2 REVERT JUMPDEST RETURNDATASIZE SWAP3 POP PUSH0 MLOAD SWAP2 POP POP PUSH0 DUP3 EQ PUSH2 0x126C JUMPI PUSH1 0x1 DUP2 EQ ISZERO PUSH2 0x1287 JUMP JUMPDEST PUSH0 DUP5 PUSH20 0xFFFFFFFFFFFFFFFFFFFFFFFFFFFFFFFFFFFFFFFF AND EXTCODESIZE EQ JUMPDEST ISZERO PUSH2 0x12C9 JUMPI DUP4 PUSH1 0x40 MLOAD PUSH32 0x5274AFE700000000000000000000000000000000000000000000000000000000 DUP2 MSTORE PUSH1 0x4 ADD PUSH2 0x12C0 SWAP2 SWAP1 PUSH2 0x1468 JUMP JUMPDEST PUSH1 0x40 MLOAD DUP1 SWAP2 SUB SWAP1 REVERT JUMPDEST POP POP POP POP JUMP JUMPDEST PUSH0 CALLER SWAP1 POP SWAP1 JUMP JUMPDEST PUSH0 DUP2 SWAP1 POP SWAP2 SWAP1 POP JUMP JUMPDEST PUSH2 0x12E8 DUP2 PUSH2 0x12D6 JUMP JUMPDEST DUP3 MSTORE POP POP JUMP JUMPDEST PUSH0 PUSH1 0x20 DUP3 ADD SWAP1 POP PUSH2 0x1301 PUSH0 DUP4 ADD DUP5 PUSH2 0x12DF JUMP JUMPDEST SWAP3 SWAP2 POP POP JUMP JUMPDEST PUSH0 DUP1 REVERT JUMPDEST PUSH2 0x1314 DUP2 PUSH2 0x12D6 JUMP JUMPDEST DUP2 EQ PUSH2 0x131E JUMPI PUSH0 DUP1 REVERT JUMPDEST POP JUMP JUMPDEST PUSH0 DUP2 CALLDATALOAD SWAP1 POP PUSH2 0x132F DUP2 PUSH2 0x130B JUMP JUMPDEST SWAP3 SWAP2 POP POP JUMP JUMPDEST PUSH0 PUSH1 0x20 DUP3 DUP5 SUB SLT ISZERO PUSH2 0x134A JUMPI PUSH2 0x1349 PUSH2 0x1307 JUMP JUMPDEST JUMPDEST PUSH0 PUSH2 0x1357 DUP5 DUP3 DUP6 ADD PUSH2 0x1321 JUMP JUMPDEST SWAP2 POP POP SWAP3 SWAP2 POP POP JUMP JUMPDEST PUSH0 PUSH20 0xFFFFFFFFFFFFFFFFFFFFFFFFFFFFFFFFFFFFFFFF DUP3 AND SWAP1 POP SWAP2 SWAP1 POP JUMP JUMPDEST PUSH0 PUSH2 0x1389 DUP3 PUSH2 0x1360 JUMP JUMPDEST SWAP1 POP SWAP2 SWAP1 POP JUMP JUMPDEST PUSH2 0x1399 DUP2 PUSH2 0x137F JUMP JUMPDEST DUP2 EQ PUSH2 0x13A3 JUMPI PUSH0 DUP1 REVERT JUMPDEST POP JUMP JUMPDEST PUSH0 DUP2 CALLDATALOAD SWAP1 POP PUSH2 0x13B4 DUP2 PUSH2 0x1390 JUMP JUMPDEST SWAP3 SWAP2 POP POP JUMP JUMPDEST PUSH0 PUSH1 0x20 DUP3 DUP5 SUB SLT ISZERO PUSH2 0x13CF JUMPI PUSH2 0x13CE PUSH2 0x1307 JUMP JUMPDEST JUMPDEST PUSH0 PUSH2 0x13DC DUP5 DUP3 DUP6 ADD PUSH2 0x13A6 JUMP JUMPDEST SWAP2 POP POP SWAP3 SWAP2 POP POP JUMP JUMPDEST PUSH0 DUP2 SWAP1 POP SWAP2 SWAP1 POP JUMP JUMPDEST PUSH0 PUSH2 0x1408 PUSH2 0x1403 PUSH2 0x13FE DUP5 PUSH2 0x1360 JUMP JUMPDEST PUSH2 0x13E5 JUMP JUMPDEST PUSH2 0x1360 JUMP JUMPDEST SWAP1 POP SWAP2 SWAP1 POP JUMP JUMPDEST PUSH0 PUSH2 0x1419 DUP3 PUSH2 0x13EE JUMP JUMPDEST SWAP1 POP SWAP2 SWAP1 POP JUMP JUMPDEST PUSH0 PUSH2 0x142A DUP3 PUSH2 0x140F JUMP JUMPDEST SWAP1 POP SWAP2 SWAP1 POP JUMP JUMPDEST PUSH2 0x143A DUP2 PUSH2 0x1420 JUMP JUMPDEST DUP3 MSTORE POP POP JUMP JUMPDEST PUSH0 PUSH1 0x20 DUP3 ADD SWAP1 POP PUSH2 0x1453 PUSH0 DUP4 ADD DUP5 PUSH2 0x1431 JUMP JUMPDEST SWAP3 SWAP2 POP POP JUMP JUMPDEST PUSH2 0x1462 DUP2 PUSH2 0x137F JUMP JUMPDEST DUP3 MSTORE POP POP JUMP JUMPDEST PUSH0 PUSH1 0x20 DUP3 ADD SWAP1 POP PUSH2 0x147B PUSH0 DUP4 ADD DUP5 PUSH2 0x1459 JUMP JUMPDEST SWAP3 SWAP2 POP POP JUMP JUMPDEST PUSH0 PUSH1 0xA0 DUP3 ADD SWAP1 POP PUSH2 0x1494 PUSH0 DUP4 ADD DUP9 PUSH2 0x12DF JUMP JUMPDEST PUSH2 0x14A1 PUSH1 0x20 DUP4 ADD DUP8 PUSH2 0x12DF JUMP JUMPDEST PUSH2 0x14AE PUSH1 0x40 DUP4 ADD DUP7 PUSH2 0x1459 JUMP JUMPDEST PUSH2 0x14BB PUSH1 0x60 DUP4 ADD DUP6 PUSH2 0x12DF JUMP JUMPDEST PUSH2 0x14C8 PUSH1 0x80 DUP4 ADD DUP5 PUSH2 0x12DF JUMP JUMPDEST SWAP7 SWAP6 POP POP POP POP POP POP JUMP JUMPDEST PUSH0 DUP1 PUSH1 0x40 DUP4 DUP6 SUB SLT ISZERO PUSH2 0x14E8 JUMPI PUSH2 0x14E7 PUSH2 0x1307 JUMP JUMPDEST JUMPDEST PUSH0 PUSH2 0x14F5 DUP6 DUP3 DUP7 ADD PUSH2 0x1321 JUMP JUMPDEST SWAP3 POP POP PUSH1 0x20 PUSH2 0x1506 DUP6 DUP3 DUP7 ADD PUSH2 0x13A6 JUMP JUMPDEST SWAP2 POP POP SWAP3 POP SWAP3 SWAP1 POP JUMP JUMPDEST PUSH0 PUSH2 0x151A DUP3 PUSH2 0x140F JUMP JUMPDEST SWAP1 POP SWAP2 SWAP1 POP JUMP JUMPDEST PUSH2 0x152A DUP2 PUSH2 0x1510 JUMP JUMPDEST DUP3 MSTORE POP POP JUMP JUMPDEST PUSH0 PUSH1 0x20 DUP3 ADD SWAP1 POP PUSH2 0x1543 PUSH0 DUP4 ADD DUP5 PUSH2 0x1521 JUMP JUMPDEST SWAP3 SWAP2 POP POP JUMP JUMPDEST PUSH0 DUP3 DUP3 MSTORE PUSH1 0x20 DUP3 ADD SWAP1 POP SWAP3 SWAP2 POP POP JUMP JUMPDEST PUSH32 0x4E6F2062616C616E636500000000000000000000000000000000000000000000 PUSH0 DUP3 ADD MSTORE POP JUMP JUMPDEST PUSH0 PUSH2 0x158D PUSH1 0xA DUP4 PUSH2 0x1549 JUMP JUMPDEST SWAP2 POP PUSH2 0x1598 DUP3 PUSH2 0x1559 JUMP JUMPDEST PUSH1 0x20 DUP3 ADD SWAP1 POP SWAP2 SWAP1 POP JUMP JUMPDEST PUSH0 PUSH1 0x20 DUP3 ADD SWAP1 POP DUP2 DUP2 SUB PUSH0 DUP4 ADD MSTORE PUSH2 0x15BA DUP2 PUSH2 0x1581 JUMP JUMPDEST SWAP1 POP SWAP2 SWAP1 POP JUMP JUMPDEST PUSH0 PUSH1 0x60 DUP3 ADD SWAP1 POP PUSH2 0x15D4 PUSH0 DUP4 ADD DUP7 PUSH2 0x12DF JUMP JUMPDEST PUSH2 0x15E1 PUSH1 0x20 DUP4 ADD DUP6 PUSH2 0x1459 JUMP JUMPDEST PUSH2 0x15EE PUSH1 0x40 DUP4 ADD DUP5 PUSH2 0x1459 JUMP JUMPDEST SWAP5 SWAP4 POP POP POP POP JUMP JUMPDEST PUSH0 DUP2 MLOAD SWAP1 POP PUSH2 0x1604 DUP2 PUSH2 0x130B JUMP JUMPDEST SWAP3 SWAP2 POP POP JUMP JUMPDEST PUSH0 PUSH1 0x20 DUP3 DUP5 SUB SLT ISZERO PUSH2 0x161F JUMPI PUSH2 0x161E PUSH2 0x1307 JUMP JUMPDEST JUMPDEST PUSH0 PUSH2 0x162C DUP5 DUP3 DUP6 ADD PUSH2 0x15F6 JUMP JUMPDEST SWAP2 POP POP SWAP3 SWAP2 POP POP JUMP JUMPDEST PUSH32 0x4E487B7100000000000000000000000000000000000000000000000000000000 PUSH0 MSTORE PUSH1 0x11 PUSH1 0x4 MSTORE PUSH1 0x24 PUSH0 REVERT JUMPDEST PUSH0 PUSH2 0x166C DUP3 PUSH2 0x12D6 JUMP JUMPDEST SWAP2 POP PUSH2 0x1677 DUP4 PUSH2 0x12D6 JUMP JUMPDEST SWAP3 POP DUP3 DUP3 ADD SWAP1 POP DUP1 DUP3 GT ISZERO PUSH2 0x168F JUMPI PUSH2 0x168E PUSH2 0x1635 JUMP JUMPDEST JUMPDEST SWAP3 SWAP2 POP POP JUMP JUMPDEST PUSH0 PUSH2 0x169F DUP3 PUSH2 0x12D6 JUMP JUMPDEST SWAP2 POP PUSH2 0x16AA DUP4 PUSH2 0x12D6 JUMP JUMPDEST SWAP3 POP DUP3 DUP3 MUL PUSH2 0x16B8 DUP2 PUSH2 0x12D6 JUMP JUMPDEST SWAP2 POP DUP3 DUP3 DIV DUP5 EQ DUP4 ISZERO OR PUSH2 0x16CF JUMPI PUSH2 0x16CE PUSH2 0x1635 JUMP JUMPDEST JUMPDEST POP SWAP3 SWAP2 POP POP JUMP JUMPDEST PUSH32 0x4E487B7100000000000000000000000000000000000000000000000000000000 PUSH0 MSTORE PUSH1 0x12 PUSH1 0x4 MSTORE PUSH1 0x24 PUSH0 REVERT JUMPDEST PUSH0 PUSH2 0x170D DUP3 PUSH2 0x12D6 JUMP JUMPDEST SWAP2 POP PUSH2 0x1718 DUP4 PUSH2 0x12D6 JUMP JUMPDEST SWAP3 POP DUP3 PUSH2 0x1728 JUMPI PUSH2 0x1727 PUSH2 0x16D6 JUMP JUMPDEST JUMPDEST DUP3 DUP3 DIV SWAP1 POP SWAP3 SWAP2 POP POP JUMP JUMPDEST PUSH0 PUSH2 0x173D DUP3 PUSH2 0x12D6 JUMP JUMPDEST SWAP2 POP PUSH2 0x1748 DUP4 PUSH2 0x12D6 JUMP JUMPDEST SWAP3 POP DUP3 DUP3 SUB SWAP1 POP DUP2 DUP2 GT ISZERO PUSH2 0x1760 JUMPI PUSH2 0x175F PUSH2 0x1635 JUMP JUMPDEST JUMPDEST SWAP3 SWAP2 POP POP JUMP JUMPDEST PUSH32 0x4D696E2031302055534443000000000000000000000000000000000000000000 PUSH0 DUP3 ADD MSTORE POP JUMP JUMPDEST PUSH0 PUSH2 0x179A PUSH1 0xB DUP4 PUSH2 0x1549 JUMP JUMPDEST SWAP2 POP PUSH2 0x17A5 DUP3 PUSH2 0x1766 JUMP JUMPDEST PUSH1 0x20 DUP3 ADD SWAP1 POP SWAP2 SWAP1 POP JUMP JUMPDEST PUSH0 PUSH1 0x20 DUP3 ADD SWAP1 POP DUP2 DUP2 SUB PUSH0 DUP4 ADD MSTORE PUSH2 0x17C7 DUP2 PUSH2 0x178E JUMP JUMPDEST SWAP1 POP SWAP2 SWAP1 POP JUMP JUMPDEST PUSH32 0x4E6F2073656C662D726566657272616C00000000000000000000000000000000 PUSH0 DUP3 ADD MSTORE POP JUMP JUMPDEST PUSH0 PUSH2 0x1802 PUSH1 0x10 DUP4 PUSH2 0x1549 JUMP JUMPDEST SWAP2 POP PUSH2 0x180D DUP3 PUSH2 0x17CE JUMP JUMPDEST PUSH1 0x20 DUP3 ADD SWAP1 POP SWAP2 SWAP1 POP JUMP JUMPDEST PUSH0 PUSH1 0x20 DUP3 ADD SWAP1 POP DUP2 DUP2 SUB PUSH0 DUP4 ADD MSTORE PUSH2 0x182F DUP2 PUSH2 0x17F6 JUMP JUMPDEST SWAP1 POP SWAP2 SWAP1 POP JUMP JUMPDEST PUSH0 PUSH1 0x40 DUP3 ADD SWAP1 POP PUSH2 0x1849 PUSH0 DUP4 ADD DUP6 PUSH2 0x1459 JUMP JUMPDEST PUSH2 0x1856 PUSH1 0x20 DUP4 ADD DUP5 PUSH2 0x12DF JUMP JUMPDEST SWAP4 SWAP3 POP POP POP JUMP JUMPDEST PUSH0 DUP2 ISZERO ISZERO SWAP1 POP SWAP2 SWAP1 POP JUMP JUMPDEST PUSH2 0x1871 DUP2 PUSH2 0x185D JUMP JUMPDEST DUP2 EQ PUSH2 0x187B JUMPI PUSH0 DUP1 REVERT JUMPDEST POP JUMP JUMPDEST PUSH0 DUP2 MLOAD SWAP1 POP PUSH2 0x188C DUP2 PUSH2 0x1868 JUMP JUMPDEST SWAP3 SWAP2 POP POP JUMP JUMPDEST PUSH0 PUSH1 0x20 DUP3 DUP5 SUB SLT ISZERO PUSH2 0x18A7 JUMPI PUSH2 0x18A6 PUSH2 0x1307 JUMP JUMPDEST JUMPDEST PUSH0 PUSH2 0x18B4 DUP5 DUP3 DUP6 ADD PUSH2 0x187E JUMP JUMPDEST SWAP2 POP POP SWAP3 SWAP2 POP POP JUMP JUMPDEST PUSH0 PUSH1 0x40 DUP3 ADD SWAP1 POP PUSH2 0x18D0 PUSH0 DUP4 ADD DUP6 PUSH2 0x12DF JUMP JUMPDEST PUSH2 0x18DD PUSH1 0x20 DUP4 ADD DUP5 PUSH2 0x1459 JUMP JUMPDEST SWAP4 SWAP3 POP POP POP JUMP JUMPDEST PUSH32 0x5265656E7472616E637947756172643A207265656E7472616E742063616C6C00 PUSH0 DUP3 ADD MSTORE POP JUMP JUMPDEST PUSH0 PUSH2 0x1918 PUSH1 0x1F DUP4 PUSH2 0x1549 JUMP JUMPDEST SWAP2 POP PUSH2 0x1923 DUP3 PUSH2 0x18E4 JUMP JUMPDEST PUSH1 0x20 DUP3 ADD SWAP1 POP SWAP2 SWAP1 POP JUMP JUMPDEST PUSH0 PUSH1 0x20 DUP3 ADD SWAP1 POP DUP2 DUP2 SUB PUSH0 DUP4 ADD MSTORE PUSH2 0x1945 DUP2 PUSH2 0x190C JUMP JUMPDEST SWAP1 POP SWAP2 SWAP1 POP JUMP JUMPDEST PUSH0 PUSH1 0x60 DUP3 ADD SWAP1 POP PUSH2 0x195F PUSH0 DUP4 ADD DUP7 PUSH2 0x1459 JUMP JUMPDEST PUSH2 0x196C PUSH1 0x20 DUP4 ADD DUP6 PUSH2 0x1459 JUMP JUMPDEST PUSH2 0x1979 PUSH1 0x40 DUP4 ADD DUP5 PUSH2 0x12DF JUMP JUMPDEST SWAP5 SWAP4 POP POP POP POP JUMP INVALID LOG2 PUSH5 0x6970667358 0x22 SLT KECCAK256 0xBF 0x4E SWAP14 CODECOPY 0xC0 SWAP7 SHL SWAP12 TIMESTAMP 0xE7 0xB9 CALLDATACOPY CODECOPY BLOCKHASH 0xD1 0xF6 0xBB 0xF7 MSIZE CREATE2 0xD0 CALLDATACOPY PUSH21 0xE81C5BCC3AB6C0AB3164736F6C6343000814003300 "
				},
				"gasEstimates": {
					"creation": {
						"codeDepositCost": "1316600",
						"executionCost": "infinite",
						"totalCost": "infinite"
					},
					"external": {
						"EARLY_EXIT_PENALTY()": "414",
						"LOCK_TIME()": "393",
						"PROTOCOL_FEE()": "349",
						"USDC()": "infinite",
						"collectFees()": "infinite",
						"getAccountValue(address)": "infinite",
						"getReferralEarnings(address)": "2858",
						"getReferralRate(uint256)": "infinite",
						"mUSDC()": "infinite",
						"owner()": "2560",
						"renounceOwnership()": "infinite",
						"totalProtocolFees()": "2491",
						"transferOwnership(address)": "infinite",
						"users(address)": "infinite",
						"zapIn(uint256,address)": "infinite",
						"zapOut()": "infinite"
					}
				},
				"methodIdentifiers": {
					"EARLY_EXIT_PENALTY()": "760a545e",
					"LOCK_TIME()": "413d9c3a",
					"PROTOCOL_FEE()": "0b4501fd",
					"USDC()": "89a30271",
					"collectFees()": "c8796572",
					"getAccountValue(address)": "5ae80951",
					"getReferralEarnings(address)": "5764b7c4",
					"getReferralRate(uint256)": "52e21f29",
					"mUSDC()": "f89ec5f5",
					"owner()": "8da5cb5b",
					"renounceOwnership()": "715018a6",
					"totalProtocolFees()": "f526e39a",
					"transferOwnership(address)": "f2fde38b",
					"users(address)": "a87430ba",
					"zapIn(uint256,address)": "dabeaecf",
					"zapOut()": "23544748"
				}
			},
			"storageLayout": {
				"storage": [
					{
						"astId": 8,
						"contract": "contracts/zapyield-mainnet-beta.0.1.5.sol:ZapApyV2Pro",
						"label": "_owner",
						"offset": 0,
						"slot": "0",
						"type": "t_address"
					},
					{
						"astId": 248,
						"contract": "contracts/zapyield-mainnet-beta.0.1.5.sol:ZapApyV2Pro",
						"label": "_status",
						"offset": 0,
						"slot": "1",
						"type": "t_uint256"
					},
					{
						"astId": 965,
						"contract": "contracts/zapyield-mainnet-beta.0.1.5.sol:ZapApyV2Pro",
						"label": "users",
						"offset": 0,
						"slot": "2",
						"type": "t_mapping(t_address,t_struct(UserInfo)960_storage)"
					},
					{
						"astId": 967,
						"contract": "contracts/zapyield-mainnet-beta.0.1.5.sol:ZapApyV2Pro",
						"label": "totalProtocolFees",
						"offset": 0,
						"slot": "3",
						"type": "t_uint256"
					}
				],
				"types": {
					"t_address": {
						"encoding": "inplace",
						"label": "address",
						"numberOfBytes": "20"
					},
					"t_mapping(t_address,t_struct(UserInfo)960_storage)": {
						"encoding": "mapping",
						"key": "t_address",
						"label": "mapping(address => struct ZapApyV2Pro.UserInfo)",
						"numberOfBytes": "32",
						"value": "t_struct(UserInfo)960_storage"
					},
					"t_struct(UserInfo)960_storage": {
						"encoding": "inplace",
						"label": "struct ZapApyV2Pro.UserInfo",
						"members": [
							{
								"astId": 951,
								"contract": "contracts/zapyield-mainnet-beta.0.1.5.sol:ZapApyV2Pro",
								"label": "principal",
								"offset": 0,
								"slot": "0",
								"type": "t_uint256"
							},
							{
								"astId": 953,
								"contract": "contracts/zapyield-mainnet-beta.0.1.5.sol:ZapApyV2Pro",
								"label": "shareBalance",
								"offset": 0,
								"slot": "1",
								"type": "t_uint256"
							},
							{
								"astId": 955,
								"contract": "contracts/zapyield-mainnet-beta.0.1.5.sol:ZapApyV2Pro",
								"label": "referrer",
								"offset": 0,
								"slot": "2",
								"type": "t_address"
							},
							{
								"astId": 957,
								"contract": "contracts/zapyield-mainnet-beta.0.1.5.sol:ZapApyV2Pro",
								"label": "totalReferralEarnings",
								"offset": 0,
								"slot": "3",
								"type": "t_uint256"
							},
							{
								"astId": 959,
								"contract": "contracts/zapyield-mainnet-beta.0.1.5.sol:ZapApyV2Pro",
								"label": "lastDepositTime",
								"offset": 0,
								"slot": "4",
								"type": "t_uint256"
							}
						],
						"numberOfBytes": "160"
					},
					"t_uint256": {
						"encoding": "inplace",
						"label": "uint256",
						"numberOfBytes": "32"
					}
				}
			},
			"userdoc": {
				"kind": "user",
				"methods": {},
				"version": 1
			}
		}
	}
}