{
	"contracts/zapyield-mainnet-beta0.1.7.sol": {
		"ZapApyV3": {
			"abi": [
				{
					"inputs": [],
					"stateMutability": "nonpayable",
					"type": "constructor"
				},
				{
					"inputs": [
						{
							"internalType": "address",
							"name": "target",
							"type": "address"
						}
					],
					"name": "AddressEmptyCode",
					"type": "error"
				},
				{
					"inputs": [
						{
							"internalType": "address",
							"name": "implementation",
							"type": "address"
						}
					],
					"name": "ERC1967InvalidImplementation",
					"type": "error"
				},
				{
					"inputs": [],
					"name": "ERC1967NonPayable",
					"type": "error"
				},
				{
					"inputs": [],
					"name": "FailedCall",
					"type": "error"
				},
				{
					"inputs": [],
					"name": "InvalidInitialization",
					"type": "error"
				},
				{
					"inputs": [],
					"name": "NotInitializing",
					"type": "error"
				},
				{
					"inputs": [
						{
							"internalType": "address",
							"name": "owner",
							"type": "address"
						}
					],
					"name": "OwnableInvalidOwner",
					"type": "error"
				},
				{
					"inputs": [
						{
							"internalType": "address",
							"name": "account",
							"type": "address"
						}
					],
					"name": "OwnableUnauthorizedAccount",
					"type": "error"
				},
				{
					"inputs": [],
					"name": "ReentrancyGuardReentrantCall",
					"type": "error"
				},
				{
					"inputs": [],
					"name": "UUPSUnauthorizedCallContext",
					"type": "error"
				},
				{
					"inputs": [
						{
							"internalType": "bytes32",
							"name": "slot",
							"type": "bytes32"
						}
					],
					"name": "UUPSUnsupportedProxiableUUID",
					"type": "error"
				},
				{
					"anonymous": false,
					"inputs": [
						{
							"indexed": false,
							"internalType": "uint64",
							"name": "version",
							"type": "uint64"
						}
					],
					"name": "Initialized",
					"type": "event"
				},
				{
					"anonymous": false,
					"inputs": [
						{
							"indexed": true,
							"internalType": "address",
							"name": "previousOwner",
							"type": "address"
						},
						{
							"indexed": true,
							"internalType": "address",
							"name": "newOwner",
							"type": "address"
						}
					],
					"name": "OwnershipTransferred",
					"type": "event"
				},
				{
					"anonymous": false,
					"inputs": [
						{
							"indexed": true,
							"internalType": "address",
							"name": "user",
							"type": "address"
						},
						{
							"indexed": false,
							"internalType": "string",
							"name": "code",
							"type": "string"
						}
					],
					"name": "ReferralCodeCreated",
					"type": "event"
				},
				{
					"anonymous": false,
					"inputs": [
						{
							"indexed": true,
							"internalType": "address",
							"name": "implementation",
							"type": "address"
						}
					],
					"name": "Upgraded",
					"type": "event"
				},
				{
					"anonymous": false,
					"inputs": [
						{
							"indexed": true,
							"internalType": "address",
							"name": "user",
							"type": "address"
						},
						{
							"indexed": false,
							"internalType": "uint256",
							"name": "amount",
							"type": "uint256"
						},
						{
							"indexed": false,
							"internalType": "string",
							"name": "referrerCode",
							"type": "string"
						}
					],
					"name": "ZappedIn",
					"type": "event"
				},
				{
					"inputs": [],
					"name": "UPGRADE_INTERFACE_VERSION",
					"outputs": [
						{
							"internalType": "string",
							"name": "",
							"type": "string"
						}
					],
					"stateMutability": "view",
					"type": "function"
				},
				{
					"inputs": [
						{
							"internalType": "address",
							"name": "",
							"type": "address"
						}
					],
					"name": "addressToCode",
					"outputs": [
						{
							"internalType": "string",
							"name": "",
							"type": "string"
						}
					],
					"stateMutability": "view",
					"type": "function"
				},
				{
					"inputs": [
						{
							"internalType": "string",
							"name": "",
							"type": "string"
						}
					],
					"name": "codeToAddress",
					"outputs": [
						{
							"internalType": "address",
							"name": "",
							"type": "address"
						}
					],
					"stateMutability": "view",
					"type": "function"
				},
				{
					"inputs": [],
					"name": "createReferralCode",
					"outputs": [],
					"stateMutability": "nonpayable",
					"type": "function"
				},
				{
					"inputs": [],
					"name": "getMyCode",
					"outputs": [
						{
							"internalType": "string",
							"name": "",
							"type": "string"
						}
					],
					"stateMutability": "view",
					"type": "function"
				},
				{
					"inputs": [
						{
							"internalType": "address",
							"name": "_usdc",
							"type": "address"
						},
						{
							"internalType": "address",
							"name": "_vault",
							"type": "address"
						}
					],
					"name": "initialize",
					"outputs": [],
					"stateMutability": "nonpayable",
					"type": "function"
				},
				{
					"inputs": [],
					"name": "moonwellVault",
					"outputs": [
						{
							"internalType": "contract IMorphoVault",
							"name": "",
							"type": "address"
						}
					],
					"stateMutability": "view",
					"type": "function"
				},
				{
					"inputs": [],
					"name": "owner",
					"outputs": [
						{
							"internalType": "address",
							"name": "",
							"type": "address"
						}
					],
					"stateMutability": "view",
					"type": "function"
				},
				{
					"inputs": [],
					"name": "proxiableUUID",
					"outputs": [
						{
							"internalType": "bytes32",
							"name": "",
							"type": "bytes32"
						}
					],
					"stateMutability": "view",
					"type": "function"
				},
				{
					"inputs": [],
					"name": "renounceOwnership",
					"outputs": [],
					"stateMutability": "nonpayable",
					"type": "function"
				},
				{
					"inputs": [
						{
							"internalType": "address",
							"name": "newOwner",
							"type": "address"
						}
					],
					"name": "transferOwnership",
					"outputs": [],
					"stateMutability": "nonpayable",
					"type": "function"
				},
				{
					"inputs": [
						{
							"internalType": "address",
							"name": "newImplementation",
							"type": "address"
						},
						{
							"internalType": "bytes",
							"name": "data",
							"type": "bytes"
						}
					],
					"name": "upgradeToAndCall",
					"outputs": [],
					"stateMutability": "payable",
					"type": "function"
				},
				{
					"inputs": [],
					"name": "usdcToken",
					"outputs": [
						{
							"internalType": "contract IERC20Upgradeable",
							"name": "",
							"type": "address"
						}
					],
					"stateMutability": "view",
					"type": "function"
				},
				{
					"inputs": [
						{
							"internalType": "address",
							"name": "",
							"type": "address"
						}
					],
					"name": "userInfo",
					"outputs": [
						{
							"internalType": "uint256",
							"name": "principal",
							"type": "uint256"
						},
						{
							"internalType": "uint256",
							"name": "depositTime",
							"type": "uint256"
						},
						{
							"internalType": "address",
							"name": "referrer",
							"type": "address"
						}
					],
					"stateMutability": "view",
					"type": "function"
				},
				{
					"inputs": [
						{
							"internalType": "uint256",
							"name": "_amount",
							"type": "uint256"
						},
						{
							"internalType": "string",
							"name": "_referrerCode",
							"type": "string"
						}
					],
					"name": "zapIn",
					"outputs": [],
					"stateMutability": "nonpayable",
					"type": "function"
				}
			],
			"devdoc": {
				"errors": {
					"AddressEmptyCode(address)": [
						{
							"details": "There's no code at `target` (it is not a contract)."
						}
					],
					"ERC1967InvalidImplementation(address)": [
						{
							"details": "The `implementation` of the proxy is invalid."
						}
					],
					"ERC1967NonPayable()": [
						{
							"details": "An upgrade function sees `msg.value > 0` that may be lost."
						}
					],
					"FailedCall()": [
						{
							"details": "A call to an address target failed. The target may have reverted."
						}
					],
					"InvalidInitialization()": [
						{
							"details": "The contract is already initialized."
						}
					],
					"NotInitializing()": [
						{
							"details": "The contract is not initializing."
						}
					],
					"OwnableInvalidOwner(address)": [
						{
							"details": "The owner is not a valid owner account. (eg. `address(0)`)"
						}
					],
					"OwnableUnauthorizedAccount(address)": [
						{
							"details": "The caller account is not authorized to perform an operation."
						}
					],
					"ReentrancyGuardReentrantCall()": [
						{
							"details": "Unauthorized reentrant call."
						}
					],
					"UUPSUnauthorizedCallContext()": [
						{
							"details": "The call is from an unauthorized context."
						}
					],
					"UUPSUnsupportedProxiableUUID(bytes32)": [
						{
							"details": "The storage `slot` is unsupported as a UUID."
						}
					]
				},
				"events": {
					"Initialized(uint64)": {
						"details": "Triggered when the contract has been initialized or reinitialized."
					},
					"Upgraded(address)": {
						"details": "Emitted when the implementation is upgraded."
					}
				},
				"kind": "dev",
				"methods": {
					"constructor": {
						"custom:oz-upgrades-unsafe-allow": "constructor"
					},
					"owner()": {
						"details": "Returns the address of the current owner."
					},
					"proxiableUUID()": {
						"details": "Implementation of the ERC-1822 {proxiableUUID} function. This returns the storage slot used by the implementation. It is used to validate the implementation's compatibility when performing an upgrade. IMPORTANT: A proxy pointing at a proxiable contract should not be considered proxiable itself, because this risks bricking a proxy that upgrades to it, by delegating to itself until out of gas. Thus it is critical that this function revert if invoked through a proxy. This is guaranteed by the `notDelegated` modifier."
					},
					"renounceOwnership()": {
						"details": "Leaves the contract without owner. It will not be possible to call `onlyOwner` functions. Can only be called by the current owner. NOTE: Renouncing ownership will leave the contract without an owner, thereby disabling any functionality that is only available to the owner."
					},
					"transferOwnership(address)": {
						"details": "Transfers ownership of the contract to a new account (`newOwner`). Can only be called by the current owner."
					},
					"upgradeToAndCall(address,bytes)": {
						"custom:oz-upgrades-unsafe-allow-reachable": "delegatecall",
						"details": "Upgrade the implementation of the proxy to `newImplementation`, and subsequently execute the function call encoded in `data`. Calls {_authorizeUpgrade}. Emits an {Upgraded} event."
					}
				},
				"version": 1
			},
			"evm": {
				"assembly": "    /* \"contracts/zapyield-mainnet-beta0.1.7.sol\":821:5145  contract ZapApyV3 is ... */\n  mstore(0x40, 0xa0)\n    /* \"@openzeppelin/contracts-upgradeable/proxy/utils/UUPSUpgradeable.sol\":1171:1175  this */\n  address\n    /* \"@openzeppelin/contracts-upgradeable/proxy/utils/UUPSUpgradeable.sol\":1128:1176  address private immutable __self = address(this) */\n  0xffffffffffffffffffffffffffffffffffffffff\n  and\n  0x80\n  swap1\n  0xffffffffffffffffffffffffffffffffffffffff\n  and\n  dup2\n  mstore\n  pop\n    /* \"contracts/zapyield-mainnet-beta0.1.7.sol\":1906:1961  constructor() {... */\n  callvalue\n  dup1\n  iszero\n  tag_1\n  jumpi\n  revert(0x00, 0x00)\ntag_1:\n  pop\n    /* \"contracts/zapyield-mainnet-beta0.1.7.sol\":1931:1953  _disableInitializers() */\n  tag_4\n    /* \"contracts/zapyield-mainnet-beta0.1.7.sol\":1931:1951  _disableInitializers */\n  shl(0x20, tag_5)\n    /* \"contracts/zapyield-mainnet-beta0.1.7.sol\":1931:1953  _disableInitializers() */\n  0x20\n  shr\n  jump\t// in\ntag_4:\n    /* \"contracts/zapyield-mainnet-beta0.1.7.sol\":821:5145  contract ZapApyV3 is ... */\n  jump(tag_6)\n    /* \"@openzeppelin/contracts-upgradeable/proxy/utils/Initializable.sol\":7709:8131  function _disableInitializers() internal virtual {... */\ntag_5:\n    /* \"@openzeppelin/contracts-upgradeable/proxy/utils/Initializable.sol\":7824:7854  InitializableStorage storage $ */\n  0x00\n    /* \"@openzeppelin/contracts-upgradeable/proxy/utils/Initializable.sol\":7857:7883  _getInitializableStorage() */\n  tag_8\n    /* \"@openzeppelin/contracts-upgradeable/proxy/utils/Initializable.sol\":7857:7881  _getInitializableStorage */\n  shl(0x20, tag_9)\n    /* \"@openzeppelin/contracts-upgradeable/proxy/utils/Initializable.sol\":7857:7883  _getInitializableStorage() */\n  0x20\n  shr\n  jump\t// in\ntag_8:\n    /* \"@openzeppelin/contracts-upgradeable/proxy/utils/Initializable.sol\":7824:7883  InitializableStorage storage $ = _getInitializableStorage() */\n  swap1\n  pop\n    /* \"@openzeppelin/contracts-upgradeable/proxy/utils/Initializable.sol\":7898:7899  $ */\n  dup1\n    /* \"@openzeppelin/contracts-upgradeable/proxy/utils/Initializable.sol\":7898:7913  $._initializing */\n  0x00\n  add\n  0x08\n  swap1\n  sload\n  swap1\n  0x0100\n  exp\n  swap1\n  div\n  0xff\n  and\n    /* \"@openzeppelin/contracts-upgradeable/proxy/utils/Initializable.sol\":7894:7970  if ($._initializing) {... */\n  iszero\n  tag_10\n  jumpi\n    /* \"@openzeppelin/contracts-upgradeable/proxy/utils/Initializable.sol\":7936:7959  InvalidInitialization() */\n  mload(0x40)\n  0xf92ee8a900000000000000000000000000000000000000000000000000000000\n  dup2\n  mstore\n  0x04\n  add\n  mload(0x40)\n  dup1\n  swap2\n  sub\n  swap1\n  revert\n    /* \"@openzeppelin/contracts-upgradeable/proxy/utils/Initializable.sol\":7894:7970  if ($._initializing) {... */\ntag_10:\n    /* \"@openzeppelin/contracts-upgradeable/proxy/utils/Initializable.sol\":8001:8017  type(uint64).max */\n  0xffffffffffffffff\n    /* \"@openzeppelin/contracts-upgradeable/proxy/utils/Initializable.sol\":7983:8017  $._initialized != type(uint64).max */\n  dup1\n  and\n    /* \"@openzeppelin/contracts-upgradeable/proxy/utils/Initializable.sol\":7983:7984  $ */\n  dup2\n    /* \"@openzeppelin/contracts-upgradeable/proxy/utils/Initializable.sol\":7983:7997  $._initialized */\n  0x00\n  add\n  0x00\n  swap1\n  sload\n  swap1\n  0x0100\n  exp\n  swap1\n  div\n  0xffffffffffffffff\n  and\n    /* \"@openzeppelin/contracts-upgradeable/proxy/utils/Initializable.sol\":7983:8017  $._initialized != type(uint64).max */\n  0xffffffffffffffff\n  and\n  eq\n    /* \"@openzeppelin/contracts-upgradeable/proxy/utils/Initializable.sol\":7979:8125  if ($._initialized != type(uint64).max) {... */\n  tag_11\n  jumpi\n    /* \"@openzeppelin/contracts-upgradeable/proxy/utils/Initializable.sol\":8050:8066  type(uint64).max */\n  0xffffffffffffffff\n    /* \"@openzeppelin/contracts-upgradeable/proxy/utils/Initializable.sol\":8033:8034  $ */\n  dup2\n    /* \"@openzeppelin/contracts-upgradeable/proxy/utils/Initializable.sol\":8033:8047  $._initialized */\n  0x00\n  add\n  0x00\n    /* \"@openzeppelin/contracts-upgradeable/proxy/utils/Initializable.sol\":8033:8066  $._initialized = type(uint64).max */\n  0x0100\n  exp\n  dup2\n  sload\n  dup2\n  0xffffffffffffffff\n  mul\n  not\n  and\n  swap1\n  dup4\n  0xffffffffffffffff\n  and\n  mul\n  or\n  swap1\n  sstore\n  pop\n    /* \"@openzeppelin/contracts-upgradeable/proxy/utils/Initializable.sol\":8085:8114  Initialized(type(uint64).max) */\n  0xc7f505b2f371ae2175ee4913f4499e1f2633a7b5936321eed1cdaeb6115181d2\n    /* \"@openzeppelin/contracts-upgradeable/proxy/utils/Initializable.sol\":8097:8113  type(uint64).max */\n  0xffffffffffffffff\n    /* \"@openzeppelin/contracts-upgradeable/proxy/utils/Initializable.sol\":8085:8114  Initialized(type(uint64).max) */\n  mload(0x40)\n  tag_12\n  swap2\n  swap1\n  tag_13\n  jump\t// in\ntag_12:\n  mload(0x40)\n  dup1\n  swap2\n  sub\n  swap1\n  log1\n    /* \"@openzeppelin/contracts-upgradeable/proxy/utils/Initializable.sol\":7979:8125  if ($._initialized != type(uint64).max) {... */\ntag_11:\n    /* \"@openzeppelin/contracts-upgradeable/proxy/utils/Initializable.sol\":7758:8131  {... */\n  pop\n    /* \"@openzeppelin/contracts-upgradeable/proxy/utils/Initializable.sol\":7709:8131  function _disableInitializers() internal virtual {... */\n  jump\t// out\n    /* \"@openzeppelin/contracts-upgradeable/proxy/utils/Initializable.sol\":9071:9276  function _getInitializableStorage() private pure returns (InitializableStorage storage $) {... */\ntag_9:\n    /* \"@openzeppelin/contracts-upgradeable/proxy/utils/Initializable.sol\":9129:9159  InitializableStorage storage $ */\n  0x00\n    /* \"@openzeppelin/contracts-upgradeable/proxy/utils/Initializable.sol\":9171:9183  bytes32 slot */\n  0x00\n    /* \"@openzeppelin/contracts-upgradeable/proxy/utils/Initializable.sol\":9186:9213  _initializableStorageSlot() */\n  tag_15\n    /* \"@openzeppelin/contracts-upgradeable/proxy/utils/Initializable.sol\":9186:9211  _initializableStorageSlot */\n  shl(0x20, tag_16)\n    /* \"@openzeppelin/contracts-upgradeable/proxy/utils/Initializable.sol\":9186:9213  _initializableStorageSlot() */\n  0x20\n  shr\n  jump\t// in\ntag_15:\n    /* \"@openzeppelin/contracts-upgradeable/proxy/utils/Initializable.sol\":9171:9213  bytes32 slot = _initializableStorageSlot() */\n  swap1\n  pop\n    /* \"@openzeppelin/contracts-upgradeable/proxy/utils/Initializable.sol\":9256:9260  slot */\n  dup1\n    /* \"@openzeppelin/contracts-upgradeable/proxy/utils/Initializable.sol\":9246:9260  $.slot := slot */\n  swap2\n  pop\n    /* \"@openzeppelin/contracts-upgradeable/proxy/utils/Initializable.sol\":9232:9270  {... */\n  pop\n    /* \"@openzeppelin/contracts-upgradeable/proxy/utils/Initializable.sol\":9071:9276  function _getInitializableStorage() private pure returns (InitializableStorage storage $) {... */\n  swap1\n  jump\t// out\n    /* \"@openzeppelin/contracts-upgradeable/proxy/utils/Initializable.sol\":8819:8941  function _initializableStorageSlot() internal pure virtual returns (bytes32) {... */\ntag_16:\n    /* \"@openzeppelin/contracts-upgradeable/proxy/utils/Initializable.sol\":8887:8894  bytes32 */\n  0x00\n    /* \"@openzeppelin/contracts-upgradeable/proxy/utils/Initializable.sol\":3147:3213  0xf0c57e16840df040f15088dc2f81fe391c3923bec73e23a9662efc9c229c6a00 */\n  0xf0c57e16840df040f15088dc2f81fe391c3923bec73e23a9662efc9c229c6a00\n    /* \"@openzeppelin/contracts-upgradeable/proxy/utils/Initializable.sol\":8913:8934  INITIALIZABLE_STORAGE */\n  0x00\n  shl\n    /* \"@openzeppelin/contracts-upgradeable/proxy/utils/Initializable.sol\":8906:8934  return INITIALIZABLE_STORAGE */\n  swap1\n  pop\n    /* \"@openzeppelin/contracts-upgradeable/proxy/utils/Initializable.sol\":8819:8941  function _initializableStorageSlot() internal pure virtual returns (bytes32) {... */\n  swap1\n  jump\t// out\n    /* \"#utility.yul\":7:108   */\ntag_18:\n    /* \"#utility.yul\":43:50   */\n  0x00\n    /* \"#utility.yul\":83:101   */\n  0xffffffffffffffff\n    /* \"#utility.yul\":76:81   */\n  dup3\n    /* \"#utility.yul\":72:102   */\n  and\n    /* \"#utility.yul\":61:102   */\n  swap1\n  pop\n    /* \"#utility.yul\":7:108   */\n  swap2\n  swap1\n  pop\n  jump\t// out\n    /* \"#utility.yul\":114:229   */\ntag_19:\n    /* \"#utility.yul\":199:222   */\n  tag_23\n    /* \"#utility.yul\":216:221   */\n  dup2\n    /* \"#utility.yul\":199:222   */\n  tag_18\n  jump\t// in\ntag_23:\n    /* \"#utility.yul\":194:197   */\n  dup3\n    /* \"#utility.yul\":187:223   */\n  mstore\n    /* \"#utility.yul\":114:229   */\n  pop\n  pop\n  jump\t// out\n    /* \"#utility.yul\":235:453   */\ntag_13:\n    /* \"#utility.yul\":326:330   */\n  0x00\n    /* \"#utility.yul\":364:366   */\n  0x20\n    /* \"#utility.yul\":353:362   */\n  dup3\n    /* \"#utility.yul\":349:367   */\n  add\n    /* \"#utility.yul\":341:367   */\n  swap1\n  pop\n    /* \"#utility.yul\":377:446   */\n  tag_25\n    /* \"#utility.yul\":443:444   */\n  0x00\n    /* \"#utility.yul\":432:441   */\n  dup4\n    /* \"#utility.yul\":428:445   */\n  add\n    /* \"#utility.yul\":419:425   */\n  dup5\n    /* \"#utility.yul\":377:446   */\n  tag_19\n  jump\t// in\ntag_25:\n    /* \"#utility.yul\":235:453   */\n  swap3\n  swap2\n  pop\n  pop\n  jump\t// out\n    /* \"contracts/zapyield-mainnet-beta0.1.7.sol\":821:5145  contract ZapApyV3 is ... */\ntag_6:\n  mload(0x80)\n  codecopy(0x00, dataOffset(sub_0), dataSize(sub_0))\n  0x00\n  assignImmutable(\"0x4ce4dab4689da140a0c12de1a6af6b8f679594aeb723205f513e052d27f5b26f\")\n  return(0x00, dataSize(sub_0))\nstop\n\nsub_0: assembly {\n        /* \"contracts/zapyield-mainnet-beta0.1.7.sol\":821:5145  contract ZapApyV3 is ... */\n      mstore(0x40, 0x80)\n      jumpi(tag_1, lt(calldatasize, 0x04))\n      shr(0xe0, calldataload(0x00))\n      dup1\n      0x715018a6\n      gt\n      tag_17\n      jumpi\n      dup1\n      0x9932dc05\n      gt\n      tag_18\n      jumpi\n      dup1\n      0x9932dc05\n      eq\n      tag_13\n      jumpi\n      dup1\n      0xad3cb1cc\n      eq\n      tag_14\n      jumpi\n      dup1\n      0xc4f74631\n      eq\n      tag_15\n      jumpi\n      dup1\n      0xf2fde38b\n      eq\n      tag_16\n      jumpi\n      jump(tag_1)\n    tag_18:\n      dup1\n      0x715018a6\n      eq\n      tag_9\n      jumpi\n      dup1\n      0x71cd28b4\n      eq\n      tag_10\n      jumpi\n      dup1\n      0x8da5cb5b\n      eq\n      tag_11\n      jumpi\n      dup1\n      0x97da7af7\n      eq\n      tag_12\n      jumpi\n      jump(tag_1)\n    tag_17:\n      dup1\n      0x2e108d1c\n      gt\n      tag_19\n      jumpi\n      dup1\n      0x2e108d1c\n      eq\n      tag_5\n      jumpi\n      dup1\n      0x485cc955\n      eq\n      tag_6\n      jumpi\n      dup1\n      0x4f1ef286\n      eq\n      tag_7\n      jumpi\n      dup1\n      0x52d1902d\n      eq\n      tag_8\n      jumpi\n      jump(tag_1)\n    tag_19:\n      dup1\n      0x040d02e4\n      eq\n      tag_2\n      jumpi\n      dup1\n      0x11eac855\n      eq\n      tag_3\n      jumpi\n      dup1\n      0x1959a002\n      eq\n      tag_4\n      jumpi\n    tag_1:\n      revert(0x00, 0x00)\n        /* \"contracts/zapyield-mainnet-beta0.1.7.sol\":3922:4976  function zapIn(uint256 _amount, string memory _referrerCode) external nonReentrant {... */\n    tag_2:\n      callvalue\n      dup1\n      iszero\n      tag_20\n      jumpi\n      revert(0x00, 0x00)\n    tag_20:\n      pop\n      tag_21\n      0x04\n      dup1\n      calldatasize\n      sub\n      dup2\n      add\n      swap1\n      tag_22\n      swap2\n      swap1\n      tag_23\n      jump\t// in\n    tag_22:\n      tag_24\n      jump\t// in\n    tag_21:\n      stop\n        /* \"contracts/zapyield-mainnet-beta0.1.7.sol\":1043:1077  IERC20Upgradeable public usdcToken */\n    tag_3:\n      callvalue\n      dup1\n      iszero\n      tag_25\n      jumpi\n      revert(0x00, 0x00)\n    tag_25:\n      pop\n      tag_26\n      tag_27\n      jump\t// in\n    tag_26:\n      mload(0x40)\n      tag_28\n      swap2\n      swap1\n      tag_29\n      jump\t// in\n    tag_28:\n      mload(0x40)\n      dup1\n      swap2\n      sub\n      swap1\n      return\n        /* \"contracts/zapyield-mainnet-beta0.1.7.sol\":1635:1679  mapping(address => UserInfo) public userInfo */\n    tag_4:\n      callvalue\n      dup1\n      iszero\n      tag_30\n      jumpi\n      revert(0x00, 0x00)\n    tag_30:\n      pop\n      tag_31\n      0x04\n      dup1\n      calldatasize\n      sub\n      dup2\n      add\n      swap1\n      tag_32\n      swap2\n      swap1\n      tag_33\n      jump\t// in\n    tag_32:\n      tag_34\n      jump\t// in\n    tag_31:\n      mload(0x40)\n      tag_35\n      swap4\n      swap3\n      swap2\n      swap1\n      tag_36\n      jump\t// in\n    tag_35:\n      mload(0x40)\n      dup1\n      swap2\n      sub\n      swap1\n      return\n        /* \"contracts/zapyield-mainnet-beta0.1.7.sol\":2598:3235  function createReferralCode() external {... */\n    tag_5:\n      callvalue\n      dup1\n      iszero\n      tag_37\n      jumpi\n      revert(0x00, 0x00)\n    tag_37:\n      pop\n      tag_38\n      tag_39\n      jump\t// in\n    tag_38:\n      stop\n        /* \"contracts/zapyield-mainnet-beta0.1.7.sol\":2019:2308  function initialize(address _usdc, address _vault) public initializer {... */\n    tag_6:\n      callvalue\n      dup1\n      iszero\n      tag_40\n      jumpi\n      revert(0x00, 0x00)\n    tag_40:\n      pop\n      tag_41\n      0x04\n      dup1\n      calldatasize\n      sub\n      dup2\n      add\n      swap1\n      tag_42\n      swap2\n      swap1\n      tag_43\n      jump\t// in\n    tag_42:\n      tag_44\n      jump\t// in\n    tag_41:\n      stop\n        /* \"@openzeppelin/contracts-upgradeable/proxy/utils/UUPSUpgradeable.sol\":4161:4375  function upgradeToAndCall(address newImplementation, bytes memory data) public payable virtual onlyProxy {... */\n    tag_7:\n      tag_45\n      0x04\n      dup1\n      calldatasize\n      sub\n      dup2\n      add\n      swap1\n      tag_46\n      swap2\n      swap1\n      tag_47\n      jump\t// in\n    tag_46:\n      tag_48\n      jump\t// in\n    tag_45:\n      stop\n        /* \"@openzeppelin/contracts-upgradeable/proxy/utils/UUPSUpgradeable.sol\":3708:3842  function proxiableUUID() external view virtual notDelegated returns (bytes32) {... */\n    tag_8:\n      callvalue\n      dup1\n      iszero\n      tag_49\n      jumpi\n      revert(0x00, 0x00)\n    tag_49:\n      pop\n      tag_50\n      tag_51\n      jump\t// in\n    tag_50:\n      mload(0x40)\n      tag_52\n      swap2\n      swap1\n      tag_53\n      jump\t// in\n    tag_52:\n      mload(0x40)\n      dup1\n      swap2\n      sub\n      swap1\n      return\n        /* \"@openzeppelin/contracts-upgradeable/access/OwnableUpgradeable.sol\":3155:3256  function renounceOwnership() public virtual onlyOwner {... */\n    tag_9:\n      callvalue\n      dup1\n      iszero\n      tag_54\n      jumpi\n      revert(0x00, 0x00)\n    tag_54:\n      pop\n      tag_55\n      tag_56\n      jump\t// in\n    tag_55:\n      stop\n        /* \"contracts/zapyield-mainnet-beta0.1.7.sol\":5032:5142  function getMyCode() external view returns (string memory) {... */\n    tag_10:\n      callvalue\n      dup1\n      iszero\n      tag_57\n      jumpi\n      revert(0x00, 0x00)\n    tag_57:\n      pop\n      tag_58\n      tag_59\n      jump\t// in\n    tag_58:\n      mload(0x40)\n      tag_60\n      swap2\n      swap1\n      tag_61\n      jump\t// in\n    tag_60:\n      mload(0x40)\n      dup1\n      swap2\n      sub\n      swap1\n      return\n        /* \"@openzeppelin/contracts-upgradeable/access/OwnableUpgradeable.sol\":2441:2585  function owner() public view virtual returns (address) {... */\n    tag_11:\n      callvalue\n      dup1\n      iszero\n      tag_62\n      jumpi\n      revert(0x00, 0x00)\n    tag_62:\n      pop\n      tag_63\n      tag_64\n      jump\t// in\n    tag_63:\n      mload(0x40)\n      tag_65\n      swap2\n      swap1\n      tag_66\n      jump\t// in\n    tag_65:\n      mload(0x40)\n      dup1\n      swap2\n      sub\n      swap1\n      return\n        /* \"contracts/zapyield-mainnet-beta0.1.7.sol\":1084:1117  IMorphoVault public moonwellVault */\n    tag_12:\n      callvalue\n      dup1\n      iszero\n      tag_67\n      jumpi\n      revert(0x00, 0x00)\n    tag_67:\n      pop\n      tag_68\n      tag_69\n      jump\t// in\n    tag_68:\n      mload(0x40)\n      tag_70\n      swap2\n      swap1\n      tag_71\n      jump\t// in\n    tag_70:\n      mload(0x40)\n      dup1\n      swap2\n      sub\n      swap1\n      return\n        /* \"contracts/zapyield-mainnet-beta0.1.7.sol\":1220:1267  mapping(string => address) public codeToAddress */\n    tag_13:\n      callvalue\n      dup1\n      iszero\n      tag_72\n      jumpi\n      revert(0x00, 0x00)\n    tag_72:\n      pop\n      tag_73\n      0x04\n      dup1\n      calldatasize\n      sub\n      dup2\n      add\n      swap1\n      tag_74\n      swap2\n      swap1\n      tag_75\n      jump\t// in\n    tag_74:\n      tag_76\n      jump\t// in\n    tag_73:\n      mload(0x40)\n      tag_77\n      swap2\n      swap1\n      tag_66\n      jump\t// in\n    tag_77:\n      mload(0x40)\n      dup1\n      swap2\n      sub\n      swap1\n      return\n        /* \"@openzeppelin/contracts-upgradeable/proxy/utils/UUPSUpgradeable.sol\":1819:1877  string public constant UPGRADE_INTERFACE_VERSION = \"5.0.0\" */\n    tag_14:\n      callvalue\n      dup1\n      iszero\n      tag_78\n      jumpi\n      revert(0x00, 0x00)\n    tag_78:\n      pop\n      tag_79\n      tag_80\n      jump\t// in\n    tag_79:\n      mload(0x40)\n      tag_81\n      swap2\n      swap1\n      tag_61\n      jump\t// in\n    tag_81:\n      mload(0x40)\n      dup1\n      swap2\n      sub\n      swap1\n      return\n        /* \"contracts/zapyield-mainnet-beta0.1.7.sol\":1326:1373  mapping(address => string) public addressToCode */\n    tag_15:\n      callvalue\n      dup1\n      iszero\n      tag_82\n      jumpi\n      revert(0x00, 0x00)\n    tag_82:\n      pop\n      tag_83\n      0x04\n      dup1\n      calldatasize\n      sub\n      dup2\n      add\n      swap1\n      tag_84\n      swap2\n      swap1\n      tag_33\n      jump\t// in\n    tag_84:\n      tag_85\n      jump\t// in\n    tag_83:\n      mload(0x40)\n      tag_86\n      swap2\n      swap1\n      tag_61\n      jump\t// in\n    tag_86:\n      mload(0x40)\n      dup1\n      swap2\n      sub\n      swap1\n      return\n        /* \"@openzeppelin/contracts-upgradeable/access/OwnableUpgradeable.sol\":3405:3620  function transferOwnership(address newOwner) public virtual onlyOwner {... */\n    tag_16:\n      callvalue\n      dup1\n      iszero\n      tag_87\n      jumpi\n      revert(0x00, 0x00)\n    tag_87:\n      pop\n      tag_88\n      0x04\n      dup1\n      calldatasize\n      sub\n      dup2\n      add\n      swap1\n      tag_89\n      swap2\n      swap1\n      tag_33\n      jump\t// in\n    tag_89:\n      tag_90\n      jump\t// in\n    tag_88:\n      stop\n        /* \"contracts/zapyield-mainnet-beta0.1.7.sol\":3922:4976  function zapIn(uint256 _amount, string memory _referrerCode) external nonReentrant {... */\n    tag_24:\n        /* \"@openzeppelin/contracts-upgradeable/utils/ReentrancyGuardUpgradeable.sol\":3395:3416  _nonReentrantBefore() */\n      tag_92\n        /* \"@openzeppelin/contracts-upgradeable/utils/ReentrancyGuardUpgradeable.sol\":3395:3414  _nonReentrantBefore */\n      tag_93\n        /* \"@openzeppelin/contracts-upgradeable/utils/ReentrancyGuardUpgradeable.sol\":3395:3416  _nonReentrantBefore() */\n      jump\t// in\n    tag_92:\n        /* \"contracts/zapyield-mainnet-beta0.1.7.sol\":4034:4035  0 */\n      0x00\n        /* \"contracts/zapyield-mainnet-beta0.1.7.sol\":4024:4031  _amount */\n      dup3\n        /* \"contracts/zapyield-mainnet-beta0.1.7.sol\":4024:4035  _amount > 0 */\n      gt\n        /* \"contracts/zapyield-mainnet-beta0.1.7.sol\":4016:4066  require(_amount > 0, \"ZapApy: Amount must be > 0\") */\n      tag_95\n      jumpi\n      mload(0x40)\n      0x08c379a000000000000000000000000000000000000000000000000000000000\n      dup2\n      mstore\n      0x04\n      add\n      tag_96\n      swap1\n      tag_97\n      jump\t// in\n    tag_96:\n      mload(0x40)\n      dup1\n      swap2\n      sub\n      swap1\n      revert\n    tag_95:\n        /* \"contracts/zapyield-mainnet-beta0.1.7.sol\":4147:4167  address referrerAddr */\n      0x00\n        /* \"contracts/zapyield-mainnet-beta0.1.7.sol\":4170:4183  codeToAddress */\n      0x02\n        /* \"contracts/zapyield-mainnet-beta0.1.7.sol\":4184:4197  _referrerCode */\n      dup3\n        /* \"contracts/zapyield-mainnet-beta0.1.7.sol\":4170:4198  codeToAddress[_referrerCode] */\n      mload(0x40)\n      tag_98\n      swap2\n      swap1\n      tag_99\n      jump\t// in\n    tag_98:\n      swap1\n      dup2\n      mstore\n      0x20\n      add\n      mload(0x40)\n      dup1\n      swap2\n      sub\n      swap1\n      keccak256\n      0x00\n      swap1\n      sload\n      swap1\n      0x0100\n      exp\n      swap1\n      div\n      0xffffffffffffffffffffffffffffffffffffffff\n      and\n        /* \"contracts/zapyield-mainnet-beta0.1.7.sol\":4147:4198  address referrerAddr = codeToAddress[_referrerCode] */\n      swap1\n      pop\n        /* \"contracts/zapyield-mainnet-beta0.1.7.sol\":4329:4330  0 */\n      0x00\n        /* \"contracts/zapyield-mainnet-beta0.1.7.sol\":4305:4331  referrerAddr == address(0) */\n      0xffffffffffffffffffffffffffffffffffffffff\n      and\n        /* \"contracts/zapyield-mainnet-beta0.1.7.sol\":4305:4317  referrerAddr */\n      dup2\n        /* \"contracts/zapyield-mainnet-beta0.1.7.sol\":4305:4331  referrerAddr == address(0) */\n      0xffffffffffffffffffffffffffffffffffffffff\n      and\n      eq\n        /* \"contracts/zapyield-mainnet-beta0.1.7.sol\":4305:4361  referrerAddr == address(0) || referrerAddr == msg.sender */\n      dup1\n      tag_100\n      jumpi\n      pop\n        /* \"contracts/zapyield-mainnet-beta0.1.7.sol\":4351:4361  msg.sender */\n      caller\n        /* \"contracts/zapyield-mainnet-beta0.1.7.sol\":4335:4361  referrerAddr == msg.sender */\n      0xffffffffffffffffffffffffffffffffffffffff\n      and\n        /* \"contracts/zapyield-mainnet-beta0.1.7.sol\":4335:4347  referrerAddr */\n      dup2\n        /* \"contracts/zapyield-mainnet-beta0.1.7.sol\":4335:4361  referrerAddr == msg.sender */\n      0xffffffffffffffffffffffffffffffffffffffff\n      and\n      eq\n        /* \"contracts/zapyield-mainnet-beta0.1.7.sol\":4305:4361  referrerAddr == address(0) || referrerAddr == msg.sender */\n    tag_100:\n        /* \"contracts/zapyield-mainnet-beta0.1.7.sol\":4301:4415  if (referrerAddr == address(0) || referrerAddr == msg.sender) {... */\n      iszero\n      tag_101\n      jumpi\n        /* \"contracts/zapyield-mainnet-beta0.1.7.sol\":4401:4402  0 */\n      0x00\n        /* \"contracts/zapyield-mainnet-beta0.1.7.sol\":4378:4403  referrerAddr = address(0) */\n      swap1\n      pop\n        /* \"contracts/zapyield-mainnet-beta0.1.7.sol\":4301:4415  if (referrerAddr == address(0) || referrerAddr == msg.sender) {... */\n    tag_101:\n        /* \"contracts/zapyield-mainnet-beta0.1.7.sol\":4460:4481  UserInfo storage user */\n      0x00\n        /* \"contracts/zapyield-mainnet-beta0.1.7.sol\":4484:4492  userInfo */\n      0x04\n        /* \"contracts/zapyield-mainnet-beta0.1.7.sol\":4484:4504  userInfo[msg.sender] */\n      0x00\n        /* \"contracts/zapyield-mainnet-beta0.1.7.sol\":4493:4503  msg.sender */\n      caller\n        /* \"contracts/zapyield-mainnet-beta0.1.7.sol\":4484:4504  userInfo[msg.sender] */\n      0xffffffffffffffffffffffffffffffffffffffff\n      and\n      0xffffffffffffffffffffffffffffffffffffffff\n      and\n      dup2\n      mstore\n      0x20\n      add\n      swap1\n      dup2\n      mstore\n      0x20\n      add\n      0x00\n      keccak256\n        /* \"contracts/zapyield-mainnet-beta0.1.7.sol\":4460:4504  UserInfo storage user = userInfo[msg.sender] */\n      swap1\n      pop\n        /* \"contracts/zapyield-mainnet-beta0.1.7.sol\":4537:4538  0 */\n      0x00\n        /* \"contracts/zapyield-mainnet-beta0.1.7.sol\":4519:4523  user */\n      dup2\n        /* \"contracts/zapyield-mainnet-beta0.1.7.sol\":4519:4533  user.principal */\n      0x00\n      add\n      sload\n        /* \"contracts/zapyield-mainnet-beta0.1.7.sol\":4519:4538  user.principal == 0 */\n      sub\n        /* \"contracts/zapyield-mainnet-beta0.1.7.sol\":4515:4595  if (user.principal == 0) {... */\n      tag_102\n      jumpi\n        /* \"contracts/zapyield-mainnet-beta0.1.7.sol\":4571:4583  referrerAddr */\n      dup2\n        /* \"contracts/zapyield-mainnet-beta0.1.7.sol\":4555:4559  user */\n      dup2\n        /* \"contracts/zapyield-mainnet-beta0.1.7.sol\":4555:4568  user.referrer */\n      0x02\n      add\n      0x00\n        /* \"contracts/zapyield-mainnet-beta0.1.7.sol\":4555:4583  user.referrer = referrerAddr */\n      0x0100\n      exp\n      dup2\n      sload\n      dup2\n      0xffffffffffffffffffffffffffffffffffffffff\n      mul\n      not\n      and\n      swap1\n      dup4\n      0xffffffffffffffffffffffffffffffffffffffff\n      and\n      mul\n      or\n      swap1\n      sstore\n      pop\n        /* \"contracts/zapyield-mainnet-beta0.1.7.sol\":4515:4595  if (user.principal == 0) {... */\n    tag_102:\n        /* \"contracts/zapyield-mainnet-beta0.1.7.sol\":4623:4630  _amount */\n      dup4\n        /* \"contracts/zapyield-mainnet-beta0.1.7.sol\":4605:4609  user */\n      dup2\n        /* \"contracts/zapyield-mainnet-beta0.1.7.sol\":4605:4619  user.principal */\n      0x00\n      add\n      0x00\n        /* \"contracts/zapyield-mainnet-beta0.1.7.sol\":4605:4630  user.principal += _amount */\n      dup3\n      dup3\n      sload\n      tag_103\n      swap2\n      swap1\n      tag_104\n      jump\t// in\n    tag_103:\n      swap3\n      pop\n      pop\n      dup2\n      swap1\n      sstore\n      pop\n        /* \"contracts/zapyield-mainnet-beta0.1.7.sol\":4660:4675  block.timestamp */\n      timestamp\n        /* \"contracts/zapyield-mainnet-beta0.1.7.sol\":4641:4645  user */\n      dup2\n        /* \"contracts/zapyield-mainnet-beta0.1.7.sol\":4641:4657  user.depositTime */\n      0x01\n      add\n        /* \"contracts/zapyield-mainnet-beta0.1.7.sol\":4641:4675  user.depositTime = block.timestamp */\n      dup2\n      swap1\n      sstore\n      pop\n        /* \"contracts/zapyield-mainnet-beta0.1.7.sol\":4722:4784  usdcToken.safeTransferFrom(msg.sender, address(this), _amount) */\n      tag_105\n        /* \"contracts/zapyield-mainnet-beta0.1.7.sol\":4749:4759  msg.sender */\n      caller\n        /* \"contracts/zapyield-mainnet-beta0.1.7.sol\":4769:4773  this */\n      address\n        /* \"contracts/zapyield-mainnet-beta0.1.7.sol\":4776:4783  _amount */\n      dup7\n        /* \"contracts/zapyield-mainnet-beta0.1.7.sol\":4722:4731  usdcToken */\n      0x00\n      0x00\n      swap1\n      sload\n      swap1\n      0x0100\n      exp\n      swap1\n      div\n      0xffffffffffffffffffffffffffffffffffffffff\n      and\n        /* \"contracts/zapyield-mainnet-beta0.1.7.sol\":4722:4748  usdcToken.safeTransferFrom */\n      0xffffffffffffffffffffffffffffffffffffffff\n      and\n      tag_106\n      swap1\n        /* \"contracts/zapyield-mainnet-beta0.1.7.sol\":4722:4784  usdcToken.safeTransferFrom(msg.sender, address(this), _amount) */\n      swap4\n      swap3\n      swap2\n      swap1\n      0xffffffff\n      and\n      jump\t// in\n    tag_105:\n        /* \"contracts/zapyield-mainnet-beta0.1.7.sol\":4795:4850  usdcToken.forceApprove(address(moonwellVault), _amount) */\n      tag_107\n        /* \"contracts/zapyield-mainnet-beta0.1.7.sol\":4826:4839  moonwellVault */\n      0x01\n      0x00\n      swap1\n      sload\n      swap1\n      0x0100\n      exp\n      swap1\n      div\n      0xffffffffffffffffffffffffffffffffffffffff\n      and\n        /* \"contracts/zapyield-mainnet-beta0.1.7.sol\":4842:4849  _amount */\n      dup6\n        /* \"contracts/zapyield-mainnet-beta0.1.7.sol\":4795:4804  usdcToken */\n      0x00\n      0x00\n      swap1\n      sload\n      swap1\n      0x0100\n      exp\n      swap1\n      div\n      0xffffffffffffffffffffffffffffffffffffffff\n      and\n        /* \"contracts/zapyield-mainnet-beta0.1.7.sol\":4795:4817  usdcToken.forceApprove */\n      0xffffffffffffffffffffffffffffffffffffffff\n      and\n      tag_108\n      swap1\n        /* \"contracts/zapyield-mainnet-beta0.1.7.sol\":4795:4850  usdcToken.forceApprove(address(moonwellVault), _amount) */\n      swap3\n      swap2\n      swap1\n      0xffffffff\n      and\n      jump\t// in\n    tag_107:\n        /* \"contracts/zapyield-mainnet-beta0.1.7.sol\":4861:4874  moonwellVault */\n      0x01\n      0x00\n      swap1\n      sload\n      swap1\n      0x0100\n      exp\n      swap1\n      div\n      0xffffffffffffffffffffffffffffffffffffffff\n      and\n        /* \"contracts/zapyield-mainnet-beta0.1.7.sol\":4861:4882  moonwellVault.deposit */\n      0xffffffffffffffffffffffffffffffffffffffff\n      and\n      0x6e553f65\n        /* \"contracts/zapyield-mainnet-beta0.1.7.sol\":4883:4890  _amount */\n      dup6\n        /* \"contracts/zapyield-mainnet-beta0.1.7.sol\":4900:4904  this */\n      address\n        /* \"contracts/zapyield-mainnet-beta0.1.7.sol\":4861:4906  moonwellVault.deposit(_amount, address(this)) */\n      mload(0x40)\n      dup4\n      0xffffffff\n      and\n      0xe0\n      shl\n      dup2\n      mstore\n      0x04\n      add\n      tag_109\n      swap3\n      swap2\n      swap1\n      tag_110\n      jump\t// in\n    tag_109:\n      0x20\n      mload(0x40)\n      dup1\n      dup4\n      sub\n      dup2\n      0x00\n      dup8\n      gas\n      call\n      iszero\n      dup1\n      iszero\n      tag_112\n      jumpi\n      returndatacopy(0x00, 0x00, returndatasize)\n      revert(0x00, returndatasize)\n    tag_112:\n      pop\n      pop\n      pop\n      pop\n      mload(0x40)\n      returndatasize\n      not(0x1f)\n      0x1f\n      dup3\n      add\n      and\n      dup3\n      add\n      dup1\n      0x40\n      mstore\n      pop\n      dup2\n      add\n      swap1\n      tag_113\n      swap2\n      swap1\n      tag_114\n      jump\t// in\n    tag_113:\n      pop\n        /* \"contracts/zapyield-mainnet-beta0.1.7.sol\":4933:4943  msg.sender */\n      caller\n        /* \"contracts/zapyield-mainnet-beta0.1.7.sol\":4924:4968  ZappedIn(msg.sender, _amount, _referrerCode) */\n      0xffffffffffffffffffffffffffffffffffffffff\n      and\n      0x6a1db4f0607dd89cd0ee9ef3676c9521b6c9ce054afb4d659365a683e34030aa\n        /* \"contracts/zapyield-mainnet-beta0.1.7.sol\":4945:4952  _amount */\n      dup6\n        /* \"contracts/zapyield-mainnet-beta0.1.7.sol\":4954:4967  _referrerCode */\n      dup6\n        /* \"contracts/zapyield-mainnet-beta0.1.7.sol\":4924:4968  ZappedIn(msg.sender, _amount, _referrerCode) */\n      mload(0x40)\n      tag_115\n      swap3\n      swap2\n      swap1\n      tag_116\n      jump\t// in\n    tag_115:\n      mload(0x40)\n      dup1\n      swap2\n      sub\n      swap1\n      log2\n        /* \"contracts/zapyield-mainnet-beta0.1.7.sol\":4005:4976  {... */\n      pop\n      pop\n        /* \"@openzeppelin/contracts-upgradeable/utils/ReentrancyGuardUpgradeable.sol\":3437:3457  _nonReentrantAfter() */\n      tag_117\n        /* \"@openzeppelin/contracts-upgradeable/utils/ReentrancyGuardUpgradeable.sol\":3437:3455  _nonReentrantAfter */\n      tag_118\n        /* \"@openzeppelin/contracts-upgradeable/utils/ReentrancyGuardUpgradeable.sol\":3437:3457  _nonReentrantAfter() */\n      jump\t// in\n    tag_117:\n        /* \"contracts/zapyield-mainnet-beta0.1.7.sol\":3922:4976  function zapIn(uint256 _amount, string memory _referrerCode) external nonReentrant {... */\n      pop\n      pop\n      jump\t// out\n        /* \"contracts/zapyield-mainnet-beta0.1.7.sol\":1043:1077  IERC20Upgradeable public usdcToken */\n    tag_27:\n      0x00\n      0x00\n      swap1\n      sload\n      swap1\n      0x0100\n      exp\n      swap1\n      div\n      0xffffffffffffffffffffffffffffffffffffffff\n      and\n      dup2\n      jump\t// out\n        /* \"contracts/zapyield-mainnet-beta0.1.7.sol\":1635:1679  mapping(address => UserInfo) public userInfo */\n    tag_34:\n      mstore(0x20, 0x04)\n      dup1\n      0x00\n      mstore\n      keccak256(0x00, 0x40)\n      0x00\n      swap2\n      pop\n      swap1\n      pop\n      dup1\n      0x00\n      add\n      sload\n      swap1\n      dup1\n      0x01\n      add\n      sload\n      swap1\n      dup1\n      0x02\n      add\n      0x00\n      swap1\n      sload\n      swap1\n      0x0100\n      exp\n      swap1\n      div\n      0xffffffffffffffffffffffffffffffffffffffff\n      and\n      swap1\n      pop\n      dup4\n      jump\t// out\n        /* \"contracts/zapyield-mainnet-beta0.1.7.sol\":2598:3235  function createReferralCode() external {... */\n    tag_39:\n        /* \"contracts/zapyield-mainnet-beta0.1.7.sol\":2747:2748  0 */\n      0x00\n        /* \"contracts/zapyield-mainnet-beta0.1.7.sol\":2710:2723  addressToCode */\n      0x03\n        /* \"contracts/zapyield-mainnet-beta0.1.7.sol\":2710:2735  addressToCode[msg.sender] */\n      0x00\n        /* \"contracts/zapyield-mainnet-beta0.1.7.sol\":2724:2734  msg.sender */\n      caller\n        /* \"contracts/zapyield-mainnet-beta0.1.7.sol\":2710:2735  addressToCode[msg.sender] */\n      0xffffffffffffffffffffffffffffffffffffffff\n      and\n      0xffffffffffffffffffffffffffffffffffffffff\n      and\n      dup2\n      mstore\n      0x20\n      add\n      swap1\n      dup2\n      mstore\n      0x20\n      add\n      0x00\n      keccak256\n        /* \"contracts/zapyield-mainnet-beta0.1.7.sol\":2704:2743  bytes(addressToCode[msg.sender]).length */\n      dup1\n      sload\n      tag_120\n      swap1\n      tag_121\n      jump\t// in\n    tag_120:\n      swap1\n      pop\n        /* \"contracts/zapyield-mainnet-beta0.1.7.sol\":2704:2748  bytes(addressToCode[msg.sender]).length == 0 */\n      eq\n        /* \"contracts/zapyield-mainnet-beta0.1.7.sol\":2696:2784  require(bytes(addressToCode[msg.sender]).length == 0, \"ZapApy: You already have a code\") */\n      tag_122\n      jumpi\n      mload(0x40)\n      0x08c379a000000000000000000000000000000000000000000000000000000000\n      dup2\n      mstore\n      0x04\n      add\n      tag_123\n      swap1\n      tag_124\n      jump\t// in\n    tag_123:\n      mload(0x40)\n      dup1\n      swap2\n      sub\n      swap1\n      revert\n    tag_122:\n        /* \"contracts/zapyield-mainnet-beta0.1.7.sol\":2842:2863  string memory newCode */\n      0x00\n        /* \"contracts/zapyield-mainnet-beta0.1.7.sol\":2866:2889  _generateRandomString() */\n      tag_125\n        /* \"contracts/zapyield-mainnet-beta0.1.7.sol\":2866:2887  _generateRandomString */\n      tag_126\n        /* \"contracts/zapyield-mainnet-beta0.1.7.sol\":2866:2889  _generateRandomString() */\n      jump\t// in\n    tag_125:\n        /* \"contracts/zapyield-mainnet-beta0.1.7.sol\":2842:2889  string memory newCode = _generateRandomString() */\n      swap1\n      pop\n        /* \"contracts/zapyield-mainnet-beta0.1.7.sol\":3003:3004  0 */\n      0x00\n        /* \"contracts/zapyield-mainnet-beta0.1.7.sol\":2969:3005  codeToAddress[newCode] == address(0) */\n      0xffffffffffffffffffffffffffffffffffffffff\n      and\n        /* \"contracts/zapyield-mainnet-beta0.1.7.sol\":2969:2982  codeToAddress */\n      0x02\n        /* \"contracts/zapyield-mainnet-beta0.1.7.sol\":2983:2990  newCode */\n      dup3\n        /* \"contracts/zapyield-mainnet-beta0.1.7.sol\":2969:2991  codeToAddress[newCode] */\n      mload(0x40)\n      tag_127\n      swap2\n      swap1\n      tag_99\n      jump\t// in\n    tag_127:\n      swap1\n      dup2\n      mstore\n      0x20\n      add\n      mload(0x40)\n      dup1\n      swap2\n      sub\n      swap1\n      keccak256\n      0x00\n      swap1\n      sload\n      swap1\n      0x0100\n      exp\n      swap1\n      div\n      0xffffffffffffffffffffffffffffffffffffffff\n      and\n        /* \"contracts/zapyield-mainnet-beta0.1.7.sol\":2969:3005  codeToAddress[newCode] == address(0) */\n      0xffffffffffffffffffffffffffffffffffffffff\n      and\n      eq\n        /* \"contracts/zapyield-mainnet-beta0.1.7.sol\":2961:3043  require(codeToAddress[newCode] == address(0), \"ZapApy: Code collision, try again\") */\n      tag_128\n      jumpi\n      mload(0x40)\n      0x08c379a000000000000000000000000000000000000000000000000000000000\n      dup2\n      mstore\n      0x04\n      add\n      tag_129\n      swap1\n      tag_130\n      jump\t// in\n    tag_129:\n      mload(0x40)\n      dup1\n      swap2\n      sub\n      swap1\n      revert\n    tag_128:\n        /* \"contracts/zapyield-mainnet-beta0.1.7.sol\":3113:3123  msg.sender */\n      caller\n        /* \"contracts/zapyield-mainnet-beta0.1.7.sol\":3088:3101  codeToAddress */\n      0x02\n        /* \"contracts/zapyield-mainnet-beta0.1.7.sol\":3102:3109  newCode */\n      dup3\n        /* \"contracts/zapyield-mainnet-beta0.1.7.sol\":3088:3110  codeToAddress[newCode] */\n      mload(0x40)\n      tag_131\n      swap2\n      swap1\n      tag_99\n      jump\t// in\n    tag_131:\n      swap1\n      dup2\n      mstore\n      0x20\n      add\n      mload(0x40)\n      dup1\n      swap2\n      sub\n      swap1\n      keccak256\n      0x00\n        /* \"contracts/zapyield-mainnet-beta0.1.7.sol\":3088:3123  codeToAddress[newCode] = msg.sender */\n      0x0100\n      exp\n      dup2\n      sload\n      dup2\n      0xffffffffffffffffffffffffffffffffffffffff\n      mul\n      not\n      and\n      swap1\n      dup4\n      0xffffffffffffffffffffffffffffffffffffffff\n      and\n      mul\n      or\n      swap1\n      sstore\n      pop\n        /* \"contracts/zapyield-mainnet-beta0.1.7.sol\":3162:3169  newCode */\n      dup1\n        /* \"contracts/zapyield-mainnet-beta0.1.7.sol\":3134:3147  addressToCode */\n      0x03\n        /* \"contracts/zapyield-mainnet-beta0.1.7.sol\":3134:3159  addressToCode[msg.sender] */\n      0x00\n        /* \"contracts/zapyield-mainnet-beta0.1.7.sol\":3148:3158  msg.sender */\n      caller\n        /* \"contracts/zapyield-mainnet-beta0.1.7.sol\":3134:3159  addressToCode[msg.sender] */\n      0xffffffffffffffffffffffffffffffffffffffff\n      and\n      0xffffffffffffffffffffffffffffffffffffffff\n      and\n      dup2\n      mstore\n      0x20\n      add\n      swap1\n      dup2\n      mstore\n      0x20\n      add\n      0x00\n      keccak256\n        /* \"contracts/zapyield-mainnet-beta0.1.7.sol\":3134:3169  addressToCode[msg.sender] = newCode */\n      swap1\n      dup2\n      tag_132\n      swap2\n      swap1\n      tag_133\n      jump\t// in\n    tag_132:\n      pop\n        /* \"contracts/zapyield-mainnet-beta0.1.7.sol\":3207:3217  msg.sender */\n      caller\n        /* \"contracts/zapyield-mainnet-beta0.1.7.sol\":3187:3227  ReferralCodeCreated(msg.sender, newCode) */\n      0xffffffffffffffffffffffffffffffffffffffff\n      and\n      0xbbba1cab2093e26ee6b388fefb2109576871f9236f9c1f22779dad4b82093b7b\n        /* \"contracts/zapyield-mainnet-beta0.1.7.sol\":3219:3226  newCode */\n      dup3\n        /* \"contracts/zapyield-mainnet-beta0.1.7.sol\":3187:3227  ReferralCodeCreated(msg.sender, newCode) */\n      mload(0x40)\n      tag_134\n      swap2\n      swap1\n      tag_61\n      jump\t// in\n    tag_134:\n      mload(0x40)\n      dup1\n      swap2\n      sub\n      swap1\n      log2\n        /* \"contracts/zapyield-mainnet-beta0.1.7.sol\":2637:3235  {... */\n      pop\n        /* \"contracts/zapyield-mainnet-beta0.1.7.sol\":2598:3235  function createReferralCode() external {... */\n      jump\t// out\n        /* \"contracts/zapyield-mainnet-beta0.1.7.sol\":2019:2308  function initialize(address _usdc, address _vault) public initializer {... */\n    tag_44:\n        /* \"@openzeppelin/contracts-upgradeable/proxy/utils/Initializable.sol\":4158:4188  InitializableStorage storage $ */\n      0x00\n        /* \"@openzeppelin/contracts-upgradeable/proxy/utils/Initializable.sol\":4191:4217  _getInitializableStorage() */\n      tag_136\n        /* \"@openzeppelin/contracts-upgradeable/proxy/utils/Initializable.sol\":4191:4215  _getInitializableStorage */\n      tag_137\n        /* \"@openzeppelin/contracts-upgradeable/proxy/utils/Initializable.sol\":4191:4217  _getInitializableStorage() */\n      jump\t// in\n    tag_136:\n        /* \"@openzeppelin/contracts-upgradeable/proxy/utils/Initializable.sol\":4158:4217  InitializableStorage storage $ = _getInitializableStorage() */\n      swap1\n      pop\n        /* \"@openzeppelin/contracts-upgradeable/proxy/utils/Initializable.sol\":4279:4298  bool isTopLevelCall */\n      0x00\n        /* \"@openzeppelin/contracts-upgradeable/proxy/utils/Initializable.sol\":4302:4303  $ */\n      dup2\n        /* \"@openzeppelin/contracts-upgradeable/proxy/utils/Initializable.sol\":4302:4317  $._initializing */\n      0x00\n      add\n      0x08\n      swap1\n      sload\n      swap1\n      0x0100\n      exp\n      swap1\n      div\n      0xff\n      and\n        /* \"@openzeppelin/contracts-upgradeable/proxy/utils/Initializable.sol\":4301:4317  !$._initializing */\n      iszero\n        /* \"@openzeppelin/contracts-upgradeable/proxy/utils/Initializable.sol\":4279:4317  bool isTopLevelCall = !$._initializing */\n      swap1\n      pop\n        /* \"@openzeppelin/contracts-upgradeable/proxy/utils/Initializable.sol\":4327:4345  uint64 initialized */\n      0x00\n        /* \"@openzeppelin/contracts-upgradeable/proxy/utils/Initializable.sol\":4348:4349  $ */\n      dup3\n        /* \"@openzeppelin/contracts-upgradeable/proxy/utils/Initializable.sol\":4348:4362  $._initialized */\n      0x00\n      add\n      0x00\n      swap1\n      sload\n      swap1\n      0x0100\n      exp\n      swap1\n      div\n      0xffffffffffffffff\n      and\n        /* \"@openzeppelin/contracts-upgradeable/proxy/utils/Initializable.sol\":4327:4362  uint64 initialized = $._initialized */\n      swap1\n      pop\n        /* \"@openzeppelin/contracts-upgradeable/proxy/utils/Initializable.sol\":4704:4721  bool initialSetup */\n      0x00\n        /* \"@openzeppelin/contracts-upgradeable/proxy/utils/Initializable.sol\":4739:4740  0 */\n      0x00\n        /* \"@openzeppelin/contracts-upgradeable/proxy/utils/Initializable.sol\":4724:4735  initialized */\n      dup3\n        /* \"@openzeppelin/contracts-upgradeable/proxy/utils/Initializable.sol\":4724:4740  initialized == 0 */\n      0xffffffffffffffff\n      and\n      eq\n        /* \"@openzeppelin/contracts-upgradeable/proxy/utils/Initializable.sol\":4724:4758  initialized == 0 && isTopLevelCall */\n      dup1\n      iszero\n      tag_138\n      jumpi\n      pop\n        /* \"@openzeppelin/contracts-upgradeable/proxy/utils/Initializable.sol\":4744:4758  isTopLevelCall */\n      dup3\n        /* \"@openzeppelin/contracts-upgradeable/proxy/utils/Initializable.sol\":4724:4758  initialized == 0 && isTopLevelCall */\n    tag_138:\n        /* \"@openzeppelin/contracts-upgradeable/proxy/utils/Initializable.sol\":4704:4758  bool initialSetup = initialized == 0 && isTopLevelCall */\n      swap1\n      pop\n        /* \"@openzeppelin/contracts-upgradeable/proxy/utils/Initializable.sol\":4768:4785  bool construction */\n      0x00\n        /* \"@openzeppelin/contracts-upgradeable/proxy/utils/Initializable.sol\":4803:4804  1 */\n      0x01\n        /* \"@openzeppelin/contracts-upgradeable/proxy/utils/Initializable.sol\":4788:4799  initialized */\n      dup4\n        /* \"@openzeppelin/contracts-upgradeable/proxy/utils/Initializable.sol\":4788:4804  initialized == 1 */\n      0xffffffffffffffff\n      and\n      eq\n        /* \"@openzeppelin/contracts-upgradeable/proxy/utils/Initializable.sol\":4788:4838  initialized == 1 && address(this).code.length == 0 */\n      dup1\n      iszero\n      tag_139\n      jumpi\n      pop\n        /* \"@openzeppelin/contracts-upgradeable/proxy/utils/Initializable.sol\":4837:4838  0 */\n      0x00\n        /* \"@openzeppelin/contracts-upgradeable/proxy/utils/Initializable.sol\":4816:4820  this */\n      address\n        /* \"@openzeppelin/contracts-upgradeable/proxy/utils/Initializable.sol\":4808:4833  address(this).code.length */\n      0xffffffffffffffffffffffffffffffffffffffff\n      and\n      extcodesize\n        /* \"@openzeppelin/contracts-upgradeable/proxy/utils/Initializable.sol\":4808:4838  address(this).code.length == 0 */\n      eq\n        /* \"@openzeppelin/contracts-upgradeable/proxy/utils/Initializable.sol\":4788:4838  initialized == 1 && address(this).code.length == 0 */\n    tag_139:\n        /* \"@openzeppelin/contracts-upgradeable/proxy/utils/Initializable.sol\":4768:4838  bool construction = initialized == 1 && address(this).code.length == 0 */\n      swap1\n      pop\n        /* \"@openzeppelin/contracts-upgradeable/proxy/utils/Initializable.sol\":4854:4866  initialSetup */\n      dup2\n        /* \"@openzeppelin/contracts-upgradeable/proxy/utils/Initializable.sol\":4853:4866  !initialSetup */\n      iszero\n        /* \"@openzeppelin/contracts-upgradeable/proxy/utils/Initializable.sol\":4853:4883  !initialSetup && !construction */\n      dup1\n      iszero\n      tag_140\n      jumpi\n      pop\n        /* \"@openzeppelin/contracts-upgradeable/proxy/utils/Initializable.sol\":4871:4883  construction */\n      dup1\n        /* \"@openzeppelin/contracts-upgradeable/proxy/utils/Initializable.sol\":4870:4883  !construction */\n      iszero\n        /* \"@openzeppelin/contracts-upgradeable/proxy/utils/Initializable.sol\":4853:4883  !initialSetup && !construction */\n    tag_140:\n        /* \"@openzeppelin/contracts-upgradeable/proxy/utils/Initializable.sol\":4849:4940  if (!initialSetup && !construction) {... */\n      iszero\n      tag_141\n      jumpi\n        /* \"@openzeppelin/contracts-upgradeable/proxy/utils/Initializable.sol\":4906:4929  InvalidInitialization() */\n      mload(0x40)\n      0xf92ee8a900000000000000000000000000000000000000000000000000000000\n      dup2\n      mstore\n      0x04\n      add\n      mload(0x40)\n      dup1\n      swap2\n      sub\n      swap1\n      revert\n        /* \"@openzeppelin/contracts-upgradeable/proxy/utils/Initializable.sol\":4849:4940  if (!initialSetup && !construction) {... */\n    tag_141:\n        /* \"@openzeppelin/contracts-upgradeable/proxy/utils/Initializable.sol\":4966:4967  1 */\n      0x01\n        /* \"@openzeppelin/contracts-upgradeable/proxy/utils/Initializable.sol\":4949:4950  $ */\n      dup6\n        /* \"@openzeppelin/contracts-upgradeable/proxy/utils/Initializable.sol\":4949:4963  $._initialized */\n      0x00\n      add\n      0x00\n        /* \"@openzeppelin/contracts-upgradeable/proxy/utils/Initializable.sol\":4949:4967  $._initialized = 1 */\n      0x0100\n      exp\n      dup2\n      sload\n      dup2\n      0xffffffffffffffff\n      mul\n      not\n      and\n      swap1\n      dup4\n      0xffffffffffffffff\n      and\n      mul\n      or\n      swap1\n      sstore\n      pop\n        /* \"@openzeppelin/contracts-upgradeable/proxy/utils/Initializable.sol\":4981:4995  isTopLevelCall */\n      dup4\n        /* \"@openzeppelin/contracts-upgradeable/proxy/utils/Initializable.sol\":4977:5044  if (isTopLevelCall) {... */\n      iszero\n      tag_142\n      jumpi\n        /* \"@openzeppelin/contracts-upgradeable/proxy/utils/Initializable.sol\":5029:5033  true */\n      0x01\n        /* \"@openzeppelin/contracts-upgradeable/proxy/utils/Initializable.sol\":5011:5012  $ */\n      dup6\n        /* \"@openzeppelin/contracts-upgradeable/proxy/utils/Initializable.sol\":5011:5026  $._initializing */\n      0x00\n      add\n      0x08\n        /* \"@openzeppelin/contracts-upgradeable/proxy/utils/Initializable.sol\":5011:5033  $._initializing = true */\n      0x0100\n      exp\n      dup2\n      sload\n      dup2\n      0xff\n      mul\n      not\n      and\n      swap1\n      dup4\n      iszero\n      iszero\n      mul\n      or\n      swap1\n      sstore\n      pop\n        /* \"@openzeppelin/contracts-upgradeable/proxy/utils/Initializable.sol\":4977:5044  if (isTopLevelCall) {... */\n    tag_142:\n        /* \"contracts/zapyield-mainnet-beta0.1.7.sol\":2100:2126  __Ownable_init(msg.sender) */\n      tag_144\n        /* \"contracts/zapyield-mainnet-beta0.1.7.sol\":2115:2125  msg.sender */\n      caller\n        /* \"contracts/zapyield-mainnet-beta0.1.7.sol\":2100:2114  __Ownable_init */\n      tag_145\n        /* \"contracts/zapyield-mainnet-beta0.1.7.sol\":2100:2126  __Ownable_init(msg.sender) */\n      jump\t// in\n    tag_144:\n        /* \"contracts/zapyield-mainnet-beta0.1.7.sol\":2137:2161  __ReentrancyGuard_init() */\n      tag_146\n        /* \"contracts/zapyield-mainnet-beta0.1.7.sol\":2137:2159  __ReentrancyGuard_init */\n      tag_147\n        /* \"contracts/zapyield-mainnet-beta0.1.7.sol\":2137:2161  __ReentrancyGuard_init() */\n      jump\t// in\n    tag_146:\n        /* \"contracts/zapyield-mainnet-beta0.1.7.sol\":2172:2196  __UUPSUpgradeable_init() */\n      tag_148\n        /* \"contracts/zapyield-mainnet-beta0.1.7.sol\":2172:2194  __UUPSUpgradeable_init */\n      tag_149\n        /* \"contracts/zapyield-mainnet-beta0.1.7.sol\":2172:2196  __UUPSUpgradeable_init() */\n      jump\t// in\n    tag_148:\n        /* \"contracts/zapyield-mainnet-beta0.1.7.sol\":2247:2252  _usdc */\n      dup7\n        /* \"contracts/zapyield-mainnet-beta0.1.7.sol\":2217:2226  usdcToken */\n      0x00\n      0x00\n        /* \"contracts/zapyield-mainnet-beta0.1.7.sol\":2217:2253  usdcToken = IERC20Upgradeable(_usdc) */\n      0x0100\n      exp\n      dup2\n      sload\n      dup2\n      0xffffffffffffffffffffffffffffffffffffffff\n      mul\n      not\n      and\n      swap1\n      dup4\n      0xffffffffffffffffffffffffffffffffffffffff\n      and\n      mul\n      or\n      swap1\n      sstore\n      pop\n        /* \"contracts/zapyield-mainnet-beta0.1.7.sol\":2293:2299  _vault */\n      dup6\n        /* \"contracts/zapyield-mainnet-beta0.1.7.sol\":2264:2277  moonwellVault */\n      0x01\n      0x00\n        /* \"contracts/zapyield-mainnet-beta0.1.7.sol\":2264:2300  moonwellVault = IMorphoVault(_vault) */\n      0x0100\n      exp\n      dup2\n      sload\n      dup2\n      0xffffffffffffffffffffffffffffffffffffffff\n      mul\n      not\n      and\n      swap1\n      dup4\n      0xffffffffffffffffffffffffffffffffffffffff\n      and\n      mul\n      or\n      swap1\n      sstore\n      pop\n        /* \"@openzeppelin/contracts-upgradeable/proxy/utils/Initializable.sol\":5068:5082  isTopLevelCall */\n      dup4\n        /* \"@openzeppelin/contracts-upgradeable/proxy/utils/Initializable.sol\":5064:5165  if (isTopLevelCall) {... */\n      iszero\n      tag_150\n      jumpi\n        /* \"@openzeppelin/contracts-upgradeable/proxy/utils/Initializable.sol\":5116:5121  false */\n      0x00\n        /* \"@openzeppelin/contracts-upgradeable/proxy/utils/Initializable.sol\":5098:5099  $ */\n      dup6\n        /* \"@openzeppelin/contracts-upgradeable/proxy/utils/Initializable.sol\":5098:5113  $._initializing */\n      0x00\n      add\n      0x08\n        /* \"@openzeppelin/contracts-upgradeable/proxy/utils/Initializable.sol\":5098:5121  $._initializing = false */\n      0x0100\n      exp\n      dup2\n      sload\n      dup2\n      0xff\n      mul\n      not\n      and\n      swap1\n      dup4\n      iszero\n      iszero\n      mul\n      or\n      swap1\n      sstore\n      pop\n        /* \"@openzeppelin/contracts-upgradeable/proxy/utils/Initializable.sol\":5140:5154  Initialized(1) */\n      0xc7f505b2f371ae2175ee4913f4499e1f2633a7b5936321eed1cdaeb6115181d2\n        /* \"@openzeppelin/contracts-upgradeable/proxy/utils/Initializable.sol\":5152:5153  1 */\n      0x01\n        /* \"@openzeppelin/contracts-upgradeable/proxy/utils/Initializable.sol\":5140:5154  Initialized(1) */\n      mload(0x40)\n      tag_151\n      swap2\n      swap1\n      tag_152\n      jump\t// in\n    tag_151:\n      mload(0x40)\n      dup1\n      swap2\n      sub\n      swap1\n      log1\n        /* \"@openzeppelin/contracts-upgradeable/proxy/utils/Initializable.sol\":5064:5165  if (isTopLevelCall) {... */\n    tag_150:\n        /* \"@openzeppelin/contracts-upgradeable/proxy/utils/Initializable.sol\":4092:5171  {... */\n      pop\n      pop\n      pop\n      pop\n      pop\n        /* \"contracts/zapyield-mainnet-beta0.1.7.sol\":2019:2308  function initialize(address _usdc, address _vault) public initializer {... */\n      pop\n      pop\n      jump\t// out\n        /* \"@openzeppelin/contracts-upgradeable/proxy/utils/UUPSUpgradeable.sol\":4161:4375  function upgradeToAndCall(address newImplementation, bytes memory data) public payable virtual onlyProxy {... */\n    tag_48:\n        /* \"@openzeppelin/contracts-upgradeable/proxy/utils/UUPSUpgradeable.sol\":2655:2668  _checkProxy() */\n      tag_154\n        /* \"@openzeppelin/contracts-upgradeable/proxy/utils/UUPSUpgradeable.sol\":2655:2666  _checkProxy */\n      tag_155\n        /* \"@openzeppelin/contracts-upgradeable/proxy/utils/UUPSUpgradeable.sol\":2655:2668  _checkProxy() */\n      jump\t// in\n    tag_154:\n        /* \"@openzeppelin/contracts-upgradeable/proxy/utils/UUPSUpgradeable.sol\":4276:4312  _authorizeUpgrade(newImplementation) */\n      tag_157\n        /* \"@openzeppelin/contracts-upgradeable/proxy/utils/UUPSUpgradeable.sol\":4294:4311  newImplementation */\n      dup3\n        /* \"@openzeppelin/contracts-upgradeable/proxy/utils/UUPSUpgradeable.sol\":4276:4293  _authorizeUpgrade */\n      tag_158\n        /* \"@openzeppelin/contracts-upgradeable/proxy/utils/UUPSUpgradeable.sol\":4276:4312  _authorizeUpgrade(newImplementation) */\n      jump\t// in\n    tag_157:\n        /* \"@openzeppelin/contracts-upgradeable/proxy/utils/UUPSUpgradeable.sol\":4322:4368  _upgradeToAndCallUUPS(newImplementation, data) */\n      tag_159\n        /* \"@openzeppelin/contracts-upgradeable/proxy/utils/UUPSUpgradeable.sol\":4344:4361  newImplementation */\n      dup3\n        /* \"@openzeppelin/contracts-upgradeable/proxy/utils/UUPSUpgradeable.sol\":4363:4367  data */\n      dup3\n        /* \"@openzeppelin/contracts-upgradeable/proxy/utils/UUPSUpgradeable.sol\":4322:4343  _upgradeToAndCallUUPS */\n      tag_160\n        /* \"@openzeppelin/contracts-upgradeable/proxy/utils/UUPSUpgradeable.sol\":4322:4368  _upgradeToAndCallUUPS(newImplementation, data) */\n      jump\t// in\n    tag_159:\n        /* \"@openzeppelin/contracts-upgradeable/proxy/utils/UUPSUpgradeable.sol\":4161:4375  function upgradeToAndCall(address newImplementation, bytes memory data) public payable virtual onlyProxy {... */\n      pop\n      pop\n      jump\t// out\n        /* \"@openzeppelin/contracts-upgradeable/proxy/utils/UUPSUpgradeable.sol\":3708:3842  function proxiableUUID() external view virtual notDelegated returns (bytes32) {... */\n    tag_51:\n        /* \"@openzeppelin/contracts-upgradeable/proxy/utils/UUPSUpgradeable.sol\":3777:3784  bytes32 */\n      0x00\n        /* \"@openzeppelin/contracts-upgradeable/proxy/utils/UUPSUpgradeable.sol\":2926:2946  _checkNotDelegated() */\n      tag_162\n        /* \"@openzeppelin/contracts-upgradeable/proxy/utils/UUPSUpgradeable.sol\":2926:2944  _checkNotDelegated */\n      tag_163\n        /* \"@openzeppelin/contracts-upgradeable/proxy/utils/UUPSUpgradeable.sol\":2926:2946  _checkNotDelegated() */\n      jump\t// in\n    tag_162:\n        /* \"@openzeppelin/contracts/proxy/ERC1967/ERC1967Utils.sol\":811:877  0x360894a13ba1a3210667c828492db98dca3e2076cc3735a920a3ca505d382bbc */\n      0x360894a13ba1a3210667c828492db98dca3e2076cc3735a920a3ca505d382bbc\n        /* \"@openzeppelin/contracts-upgradeable/proxy/utils/UUPSUpgradeable.sol\":3803:3835  ERC1967Utils.IMPLEMENTATION_SLOT */\n      0x00\n      shl\n        /* \"@openzeppelin/contracts-upgradeable/proxy/utils/UUPSUpgradeable.sol\":3796:3835  return ERC1967Utils.IMPLEMENTATION_SLOT */\n      swap1\n      pop\n        /* \"@openzeppelin/contracts-upgradeable/proxy/utils/UUPSUpgradeable.sol\":3708:3842  function proxiableUUID() external view virtual notDelegated returns (bytes32) {... */\n      swap1\n      jump\t// out\n        /* \"@openzeppelin/contracts-upgradeable/access/OwnableUpgradeable.sol\":3155:3256  function renounceOwnership() public virtual onlyOwner {... */\n    tag_56:\n        /* \"@openzeppelin/contracts-upgradeable/access/OwnableUpgradeable.sol\":2334:2347  _checkOwner() */\n      tag_166\n        /* \"@openzeppelin/contracts-upgradeable/access/OwnableUpgradeable.sol\":2334:2345  _checkOwner */\n      tag_167\n        /* \"@openzeppelin/contracts-upgradeable/access/OwnableUpgradeable.sol\":2334:2347  _checkOwner() */\n      jump\t// in\n    tag_166:\n        /* \"@openzeppelin/contracts-upgradeable/access/OwnableUpgradeable.sol\":3219:3249  _transferOwnership(address(0)) */\n      tag_169\n        /* \"@openzeppelin/contracts-upgradeable/access/OwnableUpgradeable.sol\":3246:3247  0 */\n      0x00\n        /* \"@openzeppelin/contracts-upgradeable/access/OwnableUpgradeable.sol\":3219:3237  _transferOwnership */\n      tag_170\n        /* \"@openzeppelin/contracts-upgradeable/access/OwnableUpgradeable.sol\":3219:3249  _transferOwnership(address(0)) */\n      jump\t// in\n    tag_169:\n        /* \"@openzeppelin/contracts-upgradeable/access/OwnableUpgradeable.sol\":3155:3256  function renounceOwnership() public virtual onlyOwner {... */\n      jump\t// out\n        /* \"contracts/zapyield-mainnet-beta0.1.7.sol\":5032:5142  function getMyCode() external view returns (string memory) {... */\n    tag_59:\n        /* \"contracts/zapyield-mainnet-beta0.1.7.sol\":5076:5089  string memory */\n      0x60\n        /* \"contracts/zapyield-mainnet-beta0.1.7.sol\":5109:5122  addressToCode */\n      0x03\n        /* \"contracts/zapyield-mainnet-beta0.1.7.sol\":5109:5134  addressToCode[msg.sender] */\n      0x00\n        /* \"contracts/zapyield-mainnet-beta0.1.7.sol\":5123:5133  msg.sender */\n      caller\n        /* \"contracts/zapyield-mainnet-beta0.1.7.sol\":5109:5134  addressToCode[msg.sender] */\n      0xffffffffffffffffffffffffffffffffffffffff\n      and\n      0xffffffffffffffffffffffffffffffffffffffff\n      and\n      dup2\n      mstore\n      0x20\n      add\n      swap1\n      dup2\n      mstore\n      0x20\n      add\n      0x00\n      keccak256\n        /* \"contracts/zapyield-mainnet-beta0.1.7.sol\":5102:5134  return addressToCode[msg.sender] */\n      dup1\n      sload\n      tag_172\n      swap1\n      tag_121\n      jump\t// in\n    tag_172:\n      dup1\n      0x1f\n      add\n      0x20\n      dup1\n      swap2\n      div\n      mul\n      0x20\n      add\n      mload(0x40)\n      swap1\n      dup2\n      add\n      0x40\n      mstore\n      dup1\n      swap3\n      swap2\n      swap1\n      dup2\n      dup2\n      mstore\n      0x20\n      add\n      dup3\n      dup1\n      sload\n      tag_173\n      swap1\n      tag_121\n      jump\t// in\n    tag_173:\n      dup1\n      iszero\n      tag_174\n      jumpi\n      dup1\n      0x1f\n      lt\n      tag_175\n      jumpi\n      0x0100\n      dup1\n      dup4\n      sload\n      div\n      mul\n      dup4\n      mstore\n      swap2\n      0x20\n      add\n      swap2\n      jump(tag_174)\n    tag_175:\n      dup3\n      add\n      swap2\n      swap1\n      0x00\n      mstore\n      keccak256(0x00, 0x20)\n      swap1\n    tag_176:\n      dup2\n      sload\n      dup2\n      mstore\n      swap1\n      0x01\n      add\n      swap1\n      0x20\n      add\n      dup1\n      dup4\n      gt\n      tag_176\n      jumpi\n      dup3\n      swap1\n      sub\n      0x1f\n      and\n      dup3\n      add\n      swap2\n    tag_174:\n      pop\n      pop\n      pop\n      pop\n      pop\n      swap1\n      pop\n        /* \"contracts/zapyield-mainnet-beta0.1.7.sol\":5032:5142  function getMyCode() external view returns (string memory) {... */\n      swap1\n      jump\t// out\n        /* \"@openzeppelin/contracts-upgradeable/access/OwnableUpgradeable.sol\":2441:2585  function owner() public view virtual returns (address) {... */\n    tag_64:\n        /* \"@openzeppelin/contracts-upgradeable/access/OwnableUpgradeable.sol\":2487:2494  address */\n      0x00\n        /* \"@openzeppelin/contracts-upgradeable/access/OwnableUpgradeable.sol\":2506:2530  OwnableStorage storage $ */\n      0x00\n        /* \"@openzeppelin/contracts-upgradeable/access/OwnableUpgradeable.sol\":2533:2553  _getOwnableStorage() */\n      tag_178\n        /* \"@openzeppelin/contracts-upgradeable/access/OwnableUpgradeable.sol\":2533:2551  _getOwnableStorage */\n      tag_179\n        /* \"@openzeppelin/contracts-upgradeable/access/OwnableUpgradeable.sol\":2533:2553  _getOwnableStorage() */\n      jump\t// in\n    tag_178:\n        /* \"@openzeppelin/contracts-upgradeable/access/OwnableUpgradeable.sol\":2506:2553  OwnableStorage storage $ = _getOwnableStorage() */\n      swap1\n      pop\n        /* \"@openzeppelin/contracts-upgradeable/access/OwnableUpgradeable.sol\":2570:2571  $ */\n      dup1\n        /* \"@openzeppelin/contracts-upgradeable/access/OwnableUpgradeable.sol\":2570:2578  $._owner */\n      0x00\n      add\n      0x00\n      swap1\n      sload\n      swap1\n      0x0100\n      exp\n      swap1\n      div\n      0xffffffffffffffffffffffffffffffffffffffff\n      and\n        /* \"@openzeppelin/contracts-upgradeable/access/OwnableUpgradeable.sol\":2563:2578  return $._owner */\n      swap2\n      pop\n      pop\n        /* \"@openzeppelin/contracts-upgradeable/access/OwnableUpgradeable.sol\":2441:2585  function owner() public view virtual returns (address) {... */\n      swap1\n      jump\t// out\n        /* \"contracts/zapyield-mainnet-beta0.1.7.sol\":1084:1117  IMorphoVault public moonwellVault */\n    tag_69:\n      0x01\n      0x00\n      swap1\n      sload\n      swap1\n      0x0100\n      exp\n      swap1\n      div\n      0xffffffffffffffffffffffffffffffffffffffff\n      and\n      dup2\n      jump\t// out\n        /* \"contracts/zapyield-mainnet-beta0.1.7.sol\":1220:1267  mapping(string => address) public codeToAddress */\n    tag_76:\n      0x02\n      dup2\n      dup1\n      mload\n      0x20\n      dup2\n      add\n      dup3\n      add\n      dup1\n      mload\n      dup5\n      dup3\n      mstore\n      0x20\n      dup4\n      add\n      0x20\n      dup6\n      add\n      keccak256\n      dup2\n      dup4\n      mstore\n      dup1\n      swap6\n      pop\n      pop\n      pop\n      pop\n      pop\n      pop\n      0x00\n      swap2\n      pop\n      sload\n      swap1\n      0x0100\n      exp\n      swap1\n      div\n      0xffffffffffffffffffffffffffffffffffffffff\n      and\n      dup2\n      jump\t// out\n        /* \"@openzeppelin/contracts-upgradeable/proxy/utils/UUPSUpgradeable.sol\":1819:1877  string public constant UPGRADE_INTERFACE_VERSION = \"5.0.0\" */\n    tag_80:\n      mload(0x40)\n      dup1\n      0x40\n      add\n      0x40\n      mstore\n      dup1\n      0x05\n      dup2\n      mstore\n      0x20\n      add\n      0x352e302e30000000000000000000000000000000000000000000000000000000\n      dup2\n      mstore\n      pop\n      dup2\n      jump\t// out\n        /* \"contracts/zapyield-mainnet-beta0.1.7.sol\":1326:1373  mapping(address => string) public addressToCode */\n    tag_85:\n      mstore(0x20, 0x03)\n      dup1\n      0x00\n      mstore\n      keccak256(0x00, 0x40)\n      0x00\n      swap2\n      pop\n      swap1\n      pop\n      dup1\n      sload\n      tag_180\n      swap1\n      tag_121\n      jump\t// in\n    tag_180:\n      dup1\n      0x1f\n      add\n      0x20\n      dup1\n      swap2\n      div\n      mul\n      0x20\n      add\n      mload(0x40)\n      swap1\n      dup2\n      add\n      0x40\n      mstore\n      dup1\n      swap3\n      swap2\n      swap1\n      dup2\n      dup2\n      mstore\n      0x20\n      add\n      dup3\n      dup1\n      sload\n      tag_181\n      swap1\n      tag_121\n      jump\t// in\n    tag_181:\n      dup1\n      iszero\n      tag_182\n      jumpi\n      dup1\n      0x1f\n      lt\n      tag_183\n      jumpi\n      0x0100\n      dup1\n      dup4\n      sload\n      div\n      mul\n      dup4\n      mstore\n      swap2\n      0x20\n      add\n      swap2\n      jump(tag_182)\n    tag_183:\n      dup3\n      add\n      swap2\n      swap1\n      0x00\n      mstore\n      keccak256(0x00, 0x20)\n      swap1\n    tag_184:\n      dup2\n      sload\n      dup2\n      mstore\n      swap1\n      0x01\n      add\n      swap1\n      0x20\n      add\n      dup1\n      dup4\n      gt\n      tag_184\n      jumpi\n      dup3\n      swap1\n      sub\n      0x1f\n      and\n      dup3\n      add\n      swap2\n    tag_182:\n      pop\n      pop\n      pop\n      pop\n      pop\n      dup2\n      jump\t// out\n        /* \"@openzeppelin/contracts-upgradeable/access/OwnableUpgradeable.sol\":3405:3620  function transferOwnership(address newOwner) public virtual onlyOwner {... */\n    tag_90:\n        /* \"@openzeppelin/contracts-upgradeable/access/OwnableUpgradeable.sol\":2334:2347  _checkOwner() */\n      tag_186\n        /* \"@openzeppelin/contracts-upgradeable/access/OwnableUpgradeable.sol\":2334:2345  _checkOwner */\n      tag_167\n        /* \"@openzeppelin/contracts-upgradeable/access/OwnableUpgradeable.sol\":2334:2347  _checkOwner() */\n      jump\t// in\n    tag_186:\n        /* \"@openzeppelin/contracts-upgradeable/access/OwnableUpgradeable.sol\":3509:3510  0 */\n      0x00\n        /* \"@openzeppelin/contracts-upgradeable/access/OwnableUpgradeable.sol\":3489:3511  newOwner == address(0) */\n      0xffffffffffffffffffffffffffffffffffffffff\n      and\n        /* \"@openzeppelin/contracts-upgradeable/access/OwnableUpgradeable.sol\":3489:3497  newOwner */\n      dup2\n        /* \"@openzeppelin/contracts-upgradeable/access/OwnableUpgradeable.sol\":3489:3511  newOwner == address(0) */\n      0xffffffffffffffffffffffffffffffffffffffff\n      and\n      sub\n        /* \"@openzeppelin/contracts-upgradeable/access/OwnableUpgradeable.sol\":3485:3576  if (newOwner == address(0)) {... */\n      tag_188\n      jumpi\n        /* \"@openzeppelin/contracts-upgradeable/access/OwnableUpgradeable.sol\":3562:3563  0 */\n      0x00\n        /* \"@openzeppelin/contracts-upgradeable/access/OwnableUpgradeable.sol\":3534:3565  OwnableInvalidOwner(address(0)) */\n      mload(0x40)\n      0x1e4fbdf700000000000000000000000000000000000000000000000000000000\n      dup2\n      mstore\n      0x04\n      add\n      tag_189\n      swap2\n      swap1\n      tag_66\n      jump\t// in\n    tag_189:\n      mload(0x40)\n      dup1\n      swap2\n      sub\n      swap1\n      revert\n        /* \"@openzeppelin/contracts-upgradeable/access/OwnableUpgradeable.sol\":3485:3576  if (newOwner == address(0)) {... */\n    tag_188:\n        /* \"@openzeppelin/contracts-upgradeable/access/OwnableUpgradeable.sol\":3585:3613  _transferOwnership(newOwner) */\n      tag_190\n        /* \"@openzeppelin/contracts-upgradeable/access/OwnableUpgradeable.sol\":3604:3612  newOwner */\n      dup2\n        /* \"@openzeppelin/contracts-upgradeable/access/OwnableUpgradeable.sol\":3585:3603  _transferOwnership */\n      tag_170\n        /* \"@openzeppelin/contracts-upgradeable/access/OwnableUpgradeable.sol\":3585:3613  _transferOwnership(newOwner) */\n      jump\t// in\n    tag_190:\n        /* \"@openzeppelin/contracts-upgradeable/access/OwnableUpgradeable.sol\":3405:3620  function transferOwnership(address newOwner) public virtual onlyOwner {... */\n      pop\n      jump\t// out\n        /* \"@openzeppelin/contracts-upgradeable/utils/ReentrancyGuardUpgradeable.sol\":3470:3854  function _nonReentrantBefore() private {... */\n    tag_93:\n        /* \"@openzeppelin/contracts-upgradeable/utils/ReentrancyGuardUpgradeable.sol\":3519:3551  ReentrancyGuardStorage storage $ */\n      0x00\n        /* \"@openzeppelin/contracts-upgradeable/utils/ReentrancyGuardUpgradeable.sol\":3554:3582  _getReentrancyGuardStorage() */\n      tag_192\n        /* \"@openzeppelin/contracts-upgradeable/utils/ReentrancyGuardUpgradeable.sol\":3554:3580  _getReentrancyGuardStorage */\n      tag_193\n        /* \"@openzeppelin/contracts-upgradeable/utils/ReentrancyGuardUpgradeable.sol\":3554:3582  _getReentrancyGuardStorage() */\n      jump\t// in\n    tag_192:\n        /* \"@openzeppelin/contracts-upgradeable/utils/ReentrancyGuardUpgradeable.sol\":3519:3582  ReentrancyGuardStorage storage $ = _getReentrancyGuardStorage() */\n      swap1\n      pop\n        /* \"@openzeppelin/contracts-upgradeable/utils/ReentrancyGuardUpgradeable.sol\":1991:1992  2 */\n      0x02\n        /* \"@openzeppelin/contracts-upgradeable/utils/ReentrancyGuardUpgradeable.sol\":3670:3671  $ */\n      dup2\n        /* \"@openzeppelin/contracts-upgradeable/utils/ReentrancyGuardUpgradeable.sol\":3670:3679  $._status */\n      0x00\n      add\n      sload\n        /* \"@openzeppelin/contracts-upgradeable/utils/ReentrancyGuardUpgradeable.sol\":3670:3690  $._status == ENTERED */\n      sub\n        /* \"@openzeppelin/contracts-upgradeable/utils/ReentrancyGuardUpgradeable.sol\":3666:3754  if ($._status == ENTERED) {... */\n      tag_194\n      jumpi\n        /* \"@openzeppelin/contracts-upgradeable/utils/ReentrancyGuardUpgradeable.sol\":3713:3743  ReentrancyGuardReentrantCall() */\n      mload(0x40)\n      0x3ee5aeb500000000000000000000000000000000000000000000000000000000\n      dup2\n      mstore\n      0x04\n      add\n      mload(0x40)\n      dup1\n      swap2\n      sub\n      swap1\n      revert\n        /* \"@openzeppelin/contracts-upgradeable/utils/ReentrancyGuardUpgradeable.sol\":3666:3754  if ($._status == ENTERED) {... */\n    tag_194:\n        /* \"@openzeppelin/contracts-upgradeable/utils/ReentrancyGuardUpgradeable.sol\":1991:1992  2 */\n      0x02\n        /* \"@openzeppelin/contracts-upgradeable/utils/ReentrancyGuardUpgradeable.sol\":3828:3829  $ */\n      dup2\n        /* \"@openzeppelin/contracts-upgradeable/utils/ReentrancyGuardUpgradeable.sol\":3828:3837  $._status */\n      0x00\n      add\n        /* \"@openzeppelin/contracts-upgradeable/utils/ReentrancyGuardUpgradeable.sol\":3828:3847  $._status = ENTERED */\n      dup2\n      swap1\n      sstore\n      pop\n        /* \"@openzeppelin/contracts-upgradeable/utils/ReentrancyGuardUpgradeable.sol\":3509:3854  {... */\n      pop\n        /* \"@openzeppelin/contracts-upgradeable/utils/ReentrancyGuardUpgradeable.sol\":3470:3854  function _nonReentrantBefore() private {... */\n      jump\t// out\n        /* \"@openzeppelin/contracts-upgradeable/token/ERC20/utils/SafeERC20Upgradeable.sol\":1421:1635  function safeTransferFrom(IERC20Upgradeable token, address from, address to, uint256 value) internal {... */\n    tag_106:\n        /* \"@openzeppelin/contracts-upgradeable/token/ERC20/utils/SafeERC20Upgradeable.sol\":1532:1628  _callOptionalReturn(token, abi.encodeWithSelector(token.transferFrom.selector, from, to, value)) */\n      tag_196\n        /* \"@openzeppelin/contracts-upgradeable/token/ERC20/utils/SafeERC20Upgradeable.sol\":1552:1557  token */\n      dup5\n        /* \"@openzeppelin/contracts-upgradeable/token/ERC20/utils/SafeERC20Upgradeable.sol\":1582:1609  token.transferFrom.selector */\n      shl(0xe0, 0x23b872dd)\n        /* \"@openzeppelin/contracts-upgradeable/token/ERC20/utils/SafeERC20Upgradeable.sol\":1611:1615  from */\n      dup6\n        /* \"@openzeppelin/contracts-upgradeable/token/ERC20/utils/SafeERC20Upgradeable.sol\":1617:1619  to */\n      dup6\n        /* \"@openzeppelin/contracts-upgradeable/token/ERC20/utils/SafeERC20Upgradeable.sol\":1621:1626  value */\n      dup6\n        /* \"@openzeppelin/contracts-upgradeable/token/ERC20/utils/SafeERC20Upgradeable.sol\":1559:1627  abi.encodeWithSelector(token.transferFrom.selector, from, to, value) */\n      add(0x24, mload(0x40))\n      tag_197\n      swap4\n      swap3\n      swap2\n      swap1\n      tag_198\n      jump\t// in\n    tag_197:\n      mload(0x40)\n      0x20\n      dup2\n      dup4\n      sub\n      sub\n      dup2\n      mstore\n      swap1\n      0x40\n      mstore\n      swap1\n      not(0xffffffffffffffffffffffffffffffffffffffffffffffffffffffff)\n      and\n      0x20\n      dup3\n      add\n      dup1\n      mload\n      0xffffffffffffffffffffffffffffffffffffffffffffffffffffffff\n      dup4\n      dup2\n      dup4\n      and\n      or\n      dup4\n      mstore\n      pop\n      pop\n      pop\n      pop\n        /* \"@openzeppelin/contracts-upgradeable/token/ERC20/utils/SafeERC20Upgradeable.sol\":1532:1551  _callOptionalReturn */\n      tag_199\n        /* \"@openzeppelin/contracts-upgradeable/token/ERC20/utils/SafeERC20Upgradeable.sol\":1532:1628  _callOptionalReturn(token, abi.encodeWithSelector(token.transferFrom.selector, from, to, value)) */\n      jump\t// in\n    tag_196:\n        /* \"@openzeppelin/contracts-upgradeable/token/ERC20/utils/SafeERC20Upgradeable.sol\":1421:1635  function safeTransferFrom(IERC20Upgradeable token, address from, address to, uint256 value) internal {... */\n      pop\n      pop\n      pop\n      pop\n      jump\t// out\n        /* \"@openzeppelin/contracts-upgradeable/token/ERC20/utils/SafeERC20Upgradeable.sol\":3889:4310  function forceApprove(IERC20Upgradeable token, address spender, uint256 value) internal {... */\n    tag_108:\n        /* \"@openzeppelin/contracts-upgradeable/token/ERC20/utils/SafeERC20Upgradeable.sol\":3987:4012  bytes memory approvalCall */\n      0x00\n        /* \"@openzeppelin/contracts-upgradeable/token/ERC20/utils/SafeERC20Upgradeable.sol\":4038:4060  token.approve.selector */\n      shl(0xe0, 0x095ea7b3)\n        /* \"@openzeppelin/contracts-upgradeable/token/ERC20/utils/SafeERC20Upgradeable.sol\":4062:4069  spender */\n      dup4\n        /* \"@openzeppelin/contracts-upgradeable/token/ERC20/utils/SafeERC20Upgradeable.sol\":4071:4076  value */\n      dup4\n        /* \"@openzeppelin/contracts-upgradeable/token/ERC20/utils/SafeERC20Upgradeable.sol\":4015:4077  abi.encodeWithSelector(token.approve.selector, spender, value) */\n      add(0x24, mload(0x40))\n      tag_201\n      swap3\n      swap2\n      swap1\n      tag_202\n      jump\t// in\n    tag_201:\n      mload(0x40)\n      0x20\n      dup2\n      dup4\n      sub\n      sub\n      dup2\n      mstore\n      swap1\n      0x40\n      mstore\n      swap1\n      not(0xffffffffffffffffffffffffffffffffffffffffffffffffffffffff)\n      and\n      0x20\n      dup3\n      add\n      dup1\n      mload\n      0xffffffffffffffffffffffffffffffffffffffffffffffffffffffff\n      dup4\n      dup2\n      dup4\n      and\n      or\n      dup4\n      mstore\n      pop\n      pop\n      pop\n      pop\n        /* \"@openzeppelin/contracts-upgradeable/token/ERC20/utils/SafeERC20Upgradeable.sol\":3987:4077  bytes memory approvalCall = abi.encodeWithSelector(token.approve.selector, spender, value) */\n      swap1\n      pop\n        /* \"@openzeppelin/contracts-upgradeable/token/ERC20/utils/SafeERC20Upgradeable.sol\":4093:4137  _callOptionalReturnBool(token, approvalCall) */\n      tag_203\n        /* \"@openzeppelin/contracts-upgradeable/token/ERC20/utils/SafeERC20Upgradeable.sol\":4117:4122  token */\n      dup5\n        /* \"@openzeppelin/contracts-upgradeable/token/ERC20/utils/SafeERC20Upgradeable.sol\":4124:4136  approvalCall */\n      dup3\n        /* \"@openzeppelin/contracts-upgradeable/token/ERC20/utils/SafeERC20Upgradeable.sol\":4093:4116  _callOptionalReturnBool */\n      tag_204\n        /* \"@openzeppelin/contracts-upgradeable/token/ERC20/utils/SafeERC20Upgradeable.sol\":4093:4137  _callOptionalReturnBool(token, approvalCall) */\n      jump\t// in\n    tag_203:\n        /* \"@openzeppelin/contracts-upgradeable/token/ERC20/utils/SafeERC20Upgradeable.sol\":4088:4304  if (!_callOptionalReturnBool(token, approvalCall)) {... */\n      tag_205\n      jumpi\n        /* \"@openzeppelin/contracts-upgradeable/token/ERC20/utils/SafeERC20Upgradeable.sol\":4153:4239  _callOptionalReturn(token, abi.encodeWithSelector(token.approve.selector, spender, 0)) */\n      tag_206\n        /* \"@openzeppelin/contracts-upgradeable/token/ERC20/utils/SafeERC20Upgradeable.sol\":4173:4178  token */\n      dup5\n        /* \"@openzeppelin/contracts-upgradeable/token/ERC20/utils/SafeERC20Upgradeable.sol\":4203:4225  token.approve.selector */\n      shl(0xe0, 0x095ea7b3)\n        /* \"@openzeppelin/contracts-upgradeable/token/ERC20/utils/SafeERC20Upgradeable.sol\":4227:4234  spender */\n      dup6\n        /* \"@openzeppelin/contracts-upgradeable/token/ERC20/utils/SafeERC20Upgradeable.sol\":4236:4237  0 */\n      0x00\n        /* \"@openzeppelin/contracts-upgradeable/token/ERC20/utils/SafeERC20Upgradeable.sol\":4180:4238  abi.encodeWithSelector(token.approve.selector, spender, 0) */\n      add(0x24, mload(0x40))\n      tag_207\n      swap3\n      swap2\n      swap1\n      tag_208\n      jump\t// in\n    tag_207:\n      mload(0x40)\n      0x20\n      dup2\n      dup4\n      sub\n      sub\n      dup2\n      mstore\n      swap1\n      0x40\n      mstore\n      swap1\n      not(0xffffffffffffffffffffffffffffffffffffffffffffffffffffffff)\n      and\n      0x20\n      dup3\n      add\n      dup1\n      mload\n      0xffffffffffffffffffffffffffffffffffffffffffffffffffffffff\n      dup4\n      dup2\n      dup4\n      and\n      or\n      dup4\n      mstore\n      pop\n      pop\n      pop\n      pop\n        /* \"@openzeppelin/contracts-upgradeable/token/ERC20/utils/SafeERC20Upgradeable.sol\":4153:4172  _callOptionalReturn */\n      tag_199\n        /* \"@openzeppelin/contracts-upgradeable/token/ERC20/utils/SafeERC20Upgradeable.sol\":4153:4239  _callOptionalReturn(token, abi.encodeWithSelector(token.approve.selector, spender, 0)) */\n      jump\t// in\n    tag_206:\n        /* \"@openzeppelin/contracts-upgradeable/token/ERC20/utils/SafeERC20Upgradeable.sol\":4253:4293  _callOptionalReturn(token, approvalCall) */\n      tag_209\n        /* \"@openzeppelin/contracts-upgradeable/token/ERC20/utils/SafeERC20Upgradeable.sol\":4273:4278  token */\n      dup5\n        /* \"@openzeppelin/contracts-upgradeable/token/ERC20/utils/SafeERC20Upgradeable.sol\":4280:4292  approvalCall */\n      dup3\n        /* \"@openzeppelin/contracts-upgradeable/token/ERC20/utils/SafeERC20Upgradeable.sol\":4253:4272  _callOptionalReturn */\n      tag_199\n        /* \"@openzeppelin/contracts-upgradeable/token/ERC20/utils/SafeERC20Upgradeable.sol\":4253:4293  _callOptionalReturn(token, approvalCall) */\n      jump\t// in\n    tag_209:\n        /* \"@openzeppelin/contracts-upgradeable/token/ERC20/utils/SafeERC20Upgradeable.sol\":4088:4304  if (!_callOptionalReturnBool(token, approvalCall)) {... */\n    tag_205:\n        /* \"@openzeppelin/contracts-upgradeable/token/ERC20/utils/SafeERC20Upgradeable.sol\":3977:4310  {... */\n      pop\n        /* \"@openzeppelin/contracts-upgradeable/token/ERC20/utils/SafeERC20Upgradeable.sol\":3889:4310  function forceApprove(IERC20Upgradeable token, address spender, uint256 value) internal {... */\n      pop\n      pop\n      pop\n      jump\t// out\n        /* \"@openzeppelin/contracts-upgradeable/utils/ReentrancyGuardUpgradeable.sol\":3860:4143  function _nonReentrantAfter() private {... */\n    tag_118:\n        /* \"@openzeppelin/contracts-upgradeable/utils/ReentrancyGuardUpgradeable.sol\":3908:3940  ReentrancyGuardStorage storage $ */\n      0x00\n        /* \"@openzeppelin/contracts-upgradeable/utils/ReentrancyGuardUpgradeable.sol\":3943:3971  _getReentrancyGuardStorage() */\n      tag_211\n        /* \"@openzeppelin/contracts-upgradeable/utils/ReentrancyGuardUpgradeable.sol\":3943:3969  _getReentrancyGuardStorage */\n      tag_193\n        /* \"@openzeppelin/contracts-upgradeable/utils/ReentrancyGuardUpgradeable.sol\":3943:3971  _getReentrancyGuardStorage() */\n      jump\t// in\n    tag_211:\n        /* \"@openzeppelin/contracts-upgradeable/utils/ReentrancyGuardUpgradeable.sol\":3908:3971  ReentrancyGuardStorage storage $ = _getReentrancyGuardStorage() */\n      swap1\n      pop\n        /* \"@openzeppelin/contracts-upgradeable/utils/ReentrancyGuardUpgradeable.sol\":1949:1950  1 */\n      0x01\n        /* \"@openzeppelin/contracts-upgradeable/utils/ReentrancyGuardUpgradeable.sol\":4113:4114  $ */\n      dup2\n        /* \"@openzeppelin/contracts-upgradeable/utils/ReentrancyGuardUpgradeable.sol\":4113:4122  $._status */\n      0x00\n      add\n        /* \"@openzeppelin/contracts-upgradeable/utils/ReentrancyGuardUpgradeable.sol\":4113:4136  $._status = NOT_ENTERED */\n      dup2\n      swap1\n      sstore\n      pop\n        /* \"@openzeppelin/contracts-upgradeable/utils/ReentrancyGuardUpgradeable.sol\":3898:4143  {... */\n      pop\n        /* \"@openzeppelin/contracts-upgradeable/utils/ReentrancyGuardUpgradeable.sol\":3860:4143  function _nonReentrantAfter() private {... */\n      jump\t// out\n        /* \"contracts/zapyield-mainnet-beta0.1.7.sol\":3287:3763  function _generateRandomString() internal view returns (string memory) {... */\n    tag_126:\n        /* \"contracts/zapyield-mainnet-beta0.1.7.sol\":3343:3356  string memory */\n      0x60\n        /* \"contracts/zapyield-mainnet-beta0.1.7.sol\":3369:3386  bytes memory code */\n      0x00\n        /* \"contracts/zapyield-mainnet-beta0.1.7.sol\":3399:3400  7 */\n      0x07\n        /* \"contracts/zapyield-mainnet-beta0.1.7.sol\":3389:3401  new bytes(7) */\n      0xffffffffffffffff\n      dup2\n      gt\n      iszero\n      tag_213\n      jumpi\n      tag_214\n      tag_215\n      jump\t// in\n    tag_214:\n    tag_213:\n      mload(0x40)\n      swap1\n      dup1\n      dup3\n      mstore\n      dup1\n      0x1f\n      add\n      not(0x1f)\n      and\n      0x20\n      add\n      dup3\n      add\n      0x40\n      mstore\n      dup1\n      iszero\n      tag_216\n      jumpi\n      dup2\n      0x20\n      add\n      0x01\n      dup3\n      mul\n      dup1\n      calldatasize\n      dup4\n      calldatacopy\n      dup1\n      dup3\n      add\n      swap2\n      pop\n      pop\n      swap1\n      pop\n    tag_216:\n      pop\n        /* \"contracts/zapyield-mainnet-beta0.1.7.sol\":3369:3401  bytes memory code = new bytes(7) */\n      swap1\n      pop\n        /* \"contracts/zapyield-mainnet-beta0.1.7.sol\":3479:3497  uint256 randomness */\n      0x00\n        /* \"contracts/zapyield-mainnet-beta0.1.7.sol\":3535:3545  msg.sender */\n      caller\n        /* \"contracts/zapyield-mainnet-beta0.1.7.sol\":3547:3562  block.timestamp */\n      timestamp\n        /* \"contracts/zapyield-mainnet-beta0.1.7.sol\":3564:3580  block.prevrandao */\n      prevrandao\n        /* \"contracts/zapyield-mainnet-beta0.1.7.sol\":3518:3581  abi.encodePacked(msg.sender, block.timestamp, block.prevrandao) */\n      add(0x20, mload(0x40))\n      tag_217\n      swap4\n      swap3\n      swap2\n      swap1\n      tag_218\n      jump\t// in\n    tag_217:\n      mload(0x40)\n      0x20\n      dup2\n      dup4\n      sub\n      sub\n      dup2\n      mstore\n      swap1\n      0x40\n      mstore\n        /* \"contracts/zapyield-mainnet-beta0.1.7.sol\":3508:3582  keccak256(abi.encodePacked(msg.sender, block.timestamp, block.prevrandao)) */\n      dup1\n      mload\n      swap1\n      0x20\n      add\n      keccak256\n        /* \"contracts/zapyield-mainnet-beta0.1.7.sol\":3500:3583  uint256(keccak256(abi.encodePacked(msg.sender, block.timestamp, block.prevrandao))) */\n      0x00\n      shr\n        /* \"contracts/zapyield-mainnet-beta0.1.7.sol\":3479:3583  uint256 randomness = uint256(keccak256(abi.encodePacked(msg.sender, block.timestamp, block.prevrandao))) */\n      swap1\n      pop\n        /* \"contracts/zapyield-mainnet-beta0.1.7.sol\":3609:3615  uint i */\n      0x00\n        /* \"contracts/zapyield-mainnet-beta0.1.7.sol\":3618:3619  0 */\n      0x00\n        /* \"contracts/zapyield-mainnet-beta0.1.7.sol\":3609:3619  uint i = 0 */\n      swap1\n      pop\n        /* \"contracts/zapyield-mainnet-beta0.1.7.sol\":3604:3726  for (uint i = 0; i < 7; i++) {... */\n    tag_219:\n        /* \"contracts/zapyield-mainnet-beta0.1.7.sol\":3625:3626  7 */\n      0x07\n        /* \"contracts/zapyield-mainnet-beta0.1.7.sol\":3621:3622  i */\n      dup2\n        /* \"contracts/zapyield-mainnet-beta0.1.7.sol\":3621:3626  i < 7 */\n      lt\n        /* \"contracts/zapyield-mainnet-beta0.1.7.sol\":3604:3726  for (uint i = 0; i < 7; i++) {... */\n      iszero\n      tag_220\n      jumpi\n        /* \"contracts/zapyield-mainnet-beta0.1.7.sol\":3658:3666  ALPHABET */\n      mload(0x40)\n      dup1\n      0x60\n      add\n      0x40\n      mstore\n      dup1\n      0x24\n      dup2\n      mstore\n      0x20\n      add\n      data_aad385f9ef490de6f63bbbec6ad31ed8093d8d122d15a621c03d319331d68b03\n      0x24\n      swap2\n      codecopy\n        /* \"contracts/zapyield-mainnet-beta0.1.7.sol\":3680:3682  36 */\n      0x24\n        /* \"contracts/zapyield-mainnet-beta0.1.7.sol\":3667:3677  randomness */\n      dup4\n        /* \"contracts/zapyield-mainnet-beta0.1.7.sol\":3667:3682  randomness % 36 */\n      tag_222\n      swap2\n      swap1\n      tag_223\n      jump\t// in\n    tag_222:\n        /* \"contracts/zapyield-mainnet-beta0.1.7.sol\":3658:3683  ALPHABET[randomness % 36] */\n      dup2\n      mload\n      dup2\n      lt\n      tag_224\n      jumpi\n      tag_225\n      tag_226\n      jump\t// in\n    tag_225:\n    tag_224:\n      0x20\n      add\n      add\n      mload\n      0xf8\n      shr\n      0xf8\n      shl\n        /* \"contracts/zapyield-mainnet-beta0.1.7.sol\":3648:3652  code */\n      dup4\n        /* \"contracts/zapyield-mainnet-beta0.1.7.sol\":3653:3654  i */\n      dup3\n        /* \"contracts/zapyield-mainnet-beta0.1.7.sol\":3648:3655  code[i] */\n      dup2\n      mload\n      dup2\n      lt\n      tag_227\n      jumpi\n      tag_228\n      tag_226\n      jump\t// in\n    tag_228:\n    tag_227:\n      0x20\n      add\n      add\n        /* \"contracts/zapyield-mainnet-beta0.1.7.sol\":3648:3683  code[i] = ALPHABET[randomness % 36] */\n      swap1\n      not(0xffffffffffffffffffffffffffffffffffffffffffffffffffffffffffffff)\n      and\n      swap1\n      dup2\n      0x00\n      byte\n      swap1\n      mstore8\n      pop\n        /* \"contracts/zapyield-mainnet-beta0.1.7.sol\":3712:3714  36 */\n      0x24\n        /* \"contracts/zapyield-mainnet-beta0.1.7.sol\":3698:3714  randomness /= 36 */\n      dup3\n      tag_229\n      swap2\n      swap1\n      tag_230\n      jump\t// in\n    tag_229:\n      swap2\n      pop\n        /* \"contracts/zapyield-mainnet-beta0.1.7.sol\":3628:3631  i++ */\n      dup1\n      dup1\n      0x01\n      add\n      swap2\n      pop\n      pop\n        /* \"contracts/zapyield-mainnet-beta0.1.7.sol\":3604:3726  for (uint i = 0; i < 7; i++) {... */\n      jump(tag_219)\n    tag_220:\n      pop\n        /* \"contracts/zapyield-mainnet-beta0.1.7.sol\":3750:3754  code */\n      dup2\n        /* \"contracts/zapyield-mainnet-beta0.1.7.sol\":3736:3755  return string(code) */\n      swap3\n      pop\n      pop\n      pop\n        /* \"contracts/zapyield-mainnet-beta0.1.7.sol\":3287:3763  function _generateRandomString() internal view returns (string memory) {... */\n      swap1\n      jump\t// out\n        /* \"@openzeppelin/contracts-upgradeable/proxy/utils/Initializable.sol\":9071:9276  function _getInitializableStorage() private pure returns (InitializableStorage storage $) {... */\n    tag_137:\n        /* \"@openzeppelin/contracts-upgradeable/proxy/utils/Initializable.sol\":9129:9159  InitializableStorage storage $ */\n      0x00\n        /* \"@openzeppelin/contracts-upgradeable/proxy/utils/Initializable.sol\":9171:9183  bytes32 slot */\n      0x00\n        /* \"@openzeppelin/contracts-upgradeable/proxy/utils/Initializable.sol\":9186:9213  _initializableStorageSlot() */\n      tag_232\n        /* \"@openzeppelin/contracts-upgradeable/proxy/utils/Initializable.sol\":9186:9211  _initializableStorageSlot */\n      tag_233\n        /* \"@openzeppelin/contracts-upgradeable/proxy/utils/Initializable.sol\":9186:9213  _initializableStorageSlot() */\n      jump\t// in\n    tag_232:\n        /* \"@openzeppelin/contracts-upgradeable/proxy/utils/Initializable.sol\":9171:9213  bytes32 slot = _initializableStorageSlot() */\n      swap1\n      pop\n        /* \"@openzeppelin/contracts-upgradeable/proxy/utils/Initializable.sol\":9256:9260  slot */\n      dup1\n        /* \"@openzeppelin/contracts-upgradeable/proxy/utils/Initializable.sol\":9246:9260  $.slot := slot */\n      swap2\n      pop\n        /* \"@openzeppelin/contracts-upgradeable/proxy/utils/Initializable.sol\":9232:9270  {... */\n      pop\n        /* \"@openzeppelin/contracts-upgradeable/proxy/utils/Initializable.sol\":9071:9276  function _getInitializableStorage() private pure returns (InitializableStorage storage $) {... */\n      swap1\n      jump\t// out\n        /* \"@openzeppelin/contracts-upgradeable/access/OwnableUpgradeable.sol\":1847:1974  function __Ownable_init(address initialOwner) internal onlyInitializing {... */\n    tag_145:\n        /* \"@openzeppelin/contracts-upgradeable/proxy/utils/Initializable.sol\":6929:6949  _checkInitializing() */\n      tag_235\n        /* \"@openzeppelin/contracts-upgradeable/proxy/utils/Initializable.sol\":6929:6947  _checkInitializing */\n      tag_236\n        /* \"@openzeppelin/contracts-upgradeable/proxy/utils/Initializable.sol\":6929:6949  _checkInitializing() */\n      jump\t// in\n    tag_235:\n        /* \"@openzeppelin/contracts-upgradeable/access/OwnableUpgradeable.sol\":1929:1967  __Ownable_init_unchained(initialOwner) */\n      tag_238\n        /* \"@openzeppelin/contracts-upgradeable/access/OwnableUpgradeable.sol\":1954:1966  initialOwner */\n      dup2\n        /* \"@openzeppelin/contracts-upgradeable/access/OwnableUpgradeable.sol\":1929:1953  __Ownable_init_unchained */\n      tag_239\n        /* \"@openzeppelin/contracts-upgradeable/access/OwnableUpgradeable.sol\":1929:1967  __Ownable_init_unchained(initialOwner) */\n      jump\t// in\n    tag_238:\n        /* \"@openzeppelin/contracts-upgradeable/access/OwnableUpgradeable.sol\":1847:1974  function __Ownable_init(address initialOwner) internal onlyInitializing {... */\n      pop\n      jump\t// out\n        /* \"@openzeppelin/contracts-upgradeable/utils/ReentrancyGuardUpgradeable.sol\":2684:2795  function __ReentrancyGuard_init() internal onlyInitializing {... */\n    tag_147:\n        /* \"@openzeppelin/contracts-upgradeable/proxy/utils/Initializable.sol\":6929:6949  _checkInitializing() */\n      tag_241\n        /* \"@openzeppelin/contracts-upgradeable/proxy/utils/Initializable.sol\":6929:6947  _checkInitializing */\n      tag_236\n        /* \"@openzeppelin/contracts-upgradeable/proxy/utils/Initializable.sol\":6929:6949  _checkInitializing() */\n      jump\t// in\n    tag_241:\n        /* \"@openzeppelin/contracts-upgradeable/utils/ReentrancyGuardUpgradeable.sol\":2754:2788  __ReentrancyGuard_init_unchained() */\n      tag_243\n        /* \"@openzeppelin/contracts-upgradeable/utils/ReentrancyGuardUpgradeable.sol\":2754:2786  __ReentrancyGuard_init_unchained */\n      tag_244\n        /* \"@openzeppelin/contracts-upgradeable/utils/ReentrancyGuardUpgradeable.sol\":2754:2788  __ReentrancyGuard_init_unchained() */\n      jump\t// in\n    tag_243:\n        /* \"@openzeppelin/contracts-upgradeable/utils/ReentrancyGuardUpgradeable.sol\":2684:2795  function __ReentrancyGuard_init() internal onlyInitializing {... */\n      jump\t// out\n        /* \"@openzeppelin/contracts-upgradeable/proxy/utils/UUPSUpgradeable.sol\":2970:3037  function __UUPSUpgradeable_init() internal onlyInitializing {... */\n    tag_149:\n        /* \"@openzeppelin/contracts-upgradeable/proxy/utils/Initializable.sol\":6929:6949  _checkInitializing() */\n      tag_246\n        /* \"@openzeppelin/contracts-upgradeable/proxy/utils/Initializable.sol\":6929:6947  _checkInitializing */\n      tag_236\n        /* \"@openzeppelin/contracts-upgradeable/proxy/utils/Initializable.sol\":6929:6949  _checkInitializing() */\n      jump\t// in\n    tag_246:\n        /* \"@openzeppelin/contracts-upgradeable/proxy/utils/UUPSUpgradeable.sol\":2970:3037  function __UUPSUpgradeable_init() internal onlyInitializing {... */\n      jump\t// out\n        /* \"@openzeppelin/contracts-upgradeable/proxy/utils/UUPSUpgradeable.sol\":4578:4890  function _checkProxy() internal view virtual {... */\n    tag_155:\n        /* \"@openzeppelin/contracts-upgradeable/proxy/utils/UUPSUpgradeable.sol\":4667:4673  __self */\n      immutable(\"0x4ce4dab4689da140a0c12de1a6af6b8f679594aeb723205f513e052d27f5b26f\")\n        /* \"@openzeppelin/contracts-upgradeable/proxy/utils/UUPSUpgradeable.sol\":4650:4673  address(this) == __self */\n      0xffffffffffffffffffffffffffffffffffffffff\n      and\n        /* \"@openzeppelin/contracts-upgradeable/proxy/utils/UUPSUpgradeable.sol\":4658:4662  this */\n      address\n        /* \"@openzeppelin/contracts-upgradeable/proxy/utils/UUPSUpgradeable.sol\":4650:4673  address(this) == __self */\n      0xffffffffffffffffffffffffffffffffffffffff\n      and\n      eq\n        /* \"@openzeppelin/contracts-upgradeable/proxy/utils/UUPSUpgradeable.sol\":4650:4770  address(this) == __self || // Must be called through delegatecall... */\n      dup1\n      tag_249\n      jumpi\n      pop\n        /* \"@openzeppelin/contracts-upgradeable/proxy/utils/UUPSUpgradeable.sol\":4764:4770  __self */\n      immutable(\"0x4ce4dab4689da140a0c12de1a6af6b8f679594aeb723205f513e052d27f5b26f\")\n        /* \"@openzeppelin/contracts-upgradeable/proxy/utils/UUPSUpgradeable.sol\":4728:4770  ERC1967Utils.getImplementation() != __self */\n      0xffffffffffffffffffffffffffffffffffffffff\n      and\n        /* \"@openzeppelin/contracts-upgradeable/proxy/utils/UUPSUpgradeable.sol\":4728:4760  ERC1967Utils.getImplementation() */\n      tag_250\n        /* \"@openzeppelin/contracts-upgradeable/proxy/utils/UUPSUpgradeable.sol\":4728:4758  ERC1967Utils.getImplementation */\n      tag_251\n        /* \"@openzeppelin/contracts-upgradeable/proxy/utils/UUPSUpgradeable.sol\":4728:4760  ERC1967Utils.getImplementation() */\n      jump\t// in\n    tag_250:\n        /* \"@openzeppelin/contracts-upgradeable/proxy/utils/UUPSUpgradeable.sol\":4728:4770  ERC1967Utils.getImplementation() != __self */\n      0xffffffffffffffffffffffffffffffffffffffff\n      and\n      eq\n      iszero\n        /* \"@openzeppelin/contracts-upgradeable/proxy/utils/UUPSUpgradeable.sol\":4650:4770  address(this) == __self || // Must be called through delegatecall... */\n    tag_249:\n        /* \"@openzeppelin/contracts-upgradeable/proxy/utils/UUPSUpgradeable.sol\":4633:4884  if (... */\n      iszero\n      tag_252\n      jumpi\n        /* \"@openzeppelin/contracts-upgradeable/proxy/utils/UUPSUpgradeable.sol\":4844:4873  UUPSUnauthorizedCallContext() */\n      mload(0x40)\n      0xe07c8dba00000000000000000000000000000000000000000000000000000000\n      dup2\n      mstore\n      0x04\n      add\n      mload(0x40)\n      dup1\n      swap2\n      sub\n      swap1\n      revert\n        /* \"@openzeppelin/contracts-upgradeable/proxy/utils/UUPSUpgradeable.sol\":4633:4884  if (... */\n    tag_252:\n        /* \"@openzeppelin/contracts-upgradeable/proxy/utils/UUPSUpgradeable.sol\":4578:4890  function _checkProxy() internal view virtual {... */\n      jump\t// out\n        /* \"contracts/zapyield-mainnet-beta0.1.7.sol\":2359:2443  function _authorizeUpgrade(address newImplementation) internal override onlyOwner {} */\n    tag_158:\n        /* \"@openzeppelin/contracts-upgradeable/access/OwnableUpgradeable.sol\":2334:2347  _checkOwner() */\n      tag_254\n        /* \"@openzeppelin/contracts-upgradeable/access/OwnableUpgradeable.sol\":2334:2345  _checkOwner */\n      tag_167\n        /* \"@openzeppelin/contracts-upgradeable/access/OwnableUpgradeable.sol\":2334:2347  _checkOwner() */\n      jump\t// in\n    tag_254:\n        /* \"contracts/zapyield-mainnet-beta0.1.7.sol\":2359:2443  function _authorizeUpgrade(address newImplementation) internal override onlyOwner {} */\n      pop\n      jump\t// out\n        /* \"@openzeppelin/contracts-upgradeable/proxy/utils/UUPSUpgradeable.sol\":6032:6570  function _upgradeToAndCallUUPS(address newImplementation, bytes memory data) private {... */\n    tag_160:\n        /* \"@openzeppelin/contracts-upgradeable/proxy/utils/UUPSUpgradeable.sol\":6149:6166  newImplementation */\n      dup2\n        /* \"@openzeppelin/contracts-upgradeable/proxy/utils/UUPSUpgradeable.sol\":6131:6181  IERC1822Proxiable(newImplementation).proxiableUUID */\n      0xffffffffffffffffffffffffffffffffffffffff\n      and\n      0x52d1902d\n        /* \"@openzeppelin/contracts-upgradeable/proxy/utils/UUPSUpgradeable.sol\":6131:6183  IERC1822Proxiable(newImplementation).proxiableUUID() */\n      mload(0x40)\n      dup2\n      0xffffffff\n      and\n      0xe0\n      shl\n      dup2\n      mstore\n      0x04\n      add\n      0x20\n      mload(0x40)\n      dup1\n      dup4\n      sub\n      dup2\n      dup7\n      gas\n      staticcall\n      swap3\n      pop\n      pop\n      pop\n      dup1\n      iszero\n      tag_257\n      jumpi\n      pop\n      mload(0x40)\n      returndatasize\n      not(0x1f)\n      0x1f\n      dup3\n      add\n      and\n      dup3\n      add\n      dup1\n      0x40\n      mstore\n      pop\n      dup2\n      add\n      swap1\n      tag_258\n      swap2\n      swap1\n      tag_259\n      jump\t// in\n    tag_258:\n      0x01\n    tag_257:\n        /* \"@openzeppelin/contracts-upgradeable/proxy/utils/UUPSUpgradeable.sol\":6127:6564  try IERC1822Proxiable(newImplementation).proxiableUUID() returns (bytes32 slot) {... */\n      tag_260\n      jumpi\n        /* \"@openzeppelin/contracts-upgradeable/proxy/utils/UUPSUpgradeable.sol\":6535:6552  newImplementation */\n      dup2\n        /* \"@openzeppelin/contracts-upgradeable/proxy/utils/UUPSUpgradeable.sol\":6493:6553  ERC1967Utils.ERC1967InvalidImplementation(newImplementation) */\n      mload(0x40)\n      0x4c9c8ce300000000000000000000000000000000000000000000000000000000\n      dup2\n      mstore\n      0x04\n      add\n      tag_264\n      swap2\n      swap1\n      tag_66\n      jump\t// in\n    tag_264:\n      mload(0x40)\n      dup1\n      swap2\n      sub\n      swap1\n      revert\n        /* \"@openzeppelin/contracts-upgradeable/proxy/utils/UUPSUpgradeable.sol\":6127:6564  try IERC1822Proxiable(newImplementation).proxiableUUID() returns (bytes32 slot) {... */\n    tag_260:\n        /* \"@openzeppelin/contracts/proxy/ERC1967/ERC1967Utils.sol\":811:877  0x360894a13ba1a3210667c828492db98dca3e2076cc3735a920a3ca505d382bbc */\n      0x360894a13ba1a3210667c828492db98dca3e2076cc3735a920a3ca505d382bbc\n        /* \"@openzeppelin/contracts-upgradeable/proxy/utils/UUPSUpgradeable.sol\":6233:6265  ERC1967Utils.IMPLEMENTATION_SLOT */\n      0x00\n      shl\n        /* \"@openzeppelin/contracts-upgradeable/proxy/utils/UUPSUpgradeable.sol\":6225:6229  slot */\n      dup2\n        /* \"@openzeppelin/contracts-upgradeable/proxy/utils/UUPSUpgradeable.sol\":6225:6265  slot != ERC1967Utils.IMPLEMENTATION_SLOT */\n      eq\n        /* \"@openzeppelin/contracts-upgradeable/proxy/utils/UUPSUpgradeable.sol\":6221:6341  if (slot != ERC1967Utils.IMPLEMENTATION_SLOT) {... */\n      tag_266\n      jumpi\n        /* \"@openzeppelin/contracts-upgradeable/proxy/utils/UUPSUpgradeable.sol\":6321:6325  slot */\n      dup1\n        /* \"@openzeppelin/contracts-upgradeable/proxy/utils/UUPSUpgradeable.sol\":6292:6326  UUPSUnsupportedProxiableUUID(slot) */\n      mload(0x40)\n      0xaa1d49a400000000000000000000000000000000000000000000000000000000\n      dup2\n      mstore\n      0x04\n      add\n      tag_267\n      swap2\n      swap1\n      tag_53\n      jump\t// in\n    tag_267:\n      mload(0x40)\n      dup1\n      swap2\n      sub\n      swap1\n      revert\n        /* \"@openzeppelin/contracts-upgradeable/proxy/utils/UUPSUpgradeable.sol\":6221:6341  if (slot != ERC1967Utils.IMPLEMENTATION_SLOT) {... */\n    tag_266:\n        /* \"@openzeppelin/contracts-upgradeable/proxy/utils/UUPSUpgradeable.sol\":6354:6408  ERC1967Utils.upgradeToAndCall(newImplementation, data) */\n      tag_268\n        /* \"@openzeppelin/contracts-upgradeable/proxy/utils/UUPSUpgradeable.sol\":6384:6401  newImplementation */\n      dup4\n        /* \"@openzeppelin/contracts-upgradeable/proxy/utils/UUPSUpgradeable.sol\":6403:6407  data */\n      dup4\n        /* \"@openzeppelin/contracts-upgradeable/proxy/utils/UUPSUpgradeable.sol\":6354:6383  ERC1967Utils.upgradeToAndCall */\n      tag_269\n        /* \"@openzeppelin/contracts-upgradeable/proxy/utils/UUPSUpgradeable.sol\":6354:6408  ERC1967Utils.upgradeToAndCall(newImplementation, data) */\n      jump\t// in\n    tag_268:\n        /* \"@openzeppelin/contracts-upgradeable/proxy/utils/UUPSUpgradeable.sol\":6184:6419  returns (bytes32 slot) {... */\n      pop\n        /* \"@openzeppelin/contracts-upgradeable/proxy/utils/UUPSUpgradeable.sol\":6032:6570  function _upgradeToAndCallUUPS(address newImplementation, bytes memory data) private {... */\n      pop\n      pop\n      jump\t// out\n        /* \"@openzeppelin/contracts-upgradeable/proxy/utils/UUPSUpgradeable.sol\":5007:5220  function _checkNotDelegated() internal view virtual {... */\n    tag_163:\n        /* \"@openzeppelin/contracts-upgradeable/proxy/utils/UUPSUpgradeable.sol\":5090:5096  __self */\n      immutable(\"0x4ce4dab4689da140a0c12de1a6af6b8f679594aeb723205f513e052d27f5b26f\")\n        /* \"@openzeppelin/contracts-upgradeable/proxy/utils/UUPSUpgradeable.sol\":5073:5096  address(this) != __self */\n      0xffffffffffffffffffffffffffffffffffffffff\n      and\n        /* \"@openzeppelin/contracts-upgradeable/proxy/utils/UUPSUpgradeable.sol\":5081:5085  this */\n      address\n        /* \"@openzeppelin/contracts-upgradeable/proxy/utils/UUPSUpgradeable.sol\":5073:5096  address(this) != __self */\n      0xffffffffffffffffffffffffffffffffffffffff\n      and\n      eq\n        /* \"@openzeppelin/contracts-upgradeable/proxy/utils/UUPSUpgradeable.sol\":5069:5214  if (address(this) != __self) {... */\n      tag_271\n      jumpi\n        /* \"@openzeppelin/contracts-upgradeable/proxy/utils/UUPSUpgradeable.sol\":5174:5203  UUPSUnauthorizedCallContext() */\n      mload(0x40)\n      0xe07c8dba00000000000000000000000000000000000000000000000000000000\n      dup2\n      mstore\n      0x04\n      add\n      mload(0x40)\n      dup1\n      swap2\n      sub\n      swap1\n      revert\n        /* \"@openzeppelin/contracts-upgradeable/proxy/utils/UUPSUpgradeable.sol\":5069:5214  if (address(this) != __self) {... */\n    tag_271:\n        /* \"@openzeppelin/contracts-upgradeable/proxy/utils/UUPSUpgradeable.sol\":5007:5220  function _checkNotDelegated() internal view virtual {... */\n      jump\t// out\n        /* \"@openzeppelin/contracts-upgradeable/access/OwnableUpgradeable.sol\":2658:2820  function _checkOwner() internal view virtual {... */\n    tag_167:\n        /* \"@openzeppelin/contracts-upgradeable/access/OwnableUpgradeable.sol\":2728:2740  _msgSender() */\n      tag_273\n        /* \"@openzeppelin/contracts-upgradeable/access/OwnableUpgradeable.sol\":2728:2738  _msgSender */\n      tag_274\n        /* \"@openzeppelin/contracts-upgradeable/access/OwnableUpgradeable.sol\":2728:2740  _msgSender() */\n      jump\t// in\n    tag_273:\n        /* \"@openzeppelin/contracts-upgradeable/access/OwnableUpgradeable.sol\":2717:2740  owner() != _msgSender() */\n      0xffffffffffffffffffffffffffffffffffffffff\n      and\n        /* \"@openzeppelin/contracts-upgradeable/access/OwnableUpgradeable.sol\":2717:2724  owner() */\n      tag_275\n        /* \"@openzeppelin/contracts-upgradeable/access/OwnableUpgradeable.sol\":2717:2722  owner */\n      tag_64\n        /* \"@openzeppelin/contracts-upgradeable/access/OwnableUpgradeable.sol\":2717:2724  owner() */\n      jump\t// in\n    tag_275:\n        /* \"@openzeppelin/contracts-upgradeable/access/OwnableUpgradeable.sol\":2717:2740  owner() != _msgSender() */\n      0xffffffffffffffffffffffffffffffffffffffff\n      and\n      eq\n        /* \"@openzeppelin/contracts-upgradeable/access/OwnableUpgradeable.sol\":2713:2814  if (owner() != _msgSender()) {... */\n      tag_276\n      jumpi\n        /* \"@openzeppelin/contracts-upgradeable/access/OwnableUpgradeable.sol\":2790:2802  _msgSender() */\n      tag_277\n        /* \"@openzeppelin/contracts-upgradeable/access/OwnableUpgradeable.sol\":2790:2800  _msgSender */\n      tag_274\n        /* \"@openzeppelin/contracts-upgradeable/access/OwnableUpgradeable.sol\":2790:2802  _msgSender() */\n      jump\t// in\n    tag_277:\n        /* \"@openzeppelin/contracts-upgradeable/access/OwnableUpgradeable.sol\":2763:2803  OwnableUnauthorizedAccount(_msgSender()) */\n      mload(0x40)\n      0x118cdaa700000000000000000000000000000000000000000000000000000000\n      dup2\n      mstore\n      0x04\n      add\n      tag_278\n      swap2\n      swap1\n      tag_66\n      jump\t// in\n    tag_278:\n      mload(0x40)\n      dup1\n      swap2\n      sub\n      swap1\n      revert\n        /* \"@openzeppelin/contracts-upgradeable/access/OwnableUpgradeable.sol\":2713:2814  if (owner() != _msgSender()) {... */\n    tag_276:\n        /* \"@openzeppelin/contracts-upgradeable/access/OwnableUpgradeable.sol\":2658:2820  function _checkOwner() internal view virtual {... */\n      jump\t// out\n        /* \"@openzeppelin/contracts-upgradeable/access/OwnableUpgradeable.sol\":3774:4022  function _transferOwnership(address newOwner) internal virtual {... */\n    tag_170:\n        /* \"@openzeppelin/contracts-upgradeable/access/OwnableUpgradeable.sol\":3847:3871  OwnableStorage storage $ */\n      0x00\n        /* \"@openzeppelin/contracts-upgradeable/access/OwnableUpgradeable.sol\":3874:3894  _getOwnableStorage() */\n      tag_280\n        /* \"@openzeppelin/contracts-upgradeable/access/OwnableUpgradeable.sol\":3874:3892  _getOwnableStorage */\n      tag_179\n        /* \"@openzeppelin/contracts-upgradeable/access/OwnableUpgradeable.sol\":3874:3894  _getOwnableStorage() */\n      jump\t// in\n    tag_280:\n        /* \"@openzeppelin/contracts-upgradeable/access/OwnableUpgradeable.sol\":3847:3894  OwnableStorage storage $ = _getOwnableStorage() */\n      swap1\n      pop\n        /* \"@openzeppelin/contracts-upgradeable/access/OwnableUpgradeable.sol\":3904:3920  address oldOwner */\n      0x00\n        /* \"@openzeppelin/contracts-upgradeable/access/OwnableUpgradeable.sol\":3923:3924  $ */\n      dup2\n        /* \"@openzeppelin/contracts-upgradeable/access/OwnableUpgradeable.sol\":3923:3931  $._owner */\n      0x00\n      add\n      0x00\n      swap1\n      sload\n      swap1\n      0x0100\n      exp\n      swap1\n      div\n      0xffffffffffffffffffffffffffffffffffffffff\n      and\n        /* \"@openzeppelin/contracts-upgradeable/access/OwnableUpgradeable.sol\":3904:3931  address oldOwner = $._owner */\n      swap1\n      pop\n        /* \"@openzeppelin/contracts-upgradeable/access/OwnableUpgradeable.sol\":3952:3960  newOwner */\n      dup3\n        /* \"@openzeppelin/contracts-upgradeable/access/OwnableUpgradeable.sol\":3941:3942  $ */\n      dup3\n        /* \"@openzeppelin/contracts-upgradeable/access/OwnableUpgradeable.sol\":3941:3949  $._owner */\n      0x00\n      add\n      0x00\n        /* \"@openzeppelin/contracts-upgradeable/access/OwnableUpgradeable.sol\":3941:3960  $._owner = newOwner */\n      0x0100\n      exp\n      dup2\n      sload\n      dup2\n      0xffffffffffffffffffffffffffffffffffffffff\n      mul\n      not\n      and\n      swap1\n      dup4\n      0xffffffffffffffffffffffffffffffffffffffff\n      and\n      mul\n      or\n      swap1\n      sstore\n      pop\n        /* \"@openzeppelin/contracts-upgradeable/access/OwnableUpgradeable.sol\":4006:4014  newOwner */\n      dup3\n        /* \"@openzeppelin/contracts-upgradeable/access/OwnableUpgradeable.sol\":3975:4015  OwnershipTransferred(oldOwner, newOwner) */\n      0xffffffffffffffffffffffffffffffffffffffff\n      and\n        /* \"@openzeppelin/contracts-upgradeable/access/OwnableUpgradeable.sol\":3996:4004  oldOwner */\n      dup2\n        /* \"@openzeppelin/contracts-upgradeable/access/OwnableUpgradeable.sol\":3975:4015  OwnershipTransferred(oldOwner, newOwner) */\n      0xffffffffffffffffffffffffffffffffffffffff\n      and\n      0x8be0079c531659141344cd1fd0a4f28419497f9722a3daafe3b4186f6b6457e0\n      mload(0x40)\n      mload(0x40)\n      dup1\n      swap2\n      sub\n      swap1\n      log3\n        /* \"@openzeppelin/contracts-upgradeable/access/OwnableUpgradeable.sol\":3837:4022  {... */\n      pop\n      pop\n        /* \"@openzeppelin/contracts-upgradeable/access/OwnableUpgradeable.sol\":3774:4022  function _transferOwnership(address newOwner) internal virtual {... */\n      pop\n      jump\t// out\n        /* \"@openzeppelin/contracts-upgradeable/access/OwnableUpgradeable.sol\":1192:1351  function _getOwnableStorage() private pure returns (OwnableStorage storage $) {... */\n    tag_179:\n        /* \"@openzeppelin/contracts-upgradeable/access/OwnableUpgradeable.sol\":1244:1268  OwnableStorage storage $ */\n      0x00\n        /* \"@openzeppelin/contracts-upgradeable/access/OwnableUpgradeable.sol\":1313:1335  OwnableStorageLocation */\n      0x9016d09d72d40fdae2fd8ceac6b6234c7706214fd39c1cd1e609a0528c199300\n        /* \"@openzeppelin/contracts-upgradeable/access/OwnableUpgradeable.sol\":1303:1335  $.slot := OwnableStorageLocation */\n      swap1\n      pop\n        /* \"@openzeppelin/contracts-upgradeable/access/OwnableUpgradeable.sol\":1192:1351  function _getOwnableStorage() private pure returns (OwnableStorage storage $) {... */\n      swap1\n      jump\t// out\n        /* \"@openzeppelin/contracts-upgradeable/utils/ReentrancyGuardUpgradeable.sol\":2395:2578  function _getReentrancyGuardStorage() private pure returns (ReentrancyGuardStorage storage $) {... */\n    tag_193:\n        /* \"@openzeppelin/contracts-upgradeable/utils/ReentrancyGuardUpgradeable.sol\":2455:2487  ReentrancyGuardStorage storage $ */\n      0x00\n        /* \"@openzeppelin/contracts-upgradeable/utils/ReentrancyGuardUpgradeable.sol\":2532:2562  ReentrancyGuardStorageLocation */\n      0x9b779b17422d0df92223018b32b4d1fa46e071723d6817e2486d003becc55f00\n        /* \"@openzeppelin/contracts-upgradeable/utils/ReentrancyGuardUpgradeable.sol\":2522:2562  $.slot := ReentrancyGuardStorageLocation */\n      swap1\n      pop\n        /* \"@openzeppelin/contracts-upgradeable/utils/ReentrancyGuardUpgradeable.sol\":2395:2578  function _getReentrancyGuardStorage() private pure returns (ReentrancyGuardStorage storage $) {... */\n      swap1\n      jump\t// out\n        /* \"@openzeppelin/contracts-upgradeable/token/ERC20/utils/SafeERC20Upgradeable.sol\":5328:5981  function _callOptionalReturn(IERC20Upgradeable token, bytes memory data) private {... */\n    tag_199:\n        /* \"@openzeppelin/contracts-upgradeable/token/ERC20/utils/SafeERC20Upgradeable.sol\":5758:5781  bytes memory returndata */\n      0x00\n        /* \"@openzeppelin/contracts-upgradeable/token/ERC20/utils/SafeERC20Upgradeable.sol\":5784:5853  address(token).functionCall(data, \"SafeERC20: low-level call failed\") */\n      tag_284\n        /* \"@openzeppelin/contracts-upgradeable/token/ERC20/utils/SafeERC20Upgradeable.sol\":5812:5816  data */\n      dup3\n        /* \"@openzeppelin/contracts-upgradeable/token/ERC20/utils/SafeERC20Upgradeable.sol\":5784:5853  address(token).functionCall(data, \"SafeERC20: low-level call failed\") */\n      mload(0x40)\n      dup1\n      0x40\n      add\n      0x40\n      mstore\n      dup1\n      0x20\n      dup2\n      mstore\n      0x20\n      add\n      0x5361666545524332303a206c6f772d6c6576656c2063616c6c206661696c6564\n      dup2\n      mstore\n      pop\n        /* \"@openzeppelin/contracts-upgradeable/token/ERC20/utils/SafeERC20Upgradeable.sol\":5792:5797  token */\n      dup6\n        /* \"@openzeppelin/contracts-upgradeable/token/ERC20/utils/SafeERC20Upgradeable.sol\":5784:5811  address(token).functionCall */\n      0xffffffffffffffffffffffffffffffffffffffff\n      and\n      tag_285\n      swap1\n        /* \"@openzeppelin/contracts-upgradeable/token/ERC20/utils/SafeERC20Upgradeable.sol\":5784:5853  address(token).functionCall(data, \"SafeERC20: low-level call failed\") */\n      swap3\n      swap2\n      swap1\n      0xffffffff\n      and\n      jump\t// in\n    tag_284:\n        /* \"@openzeppelin/contracts-upgradeable/token/ERC20/utils/SafeERC20Upgradeable.sol\":5758:5853  bytes memory returndata = address(token).functionCall(data, \"SafeERC20: low-level call failed\") */\n      swap1\n      pop\n        /* \"@openzeppelin/contracts-upgradeable/token/ERC20/utils/SafeERC20Upgradeable.sol\":5892:5893  0 */\n      0x00\n        /* \"@openzeppelin/contracts-upgradeable/token/ERC20/utils/SafeERC20Upgradeable.sol\":5871:5881  returndata */\n      dup2\n        /* \"@openzeppelin/contracts-upgradeable/token/ERC20/utils/SafeERC20Upgradeable.sol\":5871:5888  returndata.length */\n      mload\n        /* \"@openzeppelin/contracts-upgradeable/token/ERC20/utils/SafeERC20Upgradeable.sol\":5871:5893  returndata.length == 0 */\n      eq\n        /* \"@openzeppelin/contracts-upgradeable/token/ERC20/utils/SafeERC20Upgradeable.sol\":5871:5927  returndata.length == 0 || abi.decode(returndata, (bool)) */\n      dup1\n      tag_286\n      jumpi\n      pop\n        /* \"@openzeppelin/contracts-upgradeable/token/ERC20/utils/SafeERC20Upgradeable.sol\":5908:5918  returndata */\n      dup1\n        /* \"@openzeppelin/contracts-upgradeable/token/ERC20/utils/SafeERC20Upgradeable.sol\":5897:5927  abi.decode(returndata, (bool)) */\n      dup1\n      0x20\n      add\n      swap1\n      mload\n      dup2\n      add\n      swap1\n      tag_287\n      swap2\n      swap1\n      tag_288\n      jump\t// in\n    tag_287:\n        /* \"@openzeppelin/contracts-upgradeable/token/ERC20/utils/SafeERC20Upgradeable.sol\":5871:5927  returndata.length == 0 || abi.decode(returndata, (bool)) */\n    tag_286:\n        /* \"@openzeppelin/contracts-upgradeable/token/ERC20/utils/SafeERC20Upgradeable.sol\":5863:5974  require(returndata.length == 0 || abi.decode(returndata, (bool)), \"SafeERC20: ERC20 operation did not succeed\") */\n      tag_289\n      jumpi\n      mload(0x40)\n      0x08c379a000000000000000000000000000000000000000000000000000000000\n      dup2\n      mstore\n      0x04\n      add\n      tag_290\n      swap1\n      tag_291\n      jump\t// in\n    tag_290:\n      mload(0x40)\n      dup1\n      swap2\n      sub\n      swap1\n      revert\n    tag_289:\n        /* \"@openzeppelin/contracts-upgradeable/token/ERC20/utils/SafeERC20Upgradeable.sol\":5409:5981  {... */\n      pop\n        /* \"@openzeppelin/contracts-upgradeable/token/ERC20/utils/SafeERC20Upgradeable.sol\":5328:5981  function _callOptionalReturn(IERC20Upgradeable token, bytes memory data) private {... */\n      pop\n      pop\n      jump\t// out\n        /* \"@openzeppelin/contracts-upgradeable/token/ERC20/utils/SafeERC20Upgradeable.sol\":6482:7098  function _callOptionalReturnBool(IERC20Upgradeable token, bytes memory data) private returns (bool) {... */\n    tag_204:\n        /* \"@openzeppelin/contracts-upgradeable/token/ERC20/utils/SafeERC20Upgradeable.sol\":6576:6580  bool */\n      0x00\n        /* \"@openzeppelin/contracts-upgradeable/token/ERC20/utils/SafeERC20Upgradeable.sol\":6878:6890  bool success */\n      0x00\n        /* \"@openzeppelin/contracts-upgradeable/token/ERC20/utils/SafeERC20Upgradeable.sol\":6892:6915  bytes memory returndata */\n      0x00\n        /* \"@openzeppelin/contracts-upgradeable/token/ERC20/utils/SafeERC20Upgradeable.sol\":6927:6932  token */\n      dup5\n        /* \"@openzeppelin/contracts-upgradeable/token/ERC20/utils/SafeERC20Upgradeable.sol\":6919:6938  address(token).call */\n      0xffffffffffffffffffffffffffffffffffffffff\n      and\n        /* \"@openzeppelin/contracts-upgradeable/token/ERC20/utils/SafeERC20Upgradeable.sol\":6939:6943  data */\n      dup5\n        /* \"@openzeppelin/contracts-upgradeable/token/ERC20/utils/SafeERC20Upgradeable.sol\":6919:6944  address(token).call(data) */\n      mload(0x40)\n      tag_293\n      swap2\n      swap1\n      tag_294\n      jump\t// in\n    tag_293:\n      0x00\n      mload(0x40)\n      dup1\n      dup4\n      sub\n      dup2\n      0x00\n      dup7\n      gas\n      call\n      swap2\n      pop\n      pop\n      returndatasize\n      dup1\n      0x00\n      dup2\n      eq\n      tag_297\n      jumpi\n      mload(0x40)\n      swap2\n      pop\n      and(add(returndatasize, 0x3f), not(0x1f))\n      dup3\n      add\n      0x40\n      mstore\n      returndatasize\n      dup3\n      mstore\n      returndatasize\n      0x00\n      0x20\n      dup5\n      add\n      returndatacopy\n      jump(tag_296)\n    tag_297:\n      0x60\n      swap2\n      pop\n    tag_296:\n      pop\n        /* \"@openzeppelin/contracts-upgradeable/token/ERC20/utils/SafeERC20Upgradeable.sol\":6877:6944  (bool success, bytes memory returndata) = address(token).call(data) */\n      swap2\n      pop\n      swap2\n      pop\n        /* \"@openzeppelin/contracts-upgradeable/token/ERC20/utils/SafeERC20Upgradeable.sol\":6973:6980  success */\n      dup2\n        /* \"@openzeppelin/contracts-upgradeable/token/ERC20/utils/SafeERC20Upgradeable.sol\":6973:7042  success && (returndata.length == 0 || abi.decode(returndata, (bool))) */\n      dup1\n      iszero\n      tag_298\n      jumpi\n      pop\n        /* \"@openzeppelin/contracts-upgradeable/token/ERC20/utils/SafeERC20Upgradeable.sol\":7006:7007  0 */\n      0x00\n        /* \"@openzeppelin/contracts-upgradeable/token/ERC20/utils/SafeERC20Upgradeable.sol\":6985:6995  returndata */\n      dup2\n        /* \"@openzeppelin/contracts-upgradeable/token/ERC20/utils/SafeERC20Upgradeable.sol\":6985:7002  returndata.length */\n      mload\n        /* \"@openzeppelin/contracts-upgradeable/token/ERC20/utils/SafeERC20Upgradeable.sol\":6985:7007  returndata.length == 0 */\n      eq\n        /* \"@openzeppelin/contracts-upgradeable/token/ERC20/utils/SafeERC20Upgradeable.sol\":6985:7041  returndata.length == 0 || abi.decode(returndata, (bool)) */\n      dup1\n      tag_299\n      jumpi\n      pop\n        /* \"@openzeppelin/contracts-upgradeable/token/ERC20/utils/SafeERC20Upgradeable.sol\":7022:7032  returndata */\n      dup1\n        /* \"@openzeppelin/contracts-upgradeable/token/ERC20/utils/SafeERC20Upgradeable.sol\":7011:7041  abi.decode(returndata, (bool)) */\n      dup1\n      0x20\n      add\n      swap1\n      mload\n      dup2\n      add\n      swap1\n      tag_300\n      swap2\n      swap1\n      tag_288\n      jump\t// in\n    tag_300:\n        /* \"@openzeppelin/contracts-upgradeable/token/ERC20/utils/SafeERC20Upgradeable.sol\":6985:7041  returndata.length == 0 || abi.decode(returndata, (bool)) */\n    tag_299:\n        /* \"@openzeppelin/contracts-upgradeable/token/ERC20/utils/SafeERC20Upgradeable.sol\":6973:7042  success && (returndata.length == 0 || abi.decode(returndata, (bool))) */\n    tag_298:\n        /* \"@openzeppelin/contracts-upgradeable/token/ERC20/utils/SafeERC20Upgradeable.sol\":6973:7091  success && (returndata.length == 0 || abi.decode(returndata, (bool))) && AddressUpgradeable.isContract(address(token)) */\n      dup1\n      iszero\n      tag_301\n      jumpi\n      pop\n        /* \"@openzeppelin/contracts-upgradeable/token/ERC20/utils/SafeERC20Upgradeable.sol\":7046:7091  AddressUpgradeable.isContract(address(token)) */\n      tag_302\n        /* \"@openzeppelin/contracts-upgradeable/token/ERC20/utils/SafeERC20Upgradeable.sol\":7084:7089  token */\n      dup6\n        /* \"@openzeppelin/contracts-upgradeable/token/ERC20/utils/SafeERC20Upgradeable.sol\":7046:7075  AddressUpgradeable.isContract */\n      tag_303\n        /* \"@openzeppelin/contracts-upgradeable/token/ERC20/utils/SafeERC20Upgradeable.sol\":7046:7091  AddressUpgradeable.isContract(address(token)) */\n      jump\t// in\n    tag_302:\n        /* \"@openzeppelin/contracts-upgradeable/token/ERC20/utils/SafeERC20Upgradeable.sol\":6973:7091  success && (returndata.length == 0 || abi.decode(returndata, (bool))) && AddressUpgradeable.isContract(address(token)) */\n    tag_301:\n        /* \"@openzeppelin/contracts-upgradeable/token/ERC20/utils/SafeERC20Upgradeable.sol\":6954:7091  return... */\n      swap3\n      pop\n      pop\n      pop\n        /* \"@openzeppelin/contracts-upgradeable/token/ERC20/utils/SafeERC20Upgradeable.sol\":6482:7098  function _callOptionalReturnBool(IERC20Upgradeable token, bytes memory data) private returns (bool) {... */\n      swap3\n      swap2\n      pop\n      pop\n      jump\t// out\n        /* \"@openzeppelin/contracts-upgradeable/proxy/utils/Initializable.sol\":8819:8941  function _initializableStorageSlot() internal pure virtual returns (bytes32) {... */\n    tag_233:\n        /* \"@openzeppelin/contracts-upgradeable/proxy/utils/Initializable.sol\":8887:8894  bytes32 */\n      0x00\n        /* \"@openzeppelin/contracts-upgradeable/proxy/utils/Initializable.sol\":3147:3213  0xf0c57e16840df040f15088dc2f81fe391c3923bec73e23a9662efc9c229c6a00 */\n      0xf0c57e16840df040f15088dc2f81fe391c3923bec73e23a9662efc9c229c6a00\n        /* \"@openzeppelin/contracts-upgradeable/proxy/utils/Initializable.sol\":8913:8934  INITIALIZABLE_STORAGE */\n      0x00\n      shl\n        /* \"@openzeppelin/contracts-upgradeable/proxy/utils/Initializable.sol\":8906:8934  return INITIALIZABLE_STORAGE */\n      swap1\n      pop\n        /* \"@openzeppelin/contracts-upgradeable/proxy/utils/Initializable.sol\":8819:8941  function _initializableStorageSlot() internal pure virtual returns (bytes32) {... */\n      swap1\n      jump\t// out\n        /* \"@openzeppelin/contracts-upgradeable/proxy/utils/Initializable.sol\":7082:7223  function _checkInitializing() internal view virtual {... */\n    tag_236:\n        /* \"@openzeppelin/contracts-upgradeable/proxy/utils/Initializable.sol\":7149:7166  _isInitializing() */\n      tag_306\n        /* \"@openzeppelin/contracts-upgradeable/proxy/utils/Initializable.sol\":7149:7164  _isInitializing */\n      tag_307\n        /* \"@openzeppelin/contracts-upgradeable/proxy/utils/Initializable.sol\":7149:7166  _isInitializing() */\n      jump\t// in\n    tag_306:\n        /* \"@openzeppelin/contracts-upgradeable/proxy/utils/Initializable.sol\":7144:7217  if (!_isInitializing()) {... */\n      tag_308\n      jumpi\n        /* \"@openzeppelin/contracts-upgradeable/proxy/utils/Initializable.sol\":7189:7206  NotInitializing() */\n      mload(0x40)\n      0xd7e6bcf800000000000000000000000000000000000000000000000000000000\n      dup2\n      mstore\n      0x04\n      add\n      mload(0x40)\n      dup1\n      swap2\n      sub\n      swap1\n      revert\n        /* \"@openzeppelin/contracts-upgradeable/proxy/utils/Initializable.sol\":7144:7217  if (!_isInitializing()) {... */\n    tag_308:\n        /* \"@openzeppelin/contracts-upgradeable/proxy/utils/Initializable.sol\":7082:7223  function _checkInitializing() internal view virtual {... */\n      jump\t// out\n        /* \"@openzeppelin/contracts-upgradeable/access/OwnableUpgradeable.sol\":1980:2215  function __Ownable_init_unchained(address initialOwner) internal onlyInitializing {... */\n    tag_239:\n        /* \"@openzeppelin/contracts-upgradeable/proxy/utils/Initializable.sol\":6929:6949  _checkInitializing() */\n      tag_310\n        /* \"@openzeppelin/contracts-upgradeable/proxy/utils/Initializable.sol\":6929:6947  _checkInitializing */\n      tag_236\n        /* \"@openzeppelin/contracts-upgradeable/proxy/utils/Initializable.sol\":6929:6949  _checkInitializing() */\n      jump\t// in\n    tag_310:\n        /* \"@openzeppelin/contracts-upgradeable/access/OwnableUpgradeable.sol\":2100:2101  0 */\n      0x00\n        /* \"@openzeppelin/contracts-upgradeable/access/OwnableUpgradeable.sol\":2076:2102  initialOwner == address(0) */\n      0xffffffffffffffffffffffffffffffffffffffff\n      and\n        /* \"@openzeppelin/contracts-upgradeable/access/OwnableUpgradeable.sol\":2076:2088  initialOwner */\n      dup2\n        /* \"@openzeppelin/contracts-upgradeable/access/OwnableUpgradeable.sol\":2076:2102  initialOwner == address(0) */\n      0xffffffffffffffffffffffffffffffffffffffff\n      and\n      sub\n        /* \"@openzeppelin/contracts-upgradeable/access/OwnableUpgradeable.sol\":2072:2167  if (initialOwner == address(0)) {... */\n      tag_312\n      jumpi\n        /* \"@openzeppelin/contracts-upgradeable/access/OwnableUpgradeable.sol\":2153:2154  0 */\n      0x00\n        /* \"@openzeppelin/contracts-upgradeable/access/OwnableUpgradeable.sol\":2125:2156  OwnableInvalidOwner(address(0)) */\n      mload(0x40)\n      0x1e4fbdf700000000000000000000000000000000000000000000000000000000\n      dup2\n      mstore\n      0x04\n      add\n      tag_313\n      swap2\n      swap1\n      tag_66\n      jump\t// in\n    tag_313:\n      mload(0x40)\n      dup1\n      swap2\n      sub\n      swap1\n      revert\n        /* \"@openzeppelin/contracts-upgradeable/access/OwnableUpgradeable.sol\":2072:2167  if (initialOwner == address(0)) {... */\n    tag_312:\n        /* \"@openzeppelin/contracts-upgradeable/access/OwnableUpgradeable.sol\":2176:2208  _transferOwnership(initialOwner) */\n      tag_314\n        /* \"@openzeppelin/contracts-upgradeable/access/OwnableUpgradeable.sol\":2195:2207  initialOwner */\n      dup2\n        /* \"@openzeppelin/contracts-upgradeable/access/OwnableUpgradeable.sol\":2176:2194  _transferOwnership */\n      tag_170\n        /* \"@openzeppelin/contracts-upgradeable/access/OwnableUpgradeable.sol\":2176:2208  _transferOwnership(initialOwner) */\n      jump\t// in\n    tag_314:\n        /* \"@openzeppelin/contracts-upgradeable/access/OwnableUpgradeable.sol\":1980:2215  function __Ownable_init_unchained(address initialOwner) internal onlyInitializing {... */\n      pop\n      jump\t// out\n        /* \"@openzeppelin/contracts-upgradeable/utils/ReentrancyGuardUpgradeable.sol\":2801:2984  function __ReentrancyGuard_init_unchained() internal onlyInitializing {... */\n    tag_244:\n        /* \"@openzeppelin/contracts-upgradeable/proxy/utils/Initializable.sol\":6929:6949  _checkInitializing() */\n      tag_316\n        /* \"@openzeppelin/contracts-upgradeable/proxy/utils/Initializable.sol\":6929:6947  _checkInitializing */\n      tag_236\n        /* \"@openzeppelin/contracts-upgradeable/proxy/utils/Initializable.sol\":6929:6949  _checkInitializing() */\n      jump\t// in\n    tag_316:\n        /* \"@openzeppelin/contracts-upgradeable/utils/ReentrancyGuardUpgradeable.sol\":2881:2913  ReentrancyGuardStorage storage $ */\n      0x00\n        /* \"@openzeppelin/contracts-upgradeable/utils/ReentrancyGuardUpgradeable.sol\":2916:2944  _getReentrancyGuardStorage() */\n      tag_318\n        /* \"@openzeppelin/contracts-upgradeable/utils/ReentrancyGuardUpgradeable.sol\":2916:2942  _getReentrancyGuardStorage */\n      tag_193\n        /* \"@openzeppelin/contracts-upgradeable/utils/ReentrancyGuardUpgradeable.sol\":2916:2944  _getReentrancyGuardStorage() */\n      jump\t// in\n    tag_318:\n        /* \"@openzeppelin/contracts-upgradeable/utils/ReentrancyGuardUpgradeable.sol\":2881:2944  ReentrancyGuardStorage storage $ = _getReentrancyGuardStorage() */\n      swap1\n      pop\n        /* \"@openzeppelin/contracts-upgradeable/utils/ReentrancyGuardUpgradeable.sol\":1949:1950  1 */\n      0x01\n        /* \"@openzeppelin/contracts-upgradeable/utils/ReentrancyGuardUpgradeable.sol\":2954:2955  $ */\n      dup2\n        /* \"@openzeppelin/contracts-upgradeable/utils/ReentrancyGuardUpgradeable.sol\":2954:2963  $._status */\n      0x00\n      add\n        /* \"@openzeppelin/contracts-upgradeable/utils/ReentrancyGuardUpgradeable.sol\":2954:2977  $._status = NOT_ENTERED */\n      dup2\n      swap1\n      sstore\n      pop\n        /* \"@openzeppelin/contracts-upgradeable/utils/ReentrancyGuardUpgradeable.sol\":2871:2984  {... */\n      pop\n        /* \"@openzeppelin/contracts-upgradeable/utils/ReentrancyGuardUpgradeable.sol\":2801:2984  function __ReentrancyGuard_init_unchained() internal onlyInitializing {... */\n      jump\t// out\n        /* \"@openzeppelin/contracts/proxy/ERC1967/ERC1967Utils.sol\":1441:1579  function getImplementation() internal view returns (address) {... */\n    tag_251:\n        /* \"@openzeppelin/contracts/proxy/ERC1967/ERC1967Utils.sol\":1493:1500  address */\n      0x00\n        /* \"@openzeppelin/contracts/proxy/ERC1967/ERC1967Utils.sol\":1519:1566  StorageSlot.getAddressSlot(IMPLEMENTATION_SLOT) */\n      tag_320\n        /* \"@openzeppelin/contracts/proxy/ERC1967/ERC1967Utils.sol\":811:877  0x360894a13ba1a3210667c828492db98dca3e2076cc3735a920a3ca505d382bbc */\n      0x360894a13ba1a3210667c828492db98dca3e2076cc3735a920a3ca505d382bbc\n        /* \"@openzeppelin/contracts/proxy/ERC1967/ERC1967Utils.sol\":1546:1565  IMPLEMENTATION_SLOT */\n      0x00\n      shl\n        /* \"@openzeppelin/contracts/proxy/ERC1967/ERC1967Utils.sol\":1519:1545  StorageSlot.getAddressSlot */\n      tag_321\n        /* \"@openzeppelin/contracts/proxy/ERC1967/ERC1967Utils.sol\":1519:1566  StorageSlot.getAddressSlot(IMPLEMENTATION_SLOT) */\n      jump\t// in\n    tag_320:\n        /* \"@openzeppelin/contracts/proxy/ERC1967/ERC1967Utils.sol\":1519:1572  StorageSlot.getAddressSlot(IMPLEMENTATION_SLOT).value */\n      0x00\n      add\n      0x00\n      swap1\n      sload\n      swap1\n      0x0100\n      exp\n      swap1\n      div\n      0xffffffffffffffffffffffffffffffffffffffff\n      and\n        /* \"@openzeppelin/contracts/proxy/ERC1967/ERC1967Utils.sol\":1512:1572  return StorageSlot.getAddressSlot(IMPLEMENTATION_SLOT).value */\n      swap1\n      pop\n        /* \"@openzeppelin/contracts/proxy/ERC1967/ERC1967Utils.sol\":1441:1579  function getImplementation() internal view returns (address) {... */\n      swap1\n      jump\t// out\n        /* \"@openzeppelin/contracts/proxy/ERC1967/ERC1967Utils.sol\":2264:2608  function upgradeToAndCall(address newImplementation, bytes memory data) internal {... */\n    tag_269:\n        /* \"@openzeppelin/contracts/proxy/ERC1967/ERC1967Utils.sol\":2355:2392  _setImplementation(newImplementation) */\n      tag_323\n        /* \"@openzeppelin/contracts/proxy/ERC1967/ERC1967Utils.sol\":2374:2391  newImplementation */\n      dup3\n        /* \"@openzeppelin/contracts/proxy/ERC1967/ERC1967Utils.sol\":2355:2373  _setImplementation */\n      tag_324\n        /* \"@openzeppelin/contracts/proxy/ERC1967/ERC1967Utils.sol\":2355:2392  _setImplementation(newImplementation) */\n      jump\t// in\n    tag_323:\n        /* \"@openzeppelin/contracts/proxy/ERC1967/ERC1967Utils.sol\":2425:2442  newImplementation */\n      dup2\n        /* \"@openzeppelin/contracts/proxy/ERC1967/ERC1967Utils.sol\":2407:2443  IERC1967.Upgraded(newImplementation) */\n      0xffffffffffffffffffffffffffffffffffffffff\n      and\n      0xbc7cd75a20ee27fd9adebab32041f755214dbc6bffa90cc0225b39da2e5c2d3b\n      mload(0x40)\n      mload(0x40)\n      dup1\n      swap2\n      sub\n      swap1\n      log2\n        /* \"@openzeppelin/contracts/proxy/ERC1967/ERC1967Utils.sol\":2472:2473  0 */\n      0x00\n        /* \"@openzeppelin/contracts/proxy/ERC1967/ERC1967Utils.sol\":2458:2462  data */\n      dup2\n        /* \"@openzeppelin/contracts/proxy/ERC1967/ERC1967Utils.sol\":2458:2469  data.length */\n      mload\n        /* \"@openzeppelin/contracts/proxy/ERC1967/ERC1967Utils.sol\":2458:2473  data.length > 0 */\n      gt\n        /* \"@openzeppelin/contracts/proxy/ERC1967/ERC1967Utils.sol\":2454:2602  if (data.length > 0) {... */\n      iszero\n      tag_325\n      jumpi\n        /* \"@openzeppelin/contracts/proxy/ERC1967/ERC1967Utils.sol\":2489:2542  Address.functionDelegateCall(newImplementation, data) */\n      tag_326\n        /* \"@openzeppelin/contracts/proxy/ERC1967/ERC1967Utils.sol\":2518:2535  newImplementation */\n      dup3\n        /* \"@openzeppelin/contracts/proxy/ERC1967/ERC1967Utils.sol\":2537:2541  data */\n      dup3\n        /* \"@openzeppelin/contracts/proxy/ERC1967/ERC1967Utils.sol\":2489:2517  Address.functionDelegateCall */\n      tag_327\n        /* \"@openzeppelin/contracts/proxy/ERC1967/ERC1967Utils.sol\":2489:2542  Address.functionDelegateCall(newImplementation, data) */\n      jump\t// in\n    tag_326:\n      pop\n        /* \"@openzeppelin/contracts/proxy/ERC1967/ERC1967Utils.sol\":2454:2602  if (data.length > 0) {... */\n      jump(tag_328)\n    tag_325:\n        /* \"@openzeppelin/contracts/proxy/ERC1967/ERC1967Utils.sol\":2573:2591  _checkNonPayable() */\n      tag_329\n        /* \"@openzeppelin/contracts/proxy/ERC1967/ERC1967Utils.sol\":2573:2589  _checkNonPayable */\n      tag_330\n        /* \"@openzeppelin/contracts/proxy/ERC1967/ERC1967Utils.sol\":2573:2591  _checkNonPayable() */\n      jump\t// in\n    tag_329:\n        /* \"@openzeppelin/contracts/proxy/ERC1967/ERC1967Utils.sol\":2454:2602  if (data.length > 0) {... */\n    tag_328:\n        /* \"@openzeppelin/contracts/proxy/ERC1967/ERC1967Utils.sol\":2264:2608  function upgradeToAndCall(address newImplementation, bytes memory data) internal {... */\n      pop\n      pop\n      jump\t// out\n        /* \"@openzeppelin/contracts-upgradeable/utils/ContextUpgradeable.sol\":887:983  function _msgSender() internal view virtual returns (address) {... */\n    tag_274:\n        /* \"@openzeppelin/contracts-upgradeable/utils/ContextUpgradeable.sol\":940:947  address */\n      0x00\n        /* \"@openzeppelin/contracts-upgradeable/utils/ContextUpgradeable.sol\":966:976  msg.sender */\n      caller\n        /* \"@openzeppelin/contracts-upgradeable/utils/ContextUpgradeable.sol\":959:976  return msg.sender */\n      swap1\n      pop\n        /* \"@openzeppelin/contracts-upgradeable/utils/ContextUpgradeable.sol\":887:983  function _msgSender() internal view virtual returns (address) {... */\n      swap1\n      jump\t// out\n        /* \"@openzeppelin/contracts-upgradeable/utils/AddressUpgradeable.sol\":4119:4342  function functionCall(... */\n    tag_285:\n        /* \"@openzeppelin/contracts-upgradeable/utils/AddressUpgradeable.sol\":4252:4264  bytes memory */\n      0x60\n        /* \"@openzeppelin/contracts-upgradeable/utils/AddressUpgradeable.sol\":4283:4335  functionCallWithValue(target, data, 0, errorMessage) */\n      tag_333\n        /* \"@openzeppelin/contracts-upgradeable/utils/AddressUpgradeable.sol\":4305:4311  target */\n      dup5\n        /* \"@openzeppelin/contracts-upgradeable/utils/AddressUpgradeable.sol\":4313:4317  data */\n      dup5\n        /* \"@openzeppelin/contracts-upgradeable/utils/AddressUpgradeable.sol\":4319:4320  0 */\n      0x00\n        /* \"@openzeppelin/contracts-upgradeable/utils/AddressUpgradeable.sol\":4322:4334  errorMessage */\n      dup6\n        /* \"@openzeppelin/contracts-upgradeable/utils/AddressUpgradeable.sol\":4283:4304  functionCallWithValue */\n      tag_334\n        /* \"@openzeppelin/contracts-upgradeable/utils/AddressUpgradeable.sol\":4283:4335  functionCallWithValue(target, data, 0, errorMessage) */\n      jump\t// in\n    tag_333:\n        /* \"@openzeppelin/contracts-upgradeable/utils/AddressUpgradeable.sol\":4276:4335  return functionCallWithValue(target, data, 0, errorMessage) */\n      swap1\n      pop\n        /* \"@openzeppelin/contracts-upgradeable/utils/AddressUpgradeable.sol\":4119:4342  function functionCall(... */\n      swap4\n      swap3\n      pop\n      pop\n      pop\n      jump\t// out\n        /* \"@openzeppelin/contracts-upgradeable/utils/AddressUpgradeable.sol\":1423:1743  function isContract(address account) internal view returns (bool) {... */\n    tag_303:\n        /* \"@openzeppelin/contracts-upgradeable/utils/AddressUpgradeable.sol\":1483:1487  bool */\n      0x00\n        /* \"@openzeppelin/contracts-upgradeable/utils/AddressUpgradeable.sol\":1735:1736  0 */\n      0x00\n        /* \"@openzeppelin/contracts-upgradeable/utils/AddressUpgradeable.sol\":1713:1720  account */\n      dup3\n        /* \"@openzeppelin/contracts-upgradeable/utils/AddressUpgradeable.sol\":1713:1732  account.code.length */\n      0xffffffffffffffffffffffffffffffffffffffff\n      and\n      extcodesize\n        /* \"@openzeppelin/contracts-upgradeable/utils/AddressUpgradeable.sol\":1713:1736  account.code.length > 0 */\n      gt\n        /* \"@openzeppelin/contracts-upgradeable/utils/AddressUpgradeable.sol\":1706:1736  return account.code.length > 0 */\n      swap1\n      pop\n        /* \"@openzeppelin/contracts-upgradeable/utils/AddressUpgradeable.sol\":1423:1743  function isContract(address account) internal view returns (bool) {... */\n      swap2\n      swap1\n      pop\n      jump\t// out\n        /* \"@openzeppelin/contracts-upgradeable/proxy/utils/Initializable.sol\":8485:8605  function _isInitializing() internal view returns (bool) {... */\n    tag_307:\n        /* \"@openzeppelin/contracts-upgradeable/proxy/utils/Initializable.sol\":8535:8539  bool */\n      0x00\n        /* \"@openzeppelin/contracts-upgradeable/proxy/utils/Initializable.sol\":8558:8584  _getInitializableStorage() */\n      tag_337\n        /* \"@openzeppelin/contracts-upgradeable/proxy/utils/Initializable.sol\":8558:8582  _getInitializableStorage */\n      tag_137\n        /* \"@openzeppelin/contracts-upgradeable/proxy/utils/Initializable.sol\":8558:8584  _getInitializableStorage() */\n      jump\t// in\n    tag_337:\n        /* \"@openzeppelin/contracts-upgradeable/proxy/utils/Initializable.sol\":8558:8598  _getInitializableStorage()._initializing */\n      0x00\n      add\n      0x08\n      swap1\n      sload\n      swap1\n      0x0100\n      exp\n      swap1\n      div\n      0xff\n      and\n        /* \"@openzeppelin/contracts-upgradeable/proxy/utils/Initializable.sol\":8551:8598  return _getInitializableStorage()._initializing */\n      swap1\n      pop\n        /* \"@openzeppelin/contracts-upgradeable/proxy/utils/Initializable.sol\":8485:8605  function _isInitializing() internal view returns (bool) {... */\n      swap1\n      jump\t// out\n        /* \"@openzeppelin/contracts/utils/StorageSlot.sol\":1899:2062  function getAddressSlot(bytes32 slot) internal pure returns (AddressSlot storage r) {... */\n    tag_321:\n        /* \"@openzeppelin/contracts/utils/StorageSlot.sol\":1960:1981  AddressSlot storage r */\n      0x00\n        /* \"@openzeppelin/contracts/utils/StorageSlot.sol\":2042:2046  slot */\n      dup2\n        /* \"@openzeppelin/contracts/utils/StorageSlot.sol\":2032:2046  r.slot := slot */\n      swap1\n      pop\n        /* \"@openzeppelin/contracts/utils/StorageSlot.sol\":1899:2062  function getAddressSlot(bytes32 slot) internal pure returns (AddressSlot storage r) {... */\n      swap2\n      swap1\n      pop\n      jump\t// out\n        /* \"@openzeppelin/contracts/proxy/ERC1967/ERC1967Utils.sol\":1671:1952  function _setImplementation(address newImplementation) private {... */\n    tag_324:\n        /* \"@openzeppelin/contracts/proxy/ERC1967/ERC1967Utils.sol\":1781:1782  0 */\n      0x00\n        /* \"@openzeppelin/contracts/proxy/ERC1967/ERC1967Utils.sol\":1748:1765  newImplementation */\n      dup2\n        /* \"@openzeppelin/contracts/proxy/ERC1967/ERC1967Utils.sol\":1748:1777  newImplementation.code.length */\n      0xffffffffffffffffffffffffffffffffffffffff\n      and\n      extcodesize\n        /* \"@openzeppelin/contracts/proxy/ERC1967/ERC1967Utils.sol\":1748:1782  newImplementation.code.length == 0 */\n      sub\n        /* \"@openzeppelin/contracts/proxy/ERC1967/ERC1967Utils.sol\":1744:1863  if (newImplementation.code.length == 0) {... */\n      tag_340\n      jumpi\n        /* \"@openzeppelin/contracts/proxy/ERC1967/ERC1967Utils.sol\":1834:1851  newImplementation */\n      dup1\n        /* \"@openzeppelin/contracts/proxy/ERC1967/ERC1967Utils.sol\":1805:1852  ERC1967InvalidImplementation(newImplementation) */\n      mload(0x40)\n      0x4c9c8ce300000000000000000000000000000000000000000000000000000000\n      dup2\n      mstore\n      0x04\n      add\n      tag_341\n      swap2\n      swap1\n      tag_66\n      jump\t// in\n    tag_341:\n      mload(0x40)\n      dup1\n      swap2\n      sub\n      swap1\n      revert\n        /* \"@openzeppelin/contracts/proxy/ERC1967/ERC1967Utils.sol\":1744:1863  if (newImplementation.code.length == 0) {... */\n    tag_340:\n        /* \"@openzeppelin/contracts/proxy/ERC1967/ERC1967Utils.sol\":1928:1945  newImplementation */\n      dup1\n        /* \"@openzeppelin/contracts/proxy/ERC1967/ERC1967Utils.sol\":1872:1919  StorageSlot.getAddressSlot(IMPLEMENTATION_SLOT) */\n      tag_342\n        /* \"@openzeppelin/contracts/proxy/ERC1967/ERC1967Utils.sol\":811:877  0x360894a13ba1a3210667c828492db98dca3e2076cc3735a920a3ca505d382bbc */\n      0x360894a13ba1a3210667c828492db98dca3e2076cc3735a920a3ca505d382bbc\n        /* \"@openzeppelin/contracts/proxy/ERC1967/ERC1967Utils.sol\":1899:1918  IMPLEMENTATION_SLOT */\n      0x00\n      shl\n        /* \"@openzeppelin/contracts/proxy/ERC1967/ERC1967Utils.sol\":1872:1898  StorageSlot.getAddressSlot */\n      tag_321\n        /* \"@openzeppelin/contracts/proxy/ERC1967/ERC1967Utils.sol\":1872:1919  StorageSlot.getAddressSlot(IMPLEMENTATION_SLOT) */\n      jump\t// in\n    tag_342:\n        /* \"@openzeppelin/contracts/proxy/ERC1967/ERC1967Utils.sol\":1872:1925  StorageSlot.getAddressSlot(IMPLEMENTATION_SLOT).value */\n      0x00\n      add\n      0x00\n        /* \"@openzeppelin/contracts/proxy/ERC1967/ERC1967Utils.sol\":1872:1945  StorageSlot.getAddressSlot(IMPLEMENTATION_SLOT).value = newImplementation */\n      0x0100\n      exp\n      dup2\n      sload\n      dup2\n      0xffffffffffffffffffffffffffffffffffffffff\n      mul\n      not\n      and\n      swap1\n      dup4\n      0xffffffffffffffffffffffffffffffffffffffff\n      and\n      mul\n      or\n      swap1\n      sstore\n      pop\n        /* \"@openzeppelin/contracts/proxy/ERC1967/ERC1967Utils.sol\":1671:1952  function _setImplementation(address newImplementation) private {... */\n      pop\n      jump\t// out\n        /* \"@openzeppelin/contracts/utils/Address.sol\":3916:4169  function functionDelegateCall(address target, bytes memory data) internal returns (bytes memory) {... */\n    tag_327:\n        /* \"@openzeppelin/contracts/utils/Address.sol\":3999:4011  bytes memory */\n      0x60\n        /* \"@openzeppelin/contracts/utils/Address.sol\":4024:4036  bool success */\n      0x00\n        /* \"@openzeppelin/contracts/utils/Address.sol\":4038:4061  bytes memory returndata */\n      0x00\n        /* \"@openzeppelin/contracts/utils/Address.sol\":4065:4071  target */\n      dup5\n        /* \"@openzeppelin/contracts/utils/Address.sol\":4065:4084  target.delegatecall */\n      0xffffffffffffffffffffffffffffffffffffffff\n      and\n        /* \"@openzeppelin/contracts/utils/Address.sol\":4085:4089  data */\n      dup5\n        /* \"@openzeppelin/contracts/utils/Address.sol\":4065:4090  target.delegatecall(data) */\n      mload(0x40)\n      tag_344\n      swap2\n      swap1\n      tag_294\n      jump\t// in\n    tag_344:\n      0x00\n      mload(0x40)\n      dup1\n      dup4\n      sub\n      dup2\n      dup6\n      gas\n      delegatecall\n      swap2\n      pop\n      pop\n      returndatasize\n      dup1\n      0x00\n      dup2\n      eq\n      tag_347\n      jumpi\n      mload(0x40)\n      swap2\n      pop\n      and(add(returndatasize, 0x3f), not(0x1f))\n      dup3\n      add\n      0x40\n      mstore\n      returndatasize\n      dup3\n      mstore\n      returndatasize\n      0x00\n      0x20\n      dup5\n      add\n      returndatacopy\n      jump(tag_346)\n    tag_347:\n      0x60\n      swap2\n      pop\n    tag_346:\n      pop\n        /* \"@openzeppelin/contracts/utils/Address.sol\":4023:4090  (bool success, bytes memory returndata) = target.delegatecall(data) */\n      swap2\n      pop\n      swap2\n      pop\n        /* \"@openzeppelin/contracts/utils/Address.sol\":4107:4162  verifyCallResultFromTarget(target, success, returndata) */\n      tag_348\n        /* \"@openzeppelin/contracts/utils/Address.sol\":4134:4140  target */\n      dup6\n        /* \"@openzeppelin/contracts/utils/Address.sol\":4142:4149  success */\n      dup4\n        /* \"@openzeppelin/contracts/utils/Address.sol\":4151:4161  returndata */\n      dup4\n        /* \"@openzeppelin/contracts/utils/Address.sol\":4107:4133  verifyCallResultFromTarget */\n      tag_349\n        /* \"@openzeppelin/contracts/utils/Address.sol\":4107:4162  verifyCallResultFromTarget(target, success, returndata) */\n      jump\t// in\n    tag_348:\n        /* \"@openzeppelin/contracts/utils/Address.sol\":4100:4162  return verifyCallResultFromTarget(target, success, returndata) */\n      swap3\n      pop\n      pop\n      pop\n        /* \"@openzeppelin/contracts/utils/Address.sol\":3916:4169  function functionDelegateCall(address target, bytes memory data) internal returns (bytes memory) {... */\n      swap3\n      swap2\n      pop\n      pop\n      jump\t// out\n        /* \"@openzeppelin/contracts/proxy/ERC1967/ERC1967Utils.sol\":6113:6235  function _checkNonPayable() private {... */\n    tag_330:\n        /* \"@openzeppelin/contracts/proxy/ERC1967/ERC1967Utils.sol\":6175:6176  0 */\n      0x00\n        /* \"@openzeppelin/contracts/proxy/ERC1967/ERC1967Utils.sol\":6163:6172  msg.value */\n      callvalue\n        /* \"@openzeppelin/contracts/proxy/ERC1967/ERC1967Utils.sol\":6163:6176  msg.value > 0 */\n      gt\n        /* \"@openzeppelin/contracts/proxy/ERC1967/ERC1967Utils.sol\":6159:6229  if (msg.value > 0) {... */\n      iszero\n      tag_351\n      jumpi\n        /* \"@openzeppelin/contracts/proxy/ERC1967/ERC1967Utils.sol\":6199:6218  ERC1967NonPayable() */\n      mload(0x40)\n      0xb398979f00000000000000000000000000000000000000000000000000000000\n      dup2\n      mstore\n      0x04\n      add\n      mload(0x40)\n      dup1\n      swap2\n      sub\n      swap1\n      revert\n        /* \"@openzeppelin/contracts/proxy/ERC1967/ERC1967Utils.sol\":6159:6229  if (msg.value > 0) {... */\n    tag_351:\n        /* \"@openzeppelin/contracts/proxy/ERC1967/ERC1967Utils.sol\":6113:6235  function _checkNonPayable() private {... */\n      jump\t// out\n        /* \"@openzeppelin/contracts-upgradeable/utils/AddressUpgradeable.sol\":5176:5622  function functionCallWithValue(... */\n    tag_334:\n        /* \"@openzeppelin/contracts-upgradeable/utils/AddressUpgradeable.sol\":5341:5353  bytes memory */\n      0x60\n        /* \"@openzeppelin/contracts-upgradeable/utils/AddressUpgradeable.sol\":5398:5403  value */\n      dup3\n        /* \"@openzeppelin/contracts-upgradeable/utils/AddressUpgradeable.sol\":5373:5394  address(this).balance */\n      selfbalance\n        /* \"@openzeppelin/contracts-upgradeable/utils/AddressUpgradeable.sol\":5373:5403  address(this).balance >= value */\n      lt\n      iszero\n        /* \"@openzeppelin/contracts-upgradeable/utils/AddressUpgradeable.sol\":5365:5446  require(address(this).balance >= value, \"Address: insufficient balance for call\") */\n      tag_353\n      jumpi\n      mload(0x40)\n      0x08c379a000000000000000000000000000000000000000000000000000000000\n      dup2\n      mstore\n      0x04\n      add\n      tag_354\n      swap1\n      tag_355\n      jump\t// in\n    tag_354:\n      mload(0x40)\n      dup1\n      swap2\n      sub\n      swap1\n      revert\n    tag_353:\n        /* \"@openzeppelin/contracts-upgradeable/utils/AddressUpgradeable.sol\":5457:5469  bool success */\n      0x00\n        /* \"@openzeppelin/contracts-upgradeable/utils/AddressUpgradeable.sol\":5471:5494  bytes memory returndata */\n      0x00\n        /* \"@openzeppelin/contracts-upgradeable/utils/AddressUpgradeable.sol\":5498:5504  target */\n      dup7\n        /* \"@openzeppelin/contracts-upgradeable/utils/AddressUpgradeable.sol\":5498:5509  target.call */\n      0xffffffffffffffffffffffffffffffffffffffff\n      and\n        /* \"@openzeppelin/contracts-upgradeable/utils/AddressUpgradeable.sol\":5517:5522  value */\n      dup6\n        /* \"@openzeppelin/contracts-upgradeable/utils/AddressUpgradeable.sol\":5524:5528  data */\n      dup8\n        /* \"@openzeppelin/contracts-upgradeable/utils/AddressUpgradeable.sol\":5498:5529  target.call{value: value}(data) */\n      mload(0x40)\n      tag_356\n      swap2\n      swap1\n      tag_294\n      jump\t// in\n    tag_356:\n      0x00\n      mload(0x40)\n      dup1\n      dup4\n      sub\n      dup2\n      dup6\n      dup8\n      gas\n      call\n      swap3\n      pop\n      pop\n      pop\n      returndatasize\n      dup1\n      0x00\n      dup2\n      eq\n      tag_359\n      jumpi\n      mload(0x40)\n      swap2\n      pop\n      and(add(returndatasize, 0x3f), not(0x1f))\n      dup3\n      add\n      0x40\n      mstore\n      returndatasize\n      dup3\n      mstore\n      returndatasize\n      0x00\n      0x20\n      dup5\n      add\n      returndatacopy\n      jump(tag_358)\n    tag_359:\n      0x60\n      swap2\n      pop\n    tag_358:\n      pop\n        /* \"@openzeppelin/contracts-upgradeable/utils/AddressUpgradeable.sol\":5456:5529  (bool success, bytes memory returndata) = target.call{value: value}(data) */\n      swap2\n      pop\n      swap2\n      pop\n        /* \"@openzeppelin/contracts-upgradeable/utils/AddressUpgradeable.sol\":5546:5615  verifyCallResultFromTarget(target, success, returndata, errorMessage) */\n      tag_360\n        /* \"@openzeppelin/contracts-upgradeable/utils/AddressUpgradeable.sol\":5573:5579  target */\n      dup8\n        /* \"@openzeppelin/contracts-upgradeable/utils/AddressUpgradeable.sol\":5581:5588  success */\n      dup4\n        /* \"@openzeppelin/contracts-upgradeable/utils/AddressUpgradeable.sol\":5590:5600  returndata */\n      dup4\n        /* \"@openzeppelin/contracts-upgradeable/utils/AddressUpgradeable.sol\":5602:5614  errorMessage */\n      dup8\n        /* \"@openzeppelin/contracts-upgradeable/utils/AddressUpgradeable.sol\":5546:5572  verifyCallResultFromTarget */\n      tag_361\n        /* \"@openzeppelin/contracts-upgradeable/utils/AddressUpgradeable.sol\":5546:5615  verifyCallResultFromTarget(target, success, returndata, errorMessage) */\n      jump\t// in\n    tag_360:\n        /* \"@openzeppelin/contracts-upgradeable/utils/AddressUpgradeable.sol\":5539:5615  return verifyCallResultFromTarget(target, success, returndata, errorMessage) */\n      swap3\n      pop\n      pop\n      pop\n        /* \"@openzeppelin/contracts-upgradeable/utils/AddressUpgradeable.sol\":5176:5622  function functionCallWithValue(... */\n      swap5\n      swap4\n      pop\n      pop\n      pop\n      pop\n      jump\t// out\n        /* \"@openzeppelin/contracts/utils/Address.sol\":4437:5019  function verifyCallResultFromTarget(... */\n    tag_349:\n        /* \"@openzeppelin/contracts/utils/Address.sol\":4581:4593  bytes memory */\n      0x60\n        /* \"@openzeppelin/contracts/utils/Address.sol\":4610:4617  success */\n      dup3\n        /* \"@openzeppelin/contracts/utils/Address.sol\":4605:5013  if (!success) {... */\n      tag_363\n      jumpi\n        /* \"@openzeppelin/contracts/utils/Address.sol\":4633:4652  _revert(returndata) */\n      tag_364\n        /* \"@openzeppelin/contracts/utils/Address.sol\":4641:4651  returndata */\n      dup3\n        /* \"@openzeppelin/contracts/utils/Address.sol\":4633:4640  _revert */\n      tag_365\n        /* \"@openzeppelin/contracts/utils/Address.sol\":4633:4652  _revert(returndata) */\n      jump\t// in\n    tag_364:\n        /* \"@openzeppelin/contracts/utils/Address.sol\":4605:5013  if (!success) {... */\n      jump(tag_366)\n    tag_363:\n        /* \"@openzeppelin/contracts/utils/Address.sol\":4878:4879  0 */\n      0x00\n        /* \"@openzeppelin/contracts/utils/Address.sol\":4857:4867  returndata */\n      dup3\n        /* \"@openzeppelin/contracts/utils/Address.sol\":4857:4874  returndata.length */\n      mload\n        /* \"@openzeppelin/contracts/utils/Address.sol\":4857:4879  returndata.length == 0 */\n      eq\n        /* \"@openzeppelin/contracts/utils/Address.sol\":4857:4906  returndata.length == 0 && target.code.length == 0 */\n      dup1\n      iszero\n      tag_367\n      jumpi\n      pop\n        /* \"@openzeppelin/contracts/utils/Address.sol\":4905:4906  0 */\n      0x00\n        /* \"@openzeppelin/contracts/utils/Address.sol\":4883:4889  target */\n      dup5\n        /* \"@openzeppelin/contracts/utils/Address.sol\":4883:4901  target.code.length */\n      0xffffffffffffffffffffffffffffffffffffffff\n      and\n      extcodesize\n        /* \"@openzeppelin/contracts/utils/Address.sol\":4883:4906  target.code.length == 0 */\n      eq\n        /* \"@openzeppelin/contracts/utils/Address.sol\":4857:4906  returndata.length == 0 && target.code.length == 0 */\n    tag_367:\n        /* \"@openzeppelin/contracts/utils/Address.sol\":4853:4972  if (returndata.length == 0 && target.code.length == 0) {... */\n      iszero\n      tag_368\n      jumpi\n        /* \"@openzeppelin/contracts/utils/Address.sol\":4950:4956  target */\n      dup4\n        /* \"@openzeppelin/contracts/utils/Address.sol\":4933:4957  AddressEmptyCode(target) */\n      mload(0x40)\n      0x9996b31500000000000000000000000000000000000000000000000000000000\n      dup2\n      mstore\n      0x04\n      add\n      tag_369\n      swap2\n      swap1\n      tag_66\n      jump\t// in\n    tag_369:\n      mload(0x40)\n      dup1\n      swap2\n      sub\n      swap1\n      revert\n        /* \"@openzeppelin/contracts/utils/Address.sol\":4853:4972  if (returndata.length == 0 && target.code.length == 0) {... */\n    tag_368:\n        /* \"@openzeppelin/contracts/utils/Address.sol\":4992:5002  returndata */\n      dup2\n        /* \"@openzeppelin/contracts/utils/Address.sol\":4985:5002  return returndata */\n      swap1\n      pop\n      jump(tag_362)\n        /* \"@openzeppelin/contracts/utils/Address.sol\":4605:5013  if (!success) {... */\n    tag_366:\n        /* \"@openzeppelin/contracts/utils/Address.sol\":4437:5019  function verifyCallResultFromTarget(... */\n    tag_362:\n      swap4\n      swap3\n      pop\n      pop\n      pop\n      jump\t// out\n        /* \"@openzeppelin/contracts-upgradeable/utils/AddressUpgradeable.sol\":7682:8310  function verifyCallResultFromTarget(... */\n    tag_361:\n        /* \"@openzeppelin/contracts-upgradeable/utils/AddressUpgradeable.sol\":7862:7874  bytes memory */\n      0x60\n        /* \"@openzeppelin/contracts-upgradeable/utils/AddressUpgradeable.sol\":7890:7897  success */\n      dup4\n        /* \"@openzeppelin/contracts-upgradeable/utils/AddressUpgradeable.sol\":7886:8304  if (success) {... */\n      iszero\n      tag_371\n      jumpi\n        /* \"@openzeppelin/contracts-upgradeable/utils/AddressUpgradeable.sol\":7938:7939  0 */\n      0x00\n        /* \"@openzeppelin/contracts-upgradeable/utils/AddressUpgradeable.sol\":7917:7927  returndata */\n      dup4\n        /* \"@openzeppelin/contracts-upgradeable/utils/AddressUpgradeable.sol\":7917:7934  returndata.length */\n      mload\n        /* \"@openzeppelin/contracts-upgradeable/utils/AddressUpgradeable.sol\":7917:7939  returndata.length == 0 */\n      sub\n        /* \"@openzeppelin/contracts-upgradeable/utils/AddressUpgradeable.sol\":7913:8199  if (returndata.length == 0) {... */\n      tag_372\n      jumpi\n        /* \"@openzeppelin/contracts-upgradeable/utils/AddressUpgradeable.sol\":8132:8150  isContract(target) */\n      tag_373\n        /* \"@openzeppelin/contracts-upgradeable/utils/AddressUpgradeable.sol\":8143:8149  target */\n      dup6\n        /* \"@openzeppelin/contracts-upgradeable/utils/AddressUpgradeable.sol\":8132:8142  isContract */\n      tag_303\n        /* \"@openzeppelin/contracts-upgradeable/utils/AddressUpgradeable.sol\":8132:8150  isContract(target) */\n      jump\t// in\n    tag_373:\n        /* \"@openzeppelin/contracts-upgradeable/utils/AddressUpgradeable.sol\":8124:8184  require(isContract(target), \"Address: call to non-contract\") */\n      tag_374\n      jumpi\n      mload(0x40)\n      0x08c379a000000000000000000000000000000000000000000000000000000000\n      dup2\n      mstore\n      0x04\n      add\n      tag_375\n      swap1\n      tag_376\n      jump\t// in\n    tag_375:\n      mload(0x40)\n      dup1\n      swap2\n      sub\n      swap1\n      revert\n    tag_374:\n        /* \"@openzeppelin/contracts-upgradeable/utils/AddressUpgradeable.sol\":7913:8199  if (returndata.length == 0) {... */\n    tag_372:\n        /* \"@openzeppelin/contracts-upgradeable/utils/AddressUpgradeable.sol\":8219:8229  returndata */\n      dup3\n        /* \"@openzeppelin/contracts-upgradeable/utils/AddressUpgradeable.sol\":8212:8229  return returndata */\n      swap1\n      pop\n      jump(tag_370)\n        /* \"@openzeppelin/contracts-upgradeable/utils/AddressUpgradeable.sol\":7886:8304  if (success) {... */\n    tag_371:\n        /* \"@openzeppelin/contracts-upgradeable/utils/AddressUpgradeable.sol\":8260:8293  _revert(returndata, errorMessage) */\n      tag_378\n        /* \"@openzeppelin/contracts-upgradeable/utils/AddressUpgradeable.sol\":8268:8278  returndata */\n      dup4\n        /* \"@openzeppelin/contracts-upgradeable/utils/AddressUpgradeable.sol\":8280:8292  errorMessage */\n      dup4\n        /* \"@openzeppelin/contracts-upgradeable/utils/AddressUpgradeable.sol\":8260:8267  _revert */\n      tag_379\n        /* \"@openzeppelin/contracts-upgradeable/utils/AddressUpgradeable.sol\":8260:8293  _revert(returndata, errorMessage) */\n      jump\t// in\n    tag_378:\n        /* \"@openzeppelin/contracts-upgradeable/utils/AddressUpgradeable.sol\":7682:8310  function verifyCallResultFromTarget(... */\n    tag_370:\n      swap5\n      swap4\n      pop\n      pop\n      pop\n      pop\n      jump\t// out\n        /* \"@openzeppelin/contracts/utils/Address.sol\":5559:5993  function _revert(bytes memory returndata) private pure {... */\n    tag_365:\n        /* \"@openzeppelin/contracts/utils/Address.sol\":5710:5711  0 */\n      0x00\n        /* \"@openzeppelin/contracts/utils/Address.sol\":5690:5700  returndata */\n      dup2\n        /* \"@openzeppelin/contracts/utils/Address.sol\":5690:5707  returndata.length */\n      mload\n        /* \"@openzeppelin/contracts/utils/Address.sol\":5690:5711  returndata.length > 0 */\n      gt\n        /* \"@openzeppelin/contracts/utils/Address.sol\":5686:5987  if (returndata.length > 0) {... */\n      iszero\n      tag_381\n      jumpi\n        /* \"@openzeppelin/contracts/utils/Address.sol\":5894:5904  returndata */\n      dup1\n        /* \"@openzeppelin/contracts/utils/Address.sol\":5888:5905  mload(returndata) */\n      mload\n        /* \"@openzeppelin/contracts/utils/Address.sol\":5881:5885  0x20 */\n      0x20\n        /* \"@openzeppelin/contracts/utils/Address.sol\":5869:5879  returndata */\n      dup3\n        /* \"@openzeppelin/contracts/utils/Address.sol\":5865:5886  add(returndata, 0x20) */\n      add\n        /* \"@openzeppelin/contracts/utils/Address.sol\":5858:5906  revert(add(returndata, 0x20), mload(returndata)) */\n      revert\n        /* \"@openzeppelin/contracts/utils/Address.sol\":5686:5987  if (returndata.length > 0) {... */\n    tag_381:\n        /* \"@openzeppelin/contracts/utils/Address.sol\":5957:5976  Errors.FailedCall() */\n      mload(0x40)\n      0xd6bda27500000000000000000000000000000000000000000000000000000000\n      dup2\n      mstore\n      0x04\n      add\n      mload(0x40)\n      dup1\n      swap2\n      sub\n      swap1\n      revert\n        /* \"@openzeppelin/contracts-upgradeable/utils/AddressUpgradeable.sol\":8832:9372  function _revert(bytes memory returndata, string memory errorMessage) private pure {... */\n    tag_379:\n        /* \"@openzeppelin/contracts-upgradeable/utils/AddressUpgradeable.sol\":9011:9012  0 */\n      0x00\n        /* \"@openzeppelin/contracts-upgradeable/utils/AddressUpgradeable.sol\":8991:9001  returndata */\n      dup3\n        /* \"@openzeppelin/contracts-upgradeable/utils/AddressUpgradeable.sol\":8991:9008  returndata.length */\n      mload\n        /* \"@openzeppelin/contracts-upgradeable/utils/AddressUpgradeable.sol\":8991:9012  returndata.length > 0 */\n      gt\n        /* \"@openzeppelin/contracts-upgradeable/utils/AddressUpgradeable.sol\":8987:9366  if (returndata.length > 0) {... */\n      iszero\n      tag_384\n      jumpi\n        /* \"@openzeppelin/contracts-upgradeable/utils/AddressUpgradeable.sol\":9219:9229  returndata */\n      dup2\n        /* \"@openzeppelin/contracts-upgradeable/utils/AddressUpgradeable.sol\":9213:9230  mload(returndata) */\n      mload\n        /* \"@openzeppelin/contracts-upgradeable/utils/AddressUpgradeable.sol\":9275:9290  returndata_size */\n      dup1\n        /* \"@openzeppelin/contracts-upgradeable/utils/AddressUpgradeable.sol\":9262:9272  returndata */\n      dup4\n        /* \"@openzeppelin/contracts-upgradeable/utils/AddressUpgradeable.sol\":9258:9260  32 */\n      0x20\n        /* \"@openzeppelin/contracts-upgradeable/utils/AddressUpgradeable.sol\":9254:9273  add(32, returndata) */\n      add\n        /* \"@openzeppelin/contracts-upgradeable/utils/AddressUpgradeable.sol\":9247:9291  revert(add(32, returndata), returndata_size) */\n      revert\n        /* \"@openzeppelin/contracts-upgradeable/utils/AddressUpgradeable.sol\":8987:9366  if (returndata.length > 0) {... */\n    tag_384:\n        /* \"@openzeppelin/contracts-upgradeable/utils/AddressUpgradeable.sol\":9342:9354  errorMessage */\n      dup1\n        /* \"@openzeppelin/contracts-upgradeable/utils/AddressUpgradeable.sol\":9335:9355  revert(errorMessage) */\n      mload(0x40)\n      0x08c379a000000000000000000000000000000000000000000000000000000000\n      dup2\n      mstore\n      0x04\n      add\n      tag_386\n      swap2\n      swap1\n      tag_61\n      jump\t// in\n    tag_386:\n      mload(0x40)\n      dup1\n      swap2\n      sub\n      swap1\n      revert\n        /* \"#utility.yul\":7:82   */\n    tag_387:\n        /* \"#utility.yul\":40:46   */\n      0x00\n        /* \"#utility.yul\":73:75   */\n      0x40\n        /* \"#utility.yul\":67:76   */\n      mload\n        /* \"#utility.yul\":57:76   */\n      swap1\n      pop\n        /* \"#utility.yul\":7:82   */\n      swap1\n      jump\t// out\n        /* \"#utility.yul\":88:205   */\n    tag_388:\n        /* \"#utility.yul\":197:198   */\n      0x00\n        /* \"#utility.yul\":194:195   */\n      0x00\n        /* \"#utility.yul\":187:199   */\n      revert\n        /* \"#utility.yul\":211:328   */\n    tag_389:\n        /* \"#utility.yul\":320:321   */\n      0x00\n        /* \"#utility.yul\":317:318   */\n      0x00\n        /* \"#utility.yul\":310:322   */\n      revert\n        /* \"#utility.yul\":334:411   */\n    tag_390:\n        /* \"#utility.yul\":371:378   */\n      0x00\n        /* \"#utility.yul\":400:405   */\n      dup2\n        /* \"#utility.yul\":389:405   */\n      swap1\n      pop\n        /* \"#utility.yul\":334:411   */\n      swap2\n      swap1\n      pop\n      jump\t// out\n        /* \"#utility.yul\":417:539   */\n    tag_391:\n        /* \"#utility.yul\":490:514   */\n      tag_484\n        /* \"#utility.yul\":508:513   */\n      dup2\n        /* \"#utility.yul\":490:514   */\n      tag_390\n      jump\t// in\n    tag_484:\n        /* \"#utility.yul\":483:488   */\n      dup2\n        /* \"#utility.yul\":480:515   */\n      eq\n        /* \"#utility.yul\":470:533   */\n      tag_485\n      jumpi\n        /* \"#utility.yul\":529:530   */\n      0x00\n        /* \"#utility.yul\":526:527   */\n      0x00\n        /* \"#utility.yul\":519:531   */\n      revert\n        /* \"#utility.yul\":470:533   */\n    tag_485:\n        /* \"#utility.yul\":417:539   */\n      pop\n      jump\t// out\n        /* \"#utility.yul\":545:684   */\n    tag_392:\n        /* \"#utility.yul\":591:596   */\n      0x00\n        /* \"#utility.yul\":629:635   */\n      dup2\n        /* \"#utility.yul\":616:636   */\n      calldataload\n        /* \"#utility.yul\":607:636   */\n      swap1\n      pop\n        /* \"#utility.yul\":645:678   */\n      tag_487\n        /* \"#utility.yul\":672:677   */\n      dup2\n        /* \"#utility.yul\":645:678   */\n      tag_391\n      jump\t// in\n    tag_487:\n        /* \"#utility.yul\":545:684   */\n      swap3\n      swap2\n      pop\n      pop\n      jump\t// out\n        /* \"#utility.yul\":690:807   */\n    tag_393:\n        /* \"#utility.yul\":799:800   */\n      0x00\n        /* \"#utility.yul\":796:797   */\n      0x00\n        /* \"#utility.yul\":789:801   */\n      revert\n        /* \"#utility.yul\":813:930   */\n    tag_394:\n        /* \"#utility.yul\":922:923   */\n      0x00\n        /* \"#utility.yul\":919:920   */\n      0x00\n        /* \"#utility.yul\":912:924   */\n      revert\n        /* \"#utility.yul\":936:1038   */\n    tag_395:\n        /* \"#utility.yul\":977:983   */\n      0x00\n        /* \"#utility.yul\":1028:1030   */\n      0x1f\n        /* \"#utility.yul\":1024:1031   */\n      not\n        /* \"#utility.yul\":1019:1021   */\n      0x1f\n        /* \"#utility.yul\":1012:1017   */\n      dup4\n        /* \"#utility.yul\":1008:1022   */\n      add\n        /* \"#utility.yul\":1004:1032   */\n      and\n        /* \"#utility.yul\":994:1032   */\n      swap1\n      pop\n        /* \"#utility.yul\":936:1038   */\n      swap2\n      swap1\n      pop\n      jump\t// out\n        /* \"#utility.yul\":1044:1224   */\n    tag_215:\n        /* \"#utility.yul\":1092:1169   */\n      0x4e487b7100000000000000000000000000000000000000000000000000000000\n        /* \"#utility.yul\":1089:1090   */\n      0x00\n        /* \"#utility.yul\":1082:1170   */\n      mstore\n        /* \"#utility.yul\":1189:1193   */\n      0x41\n        /* \"#utility.yul\":1186:1187   */\n      0x04\n        /* \"#utility.yul\":1179:1194   */\n      mstore\n        /* \"#utility.yul\":1213:1217   */\n      0x24\n        /* \"#utility.yul\":1210:1211   */\n      0x00\n        /* \"#utility.yul\":1203:1218   */\n      revert\n        /* \"#utility.yul\":1230:1511   */\n    tag_396:\n        /* \"#utility.yul\":1313:1340   */\n      tag_493\n        /* \"#utility.yul\":1335:1339   */\n      dup3\n        /* \"#utility.yul\":1313:1340   */\n      tag_395\n      jump\t// in\n    tag_493:\n        /* \"#utility.yul\":1305:1311   */\n      dup2\n        /* \"#utility.yul\":1301:1341   */\n      add\n        /* \"#utility.yul\":1443:1449   */\n      dup2\n        /* \"#utility.yul\":1431:1441   */\n      dup2\n        /* \"#utility.yul\":1428:1450   */\n      lt\n        /* \"#utility.yul\":1407:1425   */\n      0xffffffffffffffff\n        /* \"#utility.yul\":1395:1405   */\n      dup3\n        /* \"#utility.yul\":1392:1426   */\n      gt\n        /* \"#utility.yul\":1389:1451   */\n      or\n        /* \"#utility.yul\":1386:1474   */\n      iszero\n      tag_494\n      jumpi\n        /* \"#utility.yul\":1454:1472   */\n      tag_495\n      tag_215\n      jump\t// in\n    tag_495:\n        /* \"#utility.yul\":1386:1474   */\n    tag_494:\n        /* \"#utility.yul\":1494:1504   */\n      dup1\n        /* \"#utility.yul\":1490:1492   */\n      0x40\n        /* \"#utility.yul\":1483:1505   */\n      mstore\n        /* \"#utility.yul\":1273:1511   */\n      pop\n        /* \"#utility.yul\":1230:1511   */\n      pop\n      pop\n      jump\t// out\n        /* \"#utility.yul\":1517:1646   */\n    tag_397:\n        /* \"#utility.yul\":1551:1557   */\n      0x00\n        /* \"#utility.yul\":1578:1598   */\n      tag_497\n      tag_387\n      jump\t// in\n    tag_497:\n        /* \"#utility.yul\":1568:1598   */\n      swap1\n      pop\n        /* \"#utility.yul\":1607:1640   */\n      tag_498\n        /* \"#utility.yul\":1635:1639   */\n      dup3\n        /* \"#utility.yul\":1627:1633   */\n      dup3\n        /* \"#utility.yul\":1607:1640   */\n      tag_396\n      jump\t// in\n    tag_498:\n        /* \"#utility.yul\":1517:1646   */\n      swap2\n      swap1\n      pop\n      jump\t// out\n        /* \"#utility.yul\":1652:1960   */\n    tag_398:\n        /* \"#utility.yul\":1714:1718   */\n      0x00\n        /* \"#utility.yul\":1804:1822   */\n      0xffffffffffffffff\n        /* \"#utility.yul\":1796:1802   */\n      dup3\n        /* \"#utility.yul\":1793:1823   */\n      gt\n        /* \"#utility.yul\":1790:1846   */\n      iszero\n      tag_500\n      jumpi\n        /* \"#utility.yul\":1826:1844   */\n      tag_501\n      tag_215\n      jump\t// in\n    tag_501:\n        /* \"#utility.yul\":1790:1846   */\n    tag_500:\n        /* \"#utility.yul\":1864:1893   */\n      tag_502\n        /* \"#utility.yul\":1886:1892   */\n      dup3\n        /* \"#utility.yul\":1864:1893   */\n      tag_395\n      jump\t// in\n    tag_502:\n        /* \"#utility.yul\":1856:1893   */\n      swap1\n      pop\n        /* \"#utility.yul\":1948:1952   */\n      0x20\n        /* \"#utility.yul\":1942:1946   */\n      dup2\n        /* \"#utility.yul\":1938:1953   */\n      add\n        /* \"#utility.yul\":1930:1953   */\n      swap1\n      pop\n        /* \"#utility.yul\":1652:1960   */\n      swap2\n      swap1\n      pop\n      jump\t// out\n        /* \"#utility.yul\":1966:2114   */\n    tag_399:\n        /* \"#utility.yul\":2064:2070   */\n      dup3\n        /* \"#utility.yul\":2059:2062   */\n      dup2\n        /* \"#utility.yul\":2054:2057   */\n      dup4\n        /* \"#utility.yul\":2041:2071   */\n      calldatacopy\n        /* \"#utility.yul\":2105:2106   */\n      0x00\n        /* \"#utility.yul\":2096:2102   */\n      dup4\n        /* \"#utility.yul\":2091:2094   */\n      dup4\n        /* \"#utility.yul\":2087:2103   */\n      add\n        /* \"#utility.yul\":2080:2107   */\n      mstore\n        /* \"#utility.yul\":1966:2114   */\n      pop\n      pop\n      pop\n      jump\t// out\n        /* \"#utility.yul\":2120:2545   */\n    tag_400:\n        /* \"#utility.yul\":2198:2203   */\n      0x00\n        /* \"#utility.yul\":2223:2289   */\n      tag_505\n        /* \"#utility.yul\":2239:2288   */\n      tag_506\n        /* \"#utility.yul\":2281:2287   */\n      dup5\n        /* \"#utility.yul\":2239:2288   */\n      tag_398\n      jump\t// in\n    tag_506:\n        /* \"#utility.yul\":2223:2289   */\n      tag_397\n      jump\t// in\n    tag_505:\n        /* \"#utility.yul\":2214:2289   */\n      swap1\n      pop\n        /* \"#utility.yul\":2312:2318   */\n      dup3\n        /* \"#utility.yul\":2305:2310   */\n      dup2\n        /* \"#utility.yul\":2298:2319   */\n      mstore\n        /* \"#utility.yul\":2350:2354   */\n      0x20\n        /* \"#utility.yul\":2343:2348   */\n      dup2\n        /* \"#utility.yul\":2339:2355   */\n      add\n        /* \"#utility.yul\":2388:2391   */\n      dup5\n        /* \"#utility.yul\":2379:2385   */\n      dup5\n        /* \"#utility.yul\":2374:2377   */\n      dup5\n        /* \"#utility.yul\":2370:2386   */\n      add\n        /* \"#utility.yul\":2367:2392   */\n      gt\n        /* \"#utility.yul\":2364:2476   */\n      iszero\n      tag_507\n      jumpi\n        /* \"#utility.yul\":2395:2474   */\n      tag_508\n      tag_394\n      jump\t// in\n    tag_508:\n        /* \"#utility.yul\":2364:2476   */\n    tag_507:\n        /* \"#utility.yul\":2485:2539   */\n      tag_509\n        /* \"#utility.yul\":2532:2538   */\n      dup5\n        /* \"#utility.yul\":2527:2530   */\n      dup3\n        /* \"#utility.yul\":2522:2525   */\n      dup6\n        /* \"#utility.yul\":2485:2539   */\n      tag_399\n      jump\t// in\n    tag_509:\n        /* \"#utility.yul\":2204:2545   */\n      pop\n        /* \"#utility.yul\":2120:2545   */\n      swap4\n      swap3\n      pop\n      pop\n      pop\n      jump\t// out\n        /* \"#utility.yul\":2565:2905   */\n    tag_401:\n        /* \"#utility.yul\":2621:2626   */\n      0x00\n        /* \"#utility.yul\":2670:2673   */\n      dup3\n        /* \"#utility.yul\":2663:2667   */\n      0x1f\n        /* \"#utility.yul\":2655:2661   */\n      dup4\n        /* \"#utility.yul\":2651:2668   */\n      add\n        /* \"#utility.yul\":2647:2674   */\n      slt\n        /* \"#utility.yul\":2637:2759   */\n      tag_511\n      jumpi\n        /* \"#utility.yul\":2678:2757   */\n      tag_512\n      tag_393\n      jump\t// in\n    tag_512:\n        /* \"#utility.yul\":2637:2759   */\n    tag_511:\n        /* \"#utility.yul\":2795:2801   */\n      dup2\n        /* \"#utility.yul\":2782:2802   */\n      calldataload\n        /* \"#utility.yul\":2820:2899   */\n      tag_513\n        /* \"#utility.yul\":2895:2898   */\n      dup5\n        /* \"#utility.yul\":2887:2893   */\n      dup3\n        /* \"#utility.yul\":2880:2884   */\n      0x20\n        /* \"#utility.yul\":2872:2878   */\n      dup7\n        /* \"#utility.yul\":2868:2885   */\n      add\n        /* \"#utility.yul\":2820:2899   */\n      tag_400\n      jump\t// in\n    tag_513:\n        /* \"#utility.yul\":2811:2899   */\n      swap2\n      pop\n        /* \"#utility.yul\":2627:2905   */\n      pop\n        /* \"#utility.yul\":2565:2905   */\n      swap3\n      swap2\n      pop\n      pop\n      jump\t// out\n        /* \"#utility.yul\":2911:3565   */\n    tag_23:\n        /* \"#utility.yul\":2989:2995   */\n      0x00\n        /* \"#utility.yul\":2997:3003   */\n      0x00\n        /* \"#utility.yul\":3046:3048   */\n      0x40\n        /* \"#utility.yul\":3034:3043   */\n      dup4\n        /* \"#utility.yul\":3025:3032   */\n      dup6\n        /* \"#utility.yul\":3021:3044   */\n      sub\n        /* \"#utility.yul\":3017:3049   */\n      slt\n        /* \"#utility.yul\":3014:3133   */\n      iszero\n      tag_515\n      jumpi\n        /* \"#utility.yul\":3052:3131   */\n      tag_516\n      tag_388\n      jump\t// in\n    tag_516:\n        /* \"#utility.yul\":3014:3133   */\n    tag_515:\n        /* \"#utility.yul\":3172:3173   */\n      0x00\n        /* \"#utility.yul\":3197:3250   */\n      tag_517\n        /* \"#utility.yul\":3242:3249   */\n      dup6\n        /* \"#utility.yul\":3233:3239   */\n      dup3\n        /* \"#utility.yul\":3222:3231   */\n      dup7\n        /* \"#utility.yul\":3218:3240   */\n      add\n        /* \"#utility.yul\":3197:3250   */\n      tag_392\n      jump\t// in\n    tag_517:\n        /* \"#utility.yul\":3187:3250   */\n      swap3\n      pop\n        /* \"#utility.yul\":3143:3260   */\n      pop\n        /* \"#utility.yul\":3327:3329   */\n      0x20\n        /* \"#utility.yul\":3316:3325   */\n      dup4\n        /* \"#utility.yul\":3312:3330   */\n      add\n        /* \"#utility.yul\":3299:3331   */\n      calldataload\n        /* \"#utility.yul\":3358:3376   */\n      0xffffffffffffffff\n        /* \"#utility.yul\":3350:3356   */\n      dup2\n        /* \"#utility.yul\":3347:3377   */\n      gt\n        /* \"#utility.yul\":3344:3461   */\n      iszero\n      tag_518\n      jumpi\n        /* \"#utility.yul\":3380:3459   */\n      tag_519\n      tag_389\n      jump\t// in\n    tag_519:\n        /* \"#utility.yul\":3344:3461   */\n    tag_518:\n        /* \"#utility.yul\":3485:3548   */\n      tag_520\n        /* \"#utility.yul\":3540:3547   */\n      dup6\n        /* \"#utility.yul\":3531:3537   */\n      dup3\n        /* \"#utility.yul\":3520:3529   */\n      dup7\n        /* \"#utility.yul\":3516:3538   */\n      add\n        /* \"#utility.yul\":3485:3548   */\n      tag_401\n      jump\t// in\n    tag_520:\n        /* \"#utility.yul\":3475:3548   */\n      swap2\n      pop\n        /* \"#utility.yul\":3270:3558   */\n      pop\n        /* \"#utility.yul\":2911:3565   */\n      swap3\n      pop\n      swap3\n      swap1\n      pop\n      jump\t// out\n        /* \"#utility.yul\":3571:3697   */\n    tag_402:\n        /* \"#utility.yul\":3608:3615   */\n      0x00\n        /* \"#utility.yul\":3648:3690   */\n      0xffffffffffffffffffffffffffffffffffffffff\n        /* \"#utility.yul\":3641:3646   */\n      dup3\n        /* \"#utility.yul\":3637:3691   */\n      and\n        /* \"#utility.yul\":3626:3691   */\n      swap1\n      pop\n        /* \"#utility.yul\":3571:3697   */\n      swap2\n      swap1\n      pop\n      jump\t// out\n        /* \"#utility.yul\":3703:3763   */\n    tag_403:\n        /* \"#utility.yul\":3731:3734   */\n      0x00\n        /* \"#utility.yul\":3752:3757   */\n      dup2\n        /* \"#utility.yul\":3745:3757   */\n      swap1\n      pop\n        /* \"#utility.yul\":3703:3763   */\n      swap2\n      swap1\n      pop\n      jump\t// out\n        /* \"#utility.yul\":3769:3911   */\n    tag_404:\n        /* \"#utility.yul\":3819:3828   */\n      0x00\n        /* \"#utility.yul\":3852:3905   */\n      tag_524\n        /* \"#utility.yul\":3870:3904   */\n      tag_525\n        /* \"#utility.yul\":3879:3903   */\n      tag_526\n        /* \"#utility.yul\":3897:3902   */\n      dup5\n        /* \"#utility.yul\":3879:3903   */\n      tag_402\n      jump\t// in\n    tag_526:\n        /* \"#utility.yul\":3870:3904   */\n      tag_403\n      jump\t// in\n    tag_525:\n        /* \"#utility.yul\":3852:3905   */\n      tag_402\n      jump\t// in\n    tag_524:\n        /* \"#utility.yul\":3839:3905   */\n      swap1\n      pop\n        /* \"#utility.yul\":3769:3911   */\n      swap2\n      swap1\n      pop\n      jump\t// out\n        /* \"#utility.yul\":3917:4043   */\n    tag_405:\n        /* \"#utility.yul\":3967:3976   */\n      0x00\n        /* \"#utility.yul\":4000:4037   */\n      tag_528\n        /* \"#utility.yul\":4031:4036   */\n      dup3\n        /* \"#utility.yul\":4000:4037   */\n      tag_404\n      jump\t// in\n    tag_528:\n        /* \"#utility.yul\":3987:4037   */\n      swap1\n      pop\n        /* \"#utility.yul\":3917:4043   */\n      swap2\n      swap1\n      pop\n      jump\t// out\n        /* \"#utility.yul\":4049:4200   */\n    tag_406:\n        /* \"#utility.yul\":4124:4133   */\n      0x00\n        /* \"#utility.yul\":4157:4194   */\n      tag_530\n        /* \"#utility.yul\":4188:4193   */\n      dup3\n        /* \"#utility.yul\":4157:4194   */\n      tag_405\n      jump\t// in\n    tag_530:\n        /* \"#utility.yul\":4144:4194   */\n      swap1\n      pop\n        /* \"#utility.yul\":4049:4200   */\n      swap2\n      swap1\n      pop\n      jump\t// out\n        /* \"#utility.yul\":4206:4387   */\n    tag_407:\n        /* \"#utility.yul\":4318:4380   */\n      tag_532\n        /* \"#utility.yul\":4374:4379   */\n      dup2\n        /* \"#utility.yul\":4318:4380   */\n      tag_406\n      jump\t// in\n    tag_532:\n        /* \"#utility.yul\":4313:4316   */\n      dup3\n        /* \"#utility.yul\":4306:4381   */\n      mstore\n        /* \"#utility.yul\":4206:4387   */\n      pop\n      pop\n      jump\t// out\n        /* \"#utility.yul\":4393:4665   */\n    tag_29:\n        /* \"#utility.yul\":4511:4515   */\n      0x00\n        /* \"#utility.yul\":4549:4551   */\n      0x20\n        /* \"#utility.yul\":4538:4547   */\n      dup3\n        /* \"#utility.yul\":4534:4552   */\n      add\n        /* \"#utility.yul\":4526:4552   */\n      swap1\n      pop\n        /* \"#utility.yul\":4562:4658   */\n      tag_534\n        /* \"#utility.yul\":4655:4656   */\n      0x00\n        /* \"#utility.yul\":4644:4653   */\n      dup4\n        /* \"#utility.yul\":4640:4657   */\n      add\n        /* \"#utility.yul\":4631:4637   */\n      dup5\n        /* \"#utility.yul\":4562:4658   */\n      tag_407\n      jump\t// in\n    tag_534:\n        /* \"#utility.yul\":4393:4665   */\n      swap3\n      swap2\n      pop\n      pop\n      jump\t// out\n        /* \"#utility.yul\":4671:4767   */\n    tag_408:\n        /* \"#utility.yul\":4708:4715   */\n      0x00\n        /* \"#utility.yul\":4737:4761   */\n      tag_536\n        /* \"#utility.yul\":4755:4760   */\n      dup3\n        /* \"#utility.yul\":4737:4761   */\n      tag_402\n      jump\t// in\n    tag_536:\n        /* \"#utility.yul\":4726:4761   */\n      swap1\n      pop\n        /* \"#utility.yul\":4671:4767   */\n      swap2\n      swap1\n      pop\n      jump\t// out\n        /* \"#utility.yul\":4773:4895   */\n    tag_409:\n        /* \"#utility.yul\":4846:4870   */\n      tag_538\n        /* \"#utility.yul\":4864:4869   */\n      dup2\n        /* \"#utility.yul\":4846:4870   */\n      tag_408\n      jump\t// in\n    tag_538:\n        /* \"#utility.yul\":4839:4844   */\n      dup2\n        /* \"#utility.yul\":4836:4871   */\n      eq\n        /* \"#utility.yul\":4826:4889   */\n      tag_539\n      jumpi\n        /* \"#utility.yul\":4885:4886   */\n      0x00\n        /* \"#utility.yul\":4882:4883   */\n      0x00\n        /* \"#utility.yul\":4875:4887   */\n      revert\n        /* \"#utility.yul\":4826:4889   */\n    tag_539:\n        /* \"#utility.yul\":4773:4895   */\n      pop\n      jump\t// out\n        /* \"#utility.yul\":4901:5040   */\n    tag_410:\n        /* \"#utility.yul\":4947:4952   */\n      0x00\n        /* \"#utility.yul\":4985:4991   */\n      dup2\n        /* \"#utility.yul\":4972:4992   */\n      calldataload\n        /* \"#utility.yul\":4963:4992   */\n      swap1\n      pop\n        /* \"#utility.yul\":5001:5034   */\n      tag_541\n        /* \"#utility.yul\":5028:5033   */\n      dup2\n        /* \"#utility.yul\":5001:5034   */\n      tag_409\n      jump\t// in\n    tag_541:\n        /* \"#utility.yul\":4901:5040   */\n      swap3\n      swap2\n      pop\n      pop\n      jump\t// out\n        /* \"#utility.yul\":5046:5375   */\n    tag_33:\n        /* \"#utility.yul\":5105:5111   */\n      0x00\n        /* \"#utility.yul\":5154:5156   */\n      0x20\n        /* \"#utility.yul\":5142:5151   */\n      dup3\n        /* \"#utility.yul\":5133:5140   */\n      dup5\n        /* \"#utility.yul\":5129:5152   */\n      sub\n        /* \"#utility.yul\":5125:5157   */\n      slt\n        /* \"#utility.yul\":5122:5241   */\n      iszero\n      tag_543\n      jumpi\n        /* \"#utility.yul\":5160:5239   */\n      tag_544\n      tag_388\n      jump\t// in\n    tag_544:\n        /* \"#utility.yul\":5122:5241   */\n    tag_543:\n        /* \"#utility.yul\":5280:5281   */\n      0x00\n        /* \"#utility.yul\":5305:5358   */\n      tag_545\n        /* \"#utility.yul\":5350:5357   */\n      dup5\n        /* \"#utility.yul\":5341:5347   */\n      dup3\n        /* \"#utility.yul\":5330:5339   */\n      dup6\n        /* \"#utility.yul\":5326:5348   */\n      add\n        /* \"#utility.yul\":5305:5358   */\n      tag_410\n      jump\t// in\n    tag_545:\n        /* \"#utility.yul\":5295:5358   */\n      swap2\n      pop\n        /* \"#utility.yul\":5251:5368   */\n      pop\n        /* \"#utility.yul\":5046:5375   */\n      swap3\n      swap2\n      pop\n      pop\n      jump\t// out\n        /* \"#utility.yul\":5381:5499   */\n    tag_411:\n        /* \"#utility.yul\":5468:5492   */\n      tag_547\n        /* \"#utility.yul\":5486:5491   */\n      dup2\n        /* \"#utility.yul\":5468:5492   */\n      tag_390\n      jump\t// in\n    tag_547:\n        /* \"#utility.yul\":5463:5466   */\n      dup3\n        /* \"#utility.yul\":5456:5493   */\n      mstore\n        /* \"#utility.yul\":5381:5499   */\n      pop\n      pop\n      jump\t// out\n        /* \"#utility.yul\":5505:5623   */\n    tag_412:\n        /* \"#utility.yul\":5592:5616   */\n      tag_549\n        /* \"#utility.yul\":5610:5615   */\n      dup2\n        /* \"#utility.yul\":5592:5616   */\n      tag_408\n      jump\t// in\n    tag_549:\n        /* \"#utility.yul\":5587:5590   */\n      dup3\n        /* \"#utility.yul\":5580:5617   */\n      mstore\n        /* \"#utility.yul\":5505:5623   */\n      pop\n      pop\n      jump\t// out\n        /* \"#utility.yul\":5629:6071   */\n    tag_36:\n        /* \"#utility.yul\":5778:5782   */\n      0x00\n        /* \"#utility.yul\":5816:5818   */\n      0x60\n        /* \"#utility.yul\":5805:5814   */\n      dup3\n        /* \"#utility.yul\":5801:5819   */\n      add\n        /* \"#utility.yul\":5793:5819   */\n      swap1\n      pop\n        /* \"#utility.yul\":5829:5900   */\n      tag_551\n        /* \"#utility.yul\":5897:5898   */\n      0x00\n        /* \"#utility.yul\":5886:5895   */\n      dup4\n        /* \"#utility.yul\":5882:5899   */\n      add\n        /* \"#utility.yul\":5873:5879   */\n      dup7\n        /* \"#utility.yul\":5829:5900   */\n      tag_411\n      jump\t// in\n    tag_551:\n        /* \"#utility.yul\":5910:5982   */\n      tag_552\n        /* \"#utility.yul\":5978:5980   */\n      0x20\n        /* \"#utility.yul\":5967:5976   */\n      dup4\n        /* \"#utility.yul\":5963:5981   */\n      add\n        /* \"#utility.yul\":5954:5960   */\n      dup6\n        /* \"#utility.yul\":5910:5982   */\n      tag_411\n      jump\t// in\n    tag_552:\n        /* \"#utility.yul\":5992:6064   */\n      tag_553\n        /* \"#utility.yul\":6060:6062   */\n      0x40\n        /* \"#utility.yul\":6049:6058   */\n      dup4\n        /* \"#utility.yul\":6045:6063   */\n      add\n        /* \"#utility.yul\":6036:6042   */\n      dup5\n        /* \"#utility.yul\":5992:6064   */\n      tag_412\n      jump\t// in\n    tag_553:\n        /* \"#utility.yul\":5629:6071   */\n      swap5\n      swap4\n      pop\n      pop\n      pop\n      pop\n      jump\t// out\n        /* \"#utility.yul\":6077:6551   */\n    tag_43:\n        /* \"#utility.yul\":6145:6151   */\n      0x00\n        /* \"#utility.yul\":6153:6159   */\n      0x00\n        /* \"#utility.yul\":6202:6204   */\n      0x40\n        /* \"#utility.yul\":6190:6199   */\n      dup4\n        /* \"#utility.yul\":6181:6188   */\n      dup6\n        /* \"#utility.yul\":6177:6200   */\n      sub\n        /* \"#utility.yul\":6173:6205   */\n      slt\n        /* \"#utility.yul\":6170:6289   */\n      iszero\n      tag_555\n      jumpi\n        /* \"#utility.yul\":6208:6287   */\n      tag_556\n      tag_388\n      jump\t// in\n    tag_556:\n        /* \"#utility.yul\":6170:6289   */\n    tag_555:\n        /* \"#utility.yul\":6328:6329   */\n      0x00\n        /* \"#utility.yul\":6353:6406   */\n      tag_557\n        /* \"#utility.yul\":6398:6405   */\n      dup6\n        /* \"#utility.yul\":6389:6395   */\n      dup3\n        /* \"#utility.yul\":6378:6387   */\n      dup7\n        /* \"#utility.yul\":6374:6396   */\n      add\n        /* \"#utility.yul\":6353:6406   */\n      tag_410\n      jump\t// in\n    tag_557:\n        /* \"#utility.yul\":6343:6406   */\n      swap3\n      pop\n        /* \"#utility.yul\":6299:6416   */\n      pop\n        /* \"#utility.yul\":6455:6457   */\n      0x20\n        /* \"#utility.yul\":6481:6534   */\n      tag_558\n        /* \"#utility.yul\":6526:6533   */\n      dup6\n        /* \"#utility.yul\":6517:6523   */\n      dup3\n        /* \"#utility.yul\":6506:6515   */\n      dup7\n        /* \"#utility.yul\":6502:6524   */\n      add\n        /* \"#utility.yul\":6481:6534   */\n      tag_410\n      jump\t// in\n    tag_558:\n        /* \"#utility.yul\":6471:6534   */\n      swap2\n      pop\n        /* \"#utility.yul\":6426:6544   */\n      pop\n        /* \"#utility.yul\":6077:6551   */\n      swap3\n      pop\n      swap3\n      swap1\n      pop\n      jump\t// out\n        /* \"#utility.yul\":6557:6864   */\n    tag_413:\n        /* \"#utility.yul\":6618:6622   */\n      0x00\n        /* \"#utility.yul\":6708:6726   */\n      0xffffffffffffffff\n        /* \"#utility.yul\":6700:6706   */\n      dup3\n        /* \"#utility.yul\":6697:6727   */\n      gt\n        /* \"#utility.yul\":6694:6750   */\n      iszero\n      tag_560\n      jumpi\n        /* \"#utility.yul\":6730:6748   */\n      tag_561\n      tag_215\n      jump\t// in\n    tag_561:\n        /* \"#utility.yul\":6694:6750   */\n    tag_560:\n        /* \"#utility.yul\":6768:6797   */\n      tag_562\n        /* \"#utility.yul\":6790:6796   */\n      dup3\n        /* \"#utility.yul\":6768:6797   */\n      tag_395\n      jump\t// in\n    tag_562:\n        /* \"#utility.yul\":6760:6797   */\n      swap1\n      pop\n        /* \"#utility.yul\":6852:6856   */\n      0x20\n        /* \"#utility.yul\":6846:6850   */\n      dup2\n        /* \"#utility.yul\":6842:6857   */\n      add\n        /* \"#utility.yul\":6834:6857   */\n      swap1\n      pop\n        /* \"#utility.yul\":6557:6864   */\n      swap2\n      swap1\n      pop\n      jump\t// out\n        /* \"#utility.yul\":6870:7293   */\n    tag_414:\n        /* \"#utility.yul\":6947:6952   */\n      0x00\n        /* \"#utility.yul\":6972:7037   */\n      tag_564\n        /* \"#utility.yul\":6988:7036   */\n      tag_565\n        /* \"#utility.yul\":7029:7035   */\n      dup5\n        /* \"#utility.yul\":6988:7036   */\n      tag_413\n      jump\t// in\n    tag_565:\n        /* \"#utility.yul\":6972:7037   */\n      tag_397\n      jump\t// in\n    tag_564:\n        /* \"#utility.yul\":6963:7037   */\n      swap1\n      pop\n        /* \"#utility.yul\":7060:7066   */\n      dup3\n        /* \"#utility.yul\":7053:7058   */\n      dup2\n        /* \"#utility.yul\":7046:7067   */\n      mstore\n        /* \"#utility.yul\":7098:7102   */\n      0x20\n        /* \"#utility.yul\":7091:7096   */\n      dup2\n        /* \"#utility.yul\":7087:7103   */\n      add\n        /* \"#utility.yul\":7136:7139   */\n      dup5\n        /* \"#utility.yul\":7127:7133   */\n      dup5\n        /* \"#utility.yul\":7122:7125   */\n      dup5\n        /* \"#utility.yul\":7118:7134   */\n      add\n        /* \"#utility.yul\":7115:7140   */\n      gt\n        /* \"#utility.yul\":7112:7224   */\n      iszero\n      tag_566\n      jumpi\n        /* \"#utility.yul\":7143:7222   */\n      tag_567\n      tag_394\n      jump\t// in\n    tag_567:\n        /* \"#utility.yul\":7112:7224   */\n    tag_566:\n        /* \"#utility.yul\":7233:7287   */\n      tag_568\n        /* \"#utility.yul\":7280:7286   */\n      dup5\n        /* \"#utility.yul\":7275:7278   */\n      dup3\n        /* \"#utility.yul\":7270:7273   */\n      dup6\n        /* \"#utility.yul\":7233:7287   */\n      tag_399\n      jump\t// in\n    tag_568:\n        /* \"#utility.yul\":6953:7293   */\n      pop\n        /* \"#utility.yul\":6870:7293   */\n      swap4\n      swap3\n      pop\n      pop\n      pop\n      jump\t// out\n        /* \"#utility.yul\":7312:7650   */\n    tag_415:\n        /* \"#utility.yul\":7367:7372   */\n      0x00\n        /* \"#utility.yul\":7416:7419   */\n      dup3\n        /* \"#utility.yul\":7409:7413   */\n      0x1f\n        /* \"#utility.yul\":7401:7407   */\n      dup4\n        /* \"#utility.yul\":7397:7414   */\n      add\n        /* \"#utility.yul\":7393:7420   */\n      slt\n        /* \"#utility.yul\":7383:7505   */\n      tag_570\n      jumpi\n        /* \"#utility.yul\":7424:7503   */\n      tag_571\n      tag_393\n      jump\t// in\n    tag_571:\n        /* \"#utility.yul\":7383:7505   */\n    tag_570:\n        /* \"#utility.yul\":7541:7547   */\n      dup2\n        /* \"#utility.yul\":7528:7548   */\n      calldataload\n        /* \"#utility.yul\":7566:7644   */\n      tag_572\n        /* \"#utility.yul\":7640:7643   */\n      dup5\n        /* \"#utility.yul\":7632:7638   */\n      dup3\n        /* \"#utility.yul\":7625:7629   */\n      0x20\n        /* \"#utility.yul\":7617:7623   */\n      dup7\n        /* \"#utility.yul\":7613:7630   */\n      add\n        /* \"#utility.yul\":7566:7644   */\n      tag_414\n      jump\t// in\n    tag_572:\n        /* \"#utility.yul\":7557:7644   */\n      swap2\n      pop\n        /* \"#utility.yul\":7373:7650   */\n      pop\n        /* \"#utility.yul\":7312:7650   */\n      swap3\n      swap2\n      pop\n      pop\n      jump\t// out\n        /* \"#utility.yul\":7656:8308   */\n    tag_47:\n        /* \"#utility.yul\":7733:7739   */\n      0x00\n        /* \"#utility.yul\":7741:7747   */\n      0x00\n        /* \"#utility.yul\":7790:7792   */\n      0x40\n        /* \"#utility.yul\":7778:7787   */\n      dup4\n        /* \"#utility.yul\":7769:7776   */\n      dup6\n        /* \"#utility.yul\":7765:7788   */\n      sub\n        /* \"#utility.yul\":7761:7793   */\n      slt\n        /* \"#utility.yul\":7758:7877   */\n      iszero\n      tag_574\n      jumpi\n        /* \"#utility.yul\":7796:7875   */\n      tag_575\n      tag_388\n      jump\t// in\n    tag_575:\n        /* \"#utility.yul\":7758:7877   */\n    tag_574:\n        /* \"#utility.yul\":7916:7917   */\n      0x00\n        /* \"#utility.yul\":7941:7994   */\n      tag_576\n        /* \"#utility.yul\":7986:7993   */\n      dup6\n        /* \"#utility.yul\":7977:7983   */\n      dup3\n        /* \"#utility.yul\":7966:7975   */\n      dup7\n        /* \"#utility.yul\":7962:7984   */\n      add\n        /* \"#utility.yul\":7941:7994   */\n      tag_410\n      jump\t// in\n    tag_576:\n        /* \"#utility.yul\":7931:7994   */\n      swap3\n      pop\n        /* \"#utility.yul\":7887:8004   */\n      pop\n        /* \"#utility.yul\":8071:8073   */\n      0x20\n        /* \"#utility.yul\":8060:8069   */\n      dup4\n        /* \"#utility.yul\":8056:8074   */\n      add\n        /* \"#utility.yul\":8043:8075   */\n      calldataload\n        /* \"#utility.yul\":8102:8120   */\n      0xffffffffffffffff\n        /* \"#utility.yul\":8094:8100   */\n      dup2\n        /* \"#utility.yul\":8091:8121   */\n      gt\n        /* \"#utility.yul\":8088:8205   */\n      iszero\n      tag_577\n      jumpi\n        /* \"#utility.yul\":8124:8203   */\n      tag_578\n      tag_389\n      jump\t// in\n    tag_578:\n        /* \"#utility.yul\":8088:8205   */\n    tag_577:\n        /* \"#utility.yul\":8229:8291   */\n      tag_579\n        /* \"#utility.yul\":8283:8290   */\n      dup6\n        /* \"#utility.yul\":8274:8280   */\n      dup3\n        /* \"#utility.yul\":8263:8272   */\n      dup7\n        /* \"#utility.yul\":8259:8281   */\n      add\n        /* \"#utility.yul\":8229:8291   */\n      tag_415\n      jump\t// in\n    tag_579:\n        /* \"#utility.yul\":8219:8291   */\n      swap2\n      pop\n        /* \"#utility.yul\":8014:8301   */\n      pop\n        /* \"#utility.yul\":7656:8308   */\n      swap3\n      pop\n      swap3\n      swap1\n      pop\n      jump\t// out\n        /* \"#utility.yul\":8314:8391   */\n    tag_416:\n        /* \"#utility.yul\":8351:8358   */\n      0x00\n        /* \"#utility.yul\":8380:8385   */\n      dup2\n        /* \"#utility.yul\":8369:8385   */\n      swap1\n      pop\n        /* \"#utility.yul\":8314:8391   */\n      swap2\n      swap1\n      pop\n      jump\t// out\n        /* \"#utility.yul\":8397:8515   */\n    tag_417:\n        /* \"#utility.yul\":8484:8508   */\n      tag_582\n        /* \"#utility.yul\":8502:8507   */\n      dup2\n        /* \"#utility.yul\":8484:8508   */\n      tag_416\n      jump\t// in\n    tag_582:\n        /* \"#utility.yul\":8479:8482   */\n      dup3\n        /* \"#utility.yul\":8472:8509   */\n      mstore\n        /* \"#utility.yul\":8397:8515   */\n      pop\n      pop\n      jump\t// out\n        /* \"#utility.yul\":8521:8743   */\n    tag_53:\n        /* \"#utility.yul\":8614:8618   */\n      0x00\n        /* \"#utility.yul\":8652:8654   */\n      0x20\n        /* \"#utility.yul\":8641:8650   */\n      dup3\n        /* \"#utility.yul\":8637:8655   */\n      add\n        /* \"#utility.yul\":8629:8655   */\n      swap1\n      pop\n        /* \"#utility.yul\":8665:8736   */\n      tag_584\n        /* \"#utility.yul\":8733:8734   */\n      0x00\n        /* \"#utility.yul\":8722:8731   */\n      dup4\n        /* \"#utility.yul\":8718:8735   */\n      add\n        /* \"#utility.yul\":8709:8715   */\n      dup5\n        /* \"#utility.yul\":8665:8736   */\n      tag_417\n      jump\t// in\n    tag_584:\n        /* \"#utility.yul\":8521:8743   */\n      swap3\n      swap2\n      pop\n      pop\n      jump\t// out\n        /* \"#utility.yul\":8749:8848   */\n    tag_418:\n        /* \"#utility.yul\":8801:8807   */\n      0x00\n        /* \"#utility.yul\":8835:8840   */\n      dup2\n        /* \"#utility.yul\":8829:8841   */\n      mload\n        /* \"#utility.yul\":8819:8841   */\n      swap1\n      pop\n        /* \"#utility.yul\":8749:8848   */\n      swap2\n      swap1\n      pop\n      jump\t// out\n        /* \"#utility.yul\":8854:9023   */\n    tag_419:\n        /* \"#utility.yul\":8938:8949   */\n      0x00\n        /* \"#utility.yul\":8972:8978   */\n      dup3\n        /* \"#utility.yul\":8967:8970   */\n      dup3\n        /* \"#utility.yul\":8960:8979   */\n      mstore\n        /* \"#utility.yul\":9012:9016   */\n      0x20\n        /* \"#utility.yul\":9007:9010   */\n      dup3\n        /* \"#utility.yul\":9003:9017   */\n      add\n        /* \"#utility.yul\":8988:9017   */\n      swap1\n      pop\n        /* \"#utility.yul\":8854:9023   */\n      swap3\n      swap2\n      pop\n      pop\n      jump\t// out\n        /* \"#utility.yul\":9029:9168   */\n    tag_420:\n        /* \"#utility.yul\":9118:9124   */\n      dup3\n        /* \"#utility.yul\":9113:9116   */\n      dup2\n        /* \"#utility.yul\":9108:9111   */\n      dup4\n        /* \"#utility.yul\":9102:9125   */\n      mcopy\n        /* \"#utility.yul\":9159:9160   */\n      0x00\n        /* \"#utility.yul\":9150:9156   */\n      dup4\n        /* \"#utility.yul\":9145:9148   */\n      dup4\n        /* \"#utility.yul\":9141:9157   */\n      add\n        /* \"#utility.yul\":9134:9161   */\n      mstore\n        /* \"#utility.yul\":9029:9168   */\n      pop\n      pop\n      pop\n      jump\t// out\n        /* \"#utility.yul\":9174:9551   */\n    tag_421:\n        /* \"#utility.yul\":9262:9265   */\n      0x00\n        /* \"#utility.yul\":9290:9329   */\n      tag_589\n        /* \"#utility.yul\":9323:9328   */\n      dup3\n        /* \"#utility.yul\":9290:9329   */\n      tag_418\n      jump\t// in\n    tag_589:\n        /* \"#utility.yul\":9345:9416   */\n      tag_590\n        /* \"#utility.yul\":9409:9415   */\n      dup2\n        /* \"#utility.yul\":9404:9407   */\n      dup6\n        /* \"#utility.yul\":9345:9416   */\n      tag_419\n      jump\t// in\n    tag_590:\n        /* \"#utility.yul\":9338:9416   */\n      swap4\n      pop\n        /* \"#utility.yul\":9425:9490   */\n      tag_591\n        /* \"#utility.yul\":9483:9489   */\n      dup2\n        /* \"#utility.yul\":9478:9481   */\n      dup6\n        /* \"#utility.yul\":9471:9475   */\n      0x20\n        /* \"#utility.yul\":9464:9469   */\n      dup7\n        /* \"#utility.yul\":9460:9476   */\n      add\n        /* \"#utility.yul\":9425:9490   */\n      tag_420\n      jump\t// in\n    tag_591:\n        /* \"#utility.yul\":9515:9544   */\n      tag_592\n        /* \"#utility.yul\":9537:9543   */\n      dup2\n        /* \"#utility.yul\":9515:9544   */\n      tag_395\n      jump\t// in\n    tag_592:\n        /* \"#utility.yul\":9510:9513   */\n      dup5\n        /* \"#utility.yul\":9506:9545   */\n      add\n        /* \"#utility.yul\":9499:9545   */\n      swap2\n      pop\n        /* \"#utility.yul\":9266:9551   */\n      pop\n        /* \"#utility.yul\":9174:9551   */\n      swap3\n      swap2\n      pop\n      pop\n      jump\t// out\n        /* \"#utility.yul\":9557:9870   */\n    tag_61:\n        /* \"#utility.yul\":9670:9674   */\n      0x00\n        /* \"#utility.yul\":9708:9710   */\n      0x20\n        /* \"#utility.yul\":9697:9706   */\n      dup3\n        /* \"#utility.yul\":9693:9711   */\n      add\n        /* \"#utility.yul\":9685:9711   */\n      swap1\n      pop\n        /* \"#utility.yul\":9757:9766   */\n      dup2\n        /* \"#utility.yul\":9751:9755   */\n      dup2\n        /* \"#utility.yul\":9747:9767   */\n      sub\n        /* \"#utility.yul\":9743:9744   */\n      0x00\n        /* \"#utility.yul\":9732:9741   */\n      dup4\n        /* \"#utility.yul\":9728:9745   */\n      add\n        /* \"#utility.yul\":9721:9768   */\n      mstore\n        /* \"#utility.yul\":9785:9863   */\n      tag_594\n        /* \"#utility.yul\":9858:9862   */\n      dup2\n        /* \"#utility.yul\":9849:9855   */\n      dup5\n        /* \"#utility.yul\":9785:9863   */\n      tag_421\n      jump\t// in\n    tag_594:\n        /* \"#utility.yul\":9777:9863   */\n      swap1\n      pop\n        /* \"#utility.yul\":9557:9870   */\n      swap3\n      swap2\n      pop\n      pop\n      jump\t// out\n        /* \"#utility.yul\":9876:10098   */\n    tag_66:\n        /* \"#utility.yul\":9969:9973   */\n      0x00\n        /* \"#utility.yul\":10007:10009   */\n      0x20\n        /* \"#utility.yul\":9996:10005   */\n      dup3\n        /* \"#utility.yul\":9992:10010   */\n      add\n        /* \"#utility.yul\":9984:10010   */\n      swap1\n      pop\n        /* \"#utility.yul\":10020:10091   */\n      tag_596\n        /* \"#utility.yul\":10088:10089   */\n      0x00\n        /* \"#utility.yul\":10077:10086   */\n      dup4\n        /* \"#utility.yul\":10073:10090   */\n      add\n        /* \"#utility.yul\":10064:10070   */\n      dup5\n        /* \"#utility.yul\":10020:10091   */\n      tag_412\n      jump\t// in\n    tag_596:\n        /* \"#utility.yul\":9876:10098   */\n      swap3\n      swap2\n      pop\n      pop\n      jump\t// out\n        /* \"#utility.yul\":10104:10251   */\n    tag_422:\n        /* \"#utility.yul\":10175:10184   */\n      0x00\n        /* \"#utility.yul\":10208:10245   */\n      tag_598\n        /* \"#utility.yul\":10239:10244   */\n      dup3\n        /* \"#utility.yul\":10208:10245   */\n      tag_405\n      jump\t// in\n    tag_598:\n        /* \"#utility.yul\":10195:10245   */\n      swap1\n      pop\n        /* \"#utility.yul\":10104:10251   */\n      swap2\n      swap1\n      pop\n      jump\t// out\n        /* \"#utility.yul\":10257:10430   */\n    tag_423:\n        /* \"#utility.yul\":10365:10423   */\n      tag_600\n        /* \"#utility.yul\":10417:10422   */\n      dup2\n        /* \"#utility.yul\":10365:10423   */\n      tag_422\n      jump\t// in\n    tag_600:\n        /* \"#utility.yul\":10360:10363   */\n      dup3\n        /* \"#utility.yul\":10353:10424   */\n      mstore\n        /* \"#utility.yul\":10257:10430   */\n      pop\n      pop\n      jump\t// out\n        /* \"#utility.yul\":10436:10700   */\n    tag_71:\n        /* \"#utility.yul\":10550:10554   */\n      0x00\n        /* \"#utility.yul\":10588:10590   */\n      0x20\n        /* \"#utility.yul\":10577:10586   */\n      dup3\n        /* \"#utility.yul\":10573:10591   */\n      add\n        /* \"#utility.yul\":10565:10591   */\n      swap1\n      pop\n        /* \"#utility.yul\":10601:10693   */\n      tag_602\n        /* \"#utility.yul\":10690:10691   */\n      0x00\n        /* \"#utility.yul\":10679:10688   */\n      dup4\n        /* \"#utility.yul\":10675:10692   */\n      add\n        /* \"#utility.yul\":10666:10672   */\n      dup5\n        /* \"#utility.yul\":10601:10693   */\n      tag_423\n      jump\t// in\n    tag_602:\n        /* \"#utility.yul\":10436:10700   */\n      swap3\n      swap2\n      pop\n      pop\n      jump\t// out\n        /* \"#utility.yul\":10706:11215   */\n    tag_75:\n        /* \"#utility.yul\":10775:10781   */\n      0x00\n        /* \"#utility.yul\":10824:10826   */\n      0x20\n        /* \"#utility.yul\":10812:10821   */\n      dup3\n        /* \"#utility.yul\":10803:10810   */\n      dup5\n        /* \"#utility.yul\":10799:10822   */\n      sub\n        /* \"#utility.yul\":10795:10827   */\n      slt\n        /* \"#utility.yul\":10792:10911   */\n      iszero\n      tag_604\n      jumpi\n        /* \"#utility.yul\":10830:10909   */\n      tag_605\n      tag_388\n      jump\t// in\n    tag_605:\n        /* \"#utility.yul\":10792:10911   */\n    tag_604:\n        /* \"#utility.yul\":10978:10979   */\n      0x00\n        /* \"#utility.yul\":10967:10976   */\n      dup3\n        /* \"#utility.yul\":10963:10980   */\n      add\n        /* \"#utility.yul\":10950:10981   */\n      calldataload\n        /* \"#utility.yul\":11008:11026   */\n      0xffffffffffffffff\n        /* \"#utility.yul\":11000:11006   */\n      dup2\n        /* \"#utility.yul\":10997:11027   */\n      gt\n        /* \"#utility.yul\":10994:11111   */\n      iszero\n      tag_606\n      jumpi\n        /* \"#utility.yul\":11030:11109   */\n      tag_607\n      tag_389\n      jump\t// in\n    tag_607:\n        /* \"#utility.yul\":10994:11111   */\n    tag_606:\n        /* \"#utility.yul\":11135:11198   */\n      tag_608\n        /* \"#utility.yul\":11190:11197   */\n      dup5\n        /* \"#utility.yul\":11181:11187   */\n      dup3\n        /* \"#utility.yul\":11170:11179   */\n      dup6\n        /* \"#utility.yul\":11166:11188   */\n      add\n        /* \"#utility.yul\":11135:11198   */\n      tag_401\n      jump\t// in\n    tag_608:\n        /* \"#utility.yul\":11125:11198   */\n      swap2\n      pop\n        /* \"#utility.yul\":10921:11208   */\n      pop\n        /* \"#utility.yul\":10706:11215   */\n      swap3\n      swap2\n      pop\n      pop\n      jump\t// out\n        /* \"#utility.yul\":11221:11397   */\n    tag_424:\n        /* \"#utility.yul\":11361:11389   */\n      0x5a61704170793a20416d6f756e74206d757374206265203e2030000000000000\n        /* \"#utility.yul\":11357:11358   */\n      0x00\n        /* \"#utility.yul\":11349:11355   */\n      dup3\n        /* \"#utility.yul\":11345:11359   */\n      add\n        /* \"#utility.yul\":11338:11390   */\n      mstore\n        /* \"#utility.yul\":11221:11397   */\n      pop\n      jump\t// out\n        /* \"#utility.yul\":11403:11769   */\n    tag_425:\n        /* \"#utility.yul\":11545:11548   */\n      0x00\n        /* \"#utility.yul\":11566:11633   */\n      tag_611\n        /* \"#utility.yul\":11630:11632   */\n      0x1a\n        /* \"#utility.yul\":11625:11628   */\n      dup4\n        /* \"#utility.yul\":11566:11633   */\n      tag_419\n      jump\t// in\n    tag_611:\n        /* \"#utility.yul\":11559:11633   */\n      swap2\n      pop\n        /* \"#utility.yul\":11642:11735   */\n      tag_612\n        /* \"#utility.yul\":11731:11734   */\n      dup3\n        /* \"#utility.yul\":11642:11735   */\n      tag_424\n      jump\t// in\n    tag_612:\n        /* \"#utility.yul\":11760:11762   */\n      0x20\n        /* \"#utility.yul\":11755:11758   */\n      dup3\n        /* \"#utility.yul\":11751:11763   */\n      add\n        /* \"#utility.yul\":11744:11763   */\n      swap1\n      pop\n        /* \"#utility.yul\":11403:11769   */\n      swap2\n      swap1\n      pop\n      jump\t// out\n        /* \"#utility.yul\":11775:12194   */\n    tag_97:\n        /* \"#utility.yul\":11941:11945   */\n      0x00\n        /* \"#utility.yul\":11979:11981   */\n      0x20\n        /* \"#utility.yul\":11968:11977   */\n      dup3\n        /* \"#utility.yul\":11964:11982   */\n      add\n        /* \"#utility.yul\":11956:11982   */\n      swap1\n      pop\n        /* \"#utility.yul\":12028:12037   */\n      dup2\n        /* \"#utility.yul\":12022:12026   */\n      dup2\n        /* \"#utility.yul\":12018:12038   */\n      sub\n        /* \"#utility.yul\":12014:12015   */\n      0x00\n        /* \"#utility.yul\":12003:12012   */\n      dup4\n        /* \"#utility.yul\":11999:12016   */\n      add\n        /* \"#utility.yul\":11992:12039   */\n      mstore\n        /* \"#utility.yul\":12056:12187   */\n      tag_614\n        /* \"#utility.yul\":12182:12186   */\n      dup2\n        /* \"#utility.yul\":12056:12187   */\n      tag_425\n      jump\t// in\n    tag_614:\n        /* \"#utility.yul\":12048:12187   */\n      swap1\n      pop\n        /* \"#utility.yul\":11775:12194   */\n      swap2\n      swap1\n      pop\n      jump\t// out\n        /* \"#utility.yul\":12200:12348   */\n    tag_426:\n        /* \"#utility.yul\":12302:12313   */\n      0x00\n        /* \"#utility.yul\":12339:12342   */\n      dup2\n        /* \"#utility.yul\":12324:12342   */\n      swap1\n      pop\n        /* \"#utility.yul\":12200:12348   */\n      swap3\n      swap2\n      pop\n      pop\n      jump\t// out\n        /* \"#utility.yul\":12354:12744   */\n    tag_427:\n        /* \"#utility.yul\":12460:12463   */\n      0x00\n        /* \"#utility.yul\":12488:12527   */\n      tag_617\n        /* \"#utility.yul\":12521:12526   */\n      dup3\n        /* \"#utility.yul\":12488:12527   */\n      tag_418\n      jump\t// in\n    tag_617:\n        /* \"#utility.yul\":12543:12632   */\n      tag_618\n        /* \"#utility.yul\":12625:12631   */\n      dup2\n        /* \"#utility.yul\":12620:12623   */\n      dup6\n        /* \"#utility.yul\":12543:12632   */\n      tag_426\n      jump\t// in\n    tag_618:\n        /* \"#utility.yul\":12536:12632   */\n      swap4\n      pop\n        /* \"#utility.yul\":12641:12706   */\n      tag_619\n        /* \"#utility.yul\":12699:12705   */\n      dup2\n        /* \"#utility.yul\":12694:12697   */\n      dup6\n        /* \"#utility.yul\":12687:12691   */\n      0x20\n        /* \"#utility.yul\":12680:12685   */\n      dup7\n        /* \"#utility.yul\":12676:12692   */\n      add\n        /* \"#utility.yul\":12641:12706   */\n      tag_420\n      jump\t// in\n    tag_619:\n        /* \"#utility.yul\":12731:12737   */\n      dup1\n        /* \"#utility.yul\":12726:12729   */\n      dup5\n        /* \"#utility.yul\":12722:12738   */\n      add\n        /* \"#utility.yul\":12715:12738   */\n      swap2\n      pop\n        /* \"#utility.yul\":12464:12744   */\n      pop\n        /* \"#utility.yul\":12354:12744   */\n      swap3\n      swap2\n      pop\n      pop\n      jump\t// out\n        /* \"#utility.yul\":12750:13025   */\n    tag_99:\n        /* \"#utility.yul\":12882:12885   */\n      0x00\n        /* \"#utility.yul\":12904:12999   */\n      tag_621\n        /* \"#utility.yul\":12995:12998   */\n      dup3\n        /* \"#utility.yul\":12986:12992   */\n      dup5\n        /* \"#utility.yul\":12904:12999   */\n      tag_427\n      jump\t// in\n    tag_621:\n        /* \"#utility.yul\":12897:12999   */\n      swap2\n      pop\n        /* \"#utility.yul\":13016:13019   */\n      dup2\n        /* \"#utility.yul\":13009:13019   */\n      swap1\n      pop\n        /* \"#utility.yul\":12750:13025   */\n      swap3\n      swap2\n      pop\n      pop\n      jump\t// out\n        /* \"#utility.yul\":13031:13211   */\n    tag_428:\n        /* \"#utility.yul\":13079:13156   */\n      0x4e487b7100000000000000000000000000000000000000000000000000000000\n        /* \"#utility.yul\":13076:13077   */\n      0x00\n        /* \"#utility.yul\":13069:13157   */\n      mstore\n        /* \"#utility.yul\":13176:13180   */\n      0x11\n        /* \"#utility.yul\":13173:13174   */\n      0x04\n        /* \"#utility.yul\":13166:13181   */\n      mstore\n        /* \"#utility.yul\":13200:13204   */\n      0x24\n        /* \"#utility.yul\":13197:13198   */\n      0x00\n        /* \"#utility.yul\":13190:13205   */\n      revert\n        /* \"#utility.yul\":13217:13408   */\n    tag_104:\n        /* \"#utility.yul\":13257:13260   */\n      0x00\n        /* \"#utility.yul\":13276:13296   */\n      tag_624\n        /* \"#utility.yul\":13294:13295   */\n      dup3\n        /* \"#utility.yul\":13276:13296   */\n      tag_390\n      jump\t// in\n    tag_624:\n        /* \"#utility.yul\":13271:13296   */\n      swap2\n      pop\n        /* \"#utility.yul\":13310:13330   */\n      tag_625\n        /* \"#utility.yul\":13328:13329   */\n      dup4\n        /* \"#utility.yul\":13310:13330   */\n      tag_390\n      jump\t// in\n    tag_625:\n        /* \"#utility.yul\":13305:13330   */\n      swap3\n      pop\n        /* \"#utility.yul\":13353:13354   */\n      dup3\n        /* \"#utility.yul\":13350:13351   */\n      dup3\n        /* \"#utility.yul\":13346:13355   */\n      add\n        /* \"#utility.yul\":13339:13355   */\n      swap1\n      pop\n        /* \"#utility.yul\":13374:13377   */\n      dup1\n        /* \"#utility.yul\":13371:13372   */\n      dup3\n        /* \"#utility.yul\":13368:13378   */\n      gt\n        /* \"#utility.yul\":13365:13401   */\n      iszero\n      tag_626\n      jumpi\n        /* \"#utility.yul\":13381:13399   */\n      tag_627\n      tag_428\n      jump\t// in\n    tag_627:\n        /* \"#utility.yul\":13365:13401   */\n    tag_626:\n        /* \"#utility.yul\":13217:13408   */\n      swap3\n      swap2\n      pop\n      pop\n      jump\t// out\n        /* \"#utility.yul\":13414:13746   */\n    tag_110:\n        /* \"#utility.yul\":13535:13539   */\n      0x00\n        /* \"#utility.yul\":13573:13575   */\n      0x40\n        /* \"#utility.yul\":13562:13571   */\n      dup3\n        /* \"#utility.yul\":13558:13576   */\n      add\n        /* \"#utility.yul\":13550:13576   */\n      swap1\n      pop\n        /* \"#utility.yul\":13586:13657   */\n      tag_629\n        /* \"#utility.yul\":13654:13655   */\n      0x00\n        /* \"#utility.yul\":13643:13652   */\n      dup4\n        /* \"#utility.yul\":13639:13656   */\n      add\n        /* \"#utility.yul\":13630:13636   */\n      dup6\n        /* \"#utility.yul\":13586:13657   */\n      tag_411\n      jump\t// in\n    tag_629:\n        /* \"#utility.yul\":13667:13739   */\n      tag_630\n        /* \"#utility.yul\":13735:13737   */\n      0x20\n        /* \"#utility.yul\":13724:13733   */\n      dup4\n        /* \"#utility.yul\":13720:13738   */\n      add\n        /* \"#utility.yul\":13711:13717   */\n      dup5\n        /* \"#utility.yul\":13667:13739   */\n      tag_412\n      jump\t// in\n    tag_630:\n        /* \"#utility.yul\":13414:13746   */\n      swap4\n      swap3\n      pop\n      pop\n      pop\n      jump\t// out\n        /* \"#utility.yul\":13752:13895   */\n    tag_429:\n        /* \"#utility.yul\":13809:13814   */\n      0x00\n        /* \"#utility.yul\":13840:13846   */\n      dup2\n        /* \"#utility.yul\":13834:13847   */\n      mload\n        /* \"#utility.yul\":13825:13847   */\n      swap1\n      pop\n        /* \"#utility.yul\":13856:13889   */\n      tag_632\n        /* \"#utility.yul\":13883:13888   */\n      dup2\n        /* \"#utility.yul\":13856:13889   */\n      tag_391\n      jump\t// in\n    tag_632:\n        /* \"#utility.yul\":13752:13895   */\n      swap3\n      swap2\n      pop\n      pop\n      jump\t// out\n        /* \"#utility.yul\":13901:14252   */\n    tag_114:\n        /* \"#utility.yul\":13971:13977   */\n      0x00\n        /* \"#utility.yul\":14020:14022   */\n      0x20\n        /* \"#utility.yul\":14008:14017   */\n      dup3\n        /* \"#utility.yul\":13999:14006   */\n      dup5\n        /* \"#utility.yul\":13995:14018   */\n      sub\n        /* \"#utility.yul\":13991:14023   */\n      slt\n        /* \"#utility.yul\":13988:14107   */\n      iszero\n      tag_634\n      jumpi\n        /* \"#utility.yul\":14026:14105   */\n      tag_635\n      tag_388\n      jump\t// in\n    tag_635:\n        /* \"#utility.yul\":13988:14107   */\n    tag_634:\n        /* \"#utility.yul\":14146:14147   */\n      0x00\n        /* \"#utility.yul\":14171:14235   */\n      tag_636\n        /* \"#utility.yul\":14227:14234   */\n      dup5\n        /* \"#utility.yul\":14218:14224   */\n      dup3\n        /* \"#utility.yul\":14207:14216   */\n      dup6\n        /* \"#utility.yul\":14203:14225   */\n      add\n        /* \"#utility.yul\":14171:14235   */\n      tag_429\n      jump\t// in\n    tag_636:\n        /* \"#utility.yul\":14161:14235   */\n      swap2\n      pop\n        /* \"#utility.yul\":14117:14245   */\n      pop\n        /* \"#utility.yul\":13901:14252   */\n      swap3\n      swap2\n      pop\n      pop\n      jump\t// out\n        /* \"#utility.yul\":14258:14681   */\n    tag_116:\n        /* \"#utility.yul\":14399:14403   */\n      0x00\n        /* \"#utility.yul\":14437:14439   */\n      0x40\n        /* \"#utility.yul\":14426:14435   */\n      dup3\n        /* \"#utility.yul\":14422:14440   */\n      add\n        /* \"#utility.yul\":14414:14440   */\n      swap1\n      pop\n        /* \"#utility.yul\":14450:14521   */\n      tag_638\n        /* \"#utility.yul\":14518:14519   */\n      0x00\n        /* \"#utility.yul\":14507:14516   */\n      dup4\n        /* \"#utility.yul\":14503:14520   */\n      add\n        /* \"#utility.yul\":14494:14500   */\n      dup6\n        /* \"#utility.yul\":14450:14521   */\n      tag_411\n      jump\t// in\n    tag_638:\n        /* \"#utility.yul\":14568:14577   */\n      dup2\n        /* \"#utility.yul\":14562:14566   */\n      dup2\n        /* \"#utility.yul\":14558:14578   */\n      sub\n        /* \"#utility.yul\":14553:14555   */\n      0x20\n        /* \"#utility.yul\":14542:14551   */\n      dup4\n        /* \"#utility.yul\":14538:14556   */\n      add\n        /* \"#utility.yul\":14531:14579   */\n      mstore\n        /* \"#utility.yul\":14596:14674   */\n      tag_639\n        /* \"#utility.yul\":14669:14673   */\n      dup2\n        /* \"#utility.yul\":14660:14666   */\n      dup5\n        /* \"#utility.yul\":14596:14674   */\n      tag_421\n      jump\t// in\n    tag_639:\n        /* \"#utility.yul\":14588:14674   */\n      swap1\n      pop\n        /* \"#utility.yul\":14258:14681   */\n      swap4\n      swap3\n      pop\n      pop\n      pop\n      jump\t// out\n        /* \"#utility.yul\":14687:14867   */\n    tag_430:\n        /* \"#utility.yul\":14735:14812   */\n      0x4e487b7100000000000000000000000000000000000000000000000000000000\n        /* \"#utility.yul\":14732:14733   */\n      0x00\n        /* \"#utility.yul\":14725:14813   */\n      mstore\n        /* \"#utility.yul\":14832:14836   */\n      0x22\n        /* \"#utility.yul\":14829:14830   */\n      0x04\n        /* \"#utility.yul\":14822:14837   */\n      mstore\n        /* \"#utility.yul\":14856:14860   */\n      0x24\n        /* \"#utility.yul\":14853:14854   */\n      0x00\n        /* \"#utility.yul\":14846:14861   */\n      revert\n        /* \"#utility.yul\":14873:15193   */\n    tag_121:\n        /* \"#utility.yul\":14917:14923   */\n      0x00\n        /* \"#utility.yul\":14954:14955   */\n      0x02\n        /* \"#utility.yul\":14948:14952   */\n      dup3\n        /* \"#utility.yul\":14944:14956   */\n      div\n        /* \"#utility.yul\":14934:14956   */\n      swap1\n      pop\n        /* \"#utility.yul\":15001:15002   */\n      0x01\n        /* \"#utility.yul\":14995:14999   */\n      dup3\n        /* \"#utility.yul\":14991:15003   */\n      and\n        /* \"#utility.yul\":15022:15040   */\n      dup1\n        /* \"#utility.yul\":15012:15093   */\n      tag_642\n      jumpi\n        /* \"#utility.yul\":15078:15082   */\n      0x7f\n        /* \"#utility.yul\":15070:15076   */\n      dup3\n        /* \"#utility.yul\":15066:15083   */\n      and\n        /* \"#utility.yul\":15056:15083   */\n      swap2\n      pop\n        /* \"#utility.yul\":15012:15093   */\n    tag_642:\n        /* \"#utility.yul\":15140:15142   */\n      0x20\n        /* \"#utility.yul\":15132:15138   */\n      dup3\n        /* \"#utility.yul\":15129:15143   */\n      lt\n        /* \"#utility.yul\":15109:15127   */\n      dup2\n        /* \"#utility.yul\":15106:15144   */\n      sub\n        /* \"#utility.yul\":15103:15187   */\n      tag_643\n      jumpi\n        /* \"#utility.yul\":15159:15177   */\n      tag_644\n      tag_430\n      jump\t// in\n    tag_644:\n        /* \"#utility.yul\":15103:15187   */\n    tag_643:\n        /* \"#utility.yul\":14924:15193   */\n      pop\n        /* \"#utility.yul\":14873:15193   */\n      swap2\n      swap1\n      pop\n      jump\t// out\n        /* \"#utility.yul\":15199:15380   */\n    tag_431:\n        /* \"#utility.yul\":15339:15372   */\n      0x5a61704170793a20596f7520616c72656164792068617665206120636f646500\n        /* \"#utility.yul\":15335:15336   */\n      0x00\n        /* \"#utility.yul\":15327:15333   */\n      dup3\n        /* \"#utility.yul\":15323:15337   */\n      add\n        /* \"#utility.yul\":15316:15373   */\n      mstore\n        /* \"#utility.yul\":15199:15380   */\n      pop\n      jump\t// out\n        /* \"#utility.yul\":15386:15752   */\n    tag_432:\n        /* \"#utility.yul\":15528:15531   */\n      0x00\n        /* \"#utility.yul\":15549:15616   */\n      tag_647\n        /* \"#utility.yul\":15613:15615   */\n      0x1f\n        /* \"#utility.yul\":15608:15611   */\n      dup4\n        /* \"#utility.yul\":15549:15616   */\n      tag_419\n      jump\t// in\n    tag_647:\n        /* \"#utility.yul\":15542:15616   */\n      swap2\n      pop\n        /* \"#utility.yul\":15625:15718   */\n      tag_648\n        /* \"#utility.yul\":15714:15717   */\n      dup3\n        /* \"#utility.yul\":15625:15718   */\n      tag_431\n      jump\t// in\n    tag_648:\n        /* \"#utility.yul\":15743:15745   */\n      0x20\n        /* \"#utility.yul\":15738:15741   */\n      dup3\n        /* \"#utility.yul\":15734:15746   */\n      add\n        /* \"#utility.yul\":15727:15746   */\n      swap1\n      pop\n        /* \"#utility.yul\":15386:15752   */\n      swap2\n      swap1\n      pop\n      jump\t// out\n        /* \"#utility.yul\":15758:16177   */\n    tag_124:\n        /* \"#utility.yul\":15924:15928   */\n      0x00\n        /* \"#utility.yul\":15962:15964   */\n      0x20\n        /* \"#utility.yul\":15951:15960   */\n      dup3\n        /* \"#utility.yul\":15947:15965   */\n      add\n        /* \"#utility.yul\":15939:15965   */\n      swap1\n      pop\n        /* \"#utility.yul\":16011:16020   */\n      dup2\n        /* \"#utility.yul\":16005:16009   */\n      dup2\n        /* \"#utility.yul\":16001:16021   */\n      sub\n        /* \"#utility.yul\":15997:15998   */\n      0x00\n        /* \"#utility.yul\":15986:15995   */\n      dup4\n        /* \"#utility.yul\":15982:15999   */\n      add\n        /* \"#utility.yul\":15975:16022   */\n      mstore\n        /* \"#utility.yul\":16039:16170   */\n      tag_650\n        /* \"#utility.yul\":16165:16169   */\n      dup2\n        /* \"#utility.yul\":16039:16170   */\n      tag_432\n      jump\t// in\n    tag_650:\n        /* \"#utility.yul\":16031:16170   */\n      swap1\n      pop\n        /* \"#utility.yul\":15758:16177   */\n      swap2\n      swap1\n      pop\n      jump\t// out\n        /* \"#utility.yul\":16183:16403   */\n    tag_433:\n        /* \"#utility.yul\":16323:16357   */\n      0x5a61704170793a20436f646520636f6c6c6973696f6e2c207472792061676169\n        /* \"#utility.yul\":16319:16320   */\n      0x00\n        /* \"#utility.yul\":16311:16317   */\n      dup3\n        /* \"#utility.yul\":16307:16321   */\n      add\n        /* \"#utility.yul\":16300:16358   */\n      mstore\n        /* \"#utility.yul\":16392:16395   */\n      0x6e00000000000000000000000000000000000000000000000000000000000000\n        /* \"#utility.yul\":16387:16389   */\n      0x20\n        /* \"#utility.yul\":16379:16385   */\n      dup3\n        /* \"#utility.yul\":16375:16390   */\n      add\n        /* \"#utility.yul\":16368:16396   */\n      mstore\n        /* \"#utility.yul\":16183:16403   */\n      pop\n      jump\t// out\n        /* \"#utility.yul\":16409:16775   */\n    tag_434:\n        /* \"#utility.yul\":16551:16554   */\n      0x00\n        /* \"#utility.yul\":16572:16639   */\n      tag_653\n        /* \"#utility.yul\":16636:16638   */\n      0x21\n        /* \"#utility.yul\":16631:16634   */\n      dup4\n        /* \"#utility.yul\":16572:16639   */\n      tag_419\n      jump\t// in\n    tag_653:\n        /* \"#utility.yul\":16565:16639   */\n      swap2\n      pop\n        /* \"#utility.yul\":16648:16741   */\n      tag_654\n        /* \"#utility.yul\":16737:16740   */\n      dup3\n        /* \"#utility.yul\":16648:16741   */\n      tag_433\n      jump\t// in\n    tag_654:\n        /* \"#utility.yul\":16766:16768   */\n      0x40\n        /* \"#utility.yul\":16761:16764   */\n      dup3\n        /* \"#utility.yul\":16757:16769   */\n      add\n        /* \"#utility.yul\":16750:16769   */\n      swap1\n      pop\n        /* \"#utility.yul\":16409:16775   */\n      swap2\n      swap1\n      pop\n      jump\t// out\n        /* \"#utility.yul\":16781:17200   */\n    tag_130:\n        /* \"#utility.yul\":16947:16951   */\n      0x00\n        /* \"#utility.yul\":16985:16987   */\n      0x20\n        /* \"#utility.yul\":16974:16983   */\n      dup3\n        /* \"#utility.yul\":16970:16988   */\n      add\n        /* \"#utility.yul\":16962:16988   */\n      swap1\n      pop\n        /* \"#utility.yul\":17034:17043   */\n      dup2\n        /* \"#utility.yul\":17028:17032   */\n      dup2\n        /* \"#utility.yul\":17024:17044   */\n      sub\n        /* \"#utility.yul\":17020:17021   */\n      0x00\n        /* \"#utility.yul\":17009:17018   */\n      dup4\n        /* \"#utility.yul\":17005:17022   */\n      add\n        /* \"#utility.yul\":16998:17045   */\n      mstore\n        /* \"#utility.yul\":17062:17193   */\n      tag_656\n        /* \"#utility.yul\":17188:17192   */\n      dup2\n        /* \"#utility.yul\":17062:17193   */\n      tag_434\n      jump\t// in\n    tag_656:\n        /* \"#utility.yul\":17054:17193   */\n      swap1\n      pop\n        /* \"#utility.yul\":16781:17200   */\n      swap2\n      swap1\n      pop\n      jump\t// out\n        /* \"#utility.yul\":17206:17347   */\n    tag_435:\n        /* \"#utility.yul\":17255:17259   */\n      0x00\n        /* \"#utility.yul\":17278:17281   */\n      dup2\n        /* \"#utility.yul\":17270:17281   */\n      swap1\n      pop\n        /* \"#utility.yul\":17301:17304   */\n      dup2\n        /* \"#utility.yul\":17298:17299   */\n      0x00\n        /* \"#utility.yul\":17291:17305   */\n      mstore\n        /* \"#utility.yul\":17335:17339   */\n      0x20\n        /* \"#utility.yul\":17332:17333   */\n      0x00\n        /* \"#utility.yul\":17322:17340   */\n      keccak256\n        /* \"#utility.yul\":17314:17340   */\n      swap1\n      pop\n        /* \"#utility.yul\":17206:17347   */\n      swap2\n      swap1\n      pop\n      jump\t// out\n        /* \"#utility.yul\":17353:17446   */\n    tag_436:\n        /* \"#utility.yul\":17390:17396   */\n      0x00\n        /* \"#utility.yul\":17437:17439   */\n      0x20\n        /* \"#utility.yul\":17432:17434   */\n      0x1f\n        /* \"#utility.yul\":17425:17430   */\n      dup4\n        /* \"#utility.yul\":17421:17435   */\n      add\n        /* \"#utility.yul\":17417:17440   */\n      div\n        /* \"#utility.yul\":17407:17440   */\n      swap1\n      pop\n        /* \"#utility.yul\":17353:17446   */\n      swap2\n      swap1\n      pop\n      jump\t// out\n        /* \"#utility.yul\":17452:17559   */\n    tag_437:\n        /* \"#utility.yul\":17496:17504   */\n      0x00\n        /* \"#utility.yul\":17546:17551   */\n      dup3\n        /* \"#utility.yul\":17540:17544   */\n      dup3\n        /* \"#utility.yul\":17536:17552   */\n      shl\n        /* \"#utility.yul\":17515:17552   */\n      swap1\n      pop\n        /* \"#utility.yul\":17452:17559   */\n      swap3\n      swap2\n      pop\n      pop\n      jump\t// out\n        /* \"#utility.yul\":17565:17958   */\n    tag_438:\n        /* \"#utility.yul\":17634:17640   */\n      0x00\n        /* \"#utility.yul\":17684:17685   */\n      0x08\n        /* \"#utility.yul\":17672:17682   */\n      dup4\n        /* \"#utility.yul\":17668:17686   */\n      mul\n        /* \"#utility.yul\":17707:17804   */\n      tag_661\n        /* \"#utility.yul\":17737:17803   */\n      0xffffffffffffffffffffffffffffffffffffffffffffffffffffffffffffffff\n        /* \"#utility.yul\":17726:17735   */\n      dup3\n        /* \"#utility.yul\":17707:17804   */\n      tag_437\n      jump\t// in\n    tag_661:\n        /* \"#utility.yul\":17825:17864   */\n      tag_662\n        /* \"#utility.yul\":17855:17863   */\n      dup7\n        /* \"#utility.yul\":17844:17853   */\n      dup4\n        /* \"#utility.yul\":17825:17864   */\n      tag_437\n      jump\t// in\n    tag_662:\n        /* \"#utility.yul\":17813:17864   */\n      swap6\n      pop\n        /* \"#utility.yul\":17897:17901   */\n      dup1\n        /* \"#utility.yul\":17893:17902   */\n      not\n        /* \"#utility.yul\":17886:17891   */\n      dup5\n        /* \"#utility.yul\":17882:17903   */\n      and\n        /* \"#utility.yul\":17873:17903   */\n      swap4\n      pop\n        /* \"#utility.yul\":17946:17950   */\n      dup1\n        /* \"#utility.yul\":17936:17944   */\n      dup7\n        /* \"#utility.yul\":17932:17951   */\n      and\n        /* \"#utility.yul\":17925:17930   */\n      dup5\n        /* \"#utility.yul\":17922:17952   */\n      or\n        /* \"#utility.yul\":17912:17952   */\n      swap3\n      pop\n        /* \"#utility.yul\":17641:17958   */\n      pop\n      pop\n        /* \"#utility.yul\":17565:17958   */\n      swap4\n      swap3\n      pop\n      pop\n      pop\n      jump\t// out\n        /* \"#utility.yul\":17964:18106   */\n    tag_439:\n        /* \"#utility.yul\":18014:18023   */\n      0x00\n        /* \"#utility.yul\":18047:18100   */\n      tag_664\n        /* \"#utility.yul\":18065:18099   */\n      tag_665\n        /* \"#utility.yul\":18074:18098   */\n      tag_666\n        /* \"#utility.yul\":18092:18097   */\n      dup5\n        /* \"#utility.yul\":18074:18098   */\n      tag_390\n      jump\t// in\n    tag_666:\n        /* \"#utility.yul\":18065:18099   */\n      tag_403\n      jump\t// in\n    tag_665:\n        /* \"#utility.yul\":18047:18100   */\n      tag_390\n      jump\t// in\n    tag_664:\n        /* \"#utility.yul\":18034:18100   */\n      swap1\n      pop\n        /* \"#utility.yul\":17964:18106   */\n      swap2\n      swap1\n      pop\n      jump\t// out\n        /* \"#utility.yul\":18112:18187   */\n    tag_440:\n        /* \"#utility.yul\":18155:18158   */\n      0x00\n        /* \"#utility.yul\":18176:18181   */\n      dup2\n        /* \"#utility.yul\":18169:18181   */\n      swap1\n      pop\n        /* \"#utility.yul\":18112:18187   */\n      swap2\n      swap1\n      pop\n      jump\t// out\n        /* \"#utility.yul\":18193:18462   */\n    tag_441:\n        /* \"#utility.yul\":18303:18342   */\n      tag_669\n        /* \"#utility.yul\":18334:18341   */\n      dup4\n        /* \"#utility.yul\":18303:18342   */\n      tag_439\n      jump\t// in\n    tag_669:\n        /* \"#utility.yul\":18364:18455   */\n      tag_670\n        /* \"#utility.yul\":18413:18454   */\n      tag_671\n        /* \"#utility.yul\":18437:18453   */\n      dup3\n        /* \"#utility.yul\":18413:18454   */\n      tag_440\n      jump\t// in\n    tag_671:\n        /* \"#utility.yul\":18405:18411   */\n      dup5\n        /* \"#utility.yul\":18398:18402   */\n      dup5\n        /* \"#utility.yul\":18392:18403   */\n      sload\n        /* \"#utility.yul\":18364:18455   */\n      tag_438\n      jump\t// in\n    tag_670:\n        /* \"#utility.yul\":18358:18362   */\n      dup3\n        /* \"#utility.yul\":18351:18456   */\n      sstore\n        /* \"#utility.yul\":18269:18462   */\n      pop\n        /* \"#utility.yul\":18193:18462   */\n      pop\n      pop\n      pop\n      jump\t// out\n        /* \"#utility.yul\":18468:18541   */\n    tag_442:\n        /* \"#utility.yul\":18513:18516   */\n      0x00\n        /* \"#utility.yul\":18534:18535   */\n      0x00\n        /* \"#utility.yul\":18527:18535   */\n      swap1\n      pop\n        /* \"#utility.yul\":18468:18541   */\n      swap1\n      jump\t// out\n        /* \"#utility.yul\":18547:18736   */\n    tag_443:\n        /* \"#utility.yul\":18624:18656   */\n      tag_674\n      tag_442\n      jump\t// in\n    tag_674:\n        /* \"#utility.yul\":18665:18730   */\n      tag_675\n        /* \"#utility.yul\":18723:18729   */\n      dup2\n        /* \"#utility.yul\":18715:18721   */\n      dup5\n        /* \"#utility.yul\":18709:18713   */\n      dup5\n        /* \"#utility.yul\":18665:18730   */\n      tag_441\n      jump\t// in\n    tag_675:\n        /* \"#utility.yul\":18600:18736   */\n      pop\n        /* \"#utility.yul\":18547:18736   */\n      pop\n      pop\n      jump\t// out\n        /* \"#utility.yul\":18742:18928   */\n    tag_444:\n        /* \"#utility.yul\":18802:18922   */\n    tag_677:\n        /* \"#utility.yul\":18819:18822   */\n      dup2\n        /* \"#utility.yul\":18812:18817   */\n      dup2\n        /* \"#utility.yul\":18809:18823   */\n      lt\n        /* \"#utility.yul\":18802:18922   */\n      iszero\n      tag_679\n      jumpi\n        /* \"#utility.yul\":18873:18912   */\n      tag_680\n        /* \"#utility.yul\":18910:18911   */\n      0x00\n        /* \"#utility.yul\":18903:18908   */\n      dup3\n        /* \"#utility.yul\":18873:18912   */\n      tag_443\n      jump\t// in\n    tag_680:\n        /* \"#utility.yul\":18846:18847   */\n      0x01\n        /* \"#utility.yul\":18839:18844   */\n      dup2\n        /* \"#utility.yul\":18835:18848   */\n      add\n        /* \"#utility.yul\":18826:18848   */\n      swap1\n      pop\n        /* \"#utility.yul\":18802:18922   */\n      jump(tag_677)\n    tag_679:\n        /* \"#utility.yul\":18742:18928   */\n      pop\n      pop\n      jump\t// out\n        /* \"#utility.yul\":18934:19477   */\n    tag_445:\n        /* \"#utility.yul\":19035:19037   */\n      0x1f\n        /* \"#utility.yul\":19030:19033   */\n      dup3\n        /* \"#utility.yul\":19027:19038   */\n      gt\n        /* \"#utility.yul\":19024:19470   */\n      iszero\n      tag_682\n      jumpi\n        /* \"#utility.yul\":19069:19107   */\n      tag_683\n        /* \"#utility.yul\":19101:19106   */\n      dup2\n        /* \"#utility.yul\":19069:19107   */\n      tag_435\n      jump\t// in\n    tag_683:\n        /* \"#utility.yul\":19153:19182   */\n      tag_684\n        /* \"#utility.yul\":19171:19181   */\n      dup5\n        /* \"#utility.yul\":19153:19182   */\n      tag_436\n      jump\t// in\n    tag_684:\n        /* \"#utility.yul\":19143:19151   */\n      dup2\n        /* \"#utility.yul\":19139:19183   */\n      add\n        /* \"#utility.yul\":19336:19338   */\n      0x20\n        /* \"#utility.yul\":19324:19334   */\n      dup6\n        /* \"#utility.yul\":19321:19339   */\n      lt\n        /* \"#utility.yul\":19318:19367   */\n      iszero\n      tag_685\n      jumpi\n        /* \"#utility.yul\":19357:19365   */\n      dup2\n        /* \"#utility.yul\":19342:19365   */\n      swap1\n      pop\n        /* \"#utility.yul\":19318:19367   */\n    tag_685:\n        /* \"#utility.yul\":19380:19460   */\n      tag_686\n        /* \"#utility.yul\":19436:19458   */\n      tag_687\n        /* \"#utility.yul\":19454:19457   */\n      dup6\n        /* \"#utility.yul\":19436:19458   */\n      tag_436\n      jump\t// in\n    tag_687:\n        /* \"#utility.yul\":19426:19434   */\n      dup4\n        /* \"#utility.yul\":19422:19459   */\n      add\n        /* \"#utility.yul\":19409:19420   */\n      dup3\n        /* \"#utility.yul\":19380:19460   */\n      tag_444\n      jump\t// in\n    tag_686:\n        /* \"#utility.yul\":19039:19470   */\n      pop\n      pop\n        /* \"#utility.yul\":19024:19470   */\n    tag_682:\n        /* \"#utility.yul\":18934:19477   */\n      pop\n      pop\n      pop\n      jump\t// out\n        /* \"#utility.yul\":19483:19600   */\n    tag_446:\n        /* \"#utility.yul\":19537:19545   */\n      0x00\n        /* \"#utility.yul\":19587:19592   */\n      dup3\n        /* \"#utility.yul\":19581:19585   */\n      dup3\n        /* \"#utility.yul\":19577:19593   */\n      shr\n        /* \"#utility.yul\":19556:19593   */\n      swap1\n      pop\n        /* \"#utility.yul\":19483:19600   */\n      swap3\n      swap2\n      pop\n      pop\n      jump\t// out\n        /* \"#utility.yul\":19606:19775   */\n    tag_447:\n        /* \"#utility.yul\":19650:19656   */\n      0x00\n        /* \"#utility.yul\":19683:19734   */\n      tag_690\n        /* \"#utility.yul\":19731:19732   */\n      0x00\n        /* \"#utility.yul\":19727:19733   */\n      not\n        /* \"#utility.yul\":19719:19724   */\n      dup5\n        /* \"#utility.yul\":19716:19717   */\n      0x08\n        /* \"#utility.yul\":19712:19725   */\n      mul\n        /* \"#utility.yul\":19683:19734   */\n      tag_446\n      jump\t// in\n    tag_690:\n        /* \"#utility.yul\":19679:19735   */\n      not\n        /* \"#utility.yul\":19764:19768   */\n      dup1\n        /* \"#utility.yul\":19758:19762   */\n      dup4\n        /* \"#utility.yul\":19754:19769   */\n      and\n        /* \"#utility.yul\":19744:19769   */\n      swap2\n      pop\n        /* \"#utility.yul\":19657:19775   */\n      pop\n        /* \"#utility.yul\":19606:19775   */\n      swap3\n      swap2\n      pop\n      pop\n      jump\t// out\n        /* \"#utility.yul\":19780:20075   */\n    tag_448:\n        /* \"#utility.yul\":19856:19860   */\n      0x00\n        /* \"#utility.yul\":20002:20031   */\n      tag_692\n        /* \"#utility.yul\":20027:20030   */\n      dup4\n        /* \"#utility.yul\":20021:20025   */\n      dup4\n        /* \"#utility.yul\":20002:20031   */\n      tag_447\n      jump\t// in\n    tag_692:\n        /* \"#utility.yul\":19994:20031   */\n      swap2\n      pop\n        /* \"#utility.yul\":20064:20067   */\n      dup3\n        /* \"#utility.yul\":20061:20062   */\n      0x02\n        /* \"#utility.yul\":20057:20068   */\n      mul\n        /* \"#utility.yul\":20051:20055   */\n      dup3\n        /* \"#utility.yul\":20048:20069   */\n      or\n        /* \"#utility.yul\":20040:20069   */\n      swap1\n      pop\n        /* \"#utility.yul\":19780:20075   */\n      swap3\n      swap2\n      pop\n      pop\n      jump\t// out\n        /* \"#utility.yul\":20080:21475   */\n    tag_133:\n        /* \"#utility.yul\":20197:20234   */\n      tag_694\n        /* \"#utility.yul\":20230:20233   */\n      dup3\n        /* \"#utility.yul\":20197:20234   */\n      tag_418\n      jump\t// in\n    tag_694:\n        /* \"#utility.yul\":20299:20317   */\n      0xffffffffffffffff\n        /* \"#utility.yul\":20291:20297   */\n      dup2\n        /* \"#utility.yul\":20288:20318   */\n      gt\n        /* \"#utility.yul\":20285:20341   */\n      iszero\n      tag_695\n      jumpi\n        /* \"#utility.yul\":20321:20339   */\n      tag_696\n      tag_215\n      jump\t// in\n    tag_696:\n        /* \"#utility.yul\":20285:20341   */\n    tag_695:\n        /* \"#utility.yul\":20365:20403   */\n      tag_697\n        /* \"#utility.yul\":20397:20401   */\n      dup3\n        /* \"#utility.yul\":20391:20402   */\n      sload\n        /* \"#utility.yul\":20365:20403   */\n      tag_121\n      jump\t// in\n    tag_697:\n        /* \"#utility.yul\":20450:20517   */\n      tag_698\n        /* \"#utility.yul\":20510:20516   */\n      dup3\n        /* \"#utility.yul\":20502:20508   */\n      dup3\n        /* \"#utility.yul\":20496:20500   */\n      dup6\n        /* \"#utility.yul\":20450:20517   */\n      tag_445\n      jump\t// in\n    tag_698:\n        /* \"#utility.yul\":20544:20545   */\n      0x00\n        /* \"#utility.yul\":20568:20572   */\n      0x20\n        /* \"#utility.yul\":20555:20572   */\n      swap1\n      pop\n        /* \"#utility.yul\":20600:20602   */\n      0x1f\n        /* \"#utility.yul\":20592:20598   */\n      dup4\n        /* \"#utility.yul\":20589:20603   */\n      gt\n        /* \"#utility.yul\":20617:20618   */\n      0x01\n        /* \"#utility.yul\":20612:21230   */\n      dup2\n      eq\n      tag_700\n      jumpi\n        /* \"#utility.yul\":21274:21275   */\n      0x00\n        /* \"#utility.yul\":21291:21297   */\n      dup5\n        /* \"#utility.yul\":21288:21365   */\n      iszero\n      tag_701\n      jumpi\n        /* \"#utility.yul\":21340:21349   */\n      dup3\n        /* \"#utility.yul\":21335:21338   */\n      dup8\n        /* \"#utility.yul\":21331:21350   */\n      add\n        /* \"#utility.yul\":21325:21351   */\n      mload\n        /* \"#utility.yul\":21316:21351   */\n      swap1\n      pop\n        /* \"#utility.yul\":21288:21365   */\n    tag_701:\n        /* \"#utility.yul\":21391:21458   */\n      tag_702\n        /* \"#utility.yul\":21451:21457   */\n      dup6\n        /* \"#utility.yul\":21444:21449   */\n      dup3\n        /* \"#utility.yul\":21391:21458   */\n      tag_448\n      jump\t// in\n    tag_702:\n        /* \"#utility.yul\":21385:21389   */\n      dup7\n        /* \"#utility.yul\":21378:21459   */\n      sstore\n        /* \"#utility.yul\":21247:21469   */\n      pop\n        /* \"#utility.yul\":20582:21469   */\n      jump(tag_699)\n        /* \"#utility.yul\":20612:21230   */\n    tag_700:\n        /* \"#utility.yul\":20664:20668   */\n      0x1f\n        /* \"#utility.yul\":20660:20669   */\n      not\n        /* \"#utility.yul\":20652:20658   */\n      dup5\n        /* \"#utility.yul\":20648:20670   */\n      and\n        /* \"#utility.yul\":20698:20735   */\n      tag_703\n        /* \"#utility.yul\":20730:20734   */\n      dup7\n        /* \"#utility.yul\":20698:20735   */\n      tag_435\n      jump\t// in\n    tag_703:\n        /* \"#utility.yul\":20757:20758   */\n      0x00\n        /* \"#utility.yul\":20771:20979   */\n    tag_704:\n        /* \"#utility.yul\":20785:20792   */\n      dup3\n        /* \"#utility.yul\":20782:20783   */\n      dup2\n        /* \"#utility.yul\":20779:20793   */\n      lt\n        /* \"#utility.yul\":20771:20979   */\n      iszero\n      tag_706\n      jumpi\n        /* \"#utility.yul\":20864:20873   */\n      dup5\n        /* \"#utility.yul\":20859:20862   */\n      dup10\n        /* \"#utility.yul\":20855:20874   */\n      add\n        /* \"#utility.yul\":20849:20875   */\n      mload\n        /* \"#utility.yul\":20841:20847   */\n      dup3\n        /* \"#utility.yul\":20834:20876   */\n      sstore\n        /* \"#utility.yul\":20915:20916   */\n      0x01\n        /* \"#utility.yul\":20907:20913   */\n      dup3\n        /* \"#utility.yul\":20903:20917   */\n      add\n        /* \"#utility.yul\":20893:20917   */\n      swap2\n      pop\n        /* \"#utility.yul\":20962:20964   */\n      0x20\n        /* \"#utility.yul\":20951:20960   */\n      dup6\n        /* \"#utility.yul\":20947:20965   */\n      add\n        /* \"#utility.yul\":20934:20965   */\n      swap5\n      pop\n        /* \"#utility.yul\":20808:20812   */\n      0x20\n        /* \"#utility.yul\":20805:20806   */\n      dup2\n        /* \"#utility.yul\":20801:20813   */\n      add\n        /* \"#utility.yul\":20796:20813   */\n      swap1\n      pop\n        /* \"#utility.yul\":20771:20979   */\n      jump(tag_704)\n    tag_706:\n        /* \"#utility.yul\":21007:21013   */\n      dup7\n        /* \"#utility.yul\":20998:21005   */\n      dup4\n        /* \"#utility.yul\":20995:21014   */\n      lt\n        /* \"#utility.yul\":20992:21171   */\n      iszero\n      tag_707\n      jumpi\n        /* \"#utility.yul\":21065:21074   */\n      dup5\n        /* \"#utility.yul\":21060:21063   */\n      dup10\n        /* \"#utility.yul\":21056:21075   */\n      add\n        /* \"#utility.yul\":21050:21076   */\n      mload\n        /* \"#utility.yul\":21108:21156   */\n      tag_708\n        /* \"#utility.yul\":21150:21154   */\n      0x1f\n        /* \"#utility.yul\":21142:21148   */\n      dup10\n        /* \"#utility.yul\":21138:21155   */\n      and\n        /* \"#utility.yul\":21127:21136   */\n      dup3\n        /* \"#utility.yul\":21108:21156   */\n      tag_447\n      jump\t// in\n    tag_708:\n        /* \"#utility.yul\":21100:21106   */\n      dup4\n        /* \"#utility.yul\":21093:21157   */\n      sstore\n        /* \"#utility.yul\":21015:21171   */\n      pop\n        /* \"#utility.yul\":20992:21171   */\n    tag_707:\n        /* \"#utility.yul\":21217:21218   */\n      0x01\n        /* \"#utility.yul\":21213:21214   */\n      0x02\n        /* \"#utility.yul\":21205:21211   */\n      dup9\n        /* \"#utility.yul\":21201:21215   */\n      mul\n        /* \"#utility.yul\":21197:21219   */\n      add\n        /* \"#utility.yul\":21191:21195   */\n      dup9\n        /* \"#utility.yul\":21184:21220   */\n      sstore\n        /* \"#utility.yul\":20619:21230   */\n      pop\n      pop\n      pop\n        /* \"#utility.yul\":20582:21469   */\n    tag_699:\n      pop\n        /* \"#utility.yul\":20172:21475   */\n      pop\n      pop\n      pop\n        /* \"#utility.yul\":20080:21475   */\n      pop\n      pop\n      jump\t// out\n        /* \"#utility.yul\":21481:21566   */\n    tag_449:\n        /* \"#utility.yul\":21526:21533   */\n      0x00\n        /* \"#utility.yul\":21555:21560   */\n      dup2\n        /* \"#utility.yul\":21544:21560   */\n      swap1\n      pop\n        /* \"#utility.yul\":21481:21566   */\n      swap2\n      swap1\n      pop\n      jump\t// out\n        /* \"#utility.yul\":21572:21673   */\n    tag_450:\n        /* \"#utility.yul\":21608:21615   */\n      0x00\n        /* \"#utility.yul\":21648:21666   */\n      0xffffffffffffffff\n        /* \"#utility.yul\":21641:21646   */\n      dup3\n        /* \"#utility.yul\":21637:21667   */\n      and\n        /* \"#utility.yul\":21626:21667   */\n      swap1\n      pop\n        /* \"#utility.yul\":21572:21673   */\n      swap2\n      swap1\n      pop\n      jump\t// out\n        /* \"#utility.yul\":21679:21835   */\n    tag_451:\n        /* \"#utility.yul\":21736:21745   */\n      0x00\n        /* \"#utility.yul\":21769:21829   */\n      tag_712\n        /* \"#utility.yul\":21786:21828   */\n      tag_713\n        /* \"#utility.yul\":21795:21827   */\n      tag_714\n        /* \"#utility.yul\":21821:21826   */\n      dup5\n        /* \"#utility.yul\":21795:21827   */\n      tag_449\n      jump\t// in\n    tag_714:\n        /* \"#utility.yul\":21786:21828   */\n      tag_403\n      jump\t// in\n    tag_713:\n        /* \"#utility.yul\":21769:21829   */\n      tag_450\n      jump\t// in\n    tag_712:\n        /* \"#utility.yul\":21756:21829   */\n      swap1\n      pop\n        /* \"#utility.yul\":21679:21835   */\n      swap2\n      swap1\n      pop\n      jump\t// out\n        /* \"#utility.yul\":21841:21986   */\n    tag_452:\n        /* \"#utility.yul\":21935:21979   */\n      tag_716\n        /* \"#utility.yul\":21973:21978   */\n      dup2\n        /* \"#utility.yul\":21935:21979   */\n      tag_451\n      jump\t// in\n    tag_716:\n        /* \"#utility.yul\":21930:21933   */\n      dup3\n        /* \"#utility.yul\":21923:21980   */\n      mstore\n        /* \"#utility.yul\":21841:21986   */\n      pop\n      pop\n      jump\t// out\n        /* \"#utility.yul\":21992:22228   */\n    tag_152:\n        /* \"#utility.yul\":22092:22096   */\n      0x00\n        /* \"#utility.yul\":22130:22132   */\n      0x20\n        /* \"#utility.yul\":22119:22128   */\n      dup3\n        /* \"#utility.yul\":22115:22133   */\n      add\n        /* \"#utility.yul\":22107:22133   */\n      swap1\n      pop\n        /* \"#utility.yul\":22143:22221   */\n      tag_718\n        /* \"#utility.yul\":22218:22219   */\n      0x00\n        /* \"#utility.yul\":22207:22216   */\n      dup4\n        /* \"#utility.yul\":22203:22220   */\n      add\n        /* \"#utility.yul\":22194:22200   */\n      dup5\n        /* \"#utility.yul\":22143:22221   */\n      tag_452\n      jump\t// in\n    tag_718:\n        /* \"#utility.yul\":21992:22228   */\n      swap3\n      swap2\n      pop\n      pop\n      jump\t// out\n        /* \"#utility.yul\":22234:22676   */\n    tag_198:\n        /* \"#utility.yul\":22383:22387   */\n      0x00\n        /* \"#utility.yul\":22421:22423   */\n      0x60\n        /* \"#utility.yul\":22410:22419   */\n      dup3\n        /* \"#utility.yul\":22406:22424   */\n      add\n        /* \"#utility.yul\":22398:22424   */\n      swap1\n      pop\n        /* \"#utility.yul\":22434:22505   */\n      tag_720\n        /* \"#utility.yul\":22502:22503   */\n      0x00\n        /* \"#utility.yul\":22491:22500   */\n      dup4\n        /* \"#utility.yul\":22487:22504   */\n      add\n        /* \"#utility.yul\":22478:22484   */\n      dup7\n        /* \"#utility.yul\":22434:22505   */\n      tag_412\n      jump\t// in\n    tag_720:\n        /* \"#utility.yul\":22515:22587   */\n      tag_721\n        /* \"#utility.yul\":22583:22585   */\n      0x20\n        /* \"#utility.yul\":22572:22581   */\n      dup4\n        /* \"#utility.yul\":22568:22586   */\n      add\n        /* \"#utility.yul\":22559:22565   */\n      dup6\n        /* \"#utility.yul\":22515:22587   */\n      tag_412\n      jump\t// in\n    tag_721:\n        /* \"#utility.yul\":22597:22669   */\n      tag_722\n        /* \"#utility.yul\":22665:22667   */\n      0x40\n        /* \"#utility.yul\":22654:22663   */\n      dup4\n        /* \"#utility.yul\":22650:22668   */\n      add\n        /* \"#utility.yul\":22641:22647   */\n      dup5\n        /* \"#utility.yul\":22597:22669   */\n      tag_411\n      jump\t// in\n    tag_722:\n        /* \"#utility.yul\":22234:22676   */\n      swap5\n      swap4\n      pop\n      pop\n      pop\n      pop\n      jump\t// out\n        /* \"#utility.yul\":22682:23014   */\n    tag_202:\n        /* \"#utility.yul\":22803:22807   */\n      0x00\n        /* \"#utility.yul\":22841:22843   */\n      0x40\n        /* \"#utility.yul\":22830:22839   */\n      dup3\n        /* \"#utility.yul\":22826:22844   */\n      add\n        /* \"#utility.yul\":22818:22844   */\n      swap1\n      pop\n        /* \"#utility.yul\":22854:22925   */\n      tag_724\n        /* \"#utility.yul\":22922:22923   */\n      0x00\n        /* \"#utility.yul\":22911:22920   */\n      dup4\n        /* \"#utility.yul\":22907:22924   */\n      add\n        /* \"#utility.yul\":22898:22904   */\n      dup6\n        /* \"#utility.yul\":22854:22925   */\n      tag_412\n      jump\t// in\n    tag_724:\n        /* \"#utility.yul\":22935:23007   */\n      tag_725\n        /* \"#utility.yul\":23003:23005   */\n      0x20\n        /* \"#utility.yul\":22992:23001   */\n      dup4\n        /* \"#utility.yul\":22988:23006   */\n      add\n        /* \"#utility.yul\":22979:22985   */\n      dup5\n        /* \"#utility.yul\":22935:23007   */\n      tag_411\n      jump\t// in\n    tag_725:\n        /* \"#utility.yul\":22682:23014   */\n      swap4\n      swap3\n      pop\n      pop\n      pop\n      jump\t// out\n        /* \"#utility.yul\":23020:23105   */\n    tag_453:\n        /* \"#utility.yul\":23065:23072   */\n      0x00\n        /* \"#utility.yul\":23094:23099   */\n      dup2\n        /* \"#utility.yul\":23083:23099   */\n      swap1\n      pop\n        /* \"#utility.yul\":23020:23105   */\n      swap2\n      swap1\n      pop\n      jump\t// out\n        /* \"#utility.yul\":23111:23197   */\n    tag_454:\n        /* \"#utility.yul\":23146:23153   */\n      0x00\n        /* \"#utility.yul\":23186:23190   */\n      0xff\n        /* \"#utility.yul\":23179:23184   */\n      dup3\n        /* \"#utility.yul\":23175:23191   */\n      and\n        /* \"#utility.yul\":23164:23191   */\n      swap1\n      pop\n        /* \"#utility.yul\":23111:23197   */\n      swap2\n      swap1\n      pop\n      jump\t// out\n        /* \"#utility.yul\":23203:23357   */\n    tag_455:\n        /* \"#utility.yul\":23259:23268   */\n      0x00\n        /* \"#utility.yul\":23292:23351   */\n      tag_729\n        /* \"#utility.yul\":23308:23350   */\n      tag_730\n        /* \"#utility.yul\":23317:23349   */\n      tag_731\n        /* \"#utility.yul\":23343:23348   */\n      dup5\n        /* \"#utility.yul\":23317:23349   */\n      tag_453\n      jump\t// in\n    tag_731:\n        /* \"#utility.yul\":23308:23350   */\n      tag_403\n      jump\t// in\n    tag_730:\n        /* \"#utility.yul\":23292:23351   */\n      tag_454\n      jump\t// in\n    tag_729:\n        /* \"#utility.yul\":23279:23351   */\n      swap1\n      pop\n        /* \"#utility.yul\":23203:23357   */\n      swap2\n      swap1\n      pop\n      jump\t// out\n        /* \"#utility.yul\":23363:23506   */\n    tag_456:\n        /* \"#utility.yul\":23456:23499   */\n      tag_733\n        /* \"#utility.yul\":23493:23498   */\n      dup2\n        /* \"#utility.yul\":23456:23499   */\n      tag_455\n      jump\t// in\n    tag_733:\n        /* \"#utility.yul\":23451:23454   */\n      dup3\n        /* \"#utility.yul\":23444:23500   */\n      mstore\n        /* \"#utility.yul\":23363:23506   */\n      pop\n      pop\n      jump\t// out\n        /* \"#utility.yul\":23512:23856   */\n    tag_208:\n        /* \"#utility.yul\":23639:23643   */\n      0x00\n        /* \"#utility.yul\":23677:23679   */\n      0x40\n        /* \"#utility.yul\":23666:23675   */\n      dup3\n        /* \"#utility.yul\":23662:23680   */\n      add\n        /* \"#utility.yul\":23654:23680   */\n      swap1\n      pop\n        /* \"#utility.yul\":23690:23761   */\n      tag_735\n        /* \"#utility.yul\":23758:23759   */\n      0x00\n        /* \"#utility.yul\":23747:23756   */\n      dup4\n        /* \"#utility.yul\":23743:23760   */\n      add\n        /* \"#utility.yul\":23734:23740   */\n      dup6\n        /* \"#utility.yul\":23690:23761   */\n      tag_412\n      jump\t// in\n    tag_735:\n        /* \"#utility.yul\":23771:23849   */\n      tag_736\n        /* \"#utility.yul\":23845:23847   */\n      0x20\n        /* \"#utility.yul\":23834:23843   */\n      dup4\n        /* \"#utility.yul\":23830:23848   */\n      add\n        /* \"#utility.yul\":23821:23827   */\n      dup5\n        /* \"#utility.yul\":23771:23849   */\n      tag_456\n      jump\t// in\n    tag_736:\n        /* \"#utility.yul\":23512:23856   */\n      swap4\n      swap3\n      pop\n      pop\n      pop\n      jump\t// out\n        /* \"#utility.yul\":23862:23956   */\n    tag_457:\n        /* \"#utility.yul\":23895:23903   */\n      0x00\n        /* \"#utility.yul\":23943:23948   */\n      dup2\n        /* \"#utility.yul\":23939:23941   */\n      0x60\n        /* \"#utility.yul\":23935:23949   */\n      shl\n        /* \"#utility.yul\":23914:23949   */\n      swap1\n      pop\n        /* \"#utility.yul\":23862:23956   */\n      swap2\n      swap1\n      pop\n      jump\t// out\n        /* \"#utility.yul\":23962:24056   */\n    tag_458:\n        /* \"#utility.yul\":24001:24008   */\n      0x00\n        /* \"#utility.yul\":24030:24050   */\n      tag_739\n        /* \"#utility.yul\":24044:24049   */\n      dup3\n        /* \"#utility.yul\":24030:24050   */\n      tag_457\n      jump\t// in\n    tag_739:\n        /* \"#utility.yul\":24019:24050   */\n      swap1\n      pop\n        /* \"#utility.yul\":23962:24056   */\n      swap2\n      swap1\n      pop\n      jump\t// out\n        /* \"#utility.yul\":24062:24162   */\n    tag_459:\n        /* \"#utility.yul\":24101:24108   */\n      0x00\n        /* \"#utility.yul\":24130:24156   */\n      tag_741\n        /* \"#utility.yul\":24150:24155   */\n      dup3\n        /* \"#utility.yul\":24130:24156   */\n      tag_458\n      jump\t// in\n    tag_741:\n        /* \"#utility.yul\":24119:24156   */\n      swap1\n      pop\n        /* \"#utility.yul\":24062:24162   */\n      swap2\n      swap1\n      pop\n      jump\t// out\n        /* \"#utility.yul\":24168:24325   */\n    tag_460:\n        /* \"#utility.yul\":24273:24318   */\n      tag_743\n        /* \"#utility.yul\":24293:24317   */\n      tag_744\n        /* \"#utility.yul\":24311:24316   */\n      dup3\n        /* \"#utility.yul\":24293:24317   */\n      tag_408\n      jump\t// in\n    tag_744:\n        /* \"#utility.yul\":24273:24318   */\n      tag_459\n      jump\t// in\n    tag_743:\n        /* \"#utility.yul\":24268:24271   */\n      dup3\n        /* \"#utility.yul\":24261:24319   */\n      mstore\n        /* \"#utility.yul\":24168:24325   */\n      pop\n      pop\n      jump\t// out\n        /* \"#utility.yul\":24331:24410   */\n    tag_461:\n        /* \"#utility.yul\":24370:24377   */\n      0x00\n        /* \"#utility.yul\":24399:24404   */\n      dup2\n        /* \"#utility.yul\":24388:24404   */\n      swap1\n      pop\n        /* \"#utility.yul\":24331:24410   */\n      swap2\n      swap1\n      pop\n      jump\t// out\n        /* \"#utility.yul\":24416:24573   */\n    tag_462:\n        /* \"#utility.yul\":24521:24566   */\n      tag_747\n        /* \"#utility.yul\":24541:24565   */\n      tag_748\n        /* \"#utility.yul\":24559:24564   */\n      dup3\n        /* \"#utility.yul\":24541:24565   */\n      tag_390\n      jump\t// in\n    tag_748:\n        /* \"#utility.yul\":24521:24566   */\n      tag_461\n      jump\t// in\n    tag_747:\n        /* \"#utility.yul\":24516:24519   */\n      dup3\n        /* \"#utility.yul\":24509:24567   */\n      mstore\n        /* \"#utility.yul\":24416:24573   */\n      pop\n      pop\n      jump\t// out\n        /* \"#utility.yul\":24579:25117   */\n    tag_218:\n        /* \"#utility.yul\":24747:24750   */\n      0x00\n        /* \"#utility.yul\":24762:24837   */\n      tag_750\n        /* \"#utility.yul\":24833:24836   */\n      dup3\n        /* \"#utility.yul\":24824:24830   */\n      dup7\n        /* \"#utility.yul\":24762:24837   */\n      tag_460\n      jump\t// in\n    tag_750:\n        /* \"#utility.yul\":24862:24864   */\n      0x14\n        /* \"#utility.yul\":24857:24860   */\n      dup3\n        /* \"#utility.yul\":24853:24865   */\n      add\n        /* \"#utility.yul\":24846:24865   */\n      swap2\n      pop\n        /* \"#utility.yul\":24875:24950   */\n      tag_751\n        /* \"#utility.yul\":24946:24949   */\n      dup3\n        /* \"#utility.yul\":24937:24943   */\n      dup6\n        /* \"#utility.yul\":24875:24950   */\n      tag_462\n      jump\t// in\n    tag_751:\n        /* \"#utility.yul\":24975:24977   */\n      0x20\n        /* \"#utility.yul\":24970:24973   */\n      dup3\n        /* \"#utility.yul\":24966:24978   */\n      add\n        /* \"#utility.yul\":24959:24978   */\n      swap2\n      pop\n        /* \"#utility.yul\":24988:25063   */\n      tag_752\n        /* \"#utility.yul\":25059:25062   */\n      dup3\n        /* \"#utility.yul\":25050:25056   */\n      dup5\n        /* \"#utility.yul\":24988:25063   */\n      tag_462\n      jump\t// in\n    tag_752:\n        /* \"#utility.yul\":25088:25090   */\n      0x20\n        /* \"#utility.yul\":25083:25086   */\n      dup3\n        /* \"#utility.yul\":25079:25091   */\n      add\n        /* \"#utility.yul\":25072:25091   */\n      swap2\n      pop\n        /* \"#utility.yul\":25108:25111   */\n      dup2\n        /* \"#utility.yul\":25101:25111   */\n      swap1\n      pop\n        /* \"#utility.yul\":24579:25117   */\n      swap5\n      swap4\n      pop\n      pop\n      pop\n      pop\n      jump\t// out\n        /* \"#utility.yul\":25123:25303   */\n    tag_463:\n        /* \"#utility.yul\":25171:25248   */\n      0x4e487b7100000000000000000000000000000000000000000000000000000000\n        /* \"#utility.yul\":25168:25169   */\n      0x00\n        /* \"#utility.yul\":25161:25249   */\n      mstore\n        /* \"#utility.yul\":25268:25272   */\n      0x12\n        /* \"#utility.yul\":25265:25266   */\n      0x04\n        /* \"#utility.yul\":25258:25273   */\n      mstore\n        /* \"#utility.yul\":25292:25296   */\n      0x24\n        /* \"#utility.yul\":25289:25290   */\n      0x00\n        /* \"#utility.yul\":25282:25297   */\n      revert\n        /* \"#utility.yul\":25309:25485   */\n    tag_223:\n        /* \"#utility.yul\":25341:25342   */\n      0x00\n        /* \"#utility.yul\":25358:25378   */\n      tag_755\n        /* \"#utility.yul\":25376:25377   */\n      dup3\n        /* \"#utility.yul\":25358:25378   */\n      tag_390\n      jump\t// in\n    tag_755:\n        /* \"#utility.yul\":25353:25378   */\n      swap2\n      pop\n        /* \"#utility.yul\":25392:25412   */\n      tag_756\n        /* \"#utility.yul\":25410:25411   */\n      dup4\n        /* \"#utility.yul\":25392:25412   */\n      tag_390\n      jump\t// in\n    tag_756:\n        /* \"#utility.yul\":25387:25412   */\n      swap3\n      pop\n        /* \"#utility.yul\":25431:25432   */\n      dup3\n        /* \"#utility.yul\":25421:25456   */\n      tag_757\n      jumpi\n        /* \"#utility.yul\":25436:25454   */\n      tag_758\n      tag_463\n      jump\t// in\n    tag_758:\n        /* \"#utility.yul\":25421:25456   */\n    tag_757:\n        /* \"#utility.yul\":25477:25478   */\n      dup3\n        /* \"#utility.yul\":25474:25475   */\n      dup3\n        /* \"#utility.yul\":25470:25479   */\n      mod\n        /* \"#utility.yul\":25465:25479   */\n      swap1\n      pop\n        /* \"#utility.yul\":25309:25485   */\n      swap3\n      swap2\n      pop\n      pop\n      jump\t// out\n        /* \"#utility.yul\":25491:25671   */\n    tag_226:\n        /* \"#utility.yul\":25539:25616   */\n      0x4e487b7100000000000000000000000000000000000000000000000000000000\n        /* \"#utility.yul\":25536:25537   */\n      0x00\n        /* \"#utility.yul\":25529:25617   */\n      mstore\n        /* \"#utility.yul\":25636:25640   */\n      0x32\n        /* \"#utility.yul\":25633:25634   */\n      0x04\n        /* \"#utility.yul\":25626:25641   */\n      mstore\n        /* \"#utility.yul\":25660:25664   */\n      0x24\n        /* \"#utility.yul\":25657:25658   */\n      0x00\n        /* \"#utility.yul\":25650:25665   */\n      revert\n        /* \"#utility.yul\":25677:25862   */\n    tag_230:\n        /* \"#utility.yul\":25717:25718   */\n      0x00\n        /* \"#utility.yul\":25734:25754   */\n      tag_761\n        /* \"#utility.yul\":25752:25753   */\n      dup3\n        /* \"#utility.yul\":25734:25754   */\n      tag_390\n      jump\t// in\n    tag_761:\n        /* \"#utility.yul\":25729:25754   */\n      swap2\n      pop\n        /* \"#utility.yul\":25768:25788   */\n      tag_762\n        /* \"#utility.yul\":25786:25787   */\n      dup4\n        /* \"#utility.yul\":25768:25788   */\n      tag_390\n      jump\t// in\n    tag_762:\n        /* \"#utility.yul\":25763:25788   */\n      swap3\n      pop\n        /* \"#utility.yul\":25807:25808   */\n      dup3\n        /* \"#utility.yul\":25797:25832   */\n      tag_763\n      jumpi\n        /* \"#utility.yul\":25812:25830   */\n      tag_764\n      tag_463\n      jump\t// in\n    tag_764:\n        /* \"#utility.yul\":25797:25832   */\n    tag_763:\n        /* \"#utility.yul\":25854:25855   */\n      dup3\n        /* \"#utility.yul\":25851:25852   */\n      dup3\n        /* \"#utility.yul\":25847:25856   */\n      div\n        /* \"#utility.yul\":25842:25856   */\n      swap1\n      pop\n        /* \"#utility.yul\":25677:25862   */\n      swap3\n      swap2\n      pop\n      pop\n      jump\t// out\n        /* \"#utility.yul\":25868:25990   */\n    tag_464:\n        /* \"#utility.yul\":25941:25965   */\n      tag_766\n        /* \"#utility.yul\":25959:25964   */\n      dup2\n        /* \"#utility.yul\":25941:25965   */\n      tag_416\n      jump\t// in\n    tag_766:\n        /* \"#utility.yul\":25934:25939   */\n      dup2\n        /* \"#utility.yul\":25931:25966   */\n      eq\n        /* \"#utility.yul\":25921:25984   */\n      tag_767\n      jumpi\n        /* \"#utility.yul\":25980:25981   */\n      0x00\n        /* \"#utility.yul\":25977:25978   */\n      0x00\n        /* \"#utility.yul\":25970:25982   */\n      revert\n        /* \"#utility.yul\":25921:25984   */\n    tag_767:\n        /* \"#utility.yul\":25868:25990   */\n      pop\n      jump\t// out\n        /* \"#utility.yul\":25996:26139   */\n    tag_465:\n        /* \"#utility.yul\":26053:26058   */\n      0x00\n        /* \"#utility.yul\":26084:26090   */\n      dup2\n        /* \"#utility.yul\":26078:26091   */\n      mload\n        /* \"#utility.yul\":26069:26091   */\n      swap1\n      pop\n        /* \"#utility.yul\":26100:26133   */\n      tag_769\n        /* \"#utility.yul\":26127:26132   */\n      dup2\n        /* \"#utility.yul\":26100:26133   */\n      tag_464\n      jump\t// in\n    tag_769:\n        /* \"#utility.yul\":25996:26139   */\n      swap3\n      swap2\n      pop\n      pop\n      jump\t// out\n        /* \"#utility.yul\":26145:26496   */\n    tag_259:\n        /* \"#utility.yul\":26215:26221   */\n      0x00\n        /* \"#utility.yul\":26264:26266   */\n      0x20\n        /* \"#utility.yul\":26252:26261   */\n      dup3\n        /* \"#utility.yul\":26243:26250   */\n      dup5\n        /* \"#utility.yul\":26239:26262   */\n      sub\n        /* \"#utility.yul\":26235:26267   */\n      slt\n        /* \"#utility.yul\":26232:26351   */\n      iszero\n      tag_771\n      jumpi\n        /* \"#utility.yul\":26270:26349   */\n      tag_772\n      tag_388\n      jump\t// in\n    tag_772:\n        /* \"#utility.yul\":26232:26351   */\n    tag_771:\n        /* \"#utility.yul\":26390:26391   */\n      0x00\n        /* \"#utility.yul\":26415:26479   */\n      tag_773\n        /* \"#utility.yul\":26471:26478   */\n      dup5\n        /* \"#utility.yul\":26462:26468   */\n      dup3\n        /* \"#utility.yul\":26451:26460   */\n      dup6\n        /* \"#utility.yul\":26447:26469   */\n      add\n        /* \"#utility.yul\":26415:26479   */\n      tag_465\n      jump\t// in\n    tag_773:\n        /* \"#utility.yul\":26405:26479   */\n      swap2\n      pop\n        /* \"#utility.yul\":26361:26489   */\n      pop\n        /* \"#utility.yul\":26145:26496   */\n      swap3\n      swap2\n      pop\n      pop\n      jump\t// out\n        /* \"#utility.yul\":26502:26592   */\n    tag_466:\n        /* \"#utility.yul\":26536:26543   */\n      0x00\n        /* \"#utility.yul\":26579:26584   */\n      dup2\n        /* \"#utility.yul\":26572:26585   */\n      iszero\n        /* \"#utility.yul\":26565:26586   */\n      iszero\n        /* \"#utility.yul\":26554:26586   */\n      swap1\n      pop\n        /* \"#utility.yul\":26502:26592   */\n      swap2\n      swap1\n      pop\n      jump\t// out\n        /* \"#utility.yul\":26598:26714   */\n    tag_467:\n        /* \"#utility.yul\":26668:26689   */\n      tag_776\n        /* \"#utility.yul\":26683:26688   */\n      dup2\n        /* \"#utility.yul\":26668:26689   */\n      tag_466\n      jump\t// in\n    tag_776:\n        /* \"#utility.yul\":26661:26666   */\n      dup2\n        /* \"#utility.yul\":26658:26690   */\n      eq\n        /* \"#utility.yul\":26648:26708   */\n      tag_777\n      jumpi\n        /* \"#utility.yul\":26704:26705   */\n      0x00\n        /* \"#utility.yul\":26701:26702   */\n      0x00\n        /* \"#utility.yul\":26694:26706   */\n      revert\n        /* \"#utility.yul\":26648:26708   */\n    tag_777:\n        /* \"#utility.yul\":26598:26714   */\n      pop\n      jump\t// out\n        /* \"#utility.yul\":26720:26857   */\n    tag_468:\n        /* \"#utility.yul\":26774:26779   */\n      0x00\n        /* \"#utility.yul\":26805:26811   */\n      dup2\n        /* \"#utility.yul\":26799:26812   */\n      mload\n        /* \"#utility.yul\":26790:26812   */\n      swap1\n      pop\n        /* \"#utility.yul\":26821:26851   */\n      tag_779\n        /* \"#utility.yul\":26845:26850   */\n      dup2\n        /* \"#utility.yul\":26821:26851   */\n      tag_467\n      jump\t// in\n    tag_779:\n        /* \"#utility.yul\":26720:26857   */\n      swap3\n      swap2\n      pop\n      pop\n      jump\t// out\n        /* \"#utility.yul\":26863:27208   */\n    tag_288:\n        /* \"#utility.yul\":26930:26936   */\n      0x00\n        /* \"#utility.yul\":26979:26981   */\n      0x20\n        /* \"#utility.yul\":26967:26976   */\n      dup3\n        /* \"#utility.yul\":26958:26965   */\n      dup5\n        /* \"#utility.yul\":26954:26977   */\n      sub\n        /* \"#utility.yul\":26950:26982   */\n      slt\n        /* \"#utility.yul\":26947:27066   */\n      iszero\n      tag_781\n      jumpi\n        /* \"#utility.yul\":26985:27064   */\n      tag_782\n      tag_388\n      jump\t// in\n    tag_782:\n        /* \"#utility.yul\":26947:27066   */\n    tag_781:\n        /* \"#utility.yul\":27105:27106   */\n      0x00\n        /* \"#utility.yul\":27130:27191   */\n      tag_783\n        /* \"#utility.yul\":27183:27190   */\n      dup5\n        /* \"#utility.yul\":27174:27180   */\n      dup3\n        /* \"#utility.yul\":27163:27172   */\n      dup6\n        /* \"#utility.yul\":27159:27181   */\n      add\n        /* \"#utility.yul\":27130:27191   */\n      tag_468\n      jump\t// in\n    tag_783:\n        /* \"#utility.yul\":27120:27191   */\n      swap2\n      pop\n        /* \"#utility.yul\":27076:27201   */\n      pop\n        /* \"#utility.yul\":26863:27208   */\n      swap3\n      swap2\n      pop\n      pop\n      jump\t// out\n        /* \"#utility.yul\":27214:27443   */\n    tag_469:\n        /* \"#utility.yul\":27354:27388   */\n      0x5361666545524332303a204552433230206f7065726174696f6e20646964206e\n        /* \"#utility.yul\":27350:27351   */\n      0x00\n        /* \"#utility.yul\":27342:27348   */\n      dup3\n        /* \"#utility.yul\":27338:27352   */\n      add\n        /* \"#utility.yul\":27331:27389   */\n      mstore\n        /* \"#utility.yul\":27423:27435   */\n      0x6f74207375636365656400000000000000000000000000000000000000000000\n        /* \"#utility.yul\":27418:27420   */\n      0x20\n        /* \"#utility.yul\":27410:27416   */\n      dup3\n        /* \"#utility.yul\":27406:27421   */\n      add\n        /* \"#utility.yul\":27399:27436   */\n      mstore\n        /* \"#utility.yul\":27214:27443   */\n      pop\n      jump\t// out\n        /* \"#utility.yul\":27449:27815   */\n    tag_470:\n        /* \"#utility.yul\":27591:27594   */\n      0x00\n        /* \"#utility.yul\":27612:27679   */\n      tag_786\n        /* \"#utility.yul\":27676:27678   */\n      0x2a\n        /* \"#utility.yul\":27671:27674   */\n      dup4\n        /* \"#utility.yul\":27612:27679   */\n      tag_419\n      jump\t// in\n    tag_786:\n        /* \"#utility.yul\":27605:27679   */\n      swap2\n      pop\n        /* \"#utility.yul\":27688:27781   */\n      tag_787\n        /* \"#utility.yul\":27777:27780   */\n      dup3\n        /* \"#utility.yul\":27688:27781   */\n      tag_469\n      jump\t// in\n    tag_787:\n        /* \"#utility.yul\":27806:27808   */\n      0x40\n        /* \"#utility.yul\":27801:27804   */\n      dup3\n        /* \"#utility.yul\":27797:27809   */\n      add\n        /* \"#utility.yul\":27790:27809   */\n      swap1\n      pop\n        /* \"#utility.yul\":27449:27815   */\n      swap2\n      swap1\n      pop\n      jump\t// out\n        /* \"#utility.yul\":27821:28240   */\n    tag_291:\n        /* \"#utility.yul\":27987:27991   */\n      0x00\n        /* \"#utility.yul\":28025:28027   */\n      0x20\n        /* \"#utility.yul\":28014:28023   */\n      dup3\n        /* \"#utility.yul\":28010:28028   */\n      add\n        /* \"#utility.yul\":28002:28028   */\n      swap1\n      pop\n        /* \"#utility.yul\":28074:28083   */\n      dup2\n        /* \"#utility.yul\":28068:28072   */\n      dup2\n        /* \"#utility.yul\":28064:28084   */\n      sub\n        /* \"#utility.yul\":28060:28061   */\n      0x00\n        /* \"#utility.yul\":28049:28058   */\n      dup4\n        /* \"#utility.yul\":28045:28062   */\n      add\n        /* \"#utility.yul\":28038:28085   */\n      mstore\n        /* \"#utility.yul\":28102:28233   */\n      tag_789\n        /* \"#utility.yul\":28228:28232   */\n      dup2\n        /* \"#utility.yul\":28102:28233   */\n      tag_470\n      jump\t// in\n    tag_789:\n        /* \"#utility.yul\":28094:28233   */\n      swap1\n      pop\n        /* \"#utility.yul\":27821:28240   */\n      swap2\n      swap1\n      pop\n      jump\t// out\n        /* \"#utility.yul\":28246:28344   */\n    tag_471:\n        /* \"#utility.yul\":28297:28303   */\n      0x00\n        /* \"#utility.yul\":28331:28336   */\n      dup2\n        /* \"#utility.yul\":28325:28337   */\n      mload\n        /* \"#utility.yul\":28315:28337   */\n      swap1\n      pop\n        /* \"#utility.yul\":28246:28344   */\n      swap2\n      swap1\n      pop\n      jump\t// out\n        /* \"#utility.yul\":28350:28497   */\n    tag_472:\n        /* \"#utility.yul\":28451:28462   */\n      0x00\n        /* \"#utility.yul\":28488:28491   */\n      dup2\n        /* \"#utility.yul\":28473:28491   */\n      swap1\n      pop\n        /* \"#utility.yul\":28350:28497   */\n      swap3\n      swap2\n      pop\n      pop\n      jump\t// out\n        /* \"#utility.yul\":28503:28889   */\n    tag_473:\n        /* \"#utility.yul\":28607:28610   */\n      0x00\n        /* \"#utility.yul\":28635:28673   */\n      tag_793\n        /* \"#utility.yul\":28667:28672   */\n      dup3\n        /* \"#utility.yul\":28635:28673   */\n      tag_471\n      jump\t// in\n    tag_793:\n        /* \"#utility.yul\":28689:28777   */\n      tag_794\n        /* \"#utility.yul\":28770:28776   */\n      dup2\n        /* \"#utility.yul\":28765:28768   */\n      dup6\n        /* \"#utility.yul\":28689:28777   */\n      tag_472\n      jump\t// in\n    tag_794:\n        /* \"#utility.yul\":28682:28777   */\n      swap4\n      pop\n        /* \"#utility.yul\":28786:28851   */\n      tag_795\n        /* \"#utility.yul\":28844:28850   */\n      dup2\n        /* \"#utility.yul\":28839:28842   */\n      dup6\n        /* \"#utility.yul\":28832:28836   */\n      0x20\n        /* \"#utility.yul\":28825:28830   */\n      dup7\n        /* \"#utility.yul\":28821:28837   */\n      add\n        /* \"#utility.yul\":28786:28851   */\n      tag_420\n      jump\t// in\n    tag_795:\n        /* \"#utility.yul\":28876:28882   */\n      dup1\n        /* \"#utility.yul\":28871:28874   */\n      dup5\n        /* \"#utility.yul\":28867:28883   */\n      add\n        /* \"#utility.yul\":28860:28883   */\n      swap2\n      pop\n        /* \"#utility.yul\":28611:28889   */\n      pop\n        /* \"#utility.yul\":28503:28889   */\n      swap3\n      swap2\n      pop\n      pop\n      jump\t// out\n        /* \"#utility.yul\":28895:29166   */\n    tag_294:\n        /* \"#utility.yul\":29025:29028   */\n      0x00\n        /* \"#utility.yul\":29047:29140   */\n      tag_797\n        /* \"#utility.yul\":29136:29139   */\n      dup3\n        /* \"#utility.yul\":29127:29133   */\n      dup5\n        /* \"#utility.yul\":29047:29140   */\n      tag_473\n      jump\t// in\n    tag_797:\n        /* \"#utility.yul\":29040:29140   */\n      swap2\n      pop\n        /* \"#utility.yul\":29157:29160   */\n      dup2\n        /* \"#utility.yul\":29150:29160   */\n      swap1\n      pop\n        /* \"#utility.yul\":28895:29166   */\n      swap3\n      swap2\n      pop\n      pop\n      jump\t// out\n        /* \"#utility.yul\":29172:29397   */\n    tag_474:\n        /* \"#utility.yul\":29312:29346   */\n      0x416464726573733a20696e73756666696369656e742062616c616e636520666f\n        /* \"#utility.yul\":29308:29309   */\n      0x00\n        /* \"#utility.yul\":29300:29306   */\n      dup3\n        /* \"#utility.yul\":29296:29310   */\n      add\n        /* \"#utility.yul\":29289:29347   */\n      mstore\n        /* \"#utility.yul\":29381:29389   */\n      0x722063616c6c0000000000000000000000000000000000000000000000000000\n        /* \"#utility.yul\":29376:29378   */\n      0x20\n        /* \"#utility.yul\":29368:29374   */\n      dup3\n        /* \"#utility.yul\":29364:29379   */\n      add\n        /* \"#utility.yul\":29357:29390   */\n      mstore\n        /* \"#utility.yul\":29172:29397   */\n      pop\n      jump\t// out\n        /* \"#utility.yul\":29403:29769   */\n    tag_475:\n        /* \"#utility.yul\":29545:29548   */\n      0x00\n        /* \"#utility.yul\":29566:29633   */\n      tag_800\n        /* \"#utility.yul\":29630:29632   */\n      0x26\n        /* \"#utility.yul\":29625:29628   */\n      dup4\n        /* \"#utility.yul\":29566:29633   */\n      tag_419\n      jump\t// in\n    tag_800:\n        /* \"#utility.yul\":29559:29633   */\n      swap2\n      pop\n        /* \"#utility.yul\":29642:29735   */\n      tag_801\n        /* \"#utility.yul\":29731:29734   */\n      dup3\n        /* \"#utility.yul\":29642:29735   */\n      tag_474\n      jump\t// in\n    tag_801:\n        /* \"#utility.yul\":29760:29762   */\n      0x40\n        /* \"#utility.yul\":29755:29758   */\n      dup3\n        /* \"#utility.yul\":29751:29763   */\n      add\n        /* \"#utility.yul\":29744:29763   */\n      swap1\n      pop\n        /* \"#utility.yul\":29403:29769   */\n      swap2\n      swap1\n      pop\n      jump\t// out\n        /* \"#utility.yul\":29775:30194   */\n    tag_355:\n        /* \"#utility.yul\":29941:29945   */\n      0x00\n        /* \"#utility.yul\":29979:29981   */\n      0x20\n        /* \"#utility.yul\":29968:29977   */\n      dup3\n        /* \"#utility.yul\":29964:29982   */\n      add\n        /* \"#utility.yul\":29956:29982   */\n      swap1\n      pop\n        /* \"#utility.yul\":30028:30037   */\n      dup2\n        /* \"#utility.yul\":30022:30026   */\n      dup2\n        /* \"#utility.yul\":30018:30038   */\n      sub\n        /* \"#utility.yul\":30014:30015   */\n      0x00\n        /* \"#utility.yul\":30003:30012   */\n      dup4\n        /* \"#utility.yul\":29999:30016   */\n      add\n        /* \"#utility.yul\":29992:30039   */\n      mstore\n        /* \"#utility.yul\":30056:30187   */\n      tag_803\n        /* \"#utility.yul\":30182:30186   */\n      dup2\n        /* \"#utility.yul\":30056:30187   */\n      tag_475\n      jump\t// in\n    tag_803:\n        /* \"#utility.yul\":30048:30187   */\n      swap1\n      pop\n        /* \"#utility.yul\":29775:30194   */\n      swap2\n      swap1\n      pop\n      jump\t// out\n        /* \"#utility.yul\":30200:30379   */\n    tag_476:\n        /* \"#utility.yul\":30340:30371   */\n      0x416464726573733a2063616c6c20746f206e6f6e2d636f6e7472616374000000\n        /* \"#utility.yul\":30336:30337   */\n      0x00\n        /* \"#utility.yul\":30328:30334   */\n      dup3\n        /* \"#utility.yul\":30324:30338   */\n      add\n        /* \"#utility.yul\":30317:30372   */\n      mstore\n        /* \"#utility.yul\":30200:30379   */\n      pop\n      jump\t// out\n        /* \"#utility.yul\":30385:30751   */\n    tag_477:\n        /* \"#utility.yul\":30527:30530   */\n      0x00\n        /* \"#utility.yul\":30548:30615   */\n      tag_806\n        /* \"#utility.yul\":30612:30614   */\n      0x1d\n        /* \"#utility.yul\":30607:30610   */\n      dup4\n        /* \"#utility.yul\":30548:30615   */\n      tag_419\n      jump\t// in\n    tag_806:\n        /* \"#utility.yul\":30541:30615   */\n      swap2\n      pop\n        /* \"#utility.yul\":30624:30717   */\n      tag_807\n        /* \"#utility.yul\":30713:30716   */\n      dup3\n        /* \"#utility.yul\":30624:30717   */\n      tag_476\n      jump\t// in\n    tag_807:\n        /* \"#utility.yul\":30742:30744   */\n      0x20\n        /* \"#utility.yul\":30737:30740   */\n      dup3\n        /* \"#utility.yul\":30733:30745   */\n      add\n        /* \"#utility.yul\":30726:30745   */\n      swap1\n      pop\n        /* \"#utility.yul\":30385:30751   */\n      swap2\n      swap1\n      pop\n      jump\t// out\n        /* \"#utility.yul\":30757:31176   */\n    tag_376:\n        /* \"#utility.yul\":30923:30927   */\n      0x00\n        /* \"#utility.yul\":30961:30963   */\n      0x20\n        /* \"#utility.yul\":30950:30959   */\n      dup3\n        /* \"#utility.yul\":30946:30964   */\n      add\n        /* \"#utility.yul\":30938:30964   */\n      swap1\n      pop\n        /* \"#utility.yul\":31010:31019   */\n      dup2\n        /* \"#utility.yul\":31004:31008   */\n      dup2\n        /* \"#utility.yul\":31000:31020   */\n      sub\n        /* \"#utility.yul\":30996:30997   */\n      0x00\n        /* \"#utility.yul\":30985:30994   */\n      dup4\n        /* \"#utility.yul\":30981:30998   */\n      add\n        /* \"#utility.yul\":30974:31021   */\n      mstore\n        /* \"#utility.yul\":31038:31169   */\n      tag_809\n        /* \"#utility.yul\":31164:31168   */\n      dup2\n        /* \"#utility.yul\":31038:31169   */\n      tag_477\n      jump\t// in\n    tag_809:\n        /* \"#utility.yul\":31030:31169   */\n      swap1\n      pop\n        /* \"#utility.yul\":30757:31176   */\n      swap2\n      swap1\n      pop\n      jump\t// out\n    stop\n    data_aad385f9ef490de6f63bbbec6ad31ed8093d8d122d15a621c03d319331d68b03 303132333435363738394142434445464748494a4b4c4d4e4f505152535455565758595a\n\n    auxdata: 0xa2646970667358221220169fa9d55f48c512d0d434e6c5b92c96f32cd4e623cc91bc35138b1020c909e264736f6c634300081f0033\n}\n",
				"bytecode": {
					"linkReferences": {},
					"object": "60a06040523073ffffffffffffffffffffffffffffffffffffffff1660809073ffffffffffffffffffffffffffffffffffffffff16815250348015610042575f5ffd5b5061005161005660201b60201c565b6101d1565b5f61006561015460201b60201c565b9050805f0160089054906101000a900460ff16156100af576040517ff92ee8a900000000000000000000000000000000000000000000000000000000815260040160405180910390fd5b67ffffffffffffffff8016815f015f9054906101000a900467ffffffffffffffff1667ffffffffffffffff16146101515767ffffffffffffffff815f015f6101000a81548167ffffffffffffffff021916908367ffffffffffffffff1602179055507fc7f505b2f371ae2175ee4913f4499e1f2633a7b5936321eed1cdaeb6115181d267ffffffffffffffff60405161014891906101b8565b60405180910390a15b50565b5f5f61016461016d60201b60201c565b90508091505090565b5f7ff0c57e16840df040f15088dc2f81fe391c3923bec73e23a9662efc9c229c6a005f1b905090565b5f67ffffffffffffffff82169050919050565b6101b281610196565b82525050565b5f6020820190506101cb5f8301846101a9565b92915050565b608051612e686101f75f395f81816112210152818161127601526114300152612e685ff3fe6080604052600436106100e7575f3560e01c8063715018a6116100895780639932dc05116100585780639932dc0514610293578063ad3cb1cc146102cf578063c4f74631146102f9578063f2fde38b14610335576100e7565b8063715018a6146101ff57806371cd28b4146102155780638da5cb5b1461023f57806397da7af714610269576100e7565b80632e108d1c116100c55780632e108d1c1461017b578063485cc955146101915780634f1ef286146101b957806352d1902d146101d5576100e7565b8063040d02e4146100eb57806311eac855146101135780631959a0021461013d575b5f5ffd5b3480156100f6575f5ffd5b50610111600480360381019061010c9190611f68565b61035d565b005b34801561011e575f5ffd5b506101276106b9565b604051610134919061203c565b60405180910390f35b348015610148575f5ffd5b50610163600480360381019061015e9190612090565b6106dd565b604051610172939291906120d9565b60405180910390f35b348015610186575f5ffd5b5061018f610722565b005b34801561019c575f5ffd5b506101b760048036038101906101b2919061210e565b61095b565b005b6101d360048036038101906101ce91906121ea565b610b6c565b005b3480156101e0575f5ffd5b506101e9610b8b565b6040516101f6919061225c565b60405180910390f35b34801561020a575f5ffd5b50610213610bbc565b005b348015610220575f5ffd5b50610229610bcf565b60405161023691906122d5565b60405180910390f35b34801561024a575f5ffd5b50610253610c9a565b60405161026091906122f5565b60405180910390f35b348015610274575f5ffd5b5061027d610ccf565b60405161028a919061232e565b60405180910390f35b34801561029e575f5ffd5b506102b960048036038101906102b49190612347565b610cf4565b6040516102c691906122f5565b60405180910390f35b3480156102da575f5ffd5b506102e3610d3c565b6040516102f091906122d5565b60405180910390f35b348015610304575f5ffd5b5061031f600480360381019061031a9190612090565b610d75565b60405161032c91906122d5565b60405180910390f35b348015610340575f5ffd5b5061035b60048036038101906103569190612090565b610e10565b005b610365610e94565b5f82116103a7576040517f08c379a000000000000000000000000000000000000000000000000000000000815260040161039e906123d8565b60405180910390fd5b5f6002826040516103b89190612430565b90815260200160405180910390205f9054906101000a900473ffffffffffffffffffffffffffffffffffffffff1690505f73ffffffffffffffffffffffffffffffffffffffff168173ffffffffffffffffffffffffffffffffffffffff16148061044d57503373ffffffffffffffffffffffffffffffffffffffff168173ffffffffffffffffffffffffffffffffffffffff16145b15610456575f90505b5f60045f3373ffffffffffffffffffffffffffffffffffffffff1673ffffffffffffffffffffffffffffffffffffffff1681526020019081526020015f2090505f815f0154036104e35781816002015f6101000a81548173ffffffffffffffffffffffffffffffffffffffff021916908373ffffffffffffffffffffffffffffffffffffffff1602179055505b83815f015f8282546104f59190612473565b925050819055504281600101819055506105523330865f5f9054906101000a900473ffffffffffffffffffffffffffffffffffffffff1673ffffffffffffffffffffffffffffffffffffffff16610ee8909392919063ffffffff16565b6105be60015f9054906101000a900473ffffffffffffffffffffffffffffffffffffffff16855f5f9054906101000a900473ffffffffffffffffffffffffffffffffffffffff1673ffffffffffffffffffffffffffffffffffffffff16610f719092919063ffffffff16565b60015f9054906101000a900473ffffffffffffffffffffffffffffffffffffffff1673ffffffffffffffffffffffffffffffffffffffff16636e553f6585306040518363ffffffff1660e01b815260040161061a9291906124a6565b6020604051808303815f875af1158015610636573d5f5f3e3d5ffd5b505050506040513d601f19601f8201168201806040525081019061065a91906124e1565b503373ffffffffffffffffffffffffffffffffffffffff167f6a1db4f0607dd89cd0ee9ef3676c9521b6c9ce054afb4d659365a683e34030aa85856040516106a392919061250c565b60405180910390a250506106b561108c565b5050565b5f5f9054906101000a900473ffffffffffffffffffffffffffffffffffffffff1681565b6004602052805f5260405f205f91509050805f015490806001015490806002015f9054906101000a900473ffffffffffffffffffffffffffffffffffffffff16905083565b5f60035f3373ffffffffffffffffffffffffffffffffffffffff1673ffffffffffffffffffffffffffffffffffffffff1681526020019081526020015f20805461076b90612567565b9050146107ad576040517f08c379a00000000000000000000000000000000000000000000000000000000081526004016107a4906125e1565b60405180910390fd5b5f6107b66110a3565b90505f73ffffffffffffffffffffffffffffffffffffffff166002826040516107df9190612430565b90815260200160405180910390205f9054906101000a900473ffffffffffffffffffffffffffffffffffffffff1673ffffffffffffffffffffffffffffffffffffffff1614610863576040517f08c379a000000000000000000000000000000000000000000000000000000000815260040161085a9061266f565b60405180910390fd5b336002826040516108749190612430565b90815260200160405180910390205f6101000a81548173ffffffffffffffffffffffffffffffffffffffff021916908373ffffffffffffffffffffffffffffffffffffffff1602179055508060035f3373ffffffffffffffffffffffffffffffffffffffff1673ffffffffffffffffffffffffffffffffffffffff1681526020019081526020015f2090816109099190612824565b503373ffffffffffffffffffffffffffffffffffffffff167fbbba1cab2093e26ee6b388fefb2109576871f9236f9c1f22779dad4b82093b7b8260405161095091906122d5565b60405180910390a250565b5f6109646111dc565b90505f815f0160089054906101000a900460ff161590505f825f015f9054906101000a900467ffffffffffffffff1690505f5f8267ffffffffffffffff161480156109ac5750825b90505f60018367ffffffffffffffff161480156109df57505f3073ffffffffffffffffffffffffffffffffffffffff163b145b9050811580156109ed575080155b15610a24576040517ff92ee8a900000000000000000000000000000000000000000000000000000000815260040160405180910390fd5b6001855f015f6101000a81548167ffffffffffffffff021916908367ffffffffffffffff1602179055508315610a71576001855f0160086101000a81548160ff0219169083151502179055505b610a7a336111ef565b610a82611203565b610a8a611215565b865f5f6101000a81548173ffffffffffffffffffffffffffffffffffffffff021916908373ffffffffffffffffffffffffffffffffffffffff1602179055508560015f6101000a81548173ffffffffffffffffffffffffffffffffffffffff021916908373ffffffffffffffffffffffffffffffffffffffff1602179055508315610b63575f855f0160086101000a81548160ff0219169083151502179055507fc7f505b2f371ae2175ee4913f4499e1f2633a7b5936321eed1cdaeb6115181d26001604051610b5a919061293f565b60405180910390a15b50505050505050565b610b7461121f565b610b7d82611305565b610b878282611310565b5050565b5f610b9461142e565b7f360894a13ba1a3210667c828492db98dca3e2076cc3735a920a3ca505d382bbc5f1b905090565b610bc46114b5565b610bcd5f61153c565b565b606060035f3373ffffffffffffffffffffffffffffffffffffffff1673ffffffffffffffffffffffffffffffffffffffff1681526020019081526020015f208054610c1990612567565b80601f0160208091040260200160405190810160405280929190818152602001828054610c4590612567565b8015610c905780601f10610c6757610100808354040283529160200191610c90565b820191905f5260205f20905b815481529060010190602001808311610c7357829003601f168201915b5050505050905090565b5f5f610ca461160d565b9050805f015f9054906101000a900473ffffffffffffffffffffffffffffffffffffffff1691505090565b60015f9054906101000a900473ffffffffffffffffffffffffffffffffffffffff1681565b6002818051602081018201805184825260208301602085012081835280955050505050505f915054906101000a900473ffffffffffffffffffffffffffffffffffffffff1681565b6040518060400160405280600581526020017f352e302e3000000000000000000000000000000000000000000000000000000081525081565b6003602052805f5260405f205f915090508054610d9190612567565b80601f0160208091040260200160405190810160405280929190818152602001828054610dbd90612567565b8015610e085780601f10610ddf57610100808354040283529160200191610e08565b820191905f5260205f20905b815481529060010190602001808311610deb57829003601f168201915b505050505081565b610e186114b5565b5f73ffffffffffffffffffffffffffffffffffffffff168173ffffffffffffffffffffffffffffffffffffffff1603610e88575f6040517f1e4fbdf7000000000000000000000000000000000000000000000000000000008152600401610e7f91906122f5565b60405180910390fd5b610e918161153c565b50565b5f610e9d611634565b90506002815f015403610edc576040517f3ee5aeb500000000000000000000000000000000000000000000000000000000815260040160405180910390fd5b6002815f018190555050565b610f6b846323b872dd60e01b858585604051602401610f0993929190612958565b604051602081830303815290604052907bffffffffffffffffffffffffffffffffffffffffffffffffffffffff19166020820180517bffffffffffffffffffffffffffffffffffffffffffffffffffffffff838183161783525050505061165b565b50505050565b5f63095ea7b360e01b8383604051602401610f8d92919061298d565b604051602081830303815290604052907bffffffffffffffffffffffffffffffffffffffffffffffffffffffff19166020820180517bffffffffffffffffffffffffffffffffffffffffffffffffffffffff83818316178352505050509050610ff68482611721565b6110865761107b8463095ea7b360e01b855f6040516024016110199291906129f9565b604051602081830303815290604052907bffffffffffffffffffffffffffffffffffffffffffffffffffffffff19166020820180517bffffffffffffffffffffffffffffffffffffffffffffffffffffffff838183161783525050505061165b565b611085848261165b565b5b50505050565b5f611095611634565b90506001815f018190555050565b60605f600767ffffffffffffffff8111156110c1576110c0611e44565b5b6040519080825280601f01601f1916602001820160405280156110f35781602001600182028036833780820191505090505b5090505f33424460405160200161110c93929190612a85565b604051602081830303815290604052805190602001205f1c90505f5f90505b60078110156111d357604051806060016040528060248152602001612e0f6024913960248361115a9190612aee565b8151811061116b5761116a612b1e565b5b602001015160f81c60f81b83828151811061118957611188612b1e565b5b60200101907effffffffffffffffffffffffffffffffffffffffffffffffffffffffffffff191690815f1a9053506024826111c49190612b4b565b9150808060010191505061112b565b50819250505090565b5f5f6111e66117cf565b90508091505090565b6111f76117f8565b61120081611838565b50565b61120b6117f8565b6112136118bc565b565b61121d6117f8565b565b7f000000000000000000000000000000000000000000000000000000000000000073ffffffffffffffffffffffffffffffffffffffff163073ffffffffffffffffffffffffffffffffffffffff1614806112cc57507f000000000000000000000000000000000000000000000000000000000000000073ffffffffffffffffffffffffffffffffffffffff166112b36118db565b73ffffffffffffffffffffffffffffffffffffffff1614155b15611303576040517fe07c8dba00000000000000000000000000000000000000000000000000000000815260040160405180910390fd5b565b61130d6114b5565b50565b8173ffffffffffffffffffffffffffffffffffffffff166352d1902d6040518163ffffffff1660e01b8152600401602060405180830381865afa92505050801561137857506040513d601f19601f820116820180604052508101906113759190612ba5565b60015b6113b957816040517f4c9c8ce30000000000000000000000000000000000000000000000000000000081526004016113b091906122f5565b60405180910390fd5b7f360894a13ba1a3210667c828492db98dca3e2076cc3735a920a3ca505d382bbc5f1b811461141f57806040517faa1d49a4000000000000000000000000000000000000000000000000000000008152600401611416919061225c565b60405180910390fd5b611429838361192e565b505050565b7f000000000000000000000000000000000000000000000000000000000000000073ffffffffffffffffffffffffffffffffffffffff163073ffffffffffffffffffffffffffffffffffffffff16146114b3576040517fe07c8dba00000000000000000000000000000000000000000000000000000000815260040160405180910390fd5b565b6114bd6119a0565b73ffffffffffffffffffffffffffffffffffffffff166114db610c9a565b73ffffffffffffffffffffffffffffffffffffffff161461153a576114fe6119a0565b6040517f118cdaa700000000000000000000000000000000000000000000000000000000815260040161153191906122f5565b60405180910390fd5b565b5f61154561160d565b90505f815f015f9054906101000a900473ffffffffffffffffffffffffffffffffffffffff16905082825f015f6101000a81548173ffffffffffffffffffffffffffffffffffffffff021916908373ffffffffffffffffffffffffffffffffffffffff1602179055508273ffffffffffffffffffffffffffffffffffffffff168173ffffffffffffffffffffffffffffffffffffffff167f8be0079c531659141344cd1fd0a4f28419497f9722a3daafe3b4186f6b6457e060405160405180910390a3505050565b5f7f9016d09d72d40fdae2fd8ceac6b6234c7706214fd39c1cd1e609a0528c199300905090565b5f7f9b779b17422d0df92223018b32b4d1fa46e071723d6817e2486d003becc55f00905090565b5f6116bc826040518060400160405280602081526020017f5361666545524332303a206c6f772d6c6576656c2063616c6c206661696c65648152508573ffffffffffffffffffffffffffffffffffffffff166119a79092919063ffffffff16565b90505f815114806116dd5750808060200190518101906116dc9190612c05565b5b61171c576040517f08c379a000000000000000000000000000000000000000000000000000000000815260040161171390612ca0565b60405180910390fd5b505050565b5f5f5f8473ffffffffffffffffffffffffffffffffffffffff16846040516117499190612d02565b5f604051808303815f865af19150503d805f8114611782576040519150601f19603f3d011682016040523d82523d5f602084013e611787565b606091505b50915091508180156117b457505f815114806117b35750808060200190518101906117b29190612c05565b5b5b80156117c557506117c4856119be565b5b9250505092915050565b5f7ff0c57e16840df040f15088dc2f81fe391c3923bec73e23a9662efc9c229c6a005f1b905090565b6118006119e0565b611836576040517fd7e6bcf800000000000000000000000000000000000000000000000000000000815260040160405180910390fd5b565b6118406117f8565b5f73ffffffffffffffffffffffffffffffffffffffff168173ffffffffffffffffffffffffffffffffffffffff16036118b0575f6040517f1e4fbdf70000000000000000000000000000000000000000000000000000000081526004016118a791906122f5565b60405180910390fd5b6118b98161153c565b50565b6118c46117f8565b5f6118cd611634565b90506001815f018190555050565b5f6119077f360894a13ba1a3210667c828492db98dca3e2076cc3735a920a3ca505d382bbc5f1b6119fe565b5f015f9054906101000a900473ffffffffffffffffffffffffffffffffffffffff16905090565b61193782611a07565b8173ffffffffffffffffffffffffffffffffffffffff167fbc7cd75a20ee27fd9adebab32041f755214dbc6bffa90cc0225b39da2e5c2d3b60405160405180910390a25f815111156119935761198d8282611ad0565b5061199c565b61199b611b50565b5b5050565b5f33905090565b60606119b584845f85611b8c565b90509392505050565b5f5f8273ffffffffffffffffffffffffffffffffffffffff163b119050919050565b5f6119e96111dc565b5f0160089054906101000a900460ff16905090565b5f819050919050565b5f8173ffffffffffffffffffffffffffffffffffffffff163b03611a6257806040517f4c9c8ce3000000000000000000000000000000000000000000000000000000008152600401611a5991906122f5565b60405180910390fd5b80611a8e7f360894a13ba1a3210667c828492db98dca3e2076cc3735a920a3ca505d382bbc5f1b6119fe565b5f015f6101000a81548173ffffffffffffffffffffffffffffffffffffffff021916908373ffffffffffffffffffffffffffffffffffffffff16021790555050565b60605f5f8473ffffffffffffffffffffffffffffffffffffffff1684604051611af99190612d02565b5f60405180830381855af49150503d805f8114611b31576040519150601f19603f3d011682016040523d82523d5f602084013e611b36565b606091505b5091509150611b46858383611c55565b9250505092915050565b5f341115611b8a576040517fb398979f00000000000000000000000000000000000000000000000000000000815260040160405180910390fd5b565b606082471015611bd1576040517f08c379a0000000000000000000000000000000000000000000000000000000008152600401611bc890612d88565b60405180910390fd5b5f5f8673ffffffffffffffffffffffffffffffffffffffff168587604051611bf99190612d02565b5f6040518083038185875af1925050503d805f8114611c33576040519150601f19603f3d011682016040523d82523d5f602084013e611c38565b606091505b5091509150611c4987838387611ce2565b92505050949350505050565b606082611c6a57611c6582611d56565b611cda565b5f8251148015611c9057505f8473ffffffffffffffffffffffffffffffffffffffff163b145b15611cd257836040517f9996b315000000000000000000000000000000000000000000000000000000008152600401611cc991906122f5565b60405180910390fd5b819050611cdb565b5b9392505050565b60608315611d43575f835103611d3b57611cfb856119be565b611d3a576040517f08c379a0000000000000000000000000000000000000000000000000000000008152600401611d3190612df0565b60405180910390fd5b5b829050611d4e565b611d4d8383611d99565b5b949350505050565b5f81511115611d6757805160208201fd5b6040517fd6bda27500000000000000000000000000000000000000000000000000000000815260040160405180910390fd5b5f82511115611dab5781518083602001fd5b806040517f08c379a0000000000000000000000000000000000000000000000000000000008152600401611ddf91906122d5565b60405180910390fd5b5f604051905090565b5f5ffd5b5f5ffd5b5f819050919050565b611e0b81611df9565b8114611e15575f5ffd5b50565b5f81359050611e2681611e02565b92915050565b5f5ffd5b5f5ffd5b5f601f19601f8301169050919050565b7f4e487b71000000000000000000000000000000000000000000000000000000005f52604160045260245ffd5b611e7a82611e34565b810181811067ffffffffffffffff82111715611e9957611e98611e44565b5b80604052505050565b5f611eab611de8565b9050611eb78282611e71565b919050565b5f67ffffffffffffffff821115611ed657611ed5611e44565b5b611edf82611e34565b9050602081019050919050565b828183375f83830152505050565b5f611f0c611f0784611ebc565b611ea2565b905082815260208101848484011115611f2857611f27611e30565b5b611f33848285611eec565b509392505050565b5f82601f830112611f4f57611f4e611e2c565b5b8135611f5f848260208601611efa565b91505092915050565b5f5f60408385031215611f7e57611f7d611df1565b5b5f611f8b85828601611e18565b925050602083013567ffffffffffffffff811115611fac57611fab611df5565b5b611fb885828601611f3b565b9150509250929050565b5f73ffffffffffffffffffffffffffffffffffffffff82169050919050565b5f819050919050565b5f612004611fff611ffa84611fc2565b611fe1565b611fc2565b9050919050565b5f61201582611fea565b9050919050565b5f6120268261200b565b9050919050565b6120368161201c565b82525050565b5f60208201905061204f5f83018461202d565b92915050565b5f61205f82611fc2565b9050919050565b61206f81612055565b8114612079575f5ffd5b50565b5f8135905061208a81612066565b92915050565b5f602082840312156120a5576120a4611df1565b5b5f6120b28482850161207c565b91505092915050565b6120c481611df9565b82525050565b6120d381612055565b82525050565b5f6060820190506120ec5f8301866120bb565b6120f960208301856120bb565b61210660408301846120ca565b949350505050565b5f5f6040838503121561212457612123611df1565b5b5f6121318582860161207c565b92505060206121428582860161207c565b9150509250929050565b5f67ffffffffffffffff82111561216657612165611e44565b5b61216f82611e34565b9050602081019050919050565b5f61218e6121898461214c565b611ea2565b9050828152602081018484840111156121aa576121a9611e30565b5b6121b5848285611eec565b509392505050565b5f82601f8301126121d1576121d0611e2c565b5b81356121e184826020860161217c565b91505092915050565b5f5f60408385031215612200576121ff611df1565b5b5f61220d8582860161207c565b925050602083013567ffffffffffffffff81111561222e5761222d611df5565b5b61223a858286016121bd565b9150509250929050565b5f819050919050565b61225681612244565b82525050565b5f60208201905061226f5f83018461224d565b92915050565b5f81519050919050565b5f82825260208201905092915050565b8281835e5f83830152505050565b5f6122a782612275565b6122b1818561227f565b93506122c181856020860161228f565b6122ca81611e34565b840191505092915050565b5f6020820190508181035f8301526122ed818461229d565b905092915050565b5f6020820190506123085f8301846120ca565b92915050565b5f6123188261200b565b9050919050565b6123288161230e565b82525050565b5f6020820190506123415f83018461231f565b92915050565b5f6020828403121561235c5761235b611df1565b5b5f82013567ffffffffffffffff81111561237957612378611df5565b5b61238584828501611f3b565b91505092915050565b7f5a61704170793a20416d6f756e74206d757374206265203e20300000000000005f82015250565b5f6123c2601a8361227f565b91506123cd8261238e565b602082019050919050565b5f6020820190508181035f8301526123ef816123b6565b9050919050565b5f81905092915050565b5f61240a82612275565b61241481856123f6565b935061242481856020860161228f565b80840191505092915050565b5f61243b8284612400565b915081905092915050565b7f4e487b71000000000000000000000000000000000000000000000000000000005f52601160045260245ffd5b5f61247d82611df9565b915061248883611df9565b92508282019050808211156124a05761249f612446565b5b92915050565b5f6040820190506124b95f8301856120bb565b6124c660208301846120ca565b9392505050565b5f815190506124db81611e02565b92915050565b5f602082840312156124f6576124f5611df1565b5b5f612503848285016124cd565b91505092915050565b5f60408201905061251f5f8301856120bb565b8181036020830152612531818461229d565b90509392505050565b7f4e487b71000000000000000000000000000000000000000000000000000000005f52602260045260245ffd5b5f600282049050600182168061257e57607f821691505b6020821081036125915761259061253a565b5b50919050565b7f5a61704170793a20596f7520616c72656164792068617665206120636f6465005f82015250565b5f6125cb601f8361227f565b91506125d682612597565b602082019050919050565b5f6020820190508181035f8301526125f8816125bf565b9050919050565b7f5a61704170793a20436f646520636f6c6c6973696f6e2c2074727920616761695f8201527f6e00000000000000000000000000000000000000000000000000000000000000602082015250565b5f61265960218361227f565b9150612664826125ff565b604082019050919050565b5f6020820190508181035f8301526126868161264d565b9050919050565b5f819050815f5260205f209050919050565b5f6020601f8301049050919050565b5f82821b905092915050565b5f600883026126e97fffffffffffffffffffffffffffffffffffffffffffffffffffffffffffffffff826126ae565b6126f386836126ae565b95508019841693508086168417925050509392505050565b5f61272561272061271b84611df9565b611fe1565b611df9565b9050919050565b5f819050919050565b61273e8361270b565b61275261274a8261272c565b8484546126ba565b825550505050565b5f5f905090565b61276961275a565b612774818484612735565b505050565b5b818110156127975761278c5f82612761565b60018101905061277a565b5050565b601f8211156127dc576127ad8161268d565b6127b68461269f565b810160208510156127c5578190505b6127d96127d18561269f565b830182612779565b50505b505050565b5f82821c905092915050565b5f6127fc5f19846008026127e1565b1980831691505092915050565b5f61281483836127ed565b9150826002028217905092915050565b61282d82612275565b67ffffffffffffffff81111561284657612845611e44565b5b6128508254612567565b61285b82828561279b565b5f60209050601f83116001811461288c575f841561287a578287015190505b6128848582612809565b8655506128eb565b601f19841661289a8661268d565b5f5b828110156128c15784890151825560018201915060208501945060208101905061289c565b868310156128de57848901516128da601f8916826127ed565b8355505b6001600288020188555050505b505050505050565b5f819050919050565b5f67ffffffffffffffff82169050919050565b5f61292961292461291f846128f3565b611fe1565b6128fc565b9050919050565b6129398161290f565b82525050565b5f6020820190506129525f830184612930565b92915050565b5f60608201905061296b5f8301866120ca565b61297860208301856120ca565b61298560408301846120bb565b949350505050565b5f6040820190506129a05f8301856120ca565b6129ad60208301846120bb565b9392505050565b5f819050919050565b5f60ff82169050919050565b5f6129e36129de6129d9846129b4565b611fe1565b6129bd565b9050919050565b6129f3816129c9565b82525050565b5f604082019050612a0c5f8301856120ca565b612a1960208301846129ea565b9392505050565b5f8160601b9050919050565b5f612a3682612a20565b9050919050565b5f612a4782612a2c565b9050919050565b612a5f612a5a82612055565b612a3d565b82525050565b5f819050919050565b612a7f612a7a82611df9565b612a65565b82525050565b5f612a908286612a4e565b601482019150612aa08285612a6e565b602082019150612ab08284612a6e565b602082019150819050949350505050565b7f4e487b71000000000000000000000000000000000000000000000000000000005f52601260045260245ffd5b5f612af882611df9565b9150612b0383611df9565b925082612b1357612b12612ac1565b5b828206905092915050565b7f4e487b71000000000000000000000000000000000000000000000000000000005f52603260045260245ffd5b5f612b5582611df9565b9150612b6083611df9565b925082612b7057612b6f612ac1565b5b828204905092915050565b612b8481612244565b8114612b8e575f5ffd5b50565b5f81519050612b9f81612b7b565b92915050565b5f60208284031215612bba57612bb9611df1565b5b5f612bc784828501612b91565b91505092915050565b5f8115159050919050565b612be481612bd0565b8114612bee575f5ffd5b50565b5f81519050612bff81612bdb565b92915050565b5f60208284031215612c1a57612c19611df1565b5b5f612c2784828501612bf1565b91505092915050565b7f5361666545524332303a204552433230206f7065726174696f6e20646964206e5f8201527f6f74207375636365656400000000000000000000000000000000000000000000602082015250565b5f612c8a602a8361227f565b9150612c9582612c30565b604082019050919050565b5f6020820190508181035f830152612cb781612c7e565b9050919050565b5f81519050919050565b5f81905092915050565b5f612cdc82612cbe565b612ce68185612cc8565b9350612cf681856020860161228f565b80840191505092915050565b5f612d0d8284612cd2565b915081905092915050565b7f416464726573733a20696e73756666696369656e742062616c616e636520666f5f8201527f722063616c6c0000000000000000000000000000000000000000000000000000602082015250565b5f612d7260268361227f565b9150612d7d82612d18565b604082019050919050565b5f6020820190508181035f830152612d9f81612d66565b9050919050565b7f416464726573733a2063616c6c20746f206e6f6e2d636f6e74726163740000005f82015250565b5f612dda601d8361227f565b9150612de582612da6565b602082019050919050565b5f6020820190508181035f830152612e0781612dce565b905091905056fe303132333435363738394142434445464748494a4b4c4d4e4f505152535455565758595aa2646970667358221220169fa9d55f48c512d0d434e6c5b92c96f32cd4e623cc91bc35138b1020c909e264736f6c634300081f0033",
					"opcodes": "PUSH1 0xA0 PUSH1 0x40 MSTORE ADDRESS PUSH20 0xFFFFFFFFFFFFFFFFFFFFFFFFFFFFFFFFFFFFFFFF AND PUSH1 0x80 SWAP1 PUSH20 0xFFFFFFFFFFFFFFFFFFFFFFFFFFFFFFFFFFFFFFFF AND DUP2 MSTORE POP CALLVALUE DUP1 ISZERO PUSH2 0x42 JUMPI PUSH0 PUSH0 REVERT JUMPDEST POP PUSH2 0x51 PUSH2 0x56 PUSH1 0x20 SHL PUSH1 0x20 SHR JUMP JUMPDEST PUSH2 0x1D1 JUMP JUMPDEST PUSH0 PUSH2 0x65 PUSH2 0x154 PUSH1 0x20 SHL PUSH1 0x20 SHR JUMP JUMPDEST SWAP1 POP DUP1 PUSH0 ADD PUSH1 0x8 SWAP1 SLOAD SWAP1 PUSH2 0x100 EXP SWAP1 DIV PUSH1 0xFF AND ISZERO PUSH2 0xAF JUMPI PUSH1 0x40 MLOAD PUSH32 0xF92EE8A900000000000000000000000000000000000000000000000000000000 DUP2 MSTORE PUSH1 0x4 ADD PUSH1 0x40 MLOAD DUP1 SWAP2 SUB SWAP1 REVERT JUMPDEST PUSH8 0xFFFFFFFFFFFFFFFF DUP1 AND DUP2 PUSH0 ADD PUSH0 SWAP1 SLOAD SWAP1 PUSH2 0x100 EXP SWAP1 DIV PUSH8 0xFFFFFFFFFFFFFFFF AND PUSH8 0xFFFFFFFFFFFFFFFF AND EQ PUSH2 0x151 JUMPI PUSH8 0xFFFFFFFFFFFFFFFF DUP2 PUSH0 ADD PUSH0 PUSH2 0x100 EXP DUP2 SLOAD DUP2 PUSH8 0xFFFFFFFFFFFFFFFF MUL NOT AND SWAP1 DUP4 PUSH8 0xFFFFFFFFFFFFFFFF AND MUL OR SWAP1 SSTORE POP PUSH32 0xC7F505B2F371AE2175EE4913F4499E1F2633A7B5936321EED1CDAEB6115181D2 PUSH8 0xFFFFFFFFFFFFFFFF PUSH1 0x40 MLOAD PUSH2 0x148 SWAP2 SWAP1 PUSH2 0x1B8 JUMP JUMPDEST PUSH1 0x40 MLOAD DUP1 SWAP2 SUB SWAP1 LOG1 JUMPDEST POP JUMP JUMPDEST PUSH0 PUSH0 PUSH2 0x164 PUSH2 0x16D PUSH1 0x20 SHL PUSH1 0x20 SHR JUMP JUMPDEST SWAP1 POP DUP1 SWAP2 POP POP SWAP1 JUMP JUMPDEST PUSH0 PUSH32 0xF0C57E16840DF040F15088DC2F81FE391C3923BEC73E23A9662EFC9C229C6A00 PUSH0 SHL SWAP1 POP SWAP1 JUMP JUMPDEST PUSH0 PUSH8 0xFFFFFFFFFFFFFFFF DUP3 AND SWAP1 POP SWAP2 SWAP1 POP JUMP JUMPDEST PUSH2 0x1B2 DUP2 PUSH2 0x196 JUMP JUMPDEST DUP3 MSTORE POP POP JUMP JUMPDEST PUSH0 PUSH1 0x20 DUP3 ADD SWAP1 POP PUSH2 0x1CB PUSH0 DUP4 ADD DUP5 PUSH2 0x1A9 JUMP JUMPDEST SWAP3 SWAP2 POP POP JUMP JUMPDEST PUSH1 0x80 MLOAD PUSH2 0x2E68 PUSH2 0x1F7 PUSH0 CODECOPY PUSH0 DUP2 DUP2 PUSH2 0x1221 ADD MSTORE DUP2 DUP2 PUSH2 0x1276 ADD MSTORE PUSH2 0x1430 ADD MSTORE PUSH2 0x2E68 PUSH0 RETURN INVALID PUSH1 0x80 PUSH1 0x40 MSTORE PUSH1 0x4 CALLDATASIZE LT PUSH2 0xE7 JUMPI PUSH0 CALLDATALOAD PUSH1 0xE0 SHR DUP1 PUSH4 0x715018A6 GT PUSH2 0x89 JUMPI DUP1 PUSH4 0x9932DC05 GT PUSH2 0x58 JUMPI DUP1 PUSH4 0x9932DC05 EQ PUSH2 0x293 JUMPI DUP1 PUSH4 0xAD3CB1CC EQ PUSH2 0x2CF JUMPI DUP1 PUSH4 0xC4F74631 EQ PUSH2 0x2F9 JUMPI DUP1 PUSH4 0xF2FDE38B EQ PUSH2 0x335 JUMPI PUSH2 0xE7 JUMP JUMPDEST DUP1 PUSH4 0x715018A6 EQ PUSH2 0x1FF JUMPI DUP1 PUSH4 0x71CD28B4 EQ PUSH2 0x215 JUMPI DUP1 PUSH4 0x8DA5CB5B EQ PUSH2 0x23F JUMPI DUP1 PUSH4 0x97DA7AF7 EQ PUSH2 0x269 JUMPI PUSH2 0xE7 JUMP JUMPDEST DUP1 PUSH4 0x2E108D1C GT PUSH2 0xC5 JUMPI DUP1 PUSH4 0x2E108D1C EQ PUSH2 0x17B JUMPI DUP1 PUSH4 0x485CC955 EQ PUSH2 0x191 JUMPI DUP1 PUSH4 0x4F1EF286 EQ PUSH2 0x1B9 JUMPI DUP1 PUSH4 0x52D1902D EQ PUSH2 0x1D5 JUMPI PUSH2 0xE7 JUMP JUMPDEST DUP1 PUSH4 0x40D02E4 EQ PUSH2 0xEB JUMPI DUP1 PUSH4 0x11EAC855 EQ PUSH2 0x113 JUMPI DUP1 PUSH4 0x1959A002 EQ PUSH2 0x13D JUMPI JUMPDEST PUSH0 PUSH0 REVERT JUMPDEST CALLVALUE DUP1 ISZERO PUSH2 0xF6 JUMPI PUSH0 PUSH0 REVERT JUMPDEST POP PUSH2 0x111 PUSH1 0x4 DUP1 CALLDATASIZE SUB DUP2 ADD SWAP1 PUSH2 0x10C SWAP2 SWAP1 PUSH2 0x1F68 JUMP JUMPDEST PUSH2 0x35D JUMP JUMPDEST STOP JUMPDEST CALLVALUE DUP1 ISZERO PUSH2 0x11E JUMPI PUSH0 PUSH0 REVERT JUMPDEST POP PUSH2 0x127 PUSH2 0x6B9 JUMP JUMPDEST PUSH1 0x40 MLOAD PUSH2 0x134 SWAP2 SWAP1 PUSH2 0x203C JUMP JUMPDEST PUSH1 0x40 MLOAD DUP1 SWAP2 SUB SWAP1 RETURN JUMPDEST CALLVALUE DUP1 ISZERO PUSH2 0x148 JUMPI PUSH0 PUSH0 REVERT JUMPDEST POP PUSH2 0x163 PUSH1 0x4 DUP1 CALLDATASIZE SUB DUP2 ADD SWAP1 PUSH2 0x15E SWAP2 SWAP1 PUSH2 0x2090 JUMP JUMPDEST PUSH2 0x6DD JUMP JUMPDEST PUSH1 0x40 MLOAD PUSH2 0x172 SWAP4 SWAP3 SWAP2 SWAP1 PUSH2 0x20D9 JUMP JUMPDEST PUSH1 0x40 MLOAD DUP1 SWAP2 SUB SWAP1 RETURN JUMPDEST CALLVALUE DUP1 ISZERO PUSH2 0x186 JUMPI PUSH0 PUSH0 REVERT JUMPDEST POP PUSH2 0x18F PUSH2 0x722 JUMP JUMPDEST STOP JUMPDEST CALLVALUE DUP1 ISZERO PUSH2 0x19C JUMPI PUSH0 PUSH0 REVERT JUMPDEST POP PUSH2 0x1B7 PUSH1 0x4 DUP1 CALLDATASIZE SUB DUP2 ADD SWAP1 PUSH2 0x1B2 SWAP2 SWAP1 PUSH2 0x210E JUMP JUMPDEST PUSH2 0x95B JUMP JUMPDEST STOP JUMPDEST PUSH2 0x1D3 PUSH1 0x4 DUP1 CALLDATASIZE SUB DUP2 ADD SWAP1 PUSH2 0x1CE SWAP2 SWAP1 PUSH2 0x21EA JUMP JUMPDEST PUSH2 0xB6C JUMP JUMPDEST STOP JUMPDEST CALLVALUE DUP1 ISZERO PUSH2 0x1E0 JUMPI PUSH0 PUSH0 REVERT JUMPDEST POP PUSH2 0x1E9 PUSH2 0xB8B JUMP JUMPDEST PUSH1 0x40 MLOAD PUSH2 0x1F6 SWAP2 SWAP1 PUSH2 0x225C JUMP JUMPDEST PUSH1 0x40 MLOAD DUP1 SWAP2 SUB SWAP1 RETURN JUMPDEST CALLVALUE DUP1 ISZERO PUSH2 0x20A JUMPI PUSH0 PUSH0 REVERT JUMPDEST POP PUSH2 0x213 PUSH2 0xBBC JUMP JUMPDEST STOP JUMPDEST CALLVALUE DUP1 ISZERO PUSH2 0x220 JUMPI PUSH0 PUSH0 REVERT JUMPDEST POP PUSH2 0x229 PUSH2 0xBCF JUMP JUMPDEST PUSH1 0x40 MLOAD PUSH2 0x236 SWAP2 SWAP1 PUSH2 0x22D5 JUMP JUMPDEST PUSH1 0x40 MLOAD DUP1 SWAP2 SUB SWAP1 RETURN JUMPDEST CALLVALUE DUP1 ISZERO PUSH2 0x24A JUMPI PUSH0 PUSH0 REVERT JUMPDEST POP PUSH2 0x253 PUSH2 0xC9A JUMP JUMPDEST PUSH1 0x40 MLOAD PUSH2 0x260 SWAP2 SWAP1 PUSH2 0x22F5 JUMP JUMPDEST PUSH1 0x40 MLOAD DUP1 SWAP2 SUB SWAP1 RETURN JUMPDEST CALLVALUE DUP1 ISZERO PUSH2 0x274 JUMPI PUSH0 PUSH0 REVERT JUMPDEST POP PUSH2 0x27D PUSH2 0xCCF JUMP JUMPDEST PUSH1 0x40 MLOAD PUSH2 0x28A SWAP2 SWAP1 PUSH2 0x232E JUMP JUMPDEST PUSH1 0x40 MLOAD DUP1 SWAP2 SUB SWAP1 RETURN JUMPDEST CALLVALUE DUP1 ISZERO PUSH2 0x29E JUMPI PUSH0 PUSH0 REVERT JUMPDEST POP PUSH2 0x2B9 PUSH1 0x4 DUP1 CALLDATASIZE SUB DUP2 ADD SWAP1 PUSH2 0x2B4 SWAP2 SWAP1 PUSH2 0x2347 JUMP JUMPDEST PUSH2 0xCF4 JUMP JUMPDEST PUSH1 0x40 MLOAD PUSH2 0x2C6 SWAP2 SWAP1 PUSH2 0x22F5 JUMP JUMPDEST PUSH1 0x40 MLOAD DUP1 SWAP2 SUB SWAP1 RETURN JUMPDEST CALLVALUE DUP1 ISZERO PUSH2 0x2DA JUMPI PUSH0 PUSH0 REVERT JUMPDEST POP PUSH2 0x2E3 PUSH2 0xD3C JUMP JUMPDEST PUSH1 0x40 MLOAD PUSH2 0x2F0 SWAP2 SWAP1 PUSH2 0x22D5 JUMP JUMPDEST PUSH1 0x40 MLOAD DUP1 SWAP2 SUB SWAP1 RETURN JUMPDEST CALLVALUE DUP1 ISZERO PUSH2 0x304 JUMPI PUSH0 PUSH0 REVERT JUMPDEST POP PUSH2 0x31F PUSH1 0x4 DUP1 CALLDATASIZE SUB DUP2 ADD SWAP1 PUSH2 0x31A SWAP2 SWAP1 PUSH2 0x2090 JUMP JUMPDEST PUSH2 0xD75 JUMP JUMPDEST PUSH1 0x40 MLOAD PUSH2 0x32C SWAP2 SWAP1 PUSH2 0x22D5 JUMP JUMPDEST PUSH1 0x40 MLOAD DUP1 SWAP2 SUB SWAP1 RETURN JUMPDEST CALLVALUE DUP1 ISZERO PUSH2 0x340 JUMPI PUSH0 PUSH0 REVERT JUMPDEST POP PUSH2 0x35B PUSH1 0x4 DUP1 CALLDATASIZE SUB DUP2 ADD SWAP1 PUSH2 0x356 SWAP2 SWAP1 PUSH2 0x2090 JUMP JUMPDEST PUSH2 0xE10 JUMP JUMPDEST STOP JUMPDEST PUSH2 0x365 PUSH2 0xE94 JUMP JUMPDEST PUSH0 DUP3 GT PUSH2 0x3A7 JUMPI PUSH1 0x40 MLOAD PUSH32 0x8C379A000000000000000000000000000000000000000000000000000000000 DUP2 MSTORE PUSH1 0x4 ADD PUSH2 0x39E SWAP1 PUSH2 0x23D8 JUMP JUMPDEST PUSH1 0x40 MLOAD DUP1 SWAP2 SUB SWAP1 REVERT JUMPDEST PUSH0 PUSH1 0x2 DUP3 PUSH1 0x40 MLOAD PUSH2 0x3B8 SWAP2 SWAP1 PUSH2 0x2430 JUMP JUMPDEST SWAP1 DUP2 MSTORE PUSH1 0x20 ADD PUSH1 0x40 MLOAD DUP1 SWAP2 SUB SWAP1 KECCAK256 PUSH0 SWAP1 SLOAD SWAP1 PUSH2 0x100 EXP SWAP1 DIV PUSH20 0xFFFFFFFFFFFFFFFFFFFFFFFFFFFFFFFFFFFFFFFF AND SWAP1 POP PUSH0 PUSH20 0xFFFFFFFFFFFFFFFFFFFFFFFFFFFFFFFFFFFFFFFF AND DUP2 PUSH20 0xFFFFFFFFFFFFFFFFFFFFFFFFFFFFFFFFFFFFFFFF AND EQ DUP1 PUSH2 0x44D JUMPI POP CALLER PUSH20 0xFFFFFFFFFFFFFFFFFFFFFFFFFFFFFFFFFFFFFFFF AND DUP2 PUSH20 0xFFFFFFFFFFFFFFFFFFFFFFFFFFFFFFFFFFFFFFFF AND EQ JUMPDEST ISZERO PUSH2 0x456 JUMPI PUSH0 SWAP1 POP JUMPDEST PUSH0 PUSH1 0x4 PUSH0 CALLER PUSH20 0xFFFFFFFFFFFFFFFFFFFFFFFFFFFFFFFFFFFFFFFF AND PUSH20 0xFFFFFFFFFFFFFFFFFFFFFFFFFFFFFFFFFFFFFFFF AND DUP2 MSTORE PUSH1 0x20 ADD SWAP1 DUP2 MSTORE PUSH1 0x20 ADD PUSH0 KECCAK256 SWAP1 POP PUSH0 DUP2 PUSH0 ADD SLOAD SUB PUSH2 0x4E3 JUMPI DUP2 DUP2 PUSH1 0x2 ADD PUSH0 PUSH2 0x100 EXP DUP2 SLOAD DUP2 PUSH20 0xFFFFFFFFFFFFFFFFFFFFFFFFFFFFFFFFFFFFFFFF MUL NOT AND SWAP1 DUP4 PUSH20 0xFFFFFFFFFFFFFFFFFFFFFFFFFFFFFFFFFFFFFFFF AND MUL OR SWAP1 SSTORE POP JUMPDEST DUP4 DUP2 PUSH0 ADD PUSH0 DUP3 DUP3 SLOAD PUSH2 0x4F5 SWAP2 SWAP1 PUSH2 0x2473 JUMP JUMPDEST SWAP3 POP POP DUP2 SWAP1 SSTORE POP TIMESTAMP DUP2 PUSH1 0x1 ADD DUP2 SWAP1 SSTORE POP PUSH2 0x552 CALLER ADDRESS DUP7 PUSH0 PUSH0 SWAP1 SLOAD SWAP1 PUSH2 0x100 EXP SWAP1 DIV PUSH20 0xFFFFFFFFFFFFFFFFFFFFFFFFFFFFFFFFFFFFFFFF AND PUSH20 0xFFFFFFFFFFFFFFFFFFFFFFFFFFFFFFFFFFFFFFFF AND PUSH2 0xEE8 SWAP1 SWAP4 SWAP3 SWAP2 SWAP1 PUSH4 0xFFFFFFFF AND JUMP JUMPDEST PUSH2 0x5BE PUSH1 0x1 PUSH0 SWAP1 SLOAD SWAP1 PUSH2 0x100 EXP SWAP1 DIV PUSH20 0xFFFFFFFFFFFFFFFFFFFFFFFFFFFFFFFFFFFFFFFF AND DUP6 PUSH0 PUSH0 SWAP1 SLOAD SWAP1 PUSH2 0x100 EXP SWAP1 DIV PUSH20 0xFFFFFFFFFFFFFFFFFFFFFFFFFFFFFFFFFFFFFFFF AND PUSH20 0xFFFFFFFFFFFFFFFFFFFFFFFFFFFFFFFFFFFFFFFF AND PUSH2 0xF71 SWAP1 SWAP3 SWAP2 SWAP1 PUSH4 0xFFFFFFFF AND JUMP JUMPDEST PUSH1 0x1 PUSH0 SWAP1 SLOAD SWAP1 PUSH2 0x100 EXP SWAP1 DIV PUSH20 0xFFFFFFFFFFFFFFFFFFFFFFFFFFFFFFFFFFFFFFFF AND PUSH20 0xFFFFFFFFFFFFFFFFFFFFFFFFFFFFFFFFFFFFFFFF AND PUSH4 0x6E553F65 DUP6 ADDRESS PUSH1 0x40 MLOAD DUP4 PUSH4 0xFFFFFFFF AND PUSH1 0xE0 SHL DUP2 MSTORE PUSH1 0x4 ADD PUSH2 0x61A SWAP3 SWAP2 SWAP1 PUSH2 0x24A6 JUMP JUMPDEST PUSH1 0x20 PUSH1 0x40 MLOAD DUP1 DUP4 SUB DUP2 PUSH0 DUP8 GAS CALL ISZERO DUP1 ISZERO PUSH2 0x636 JUMPI RETURNDATASIZE PUSH0 PUSH0 RETURNDATACOPY RETURNDATASIZE PUSH0 REVERT JUMPDEST POP POP POP POP PUSH1 0x40 MLOAD RETURNDATASIZE PUSH1 0x1F NOT PUSH1 0x1F DUP3 ADD AND DUP3 ADD DUP1 PUSH1 0x40 MSTORE POP DUP2 ADD SWAP1 PUSH2 0x65A SWAP2 SWAP1 PUSH2 0x24E1 JUMP JUMPDEST POP CALLER PUSH20 0xFFFFFFFFFFFFFFFFFFFFFFFFFFFFFFFFFFFFFFFF AND PUSH32 0x6A1DB4F0607DD89CD0EE9EF3676C9521B6C9CE054AFB4D659365A683E34030AA DUP6 DUP6 PUSH1 0x40 MLOAD PUSH2 0x6A3 SWAP3 SWAP2 SWAP1 PUSH2 0x250C JUMP JUMPDEST PUSH1 0x40 MLOAD DUP1 SWAP2 SUB SWAP1 LOG2 POP POP PUSH2 0x6B5 PUSH2 0x108C JUMP JUMPDEST POP POP JUMP JUMPDEST PUSH0 PUSH0 SWAP1 SLOAD SWAP1 PUSH2 0x100 EXP SWAP1 DIV PUSH20 0xFFFFFFFFFFFFFFFFFFFFFFFFFFFFFFFFFFFFFFFF AND DUP2 JUMP JUMPDEST PUSH1 0x4 PUSH1 0x20 MSTORE DUP1 PUSH0 MSTORE PUSH1 0x40 PUSH0 KECCAK256 PUSH0 SWAP2 POP SWAP1 POP DUP1 PUSH0 ADD SLOAD SWAP1 DUP1 PUSH1 0x1 ADD SLOAD SWAP1 DUP1 PUSH1 0x2 ADD PUSH0 SWAP1 SLOAD SWAP1 PUSH2 0x100 EXP SWAP1 DIV PUSH20 0xFFFFFFFFFFFFFFFFFFFFFFFFFFFFFFFFFFFFFFFF AND SWAP1 POP DUP4 JUMP JUMPDEST PUSH0 PUSH1 0x3 PUSH0 CALLER PUSH20 0xFFFFFFFFFFFFFFFFFFFFFFFFFFFFFFFFFFFFFFFF AND PUSH20 0xFFFFFFFFFFFFFFFFFFFFFFFFFFFFFFFFFFFFFFFF AND DUP2 MSTORE PUSH1 0x20 ADD SWAP1 DUP2 MSTORE PUSH1 0x20 ADD PUSH0 KECCAK256 DUP1 SLOAD PUSH2 0x76B SWAP1 PUSH2 0x2567 JUMP JUMPDEST SWAP1 POP EQ PUSH2 0x7AD JUMPI PUSH1 0x40 MLOAD PUSH32 0x8C379A000000000000000000000000000000000000000000000000000000000 DUP2 MSTORE PUSH1 0x4 ADD PUSH2 0x7A4 SWAP1 PUSH2 0x25E1 JUMP JUMPDEST PUSH1 0x40 MLOAD DUP1 SWAP2 SUB SWAP1 REVERT JUMPDEST PUSH0 PUSH2 0x7B6 PUSH2 0x10A3 JUMP JUMPDEST SWAP1 POP PUSH0 PUSH20 0xFFFFFFFFFFFFFFFFFFFFFFFFFFFFFFFFFFFFFFFF AND PUSH1 0x2 DUP3 PUSH1 0x40 MLOAD PUSH2 0x7DF SWAP2 SWAP1 PUSH2 0x2430 JUMP JUMPDEST SWAP1 DUP2 MSTORE PUSH1 0x20 ADD PUSH1 0x40 MLOAD DUP1 SWAP2 SUB SWAP1 KECCAK256 PUSH0 SWAP1 SLOAD SWAP1 PUSH2 0x100 EXP SWAP1 DIV PUSH20 0xFFFFFFFFFFFFFFFFFFFFFFFFFFFFFFFFFFFFFFFF AND PUSH20 0xFFFFFFFFFFFFFFFFFFFFFFFFFFFFFFFFFFFFFFFF AND EQ PUSH2 0x863 JUMPI PUSH1 0x40 MLOAD PUSH32 0x8C379A000000000000000000000000000000000000000000000000000000000 DUP2 MSTORE PUSH1 0x4 ADD PUSH2 0x85A SWAP1 PUSH2 0x266F JUMP JUMPDEST PUSH1 0x40 MLOAD DUP1 SWAP2 SUB SWAP1 REVERT JUMPDEST CALLER PUSH1 0x2 DUP3 PUSH1 0x40 MLOAD PUSH2 0x874 SWAP2 SWAP1 PUSH2 0x2430 JUMP JUMPDEST SWAP1 DUP2 MSTORE PUSH1 0x20 ADD PUSH1 0x40 MLOAD DUP1 SWAP2 SUB SWAP1 KECCAK256 PUSH0 PUSH2 0x100 EXP DUP2 SLOAD DUP2 PUSH20 0xFFFFFFFFFFFFFFFFFFFFFFFFFFFFFFFFFFFFFFFF MUL NOT AND SWAP1 DUP4 PUSH20 0xFFFFFFFFFFFFFFFFFFFFFFFFFFFFFFFFFFFFFFFF AND MUL OR SWAP1 SSTORE POP DUP1 PUSH1 0x3 PUSH0 CALLER PUSH20 0xFFFFFFFFFFFFFFFFFFFFFFFFFFFFFFFFFFFFFFFF AND PUSH20 0xFFFFFFFFFFFFFFFFFFFFFFFFFFFFFFFFFFFFFFFF AND DUP2 MSTORE PUSH1 0x20 ADD SWAP1 DUP2 MSTORE PUSH1 0x20 ADD PUSH0 KECCAK256 SWAP1 DUP2 PUSH2 0x909 SWAP2 SWAP1 PUSH2 0x2824 JUMP JUMPDEST POP CALLER PUSH20 0xFFFFFFFFFFFFFFFFFFFFFFFFFFFFFFFFFFFFFFFF AND PUSH32 0xBBBA1CAB2093E26EE6B388FEFB2109576871F9236F9C1F22779DAD4B82093B7B DUP3 PUSH1 0x40 MLOAD PUSH2 0x950 SWAP2 SWAP1 PUSH2 0x22D5 JUMP JUMPDEST PUSH1 0x40 MLOAD DUP1 SWAP2 SUB SWAP1 LOG2 POP JUMP JUMPDEST PUSH0 PUSH2 0x964 PUSH2 0x11DC JUMP JUMPDEST SWAP1 POP PUSH0 DUP2 PUSH0 ADD PUSH1 0x8 SWAP1 SLOAD SWAP1 PUSH2 0x100 EXP SWAP1 DIV PUSH1 0xFF AND ISZERO SWAP1 POP PUSH0 DUP3 PUSH0 ADD PUSH0 SWAP1 SLOAD SWAP1 PUSH2 0x100 EXP SWAP1 DIV PUSH8 0xFFFFFFFFFFFFFFFF AND SWAP1 POP PUSH0 PUSH0 DUP3 PUSH8 0xFFFFFFFFFFFFFFFF AND EQ DUP1 ISZERO PUSH2 0x9AC JUMPI POP DUP3 JUMPDEST SWAP1 POP PUSH0 PUSH1 0x1 DUP4 PUSH8 0xFFFFFFFFFFFFFFFF AND EQ DUP1 ISZERO PUSH2 0x9DF JUMPI POP PUSH0 ADDRESS PUSH20 0xFFFFFFFFFFFFFFFFFFFFFFFFFFFFFFFFFFFFFFFF AND EXTCODESIZE EQ JUMPDEST SWAP1 POP DUP2 ISZERO DUP1 ISZERO PUSH2 0x9ED JUMPI POP DUP1 ISZERO JUMPDEST ISZERO PUSH2 0xA24 JUMPI PUSH1 0x40 MLOAD PUSH32 0xF92EE8A900000000000000000000000000000000000000000000000000000000 DUP2 MSTORE PUSH1 0x4 ADD PUSH1 0x40 MLOAD DUP1 SWAP2 SUB SWAP1 REVERT JUMPDEST PUSH1 0x1 DUP6 PUSH0 ADD PUSH0 PUSH2 0x100 EXP DUP2 SLOAD DUP2 PUSH8 0xFFFFFFFFFFFFFFFF MUL NOT AND SWAP1 DUP4 PUSH8 0xFFFFFFFFFFFFFFFF AND MUL OR SWAP1 SSTORE POP DUP4 ISZERO PUSH2 0xA71 JUMPI PUSH1 0x1 DUP6 PUSH0 ADD PUSH1 0x8 PUSH2 0x100 EXP DUP2 SLOAD DUP2 PUSH1 0xFF MUL NOT AND SWAP1 DUP4 ISZERO ISZERO MUL OR SWAP1 SSTORE POP JUMPDEST PUSH2 0xA7A CALLER PUSH2 0x11EF JUMP JUMPDEST PUSH2 0xA82 PUSH2 0x1203 JUMP JUMPDEST PUSH2 0xA8A PUSH2 0x1215 JUMP JUMPDEST DUP7 PUSH0 PUSH0 PUSH2 0x100 EXP DUP2 SLOAD DUP2 PUSH20 0xFFFFFFFFFFFFFFFFFFFFFFFFFFFFFFFFFFFFFFFF MUL NOT AND SWAP1 DUP4 PUSH20 0xFFFFFFFFFFFFFFFFFFFFFFFFFFFFFFFFFFFFFFFF AND MUL OR SWAP1 SSTORE POP DUP6 PUSH1 0x1 PUSH0 PUSH2 0x100 EXP DUP2 SLOAD DUP2 PUSH20 0xFFFFFFFFFFFFFFFFFFFFFFFFFFFFFFFFFFFFFFFF MUL NOT AND SWAP1 DUP4 PUSH20 0xFFFFFFFFFFFFFFFFFFFFFFFFFFFFFFFFFFFFFFFF AND MUL OR SWAP1 SSTORE POP DUP4 ISZERO PUSH2 0xB63 JUMPI PUSH0 DUP6 PUSH0 ADD PUSH1 0x8 PUSH2 0x100 EXP DUP2 SLOAD DUP2 PUSH1 0xFF MUL NOT AND SWAP1 DUP4 ISZERO ISZERO MUL OR SWAP1 SSTORE POP PUSH32 0xC7F505B2F371AE2175EE4913F4499E1F2633A7B5936321EED1CDAEB6115181D2 PUSH1 0x1 PUSH1 0x40 MLOAD PUSH2 0xB5A SWAP2 SWAP1 PUSH2 0x293F JUMP JUMPDEST PUSH1 0x40 MLOAD DUP1 SWAP2 SUB SWAP1 LOG1 JUMPDEST POP POP POP POP POP POP POP JUMP JUMPDEST PUSH2 0xB74 PUSH2 0x121F JUMP JUMPDEST PUSH2 0xB7D DUP3 PUSH2 0x1305 JUMP JUMPDEST PUSH2 0xB87 DUP3 DUP3 PUSH2 0x1310 JUMP JUMPDEST POP POP JUMP JUMPDEST PUSH0 PUSH2 0xB94 PUSH2 0x142E JUMP JUMPDEST PUSH32 0x360894A13BA1A3210667C828492DB98DCA3E2076CC3735A920A3CA505D382BBC PUSH0 SHL SWAP1 POP SWAP1 JUMP JUMPDEST PUSH2 0xBC4 PUSH2 0x14B5 JUMP JUMPDEST PUSH2 0xBCD PUSH0 PUSH2 0x153C JUMP JUMPDEST JUMP JUMPDEST PUSH1 0x60 PUSH1 0x3 PUSH0 CALLER PUSH20 0xFFFFFFFFFFFFFFFFFFFFFFFFFFFFFFFFFFFFFFFF AND PUSH20 0xFFFFFFFFFFFFFFFFFFFFFFFFFFFFFFFFFFFFFFFF AND DUP2 MSTORE PUSH1 0x20 ADD SWAP1 DUP2 MSTORE PUSH1 0x20 ADD PUSH0 KECCAK256 DUP1 SLOAD PUSH2 0xC19 SWAP1 PUSH2 0x2567 JUMP JUMPDEST DUP1 PUSH1 0x1F ADD PUSH1 0x20 DUP1 SWAP2 DIV MUL PUSH1 0x20 ADD PUSH1 0x40 MLOAD SWAP1 DUP2 ADD PUSH1 0x40 MSTORE DUP1 SWAP3 SWAP2 SWAP1 DUP2 DUP2 MSTORE PUSH1 0x20 ADD DUP3 DUP1 SLOAD PUSH2 0xC45 SWAP1 PUSH2 0x2567 JUMP JUMPDEST DUP1 ISZERO PUSH2 0xC90 JUMPI DUP1 PUSH1 0x1F LT PUSH2 0xC67 JUMPI PUSH2 0x100 DUP1 DUP4 SLOAD DIV MUL DUP4 MSTORE SWAP2 PUSH1 0x20 ADD SWAP2 PUSH2 0xC90 JUMP JUMPDEST DUP3 ADD SWAP2 SWAP1 PUSH0 MSTORE PUSH1 0x20 PUSH0 KECCAK256 SWAP1 JUMPDEST DUP2 SLOAD DUP2 MSTORE SWAP1 PUSH1 0x1 ADD SWAP1 PUSH1 0x20 ADD DUP1 DUP4 GT PUSH2 0xC73 JUMPI DUP3 SWAP1 SUB PUSH1 0x1F AND DUP3 ADD SWAP2 JUMPDEST POP POP POP POP POP SWAP1 POP SWAP1 JUMP JUMPDEST PUSH0 PUSH0 PUSH2 0xCA4 PUSH2 0x160D JUMP JUMPDEST SWAP1 POP DUP1 PUSH0 ADD PUSH0 SWAP1 SLOAD SWAP1 PUSH2 0x100 EXP SWAP1 DIV PUSH20 0xFFFFFFFFFFFFFFFFFFFFFFFFFFFFFFFFFFFFFFFF AND SWAP2 POP POP SWAP1 JUMP JUMPDEST PUSH1 0x1 PUSH0 SWAP1 SLOAD SWAP1 PUSH2 0x100 EXP SWAP1 DIV PUSH20 0xFFFFFFFFFFFFFFFFFFFFFFFFFFFFFFFFFFFFFFFF AND DUP2 JUMP JUMPDEST PUSH1 0x2 DUP2 DUP1 MLOAD PUSH1 0x20 DUP2 ADD DUP3 ADD DUP1 MLOAD DUP5 DUP3 MSTORE PUSH1 0x20 DUP4 ADD PUSH1 0x20 DUP6 ADD KECCAK256 DUP2 DUP4 MSTORE DUP1 SWAP6 POP POP POP POP POP POP PUSH0 SWAP2 POP SLOAD SWAP1 PUSH2 0x100 EXP SWAP1 DIV PUSH20 0xFFFFFFFFFFFFFFFFFFFFFFFFFFFFFFFFFFFFFFFF AND DUP2 JUMP JUMPDEST PUSH1 0x40 MLOAD DUP1 PUSH1 0x40 ADD PUSH1 0x40 MSTORE DUP1 PUSH1 0x5 DUP2 MSTORE PUSH1 0x20 ADD PUSH32 0x352E302E30000000000000000000000000000000000000000000000000000000 DUP2 MSTORE POP DUP2 JUMP JUMPDEST PUSH1 0x3 PUSH1 0x20 MSTORE DUP1 PUSH0 MSTORE PUSH1 0x40 PUSH0 KECCAK256 PUSH0 SWAP2 POP SWAP1 POP DUP1 SLOAD PUSH2 0xD91 SWAP1 PUSH2 0x2567 JUMP JUMPDEST DUP1 PUSH1 0x1F ADD PUSH1 0x20 DUP1 SWAP2 DIV MUL PUSH1 0x20 ADD PUSH1 0x40 MLOAD SWAP1 DUP2 ADD PUSH1 0x40 MSTORE DUP1 SWAP3 SWAP2 SWAP1 DUP2 DUP2 MSTORE PUSH1 0x20 ADD DUP3 DUP1 SLOAD PUSH2 0xDBD SWAP1 PUSH2 0x2567 JUMP JUMPDEST DUP1 ISZERO PUSH2 0xE08 JUMPI DUP1 PUSH1 0x1F LT PUSH2 0xDDF JUMPI PUSH2 0x100 DUP1 DUP4 SLOAD DIV MUL DUP4 MSTORE SWAP2 PUSH1 0x20 ADD SWAP2 PUSH2 0xE08 JUMP JUMPDEST DUP3 ADD SWAP2 SWAP1 PUSH0 MSTORE PUSH1 0x20 PUSH0 KECCAK256 SWAP1 JUMPDEST DUP2 SLOAD DUP2 MSTORE SWAP1 PUSH1 0x1 ADD SWAP1 PUSH1 0x20 ADD DUP1 DUP4 GT PUSH2 0xDEB JUMPI DUP3 SWAP1 SUB PUSH1 0x1F AND DUP3 ADD SWAP2 JUMPDEST POP POP POP POP POP DUP2 JUMP JUMPDEST PUSH2 0xE18 PUSH2 0x14B5 JUMP JUMPDEST PUSH0 PUSH20 0xFFFFFFFFFFFFFFFFFFFFFFFFFFFFFFFFFFFFFFFF AND DUP2 PUSH20 0xFFFFFFFFFFFFFFFFFFFFFFFFFFFFFFFFFFFFFFFF AND SUB PUSH2 0xE88 JUMPI PUSH0 PUSH1 0x40 MLOAD PUSH32 0x1E4FBDF700000000000000000000000000000000000000000000000000000000 DUP2 MSTORE PUSH1 0x4 ADD PUSH2 0xE7F SWAP2 SWAP1 PUSH2 0x22F5 JUMP JUMPDEST PUSH1 0x40 MLOAD DUP1 SWAP2 SUB SWAP1 REVERT JUMPDEST PUSH2 0xE91 DUP2 PUSH2 0x153C JUMP JUMPDEST POP JUMP JUMPDEST PUSH0 PUSH2 0xE9D PUSH2 0x1634 JUMP JUMPDEST SWAP1 POP PUSH1 0x2 DUP2 PUSH0 ADD SLOAD SUB PUSH2 0xEDC JUMPI PUSH1 0x40 MLOAD PUSH32 0x3EE5AEB500000000000000000000000000000000000000000000000000000000 DUP2 MSTORE PUSH1 0x4 ADD PUSH1 0x40 MLOAD DUP1 SWAP2 SUB SWAP1 REVERT JUMPDEST PUSH1 0x2 DUP2 PUSH0 ADD DUP2 SWAP1 SSTORE POP POP JUMP JUMPDEST PUSH2 0xF6B DUP5 PUSH4 0x23B872DD PUSH1 0xE0 SHL DUP6 DUP6 DUP6 PUSH1 0x40 MLOAD PUSH1 0x24 ADD PUSH2 0xF09 SWAP4 SWAP3 SWAP2 SWAP1 PUSH2 0x2958 JUMP JUMPDEST PUSH1 0x40 MLOAD PUSH1 0x20 DUP2 DUP4 SUB SUB DUP2 MSTORE SWAP1 PUSH1 0x40 MSTORE SWAP1 PUSH28 0xFFFFFFFFFFFFFFFFFFFFFFFFFFFFFFFFFFFFFFFFFFFFFFFFFFFFFFFF NOT AND PUSH1 0x20 DUP3 ADD DUP1 MLOAD PUSH28 0xFFFFFFFFFFFFFFFFFFFFFFFFFFFFFFFFFFFFFFFFFFFFFFFFFFFFFFFF DUP4 DUP2 DUP4 AND OR DUP4 MSTORE POP POP POP POP PUSH2 0x165B JUMP JUMPDEST POP POP POP POP JUMP JUMPDEST PUSH0 PUSH4 0x95EA7B3 PUSH1 0xE0 SHL DUP4 DUP4 PUSH1 0x40 MLOAD PUSH1 0x24 ADD PUSH2 0xF8D SWAP3 SWAP2 SWAP1 PUSH2 0x298D JUMP JUMPDEST PUSH1 0x40 MLOAD PUSH1 0x20 DUP2 DUP4 SUB SUB DUP2 MSTORE SWAP1 PUSH1 0x40 MSTORE SWAP1 PUSH28 0xFFFFFFFFFFFFFFFFFFFFFFFFFFFFFFFFFFFFFFFFFFFFFFFFFFFFFFFF NOT AND PUSH1 0x20 DUP3 ADD DUP1 MLOAD PUSH28 0xFFFFFFFFFFFFFFFFFFFFFFFFFFFFFFFFFFFFFFFFFFFFFFFFFFFFFFFF DUP4 DUP2 DUP4 AND OR DUP4 MSTORE POP POP POP POP SWAP1 POP PUSH2 0xFF6 DUP5 DUP3 PUSH2 0x1721 JUMP JUMPDEST PUSH2 0x1086 JUMPI PUSH2 0x107B DUP5 PUSH4 0x95EA7B3 PUSH1 0xE0 SHL DUP6 PUSH0 PUSH1 0x40 MLOAD PUSH1 0x24 ADD PUSH2 0x1019 SWAP3 SWAP2 SWAP1 PUSH2 0x29F9 JUMP JUMPDEST PUSH1 0x40 MLOAD PUSH1 0x20 DUP2 DUP4 SUB SUB DUP2 MSTORE SWAP1 PUSH1 0x40 MSTORE SWAP1 PUSH28 0xFFFFFFFFFFFFFFFFFFFFFFFFFFFFFFFFFFFFFFFFFFFFFFFFFFFFFFFF NOT AND PUSH1 0x20 DUP3 ADD DUP1 MLOAD PUSH28 0xFFFFFFFFFFFFFFFFFFFFFFFFFFFFFFFFFFFFFFFFFFFFFFFFFFFFFFFF DUP4 DUP2 DUP4 AND OR DUP4 MSTORE POP POP POP POP PUSH2 0x165B JUMP JUMPDEST PUSH2 0x1085 DUP5 DUP3 PUSH2 0x165B JUMP JUMPDEST JUMPDEST POP POP POP POP JUMP JUMPDEST PUSH0 PUSH2 0x1095 PUSH2 0x1634 JUMP JUMPDEST SWAP1 POP PUSH1 0x1 DUP2 PUSH0 ADD DUP2 SWAP1 SSTORE POP POP JUMP JUMPDEST PUSH1 0x60 PUSH0 PUSH1 0x7 PUSH8 0xFFFFFFFFFFFFFFFF DUP2 GT ISZERO PUSH2 0x10C1 JUMPI PUSH2 0x10C0 PUSH2 0x1E44 JUMP JUMPDEST JUMPDEST PUSH1 0x40 MLOAD SWAP1 DUP1 DUP3 MSTORE DUP1 PUSH1 0x1F ADD PUSH1 0x1F NOT AND PUSH1 0x20 ADD DUP3 ADD PUSH1 0x40 MSTORE DUP1 ISZERO PUSH2 0x10F3 JUMPI DUP2 PUSH1 0x20 ADD PUSH1 0x1 DUP3 MUL DUP1 CALLDATASIZE DUP4 CALLDATACOPY DUP1 DUP3 ADD SWAP2 POP POP SWAP1 POP JUMPDEST POP SWAP1 POP PUSH0 CALLER TIMESTAMP PREVRANDAO PUSH1 0x40 MLOAD PUSH1 0x20 ADD PUSH2 0x110C SWAP4 SWAP3 SWAP2 SWAP1 PUSH2 0x2A85 JUMP JUMPDEST PUSH1 0x40 MLOAD PUSH1 0x20 DUP2 DUP4 SUB SUB DUP2 MSTORE SWAP1 PUSH1 0x40 MSTORE DUP1 MLOAD SWAP1 PUSH1 0x20 ADD KECCAK256 PUSH0 SHR SWAP1 POP PUSH0 PUSH0 SWAP1 POP JUMPDEST PUSH1 0x7 DUP2 LT ISZERO PUSH2 0x11D3 JUMPI PUSH1 0x40 MLOAD DUP1 PUSH1 0x60 ADD PUSH1 0x40 MSTORE DUP1 PUSH1 0x24 DUP2 MSTORE PUSH1 0x20 ADD PUSH2 0x2E0F PUSH1 0x24 SWAP2 CODECOPY PUSH1 0x24 DUP4 PUSH2 0x115A SWAP2 SWAP1 PUSH2 0x2AEE JUMP JUMPDEST DUP2 MLOAD DUP2 LT PUSH2 0x116B JUMPI PUSH2 0x116A PUSH2 0x2B1E JUMP JUMPDEST JUMPDEST PUSH1 0x20 ADD ADD MLOAD PUSH1 0xF8 SHR PUSH1 0xF8 SHL DUP4 DUP3 DUP2 MLOAD DUP2 LT PUSH2 0x1189 JUMPI PUSH2 0x1188 PUSH2 0x2B1E JUMP JUMPDEST JUMPDEST PUSH1 0x20 ADD ADD SWAP1 PUSH31 0xFFFFFFFFFFFFFFFFFFFFFFFFFFFFFFFFFFFFFFFFFFFFFFFFFFFFFFFFFFFFFF NOT AND SWAP1 DUP2 PUSH0 BYTE SWAP1 MSTORE8 POP PUSH1 0x24 DUP3 PUSH2 0x11C4 SWAP2 SWAP1 PUSH2 0x2B4B JUMP JUMPDEST SWAP2 POP DUP1 DUP1 PUSH1 0x1 ADD SWAP2 POP POP PUSH2 0x112B JUMP JUMPDEST POP DUP2 SWAP3 POP POP POP SWAP1 JUMP JUMPDEST PUSH0 PUSH0 PUSH2 0x11E6 PUSH2 0x17CF JUMP JUMPDEST SWAP1 POP DUP1 SWAP2 POP POP SWAP1 JUMP JUMPDEST PUSH2 0x11F7 PUSH2 0x17F8 JUMP JUMPDEST PUSH2 0x1200 DUP2 PUSH2 0x1838 JUMP JUMPDEST POP JUMP JUMPDEST PUSH2 0x120B PUSH2 0x17F8 JUMP JUMPDEST PUSH2 0x1213 PUSH2 0x18BC JUMP JUMPDEST JUMP JUMPDEST PUSH2 0x121D PUSH2 0x17F8 JUMP JUMPDEST JUMP JUMPDEST PUSH32 0x0 PUSH20 0xFFFFFFFFFFFFFFFFFFFFFFFFFFFFFFFFFFFFFFFF AND ADDRESS PUSH20 0xFFFFFFFFFFFFFFFFFFFFFFFFFFFFFFFFFFFFFFFF AND EQ DUP1 PUSH2 0x12CC JUMPI POP PUSH32 0x0 PUSH20 0xFFFFFFFFFFFFFFFFFFFFFFFFFFFFFFFFFFFFFFFF AND PUSH2 0x12B3 PUSH2 0x18DB JUMP JUMPDEST PUSH20 0xFFFFFFFFFFFFFFFFFFFFFFFFFFFFFFFFFFFFFFFF AND EQ ISZERO JUMPDEST ISZERO PUSH2 0x1303 JUMPI PUSH1 0x40 MLOAD PUSH32 0xE07C8DBA00000000000000000000000000000000000000000000000000000000 DUP2 MSTORE PUSH1 0x4 ADD PUSH1 0x40 MLOAD DUP1 SWAP2 SUB SWAP1 REVERT JUMPDEST JUMP JUMPDEST PUSH2 0x130D PUSH2 0x14B5 JUMP JUMPDEST POP JUMP JUMPDEST DUP2 PUSH20 0xFFFFFFFFFFFFFFFFFFFFFFFFFFFFFFFFFFFFFFFF AND PUSH4 0x52D1902D PUSH1 0x40 MLOAD DUP2 PUSH4 0xFFFFFFFF AND PUSH1 0xE0 SHL DUP2 MSTORE PUSH1 0x4 ADD PUSH1 0x20 PUSH1 0x40 MLOAD DUP1 DUP4 SUB DUP2 DUP7 GAS STATICCALL SWAP3 POP POP POP DUP1 ISZERO PUSH2 0x1378 JUMPI POP PUSH1 0x40 MLOAD RETURNDATASIZE PUSH1 0x1F NOT PUSH1 0x1F DUP3 ADD AND DUP3 ADD DUP1 PUSH1 0x40 MSTORE POP DUP2 ADD SWAP1 PUSH2 0x1375 SWAP2 SWAP1 PUSH2 0x2BA5 JUMP JUMPDEST PUSH1 0x1 JUMPDEST PUSH2 0x13B9 JUMPI DUP2 PUSH1 0x40 MLOAD PUSH32 0x4C9C8CE300000000000000000000000000000000000000000000000000000000 DUP2 MSTORE PUSH1 0x4 ADD PUSH2 0x13B0 SWAP2 SWAP1 PUSH2 0x22F5 JUMP JUMPDEST PUSH1 0x40 MLOAD DUP1 SWAP2 SUB SWAP1 REVERT JUMPDEST PUSH32 0x360894A13BA1A3210667C828492DB98DCA3E2076CC3735A920A3CA505D382BBC PUSH0 SHL DUP2 EQ PUSH2 0x141F JUMPI DUP1 PUSH1 0x40 MLOAD PUSH32 0xAA1D49A400000000000000000000000000000000000000000000000000000000 DUP2 MSTORE PUSH1 0x4 ADD PUSH2 0x1416 SWAP2 SWAP1 PUSH2 0x225C JUMP JUMPDEST PUSH1 0x40 MLOAD DUP1 SWAP2 SUB SWAP1 REVERT JUMPDEST PUSH2 0x1429 DUP4 DUP4 PUSH2 0x192E JUMP JUMPDEST POP POP POP JUMP JUMPDEST PUSH32 0x0 PUSH20 0xFFFFFFFFFFFFFFFFFFFFFFFFFFFFFFFFFFFFFFFF AND ADDRESS PUSH20 0xFFFFFFFFFFFFFFFFFFFFFFFFFFFFFFFFFFFFFFFF AND EQ PUSH2 0x14B3 JUMPI PUSH1 0x40 MLOAD PUSH32 0xE07C8DBA00000000000000000000000000000000000000000000000000000000 DUP2 MSTORE PUSH1 0x4 ADD PUSH1 0x40 MLOAD DUP1 SWAP2 SUB SWAP1 REVERT JUMPDEST JUMP JUMPDEST PUSH2 0x14BD PUSH2 0x19A0 JUMP JUMPDEST PUSH20 0xFFFFFFFFFFFFFFFFFFFFFFFFFFFFFFFFFFFFFFFF AND PUSH2 0x14DB PUSH2 0xC9A JUMP JUMPDEST PUSH20 0xFFFFFFFFFFFFFFFFFFFFFFFFFFFFFFFFFFFFFFFF AND EQ PUSH2 0x153A JUMPI PUSH2 0x14FE PUSH2 0x19A0 JUMP JUMPDEST PUSH1 0x40 MLOAD PUSH32 0x118CDAA700000000000000000000000000000000000000000000000000000000 DUP2 MSTORE PUSH1 0x4 ADD PUSH2 0x1531 SWAP2 SWAP1 PUSH2 0x22F5 JUMP JUMPDEST PUSH1 0x40 MLOAD DUP1 SWAP2 SUB SWAP1 REVERT JUMPDEST JUMP JUMPDEST PUSH0 PUSH2 0x1545 PUSH2 0x160D JUMP JUMPDEST SWAP1 POP PUSH0 DUP2 PUSH0 ADD PUSH0 SWAP1 SLOAD SWAP1 PUSH2 0x100 EXP SWAP1 DIV PUSH20 0xFFFFFFFFFFFFFFFFFFFFFFFFFFFFFFFFFFFFFFFF AND SWAP1 POP DUP3 DUP3 PUSH0 ADD PUSH0 PUSH2 0x100 EXP DUP2 SLOAD DUP2 PUSH20 0xFFFFFFFFFFFFFFFFFFFFFFFFFFFFFFFFFFFFFFFF MUL NOT AND SWAP1 DUP4 PUSH20 0xFFFFFFFFFFFFFFFFFFFFFFFFFFFFFFFFFFFFFFFF AND MUL OR SWAP1 SSTORE POP DUP3 PUSH20 0xFFFFFFFFFFFFFFFFFFFFFFFFFFFFFFFFFFFFFFFF AND DUP2 PUSH20 0xFFFFFFFFFFFFFFFFFFFFFFFFFFFFFFFFFFFFFFFF AND PUSH32 0x8BE0079C531659141344CD1FD0A4F28419497F9722A3DAAFE3B4186F6B6457E0 PUSH1 0x40 MLOAD PUSH1 0x40 MLOAD DUP1 SWAP2 SUB SWAP1 LOG3 POP POP POP JUMP JUMPDEST PUSH0 PUSH32 0x9016D09D72D40FDAE2FD8CEAC6B6234C7706214FD39C1CD1E609A0528C199300 SWAP1 POP SWAP1 JUMP JUMPDEST PUSH0 PUSH32 0x9B779B17422D0DF92223018B32B4D1FA46E071723D6817E2486D003BECC55F00 SWAP1 POP SWAP1 JUMP JUMPDEST PUSH0 PUSH2 0x16BC DUP3 PUSH1 0x40 MLOAD DUP1 PUSH1 0x40 ADD PUSH1 0x40 MSTORE DUP1 PUSH1 0x20 DUP2 MSTORE PUSH1 0x20 ADD PUSH32 0x5361666545524332303A206C6F772D6C6576656C2063616C6C206661696C6564 DUP2 MSTORE POP DUP6 PUSH20 0xFFFFFFFFFFFFFFFFFFFFFFFFFFFFFFFFFFFFFFFF AND PUSH2 0x19A7 SWAP1 SWAP3 SWAP2 SWAP1 PUSH4 0xFFFFFFFF AND JUMP JUMPDEST SWAP1 POP PUSH0 DUP2 MLOAD EQ DUP1 PUSH2 0x16DD JUMPI POP DUP1 DUP1 PUSH1 0x20 ADD SWAP1 MLOAD DUP2 ADD SWAP1 PUSH2 0x16DC SWAP2 SWAP1 PUSH2 0x2C05 JUMP JUMPDEST JUMPDEST PUSH2 0x171C JUMPI PUSH1 0x40 MLOAD PUSH32 0x8C379A000000000000000000000000000000000000000000000000000000000 DUP2 MSTORE PUSH1 0x4 ADD PUSH2 0x1713 SWAP1 PUSH2 0x2CA0 JUMP JUMPDEST PUSH1 0x40 MLOAD DUP1 SWAP2 SUB SWAP1 REVERT JUMPDEST POP POP POP JUMP JUMPDEST PUSH0 PUSH0 PUSH0 DUP5 PUSH20 0xFFFFFFFFFFFFFFFFFFFFFFFFFFFFFFFFFFFFFFFF AND DUP5 PUSH1 0x40 MLOAD PUSH2 0x1749 SWAP2 SWAP1 PUSH2 0x2D02 JUMP JUMPDEST PUSH0 PUSH1 0x40 MLOAD DUP1 DUP4 SUB DUP2 PUSH0 DUP7 GAS CALL SWAP2 POP POP RETURNDATASIZE DUP1 PUSH0 DUP2 EQ PUSH2 0x1782 JUMPI PUSH1 0x40 MLOAD SWAP2 POP PUSH1 0x1F NOT PUSH1 0x3F RETURNDATASIZE ADD AND DUP3 ADD PUSH1 0x40 MSTORE RETURNDATASIZE DUP3 MSTORE RETURNDATASIZE PUSH0 PUSH1 0x20 DUP5 ADD RETURNDATACOPY PUSH2 0x1787 JUMP JUMPDEST PUSH1 0x60 SWAP2 POP JUMPDEST POP SWAP2 POP SWAP2 POP DUP2 DUP1 ISZERO PUSH2 0x17B4 JUMPI POP PUSH0 DUP2 MLOAD EQ DUP1 PUSH2 0x17B3 JUMPI POP DUP1 DUP1 PUSH1 0x20 ADD SWAP1 MLOAD DUP2 ADD SWAP1 PUSH2 0x17B2 SWAP2 SWAP1 PUSH2 0x2C05 JUMP JUMPDEST JUMPDEST JUMPDEST DUP1 ISZERO PUSH2 0x17C5 JUMPI POP PUSH2 0x17C4 DUP6 PUSH2 0x19BE JUMP JUMPDEST JUMPDEST SWAP3 POP POP POP SWAP3 SWAP2 POP POP JUMP JUMPDEST PUSH0 PUSH32 0xF0C57E16840DF040F15088DC2F81FE391C3923BEC73E23A9662EFC9C229C6A00 PUSH0 SHL SWAP1 POP SWAP1 JUMP JUMPDEST PUSH2 0x1800 PUSH2 0x19E0 JUMP JUMPDEST PUSH2 0x1836 JUMPI PUSH1 0x40 MLOAD PUSH32 0xD7E6BCF800000000000000000000000000000000000000000000000000000000 DUP2 MSTORE PUSH1 0x4 ADD PUSH1 0x40 MLOAD DUP1 SWAP2 SUB SWAP1 REVERT JUMPDEST JUMP JUMPDEST PUSH2 0x1840 PUSH2 0x17F8 JUMP JUMPDEST PUSH0 PUSH20 0xFFFFFFFFFFFFFFFFFFFFFFFFFFFFFFFFFFFFFFFF AND DUP2 PUSH20 0xFFFFFFFFFFFFFFFFFFFFFFFFFFFFFFFFFFFFFFFF AND SUB PUSH2 0x18B0 JUMPI PUSH0 PUSH1 0x40 MLOAD PUSH32 0x1E4FBDF700000000000000000000000000000000000000000000000000000000 DUP2 MSTORE PUSH1 0x4 ADD PUSH2 0x18A7 SWAP2 SWAP1 PUSH2 0x22F5 JUMP JUMPDEST PUSH1 0x40 MLOAD DUP1 SWAP2 SUB SWAP1 REVERT JUMPDEST PUSH2 0x18B9 DUP2 PUSH2 0x153C JUMP JUMPDEST POP JUMP JUMPDEST PUSH2 0x18C4 PUSH2 0x17F8 JUMP JUMPDEST PUSH0 PUSH2 0x18CD PUSH2 0x1634 JUMP JUMPDEST SWAP1 POP PUSH1 0x1 DUP2 PUSH0 ADD DUP2 SWAP1 SSTORE POP POP JUMP JUMPDEST PUSH0 PUSH2 0x1907 PUSH32 0x360894A13BA1A3210667C828492DB98DCA3E2076CC3735A920A3CA505D382BBC PUSH0 SHL PUSH2 0x19FE JUMP JUMPDEST PUSH0 ADD PUSH0 SWAP1 SLOAD SWAP1 PUSH2 0x100 EXP SWAP1 DIV PUSH20 0xFFFFFFFFFFFFFFFFFFFFFFFFFFFFFFFFFFFFFFFF AND SWAP1 POP SWAP1 JUMP JUMPDEST PUSH2 0x1937 DUP3 PUSH2 0x1A07 JUMP JUMPDEST DUP2 PUSH20 0xFFFFFFFFFFFFFFFFFFFFFFFFFFFFFFFFFFFFFFFF AND PUSH32 0xBC7CD75A20EE27FD9ADEBAB32041F755214DBC6BFFA90CC0225B39DA2E5C2D3B PUSH1 0x40 MLOAD PUSH1 0x40 MLOAD DUP1 SWAP2 SUB SWAP1 LOG2 PUSH0 DUP2 MLOAD GT ISZERO PUSH2 0x1993 JUMPI PUSH2 0x198D DUP3 DUP3 PUSH2 0x1AD0 JUMP JUMPDEST POP PUSH2 0x199C JUMP JUMPDEST PUSH2 0x199B PUSH2 0x1B50 JUMP JUMPDEST JUMPDEST POP POP JUMP JUMPDEST PUSH0 CALLER SWAP1 POP SWAP1 JUMP JUMPDEST PUSH1 0x60 PUSH2 0x19B5 DUP5 DUP5 PUSH0 DUP6 PUSH2 0x1B8C JUMP JUMPDEST SWAP1 POP SWAP4 SWAP3 POP POP POP JUMP JUMPDEST PUSH0 PUSH0 DUP3 PUSH20 0xFFFFFFFFFFFFFFFFFFFFFFFFFFFFFFFFFFFFFFFF AND EXTCODESIZE GT SWAP1 POP SWAP2 SWAP1 POP JUMP JUMPDEST PUSH0 PUSH2 0x19E9 PUSH2 0x11DC JUMP JUMPDEST PUSH0 ADD PUSH1 0x8 SWAP1 SLOAD SWAP1 PUSH2 0x100 EXP SWAP1 DIV PUSH1 0xFF AND SWAP1 POP SWAP1 JUMP JUMPDEST PUSH0 DUP2 SWAP1 POP SWAP2 SWAP1 POP JUMP JUMPDEST PUSH0 DUP2 PUSH20 0xFFFFFFFFFFFFFFFFFFFFFFFFFFFFFFFFFFFFFFFF AND EXTCODESIZE SUB PUSH2 0x1A62 JUMPI DUP1 PUSH1 0x40 MLOAD PUSH32 0x4C9C8CE300000000000000000000000000000000000000000000000000000000 DUP2 MSTORE PUSH1 0x4 ADD PUSH2 0x1A59 SWAP2 SWAP1 PUSH2 0x22F5 JUMP JUMPDEST PUSH1 0x40 MLOAD DUP1 SWAP2 SUB SWAP1 REVERT JUMPDEST DUP1 PUSH2 0x1A8E PUSH32 0x360894A13BA1A3210667C828492DB98DCA3E2076CC3735A920A3CA505D382BBC PUSH0 SHL PUSH2 0x19FE JUMP JUMPDEST PUSH0 ADD PUSH0 PUSH2 0x100 EXP DUP2 SLOAD DUP2 PUSH20 0xFFFFFFFFFFFFFFFFFFFFFFFFFFFFFFFFFFFFFFFF MUL NOT AND SWAP1 DUP4 PUSH20 0xFFFFFFFFFFFFFFFFFFFFFFFFFFFFFFFFFFFFFFFF AND MUL OR SWAP1 SSTORE POP POP JUMP JUMPDEST PUSH1 0x60 PUSH0 PUSH0 DUP5 PUSH20 0xFFFFFFFFFFFFFFFFFFFFFFFFFFFFFFFFFFFFFFFF AND DUP5 PUSH1 0x40 MLOAD PUSH2 0x1AF9 SWAP2 SWAP1 PUSH2 0x2D02 JUMP JUMPDEST PUSH0 PUSH1 0x40 MLOAD DUP1 DUP4 SUB DUP2 DUP6 GAS DELEGATECALL SWAP2 POP POP RETURNDATASIZE DUP1 PUSH0 DUP2 EQ PUSH2 0x1B31 JUMPI PUSH1 0x40 MLOAD SWAP2 POP PUSH1 0x1F NOT PUSH1 0x3F RETURNDATASIZE ADD AND DUP3 ADD PUSH1 0x40 MSTORE RETURNDATASIZE DUP3 MSTORE RETURNDATASIZE PUSH0 PUSH1 0x20 DUP5 ADD RETURNDATACOPY PUSH2 0x1B36 JUMP JUMPDEST PUSH1 0x60 SWAP2 POP JUMPDEST POP SWAP2 POP SWAP2 POP PUSH2 0x1B46 DUP6 DUP4 DUP4 PUSH2 0x1C55 JUMP JUMPDEST SWAP3 POP POP POP SWAP3 SWAP2 POP POP JUMP JUMPDEST PUSH0 CALLVALUE GT ISZERO PUSH2 0x1B8A JUMPI PUSH1 0x40 MLOAD PUSH32 0xB398979F00000000000000000000000000000000000000000000000000000000 DUP2 MSTORE PUSH1 0x4 ADD PUSH1 0x40 MLOAD DUP1 SWAP2 SUB SWAP1 REVERT JUMPDEST JUMP JUMPDEST PUSH1 0x60 DUP3 SELFBALANCE LT ISZERO PUSH2 0x1BD1 JUMPI PUSH1 0x40 MLOAD PUSH32 0x8C379A000000000000000000000000000000000000000000000000000000000 DUP2 MSTORE PUSH1 0x4 ADD PUSH2 0x1BC8 SWAP1 PUSH2 0x2D88 JUMP JUMPDEST PUSH1 0x40 MLOAD DUP1 SWAP2 SUB SWAP1 REVERT JUMPDEST PUSH0 PUSH0 DUP7 PUSH20 0xFFFFFFFFFFFFFFFFFFFFFFFFFFFFFFFFFFFFFFFF AND DUP6 DUP8 PUSH1 0x40 MLOAD PUSH2 0x1BF9 SWAP2 SWAP1 PUSH2 0x2D02 JUMP JUMPDEST PUSH0 PUSH1 0x40 MLOAD DUP1 DUP4 SUB DUP2 DUP6 DUP8 GAS CALL SWAP3 POP POP POP RETURNDATASIZE DUP1 PUSH0 DUP2 EQ PUSH2 0x1C33 JUMPI PUSH1 0x40 MLOAD SWAP2 POP PUSH1 0x1F NOT PUSH1 0x3F RETURNDATASIZE ADD AND DUP3 ADD PUSH1 0x40 MSTORE RETURNDATASIZE DUP3 MSTORE RETURNDATASIZE PUSH0 PUSH1 0x20 DUP5 ADD RETURNDATACOPY PUSH2 0x1C38 JUMP JUMPDEST PUSH1 0x60 SWAP2 POP JUMPDEST POP SWAP2 POP SWAP2 POP PUSH2 0x1C49 DUP8 DUP4 DUP4 DUP8 PUSH2 0x1CE2 JUMP JUMPDEST SWAP3 POP POP POP SWAP5 SWAP4 POP POP POP POP JUMP JUMPDEST PUSH1 0x60 DUP3 PUSH2 0x1C6A JUMPI PUSH2 0x1C65 DUP3 PUSH2 0x1D56 JUMP JUMPDEST PUSH2 0x1CDA JUMP JUMPDEST PUSH0 DUP3 MLOAD EQ DUP1 ISZERO PUSH2 0x1C90 JUMPI POP PUSH0 DUP5 PUSH20 0xFFFFFFFFFFFFFFFFFFFFFFFFFFFFFFFFFFFFFFFF AND EXTCODESIZE EQ JUMPDEST ISZERO PUSH2 0x1CD2 JUMPI DUP4 PUSH1 0x40 MLOAD PUSH32 0x9996B31500000000000000000000000000000000000000000000000000000000 DUP2 MSTORE PUSH1 0x4 ADD PUSH2 0x1CC9 SWAP2 SWAP1 PUSH2 0x22F5 JUMP JUMPDEST PUSH1 0x40 MLOAD DUP1 SWAP2 SUB SWAP1 REVERT JUMPDEST DUP2 SWAP1 POP PUSH2 0x1CDB JUMP JUMPDEST JUMPDEST SWAP4 SWAP3 POP POP POP JUMP JUMPDEST PUSH1 0x60 DUP4 ISZERO PUSH2 0x1D43 JUMPI PUSH0 DUP4 MLOAD SUB PUSH2 0x1D3B JUMPI PUSH2 0x1CFB DUP6 PUSH2 0x19BE JUMP JUMPDEST PUSH2 0x1D3A JUMPI PUSH1 0x40 MLOAD PUSH32 0x8C379A000000000000000000000000000000000000000000000000000000000 DUP2 MSTORE PUSH1 0x4 ADD PUSH2 0x1D31 SWAP1 PUSH2 0x2DF0 JUMP JUMPDEST PUSH1 0x40 MLOAD DUP1 SWAP2 SUB SWAP1 REVERT JUMPDEST JUMPDEST DUP3 SWAP1 POP PUSH2 0x1D4E JUMP JUMPDEST PUSH2 0x1D4D DUP4 DUP4 PUSH2 0x1D99 JUMP JUMPDEST JUMPDEST SWAP5 SWAP4 POP POP POP POP JUMP JUMPDEST PUSH0 DUP2 MLOAD GT ISZERO PUSH2 0x1D67 JUMPI DUP1 MLOAD PUSH1 0x20 DUP3 ADD REVERT JUMPDEST PUSH1 0x40 MLOAD PUSH32 0xD6BDA27500000000000000000000000000000000000000000000000000000000 DUP2 MSTORE PUSH1 0x4 ADD PUSH1 0x40 MLOAD DUP1 SWAP2 SUB SWAP1 REVERT JUMPDEST PUSH0 DUP3 MLOAD GT ISZERO PUSH2 0x1DAB JUMPI DUP2 MLOAD DUP1 DUP4 PUSH1 0x20 ADD REVERT JUMPDEST DUP1 PUSH1 0x40 MLOAD PUSH32 0x8C379A000000000000000000000000000000000000000000000000000000000 DUP2 MSTORE PUSH1 0x4 ADD PUSH2 0x1DDF SWAP2 SWAP1 PUSH2 0x22D5 JUMP JUMPDEST PUSH1 0x40 MLOAD DUP1 SWAP2 SUB SWAP1 REVERT JUMPDEST PUSH0 PUSH1 0x40 MLOAD SWAP1 POP SWAP1 JUMP JUMPDEST PUSH0 PUSH0 REVERT JUMPDEST PUSH0 PUSH0 REVERT JUMPDEST PUSH0 DUP2 SWAP1 POP SWAP2 SWAP1 POP JUMP JUMPDEST PUSH2 0x1E0B DUP2 PUSH2 0x1DF9 JUMP JUMPDEST DUP2 EQ PUSH2 0x1E15 JUMPI PUSH0 PUSH0 REVERT JUMPDEST POP JUMP JUMPDEST PUSH0 DUP2 CALLDATALOAD SWAP1 POP PUSH2 0x1E26 DUP2 PUSH2 0x1E02 JUMP JUMPDEST SWAP3 SWAP2 POP POP JUMP JUMPDEST PUSH0 PUSH0 REVERT JUMPDEST PUSH0 PUSH0 REVERT JUMPDEST PUSH0 PUSH1 0x1F NOT PUSH1 0x1F DUP4 ADD AND SWAP1 POP SWAP2 SWAP1 POP JUMP JUMPDEST PUSH32 0x4E487B7100000000000000000000000000000000000000000000000000000000 PUSH0 MSTORE PUSH1 0x41 PUSH1 0x4 MSTORE PUSH1 0x24 PUSH0 REVERT JUMPDEST PUSH2 0x1E7A DUP3 PUSH2 0x1E34 JUMP JUMPDEST DUP2 ADD DUP2 DUP2 LT PUSH8 0xFFFFFFFFFFFFFFFF DUP3 GT OR ISZERO PUSH2 0x1E99 JUMPI PUSH2 0x1E98 PUSH2 0x1E44 JUMP JUMPDEST JUMPDEST DUP1 PUSH1 0x40 MSTORE POP POP POP JUMP JUMPDEST PUSH0 PUSH2 0x1EAB PUSH2 0x1DE8 JUMP JUMPDEST SWAP1 POP PUSH2 0x1EB7 DUP3 DUP3 PUSH2 0x1E71 JUMP JUMPDEST SWAP2 SWAP1 POP JUMP JUMPDEST PUSH0 PUSH8 0xFFFFFFFFFFFFFFFF DUP3 GT ISZERO PUSH2 0x1ED6 JUMPI PUSH2 0x1ED5 PUSH2 0x1E44 JUMP JUMPDEST JUMPDEST PUSH2 0x1EDF DUP3 PUSH2 0x1E34 JUMP JUMPDEST SWAP1 POP PUSH1 0x20 DUP2 ADD SWAP1 POP SWAP2 SWAP1 POP JUMP JUMPDEST DUP3 DUP2 DUP4 CALLDATACOPY PUSH0 DUP4 DUP4 ADD MSTORE POP POP POP JUMP JUMPDEST PUSH0 PUSH2 0x1F0C PUSH2 0x1F07 DUP5 PUSH2 0x1EBC JUMP JUMPDEST PUSH2 0x1EA2 JUMP JUMPDEST SWAP1 POP DUP3 DUP2 MSTORE PUSH1 0x20 DUP2 ADD DUP5 DUP5 DUP5 ADD GT ISZERO PUSH2 0x1F28 JUMPI PUSH2 0x1F27 PUSH2 0x1E30 JUMP JUMPDEST JUMPDEST PUSH2 0x1F33 DUP5 DUP3 DUP6 PUSH2 0x1EEC JUMP JUMPDEST POP SWAP4 SWAP3 POP POP POP JUMP JUMPDEST PUSH0 DUP3 PUSH1 0x1F DUP4 ADD SLT PUSH2 0x1F4F JUMPI PUSH2 0x1F4E PUSH2 0x1E2C JUMP JUMPDEST JUMPDEST DUP2 CALLDATALOAD PUSH2 0x1F5F DUP5 DUP3 PUSH1 0x20 DUP7 ADD PUSH2 0x1EFA JUMP JUMPDEST SWAP2 POP POP SWAP3 SWAP2 POP POP JUMP JUMPDEST PUSH0 PUSH0 PUSH1 0x40 DUP4 DUP6 SUB SLT ISZERO PUSH2 0x1F7E JUMPI PUSH2 0x1F7D PUSH2 0x1DF1 JUMP JUMPDEST JUMPDEST PUSH0 PUSH2 0x1F8B DUP6 DUP3 DUP7 ADD PUSH2 0x1E18 JUMP JUMPDEST SWAP3 POP POP PUSH1 0x20 DUP4 ADD CALLDATALOAD PUSH8 0xFFFFFFFFFFFFFFFF DUP2 GT ISZERO PUSH2 0x1FAC JUMPI PUSH2 0x1FAB PUSH2 0x1DF5 JUMP JUMPDEST JUMPDEST PUSH2 0x1FB8 DUP6 DUP3 DUP7 ADD PUSH2 0x1F3B JUMP JUMPDEST SWAP2 POP POP SWAP3 POP SWAP3 SWAP1 POP JUMP JUMPDEST PUSH0 PUSH20 0xFFFFFFFFFFFFFFFFFFFFFFFFFFFFFFFFFFFFFFFF DUP3 AND SWAP1 POP SWAP2 SWAP1 POP JUMP JUMPDEST PUSH0 DUP2 SWAP1 POP SWAP2 SWAP1 POP JUMP JUMPDEST PUSH0 PUSH2 0x2004 PUSH2 0x1FFF PUSH2 0x1FFA DUP5 PUSH2 0x1FC2 JUMP JUMPDEST PUSH2 0x1FE1 JUMP JUMPDEST PUSH2 0x1FC2 JUMP JUMPDEST SWAP1 POP SWAP2 SWAP1 POP JUMP JUMPDEST PUSH0 PUSH2 0x2015 DUP3 PUSH2 0x1FEA JUMP JUMPDEST SWAP1 POP SWAP2 SWAP1 POP JUMP JUMPDEST PUSH0 PUSH2 0x2026 DUP3 PUSH2 0x200B JUMP JUMPDEST SWAP1 POP SWAP2 SWAP1 POP JUMP JUMPDEST PUSH2 0x2036 DUP2 PUSH2 0x201C JUMP JUMPDEST DUP3 MSTORE POP POP JUMP JUMPDEST PUSH0 PUSH1 0x20 DUP3 ADD SWAP1 POP PUSH2 0x204F PUSH0 DUP4 ADD DUP5 PUSH2 0x202D JUMP JUMPDEST SWAP3 SWAP2 POP POP JUMP JUMPDEST PUSH0 PUSH2 0x205F DUP3 PUSH2 0x1FC2 JUMP JUMPDEST SWAP1 POP SWAP2 SWAP1 POP JUMP JUMPDEST PUSH2 0x206F DUP2 PUSH2 0x2055 JUMP JUMPDEST DUP2 EQ PUSH2 0x2079 JUMPI PUSH0 PUSH0 REVERT JUMPDEST POP JUMP JUMPDEST PUSH0 DUP2 CALLDATALOAD SWAP1 POP PUSH2 0x208A DUP2 PUSH2 0x2066 JUMP JUMPDEST SWAP3 SWAP2 POP POP JUMP JUMPDEST PUSH0 PUSH1 0x20 DUP3 DUP5 SUB SLT ISZERO PUSH2 0x20A5 JUMPI PUSH2 0x20A4 PUSH2 0x1DF1 JUMP JUMPDEST JUMPDEST PUSH0 PUSH2 0x20B2 DUP5 DUP3 DUP6 ADD PUSH2 0x207C JUMP JUMPDEST SWAP2 POP POP SWAP3 SWAP2 POP POP JUMP JUMPDEST PUSH2 0x20C4 DUP2 PUSH2 0x1DF9 JUMP JUMPDEST DUP3 MSTORE POP POP JUMP JUMPDEST PUSH2 0x20D3 DUP2 PUSH2 0x2055 JUMP JUMPDEST DUP3 MSTORE POP POP JUMP JUMPDEST PUSH0 PUSH1 0x60 DUP3 ADD SWAP1 POP PUSH2 0x20EC PUSH0 DUP4 ADD DUP7 PUSH2 0x20BB JUMP JUMPDEST PUSH2 0x20F9 PUSH1 0x20 DUP4 ADD DUP6 PUSH2 0x20BB JUMP JUMPDEST PUSH2 0x2106 PUSH1 0x40 DUP4 ADD DUP5 PUSH2 0x20CA JUMP JUMPDEST SWAP5 SWAP4 POP POP POP POP JUMP JUMPDEST PUSH0 PUSH0 PUSH1 0x40 DUP4 DUP6 SUB SLT ISZERO PUSH2 0x2124 JUMPI PUSH2 0x2123 PUSH2 0x1DF1 JUMP JUMPDEST JUMPDEST PUSH0 PUSH2 0x2131 DUP6 DUP3 DUP7 ADD PUSH2 0x207C JUMP JUMPDEST SWAP3 POP POP PUSH1 0x20 PUSH2 0x2142 DUP6 DUP3 DUP7 ADD PUSH2 0x207C JUMP JUMPDEST SWAP2 POP POP SWAP3 POP SWAP3 SWAP1 POP JUMP JUMPDEST PUSH0 PUSH8 0xFFFFFFFFFFFFFFFF DUP3 GT ISZERO PUSH2 0x2166 JUMPI PUSH2 0x2165 PUSH2 0x1E44 JUMP JUMPDEST JUMPDEST PUSH2 0x216F DUP3 PUSH2 0x1E34 JUMP JUMPDEST SWAP1 POP PUSH1 0x20 DUP2 ADD SWAP1 POP SWAP2 SWAP1 POP JUMP JUMPDEST PUSH0 PUSH2 0x218E PUSH2 0x2189 DUP5 PUSH2 0x214C JUMP JUMPDEST PUSH2 0x1EA2 JUMP JUMPDEST SWAP1 POP DUP3 DUP2 MSTORE PUSH1 0x20 DUP2 ADD DUP5 DUP5 DUP5 ADD GT ISZERO PUSH2 0x21AA JUMPI PUSH2 0x21A9 PUSH2 0x1E30 JUMP JUMPDEST JUMPDEST PUSH2 0x21B5 DUP5 DUP3 DUP6 PUSH2 0x1EEC JUMP JUMPDEST POP SWAP4 SWAP3 POP POP POP JUMP JUMPDEST PUSH0 DUP3 PUSH1 0x1F DUP4 ADD SLT PUSH2 0x21D1 JUMPI PUSH2 0x21D0 PUSH2 0x1E2C JUMP JUMPDEST JUMPDEST DUP2 CALLDATALOAD PUSH2 0x21E1 DUP5 DUP3 PUSH1 0x20 DUP7 ADD PUSH2 0x217C JUMP JUMPDEST SWAP2 POP POP SWAP3 SWAP2 POP POP JUMP JUMPDEST PUSH0 PUSH0 PUSH1 0x40 DUP4 DUP6 SUB SLT ISZERO PUSH2 0x2200 JUMPI PUSH2 0x21FF PUSH2 0x1DF1 JUMP JUMPDEST JUMPDEST PUSH0 PUSH2 0x220D DUP6 DUP3 DUP7 ADD PUSH2 0x207C JUMP JUMPDEST SWAP3 POP POP PUSH1 0x20 DUP4 ADD CALLDATALOAD PUSH8 0xFFFFFFFFFFFFFFFF DUP2 GT ISZERO PUSH2 0x222E JUMPI PUSH2 0x222D PUSH2 0x1DF5 JUMP JUMPDEST JUMPDEST PUSH2 0x223A DUP6 DUP3 DUP7 ADD PUSH2 0x21BD JUMP JUMPDEST SWAP2 POP POP SWAP3 POP SWAP3 SWAP1 POP JUMP JUMPDEST PUSH0 DUP2 SWAP1 POP SWAP2 SWAP1 POP JUMP JUMPDEST PUSH2 0x2256 DUP2 PUSH2 0x2244 JUMP JUMPDEST DUP3 MSTORE POP POP JUMP JUMPDEST PUSH0 PUSH1 0x20 DUP3 ADD SWAP1 POP PUSH2 0x226F PUSH0 DUP4 ADD DUP5 PUSH2 0x224D JUMP JUMPDEST SWAP3 SWAP2 POP POP JUMP JUMPDEST PUSH0 DUP2 MLOAD SWAP1 POP SWAP2 SWAP1 POP JUMP JUMPDEST PUSH0 DUP3 DUP3 MSTORE PUSH1 0x20 DUP3 ADD SWAP1 POP SWAP3 SWAP2 POP POP JUMP JUMPDEST DUP3 DUP2 DUP4 MCOPY PUSH0 DUP4 DUP4 ADD MSTORE POP POP POP JUMP JUMPDEST PUSH0 PUSH2 0x22A7 DUP3 PUSH2 0x2275 JUMP JUMPDEST PUSH2 0x22B1 DUP2 DUP6 PUSH2 0x227F JUMP JUMPDEST SWAP4 POP PUSH2 0x22C1 DUP2 DUP6 PUSH1 0x20 DUP7 ADD PUSH2 0x228F JUMP JUMPDEST PUSH2 0x22CA DUP2 PUSH2 0x1E34 JUMP JUMPDEST DUP5 ADD SWAP2 POP POP SWAP3 SWAP2 POP POP JUMP JUMPDEST PUSH0 PUSH1 0x20 DUP3 ADD SWAP1 POP DUP2 DUP2 SUB PUSH0 DUP4 ADD MSTORE PUSH2 0x22ED DUP2 DUP5 PUSH2 0x229D JUMP JUMPDEST SWAP1 POP SWAP3 SWAP2 POP POP JUMP JUMPDEST PUSH0 PUSH1 0x20 DUP3 ADD SWAP1 POP PUSH2 0x2308 PUSH0 DUP4 ADD DUP5 PUSH2 0x20CA JUMP JUMPDEST SWAP3 SWAP2 POP POP JUMP JUMPDEST PUSH0 PUSH2 0x2318 DUP3 PUSH2 0x200B JUMP JUMPDEST SWAP1 POP SWAP2 SWAP1 POP JUMP JUMPDEST PUSH2 0x2328 DUP2 PUSH2 0x230E JUMP JUMPDEST DUP3 MSTORE POP POP JUMP JUMPDEST PUSH0 PUSH1 0x20 DUP3 ADD SWAP1 POP PUSH2 0x2341 PUSH0 DUP4 ADD DUP5 PUSH2 0x231F JUMP JUMPDEST SWAP3 SWAP2 POP POP JUMP JUMPDEST PUSH0 PUSH1 0x20 DUP3 DUP5 SUB SLT ISZERO PUSH2 0x235C JUMPI PUSH2 0x235B PUSH2 0x1DF1 JUMP JUMPDEST JUMPDEST PUSH0 DUP3 ADD CALLDATALOAD PUSH8 0xFFFFFFFFFFFFFFFF DUP2 GT ISZERO PUSH2 0x2379 JUMPI PUSH2 0x2378 PUSH2 0x1DF5 JUMP JUMPDEST JUMPDEST PUSH2 0x2385 DUP5 DUP3 DUP6 ADD PUSH2 0x1F3B JUMP JUMPDEST SWAP2 POP POP SWAP3 SWAP2 POP POP JUMP JUMPDEST PUSH32 0x5A61704170793A20416D6F756E74206D757374206265203E2030000000000000 PUSH0 DUP3 ADD MSTORE POP JUMP JUMPDEST PUSH0 PUSH2 0x23C2 PUSH1 0x1A DUP4 PUSH2 0x227F JUMP JUMPDEST SWAP2 POP PUSH2 0x23CD DUP3 PUSH2 0x238E JUMP JUMPDEST PUSH1 0x20 DUP3 ADD SWAP1 POP SWAP2 SWAP1 POP JUMP JUMPDEST PUSH0 PUSH1 0x20 DUP3 ADD SWAP1 POP DUP2 DUP2 SUB PUSH0 DUP4 ADD MSTORE PUSH2 0x23EF DUP2 PUSH2 0x23B6 JUMP JUMPDEST SWAP1 POP SWAP2 SWAP1 POP JUMP JUMPDEST PUSH0 DUP2 SWAP1 POP SWAP3 SWAP2 POP POP JUMP JUMPDEST PUSH0 PUSH2 0x240A DUP3 PUSH2 0x2275 JUMP JUMPDEST PUSH2 0x2414 DUP2 DUP6 PUSH2 0x23F6 JUMP JUMPDEST SWAP4 POP PUSH2 0x2424 DUP2 DUP6 PUSH1 0x20 DUP7 ADD PUSH2 0x228F JUMP JUMPDEST DUP1 DUP5 ADD SWAP2 POP POP SWAP3 SWAP2 POP POP JUMP JUMPDEST PUSH0 PUSH2 0x243B DUP3 DUP5 PUSH2 0x2400 JUMP JUMPDEST SWAP2 POP DUP2 SWAP1 POP SWAP3 SWAP2 POP POP JUMP JUMPDEST PUSH32 0x4E487B7100000000000000000000000000000000000000000000000000000000 PUSH0 MSTORE PUSH1 0x11 PUSH1 0x4 MSTORE PUSH1 0x24 PUSH0 REVERT JUMPDEST PUSH0 PUSH2 0x247D DUP3 PUSH2 0x1DF9 JUMP JUMPDEST SWAP2 POP PUSH2 0x2488 DUP4 PUSH2 0x1DF9 JUMP JUMPDEST SWAP3 POP DUP3 DUP3 ADD SWAP1 POP DUP1 DUP3 GT ISZERO PUSH2 0x24A0 JUMPI PUSH2 0x249F PUSH2 0x2446 JUMP JUMPDEST JUMPDEST SWAP3 SWAP2 POP POP JUMP JUMPDEST PUSH0 PUSH1 0x40 DUP3 ADD SWAP1 POP PUSH2 0x24B9 PUSH0 DUP4 ADD DUP6 PUSH2 0x20BB JUMP JUMPDEST PUSH2 0x24C6 PUSH1 0x20 DUP4 ADD DUP5 PUSH2 0x20CA JUMP JUMPDEST SWAP4 SWAP3 POP POP POP JUMP JUMPDEST PUSH0 DUP2 MLOAD SWAP1 POP PUSH2 0x24DB DUP2 PUSH2 0x1E02 JUMP JUMPDEST SWAP3 SWAP2 POP POP JUMP JUMPDEST PUSH0 PUSH1 0x20 DUP3 DUP5 SUB SLT ISZERO PUSH2 0x24F6 JUMPI PUSH2 0x24F5 PUSH2 0x1DF1 JUMP JUMPDEST JUMPDEST PUSH0 PUSH2 0x2503 DUP5 DUP3 DUP6 ADD PUSH2 0x24CD JUMP JUMPDEST SWAP2 POP POP SWAP3 SWAP2 POP POP JUMP JUMPDEST PUSH0 PUSH1 0x40 DUP3 ADD SWAP1 POP PUSH2 0x251F PUSH0 DUP4 ADD DUP6 PUSH2 0x20BB JUMP JUMPDEST DUP2 DUP2 SUB PUSH1 0x20 DUP4 ADD MSTORE PUSH2 0x2531 DUP2 DUP5 PUSH2 0x229D JUMP JUMPDEST SWAP1 POP SWAP4 SWAP3 POP POP POP JUMP JUMPDEST PUSH32 0x4E487B7100000000000000000000000000000000000000000000000000000000 PUSH0 MSTORE PUSH1 0x22 PUSH1 0x4 MSTORE PUSH1 0x24 PUSH0 REVERT JUMPDEST PUSH0 PUSH1 0x2 DUP3 DIV SWAP1 POP PUSH1 0x1 DUP3 AND DUP1 PUSH2 0x257E JUMPI PUSH1 0x7F DUP3 AND SWAP2 POP JUMPDEST PUSH1 0x20 DUP3 LT DUP2 SUB PUSH2 0x2591 JUMPI PUSH2 0x2590 PUSH2 0x253A JUMP JUMPDEST JUMPDEST POP SWAP2 SWAP1 POP JUMP JUMPDEST PUSH32 0x5A61704170793A20596F7520616C72656164792068617665206120636F646500 PUSH0 DUP3 ADD MSTORE POP JUMP JUMPDEST PUSH0 PUSH2 0x25CB PUSH1 0x1F DUP4 PUSH2 0x227F JUMP JUMPDEST SWAP2 POP PUSH2 0x25D6 DUP3 PUSH2 0x2597 JUMP JUMPDEST PUSH1 0x20 DUP3 ADD SWAP1 POP SWAP2 SWAP1 POP JUMP JUMPDEST PUSH0 PUSH1 0x20 DUP3 ADD SWAP1 POP DUP2 DUP2 SUB PUSH0 DUP4 ADD MSTORE PUSH2 0x25F8 DUP2 PUSH2 0x25BF JUMP JUMPDEST SWAP1 POP SWAP2 SWAP1 POP JUMP JUMPDEST PUSH32 0x5A61704170793A20436F646520636F6C6C6973696F6E2C207472792061676169 PUSH0 DUP3 ADD MSTORE PUSH32 0x6E00000000000000000000000000000000000000000000000000000000000000 PUSH1 0x20 DUP3 ADD MSTORE POP JUMP JUMPDEST PUSH0 PUSH2 0x2659 PUSH1 0x21 DUP4 PUSH2 0x227F JUMP JUMPDEST SWAP2 POP PUSH2 0x2664 DUP3 PUSH2 0x25FF JUMP JUMPDEST PUSH1 0x40 DUP3 ADD SWAP1 POP SWAP2 SWAP1 POP JUMP JUMPDEST PUSH0 PUSH1 0x20 DUP3 ADD SWAP1 POP DUP2 DUP2 SUB PUSH0 DUP4 ADD MSTORE PUSH2 0x2686 DUP2 PUSH2 0x264D JUMP JUMPDEST SWAP1 POP SWAP2 SWAP1 POP JUMP JUMPDEST PUSH0 DUP2 SWAP1 POP DUP2 PUSH0 MSTORE PUSH1 0x20 PUSH0 KECCAK256 SWAP1 POP SWAP2 SWAP1 POP JUMP JUMPDEST PUSH0 PUSH1 0x20 PUSH1 0x1F DUP4 ADD DIV SWAP1 POP SWAP2 SWAP1 POP JUMP JUMPDEST PUSH0 DUP3 DUP3 SHL SWAP1 POP SWAP3 SWAP2 POP POP JUMP JUMPDEST PUSH0 PUSH1 0x8 DUP4 MUL PUSH2 0x26E9 PUSH32 0xFFFFFFFFFFFFFFFFFFFFFFFFFFFFFFFFFFFFFFFFFFFFFFFFFFFFFFFFFFFFFFFF DUP3 PUSH2 0x26AE JUMP JUMPDEST PUSH2 0x26F3 DUP7 DUP4 PUSH2 0x26AE JUMP JUMPDEST SWAP6 POP DUP1 NOT DUP5 AND SWAP4 POP DUP1 DUP7 AND DUP5 OR SWAP3 POP POP POP SWAP4 SWAP3 POP POP POP JUMP JUMPDEST PUSH0 PUSH2 0x2725 PUSH2 0x2720 PUSH2 0x271B DUP5 PUSH2 0x1DF9 JUMP JUMPDEST PUSH2 0x1FE1 JUMP JUMPDEST PUSH2 0x1DF9 JUMP JUMPDEST SWAP1 POP SWAP2 SWAP1 POP JUMP JUMPDEST PUSH0 DUP2 SWAP1 POP SWAP2 SWAP1 POP JUMP JUMPDEST PUSH2 0x273E DUP4 PUSH2 0x270B JUMP JUMPDEST PUSH2 0x2752 PUSH2 0x274A DUP3 PUSH2 0x272C JUMP JUMPDEST DUP5 DUP5 SLOAD PUSH2 0x26BA JUMP JUMPDEST DUP3 SSTORE POP POP POP POP JUMP JUMPDEST PUSH0 PUSH0 SWAP1 POP SWAP1 JUMP JUMPDEST PUSH2 0x2769 PUSH2 0x275A JUMP JUMPDEST PUSH2 0x2774 DUP2 DUP5 DUP5 PUSH2 0x2735 JUMP JUMPDEST POP POP POP JUMP JUMPDEST JUMPDEST DUP2 DUP2 LT ISZERO PUSH2 0x2797 JUMPI PUSH2 0x278C PUSH0 DUP3 PUSH2 0x2761 JUMP JUMPDEST PUSH1 0x1 DUP2 ADD SWAP1 POP PUSH2 0x277A JUMP JUMPDEST POP POP JUMP JUMPDEST PUSH1 0x1F DUP3 GT ISZERO PUSH2 0x27DC JUMPI PUSH2 0x27AD DUP2 PUSH2 0x268D JUMP JUMPDEST PUSH2 0x27B6 DUP5 PUSH2 0x269F JUMP JUMPDEST DUP2 ADD PUSH1 0x20 DUP6 LT ISZERO PUSH2 0x27C5 JUMPI DUP2 SWAP1 POP JUMPDEST PUSH2 0x27D9 PUSH2 0x27D1 DUP6 PUSH2 0x269F JUMP JUMPDEST DUP4 ADD DUP3 PUSH2 0x2779 JUMP JUMPDEST POP POP JUMPDEST POP POP POP JUMP JUMPDEST PUSH0 DUP3 DUP3 SHR SWAP1 POP SWAP3 SWAP2 POP POP JUMP JUMPDEST PUSH0 PUSH2 0x27FC PUSH0 NOT DUP5 PUSH1 0x8 MUL PUSH2 0x27E1 JUMP JUMPDEST NOT DUP1 DUP4 AND SWAP2 POP POP SWAP3 SWAP2 POP POP JUMP JUMPDEST PUSH0 PUSH2 0x2814 DUP4 DUP4 PUSH2 0x27ED JUMP JUMPDEST SWAP2 POP DUP3 PUSH1 0x2 MUL DUP3 OR SWAP1 POP SWAP3 SWAP2 POP POP JUMP JUMPDEST PUSH2 0x282D DUP3 PUSH2 0x2275 JUMP JUMPDEST PUSH8 0xFFFFFFFFFFFFFFFF DUP2 GT ISZERO PUSH2 0x2846 JUMPI PUSH2 0x2845 PUSH2 0x1E44 JUMP JUMPDEST JUMPDEST PUSH2 0x2850 DUP3 SLOAD PUSH2 0x2567 JUMP JUMPDEST PUSH2 0x285B DUP3 DUP3 DUP6 PUSH2 0x279B JUMP JUMPDEST PUSH0 PUSH1 0x20 SWAP1 POP PUSH1 0x1F DUP4 GT PUSH1 0x1 DUP2 EQ PUSH2 0x288C JUMPI PUSH0 DUP5 ISZERO PUSH2 0x287A JUMPI DUP3 DUP8 ADD MLOAD SWAP1 POP JUMPDEST PUSH2 0x2884 DUP6 DUP3 PUSH2 0x2809 JUMP JUMPDEST DUP7 SSTORE POP PUSH2 0x28EB JUMP JUMPDEST PUSH1 0x1F NOT DUP5 AND PUSH2 0x289A DUP7 PUSH2 0x268D JUMP JUMPDEST PUSH0 JUMPDEST DUP3 DUP2 LT ISZERO PUSH2 0x28C1 JUMPI DUP5 DUP10 ADD MLOAD DUP3 SSTORE PUSH1 0x1 DUP3 ADD SWAP2 POP PUSH1 0x20 DUP6 ADD SWAP5 POP PUSH1 0x20 DUP2 ADD SWAP1 POP PUSH2 0x289C JUMP JUMPDEST DUP7 DUP4 LT ISZERO PUSH2 0x28DE JUMPI DUP5 DUP10 ADD MLOAD PUSH2 0x28DA PUSH1 0x1F DUP10 AND DUP3 PUSH2 0x27ED JUMP JUMPDEST DUP4 SSTORE POP JUMPDEST PUSH1 0x1 PUSH1 0x2 DUP9 MUL ADD DUP9 SSTORE POP POP POP JUMPDEST POP POP POP POP POP POP JUMP JUMPDEST PUSH0 DUP2 SWAP1 POP SWAP2 SWAP1 POP JUMP JUMPDEST PUSH0 PUSH8 0xFFFFFFFFFFFFFFFF DUP3 AND SWAP1 POP SWAP2 SWAP1 POP JUMP JUMPDEST PUSH0 PUSH2 0x2929 PUSH2 0x2924 PUSH2 0x291F DUP5 PUSH2 0x28F3 JUMP JUMPDEST PUSH2 0x1FE1 JUMP JUMPDEST PUSH2 0x28FC JUMP JUMPDEST SWAP1 POP SWAP2 SWAP1 POP JUMP JUMPDEST PUSH2 0x2939 DUP2 PUSH2 0x290F JUMP JUMPDEST DUP3 MSTORE POP POP JUMP JUMPDEST PUSH0 PUSH1 0x20 DUP3 ADD SWAP1 POP PUSH2 0x2952 PUSH0 DUP4 ADD DUP5 PUSH2 0x2930 JUMP JUMPDEST SWAP3 SWAP2 POP POP JUMP JUMPDEST PUSH0 PUSH1 0x60 DUP3 ADD SWAP1 POP PUSH2 0x296B PUSH0 DUP4 ADD DUP7 PUSH2 0x20CA JUMP JUMPDEST PUSH2 0x2978 PUSH1 0x20 DUP4 ADD DUP6 PUSH2 0x20CA JUMP JUMPDEST PUSH2 0x2985 PUSH1 0x40 DUP4 ADD DUP5 PUSH2 0x20BB JUMP JUMPDEST SWAP5 SWAP4 POP POP POP POP JUMP JUMPDEST PUSH0 PUSH1 0x40 DUP3 ADD SWAP1 POP PUSH2 0x29A0 PUSH0 DUP4 ADD DUP6 PUSH2 0x20CA JUMP JUMPDEST PUSH2 0x29AD PUSH1 0x20 DUP4 ADD DUP5 PUSH2 0x20BB JUMP JUMPDEST SWAP4 SWAP3 POP POP POP JUMP JUMPDEST PUSH0 DUP2 SWAP1 POP SWAP2 SWAP1 POP JUMP JUMPDEST PUSH0 PUSH1 0xFF DUP3 AND SWAP1 POP SWAP2 SWAP1 POP JUMP JUMPDEST PUSH0 PUSH2 0x29E3 PUSH2 0x29DE PUSH2 0x29D9 DUP5 PUSH2 0x29B4 JUMP JUMPDEST PUSH2 0x1FE1 JUMP JUMPDEST PUSH2 0x29BD JUMP JUMPDEST SWAP1 POP SWAP2 SWAP1 POP JUMP JUMPDEST PUSH2 0x29F3 DUP2 PUSH2 0x29C9 JUMP JUMPDEST DUP3 MSTORE POP POP JUMP JUMPDEST PUSH0 PUSH1 0x40 DUP3 ADD SWAP1 POP PUSH2 0x2A0C PUSH0 DUP4 ADD DUP6 PUSH2 0x20CA JUMP JUMPDEST PUSH2 0x2A19 PUSH1 0x20 DUP4 ADD DUP5 PUSH2 0x29EA JUMP JUMPDEST SWAP4 SWAP3 POP POP POP JUMP JUMPDEST PUSH0 DUP2 PUSH1 0x60 SHL SWAP1 POP SWAP2 SWAP1 POP JUMP JUMPDEST PUSH0 PUSH2 0x2A36 DUP3 PUSH2 0x2A20 JUMP JUMPDEST SWAP1 POP SWAP2 SWAP1 POP JUMP JUMPDEST PUSH0 PUSH2 0x2A47 DUP3 PUSH2 0x2A2C JUMP JUMPDEST SWAP1 POP SWAP2 SWAP1 POP JUMP JUMPDEST PUSH2 0x2A5F PUSH2 0x2A5A DUP3 PUSH2 0x2055 JUMP JUMPDEST PUSH2 0x2A3D JUMP JUMPDEST DUP3 MSTORE POP POP JUMP JUMPDEST PUSH0 DUP2 SWAP1 POP SWAP2 SWAP1 POP JUMP JUMPDEST PUSH2 0x2A7F PUSH2 0x2A7A DUP3 PUSH2 0x1DF9 JUMP JUMPDEST PUSH2 0x2A65 JUMP JUMPDEST DUP3 MSTORE POP POP JUMP JUMPDEST PUSH0 PUSH2 0x2A90 DUP3 DUP7 PUSH2 0x2A4E JUMP JUMPDEST PUSH1 0x14 DUP3 ADD SWAP2 POP PUSH2 0x2AA0 DUP3 DUP6 PUSH2 0x2A6E JUMP JUMPDEST PUSH1 0x20 DUP3 ADD SWAP2 POP PUSH2 0x2AB0 DUP3 DUP5 PUSH2 0x2A6E JUMP JUMPDEST PUSH1 0x20 DUP3 ADD SWAP2 POP DUP2 SWAP1 POP SWAP5 SWAP4 POP POP POP POP JUMP JUMPDEST PUSH32 0x4E487B7100000000000000000000000000000000000000000000000000000000 PUSH0 MSTORE PUSH1 0x12 PUSH1 0x4 MSTORE PUSH1 0x24 PUSH0 REVERT JUMPDEST PUSH0 PUSH2 0x2AF8 DUP3 PUSH2 0x1DF9 JUMP JUMPDEST SWAP2 POP PUSH2 0x2B03 DUP4 PUSH2 0x1DF9 JUMP JUMPDEST SWAP3 POP DUP3 PUSH2 0x2B13 JUMPI PUSH2 0x2B12 PUSH2 0x2AC1 JUMP JUMPDEST JUMPDEST DUP3 DUP3 MOD SWAP1 POP SWAP3 SWAP2 POP POP JUMP JUMPDEST PUSH32 0x4E487B7100000000000000000000000000000000000000000000000000000000 PUSH0 MSTORE PUSH1 0x32 PUSH1 0x4 MSTORE PUSH1 0x24 PUSH0 REVERT JUMPDEST PUSH0 PUSH2 0x2B55 DUP3 PUSH2 0x1DF9 JUMP JUMPDEST SWAP2 POP PUSH2 0x2B60 DUP4 PUSH2 0x1DF9 JUMP JUMPDEST SWAP3 POP DUP3 PUSH2 0x2B70 JUMPI PUSH2 0x2B6F PUSH2 0x2AC1 JUMP JUMPDEST JUMPDEST DUP3 DUP3 DIV SWAP1 POP SWAP3 SWAP2 POP POP JUMP JUMPDEST PUSH2 0x2B84 DUP2 PUSH2 0x2244 JUMP JUMPDEST DUP2 EQ PUSH2 0x2B8E JUMPI PUSH0 PUSH0 REVERT JUMPDEST POP JUMP JUMPDEST PUSH0 DUP2 MLOAD SWAP1 POP PUSH2 0x2B9F DUP2 PUSH2 0x2B7B JUMP JUMPDEST SWAP3 SWAP2 POP POP JUMP JUMPDEST PUSH0 PUSH1 0x20 DUP3 DUP5 SUB SLT ISZERO PUSH2 0x2BBA JUMPI PUSH2 0x2BB9 PUSH2 0x1DF1 JUMP JUMPDEST JUMPDEST PUSH0 PUSH2 0x2BC7 DUP5 DUP3 DUP6 ADD PUSH2 0x2B91 JUMP JUMPDEST SWAP2 POP POP SWAP3 SWAP2 POP POP JUMP JUMPDEST PUSH0 DUP2 ISZERO ISZERO SWAP1 POP SWAP2 SWAP1 POP JUMP JUMPDEST PUSH2 0x2BE4 DUP2 PUSH2 0x2BD0 JUMP JUMPDEST DUP2 EQ PUSH2 0x2BEE JUMPI PUSH0 PUSH0 REVERT JUMPDEST POP JUMP JUMPDEST PUSH0 DUP2 MLOAD SWAP1 POP PUSH2 0x2BFF DUP2 PUSH2 0x2BDB JUMP JUMPDEST SWAP3 SWAP2 POP POP JUMP JUMPDEST PUSH0 PUSH1 0x20 DUP3 DUP5 SUB SLT ISZERO PUSH2 0x2C1A JUMPI PUSH2 0x2C19 PUSH2 0x1DF1 JUMP JUMPDEST JUMPDEST PUSH0 PUSH2 0x2C27 DUP5 DUP3 DUP6 ADD PUSH2 0x2BF1 JUMP JUMPDEST SWAP2 POP POP SWAP3 SWAP2 POP POP JUMP JUMPDEST PUSH32 0x5361666545524332303A204552433230206F7065726174696F6E20646964206E PUSH0 DUP3 ADD MSTORE PUSH32 0x6F74207375636365656400000000000000000000000000000000000000000000 PUSH1 0x20 DUP3 ADD MSTORE POP JUMP JUMPDEST PUSH0 PUSH2 0x2C8A PUSH1 0x2A DUP4 PUSH2 0x227F JUMP JUMPDEST SWAP2 POP PUSH2 0x2C95 DUP3 PUSH2 0x2C30 JUMP JUMPDEST PUSH1 0x40 DUP3 ADD SWAP1 POP SWAP2 SWAP1 POP JUMP JUMPDEST PUSH0 PUSH1 0x20 DUP3 ADD SWAP1 POP DUP2 DUP2 SUB PUSH0 DUP4 ADD MSTORE PUSH2 0x2CB7 DUP2 PUSH2 0x2C7E JUMP JUMPDEST SWAP1 POP SWAP2 SWAP1 POP JUMP JUMPDEST PUSH0 DUP2 MLOAD SWAP1 POP SWAP2 SWAP1 POP JUMP JUMPDEST PUSH0 DUP2 SWAP1 POP SWAP3 SWAP2 POP POP JUMP JUMPDEST PUSH0 PUSH2 0x2CDC DUP3 PUSH2 0x2CBE JUMP JUMPDEST PUSH2 0x2CE6 DUP2 DUP6 PUSH2 0x2CC8 JUMP JUMPDEST SWAP4 POP PUSH2 0x2CF6 DUP2 DUP6 PUSH1 0x20 DUP7 ADD PUSH2 0x228F JUMP JUMPDEST DUP1 DUP5 ADD SWAP2 POP POP SWAP3 SWAP2 POP POP JUMP JUMPDEST PUSH0 PUSH2 0x2D0D DUP3 DUP5 PUSH2 0x2CD2 JUMP JUMPDEST SWAP2 POP DUP2 SWAP1 POP SWAP3 SWAP2 POP POP JUMP JUMPDEST PUSH32 0x416464726573733A20696E73756666696369656E742062616C616E636520666F PUSH0 DUP3 ADD MSTORE PUSH32 0x722063616C6C0000000000000000000000000000000000000000000000000000 PUSH1 0x20 DUP3 ADD MSTORE POP JUMP JUMPDEST PUSH0 PUSH2 0x2D72 PUSH1 0x26 DUP4 PUSH2 0x227F JUMP JUMPDEST SWAP2 POP PUSH2 0x2D7D DUP3 PUSH2 0x2D18 JUMP JUMPDEST PUSH1 0x40 DUP3 ADD SWAP1 POP SWAP2 SWAP1 POP JUMP JUMPDEST PUSH0 PUSH1 0x20 DUP3 ADD SWAP1 POP DUP2 DUP2 SUB PUSH0 DUP4 ADD MSTORE PUSH2 0x2D9F DUP2 PUSH2 0x2D66 JUMP JUMPDEST SWAP1 POP SWAP2 SWAP1 POP JUMP JUMPDEST PUSH32 0x416464726573733A2063616C6C20746F206E6F6E2D636F6E7472616374000000 PUSH0 DUP3 ADD MSTORE POP JUMP JUMPDEST PUSH0 PUSH2 0x2DDA PUSH1 0x1D DUP4 PUSH2 0x227F JUMP JUMPDEST SWAP2 POP PUSH2 0x2DE5 DUP3 PUSH2 0x2DA6 JUMP JUMPDEST PUSH1 0x20 DUP3 ADD SWAP1 POP SWAP2 SWAP1 POP JUMP JUMPDEST PUSH0 PUSH1 0x20 DUP3 ADD SWAP1 POP DUP2 DUP2 SUB PUSH0 DUP4 ADD MSTORE PUSH2 0x2E07 DUP2 PUSH2 0x2DCE JUMP JUMPDEST SWAP1 POP SWAP2 SWAP1 POP JUMP INVALID ADDRESS BALANCE ORIGIN CALLER CALLVALUE CALLDATALOAD CALLDATASIZE CALLDATACOPY CODESIZE CODECOPY COINBASE TIMESTAMP NUMBER PREVRANDAO GASLIMIT CHAINID SELFBALANCE BASEFEE BLOBHASH BLOBBASEFEE 0x4B 0x4C 0x4D 0x4E 0x4F POP MLOAD MSTORE MSTORE8 SLOAD SSTORE JUMP JUMPI PC MSIZE GAS LOG2 PUSH5 0x6970667358 0x22 SLT KECCAK256 AND SWAP16 0xA9 0xD5 PUSH0 BASEFEE 0xC5 SLT 0xD0 0xD4 CALLVALUE DUPN 0xC5 0xB9 0x2C SWAP7 RETURN 0x2C 0xD4 DUPN 0x23 0xCC SWAP2 0xBC CALLDATALOAD SGT DUP12 LT KECCAK256 0xC9 MULMOD 0xE2 PUSH5 0x736F6C6343 STOP ADDMOD 0x1F STOP CALLER "
				},
				"gasEstimates": {
					"creation": {
						"codeDepositCost": "2376000",
						"executionCost": "infinite",
						"totalCost": "infinite"
					},
					"external": {
						"UPGRADE_INTERFACE_VERSION()": "infinite",
						"addressToCode(address)": "infinite",
						"codeToAddress(string)": "infinite",
						"createReferralCode()": "infinite",
						"getMyCode()": "infinite",
						"initialize(address,address)": "infinite",
						"moonwellVault()": "infinite",
						"owner()": "2633",
						"proxiableUUID()": "infinite",
						"renounceOwnership()": "infinite",
						"transferOwnership(address)": "infinite",
						"upgradeToAndCall(address,bytes)": "infinite",
						"usdcToken()": "infinite",
						"userInfo(address)": "infinite",
						"zapIn(uint256,string)": "infinite"
					},
					"internal": {
						"_authorizeUpgrade(address)": "infinite",
						"_generateRandomString()": "infinite"
					}
				},
				"methodIdentifiers": {
					"UPGRADE_INTERFACE_VERSION()": "ad3cb1cc",
					"addressToCode(address)": "c4f74631",
					"codeToAddress(string)": "9932dc05",
					"createReferralCode()": "2e108d1c",
					"getMyCode()": "71cd28b4",
					"initialize(address,address)": "485cc955",
					"moonwellVault()": "97da7af7",
					"owner()": "8da5cb5b",
					"proxiableUUID()": "52d1902d",
					"renounceOwnership()": "715018a6",
					"transferOwnership(address)": "f2fde38b",
					"upgradeToAndCall(address,bytes)": "4f1ef286",
					"usdcToken()": "11eac855",
					"userInfo(address)": "1959a002",
					"zapIn(uint256,string)": "040d02e4"
				}
			},
			"storageLayout": {
				"storage": [
					{
						"astId": 2424,
						"contract": "contracts/zapyield-mainnet-beta0.1.7.sol:ZapApyV3",
						"label": "usdcToken",
						"offset": 0,
						"slot": "0",
						"type": "t_contract(IERC20Upgradeable)722"
					},
					{
						"astId": 2427,
						"contract": "contracts/zapyield-mainnet-beta0.1.7.sol:ZapApyV3",
						"label": "moonwellVault",
						"offset": 0,
						"slot": "1",
						"type": "t_contract(IMorphoVault)2409"
					},
					{
						"astId": 2431,
						"contract": "contracts/zapyield-mainnet-beta0.1.7.sol:ZapApyV3",
						"label": "codeToAddress",
						"offset": 0,
						"slot": "2",
						"type": "t_mapping(t_string_memory_ptr,t_address)"
					},
					{
						"astId": 2435,
						"contract": "contracts/zapyield-mainnet-beta0.1.7.sol:ZapApyV3",
						"label": "addressToCode",
						"offset": 0,
						"slot": "3",
						"type": "t_mapping(t_address,t_string_storage)"
					},
					{
						"astId": 2450,
						"contract": "contracts/zapyield-mainnet-beta0.1.7.sol:ZapApyV3",
						"label": "userInfo",
						"offset": 0,
						"slot": "4",
						"type": "t_mapping(t_address,t_struct(UserInfo)2445_storage)"
					}
				],
				"types": {
					"t_address": {
						"encoding": "inplace",
						"label": "address",
						"numberOfBytes": "20"
					},
					"t_contract(IERC20Upgradeable)722": {
						"encoding": "inplace",
						"label": "contract IERC20Upgradeable",
						"numberOfBytes": "20"
					},
					"t_contract(IMorphoVault)2409": {
						"encoding": "inplace",
						"label": "contract IMorphoVault",
						"numberOfBytes": "20"
					},
					"t_mapping(t_address,t_string_storage)": {
						"encoding": "mapping",
						"key": "t_address",
						"label": "mapping(address => string)",
						"numberOfBytes": "32",
						"value": "t_string_storage"
					},
					"t_mapping(t_address,t_struct(UserInfo)2445_storage)": {
						"encoding": "mapping",
						"key": "t_address",
						"label": "mapping(address => struct ZapApyV3.UserInfo)",
						"numberOfBytes": "32",
						"value": "t_struct(UserInfo)2445_storage"
					},
					"t_mapping(t_string_memory_ptr,t_address)": {
						"encoding": "mapping",
						"key": "t_string_memory_ptr",
						"label": "mapping(string => address)",
						"numberOfBytes": "32",
						"value": "t_address"
					},
					"t_string_memory_ptr": {
						"encoding": "bytes",
						"label": "string",
						"numberOfBytes": "32"
					},
					"t_string_storage": {
						"encoding": "bytes",
						"label": "string",
						"numberOfBytes": "32"
					},
					"t_struct(UserInfo)2445_storage": {
						"encoding": "inplace",
						"label": "struct ZapApyV3.UserInfo",
						"members": [
							{
								"astId": 2440,
								"contract": "contracts/zapyield-mainnet-beta0.1.7.sol:ZapApyV3",
								"label": "principal",
								"offset": 0,
								"slot": "0",
								"type": "t_uint256"
							},
							{
								"astId": 2442,
								"contract": "contracts/zapyield-mainnet-beta0.1.7.sol:ZapApyV3",
								"label": "depositTime",
								"offset": 0,
								"slot": "1",
								"type": "t_uint256"
							},
							{
								"astId": 2444,
								"contract": "contracts/zapyield-mainnet-beta0.1.7.sol:ZapApyV3",
								"label": "referrer",
								"offset": 0,
								"slot": "2",
								"type": "t_address"
							}
						],
						"numberOfBytes": "96"
					},
					"t_uint256": {
						"encoding": "inplace",
						"label": "uint256",
						"numberOfBytes": "32"
					}
				}
			},
			"userdoc": {
				"kind": "user",
				"methods": {},
				"version": 1
			}
		}
	}
}