{
	"ZapYield.sol": {
		"ZapYieldsVaultSepolia": {
			"abi": [
				{
					"inputs": [],
					"stateMutability": "nonpayable",
					"type": "constructor"
				},
				{
					"inputs": [
						{
							"internalType": "address",
							"name": "owner",
							"type": "address"
						}
					],
					"name": "OwnableInvalidOwner",
					"type": "error"
				},
				{
					"inputs": [
						{
							"internalType": "address",
							"name": "account",
							"type": "address"
						}
					],
					"name": "OwnableUnauthorizedAccount",
					"type": "error"
				},
				{
					"inputs": [
						{
							"internalType": "address",
							"name": "token",
							"type": "address"
						}
					],
					"name": "SafeERC20FailedOperation",
					"type": "error"
				},
				{
					"anonymous": false,
					"inputs": [
						{
							"indexed": true,
							"internalType": "address",
							"name": "previousOwner",
							"type": "address"
						},
						{
							"indexed": true,
							"internalType": "address",
							"name": "newOwner",
							"type": "address"
						}
					],
					"name": "OwnershipTransferred",
					"type": "event"
				},
				{
					"inputs": [],
					"name": "EARLY_WITHDRAW_FEE",
					"outputs": [
						{
							"internalType": "uint256",
							"name": "",
							"type": "uint256"
						}
					],
					"stateMutability": "view",
					"type": "function"
				},
				{
					"inputs": [],
					"name": "LOCK_PERIOD",
					"outputs": [
						{
							"internalType": "uint256",
							"name": "",
							"type": "uint256"
						}
					],
					"stateMutability": "view",
					"type": "function"
				},
				{
					"inputs": [],
					"name": "PROTOCOL_FEE_PERCENT",
					"outputs": [
						{
							"internalType": "uint256",
							"name": "",
							"type": "uint256"
						}
					],
					"stateMutability": "view",
					"type": "function"
				},
				{
					"inputs": [],
					"name": "USDC",
					"outputs": [
						{
							"internalType": "contract IERC20",
							"name": "",
							"type": "address"
						}
					],
					"stateMutability": "view",
					"type": "function"
				},
				{
					"inputs": [],
					"name": "WITHDRAWAL_FEE_FLAT",
					"outputs": [
						{
							"internalType": "uint256",
							"name": "",
							"type": "uint256"
						}
					],
					"stateMutability": "view",
					"type": "function"
				},
				{
					"inputs": [
						{
							"internalType": "address",
							"name": "_user",
							"type": "address"
						}
					],
					"name": "getAccountValue",
					"outputs": [
						{
							"internalType": "uint256",
							"name": "",
							"type": "uint256"
						}
					],
					"stateMutability": "view",
					"type": "function"
				},
				{
					"inputs": [
						{
							"internalType": "address",
							"name": "_user",
							"type": "address"
						}
					],
					"name": "getDownlines",
					"outputs": [
						{
							"internalType": "address[]",
							"name": "",
							"type": "address[]"
						}
					],
					"stateMutability": "view",
					"type": "function"
				},
				{
					"inputs": [
						{
							"internalType": "address",
							"name": "_user",
							"type": "address"
						}
					],
					"name": "getReferralTierPercent",
					"outputs": [
						{
							"internalType": "uint256",
							"name": "",
							"type": "uint256"
						}
					],
					"stateMutability": "view",
					"type": "function"
				},
				{
					"inputs": [
						{
							"internalType": "address",
							"name": "_user",
							"type": "address"
						}
					],
					"name": "getTimeUntilFree",
					"outputs": [
						{
							"internalType": "uint256",
							"name": "",
							"type": "uint256"
						}
					],
					"stateMutability": "view",
					"type": "function"
				},
				{
					"inputs": [],
					"name": "mUSDC",
					"outputs": [
						{
							"internalType": "contract IMToken",
							"name": "",
							"type": "address"
						}
					],
					"stateMutability": "view",
					"type": "function"
				},
				{
					"inputs": [],
					"name": "owner",
					"outputs": [
						{
							"internalType": "address",
							"name": "",
							"type": "address"
						}
					],
					"stateMutability": "view",
					"type": "function"
				},
				{
					"inputs": [
						{
							"internalType": "address",
							"name": "",
							"type": "address"
						}
					],
					"name": "referralEarnings",
					"outputs": [
						{
							"internalType": "uint256",
							"name": "",
							"type": "uint256"
						}
					],
					"stateMutability": "view",
					"type": "function"
				},
				{
					"inputs": [
						{
							"internalType": "address",
							"name": "",
							"type": "address"
						},
						{
							"internalType": "uint256",
							"name": "",
							"type": "uint256"
						}
					],
					"name": "referralList",
					"outputs": [
						{
							"internalType": "address",
							"name": "",
							"type": "address"
						}
					],
					"stateMutability": "view",
					"type": "function"
				},
				{
					"inputs": [],
					"name": "renounceOwnership",
					"outputs": [],
					"stateMutability": "nonpayable",
					"type": "function"
				},
				{
					"inputs": [
						{
							"internalType": "address",
							"name": "newOwner",
							"type": "address"
						}
					],
					"name": "transferOwnership",
					"outputs": [],
					"stateMutability": "nonpayable",
					"type": "function"
				},
				{
					"inputs": [
						{
							"internalType": "address",
							"name": "",
							"type": "address"
						}
					],
					"name": "users",
					"outputs": [
						{
							"internalType": "uint256",
							"name": "principal",
							"type": "uint256"
						},
						{
							"internalType": "uint256",
							"name": "shareBalance",
							"type": "uint256"
						},
						{
							"internalType": "address",
							"name": "referrer",
							"type": "address"
						},
						{
							"internalType": "uint256",
							"name": "totalEarned",
							"type": "uint256"
						},
						{
							"internalType": "uint256",
							"name": "lastDepositTime",
							"type": "uint256"
						}
					],
					"stateMutability": "view",
					"type": "function"
				},
				{
					"inputs": [
						{
							"internalType": "uint256",
							"name": "_amount",
							"type": "uint256"
						},
						{
							"internalType": "address",
							"name": "_referrer",
							"type": "address"
						}
					],
					"name": "zapIn",
					"outputs": [],
					"stateMutability": "nonpayable",
					"type": "function"
				},
				{
					"inputs": [],
					"name": "zapOut",
					"outputs": [],
					"stateMutability": "nonpayable",
					"type": "function"
				}
			],
			"devdoc": {
				"errors": {
					"OwnableInvalidOwner(address)": [
						{
							"details": "The owner is not a valid owner account. (eg. `address(0)`)"
						}
					],
					"OwnableUnauthorizedAccount(address)": [
						{
							"details": "The caller account is not authorized to perform an operation."
						}
					],
					"SafeERC20FailedOperation(address)": [
						{
							"details": "An operation with an ERC-20 token failed."
						}
					]
				},
				"kind": "dev",
				"methods": {
					"owner()": {
						"details": "Returns the address of the current owner."
					},
					"renounceOwnership()": {
						"details": "Leaves the contract without owner. It will not be possible to call `onlyOwner` functions. Can only be called by the current owner. NOTE: Renouncing ownership will leave the contract without an owner, thereby disabling any functionality that is only available to the owner."
					},
					"transferOwnership(address)": {
						"details": "Transfers ownership of the contract to a new account (`newOwner`). Can only be called by the current owner."
					}
				},
				"version": 1
			},
			"evm": {
				"assembly": "    /* \"ZapYield.sol\":618:5178  contract ZapYieldsVaultSepolia is Ownable, ReentrancyGuard {... */\n  mstore(0x40, 0x80)\n    /* \"ZapYield.sol\":1584:1620  constructor() Ownable(msg.sender) {} */\n  callvalue\n  dup1\n  iszero\n  tag_1\n  jumpi\n  revert(0x00, 0x00)\ntag_1:\n  pop\n    /* \"ZapYield.sol\":1606:1616  msg.sender */\n  caller\n    /* \"@openzeppelin/contracts/access/Ownable.sol\":1297:1298  0 */\n  0x00\n    /* \"@openzeppelin/contracts/access/Ownable.sol\":1273:1299  initialOwner == address(0) */\n  0xffffffffffffffffffffffffffffffffffffffff\n  and\n    /* \"@openzeppelin/contracts/access/Ownable.sol\":1273:1285  initialOwner */\n  dup2\n    /* \"@openzeppelin/contracts/access/Ownable.sol\":1273:1299  initialOwner == address(0) */\n  0xffffffffffffffffffffffffffffffffffffffff\n  and\n  sub\n    /* \"@openzeppelin/contracts/access/Ownable.sol\":1269:1364  if (initialOwner == address(0)) {... */\n  tag_6\n  jumpi\n    /* \"@openzeppelin/contracts/access/Ownable.sol\":1350:1351  0 */\n  0x00\n    /* \"@openzeppelin/contracts/access/Ownable.sol\":1322:1353  OwnableInvalidOwner(address(0)) */\n  mload(0x40)\n  0x1e4fbdf700000000000000000000000000000000000000000000000000000000\n  dup2\n  mstore\n  0x04\n  add\n  tag_7\n  swap2\n  swap1\n  tag_8\n  jump\t// in\ntag_7:\n  mload(0x40)\n  dup1\n  swap2\n  sub\n  swap1\n  revert\n    /* \"@openzeppelin/contracts/access/Ownable.sol\":1269:1364  if (initialOwner == address(0)) {... */\ntag_6:\n    /* \"@openzeppelin/contracts/access/Ownable.sol\":1373:1405  _transferOwnership(initialOwner) */\n  tag_9\n    /* \"@openzeppelin/contracts/access/Ownable.sol\":1392:1404  initialOwner */\n  dup2\n    /* \"@openzeppelin/contracts/access/Ownable.sol\":1373:1391  _transferOwnership */\n  shl(0x20, tag_10)\n    /* \"@openzeppelin/contracts/access/Ownable.sol\":1373:1405  _transferOwnership(initialOwner) */\n  0x20\n  shr\n  jump\t// in\ntag_9:\n    /* \"@openzeppelin/contracts/access/Ownable.sol\":1225:1412  constructor(address initialOwner) {... */\n  pop\n    /* \"@openzeppelin/contracts/security/ReentrancyGuard.sol\":1716:1717  1 */\n  0x01\n    /* \"@openzeppelin/contracts/security/ReentrancyGuard.sol\":1821:1828  _status */\n  dup1\n    /* \"@openzeppelin/contracts/security/ReentrancyGuard.sol\":1821:1843  _status = _NOT_ENTERED */\n  dup2\n  swap1\n  sstore\n  pop\n    /* \"ZapYield.sol\":618:5178  contract ZapYieldsVaultSepolia is Ownable, ReentrancyGuard {... */\n  jump(tag_13)\n    /* \"@openzeppelin/contracts/access/Ownable.sol\":2912:3099  function _transferOwnership(address newOwner) internal virtual {... */\ntag_10:\n    /* \"@openzeppelin/contracts/access/Ownable.sol\":2985:3001  address oldOwner */\n  0x00\n    /* \"@openzeppelin/contracts/access/Ownable.sol\":3004:3010  _owner */\n  0x00\n  0x00\n  swap1\n  sload\n  swap1\n  0x0100\n  exp\n  swap1\n  div\n  0xffffffffffffffffffffffffffffffffffffffff\n  and\n    /* \"@openzeppelin/contracts/access/Ownable.sol\":2985:3010  address oldOwner = _owner */\n  swap1\n  pop\n    /* \"@openzeppelin/contracts/access/Ownable.sol\":3029:3037  newOwner */\n  dup2\n    /* \"@openzeppelin/contracts/access/Ownable.sol\":3020:3026  _owner */\n  0x00\n  0x00\n    /* \"@openzeppelin/contracts/access/Ownable.sol\":3020:3037  _owner = newOwner */\n  0x0100\n  exp\n  dup2\n  sload\n  dup2\n  0xffffffffffffffffffffffffffffffffffffffff\n  mul\n  not\n  and\n  swap1\n  dup4\n  0xffffffffffffffffffffffffffffffffffffffff\n  and\n  mul\n  or\n  swap1\n  sstore\n  pop\n    /* \"@openzeppelin/contracts/access/Ownable.sol\":3083:3091  newOwner */\n  dup2\n    /* \"@openzeppelin/contracts/access/Ownable.sol\":3052:3092  OwnershipTransferred(oldOwner, newOwner) */\n  0xffffffffffffffffffffffffffffffffffffffff\n  and\n    /* \"@openzeppelin/contracts/access/Ownable.sol\":3073:3081  oldOwner */\n  dup2\n    /* \"@openzeppelin/contracts/access/Ownable.sol\":3052:3092  OwnershipTransferred(oldOwner, newOwner) */\n  0xffffffffffffffffffffffffffffffffffffffff\n  and\n  0x8be0079c531659141344cd1fd0a4f28419497f9722a3daafe3b4186f6b6457e0\n  mload(0x40)\n  mload(0x40)\n  dup1\n  swap2\n  sub\n  swap1\n  log3\n    /* \"@openzeppelin/contracts/access/Ownable.sol\":2975:3099  {... */\n  pop\n    /* \"@openzeppelin/contracts/access/Ownable.sol\":2912:3099  function _transferOwnership(address newOwner) internal virtual {... */\n  pop\n  jump\t// out\n    /* \"#utility.yul\":7:133   */\ntag_15:\n    /* \"#utility.yul\":44:51   */\n  0x00\n    /* \"#utility.yul\":84:126   */\n  0xffffffffffffffffffffffffffffffffffffffff\n    /* \"#utility.yul\":77:82   */\n  dup3\n    /* \"#utility.yul\":73:127   */\n  and\n    /* \"#utility.yul\":62:127   */\n  swap1\n  pop\n    /* \"#utility.yul\":7:133   */\n  swap2\n  swap1\n  pop\n  jump\t// out\n    /* \"#utility.yul\":139:235   */\ntag_16:\n    /* \"#utility.yul\":176:183   */\n  0x00\n    /* \"#utility.yul\":205:229   */\n  tag_21\n    /* \"#utility.yul\":223:228   */\n  dup3\n    /* \"#utility.yul\":205:229   */\n  tag_15\n  jump\t// in\ntag_21:\n    /* \"#utility.yul\":194:229   */\n  swap1\n  pop\n    /* \"#utility.yul\":139:235   */\n  swap2\n  swap1\n  pop\n  jump\t// out\n    /* \"#utility.yul\":241:359   */\ntag_17:\n    /* \"#utility.yul\":328:352   */\n  tag_23\n    /* \"#utility.yul\":346:351   */\n  dup2\n    /* \"#utility.yul\":328:352   */\n  tag_16\n  jump\t// in\ntag_23:\n    /* \"#utility.yul\":323:326   */\n  dup3\n    /* \"#utility.yul\":316:353   */\n  mstore\n    /* \"#utility.yul\":241:359   */\n  pop\n  pop\n  jump\t// out\n    /* \"#utility.yul\":365:587   */\ntag_8:\n    /* \"#utility.yul\":458:462   */\n  0x00\n    /* \"#utility.yul\":496:498   */\n  0x20\n    /* \"#utility.yul\":485:494   */\n  dup3\n    /* \"#utility.yul\":481:499   */\n  add\n    /* \"#utility.yul\":473:499   */\n  swap1\n  pop\n    /* \"#utility.yul\":509:580   */\n  tag_25\n    /* \"#utility.yul\":577:578   */\n  0x00\n    /* \"#utility.yul\":566:575   */\n  dup4\n    /* \"#utility.yul\":562:579   */\n  add\n    /* \"#utility.yul\":553:559   */\n  dup5\n    /* \"#utility.yul\":509:580   */\n  tag_17\n  jump\t// in\ntag_25:\n    /* \"#utility.yul\":365:587   */\n  swap3\n  swap2\n  pop\n  pop\n  jump\t// out\n    /* \"ZapYield.sol\":618:5178  contract ZapYieldsVaultSepolia is Ownable, ReentrancyGuard {... */\ntag_13:\n  dataSize(sub_0)\n  dup1\n  dataOffset(sub_0)\n  0x00\n  codecopy\n  0x00\n  return\nstop\n\nsub_0: assembly {\n        /* \"ZapYield.sol\":618:5178  contract ZapYieldsVaultSepolia is Ownable, ReentrancyGuard {... */\n      mstore(0x40, 0x80)\n      callvalue\n      dup1\n      iszero\n      tag_1\n      jumpi\n      revert(0x00, 0x00)\n    tag_1:\n      pop\n      jumpi(tag_2, lt(calldatasize, 0x04))\n      shr(0xe0, calldataload(0x00))\n      dup1\n      0x715018a6\n      gt\n      tag_21\n      jumpi\n      dup1\n      0xc07b528a\n      gt\n      tag_22\n      jumpi\n      dup1\n      0xc07b528a\n      eq\n      tag_16\n      jumpi\n      dup1\n      0xd12eb0a3\n      eq\n      tag_17\n      jumpi\n      dup1\n      0xdabeaecf\n      eq\n      tag_18\n      jumpi\n      dup1\n      0xf2fde38b\n      eq\n      tag_19\n      jumpi\n      dup1\n      0xf89ec5f5\n      eq\n      tag_20\n      jumpi\n      jump(tag_2)\n    tag_22:\n      dup1\n      0x715018a6\n      eq\n      tag_12\n      jumpi\n      dup1\n      0x89a30271\n      eq\n      tag_13\n      jumpi\n      dup1\n      0x8da5cb5b\n      eq\n      tag_14\n      jumpi\n      dup1\n      0xa87430ba\n      eq\n      tag_15\n      jumpi\n      jump(tag_2)\n    tag_21:\n      dup1\n      0x23544748\n      gt\n      tag_23\n      jumpi\n      dup1\n      0x23544748\n      eq\n      tag_7\n      jumpi\n      dup1\n      0x2982de0d\n      eq\n      tag_8\n      jumpi\n      dup1\n      0x40b2b7bf\n      eq\n      tag_9\n      jumpi\n      dup1\n      0x44051053\n      eq\n      tag_10\n      jumpi\n      dup1\n      0x5ae80951\n      eq\n      tag_11\n      jumpi\n      jump(tag_2)\n    tag_23:\n      dup1\n      0xd61646\n      eq\n      tag_3\n      jumpi\n      dup1\n      0x0df23164\n      eq\n      tag_4\n      jumpi\n      dup1\n      0x1820cabb\n      eq\n      tag_5\n      jumpi\n      dup1\n      0x19abfe00\n      eq\n      tag_6\n      jumpi\n    tag_2:\n      revert(0x00, 0x00)\n        /* \"ZapYield.sol\":4948:5175  function getTimeUntilFree(address _user) external view returns (uint256) {... */\n    tag_3:\n      tag_24\n      0x04\n      dup1\n      calldatasize\n      sub\n      dup2\n      add\n      swap1\n      tag_25\n      swap2\n      swap1\n      tag_26\n      jump\t// in\n    tag_25:\n      tag_27\n      jump\t// in\n    tag_24:\n      mload(0x40)\n      tag_28\n      swap2\n      swap1\n      tag_29\n      jump\t// in\n    tag_28:\n      mload(0x40)\n      dup1\n      swap2\n      sub\n      swap1\n      return\n        /* \"ZapYield.sol\":4374:4741  function getReferralTierPercent(address _user) public view returns (uint256) {... */\n    tag_4:\n      tag_30\n      0x04\n      dup1\n      calldatasize\n      sub\n      dup2\n      add\n      swap1\n      tag_31\n      swap2\n      swap1\n      tag_26\n      jump\t// in\n    tag_31:\n      tag_32\n      jump\t// in\n    tag_30:\n      mload(0x40)\n      tag_33\n      swap2\n      swap1\n      tag_29\n      jump\t// in\n    tag_33:\n      mload(0x40)\n      dup1\n      swap2\n      sub\n      swap1\n      return\n        /* \"ZapYield.sol\":1174:1220  uint256 public constant LOCK_PERIOD = 36 hours */\n    tag_5:\n      tag_34\n      tag_35\n      jump\t// in\n    tag_34:\n      mload(0x40)\n      tag_36\n      swap2\n      swap1\n      tag_29\n      jump\t// in\n    tag_36:\n      mload(0x40)\n      dup1\n      swap2\n      sub\n      swap1\n      return\n        /* \"ZapYield.sol\":991:1044  uint256 public constant WITHDRAWAL_FEE_FLAT = 2 * 1e6 */\n    tag_6:\n      tag_37\n      tag_38\n      jump\t// in\n    tag_37:\n      mload(0x40)\n      tag_39\n      swap2\n      swap1\n      tag_29\n      jump\t// in\n    tag_39:\n      mload(0x40)\n      dup1\n      swap2\n      sub\n      swap1\n      return\n        /* \"ZapYield.sol\":2566:4235  function zapOut() external nonReentrant {... */\n    tag_7:\n      tag_40\n      tag_41\n      jump\t// in\n    tag_40:\n      stop\n        /* \"ZapYield.sol\":1052:1101  uint256 public constant PROTOCOL_FEE_PERCENT = 10 */\n    tag_8:\n      tag_42\n      tag_43\n      jump\t// in\n    tag_42:\n      mload(0x40)\n      tag_44\n      swap2\n      swap1\n      tag_29\n      jump\t// in\n    tag_44:\n      mload(0x40)\n      dup1\n      swap2\n      sub\n      swap1\n      return\n        /* \"ZapYield.sol\":1113:1159  uint256 public constant EARLY_WITHDRAW_FEE = 1 */\n    tag_9:\n      tag_45\n      tag_46\n      jump\t// in\n    tag_45:\n      mload(0x40)\n      tag_47\n      swap2\n      swap1\n      tag_29\n      jump\t// in\n    tag_47:\n      mload(0x40)\n      dup1\n      swap2\n      sub\n      swap1\n      return\n        /* \"ZapYield.sol\":4243:4366  function getDownlines(address _user) external view returns (address[] memory) {... */\n    tag_10:\n      tag_48\n      0x04\n      dup1\n      calldatasize\n      sub\n      dup2\n      add\n      swap1\n      tag_49\n      swap2\n      swap1\n      tag_26\n      jump\t// in\n    tag_49:\n      tag_50\n      jump\t// in\n    tag_48:\n      mload(0x40)\n      tag_51\n      swap2\n      swap1\n      tag_52\n      jump\t// in\n    tag_51:\n      mload(0x40)\n      dup1\n      swap2\n      sub\n      swap1\n      return\n        /* \"ZapYield.sol\":4749:4940  function getAccountValue(address _user) external view returns (uint256) {... */\n    tag_11:\n      tag_53\n      0x04\n      dup1\n      calldatasize\n      sub\n      dup2\n      add\n      swap1\n      tag_54\n      swap2\n      swap1\n      tag_26\n      jump\t// in\n    tag_54:\n      tag_55\n      jump\t// in\n    tag_53:\n      mload(0x40)\n      tag_56\n      swap2\n      swap1\n      tag_29\n      jump\t// in\n    tag_56:\n      mload(0x40)\n      dup1\n      swap2\n      sub\n      swap1\n      return\n        /* \"@openzeppelin/contracts/access/Ownable.sol\":2293:2394  function renounceOwnership() public virtual onlyOwner {... */\n    tag_12:\n      tag_57\n      tag_58\n      jump\t// in\n    tag_57:\n      stop\n        /* \"ZapYield.sol\":810:890  IERC20 public constant USDC = IERC20(0x036CbD53842c5426634e7929541eC2318f3dCF7e) */\n    tag_13:\n      tag_59\n      tag_60\n      jump\t// in\n    tag_59:\n      mload(0x40)\n      tag_61\n      swap2\n      swap1\n      tag_62\n      jump\t// in\n    tag_61:\n      mload(0x40)\n      dup1\n      swap2\n      sub\n      swap1\n      return\n        /* \"@openzeppelin/contracts/access/Ownable.sol\":1638:1723  function owner() public view virtual returns (address) {... */\n    tag_14:\n      tag_63\n      tag_64\n      jump\t// in\n    tag_63:\n      mload(0x40)\n      tag_65\n      swap2\n      swap1\n      tag_66\n      jump\t// in\n    tag_65:\n      mload(0x40)\n      dup1\n      swap2\n      sub\n      swap1\n      return\n        /* \"ZapYield.sol\":1419:1460  mapping(address => UserInfo) public users */\n    tag_15:\n      tag_67\n      0x04\n      dup1\n      calldatasize\n      sub\n      dup2\n      add\n      swap1\n      tag_68\n      swap2\n      swap1\n      tag_26\n      jump\t// in\n    tag_68:\n      tag_69\n      jump\t// in\n    tag_67:\n      mload(0x40)\n      tag_70\n      swap6\n      swap5\n      swap4\n      swap3\n      swap2\n      swap1\n      tag_71\n      jump\t// in\n    tag_70:\n      mload(0x40)\n      dup1\n      swap2\n      sub\n      swap1\n      return\n        /* \"ZapYield.sol\":1467:1518  mapping(address => uint256) public referralEarnings */\n    tag_16:\n      tag_72\n      0x04\n      dup1\n      calldatasize\n      sub\n      dup2\n      add\n      swap1\n      tag_73\n      swap2\n      swap1\n      tag_26\n      jump\t// in\n    tag_73:\n      tag_74\n      jump\t// in\n    tag_72:\n      mload(0x40)\n      tag_75\n      swap2\n      swap1\n      tag_29\n      jump\t// in\n    tag_75:\n      mload(0x40)\n      dup1\n      swap2\n      sub\n      swap1\n      return\n        /* \"ZapYield.sol\":1525:1574  mapping(address => address[]) public referralList */\n    tag_17:\n      tag_76\n      0x04\n      dup1\n      calldatasize\n      sub\n      dup2\n      add\n      swap1\n      tag_77\n      swap2\n      swap1\n      tag_78\n      jump\t// in\n    tag_77:\n      tag_79\n      jump\t// in\n    tag_76:\n      mload(0x40)\n      tag_80\n      swap2\n      swap1\n      tag_66\n      jump\t// in\n    tag_80:\n      mload(0x40)\n      dup1\n      swap2\n      sub\n      swap1\n      return\n        /* \"ZapYield.sol\":1628:2558  function zapIn(uint256 _amount, address _referrer) external nonReentrant {... */\n    tag_18:\n      tag_81\n      0x04\n      dup1\n      calldatasize\n      sub\n      dup2\n      add\n      swap1\n      tag_82\n      swap2\n      swap1\n      tag_83\n      jump\t// in\n    tag_82:\n      tag_84\n      jump\t// in\n    tag_81:\n      stop\n        /* \"@openzeppelin/contracts/access/Ownable.sol\":2543:2758  function transferOwnership(address newOwner) public virtual onlyOwner {... */\n    tag_19:\n      tag_85\n      0x04\n      dup1\n      calldatasize\n      sub\n      dup2\n      add\n      swap1\n      tag_86\n      swap2\n      swap1\n      tag_26\n      jump\t// in\n    tag_86:\n      tag_87\n      jump\t// in\n    tag_85:\n      stop\n        /* \"ZapYield.sol\":898:981  IMToken public constant mUSDC = IMToken(0x403d64b3f6B4A2b095754877395ab3255476d081) */\n    tag_20:\n      tag_88\n      tag_89\n      jump\t// in\n    tag_88:\n      mload(0x40)\n      tag_90\n      swap2\n      swap1\n      tag_91\n      jump\t// in\n    tag_90:\n      mload(0x40)\n      dup1\n      swap2\n      sub\n      swap1\n      return\n        /* \"ZapYield.sol\":4948:5175  function getTimeUntilFree(address _user) external view returns (uint256) {... */\n    tag_27:\n        /* \"ZapYield.sol\":5012:5019  uint256 */\n      0x00\n        /* \"ZapYield.sol\":5032:5046  uint256 unlock */\n      0x00\n        /* \"ZapYield.sol\":1212:1220  36 hours */\n      0x01fa40\n        /* \"ZapYield.sol\":5049:5054  users */\n      0x02\n        /* \"ZapYield.sol\":5049:5061  users[_user] */\n      0x00\n        /* \"ZapYield.sol\":5055:5060  _user */\n      dup6\n        /* \"ZapYield.sol\":5049:5061  users[_user] */\n      0xffffffffffffffffffffffffffffffffffffffff\n      and\n      0xffffffffffffffffffffffffffffffffffffffff\n      and\n      dup2\n      mstore\n      0x20\n      add\n      swap1\n      dup2\n      mstore\n      0x20\n      add\n      0x00\n      keccak256\n        /* \"ZapYield.sol\":5049:5077  users[_user].lastDepositTime */\n      0x04\n      add\n      sload\n        /* \"ZapYield.sol\":5049:5091  users[_user].lastDepositTime + LOCK_PERIOD */\n      tag_93\n      swap2\n      swap1\n      tag_94\n      jump\t// in\n    tag_93:\n        /* \"ZapYield.sol\":5032:5091  uint256 unlock = users[_user].lastDepositTime + LOCK_PERIOD */\n      swap1\n      pop\n        /* \"ZapYield.sol\":5129:5135  unlock */\n      dup1\n        /* \"ZapYield.sol\":5110:5125  block.timestamp */\n      timestamp\n        /* \"ZapYield.sol\":5110:5135  block.timestamp >= unlock */\n      lt\n      iszero\n        /* \"ZapYield.sol\":5109:5167  (block.timestamp >= unlock) ? 0 : unlock - block.timestamp */\n      tag_95\n      jumpi\n        /* \"ZapYield.sol\":5152:5167  block.timestamp */\n      timestamp\n        /* \"ZapYield.sol\":5143:5149  unlock */\n      dup2\n        /* \"ZapYield.sol\":5143:5167  unlock - block.timestamp */\n      tag_96\n      swap2\n      swap1\n      tag_97\n      jump\t// in\n    tag_96:\n        /* \"ZapYield.sol\":5109:5167  (block.timestamp >= unlock) ? 0 : unlock - block.timestamp */\n      jump(tag_98)\n    tag_95:\n        /* \"ZapYield.sol\":5139:5140  0 */\n      0x00\n        /* \"ZapYield.sol\":5109:5167  (block.timestamp >= unlock) ? 0 : unlock - block.timestamp */\n    tag_98:\n        /* \"ZapYield.sol\":5102:5167  return (block.timestamp >= unlock) ? 0 : unlock - block.timestamp */\n      swap2\n      pop\n      pop\n        /* \"ZapYield.sol\":4948:5175  function getTimeUntilFree(address _user) external view returns (uint256) {... */\n      swap2\n      swap1\n      pop\n      jump\t// out\n        /* \"ZapYield.sol\":4374:4741  function getReferralTierPercent(address _user) public view returns (uint256) {... */\n    tag_32:\n        /* \"ZapYield.sol\":4442:4449  uint256 */\n      0x00\n        /* \"ZapYield.sol\":4462:4473  uint256 bal */\n      0x00\n        /* \"ZapYield.sol\":4476:4481  users */\n      0x02\n        /* \"ZapYield.sol\":4476:4488  users[_user] */\n      0x00\n        /* \"ZapYield.sol\":4482:4487  _user */\n      dup5\n        /* \"ZapYield.sol\":4476:4488  users[_user] */\n      0xffffffffffffffffffffffffffffffffffffffff\n      and\n      0xffffffffffffffffffffffffffffffffffffffff\n      and\n      dup2\n      mstore\n      0x20\n      add\n      swap1\n      dup2\n      mstore\n      0x20\n      add\n      0x00\n      keccak256\n        /* \"ZapYield.sol\":4476:4498  users[_user].principal */\n      0x00\n      add\n      sload\n        /* \"ZapYield.sol\":4462:4498  uint256 bal = users[_user].principal */\n      swap1\n      pop\n        /* \"ZapYield.sol\":4520:4530  5000 * 1e6 */\n      0x012a05f200\n        /* \"ZapYield.sol\":4513:4516  bal */\n      dup2\n        /* \"ZapYield.sol\":4513:4530  bal >= 5000 * 1e6 */\n      lt\n        /* \"ZapYield.sol\":4509:4541  if (bal >= 5000 * 1e6) return 80 */\n      tag_100\n      jumpi\n        /* \"ZapYield.sol\":4539:4541  80 */\n      0x50\n        /* \"ZapYield.sol\":4532:4541  return 80 */\n      swap2\n      pop\n      pop\n      jump(tag_99)\n        /* \"ZapYield.sol\":4509:4541  if (bal >= 5000 * 1e6) return 80 */\n    tag_100:\n        /* \"ZapYield.sol\":4564:4574  1000 * 1e6 */\n      0x3b9aca00\n        /* \"ZapYield.sol\":4557:4560  bal */\n      dup2\n        /* \"ZapYield.sol\":4557:4574  bal >= 1000 * 1e6 */\n      lt\n        /* \"ZapYield.sol\":4553:4585  if (bal >= 1000 * 1e6) return 50 */\n      tag_101\n      jumpi\n        /* \"ZapYield.sol\":4583:4585  50 */\n      0x32\n        /* \"ZapYield.sol\":4576:4585  return 50 */\n      swap2\n      pop\n      pop\n      jump(tag_99)\n        /* \"ZapYield.sol\":4553:4585  if (bal >= 1000 * 1e6) return 50 */\n    tag_101:\n        /* \"ZapYield.sol\":4608:4617  200 * 1e6 */\n      0x0bebc200\n        /* \"ZapYield.sol\":4601:4604  bal */\n      dup2\n        /* \"ZapYield.sol\":4601:4617  bal >= 200 * 1e6 */\n      lt\n        /* \"ZapYield.sol\":4597:4628  if (bal >= 200 * 1e6) return 30 */\n      tag_102\n      jumpi\n        /* \"ZapYield.sol\":4626:4628  30 */\n      0x1e\n        /* \"ZapYield.sol\":4619:4628  return 30 */\n      swap2\n      pop\n      pop\n      jump(tag_99)\n        /* \"ZapYield.sol\":4597:4628  if (bal >= 200 * 1e6) return 30 */\n    tag_102:\n        /* \"ZapYield.sol\":4651:4660  100 * 1e6 */\n      0x05f5e100\n        /* \"ZapYield.sol\":4644:4647  bal */\n      dup2\n        /* \"ZapYield.sol\":4644:4660  bal >= 100 * 1e6 */\n      lt\n        /* \"ZapYield.sol\":4640:4671  if (bal >= 100 * 1e6) return 20 */\n      tag_103\n      jumpi\n        /* \"ZapYield.sol\":4669:4671  20 */\n      0x14\n        /* \"ZapYield.sol\":4662:4671  return 20 */\n      swap2\n      pop\n      pop\n      jump(tag_99)\n        /* \"ZapYield.sol\":4640:4671  if (bal >= 100 * 1e6) return 20 */\n    tag_103:\n        /* \"ZapYield.sol\":4694:4702  50 * 1e6 */\n      0x02faf080\n        /* \"ZapYield.sol\":4687:4690  bal */\n      dup2\n        /* \"ZapYield.sol\":4687:4702  bal >= 50 * 1e6 */\n      lt\n        /* \"ZapYield.sol\":4683:4713  if (bal >= 50 * 1e6) return 10 */\n      tag_104\n      jumpi\n        /* \"ZapYield.sol\":4711:4713  10 */\n      0x0a\n        /* \"ZapYield.sol\":4704:4713  return 10 */\n      swap2\n      pop\n      pop\n      jump(tag_99)\n        /* \"ZapYield.sol\":4683:4713  if (bal >= 50 * 1e6) return 10 */\n    tag_104:\n        /* \"ZapYield.sol\":4732:4733  0 */\n      0x00\n        /* \"ZapYield.sol\":4725:4733  return 0 */\n      swap2\n      pop\n      pop\n        /* \"ZapYield.sol\":4374:4741  function getReferralTierPercent(address _user) public view returns (uint256) {... */\n    tag_99:\n      swap2\n      swap1\n      pop\n      jump\t// out\n        /* \"ZapYield.sol\":1174:1220  uint256 public constant LOCK_PERIOD = 36 hours */\n    tag_35:\n        /* \"ZapYield.sol\":1212:1220  36 hours */\n      0x01fa40\n        /* \"ZapYield.sol\":1174:1220  uint256 public constant LOCK_PERIOD = 36 hours */\n      dup2\n      jump\t// out\n        /* \"ZapYield.sol\":991:1044  uint256 public constant WITHDRAWAL_FEE_FLAT = 2 * 1e6 */\n    tag_38:\n        /* \"ZapYield.sol\":1037:1044  2 * 1e6 */\n      0x1e8480\n        /* \"ZapYield.sol\":991:1044  uint256 public constant WITHDRAWAL_FEE_FLAT = 2 * 1e6 */\n      dup2\n      jump\t// out\n        /* \"ZapYield.sol\":2566:4235  function zapOut() external nonReentrant {... */\n    tag_41:\n        /* \"@openzeppelin/contracts/security/ReentrancyGuard.sol\":2261:2282  _nonReentrantBefore() */\n      tag_106\n        /* \"@openzeppelin/contracts/security/ReentrancyGuard.sol\":2261:2280  _nonReentrantBefore */\n      tag_107\n        /* \"@openzeppelin/contracts/security/ReentrancyGuard.sol\":2261:2282  _nonReentrantBefore() */\n      jump\t// in\n    tag_106:\n        /* \"ZapYield.sol\":2617:2638  UserInfo storage user */\n      0x00\n        /* \"ZapYield.sol\":2641:2646  users */\n      0x02\n        /* \"ZapYield.sol\":2641:2658  users[msg.sender] */\n      0x00\n        /* \"ZapYield.sol\":2647:2657  msg.sender */\n      caller\n        /* \"ZapYield.sol\":2641:2658  users[msg.sender] */\n      0xffffffffffffffffffffffffffffffffffffffff\n      and\n      0xffffffffffffffffffffffffffffffffffffffff\n      and\n      dup2\n      mstore\n      0x20\n      add\n      swap1\n      dup2\n      mstore\n      0x20\n      add\n      0x00\n      keccak256\n        /* \"ZapYield.sol\":2617:2658  UserInfo storage user = users[msg.sender] */\n      swap1\n      pop\n        /* \"ZapYield.sol\":2697:2698  0 */\n      0x00\n        /* \"ZapYield.sol\":2677:2681  user */\n      dup2\n        /* \"ZapYield.sol\":2677:2694  user.shareBalance */\n      0x01\n      add\n      sload\n        /* \"ZapYield.sol\":2677:2698  user.shareBalance > 0 */\n      gt\n        /* \"ZapYield.sol\":2669:2716  require(user.shareBalance > 0, \"Empty balance\") */\n      tag_109\n      jumpi\n      mload(0x40)\n      0x08c379a000000000000000000000000000000000000000000000000000000000\n      dup2\n      mstore\n      0x04\n      add\n      tag_110\n      swap1\n      tag_111\n      jump\t// in\n    tag_110:\n      mload(0x40)\n      dup1\n      swap2\n      sub\n      swap1\n      revert\n    tag_109:\n        /* \"ZapYield.sol\":2729:2744  uint256 preUSDC */\n      0x00\n        /* \"ZapYield.sol\":847:889  0x036CbD53842c5426634e7929541eC2318f3dCF7e */\n      0x036cbd53842c5426634e7929541ec2318f3dcf7e\n        /* \"ZapYield.sol\":2747:2761  USDC.balanceOf */\n      0xffffffffffffffffffffffffffffffffffffffff\n      and\n      0x70a08231\n        /* \"ZapYield.sol\":2770:2774  this */\n      address\n        /* \"ZapYield.sol\":2747:2776  USDC.balanceOf(address(this)) */\n      mload(0x40)\n      dup3\n      0xffffffff\n      and\n      0xe0\n      shl\n      dup2\n      mstore\n      0x04\n      add\n      tag_112\n      swap2\n      swap1\n      tag_66\n      jump\t// in\n    tag_112:\n      0x20\n      mload(0x40)\n      dup1\n      dup4\n      sub\n      dup2\n      dup7\n      gas\n      staticcall\n      iszero\n      dup1\n      iszero\n      tag_114\n      jumpi\n      returndatacopy(0x00, 0x00, returndatasize)\n      revert(0x00, returndatasize)\n    tag_114:\n      pop\n      pop\n      pop\n      pop\n      mload(0x40)\n      returndatasize\n      not(0x1f)\n      0x1f\n      dup3\n      add\n      and\n      dup3\n      add\n      dup1\n      0x40\n      mstore\n      pop\n      dup2\n      add\n      swap1\n      tag_115\n      swap2\n      swap1\n      tag_116\n      jump\t// in\n    tag_115:\n        /* \"ZapYield.sol\":2729:2776  uint256 preUSDC = USDC.balanceOf(address(this)) */\n      swap1\n      pop\n        /* \"ZapYield.sol\":2830:2831  0 */\n      0x00\n        /* \"ZapYield.sol\":938:980  0x403d64b3f6B4A2b095754877395ab3255476d081 */\n      0x403d64b3f6b4a2b095754877395ab3255476d081\n        /* \"ZapYield.sol\":2795:2807  mUSDC.redeem */\n      0xffffffffffffffffffffffffffffffffffffffff\n      and\n      0xdb006a75\n        /* \"ZapYield.sol\":2808:2812  user */\n      dup5\n        /* \"ZapYield.sol\":2808:2825  user.shareBalance */\n      0x01\n      add\n      sload\n        /* \"ZapYield.sol\":2795:2826  mUSDC.redeem(user.shareBalance) */\n      mload(0x40)\n      dup3\n      0xffffffff\n      and\n      0xe0\n      shl\n      dup2\n      mstore\n      0x04\n      add\n      tag_117\n      swap2\n      swap1\n      tag_29\n      jump\t// in\n    tag_117:\n      0x20\n      mload(0x40)\n      dup1\n      dup4\n      sub\n      dup2\n      0x00\n      dup8\n      gas\n      call\n      iszero\n      dup1\n      iszero\n      tag_119\n      jumpi\n      returndatacopy(0x00, 0x00, returndatasize)\n      revert(0x00, returndatasize)\n    tag_119:\n      pop\n      pop\n      pop\n      pop\n      mload(0x40)\n      returndatasize\n      not(0x1f)\n      0x1f\n      dup3\n      add\n      and\n      dup3\n      add\n      dup1\n      0x40\n      mstore\n      pop\n      dup2\n      add\n      swap1\n      tag_120\n      swap2\n      swap1\n      tag_116\n      jump\t// in\n    tag_120:\n        /* \"ZapYield.sol\":2795:2831  mUSDC.redeem(user.shareBalance) == 0 */\n      eq\n        /* \"ZapYield.sol\":2787:2849  require(mUSDC.redeem(user.shareBalance) == 0, \"Redeem failed\") */\n      tag_121\n      jumpi\n      mload(0x40)\n      0x08c379a000000000000000000000000000000000000000000000000000000000\n      dup2\n      mstore\n      0x04\n      add\n      tag_122\n      swap1\n      tag_123\n      jump\t// in\n    tag_122:\n      mload(0x40)\n      dup1\n      swap2\n      sub\n      swap1\n      revert\n    tag_121:\n        /* \"ZapYield.sol\":2860:2879  uint256 grossAmount */\n      0x00\n        /* \"ZapYield.sol\":2914:2921  preUSDC */\n      dup2\n        /* \"ZapYield.sol\":847:889  0x036CbD53842c5426634e7929541eC2318f3dCF7e */\n      0x036cbd53842c5426634e7929541ec2318f3dcf7e\n        /* \"ZapYield.sol\":2882:2896  USDC.balanceOf */\n      0xffffffffffffffffffffffffffffffffffffffff\n      and\n      0x70a08231\n        /* \"ZapYield.sol\":2905:2909  this */\n      address\n        /* \"ZapYield.sol\":2882:2911  USDC.balanceOf(address(this)) */\n      mload(0x40)\n      dup3\n      0xffffffff\n      and\n      0xe0\n      shl\n      dup2\n      mstore\n      0x04\n      add\n      tag_124\n      swap2\n      swap1\n      tag_66\n      jump\t// in\n    tag_124:\n      0x20\n      mload(0x40)\n      dup1\n      dup4\n      sub\n      dup2\n      dup7\n      gas\n      staticcall\n      iszero\n      dup1\n      iszero\n      tag_126\n      jumpi\n      returndatacopy(0x00, 0x00, returndatasize)\n      revert(0x00, returndatasize)\n    tag_126:\n      pop\n      pop\n      pop\n      pop\n      mload(0x40)\n      returndatasize\n      not(0x1f)\n      0x1f\n      dup3\n      add\n      and\n      dup3\n      add\n      dup1\n      0x40\n      mstore\n      pop\n      dup2\n      add\n      swap1\n      tag_127\n      swap2\n      swap1\n      tag_116\n      jump\t// in\n    tag_127:\n        /* \"ZapYield.sol\":2882:2921  USDC.balanceOf(address(this)) - preUSDC */\n      tag_128\n      swap2\n      swap1\n      tag_97\n      jump\t// in\n    tag_128:\n        /* \"ZapYield.sol\":2860:2921  uint256 grossAmount = USDC.balanceOf(address(this)) - preUSDC */\n      swap1\n      pop\n        /* \"ZapYield.sol\":2934:2952  uint256 userPayout */\n      0x00\n        /* \"ZapYield.sol\":2963:2979  uint256 totalFee */\n      0x00\n        /* \"ZapYield.sol\":1212:1220  36 hours */\n      0x01fa40\n        /* \"ZapYield.sol\":3014:3018  user */\n      dup6\n        /* \"ZapYield.sol\":3014:3034  user.lastDepositTime */\n      0x04\n      add\n      sload\n        /* \"ZapYield.sol\":3014:3048  user.lastDepositTime + LOCK_PERIOD */\n      tag_129\n      swap2\n      swap1\n      tag_94\n      jump\t// in\n    tag_129:\n        /* \"ZapYield.sol\":2996:3011  block.timestamp */\n      timestamp\n        /* \"ZapYield.sol\":2996:3048  block.timestamp < user.lastDepositTime + LOCK_PERIOD */\n      lt\n        /* \"ZapYield.sol\":2992:4087  if (block.timestamp < user.lastDepositTime + LOCK_PERIOD) {... */\n      iszero\n      tag_130\n      jumpi\n        /* \"ZapYield.sol\":3113:3116  100 */\n      0x64\n        /* \"ZapYield.sol\":1158:1159  1 */\n      0x01\n        /* \"ZapYield.sol\":3077:3088  grossAmount */\n      dup5\n        /* \"ZapYield.sol\":3077:3109  grossAmount * EARLY_WITHDRAW_FEE */\n      tag_131\n      swap2\n      swap1\n      tag_132\n      jump\t// in\n    tag_131:\n        /* \"ZapYield.sol\":3076:3116  (grossAmount * EARLY_WITHDRAW_FEE) / 100 */\n      tag_133\n      swap2\n      swap1\n      tag_134\n      jump\t// in\n    tag_133:\n        /* \"ZapYield.sol\":3065:3116  totalFee = (grossAmount * EARLY_WITHDRAW_FEE) / 100 */\n      swap1\n      pop\n        /* \"ZapYield.sol\":3158:3166  totalFee */\n      dup1\n        /* \"ZapYield.sol\":3144:3155  grossAmount */\n      dup4\n        /* \"ZapYield.sol\":3144:3166  grossAmount - totalFee */\n      tag_135\n      swap2\n      swap1\n      tag_97\n      jump\t// in\n    tag_135:\n        /* \"ZapYield.sol\":3131:3166  userPayout = grossAmount - totalFee */\n      swap2\n      pop\n        /* \"ZapYield.sol\":3181:3217  USDC.safeTransfer(owner(), totalFee) */\n      tag_136\n        /* \"ZapYield.sol\":3199:3206  owner() */\n      tag_137\n        /* \"ZapYield.sol\":3199:3204  owner */\n      tag_64\n        /* \"ZapYield.sol\":3199:3206  owner() */\n      jump\t// in\n    tag_137:\n        /* \"ZapYield.sol\":3208:3216  totalFee */\n      dup3\n        /* \"ZapYield.sol\":847:889  0x036CbD53842c5426634e7929541eC2318f3dCF7e */\n      0x036cbd53842c5426634e7929541ec2318f3dcf7e\n        /* \"ZapYield.sol\":3181:3198  USDC.safeTransfer */\n      0xffffffffffffffffffffffffffffffffffffffff\n      and\n      tag_138\n      swap1\n        /* \"ZapYield.sol\":3181:3217  USDC.safeTransfer(owner(), totalFee) */\n      swap3\n      swap2\n      swap1\n      0xffffffff\n      and\n      jump\t// in\n    tag_136:\n        /* \"ZapYield.sol\":2992:4087  if (block.timestamp < user.lastDepositTime + LOCK_PERIOD) {... */\n      jump(tag_139)\n    tag_130:\n        /* \"ZapYield.sol\":3276:3291  uint256 flatFee */\n      0x00\n        /* \"ZapYield.sol\":1037:1044  2 * 1e6 */\n      0x1e8480\n        /* \"ZapYield.sol\":3295:3306  grossAmount */\n      dup5\n        /* \"ZapYield.sol\":3295:3329  grossAmount >= WITHDRAWAL_FEE_FLAT */\n      lt\n      iszero\n        /* \"ZapYield.sol\":3294:3366  (grossAmount >= WITHDRAWAL_FEE_FLAT) ? WITHDRAWAL_FEE_FLAT : grossAmount */\n      tag_140\n      jumpi\n        /* \"ZapYield.sol\":3355:3366  grossAmount */\n      dup4\n        /* \"ZapYield.sol\":3294:3366  (grossAmount >= WITHDRAWAL_FEE_FLAT) ? WITHDRAWAL_FEE_FLAT : grossAmount */\n      jump(tag_141)\n    tag_140:\n        /* \"ZapYield.sol\":1037:1044  2 * 1e6 */\n      0x1e8480\n        /* \"ZapYield.sol\":3294:3366  (grossAmount >= WITHDRAWAL_FEE_FLAT) ? WITHDRAWAL_FEE_FLAT : grossAmount */\n    tag_141:\n        /* \"ZapYield.sol\":3276:3366  uint256 flatFee = (grossAmount >= WITHDRAWAL_FEE_FLAT) ? WITHDRAWAL_FEE_FLAT : grossAmount */\n      swap1\n      pop\n        /* \"ZapYield.sol\":3381:3397  uint256 interest */\n      0x00\n        /* \"ZapYield.sol\":3425:3429  user */\n      dup7\n        /* \"ZapYield.sol\":3425:3439  user.principal */\n      0x00\n      add\n      sload\n        /* \"ZapYield.sol\":3415:3422  flatFee */\n      dup3\n        /* \"ZapYield.sol\":3401:3412  grossAmount */\n      dup7\n        /* \"ZapYield.sol\":3401:3422  grossAmount - flatFee */\n      tag_142\n      swap2\n      swap1\n      tag_97\n      jump\t// in\n    tag_142:\n        /* \"ZapYield.sol\":3401:3439  grossAmount - flatFee > user.principal */\n      gt\n        /* \"ZapYield.sol\":3400:3487  (grossAmount - flatFee > user.principal) ? (grossAmount - flatFee) - user.principal : 0 */\n      tag_143\n      jumpi\n        /* \"ZapYield.sol\":3486:3487  0 */\n      0x00\n        /* \"ZapYield.sol\":3400:3487  (grossAmount - flatFee > user.principal) ? (grossAmount - flatFee) - user.principal : 0 */\n      jump(tag_144)\n    tag_143:\n        /* \"ZapYield.sol\":3469:3473  user */\n      dup7\n        /* \"ZapYield.sol\":3469:3483  user.principal */\n      0x00\n      add\n      sload\n        /* \"ZapYield.sol\":3458:3465  flatFee */\n      dup3\n        /* \"ZapYield.sol\":3444:3455  grossAmount */\n      dup7\n        /* \"ZapYield.sol\":3444:3465  grossAmount - flatFee */\n      tag_145\n      swap2\n      swap1\n      tag_97\n      jump\t// in\n    tag_145:\n        /* \"ZapYield.sol\":3443:3483  (grossAmount - flatFee) - user.principal */\n      tag_146\n      swap2\n      swap1\n      tag_97\n      jump\t// in\n    tag_146:\n        /* \"ZapYield.sol\":3400:3487  (grossAmount - flatFee > user.principal) ? (grossAmount - flatFee) - user.principal : 0 */\n    tag_144:\n        /* \"ZapYield.sol\":3381:3487  uint256 interest = (grossAmount - flatFee > user.principal) ? (grossAmount - flatFee) - user.principal : 0 */\n      swap1\n      pop\n        /* \"ZapYield.sol\":3502:3516  uint256 devFee */\n      0x00\n        /* \"ZapYield.sol\":3555:3558  100 */\n      0x64\n        /* \"ZapYield.sol\":1099:1101  10 */\n      0x0a\n        /* \"ZapYield.sol\":3520:3528  interest */\n      dup4\n        /* \"ZapYield.sol\":3520:3551  interest * PROTOCOL_FEE_PERCENT */\n      tag_147\n      swap2\n      swap1\n      tag_132\n      jump\t// in\n    tag_147:\n        /* \"ZapYield.sol\":3519:3558  (interest * PROTOCOL_FEE_PERCENT) / 100 */\n      tag_148\n      swap2\n      swap1\n      tag_134\n      jump\t// in\n    tag_148:\n        /* \"ZapYield.sol\":3502:3558  uint256 devFee = (interest * PROTOCOL_FEE_PERCENT) / 100 */\n      swap1\n      pop\n        /* \"ZapYield.sol\":3590:3591  0 */\n      0x00\n        /* \"ZapYield.sol\":3579:3587  interest */\n      dup3\n        /* \"ZapYield.sol\":3579:3591  interest > 0 */\n      gt\n        /* \"ZapYield.sol\":3579:3622  interest > 0 && user.referrer != address(0) */\n      dup1\n      iszero\n      tag_149\n      jumpi\n      pop\n        /* \"ZapYield.sol\":3620:3621  0 */\n      0x00\n        /* \"ZapYield.sol\":3595:3622  user.referrer != address(0) */\n      0xffffffffffffffffffffffffffffffffffffffff\n      and\n        /* \"ZapYield.sol\":3595:3599  user */\n      dup9\n        /* \"ZapYield.sol\":3595:3608  user.referrer */\n      0x02\n      add\n      0x00\n      swap1\n      sload\n      swap1\n      0x0100\n      exp\n      swap1\n      div\n      0xffffffffffffffffffffffffffffffffffffffff\n      and\n        /* \"ZapYield.sol\":3595:3622  user.referrer != address(0) */\n      0xffffffffffffffffffffffffffffffffffffffff\n      and\n      eq\n      iszero\n        /* \"ZapYield.sol\":3579:3622  interest > 0 && user.referrer != address(0) */\n    tag_149:\n        /* \"ZapYield.sol\":3575:3957  if (interest > 0 && user.referrer != address(0)) {... */\n      iszero\n      tag_150\n      jumpi\n        /* \"ZapYield.sol\":3643:3659  uint256 refShare */\n      0x00\n        /* \"ZapYield.sol\":3715:3718  100 */\n      0x64\n        /* \"ZapYield.sol\":3674:3711  getReferralTierPercent(user.referrer) */\n      tag_151\n        /* \"ZapYield.sol\":3697:3701  user */\n      dup11\n        /* \"ZapYield.sol\":3697:3710  user.referrer */\n      0x02\n      add\n      0x00\n      swap1\n      sload\n      swap1\n      0x0100\n      exp\n      swap1\n      div\n      0xffffffffffffffffffffffffffffffffffffffff\n      and\n        /* \"ZapYield.sol\":3674:3696  getReferralTierPercent */\n      tag_32\n        /* \"ZapYield.sol\":3674:3711  getReferralTierPercent(user.referrer) */\n      jump\t// in\n    tag_151:\n        /* \"ZapYield.sol\":3663:3671  interest */\n      dup5\n        /* \"ZapYield.sol\":3663:3711  interest * getReferralTierPercent(user.referrer) */\n      tag_152\n      swap2\n      swap1\n      tag_132\n      jump\t// in\n    tag_152:\n        /* \"ZapYield.sol\":3662:3718  (interest * getReferralTierPercent(user.referrer)) / 100 */\n      tag_153\n      swap2\n      swap1\n      tag_134\n      jump\t// in\n    tag_153:\n        /* \"ZapYield.sol\":3643:3718  uint256 refShare = (interest * getReferralTierPercent(user.referrer)) / 100 */\n      swap1\n      pop\n        /* \"ZapYield.sol\":3772:3780  refShare */\n      dup1\n        /* \"ZapYield.sol\":3737:3753  referralEarnings */\n      0x03\n        /* \"ZapYield.sol\":3737:3768  referralEarnings[user.referrer] */\n      0x00\n        /* \"ZapYield.sol\":3754:3758  user */\n      dup12\n        /* \"ZapYield.sol\":3754:3767  user.referrer */\n      0x02\n      add\n      0x00\n      swap1\n      sload\n      swap1\n      0x0100\n      exp\n      swap1\n      div\n      0xffffffffffffffffffffffffffffffffffffffff\n      and\n        /* \"ZapYield.sol\":3737:3768  referralEarnings[user.referrer] */\n      0xffffffffffffffffffffffffffffffffffffffff\n      and\n      0xffffffffffffffffffffffffffffffffffffffff\n      and\n      dup2\n      mstore\n      0x20\n      add\n      swap1\n      dup2\n      mstore\n      0x20\n      add\n      0x00\n      keccak256\n      0x00\n        /* \"ZapYield.sol\":3737:3780  referralEarnings[user.referrer] += refShare */\n      dup3\n      dup3\n      sload\n      tag_154\n      swap2\n      swap1\n      tag_94\n      jump\t// in\n    tag_154:\n      swap3\n      pop\n      pop\n      dup2\n      swap1\n      sstore\n      pop\n        /* \"ZapYield.sol\":3847:3855  refShare */\n      dup1\n        /* \"ZapYield.sol\":3838:3844  devFee */\n      dup3\n        /* \"ZapYield.sol\":3827:3834  flatFee */\n      dup6\n        /* \"ZapYield.sol\":3813:3824  grossAmount */\n      dup10\n        /* \"ZapYield.sol\":3813:3834  grossAmount - flatFee */\n      tag_155\n      swap2\n      swap1\n      tag_97\n      jump\t// in\n    tag_155:\n        /* \"ZapYield.sol\":3812:3844  (grossAmount - flatFee) - devFee */\n      tag_156\n      swap2\n      swap1\n      tag_97\n      jump\t// in\n    tag_156:\n        /* \"ZapYield.sol\":3812:3855  (grossAmount - flatFee) - devFee - refShare */\n      tag_157\n      swap2\n      swap1\n      tag_97\n      jump\t// in\n    tag_157:\n        /* \"ZapYield.sol\":3799:3855  userPayout = (grossAmount - flatFee) - devFee - refShare */\n      swap6\n      pop\n        /* \"ZapYield.sol\":3624:3871  {... */\n      pop\n        /* \"ZapYield.sol\":3575:3957  if (interest > 0 && user.referrer != address(0)) {... */\n      jump(tag_158)\n    tag_150:\n        /* \"ZapYield.sol\":3935:3941  devFee */\n      dup1\n        /* \"ZapYield.sol\":3924:3931  flatFee */\n      dup4\n        /* \"ZapYield.sol\":3910:3921  grossAmount */\n      dup8\n        /* \"ZapYield.sol\":3910:3931  grossAmount - flatFee */\n      tag_159\n      swap2\n      swap1\n      tag_97\n      jump\t// in\n    tag_159:\n        /* \"ZapYield.sol\":3909:3941  (grossAmount - flatFee) - devFee */\n      tag_160\n      swap2\n      swap1\n      tag_97\n      jump\t// in\n    tag_160:\n        /* \"ZapYield.sol\":3896:3941  userPayout = (grossAmount - flatFee) - devFee */\n      swap5\n      pop\n        /* \"ZapYield.sol\":3575:3957  if (interest > 0 && user.referrer != address(0)) {... */\n    tag_158:\n        /* \"ZapYield.sol\":3992:3998  devFee */\n      dup1\n        /* \"ZapYield.sol\":3982:3989  flatFee */\n      dup4\n        /* \"ZapYield.sol\":3982:3998  flatFee + devFee */\n      tag_161\n      swap2\n      swap1\n      tag_94\n      jump\t// in\n    tag_161:\n        /* \"ZapYield.sol\":3971:3998  totalFee = flatFee + devFee */\n      swap4\n      pop\n        /* \"ZapYield.sol\":4013:4049  USDC.safeTransfer(owner(), totalFee) */\n      tag_162\n        /* \"ZapYield.sol\":4031:4038  owner() */\n      tag_163\n        /* \"ZapYield.sol\":4031:4036  owner */\n      tag_64\n        /* \"ZapYield.sol\":4031:4038  owner() */\n      jump\t// in\n    tag_163:\n        /* \"ZapYield.sol\":4040:4048  totalFee */\n      dup6\n        /* \"ZapYield.sol\":847:889  0x036CbD53842c5426634e7929541eC2318f3dCF7e */\n      0x036cbd53842c5426634e7929541ec2318f3dcf7e\n        /* \"ZapYield.sol\":4013:4030  USDC.safeTransfer */\n      0xffffffffffffffffffffffffffffffffffffffff\n      and\n      tag_138\n      swap1\n        /* \"ZapYield.sol\":4013:4049  USDC.safeTransfer(owner(), totalFee) */\n      swap3\n      swap2\n      swap1\n      0xffffffff\n      and\n      jump\t// in\n    tag_162:\n        /* \"ZapYield.sol\":3261:4087  {... */\n      pop\n      pop\n      pop\n        /* \"ZapYield.sol\":2992:4087  if (block.timestamp < user.lastDepositTime + LOCK_PERIOD) {... */\n    tag_139:\n        /* \"ZapYield.sol\":4116:4117  0 */\n      0x00\n        /* \"ZapYield.sol\":4099:4103  user */\n      dup6\n        /* \"ZapYield.sol\":4099:4113  user.principal */\n      0x00\n      add\n        /* \"ZapYield.sol\":4099:4117  user.principal = 0 */\n      dup2\n      swap1\n      sstore\n      pop\n        /* \"ZapYield.sol\":4148:4149  0 */\n      0x00\n        /* \"ZapYield.sol\":4128:4132  user */\n      dup6\n        /* \"ZapYield.sol\":4128:4145  user.shareBalance */\n      0x01\n      add\n        /* \"ZapYield.sol\":4128:4149  user.shareBalance = 0 */\n      dup2\n      swap1\n      sstore\n      pop\n        /* \"ZapYield.sol\":4160:4201  USDC.safeTransfer(msg.sender, userPayout) */\n      tag_164\n        /* \"ZapYield.sol\":4178:4188  msg.sender */\n      caller\n        /* \"ZapYield.sol\":4190:4200  userPayout */\n      dup4\n        /* \"ZapYield.sol\":847:889  0x036CbD53842c5426634e7929541eC2318f3dCF7e */\n      0x036cbd53842c5426634e7929541ec2318f3dcf7e\n        /* \"ZapYield.sol\":4160:4177  USDC.safeTransfer */\n      0xffffffffffffffffffffffffffffffffffffffff\n      and\n      tag_138\n      swap1\n        /* \"ZapYield.sol\":4160:4201  USDC.safeTransfer(msg.sender, userPayout) */\n      swap3\n      swap2\n      swap1\n      0xffffffff\n      and\n      jump\t// in\n    tag_164:\n        /* \"ZapYield.sol\":2606:4235  {... */\n      pop\n      pop\n      pop\n      pop\n      pop\n        /* \"@openzeppelin/contracts/security/ReentrancyGuard.sol\":2303:2323  _nonReentrantAfter() */\n      tag_165\n        /* \"@openzeppelin/contracts/security/ReentrancyGuard.sol\":2303:2321  _nonReentrantAfter */\n      tag_166\n        /* \"@openzeppelin/contracts/security/ReentrancyGuard.sol\":2303:2323  _nonReentrantAfter() */\n      jump\t// in\n    tag_165:\n        /* \"ZapYield.sol\":2566:4235  function zapOut() external nonReentrant {... */\n      jump\t// out\n        /* \"ZapYield.sol\":1052:1101  uint256 public constant PROTOCOL_FEE_PERCENT = 10 */\n    tag_43:\n        /* \"ZapYield.sol\":1099:1101  10 */\n      0x0a\n        /* \"ZapYield.sol\":1052:1101  uint256 public constant PROTOCOL_FEE_PERCENT = 10 */\n      dup2\n      jump\t// out\n        /* \"ZapYield.sol\":1113:1159  uint256 public constant EARLY_WITHDRAW_FEE = 1 */\n    tag_46:\n        /* \"ZapYield.sol\":1158:1159  1 */\n      0x01\n        /* \"ZapYield.sol\":1113:1159  uint256 public constant EARLY_WITHDRAW_FEE = 1 */\n      dup2\n      jump\t// out\n        /* \"ZapYield.sol\":4243:4366  function getDownlines(address _user) external view returns (address[] memory) {... */\n    tag_50:\n        /* \"ZapYield.sol\":4303:4319  address[] memory */\n      0x60\n        /* \"ZapYield.sol\":4339:4351  referralList */\n      0x04\n        /* \"ZapYield.sol\":4339:4358  referralList[_user] */\n      0x00\n        /* \"ZapYield.sol\":4352:4357  _user */\n      dup4\n        /* \"ZapYield.sol\":4339:4358  referralList[_user] */\n      0xffffffffffffffffffffffffffffffffffffffff\n      and\n      0xffffffffffffffffffffffffffffffffffffffff\n      and\n      dup2\n      mstore\n      0x20\n      add\n      swap1\n      dup2\n      mstore\n      0x20\n      add\n      0x00\n      keccak256\n        /* \"ZapYield.sol\":4332:4358  return referralList[_user] */\n      dup1\n      sload\n      dup1\n      0x20\n      mul\n      0x20\n      add\n      mload(0x40)\n      swap1\n      dup2\n      add\n      0x40\n      mstore\n      dup1\n      swap3\n      swap2\n      swap1\n      dup2\n      dup2\n      mstore\n      0x20\n      add\n      dup3\n      dup1\n      sload\n      dup1\n      iszero\n      tag_168\n      jumpi\n      0x20\n      mul\n      dup3\n      add\n      swap2\n      swap1\n      0x00\n      mstore\n      keccak256(0x00, 0x20)\n      swap1\n    tag_169:\n      dup2\n      0x00\n      swap1\n      sload\n      swap1\n      0x0100\n      exp\n      swap1\n      div\n      0xffffffffffffffffffffffffffffffffffffffff\n      and\n      0xffffffffffffffffffffffffffffffffffffffff\n      and\n      dup2\n      mstore\n      0x20\n      add\n      swap1\n      0x01\n      add\n      swap1\n      dup1\n      dup4\n      gt\n      tag_169\n      jumpi\n    tag_168:\n      pop\n      pop\n      pop\n      pop\n      pop\n      swap1\n      pop\n        /* \"ZapYield.sol\":4243:4366  function getDownlines(address _user) external view returns (address[] memory) {... */\n      swap2\n      swap1\n      pop\n      jump\t// out\n        /* \"ZapYield.sol\":4749:4940  function getAccountValue(address _user) external view returns (uint256) {... */\n    tag_55:\n        /* \"ZapYield.sol\":4812:4819  uint256 */\n      0x00\n        /* \"ZapYield.sol\":4832:4844  uint256 rate */\n      0x00\n        /* \"ZapYield.sol\":938:980  0x403d64b3f6B4A2b095754877395ab3255476d081 */\n      0x403d64b3f6b4a2b095754877395ab3255476d081\n        /* \"ZapYield.sol\":4847:4871  mUSDC.exchangeRateStored */\n      0xffffffffffffffffffffffffffffffffffffffff\n      and\n      0x182df0f5\n        /* \"ZapYield.sol\":4847:4873  mUSDC.exchangeRateStored() */\n      mload(0x40)\n      dup2\n      0xffffffff\n      and\n      0xe0\n      shl\n      dup2\n      mstore\n      0x04\n      add\n      0x20\n      mload(0x40)\n      dup1\n      dup4\n      sub\n      dup2\n      dup7\n      gas\n      staticcall\n      iszero\n      dup1\n      iszero\n      tag_172\n      jumpi\n      returndatacopy(0x00, 0x00, returndatasize)\n      revert(0x00, returndatasize)\n    tag_172:\n      pop\n      pop\n      pop\n      pop\n      mload(0x40)\n      returndatasize\n      not(0x1f)\n      0x1f\n      dup3\n      add\n      and\n      dup3\n      add\n      dup1\n      0x40\n      mstore\n      pop\n      dup2\n      add\n      swap1\n      tag_173\n      swap2\n      swap1\n      tag_116\n      jump\t// in\n    tag_173:\n        /* \"ZapYield.sol\":4832:4873  uint256 rate = mUSDC.exchangeRateStored() */\n      swap1\n      pop\n        /* \"ZapYield.sol\":4928:4932  1e18 */\n      0x0de0b6b3a7640000\n        /* \"ZapYield.sol\":4920:4924  rate */\n      dup2\n        /* \"ZapYield.sol\":4892:4897  users */\n      0x02\n        /* \"ZapYield.sol\":4892:4904  users[_user] */\n      0x00\n        /* \"ZapYield.sol\":4898:4903  _user */\n      dup7\n        /* \"ZapYield.sol\":4892:4904  users[_user] */\n      0xffffffffffffffffffffffffffffffffffffffff\n      and\n      0xffffffffffffffffffffffffffffffffffffffff\n      and\n      dup2\n      mstore\n      0x20\n      add\n      swap1\n      dup2\n      mstore\n      0x20\n      add\n      0x00\n      keccak256\n        /* \"ZapYield.sol\":4892:4917  users[_user].shareBalance */\n      0x01\n      add\n      sload\n        /* \"ZapYield.sol\":4892:4924  users[_user].shareBalance * rate */\n      tag_174\n      swap2\n      swap1\n      tag_132\n      jump\t// in\n    tag_174:\n        /* \"ZapYield.sol\":4891:4932  (users[_user].shareBalance * rate) / 1e18 */\n      tag_175\n      swap2\n      swap1\n      tag_134\n      jump\t// in\n    tag_175:\n        /* \"ZapYield.sol\":4884:4932  return (users[_user].shareBalance * rate) / 1e18 */\n      swap2\n      pop\n      pop\n        /* \"ZapYield.sol\":4749:4940  function getAccountValue(address _user) external view returns (uint256) {... */\n      swap2\n      swap1\n      pop\n      jump\t// out\n        /* \"@openzeppelin/contracts/access/Ownable.sol\":2293:2394  function renounceOwnership() public virtual onlyOwner {... */\n    tag_58:\n        /* \"@openzeppelin/contracts/access/Ownable.sol\":1531:1544  _checkOwner() */\n      tag_177\n        /* \"@openzeppelin/contracts/access/Ownable.sol\":1531:1542  _checkOwner */\n      tag_178\n        /* \"@openzeppelin/contracts/access/Ownable.sol\":1531:1544  _checkOwner() */\n      jump\t// in\n    tag_177:\n        /* \"@openzeppelin/contracts/access/Ownable.sol\":2357:2387  _transferOwnership(address(0)) */\n      tag_180\n        /* \"@openzeppelin/contracts/access/Ownable.sol\":2384:2385  0 */\n      0x00\n        /* \"@openzeppelin/contracts/access/Ownable.sol\":2357:2375  _transferOwnership */\n      tag_181\n        /* \"@openzeppelin/contracts/access/Ownable.sol\":2357:2387  _transferOwnership(address(0)) */\n      jump\t// in\n    tag_180:\n        /* \"@openzeppelin/contracts/access/Ownable.sol\":2293:2394  function renounceOwnership() public virtual onlyOwner {... */\n      jump\t// out\n        /* \"ZapYield.sol\":810:890  IERC20 public constant USDC = IERC20(0x036CbD53842c5426634e7929541eC2318f3dCF7e) */\n    tag_60:\n        /* \"ZapYield.sol\":847:889  0x036CbD53842c5426634e7929541eC2318f3dCF7e */\n      0x036cbd53842c5426634e7929541ec2318f3dcf7e\n        /* \"ZapYield.sol\":810:890  IERC20 public constant USDC = IERC20(0x036CbD53842c5426634e7929541eC2318f3dCF7e) */\n      dup2\n      jump\t// out\n        /* \"@openzeppelin/contracts/access/Ownable.sol\":1638:1723  function owner() public view virtual returns (address) {... */\n    tag_64:\n        /* \"@openzeppelin/contracts/access/Ownable.sol\":1684:1691  address */\n      0x00\n        /* \"@openzeppelin/contracts/access/Ownable.sol\":1710:1716  _owner */\n      0x00\n      0x00\n      swap1\n      sload\n      swap1\n      0x0100\n      exp\n      swap1\n      div\n      0xffffffffffffffffffffffffffffffffffffffff\n      and\n        /* \"@openzeppelin/contracts/access/Ownable.sol\":1703:1716  return _owner */\n      swap1\n      pop\n        /* \"@openzeppelin/contracts/access/Ownable.sol\":1638:1723  function owner() public view virtual returns (address) {... */\n      swap1\n      jump\t// out\n        /* \"ZapYield.sol\":1419:1460  mapping(address => UserInfo) public users */\n    tag_69:\n      mstore(0x20, 0x02)\n      dup1\n      0x00\n      mstore\n      keccak256(0x00, 0x40)\n      0x00\n      swap2\n      pop\n      swap1\n      pop\n      dup1\n      0x00\n      add\n      sload\n      swap1\n      dup1\n      0x01\n      add\n      sload\n      swap1\n      dup1\n      0x02\n      add\n      0x00\n      swap1\n      sload\n      swap1\n      0x0100\n      exp\n      swap1\n      div\n      0xffffffffffffffffffffffffffffffffffffffff\n      and\n      swap1\n      dup1\n      0x03\n      add\n      sload\n      swap1\n      dup1\n      0x04\n      add\n      sload\n      swap1\n      pop\n      dup6\n      jump\t// out\n        /* \"ZapYield.sol\":1467:1518  mapping(address => uint256) public referralEarnings */\n    tag_74:\n      mstore(0x20, 0x03)\n      dup1\n      0x00\n      mstore\n      keccak256(0x00, 0x40)\n      0x00\n      swap2\n      pop\n      swap1\n      pop\n      sload\n      dup2\n      jump\t// out\n        /* \"ZapYield.sol\":1525:1574  mapping(address => address[]) public referralList */\n    tag_79:\n      mstore(0x20, 0x04)\n      dup2\n      0x00\n      mstore\n      keccak256(0x00, 0x40)\n      dup2\n      dup2\n      sload\n      dup2\n      lt\n      tag_183\n      jumpi\n      0x00\n      dup1\n      revert\n    tag_183:\n      swap1\n      0x00\n      mstore\n      keccak256(0x00, 0x20)\n      add\n      0x00\n      swap2\n      pop\n      swap2\n      pop\n      swap1\n      sload\n      swap1\n      0x0100\n      exp\n      swap1\n      div\n      0xffffffffffffffffffffffffffffffffffffffff\n      and\n      dup2\n      jump\t// out\n        /* \"ZapYield.sol\":1628:2558  function zapIn(uint256 _amount, address _referrer) external nonReentrant {... */\n    tag_84:\n        /* \"@openzeppelin/contracts/security/ReentrancyGuard.sol\":2261:2282  _nonReentrantBefore() */\n      tag_186\n        /* \"@openzeppelin/contracts/security/ReentrancyGuard.sol\":2261:2280  _nonReentrantBefore */\n      tag_107\n        /* \"@openzeppelin/contracts/security/ReentrancyGuard.sol\":2261:2282  _nonReentrantBefore() */\n      jump\t// in\n    tag_186:\n        /* \"ZapYield.sol\":1730:1731  0 */\n      0x00\n        /* \"ZapYield.sol\":1720:1727  _amount */\n      dup3\n        /* \"ZapYield.sol\":1720:1731  _amount > 0 */\n      gt\n        /* \"ZapYield.sol\":1712:1746  require(_amount > 0, \"Amount > 0\") */\n      tag_188\n      jumpi\n      mload(0x40)\n      0x08c379a000000000000000000000000000000000000000000000000000000000\n      dup2\n      mstore\n      0x04\n      add\n      tag_189\n      swap1\n      tag_190\n      jump\t// in\n    tag_189:\n      mload(0x40)\n      dup1\n      swap2\n      sub\n      swap1\n      revert\n    tag_188:\n        /* \"ZapYield.sol\":1778:1788  msg.sender */\n      caller\n        /* \"ZapYield.sol\":1765:1788  _referrer != msg.sender */\n      0xffffffffffffffffffffffffffffffffffffffff\n      and\n        /* \"ZapYield.sol\":1765:1774  _referrer */\n      dup2\n        /* \"ZapYield.sol\":1765:1788  _referrer != msg.sender */\n      0xffffffffffffffffffffffffffffffffffffffff\n      and\n      sub\n        /* \"ZapYield.sol\":1757:1809  require(_referrer != msg.sender, \"No self-referral\") */\n      tag_191\n      jumpi\n      mload(0x40)\n      0x08c379a000000000000000000000000000000000000000000000000000000000\n      dup2\n      mstore\n      0x04\n      add\n      tag_192\n      swap1\n      tag_193\n      jump\t// in\n    tag_192:\n      mload(0x40)\n      dup1\n      swap2\n      sub\n      swap1\n      revert\n    tag_191:\n        /* \"ZapYield.sol\":1864:1865  0 */\n      0x00\n        /* \"ZapYield.sol\":1826:1866  users[msg.sender].referrer == address(0) */\n      0xffffffffffffffffffffffffffffffffffffffff\n      and\n        /* \"ZapYield.sol\":1826:1831  users */\n      0x02\n        /* \"ZapYield.sol\":1826:1843  users[msg.sender] */\n      0x00\n        /* \"ZapYield.sol\":1832:1842  msg.sender */\n      caller\n        /* \"ZapYield.sol\":1826:1843  users[msg.sender] */\n      0xffffffffffffffffffffffffffffffffffffffff\n      and\n      0xffffffffffffffffffffffffffffffffffffffff\n      and\n      dup2\n      mstore\n      0x20\n      add\n      swap1\n      dup2\n      mstore\n      0x20\n      add\n      0x00\n      keccak256\n        /* \"ZapYield.sol\":1826:1852  users[msg.sender].referrer */\n      0x02\n      add\n      0x00\n      swap1\n      sload\n      swap1\n      0x0100\n      exp\n      swap1\n      div\n      0xffffffffffffffffffffffffffffffffffffffff\n      and\n        /* \"ZapYield.sol\":1826:1866  users[msg.sender].referrer == address(0) */\n      0xffffffffffffffffffffffffffffffffffffffff\n      and\n      eq\n        /* \"ZapYield.sol\":1826:1893  users[msg.sender].referrer == address(0) && _referrer != address(0) */\n      dup1\n      iszero\n      tag_194\n      jumpi\n      pop\n        /* \"ZapYield.sol\":1891:1892  0 */\n      0x00\n        /* \"ZapYield.sol\":1870:1893  _referrer != address(0) */\n      0xffffffffffffffffffffffffffffffffffffffff\n      and\n        /* \"ZapYield.sol\":1870:1879  _referrer */\n      dup2\n        /* \"ZapYield.sol\":1870:1893  _referrer != address(0) */\n      0xffffffffffffffffffffffffffffffffffffffff\n      and\n      eq\n      iszero\n        /* \"ZapYield.sol\":1826:1893  users[msg.sender].referrer == address(0) && _referrer != address(0) */\n    tag_194:\n        /* \"ZapYield.sol\":1822:2016  if (users[msg.sender].referrer == address(0) && _referrer != address(0)) {... */\n      iszero\n      tag_195\n      jumpi\n        /* \"ZapYield.sol\":1939:1948  _referrer */\n      dup1\n        /* \"ZapYield.sol\":1910:1915  users */\n      0x02\n        /* \"ZapYield.sol\":1910:1927  users[msg.sender] */\n      0x00\n        /* \"ZapYield.sol\":1916:1926  msg.sender */\n      caller\n        /* \"ZapYield.sol\":1910:1927  users[msg.sender] */\n      0xffffffffffffffffffffffffffffffffffffffff\n      and\n      0xffffffffffffffffffffffffffffffffffffffff\n      and\n      dup2\n      mstore\n      0x20\n      add\n      swap1\n      dup2\n      mstore\n      0x20\n      add\n      0x00\n      keccak256\n        /* \"ZapYield.sol\":1910:1936  users[msg.sender].referrer */\n      0x02\n      add\n      0x00\n        /* \"ZapYield.sol\":1910:1948  users[msg.sender].referrer = _referrer */\n      0x0100\n      exp\n      dup2\n      sload\n      dup2\n      0xffffffffffffffffffffffffffffffffffffffff\n      mul\n      not\n      and\n      swap1\n      dup4\n      0xffffffffffffffffffffffffffffffffffffffff\n      and\n      mul\n      or\n      swap1\n      sstore\n      pop\n        /* \"ZapYield.sol\":1963:1975  referralList */\n      0x04\n        /* \"ZapYield.sol\":1963:1986  referralList[_referrer] */\n      0x00\n        /* \"ZapYield.sol\":1976:1985  _referrer */\n      dup3\n        /* \"ZapYield.sol\":1963:1986  referralList[_referrer] */\n      0xffffffffffffffffffffffffffffffffffffffff\n      and\n      0xffffffffffffffffffffffffffffffffffffffff\n      and\n      dup2\n      mstore\n      0x20\n      add\n      swap1\n      dup2\n      mstore\n      0x20\n      add\n      0x00\n      keccak256\n        /* \"ZapYield.sol\":1992:2002  msg.sender */\n      caller\n        /* \"ZapYield.sol\":1963:2003  referralList[_referrer].push(msg.sender) */\n      swap1\n      dup1\n      0x01\n      dup2\n      sload\n      add\n      dup1\n      dup3\n      sstore\n      dup1\n      swap2\n      pop\n      pop\n      0x01\n      swap1\n      sub\n      swap1\n      0x00\n      mstore\n      keccak256(0x00, 0x20)\n      add\n      0x00\n      swap1\n      swap2\n      swap1\n      swap2\n      swap1\n      swap2\n      0x0100\n      exp\n      dup2\n      sload\n      dup2\n      0xffffffffffffffffffffffffffffffffffffffff\n      mul\n      not\n      and\n      swap1\n      dup4\n      0xffffffffffffffffffffffffffffffffffffffff\n      and\n      mul\n      or\n      swap1\n      sstore\n      pop\n        /* \"ZapYield.sol\":1822:2016  if (users[msg.sender].referrer == address(0) && _referrer != address(0)) {... */\n    tag_195:\n        /* \"ZapYield.sol\":2081:2138  USDC.safeTransferFrom(msg.sender, address(this), _amount) */\n      tag_197\n        /* \"ZapYield.sol\":2103:2113  msg.sender */\n      caller\n        /* \"ZapYield.sol\":2123:2127  this */\n      address\n        /* \"ZapYield.sol\":2130:2137  _amount */\n      dup5\n        /* \"ZapYield.sol\":847:889  0x036CbD53842c5426634e7929541eC2318f3dCF7e */\n      0x036cbd53842c5426634e7929541ec2318f3dcf7e\n        /* \"ZapYield.sol\":2081:2102  USDC.safeTransferFrom */\n      0xffffffffffffffffffffffffffffffffffffffff\n      and\n      tag_198\n      swap1\n        /* \"ZapYield.sol\":2081:2138  USDC.safeTransferFrom(msg.sender, address(this), _amount) */\n      swap4\n      swap3\n      swap2\n      swap1\n      0xffffffff\n      and\n      jump\t// in\n    tag_197:\n        /* \"ZapYield.sol\":847:889  0x036CbD53842c5426634e7929541eC2318f3dCF7e */\n      0x036cbd53842c5426634e7929541ec2318f3dcf7e\n        /* \"ZapYield.sol\":2149:2161  USDC.approve */\n      0xffffffffffffffffffffffffffffffffffffffff\n      and\n      0x095ea7b3\n        /* \"ZapYield.sol\":938:980  0x403d64b3f6B4A2b095754877395ab3255476d081 */\n      0x403d64b3f6b4a2b095754877395ab3255476d081\n        /* \"ZapYield.sol\":2178:2185  _amount */\n      dup5\n        /* \"ZapYield.sol\":2149:2186  USDC.approve(address(mUSDC), _amount) */\n      mload(0x40)\n      dup4\n      0xffffffff\n      and\n      0xe0\n      shl\n      dup2\n      mstore\n      0x04\n      add\n      tag_199\n      swap3\n      swap2\n      swap1\n      tag_200\n      jump\t// in\n    tag_199:\n      0x20\n      mload(0x40)\n      dup1\n      dup4\n      sub\n      dup2\n      0x00\n      dup8\n      gas\n      call\n      iszero\n      dup1\n      iszero\n      tag_202\n      jumpi\n      returndatacopy(0x00, 0x00, returndatasize)\n      revert(0x00, returndatasize)\n    tag_202:\n      pop\n      pop\n      pop\n      pop\n      mload(0x40)\n      returndatasize\n      not(0x1f)\n      0x1f\n      dup3\n      add\n      and\n      dup3\n      add\n      dup1\n      0x40\n      mstore\n      pop\n      dup2\n      add\n      swap1\n      tag_203\n      swap2\n      swap1\n      tag_204\n      jump\t// in\n    tag_203:\n      pop\n        /* \"ZapYield.sol\":2207:2221  uint256 preBal */\n      0x00\n        /* \"ZapYield.sol\":938:980  0x403d64b3f6B4A2b095754877395ab3255476d081 */\n      0x403d64b3f6b4a2b095754877395ab3255476d081\n        /* \"ZapYield.sol\":2224:2239  mUSDC.balanceOf */\n      0xffffffffffffffffffffffffffffffffffffffff\n      and\n      0x70a08231\n        /* \"ZapYield.sol\":2248:2252  this */\n      address\n        /* \"ZapYield.sol\":2224:2254  mUSDC.balanceOf(address(this)) */\n      mload(0x40)\n      dup3\n      0xffffffff\n      and\n      0xe0\n      shl\n      dup2\n      mstore\n      0x04\n      add\n      tag_205\n      swap2\n      swap1\n      tag_66\n      jump\t// in\n    tag_205:\n      0x20\n      mload(0x40)\n      dup1\n      dup4\n      sub\n      dup2\n      dup7\n      gas\n      staticcall\n      iszero\n      dup1\n      iszero\n      tag_207\n      jumpi\n      returndatacopy(0x00, 0x00, returndatasize)\n      revert(0x00, returndatasize)\n    tag_207:\n      pop\n      pop\n      pop\n      pop\n      mload(0x40)\n      returndatasize\n      not(0x1f)\n      0x1f\n      dup3\n      add\n      and\n      dup3\n      add\n      dup1\n      0x40\n      mstore\n      pop\n      dup2\n      add\n      swap1\n      tag_208\n      swap2\n      swap1\n      tag_116\n      jump\t// in\n    tag_208:\n        /* \"ZapYield.sol\":2207:2254  uint256 preBal = mUSDC.balanceOf(address(this)) */\n      swap1\n      pop\n        /* \"ZapYield.sol\":2296:2297  0 */\n      0x00\n        /* \"ZapYield.sol\":938:980  0x403d64b3f6B4A2b095754877395ab3255476d081 */\n      0x403d64b3f6b4a2b095754877395ab3255476d081\n        /* \"ZapYield.sol\":2273:2283  mUSDC.mint */\n      0xffffffffffffffffffffffffffffffffffffffff\n      and\n      0xa0712d68\n        /* \"ZapYield.sol\":2284:2291  _amount */\n      dup6\n        /* \"ZapYield.sol\":2273:2292  mUSDC.mint(_amount) */\n      mload(0x40)\n      dup3\n      0xffffffff\n      and\n      0xe0\n      shl\n      dup2\n      mstore\n      0x04\n      add\n      tag_209\n      swap2\n      swap1\n      tag_29\n      jump\t// in\n    tag_209:\n      0x20\n      mload(0x40)\n      dup1\n      dup4\n      sub\n      dup2\n      0x00\n      dup8\n      gas\n      call\n      iszero\n      dup1\n      iszero\n      tag_211\n      jumpi\n      returndatacopy(0x00, 0x00, returndatasize)\n      revert(0x00, returndatasize)\n    tag_211:\n      pop\n      pop\n      pop\n      pop\n      mload(0x40)\n      returndatasize\n      not(0x1f)\n      0x1f\n      dup3\n      add\n      and\n      dup3\n      add\n      dup1\n      0x40\n      mstore\n      pop\n      dup2\n      add\n      swap1\n      tag_212\n      swap2\n      swap1\n      tag_116\n      jump\t// in\n    tag_212:\n        /* \"ZapYield.sol\":2273:2297  mUSDC.mint(_amount) == 0 */\n      eq\n        /* \"ZapYield.sol\":2265:2313  require(mUSDC.mint(_amount) == 0, \"Mint failed\") */\n      tag_213\n      jumpi\n      mload(0x40)\n      0x08c379a000000000000000000000000000000000000000000000000000000000\n      dup2\n      mstore\n      0x04\n      add\n      tag_214\n      swap1\n      tag_215\n      jump\t// in\n    tag_214:\n      mload(0x40)\n      dup1\n      swap2\n      sub\n      swap1\n      revert\n    tag_213:\n        /* \"ZapYield.sol\":2324:2341  uint256 newShares */\n      0x00\n        /* \"ZapYield.sol\":2377:2383  preBal */\n      dup2\n        /* \"ZapYield.sol\":938:980  0x403d64b3f6B4A2b095754877395ab3255476d081 */\n      0x403d64b3f6b4a2b095754877395ab3255476d081\n        /* \"ZapYield.sol\":2344:2359  mUSDC.balanceOf */\n      0xffffffffffffffffffffffffffffffffffffffff\n      and\n      0x70a08231\n        /* \"ZapYield.sol\":2368:2372  this */\n      address\n        /* \"ZapYield.sol\":2344:2374  mUSDC.balanceOf(address(this)) */\n      mload(0x40)\n      dup3\n      0xffffffff\n      and\n      0xe0\n      shl\n      dup2\n      mstore\n      0x04\n      add\n      tag_216\n      swap2\n      swap1\n      tag_66\n      jump\t// in\n    tag_216:\n      0x20\n      mload(0x40)\n      dup1\n      dup4\n      sub\n      dup2\n      dup7\n      gas\n      staticcall\n      iszero\n      dup1\n      iszero\n      tag_218\n      jumpi\n      returndatacopy(0x00, 0x00, returndatasize)\n      revert(0x00, returndatasize)\n    tag_218:\n      pop\n      pop\n      pop\n      pop\n      mload(0x40)\n      returndatasize\n      not(0x1f)\n      0x1f\n      dup3\n      add\n      and\n      dup3\n      add\n      dup1\n      0x40\n      mstore\n      pop\n      dup2\n      add\n      swap1\n      tag_219\n      swap2\n      swap1\n      tag_116\n      jump\t// in\n    tag_219:\n        /* \"ZapYield.sol\":2344:2383  mUSDC.balanceOf(address(this)) - preBal */\n      tag_220\n      swap2\n      swap1\n      tag_97\n      jump\t// in\n    tag_220:\n        /* \"ZapYield.sol\":2324:2383  uint256 newShares = mUSDC.balanceOf(address(this)) - preBal */\n      swap1\n      pop\n        /* \"ZapYield.sol\":2427:2434  _amount */\n      dup4\n        /* \"ZapYield.sol\":2396:2401  users */\n      0x02\n        /* \"ZapYield.sol\":2396:2413  users[msg.sender] */\n      0x00\n        /* \"ZapYield.sol\":2402:2412  msg.sender */\n      caller\n        /* \"ZapYield.sol\":2396:2413  users[msg.sender] */\n      0xffffffffffffffffffffffffffffffffffffffff\n      and\n      0xffffffffffffffffffffffffffffffffffffffff\n      and\n      dup2\n      mstore\n      0x20\n      add\n      swap1\n      dup2\n      mstore\n      0x20\n      add\n      0x00\n      keccak256\n        /* \"ZapYield.sol\":2396:2423  users[msg.sender].principal */\n      0x00\n      add\n      0x00\n        /* \"ZapYield.sol\":2396:2434  users[msg.sender].principal += _amount */\n      dup3\n      dup3\n      sload\n      tag_221\n      swap2\n      swap1\n      tag_94\n      jump\t// in\n    tag_221:\n      swap3\n      pop\n      pop\n      dup2\n      swap1\n      sstore\n      pop\n        /* \"ZapYield.sol\":2479:2488  newShares */\n      dup1\n        /* \"ZapYield.sol\":2445:2450  users */\n      0x02\n        /* \"ZapYield.sol\":2445:2462  users[msg.sender] */\n      0x00\n        /* \"ZapYield.sol\":2451:2461  msg.sender */\n      caller\n        /* \"ZapYield.sol\":2445:2462  users[msg.sender] */\n      0xffffffffffffffffffffffffffffffffffffffff\n      and\n      0xffffffffffffffffffffffffffffffffffffffff\n      and\n      dup2\n      mstore\n      0x20\n      add\n      swap1\n      dup2\n      mstore\n      0x20\n      add\n      0x00\n      keccak256\n        /* \"ZapYield.sol\":2445:2475  users[msg.sender].shareBalance */\n      0x01\n      add\n      0x00\n        /* \"ZapYield.sol\":2445:2488  users[msg.sender].shareBalance += newShares */\n      dup3\n      dup3\n      sload\n      tag_222\n      swap2\n      swap1\n      tag_94\n      jump\t// in\n    tag_222:\n      swap3\n      pop\n      pop\n      dup2\n      swap1\n      sstore\n      pop\n        /* \"ZapYield.sol\":2535:2550  block.timestamp */\n      timestamp\n        /* \"ZapYield.sol\":2499:2504  users */\n      0x02\n        /* \"ZapYield.sol\":2499:2516  users[msg.sender] */\n      0x00\n        /* \"ZapYield.sol\":2505:2515  msg.sender */\n      caller\n        /* \"ZapYield.sol\":2499:2516  users[msg.sender] */\n      0xffffffffffffffffffffffffffffffffffffffff\n      and\n      0xffffffffffffffffffffffffffffffffffffffff\n      and\n      dup2\n      mstore\n      0x20\n      add\n      swap1\n      dup2\n      mstore\n      0x20\n      add\n      0x00\n      keccak256\n        /* \"ZapYield.sol\":2499:2532  users[msg.sender].lastDepositTime */\n      0x04\n      add\n        /* \"ZapYield.sol\":2499:2550  users[msg.sender].lastDepositTime = block.timestamp */\n      dup2\n      swap1\n      sstore\n      pop\n        /* \"ZapYield.sol\":1701:2558  {... */\n      pop\n      pop\n        /* \"@openzeppelin/contracts/security/ReentrancyGuard.sol\":2303:2323  _nonReentrantAfter() */\n      tag_223\n        /* \"@openzeppelin/contracts/security/ReentrancyGuard.sol\":2303:2321  _nonReentrantAfter */\n      tag_166\n        /* \"@openzeppelin/contracts/security/ReentrancyGuard.sol\":2303:2323  _nonReentrantAfter() */\n      jump\t// in\n    tag_223:\n        /* \"ZapYield.sol\":1628:2558  function zapIn(uint256 _amount, address _referrer) external nonReentrant {... */\n      pop\n      pop\n      jump\t// out\n        /* \"@openzeppelin/contracts/access/Ownable.sol\":2543:2758  function transferOwnership(address newOwner) public virtual onlyOwner {... */\n    tag_87:\n        /* \"@openzeppelin/contracts/access/Ownable.sol\":1531:1544  _checkOwner() */\n      tag_225\n        /* \"@openzeppelin/contracts/access/Ownable.sol\":1531:1542  _checkOwner */\n      tag_178\n        /* \"@openzeppelin/contracts/access/Ownable.sol\":1531:1544  _checkOwner() */\n      jump\t// in\n    tag_225:\n        /* \"@openzeppelin/contracts/access/Ownable.sol\":2647:2648  0 */\n      0x00\n        /* \"@openzeppelin/contracts/access/Ownable.sol\":2627:2649  newOwner == address(0) */\n      0xffffffffffffffffffffffffffffffffffffffff\n      and\n        /* \"@openzeppelin/contracts/access/Ownable.sol\":2627:2635  newOwner */\n      dup2\n        /* \"@openzeppelin/contracts/access/Ownable.sol\":2627:2649  newOwner == address(0) */\n      0xffffffffffffffffffffffffffffffffffffffff\n      and\n      sub\n        /* \"@openzeppelin/contracts/access/Ownable.sol\":2623:2714  if (newOwner == address(0)) {... */\n      tag_227\n      jumpi\n        /* \"@openzeppelin/contracts/access/Ownable.sol\":2700:2701  0 */\n      0x00\n        /* \"@openzeppelin/contracts/access/Ownable.sol\":2672:2703  OwnableInvalidOwner(address(0)) */\n      mload(0x40)\n      0x1e4fbdf700000000000000000000000000000000000000000000000000000000\n      dup2\n      mstore\n      0x04\n      add\n      tag_228\n      swap2\n      swap1\n      tag_66\n      jump\t// in\n    tag_228:\n      mload(0x40)\n      dup1\n      swap2\n      sub\n      swap1\n      revert\n        /* \"@openzeppelin/contracts/access/Ownable.sol\":2623:2714  if (newOwner == address(0)) {... */\n    tag_227:\n        /* \"@openzeppelin/contracts/access/Ownable.sol\":2723:2751  _transferOwnership(newOwner) */\n      tag_229\n        /* \"@openzeppelin/contracts/access/Ownable.sol\":2742:2750  newOwner */\n      dup2\n        /* \"@openzeppelin/contracts/access/Ownable.sol\":2723:2741  _transferOwnership */\n      tag_181\n        /* \"@openzeppelin/contracts/access/Ownable.sol\":2723:2751  _transferOwnership(newOwner) */\n      jump\t// in\n    tag_229:\n        /* \"@openzeppelin/contracts/access/Ownable.sol\":2543:2758  function transferOwnership(address newOwner) public virtual onlyOwner {... */\n      pop\n      jump\t// out\n        /* \"ZapYield.sol\":898:981  IMToken public constant mUSDC = IMToken(0x403d64b3f6B4A2b095754877395ab3255476d081) */\n    tag_89:\n        /* \"ZapYield.sol\":938:980  0x403d64b3f6B4A2b095754877395ab3255476d081 */\n      0x403d64b3f6b4a2b095754877395ab3255476d081\n        /* \"ZapYield.sol\":898:981  IMToken public constant mUSDC = IMToken(0x403d64b3f6B4A2b095754877395ab3255476d081) */\n      dup2\n      jump\t// out\n        /* \"@openzeppelin/contracts/security/ReentrancyGuard.sol\":2336:2623  function _nonReentrantBefore() private {... */\n    tag_107:\n        /* \"@openzeppelin/contracts/security/ReentrancyGuard.sol\":1759:1760  2 */\n      0x02\n        /* \"@openzeppelin/contracts/security/ReentrancyGuard.sol\":2468:2475  _status */\n      sload(0x01)\n        /* \"@openzeppelin/contracts/security/ReentrancyGuard.sol\":2468:2487  _status != _ENTERED */\n      sub\n        /* \"@openzeppelin/contracts/security/ReentrancyGuard.sol\":2460:2523  require(_status != _ENTERED, \"ReentrancyGuard: reentrant call\") */\n      tag_231\n      jumpi\n      mload(0x40)\n      0x08c379a000000000000000000000000000000000000000000000000000000000\n      dup2\n      mstore\n      0x04\n      add\n      tag_232\n      swap1\n      tag_233\n      jump\t// in\n    tag_232:\n      mload(0x40)\n      dup1\n      swap2\n      sub\n      swap1\n      revert\n    tag_231:\n        /* \"@openzeppelin/contracts/security/ReentrancyGuard.sol\":1759:1760  2 */\n      0x02\n        /* \"@openzeppelin/contracts/security/ReentrancyGuard.sol\":2598:2605  _status */\n      0x01\n        /* \"@openzeppelin/contracts/security/ReentrancyGuard.sol\":2598:2616  _status = _ENTERED */\n      dup2\n      swap1\n      sstore\n      pop\n        /* \"@openzeppelin/contracts/security/ReentrancyGuard.sol\":2336:2623  function _nonReentrantBefore() private {... */\n      jump\t// out\n        /* \"@openzeppelin/contracts/token/ERC20/utils/SafeERC20.sol\":1219:1379  function safeTransfer(IERC20 token, address to, uint256 value) internal {... */\n    tag_138:\n        /* \"@openzeppelin/contracts/token/ERC20/utils/SafeERC20.sol\":1301:1372  _callOptionalReturn(token, abi.encodeCall(token.transfer, (to, value))) */\n      tag_235\n        /* \"@openzeppelin/contracts/token/ERC20/utils/SafeERC20.sol\":1321:1326  token */\n      dup4\n        /* \"@openzeppelin/contracts/token/ERC20/utils/SafeERC20.sol\":1343:1348  token */\n      dup5\n        /* \"@openzeppelin/contracts/token/ERC20/utils/SafeERC20.sol\":1343:1357  token.transfer */\n      0xffffffffffffffffffffffffffffffffffffffff\n      and\n      0xa9059cbb\n        /* \"@openzeppelin/contracts/token/ERC20/utils/SafeERC20.sol\":1360:1362  to */\n      dup6\n        /* \"@openzeppelin/contracts/token/ERC20/utils/SafeERC20.sol\":1364:1369  value */\n      dup6\n        /* \"@openzeppelin/contracts/token/ERC20/utils/SafeERC20.sol\":1328:1371  abi.encodeCall(token.transfer, (to, value)) */\n      add(0x24, mload(0x40))\n      tag_236\n      swap3\n      swap2\n      swap1\n      tag_200\n      jump\t// in\n    tag_236:\n      mload(0x40)\n      0x20\n      dup2\n      dup4\n      sub\n      sub\n      dup2\n      mstore\n      swap1\n      0x40\n      mstore\n      swap2\n      pop\n      0xe0\n      shl\n      0x20\n      dup3\n      add\n      dup1\n      mload\n      0xffffffffffffffffffffffffffffffffffffffffffffffffffffffff\n      dup4\n      dup2\n      dup4\n      and\n      or\n      dup4\n      mstore\n      pop\n      pop\n      pop\n      pop\n        /* \"@openzeppelin/contracts/token/ERC20/utils/SafeERC20.sol\":1301:1320  _callOptionalReturn */\n      tag_237\n        /* \"@openzeppelin/contracts/token/ERC20/utils/SafeERC20.sol\":1301:1372  _callOptionalReturn(token, abi.encodeCall(token.transfer, (to, value))) */\n      jump\t// in\n    tag_235:\n        /* \"@openzeppelin/contracts/token/ERC20/utils/SafeERC20.sol\":1219:1379  function safeTransfer(IERC20 token, address to, uint256 value) internal {... */\n      pop\n      pop\n      pop\n      jump\t// out\n        /* \"@openzeppelin/contracts/security/ReentrancyGuard.sol\":2629:2838  function _nonReentrantAfter() private {... */\n    tag_166:\n        /* \"@openzeppelin/contracts/security/ReentrancyGuard.sol\":1716:1717  1 */\n      0x01\n        /* \"@openzeppelin/contracts/security/ReentrancyGuard.sol\":2809:2816  _status */\n      dup1\n        /* \"@openzeppelin/contracts/security/ReentrancyGuard.sol\":2809:2831  _status = _NOT_ENTERED */\n      dup2\n      swap1\n      sstore\n      pop\n        /* \"@openzeppelin/contracts/security/ReentrancyGuard.sol\":2629:2838  function _nonReentrantAfter() private {... */\n      jump\t// out\n        /* \"@openzeppelin/contracts/access/Ownable.sol\":1796:1958  function _checkOwner() internal view virtual {... */\n    tag_178:\n        /* \"@openzeppelin/contracts/access/Ownable.sol\":1866:1878  _msgSender() */\n      tag_240\n        /* \"@openzeppelin/contracts/access/Ownable.sol\":1866:1876  _msgSender */\n      tag_241\n        /* \"@openzeppelin/contracts/access/Ownable.sol\":1866:1878  _msgSender() */\n      jump\t// in\n    tag_240:\n        /* \"@openzeppelin/contracts/access/Ownable.sol\":1855:1878  owner() != _msgSender() */\n      0xffffffffffffffffffffffffffffffffffffffff\n      and\n        /* \"@openzeppelin/contracts/access/Ownable.sol\":1855:1862  owner() */\n      tag_242\n        /* \"@openzeppelin/contracts/access/Ownable.sol\":1855:1860  owner */\n      tag_64\n        /* \"@openzeppelin/contracts/access/Ownable.sol\":1855:1862  owner() */\n      jump\t// in\n    tag_242:\n        /* \"@openzeppelin/contracts/access/Ownable.sol\":1855:1878  owner() != _msgSender() */\n      0xffffffffffffffffffffffffffffffffffffffff\n      and\n      eq\n        /* \"@openzeppelin/contracts/access/Ownable.sol\":1851:1952  if (owner() != _msgSender()) {... */\n      tag_243\n      jumpi\n        /* \"@openzeppelin/contracts/access/Ownable.sol\":1928:1940  _msgSender() */\n      tag_244\n        /* \"@openzeppelin/contracts/access/Ownable.sol\":1928:1938  _msgSender */\n      tag_241\n        /* \"@openzeppelin/contracts/access/Ownable.sol\":1928:1940  _msgSender() */\n      jump\t// in\n    tag_244:\n        /* \"@openzeppelin/contracts/access/Ownable.sol\":1901:1941  OwnableUnauthorizedAccount(_msgSender()) */\n      mload(0x40)\n      0x118cdaa700000000000000000000000000000000000000000000000000000000\n      dup2\n      mstore\n      0x04\n      add\n      tag_245\n      swap2\n      swap1\n      tag_66\n      jump\t// in\n    tag_245:\n      mload(0x40)\n      dup1\n      swap2\n      sub\n      swap1\n      revert\n        /* \"@openzeppelin/contracts/access/Ownable.sol\":1851:1952  if (owner() != _msgSender()) {... */\n    tag_243:\n        /* \"@openzeppelin/contracts/access/Ownable.sol\":1796:1958  function _checkOwner() internal view virtual {... */\n      jump\t// out\n        /* \"@openzeppelin/contracts/access/Ownable.sol\":2912:3099  function _transferOwnership(address newOwner) internal virtual {... */\n    tag_181:\n        /* \"@openzeppelin/contracts/access/Ownable.sol\":2985:3001  address oldOwner */\n      0x00\n        /* \"@openzeppelin/contracts/access/Ownable.sol\":3004:3010  _owner */\n      0x00\n      0x00\n      swap1\n      sload\n      swap1\n      0x0100\n      exp\n      swap1\n      div\n      0xffffffffffffffffffffffffffffffffffffffff\n      and\n        /* \"@openzeppelin/contracts/access/Ownable.sol\":2985:3010  address oldOwner = _owner */\n      swap1\n      pop\n        /* \"@openzeppelin/contracts/access/Ownable.sol\":3029:3037  newOwner */\n      dup2\n        /* \"@openzeppelin/contracts/access/Ownable.sol\":3020:3026  _owner */\n      0x00\n      0x00\n        /* \"@openzeppelin/contracts/access/Ownable.sol\":3020:3037  _owner = newOwner */\n      0x0100\n      exp\n      dup2\n      sload\n      dup2\n      0xffffffffffffffffffffffffffffffffffffffff\n      mul\n      not\n      and\n      swap1\n      dup4\n      0xffffffffffffffffffffffffffffffffffffffff\n      and\n      mul\n      or\n      swap1\n      sstore\n      pop\n        /* \"@openzeppelin/contracts/access/Ownable.sol\":3083:3091  newOwner */\n      dup2\n        /* \"@openzeppelin/contracts/access/Ownable.sol\":3052:3092  OwnershipTransferred(oldOwner, newOwner) */\n      0xffffffffffffffffffffffffffffffffffffffff\n      and\n        /* \"@openzeppelin/contracts/access/Ownable.sol\":3073:3081  oldOwner */\n      dup2\n        /* \"@openzeppelin/contracts/access/Ownable.sol\":3052:3092  OwnershipTransferred(oldOwner, newOwner) */\n      0xffffffffffffffffffffffffffffffffffffffff\n      and\n      0x8be0079c531659141344cd1fd0a4f28419497f9722a3daafe3b4186f6b6457e0\n      mload(0x40)\n      mload(0x40)\n      dup1\n      swap2\n      sub\n      swap1\n      log3\n        /* \"@openzeppelin/contracts/access/Ownable.sol\":2975:3099  {... */\n      pop\n        /* \"@openzeppelin/contracts/access/Ownable.sol\":2912:3099  function _transferOwnership(address newOwner) internal virtual {... */\n      pop\n      jump\t// out\n        /* \"@openzeppelin/contracts/token/ERC20/utils/SafeERC20.sol\":1618:1806  function safeTransferFrom(IERC20 token, address from, address to, uint256 value) internal {... */\n    tag_198:\n        /* \"@openzeppelin/contracts/token/ERC20/utils/SafeERC20.sol\":1718:1799  _callOptionalReturn(token, abi.encodeCall(token.transferFrom, (from, to, value))) */\n      tag_248\n        /* \"@openzeppelin/contracts/token/ERC20/utils/SafeERC20.sol\":1738:1743  token */\n      dup5\n        /* \"@openzeppelin/contracts/token/ERC20/utils/SafeERC20.sol\":1760:1765  token */\n      dup6\n        /* \"@openzeppelin/contracts/token/ERC20/utils/SafeERC20.sol\":1760:1778  token.transferFrom */\n      0xffffffffffffffffffffffffffffffffffffffff\n      and\n      0x23b872dd\n        /* \"@openzeppelin/contracts/token/ERC20/utils/SafeERC20.sol\":1781:1785  from */\n      dup7\n        /* \"@openzeppelin/contracts/token/ERC20/utils/SafeERC20.sol\":1787:1789  to */\n      dup7\n        /* \"@openzeppelin/contracts/token/ERC20/utils/SafeERC20.sol\":1791:1796  value */\n      dup7\n        /* \"@openzeppelin/contracts/token/ERC20/utils/SafeERC20.sol\":1745:1798  abi.encodeCall(token.transferFrom, (from, to, value)) */\n      add(0x24, mload(0x40))\n      tag_249\n      swap4\n      swap3\n      swap2\n      swap1\n      tag_250\n      jump\t// in\n    tag_249:\n      mload(0x40)\n      0x20\n      dup2\n      dup4\n      sub\n      sub\n      dup2\n      mstore\n      swap1\n      0x40\n      mstore\n      swap2\n      pop\n      0xe0\n      shl\n      0x20\n      dup3\n      add\n      dup1\n      mload\n      0xffffffffffffffffffffffffffffffffffffffffffffffffffffffff\n      dup4\n      dup2\n      dup4\n      and\n      or\n      dup4\n      mstore\n      pop\n      pop\n      pop\n      pop\n        /* \"@openzeppelin/contracts/token/ERC20/utils/SafeERC20.sol\":1718:1737  _callOptionalReturn */\n      tag_237\n        /* \"@openzeppelin/contracts/token/ERC20/utils/SafeERC20.sol\":1718:1799  _callOptionalReturn(token, abi.encodeCall(token.transferFrom, (from, to, value))) */\n      jump\t// in\n    tag_248:\n        /* \"@openzeppelin/contracts/token/ERC20/utils/SafeERC20.sol\":1618:1806  function safeTransferFrom(IERC20 token, address from, address to, uint256 value) internal {... */\n      pop\n      pop\n      pop\n      pop\n      jump\t// out\n        /* \"@openzeppelin/contracts/token/ERC20/utils/SafeERC20.sol\":8370:9090  function _callOptionalReturn(IERC20 token, bytes memory data) private {... */\n    tag_237:\n        /* \"@openzeppelin/contracts/token/ERC20/utils/SafeERC20.sol\":8450:8468  uint256 returnSize */\n      0x00\n        /* \"@openzeppelin/contracts/token/ERC20/utils/SafeERC20.sol\":8478:8497  uint256 returnValue */\n      0x00\n        /* \"@openzeppelin/contracts/token/ERC20/utils/SafeERC20.sol\":8616:8620  0x20 */\n      0x20\n        /* \"@openzeppelin/contracts/token/ERC20/utils/SafeERC20.sol\":8613:8614  0 */\n      0x00\n        /* \"@openzeppelin/contracts/token/ERC20/utils/SafeERC20.sol\":8606:8610  data */\n      dup5\n        /* \"@openzeppelin/contracts/token/ERC20/utils/SafeERC20.sol\":8600:8611  mload(data) */\n      mload\n        /* \"@openzeppelin/contracts/token/ERC20/utils/SafeERC20.sol\":8593:8597  0x20 */\n      0x20\n        /* \"@openzeppelin/contracts/token/ERC20/utils/SafeERC20.sol\":8587:8591  data */\n      dup7\n        /* \"@openzeppelin/contracts/token/ERC20/utils/SafeERC20.sol\":8583:8598  add(data, 0x20) */\n      add\n        /* \"@openzeppelin/contracts/token/ERC20/utils/SafeERC20.sol\":8580:8581  0 */\n      0x00\n        /* \"@openzeppelin/contracts/token/ERC20/utils/SafeERC20.sol\":8573:8578  token */\n      dup9\n        /* \"@openzeppelin/contracts/token/ERC20/utils/SafeERC20.sol\":8566:8571  gas() */\n      gas\n        /* \"@openzeppelin/contracts/token/ERC20/utils/SafeERC20.sol\":8561:8621  call(gas(), token, 0, add(data, 0x20), mload(data), 0, 0x20) */\n      call\n        /* \"@openzeppelin/contracts/token/ERC20/utils/SafeERC20.sol\":8673:8680  success */\n      dup1\n        /* \"@openzeppelin/contracts/token/ERC20/utils/SafeERC20.sol\":8663:8839  if iszero(success) {... */\n      tag_252\n      jumpi\n        /* \"@openzeppelin/contracts/token/ERC20/utils/SafeERC20.sol\":8717:8721  0x40 */\n      0x40\n        /* \"@openzeppelin/contracts/token/ERC20/utils/SafeERC20.sol\":8711:8722  mload(0x40) */\n      mload\n        /* \"@openzeppelin/contracts/token/ERC20/utils/SafeERC20.sol\":8762:8778  returndatasize() */\n      returndatasize\n        /* \"@openzeppelin/contracts/token/ERC20/utils/SafeERC20.sol\":8759:8760  0 */\n      0x00\n        /* \"@openzeppelin/contracts/token/ERC20/utils/SafeERC20.sol\":8754:8757  ptr */\n      dup3\n        /* \"@openzeppelin/contracts/token/ERC20/utils/SafeERC20.sol\":8739:8779  returndatacopy(ptr, 0, returndatasize()) */\n      returndatacopy\n        /* \"@openzeppelin/contracts/token/ERC20/utils/SafeERC20.sol\":8808:8824  returndatasize() */\n      returndatasize\n        /* \"@openzeppelin/contracts/token/ERC20/utils/SafeERC20.sol\":8803:8806  ptr */\n      dup2\n        /* \"@openzeppelin/contracts/token/ERC20/utils/SafeERC20.sol\":8796:8825  revert(ptr, returndatasize()) */\n      revert\n        /* \"@openzeppelin/contracts/token/ERC20/utils/SafeERC20.sol\":8663:8839  if iszero(success) {... */\n    tag_252:\n        /* \"@openzeppelin/contracts/token/ERC20/utils/SafeERC20.sol\":8866:8882  returndatasize() */\n      returndatasize\n        /* \"@openzeppelin/contracts/token/ERC20/utils/SafeERC20.sol\":8852:8882  returnSize := returndatasize() */\n      swap3\n      pop\n        /* \"@openzeppelin/contracts/token/ERC20/utils/SafeERC20.sol\":8916:8917  0 */\n      0x00\n        /* \"@openzeppelin/contracts/token/ERC20/utils/SafeERC20.sol\":8910:8918  mload(0) */\n      mload\n        /* \"@openzeppelin/contracts/token/ERC20/utils/SafeERC20.sol\":8895:8918  returnValue := mload(0) */\n      swap2\n      pop\n        /* \"@openzeppelin/contracts/token/ERC20/utils/SafeERC20.sol\":8532:8928  {... */\n      pop\n        /* \"@openzeppelin/contracts/token/ERC20/utils/SafeERC20.sol\":8956:8957  0 */\n      0x00\n        /* \"@openzeppelin/contracts/token/ERC20/utils/SafeERC20.sol\":8942:8952  returnSize */\n      dup3\n        /* \"@openzeppelin/contracts/token/ERC20/utils/SafeERC20.sol\":8942:8957  returnSize == 0 */\n      eq\n        /* \"@openzeppelin/contracts/token/ERC20/utils/SafeERC20.sol\":8942:9010  returnSize == 0 ? address(token).code.length == 0 : returnValue != 1 */\n      tag_253\n      jumpi\n        /* \"@openzeppelin/contracts/token/ERC20/utils/SafeERC20.sol\":9009:9010  1 */\n      0x01\n        /* \"@openzeppelin/contracts/token/ERC20/utils/SafeERC20.sol\":8994:9005  returnValue */\n      dup2\n        /* \"@openzeppelin/contracts/token/ERC20/utils/SafeERC20.sol\":8994:9010  returnValue != 1 */\n      eq\n      iszero\n        /* \"@openzeppelin/contracts/token/ERC20/utils/SafeERC20.sol\":8942:9010  returnSize == 0 ? address(token).code.length == 0 : returnValue != 1 */\n      jump(tag_254)\n    tag_253:\n        /* \"@openzeppelin/contracts/token/ERC20/utils/SafeERC20.sol\":8990:8991  0 */\n      0x00\n        /* \"@openzeppelin/contracts/token/ERC20/utils/SafeERC20.sol\":8968:8973  token */\n      dup5\n        /* \"@openzeppelin/contracts/token/ERC20/utils/SafeERC20.sol\":8960:8986  address(token).code.length */\n      0xffffffffffffffffffffffffffffffffffffffff\n      and\n      extcodesize\n        /* \"@openzeppelin/contracts/token/ERC20/utils/SafeERC20.sol\":8960:8991  address(token).code.length == 0 */\n      eq\n        /* \"@openzeppelin/contracts/token/ERC20/utils/SafeERC20.sol\":8942:9010  returnSize == 0 ? address(token).code.length == 0 : returnValue != 1 */\n    tag_254:\n        /* \"@openzeppelin/contracts/token/ERC20/utils/SafeERC20.sol\":8938:9084  if (returnSize == 0 ? address(token).code.length == 0 : returnValue != 1) {... */\n      iszero\n      tag_255\n      jumpi\n        /* \"@openzeppelin/contracts/token/ERC20/utils/SafeERC20.sol\":9066:9071  token */\n      dup4\n        /* \"@openzeppelin/contracts/token/ERC20/utils/SafeERC20.sol\":9033:9073  SafeERC20FailedOperation(address(token)) */\n      mload(0x40)\n      0x5274afe700000000000000000000000000000000000000000000000000000000\n      dup2\n      mstore\n      0x04\n      add\n      tag_256\n      swap2\n      swap1\n      tag_66\n      jump\t// in\n    tag_256:\n      mload(0x40)\n      dup1\n      swap2\n      sub\n      swap1\n      revert\n        /* \"@openzeppelin/contracts/token/ERC20/utils/SafeERC20.sol\":8938:9084  if (returnSize == 0 ? address(token).code.length == 0 : returnValue != 1) {... */\n    tag_255:\n        /* \"@openzeppelin/contracts/token/ERC20/utils/SafeERC20.sol\":8440:9090  {... */\n      pop\n      pop\n        /* \"@openzeppelin/contracts/token/ERC20/utils/SafeERC20.sol\":8370:9090  function _callOptionalReturn(IERC20 token, bytes memory data) private {... */\n      pop\n      pop\n      jump\t// out\n        /* \"@openzeppelin/contracts/utils/Context.sol\":656:752  function _msgSender() internal view virtual returns (address) {... */\n    tag_241:\n        /* \"@openzeppelin/contracts/utils/Context.sol\":709:716  address */\n      0x00\n        /* \"@openzeppelin/contracts/utils/Context.sol\":735:745  msg.sender */\n      caller\n        /* \"@openzeppelin/contracts/utils/Context.sol\":728:745  return msg.sender */\n      swap1\n      pop\n        /* \"@openzeppelin/contracts/utils/Context.sol\":656:752  function _msgSender() internal view virtual returns (address) {... */\n      swap1\n      jump\t// out\n        /* \"#utility.yul\":88:205   */\n    tag_259:\n        /* \"#utility.yul\":197:198   */\n      0x00\n        /* \"#utility.yul\":194:195   */\n      0x00\n        /* \"#utility.yul\":187:199   */\n      revert\n        /* \"#utility.yul\":334:460   */\n    tag_261:\n        /* \"#utility.yul\":371:378   */\n      0x00\n        /* \"#utility.yul\":411:453   */\n      0xffffffffffffffffffffffffffffffffffffffff\n        /* \"#utility.yul\":404:409   */\n      dup3\n        /* \"#utility.yul\":400:454   */\n      and\n        /* \"#utility.yul\":389:454   */\n      swap1\n      pop\n        /* \"#utility.yul\":334:460   */\n      swap2\n      swap1\n      pop\n      jump\t// out\n        /* \"#utility.yul\":466:562   */\n    tag_262:\n        /* \"#utility.yul\":503:510   */\n      0x00\n        /* \"#utility.yul\":532:556   */\n      tag_309\n        /* \"#utility.yul\":550:555   */\n      dup3\n        /* \"#utility.yul\":532:556   */\n      tag_261\n      jump\t// in\n    tag_309:\n        /* \"#utility.yul\":521:556   */\n      swap1\n      pop\n        /* \"#utility.yul\":466:562   */\n      swap2\n      swap1\n      pop\n      jump\t// out\n        /* \"#utility.yul\":568:690   */\n    tag_263:\n        /* \"#utility.yul\":641:665   */\n      tag_311\n        /* \"#utility.yul\":659:664   */\n      dup2\n        /* \"#utility.yul\":641:665   */\n      tag_262\n      jump\t// in\n    tag_311:\n        /* \"#utility.yul\":634:639   */\n      dup2\n        /* \"#utility.yul\":631:666   */\n      eq\n        /* \"#utility.yul\":621:684   */\n      tag_312\n      jumpi\n        /* \"#utility.yul\":680:681   */\n      0x00\n        /* \"#utility.yul\":677:678   */\n      0x00\n        /* \"#utility.yul\":670:682   */\n      revert\n        /* \"#utility.yul\":621:684   */\n    tag_312:\n        /* \"#utility.yul\":568:690   */\n      pop\n      jump\t// out\n        /* \"#utility.yul\":696:835   */\n    tag_264:\n        /* \"#utility.yul\":742:747   */\n      0x00\n        /* \"#utility.yul\":780:786   */\n      dup2\n        /* \"#utility.yul\":767:787   */\n      calldataload\n        /* \"#utility.yul\":758:787   */\n      swap1\n      pop\n        /* \"#utility.yul\":796:829   */\n      tag_314\n        /* \"#utility.yul\":823:828   */\n      dup2\n        /* \"#utility.yul\":796:829   */\n      tag_263\n      jump\t// in\n    tag_314:\n        /* \"#utility.yul\":696:835   */\n      swap3\n      swap2\n      pop\n      pop\n      jump\t// out\n        /* \"#utility.yul\":841:1170   */\n    tag_26:\n        /* \"#utility.yul\":900:906   */\n      0x00\n        /* \"#utility.yul\":949:951   */\n      0x20\n        /* \"#utility.yul\":937:946   */\n      dup3\n        /* \"#utility.yul\":928:935   */\n      dup5\n        /* \"#utility.yul\":924:947   */\n      sub\n        /* \"#utility.yul\":920:952   */\n      slt\n        /* \"#utility.yul\":917:1036   */\n      iszero\n      tag_316\n      jumpi\n        /* \"#utility.yul\":955:1034   */\n      tag_317\n      tag_259\n      jump\t// in\n    tag_317:\n        /* \"#utility.yul\":917:1036   */\n    tag_316:\n        /* \"#utility.yul\":1075:1076   */\n      0x00\n        /* \"#utility.yul\":1100:1153   */\n      tag_318\n        /* \"#utility.yul\":1145:1152   */\n      dup5\n        /* \"#utility.yul\":1136:1142   */\n      dup3\n        /* \"#utility.yul\":1125:1134   */\n      dup6\n        /* \"#utility.yul\":1121:1143   */\n      add\n        /* \"#utility.yul\":1100:1153   */\n      tag_264\n      jump\t// in\n    tag_318:\n        /* \"#utility.yul\":1090:1153   */\n      swap2\n      pop\n        /* \"#utility.yul\":1046:1163   */\n      pop\n        /* \"#utility.yul\":841:1170   */\n      swap3\n      swap2\n      pop\n      pop\n      jump\t// out\n        /* \"#utility.yul\":1176:1253   */\n    tag_265:\n        /* \"#utility.yul\":1213:1220   */\n      0x00\n        /* \"#utility.yul\":1242:1247   */\n      dup2\n        /* \"#utility.yul\":1231:1247   */\n      swap1\n      pop\n        /* \"#utility.yul\":1176:1253   */\n      swap2\n      swap1\n      pop\n      jump\t// out\n        /* \"#utility.yul\":1259:1377   */\n    tag_266:\n        /* \"#utility.yul\":1346:1370   */\n      tag_321\n        /* \"#utility.yul\":1364:1369   */\n      dup2\n        /* \"#utility.yul\":1346:1370   */\n      tag_265\n      jump\t// in\n    tag_321:\n        /* \"#utility.yul\":1341:1344   */\n      dup3\n        /* \"#utility.yul\":1334:1371   */\n      mstore\n        /* \"#utility.yul\":1259:1377   */\n      pop\n      pop\n      jump\t// out\n        /* \"#utility.yul\":1383:1605   */\n    tag_29:\n        /* \"#utility.yul\":1476:1480   */\n      0x00\n        /* \"#utility.yul\":1514:1516   */\n      0x20\n        /* \"#utility.yul\":1503:1512   */\n      dup3\n        /* \"#utility.yul\":1499:1517   */\n      add\n        /* \"#utility.yul\":1491:1517   */\n      swap1\n      pop\n        /* \"#utility.yul\":1527:1598   */\n      tag_323\n        /* \"#utility.yul\":1595:1596   */\n      0x00\n        /* \"#utility.yul\":1584:1593   */\n      dup4\n        /* \"#utility.yul\":1580:1597   */\n      add\n        /* \"#utility.yul\":1571:1577   */\n      dup5\n        /* \"#utility.yul\":1527:1598   */\n      tag_266\n      jump\t// in\n    tag_323:\n        /* \"#utility.yul\":1383:1605   */\n      swap3\n      swap2\n      pop\n      pop\n      jump\t// out\n        /* \"#utility.yul\":1611:1725   */\n    tag_267:\n        /* \"#utility.yul\":1678:1684   */\n      0x00\n        /* \"#utility.yul\":1712:1717   */\n      dup2\n        /* \"#utility.yul\":1706:1718   */\n      mload\n        /* \"#utility.yul\":1696:1718   */\n      swap1\n      pop\n        /* \"#utility.yul\":1611:1725   */\n      swap2\n      swap1\n      pop\n      jump\t// out\n        /* \"#utility.yul\":1731:1915   */\n    tag_268:\n        /* \"#utility.yul\":1830:1841   */\n      0x00\n        /* \"#utility.yul\":1864:1870   */\n      dup3\n        /* \"#utility.yul\":1859:1862   */\n      dup3\n        /* \"#utility.yul\":1852:1871   */\n      mstore\n        /* \"#utility.yul\":1904:1908   */\n      0x20\n        /* \"#utility.yul\":1899:1902   */\n      dup3\n        /* \"#utility.yul\":1895:1909   */\n      add\n        /* \"#utility.yul\":1880:1909   */\n      swap1\n      pop\n        /* \"#utility.yul\":1731:1915   */\n      swap3\n      swap2\n      pop\n      pop\n      jump\t// out\n        /* \"#utility.yul\":1921:2053   */\n    tag_269:\n        /* \"#utility.yul\":1988:1992   */\n      0x00\n        /* \"#utility.yul\":2011:2014   */\n      dup2\n        /* \"#utility.yul\":2003:2014   */\n      swap1\n      pop\n        /* \"#utility.yul\":2041:2045   */\n      0x20\n        /* \"#utility.yul\":2036:2039   */\n      dup3\n        /* \"#utility.yul\":2032:2046   */\n      add\n        /* \"#utility.yul\":2024:2046   */\n      swap1\n      pop\n        /* \"#utility.yul\":1921:2053   */\n      swap2\n      swap1\n      pop\n      jump\t// out\n        /* \"#utility.yul\":2059:2167   */\n    tag_270:\n        /* \"#utility.yul\":2136:2160   */\n      tag_328\n        /* \"#utility.yul\":2154:2159   */\n      dup2\n        /* \"#utility.yul\":2136:2160   */\n      tag_262\n      jump\t// in\n    tag_328:\n        /* \"#utility.yul\":2131:2134   */\n      dup3\n        /* \"#utility.yul\":2124:2161   */\n      mstore\n        /* \"#utility.yul\":2059:2167   */\n      pop\n      pop\n      jump\t// out\n        /* \"#utility.yul\":2173:2352   */\n    tag_271:\n        /* \"#utility.yul\":2242:2252   */\n      0x00\n        /* \"#utility.yul\":2263:2309   */\n      tag_330\n        /* \"#utility.yul\":2305:2308   */\n      dup4\n        /* \"#utility.yul\":2297:2303   */\n      dup4\n        /* \"#utility.yul\":2263:2309   */\n      tag_270\n      jump\t// in\n    tag_330:\n        /* \"#utility.yul\":2341:2345   */\n      0x20\n        /* \"#utility.yul\":2336:2339   */\n      dup4\n        /* \"#utility.yul\":2332:2346   */\n      add\n        /* \"#utility.yul\":2318:2346   */\n      swap1\n      pop\n        /* \"#utility.yul\":2173:2352   */\n      swap3\n      swap2\n      pop\n      pop\n      jump\t// out\n        /* \"#utility.yul\":2358:2471   */\n    tag_272:\n        /* \"#utility.yul\":2428:2432   */\n      0x00\n        /* \"#utility.yul\":2460:2464   */\n      0x20\n        /* \"#utility.yul\":2455:2458   */\n      dup3\n        /* \"#utility.yul\":2451:2465   */\n      add\n        /* \"#utility.yul\":2443:2465   */\n      swap1\n      pop\n        /* \"#utility.yul\":2358:2471   */\n      swap2\n      swap1\n      pop\n      jump\t// out\n        /* \"#utility.yul\":2507:3239   */\n    tag_273:\n        /* \"#utility.yul\":2626:2629   */\n      0x00\n        /* \"#utility.yul\":2655:2709   */\n      tag_333\n        /* \"#utility.yul\":2703:2708   */\n      dup3\n        /* \"#utility.yul\":2655:2709   */\n      tag_267\n      jump\t// in\n    tag_333:\n        /* \"#utility.yul\":2725:2811   */\n      tag_334\n        /* \"#utility.yul\":2804:2810   */\n      dup2\n        /* \"#utility.yul\":2799:2802   */\n      dup6\n        /* \"#utility.yul\":2725:2811   */\n      tag_268\n      jump\t// in\n    tag_334:\n        /* \"#utility.yul\":2718:2811   */\n      swap4\n      pop\n        /* \"#utility.yul\":2835:2891   */\n      tag_335\n        /* \"#utility.yul\":2885:2890   */\n      dup4\n        /* \"#utility.yul\":2835:2891   */\n      tag_269\n      jump\t// in\n    tag_335:\n        /* \"#utility.yul\":2914:2921   */\n      dup1\n        /* \"#utility.yul\":2945:2946   */\n      0x00\n        /* \"#utility.yul\":2930:3214   */\n    tag_336:\n        /* \"#utility.yul\":2955:2961   */\n      dup4\n        /* \"#utility.yul\":2952:2953   */\n      dup2\n        /* \"#utility.yul\":2949:2962   */\n      lt\n        /* \"#utility.yul\":2930:3214   */\n      iszero\n      tag_338\n      jumpi\n        /* \"#utility.yul\":3031:3037   */\n      dup2\n        /* \"#utility.yul\":3025:3038   */\n      mload\n        /* \"#utility.yul\":3058:3121   */\n      tag_339\n        /* \"#utility.yul\":3117:3120   */\n      dup9\n        /* \"#utility.yul\":3102:3115   */\n      dup3\n        /* \"#utility.yul\":3058:3121   */\n      tag_271\n      jump\t// in\n    tag_339:\n        /* \"#utility.yul\":3051:3121   */\n      swap8\n      pop\n        /* \"#utility.yul\":3144:3204   */\n      tag_340\n        /* \"#utility.yul\":3197:3203   */\n      dup4\n        /* \"#utility.yul\":3144:3204   */\n      tag_272\n      jump\t// in\n    tag_340:\n        /* \"#utility.yul\":3134:3204   */\n      swap3\n      pop\n        /* \"#utility.yul\":2990:3214   */\n      pop\n        /* \"#utility.yul\":2977:2978   */\n      0x01\n        /* \"#utility.yul\":2974:2975   */\n      dup2\n        /* \"#utility.yul\":2970:2979   */\n      add\n        /* \"#utility.yul\":2965:2979   */\n      swap1\n      pop\n        /* \"#utility.yul\":2930:3214   */\n      jump(tag_336)\n    tag_338:\n        /* \"#utility.yul\":2934:2948   */\n      pop\n        /* \"#utility.yul\":3230:3233   */\n      dup6\n        /* \"#utility.yul\":3223:3233   */\n      swap4\n      pop\n        /* \"#utility.yul\":2631:3239   */\n      pop\n      pop\n      pop\n        /* \"#utility.yul\":2507:3239   */\n      swap3\n      swap2\n      pop\n      pop\n      jump\t// out\n        /* \"#utility.yul\":3245:3618   */\n    tag_52:\n        /* \"#utility.yul\":3388:3392   */\n      0x00\n        /* \"#utility.yul\":3426:3428   */\n      0x20\n        /* \"#utility.yul\":3415:3424   */\n      dup3\n        /* \"#utility.yul\":3411:3429   */\n      add\n        /* \"#utility.yul\":3403:3429   */\n      swap1\n      pop\n        /* \"#utility.yul\":3475:3484   */\n      dup2\n        /* \"#utility.yul\":3469:3473   */\n      dup2\n        /* \"#utility.yul\":3465:3485   */\n      sub\n        /* \"#utility.yul\":3461:3462   */\n      0x00\n        /* \"#utility.yul\":3450:3459   */\n      dup4\n        /* \"#utility.yul\":3446:3463   */\n      add\n        /* \"#utility.yul\":3439:3486   */\n      mstore\n        /* \"#utility.yul\":3503:3611   */\n      tag_342\n        /* \"#utility.yul\":3606:3610   */\n      dup2\n        /* \"#utility.yul\":3597:3603   */\n      dup5\n        /* \"#utility.yul\":3503:3611   */\n      tag_273\n      jump\t// in\n    tag_342:\n        /* \"#utility.yul\":3495:3611   */\n      swap1\n      pop\n        /* \"#utility.yul\":3245:3618   */\n      swap3\n      swap2\n      pop\n      pop\n      jump\t// out\n        /* \"#utility.yul\":3624:3684   */\n    tag_274:\n        /* \"#utility.yul\":3652:3655   */\n      0x00\n        /* \"#utility.yul\":3673:3678   */\n      dup2\n        /* \"#utility.yul\":3666:3678   */\n      swap1\n      pop\n        /* \"#utility.yul\":3624:3684   */\n      swap2\n      swap1\n      pop\n      jump\t// out\n        /* \"#utility.yul\":3690:3832   */\n    tag_275:\n        /* \"#utility.yul\":3740:3749   */\n      0x00\n        /* \"#utility.yul\":3773:3826   */\n      tag_345\n        /* \"#utility.yul\":3791:3825   */\n      tag_346\n        /* \"#utility.yul\":3800:3824   */\n      tag_347\n        /* \"#utility.yul\":3818:3823   */\n      dup5\n        /* \"#utility.yul\":3800:3824   */\n      tag_261\n      jump\t// in\n    tag_347:\n        /* \"#utility.yul\":3791:3825   */\n      tag_274\n      jump\t// in\n    tag_346:\n        /* \"#utility.yul\":3773:3826   */\n      tag_261\n      jump\t// in\n    tag_345:\n        /* \"#utility.yul\":3760:3826   */\n      swap1\n      pop\n        /* \"#utility.yul\":3690:3832   */\n      swap2\n      swap1\n      pop\n      jump\t// out\n        /* \"#utility.yul\":3838:3964   */\n    tag_276:\n        /* \"#utility.yul\":3888:3897   */\n      0x00\n        /* \"#utility.yul\":3921:3958   */\n      tag_349\n        /* \"#utility.yul\":3952:3957   */\n      dup3\n        /* \"#utility.yul\":3921:3958   */\n      tag_275\n      jump\t// in\n    tag_349:\n        /* \"#utility.yul\":3908:3958   */\n      swap1\n      pop\n        /* \"#utility.yul\":3838:3964   */\n      swap2\n      swap1\n      pop\n      jump\t// out\n        /* \"#utility.yul\":3970:4110   */\n    tag_277:\n        /* \"#utility.yul\":4034:4043   */\n      0x00\n        /* \"#utility.yul\":4067:4104   */\n      tag_351\n        /* \"#utility.yul\":4098:4103   */\n      dup3\n        /* \"#utility.yul\":4067:4104   */\n      tag_276\n      jump\t// in\n    tag_351:\n        /* \"#utility.yul\":4054:4104   */\n      swap1\n      pop\n        /* \"#utility.yul\":3970:4110   */\n      swap2\n      swap1\n      pop\n      jump\t// out\n        /* \"#utility.yul\":4116:4275   */\n    tag_278:\n        /* \"#utility.yul\":4217:4268   */\n      tag_353\n        /* \"#utility.yul\":4262:4267   */\n      dup2\n        /* \"#utility.yul\":4217:4268   */\n      tag_277\n      jump\t// in\n    tag_353:\n        /* \"#utility.yul\":4212:4215   */\n      dup3\n        /* \"#utility.yul\":4205:4269   */\n      mstore\n        /* \"#utility.yul\":4116:4275   */\n      pop\n      pop\n      jump\t// out\n        /* \"#utility.yul\":4281:4531   */\n    tag_62:\n        /* \"#utility.yul\":4388:4392   */\n      0x00\n        /* \"#utility.yul\":4426:4428   */\n      0x20\n        /* \"#utility.yul\":4415:4424   */\n      dup3\n        /* \"#utility.yul\":4411:4429   */\n      add\n        /* \"#utility.yul\":4403:4429   */\n      swap1\n      pop\n        /* \"#utility.yul\":4439:4524   */\n      tag_355\n        /* \"#utility.yul\":4521:4522   */\n      0x00\n        /* \"#utility.yul\":4510:4519   */\n      dup4\n        /* \"#utility.yul\":4506:4523   */\n      add\n        /* \"#utility.yul\":4497:4503   */\n      dup5\n        /* \"#utility.yul\":4439:4524   */\n      tag_278\n      jump\t// in\n    tag_355:\n        /* \"#utility.yul\":4281:4531   */\n      swap3\n      swap2\n      pop\n      pop\n      jump\t// out\n        /* \"#utility.yul\":4537:4655   */\n    tag_279:\n        /* \"#utility.yul\":4624:4648   */\n      tag_357\n        /* \"#utility.yul\":4642:4647   */\n      dup2\n        /* \"#utility.yul\":4624:4648   */\n      tag_262\n      jump\t// in\n    tag_357:\n        /* \"#utility.yul\":4619:4622   */\n      dup3\n        /* \"#utility.yul\":4612:4649   */\n      mstore\n        /* \"#utility.yul\":4537:4655   */\n      pop\n      pop\n      jump\t// out\n        /* \"#utility.yul\":4661:4883   */\n    tag_66:\n        /* \"#utility.yul\":4754:4758   */\n      0x00\n        /* \"#utility.yul\":4792:4794   */\n      0x20\n        /* \"#utility.yul\":4781:4790   */\n      dup3\n        /* \"#utility.yul\":4777:4795   */\n      add\n        /* \"#utility.yul\":4769:4795   */\n      swap1\n      pop\n        /* \"#utility.yul\":4805:4876   */\n      tag_359\n        /* \"#utility.yul\":4873:4874   */\n      0x00\n        /* \"#utility.yul\":4862:4871   */\n      dup4\n        /* \"#utility.yul\":4858:4875   */\n      add\n        /* \"#utility.yul\":4849:4855   */\n      dup5\n        /* \"#utility.yul\":4805:4876   */\n      tag_279\n      jump\t// in\n    tag_359:\n        /* \"#utility.yul\":4661:4883   */\n      swap3\n      swap2\n      pop\n      pop\n      jump\t// out\n        /* \"#utility.yul\":4889:5553   */\n    tag_71:\n        /* \"#utility.yul\":5094:5098   */\n      0x00\n        /* \"#utility.yul\":5132:5135   */\n      0xa0\n        /* \"#utility.yul\":5121:5130   */\n      dup3\n        /* \"#utility.yul\":5117:5136   */\n      add\n        /* \"#utility.yul\":5109:5136   */\n      swap1\n      pop\n        /* \"#utility.yul\":5146:5217   */\n      tag_361\n        /* \"#utility.yul\":5214:5215   */\n      0x00\n        /* \"#utility.yul\":5203:5212   */\n      dup4\n        /* \"#utility.yul\":5199:5216   */\n      add\n        /* \"#utility.yul\":5190:5196   */\n      dup9\n        /* \"#utility.yul\":5146:5217   */\n      tag_266\n      jump\t// in\n    tag_361:\n        /* \"#utility.yul\":5227:5299   */\n      tag_362\n        /* \"#utility.yul\":5295:5297   */\n      0x20\n        /* \"#utility.yul\":5284:5293   */\n      dup4\n        /* \"#utility.yul\":5280:5298   */\n      add\n        /* \"#utility.yul\":5271:5277   */\n      dup8\n        /* \"#utility.yul\":5227:5299   */\n      tag_266\n      jump\t// in\n    tag_362:\n        /* \"#utility.yul\":5309:5381   */\n      tag_363\n        /* \"#utility.yul\":5377:5379   */\n      0x40\n        /* \"#utility.yul\":5366:5375   */\n      dup4\n        /* \"#utility.yul\":5362:5380   */\n      add\n        /* \"#utility.yul\":5353:5359   */\n      dup7\n        /* \"#utility.yul\":5309:5381   */\n      tag_279\n      jump\t// in\n    tag_363:\n        /* \"#utility.yul\":5391:5463   */\n      tag_364\n        /* \"#utility.yul\":5459:5461   */\n      0x60\n        /* \"#utility.yul\":5448:5457   */\n      dup4\n        /* \"#utility.yul\":5444:5462   */\n      add\n        /* \"#utility.yul\":5435:5441   */\n      dup6\n        /* \"#utility.yul\":5391:5463   */\n      tag_266\n      jump\t// in\n    tag_364:\n        /* \"#utility.yul\":5473:5546   */\n      tag_365\n        /* \"#utility.yul\":5541:5544   */\n      0x80\n        /* \"#utility.yul\":5530:5539   */\n      dup4\n        /* \"#utility.yul\":5526:5545   */\n      add\n        /* \"#utility.yul\":5517:5523   */\n      dup5\n        /* \"#utility.yul\":5473:5546   */\n      tag_266\n      jump\t// in\n    tag_365:\n        /* \"#utility.yul\":4889:5553   */\n      swap7\n      swap6\n      pop\n      pop\n      pop\n      pop\n      pop\n      pop\n      jump\t// out\n        /* \"#utility.yul\":5559:5681   */\n    tag_280:\n        /* \"#utility.yul\":5632:5656   */\n      tag_367\n        /* \"#utility.yul\":5650:5655   */\n      dup2\n        /* \"#utility.yul\":5632:5656   */\n      tag_265\n      jump\t// in\n    tag_367:\n        /* \"#utility.yul\":5625:5630   */\n      dup2\n        /* \"#utility.yul\":5622:5657   */\n      eq\n        /* \"#utility.yul\":5612:5675   */\n      tag_368\n      jumpi\n        /* \"#utility.yul\":5671:5672   */\n      0x00\n        /* \"#utility.yul\":5668:5669   */\n      0x00\n        /* \"#utility.yul\":5661:5673   */\n      revert\n        /* \"#utility.yul\":5612:5675   */\n    tag_368:\n        /* \"#utility.yul\":5559:5681   */\n      pop\n      jump\t// out\n        /* \"#utility.yul\":5687:5826   */\n    tag_281:\n        /* \"#utility.yul\":5733:5738   */\n      0x00\n        /* \"#utility.yul\":5771:5777   */\n      dup2\n        /* \"#utility.yul\":5758:5778   */\n      calldataload\n        /* \"#utility.yul\":5749:5778   */\n      swap1\n      pop\n        /* \"#utility.yul\":5787:5820   */\n      tag_370\n        /* \"#utility.yul\":5814:5819   */\n      dup2\n        /* \"#utility.yul\":5787:5820   */\n      tag_280\n      jump\t// in\n    tag_370:\n        /* \"#utility.yul\":5687:5826   */\n      swap3\n      swap2\n      pop\n      pop\n      jump\t// out\n        /* \"#utility.yul\":5832:6306   */\n    tag_78:\n        /* \"#utility.yul\":5900:5906   */\n      0x00\n        /* \"#utility.yul\":5908:5914   */\n      0x00\n        /* \"#utility.yul\":5957:5959   */\n      0x40\n        /* \"#utility.yul\":5945:5954   */\n      dup4\n        /* \"#utility.yul\":5936:5943   */\n      dup6\n        /* \"#utility.yul\":5932:5955   */\n      sub\n        /* \"#utility.yul\":5928:5960   */\n      slt\n        /* \"#utility.yul\":5925:6044   */\n      iszero\n      tag_372\n      jumpi\n        /* \"#utility.yul\":5963:6042   */\n      tag_373\n      tag_259\n      jump\t// in\n    tag_373:\n        /* \"#utility.yul\":5925:6044   */\n    tag_372:\n        /* \"#utility.yul\":6083:6084   */\n      0x00\n        /* \"#utility.yul\":6108:6161   */\n      tag_374\n        /* \"#utility.yul\":6153:6160   */\n      dup6\n        /* \"#utility.yul\":6144:6150   */\n      dup3\n        /* \"#utility.yul\":6133:6142   */\n      dup7\n        /* \"#utility.yul\":6129:6151   */\n      add\n        /* \"#utility.yul\":6108:6161   */\n      tag_264\n      jump\t// in\n    tag_374:\n        /* \"#utility.yul\":6098:6161   */\n      swap3\n      pop\n        /* \"#utility.yul\":6054:6171   */\n      pop\n        /* \"#utility.yul\":6210:6212   */\n      0x20\n        /* \"#utility.yul\":6236:6289   */\n      tag_375\n        /* \"#utility.yul\":6281:6288   */\n      dup6\n        /* \"#utility.yul\":6272:6278   */\n      dup3\n        /* \"#utility.yul\":6261:6270   */\n      dup7\n        /* \"#utility.yul\":6257:6279   */\n      add\n        /* \"#utility.yul\":6236:6289   */\n      tag_281\n      jump\t// in\n    tag_375:\n        /* \"#utility.yul\":6226:6289   */\n      swap2\n      pop\n        /* \"#utility.yul\":6181:6299   */\n      pop\n        /* \"#utility.yul\":5832:6306   */\n      swap3\n      pop\n      swap3\n      swap1\n      pop\n      jump\t// out\n        /* \"#utility.yul\":6312:6786   */\n    tag_83:\n        /* \"#utility.yul\":6380:6386   */\n      0x00\n        /* \"#utility.yul\":6388:6394   */\n      0x00\n        /* \"#utility.yul\":6437:6439   */\n      0x40\n        /* \"#utility.yul\":6425:6434   */\n      dup4\n        /* \"#utility.yul\":6416:6423   */\n      dup6\n        /* \"#utility.yul\":6412:6435   */\n      sub\n        /* \"#utility.yul\":6408:6440   */\n      slt\n        /* \"#utility.yul\":6405:6524   */\n      iszero\n      tag_377\n      jumpi\n        /* \"#utility.yul\":6443:6522   */\n      tag_378\n      tag_259\n      jump\t// in\n    tag_378:\n        /* \"#utility.yul\":6405:6524   */\n    tag_377:\n        /* \"#utility.yul\":6563:6564   */\n      0x00\n        /* \"#utility.yul\":6588:6641   */\n      tag_379\n        /* \"#utility.yul\":6633:6640   */\n      dup6\n        /* \"#utility.yul\":6624:6630   */\n      dup3\n        /* \"#utility.yul\":6613:6622   */\n      dup7\n        /* \"#utility.yul\":6609:6631   */\n      add\n        /* \"#utility.yul\":6588:6641   */\n      tag_281\n      jump\t// in\n    tag_379:\n        /* \"#utility.yul\":6578:6641   */\n      swap3\n      pop\n        /* \"#utility.yul\":6534:6651   */\n      pop\n        /* \"#utility.yul\":6690:6692   */\n      0x20\n        /* \"#utility.yul\":6716:6769   */\n      tag_380\n        /* \"#utility.yul\":6761:6768   */\n      dup6\n        /* \"#utility.yul\":6752:6758   */\n      dup3\n        /* \"#utility.yul\":6741:6750   */\n      dup7\n        /* \"#utility.yul\":6737:6759   */\n      add\n        /* \"#utility.yul\":6716:6769   */\n      tag_264\n      jump\t// in\n    tag_380:\n        /* \"#utility.yul\":6706:6769   */\n      swap2\n      pop\n        /* \"#utility.yul\":6661:6779   */\n      pop\n        /* \"#utility.yul\":6312:6786   */\n      swap3\n      pop\n      swap3\n      swap1\n      pop\n      jump\t// out\n        /* \"#utility.yul\":6792:6933   */\n    tag_282:\n        /* \"#utility.yul\":6857:6866   */\n      0x00\n        /* \"#utility.yul\":6890:6927   */\n      tag_382\n        /* \"#utility.yul\":6921:6926   */\n      dup3\n        /* \"#utility.yul\":6890:6927   */\n      tag_276\n      jump\t// in\n    tag_382:\n        /* \"#utility.yul\":6877:6927   */\n      swap1\n      pop\n        /* \"#utility.yul\":6792:6933   */\n      swap2\n      swap1\n      pop\n      jump\t// out\n        /* \"#utility.yul\":6939:7100   */\n    tag_283:\n        /* \"#utility.yul\":7041:7093   */\n      tag_384\n        /* \"#utility.yul\":7087:7092   */\n      dup2\n        /* \"#utility.yul\":7041:7093   */\n      tag_282\n      jump\t// in\n    tag_384:\n        /* \"#utility.yul\":7036:7039   */\n      dup3\n        /* \"#utility.yul\":7029:7094   */\n      mstore\n        /* \"#utility.yul\":6939:7100   */\n      pop\n      pop\n      jump\t// out\n        /* \"#utility.yul\":7106:7358   */\n    tag_91:\n        /* \"#utility.yul\":7214:7218   */\n      0x00\n        /* \"#utility.yul\":7252:7254   */\n      0x20\n        /* \"#utility.yul\":7241:7250   */\n      dup3\n        /* \"#utility.yul\":7237:7255   */\n      add\n        /* \"#utility.yul\":7229:7255   */\n      swap1\n      pop\n        /* \"#utility.yul\":7265:7351   */\n      tag_386\n        /* \"#utility.yul\":7348:7349   */\n      0x00\n        /* \"#utility.yul\":7337:7346   */\n      dup4\n        /* \"#utility.yul\":7333:7350   */\n      add\n        /* \"#utility.yul\":7324:7330   */\n      dup5\n        /* \"#utility.yul\":7265:7351   */\n      tag_283\n      jump\t// in\n    tag_386:\n        /* \"#utility.yul\":7106:7358   */\n      swap3\n      swap2\n      pop\n      pop\n      jump\t// out\n        /* \"#utility.yul\":7364:7544   */\n    tag_284:\n        /* \"#utility.yul\":7412:7489   */\n      0x4e487b7100000000000000000000000000000000000000000000000000000000\n        /* \"#utility.yul\":7409:7410   */\n      0x00\n        /* \"#utility.yul\":7402:7490   */\n      mstore\n        /* \"#utility.yul\":7509:7513   */\n      0x11\n        /* \"#utility.yul\":7506:7507   */\n      0x04\n        /* \"#utility.yul\":7499:7514   */\n      mstore\n        /* \"#utility.yul\":7533:7537   */\n      0x24\n        /* \"#utility.yul\":7530:7531   */\n      0x00\n        /* \"#utility.yul\":7523:7538   */\n      revert\n        /* \"#utility.yul\":7550:7741   */\n    tag_94:\n        /* \"#utility.yul\":7590:7593   */\n      0x00\n        /* \"#utility.yul\":7609:7629   */\n      tag_389\n        /* \"#utility.yul\":7627:7628   */\n      dup3\n        /* \"#utility.yul\":7609:7629   */\n      tag_265\n      jump\t// in\n    tag_389:\n        /* \"#utility.yul\":7604:7629   */\n      swap2\n      pop\n        /* \"#utility.yul\":7643:7663   */\n      tag_390\n        /* \"#utility.yul\":7661:7662   */\n      dup4\n        /* \"#utility.yul\":7643:7663   */\n      tag_265\n      jump\t// in\n    tag_390:\n        /* \"#utility.yul\":7638:7663   */\n      swap3\n      pop\n        /* \"#utility.yul\":7686:7687   */\n      dup3\n        /* \"#utility.yul\":7683:7684   */\n      dup3\n        /* \"#utility.yul\":7679:7688   */\n      add\n        /* \"#utility.yul\":7672:7688   */\n      swap1\n      pop\n        /* \"#utility.yul\":7707:7710   */\n      dup1\n        /* \"#utility.yul\":7704:7705   */\n      dup3\n        /* \"#utility.yul\":7701:7711   */\n      gt\n        /* \"#utility.yul\":7698:7734   */\n      iszero\n      tag_391\n      jumpi\n        /* \"#utility.yul\":7714:7732   */\n      tag_392\n      tag_284\n      jump\t// in\n    tag_392:\n        /* \"#utility.yul\":7698:7734   */\n    tag_391:\n        /* \"#utility.yul\":7550:7741   */\n      swap3\n      swap2\n      pop\n      pop\n      jump\t// out\n        /* \"#utility.yul\":7747:7941   */\n    tag_97:\n        /* \"#utility.yul\":7787:7791   */\n      0x00\n        /* \"#utility.yul\":7807:7827   */\n      tag_394\n        /* \"#utility.yul\":7825:7826   */\n      dup3\n        /* \"#utility.yul\":7807:7827   */\n      tag_265\n      jump\t// in\n    tag_394:\n        /* \"#utility.yul\":7802:7827   */\n      swap2\n      pop\n        /* \"#utility.yul\":7841:7861   */\n      tag_395\n        /* \"#utility.yul\":7859:7860   */\n      dup4\n        /* \"#utility.yul\":7841:7861   */\n      tag_265\n      jump\t// in\n    tag_395:\n        /* \"#utility.yul\":7836:7861   */\n      swap3\n      pop\n        /* \"#utility.yul\":7885:7886   */\n      dup3\n        /* \"#utility.yul\":7882:7883   */\n      dup3\n        /* \"#utility.yul\":7878:7887   */\n      sub\n        /* \"#utility.yul\":7870:7887   */\n      swap1\n      pop\n        /* \"#utility.yul\":7909:7910   */\n      dup2\n        /* \"#utility.yul\":7903:7907   */\n      dup2\n        /* \"#utility.yul\":7900:7911   */\n      gt\n        /* \"#utility.yul\":7897:7934   */\n      iszero\n      tag_396\n      jumpi\n        /* \"#utility.yul\":7914:7932   */\n      tag_397\n      tag_284\n      jump\t// in\n    tag_397:\n        /* \"#utility.yul\":7897:7934   */\n    tag_396:\n        /* \"#utility.yul\":7747:7941   */\n      swap3\n      swap2\n      pop\n      pop\n      jump\t// out\n        /* \"#utility.yul\":7947:8116   */\n    tag_285:\n        /* \"#utility.yul\":8031:8042   */\n      0x00\n        /* \"#utility.yul\":8065:8071   */\n      dup3\n        /* \"#utility.yul\":8060:8063   */\n      dup3\n        /* \"#utility.yul\":8053:8072   */\n      mstore\n        /* \"#utility.yul\":8105:8109   */\n      0x20\n        /* \"#utility.yul\":8100:8103   */\n      dup3\n        /* \"#utility.yul\":8096:8110   */\n      add\n        /* \"#utility.yul\":8081:8110   */\n      swap1\n      pop\n        /* \"#utility.yul\":7947:8116   */\n      swap3\n      swap2\n      pop\n      pop\n      jump\t// out\n        /* \"#utility.yul\":8122:8285   */\n    tag_286:\n        /* \"#utility.yul\":8262:8277   */\n      0x456d7074792062616c616e636500000000000000000000000000000000000000\n        /* \"#utility.yul\":8258:8259   */\n      0x00\n        /* \"#utility.yul\":8250:8256   */\n      dup3\n        /* \"#utility.yul\":8246:8260   */\n      add\n        /* \"#utility.yul\":8239:8278   */\n      mstore\n        /* \"#utility.yul\":8122:8285   */\n      pop\n      jump\t// out\n        /* \"#utility.yul\":8291:8657   */\n    tag_287:\n        /* \"#utility.yul\":8433:8436   */\n      0x00\n        /* \"#utility.yul\":8454:8521   */\n      tag_401\n        /* \"#utility.yul\":8518:8520   */\n      0x0d\n        /* \"#utility.yul\":8513:8516   */\n      dup4\n        /* \"#utility.yul\":8454:8521   */\n      tag_285\n      jump\t// in\n    tag_401:\n        /* \"#utility.yul\":8447:8521   */\n      swap2\n      pop\n        /* \"#utility.yul\":8530:8623   */\n      tag_402\n        /* \"#utility.yul\":8619:8622   */\n      dup3\n        /* \"#utility.yul\":8530:8623   */\n      tag_286\n      jump\t// in\n    tag_402:\n        /* \"#utility.yul\":8648:8650   */\n      0x20\n        /* \"#utility.yul\":8643:8646   */\n      dup3\n        /* \"#utility.yul\":8639:8651   */\n      add\n        /* \"#utility.yul\":8632:8651   */\n      swap1\n      pop\n        /* \"#utility.yul\":8291:8657   */\n      swap2\n      swap1\n      pop\n      jump\t// out\n        /* \"#utility.yul\":8663:9082   */\n    tag_111:\n        /* \"#utility.yul\":8829:8833   */\n      0x00\n        /* \"#utility.yul\":8867:8869   */\n      0x20\n        /* \"#utility.yul\":8856:8865   */\n      dup3\n        /* \"#utility.yul\":8852:8870   */\n      add\n        /* \"#utility.yul\":8844:8870   */\n      swap1\n      pop\n        /* \"#utility.yul\":8916:8925   */\n      dup2\n        /* \"#utility.yul\":8910:8914   */\n      dup2\n        /* \"#utility.yul\":8906:8926   */\n      sub\n        /* \"#utility.yul\":8902:8903   */\n      0x00\n        /* \"#utility.yul\":8891:8900   */\n      dup4\n        /* \"#utility.yul\":8887:8904   */\n      add\n        /* \"#utility.yul\":8880:8927   */\n      mstore\n        /* \"#utility.yul\":8944:9075   */\n      tag_404\n        /* \"#utility.yul\":9070:9074   */\n      dup2\n        /* \"#utility.yul\":8944:9075   */\n      tag_287\n      jump\t// in\n    tag_404:\n        /* \"#utility.yul\":8936:9075   */\n      swap1\n      pop\n        /* \"#utility.yul\":8663:9082   */\n      swap2\n      swap1\n      pop\n      jump\t// out\n        /* \"#utility.yul\":9088:9231   */\n    tag_288:\n        /* \"#utility.yul\":9145:9150   */\n      0x00\n        /* \"#utility.yul\":9176:9182   */\n      dup2\n        /* \"#utility.yul\":9170:9183   */\n      mload\n        /* \"#utility.yul\":9161:9183   */\n      swap1\n      pop\n        /* \"#utility.yul\":9192:9225   */\n      tag_406\n        /* \"#utility.yul\":9219:9224   */\n      dup2\n        /* \"#utility.yul\":9192:9225   */\n      tag_280\n      jump\t// in\n    tag_406:\n        /* \"#utility.yul\":9088:9231   */\n      swap3\n      swap2\n      pop\n      pop\n      jump\t// out\n        /* \"#utility.yul\":9237:9588   */\n    tag_116:\n        /* \"#utility.yul\":9307:9313   */\n      0x00\n        /* \"#utility.yul\":9356:9358   */\n      0x20\n        /* \"#utility.yul\":9344:9353   */\n      dup3\n        /* \"#utility.yul\":9335:9342   */\n      dup5\n        /* \"#utility.yul\":9331:9354   */\n      sub\n        /* \"#utility.yul\":9327:9359   */\n      slt\n        /* \"#utility.yul\":9324:9443   */\n      iszero\n      tag_408\n      jumpi\n        /* \"#utility.yul\":9362:9441   */\n      tag_409\n      tag_259\n      jump\t// in\n    tag_409:\n        /* \"#utility.yul\":9324:9443   */\n    tag_408:\n        /* \"#utility.yul\":9482:9483   */\n      0x00\n        /* \"#utility.yul\":9507:9571   */\n      tag_410\n        /* \"#utility.yul\":9563:9570   */\n      dup5\n        /* \"#utility.yul\":9554:9560   */\n      dup3\n        /* \"#utility.yul\":9543:9552   */\n      dup6\n        /* \"#utility.yul\":9539:9561   */\n      add\n        /* \"#utility.yul\":9507:9571   */\n      tag_288\n      jump\t// in\n    tag_410:\n        /* \"#utility.yul\":9497:9571   */\n      swap2\n      pop\n        /* \"#utility.yul\":9453:9581   */\n      pop\n        /* \"#utility.yul\":9237:9588   */\n      swap3\n      swap2\n      pop\n      pop\n      jump\t// out\n        /* \"#utility.yul\":9594:9757   */\n    tag_289:\n        /* \"#utility.yul\":9734:9749   */\n      0x52656465656d206661696c656400000000000000000000000000000000000000\n        /* \"#utility.yul\":9730:9731   */\n      0x00\n        /* \"#utility.yul\":9722:9728   */\n      dup3\n        /* \"#utility.yul\":9718:9732   */\n      add\n        /* \"#utility.yul\":9711:9750   */\n      mstore\n        /* \"#utility.yul\":9594:9757   */\n      pop\n      jump\t// out\n        /* \"#utility.yul\":9763:10129   */\n    tag_290:\n        /* \"#utility.yul\":9905:9908   */\n      0x00\n        /* \"#utility.yul\":9926:9993   */\n      tag_413\n        /* \"#utility.yul\":9990:9992   */\n      0x0d\n        /* \"#utility.yul\":9985:9988   */\n      dup4\n        /* \"#utility.yul\":9926:9993   */\n      tag_285\n      jump\t// in\n    tag_413:\n        /* \"#utility.yul\":9919:9993   */\n      swap2\n      pop\n        /* \"#utility.yul\":10002:10095   */\n      tag_414\n        /* \"#utility.yul\":10091:10094   */\n      dup3\n        /* \"#utility.yul\":10002:10095   */\n      tag_289\n      jump\t// in\n    tag_414:\n        /* \"#utility.yul\":10120:10122   */\n      0x20\n        /* \"#utility.yul\":10115:10118   */\n      dup3\n        /* \"#utility.yul\":10111:10123   */\n      add\n        /* \"#utility.yul\":10104:10123   */\n      swap1\n      pop\n        /* \"#utility.yul\":9763:10129   */\n      swap2\n      swap1\n      pop\n      jump\t// out\n        /* \"#utility.yul\":10135:10554   */\n    tag_123:\n        /* \"#utility.yul\":10301:10305   */\n      0x00\n        /* \"#utility.yul\":10339:10341   */\n      0x20\n        /* \"#utility.yul\":10328:10337   */\n      dup3\n        /* \"#utility.yul\":10324:10342   */\n      add\n        /* \"#utility.yul\":10316:10342   */\n      swap1\n      pop\n        /* \"#utility.yul\":10388:10397   */\n      dup2\n        /* \"#utility.yul\":10382:10386   */\n      dup2\n        /* \"#utility.yul\":10378:10398   */\n      sub\n        /* \"#utility.yul\":10374:10375   */\n      0x00\n        /* \"#utility.yul\":10363:10372   */\n      dup4\n        /* \"#utility.yul\":10359:10376   */\n      add\n        /* \"#utility.yul\":10352:10399   */\n      mstore\n        /* \"#utility.yul\":10416:10547   */\n      tag_416\n        /* \"#utility.yul\":10542:10546   */\n      dup2\n        /* \"#utility.yul\":10416:10547   */\n      tag_290\n      jump\t// in\n    tag_416:\n        /* \"#utility.yul\":10408:10547   */\n      swap1\n      pop\n        /* \"#utility.yul\":10135:10554   */\n      swap2\n      swap1\n      pop\n      jump\t// out\n        /* \"#utility.yul\":10560:10970   */\n    tag_132:\n        /* \"#utility.yul\":10600:10607   */\n      0x00\n        /* \"#utility.yul\":10623:10643   */\n      tag_418\n        /* \"#utility.yul\":10641:10642   */\n      dup3\n        /* \"#utility.yul\":10623:10643   */\n      tag_265\n      jump\t// in\n    tag_418:\n        /* \"#utility.yul\":10618:10643   */\n      swap2\n      pop\n        /* \"#utility.yul\":10657:10677   */\n      tag_419\n        /* \"#utility.yul\":10675:10676   */\n      dup4\n        /* \"#utility.yul\":10657:10677   */\n      tag_265\n      jump\t// in\n    tag_419:\n        /* \"#utility.yul\":10652:10677   */\n      swap3\n      pop\n        /* \"#utility.yul\":10712:10713   */\n      dup3\n        /* \"#utility.yul\":10709:10710   */\n      dup3\n        /* \"#utility.yul\":10705:10714   */\n      mul\n        /* \"#utility.yul\":10734:10764   */\n      tag_420\n        /* \"#utility.yul\":10752:10763   */\n      dup2\n        /* \"#utility.yul\":10734:10764   */\n      tag_265\n      jump\t// in\n    tag_420:\n        /* \"#utility.yul\":10723:10764   */\n      swap2\n      pop\n        /* \"#utility.yul\":10913:10914   */\n      dup3\n        /* \"#utility.yul\":10904:10911   */\n      dup3\n        /* \"#utility.yul\":10900:10915   */\n      div\n        /* \"#utility.yul\":10897:10898   */\n      dup5\n        /* \"#utility.yul\":10894:10916   */\n      eq\n        /* \"#utility.yul\":10874:10875   */\n      dup4\n        /* \"#utility.yul\":10867:10876   */\n      iszero\n        /* \"#utility.yul\":10847:10930   */\n      or\n        /* \"#utility.yul\":10824:10963   */\n      tag_421\n      jumpi\n        /* \"#utility.yul\":10943:10961   */\n      tag_422\n      tag_284\n      jump\t// in\n    tag_422:\n        /* \"#utility.yul\":10824:10963   */\n    tag_421:\n        /* \"#utility.yul\":10608:10970   */\n      pop\n        /* \"#utility.yul\":10560:10970   */\n      swap3\n      swap2\n      pop\n      pop\n      jump\t// out\n        /* \"#utility.yul\":10976:11156   */\n    tag_291:\n        /* \"#utility.yul\":11024:11101   */\n      0x4e487b7100000000000000000000000000000000000000000000000000000000\n        /* \"#utility.yul\":11021:11022   */\n      0x00\n        /* \"#utility.yul\":11014:11102   */\n      mstore\n        /* \"#utility.yul\":11121:11125   */\n      0x12\n        /* \"#utility.yul\":11118:11119   */\n      0x04\n        /* \"#utility.yul\":11111:11126   */\n      mstore\n        /* \"#utility.yul\":11145:11149   */\n      0x24\n        /* \"#utility.yul\":11142:11143   */\n      0x00\n        /* \"#utility.yul\":11135:11150   */\n      revert\n        /* \"#utility.yul\":11162:11347   */\n    tag_134:\n        /* \"#utility.yul\":11202:11203   */\n      0x00\n        /* \"#utility.yul\":11219:11239   */\n      tag_425\n        /* \"#utility.yul\":11237:11238   */\n      dup3\n        /* \"#utility.yul\":11219:11239   */\n      tag_265\n      jump\t// in\n    tag_425:\n        /* \"#utility.yul\":11214:11239   */\n      swap2\n      pop\n        /* \"#utility.yul\":11253:11273   */\n      tag_426\n        /* \"#utility.yul\":11271:11272   */\n      dup4\n        /* \"#utility.yul\":11253:11273   */\n      tag_265\n      jump\t// in\n    tag_426:\n        /* \"#utility.yul\":11248:11273   */\n      swap3\n      pop\n        /* \"#utility.yul\":11292:11293   */\n      dup3\n        /* \"#utility.yul\":11282:11317   */\n      tag_427\n      jumpi\n        /* \"#utility.yul\":11297:11315   */\n      tag_428\n      tag_291\n      jump\t// in\n    tag_428:\n        /* \"#utility.yul\":11282:11317   */\n    tag_427:\n        /* \"#utility.yul\":11339:11340   */\n      dup3\n        /* \"#utility.yul\":11336:11337   */\n      dup3\n        /* \"#utility.yul\":11332:11341   */\n      div\n        /* \"#utility.yul\":11327:11341   */\n      swap1\n      pop\n        /* \"#utility.yul\":11162:11347   */\n      swap3\n      swap2\n      pop\n      pop\n      jump\t// out\n        /* \"#utility.yul\":11353:11513   */\n    tag_292:\n        /* \"#utility.yul\":11493:11505   */\n      0x416d6f756e74203e203000000000000000000000000000000000000000000000\n        /* \"#utility.yul\":11489:11490   */\n      0x00\n        /* \"#utility.yul\":11481:11487   */\n      dup3\n        /* \"#utility.yul\":11477:11491   */\n      add\n        /* \"#utility.yul\":11470:11506   */\n      mstore\n        /* \"#utility.yul\":11353:11513   */\n      pop\n      jump\t// out\n        /* \"#utility.yul\":11519:11885   */\n    tag_293:\n        /* \"#utility.yul\":11661:11664   */\n      0x00\n        /* \"#utility.yul\":11682:11749   */\n      tag_431\n        /* \"#utility.yul\":11746:11748   */\n      0x0a\n        /* \"#utility.yul\":11741:11744   */\n      dup4\n        /* \"#utility.yul\":11682:11749   */\n      tag_285\n      jump\t// in\n    tag_431:\n        /* \"#utility.yul\":11675:11749   */\n      swap2\n      pop\n        /* \"#utility.yul\":11758:11851   */\n      tag_432\n        /* \"#utility.yul\":11847:11850   */\n      dup3\n        /* \"#utility.yul\":11758:11851   */\n      tag_292\n      jump\t// in\n    tag_432:\n        /* \"#utility.yul\":11876:11878   */\n      0x20\n        /* \"#utility.yul\":11871:11874   */\n      dup3\n        /* \"#utility.yul\":11867:11879   */\n      add\n        /* \"#utility.yul\":11860:11879   */\n      swap1\n      pop\n        /* \"#utility.yul\":11519:11885   */\n      swap2\n      swap1\n      pop\n      jump\t// out\n        /* \"#utility.yul\":11891:12310   */\n    tag_190:\n        /* \"#utility.yul\":12057:12061   */\n      0x00\n        /* \"#utility.yul\":12095:12097   */\n      0x20\n        /* \"#utility.yul\":12084:12093   */\n      dup3\n        /* \"#utility.yul\":12080:12098   */\n      add\n        /* \"#utility.yul\":12072:12098   */\n      swap1\n      pop\n        /* \"#utility.yul\":12144:12153   */\n      dup2\n        /* \"#utility.yul\":12138:12142   */\n      dup2\n        /* \"#utility.yul\":12134:12154   */\n      sub\n        /* \"#utility.yul\":12130:12131   */\n      0x00\n        /* \"#utility.yul\":12119:12128   */\n      dup4\n        /* \"#utility.yul\":12115:12132   */\n      add\n        /* \"#utility.yul\":12108:12155   */\n      mstore\n        /* \"#utility.yul\":12172:12303   */\n      tag_434\n        /* \"#utility.yul\":12298:12302   */\n      dup2\n        /* \"#utility.yul\":12172:12303   */\n      tag_293\n      jump\t// in\n    tag_434:\n        /* \"#utility.yul\":12164:12303   */\n      swap1\n      pop\n        /* \"#utility.yul\":11891:12310   */\n      swap2\n      swap1\n      pop\n      jump\t// out\n        /* \"#utility.yul\":12316:12482   */\n    tag_294:\n        /* \"#utility.yul\":12456:12474   */\n      0x4e6f2073656c662d726566657272616c00000000000000000000000000000000\n        /* \"#utility.yul\":12452:12453   */\n      0x00\n        /* \"#utility.yul\":12444:12450   */\n      dup3\n        /* \"#utility.yul\":12440:12454   */\n      add\n        /* \"#utility.yul\":12433:12475   */\n      mstore\n        /* \"#utility.yul\":12316:12482   */\n      pop\n      jump\t// out\n        /* \"#utility.yul\":12488:12854   */\n    tag_295:\n        /* \"#utility.yul\":12630:12633   */\n      0x00\n        /* \"#utility.yul\":12651:12718   */\n      tag_437\n        /* \"#utility.yul\":12715:12717   */\n      0x10\n        /* \"#utility.yul\":12710:12713   */\n      dup4\n        /* \"#utility.yul\":12651:12718   */\n      tag_285\n      jump\t// in\n    tag_437:\n        /* \"#utility.yul\":12644:12718   */\n      swap2\n      pop\n        /* \"#utility.yul\":12727:12820   */\n      tag_438\n        /* \"#utility.yul\":12816:12819   */\n      dup3\n        /* \"#utility.yul\":12727:12820   */\n      tag_294\n      jump\t// in\n    tag_438:\n        /* \"#utility.yul\":12845:12847   */\n      0x20\n        /* \"#utility.yul\":12840:12843   */\n      dup3\n        /* \"#utility.yul\":12836:12848   */\n      add\n        /* \"#utility.yul\":12829:12848   */\n      swap1\n      pop\n        /* \"#utility.yul\":12488:12854   */\n      swap2\n      swap1\n      pop\n      jump\t// out\n        /* \"#utility.yul\":12860:13279   */\n    tag_193:\n        /* \"#utility.yul\":13026:13030   */\n      0x00\n        /* \"#utility.yul\":13064:13066   */\n      0x20\n        /* \"#utility.yul\":13053:13062   */\n      dup3\n        /* \"#utility.yul\":13049:13067   */\n      add\n        /* \"#utility.yul\":13041:13067   */\n      swap1\n      pop\n        /* \"#utility.yul\":13113:13122   */\n      dup2\n        /* \"#utility.yul\":13107:13111   */\n      dup2\n        /* \"#utility.yul\":13103:13123   */\n      sub\n        /* \"#utility.yul\":13099:13100   */\n      0x00\n        /* \"#utility.yul\":13088:13097   */\n      dup4\n        /* \"#utility.yul\":13084:13101   */\n      add\n        /* \"#utility.yul\":13077:13124   */\n      mstore\n        /* \"#utility.yul\":13141:13272   */\n      tag_440\n        /* \"#utility.yul\":13267:13271   */\n      dup2\n        /* \"#utility.yul\":13141:13272   */\n      tag_295\n      jump\t// in\n    tag_440:\n        /* \"#utility.yul\":13133:13272   */\n      swap1\n      pop\n        /* \"#utility.yul\":12860:13279   */\n      swap2\n      swap1\n      pop\n      jump\t// out\n        /* \"#utility.yul\":13285:13617   */\n    tag_200:\n        /* \"#utility.yul\":13406:13410   */\n      0x00\n        /* \"#utility.yul\":13444:13446   */\n      0x40\n        /* \"#utility.yul\":13433:13442   */\n      dup3\n        /* \"#utility.yul\":13429:13447   */\n      add\n        /* \"#utility.yul\":13421:13447   */\n      swap1\n      pop\n        /* \"#utility.yul\":13457:13528   */\n      tag_442\n        /* \"#utility.yul\":13525:13526   */\n      0x00\n        /* \"#utility.yul\":13514:13523   */\n      dup4\n        /* \"#utility.yul\":13510:13527   */\n      add\n        /* \"#utility.yul\":13501:13507   */\n      dup6\n        /* \"#utility.yul\":13457:13528   */\n      tag_279\n      jump\t// in\n    tag_442:\n        /* \"#utility.yul\":13538:13610   */\n      tag_443\n        /* \"#utility.yul\":13606:13608   */\n      0x20\n        /* \"#utility.yul\":13595:13604   */\n      dup4\n        /* \"#utility.yul\":13591:13609   */\n      add\n        /* \"#utility.yul\":13582:13588   */\n      dup5\n        /* \"#utility.yul\":13538:13610   */\n      tag_266\n      jump\t// in\n    tag_443:\n        /* \"#utility.yul\":13285:13617   */\n      swap4\n      swap3\n      pop\n      pop\n      pop\n      jump\t// out\n        /* \"#utility.yul\":13623:13713   */\n    tag_296:\n        /* \"#utility.yul\":13657:13664   */\n      0x00\n        /* \"#utility.yul\":13700:13705   */\n      dup2\n        /* \"#utility.yul\":13693:13706   */\n      iszero\n        /* \"#utility.yul\":13686:13707   */\n      iszero\n        /* \"#utility.yul\":13675:13707   */\n      swap1\n      pop\n        /* \"#utility.yul\":13623:13713   */\n      swap2\n      swap1\n      pop\n      jump\t// out\n        /* \"#utility.yul\":13719:13835   */\n    tag_297:\n        /* \"#utility.yul\":13789:13810   */\n      tag_446\n        /* \"#utility.yul\":13804:13809   */\n      dup2\n        /* \"#utility.yul\":13789:13810   */\n      tag_296\n      jump\t// in\n    tag_446:\n        /* \"#utility.yul\":13782:13787   */\n      dup2\n        /* \"#utility.yul\":13779:13811   */\n      eq\n        /* \"#utility.yul\":13769:13829   */\n      tag_447\n      jumpi\n        /* \"#utility.yul\":13825:13826   */\n      0x00\n        /* \"#utility.yul\":13822:13823   */\n      0x00\n        /* \"#utility.yul\":13815:13827   */\n      revert\n        /* \"#utility.yul\":13769:13829   */\n    tag_447:\n        /* \"#utility.yul\":13719:13835   */\n      pop\n      jump\t// out\n        /* \"#utility.yul\":13841:13978   */\n    tag_298:\n        /* \"#utility.yul\":13895:13900   */\n      0x00\n        /* \"#utility.yul\":13926:13932   */\n      dup2\n        /* \"#utility.yul\":13920:13933   */\n      mload\n        /* \"#utility.yul\":13911:13933   */\n      swap1\n      pop\n        /* \"#utility.yul\":13942:13972   */\n      tag_449\n        /* \"#utility.yul\":13966:13971   */\n      dup2\n        /* \"#utility.yul\":13942:13972   */\n      tag_297\n      jump\t// in\n    tag_449:\n        /* \"#utility.yul\":13841:13978   */\n      swap3\n      swap2\n      pop\n      pop\n      jump\t// out\n        /* \"#utility.yul\":13984:14329   */\n    tag_204:\n        /* \"#utility.yul\":14051:14057   */\n      0x00\n        /* \"#utility.yul\":14100:14102   */\n      0x20\n        /* \"#utility.yul\":14088:14097   */\n      dup3\n        /* \"#utility.yul\":14079:14086   */\n      dup5\n        /* \"#utility.yul\":14075:14098   */\n      sub\n        /* \"#utility.yul\":14071:14103   */\n      slt\n        /* \"#utility.yul\":14068:14187   */\n      iszero\n      tag_451\n      jumpi\n        /* \"#utility.yul\":14106:14185   */\n      tag_452\n      tag_259\n      jump\t// in\n    tag_452:\n        /* \"#utility.yul\":14068:14187   */\n    tag_451:\n        /* \"#utility.yul\":14226:14227   */\n      0x00\n        /* \"#utility.yul\":14251:14312   */\n      tag_453\n        /* \"#utility.yul\":14304:14311   */\n      dup5\n        /* \"#utility.yul\":14295:14301   */\n      dup3\n        /* \"#utility.yul\":14284:14293   */\n      dup6\n        /* \"#utility.yul\":14280:14302   */\n      add\n        /* \"#utility.yul\":14251:14312   */\n      tag_298\n      jump\t// in\n    tag_453:\n        /* \"#utility.yul\":14241:14312   */\n      swap2\n      pop\n        /* \"#utility.yul\":14197:14322   */\n      pop\n        /* \"#utility.yul\":13984:14329   */\n      swap3\n      swap2\n      pop\n      pop\n      jump\t// out\n        /* \"#utility.yul\":14335:14496   */\n    tag_299:\n        /* \"#utility.yul\":14475:14488   */\n      0x4d696e74206661696c6564000000000000000000000000000000000000000000\n        /* \"#utility.yul\":14471:14472   */\n      0x00\n        /* \"#utility.yul\":14463:14469   */\n      dup3\n        /* \"#utility.yul\":14459:14473   */\n      add\n        /* \"#utility.yul\":14452:14489   */\n      mstore\n        /* \"#utility.yul\":14335:14496   */\n      pop\n      jump\t// out\n        /* \"#utility.yul\":14502:14868   */\n    tag_300:\n        /* \"#utility.yul\":14644:14647   */\n      0x00\n        /* \"#utility.yul\":14665:14732   */\n      tag_456\n        /* \"#utility.yul\":14729:14731   */\n      0x0b\n        /* \"#utility.yul\":14724:14727   */\n      dup4\n        /* \"#utility.yul\":14665:14732   */\n      tag_285\n      jump\t// in\n    tag_456:\n        /* \"#utility.yul\":14658:14732   */\n      swap2\n      pop\n        /* \"#utility.yul\":14741:14834   */\n      tag_457\n        /* \"#utility.yul\":14830:14833   */\n      dup3\n        /* \"#utility.yul\":14741:14834   */\n      tag_299\n      jump\t// in\n    tag_457:\n        /* \"#utility.yul\":14859:14861   */\n      0x20\n        /* \"#utility.yul\":14854:14857   */\n      dup3\n        /* \"#utility.yul\":14850:14862   */\n      add\n        /* \"#utility.yul\":14843:14862   */\n      swap1\n      pop\n        /* \"#utility.yul\":14502:14868   */\n      swap2\n      swap1\n      pop\n      jump\t// out\n        /* \"#utility.yul\":14874:15293   */\n    tag_215:\n        /* \"#utility.yul\":15040:15044   */\n      0x00\n        /* \"#utility.yul\":15078:15080   */\n      0x20\n        /* \"#utility.yul\":15067:15076   */\n      dup3\n        /* \"#utility.yul\":15063:15081   */\n      add\n        /* \"#utility.yul\":15055:15081   */\n      swap1\n      pop\n        /* \"#utility.yul\":15127:15136   */\n      dup2\n        /* \"#utility.yul\":15121:15125   */\n      dup2\n        /* \"#utility.yul\":15117:15137   */\n      sub\n        /* \"#utility.yul\":15113:15114   */\n      0x00\n        /* \"#utility.yul\":15102:15111   */\n      dup4\n        /* \"#utility.yul\":15098:15115   */\n      add\n        /* \"#utility.yul\":15091:15138   */\n      mstore\n        /* \"#utility.yul\":15155:15286   */\n      tag_459\n        /* \"#utility.yul\":15281:15285   */\n      dup2\n        /* \"#utility.yul\":15155:15286   */\n      tag_300\n      jump\t// in\n    tag_459:\n        /* \"#utility.yul\":15147:15286   */\n      swap1\n      pop\n        /* \"#utility.yul\":14874:15293   */\n      swap2\n      swap1\n      pop\n      jump\t// out\n        /* \"#utility.yul\":15299:15480   */\n    tag_301:\n        /* \"#utility.yul\":15439:15472   */\n      0x5265656e7472616e637947756172643a207265656e7472616e742063616c6c00\n        /* \"#utility.yul\":15435:15436   */\n      0x00\n        /* \"#utility.yul\":15427:15433   */\n      dup3\n        /* \"#utility.yul\":15423:15437   */\n      add\n        /* \"#utility.yul\":15416:15473   */\n      mstore\n        /* \"#utility.yul\":15299:15480   */\n      pop\n      jump\t// out\n        /* \"#utility.yul\":15486:15852   */\n    tag_302:\n        /* \"#utility.yul\":15628:15631   */\n      0x00\n        /* \"#utility.yul\":15649:15716   */\n      tag_462\n        /* \"#utility.yul\":15713:15715   */\n      0x1f\n        /* \"#utility.yul\":15708:15711   */\n      dup4\n        /* \"#utility.yul\":15649:15716   */\n      tag_285\n      jump\t// in\n    tag_462:\n        /* \"#utility.yul\":15642:15716   */\n      swap2\n      pop\n        /* \"#utility.yul\":15725:15818   */\n      tag_463\n        /* \"#utility.yul\":15814:15817   */\n      dup3\n        /* \"#utility.yul\":15725:15818   */\n      tag_301\n      jump\t// in\n    tag_463:\n        /* \"#utility.yul\":15843:15845   */\n      0x20\n        /* \"#utility.yul\":15838:15841   */\n      dup3\n        /* \"#utility.yul\":15834:15846   */\n      add\n        /* \"#utility.yul\":15827:15846   */\n      swap1\n      pop\n        /* \"#utility.yul\":15486:15852   */\n      swap2\n      swap1\n      pop\n      jump\t// out\n        /* \"#utility.yul\":15858:16277   */\n    tag_233:\n        /* \"#utility.yul\":16024:16028   */\n      0x00\n        /* \"#utility.yul\":16062:16064   */\n      0x20\n        /* \"#utility.yul\":16051:16060   */\n      dup3\n        /* \"#utility.yul\":16047:16065   */\n      add\n        /* \"#utility.yul\":16039:16065   */\n      swap1\n      pop\n        /* \"#utility.yul\":16111:16120   */\n      dup2\n        /* \"#utility.yul\":16105:16109   */\n      dup2\n        /* \"#utility.yul\":16101:16121   */\n      sub\n        /* \"#utility.yul\":16097:16098   */\n      0x00\n        /* \"#utility.yul\":16086:16095   */\n      dup4\n        /* \"#utility.yul\":16082:16099   */\n      add\n        /* \"#utility.yul\":16075:16122   */\n      mstore\n        /* \"#utility.yul\":16139:16270   */\n      tag_465\n        /* \"#utility.yul\":16265:16269   */\n      dup2\n        /* \"#utility.yul\":16139:16270   */\n      tag_302\n      jump\t// in\n    tag_465:\n        /* \"#utility.yul\":16131:16270   */\n      swap1\n      pop\n        /* \"#utility.yul\":15858:16277   */\n      swap2\n      swap1\n      pop\n      jump\t// out\n        /* \"#utility.yul\":16283:16725   */\n    tag_250:\n        /* \"#utility.yul\":16432:16436   */\n      0x00\n        /* \"#utility.yul\":16470:16472   */\n      0x60\n        /* \"#utility.yul\":16459:16468   */\n      dup3\n        /* \"#utility.yul\":16455:16473   */\n      add\n        /* \"#utility.yul\":16447:16473   */\n      swap1\n      pop\n        /* \"#utility.yul\":16483:16554   */\n      tag_467\n        /* \"#utility.yul\":16551:16552   */\n      0x00\n        /* \"#utility.yul\":16540:16549   */\n      dup4\n        /* \"#utility.yul\":16536:16553   */\n      add\n        /* \"#utility.yul\":16527:16533   */\n      dup7\n        /* \"#utility.yul\":16483:16554   */\n      tag_279\n      jump\t// in\n    tag_467:\n        /* \"#utility.yul\":16564:16636   */\n      tag_468\n        /* \"#utility.yul\":16632:16634   */\n      0x20\n        /* \"#utility.yul\":16621:16630   */\n      dup4\n        /* \"#utility.yul\":16617:16635   */\n      add\n        /* \"#utility.yul\":16608:16614   */\n      dup6\n        /* \"#utility.yul\":16564:16636   */\n      tag_279\n      jump\t// in\n    tag_468:\n        /* \"#utility.yul\":16646:16718   */\n      tag_469\n        /* \"#utility.yul\":16714:16716   */\n      0x40\n        /* \"#utility.yul\":16703:16712   */\n      dup4\n        /* \"#utility.yul\":16699:16717   */\n      add\n        /* \"#utility.yul\":16690:16696   */\n      dup5\n        /* \"#utility.yul\":16646:16718   */\n      tag_266\n      jump\t// in\n    tag_469:\n        /* \"#utility.yul\":16283:16725   */\n      swap5\n      swap4\n      pop\n      pop\n      pop\n      pop\n      jump\t// out\n\n    auxdata: 0xa26469706673582212201804fd81744cb7ab18a4de3cd9f3b5aef3abb006b958a22c6e89352ebc0179fb64736f6c634300081f0033\n}\n",
				"bytecode": {
					"linkReferences": {},
					"object": "608060405234801561000f575f5ffd5b50335f73ffffffffffffffffffffffffffffffffffffffff168173ffffffffffffffffffffffffffffffffffffffff1603610081575f6040517f1e4fbdf7000000000000000000000000000000000000000000000000000000008152600401610078919061019d565b60405180910390fd5b6100908161009d60201b60201c565b50600180819055506101b6565b5f5f5f9054906101000a900473ffffffffffffffffffffffffffffffffffffffff169050815f5f6101000a81548173ffffffffffffffffffffffffffffffffffffffff021916908373ffffffffffffffffffffffffffffffffffffffff1602179055508173ffffffffffffffffffffffffffffffffffffffff168173ffffffffffffffffffffffffffffffffffffffff167f8be0079c531659141344cd1fd0a4f28419497f9722a3daafe3b4186f6b6457e060405160405180910390a35050565b5f73ffffffffffffffffffffffffffffffffffffffff82169050919050565b5f6101878261015e565b9050919050565b6101978161017d565b82525050565b5f6020820190506101b05f83018461018e565b92915050565b611fb9806101c35f395ff3fe608060405234801561000f575f5ffd5b5060043610610113575f3560e01c8063715018a6116100a0578063c07b528a1161006f578063c07b528a146102d3578063d12eb0a314610303578063dabeaecf14610333578063f2fde38b1461034f578063f89ec5f51461036b57610113565b8063715018a61461025957806389a30271146102635780638da5cb5b14610281578063a87430ba1461029f57610113565b806323544748116100e757806323544748146101b35780632982de0d146101bd57806340b2b7bf146101db57806344051053146101f95780635ae809511461022957610113565b8062d61646146101175780630df23164146101475780631820cabb1461017757806319abfe0014610195575b5f5ffd5b610131600480360381019061012c91906117d8565b610389565b60405161013e919061181b565b60405180910390f35b610161600480360381019061015c91906117d8565b6103ff565b60405161016e919061181b565b60405180910390f35b61017f6104b7565b60405161018c919061181b565b60405180910390f35b61019d6104be565b6040516101aa919061181b565b60405180910390f35b6101bb6104c5565b005b6101c5610a66565b6040516101d2919061181b565b60405180910390f35b6101e3610a6b565b6040516101f0919061181b565b60405180910390f35b610213600480360381019061020e91906117d8565b610a70565b60405161022091906118eb565b60405180910390f35b610243600480360381019061023e91906117d8565b610b38565b604051610250919061181b565b60405180910390f35b610261610c24565b005b61026b610c37565b6040516102789190611966565b60405180910390f35b610289610c4f565b604051610296919061198e565b60405180910390f35b6102b960048036038101906102b491906117d8565b610c76565b6040516102ca9594939291906119a7565b60405180910390f35b6102ed60048036038101906102e891906117d8565b610cc7565b6040516102fa919061181b565b60405180910390f35b61031d60048036038101906103189190611a22565b610cdc565b60405161032a919061198e565b60405180910390f35b61034d60048036038101906103489190611a60565b610d24565b005b610369600480360381019061036491906117d8565b61139b565b005b61037361141f565b6040516103809190611abe565b60405180910390f35b5f5f6201fa4060025f8573ffffffffffffffffffffffffffffffffffffffff1673ffffffffffffffffffffffffffffffffffffffff1681526020019081526020015f20600401546103da9190611b04565b9050804210156103f55742816103f09190611b37565b6103f7565b5f5b915050919050565b5f5f60025f8473ffffffffffffffffffffffffffffffffffffffff1673ffffffffffffffffffffffffffffffffffffffff1681526020019081526020015f205f0154905064012a05f20081106104595760509150506104b2565b633b9aca00811061046e5760329150506104b2565b630bebc200811061048357601e9150506104b2565b6305f5e10081106104985760149150506104b2565b6302faf08081106104ad57600a9150506104b2565b5f9150505b919050565b6201fa4081565b621e848081565b6104cd611437565b5f60025f3373ffffffffffffffffffffffffffffffffffffffff1673ffffffffffffffffffffffffffffffffffffffff1681526020019081526020015f2090505f816001015411610553576040517f08c379a000000000000000000000000000000000000000000000000000000000815260040161054a90611bc4565b60405180910390fd5b5f73036cbd53842c5426634e7929541ec2318f3dcf7e73ffffffffffffffffffffffffffffffffffffffff166370a08231306040518263ffffffff1660e01b81526004016105a1919061198e565b602060405180830381865afa1580156105bc573d5f5f3e3d5ffd5b505050506040513d601f19601f820116820180604052508101906105e09190611bf6565b90505f73403d64b3f6b4a2b095754877395ab3255476d08173ffffffffffffffffffffffffffffffffffffffff1663db006a7584600101546040518263ffffffff1660e01b8152600401610634919061181b565b6020604051808303815f875af1158015610650573d5f5f3e3d5ffd5b505050506040513d601f19601f820116820180604052508101906106749190611bf6565b146106b4576040517f08c379a00000000000000000000000000000000000000000000000000000000081526004016106ab90611c6b565b60405180910390fd5b5f8173036cbd53842c5426634e7929541ec2318f3dcf7e73ffffffffffffffffffffffffffffffffffffffff166370a08231306040518263ffffffff1660e01b8152600401610703919061198e565b602060405180830381865afa15801561071e573d5f5f3e3d5ffd5b505050506040513d601f19601f820116820180604052508101906107429190611bf6565b61074c9190611b37565b90505f5f6201fa4085600401546107639190611b04565b4210156107de5760646001846107799190611c89565b6107839190611cf7565b905080836107919190611b37565b91506107d961079e610c4f565b8273036cbd53842c5426634e7929541ec2318f3dcf7e73ffffffffffffffffffffffffffffffffffffffff166114869092919063ffffffff16565b610a07565b5f621e84808410156107f057836107f5565b621e84805b90505f865f015482866108089190611b37565b11610813575f61082e565b865f015482866108239190611b37565b61082d9190611b37565b5b90505f6064600a836108409190611c89565b61084a9190611cf7565b90505f821180156108aa57505f73ffffffffffffffffffffffffffffffffffffffff16886002015f9054906101000a900473ffffffffffffffffffffffffffffffffffffffff1673ffffffffffffffffffffffffffffffffffffffff1614155b15610995575f60646108de8a6002015f9054906101000a900473ffffffffffffffffffffffffffffffffffffffff166103ff565b846108e99190611c89565b6108f39190611cf7565b90508060035f8b6002015f9054906101000a900473ffffffffffffffffffffffffffffffffffffffff1673ffffffffffffffffffffffffffffffffffffffff1673ffffffffffffffffffffffffffffffffffffffff1681526020019081526020015f205f8282546109649190611b04565b92505081905550808285896109799190611b37565b6109839190611b37565b61098d9190611b37565b9550506109af565b8083876109a29190611b37565b6109ac9190611b37565b94505b80836109bb9190611b04565b9350610a036109c8610c4f565b8573036cbd53842c5426634e7929541ec2318f3dcf7e73ffffffffffffffffffffffffffffffffffffffff166114869092919063ffffffff16565b5050505b5f855f01819055505f8560010181905550610a57338373036cbd53842c5426634e7929541ec2318f3dcf7e73ffffffffffffffffffffffffffffffffffffffff166114869092919063ffffffff16565b5050505050610a64611505565b565b600a81565b600181565b606060045f8373ffffffffffffffffffffffffffffffffffffffff1673ffffffffffffffffffffffffffffffffffffffff1681526020019081526020015f20805480602002602001604051908101604052809291908181526020018280548015610b2c57602002820191905f5260205f20905b815f9054906101000a900473ffffffffffffffffffffffffffffffffffffffff1673ffffffffffffffffffffffffffffffffffffffff1681526020019060010190808311610ae3575b50505050509050919050565b5f5f73403d64b3f6b4a2b095754877395ab3255476d08173ffffffffffffffffffffffffffffffffffffffff1663182df0f56040518163ffffffff1660e01b8152600401602060405180830381865afa158015610b97573d5f5f3e3d5ffd5b505050506040513d601f19601f82011682018060405250810190610bbb9190611bf6565b9050670de0b6b3a76400008160025f8673ffffffffffffffffffffffffffffffffffffffff1673ffffffffffffffffffffffffffffffffffffffff1681526020019081526020015f2060010154610c129190611c89565b610c1c9190611cf7565b915050919050565b610c2c61150e565b610c355f611595565b565b73036cbd53842c5426634e7929541ec2318f3dcf7e81565b5f5f5f9054906101000a900473ffffffffffffffffffffffffffffffffffffffff16905090565b6002602052805f5260405f205f91509050805f015490806001015490806002015f9054906101000a900473ffffffffffffffffffffffffffffffffffffffff16908060030154908060040154905085565b6003602052805f5260405f205f915090505481565b6004602052815f5260405f208181548110610cf5575f80fd5b905f5260205f20015f915091509054906101000a900473ffffffffffffffffffffffffffffffffffffffff1681565b610d2c611437565b5f8211610d6e576040517f08c379a0000000000000000000000000000000000000000000000000000000008152600401610d6590611d71565b60405180910390fd5b3373ffffffffffffffffffffffffffffffffffffffff168173ffffffffffffffffffffffffffffffffffffffff1603610ddc576040517f08c379a0000000000000000000000000000000000000000000000000000000008152600401610dd390611dd9565b60405180910390fd5b5f73ffffffffffffffffffffffffffffffffffffffff1660025f3373ffffffffffffffffffffffffffffffffffffffff1673ffffffffffffffffffffffffffffffffffffffff1681526020019081526020015f206002015f9054906101000a900473ffffffffffffffffffffffffffffffffffffffff1673ffffffffffffffffffffffffffffffffffffffff16148015610ea257505f73ffffffffffffffffffffffffffffffffffffffff168173ffffffffffffffffffffffffffffffffffffffff1614155b15610fc1578060025f3373ffffffffffffffffffffffffffffffffffffffff1673ffffffffffffffffffffffffffffffffffffffff1681526020019081526020015f206002015f6101000a81548173ffffffffffffffffffffffffffffffffffffffff021916908373ffffffffffffffffffffffffffffffffffffffff16021790555060045f8273ffffffffffffffffffffffffffffffffffffffff1673ffffffffffffffffffffffffffffffffffffffff1681526020019081526020015f2033908060018154018082558091505060019003905f5260205f20015f9091909190916101000a81548173ffffffffffffffffffffffffffffffffffffffff021916908373ffffffffffffffffffffffffffffffffffffffff1602179055505b61100233308473036cbd53842c5426634e7929541ec2318f3dcf7e73ffffffffffffffffffffffffffffffffffffffff16611656909392919063ffffffff16565b73036cbd53842c5426634e7929541ec2318f3dcf7e73ffffffffffffffffffffffffffffffffffffffff1663095ea7b373403d64b3f6b4a2b095754877395ab3255476d081846040518363ffffffff1660e01b8152600401611065929190611df7565b6020604051808303815f875af1158015611081573d5f5f3e3d5ffd5b505050506040513d601f19601f820116820180604052508101906110a59190611e53565b505f73403d64b3f6b4a2b095754877395ab3255476d08173ffffffffffffffffffffffffffffffffffffffff166370a08231306040518263ffffffff1660e01b81526004016110f4919061198e565b602060405180830381865afa15801561110f573d5f5f3e3d5ffd5b505050506040513d601f19601f820116820180604052508101906111339190611bf6565b90505f73403d64b3f6b4a2b095754877395ab3255476d08173ffffffffffffffffffffffffffffffffffffffff1663a0712d68856040518263ffffffff1660e01b8152600401611183919061181b565b6020604051808303815f875af115801561119f573d5f5f3e3d5ffd5b505050506040513d601f19601f820116820180604052508101906111c39190611bf6565b14611203576040517f08c379a00000000000000000000000000000000000000000000000000000000081526004016111fa90611ec8565b60405180910390fd5b5f8173403d64b3f6b4a2b095754877395ab3255476d08173ffffffffffffffffffffffffffffffffffffffff166370a08231306040518263ffffffff1660e01b8152600401611252919061198e565b602060405180830381865afa15801561126d573d5f5f3e3d5ffd5b505050506040513d601f19601f820116820180604052508101906112919190611bf6565b61129b9190611b37565b90508360025f3373ffffffffffffffffffffffffffffffffffffffff1673ffffffffffffffffffffffffffffffffffffffff1681526020019081526020015f205f015f8282546112eb9190611b04565b925050819055508060025f3373ffffffffffffffffffffffffffffffffffffffff1673ffffffffffffffffffffffffffffffffffffffff1681526020019081526020015f206001015f8282546113419190611b04565b925050819055504260025f3373ffffffffffffffffffffffffffffffffffffffff1673ffffffffffffffffffffffffffffffffffffffff1681526020019081526020015f20600401819055505050611397611505565b5050565b6113a361150e565b5f73ffffffffffffffffffffffffffffffffffffffff168173ffffffffffffffffffffffffffffffffffffffff1603611413575f6040517f1e4fbdf700000000000000000000000000000000000000000000000000000000815260040161140a919061198e565b60405180910390fd5b61141c81611595565b50565b73403d64b3f6b4a2b095754877395ab3255476d08181565b60026001540361147c576040517f08c379a000000000000000000000000000000000000000000000000000000000815260040161147390611f30565b60405180910390fd5b6002600181905550565b611500838473ffffffffffffffffffffffffffffffffffffffff1663a9059cbb85856040516024016114b9929190611df7565b604051602081830303815290604052915060e01b6020820180517bffffffffffffffffffffffffffffffffffffffffffffffffffffffff83818316178352505050506116d8565b505050565b60018081905550565b611516611773565b73ffffffffffffffffffffffffffffffffffffffff16611534610c4f565b73ffffffffffffffffffffffffffffffffffffffff161461159357611557611773565b6040517f118cdaa700000000000000000000000000000000000000000000000000000000815260040161158a919061198e565b60405180910390fd5b565b5f5f5f9054906101000a900473ffffffffffffffffffffffffffffffffffffffff169050815f5f6101000a81548173ffffffffffffffffffffffffffffffffffffffff021916908373ffffffffffffffffffffffffffffffffffffffff1602179055508173ffffffffffffffffffffffffffffffffffffffff168173ffffffffffffffffffffffffffffffffffffffff167f8be0079c531659141344cd1fd0a4f28419497f9722a3daafe3b4186f6b6457e060405160405180910390a35050565b6116d2848573ffffffffffffffffffffffffffffffffffffffff166323b872dd86868660405160240161168b93929190611f4e565b604051602081830303815290604052915060e01b6020820180517bffffffffffffffffffffffffffffffffffffffffffffffffffffffff83818316178352505050506116d8565b50505050565b5f5f60205f8451602086015f885af1806116f7576040513d5f823e3d81fd5b3d92505f519150505f821461171057600181141561172b565b5f8473ffffffffffffffffffffffffffffffffffffffff163b145b1561176d57836040517f5274afe7000000000000000000000000000000000000000000000000000000008152600401611764919061198e565b60405180910390fd5b50505050565b5f33905090565b5f5ffd5b5f73ffffffffffffffffffffffffffffffffffffffff82169050919050565b5f6117a78261177e565b9050919050565b6117b78161179d565b81146117c1575f5ffd5b50565b5f813590506117d2816117ae565b92915050565b5f602082840312156117ed576117ec61177a565b5b5f6117fa848285016117c4565b91505092915050565b5f819050919050565b61181581611803565b82525050565b5f60208201905061182e5f83018461180c565b92915050565b5f81519050919050565b5f82825260208201905092915050565b5f819050602082019050919050565b6118668161179d565b82525050565b5f611877838361185d565b60208301905092915050565b5f602082019050919050565b5f61189982611834565b6118a3818561183e565b93506118ae8361184e565b805f5b838110156118de5781516118c5888261186c565b97506118d083611883565b9250506001810190506118b1565b5085935050505092915050565b5f6020820190508181035f830152611903818461188f565b905092915050565b5f819050919050565b5f61192e6119296119248461177e565b61190b565b61177e565b9050919050565b5f61193f82611914565b9050919050565b5f61195082611935565b9050919050565b61196081611946565b82525050565b5f6020820190506119795f830184611957565b92915050565b6119888161179d565b82525050565b5f6020820190506119a15f83018461197f565b92915050565b5f60a0820190506119ba5f83018861180c565b6119c7602083018761180c565b6119d4604083018661197f565b6119e1606083018561180c565b6119ee608083018461180c565b9695505050505050565b611a0181611803565b8114611a0b575f5ffd5b50565b5f81359050611a1c816119f8565b92915050565b5f5f60408385031215611a3857611a3761177a565b5b5f611a45858286016117c4565b9250506020611a5685828601611a0e565b9150509250929050565b5f5f60408385031215611a7657611a7561177a565b5b5f611a8385828601611a0e565b9250506020611a94858286016117c4565b9150509250929050565b5f611aa882611935565b9050919050565b611ab881611a9e565b82525050565b5f602082019050611ad15f830184611aaf565b92915050565b7f4e487b71000000000000000000000000000000000000000000000000000000005f52601160045260245ffd5b5f611b0e82611803565b9150611b1983611803565b9250828201905080821115611b3157611b30611ad7565b5b92915050565b5f611b4182611803565b9150611b4c83611803565b9250828203905081811115611b6457611b63611ad7565b5b92915050565b5f82825260208201905092915050565b7f456d7074792062616c616e6365000000000000000000000000000000000000005f82015250565b5f611bae600d83611b6a565b9150611bb982611b7a565b602082019050919050565b5f6020820190508181035f830152611bdb81611ba2565b9050919050565b5f81519050611bf0816119f8565b92915050565b5f60208284031215611c0b57611c0a61177a565b5b5f611c1884828501611be2565b91505092915050565b7f52656465656d206661696c6564000000000000000000000000000000000000005f82015250565b5f611c55600d83611b6a565b9150611c6082611c21565b602082019050919050565b5f6020820190508181035f830152611c8281611c49565b9050919050565b5f611c9382611803565b9150611c9e83611803565b9250828202611cac81611803565b91508282048414831517611cc357611cc2611ad7565b5b5092915050565b7f4e487b71000000000000000000000000000000000000000000000000000000005f52601260045260245ffd5b5f611d0182611803565b9150611d0c83611803565b925082611d1c57611d1b611cca565b5b828204905092915050565b7f416d6f756e74203e2030000000000000000000000000000000000000000000005f82015250565b5f611d5b600a83611b6a565b9150611d6682611d27565b602082019050919050565b5f6020820190508181035f830152611d8881611d4f565b9050919050565b7f4e6f2073656c662d726566657272616c000000000000000000000000000000005f82015250565b5f611dc3601083611b6a565b9150611dce82611d8f565b602082019050919050565b5f6020820190508181035f830152611df081611db7565b9050919050565b5f604082019050611e0a5f83018561197f565b611e17602083018461180c565b9392505050565b5f8115159050919050565b611e3281611e1e565b8114611e3c575f5ffd5b50565b5f81519050611e4d81611e29565b92915050565b5f60208284031215611e6857611e6761177a565b5b5f611e7584828501611e3f565b91505092915050565b7f4d696e74206661696c65640000000000000000000000000000000000000000005f82015250565b5f611eb2600b83611b6a565b9150611ebd82611e7e565b602082019050919050565b5f6020820190508181035f830152611edf81611ea6565b9050919050565b7f5265656e7472616e637947756172643a207265656e7472616e742063616c6c005f82015250565b5f611f1a601f83611b6a565b9150611f2582611ee6565b602082019050919050565b5f6020820190508181035f830152611f4781611f0e565b9050919050565b5f606082019050611f615f83018661197f565b611f6e602083018561197f565b611f7b604083018461180c565b94935050505056fea26469706673582212201804fd81744cb7ab18a4de3cd9f3b5aef3abb006b958a22c6e89352ebc0179fb64736f6c634300081f0033",
					"opcodes": "PUSH1 0x80 PUSH1 0x40 MSTORE CALLVALUE DUP1 ISZERO PUSH2 0xF JUMPI PUSH0 PUSH0 REVERT JUMPDEST POP CALLER PUSH0 PUSH20 0xFFFFFFFFFFFFFFFFFFFFFFFFFFFFFFFFFFFFFFFF AND DUP2 PUSH20 0xFFFFFFFFFFFFFFFFFFFFFFFFFFFFFFFFFFFFFFFF AND SUB PUSH2 0x81 JUMPI PUSH0 PUSH1 0x40 MLOAD PUSH32 0x1E4FBDF700000000000000000000000000000000000000000000000000000000 DUP2 MSTORE PUSH1 0x4 ADD PUSH2 0x78 SWAP2 SWAP1 PUSH2 0x19D JUMP JUMPDEST PUSH1 0x40 MLOAD DUP1 SWAP2 SUB SWAP1 REVERT JUMPDEST PUSH2 0x90 DUP2 PUSH2 0x9D PUSH1 0x20 SHL PUSH1 0x20 SHR JUMP JUMPDEST POP PUSH1 0x1 DUP1 DUP2 SWAP1 SSTORE POP PUSH2 0x1B6 JUMP JUMPDEST PUSH0 PUSH0 PUSH0 SWAP1 SLOAD SWAP1 PUSH2 0x100 EXP SWAP1 DIV PUSH20 0xFFFFFFFFFFFFFFFFFFFFFFFFFFFFFFFFFFFFFFFF AND SWAP1 POP DUP2 PUSH0 PUSH0 PUSH2 0x100 EXP DUP2 SLOAD DUP2 PUSH20 0xFFFFFFFFFFFFFFFFFFFFFFFFFFFFFFFFFFFFFFFF MUL NOT AND SWAP1 DUP4 PUSH20 0xFFFFFFFFFFFFFFFFFFFFFFFFFFFFFFFFFFFFFFFF AND MUL OR SWAP1 SSTORE POP DUP2 PUSH20 0xFFFFFFFFFFFFFFFFFFFFFFFFFFFFFFFFFFFFFFFF AND DUP2 PUSH20 0xFFFFFFFFFFFFFFFFFFFFFFFFFFFFFFFFFFFFFFFF AND PUSH32 0x8BE0079C531659141344CD1FD0A4F28419497F9722A3DAAFE3B4186F6B6457E0 PUSH1 0x40 MLOAD PUSH1 0x40 MLOAD DUP1 SWAP2 SUB SWAP1 LOG3 POP POP JUMP JUMPDEST PUSH0 PUSH20 0xFFFFFFFFFFFFFFFFFFFFFFFFFFFFFFFFFFFFFFFF DUP3 AND SWAP1 POP SWAP2 SWAP1 POP JUMP JUMPDEST PUSH0 PUSH2 0x187 DUP3 PUSH2 0x15E JUMP JUMPDEST SWAP1 POP SWAP2 SWAP1 POP JUMP JUMPDEST PUSH2 0x197 DUP2 PUSH2 0x17D JUMP JUMPDEST DUP3 MSTORE POP POP JUMP JUMPDEST PUSH0 PUSH1 0x20 DUP3 ADD SWAP1 POP PUSH2 0x1B0 PUSH0 DUP4 ADD DUP5 PUSH2 0x18E JUMP JUMPDEST SWAP3 SWAP2 POP POP JUMP JUMPDEST PUSH2 0x1FB9 DUP1 PUSH2 0x1C3 PUSH0 CODECOPY PUSH0 RETURN INVALID PUSH1 0x80 PUSH1 0x40 MSTORE CALLVALUE DUP1 ISZERO PUSH2 0xF JUMPI PUSH0 PUSH0 REVERT JUMPDEST POP PUSH1 0x4 CALLDATASIZE LT PUSH2 0x113 JUMPI PUSH0 CALLDATALOAD PUSH1 0xE0 SHR DUP1 PUSH4 0x715018A6 GT PUSH2 0xA0 JUMPI DUP1 PUSH4 0xC07B528A GT PUSH2 0x6F JUMPI DUP1 PUSH4 0xC07B528A EQ PUSH2 0x2D3 JUMPI DUP1 PUSH4 0xD12EB0A3 EQ PUSH2 0x303 JUMPI DUP1 PUSH4 0xDABEAECF EQ PUSH2 0x333 JUMPI DUP1 PUSH4 0xF2FDE38B EQ PUSH2 0x34F JUMPI DUP1 PUSH4 0xF89EC5F5 EQ PUSH2 0x36B JUMPI PUSH2 0x113 JUMP JUMPDEST DUP1 PUSH4 0x715018A6 EQ PUSH2 0x259 JUMPI DUP1 PUSH4 0x89A30271 EQ PUSH2 0x263 JUMPI DUP1 PUSH4 0x8DA5CB5B EQ PUSH2 0x281 JUMPI DUP1 PUSH4 0xA87430BA EQ PUSH2 0x29F JUMPI PUSH2 0x113 JUMP JUMPDEST DUP1 PUSH4 0x23544748 GT PUSH2 0xE7 JUMPI DUP1 PUSH4 0x23544748 EQ PUSH2 0x1B3 JUMPI DUP1 PUSH4 0x2982DE0D EQ PUSH2 0x1BD JUMPI DUP1 PUSH4 0x40B2B7BF EQ PUSH2 0x1DB JUMPI DUP1 PUSH4 0x44051053 EQ PUSH2 0x1F9 JUMPI DUP1 PUSH4 0x5AE80951 EQ PUSH2 0x229 JUMPI PUSH2 0x113 JUMP JUMPDEST DUP1 PUSH3 0xD61646 EQ PUSH2 0x117 JUMPI DUP1 PUSH4 0xDF23164 EQ PUSH2 0x147 JUMPI DUP1 PUSH4 0x1820CABB EQ PUSH2 0x177 JUMPI DUP1 PUSH4 0x19ABFE00 EQ PUSH2 0x195 JUMPI JUMPDEST PUSH0 PUSH0 REVERT JUMPDEST PUSH2 0x131 PUSH1 0x4 DUP1 CALLDATASIZE SUB DUP2 ADD SWAP1 PUSH2 0x12C SWAP2 SWAP1 PUSH2 0x17D8 JUMP JUMPDEST PUSH2 0x389 JUMP JUMPDEST PUSH1 0x40 MLOAD PUSH2 0x13E SWAP2 SWAP1 PUSH2 0x181B JUMP JUMPDEST PUSH1 0x40 MLOAD DUP1 SWAP2 SUB SWAP1 RETURN JUMPDEST PUSH2 0x161 PUSH1 0x4 DUP1 CALLDATASIZE SUB DUP2 ADD SWAP1 PUSH2 0x15C SWAP2 SWAP1 PUSH2 0x17D8 JUMP JUMPDEST PUSH2 0x3FF JUMP JUMPDEST PUSH1 0x40 MLOAD PUSH2 0x16E SWAP2 SWAP1 PUSH2 0x181B JUMP JUMPDEST PUSH1 0x40 MLOAD DUP1 SWAP2 SUB SWAP1 RETURN JUMPDEST PUSH2 0x17F PUSH2 0x4B7 JUMP JUMPDEST PUSH1 0x40 MLOAD PUSH2 0x18C SWAP2 SWAP1 PUSH2 0x181B JUMP JUMPDEST PUSH1 0x40 MLOAD DUP1 SWAP2 SUB SWAP1 RETURN JUMPDEST PUSH2 0x19D PUSH2 0x4BE JUMP JUMPDEST PUSH1 0x40 MLOAD PUSH2 0x1AA SWAP2 SWAP1 PUSH2 0x181B JUMP JUMPDEST PUSH1 0x40 MLOAD DUP1 SWAP2 SUB SWAP1 RETURN JUMPDEST PUSH2 0x1BB PUSH2 0x4C5 JUMP JUMPDEST STOP JUMPDEST PUSH2 0x1C5 PUSH2 0xA66 JUMP JUMPDEST PUSH1 0x40 MLOAD PUSH2 0x1D2 SWAP2 SWAP1 PUSH2 0x181B JUMP JUMPDEST PUSH1 0x40 MLOAD DUP1 SWAP2 SUB SWAP1 RETURN JUMPDEST PUSH2 0x1E3 PUSH2 0xA6B JUMP JUMPDEST PUSH1 0x40 MLOAD PUSH2 0x1F0 SWAP2 SWAP1 PUSH2 0x181B JUMP JUMPDEST PUSH1 0x40 MLOAD DUP1 SWAP2 SUB SWAP1 RETURN JUMPDEST PUSH2 0x213 PUSH1 0x4 DUP1 CALLDATASIZE SUB DUP2 ADD SWAP1 PUSH2 0x20E SWAP2 SWAP1 PUSH2 0x17D8 JUMP JUMPDEST PUSH2 0xA70 JUMP JUMPDEST PUSH1 0x40 MLOAD PUSH2 0x220 SWAP2 SWAP1 PUSH2 0x18EB JUMP JUMPDEST PUSH1 0x40 MLOAD DUP1 SWAP2 SUB SWAP1 RETURN JUMPDEST PUSH2 0x243 PUSH1 0x4 DUP1 CALLDATASIZE SUB DUP2 ADD SWAP1 PUSH2 0x23E SWAP2 SWAP1 PUSH2 0x17D8 JUMP JUMPDEST PUSH2 0xB38 JUMP JUMPDEST PUSH1 0x40 MLOAD PUSH2 0x250 SWAP2 SWAP1 PUSH2 0x181B JUMP JUMPDEST PUSH1 0x40 MLOAD DUP1 SWAP2 SUB SWAP1 RETURN JUMPDEST PUSH2 0x261 PUSH2 0xC24 JUMP JUMPDEST STOP JUMPDEST PUSH2 0x26B PUSH2 0xC37 JUMP JUMPDEST PUSH1 0x40 MLOAD PUSH2 0x278 SWAP2 SWAP1 PUSH2 0x1966 JUMP JUMPDEST PUSH1 0x40 MLOAD DUP1 SWAP2 SUB SWAP1 RETURN JUMPDEST PUSH2 0x289 PUSH2 0xC4F JUMP JUMPDEST PUSH1 0x40 MLOAD PUSH2 0x296 SWAP2 SWAP1 PUSH2 0x198E JUMP JUMPDEST PUSH1 0x40 MLOAD DUP1 SWAP2 SUB SWAP1 RETURN JUMPDEST PUSH2 0x2B9 PUSH1 0x4 DUP1 CALLDATASIZE SUB DUP2 ADD SWAP1 PUSH2 0x2B4 SWAP2 SWAP1 PUSH2 0x17D8 JUMP JUMPDEST PUSH2 0xC76 JUMP JUMPDEST PUSH1 0x40 MLOAD PUSH2 0x2CA SWAP6 SWAP5 SWAP4 SWAP3 SWAP2 SWAP1 PUSH2 0x19A7 JUMP JUMPDEST PUSH1 0x40 MLOAD DUP1 SWAP2 SUB SWAP1 RETURN JUMPDEST PUSH2 0x2ED PUSH1 0x4 DUP1 CALLDATASIZE SUB DUP2 ADD SWAP1 PUSH2 0x2E8 SWAP2 SWAP1 PUSH2 0x17D8 JUMP JUMPDEST PUSH2 0xCC7 JUMP JUMPDEST PUSH1 0x40 MLOAD PUSH2 0x2FA SWAP2 SWAP1 PUSH2 0x181B JUMP JUMPDEST PUSH1 0x40 MLOAD DUP1 SWAP2 SUB SWAP1 RETURN JUMPDEST PUSH2 0x31D PUSH1 0x4 DUP1 CALLDATASIZE SUB DUP2 ADD SWAP1 PUSH2 0x318 SWAP2 SWAP1 PUSH2 0x1A22 JUMP JUMPDEST PUSH2 0xCDC JUMP JUMPDEST PUSH1 0x40 MLOAD PUSH2 0x32A SWAP2 SWAP1 PUSH2 0x198E JUMP JUMPDEST PUSH1 0x40 MLOAD DUP1 SWAP2 SUB SWAP1 RETURN JUMPDEST PUSH2 0x34D PUSH1 0x4 DUP1 CALLDATASIZE SUB DUP2 ADD SWAP1 PUSH2 0x348 SWAP2 SWAP1 PUSH2 0x1A60 JUMP JUMPDEST PUSH2 0xD24 JUMP JUMPDEST STOP JUMPDEST PUSH2 0x369 PUSH1 0x4 DUP1 CALLDATASIZE SUB DUP2 ADD SWAP1 PUSH2 0x364 SWAP2 SWAP1 PUSH2 0x17D8 JUMP JUMPDEST PUSH2 0x139B JUMP JUMPDEST STOP JUMPDEST PUSH2 0x373 PUSH2 0x141F JUMP JUMPDEST PUSH1 0x40 MLOAD PUSH2 0x380 SWAP2 SWAP1 PUSH2 0x1ABE JUMP JUMPDEST PUSH1 0x40 MLOAD DUP1 SWAP2 SUB SWAP1 RETURN JUMPDEST PUSH0 PUSH0 PUSH3 0x1FA40 PUSH1 0x2 PUSH0 DUP6 PUSH20 0xFFFFFFFFFFFFFFFFFFFFFFFFFFFFFFFFFFFFFFFF AND PUSH20 0xFFFFFFFFFFFFFFFFFFFFFFFFFFFFFFFFFFFFFFFF AND DUP2 MSTORE PUSH1 0x20 ADD SWAP1 DUP2 MSTORE PUSH1 0x20 ADD PUSH0 KECCAK256 PUSH1 0x4 ADD SLOAD PUSH2 0x3DA SWAP2 SWAP1 PUSH2 0x1B04 JUMP JUMPDEST SWAP1 POP DUP1 TIMESTAMP LT ISZERO PUSH2 0x3F5 JUMPI TIMESTAMP DUP2 PUSH2 0x3F0 SWAP2 SWAP1 PUSH2 0x1B37 JUMP JUMPDEST PUSH2 0x3F7 JUMP JUMPDEST PUSH0 JUMPDEST SWAP2 POP POP SWAP2 SWAP1 POP JUMP JUMPDEST PUSH0 PUSH0 PUSH1 0x2 PUSH0 DUP5 PUSH20 0xFFFFFFFFFFFFFFFFFFFFFFFFFFFFFFFFFFFFFFFF AND PUSH20 0xFFFFFFFFFFFFFFFFFFFFFFFFFFFFFFFFFFFFFFFF AND DUP2 MSTORE PUSH1 0x20 ADD SWAP1 DUP2 MSTORE PUSH1 0x20 ADD PUSH0 KECCAK256 PUSH0 ADD SLOAD SWAP1 POP PUSH5 0x12A05F200 DUP2 LT PUSH2 0x459 JUMPI PUSH1 0x50 SWAP2 POP POP PUSH2 0x4B2 JUMP JUMPDEST PUSH4 0x3B9ACA00 DUP2 LT PUSH2 0x46E JUMPI PUSH1 0x32 SWAP2 POP POP PUSH2 0x4B2 JUMP JUMPDEST PUSH4 0xBEBC200 DUP2 LT PUSH2 0x483 JUMPI PUSH1 0x1E SWAP2 POP POP PUSH2 0x4B2 JUMP JUMPDEST PUSH4 0x5F5E100 DUP2 LT PUSH2 0x498 JUMPI PUSH1 0x14 SWAP2 POP POP PUSH2 0x4B2 JUMP JUMPDEST PUSH4 0x2FAF080 DUP2 LT PUSH2 0x4AD JUMPI PUSH1 0xA SWAP2 POP POP PUSH2 0x4B2 JUMP JUMPDEST PUSH0 SWAP2 POP POP JUMPDEST SWAP2 SWAP1 POP JUMP JUMPDEST PUSH3 0x1FA40 DUP2 JUMP JUMPDEST PUSH3 0x1E8480 DUP2 JUMP JUMPDEST PUSH2 0x4CD PUSH2 0x1437 JUMP JUMPDEST PUSH0 PUSH1 0x2 PUSH0 CALLER PUSH20 0xFFFFFFFFFFFFFFFFFFFFFFFFFFFFFFFFFFFFFFFF AND PUSH20 0xFFFFFFFFFFFFFFFFFFFFFFFFFFFFFFFFFFFFFFFF AND DUP2 MSTORE PUSH1 0x20 ADD SWAP1 DUP2 MSTORE PUSH1 0x20 ADD PUSH0 KECCAK256 SWAP1 POP PUSH0 DUP2 PUSH1 0x1 ADD SLOAD GT PUSH2 0x553 JUMPI PUSH1 0x40 MLOAD PUSH32 0x8C379A000000000000000000000000000000000000000000000000000000000 DUP2 MSTORE PUSH1 0x4 ADD PUSH2 0x54A SWAP1 PUSH2 0x1BC4 JUMP JUMPDEST PUSH1 0x40 MLOAD DUP1 SWAP2 SUB SWAP1 REVERT JUMPDEST PUSH0 PUSH20 0x36CBD53842C5426634E7929541EC2318F3DCF7E PUSH20 0xFFFFFFFFFFFFFFFFFFFFFFFFFFFFFFFFFFFFFFFF AND PUSH4 0x70A08231 ADDRESS PUSH1 0x40 MLOAD DUP3 PUSH4 0xFFFFFFFF AND PUSH1 0xE0 SHL DUP2 MSTORE PUSH1 0x4 ADD PUSH2 0x5A1 SWAP2 SWAP1 PUSH2 0x198E JUMP JUMPDEST PUSH1 0x20 PUSH1 0x40 MLOAD DUP1 DUP4 SUB DUP2 DUP7 GAS STATICCALL ISZERO DUP1 ISZERO PUSH2 0x5BC JUMPI RETURNDATASIZE PUSH0 PUSH0 RETURNDATACOPY RETURNDATASIZE PUSH0 REVERT JUMPDEST POP POP POP POP PUSH1 0x40 MLOAD RETURNDATASIZE PUSH1 0x1F NOT PUSH1 0x1F DUP3 ADD AND DUP3 ADD DUP1 PUSH1 0x40 MSTORE POP DUP2 ADD SWAP1 PUSH2 0x5E0 SWAP2 SWAP1 PUSH2 0x1BF6 JUMP JUMPDEST SWAP1 POP PUSH0 PUSH20 0x403D64B3F6B4A2B095754877395AB3255476D081 PUSH20 0xFFFFFFFFFFFFFFFFFFFFFFFFFFFFFFFFFFFFFFFF AND PUSH4 0xDB006A75 DUP5 PUSH1 0x1 ADD SLOAD PUSH1 0x40 MLOAD DUP3 PUSH4 0xFFFFFFFF AND PUSH1 0xE0 SHL DUP2 MSTORE PUSH1 0x4 ADD PUSH2 0x634 SWAP2 SWAP1 PUSH2 0x181B JUMP JUMPDEST PUSH1 0x20 PUSH1 0x40 MLOAD DUP1 DUP4 SUB DUP2 PUSH0 DUP8 GAS CALL ISZERO DUP1 ISZERO PUSH2 0x650 JUMPI RETURNDATASIZE PUSH0 PUSH0 RETURNDATACOPY RETURNDATASIZE PUSH0 REVERT JUMPDEST POP POP POP POP PUSH1 0x40 MLOAD RETURNDATASIZE PUSH1 0x1F NOT PUSH1 0x1F DUP3 ADD AND DUP3 ADD DUP1 PUSH1 0x40 MSTORE POP DUP2 ADD SWAP1 PUSH2 0x674 SWAP2 SWAP1 PUSH2 0x1BF6 JUMP JUMPDEST EQ PUSH2 0x6B4 JUMPI PUSH1 0x40 MLOAD PUSH32 0x8C379A000000000000000000000000000000000000000000000000000000000 DUP2 MSTORE PUSH1 0x4 ADD PUSH2 0x6AB SWAP1 PUSH2 0x1C6B JUMP JUMPDEST PUSH1 0x40 MLOAD DUP1 SWAP2 SUB SWAP1 REVERT JUMPDEST PUSH0 DUP2 PUSH20 0x36CBD53842C5426634E7929541EC2318F3DCF7E PUSH20 0xFFFFFFFFFFFFFFFFFFFFFFFFFFFFFFFFFFFFFFFF AND PUSH4 0x70A08231 ADDRESS PUSH1 0x40 MLOAD DUP3 PUSH4 0xFFFFFFFF AND PUSH1 0xE0 SHL DUP2 MSTORE PUSH1 0x4 ADD PUSH2 0x703 SWAP2 SWAP1 PUSH2 0x198E JUMP JUMPDEST PUSH1 0x20 PUSH1 0x40 MLOAD DUP1 DUP4 SUB DUP2 DUP7 GAS STATICCALL ISZERO DUP1 ISZERO PUSH2 0x71E JUMPI RETURNDATASIZE PUSH0 PUSH0 RETURNDATACOPY RETURNDATASIZE PUSH0 REVERT JUMPDEST POP POP POP POP PUSH1 0x40 MLOAD RETURNDATASIZE PUSH1 0x1F NOT PUSH1 0x1F DUP3 ADD AND DUP3 ADD DUP1 PUSH1 0x40 MSTORE POP DUP2 ADD SWAP1 PUSH2 0x742 SWAP2 SWAP1 PUSH2 0x1BF6 JUMP JUMPDEST PUSH2 0x74C SWAP2 SWAP1 PUSH2 0x1B37 JUMP JUMPDEST SWAP1 POP PUSH0 PUSH0 PUSH3 0x1FA40 DUP6 PUSH1 0x4 ADD SLOAD PUSH2 0x763 SWAP2 SWAP1 PUSH2 0x1B04 JUMP JUMPDEST TIMESTAMP LT ISZERO PUSH2 0x7DE JUMPI PUSH1 0x64 PUSH1 0x1 DUP5 PUSH2 0x779 SWAP2 SWAP1 PUSH2 0x1C89 JUMP JUMPDEST PUSH2 0x783 SWAP2 SWAP1 PUSH2 0x1CF7 JUMP JUMPDEST SWAP1 POP DUP1 DUP4 PUSH2 0x791 SWAP2 SWAP1 PUSH2 0x1B37 JUMP JUMPDEST SWAP2 POP PUSH2 0x7D9 PUSH2 0x79E PUSH2 0xC4F JUMP JUMPDEST DUP3 PUSH20 0x36CBD53842C5426634E7929541EC2318F3DCF7E PUSH20 0xFFFFFFFFFFFFFFFFFFFFFFFFFFFFFFFFFFFFFFFF AND PUSH2 0x1486 SWAP1 SWAP3 SWAP2 SWAP1 PUSH4 0xFFFFFFFF AND JUMP JUMPDEST PUSH2 0xA07 JUMP JUMPDEST PUSH0 PUSH3 0x1E8480 DUP5 LT ISZERO PUSH2 0x7F0 JUMPI DUP4 PUSH2 0x7F5 JUMP JUMPDEST PUSH3 0x1E8480 JUMPDEST SWAP1 POP PUSH0 DUP7 PUSH0 ADD SLOAD DUP3 DUP7 PUSH2 0x808 SWAP2 SWAP1 PUSH2 0x1B37 JUMP JUMPDEST GT PUSH2 0x813 JUMPI PUSH0 PUSH2 0x82E JUMP JUMPDEST DUP7 PUSH0 ADD SLOAD DUP3 DUP7 PUSH2 0x823 SWAP2 SWAP1 PUSH2 0x1B37 JUMP JUMPDEST PUSH2 0x82D SWAP2 SWAP1 PUSH2 0x1B37 JUMP JUMPDEST JUMPDEST SWAP1 POP PUSH0 PUSH1 0x64 PUSH1 0xA DUP4 PUSH2 0x840 SWAP2 SWAP1 PUSH2 0x1C89 JUMP JUMPDEST PUSH2 0x84A SWAP2 SWAP1 PUSH2 0x1CF7 JUMP JUMPDEST SWAP1 POP PUSH0 DUP3 GT DUP1 ISZERO PUSH2 0x8AA JUMPI POP PUSH0 PUSH20 0xFFFFFFFFFFFFFFFFFFFFFFFFFFFFFFFFFFFFFFFF AND DUP9 PUSH1 0x2 ADD PUSH0 SWAP1 SLOAD SWAP1 PUSH2 0x100 EXP SWAP1 DIV PUSH20 0xFFFFFFFFFFFFFFFFFFFFFFFFFFFFFFFFFFFFFFFF AND PUSH20 0xFFFFFFFFFFFFFFFFFFFFFFFFFFFFFFFFFFFFFFFF AND EQ ISZERO JUMPDEST ISZERO PUSH2 0x995 JUMPI PUSH0 PUSH1 0x64 PUSH2 0x8DE DUP11 PUSH1 0x2 ADD PUSH0 SWAP1 SLOAD SWAP1 PUSH2 0x100 EXP SWAP1 DIV PUSH20 0xFFFFFFFFFFFFFFFFFFFFFFFFFFFFFFFFFFFFFFFF AND PUSH2 0x3FF JUMP JUMPDEST DUP5 PUSH2 0x8E9 SWAP2 SWAP1 PUSH2 0x1C89 JUMP JUMPDEST PUSH2 0x8F3 SWAP2 SWAP1 PUSH2 0x1CF7 JUMP JUMPDEST SWAP1 POP DUP1 PUSH1 0x3 PUSH0 DUP12 PUSH1 0x2 ADD PUSH0 SWAP1 SLOAD SWAP1 PUSH2 0x100 EXP SWAP1 DIV PUSH20 0xFFFFFFFFFFFFFFFFFFFFFFFFFFFFFFFFFFFFFFFF AND PUSH20 0xFFFFFFFFFFFFFFFFFFFFFFFFFFFFFFFFFFFFFFFF AND PUSH20 0xFFFFFFFFFFFFFFFFFFFFFFFFFFFFFFFFFFFFFFFF AND DUP2 MSTORE PUSH1 0x20 ADD SWAP1 DUP2 MSTORE PUSH1 0x20 ADD PUSH0 KECCAK256 PUSH0 DUP3 DUP3 SLOAD PUSH2 0x964 SWAP2 SWAP1 PUSH2 0x1B04 JUMP JUMPDEST SWAP3 POP POP DUP2 SWAP1 SSTORE POP DUP1 DUP3 DUP6 DUP10 PUSH2 0x979 SWAP2 SWAP1 PUSH2 0x1B37 JUMP JUMPDEST PUSH2 0x983 SWAP2 SWAP1 PUSH2 0x1B37 JUMP JUMPDEST PUSH2 0x98D SWAP2 SWAP1 PUSH2 0x1B37 JUMP JUMPDEST SWAP6 POP POP PUSH2 0x9AF JUMP JUMPDEST DUP1 DUP4 DUP8 PUSH2 0x9A2 SWAP2 SWAP1 PUSH2 0x1B37 JUMP JUMPDEST PUSH2 0x9AC SWAP2 SWAP1 PUSH2 0x1B37 JUMP JUMPDEST SWAP5 POP JUMPDEST DUP1 DUP4 PUSH2 0x9BB SWAP2 SWAP1 PUSH2 0x1B04 JUMP JUMPDEST SWAP4 POP PUSH2 0xA03 PUSH2 0x9C8 PUSH2 0xC4F JUMP JUMPDEST DUP6 PUSH20 0x36CBD53842C5426634E7929541EC2318F3DCF7E PUSH20 0xFFFFFFFFFFFFFFFFFFFFFFFFFFFFFFFFFFFFFFFF AND PUSH2 0x1486 SWAP1 SWAP3 SWAP2 SWAP1 PUSH4 0xFFFFFFFF AND JUMP JUMPDEST POP POP POP JUMPDEST PUSH0 DUP6 PUSH0 ADD DUP2 SWAP1 SSTORE POP PUSH0 DUP6 PUSH1 0x1 ADD DUP2 SWAP1 SSTORE POP PUSH2 0xA57 CALLER DUP4 PUSH20 0x36CBD53842C5426634E7929541EC2318F3DCF7E PUSH20 0xFFFFFFFFFFFFFFFFFFFFFFFFFFFFFFFFFFFFFFFF AND PUSH2 0x1486 SWAP1 SWAP3 SWAP2 SWAP1 PUSH4 0xFFFFFFFF AND JUMP JUMPDEST POP POP POP POP POP PUSH2 0xA64 PUSH2 0x1505 JUMP JUMPDEST JUMP JUMPDEST PUSH1 0xA DUP2 JUMP JUMPDEST PUSH1 0x1 DUP2 JUMP JUMPDEST PUSH1 0x60 PUSH1 0x4 PUSH0 DUP4 PUSH20 0xFFFFFFFFFFFFFFFFFFFFFFFFFFFFFFFFFFFFFFFF AND PUSH20 0xFFFFFFFFFFFFFFFFFFFFFFFFFFFFFFFFFFFFFFFF AND DUP2 MSTORE PUSH1 0x20 ADD SWAP1 DUP2 MSTORE PUSH1 0x20 ADD PUSH0 KECCAK256 DUP1 SLOAD DUP1 PUSH1 0x20 MUL PUSH1 0x20 ADD PUSH1 0x40 MLOAD SWAP1 DUP2 ADD PUSH1 0x40 MSTORE DUP1 SWAP3 SWAP2 SWAP1 DUP2 DUP2 MSTORE PUSH1 0x20 ADD DUP3 DUP1 SLOAD DUP1 ISZERO PUSH2 0xB2C JUMPI PUSH1 0x20 MUL DUP3 ADD SWAP2 SWAP1 PUSH0 MSTORE PUSH1 0x20 PUSH0 KECCAK256 SWAP1 JUMPDEST DUP2 PUSH0 SWAP1 SLOAD SWAP1 PUSH2 0x100 EXP SWAP1 DIV PUSH20 0xFFFFFFFFFFFFFFFFFFFFFFFFFFFFFFFFFFFFFFFF AND PUSH20 0xFFFFFFFFFFFFFFFFFFFFFFFFFFFFFFFFFFFFFFFF AND DUP2 MSTORE PUSH1 0x20 ADD SWAP1 PUSH1 0x1 ADD SWAP1 DUP1 DUP4 GT PUSH2 0xAE3 JUMPI JUMPDEST POP POP POP POP POP SWAP1 POP SWAP2 SWAP1 POP JUMP JUMPDEST PUSH0 PUSH0 PUSH20 0x403D64B3F6B4A2B095754877395AB3255476D081 PUSH20 0xFFFFFFFFFFFFFFFFFFFFFFFFFFFFFFFFFFFFFFFF AND PUSH4 0x182DF0F5 PUSH1 0x40 MLOAD DUP2 PUSH4 0xFFFFFFFF AND PUSH1 0xE0 SHL DUP2 MSTORE PUSH1 0x4 ADD PUSH1 0x20 PUSH1 0x40 MLOAD DUP1 DUP4 SUB DUP2 DUP7 GAS STATICCALL ISZERO DUP1 ISZERO PUSH2 0xB97 JUMPI RETURNDATASIZE PUSH0 PUSH0 RETURNDATACOPY RETURNDATASIZE PUSH0 REVERT JUMPDEST POP POP POP POP PUSH1 0x40 MLOAD RETURNDATASIZE PUSH1 0x1F NOT PUSH1 0x1F DUP3 ADD AND DUP3 ADD DUP1 PUSH1 0x40 MSTORE POP DUP2 ADD SWAP1 PUSH2 0xBBB SWAP2 SWAP1 PUSH2 0x1BF6 JUMP JUMPDEST SWAP1 POP PUSH8 0xDE0B6B3A7640000 DUP2 PUSH1 0x2 PUSH0 DUP7 PUSH20 0xFFFFFFFFFFFFFFFFFFFFFFFFFFFFFFFFFFFFFFFF AND PUSH20 0xFFFFFFFFFFFFFFFFFFFFFFFFFFFFFFFFFFFFFFFF AND DUP2 MSTORE PUSH1 0x20 ADD SWAP1 DUP2 MSTORE PUSH1 0x20 ADD PUSH0 KECCAK256 PUSH1 0x1 ADD SLOAD PUSH2 0xC12 SWAP2 SWAP1 PUSH2 0x1C89 JUMP JUMPDEST PUSH2 0xC1C SWAP2 SWAP1 PUSH2 0x1CF7 JUMP JUMPDEST SWAP2 POP POP SWAP2 SWAP1 POP JUMP JUMPDEST PUSH2 0xC2C PUSH2 0x150E JUMP JUMPDEST PUSH2 0xC35 PUSH0 PUSH2 0x1595 JUMP JUMPDEST JUMP JUMPDEST PUSH20 0x36CBD53842C5426634E7929541EC2318F3DCF7E DUP2 JUMP JUMPDEST PUSH0 PUSH0 PUSH0 SWAP1 SLOAD SWAP1 PUSH2 0x100 EXP SWAP1 DIV PUSH20 0xFFFFFFFFFFFFFFFFFFFFFFFFFFFFFFFFFFFFFFFF AND SWAP1 POP SWAP1 JUMP JUMPDEST PUSH1 0x2 PUSH1 0x20 MSTORE DUP1 PUSH0 MSTORE PUSH1 0x40 PUSH0 KECCAK256 PUSH0 SWAP2 POP SWAP1 POP DUP1 PUSH0 ADD SLOAD SWAP1 DUP1 PUSH1 0x1 ADD SLOAD SWAP1 DUP1 PUSH1 0x2 ADD PUSH0 SWAP1 SLOAD SWAP1 PUSH2 0x100 EXP SWAP1 DIV PUSH20 0xFFFFFFFFFFFFFFFFFFFFFFFFFFFFFFFFFFFFFFFF AND SWAP1 DUP1 PUSH1 0x3 ADD SLOAD SWAP1 DUP1 PUSH1 0x4 ADD SLOAD SWAP1 POP DUP6 JUMP JUMPDEST PUSH1 0x3 PUSH1 0x20 MSTORE DUP1 PUSH0 MSTORE PUSH1 0x40 PUSH0 KECCAK256 PUSH0 SWAP2 POP SWAP1 POP SLOAD DUP2 JUMP JUMPDEST PUSH1 0x4 PUSH1 0x20 MSTORE DUP2 PUSH0 MSTORE PUSH1 0x40 PUSH0 KECCAK256 DUP2 DUP2 SLOAD DUP2 LT PUSH2 0xCF5 JUMPI PUSH0 DUP1 REVERT JUMPDEST SWAP1 PUSH0 MSTORE PUSH1 0x20 PUSH0 KECCAK256 ADD PUSH0 SWAP2 POP SWAP2 POP SWAP1 SLOAD SWAP1 PUSH2 0x100 EXP SWAP1 DIV PUSH20 0xFFFFFFFFFFFFFFFFFFFFFFFFFFFFFFFFFFFFFFFF AND DUP2 JUMP JUMPDEST PUSH2 0xD2C PUSH2 0x1437 JUMP JUMPDEST PUSH0 DUP3 GT PUSH2 0xD6E JUMPI PUSH1 0x40 MLOAD PUSH32 0x8C379A000000000000000000000000000000000000000000000000000000000 DUP2 MSTORE PUSH1 0x4 ADD PUSH2 0xD65 SWAP1 PUSH2 0x1D71 JUMP JUMPDEST PUSH1 0x40 MLOAD DUP1 SWAP2 SUB SWAP1 REVERT JUMPDEST CALLER PUSH20 0xFFFFFFFFFFFFFFFFFFFFFFFFFFFFFFFFFFFFFFFF AND DUP2 PUSH20 0xFFFFFFFFFFFFFFFFFFFFFFFFFFFFFFFFFFFFFFFF AND SUB PUSH2 0xDDC JUMPI PUSH1 0x40 MLOAD PUSH32 0x8C379A000000000000000000000000000000000000000000000000000000000 DUP2 MSTORE PUSH1 0x4 ADD PUSH2 0xDD3 SWAP1 PUSH2 0x1DD9 JUMP JUMPDEST PUSH1 0x40 MLOAD DUP1 SWAP2 SUB SWAP1 REVERT JUMPDEST PUSH0 PUSH20 0xFFFFFFFFFFFFFFFFFFFFFFFFFFFFFFFFFFFFFFFF AND PUSH1 0x2 PUSH0 CALLER PUSH20 0xFFFFFFFFFFFFFFFFFFFFFFFFFFFFFFFFFFFFFFFF AND PUSH20 0xFFFFFFFFFFFFFFFFFFFFFFFFFFFFFFFFFFFFFFFF AND DUP2 MSTORE PUSH1 0x20 ADD SWAP1 DUP2 MSTORE PUSH1 0x20 ADD PUSH0 KECCAK256 PUSH1 0x2 ADD PUSH0 SWAP1 SLOAD SWAP1 PUSH2 0x100 EXP SWAP1 DIV PUSH20 0xFFFFFFFFFFFFFFFFFFFFFFFFFFFFFFFFFFFFFFFF AND PUSH20 0xFFFFFFFFFFFFFFFFFFFFFFFFFFFFFFFFFFFFFFFF AND EQ DUP1 ISZERO PUSH2 0xEA2 JUMPI POP PUSH0 PUSH20 0xFFFFFFFFFFFFFFFFFFFFFFFFFFFFFFFFFFFFFFFF AND DUP2 PUSH20 0xFFFFFFFFFFFFFFFFFFFFFFFFFFFFFFFFFFFFFFFF AND EQ ISZERO JUMPDEST ISZERO PUSH2 0xFC1 JUMPI DUP1 PUSH1 0x2 PUSH0 CALLER PUSH20 0xFFFFFFFFFFFFFFFFFFFFFFFFFFFFFFFFFFFFFFFF AND PUSH20 0xFFFFFFFFFFFFFFFFFFFFFFFFFFFFFFFFFFFFFFFF AND DUP2 MSTORE PUSH1 0x20 ADD SWAP1 DUP2 MSTORE PUSH1 0x20 ADD PUSH0 KECCAK256 PUSH1 0x2 ADD PUSH0 PUSH2 0x100 EXP DUP2 SLOAD DUP2 PUSH20 0xFFFFFFFFFFFFFFFFFFFFFFFFFFFFFFFFFFFFFFFF MUL NOT AND SWAP1 DUP4 PUSH20 0xFFFFFFFFFFFFFFFFFFFFFFFFFFFFFFFFFFFFFFFF AND MUL OR SWAP1 SSTORE POP PUSH1 0x4 PUSH0 DUP3 PUSH20 0xFFFFFFFFFFFFFFFFFFFFFFFFFFFFFFFFFFFFFFFF AND PUSH20 0xFFFFFFFFFFFFFFFFFFFFFFFFFFFFFFFFFFFFFFFF AND DUP2 MSTORE PUSH1 0x20 ADD SWAP1 DUP2 MSTORE PUSH1 0x20 ADD PUSH0 KECCAK256 CALLER SWAP1 DUP1 PUSH1 0x1 DUP2 SLOAD ADD DUP1 DUP3 SSTORE DUP1 SWAP2 POP POP PUSH1 0x1 SWAP1 SUB SWAP1 PUSH0 MSTORE PUSH1 0x20 PUSH0 KECCAK256 ADD PUSH0 SWAP1 SWAP2 SWAP1 SWAP2 SWAP1 SWAP2 PUSH2 0x100 EXP DUP2 SLOAD DUP2 PUSH20 0xFFFFFFFFFFFFFFFFFFFFFFFFFFFFFFFFFFFFFFFF MUL NOT AND SWAP1 DUP4 PUSH20 0xFFFFFFFFFFFFFFFFFFFFFFFFFFFFFFFFFFFFFFFF AND MUL OR SWAP1 SSTORE POP JUMPDEST PUSH2 0x1002 CALLER ADDRESS DUP5 PUSH20 0x36CBD53842C5426634E7929541EC2318F3DCF7E PUSH20 0xFFFFFFFFFFFFFFFFFFFFFFFFFFFFFFFFFFFFFFFF AND PUSH2 0x1656 SWAP1 SWAP4 SWAP3 SWAP2 SWAP1 PUSH4 0xFFFFFFFF AND JUMP JUMPDEST PUSH20 0x36CBD53842C5426634E7929541EC2318F3DCF7E PUSH20 0xFFFFFFFFFFFFFFFFFFFFFFFFFFFFFFFFFFFFFFFF AND PUSH4 0x95EA7B3 PUSH20 0x403D64B3F6B4A2B095754877395AB3255476D081 DUP5 PUSH1 0x40 MLOAD DUP4 PUSH4 0xFFFFFFFF AND PUSH1 0xE0 SHL DUP2 MSTORE PUSH1 0x4 ADD PUSH2 0x1065 SWAP3 SWAP2 SWAP1 PUSH2 0x1DF7 JUMP JUMPDEST PUSH1 0x20 PUSH1 0x40 MLOAD DUP1 DUP4 SUB DUP2 PUSH0 DUP8 GAS CALL ISZERO DUP1 ISZERO PUSH2 0x1081 JUMPI RETURNDATASIZE PUSH0 PUSH0 RETURNDATACOPY RETURNDATASIZE PUSH0 REVERT JUMPDEST POP POP POP POP PUSH1 0x40 MLOAD RETURNDATASIZE PUSH1 0x1F NOT PUSH1 0x1F DUP3 ADD AND DUP3 ADD DUP1 PUSH1 0x40 MSTORE POP DUP2 ADD SWAP1 PUSH2 0x10A5 SWAP2 SWAP1 PUSH2 0x1E53 JUMP JUMPDEST POP PUSH0 PUSH20 0x403D64B3F6B4A2B095754877395AB3255476D081 PUSH20 0xFFFFFFFFFFFFFFFFFFFFFFFFFFFFFFFFFFFFFFFF AND PUSH4 0x70A08231 ADDRESS PUSH1 0x40 MLOAD DUP3 PUSH4 0xFFFFFFFF AND PUSH1 0xE0 SHL DUP2 MSTORE PUSH1 0x4 ADD PUSH2 0x10F4 SWAP2 SWAP1 PUSH2 0x198E JUMP JUMPDEST PUSH1 0x20 PUSH1 0x40 MLOAD DUP1 DUP4 SUB DUP2 DUP7 GAS STATICCALL ISZERO DUP1 ISZERO PUSH2 0x110F JUMPI RETURNDATASIZE PUSH0 PUSH0 RETURNDATACOPY RETURNDATASIZE PUSH0 REVERT JUMPDEST POP POP POP POP PUSH1 0x40 MLOAD RETURNDATASIZE PUSH1 0x1F NOT PUSH1 0x1F DUP3 ADD AND DUP3 ADD DUP1 PUSH1 0x40 MSTORE POP DUP2 ADD SWAP1 PUSH2 0x1133 SWAP2 SWAP1 PUSH2 0x1BF6 JUMP JUMPDEST SWAP1 POP PUSH0 PUSH20 0x403D64B3F6B4A2B095754877395AB3255476D081 PUSH20 0xFFFFFFFFFFFFFFFFFFFFFFFFFFFFFFFFFFFFFFFF AND PUSH4 0xA0712D68 DUP6 PUSH1 0x40 MLOAD DUP3 PUSH4 0xFFFFFFFF AND PUSH1 0xE0 SHL DUP2 MSTORE PUSH1 0x4 ADD PUSH2 0x1183 SWAP2 SWAP1 PUSH2 0x181B JUMP JUMPDEST PUSH1 0x20 PUSH1 0x40 MLOAD DUP1 DUP4 SUB DUP2 PUSH0 DUP8 GAS CALL ISZERO DUP1 ISZERO PUSH2 0x119F JUMPI RETURNDATASIZE PUSH0 PUSH0 RETURNDATACOPY RETURNDATASIZE PUSH0 REVERT JUMPDEST POP POP POP POP PUSH1 0x40 MLOAD RETURNDATASIZE PUSH1 0x1F NOT PUSH1 0x1F DUP3 ADD AND DUP3 ADD DUP1 PUSH1 0x40 MSTORE POP DUP2 ADD SWAP1 PUSH2 0x11C3 SWAP2 SWAP1 PUSH2 0x1BF6 JUMP JUMPDEST EQ PUSH2 0x1203 JUMPI PUSH1 0x40 MLOAD PUSH32 0x8C379A000000000000000000000000000000000000000000000000000000000 DUP2 MSTORE PUSH1 0x4 ADD PUSH2 0x11FA SWAP1 PUSH2 0x1EC8 JUMP JUMPDEST PUSH1 0x40 MLOAD DUP1 SWAP2 SUB SWAP1 REVERT JUMPDEST PUSH0 DUP2 PUSH20 0x403D64B3F6B4A2B095754877395AB3255476D081 PUSH20 0xFFFFFFFFFFFFFFFFFFFFFFFFFFFFFFFFFFFFFFFF AND PUSH4 0x70A08231 ADDRESS PUSH1 0x40 MLOAD DUP3 PUSH4 0xFFFFFFFF AND PUSH1 0xE0 SHL DUP2 MSTORE PUSH1 0x4 ADD PUSH2 0x1252 SWAP2 SWAP1 PUSH2 0x198E JUMP JUMPDEST PUSH1 0x20 PUSH1 0x40 MLOAD DUP1 DUP4 SUB DUP2 DUP7 GAS STATICCALL ISZERO DUP1 ISZERO PUSH2 0x126D JUMPI RETURNDATASIZE PUSH0 PUSH0 RETURNDATACOPY RETURNDATASIZE PUSH0 REVERT JUMPDEST POP POP POP POP PUSH1 0x40 MLOAD RETURNDATASIZE PUSH1 0x1F NOT PUSH1 0x1F DUP3 ADD AND DUP3 ADD DUP1 PUSH1 0x40 MSTORE POP DUP2 ADD SWAP1 PUSH2 0x1291 SWAP2 SWAP1 PUSH2 0x1BF6 JUMP JUMPDEST PUSH2 0x129B SWAP2 SWAP1 PUSH2 0x1B37 JUMP JUMPDEST SWAP1 POP DUP4 PUSH1 0x2 PUSH0 CALLER PUSH20 0xFFFFFFFFFFFFFFFFFFFFFFFFFFFFFFFFFFFFFFFF AND PUSH20 0xFFFFFFFFFFFFFFFFFFFFFFFFFFFFFFFFFFFFFFFF AND DUP2 MSTORE PUSH1 0x20 ADD SWAP1 DUP2 MSTORE PUSH1 0x20 ADD PUSH0 KECCAK256 PUSH0 ADD PUSH0 DUP3 DUP3 SLOAD PUSH2 0x12EB SWAP2 SWAP1 PUSH2 0x1B04 JUMP JUMPDEST SWAP3 POP POP DUP2 SWAP1 SSTORE POP DUP1 PUSH1 0x2 PUSH0 CALLER PUSH20 0xFFFFFFFFFFFFFFFFFFFFFFFFFFFFFFFFFFFFFFFF AND PUSH20 0xFFFFFFFFFFFFFFFFFFFFFFFFFFFFFFFFFFFFFFFF AND DUP2 MSTORE PUSH1 0x20 ADD SWAP1 DUP2 MSTORE PUSH1 0x20 ADD PUSH0 KECCAK256 PUSH1 0x1 ADD PUSH0 DUP3 DUP3 SLOAD PUSH2 0x1341 SWAP2 SWAP1 PUSH2 0x1B04 JUMP JUMPDEST SWAP3 POP POP DUP2 SWAP1 SSTORE POP TIMESTAMP PUSH1 0x2 PUSH0 CALLER PUSH20 0xFFFFFFFFFFFFFFFFFFFFFFFFFFFFFFFFFFFFFFFF AND PUSH20 0xFFFFFFFFFFFFFFFFFFFFFFFFFFFFFFFFFFFFFFFF AND DUP2 MSTORE PUSH1 0x20 ADD SWAP1 DUP2 MSTORE PUSH1 0x20 ADD PUSH0 KECCAK256 PUSH1 0x4 ADD DUP2 SWAP1 SSTORE POP POP POP PUSH2 0x1397 PUSH2 0x1505 JUMP JUMPDEST POP POP JUMP JUMPDEST PUSH2 0x13A3 PUSH2 0x150E JUMP JUMPDEST PUSH0 PUSH20 0xFFFFFFFFFFFFFFFFFFFFFFFFFFFFFFFFFFFFFFFF AND DUP2 PUSH20 0xFFFFFFFFFFFFFFFFFFFFFFFFFFFFFFFFFFFFFFFF AND SUB PUSH2 0x1413 JUMPI PUSH0 PUSH1 0x40 MLOAD PUSH32 0x1E4FBDF700000000000000000000000000000000000000000000000000000000 DUP2 MSTORE PUSH1 0x4 ADD PUSH2 0x140A SWAP2 SWAP1 PUSH2 0x198E JUMP JUMPDEST PUSH1 0x40 MLOAD DUP1 SWAP2 SUB SWAP1 REVERT JUMPDEST PUSH2 0x141C DUP2 PUSH2 0x1595 JUMP JUMPDEST POP JUMP JUMPDEST PUSH20 0x403D64B3F6B4A2B095754877395AB3255476D081 DUP2 JUMP JUMPDEST PUSH1 0x2 PUSH1 0x1 SLOAD SUB PUSH2 0x147C JUMPI PUSH1 0x40 MLOAD PUSH32 0x8C379A000000000000000000000000000000000000000000000000000000000 DUP2 MSTORE PUSH1 0x4 ADD PUSH2 0x1473 SWAP1 PUSH2 0x1F30 JUMP JUMPDEST PUSH1 0x40 MLOAD DUP1 SWAP2 SUB SWAP1 REVERT JUMPDEST PUSH1 0x2 PUSH1 0x1 DUP2 SWAP1 SSTORE POP JUMP JUMPDEST PUSH2 0x1500 DUP4 DUP5 PUSH20 0xFFFFFFFFFFFFFFFFFFFFFFFFFFFFFFFFFFFFFFFF AND PUSH4 0xA9059CBB DUP6 DUP6 PUSH1 0x40 MLOAD PUSH1 0x24 ADD PUSH2 0x14B9 SWAP3 SWAP2 SWAP1 PUSH2 0x1DF7 JUMP JUMPDEST PUSH1 0x40 MLOAD PUSH1 0x20 DUP2 DUP4 SUB SUB DUP2 MSTORE SWAP1 PUSH1 0x40 MSTORE SWAP2 POP PUSH1 0xE0 SHL PUSH1 0x20 DUP3 ADD DUP1 MLOAD PUSH28 0xFFFFFFFFFFFFFFFFFFFFFFFFFFFFFFFFFFFFFFFFFFFFFFFFFFFFFFFF DUP4 DUP2 DUP4 AND OR DUP4 MSTORE POP POP POP POP PUSH2 0x16D8 JUMP JUMPDEST POP POP POP JUMP JUMPDEST PUSH1 0x1 DUP1 DUP2 SWAP1 SSTORE POP JUMP JUMPDEST PUSH2 0x1516 PUSH2 0x1773 JUMP JUMPDEST PUSH20 0xFFFFFFFFFFFFFFFFFFFFFFFFFFFFFFFFFFFFFFFF AND PUSH2 0x1534 PUSH2 0xC4F JUMP JUMPDEST PUSH20 0xFFFFFFFFFFFFFFFFFFFFFFFFFFFFFFFFFFFFFFFF AND EQ PUSH2 0x1593 JUMPI PUSH2 0x1557 PUSH2 0x1773 JUMP JUMPDEST PUSH1 0x40 MLOAD PUSH32 0x118CDAA700000000000000000000000000000000000000000000000000000000 DUP2 MSTORE PUSH1 0x4 ADD PUSH2 0x158A SWAP2 SWAP1 PUSH2 0x198E JUMP JUMPDEST PUSH1 0x40 MLOAD DUP1 SWAP2 SUB SWAP1 REVERT JUMPDEST JUMP JUMPDEST PUSH0 PUSH0 PUSH0 SWAP1 SLOAD SWAP1 PUSH2 0x100 EXP SWAP1 DIV PUSH20 0xFFFFFFFFFFFFFFFFFFFFFFFFFFFFFFFFFFFFFFFF AND SWAP1 POP DUP2 PUSH0 PUSH0 PUSH2 0x100 EXP DUP2 SLOAD DUP2 PUSH20 0xFFFFFFFFFFFFFFFFFFFFFFFFFFFFFFFFFFFFFFFF MUL NOT AND SWAP1 DUP4 PUSH20 0xFFFFFFFFFFFFFFFFFFFFFFFFFFFFFFFFFFFFFFFF AND MUL OR SWAP1 SSTORE POP DUP2 PUSH20 0xFFFFFFFFFFFFFFFFFFFFFFFFFFFFFFFFFFFFFFFF AND DUP2 PUSH20 0xFFFFFFFFFFFFFFFFFFFFFFFFFFFFFFFFFFFFFFFF AND PUSH32 0x8BE0079C531659141344CD1FD0A4F28419497F9722A3DAAFE3B4186F6B6457E0 PUSH1 0x40 MLOAD PUSH1 0x40 MLOAD DUP1 SWAP2 SUB SWAP1 LOG3 POP POP JUMP JUMPDEST PUSH2 0x16D2 DUP5 DUP6 PUSH20 0xFFFFFFFFFFFFFFFFFFFFFFFFFFFFFFFFFFFFFFFF AND PUSH4 0x23B872DD DUP7 DUP7 DUP7 PUSH1 0x40 MLOAD PUSH1 0x24 ADD PUSH2 0x168B SWAP4 SWAP3 SWAP2 SWAP1 PUSH2 0x1F4E JUMP JUMPDEST PUSH1 0x40 MLOAD PUSH1 0x20 DUP2 DUP4 SUB SUB DUP2 MSTORE SWAP1 PUSH1 0x40 MSTORE SWAP2 POP PUSH1 0xE0 SHL PUSH1 0x20 DUP3 ADD DUP1 MLOAD PUSH28 0xFFFFFFFFFFFFFFFFFFFFFFFFFFFFFFFFFFFFFFFFFFFFFFFFFFFFFFFF DUP4 DUP2 DUP4 AND OR DUP4 MSTORE POP POP POP POP PUSH2 0x16D8 JUMP JUMPDEST POP POP POP POP JUMP JUMPDEST PUSH0 PUSH0 PUSH1 0x20 PUSH0 DUP5 MLOAD PUSH1 0x20 DUP7 ADD PUSH0 DUP9 GAS CALL DUP1 PUSH2 0x16F7 JUMPI PUSH1 0x40 MLOAD RETURNDATASIZE PUSH0 DUP3 RETURNDATACOPY RETURNDATASIZE DUP2 REVERT JUMPDEST RETURNDATASIZE SWAP3 POP PUSH0 MLOAD SWAP2 POP POP PUSH0 DUP3 EQ PUSH2 0x1710 JUMPI PUSH1 0x1 DUP2 EQ ISZERO PUSH2 0x172B JUMP JUMPDEST PUSH0 DUP5 PUSH20 0xFFFFFFFFFFFFFFFFFFFFFFFFFFFFFFFFFFFFFFFF AND EXTCODESIZE EQ JUMPDEST ISZERO PUSH2 0x176D JUMPI DUP4 PUSH1 0x40 MLOAD PUSH32 0x5274AFE700000000000000000000000000000000000000000000000000000000 DUP2 MSTORE PUSH1 0x4 ADD PUSH2 0x1764 SWAP2 SWAP1 PUSH2 0x198E JUMP JUMPDEST PUSH1 0x40 MLOAD DUP1 SWAP2 SUB SWAP1 REVERT JUMPDEST POP POP POP POP JUMP JUMPDEST PUSH0 CALLER SWAP1 POP SWAP1 JUMP JUMPDEST PUSH0 PUSH0 REVERT JUMPDEST PUSH0 PUSH20 0xFFFFFFFFFFFFFFFFFFFFFFFFFFFFFFFFFFFFFFFF DUP3 AND SWAP1 POP SWAP2 SWAP1 POP JUMP JUMPDEST PUSH0 PUSH2 0x17A7 DUP3 PUSH2 0x177E JUMP JUMPDEST SWAP1 POP SWAP2 SWAP1 POP JUMP JUMPDEST PUSH2 0x17B7 DUP2 PUSH2 0x179D JUMP JUMPDEST DUP2 EQ PUSH2 0x17C1 JUMPI PUSH0 PUSH0 REVERT JUMPDEST POP JUMP JUMPDEST PUSH0 DUP2 CALLDATALOAD SWAP1 POP PUSH2 0x17D2 DUP2 PUSH2 0x17AE JUMP JUMPDEST SWAP3 SWAP2 POP POP JUMP JUMPDEST PUSH0 PUSH1 0x20 DUP3 DUP5 SUB SLT ISZERO PUSH2 0x17ED JUMPI PUSH2 0x17EC PUSH2 0x177A JUMP JUMPDEST JUMPDEST PUSH0 PUSH2 0x17FA DUP5 DUP3 DUP6 ADD PUSH2 0x17C4 JUMP JUMPDEST SWAP2 POP POP SWAP3 SWAP2 POP POP JUMP JUMPDEST PUSH0 DUP2 SWAP1 POP SWAP2 SWAP1 POP JUMP JUMPDEST PUSH2 0x1815 DUP2 PUSH2 0x1803 JUMP JUMPDEST DUP3 MSTORE POP POP JUMP JUMPDEST PUSH0 PUSH1 0x20 DUP3 ADD SWAP1 POP PUSH2 0x182E PUSH0 DUP4 ADD DUP5 PUSH2 0x180C JUMP JUMPDEST SWAP3 SWAP2 POP POP JUMP JUMPDEST PUSH0 DUP2 MLOAD SWAP1 POP SWAP2 SWAP1 POP JUMP JUMPDEST PUSH0 DUP3 DUP3 MSTORE PUSH1 0x20 DUP3 ADD SWAP1 POP SWAP3 SWAP2 POP POP JUMP JUMPDEST PUSH0 DUP2 SWAP1 POP PUSH1 0x20 DUP3 ADD SWAP1 POP SWAP2 SWAP1 POP JUMP JUMPDEST PUSH2 0x1866 DUP2 PUSH2 0x179D JUMP JUMPDEST DUP3 MSTORE POP POP JUMP JUMPDEST PUSH0 PUSH2 0x1877 DUP4 DUP4 PUSH2 0x185D JUMP JUMPDEST PUSH1 0x20 DUP4 ADD SWAP1 POP SWAP3 SWAP2 POP POP JUMP JUMPDEST PUSH0 PUSH1 0x20 DUP3 ADD SWAP1 POP SWAP2 SWAP1 POP JUMP JUMPDEST PUSH0 PUSH2 0x1899 DUP3 PUSH2 0x1834 JUMP JUMPDEST PUSH2 0x18A3 DUP2 DUP6 PUSH2 0x183E JUMP JUMPDEST SWAP4 POP PUSH2 0x18AE DUP4 PUSH2 0x184E JUMP JUMPDEST DUP1 PUSH0 JUMPDEST DUP4 DUP2 LT ISZERO PUSH2 0x18DE JUMPI DUP2 MLOAD PUSH2 0x18C5 DUP9 DUP3 PUSH2 0x186C JUMP JUMPDEST SWAP8 POP PUSH2 0x18D0 DUP4 PUSH2 0x1883 JUMP JUMPDEST SWAP3 POP POP PUSH1 0x1 DUP2 ADD SWAP1 POP PUSH2 0x18B1 JUMP JUMPDEST POP DUP6 SWAP4 POP POP POP POP SWAP3 SWAP2 POP POP JUMP JUMPDEST PUSH0 PUSH1 0x20 DUP3 ADD SWAP1 POP DUP2 DUP2 SUB PUSH0 DUP4 ADD MSTORE PUSH2 0x1903 DUP2 DUP5 PUSH2 0x188F JUMP JUMPDEST SWAP1 POP SWAP3 SWAP2 POP POP JUMP JUMPDEST PUSH0 DUP2 SWAP1 POP SWAP2 SWAP1 POP JUMP JUMPDEST PUSH0 PUSH2 0x192E PUSH2 0x1929 PUSH2 0x1924 DUP5 PUSH2 0x177E JUMP JUMPDEST PUSH2 0x190B JUMP JUMPDEST PUSH2 0x177E JUMP JUMPDEST SWAP1 POP SWAP2 SWAP1 POP JUMP JUMPDEST PUSH0 PUSH2 0x193F DUP3 PUSH2 0x1914 JUMP JUMPDEST SWAP1 POP SWAP2 SWAP1 POP JUMP JUMPDEST PUSH0 PUSH2 0x1950 DUP3 PUSH2 0x1935 JUMP JUMPDEST SWAP1 POP SWAP2 SWAP1 POP JUMP JUMPDEST PUSH2 0x1960 DUP2 PUSH2 0x1946 JUMP JUMPDEST DUP3 MSTORE POP POP JUMP JUMPDEST PUSH0 PUSH1 0x20 DUP3 ADD SWAP1 POP PUSH2 0x1979 PUSH0 DUP4 ADD DUP5 PUSH2 0x1957 JUMP JUMPDEST SWAP3 SWAP2 POP POP JUMP JUMPDEST PUSH2 0x1988 DUP2 PUSH2 0x179D JUMP JUMPDEST DUP3 MSTORE POP POP JUMP JUMPDEST PUSH0 PUSH1 0x20 DUP3 ADD SWAP1 POP PUSH2 0x19A1 PUSH0 DUP4 ADD DUP5 PUSH2 0x197F JUMP JUMPDEST SWAP3 SWAP2 POP POP JUMP JUMPDEST PUSH0 PUSH1 0xA0 DUP3 ADD SWAP1 POP PUSH2 0x19BA PUSH0 DUP4 ADD DUP9 PUSH2 0x180C JUMP JUMPDEST PUSH2 0x19C7 PUSH1 0x20 DUP4 ADD DUP8 PUSH2 0x180C JUMP JUMPDEST PUSH2 0x19D4 PUSH1 0x40 DUP4 ADD DUP7 PUSH2 0x197F JUMP JUMPDEST PUSH2 0x19E1 PUSH1 0x60 DUP4 ADD DUP6 PUSH2 0x180C JUMP JUMPDEST PUSH2 0x19EE PUSH1 0x80 DUP4 ADD DUP5 PUSH2 0x180C JUMP JUMPDEST SWAP7 SWAP6 POP POP POP POP POP POP JUMP JUMPDEST PUSH2 0x1A01 DUP2 PUSH2 0x1803 JUMP JUMPDEST DUP2 EQ PUSH2 0x1A0B JUMPI PUSH0 PUSH0 REVERT JUMPDEST POP JUMP JUMPDEST PUSH0 DUP2 CALLDATALOAD SWAP1 POP PUSH2 0x1A1C DUP2 PUSH2 0x19F8 JUMP JUMPDEST SWAP3 SWAP2 POP POP JUMP JUMPDEST PUSH0 PUSH0 PUSH1 0x40 DUP4 DUP6 SUB SLT ISZERO PUSH2 0x1A38 JUMPI PUSH2 0x1A37 PUSH2 0x177A JUMP JUMPDEST JUMPDEST PUSH0 PUSH2 0x1A45 DUP6 DUP3 DUP7 ADD PUSH2 0x17C4 JUMP JUMPDEST SWAP3 POP POP PUSH1 0x20 PUSH2 0x1A56 DUP6 DUP3 DUP7 ADD PUSH2 0x1A0E JUMP JUMPDEST SWAP2 POP POP SWAP3 POP SWAP3 SWAP1 POP JUMP JUMPDEST PUSH0 PUSH0 PUSH1 0x40 DUP4 DUP6 SUB SLT ISZERO PUSH2 0x1A76 JUMPI PUSH2 0x1A75 PUSH2 0x177A JUMP JUMPDEST JUMPDEST PUSH0 PUSH2 0x1A83 DUP6 DUP3 DUP7 ADD PUSH2 0x1A0E JUMP JUMPDEST SWAP3 POP POP PUSH1 0x20 PUSH2 0x1A94 DUP6 DUP3 DUP7 ADD PUSH2 0x17C4 JUMP JUMPDEST SWAP2 POP POP SWAP3 POP SWAP3 SWAP1 POP JUMP JUMPDEST PUSH0 PUSH2 0x1AA8 DUP3 PUSH2 0x1935 JUMP JUMPDEST SWAP1 POP SWAP2 SWAP1 POP JUMP JUMPDEST PUSH2 0x1AB8 DUP2 PUSH2 0x1A9E JUMP JUMPDEST DUP3 MSTORE POP POP JUMP JUMPDEST PUSH0 PUSH1 0x20 DUP3 ADD SWAP1 POP PUSH2 0x1AD1 PUSH0 DUP4 ADD DUP5 PUSH2 0x1AAF JUMP JUMPDEST SWAP3 SWAP2 POP POP JUMP JUMPDEST PUSH32 0x4E487B7100000000000000000000000000000000000000000000000000000000 PUSH0 MSTORE PUSH1 0x11 PUSH1 0x4 MSTORE PUSH1 0x24 PUSH0 REVERT JUMPDEST PUSH0 PUSH2 0x1B0E DUP3 PUSH2 0x1803 JUMP JUMPDEST SWAP2 POP PUSH2 0x1B19 DUP4 PUSH2 0x1803 JUMP JUMPDEST SWAP3 POP DUP3 DUP3 ADD SWAP1 POP DUP1 DUP3 GT ISZERO PUSH2 0x1B31 JUMPI PUSH2 0x1B30 PUSH2 0x1AD7 JUMP JUMPDEST JUMPDEST SWAP3 SWAP2 POP POP JUMP JUMPDEST PUSH0 PUSH2 0x1B41 DUP3 PUSH2 0x1803 JUMP JUMPDEST SWAP2 POP PUSH2 0x1B4C DUP4 PUSH2 0x1803 JUMP JUMPDEST SWAP3 POP DUP3 DUP3 SUB SWAP1 POP DUP2 DUP2 GT ISZERO PUSH2 0x1B64 JUMPI PUSH2 0x1B63 PUSH2 0x1AD7 JUMP JUMPDEST JUMPDEST SWAP3 SWAP2 POP POP JUMP JUMPDEST PUSH0 DUP3 DUP3 MSTORE PUSH1 0x20 DUP3 ADD SWAP1 POP SWAP3 SWAP2 POP POP JUMP JUMPDEST PUSH32 0x456D7074792062616C616E636500000000000000000000000000000000000000 PUSH0 DUP3 ADD MSTORE POP JUMP JUMPDEST PUSH0 PUSH2 0x1BAE PUSH1 0xD DUP4 PUSH2 0x1B6A JUMP JUMPDEST SWAP2 POP PUSH2 0x1BB9 DUP3 PUSH2 0x1B7A JUMP JUMPDEST PUSH1 0x20 DUP3 ADD SWAP1 POP SWAP2 SWAP1 POP JUMP JUMPDEST PUSH0 PUSH1 0x20 DUP3 ADD SWAP1 POP DUP2 DUP2 SUB PUSH0 DUP4 ADD MSTORE PUSH2 0x1BDB DUP2 PUSH2 0x1BA2 JUMP JUMPDEST SWAP1 POP SWAP2 SWAP1 POP JUMP JUMPDEST PUSH0 DUP2 MLOAD SWAP1 POP PUSH2 0x1BF0 DUP2 PUSH2 0x19F8 JUMP JUMPDEST SWAP3 SWAP2 POP POP JUMP JUMPDEST PUSH0 PUSH1 0x20 DUP3 DUP5 SUB SLT ISZERO PUSH2 0x1C0B JUMPI PUSH2 0x1C0A PUSH2 0x177A JUMP JUMPDEST JUMPDEST PUSH0 PUSH2 0x1C18 DUP5 DUP3 DUP6 ADD PUSH2 0x1BE2 JUMP JUMPDEST SWAP2 POP POP SWAP3 SWAP2 POP POP JUMP JUMPDEST PUSH32 0x52656465656D206661696C656400000000000000000000000000000000000000 PUSH0 DUP3 ADD MSTORE POP JUMP JUMPDEST PUSH0 PUSH2 0x1C55 PUSH1 0xD DUP4 PUSH2 0x1B6A JUMP JUMPDEST SWAP2 POP PUSH2 0x1C60 DUP3 PUSH2 0x1C21 JUMP JUMPDEST PUSH1 0x20 DUP3 ADD SWAP1 POP SWAP2 SWAP1 POP JUMP JUMPDEST PUSH0 PUSH1 0x20 DUP3 ADD SWAP1 POP DUP2 DUP2 SUB PUSH0 DUP4 ADD MSTORE PUSH2 0x1C82 DUP2 PUSH2 0x1C49 JUMP JUMPDEST SWAP1 POP SWAP2 SWAP1 POP JUMP JUMPDEST PUSH0 PUSH2 0x1C93 DUP3 PUSH2 0x1803 JUMP JUMPDEST SWAP2 POP PUSH2 0x1C9E DUP4 PUSH2 0x1803 JUMP JUMPDEST SWAP3 POP DUP3 DUP3 MUL PUSH2 0x1CAC DUP2 PUSH2 0x1803 JUMP JUMPDEST SWAP2 POP DUP3 DUP3 DIV DUP5 EQ DUP4 ISZERO OR PUSH2 0x1CC3 JUMPI PUSH2 0x1CC2 PUSH2 0x1AD7 JUMP JUMPDEST JUMPDEST POP SWAP3 SWAP2 POP POP JUMP JUMPDEST PUSH32 0x4E487B7100000000000000000000000000000000000000000000000000000000 PUSH0 MSTORE PUSH1 0x12 PUSH1 0x4 MSTORE PUSH1 0x24 PUSH0 REVERT JUMPDEST PUSH0 PUSH2 0x1D01 DUP3 PUSH2 0x1803 JUMP JUMPDEST SWAP2 POP PUSH2 0x1D0C DUP4 PUSH2 0x1803 JUMP JUMPDEST SWAP3 POP DUP3 PUSH2 0x1D1C JUMPI PUSH2 0x1D1B PUSH2 0x1CCA JUMP JUMPDEST JUMPDEST DUP3 DUP3 DIV SWAP1 POP SWAP3 SWAP2 POP POP JUMP JUMPDEST PUSH32 0x416D6F756E74203E203000000000000000000000000000000000000000000000 PUSH0 DUP3 ADD MSTORE POP JUMP JUMPDEST PUSH0 PUSH2 0x1D5B PUSH1 0xA DUP4 PUSH2 0x1B6A JUMP JUMPDEST SWAP2 POP PUSH2 0x1D66 DUP3 PUSH2 0x1D27 JUMP JUMPDEST PUSH1 0x20 DUP3 ADD SWAP1 POP SWAP2 SWAP1 POP JUMP JUMPDEST PUSH0 PUSH1 0x20 DUP3 ADD SWAP1 POP DUP2 DUP2 SUB PUSH0 DUP4 ADD MSTORE PUSH2 0x1D88 DUP2 PUSH2 0x1D4F JUMP JUMPDEST SWAP1 POP SWAP2 SWAP1 POP JUMP JUMPDEST PUSH32 0x4E6F2073656C662D726566657272616C00000000000000000000000000000000 PUSH0 DUP3 ADD MSTORE POP JUMP JUMPDEST PUSH0 PUSH2 0x1DC3 PUSH1 0x10 DUP4 PUSH2 0x1B6A JUMP JUMPDEST SWAP2 POP PUSH2 0x1DCE DUP3 PUSH2 0x1D8F JUMP JUMPDEST PUSH1 0x20 DUP3 ADD SWAP1 POP SWAP2 SWAP1 POP JUMP JUMPDEST PUSH0 PUSH1 0x20 DUP3 ADD SWAP1 POP DUP2 DUP2 SUB PUSH0 DUP4 ADD MSTORE PUSH2 0x1DF0 DUP2 PUSH2 0x1DB7 JUMP JUMPDEST SWAP1 POP SWAP2 SWAP1 POP JUMP JUMPDEST PUSH0 PUSH1 0x40 DUP3 ADD SWAP1 POP PUSH2 0x1E0A PUSH0 DUP4 ADD DUP6 PUSH2 0x197F JUMP JUMPDEST PUSH2 0x1E17 PUSH1 0x20 DUP4 ADD DUP5 PUSH2 0x180C JUMP JUMPDEST SWAP4 SWAP3 POP POP POP JUMP JUMPDEST PUSH0 DUP2 ISZERO ISZERO SWAP1 POP SWAP2 SWAP1 POP JUMP JUMPDEST PUSH2 0x1E32 DUP2 PUSH2 0x1E1E JUMP JUMPDEST DUP2 EQ PUSH2 0x1E3C JUMPI PUSH0 PUSH0 REVERT JUMPDEST POP JUMP JUMPDEST PUSH0 DUP2 MLOAD SWAP1 POP PUSH2 0x1E4D DUP2 PUSH2 0x1E29 JUMP JUMPDEST SWAP3 SWAP2 POP POP JUMP JUMPDEST PUSH0 PUSH1 0x20 DUP3 DUP5 SUB SLT ISZERO PUSH2 0x1E68 JUMPI PUSH2 0x1E67 PUSH2 0x177A JUMP JUMPDEST JUMPDEST PUSH0 PUSH2 0x1E75 DUP5 DUP3 DUP6 ADD PUSH2 0x1E3F JUMP JUMPDEST SWAP2 POP POP SWAP3 SWAP2 POP POP JUMP JUMPDEST PUSH32 0x4D696E74206661696C6564000000000000000000000000000000000000000000 PUSH0 DUP3 ADD MSTORE POP JUMP JUMPDEST PUSH0 PUSH2 0x1EB2 PUSH1 0xB DUP4 PUSH2 0x1B6A JUMP JUMPDEST SWAP2 POP PUSH2 0x1EBD DUP3 PUSH2 0x1E7E JUMP JUMPDEST PUSH1 0x20 DUP3 ADD SWAP1 POP SWAP2 SWAP1 POP JUMP JUMPDEST PUSH0 PUSH1 0x20 DUP3 ADD SWAP1 POP DUP2 DUP2 SUB PUSH0 DUP4 ADD MSTORE PUSH2 0x1EDF DUP2 PUSH2 0x1EA6 JUMP JUMPDEST SWAP1 POP SWAP2 SWAP1 POP JUMP JUMPDEST PUSH32 0x5265656E7472616E637947756172643A207265656E7472616E742063616C6C00 PUSH0 DUP3 ADD MSTORE POP JUMP JUMPDEST PUSH0 PUSH2 0x1F1A PUSH1 0x1F DUP4 PUSH2 0x1B6A JUMP JUMPDEST SWAP2 POP PUSH2 0x1F25 DUP3 PUSH2 0x1EE6 JUMP JUMPDEST PUSH1 0x20 DUP3 ADD SWAP1 POP SWAP2 SWAP1 POP JUMP JUMPDEST PUSH0 PUSH1 0x20 DUP3 ADD SWAP1 POP DUP2 DUP2 SUB PUSH0 DUP4 ADD MSTORE PUSH2 0x1F47 DUP2 PUSH2 0x1F0E JUMP JUMPDEST SWAP1 POP SWAP2 SWAP1 POP JUMP JUMPDEST PUSH0 PUSH1 0x60 DUP3 ADD SWAP1 POP PUSH2 0x1F61 PUSH0 DUP4 ADD DUP7 PUSH2 0x197F JUMP JUMPDEST PUSH2 0x1F6E PUSH1 0x20 DUP4 ADD DUP6 PUSH2 0x197F JUMP JUMPDEST PUSH2 0x1F7B PUSH1 0x40 DUP4 ADD DUP5 PUSH2 0x180C JUMP JUMPDEST SWAP5 SWAP4 POP POP POP POP JUMP INVALID LOG2 PUSH5 0x6970667358 0x22 SLT KECCAK256 XOR DIV REVERT DUP2 PUSH21 0x4CB7AB18A4DE3CD9F3B5AEF3ABB006B958A22C6E89 CALLDATALOAD 0x2E 0xBC ADD PUSH26 0xFB64736F6C634300081F00330000000000000000000000000000 "
				},
				"gasEstimates": {
					"creation": {
						"codeDepositCost": "1624200",
						"executionCost": "infinite",
						"totalCost": "infinite"
					},
					"external": {
						"EARLY_WITHDRAW_FEE()": "392",
						"LOCK_PERIOD()": "393",
						"PROTOCOL_FEE_PERCENT()": "370",
						"USDC()": "infinite",
						"WITHDRAWAL_FEE_FLAT()": "415",
						"getAccountValue(address)": "infinite",
						"getDownlines(address)": "infinite",
						"getReferralTierPercent(address)": "3018",
						"getTimeUntilFree(address)": "infinite",
						"mUSDC()": "infinite",
						"owner()": "2581",
						"referralEarnings(address)": "2824",
						"referralList(address,uint256)": "infinite",
						"renounceOwnership()": "infinite",
						"transferOwnership(address)": "infinite",
						"users(address)": "infinite",
						"zapIn(uint256,address)": "infinite",
						"zapOut()": "infinite"
					}
				},
				"methodIdentifiers": {
					"EARLY_WITHDRAW_FEE()": "40b2b7bf",
					"LOCK_PERIOD()": "1820cabb",
					"PROTOCOL_FEE_PERCENT()": "2982de0d",
					"USDC()": "89a30271",
					"WITHDRAWAL_FEE_FLAT()": "19abfe00",
					"getAccountValue(address)": "5ae80951",
					"getDownlines(address)": "44051053",
					"getReferralTierPercent(address)": "0df23164",
					"getTimeUntilFree(address)": "00d61646",
					"mUSDC()": "f89ec5f5",
					"owner()": "8da5cb5b",
					"referralEarnings(address)": "c07b528a",
					"referralList(address,uint256)": "d12eb0a3",
					"renounceOwnership()": "715018a6",
					"transferOwnership(address)": "f2fde38b",
					"users(address)": "a87430ba",
					"zapIn(uint256,address)": "dabeaecf",
					"zapOut()": "23544748"
				}
			},
			"storageLayout": {
				"storage": [
					{
						"astId": 8,
						"contract": "ZapYield.sol:ZapYieldsVaultSepolia",
						"label": "_owner",
						"offset": 0,
						"slot": "0",
						"type": "t_address"
					},
					{
						"astId": 248,
						"contract": "ZapYield.sol:ZapYieldsVaultSepolia",
						"label": "_status",
						"offset": 0,
						"slot": "1",
						"type": "t_uint256"
					},
					{
						"astId": 969,
						"contract": "ZapYield.sol:ZapYieldsVaultSepolia",
						"label": "users",
						"offset": 0,
						"slot": "2",
						"type": "t_mapping(t_address,t_struct(UserInfo)964_storage)"
					},
					{
						"astId": 973,
						"contract": "ZapYield.sol:ZapYieldsVaultSepolia",
						"label": "referralEarnings",
						"offset": 0,
						"slot": "3",
						"type": "t_mapping(t_address,t_uint256)"
					},
					{
						"astId": 978,
						"contract": "ZapYield.sol:ZapYieldsVaultSepolia",
						"label": "referralList",
						"offset": 0,
						"slot": "4",
						"type": "t_mapping(t_address,t_array(t_address)dyn_storage)"
					}
				],
				"types": {
					"t_address": {
						"encoding": "inplace",
						"label": "address",
						"numberOfBytes": "20"
					},
					"t_array(t_address)dyn_storage": {
						"base": "t_address",
						"encoding": "dynamic_array",
						"label": "address[]",
						"numberOfBytes": "32"
					},
					"t_mapping(t_address,t_array(t_address)dyn_storage)": {
						"encoding": "mapping",
						"key": "t_address",
						"label": "mapping(address => address[])",
						"numberOfBytes": "32",
						"value": "t_array(t_address)dyn_storage"
					},
					"t_mapping(t_address,t_struct(UserInfo)964_storage)": {
						"encoding": "mapping",
						"key": "t_address",
						"label": "mapping(address => struct ZapYieldsVaultSepolia.UserInfo)",
						"numberOfBytes": "32",
						"value": "t_struct(UserInfo)964_storage"
					},
					"t_mapping(t_address,t_uint256)": {
						"encoding": "mapping",
						"key": "t_address",
						"label": "mapping(address => uint256)",
						"numberOfBytes": "32",
						"value": "t_uint256"
					},
					"t_struct(UserInfo)964_storage": {
						"encoding": "inplace",
						"label": "struct ZapYieldsVaultSepolia.UserInfo",
						"members": [
							{
								"astId": 955,
								"contract": "ZapYield.sol:ZapYieldsVaultSepolia",
								"label": "principal",
								"offset": 0,
								"slot": "0",
								"type": "t_uint256"
							},
							{
								"astId": 957,
								"contract": "ZapYield.sol:ZapYieldsVaultSepolia",
								"label": "shareBalance",
								"offset": 0,
								"slot": "1",
								"type": "t_uint256"
							},
							{
								"astId": 959,
								"contract": "ZapYield.sol:ZapYieldsVaultSepolia",
								"label": "referrer",
								"offset": 0,
								"slot": "2",
								"type": "t_address"
							},
							{
								"astId": 961,
								"contract": "ZapYield.sol:ZapYieldsVaultSepolia",
								"label": "totalEarned",
								"offset": 0,
								"slot": "3",
								"type": "t_uint256"
							},
							{
								"astId": 963,
								"contract": "ZapYield.sol:ZapYieldsVaultSepolia",
								"label": "lastDepositTime",
								"offset": 0,
								"slot": "4",
								"type": "t_uint256"
							}
						],
						"numberOfBytes": "160"
					},
					"t_uint256": {
						"encoding": "inplace",
						"label": "uint256",
						"numberOfBytes": "32"
					}
				}
			},
			"userdoc": {
				"kind": "user",
				"methods": {},
				"version": 1
			}
		}
	}
}