{
	"contracts/zapyield-mainnet-beta0.1.8.sol": {
		"ZapApyV3": {
			"abi": [
				{
					"inputs": [],
					"stateMutability": "nonpayable",
					"type": "constructor"
				},
				{
					"inputs": [
						{
							"internalType": "address",
							"name": "target",
							"type": "address"
						}
					],
					"name": "AddressEmptyCode",
					"type": "error"
				},
				{
					"inputs": [
						{
							"internalType": "address",
							"name": "implementation",
							"type": "address"
						}
					],
					"name": "ERC1967InvalidImplementation",
					"type": "error"
				},
				{
					"inputs": [],
					"name": "ERC1967NonPayable",
					"type": "error"
				},
				{
					"inputs": [],
					"name": "FailedCall",
					"type": "error"
				},
				{
					"inputs": [],
					"name": "InvalidInitialization",
					"type": "error"
				},
				{
					"inputs": [],
					"name": "NotInitializing",
					"type": "error"
				},
				{
					"inputs": [
						{
							"internalType": "address",
							"name": "owner",
							"type": "address"
						}
					],
					"name": "OwnableInvalidOwner",
					"type": "error"
				},
				{
					"inputs": [
						{
							"internalType": "address",
							"name": "account",
							"type": "address"
						}
					],
					"name": "OwnableUnauthorizedAccount",
					"type": "error"
				},
				{
					"inputs": [],
					"name": "ReentrancyGuardReentrantCall",
					"type": "error"
				},
				{
					"inputs": [],
					"name": "UUPSUnauthorizedCallContext",
					"type": "error"
				},
				{
					"inputs": [
						{
							"internalType": "bytes32",
							"name": "slot",
							"type": "bytes32"
						}
					],
					"name": "UUPSUnsupportedProxiableUUID",
					"type": "error"
				},
				{
					"anonymous": false,
					"inputs": [
						{
							"indexed": false,
							"internalType": "uint64",
							"name": "version",
							"type": "uint64"
						}
					],
					"name": "Initialized",
					"type": "event"
				},
				{
					"anonymous": false,
					"inputs": [
						{
							"indexed": true,
							"internalType": "address",
							"name": "previousOwner",
							"type": "address"
						},
						{
							"indexed": true,
							"internalType": "address",
							"name": "newOwner",
							"type": "address"
						}
					],
					"name": "OwnershipTransferred",
					"type": "event"
				},
				{
					"anonymous": false,
					"inputs": [
						{
							"indexed": true,
							"internalType": "address",
							"name": "user",
							"type": "address"
						},
						{
							"indexed": false,
							"internalType": "string",
							"name": "code",
							"type": "string"
						}
					],
					"name": "ReferralCodeCreated",
					"type": "event"
				},
				{
					"anonymous": false,
					"inputs": [
						{
							"indexed": true,
							"internalType": "address",
							"name": "implementation",
							"type": "address"
						}
					],
					"name": "Upgraded",
					"type": "event"
				},
				{
					"anonymous": false,
					"inputs": [
						{
							"indexed": true,
							"internalType": "address",
							"name": "user",
							"type": "address"
						},
						{
							"indexed": false,
							"internalType": "uint256",
							"name": "amount",
							"type": "uint256"
						},
						{
							"indexed": false,
							"internalType": "string",
							"name": "referrerCode",
							"type": "string"
						}
					],
					"name": "ZappedIn",
					"type": "event"
				},
				{
					"inputs": [],
					"name": "UPGRADE_INTERFACE_VERSION",
					"outputs": [
						{
							"internalType": "string",
							"name": "",
							"type": "string"
						}
					],
					"stateMutability": "view",
					"type": "function"
				},
				{
					"inputs": [
						{
							"internalType": "address",
							"name": "",
							"type": "address"
						}
					],
					"name": "addressToCode",
					"outputs": [
						{
							"internalType": "string",
							"name": "",
							"type": "string"
						}
					],
					"stateMutability": "view",
					"type": "function"
				},
				{
					"inputs": [
						{
							"internalType": "string",
							"name": "",
							"type": "string"
						}
					],
					"name": "codeToAddress",
					"outputs": [
						{
							"internalType": "address",
							"name": "",
							"type": "address"
						}
					],
					"stateMutability": "view",
					"type": "function"
				},
				{
					"inputs": [],
					"name": "createReferralCode",
					"outputs": [],
					"stateMutability": "nonpayable",
					"type": "function"
				},
				{
					"inputs": [],
					"name": "getMyCode",
					"outputs": [
						{
							"internalType": "string",
							"name": "",
							"type": "string"
						}
					],
					"stateMutability": "view",
					"type": "function"
				},
				{
					"inputs": [
						{
							"internalType": "address",
							"name": "_usdc",
							"type": "address"
						},
						{
							"internalType": "address",
							"name": "_vault",
							"type": "address"
						}
					],
					"name": "initialize",
					"outputs": [],
					"stateMutability": "nonpayable",
					"type": "function"
				},
				{
					"inputs": [],
					"name": "moonwellVault",
					"outputs": [
						{
							"internalType": "contract IMorphoVault",
							"name": "",
							"type": "address"
						}
					],
					"stateMutability": "view",
					"type": "function"
				},
				{
					"inputs": [],
					"name": "owner",
					"outputs": [
						{
							"internalType": "address",
							"name": "",
							"type": "address"
						}
					],
					"stateMutability": "view",
					"type": "function"
				},
				{
					"inputs": [],
					"name": "proxiableUUID",
					"outputs": [
						{
							"internalType": "bytes32",
							"name": "",
							"type": "bytes32"
						}
					],
					"stateMutability": "view",
					"type": "function"
				},
				{
					"inputs": [],
					"name": "renounceOwnership",
					"outputs": [],
					"stateMutability": "nonpayable",
					"type": "function"
				},
				{
					"inputs": [
						{
							"internalType": "address",
							"name": "newOwner",
							"type": "address"
						}
					],
					"name": "transferOwnership",
					"outputs": [],
					"stateMutability": "nonpayable",
					"type": "function"
				},
				{
					"inputs": [
						{
							"internalType": "address",
							"name": "newImplementation",
							"type": "address"
						},
						{
							"internalType": "bytes",
							"name": "data",
							"type": "bytes"
						}
					],
					"name": "upgradeToAndCall",
					"outputs": [],
					"stateMutability": "payable",
					"type": "function"
				},
				{
					"inputs": [],
					"name": "usdcToken",
					"outputs": [
						{
							"internalType": "contract IERC20Upgradeable",
							"name": "",
							"type": "address"
						}
					],
					"stateMutability": "view",
					"type": "function"
				},
				{
					"inputs": [
						{
							"internalType": "address",
							"name": "",
							"type": "address"
						}
					],
					"name": "userInfo",
					"outputs": [
						{
							"internalType": "uint256",
							"name": "principal",
							"type": "uint256"
						},
						{
							"internalType": "uint256",
							"name": "depositTime",
							"type": "uint256"
						},
						{
							"internalType": "address",
							"name": "referrer",
							"type": "address"
						}
					],
					"stateMutability": "view",
					"type": "function"
				},
				{
					"inputs": [
						{
							"internalType": "uint256",
							"name": "_amount",
							"type": "uint256"
						},
						{
							"internalType": "string",
							"name": "_referrerCode",
							"type": "string"
						}
					],
					"name": "zapIn",
					"outputs": [],
					"stateMutability": "nonpayable",
					"type": "function"
				}
			],
			"devdoc": {
				"errors": {
					"AddressEmptyCode(address)": [
						{
							"details": "There's no code at `target` (it is not a contract)."
						}
					],
					"ERC1967InvalidImplementation(address)": [
						{
							"details": "The `implementation` of the proxy is invalid."
						}
					],
					"ERC1967NonPayable()": [
						{
							"details": "An upgrade function sees `msg.value > 0` that may be lost."
						}
					],
					"FailedCall()": [
						{
							"details": "A call to an address target failed. The target may have reverted."
						}
					],
					"InvalidInitialization()": [
						{
							"details": "The contract is already initialized."
						}
					],
					"NotInitializing()": [
						{
							"details": "The contract is not initializing."
						}
					],
					"OwnableInvalidOwner(address)": [
						{
							"details": "The owner is not a valid owner account. (eg. `address(0)`)"
						}
					],
					"OwnableUnauthorizedAccount(address)": [
						{
							"details": "The caller account is not authorized to perform an operation."
						}
					],
					"ReentrancyGuardReentrantCall()": [
						{
							"details": "Unauthorized reentrant call."
						}
					],
					"UUPSUnauthorizedCallContext()": [
						{
							"details": "The call is from an unauthorized context."
						}
					],
					"UUPSUnsupportedProxiableUUID(bytes32)": [
						{
							"details": "The storage `slot` is unsupported as a UUID."
						}
					]
				},
				"events": {
					"Initialized(uint64)": {
						"details": "Triggered when the contract has been initialized or reinitialized."
					},
					"Upgraded(address)": {
						"details": "Emitted when the implementation is upgraded."
					}
				},
				"kind": "dev",
				"methods": {
					"constructor": {
						"custom:oz-upgrades-unsafe-allow": "constructor"
					},
					"owner()": {
						"details": "Returns the address of the current owner."
					},
					"proxiableUUID()": {
						"details": "Implementation of the ERC-1822 {proxiableUUID} function. This returns the storage slot used by the implementation. It is used to validate the implementation's compatibility when performing an upgrade. IMPORTANT: A proxy pointing at a proxiable contract should not be considered proxiable itself, because this risks bricking a proxy that upgrades to it, by delegating to itself until out of gas. Thus it is critical that this function revert if invoked through a proxy. This is guaranteed by the `notDelegated` modifier."
					},
					"renounceOwnership()": {
						"details": "Leaves the contract without owner. It will not be possible to call `onlyOwner` functions. Can only be called by the current owner. NOTE: Renouncing ownership will leave the contract without an owner, thereby disabling any functionality that is only available to the owner."
					},
					"transferOwnership(address)": {
						"details": "Transfers ownership of the contract to a new account (`newOwner`). Can only be called by the current owner."
					},
					"upgradeToAndCall(address,bytes)": {
						"custom:oz-upgrades-unsafe-allow-reachable": "delegatecall",
						"details": "Upgrade the implementation of the proxy to `newImplementation`, and subsequently execute the function call encoded in `data`. Calls {_authorizeUpgrade}. Emits an {Upgraded} event."
					}
				},
				"version": 1
			},
			"evm": {
				"assembly": "    /* \"contracts/zapyield-mainnet-beta0.1.8.sol\":841:5198  contract ZapApyV3 is ... */\n  mstore(0x40, 0xa0)\n    /* \"@openzeppelin/contracts-upgradeable/proxy/utils/UUPSUpgradeable.sol\":1171:1175  this */\n  address\n    /* \"@openzeppelin/contracts-upgradeable/proxy/utils/UUPSUpgradeable.sol\":1128:1176  address private immutable __self = address(this) */\n  0xffffffffffffffffffffffffffffffffffffffff\n  and\n  0x80\n  swap1\n  0xffffffffffffffffffffffffffffffffffffffff\n  and\n  dup2\n  mstore\n  pop\n    /* \"contracts/zapyield-mainnet-beta0.1.8.sol\":1922:1977  constructor() {... */\n  callvalue\n  dup1\n  iszero\n  tag_1\n  jumpi\n  revert(0x00, 0x00)\ntag_1:\n  pop\n    /* \"contracts/zapyield-mainnet-beta0.1.8.sol\":1947:1969  _disableInitializers() */\n  tag_4\n    /* \"contracts/zapyield-mainnet-beta0.1.8.sol\":1947:1967  _disableInitializers */\n  shl(0x20, tag_5)\n    /* \"contracts/zapyield-mainnet-beta0.1.8.sol\":1947:1969  _disableInitializers() */\n  0x20\n  shr\n  jump\t// in\ntag_4:\n    /* \"contracts/zapyield-mainnet-beta0.1.8.sol\":841:5198  contract ZapApyV3 is ... */\n  jump(tag_6)\n    /* \"@openzeppelin/contracts-upgradeable/proxy/utils/Initializable.sol\":7709:8131  function _disableInitializers() internal virtual {... */\ntag_5:\n    /* \"@openzeppelin/contracts-upgradeable/proxy/utils/Initializable.sol\":7824:7854  InitializableStorage storage $ */\n  0x00\n    /* \"@openzeppelin/contracts-upgradeable/proxy/utils/Initializable.sol\":7857:7883  _getInitializableStorage() */\n  tag_8\n    /* \"@openzeppelin/contracts-upgradeable/proxy/utils/Initializable.sol\":7857:7881  _getInitializableStorage */\n  shl(0x20, tag_9)\n    /* \"@openzeppelin/contracts-upgradeable/proxy/utils/Initializable.sol\":7857:7883  _getInitializableStorage() */\n  0x20\n  shr\n  jump\t// in\ntag_8:\n    /* \"@openzeppelin/contracts-upgradeable/proxy/utils/Initializable.sol\":7824:7883  InitializableStorage storage $ = _getInitializableStorage() */\n  swap1\n  pop\n    /* \"@openzeppelin/contracts-upgradeable/proxy/utils/Initializable.sol\":7898:7899  $ */\n  dup1\n    /* \"@openzeppelin/contracts-upgradeable/proxy/utils/Initializable.sol\":7898:7913  $._initializing */\n  0x00\n  add\n  0x08\n  swap1\n  sload\n  swap1\n  0x0100\n  exp\n  swap1\n  div\n  0xff\n  and\n    /* \"@openzeppelin/contracts-upgradeable/proxy/utils/Initializable.sol\":7894:7970  if ($._initializing) {... */\n  iszero\n  tag_10\n  jumpi\n    /* \"@openzeppelin/contracts-upgradeable/proxy/utils/Initializable.sol\":7936:7959  InvalidInitialization() */\n  mload(0x40)\n  0xf92ee8a900000000000000000000000000000000000000000000000000000000\n  dup2\n  mstore\n  0x04\n  add\n  mload(0x40)\n  dup1\n  swap2\n  sub\n  swap1\n  revert\n    /* \"@openzeppelin/contracts-upgradeable/proxy/utils/Initializable.sol\":7894:7970  if ($._initializing) {... */\ntag_10:\n    /* \"@openzeppelin/contracts-upgradeable/proxy/utils/Initializable.sol\":8001:8017  type(uint64).max */\n  0xffffffffffffffff\n    /* \"@openzeppelin/contracts-upgradeable/proxy/utils/Initializable.sol\":7983:8017  $._initialized != type(uint64).max */\n  dup1\n  and\n    /* \"@openzeppelin/contracts-upgradeable/proxy/utils/Initializable.sol\":7983:7984  $ */\n  dup2\n    /* \"@openzeppelin/contracts-upgradeable/proxy/utils/Initializable.sol\":7983:7997  $._initialized */\n  0x00\n  add\n  0x00\n  swap1\n  sload\n  swap1\n  0x0100\n  exp\n  swap1\n  div\n  0xffffffffffffffff\n  and\n    /* \"@openzeppelin/contracts-upgradeable/proxy/utils/Initializable.sol\":7983:8017  $._initialized != type(uint64).max */\n  0xffffffffffffffff\n  and\n  eq\n    /* \"@openzeppelin/contracts-upgradeable/proxy/utils/Initializable.sol\":7979:8125  if ($._initialized != type(uint64).max) {... */\n  tag_11\n  jumpi\n    /* \"@openzeppelin/contracts-upgradeable/proxy/utils/Initializable.sol\":8050:8066  type(uint64).max */\n  0xffffffffffffffff\n    /* \"@openzeppelin/contracts-upgradeable/proxy/utils/Initializable.sol\":8033:8034  $ */\n  dup2\n    /* \"@openzeppelin/contracts-upgradeable/proxy/utils/Initializable.sol\":8033:8047  $._initialized */\n  0x00\n  add\n  0x00\n    /* \"@openzeppelin/contracts-upgradeable/proxy/utils/Initializable.sol\":8033:8066  $._initialized = type(uint64).max */\n  0x0100\n  exp\n  dup2\n  sload\n  dup2\n  0xffffffffffffffff\n  mul\n  not\n  and\n  swap1\n  dup4\n  0xffffffffffffffff\n  and\n  mul\n  or\n  swap1\n  sstore\n  pop\n    /* \"@openzeppelin/contracts-upgradeable/proxy/utils/Initializable.sol\":8085:8114  Initialized(type(uint64).max) */\n  0xc7f505b2f371ae2175ee4913f4499e1f2633a7b5936321eed1cdaeb6115181d2\n    /* \"@openzeppelin/contracts-upgradeable/proxy/utils/Initializable.sol\":8097:8113  type(uint64).max */\n  0xffffffffffffffff\n    /* \"@openzeppelin/contracts-upgradeable/proxy/utils/Initializable.sol\":8085:8114  Initialized(type(uint64).max) */\n  mload(0x40)\n  tag_12\n  swap2\n  swap1\n  tag_13\n  jump\t// in\ntag_12:\n  mload(0x40)\n  dup1\n  swap2\n  sub\n  swap1\n  log1\n    /* \"@openzeppelin/contracts-upgradeable/proxy/utils/Initializable.sol\":7979:8125  if ($._initialized != type(uint64).max) {... */\ntag_11:\n    /* \"@openzeppelin/contracts-upgradeable/proxy/utils/Initializable.sol\":7758:8131  {... */\n  pop\n    /* \"@openzeppelin/contracts-upgradeable/proxy/utils/Initializable.sol\":7709:8131  function _disableInitializers() internal virtual {... */\n  jump\t// out\n    /* \"@openzeppelin/contracts-upgradeable/proxy/utils/Initializable.sol\":9071:9276  function _getInitializableStorage() private pure returns (InitializableStorage storage $) {... */\ntag_9:\n    /* \"@openzeppelin/contracts-upgradeable/proxy/utils/Initializable.sol\":9129:9159  InitializableStorage storage $ */\n  0x00\n    /* \"@openzeppelin/contracts-upgradeable/proxy/utils/Initializable.sol\":9171:9183  bytes32 slot */\n  0x00\n    /* \"@openzeppelin/contracts-upgradeable/proxy/utils/Initializable.sol\":9186:9213  _initializableStorageSlot() */\n  tag_15\n    /* \"@openzeppelin/contracts-upgradeable/proxy/utils/Initializable.sol\":9186:9211  _initializableStorageSlot */\n  shl(0x20, tag_16)\n    /* \"@openzeppelin/contracts-upgradeable/proxy/utils/Initializable.sol\":9186:9213  _initializableStorageSlot() */\n  0x20\n  shr\n  jump\t// in\ntag_15:\n    /* \"@openzeppelin/contracts-upgradeable/proxy/utils/Initializable.sol\":9171:9213  bytes32 slot = _initializableStorageSlot() */\n  swap1\n  pop\n    /* \"@openzeppelin/contracts-upgradeable/proxy/utils/Initializable.sol\":9256:9260  slot */\n  dup1\n    /* \"@openzeppelin/contracts-upgradeable/proxy/utils/Initializable.sol\":9246:9260  $.slot := slot */\n  swap2\n  pop\n    /* \"@openzeppelin/contracts-upgradeable/proxy/utils/Initializable.sol\":9232:9270  {... */\n  pop\n    /* \"@openzeppelin/contracts-upgradeable/proxy/utils/Initializable.sol\":9071:9276  function _getInitializableStorage() private pure returns (InitializableStorage storage $) {... */\n  swap1\n  jump\t// out\n    /* \"@openzeppelin/contracts-upgradeable/proxy/utils/Initializable.sol\":8819:8941  function _initializableStorageSlot() internal pure virtual returns (bytes32) {... */\ntag_16:\n    /* \"@openzeppelin/contracts-upgradeable/proxy/utils/Initializable.sol\":8887:8894  bytes32 */\n  0x00\n    /* \"@openzeppelin/contracts-upgradeable/proxy/utils/Initializable.sol\":3147:3213  0xf0c57e16840df040f15088dc2f81fe391c3923bec73e23a9662efc9c229c6a00 */\n  0xf0c57e16840df040f15088dc2f81fe391c3923bec73e23a9662efc9c229c6a00\n    /* \"@openzeppelin/contracts-upgradeable/proxy/utils/Initializable.sol\":8913:8934  INITIALIZABLE_STORAGE */\n  0x00\n  shl\n    /* \"@openzeppelin/contracts-upgradeable/proxy/utils/Initializable.sol\":8906:8934  return INITIALIZABLE_STORAGE */\n  swap1\n  pop\n    /* \"@openzeppelin/contracts-upgradeable/proxy/utils/Initializable.sol\":8819:8941  function _initializableStorageSlot() internal pure virtual returns (bytes32) {... */\n  swap1\n  jump\t// out\n    /* \"#utility.yul\":7:108   */\ntag_18:\n    /* \"#utility.yul\":43:50   */\n  0x00\n    /* \"#utility.yul\":83:101   */\n  0xffffffffffffffff\n    /* \"#utility.yul\":76:81   */\n  dup3\n    /* \"#utility.yul\":72:102   */\n  and\n    /* \"#utility.yul\":61:102   */\n  swap1\n  pop\n    /* \"#utility.yul\":7:108   */\n  swap2\n  swap1\n  pop\n  jump\t// out\n    /* \"#utility.yul\":114:229   */\ntag_19:\n    /* \"#utility.yul\":199:222   */\n  tag_23\n    /* \"#utility.yul\":216:221   */\n  dup2\n    /* \"#utility.yul\":199:222   */\n  tag_18\n  jump\t// in\ntag_23:\n    /* \"#utility.yul\":194:197   */\n  dup3\n    /* \"#utility.yul\":187:223   */\n  mstore\n    /* \"#utility.yul\":114:229   */\n  pop\n  pop\n  jump\t// out\n    /* \"#utility.yul\":235:453   */\ntag_13:\n    /* \"#utility.yul\":326:330   */\n  0x00\n    /* \"#utility.yul\":364:366   */\n  0x20\n    /* \"#utility.yul\":353:362   */\n  dup3\n    /* \"#utility.yul\":349:367   */\n  add\n    /* \"#utility.yul\":341:367   */\n  swap1\n  pop\n    /* \"#utility.yul\":377:446   */\n  tag_25\n    /* \"#utility.yul\":443:444   */\n  0x00\n    /* \"#utility.yul\":432:441   */\n  dup4\n    /* \"#utility.yul\":428:445   */\n  add\n    /* \"#utility.yul\":419:425   */\n  dup5\n    /* \"#utility.yul\":377:446   */\n  tag_19\n  jump\t// in\ntag_25:\n    /* \"#utility.yul\":235:453   */\n  swap3\n  swap2\n  pop\n  pop\n  jump\t// out\n    /* \"contracts/zapyield-mainnet-beta0.1.8.sol\":841:5198  contract ZapApyV3 is ... */\ntag_6:\n  mload(0x80)\n  codecopy(0x00, dataOffset(sub_0), dataSize(sub_0))\n  0x00\n  assignImmutable(\"0x4ce4dab4689da140a0c12de1a6af6b8f679594aeb723205f513e052d27f5b26f\")\n  return(0x00, dataSize(sub_0))\nstop\n\nsub_0: assembly {\n        /* \"contracts/zapyield-mainnet-beta0.1.8.sol\":841:5198  contract ZapApyV3 is ... */\n      mstore(0x40, 0x80)\n      jumpi(tag_1, lt(calldatasize, 0x04))\n      shr(0xe0, calldataload(0x00))\n      dup1\n      0x715018a6\n      gt\n      tag_17\n      jumpi\n      dup1\n      0x9932dc05\n      gt\n      tag_18\n      jumpi\n      dup1\n      0x9932dc05\n      eq\n      tag_13\n      jumpi\n      dup1\n      0xad3cb1cc\n      eq\n      tag_14\n      jumpi\n      dup1\n      0xc4f74631\n      eq\n      tag_15\n      jumpi\n      dup1\n      0xf2fde38b\n      eq\n      tag_16\n      jumpi\n      jump(tag_1)\n    tag_18:\n      dup1\n      0x715018a6\n      eq\n      tag_9\n      jumpi\n      dup1\n      0x71cd28b4\n      eq\n      tag_10\n      jumpi\n      dup1\n      0x8da5cb5b\n      eq\n      tag_11\n      jumpi\n      dup1\n      0x97da7af7\n      eq\n      tag_12\n      jumpi\n      jump(tag_1)\n    tag_17:\n      dup1\n      0x2e108d1c\n      gt\n      tag_19\n      jumpi\n      dup1\n      0x2e108d1c\n      eq\n      tag_5\n      jumpi\n      dup1\n      0x485cc955\n      eq\n      tag_6\n      jumpi\n      dup1\n      0x4f1ef286\n      eq\n      tag_7\n      jumpi\n      dup1\n      0x52d1902d\n      eq\n      tag_8\n      jumpi\n      jump(tag_1)\n    tag_19:\n      dup1\n      0x040d02e4\n      eq\n      tag_2\n      jumpi\n      dup1\n      0x11eac855\n      eq\n      tag_3\n      jumpi\n      dup1\n      0x1959a002\n      eq\n      tag_4\n      jumpi\n    tag_1:\n      revert(0x00, 0x00)\n        /* \"contracts/zapyield-mainnet-beta0.1.8.sol\":3876:5029  function zapIn(uint256 _amount, string memory _referrerCode) external nonReentrant {... */\n    tag_2:\n      callvalue\n      dup1\n      iszero\n      tag_20\n      jumpi\n      revert(0x00, 0x00)\n    tag_20:\n      pop\n      tag_21\n      0x04\n      dup1\n      calldatasize\n      sub\n      dup2\n      add\n      swap1\n      tag_22\n      swap2\n      swap1\n      tag_23\n      jump\t// in\n    tag_22:\n      tag_24\n      jump\t// in\n    tag_21:\n      stop\n        /* \"contracts/zapyield-mainnet-beta0.1.8.sol\":1063:1097  IERC20Upgradeable public usdcToken */\n    tag_3:\n      callvalue\n      dup1\n      iszero\n      tag_25\n      jumpi\n      revert(0x00, 0x00)\n    tag_25:\n      pop\n      tag_26\n      tag_27\n      jump\t// in\n    tag_26:\n      mload(0x40)\n      tag_28\n      swap2\n      swap1\n      tag_29\n      jump\t// in\n    tag_28:\n      mload(0x40)\n      dup1\n      swap2\n      sub\n      swap1\n      return\n        /* \"contracts/zapyield-mainnet-beta0.1.8.sol\":1651:1695  mapping(address => UserInfo) public userInfo */\n    tag_4:\n      callvalue\n      dup1\n      iszero\n      tag_30\n      jumpi\n      revert(0x00, 0x00)\n    tag_30:\n      pop\n      tag_31\n      0x04\n      dup1\n      calldatasize\n      sub\n      dup2\n      add\n      swap1\n      tag_32\n      swap2\n      swap1\n      tag_33\n      jump\t// in\n    tag_32:\n      tag_34\n      jump\t// in\n    tag_31:\n      mload(0x40)\n      tag_35\n      swap4\n      swap3\n      swap2\n      swap1\n      tag_36\n      jump\t// in\n    tag_35:\n      mload(0x40)\n      dup1\n      swap2\n      sub\n      swap1\n      return\n        /* \"contracts/zapyield-mainnet-beta0.1.8.sol\":2584:3221  function createReferralCode() external {... */\n    tag_5:\n      callvalue\n      dup1\n      iszero\n      tag_37\n      jumpi\n      revert(0x00, 0x00)\n    tag_37:\n      pop\n      tag_38\n      tag_39\n      jump\t// in\n    tag_38:\n      stop\n        /* \"contracts/zapyield-mainnet-beta0.1.8.sol\":2013:2302  function initialize(address _usdc, address _vault) public initializer {... */\n    tag_6:\n      callvalue\n      dup1\n      iszero\n      tag_40\n      jumpi\n      revert(0x00, 0x00)\n    tag_40:\n      pop\n      tag_41\n      0x04\n      dup1\n      calldatasize\n      sub\n      dup2\n      add\n      swap1\n      tag_42\n      swap2\n      swap1\n      tag_43\n      jump\t// in\n    tag_42:\n      tag_44\n      jump\t// in\n    tag_41:\n      stop\n        /* \"@openzeppelin/contracts-upgradeable/proxy/utils/UUPSUpgradeable.sol\":4161:4375  function upgradeToAndCall(address newImplementation, bytes memory data) public payable virtual onlyProxy {... */\n    tag_7:\n      tag_45\n      0x04\n      dup1\n      calldatasize\n      sub\n      dup2\n      add\n      swap1\n      tag_46\n      swap2\n      swap1\n      tag_47\n      jump\t// in\n    tag_46:\n      tag_48\n      jump\t// in\n    tag_45:\n      stop\n        /* \"@openzeppelin/contracts-upgradeable/proxy/utils/UUPSUpgradeable.sol\":3708:3842  function proxiableUUID() external view virtual notDelegated returns (bytes32) {... */\n    tag_8:\n      callvalue\n      dup1\n      iszero\n      tag_49\n      jumpi\n      revert(0x00, 0x00)\n    tag_49:\n      pop\n      tag_50\n      tag_51\n      jump\t// in\n    tag_50:\n      mload(0x40)\n      tag_52\n      swap2\n      swap1\n      tag_53\n      jump\t// in\n    tag_52:\n      mload(0x40)\n      dup1\n      swap2\n      sub\n      swap1\n      return\n        /* \"@openzeppelin/contracts-upgradeable/access/OwnableUpgradeable.sol\":3155:3256  function renounceOwnership() public virtual onlyOwner {... */\n    tag_9:\n      callvalue\n      dup1\n      iszero\n      tag_54\n      jumpi\n      revert(0x00, 0x00)\n    tag_54:\n      pop\n      tag_55\n      tag_56\n      jump\t// in\n    tag_55:\n      stop\n        /* \"contracts/zapyield-mainnet-beta0.1.8.sol\":5085:5195  function getMyCode() external view returns (string memory) {... */\n    tag_10:\n      callvalue\n      dup1\n      iszero\n      tag_57\n      jumpi\n      revert(0x00, 0x00)\n    tag_57:\n      pop\n      tag_58\n      tag_59\n      jump\t// in\n    tag_58:\n      mload(0x40)\n      tag_60\n      swap2\n      swap1\n      tag_61\n      jump\t// in\n    tag_60:\n      mload(0x40)\n      dup1\n      swap2\n      sub\n      swap1\n      return\n        /* \"@openzeppelin/contracts-upgradeable/access/OwnableUpgradeable.sol\":2441:2585  function owner() public view virtual returns (address) {... */\n    tag_11:\n      callvalue\n      dup1\n      iszero\n      tag_62\n      jumpi\n      revert(0x00, 0x00)\n    tag_62:\n      pop\n      tag_63\n      tag_64\n      jump\t// in\n    tag_63:\n      mload(0x40)\n      tag_65\n      swap2\n      swap1\n      tag_66\n      jump\t// in\n    tag_65:\n      mload(0x40)\n      dup1\n      swap2\n      sub\n      swap1\n      return\n        /* \"contracts/zapyield-mainnet-beta0.1.8.sol\":1104:1137  IMorphoVault public moonwellVault */\n    tag_12:\n      callvalue\n      dup1\n      iszero\n      tag_67\n      jumpi\n      revert(0x00, 0x00)\n    tag_67:\n      pop\n      tag_68\n      tag_69\n      jump\t// in\n    tag_68:\n      mload(0x40)\n      tag_70\n      swap2\n      swap1\n      tag_71\n      jump\t// in\n    tag_70:\n      mload(0x40)\n      dup1\n      swap2\n      sub\n      swap1\n      return\n        /* \"contracts/zapyield-mainnet-beta0.1.8.sol\":1236:1283  mapping(string => address) public codeToAddress */\n    tag_13:\n      callvalue\n      dup1\n      iszero\n      tag_72\n      jumpi\n      revert(0x00, 0x00)\n    tag_72:\n      pop\n      tag_73\n      0x04\n      dup1\n      calldatasize\n      sub\n      dup2\n      add\n      swap1\n      tag_74\n      swap2\n      swap1\n      tag_75\n      jump\t// in\n    tag_74:\n      tag_76\n      jump\t// in\n    tag_73:\n      mload(0x40)\n      tag_77\n      swap2\n      swap1\n      tag_66\n      jump\t// in\n    tag_77:\n      mload(0x40)\n      dup1\n      swap2\n      sub\n      swap1\n      return\n        /* \"@openzeppelin/contracts-upgradeable/proxy/utils/UUPSUpgradeable.sol\":1819:1877  string public constant UPGRADE_INTERFACE_VERSION = \"5.0.0\" */\n    tag_14:\n      callvalue\n      dup1\n      iszero\n      tag_78\n      jumpi\n      revert(0x00, 0x00)\n    tag_78:\n      pop\n      tag_79\n      tag_80\n      jump\t// in\n    tag_79:\n      mload(0x40)\n      tag_81\n      swap2\n      swap1\n      tag_61\n      jump\t// in\n    tag_81:\n      mload(0x40)\n      dup1\n      swap2\n      sub\n      swap1\n      return\n        /* \"contracts/zapyield-mainnet-beta0.1.8.sol\":1342:1389  mapping(address => string) public addressToCode */\n    tag_15:\n      callvalue\n      dup1\n      iszero\n      tag_82\n      jumpi\n      revert(0x00, 0x00)\n    tag_82:\n      pop\n      tag_83\n      0x04\n      dup1\n      calldatasize\n      sub\n      dup2\n      add\n      swap1\n      tag_84\n      swap2\n      swap1\n      tag_33\n      jump\t// in\n    tag_84:\n      tag_85\n      jump\t// in\n    tag_83:\n      mload(0x40)\n      tag_86\n      swap2\n      swap1\n      tag_61\n      jump\t// in\n    tag_86:\n      mload(0x40)\n      dup1\n      swap2\n      sub\n      swap1\n      return\n        /* \"@openzeppelin/contracts-upgradeable/access/OwnableUpgradeable.sol\":3405:3620  function transferOwnership(address newOwner) public virtual onlyOwner {... */\n    tag_16:\n      callvalue\n      dup1\n      iszero\n      tag_87\n      jumpi\n      revert(0x00, 0x00)\n    tag_87:\n      pop\n      tag_88\n      0x04\n      dup1\n      calldatasize\n      sub\n      dup2\n      add\n      swap1\n      tag_89\n      swap2\n      swap1\n      tag_33\n      jump\t// in\n    tag_89:\n      tag_90\n      jump\t// in\n    tag_88:\n      stop\n        /* \"contracts/zapyield-mainnet-beta0.1.8.sol\":3876:5029  function zapIn(uint256 _amount, string memory _referrerCode) external nonReentrant {... */\n    tag_24:\n        /* \"@openzeppelin/contracts-upgradeable/utils/ReentrancyGuardUpgradeable.sol\":3395:3416  _nonReentrantBefore() */\n      tag_92\n        /* \"@openzeppelin/contracts-upgradeable/utils/ReentrancyGuardUpgradeable.sol\":3395:3414  _nonReentrantBefore */\n      tag_93\n        /* \"@openzeppelin/contracts-upgradeable/utils/ReentrancyGuardUpgradeable.sol\":3395:3416  _nonReentrantBefore() */\n      jump\t// in\n    tag_92:\n        /* \"contracts/zapyield-mainnet-beta0.1.8.sol\":3988:3989  0 */\n      0x00\n        /* \"contracts/zapyield-mainnet-beta0.1.8.sol\":3978:3985  _amount */\n      dup3\n        /* \"contracts/zapyield-mainnet-beta0.1.8.sol\":3978:3989  _amount > 0 */\n      gt\n        /* \"contracts/zapyield-mainnet-beta0.1.8.sol\":3970:4020  require(_amount > 0, \"ZapApy: Amount must be > 0\") */\n      tag_95\n      jumpi\n      mload(0x40)\n      0x08c379a000000000000000000000000000000000000000000000000000000000\n      dup2\n      mstore\n      0x04\n      add\n      tag_96\n      swap1\n      tag_97\n      jump\t// in\n    tag_96:\n      mload(0x40)\n      dup1\n      swap2\n      sub\n      swap1\n      revert\n    tag_95:\n        /* \"contracts/zapyield-mainnet-beta0.1.8.sol\":4116:4117  0 */\n      0x00\n        /* \"contracts/zapyield-mainnet-beta0.1.8.sol\":4092:4105  _referrerCode */\n      dup2\n        /* \"contracts/zapyield-mainnet-beta0.1.8.sol\":4086:4113  bytes(_referrerCode).length */\n      mload\n        /* \"contracts/zapyield-mainnet-beta0.1.8.sol\":4086:4117  bytes(_referrerCode).length > 0 */\n      gt\n        /* \"contracts/zapyield-mainnet-beta0.1.8.sol\":4078:4155  require(bytes(_referrerCode).length > 0, \"ZapApy: Referral Code is REQUIRED\") */\n      tag_98\n      jumpi\n      mload(0x40)\n      0x08c379a000000000000000000000000000000000000000000000000000000000\n      dup2\n      mstore\n      0x04\n      add\n      tag_99\n      swap1\n      tag_100\n      jump\t// in\n    tag_99:\n      mload(0x40)\n      dup1\n      swap2\n      sub\n      swap1\n      revert\n    tag_98:\n        /* \"contracts/zapyield-mainnet-beta0.1.8.sol\":4215:4235  address referrerAddr */\n      0x00\n        /* \"contracts/zapyield-mainnet-beta0.1.8.sol\":4238:4251  codeToAddress */\n      0x02\n        /* \"contracts/zapyield-mainnet-beta0.1.8.sol\":4252:4265  _referrerCode */\n      dup3\n        /* \"contracts/zapyield-mainnet-beta0.1.8.sol\":4238:4266  codeToAddress[_referrerCode] */\n      mload(0x40)\n      tag_101\n      swap2\n      swap1\n      tag_102\n      jump\t// in\n    tag_101:\n      swap1\n      dup2\n      mstore\n      0x20\n      add\n      mload(0x40)\n      dup1\n      swap2\n      sub\n      swap1\n      keccak256\n      0x00\n      swap1\n      sload\n      swap1\n      0x0100\n      exp\n      swap1\n      div\n      0xffffffffffffffffffffffffffffffffffffffff\n      and\n        /* \"contracts/zapyield-mainnet-beta0.1.8.sol\":4215:4266  address referrerAddr = codeToAddress[_referrerCode] */\n      swap1\n      pop\n        /* \"contracts/zapyield-mainnet-beta0.1.8.sol\":4352:4353  0 */\n      0x00\n        /* \"contracts/zapyield-mainnet-beta0.1.8.sol\":4328:4354  referrerAddr != address(0) */\n      0xffffffffffffffffffffffffffffffffffffffff\n      and\n        /* \"contracts/zapyield-mainnet-beta0.1.8.sol\":4328:4340  referrerAddr */\n      dup2\n        /* \"contracts/zapyield-mainnet-beta0.1.8.sol\":4328:4354  referrerAddr != address(0) */\n      0xffffffffffffffffffffffffffffffffffffffff\n      and\n      sub\n        /* \"contracts/zapyield-mainnet-beta0.1.8.sol\":4320:4388  require(referrerAddr != address(0), \"ZapApy: Invalid Referral Code\") */\n      tag_103\n      jumpi\n      mload(0x40)\n      0x08c379a000000000000000000000000000000000000000000000000000000000\n      dup2\n      mstore\n      0x04\n      add\n      tag_104\n      swap1\n      tag_105\n      jump\t// in\n    tag_104:\n      mload(0x40)\n      dup1\n      swap2\n      sub\n      swap1\n      revert\n    tag_103:\n        /* \"contracts/zapyield-mainnet-beta0.1.8.sol\":4423:4433  msg.sender */\n      caller\n        /* \"contracts/zapyield-mainnet-beta0.1.8.sol\":4407:4433  referrerAddr != msg.sender */\n      0xffffffffffffffffffffffffffffffffffffffff\n      and\n        /* \"contracts/zapyield-mainnet-beta0.1.8.sol\":4407:4419  referrerAddr */\n      dup2\n        /* \"contracts/zapyield-mainnet-beta0.1.8.sol\":4407:4433  referrerAddr != msg.sender */\n      0xffffffffffffffffffffffffffffffffffffffff\n      and\n      sub\n        /* \"contracts/zapyield-mainnet-beta0.1.8.sol\":4399:4467  require(referrerAddr != msg.sender, \"ZapApy: Cannot refer yourself\") */\n      tag_106\n      jumpi\n      mload(0x40)\n      0x08c379a000000000000000000000000000000000000000000000000000000000\n      dup2\n      mstore\n      0x04\n      add\n      tag_107\n      swap1\n      tag_108\n      jump\t// in\n    tag_107:\n      mload(0x40)\n      dup1\n      swap2\n      sub\n      swap1\n      revert\n    tag_106:\n        /* \"contracts/zapyield-mainnet-beta0.1.8.sol\":4513:4534  UserInfo storage user */\n      0x00\n        /* \"contracts/zapyield-mainnet-beta0.1.8.sol\":4537:4545  userInfo */\n      0x04\n        /* \"contracts/zapyield-mainnet-beta0.1.8.sol\":4537:4557  userInfo[msg.sender] */\n      0x00\n        /* \"contracts/zapyield-mainnet-beta0.1.8.sol\":4546:4556  msg.sender */\n      caller\n        /* \"contracts/zapyield-mainnet-beta0.1.8.sol\":4537:4557  userInfo[msg.sender] */\n      0xffffffffffffffffffffffffffffffffffffffff\n      and\n      0xffffffffffffffffffffffffffffffffffffffff\n      and\n      dup2\n      mstore\n      0x20\n      add\n      swap1\n      dup2\n      mstore\n      0x20\n      add\n      0x00\n      keccak256\n        /* \"contracts/zapyield-mainnet-beta0.1.8.sol\":4513:4557  UserInfo storage user = userInfo[msg.sender] */\n      swap1\n      pop\n        /* \"contracts/zapyield-mainnet-beta0.1.8.sol\":4590:4591  0 */\n      0x00\n        /* \"contracts/zapyield-mainnet-beta0.1.8.sol\":4572:4576  user */\n      dup2\n        /* \"contracts/zapyield-mainnet-beta0.1.8.sol\":4572:4586  user.principal */\n      0x00\n      add\n      sload\n        /* \"contracts/zapyield-mainnet-beta0.1.8.sol\":4572:4591  user.principal == 0 */\n      sub\n        /* \"contracts/zapyield-mainnet-beta0.1.8.sol\":4568:4648  if (user.principal == 0) {... */\n      tag_109\n      jumpi\n        /* \"contracts/zapyield-mainnet-beta0.1.8.sol\":4624:4636  referrerAddr */\n      dup2\n        /* \"contracts/zapyield-mainnet-beta0.1.8.sol\":4608:4612  user */\n      dup2\n        /* \"contracts/zapyield-mainnet-beta0.1.8.sol\":4608:4621  user.referrer */\n      0x02\n      add\n      0x00\n        /* \"contracts/zapyield-mainnet-beta0.1.8.sol\":4608:4636  user.referrer = referrerAddr */\n      0x0100\n      exp\n      dup2\n      sload\n      dup2\n      0xffffffffffffffffffffffffffffffffffffffff\n      mul\n      not\n      and\n      swap1\n      dup4\n      0xffffffffffffffffffffffffffffffffffffffff\n      and\n      mul\n      or\n      swap1\n      sstore\n      pop\n        /* \"contracts/zapyield-mainnet-beta0.1.8.sol\":4568:4648  if (user.principal == 0) {... */\n    tag_109:\n        /* \"contracts/zapyield-mainnet-beta0.1.8.sol\":4676:4683  _amount */\n      dup4\n        /* \"contracts/zapyield-mainnet-beta0.1.8.sol\":4658:4662  user */\n      dup2\n        /* \"contracts/zapyield-mainnet-beta0.1.8.sol\":4658:4672  user.principal */\n      0x00\n      add\n      0x00\n        /* \"contracts/zapyield-mainnet-beta0.1.8.sol\":4658:4683  user.principal += _amount */\n      dup3\n      dup3\n      sload\n      tag_110\n      swap2\n      swap1\n      tag_111\n      jump\t// in\n    tag_110:\n      swap3\n      pop\n      pop\n      dup2\n      swap1\n      sstore\n      pop\n        /* \"contracts/zapyield-mainnet-beta0.1.8.sol\":4713:4728  block.timestamp */\n      timestamp\n        /* \"contracts/zapyield-mainnet-beta0.1.8.sol\":4694:4698  user */\n      dup2\n        /* \"contracts/zapyield-mainnet-beta0.1.8.sol\":4694:4710  user.depositTime */\n      0x01\n      add\n        /* \"contracts/zapyield-mainnet-beta0.1.8.sol\":4694:4728  user.depositTime = block.timestamp */\n      dup2\n      swap1\n      sstore\n      pop\n        /* \"contracts/zapyield-mainnet-beta0.1.8.sol\":4775:4837  usdcToken.safeTransferFrom(msg.sender, address(this), _amount) */\n      tag_112\n        /* \"contracts/zapyield-mainnet-beta0.1.8.sol\":4802:4812  msg.sender */\n      caller\n        /* \"contracts/zapyield-mainnet-beta0.1.8.sol\":4822:4826  this */\n      address\n        /* \"contracts/zapyield-mainnet-beta0.1.8.sol\":4829:4836  _amount */\n      dup7\n        /* \"contracts/zapyield-mainnet-beta0.1.8.sol\":4775:4784  usdcToken */\n      0x00\n      0x00\n      swap1\n      sload\n      swap1\n      0x0100\n      exp\n      swap1\n      div\n      0xffffffffffffffffffffffffffffffffffffffff\n      and\n        /* \"contracts/zapyield-mainnet-beta0.1.8.sol\":4775:4801  usdcToken.safeTransferFrom */\n      0xffffffffffffffffffffffffffffffffffffffff\n      and\n      tag_113\n      swap1\n        /* \"contracts/zapyield-mainnet-beta0.1.8.sol\":4775:4837  usdcToken.safeTransferFrom(msg.sender, address(this), _amount) */\n      swap4\n      swap3\n      swap2\n      swap1\n      0xffffffff\n      and\n      jump\t// in\n    tag_112:\n        /* \"contracts/zapyield-mainnet-beta0.1.8.sol\":4848:4903  usdcToken.forceApprove(address(moonwellVault), _amount) */\n      tag_114\n        /* \"contracts/zapyield-mainnet-beta0.1.8.sol\":4879:4892  moonwellVault */\n      0x01\n      0x00\n      swap1\n      sload\n      swap1\n      0x0100\n      exp\n      swap1\n      div\n      0xffffffffffffffffffffffffffffffffffffffff\n      and\n        /* \"contracts/zapyield-mainnet-beta0.1.8.sol\":4895:4902  _amount */\n      dup6\n        /* \"contracts/zapyield-mainnet-beta0.1.8.sol\":4848:4857  usdcToken */\n      0x00\n      0x00\n      swap1\n      sload\n      swap1\n      0x0100\n      exp\n      swap1\n      div\n      0xffffffffffffffffffffffffffffffffffffffff\n      and\n        /* \"contracts/zapyield-mainnet-beta0.1.8.sol\":4848:4870  usdcToken.forceApprove */\n      0xffffffffffffffffffffffffffffffffffffffff\n      and\n      tag_115\n      swap1\n        /* \"contracts/zapyield-mainnet-beta0.1.8.sol\":4848:4903  usdcToken.forceApprove(address(moonwellVault), _amount) */\n      swap3\n      swap2\n      swap1\n      0xffffffff\n      and\n      jump\t// in\n    tag_114:\n        /* \"contracts/zapyield-mainnet-beta0.1.8.sol\":4914:4927  moonwellVault */\n      0x01\n      0x00\n      swap1\n      sload\n      swap1\n      0x0100\n      exp\n      swap1\n      div\n      0xffffffffffffffffffffffffffffffffffffffff\n      and\n        /* \"contracts/zapyield-mainnet-beta0.1.8.sol\":4914:4935  moonwellVault.deposit */\n      0xffffffffffffffffffffffffffffffffffffffff\n      and\n      0x6e553f65\n        /* \"contracts/zapyield-mainnet-beta0.1.8.sol\":4936:4943  _amount */\n      dup6\n        /* \"contracts/zapyield-mainnet-beta0.1.8.sol\":4953:4957  this */\n      address\n        /* \"contracts/zapyield-mainnet-beta0.1.8.sol\":4914:4959  moonwellVault.deposit(_amount, address(this)) */\n      mload(0x40)\n      dup4\n      0xffffffff\n      and\n      0xe0\n      shl\n      dup2\n      mstore\n      0x04\n      add\n      tag_116\n      swap3\n      swap2\n      swap1\n      tag_117\n      jump\t// in\n    tag_116:\n      0x20\n      mload(0x40)\n      dup1\n      dup4\n      sub\n      dup2\n      0x00\n      dup8\n      gas\n      call\n      iszero\n      dup1\n      iszero\n      tag_119\n      jumpi\n      returndatacopy(0x00, 0x00, returndatasize)\n      revert(0x00, returndatasize)\n    tag_119:\n      pop\n      pop\n      pop\n      pop\n      mload(0x40)\n      returndatasize\n      not(0x1f)\n      0x1f\n      dup3\n      add\n      and\n      dup3\n      add\n      dup1\n      0x40\n      mstore\n      pop\n      dup2\n      add\n      swap1\n      tag_120\n      swap2\n      swap1\n      tag_121\n      jump\t// in\n    tag_120:\n      pop\n        /* \"contracts/zapyield-mainnet-beta0.1.8.sol\":4986:4996  msg.sender */\n      caller\n        /* \"contracts/zapyield-mainnet-beta0.1.8.sol\":4977:5021  ZappedIn(msg.sender, _amount, _referrerCode) */\n      0xffffffffffffffffffffffffffffffffffffffff\n      and\n      0x6a1db4f0607dd89cd0ee9ef3676c9521b6c9ce054afb4d659365a683e34030aa\n        /* \"contracts/zapyield-mainnet-beta0.1.8.sol\":4998:5005  _amount */\n      dup6\n        /* \"contracts/zapyield-mainnet-beta0.1.8.sol\":5007:5020  _referrerCode */\n      dup6\n        /* \"contracts/zapyield-mainnet-beta0.1.8.sol\":4977:5021  ZappedIn(msg.sender, _amount, _referrerCode) */\n      mload(0x40)\n      tag_122\n      swap3\n      swap2\n      swap1\n      tag_123\n      jump\t// in\n    tag_122:\n      mload(0x40)\n      dup1\n      swap2\n      sub\n      swap1\n      log2\n        /* \"contracts/zapyield-mainnet-beta0.1.8.sol\":3959:5029  {... */\n      pop\n      pop\n        /* \"@openzeppelin/contracts-upgradeable/utils/ReentrancyGuardUpgradeable.sol\":3437:3457  _nonReentrantAfter() */\n      tag_124\n        /* \"@openzeppelin/contracts-upgradeable/utils/ReentrancyGuardUpgradeable.sol\":3437:3455  _nonReentrantAfter */\n      tag_125\n        /* \"@openzeppelin/contracts-upgradeable/utils/ReentrancyGuardUpgradeable.sol\":3437:3457  _nonReentrantAfter() */\n      jump\t// in\n    tag_124:\n        /* \"contracts/zapyield-mainnet-beta0.1.8.sol\":3876:5029  function zapIn(uint256 _amount, string memory _referrerCode) external nonReentrant {... */\n      pop\n      pop\n      jump\t// out\n        /* \"contracts/zapyield-mainnet-beta0.1.8.sol\":1063:1097  IERC20Upgradeable public usdcToken */\n    tag_27:\n      0x00\n      0x00\n      swap1\n      sload\n      swap1\n      0x0100\n      exp\n      swap1\n      div\n      0xffffffffffffffffffffffffffffffffffffffff\n      and\n      dup2\n      jump\t// out\n        /* \"contracts/zapyield-mainnet-beta0.1.8.sol\":1651:1695  mapping(address => UserInfo) public userInfo */\n    tag_34:\n      mstore(0x20, 0x04)\n      dup1\n      0x00\n      mstore\n      keccak256(0x00, 0x40)\n      0x00\n      swap2\n      pop\n      swap1\n      pop\n      dup1\n      0x00\n      add\n      sload\n      swap1\n      dup1\n      0x01\n      add\n      sload\n      swap1\n      dup1\n      0x02\n      add\n      0x00\n      swap1\n      sload\n      swap1\n      0x0100\n      exp\n      swap1\n      div\n      0xffffffffffffffffffffffffffffffffffffffff\n      and\n      swap1\n      pop\n      dup4\n      jump\t// out\n        /* \"contracts/zapyield-mainnet-beta0.1.8.sol\":2584:3221  function createReferralCode() external {... */\n    tag_39:\n        /* \"contracts/zapyield-mainnet-beta0.1.8.sol\":2733:2734  0 */\n      0x00\n        /* \"contracts/zapyield-mainnet-beta0.1.8.sol\":2696:2709  addressToCode */\n      0x03\n        /* \"contracts/zapyield-mainnet-beta0.1.8.sol\":2696:2721  addressToCode[msg.sender] */\n      0x00\n        /* \"contracts/zapyield-mainnet-beta0.1.8.sol\":2710:2720  msg.sender */\n      caller\n        /* \"contracts/zapyield-mainnet-beta0.1.8.sol\":2696:2721  addressToCode[msg.sender] */\n      0xffffffffffffffffffffffffffffffffffffffff\n      and\n      0xffffffffffffffffffffffffffffffffffffffff\n      and\n      dup2\n      mstore\n      0x20\n      add\n      swap1\n      dup2\n      mstore\n      0x20\n      add\n      0x00\n      keccak256\n        /* \"contracts/zapyield-mainnet-beta0.1.8.sol\":2690:2729  bytes(addressToCode[msg.sender]).length */\n      dup1\n      sload\n      tag_127\n      swap1\n      tag_128\n      jump\t// in\n    tag_127:\n      swap1\n      pop\n        /* \"contracts/zapyield-mainnet-beta0.1.8.sol\":2690:2734  bytes(addressToCode[msg.sender]).length == 0 */\n      eq\n        /* \"contracts/zapyield-mainnet-beta0.1.8.sol\":2682:2770  require(bytes(addressToCode[msg.sender]).length == 0, \"ZapApy: You already have a code\") */\n      tag_129\n      jumpi\n      mload(0x40)\n      0x08c379a000000000000000000000000000000000000000000000000000000000\n      dup2\n      mstore\n      0x04\n      add\n      tag_130\n      swap1\n      tag_131\n      jump\t// in\n    tag_130:\n      mload(0x40)\n      dup1\n      swap2\n      sub\n      swap1\n      revert\n    tag_129:\n        /* \"contracts/zapyield-mainnet-beta0.1.8.sol\":2828:2849  string memory newCode */\n      0x00\n        /* \"contracts/zapyield-mainnet-beta0.1.8.sol\":2852:2875  _generateRandomString() */\n      tag_132\n        /* \"contracts/zapyield-mainnet-beta0.1.8.sol\":2852:2873  _generateRandomString */\n      tag_133\n        /* \"contracts/zapyield-mainnet-beta0.1.8.sol\":2852:2875  _generateRandomString() */\n      jump\t// in\n    tag_132:\n        /* \"contracts/zapyield-mainnet-beta0.1.8.sol\":2828:2875  string memory newCode = _generateRandomString() */\n      swap1\n      pop\n        /* \"contracts/zapyield-mainnet-beta0.1.8.sol\":2989:2990  0 */\n      0x00\n        /* \"contracts/zapyield-mainnet-beta0.1.8.sol\":2955:2991  codeToAddress[newCode] == address(0) */\n      0xffffffffffffffffffffffffffffffffffffffff\n      and\n        /* \"contracts/zapyield-mainnet-beta0.1.8.sol\":2955:2968  codeToAddress */\n      0x02\n        /* \"contracts/zapyield-mainnet-beta0.1.8.sol\":2969:2976  newCode */\n      dup3\n        /* \"contracts/zapyield-mainnet-beta0.1.8.sol\":2955:2977  codeToAddress[newCode] */\n      mload(0x40)\n      tag_134\n      swap2\n      swap1\n      tag_102\n      jump\t// in\n    tag_134:\n      swap1\n      dup2\n      mstore\n      0x20\n      add\n      mload(0x40)\n      dup1\n      swap2\n      sub\n      swap1\n      keccak256\n      0x00\n      swap1\n      sload\n      swap1\n      0x0100\n      exp\n      swap1\n      div\n      0xffffffffffffffffffffffffffffffffffffffff\n      and\n        /* \"contracts/zapyield-mainnet-beta0.1.8.sol\":2955:2991  codeToAddress[newCode] == address(0) */\n      0xffffffffffffffffffffffffffffffffffffffff\n      and\n      eq\n        /* \"contracts/zapyield-mainnet-beta0.1.8.sol\":2947:3029  require(codeToAddress[newCode] == address(0), \"ZapApy: Code collision, try again\") */\n      tag_135\n      jumpi\n      mload(0x40)\n      0x08c379a000000000000000000000000000000000000000000000000000000000\n      dup2\n      mstore\n      0x04\n      add\n      tag_136\n      swap1\n      tag_137\n      jump\t// in\n    tag_136:\n      mload(0x40)\n      dup1\n      swap2\n      sub\n      swap1\n      revert\n    tag_135:\n        /* \"contracts/zapyield-mainnet-beta0.1.8.sol\":3099:3109  msg.sender */\n      caller\n        /* \"contracts/zapyield-mainnet-beta0.1.8.sol\":3074:3087  codeToAddress */\n      0x02\n        /* \"contracts/zapyield-mainnet-beta0.1.8.sol\":3088:3095  newCode */\n      dup3\n        /* \"contracts/zapyield-mainnet-beta0.1.8.sol\":3074:3096  codeToAddress[newCode] */\n      mload(0x40)\n      tag_138\n      swap2\n      swap1\n      tag_102\n      jump\t// in\n    tag_138:\n      swap1\n      dup2\n      mstore\n      0x20\n      add\n      mload(0x40)\n      dup1\n      swap2\n      sub\n      swap1\n      keccak256\n      0x00\n        /* \"contracts/zapyield-mainnet-beta0.1.8.sol\":3074:3109  codeToAddress[newCode] = msg.sender */\n      0x0100\n      exp\n      dup2\n      sload\n      dup2\n      0xffffffffffffffffffffffffffffffffffffffff\n      mul\n      not\n      and\n      swap1\n      dup4\n      0xffffffffffffffffffffffffffffffffffffffff\n      and\n      mul\n      or\n      swap1\n      sstore\n      pop\n        /* \"contracts/zapyield-mainnet-beta0.1.8.sol\":3148:3155  newCode */\n      dup1\n        /* \"contracts/zapyield-mainnet-beta0.1.8.sol\":3120:3133  addressToCode */\n      0x03\n        /* \"contracts/zapyield-mainnet-beta0.1.8.sol\":3120:3145  addressToCode[msg.sender] */\n      0x00\n        /* \"contracts/zapyield-mainnet-beta0.1.8.sol\":3134:3144  msg.sender */\n      caller\n        /* \"contracts/zapyield-mainnet-beta0.1.8.sol\":3120:3145  addressToCode[msg.sender] */\n      0xffffffffffffffffffffffffffffffffffffffff\n      and\n      0xffffffffffffffffffffffffffffffffffffffff\n      and\n      dup2\n      mstore\n      0x20\n      add\n      swap1\n      dup2\n      mstore\n      0x20\n      add\n      0x00\n      keccak256\n        /* \"contracts/zapyield-mainnet-beta0.1.8.sol\":3120:3155  addressToCode[msg.sender] = newCode */\n      swap1\n      dup2\n      tag_139\n      swap2\n      swap1\n      tag_140\n      jump\t// in\n    tag_139:\n      pop\n        /* \"contracts/zapyield-mainnet-beta0.1.8.sol\":3193:3203  msg.sender */\n      caller\n        /* \"contracts/zapyield-mainnet-beta0.1.8.sol\":3173:3213  ReferralCodeCreated(msg.sender, newCode) */\n      0xffffffffffffffffffffffffffffffffffffffff\n      and\n      0xbbba1cab2093e26ee6b388fefb2109576871f9236f9c1f22779dad4b82093b7b\n        /* \"contracts/zapyield-mainnet-beta0.1.8.sol\":3205:3212  newCode */\n      dup3\n        /* \"contracts/zapyield-mainnet-beta0.1.8.sol\":3173:3213  ReferralCodeCreated(msg.sender, newCode) */\n      mload(0x40)\n      tag_141\n      swap2\n      swap1\n      tag_61\n      jump\t// in\n    tag_141:\n      mload(0x40)\n      dup1\n      swap2\n      sub\n      swap1\n      log2\n        /* \"contracts/zapyield-mainnet-beta0.1.8.sol\":2623:3221  {... */\n      pop\n        /* \"contracts/zapyield-mainnet-beta0.1.8.sol\":2584:3221  function createReferralCode() external {... */\n      jump\t// out\n        /* \"contracts/zapyield-mainnet-beta0.1.8.sol\":2013:2302  function initialize(address _usdc, address _vault) public initializer {... */\n    tag_44:\n        /* \"@openzeppelin/contracts-upgradeable/proxy/utils/Initializable.sol\":4158:4188  InitializableStorage storage $ */\n      0x00\n        /* \"@openzeppelin/contracts-upgradeable/proxy/utils/Initializable.sol\":4191:4217  _getInitializableStorage() */\n      tag_143\n        /* \"@openzeppelin/contracts-upgradeable/proxy/utils/Initializable.sol\":4191:4215  _getInitializableStorage */\n      tag_144\n        /* \"@openzeppelin/contracts-upgradeable/proxy/utils/Initializable.sol\":4191:4217  _getInitializableStorage() */\n      jump\t// in\n    tag_143:\n        /* \"@openzeppelin/contracts-upgradeable/proxy/utils/Initializable.sol\":4158:4217  InitializableStorage storage $ = _getInitializableStorage() */\n      swap1\n      pop\n        /* \"@openzeppelin/contracts-upgradeable/proxy/utils/Initializable.sol\":4279:4298  bool isTopLevelCall */\n      0x00\n        /* \"@openzeppelin/contracts-upgradeable/proxy/utils/Initializable.sol\":4302:4303  $ */\n      dup2\n        /* \"@openzeppelin/contracts-upgradeable/proxy/utils/Initializable.sol\":4302:4317  $._initializing */\n      0x00\n      add\n      0x08\n      swap1\n      sload\n      swap1\n      0x0100\n      exp\n      swap1\n      div\n      0xff\n      and\n        /* \"@openzeppelin/contracts-upgradeable/proxy/utils/Initializable.sol\":4301:4317  !$._initializing */\n      iszero\n        /* \"@openzeppelin/contracts-upgradeable/proxy/utils/Initializable.sol\":4279:4317  bool isTopLevelCall = !$._initializing */\n      swap1\n      pop\n        /* \"@openzeppelin/contracts-upgradeable/proxy/utils/Initializable.sol\":4327:4345  uint64 initialized */\n      0x00\n        /* \"@openzeppelin/contracts-upgradeable/proxy/utils/Initializable.sol\":4348:4349  $ */\n      dup3\n        /* \"@openzeppelin/contracts-upgradeable/proxy/utils/Initializable.sol\":4348:4362  $._initialized */\n      0x00\n      add\n      0x00\n      swap1\n      sload\n      swap1\n      0x0100\n      exp\n      swap1\n      div\n      0xffffffffffffffff\n      and\n        /* \"@openzeppelin/contracts-upgradeable/proxy/utils/Initializable.sol\":4327:4362  uint64 initialized = $._initialized */\n      swap1\n      pop\n        /* \"@openzeppelin/contracts-upgradeable/proxy/utils/Initializable.sol\":4704:4721  bool initialSetup */\n      0x00\n        /* \"@openzeppelin/contracts-upgradeable/proxy/utils/Initializable.sol\":4739:4740  0 */\n      0x00\n        /* \"@openzeppelin/contracts-upgradeable/proxy/utils/Initializable.sol\":4724:4735  initialized */\n      dup3\n        /* \"@openzeppelin/contracts-upgradeable/proxy/utils/Initializable.sol\":4724:4740  initialized == 0 */\n      0xffffffffffffffff\n      and\n      eq\n        /* \"@openzeppelin/contracts-upgradeable/proxy/utils/Initializable.sol\":4724:4758  initialized == 0 && isTopLevelCall */\n      dup1\n      iszero\n      tag_145\n      jumpi\n      pop\n        /* \"@openzeppelin/contracts-upgradeable/proxy/utils/Initializable.sol\":4744:4758  isTopLevelCall */\n      dup3\n        /* \"@openzeppelin/contracts-upgradeable/proxy/utils/Initializable.sol\":4724:4758  initialized == 0 && isTopLevelCall */\n    tag_145:\n        /* \"@openzeppelin/contracts-upgradeable/proxy/utils/Initializable.sol\":4704:4758  bool initialSetup = initialized == 0 && isTopLevelCall */\n      swap1\n      pop\n        /* \"@openzeppelin/contracts-upgradeable/proxy/utils/Initializable.sol\":4768:4785  bool construction */\n      0x00\n        /* \"@openzeppelin/contracts-upgradeable/proxy/utils/Initializable.sol\":4803:4804  1 */\n      0x01\n        /* \"@openzeppelin/contracts-upgradeable/proxy/utils/Initializable.sol\":4788:4799  initialized */\n      dup4\n        /* \"@openzeppelin/contracts-upgradeable/proxy/utils/Initializable.sol\":4788:4804  initialized == 1 */\n      0xffffffffffffffff\n      and\n      eq\n        /* \"@openzeppelin/contracts-upgradeable/proxy/utils/Initializable.sol\":4788:4838  initialized == 1 && address(this).code.length == 0 */\n      dup1\n      iszero\n      tag_146\n      jumpi\n      pop\n        /* \"@openzeppelin/contracts-upgradeable/proxy/utils/Initializable.sol\":4837:4838  0 */\n      0x00\n        /* \"@openzeppelin/contracts-upgradeable/proxy/utils/Initializable.sol\":4816:4820  this */\n      address\n        /* \"@openzeppelin/contracts-upgradeable/proxy/utils/Initializable.sol\":4808:4833  address(this).code.length */\n      0xffffffffffffffffffffffffffffffffffffffff\n      and\n      extcodesize\n        /* \"@openzeppelin/contracts-upgradeable/proxy/utils/Initializable.sol\":4808:4838  address(this).code.length == 0 */\n      eq\n        /* \"@openzeppelin/contracts-upgradeable/proxy/utils/Initializable.sol\":4788:4838  initialized == 1 && address(this).code.length == 0 */\n    tag_146:\n        /* \"@openzeppelin/contracts-upgradeable/proxy/utils/Initializable.sol\":4768:4838  bool construction = initialized == 1 && address(this).code.length == 0 */\n      swap1\n      pop\n        /* \"@openzeppelin/contracts-upgradeable/proxy/utils/Initializable.sol\":4854:4866  initialSetup */\n      dup2\n        /* \"@openzeppelin/contracts-upgradeable/proxy/utils/Initializable.sol\":4853:4866  !initialSetup */\n      iszero\n        /* \"@openzeppelin/contracts-upgradeable/proxy/utils/Initializable.sol\":4853:4883  !initialSetup && !construction */\n      dup1\n      iszero\n      tag_147\n      jumpi\n      pop\n        /* \"@openzeppelin/contracts-upgradeable/proxy/utils/Initializable.sol\":4871:4883  construction */\n      dup1\n        /* \"@openzeppelin/contracts-upgradeable/proxy/utils/Initializable.sol\":4870:4883  !construction */\n      iszero\n        /* \"@openzeppelin/contracts-upgradeable/proxy/utils/Initializable.sol\":4853:4883  !initialSetup && !construction */\n    tag_147:\n        /* \"@openzeppelin/contracts-upgradeable/proxy/utils/Initializable.sol\":4849:4940  if (!initialSetup && !construction) {... */\n      iszero\n      tag_148\n      jumpi\n        /* \"@openzeppelin/contracts-upgradeable/proxy/utils/Initializable.sol\":4906:4929  InvalidInitialization() */\n      mload(0x40)\n      0xf92ee8a900000000000000000000000000000000000000000000000000000000\n      dup2\n      mstore\n      0x04\n      add\n      mload(0x40)\n      dup1\n      swap2\n      sub\n      swap1\n      revert\n        /* \"@openzeppelin/contracts-upgradeable/proxy/utils/Initializable.sol\":4849:4940  if (!initialSetup && !construction) {... */\n    tag_148:\n        /* \"@openzeppelin/contracts-upgradeable/proxy/utils/Initializable.sol\":4966:4967  1 */\n      0x01\n        /* \"@openzeppelin/contracts-upgradeable/proxy/utils/Initializable.sol\":4949:4950  $ */\n      dup6\n        /* \"@openzeppelin/contracts-upgradeable/proxy/utils/Initializable.sol\":4949:4963  $._initialized */\n      0x00\n      add\n      0x00\n        /* \"@openzeppelin/contracts-upgradeable/proxy/utils/Initializable.sol\":4949:4967  $._initialized = 1 */\n      0x0100\n      exp\n      dup2\n      sload\n      dup2\n      0xffffffffffffffff\n      mul\n      not\n      and\n      swap1\n      dup4\n      0xffffffffffffffff\n      and\n      mul\n      or\n      swap1\n      sstore\n      pop\n        /* \"@openzeppelin/contracts-upgradeable/proxy/utils/Initializable.sol\":4981:4995  isTopLevelCall */\n      dup4\n        /* \"@openzeppelin/contracts-upgradeable/proxy/utils/Initializable.sol\":4977:5044  if (isTopLevelCall) {... */\n      iszero\n      tag_149\n      jumpi\n        /* \"@openzeppelin/contracts-upgradeable/proxy/utils/Initializable.sol\":5029:5033  true */\n      0x01\n        /* \"@openzeppelin/contracts-upgradeable/proxy/utils/Initializable.sol\":5011:5012  $ */\n      dup6\n        /* \"@openzeppelin/contracts-upgradeable/proxy/utils/Initializable.sol\":5011:5026  $._initializing */\n      0x00\n      add\n      0x08\n        /* \"@openzeppelin/contracts-upgradeable/proxy/utils/Initializable.sol\":5011:5033  $._initializing = true */\n      0x0100\n      exp\n      dup2\n      sload\n      dup2\n      0xff\n      mul\n      not\n      and\n      swap1\n      dup4\n      iszero\n      iszero\n      mul\n      or\n      swap1\n      sstore\n      pop\n        /* \"@openzeppelin/contracts-upgradeable/proxy/utils/Initializable.sol\":4977:5044  if (isTopLevelCall) {... */\n    tag_149:\n        /* \"contracts/zapyield-mainnet-beta0.1.8.sol\":2094:2120  __Ownable_init(msg.sender) */\n      tag_151\n        /* \"contracts/zapyield-mainnet-beta0.1.8.sol\":2109:2119  msg.sender */\n      caller\n        /* \"contracts/zapyield-mainnet-beta0.1.8.sol\":2094:2108  __Ownable_init */\n      tag_152\n        /* \"contracts/zapyield-mainnet-beta0.1.8.sol\":2094:2120  __Ownable_init(msg.sender) */\n      jump\t// in\n    tag_151:\n        /* \"contracts/zapyield-mainnet-beta0.1.8.sol\":2131:2155  __ReentrancyGuard_init() */\n      tag_153\n        /* \"contracts/zapyield-mainnet-beta0.1.8.sol\":2131:2153  __ReentrancyGuard_init */\n      tag_154\n        /* \"contracts/zapyield-mainnet-beta0.1.8.sol\":2131:2155  __ReentrancyGuard_init() */\n      jump\t// in\n    tag_153:\n        /* \"contracts/zapyield-mainnet-beta0.1.8.sol\":2166:2190  __UUPSUpgradeable_init() */\n      tag_155\n        /* \"contracts/zapyield-mainnet-beta0.1.8.sol\":2166:2188  __UUPSUpgradeable_init */\n      tag_156\n        /* \"contracts/zapyield-mainnet-beta0.1.8.sol\":2166:2190  __UUPSUpgradeable_init() */\n      jump\t// in\n    tag_155:\n        /* \"contracts/zapyield-mainnet-beta0.1.8.sol\":2241:2246  _usdc */\n      dup7\n        /* \"contracts/zapyield-mainnet-beta0.1.8.sol\":2211:2220  usdcToken */\n      0x00\n      0x00\n        /* \"contracts/zapyield-mainnet-beta0.1.8.sol\":2211:2247  usdcToken = IERC20Upgradeable(_usdc) */\n      0x0100\n      exp\n      dup2\n      sload\n      dup2\n      0xffffffffffffffffffffffffffffffffffffffff\n      mul\n      not\n      and\n      swap1\n      dup4\n      0xffffffffffffffffffffffffffffffffffffffff\n      and\n      mul\n      or\n      swap1\n      sstore\n      pop\n        /* \"contracts/zapyield-mainnet-beta0.1.8.sol\":2287:2293  _vault */\n      dup6\n        /* \"contracts/zapyield-mainnet-beta0.1.8.sol\":2258:2271  moonwellVault */\n      0x01\n      0x00\n        /* \"contracts/zapyield-mainnet-beta0.1.8.sol\":2258:2294  moonwellVault = IMorphoVault(_vault) */\n      0x0100\n      exp\n      dup2\n      sload\n      dup2\n      0xffffffffffffffffffffffffffffffffffffffff\n      mul\n      not\n      and\n      swap1\n      dup4\n      0xffffffffffffffffffffffffffffffffffffffff\n      and\n      mul\n      or\n      swap1\n      sstore\n      pop\n        /* \"@openzeppelin/contracts-upgradeable/proxy/utils/Initializable.sol\":5068:5082  isTopLevelCall */\n      dup4\n        /* \"@openzeppelin/contracts-upgradeable/proxy/utils/Initializable.sol\":5064:5165  if (isTopLevelCall) {... */\n      iszero\n      tag_157\n      jumpi\n        /* \"@openzeppelin/contracts-upgradeable/proxy/utils/Initializable.sol\":5116:5121  false */\n      0x00\n        /* \"@openzeppelin/contracts-upgradeable/proxy/utils/Initializable.sol\":5098:5099  $ */\n      dup6\n        /* \"@openzeppelin/contracts-upgradeable/proxy/utils/Initializable.sol\":5098:5113  $._initializing */\n      0x00\n      add\n      0x08\n        /* \"@openzeppelin/contracts-upgradeable/proxy/utils/Initializable.sol\":5098:5121  $._initializing = false */\n      0x0100\n      exp\n      dup2\n      sload\n      dup2\n      0xff\n      mul\n      not\n      and\n      swap1\n      dup4\n      iszero\n      iszero\n      mul\n      or\n      swap1\n      sstore\n      pop\n        /* \"@openzeppelin/contracts-upgradeable/proxy/utils/Initializable.sol\":5140:5154  Initialized(1) */\n      0xc7f505b2f371ae2175ee4913f4499e1f2633a7b5936321eed1cdaeb6115181d2\n        /* \"@openzeppelin/contracts-upgradeable/proxy/utils/Initializable.sol\":5152:5153  1 */\n      0x01\n        /* \"@openzeppelin/contracts-upgradeable/proxy/utils/Initializable.sol\":5140:5154  Initialized(1) */\n      mload(0x40)\n      tag_158\n      swap2\n      swap1\n      tag_159\n      jump\t// in\n    tag_158:\n      mload(0x40)\n      dup1\n      swap2\n      sub\n      swap1\n      log1\n        /* \"@openzeppelin/contracts-upgradeable/proxy/utils/Initializable.sol\":5064:5165  if (isTopLevelCall) {... */\n    tag_157:\n        /* \"@openzeppelin/contracts-upgradeable/proxy/utils/Initializable.sol\":4092:5171  {... */\n      pop\n      pop\n      pop\n      pop\n      pop\n        /* \"contracts/zapyield-mainnet-beta0.1.8.sol\":2013:2302  function initialize(address _usdc, address _vault) public initializer {... */\n      pop\n      pop\n      jump\t// out\n        /* \"@openzeppelin/contracts-upgradeable/proxy/utils/UUPSUpgradeable.sol\":4161:4375  function upgradeToAndCall(address newImplementation, bytes memory data) public payable virtual onlyProxy {... */\n    tag_48:\n        /* \"@openzeppelin/contracts-upgradeable/proxy/utils/UUPSUpgradeable.sol\":2655:2668  _checkProxy() */\n      tag_161\n        /* \"@openzeppelin/contracts-upgradeable/proxy/utils/UUPSUpgradeable.sol\":2655:2666  _checkProxy */\n      tag_162\n        /* \"@openzeppelin/contracts-upgradeable/proxy/utils/UUPSUpgradeable.sol\":2655:2668  _checkProxy() */\n      jump\t// in\n    tag_161:\n        /* \"@openzeppelin/contracts-upgradeable/proxy/utils/UUPSUpgradeable.sol\":4276:4312  _authorizeUpgrade(newImplementation) */\n      tag_164\n        /* \"@openzeppelin/contracts-upgradeable/proxy/utils/UUPSUpgradeable.sol\":4294:4311  newImplementation */\n      dup3\n        /* \"@openzeppelin/contracts-upgradeable/proxy/utils/UUPSUpgradeable.sol\":4276:4293  _authorizeUpgrade */\n      tag_165\n        /* \"@openzeppelin/contracts-upgradeable/proxy/utils/UUPSUpgradeable.sol\":4276:4312  _authorizeUpgrade(newImplementation) */\n      jump\t// in\n    tag_164:\n        /* \"@openzeppelin/contracts-upgradeable/proxy/utils/UUPSUpgradeable.sol\":4322:4368  _upgradeToAndCallUUPS(newImplementation, data) */\n      tag_166\n        /* \"@openzeppelin/contracts-upgradeable/proxy/utils/UUPSUpgradeable.sol\":4344:4361  newImplementation */\n      dup3\n        /* \"@openzeppelin/contracts-upgradeable/proxy/utils/UUPSUpgradeable.sol\":4363:4367  data */\n      dup3\n        /* \"@openzeppelin/contracts-upgradeable/proxy/utils/UUPSUpgradeable.sol\":4322:4343  _upgradeToAndCallUUPS */\n      tag_167\n        /* \"@openzeppelin/contracts-upgradeable/proxy/utils/UUPSUpgradeable.sol\":4322:4368  _upgradeToAndCallUUPS(newImplementation, data) */\n      jump\t// in\n    tag_166:\n        /* \"@openzeppelin/contracts-upgradeable/proxy/utils/UUPSUpgradeable.sol\":4161:4375  function upgradeToAndCall(address newImplementation, bytes memory data) public payable virtual onlyProxy {... */\n      pop\n      pop\n      jump\t// out\n        /* \"@openzeppelin/contracts-upgradeable/proxy/utils/UUPSUpgradeable.sol\":3708:3842  function proxiableUUID() external view virtual notDelegated returns (bytes32) {... */\n    tag_51:\n        /* \"@openzeppelin/contracts-upgradeable/proxy/utils/UUPSUpgradeable.sol\":3777:3784  bytes32 */\n      0x00\n        /* \"@openzeppelin/contracts-upgradeable/proxy/utils/UUPSUpgradeable.sol\":2926:2946  _checkNotDelegated() */\n      tag_169\n        /* \"@openzeppelin/contracts-upgradeable/proxy/utils/UUPSUpgradeable.sol\":2926:2944  _checkNotDelegated */\n      tag_170\n        /* \"@openzeppelin/contracts-upgradeable/proxy/utils/UUPSUpgradeable.sol\":2926:2946  _checkNotDelegated() */\n      jump\t// in\n    tag_169:\n        /* \"@openzeppelin/contracts/proxy/ERC1967/ERC1967Utils.sol\":811:877  0x360894a13ba1a3210667c828492db98dca3e2076cc3735a920a3ca505d382bbc */\n      0x360894a13ba1a3210667c828492db98dca3e2076cc3735a920a3ca505d382bbc\n        /* \"@openzeppelin/contracts-upgradeable/proxy/utils/UUPSUpgradeable.sol\":3803:3835  ERC1967Utils.IMPLEMENTATION_SLOT */\n      0x00\n      shl\n        /* \"@openzeppelin/contracts-upgradeable/proxy/utils/UUPSUpgradeable.sol\":3796:3835  return ERC1967Utils.IMPLEMENTATION_SLOT */\n      swap1\n      pop\n        /* \"@openzeppelin/contracts-upgradeable/proxy/utils/UUPSUpgradeable.sol\":3708:3842  function proxiableUUID() external view virtual notDelegated returns (bytes32) {... */\n      swap1\n      jump\t// out\n        /* \"@openzeppelin/contracts-upgradeable/access/OwnableUpgradeable.sol\":3155:3256  function renounceOwnership() public virtual onlyOwner {... */\n    tag_56:\n        /* \"@openzeppelin/contracts-upgradeable/access/OwnableUpgradeable.sol\":2334:2347  _checkOwner() */\n      tag_173\n        /* \"@openzeppelin/contracts-upgradeable/access/OwnableUpgradeable.sol\":2334:2345  _checkOwner */\n      tag_174\n        /* \"@openzeppelin/contracts-upgradeable/access/OwnableUpgradeable.sol\":2334:2347  _checkOwner() */\n      jump\t// in\n    tag_173:\n        /* \"@openzeppelin/contracts-upgradeable/access/OwnableUpgradeable.sol\":3219:3249  _transferOwnership(address(0)) */\n      tag_176\n        /* \"@openzeppelin/contracts-upgradeable/access/OwnableUpgradeable.sol\":3246:3247  0 */\n      0x00\n        /* \"@openzeppelin/contracts-upgradeable/access/OwnableUpgradeable.sol\":3219:3237  _transferOwnership */\n      tag_177\n        /* \"@openzeppelin/contracts-upgradeable/access/OwnableUpgradeable.sol\":3219:3249  _transferOwnership(address(0)) */\n      jump\t// in\n    tag_176:\n        /* \"@openzeppelin/contracts-upgradeable/access/OwnableUpgradeable.sol\":3155:3256  function renounceOwnership() public virtual onlyOwner {... */\n      jump\t// out\n        /* \"contracts/zapyield-mainnet-beta0.1.8.sol\":5085:5195  function getMyCode() external view returns (string memory) {... */\n    tag_59:\n        /* \"contracts/zapyield-mainnet-beta0.1.8.sol\":5129:5142  string memory */\n      0x60\n        /* \"contracts/zapyield-mainnet-beta0.1.8.sol\":5162:5175  addressToCode */\n      0x03\n        /* \"contracts/zapyield-mainnet-beta0.1.8.sol\":5162:5187  addressToCode[msg.sender] */\n      0x00\n        /* \"contracts/zapyield-mainnet-beta0.1.8.sol\":5176:5186  msg.sender */\n      caller\n        /* \"contracts/zapyield-mainnet-beta0.1.8.sol\":5162:5187  addressToCode[msg.sender] */\n      0xffffffffffffffffffffffffffffffffffffffff\n      and\n      0xffffffffffffffffffffffffffffffffffffffff\n      and\n      dup2\n      mstore\n      0x20\n      add\n      swap1\n      dup2\n      mstore\n      0x20\n      add\n      0x00\n      keccak256\n        /* \"contracts/zapyield-mainnet-beta0.1.8.sol\":5155:5187  return addressToCode[msg.sender] */\n      dup1\n      sload\n      tag_179\n      swap1\n      tag_128\n      jump\t// in\n    tag_179:\n      dup1\n      0x1f\n      add\n      0x20\n      dup1\n      swap2\n      div\n      mul\n      0x20\n      add\n      mload(0x40)\n      swap1\n      dup2\n      add\n      0x40\n      mstore\n      dup1\n      swap3\n      swap2\n      swap1\n      dup2\n      dup2\n      mstore\n      0x20\n      add\n      dup3\n      dup1\n      sload\n      tag_180\n      swap1\n      tag_128\n      jump\t// in\n    tag_180:\n      dup1\n      iszero\n      tag_181\n      jumpi\n      dup1\n      0x1f\n      lt\n      tag_182\n      jumpi\n      0x0100\n      dup1\n      dup4\n      sload\n      div\n      mul\n      dup4\n      mstore\n      swap2\n      0x20\n      add\n      swap2\n      jump(tag_181)\n    tag_182:\n      dup3\n      add\n      swap2\n      swap1\n      0x00\n      mstore\n      keccak256(0x00, 0x20)\n      swap1\n    tag_183:\n      dup2\n      sload\n      dup2\n      mstore\n      swap1\n      0x01\n      add\n      swap1\n      0x20\n      add\n      dup1\n      dup4\n      gt\n      tag_183\n      jumpi\n      dup3\n      swap1\n      sub\n      0x1f\n      and\n      dup3\n      add\n      swap2\n    tag_181:\n      pop\n      pop\n      pop\n      pop\n      pop\n      swap1\n      pop\n        /* \"contracts/zapyield-mainnet-beta0.1.8.sol\":5085:5195  function getMyCode() external view returns (string memory) {... */\n      swap1\n      jump\t// out\n        /* \"@openzeppelin/contracts-upgradeable/access/OwnableUpgradeable.sol\":2441:2585  function owner() public view virtual returns (address) {... */\n    tag_64:\n        /* \"@openzeppelin/contracts-upgradeable/access/OwnableUpgradeable.sol\":2487:2494  address */\n      0x00\n        /* \"@openzeppelin/contracts-upgradeable/access/OwnableUpgradeable.sol\":2506:2530  OwnableStorage storage $ */\n      0x00\n        /* \"@openzeppelin/contracts-upgradeable/access/OwnableUpgradeable.sol\":2533:2553  _getOwnableStorage() */\n      tag_185\n        /* \"@openzeppelin/contracts-upgradeable/access/OwnableUpgradeable.sol\":2533:2551  _getOwnableStorage */\n      tag_186\n        /* \"@openzeppelin/contracts-upgradeable/access/OwnableUpgradeable.sol\":2533:2553  _getOwnableStorage() */\n      jump\t// in\n    tag_185:\n        /* \"@openzeppelin/contracts-upgradeable/access/OwnableUpgradeable.sol\":2506:2553  OwnableStorage storage $ = _getOwnableStorage() */\n      swap1\n      pop\n        /* \"@openzeppelin/contracts-upgradeable/access/OwnableUpgradeable.sol\":2570:2571  $ */\n      dup1\n        /* \"@openzeppelin/contracts-upgradeable/access/OwnableUpgradeable.sol\":2570:2578  $._owner */\n      0x00\n      add\n      0x00\n      swap1\n      sload\n      swap1\n      0x0100\n      exp\n      swap1\n      div\n      0xffffffffffffffffffffffffffffffffffffffff\n      and\n        /* \"@openzeppelin/contracts-upgradeable/access/OwnableUpgradeable.sol\":2563:2578  return $._owner */\n      swap2\n      pop\n      pop\n        /* \"@openzeppelin/contracts-upgradeable/access/OwnableUpgradeable.sol\":2441:2585  function owner() public view virtual returns (address) {... */\n      swap1\n      jump\t// out\n        /* \"contracts/zapyield-mainnet-beta0.1.8.sol\":1104:1137  IMorphoVault public moonwellVault */\n    tag_69:\n      0x01\n      0x00\n      swap1\n      sload\n      swap1\n      0x0100\n      exp\n      swap1\n      div\n      0xffffffffffffffffffffffffffffffffffffffff\n      and\n      dup2\n      jump\t// out\n        /* \"contracts/zapyield-mainnet-beta0.1.8.sol\":1236:1283  mapping(string => address) public codeToAddress */\n    tag_76:\n      0x02\n      dup2\n      dup1\n      mload\n      0x20\n      dup2\n      add\n      dup3\n      add\n      dup1\n      mload\n      dup5\n      dup3\n      mstore\n      0x20\n      dup4\n      add\n      0x20\n      dup6\n      add\n      keccak256\n      dup2\n      dup4\n      mstore\n      dup1\n      swap6\n      pop\n      pop\n      pop\n      pop\n      pop\n      pop\n      0x00\n      swap2\n      pop\n      sload\n      swap1\n      0x0100\n      exp\n      swap1\n      div\n      0xffffffffffffffffffffffffffffffffffffffff\n      and\n      dup2\n      jump\t// out\n        /* \"@openzeppelin/contracts-upgradeable/proxy/utils/UUPSUpgradeable.sol\":1819:1877  string public constant UPGRADE_INTERFACE_VERSION = \"5.0.0\" */\n    tag_80:\n      mload(0x40)\n      dup1\n      0x40\n      add\n      0x40\n      mstore\n      dup1\n      0x05\n      dup2\n      mstore\n      0x20\n      add\n      0x352e302e30000000000000000000000000000000000000000000000000000000\n      dup2\n      mstore\n      pop\n      dup2\n      jump\t// out\n        /* \"contracts/zapyield-mainnet-beta0.1.8.sol\":1342:1389  mapping(address => string) public addressToCode */\n    tag_85:\n      mstore(0x20, 0x03)\n      dup1\n      0x00\n      mstore\n      keccak256(0x00, 0x40)\n      0x00\n      swap2\n      pop\n      swap1\n      pop\n      dup1\n      sload\n      tag_187\n      swap1\n      tag_128\n      jump\t// in\n    tag_187:\n      dup1\n      0x1f\n      add\n      0x20\n      dup1\n      swap2\n      div\n      mul\n      0x20\n      add\n      mload(0x40)\n      swap1\n      dup2\n      add\n      0x40\n      mstore\n      dup1\n      swap3\n      swap2\n      swap1\n      dup2\n      dup2\n      mstore\n      0x20\n      add\n      dup3\n      dup1\n      sload\n      tag_188\n      swap1\n      tag_128\n      jump\t// in\n    tag_188:\n      dup1\n      iszero\n      tag_189\n      jumpi\n      dup1\n      0x1f\n      lt\n      tag_190\n      jumpi\n      0x0100\n      dup1\n      dup4\n      sload\n      div\n      mul\n      dup4\n      mstore\n      swap2\n      0x20\n      add\n      swap2\n      jump(tag_189)\n    tag_190:\n      dup3\n      add\n      swap2\n      swap1\n      0x00\n      mstore\n      keccak256(0x00, 0x20)\n      swap1\n    tag_191:\n      dup2\n      sload\n      dup2\n      mstore\n      swap1\n      0x01\n      add\n      swap1\n      0x20\n      add\n      dup1\n      dup4\n      gt\n      tag_191\n      jumpi\n      dup3\n      swap1\n      sub\n      0x1f\n      and\n      dup3\n      add\n      swap2\n    tag_189:\n      pop\n      pop\n      pop\n      pop\n      pop\n      dup2\n      jump\t// out\n        /* \"@openzeppelin/contracts-upgradeable/access/OwnableUpgradeable.sol\":3405:3620  function transferOwnership(address newOwner) public virtual onlyOwner {... */\n    tag_90:\n        /* \"@openzeppelin/contracts-upgradeable/access/OwnableUpgradeable.sol\":2334:2347  _checkOwner() */\n      tag_193\n        /* \"@openzeppelin/contracts-upgradeable/access/OwnableUpgradeable.sol\":2334:2345  _checkOwner */\n      tag_174\n        /* \"@openzeppelin/contracts-upgradeable/access/OwnableUpgradeable.sol\":2334:2347  _checkOwner() */\n      jump\t// in\n    tag_193:\n        /* \"@openzeppelin/contracts-upgradeable/access/OwnableUpgradeable.sol\":3509:3510  0 */\n      0x00\n        /* \"@openzeppelin/contracts-upgradeable/access/OwnableUpgradeable.sol\":3489:3511  newOwner == address(0) */\n      0xffffffffffffffffffffffffffffffffffffffff\n      and\n        /* \"@openzeppelin/contracts-upgradeable/access/OwnableUpgradeable.sol\":3489:3497  newOwner */\n      dup2\n        /* \"@openzeppelin/contracts-upgradeable/access/OwnableUpgradeable.sol\":3489:3511  newOwner == address(0) */\n      0xffffffffffffffffffffffffffffffffffffffff\n      and\n      sub\n        /* \"@openzeppelin/contracts-upgradeable/access/OwnableUpgradeable.sol\":3485:3576  if (newOwner == address(0)) {... */\n      tag_195\n      jumpi\n        /* \"@openzeppelin/contracts-upgradeable/access/OwnableUpgradeable.sol\":3562:3563  0 */\n      0x00\n        /* \"@openzeppelin/contracts-upgradeable/access/OwnableUpgradeable.sol\":3534:3565  OwnableInvalidOwner(address(0)) */\n      mload(0x40)\n      0x1e4fbdf700000000000000000000000000000000000000000000000000000000\n      dup2\n      mstore\n      0x04\n      add\n      tag_196\n      swap2\n      swap1\n      tag_66\n      jump\t// in\n    tag_196:\n      mload(0x40)\n      dup1\n      swap2\n      sub\n      swap1\n      revert\n        /* \"@openzeppelin/contracts-upgradeable/access/OwnableUpgradeable.sol\":3485:3576  if (newOwner == address(0)) {... */\n    tag_195:\n        /* \"@openzeppelin/contracts-upgradeable/access/OwnableUpgradeable.sol\":3585:3613  _transferOwnership(newOwner) */\n      tag_197\n        /* \"@openzeppelin/contracts-upgradeable/access/OwnableUpgradeable.sol\":3604:3612  newOwner */\n      dup2\n        /* \"@openzeppelin/contracts-upgradeable/access/OwnableUpgradeable.sol\":3585:3603  _transferOwnership */\n      tag_177\n        /* \"@openzeppelin/contracts-upgradeable/access/OwnableUpgradeable.sol\":3585:3613  _transferOwnership(newOwner) */\n      jump\t// in\n    tag_197:\n        /* \"@openzeppelin/contracts-upgradeable/access/OwnableUpgradeable.sol\":3405:3620  function transferOwnership(address newOwner) public virtual onlyOwner {... */\n      pop\n      jump\t// out\n        /* \"@openzeppelin/contracts-upgradeable/utils/ReentrancyGuardUpgradeable.sol\":3470:3854  function _nonReentrantBefore() private {... */\n    tag_93:\n        /* \"@openzeppelin/contracts-upgradeable/utils/ReentrancyGuardUpgradeable.sol\":3519:3551  ReentrancyGuardStorage storage $ */\n      0x00\n        /* \"@openzeppelin/contracts-upgradeable/utils/ReentrancyGuardUpgradeable.sol\":3554:3582  _getReentrancyGuardStorage() */\n      tag_199\n        /* \"@openzeppelin/contracts-upgradeable/utils/ReentrancyGuardUpgradeable.sol\":3554:3580  _getReentrancyGuardStorage */\n      tag_200\n        /* \"@openzeppelin/contracts-upgradeable/utils/ReentrancyGuardUpgradeable.sol\":3554:3582  _getReentrancyGuardStorage() */\n      jump\t// in\n    tag_199:\n        /* \"@openzeppelin/contracts-upgradeable/utils/ReentrancyGuardUpgradeable.sol\":3519:3582  ReentrancyGuardStorage storage $ = _getReentrancyGuardStorage() */\n      swap1\n      pop\n        /* \"@openzeppelin/contracts-upgradeable/utils/ReentrancyGuardUpgradeable.sol\":1991:1992  2 */\n      0x02\n        /* \"@openzeppelin/contracts-upgradeable/utils/ReentrancyGuardUpgradeable.sol\":3670:3671  $ */\n      dup2\n        /* \"@openzeppelin/contracts-upgradeable/utils/ReentrancyGuardUpgradeable.sol\":3670:3679  $._status */\n      0x00\n      add\n      sload\n        /* \"@openzeppelin/contracts-upgradeable/utils/ReentrancyGuardUpgradeable.sol\":3670:3690  $._status == ENTERED */\n      sub\n        /* \"@openzeppelin/contracts-upgradeable/utils/ReentrancyGuardUpgradeable.sol\":3666:3754  if ($._status == ENTERED) {... */\n      tag_201\n      jumpi\n        /* \"@openzeppelin/contracts-upgradeable/utils/ReentrancyGuardUpgradeable.sol\":3713:3743  ReentrancyGuardReentrantCall() */\n      mload(0x40)\n      0x3ee5aeb500000000000000000000000000000000000000000000000000000000\n      dup2\n      mstore\n      0x04\n      add\n      mload(0x40)\n      dup1\n      swap2\n      sub\n      swap1\n      revert\n        /* \"@openzeppelin/contracts-upgradeable/utils/ReentrancyGuardUpgradeable.sol\":3666:3754  if ($._status == ENTERED) {... */\n    tag_201:\n        /* \"@openzeppelin/contracts-upgradeable/utils/ReentrancyGuardUpgradeable.sol\":1991:1992  2 */\n      0x02\n        /* \"@openzeppelin/contracts-upgradeable/utils/ReentrancyGuardUpgradeable.sol\":3828:3829  $ */\n      dup2\n        /* \"@openzeppelin/contracts-upgradeable/utils/ReentrancyGuardUpgradeable.sol\":3828:3837  $._status */\n      0x00\n      add\n        /* \"@openzeppelin/contracts-upgradeable/utils/ReentrancyGuardUpgradeable.sol\":3828:3847  $._status = ENTERED */\n      dup2\n      swap1\n      sstore\n      pop\n        /* \"@openzeppelin/contracts-upgradeable/utils/ReentrancyGuardUpgradeable.sol\":3509:3854  {... */\n      pop\n        /* \"@openzeppelin/contracts-upgradeable/utils/ReentrancyGuardUpgradeable.sol\":3470:3854  function _nonReentrantBefore() private {... */\n      jump\t// out\n        /* \"@openzeppelin/contracts-upgradeable/token/ERC20/utils/SafeERC20Upgradeable.sol\":1421:1635  function safeTransferFrom(IERC20Upgradeable token, address from, address to, uint256 value) internal {... */\n    tag_113:\n        /* \"@openzeppelin/contracts-upgradeable/token/ERC20/utils/SafeERC20Upgradeable.sol\":1532:1628  _callOptionalReturn(token, abi.encodeWithSelector(token.transferFrom.selector, from, to, value)) */\n      tag_203\n        /* \"@openzeppelin/contracts-upgradeable/token/ERC20/utils/SafeERC20Upgradeable.sol\":1552:1557  token */\n      dup5\n        /* \"@openzeppelin/contracts-upgradeable/token/ERC20/utils/SafeERC20Upgradeable.sol\":1582:1609  token.transferFrom.selector */\n      shl(0xe0, 0x23b872dd)\n        /* \"@openzeppelin/contracts-upgradeable/token/ERC20/utils/SafeERC20Upgradeable.sol\":1611:1615  from */\n      dup6\n        /* \"@openzeppelin/contracts-upgradeable/token/ERC20/utils/SafeERC20Upgradeable.sol\":1617:1619  to */\n      dup6\n        /* \"@openzeppelin/contracts-upgradeable/token/ERC20/utils/SafeERC20Upgradeable.sol\":1621:1626  value */\n      dup6\n        /* \"@openzeppelin/contracts-upgradeable/token/ERC20/utils/SafeERC20Upgradeable.sol\":1559:1627  abi.encodeWithSelector(token.transferFrom.selector, from, to, value) */\n      add(0x24, mload(0x40))\n      tag_204\n      swap4\n      swap3\n      swap2\n      swap1\n      tag_205\n      jump\t// in\n    tag_204:\n      mload(0x40)\n      0x20\n      dup2\n      dup4\n      sub\n      sub\n      dup2\n      mstore\n      swap1\n      0x40\n      mstore\n      swap1\n      not(0xffffffffffffffffffffffffffffffffffffffffffffffffffffffff)\n      and\n      0x20\n      dup3\n      add\n      dup1\n      mload\n      0xffffffffffffffffffffffffffffffffffffffffffffffffffffffff\n      dup4\n      dup2\n      dup4\n      and\n      or\n      dup4\n      mstore\n      pop\n      pop\n      pop\n      pop\n        /* \"@openzeppelin/contracts-upgradeable/token/ERC20/utils/SafeERC20Upgradeable.sol\":1532:1551  _callOptionalReturn */\n      tag_206\n        /* \"@openzeppelin/contracts-upgradeable/token/ERC20/utils/SafeERC20Upgradeable.sol\":1532:1628  _callOptionalReturn(token, abi.encodeWithSelector(token.transferFrom.selector, from, to, value)) */\n      jump\t// in\n    tag_203:\n        /* \"@openzeppelin/contracts-upgradeable/token/ERC20/utils/SafeERC20Upgradeable.sol\":1421:1635  function safeTransferFrom(IERC20Upgradeable token, address from, address to, uint256 value) internal {... */\n      pop\n      pop\n      pop\n      pop\n      jump\t// out\n        /* \"@openzeppelin/contracts-upgradeable/token/ERC20/utils/SafeERC20Upgradeable.sol\":3889:4310  function forceApprove(IERC20Upgradeable token, address spender, uint256 value) internal {... */\n    tag_115:\n        /* \"@openzeppelin/contracts-upgradeable/token/ERC20/utils/SafeERC20Upgradeable.sol\":3987:4012  bytes memory approvalCall */\n      0x00\n        /* \"@openzeppelin/contracts-upgradeable/token/ERC20/utils/SafeERC20Upgradeable.sol\":4038:4060  token.approve.selector */\n      shl(0xe0, 0x095ea7b3)\n        /* \"@openzeppelin/contracts-upgradeable/token/ERC20/utils/SafeERC20Upgradeable.sol\":4062:4069  spender */\n      dup4\n        /* \"@openzeppelin/contracts-upgradeable/token/ERC20/utils/SafeERC20Upgradeable.sol\":4071:4076  value */\n      dup4\n        /* \"@openzeppelin/contracts-upgradeable/token/ERC20/utils/SafeERC20Upgradeable.sol\":4015:4077  abi.encodeWithSelector(token.approve.selector, spender, value) */\n      add(0x24, mload(0x40))\n      tag_208\n      swap3\n      swap2\n      swap1\n      tag_209\n      jump\t// in\n    tag_208:\n      mload(0x40)\n      0x20\n      dup2\n      dup4\n      sub\n      sub\n      dup2\n      mstore\n      swap1\n      0x40\n      mstore\n      swap1\n      not(0xffffffffffffffffffffffffffffffffffffffffffffffffffffffff)\n      and\n      0x20\n      dup3\n      add\n      dup1\n      mload\n      0xffffffffffffffffffffffffffffffffffffffffffffffffffffffff\n      dup4\n      dup2\n      dup4\n      and\n      or\n      dup4\n      mstore\n      pop\n      pop\n      pop\n      pop\n        /* \"@openzeppelin/contracts-upgradeable/token/ERC20/utils/SafeERC20Upgradeable.sol\":3987:4077  bytes memory approvalCall = abi.encodeWithSelector(token.approve.selector, spender, value) */\n      swap1\n      pop\n        /* \"@openzeppelin/contracts-upgradeable/token/ERC20/utils/SafeERC20Upgradeable.sol\":4093:4137  _callOptionalReturnBool(token, approvalCall) */\n      tag_210\n        /* \"@openzeppelin/contracts-upgradeable/token/ERC20/utils/SafeERC20Upgradeable.sol\":4117:4122  token */\n      dup5\n        /* \"@openzeppelin/contracts-upgradeable/token/ERC20/utils/SafeERC20Upgradeable.sol\":4124:4136  approvalCall */\n      dup3\n        /* \"@openzeppelin/contracts-upgradeable/token/ERC20/utils/SafeERC20Upgradeable.sol\":4093:4116  _callOptionalReturnBool */\n      tag_211\n        /* \"@openzeppelin/contracts-upgradeable/token/ERC20/utils/SafeERC20Upgradeable.sol\":4093:4137  _callOptionalReturnBool(token, approvalCall) */\n      jump\t// in\n    tag_210:\n        /* \"@openzeppelin/contracts-upgradeable/token/ERC20/utils/SafeERC20Upgradeable.sol\":4088:4304  if (!_callOptionalReturnBool(token, approvalCall)) {... */\n      tag_212\n      jumpi\n        /* \"@openzeppelin/contracts-upgradeable/token/ERC20/utils/SafeERC20Upgradeable.sol\":4153:4239  _callOptionalReturn(token, abi.encodeWithSelector(token.approve.selector, spender, 0)) */\n      tag_213\n        /* \"@openzeppelin/contracts-upgradeable/token/ERC20/utils/SafeERC20Upgradeable.sol\":4173:4178  token */\n      dup5\n        /* \"@openzeppelin/contracts-upgradeable/token/ERC20/utils/SafeERC20Upgradeable.sol\":4203:4225  token.approve.selector */\n      shl(0xe0, 0x095ea7b3)\n        /* \"@openzeppelin/contracts-upgradeable/token/ERC20/utils/SafeERC20Upgradeable.sol\":4227:4234  spender */\n      dup6\n        /* \"@openzeppelin/contracts-upgradeable/token/ERC20/utils/SafeERC20Upgradeable.sol\":4236:4237  0 */\n      0x00\n        /* \"@openzeppelin/contracts-upgradeable/token/ERC20/utils/SafeERC20Upgradeable.sol\":4180:4238  abi.encodeWithSelector(token.approve.selector, spender, 0) */\n      add(0x24, mload(0x40))\n      tag_214\n      swap3\n      swap2\n      swap1\n      tag_215\n      jump\t// in\n    tag_214:\n      mload(0x40)\n      0x20\n      dup2\n      dup4\n      sub\n      sub\n      dup2\n      mstore\n      swap1\n      0x40\n      mstore\n      swap1\n      not(0xffffffffffffffffffffffffffffffffffffffffffffffffffffffff)\n      and\n      0x20\n      dup3\n      add\n      dup1\n      mload\n      0xffffffffffffffffffffffffffffffffffffffffffffffffffffffff\n      dup4\n      dup2\n      dup4\n      and\n      or\n      dup4\n      mstore\n      pop\n      pop\n      pop\n      pop\n        /* \"@openzeppelin/contracts-upgradeable/token/ERC20/utils/SafeERC20Upgradeable.sol\":4153:4172  _callOptionalReturn */\n      tag_206\n        /* \"@openzeppelin/contracts-upgradeable/token/ERC20/utils/SafeERC20Upgradeable.sol\":4153:4239  _callOptionalReturn(token, abi.encodeWithSelector(token.approve.selector, spender, 0)) */\n      jump\t// in\n    tag_213:\n        /* \"@openzeppelin/contracts-upgradeable/token/ERC20/utils/SafeERC20Upgradeable.sol\":4253:4293  _callOptionalReturn(token, approvalCall) */\n      tag_216\n        /* \"@openzeppelin/contracts-upgradeable/token/ERC20/utils/SafeERC20Upgradeable.sol\":4273:4278  token */\n      dup5\n        /* \"@openzeppelin/contracts-upgradeable/token/ERC20/utils/SafeERC20Upgradeable.sol\":4280:4292  approvalCall */\n      dup3\n        /* \"@openzeppelin/contracts-upgradeable/token/ERC20/utils/SafeERC20Upgradeable.sol\":4253:4272  _callOptionalReturn */\n      tag_206\n        /* \"@openzeppelin/contracts-upgradeable/token/ERC20/utils/SafeERC20Upgradeable.sol\":4253:4293  _callOptionalReturn(token, approvalCall) */\n      jump\t// in\n    tag_216:\n        /* \"@openzeppelin/contracts-upgradeable/token/ERC20/utils/SafeERC20Upgradeable.sol\":4088:4304  if (!_callOptionalReturnBool(token, approvalCall)) {... */\n    tag_212:\n        /* \"@openzeppelin/contracts-upgradeable/token/ERC20/utils/SafeERC20Upgradeable.sol\":3977:4310  {... */\n      pop\n        /* \"@openzeppelin/contracts-upgradeable/token/ERC20/utils/SafeERC20Upgradeable.sol\":3889:4310  function forceApprove(IERC20Upgradeable token, address spender, uint256 value) internal {... */\n      pop\n      pop\n      pop\n      jump\t// out\n        /* \"@openzeppelin/contracts-upgradeable/utils/ReentrancyGuardUpgradeable.sol\":3860:4143  function _nonReentrantAfter() private {... */\n    tag_125:\n        /* \"@openzeppelin/contracts-upgradeable/utils/ReentrancyGuardUpgradeable.sol\":3908:3940  ReentrancyGuardStorage storage $ */\n      0x00\n        /* \"@openzeppelin/contracts-upgradeable/utils/ReentrancyGuardUpgradeable.sol\":3943:3971  _getReentrancyGuardStorage() */\n      tag_218\n        /* \"@openzeppelin/contracts-upgradeable/utils/ReentrancyGuardUpgradeable.sol\":3943:3969  _getReentrancyGuardStorage */\n      tag_200\n        /* \"@openzeppelin/contracts-upgradeable/utils/ReentrancyGuardUpgradeable.sol\":3943:3971  _getReentrancyGuardStorage() */\n      jump\t// in\n    tag_218:\n        /* \"@openzeppelin/contracts-upgradeable/utils/ReentrancyGuardUpgradeable.sol\":3908:3971  ReentrancyGuardStorage storage $ = _getReentrancyGuardStorage() */\n      swap1\n      pop\n        /* \"@openzeppelin/contracts-upgradeable/utils/ReentrancyGuardUpgradeable.sol\":1949:1950  1 */\n      0x01\n        /* \"@openzeppelin/contracts-upgradeable/utils/ReentrancyGuardUpgradeable.sol\":4113:4114  $ */\n      dup2\n        /* \"@openzeppelin/contracts-upgradeable/utils/ReentrancyGuardUpgradeable.sol\":4113:4122  $._status */\n      0x00\n      add\n        /* \"@openzeppelin/contracts-upgradeable/utils/ReentrancyGuardUpgradeable.sol\":4113:4136  $._status = NOT_ENTERED */\n      dup2\n      swap1\n      sstore\n      pop\n        /* \"@openzeppelin/contracts-upgradeable/utils/ReentrancyGuardUpgradeable.sol\":3898:4143  {... */\n      pop\n        /* \"@openzeppelin/contracts-upgradeable/utils/ReentrancyGuardUpgradeable.sol\":3860:4143  function _nonReentrantAfter() private {... */\n      jump\t// out\n        /* \"contracts/zapyield-mainnet-beta0.1.8.sol\":3273:3719  function _generateRandomString() internal view returns (string memory) {... */\n    tag_133:\n        /* \"contracts/zapyield-mainnet-beta0.1.8.sol\":3329:3342  string memory */\n      0x60\n        /* \"contracts/zapyield-mainnet-beta0.1.8.sol\":3355:3372  bytes memory code */\n      0x00\n        /* \"contracts/zapyield-mainnet-beta0.1.8.sol\":3385:3386  7 */\n      0x07\n        /* \"contracts/zapyield-mainnet-beta0.1.8.sol\":3375:3387  new bytes(7) */\n      0xffffffffffffffff\n      dup2\n      gt\n      iszero\n      tag_220\n      jumpi\n      tag_221\n      tag_222\n      jump\t// in\n    tag_221:\n    tag_220:\n      mload(0x40)\n      swap1\n      dup1\n      dup3\n      mstore\n      dup1\n      0x1f\n      add\n      not(0x1f)\n      and\n      0x20\n      add\n      dup3\n      add\n      0x40\n      mstore\n      dup1\n      iszero\n      tag_223\n      jumpi\n      dup2\n      0x20\n      add\n      0x01\n      dup3\n      mul\n      dup1\n      calldatasize\n      dup4\n      calldatacopy\n      dup1\n      dup3\n      add\n      swap2\n      pop\n      pop\n      swap1\n      pop\n    tag_223:\n      pop\n        /* \"contracts/zapyield-mainnet-beta0.1.8.sol\":3355:3387  bytes memory code = new bytes(7) */\n      swap1\n      pop\n        /* \"contracts/zapyield-mainnet-beta0.1.8.sol\":3435:3453  uint256 randomness */\n      0x00\n        /* \"contracts/zapyield-mainnet-beta0.1.8.sol\":3491:3501  msg.sender */\n      caller\n        /* \"contracts/zapyield-mainnet-beta0.1.8.sol\":3503:3518  block.timestamp */\n      timestamp\n        /* \"contracts/zapyield-mainnet-beta0.1.8.sol\":3520:3536  block.prevrandao */\n      prevrandao\n        /* \"contracts/zapyield-mainnet-beta0.1.8.sol\":3474:3537  abi.encodePacked(msg.sender, block.timestamp, block.prevrandao) */\n      add(0x20, mload(0x40))\n      tag_224\n      swap4\n      swap3\n      swap2\n      swap1\n      tag_225\n      jump\t// in\n    tag_224:\n      mload(0x40)\n      0x20\n      dup2\n      dup4\n      sub\n      sub\n      dup2\n      mstore\n      swap1\n      0x40\n      mstore\n        /* \"contracts/zapyield-mainnet-beta0.1.8.sol\":3464:3538  keccak256(abi.encodePacked(msg.sender, block.timestamp, block.prevrandao)) */\n      dup1\n      mload\n      swap1\n      0x20\n      add\n      keccak256\n        /* \"contracts/zapyield-mainnet-beta0.1.8.sol\":3456:3539  uint256(keccak256(abi.encodePacked(msg.sender, block.timestamp, block.prevrandao))) */\n      0x00\n      shr\n        /* \"contracts/zapyield-mainnet-beta0.1.8.sol\":3435:3539  uint256 randomness = uint256(keccak256(abi.encodePacked(msg.sender, block.timestamp, block.prevrandao))) */\n      swap1\n      pop\n        /* \"contracts/zapyield-mainnet-beta0.1.8.sol\":3565:3571  uint i */\n      0x00\n        /* \"contracts/zapyield-mainnet-beta0.1.8.sol\":3574:3575  0 */\n      0x00\n        /* \"contracts/zapyield-mainnet-beta0.1.8.sol\":3565:3575  uint i = 0 */\n      swap1\n      pop\n        /* \"contracts/zapyield-mainnet-beta0.1.8.sol\":3560:3682  for (uint i = 0; i < 7; i++) {... */\n    tag_226:\n        /* \"contracts/zapyield-mainnet-beta0.1.8.sol\":3581:3582  7 */\n      0x07\n        /* \"contracts/zapyield-mainnet-beta0.1.8.sol\":3577:3578  i */\n      dup2\n        /* \"contracts/zapyield-mainnet-beta0.1.8.sol\":3577:3582  i < 7 */\n      lt\n        /* \"contracts/zapyield-mainnet-beta0.1.8.sol\":3560:3682  for (uint i = 0; i < 7; i++) {... */\n      iszero\n      tag_227\n      jumpi\n        /* \"contracts/zapyield-mainnet-beta0.1.8.sol\":3614:3622  ALPHABET */\n      mload(0x40)\n      dup1\n      0x60\n      add\n      0x40\n      mstore\n      dup1\n      0x24\n      dup2\n      mstore\n      0x20\n      add\n      data_aad385f9ef490de6f63bbbec6ad31ed8093d8d122d15a621c03d319331d68b03\n      0x24\n      swap2\n      codecopy\n        /* \"contracts/zapyield-mainnet-beta0.1.8.sol\":3636:3638  36 */\n      0x24\n        /* \"contracts/zapyield-mainnet-beta0.1.8.sol\":3623:3633  randomness */\n      dup4\n        /* \"contracts/zapyield-mainnet-beta0.1.8.sol\":3623:3638  randomness % 36 */\n      tag_229\n      swap2\n      swap1\n      tag_230\n      jump\t// in\n    tag_229:\n        /* \"contracts/zapyield-mainnet-beta0.1.8.sol\":3614:3639  ALPHABET[randomness % 36] */\n      dup2\n      mload\n      dup2\n      lt\n      tag_231\n      jumpi\n      tag_232\n      tag_233\n      jump\t// in\n    tag_232:\n    tag_231:\n      0x20\n      add\n      add\n      mload\n      0xf8\n      shr\n      0xf8\n      shl\n        /* \"contracts/zapyield-mainnet-beta0.1.8.sol\":3604:3608  code */\n      dup4\n        /* \"contracts/zapyield-mainnet-beta0.1.8.sol\":3609:3610  i */\n      dup3\n        /* \"contracts/zapyield-mainnet-beta0.1.8.sol\":3604:3611  code[i] */\n      dup2\n      mload\n      dup2\n      lt\n      tag_234\n      jumpi\n      tag_235\n      tag_233\n      jump\t// in\n    tag_235:\n    tag_234:\n      0x20\n      add\n      add\n        /* \"contracts/zapyield-mainnet-beta0.1.8.sol\":3604:3639  code[i] = ALPHABET[randomness % 36] */\n      swap1\n      not(0xffffffffffffffffffffffffffffffffffffffffffffffffffffffffffffff)\n      and\n      swap1\n      dup2\n      0x00\n      byte\n      swap1\n      mstore8\n      pop\n        /* \"contracts/zapyield-mainnet-beta0.1.8.sol\":3668:3670  36 */\n      0x24\n        /* \"contracts/zapyield-mainnet-beta0.1.8.sol\":3654:3670  randomness /= 36 */\n      dup3\n      tag_236\n      swap2\n      swap1\n      tag_237\n      jump\t// in\n    tag_236:\n      swap2\n      pop\n        /* \"contracts/zapyield-mainnet-beta0.1.8.sol\":3584:3587  i++ */\n      dup1\n      dup1\n      0x01\n      add\n      swap2\n      pop\n      pop\n        /* \"contracts/zapyield-mainnet-beta0.1.8.sol\":3560:3682  for (uint i = 0; i < 7; i++) {... */\n      jump(tag_226)\n    tag_227:\n      pop\n        /* \"contracts/zapyield-mainnet-beta0.1.8.sol\":3706:3710  code */\n      dup2\n        /* \"contracts/zapyield-mainnet-beta0.1.8.sol\":3692:3711  return string(code) */\n      swap3\n      pop\n      pop\n      pop\n        /* \"contracts/zapyield-mainnet-beta0.1.8.sol\":3273:3719  function _generateRandomString() internal view returns (string memory) {... */\n      swap1\n      jump\t// out\n        /* \"@openzeppelin/contracts-upgradeable/proxy/utils/Initializable.sol\":9071:9276  function _getInitializableStorage() private pure returns (InitializableStorage storage $) {... */\n    tag_144:\n        /* \"@openzeppelin/contracts-upgradeable/proxy/utils/Initializable.sol\":9129:9159  InitializableStorage storage $ */\n      0x00\n        /* \"@openzeppelin/contracts-upgradeable/proxy/utils/Initializable.sol\":9171:9183  bytes32 slot */\n      0x00\n        /* \"@openzeppelin/contracts-upgradeable/proxy/utils/Initializable.sol\":9186:9213  _initializableStorageSlot() */\n      tag_239\n        /* \"@openzeppelin/contracts-upgradeable/proxy/utils/Initializable.sol\":9186:9211  _initializableStorageSlot */\n      tag_240\n        /* \"@openzeppelin/contracts-upgradeable/proxy/utils/Initializable.sol\":9186:9213  _initializableStorageSlot() */\n      jump\t// in\n    tag_239:\n        /* \"@openzeppelin/contracts-upgradeable/proxy/utils/Initializable.sol\":9171:9213  bytes32 slot = _initializableStorageSlot() */\n      swap1\n      pop\n        /* \"@openzeppelin/contracts-upgradeable/proxy/utils/Initializable.sol\":9256:9260  slot */\n      dup1\n        /* \"@openzeppelin/contracts-upgradeable/proxy/utils/Initializable.sol\":9246:9260  $.slot := slot */\n      swap2\n      pop\n        /* \"@openzeppelin/contracts-upgradeable/proxy/utils/Initializable.sol\":9232:9270  {... */\n      pop\n        /* \"@openzeppelin/contracts-upgradeable/proxy/utils/Initializable.sol\":9071:9276  function _getInitializableStorage() private pure returns (InitializableStorage storage $) {... */\n      swap1\n      jump\t// out\n        /* \"@openzeppelin/contracts-upgradeable/access/OwnableUpgradeable.sol\":1847:1974  function __Ownable_init(address initialOwner) internal onlyInitializing {... */\n    tag_152:\n        /* \"@openzeppelin/contracts-upgradeable/proxy/utils/Initializable.sol\":6929:6949  _checkInitializing() */\n      tag_242\n        /* \"@openzeppelin/contracts-upgradeable/proxy/utils/Initializable.sol\":6929:6947  _checkInitializing */\n      tag_243\n        /* \"@openzeppelin/contracts-upgradeable/proxy/utils/Initializable.sol\":6929:6949  _checkInitializing() */\n      jump\t// in\n    tag_242:\n        /* \"@openzeppelin/contracts-upgradeable/access/OwnableUpgradeable.sol\":1929:1967  __Ownable_init_unchained(initialOwner) */\n      tag_245\n        /* \"@openzeppelin/contracts-upgradeable/access/OwnableUpgradeable.sol\":1954:1966  initialOwner */\n      dup2\n        /* \"@openzeppelin/contracts-upgradeable/access/OwnableUpgradeable.sol\":1929:1953  __Ownable_init_unchained */\n      tag_246\n        /* \"@openzeppelin/contracts-upgradeable/access/OwnableUpgradeable.sol\":1929:1967  __Ownable_init_unchained(initialOwner) */\n      jump\t// in\n    tag_245:\n        /* \"@openzeppelin/contracts-upgradeable/access/OwnableUpgradeable.sol\":1847:1974  function __Ownable_init(address initialOwner) internal onlyInitializing {... */\n      pop\n      jump\t// out\n        /* \"@openzeppelin/contracts-upgradeable/utils/ReentrancyGuardUpgradeable.sol\":2684:2795  function __ReentrancyGuard_init() internal onlyInitializing {... */\n    tag_154:\n        /* \"@openzeppelin/contracts-upgradeable/proxy/utils/Initializable.sol\":6929:6949  _checkInitializing() */\n      tag_248\n        /* \"@openzeppelin/contracts-upgradeable/proxy/utils/Initializable.sol\":6929:6947  _checkInitializing */\n      tag_243\n        /* \"@openzeppelin/contracts-upgradeable/proxy/utils/Initializable.sol\":6929:6949  _checkInitializing() */\n      jump\t// in\n    tag_248:\n        /* \"@openzeppelin/contracts-upgradeable/utils/ReentrancyGuardUpgradeable.sol\":2754:2788  __ReentrancyGuard_init_unchained() */\n      tag_250\n        /* \"@openzeppelin/contracts-upgradeable/utils/ReentrancyGuardUpgradeable.sol\":2754:2786  __ReentrancyGuard_init_unchained */\n      tag_251\n        /* \"@openzeppelin/contracts-upgradeable/utils/ReentrancyGuardUpgradeable.sol\":2754:2788  __ReentrancyGuard_init_unchained() */\n      jump\t// in\n    tag_250:\n        /* \"@openzeppelin/contracts-upgradeable/utils/ReentrancyGuardUpgradeable.sol\":2684:2795  function __ReentrancyGuard_init() internal onlyInitializing {... */\n      jump\t// out\n        /* \"@openzeppelin/contracts-upgradeable/proxy/utils/UUPSUpgradeable.sol\":2970:3037  function __UUPSUpgradeable_init() internal onlyInitializing {... */\n    tag_156:\n        /* \"@openzeppelin/contracts-upgradeable/proxy/utils/Initializable.sol\":6929:6949  _checkInitializing() */\n      tag_253\n        /* \"@openzeppelin/contracts-upgradeable/proxy/utils/Initializable.sol\":6929:6947  _checkInitializing */\n      tag_243\n        /* \"@openzeppelin/contracts-upgradeable/proxy/utils/Initializable.sol\":6929:6949  _checkInitializing() */\n      jump\t// in\n    tag_253:\n        /* \"@openzeppelin/contracts-upgradeable/proxy/utils/UUPSUpgradeable.sol\":2970:3037  function __UUPSUpgradeable_init() internal onlyInitializing {... */\n      jump\t// out\n        /* \"@openzeppelin/contracts-upgradeable/proxy/utils/UUPSUpgradeable.sol\":4578:4890  function _checkProxy() internal view virtual {... */\n    tag_162:\n        /* \"@openzeppelin/contracts-upgradeable/proxy/utils/UUPSUpgradeable.sol\":4667:4673  __self */\n      immutable(\"0x4ce4dab4689da140a0c12de1a6af6b8f679594aeb723205f513e052d27f5b26f\")\n        /* \"@openzeppelin/contracts-upgradeable/proxy/utils/UUPSUpgradeable.sol\":4650:4673  address(this) == __self */\n      0xffffffffffffffffffffffffffffffffffffffff\n      and\n        /* \"@openzeppelin/contracts-upgradeable/proxy/utils/UUPSUpgradeable.sol\":4658:4662  this */\n      address\n        /* \"@openzeppelin/contracts-upgradeable/proxy/utils/UUPSUpgradeable.sol\":4650:4673  address(this) == __self */\n      0xffffffffffffffffffffffffffffffffffffffff\n      and\n      eq\n        /* \"@openzeppelin/contracts-upgradeable/proxy/utils/UUPSUpgradeable.sol\":4650:4770  address(this) == __self || // Must be called through delegatecall... */\n      dup1\n      tag_256\n      jumpi\n      pop\n        /* \"@openzeppelin/contracts-upgradeable/proxy/utils/UUPSUpgradeable.sol\":4764:4770  __self */\n      immutable(\"0x4ce4dab4689da140a0c12de1a6af6b8f679594aeb723205f513e052d27f5b26f\")\n        /* \"@openzeppelin/contracts-upgradeable/proxy/utils/UUPSUpgradeable.sol\":4728:4770  ERC1967Utils.getImplementation() != __self */\n      0xffffffffffffffffffffffffffffffffffffffff\n      and\n        /* \"@openzeppelin/contracts-upgradeable/proxy/utils/UUPSUpgradeable.sol\":4728:4760  ERC1967Utils.getImplementation() */\n      tag_257\n        /* \"@openzeppelin/contracts-upgradeable/proxy/utils/UUPSUpgradeable.sol\":4728:4758  ERC1967Utils.getImplementation */\n      tag_258\n        /* \"@openzeppelin/contracts-upgradeable/proxy/utils/UUPSUpgradeable.sol\":4728:4760  ERC1967Utils.getImplementation() */\n      jump\t// in\n    tag_257:\n        /* \"@openzeppelin/contracts-upgradeable/proxy/utils/UUPSUpgradeable.sol\":4728:4770  ERC1967Utils.getImplementation() != __self */\n      0xffffffffffffffffffffffffffffffffffffffff\n      and\n      eq\n      iszero\n        /* \"@openzeppelin/contracts-upgradeable/proxy/utils/UUPSUpgradeable.sol\":4650:4770  address(this) == __self || // Must be called through delegatecall... */\n    tag_256:\n        /* \"@openzeppelin/contracts-upgradeable/proxy/utils/UUPSUpgradeable.sol\":4633:4884  if (... */\n      iszero\n      tag_259\n      jumpi\n        /* \"@openzeppelin/contracts-upgradeable/proxy/utils/UUPSUpgradeable.sol\":4844:4873  UUPSUnauthorizedCallContext() */\n      mload(0x40)\n      0xe07c8dba00000000000000000000000000000000000000000000000000000000\n      dup2\n      mstore\n      0x04\n      add\n      mload(0x40)\n      dup1\n      swap2\n      sub\n      swap1\n      revert\n        /* \"@openzeppelin/contracts-upgradeable/proxy/utils/UUPSUpgradeable.sol\":4633:4884  if (... */\n    tag_259:\n        /* \"@openzeppelin/contracts-upgradeable/proxy/utils/UUPSUpgradeable.sol\":4578:4890  function _checkProxy() internal view virtual {... */\n      jump\t// out\n        /* \"contracts/zapyield-mainnet-beta0.1.8.sol\":2353:2437  function _authorizeUpgrade(address newImplementation) internal override onlyOwner {} */\n    tag_165:\n        /* \"@openzeppelin/contracts-upgradeable/access/OwnableUpgradeable.sol\":2334:2347  _checkOwner() */\n      tag_261\n        /* \"@openzeppelin/contracts-upgradeable/access/OwnableUpgradeable.sol\":2334:2345  _checkOwner */\n      tag_174\n        /* \"@openzeppelin/contracts-upgradeable/access/OwnableUpgradeable.sol\":2334:2347  _checkOwner() */\n      jump\t// in\n    tag_261:\n        /* \"contracts/zapyield-mainnet-beta0.1.8.sol\":2353:2437  function _authorizeUpgrade(address newImplementation) internal override onlyOwner {} */\n      pop\n      jump\t// out\n        /* \"@openzeppelin/contracts-upgradeable/proxy/utils/UUPSUpgradeable.sol\":6032:6570  function _upgradeToAndCallUUPS(address newImplementation, bytes memory data) private {... */\n    tag_167:\n        /* \"@openzeppelin/contracts-upgradeable/proxy/utils/UUPSUpgradeable.sol\":6149:6166  newImplementation */\n      dup2\n        /* \"@openzeppelin/contracts-upgradeable/proxy/utils/UUPSUpgradeable.sol\":6131:6181  IERC1822Proxiable(newImplementation).proxiableUUID */\n      0xffffffffffffffffffffffffffffffffffffffff\n      and\n      0x52d1902d\n        /* \"@openzeppelin/contracts-upgradeable/proxy/utils/UUPSUpgradeable.sol\":6131:6183  IERC1822Proxiable(newImplementation).proxiableUUID() */\n      mload(0x40)\n      dup2\n      0xffffffff\n      and\n      0xe0\n      shl\n      dup2\n      mstore\n      0x04\n      add\n      0x20\n      mload(0x40)\n      dup1\n      dup4\n      sub\n      dup2\n      dup7\n      gas\n      staticcall\n      swap3\n      pop\n      pop\n      pop\n      dup1\n      iszero\n      tag_264\n      jumpi\n      pop\n      mload(0x40)\n      returndatasize\n      not(0x1f)\n      0x1f\n      dup3\n      add\n      and\n      dup3\n      add\n      dup1\n      0x40\n      mstore\n      pop\n      dup2\n      add\n      swap1\n      tag_265\n      swap2\n      swap1\n      tag_266\n      jump\t// in\n    tag_265:\n      0x01\n    tag_264:\n        /* \"@openzeppelin/contracts-upgradeable/proxy/utils/UUPSUpgradeable.sol\":6127:6564  try IERC1822Proxiable(newImplementation).proxiableUUID() returns (bytes32 slot) {... */\n      tag_267\n      jumpi\n        /* \"@openzeppelin/contracts-upgradeable/proxy/utils/UUPSUpgradeable.sol\":6535:6552  newImplementation */\n      dup2\n        /* \"@openzeppelin/contracts-upgradeable/proxy/utils/UUPSUpgradeable.sol\":6493:6553  ERC1967Utils.ERC1967InvalidImplementation(newImplementation) */\n      mload(0x40)\n      0x4c9c8ce300000000000000000000000000000000000000000000000000000000\n      dup2\n      mstore\n      0x04\n      add\n      tag_271\n      swap2\n      swap1\n      tag_66\n      jump\t// in\n    tag_271:\n      mload(0x40)\n      dup1\n      swap2\n      sub\n      swap1\n      revert\n        /* \"@openzeppelin/contracts-upgradeable/proxy/utils/UUPSUpgradeable.sol\":6127:6564  try IERC1822Proxiable(newImplementation).proxiableUUID() returns (bytes32 slot) {... */\n    tag_267:\n        /* \"@openzeppelin/contracts/proxy/ERC1967/ERC1967Utils.sol\":811:877  0x360894a13ba1a3210667c828492db98dca3e2076cc3735a920a3ca505d382bbc */\n      0x360894a13ba1a3210667c828492db98dca3e2076cc3735a920a3ca505d382bbc\n        /* \"@openzeppelin/contracts-upgradeable/proxy/utils/UUPSUpgradeable.sol\":6233:6265  ERC1967Utils.IMPLEMENTATION_SLOT */\n      0x00\n      shl\n        /* \"@openzeppelin/contracts-upgradeable/proxy/utils/UUPSUpgradeable.sol\":6225:6229  slot */\n      dup2\n        /* \"@openzeppelin/contracts-upgradeable/proxy/utils/UUPSUpgradeable.sol\":6225:6265  slot != ERC1967Utils.IMPLEMENTATION_SLOT */\n      eq\n        /* \"@openzeppelin/contracts-upgradeable/proxy/utils/UUPSUpgradeable.sol\":6221:6341  if (slot != ERC1967Utils.IMPLEMENTATION_SLOT) {... */\n      tag_273\n      jumpi\n        /* \"@openzeppelin/contracts-upgradeable/proxy/utils/UUPSUpgradeable.sol\":6321:6325  slot */\n      dup1\n        /* \"@openzeppelin/contracts-upgradeable/proxy/utils/UUPSUpgradeable.sol\":6292:6326  UUPSUnsupportedProxiableUUID(slot) */\n      mload(0x40)\n      0xaa1d49a400000000000000000000000000000000000000000000000000000000\n      dup2\n      mstore\n      0x04\n      add\n      tag_274\n      swap2\n      swap1\n      tag_53\n      jump\t// in\n    tag_274:\n      mload(0x40)\n      dup1\n      swap2\n      sub\n      swap1\n      revert\n        /* \"@openzeppelin/contracts-upgradeable/proxy/utils/UUPSUpgradeable.sol\":6221:6341  if (slot != ERC1967Utils.IMPLEMENTATION_SLOT) {... */\n    tag_273:\n        /* \"@openzeppelin/contracts-upgradeable/proxy/utils/UUPSUpgradeable.sol\":6354:6408  ERC1967Utils.upgradeToAndCall(newImplementation, data) */\n      tag_275\n        /* \"@openzeppelin/contracts-upgradeable/proxy/utils/UUPSUpgradeable.sol\":6384:6401  newImplementation */\n      dup4\n        /* \"@openzeppelin/contracts-upgradeable/proxy/utils/UUPSUpgradeable.sol\":6403:6407  data */\n      dup4\n        /* \"@openzeppelin/contracts-upgradeable/proxy/utils/UUPSUpgradeable.sol\":6354:6383  ERC1967Utils.upgradeToAndCall */\n      tag_276\n        /* \"@openzeppelin/contracts-upgradeable/proxy/utils/UUPSUpgradeable.sol\":6354:6408  ERC1967Utils.upgradeToAndCall(newImplementation, data) */\n      jump\t// in\n    tag_275:\n        /* \"@openzeppelin/contracts-upgradeable/proxy/utils/UUPSUpgradeable.sol\":6184:6419  returns (bytes32 slot) {... */\n      pop\n        /* \"@openzeppelin/contracts-upgradeable/proxy/utils/UUPSUpgradeable.sol\":6032:6570  function _upgradeToAndCallUUPS(address newImplementation, bytes memory data) private {... */\n      pop\n      pop\n      jump\t// out\n        /* \"@openzeppelin/contracts-upgradeable/proxy/utils/UUPSUpgradeable.sol\":5007:5220  function _checkNotDelegated() internal view virtual {... */\n    tag_170:\n        /* \"@openzeppelin/contracts-upgradeable/proxy/utils/UUPSUpgradeable.sol\":5090:5096  __self */\n      immutable(\"0x4ce4dab4689da140a0c12de1a6af6b8f679594aeb723205f513e052d27f5b26f\")\n        /* \"@openzeppelin/contracts-upgradeable/proxy/utils/UUPSUpgradeable.sol\":5073:5096  address(this) != __self */\n      0xffffffffffffffffffffffffffffffffffffffff\n      and\n        /* \"@openzeppelin/contracts-upgradeable/proxy/utils/UUPSUpgradeable.sol\":5081:5085  this */\n      address\n        /* \"@openzeppelin/contracts-upgradeable/proxy/utils/UUPSUpgradeable.sol\":5073:5096  address(this) != __self */\n      0xffffffffffffffffffffffffffffffffffffffff\n      and\n      eq\n        /* \"@openzeppelin/contracts-upgradeable/proxy/utils/UUPSUpgradeable.sol\":5069:5214  if (address(this) != __self) {... */\n      tag_278\n      jumpi\n        /* \"@openzeppelin/contracts-upgradeable/proxy/utils/UUPSUpgradeable.sol\":5174:5203  UUPSUnauthorizedCallContext() */\n      mload(0x40)\n      0xe07c8dba00000000000000000000000000000000000000000000000000000000\n      dup2\n      mstore\n      0x04\n      add\n      mload(0x40)\n      dup1\n      swap2\n      sub\n      swap1\n      revert\n        /* \"@openzeppelin/contracts-upgradeable/proxy/utils/UUPSUpgradeable.sol\":5069:5214  if (address(this) != __self) {... */\n    tag_278:\n        /* \"@openzeppelin/contracts-upgradeable/proxy/utils/UUPSUpgradeable.sol\":5007:5220  function _checkNotDelegated() internal view virtual {... */\n      jump\t// out\n        /* \"@openzeppelin/contracts-upgradeable/access/OwnableUpgradeable.sol\":2658:2820  function _checkOwner() internal view virtual {... */\n    tag_174:\n        /* \"@openzeppelin/contracts-upgradeable/access/OwnableUpgradeable.sol\":2728:2740  _msgSender() */\n      tag_280\n        /* \"@openzeppelin/contracts-upgradeable/access/OwnableUpgradeable.sol\":2728:2738  _msgSender */\n      tag_281\n        /* \"@openzeppelin/contracts-upgradeable/access/OwnableUpgradeable.sol\":2728:2740  _msgSender() */\n      jump\t// in\n    tag_280:\n        /* \"@openzeppelin/contracts-upgradeable/access/OwnableUpgradeable.sol\":2717:2740  owner() != _msgSender() */\n      0xffffffffffffffffffffffffffffffffffffffff\n      and\n        /* \"@openzeppelin/contracts-upgradeable/access/OwnableUpgradeable.sol\":2717:2724  owner() */\n      tag_282\n        /* \"@openzeppelin/contracts-upgradeable/access/OwnableUpgradeable.sol\":2717:2722  owner */\n      tag_64\n        /* \"@openzeppelin/contracts-upgradeable/access/OwnableUpgradeable.sol\":2717:2724  owner() */\n      jump\t// in\n    tag_282:\n        /* \"@openzeppelin/contracts-upgradeable/access/OwnableUpgradeable.sol\":2717:2740  owner() != _msgSender() */\n      0xffffffffffffffffffffffffffffffffffffffff\n      and\n      eq\n        /* \"@openzeppelin/contracts-upgradeable/access/OwnableUpgradeable.sol\":2713:2814  if (owner() != _msgSender()) {... */\n      tag_283\n      jumpi\n        /* \"@openzeppelin/contracts-upgradeable/access/OwnableUpgradeable.sol\":2790:2802  _msgSender() */\n      tag_284\n        /* \"@openzeppelin/contracts-upgradeable/access/OwnableUpgradeable.sol\":2790:2800  _msgSender */\n      tag_281\n        /* \"@openzeppelin/contracts-upgradeable/access/OwnableUpgradeable.sol\":2790:2802  _msgSender() */\n      jump\t// in\n    tag_284:\n        /* \"@openzeppelin/contracts-upgradeable/access/OwnableUpgradeable.sol\":2763:2803  OwnableUnauthorizedAccount(_msgSender()) */\n      mload(0x40)\n      0x118cdaa700000000000000000000000000000000000000000000000000000000\n      dup2\n      mstore\n      0x04\n      add\n      tag_285\n      swap2\n      swap1\n      tag_66\n      jump\t// in\n    tag_285:\n      mload(0x40)\n      dup1\n      swap2\n      sub\n      swap1\n      revert\n        /* \"@openzeppelin/contracts-upgradeable/access/OwnableUpgradeable.sol\":2713:2814  if (owner() != _msgSender()) {... */\n    tag_283:\n        /* \"@openzeppelin/contracts-upgradeable/access/OwnableUpgradeable.sol\":2658:2820  function _checkOwner() internal view virtual {... */\n      jump\t// out\n        /* \"@openzeppelin/contracts-upgradeable/access/OwnableUpgradeable.sol\":3774:4022  function _transferOwnership(address newOwner) internal virtual {... */\n    tag_177:\n        /* \"@openzeppelin/contracts-upgradeable/access/OwnableUpgradeable.sol\":3847:3871  OwnableStorage storage $ */\n      0x00\n        /* \"@openzeppelin/contracts-upgradeable/access/OwnableUpgradeable.sol\":3874:3894  _getOwnableStorage() */\n      tag_287\n        /* \"@openzeppelin/contracts-upgradeable/access/OwnableUpgradeable.sol\":3874:3892  _getOwnableStorage */\n      tag_186\n        /* \"@openzeppelin/contracts-upgradeable/access/OwnableUpgradeable.sol\":3874:3894  _getOwnableStorage() */\n      jump\t// in\n    tag_287:\n        /* \"@openzeppelin/contracts-upgradeable/access/OwnableUpgradeable.sol\":3847:3894  OwnableStorage storage $ = _getOwnableStorage() */\n      swap1\n      pop\n        /* \"@openzeppelin/contracts-upgradeable/access/OwnableUpgradeable.sol\":3904:3920  address oldOwner */\n      0x00\n        /* \"@openzeppelin/contracts-upgradeable/access/OwnableUpgradeable.sol\":3923:3924  $ */\n      dup2\n        /* \"@openzeppelin/contracts-upgradeable/access/OwnableUpgradeable.sol\":3923:3931  $._owner */\n      0x00\n      add\n      0x00\n      swap1\n      sload\n      swap1\n      0x0100\n      exp\n      swap1\n      div\n      0xffffffffffffffffffffffffffffffffffffffff\n      and\n        /* \"@openzeppelin/contracts-upgradeable/access/OwnableUpgradeable.sol\":3904:3931  address oldOwner = $._owner */\n      swap1\n      pop\n        /* \"@openzeppelin/contracts-upgradeable/access/OwnableUpgradeable.sol\":3952:3960  newOwner */\n      dup3\n        /* \"@openzeppelin/contracts-upgradeable/access/OwnableUpgradeable.sol\":3941:3942  $ */\n      dup3\n        /* \"@openzeppelin/contracts-upgradeable/access/OwnableUpgradeable.sol\":3941:3949  $._owner */\n      0x00\n      add\n      0x00\n        /* \"@openzeppelin/contracts-upgradeable/access/OwnableUpgradeable.sol\":3941:3960  $._owner = newOwner */\n      0x0100\n      exp\n      dup2\n      sload\n      dup2\n      0xffffffffffffffffffffffffffffffffffffffff\n      mul\n      not\n      and\n      swap1\n      dup4\n      0xffffffffffffffffffffffffffffffffffffffff\n      and\n      mul\n      or\n      swap1\n      sstore\n      pop\n        /* \"@openzeppelin/contracts-upgradeable/access/OwnableUpgradeable.sol\":4006:4014  newOwner */\n      dup3\n        /* \"@openzeppelin/contracts-upgradeable/access/OwnableUpgradeable.sol\":3975:4015  OwnershipTransferred(oldOwner, newOwner) */\n      0xffffffffffffffffffffffffffffffffffffffff\n      and\n        /* \"@openzeppelin/contracts-upgradeable/access/OwnableUpgradeable.sol\":3996:4004  oldOwner */\n      dup2\n        /* \"@openzeppelin/contracts-upgradeable/access/OwnableUpgradeable.sol\":3975:4015  OwnershipTransferred(oldOwner, newOwner) */\n      0xffffffffffffffffffffffffffffffffffffffff\n      and\n      0x8be0079c531659141344cd1fd0a4f28419497f9722a3daafe3b4186f6b6457e0\n      mload(0x40)\n      mload(0x40)\n      dup1\n      swap2\n      sub\n      swap1\n      log3\n        /* \"@openzeppelin/contracts-upgradeable/access/OwnableUpgradeable.sol\":3837:4022  {... */\n      pop\n      pop\n        /* \"@openzeppelin/contracts-upgradeable/access/OwnableUpgradeable.sol\":3774:4022  function _transferOwnership(address newOwner) internal virtual {... */\n      pop\n      jump\t// out\n        /* \"@openzeppelin/contracts-upgradeable/access/OwnableUpgradeable.sol\":1192:1351  function _getOwnableStorage() private pure returns (OwnableStorage storage $) {... */\n    tag_186:\n        /* \"@openzeppelin/contracts-upgradeable/access/OwnableUpgradeable.sol\":1244:1268  OwnableStorage storage $ */\n      0x00\n        /* \"@openzeppelin/contracts-upgradeable/access/OwnableUpgradeable.sol\":1313:1335  OwnableStorageLocation */\n      0x9016d09d72d40fdae2fd8ceac6b6234c7706214fd39c1cd1e609a0528c199300\n        /* \"@openzeppelin/contracts-upgradeable/access/OwnableUpgradeable.sol\":1303:1335  $.slot := OwnableStorageLocation */\n      swap1\n      pop\n        /* \"@openzeppelin/contracts-upgradeable/access/OwnableUpgradeable.sol\":1192:1351  function _getOwnableStorage() private pure returns (OwnableStorage storage $) {... */\n      swap1\n      jump\t// out\n        /* \"@openzeppelin/contracts-upgradeable/utils/ReentrancyGuardUpgradeable.sol\":2395:2578  function _getReentrancyGuardStorage() private pure returns (ReentrancyGuardStorage storage $) {... */\n    tag_200:\n        /* \"@openzeppelin/contracts-upgradeable/utils/ReentrancyGuardUpgradeable.sol\":2455:2487  ReentrancyGuardStorage storage $ */\n      0x00\n        /* \"@openzeppelin/contracts-upgradeable/utils/ReentrancyGuardUpgradeable.sol\":2532:2562  ReentrancyGuardStorageLocation */\n      0x9b779b17422d0df92223018b32b4d1fa46e071723d6817e2486d003becc55f00\n        /* \"@openzeppelin/contracts-upgradeable/utils/ReentrancyGuardUpgradeable.sol\":2522:2562  $.slot := ReentrancyGuardStorageLocation */\n      swap1\n      pop\n        /* \"@openzeppelin/contracts-upgradeable/utils/ReentrancyGuardUpgradeable.sol\":2395:2578  function _getReentrancyGuardStorage() private pure returns (ReentrancyGuardStorage storage $) {... */\n      swap1\n      jump\t// out\n        /* \"@openzeppelin/contracts-upgradeable/token/ERC20/utils/SafeERC20Upgradeable.sol\":5328:5981  function _callOptionalReturn(IERC20Upgradeable token, bytes memory data) private {... */\n    tag_206:\n        /* \"@openzeppelin/contracts-upgradeable/token/ERC20/utils/SafeERC20Upgradeable.sol\":5758:5781  bytes memory returndata */\n      0x00\n        /* \"@openzeppelin/contracts-upgradeable/token/ERC20/utils/SafeERC20Upgradeable.sol\":5784:5853  address(token).functionCall(data, \"SafeERC20: low-level call failed\") */\n      tag_291\n        /* \"@openzeppelin/contracts-upgradeable/token/ERC20/utils/SafeERC20Upgradeable.sol\":5812:5816  data */\n      dup3\n        /* \"@openzeppelin/contracts-upgradeable/token/ERC20/utils/SafeERC20Upgradeable.sol\":5784:5853  address(token).functionCall(data, \"SafeERC20: low-level call failed\") */\n      mload(0x40)\n      dup1\n      0x40\n      add\n      0x40\n      mstore\n      dup1\n      0x20\n      dup2\n      mstore\n      0x20\n      add\n      0x5361666545524332303a206c6f772d6c6576656c2063616c6c206661696c6564\n      dup2\n      mstore\n      pop\n        /* \"@openzeppelin/contracts-upgradeable/token/ERC20/utils/SafeERC20Upgradeable.sol\":5792:5797  token */\n      dup6\n        /* \"@openzeppelin/contracts-upgradeable/token/ERC20/utils/SafeERC20Upgradeable.sol\":5784:5811  address(token).functionCall */\n      0xffffffffffffffffffffffffffffffffffffffff\n      and\n      tag_292\n      swap1\n        /* \"@openzeppelin/contracts-upgradeable/token/ERC20/utils/SafeERC20Upgradeable.sol\":5784:5853  address(token).functionCall(data, \"SafeERC20: low-level call failed\") */\n      swap3\n      swap2\n      swap1\n      0xffffffff\n      and\n      jump\t// in\n    tag_291:\n        /* \"@openzeppelin/contracts-upgradeable/token/ERC20/utils/SafeERC20Upgradeable.sol\":5758:5853  bytes memory returndata = address(token).functionCall(data, \"SafeERC20: low-level call failed\") */\n      swap1\n      pop\n        /* \"@openzeppelin/contracts-upgradeable/token/ERC20/utils/SafeERC20Upgradeable.sol\":5892:5893  0 */\n      0x00\n        /* \"@openzeppelin/contracts-upgradeable/token/ERC20/utils/SafeERC20Upgradeable.sol\":5871:5881  returndata */\n      dup2\n        /* \"@openzeppelin/contracts-upgradeable/token/ERC20/utils/SafeERC20Upgradeable.sol\":5871:5888  returndata.length */\n      mload\n        /* \"@openzeppelin/contracts-upgradeable/token/ERC20/utils/SafeERC20Upgradeable.sol\":5871:5893  returndata.length == 0 */\n      eq\n        /* \"@openzeppelin/contracts-upgradeable/token/ERC20/utils/SafeERC20Upgradeable.sol\":5871:5927  returndata.length == 0 || abi.decode(returndata, (bool)) */\n      dup1\n      tag_293\n      jumpi\n      pop\n        /* \"@openzeppelin/contracts-upgradeable/token/ERC20/utils/SafeERC20Upgradeable.sol\":5908:5918  returndata */\n      dup1\n        /* \"@openzeppelin/contracts-upgradeable/token/ERC20/utils/SafeERC20Upgradeable.sol\":5897:5927  abi.decode(returndata, (bool)) */\n      dup1\n      0x20\n      add\n      swap1\n      mload\n      dup2\n      add\n      swap1\n      tag_294\n      swap2\n      swap1\n      tag_295\n      jump\t// in\n    tag_294:\n        /* \"@openzeppelin/contracts-upgradeable/token/ERC20/utils/SafeERC20Upgradeable.sol\":5871:5927  returndata.length == 0 || abi.decode(returndata, (bool)) */\n    tag_293:\n        /* \"@openzeppelin/contracts-upgradeable/token/ERC20/utils/SafeERC20Upgradeable.sol\":5863:5974  require(returndata.length == 0 || abi.decode(returndata, (bool)), \"SafeERC20: ERC20 operation did not succeed\") */\n      tag_296\n      jumpi\n      mload(0x40)\n      0x08c379a000000000000000000000000000000000000000000000000000000000\n      dup2\n      mstore\n      0x04\n      add\n      tag_297\n      swap1\n      tag_298\n      jump\t// in\n    tag_297:\n      mload(0x40)\n      dup1\n      swap2\n      sub\n      swap1\n      revert\n    tag_296:\n        /* \"@openzeppelin/contracts-upgradeable/token/ERC20/utils/SafeERC20Upgradeable.sol\":5409:5981  {... */\n      pop\n        /* \"@openzeppelin/contracts-upgradeable/token/ERC20/utils/SafeERC20Upgradeable.sol\":5328:5981  function _callOptionalReturn(IERC20Upgradeable token, bytes memory data) private {... */\n      pop\n      pop\n      jump\t// out\n        /* \"@openzeppelin/contracts-upgradeable/token/ERC20/utils/SafeERC20Upgradeable.sol\":6482:7098  function _callOptionalReturnBool(IERC20Upgradeable token, bytes memory data) private returns (bool) {... */\n    tag_211:\n        /* \"@openzeppelin/contracts-upgradeable/token/ERC20/utils/SafeERC20Upgradeable.sol\":6576:6580  bool */\n      0x00\n        /* \"@openzeppelin/contracts-upgradeable/token/ERC20/utils/SafeERC20Upgradeable.sol\":6878:6890  bool success */\n      0x00\n        /* \"@openzeppelin/contracts-upgradeable/token/ERC20/utils/SafeERC20Upgradeable.sol\":6892:6915  bytes memory returndata */\n      0x00\n        /* \"@openzeppelin/contracts-upgradeable/token/ERC20/utils/SafeERC20Upgradeable.sol\":6927:6932  token */\n      dup5\n        /* \"@openzeppelin/contracts-upgradeable/token/ERC20/utils/SafeERC20Upgradeable.sol\":6919:6938  address(token).call */\n      0xffffffffffffffffffffffffffffffffffffffff\n      and\n        /* \"@openzeppelin/contracts-upgradeable/token/ERC20/utils/SafeERC20Upgradeable.sol\":6939:6943  data */\n      dup5\n        /* \"@openzeppelin/contracts-upgradeable/token/ERC20/utils/SafeERC20Upgradeable.sol\":6919:6944  address(token).call(data) */\n      mload(0x40)\n      tag_300\n      swap2\n      swap1\n      tag_301\n      jump\t// in\n    tag_300:\n      0x00\n      mload(0x40)\n      dup1\n      dup4\n      sub\n      dup2\n      0x00\n      dup7\n      gas\n      call\n      swap2\n      pop\n      pop\n      returndatasize\n      dup1\n      0x00\n      dup2\n      eq\n      tag_304\n      jumpi\n      mload(0x40)\n      swap2\n      pop\n      and(add(returndatasize, 0x3f), not(0x1f))\n      dup3\n      add\n      0x40\n      mstore\n      returndatasize\n      dup3\n      mstore\n      returndatasize\n      0x00\n      0x20\n      dup5\n      add\n      returndatacopy\n      jump(tag_303)\n    tag_304:\n      0x60\n      swap2\n      pop\n    tag_303:\n      pop\n        /* \"@openzeppelin/contracts-upgradeable/token/ERC20/utils/SafeERC20Upgradeable.sol\":6877:6944  (bool success, bytes memory returndata) = address(token).call(data) */\n      swap2\n      pop\n      swap2\n      pop\n        /* \"@openzeppelin/contracts-upgradeable/token/ERC20/utils/SafeERC20Upgradeable.sol\":6973:6980  success */\n      dup2\n        /* \"@openzeppelin/contracts-upgradeable/token/ERC20/utils/SafeERC20Upgradeable.sol\":6973:7042  success && (returndata.length == 0 || abi.decode(returndata, (bool))) */\n      dup1\n      iszero\n      tag_305\n      jumpi\n      pop\n        /* \"@openzeppelin/contracts-upgradeable/token/ERC20/utils/SafeERC20Upgradeable.sol\":7006:7007  0 */\n      0x00\n        /* \"@openzeppelin/contracts-upgradeable/token/ERC20/utils/SafeERC20Upgradeable.sol\":6985:6995  returndata */\n      dup2\n        /* \"@openzeppelin/contracts-upgradeable/token/ERC20/utils/SafeERC20Upgradeable.sol\":6985:7002  returndata.length */\n      mload\n        /* \"@openzeppelin/contracts-upgradeable/token/ERC20/utils/SafeERC20Upgradeable.sol\":6985:7007  returndata.length == 0 */\n      eq\n        /* \"@openzeppelin/contracts-upgradeable/token/ERC20/utils/SafeERC20Upgradeable.sol\":6985:7041  returndata.length == 0 || abi.decode(returndata, (bool)) */\n      dup1\n      tag_306\n      jumpi\n      pop\n        /* \"@openzeppelin/contracts-upgradeable/token/ERC20/utils/SafeERC20Upgradeable.sol\":7022:7032  returndata */\n      dup1\n        /* \"@openzeppelin/contracts-upgradeable/token/ERC20/utils/SafeERC20Upgradeable.sol\":7011:7041  abi.decode(returndata, (bool)) */\n      dup1\n      0x20\n      add\n      swap1\n      mload\n      dup2\n      add\n      swap1\n      tag_307\n      swap2\n      swap1\n      tag_295\n      jump\t// in\n    tag_307:\n        /* \"@openzeppelin/contracts-upgradeable/token/ERC20/utils/SafeERC20Upgradeable.sol\":6985:7041  returndata.length == 0 || abi.decode(returndata, (bool)) */\n    tag_306:\n        /* \"@openzeppelin/contracts-upgradeable/token/ERC20/utils/SafeERC20Upgradeable.sol\":6973:7042  success && (returndata.length == 0 || abi.decode(returndata, (bool))) */\n    tag_305:\n        /* \"@openzeppelin/contracts-upgradeable/token/ERC20/utils/SafeERC20Upgradeable.sol\":6973:7091  success && (returndata.length == 0 || abi.decode(returndata, (bool))) && AddressUpgradeable.isContract(address(token)) */\n      dup1\n      iszero\n      tag_308\n      jumpi\n      pop\n        /* \"@openzeppelin/contracts-upgradeable/token/ERC20/utils/SafeERC20Upgradeable.sol\":7046:7091  AddressUpgradeable.isContract(address(token)) */\n      tag_309\n        /* \"@openzeppelin/contracts-upgradeable/token/ERC20/utils/SafeERC20Upgradeable.sol\":7084:7089  token */\n      dup6\n        /* \"@openzeppelin/contracts-upgradeable/token/ERC20/utils/SafeERC20Upgradeable.sol\":7046:7075  AddressUpgradeable.isContract */\n      tag_310\n        /* \"@openzeppelin/contracts-upgradeable/token/ERC20/utils/SafeERC20Upgradeable.sol\":7046:7091  AddressUpgradeable.isContract(address(token)) */\n      jump\t// in\n    tag_309:\n        /* \"@openzeppelin/contracts-upgradeable/token/ERC20/utils/SafeERC20Upgradeable.sol\":6973:7091  success && (returndata.length == 0 || abi.decode(returndata, (bool))) && AddressUpgradeable.isContract(address(token)) */\n    tag_308:\n        /* \"@openzeppelin/contracts-upgradeable/token/ERC20/utils/SafeERC20Upgradeable.sol\":6954:7091  return... */\n      swap3\n      pop\n      pop\n      pop\n        /* \"@openzeppelin/contracts-upgradeable/token/ERC20/utils/SafeERC20Upgradeable.sol\":6482:7098  function _callOptionalReturnBool(IERC20Upgradeable token, bytes memory data) private returns (bool) {... */\n      swap3\n      swap2\n      pop\n      pop\n      jump\t// out\n        /* \"@openzeppelin/contracts-upgradeable/proxy/utils/Initializable.sol\":8819:8941  function _initializableStorageSlot() internal pure virtual returns (bytes32) {... */\n    tag_240:\n        /* \"@openzeppelin/contracts-upgradeable/proxy/utils/Initializable.sol\":8887:8894  bytes32 */\n      0x00\n        /* \"@openzeppelin/contracts-upgradeable/proxy/utils/Initializable.sol\":3147:3213  0xf0c57e16840df040f15088dc2f81fe391c3923bec73e23a9662efc9c229c6a00 */\n      0xf0c57e16840df040f15088dc2f81fe391c3923bec73e23a9662efc9c229c6a00\n        /* \"@openzeppelin/contracts-upgradeable/proxy/utils/Initializable.sol\":8913:8934  INITIALIZABLE_STORAGE */\n      0x00\n      shl\n        /* \"@openzeppelin/contracts-upgradeable/proxy/utils/Initializable.sol\":8906:8934  return INITIALIZABLE_STORAGE */\n      swap1\n      pop\n        /* \"@openzeppelin/contracts-upgradeable/proxy/utils/Initializable.sol\":8819:8941  function _initializableStorageSlot() internal pure virtual returns (bytes32) {... */\n      swap1\n      jump\t// out\n        /* \"@openzeppelin/contracts-upgradeable/proxy/utils/Initializable.sol\":7082:7223  function _checkInitializing() internal view virtual {... */\n    tag_243:\n        /* \"@openzeppelin/contracts-upgradeable/proxy/utils/Initializable.sol\":7149:7166  _isInitializing() */\n      tag_313\n        /* \"@openzeppelin/contracts-upgradeable/proxy/utils/Initializable.sol\":7149:7164  _isInitializing */\n      tag_314\n        /* \"@openzeppelin/contracts-upgradeable/proxy/utils/Initializable.sol\":7149:7166  _isInitializing() */\n      jump\t// in\n    tag_313:\n        /* \"@openzeppelin/contracts-upgradeable/proxy/utils/Initializable.sol\":7144:7217  if (!_isInitializing()) {... */\n      tag_315\n      jumpi\n        /* \"@openzeppelin/contracts-upgradeable/proxy/utils/Initializable.sol\":7189:7206  NotInitializing() */\n      mload(0x40)\n      0xd7e6bcf800000000000000000000000000000000000000000000000000000000\n      dup2\n      mstore\n      0x04\n      add\n      mload(0x40)\n      dup1\n      swap2\n      sub\n      swap1\n      revert\n        /* \"@openzeppelin/contracts-upgradeable/proxy/utils/Initializable.sol\":7144:7217  if (!_isInitializing()) {... */\n    tag_315:\n        /* \"@openzeppelin/contracts-upgradeable/proxy/utils/Initializable.sol\":7082:7223  function _checkInitializing() internal view virtual {... */\n      jump\t// out\n        /* \"@openzeppelin/contracts-upgradeable/access/OwnableUpgradeable.sol\":1980:2215  function __Ownable_init_unchained(address initialOwner) internal onlyInitializing {... */\n    tag_246:\n        /* \"@openzeppelin/contracts-upgradeable/proxy/utils/Initializable.sol\":6929:6949  _checkInitializing() */\n      tag_317\n        /* \"@openzeppelin/contracts-upgradeable/proxy/utils/Initializable.sol\":6929:6947  _checkInitializing */\n      tag_243\n        /* \"@openzeppelin/contracts-upgradeable/proxy/utils/Initializable.sol\":6929:6949  _checkInitializing() */\n      jump\t// in\n    tag_317:\n        /* \"@openzeppelin/contracts-upgradeable/access/OwnableUpgradeable.sol\":2100:2101  0 */\n      0x00\n        /* \"@openzeppelin/contracts-upgradeable/access/OwnableUpgradeable.sol\":2076:2102  initialOwner == address(0) */\n      0xffffffffffffffffffffffffffffffffffffffff\n      and\n        /* \"@openzeppelin/contracts-upgradeable/access/OwnableUpgradeable.sol\":2076:2088  initialOwner */\n      dup2\n        /* \"@openzeppelin/contracts-upgradeable/access/OwnableUpgradeable.sol\":2076:2102  initialOwner == address(0) */\n      0xffffffffffffffffffffffffffffffffffffffff\n      and\n      sub\n        /* \"@openzeppelin/contracts-upgradeable/access/OwnableUpgradeable.sol\":2072:2167  if (initialOwner == address(0)) {... */\n      tag_319\n      jumpi\n        /* \"@openzeppelin/contracts-upgradeable/access/OwnableUpgradeable.sol\":2153:2154  0 */\n      0x00\n        /* \"@openzeppelin/contracts-upgradeable/access/OwnableUpgradeable.sol\":2125:2156  OwnableInvalidOwner(address(0)) */\n      mload(0x40)\n      0x1e4fbdf700000000000000000000000000000000000000000000000000000000\n      dup2\n      mstore\n      0x04\n      add\n      tag_320\n      swap2\n      swap1\n      tag_66\n      jump\t// in\n    tag_320:\n      mload(0x40)\n      dup1\n      swap2\n      sub\n      swap1\n      revert\n        /* \"@openzeppelin/contracts-upgradeable/access/OwnableUpgradeable.sol\":2072:2167  if (initialOwner == address(0)) {... */\n    tag_319:\n        /* \"@openzeppelin/contracts-upgradeable/access/OwnableUpgradeable.sol\":2176:2208  _transferOwnership(initialOwner) */\n      tag_321\n        /* \"@openzeppelin/contracts-upgradeable/access/OwnableUpgradeable.sol\":2195:2207  initialOwner */\n      dup2\n        /* \"@openzeppelin/contracts-upgradeable/access/OwnableUpgradeable.sol\":2176:2194  _transferOwnership */\n      tag_177\n        /* \"@openzeppelin/contracts-upgradeable/access/OwnableUpgradeable.sol\":2176:2208  _transferOwnership(initialOwner) */\n      jump\t// in\n    tag_321:\n        /* \"@openzeppelin/contracts-upgradeable/access/OwnableUpgradeable.sol\":1980:2215  function __Ownable_init_unchained(address initialOwner) internal onlyInitializing {... */\n      pop\n      jump\t// out\n        /* \"@openzeppelin/contracts-upgradeable/utils/ReentrancyGuardUpgradeable.sol\":2801:2984  function __ReentrancyGuard_init_unchained() internal onlyInitializing {... */\n    tag_251:\n        /* \"@openzeppelin/contracts-upgradeable/proxy/utils/Initializable.sol\":6929:6949  _checkInitializing() */\n      tag_323\n        /* \"@openzeppelin/contracts-upgradeable/proxy/utils/Initializable.sol\":6929:6947  _checkInitializing */\n      tag_243\n        /* \"@openzeppelin/contracts-upgradeable/proxy/utils/Initializable.sol\":6929:6949  _checkInitializing() */\n      jump\t// in\n    tag_323:\n        /* \"@openzeppelin/contracts-upgradeable/utils/ReentrancyGuardUpgradeable.sol\":2881:2913  ReentrancyGuardStorage storage $ */\n      0x00\n        /* \"@openzeppelin/contracts-upgradeable/utils/ReentrancyGuardUpgradeable.sol\":2916:2944  _getReentrancyGuardStorage() */\n      tag_325\n        /* \"@openzeppelin/contracts-upgradeable/utils/ReentrancyGuardUpgradeable.sol\":2916:2942  _getReentrancyGuardStorage */\n      tag_200\n        /* \"@openzeppelin/contracts-upgradeable/utils/ReentrancyGuardUpgradeable.sol\":2916:2944  _getReentrancyGuardStorage() */\n      jump\t// in\n    tag_325:\n        /* \"@openzeppelin/contracts-upgradeable/utils/ReentrancyGuardUpgradeable.sol\":2881:2944  ReentrancyGuardStorage storage $ = _getReentrancyGuardStorage() */\n      swap1\n      pop\n        /* \"@openzeppelin/contracts-upgradeable/utils/ReentrancyGuardUpgradeable.sol\":1949:1950  1 */\n      0x01\n        /* \"@openzeppelin/contracts-upgradeable/utils/ReentrancyGuardUpgradeable.sol\":2954:2955  $ */\n      dup2\n        /* \"@openzeppelin/contracts-upgradeable/utils/ReentrancyGuardUpgradeable.sol\":2954:2963  $._status */\n      0x00\n      add\n        /* \"@openzeppelin/contracts-upgradeable/utils/ReentrancyGuardUpgradeable.sol\":2954:2977  $._status = NOT_ENTERED */\n      dup2\n      swap1\n      sstore\n      pop\n        /* \"@openzeppelin/contracts-upgradeable/utils/ReentrancyGuardUpgradeable.sol\":2871:2984  {... */\n      pop\n        /* \"@openzeppelin/contracts-upgradeable/utils/ReentrancyGuardUpgradeable.sol\":2801:2984  function __ReentrancyGuard_init_unchained() internal onlyInitializing {... */\n      jump\t// out\n        /* \"@openzeppelin/contracts/proxy/ERC1967/ERC1967Utils.sol\":1441:1579  function getImplementation() internal view returns (address) {... */\n    tag_258:\n        /* \"@openzeppelin/contracts/proxy/ERC1967/ERC1967Utils.sol\":1493:1500  address */\n      0x00\n        /* \"@openzeppelin/contracts/proxy/ERC1967/ERC1967Utils.sol\":1519:1566  StorageSlot.getAddressSlot(IMPLEMENTATION_SLOT) */\n      tag_327\n        /* \"@openzeppelin/contracts/proxy/ERC1967/ERC1967Utils.sol\":811:877  0x360894a13ba1a3210667c828492db98dca3e2076cc3735a920a3ca505d382bbc */\n      0x360894a13ba1a3210667c828492db98dca3e2076cc3735a920a3ca505d382bbc\n        /* \"@openzeppelin/contracts/proxy/ERC1967/ERC1967Utils.sol\":1546:1565  IMPLEMENTATION_SLOT */\n      0x00\n      shl\n        /* \"@openzeppelin/contracts/proxy/ERC1967/ERC1967Utils.sol\":1519:1545  StorageSlot.getAddressSlot */\n      tag_328\n        /* \"@openzeppelin/contracts/proxy/ERC1967/ERC1967Utils.sol\":1519:1566  StorageSlot.getAddressSlot(IMPLEMENTATION_SLOT) */\n      jump\t// in\n    tag_327:\n        /* \"@openzeppelin/contracts/proxy/ERC1967/ERC1967Utils.sol\":1519:1572  StorageSlot.getAddressSlot(IMPLEMENTATION_SLOT).value */\n      0x00\n      add\n      0x00\n      swap1\n      sload\n      swap1\n      0x0100\n      exp\n      swap1\n      div\n      0xffffffffffffffffffffffffffffffffffffffff\n      and\n        /* \"@openzeppelin/contracts/proxy/ERC1967/ERC1967Utils.sol\":1512:1572  return StorageSlot.getAddressSlot(IMPLEMENTATION_SLOT).value */\n      swap1\n      pop\n        /* \"@openzeppelin/contracts/proxy/ERC1967/ERC1967Utils.sol\":1441:1579  function getImplementation() internal view returns (address) {... */\n      swap1\n      jump\t// out\n        /* \"@openzeppelin/contracts/proxy/ERC1967/ERC1967Utils.sol\":2264:2608  function upgradeToAndCall(address newImplementation, bytes memory data) internal {... */\n    tag_276:\n        /* \"@openzeppelin/contracts/proxy/ERC1967/ERC1967Utils.sol\":2355:2392  _setImplementation(newImplementation) */\n      tag_330\n        /* \"@openzeppelin/contracts/proxy/ERC1967/ERC1967Utils.sol\":2374:2391  newImplementation */\n      dup3\n        /* \"@openzeppelin/contracts/proxy/ERC1967/ERC1967Utils.sol\":2355:2373  _setImplementation */\n      tag_331\n        /* \"@openzeppelin/contracts/proxy/ERC1967/ERC1967Utils.sol\":2355:2392  _setImplementation(newImplementation) */\n      jump\t// in\n    tag_330:\n        /* \"@openzeppelin/contracts/proxy/ERC1967/ERC1967Utils.sol\":2425:2442  newImplementation */\n      dup2\n        /* \"@openzeppelin/contracts/proxy/ERC1967/ERC1967Utils.sol\":2407:2443  IERC1967.Upgraded(newImplementation) */\n      0xffffffffffffffffffffffffffffffffffffffff\n      and\n      0xbc7cd75a20ee27fd9adebab32041f755214dbc6bffa90cc0225b39da2e5c2d3b\n      mload(0x40)\n      mload(0x40)\n      dup1\n      swap2\n      sub\n      swap1\n      log2\n        /* \"@openzeppelin/contracts/proxy/ERC1967/ERC1967Utils.sol\":2472:2473  0 */\n      0x00\n        /* \"@openzeppelin/contracts/proxy/ERC1967/ERC1967Utils.sol\":2458:2462  data */\n      dup2\n        /* \"@openzeppelin/contracts/proxy/ERC1967/ERC1967Utils.sol\":2458:2469  data.length */\n      mload\n        /* \"@openzeppelin/contracts/proxy/ERC1967/ERC1967Utils.sol\":2458:2473  data.length > 0 */\n      gt\n        /* \"@openzeppelin/contracts/proxy/ERC1967/ERC1967Utils.sol\":2454:2602  if (data.length > 0) {... */\n      iszero\n      tag_332\n      jumpi\n        /* \"@openzeppelin/contracts/proxy/ERC1967/ERC1967Utils.sol\":2489:2542  Address.functionDelegateCall(newImplementation, data) */\n      tag_333\n        /* \"@openzeppelin/contracts/proxy/ERC1967/ERC1967Utils.sol\":2518:2535  newImplementation */\n      dup3\n        /* \"@openzeppelin/contracts/proxy/ERC1967/ERC1967Utils.sol\":2537:2541  data */\n      dup3\n        /* \"@openzeppelin/contracts/proxy/ERC1967/ERC1967Utils.sol\":2489:2517  Address.functionDelegateCall */\n      tag_334\n        /* \"@openzeppelin/contracts/proxy/ERC1967/ERC1967Utils.sol\":2489:2542  Address.functionDelegateCall(newImplementation, data) */\n      jump\t// in\n    tag_333:\n      pop\n        /* \"@openzeppelin/contracts/proxy/ERC1967/ERC1967Utils.sol\":2454:2602  if (data.length > 0) {... */\n      jump(tag_335)\n    tag_332:\n        /* \"@openzeppelin/contracts/proxy/ERC1967/ERC1967Utils.sol\":2573:2591  _checkNonPayable() */\n      tag_336\n        /* \"@openzeppelin/contracts/proxy/ERC1967/ERC1967Utils.sol\":2573:2589  _checkNonPayable */\n      tag_337\n        /* \"@openzeppelin/contracts/proxy/ERC1967/ERC1967Utils.sol\":2573:2591  _checkNonPayable() */\n      jump\t// in\n    tag_336:\n        /* \"@openzeppelin/contracts/proxy/ERC1967/ERC1967Utils.sol\":2454:2602  if (data.length > 0) {... */\n    tag_335:\n        /* \"@openzeppelin/contracts/proxy/ERC1967/ERC1967Utils.sol\":2264:2608  function upgradeToAndCall(address newImplementation, bytes memory data) internal {... */\n      pop\n      pop\n      jump\t// out\n        /* \"@openzeppelin/contracts-upgradeable/utils/ContextUpgradeable.sol\":887:983  function _msgSender() internal view virtual returns (address) {... */\n    tag_281:\n        /* \"@openzeppelin/contracts-upgradeable/utils/ContextUpgradeable.sol\":940:947  address */\n      0x00\n        /* \"@openzeppelin/contracts-upgradeable/utils/ContextUpgradeable.sol\":966:976  msg.sender */\n      caller\n        /* \"@openzeppelin/contracts-upgradeable/utils/ContextUpgradeable.sol\":959:976  return msg.sender */\n      swap1\n      pop\n        /* \"@openzeppelin/contracts-upgradeable/utils/ContextUpgradeable.sol\":887:983  function _msgSender() internal view virtual returns (address) {... */\n      swap1\n      jump\t// out\n        /* \"@openzeppelin/contracts-upgradeable/utils/AddressUpgradeable.sol\":4119:4342  function functionCall(... */\n    tag_292:\n        /* \"@openzeppelin/contracts-upgradeable/utils/AddressUpgradeable.sol\":4252:4264  bytes memory */\n      0x60\n        /* \"@openzeppelin/contracts-upgradeable/utils/AddressUpgradeable.sol\":4283:4335  functionCallWithValue(target, data, 0, errorMessage) */\n      tag_340\n        /* \"@openzeppelin/contracts-upgradeable/utils/AddressUpgradeable.sol\":4305:4311  target */\n      dup5\n        /* \"@openzeppelin/contracts-upgradeable/utils/AddressUpgradeable.sol\":4313:4317  data */\n      dup5\n        /* \"@openzeppelin/contracts-upgradeable/utils/AddressUpgradeable.sol\":4319:4320  0 */\n      0x00\n        /* \"@openzeppelin/contracts-upgradeable/utils/AddressUpgradeable.sol\":4322:4334  errorMessage */\n      dup6\n        /* \"@openzeppelin/contracts-upgradeable/utils/AddressUpgradeable.sol\":4283:4304  functionCallWithValue */\n      tag_341\n        /* \"@openzeppelin/contracts-upgradeable/utils/AddressUpgradeable.sol\":4283:4335  functionCallWithValue(target, data, 0, errorMessage) */\n      jump\t// in\n    tag_340:\n        /* \"@openzeppelin/contracts-upgradeable/utils/AddressUpgradeable.sol\":4276:4335  return functionCallWithValue(target, data, 0, errorMessage) */\n      swap1\n      pop\n        /* \"@openzeppelin/contracts-upgradeable/utils/AddressUpgradeable.sol\":4119:4342  function functionCall(... */\n      swap4\n      swap3\n      pop\n      pop\n      pop\n      jump\t// out\n        /* \"@openzeppelin/contracts-upgradeable/utils/AddressUpgradeable.sol\":1423:1743  function isContract(address account) internal view returns (bool) {... */\n    tag_310:\n        /* \"@openzeppelin/contracts-upgradeable/utils/AddressUpgradeable.sol\":1483:1487  bool */\n      0x00\n        /* \"@openzeppelin/contracts-upgradeable/utils/AddressUpgradeable.sol\":1735:1736  0 */\n      0x00\n        /* \"@openzeppelin/contracts-upgradeable/utils/AddressUpgradeable.sol\":1713:1720  account */\n      dup3\n        /* \"@openzeppelin/contracts-upgradeable/utils/AddressUpgradeable.sol\":1713:1732  account.code.length */\n      0xffffffffffffffffffffffffffffffffffffffff\n      and\n      extcodesize\n        /* \"@openzeppelin/contracts-upgradeable/utils/AddressUpgradeable.sol\":1713:1736  account.code.length > 0 */\n      gt\n        /* \"@openzeppelin/contracts-upgradeable/utils/AddressUpgradeable.sol\":1706:1736  return account.code.length > 0 */\n      swap1\n      pop\n        /* \"@openzeppelin/contracts-upgradeable/utils/AddressUpgradeable.sol\":1423:1743  function isContract(address account) internal view returns (bool) {... */\n      swap2\n      swap1\n      pop\n      jump\t// out\n        /* \"@openzeppelin/contracts-upgradeable/proxy/utils/Initializable.sol\":8485:8605  function _isInitializing() internal view returns (bool) {... */\n    tag_314:\n        /* \"@openzeppelin/contracts-upgradeable/proxy/utils/Initializable.sol\":8535:8539  bool */\n      0x00\n        /* \"@openzeppelin/contracts-upgradeable/proxy/utils/Initializable.sol\":8558:8584  _getInitializableStorage() */\n      tag_344\n        /* \"@openzeppelin/contracts-upgradeable/proxy/utils/Initializable.sol\":8558:8582  _getInitializableStorage */\n      tag_144\n        /* \"@openzeppelin/contracts-upgradeable/proxy/utils/Initializable.sol\":8558:8584  _getInitializableStorage() */\n      jump\t// in\n    tag_344:\n        /* \"@openzeppelin/contracts-upgradeable/proxy/utils/Initializable.sol\":8558:8598  _getInitializableStorage()._initializing */\n      0x00\n      add\n      0x08\n      swap1\n      sload\n      swap1\n      0x0100\n      exp\n      swap1\n      div\n      0xff\n      and\n        /* \"@openzeppelin/contracts-upgradeable/proxy/utils/Initializable.sol\":8551:8598  return _getInitializableStorage()._initializing */\n      swap1\n      pop\n        /* \"@openzeppelin/contracts-upgradeable/proxy/utils/Initializable.sol\":8485:8605  function _isInitializing() internal view returns (bool) {... */\n      swap1\n      jump\t// out\n        /* \"@openzeppelin/contracts/utils/StorageSlot.sol\":1899:2062  function getAddressSlot(bytes32 slot) internal pure returns (AddressSlot storage r) {... */\n    tag_328:\n        /* \"@openzeppelin/contracts/utils/StorageSlot.sol\":1960:1981  AddressSlot storage r */\n      0x00\n        /* \"@openzeppelin/contracts/utils/StorageSlot.sol\":2042:2046  slot */\n      dup2\n        /* \"@openzeppelin/contracts/utils/StorageSlot.sol\":2032:2046  r.slot := slot */\n      swap1\n      pop\n        /* \"@openzeppelin/contracts/utils/StorageSlot.sol\":1899:2062  function getAddressSlot(bytes32 slot) internal pure returns (AddressSlot storage r) {... */\n      swap2\n      swap1\n      pop\n      jump\t// out\n        /* \"@openzeppelin/contracts/proxy/ERC1967/ERC1967Utils.sol\":1671:1952  function _setImplementation(address newImplementation) private {... */\n    tag_331:\n        /* \"@openzeppelin/contracts/proxy/ERC1967/ERC1967Utils.sol\":1781:1782  0 */\n      0x00\n        /* \"@openzeppelin/contracts/proxy/ERC1967/ERC1967Utils.sol\":1748:1765  newImplementation */\n      dup2\n        /* \"@openzeppelin/contracts/proxy/ERC1967/ERC1967Utils.sol\":1748:1777  newImplementation.code.length */\n      0xffffffffffffffffffffffffffffffffffffffff\n      and\n      extcodesize\n        /* \"@openzeppelin/contracts/proxy/ERC1967/ERC1967Utils.sol\":1748:1782  newImplementation.code.length == 0 */\n      sub\n        /* \"@openzeppelin/contracts/proxy/ERC1967/ERC1967Utils.sol\":1744:1863  if (newImplementation.code.length == 0) {... */\n      tag_347\n      jumpi\n        /* \"@openzeppelin/contracts/proxy/ERC1967/ERC1967Utils.sol\":1834:1851  newImplementation */\n      dup1\n        /* \"@openzeppelin/contracts/proxy/ERC1967/ERC1967Utils.sol\":1805:1852  ERC1967InvalidImplementation(newImplementation) */\n      mload(0x40)\n      0x4c9c8ce300000000000000000000000000000000000000000000000000000000\n      dup2\n      mstore\n      0x04\n      add\n      tag_348\n      swap2\n      swap1\n      tag_66\n      jump\t// in\n    tag_348:\n      mload(0x40)\n      dup1\n      swap2\n      sub\n      swap1\n      revert\n        /* \"@openzeppelin/contracts/proxy/ERC1967/ERC1967Utils.sol\":1744:1863  if (newImplementation.code.length == 0) {... */\n    tag_347:\n        /* \"@openzeppelin/contracts/proxy/ERC1967/ERC1967Utils.sol\":1928:1945  newImplementation */\n      dup1\n        /* \"@openzeppelin/contracts/proxy/ERC1967/ERC1967Utils.sol\":1872:1919  StorageSlot.getAddressSlot(IMPLEMENTATION_SLOT) */\n      tag_349\n        /* \"@openzeppelin/contracts/proxy/ERC1967/ERC1967Utils.sol\":811:877  0x360894a13ba1a3210667c828492db98dca3e2076cc3735a920a3ca505d382bbc */\n      0x360894a13ba1a3210667c828492db98dca3e2076cc3735a920a3ca505d382bbc\n        /* \"@openzeppelin/contracts/proxy/ERC1967/ERC1967Utils.sol\":1899:1918  IMPLEMENTATION_SLOT */\n      0x00\n      shl\n        /* \"@openzeppelin/contracts/proxy/ERC1967/ERC1967Utils.sol\":1872:1898  StorageSlot.getAddressSlot */\n      tag_328\n        /* \"@openzeppelin/contracts/proxy/ERC1967/ERC1967Utils.sol\":1872:1919  StorageSlot.getAddressSlot(IMPLEMENTATION_SLOT) */\n      jump\t// in\n    tag_349:\n        /* \"@openzeppelin/contracts/proxy/ERC1967/ERC1967Utils.sol\":1872:1925  StorageSlot.getAddressSlot(IMPLEMENTATION_SLOT).value */\n      0x00\n      add\n      0x00\n        /* \"@openzeppelin/contracts/proxy/ERC1967/ERC1967Utils.sol\":1872:1945  StorageSlot.getAddressSlot(IMPLEMENTATION_SLOT).value = newImplementation */\n      0x0100\n      exp\n      dup2\n      sload\n      dup2\n      0xffffffffffffffffffffffffffffffffffffffff\n      mul\n      not\n      and\n      swap1\n      dup4\n      0xffffffffffffffffffffffffffffffffffffffff\n      and\n      mul\n      or\n      swap1\n      sstore\n      pop\n        /* \"@openzeppelin/contracts/proxy/ERC1967/ERC1967Utils.sol\":1671:1952  function _setImplementation(address newImplementation) private {... */\n      pop\n      jump\t// out\n        /* \"@openzeppelin/contracts/utils/Address.sol\":3916:4169  function functionDelegateCall(address target, bytes memory data) internal returns (bytes memory) {... */\n    tag_334:\n        /* \"@openzeppelin/contracts/utils/Address.sol\":3999:4011  bytes memory */\n      0x60\n        /* \"@openzeppelin/contracts/utils/Address.sol\":4024:4036  bool success */\n      0x00\n        /* \"@openzeppelin/contracts/utils/Address.sol\":4038:4061  bytes memory returndata */\n      0x00\n        /* \"@openzeppelin/contracts/utils/Address.sol\":4065:4071  target */\n      dup5\n        /* \"@openzeppelin/contracts/utils/Address.sol\":4065:4084  target.delegatecall */\n      0xffffffffffffffffffffffffffffffffffffffff\n      and\n        /* \"@openzeppelin/contracts/utils/Address.sol\":4085:4089  data */\n      dup5\n        /* \"@openzeppelin/contracts/utils/Address.sol\":4065:4090  target.delegatecall(data) */\n      mload(0x40)\n      tag_351\n      swap2\n      swap1\n      tag_301\n      jump\t// in\n    tag_351:\n      0x00\n      mload(0x40)\n      dup1\n      dup4\n      sub\n      dup2\n      dup6\n      gas\n      delegatecall\n      swap2\n      pop\n      pop\n      returndatasize\n      dup1\n      0x00\n      dup2\n      eq\n      tag_354\n      jumpi\n      mload(0x40)\n      swap2\n      pop\n      and(add(returndatasize, 0x3f), not(0x1f))\n      dup3\n      add\n      0x40\n      mstore\n      returndatasize\n      dup3\n      mstore\n      returndatasize\n      0x00\n      0x20\n      dup5\n      add\n      returndatacopy\n      jump(tag_353)\n    tag_354:\n      0x60\n      swap2\n      pop\n    tag_353:\n      pop\n        /* \"@openzeppelin/contracts/utils/Address.sol\":4023:4090  (bool success, bytes memory returndata) = target.delegatecall(data) */\n      swap2\n      pop\n      swap2\n      pop\n        /* \"@openzeppelin/contracts/utils/Address.sol\":4107:4162  verifyCallResultFromTarget(target, success, returndata) */\n      tag_355\n        /* \"@openzeppelin/contracts/utils/Address.sol\":4134:4140  target */\n      dup6\n        /* \"@openzeppelin/contracts/utils/Address.sol\":4142:4149  success */\n      dup4\n        /* \"@openzeppelin/contracts/utils/Address.sol\":4151:4161  returndata */\n      dup4\n        /* \"@openzeppelin/contracts/utils/Address.sol\":4107:4133  verifyCallResultFromTarget */\n      tag_356\n        /* \"@openzeppelin/contracts/utils/Address.sol\":4107:4162  verifyCallResultFromTarget(target, success, returndata) */\n      jump\t// in\n    tag_355:\n        /* \"@openzeppelin/contracts/utils/Address.sol\":4100:4162  return verifyCallResultFromTarget(target, success, returndata) */\n      swap3\n      pop\n      pop\n      pop\n        /* \"@openzeppelin/contracts/utils/Address.sol\":3916:4169  function functionDelegateCall(address target, bytes memory data) internal returns (bytes memory) {... */\n      swap3\n      swap2\n      pop\n      pop\n      jump\t// out\n        /* \"@openzeppelin/contracts/proxy/ERC1967/ERC1967Utils.sol\":6113:6235  function _checkNonPayable() private {... */\n    tag_337:\n        /* \"@openzeppelin/contracts/proxy/ERC1967/ERC1967Utils.sol\":6175:6176  0 */\n      0x00\n        /* \"@openzeppelin/contracts/proxy/ERC1967/ERC1967Utils.sol\":6163:6172  msg.value */\n      callvalue\n        /* \"@openzeppelin/contracts/proxy/ERC1967/ERC1967Utils.sol\":6163:6176  msg.value > 0 */\n      gt\n        /* \"@openzeppelin/contracts/proxy/ERC1967/ERC1967Utils.sol\":6159:6229  if (msg.value > 0) {... */\n      iszero\n      tag_358\n      jumpi\n        /* \"@openzeppelin/contracts/proxy/ERC1967/ERC1967Utils.sol\":6199:6218  ERC1967NonPayable() */\n      mload(0x40)\n      0xb398979f00000000000000000000000000000000000000000000000000000000\n      dup2\n      mstore\n      0x04\n      add\n      mload(0x40)\n      dup1\n      swap2\n      sub\n      swap1\n      revert\n        /* \"@openzeppelin/contracts/proxy/ERC1967/ERC1967Utils.sol\":6159:6229  if (msg.value > 0) {... */\n    tag_358:\n        /* \"@openzeppelin/contracts/proxy/ERC1967/ERC1967Utils.sol\":6113:6235  function _checkNonPayable() private {... */\n      jump\t// out\n        /* \"@openzeppelin/contracts-upgradeable/utils/AddressUpgradeable.sol\":5176:5622  function functionCallWithValue(... */\n    tag_341:\n        /* \"@openzeppelin/contracts-upgradeable/utils/AddressUpgradeable.sol\":5341:5353  bytes memory */\n      0x60\n        /* \"@openzeppelin/contracts-upgradeable/utils/AddressUpgradeable.sol\":5398:5403  value */\n      dup3\n        /* \"@openzeppelin/contracts-upgradeable/utils/AddressUpgradeable.sol\":5373:5394  address(this).balance */\n      selfbalance\n        /* \"@openzeppelin/contracts-upgradeable/utils/AddressUpgradeable.sol\":5373:5403  address(this).balance >= value */\n      lt\n      iszero\n        /* \"@openzeppelin/contracts-upgradeable/utils/AddressUpgradeable.sol\":5365:5446  require(address(this).balance >= value, \"Address: insufficient balance for call\") */\n      tag_360\n      jumpi\n      mload(0x40)\n      0x08c379a000000000000000000000000000000000000000000000000000000000\n      dup2\n      mstore\n      0x04\n      add\n      tag_361\n      swap1\n      tag_362\n      jump\t// in\n    tag_361:\n      mload(0x40)\n      dup1\n      swap2\n      sub\n      swap1\n      revert\n    tag_360:\n        /* \"@openzeppelin/contracts-upgradeable/utils/AddressUpgradeable.sol\":5457:5469  bool success */\n      0x00\n        /* \"@openzeppelin/contracts-upgradeable/utils/AddressUpgradeable.sol\":5471:5494  bytes memory returndata */\n      0x00\n        /* \"@openzeppelin/contracts-upgradeable/utils/AddressUpgradeable.sol\":5498:5504  target */\n      dup7\n        /* \"@openzeppelin/contracts-upgradeable/utils/AddressUpgradeable.sol\":5498:5509  target.call */\n      0xffffffffffffffffffffffffffffffffffffffff\n      and\n        /* \"@openzeppelin/contracts-upgradeable/utils/AddressUpgradeable.sol\":5517:5522  value */\n      dup6\n        /* \"@openzeppelin/contracts-upgradeable/utils/AddressUpgradeable.sol\":5524:5528  data */\n      dup8\n        /* \"@openzeppelin/contracts-upgradeable/utils/AddressUpgradeable.sol\":5498:5529  target.call{value: value}(data) */\n      mload(0x40)\n      tag_363\n      swap2\n      swap1\n      tag_301\n      jump\t// in\n    tag_363:\n      0x00\n      mload(0x40)\n      dup1\n      dup4\n      sub\n      dup2\n      dup6\n      dup8\n      gas\n      call\n      swap3\n      pop\n      pop\n      pop\n      returndatasize\n      dup1\n      0x00\n      dup2\n      eq\n      tag_366\n      jumpi\n      mload(0x40)\n      swap2\n      pop\n      and(add(returndatasize, 0x3f), not(0x1f))\n      dup3\n      add\n      0x40\n      mstore\n      returndatasize\n      dup3\n      mstore\n      returndatasize\n      0x00\n      0x20\n      dup5\n      add\n      returndatacopy\n      jump(tag_365)\n    tag_366:\n      0x60\n      swap2\n      pop\n    tag_365:\n      pop\n        /* \"@openzeppelin/contracts-upgradeable/utils/AddressUpgradeable.sol\":5456:5529  (bool success, bytes memory returndata) = target.call{value: value}(data) */\n      swap2\n      pop\n      swap2\n      pop\n        /* \"@openzeppelin/contracts-upgradeable/utils/AddressUpgradeable.sol\":5546:5615  verifyCallResultFromTarget(target, success, returndata, errorMessage) */\n      tag_367\n        /* \"@openzeppelin/contracts-upgradeable/utils/AddressUpgradeable.sol\":5573:5579  target */\n      dup8\n        /* \"@openzeppelin/contracts-upgradeable/utils/AddressUpgradeable.sol\":5581:5588  success */\n      dup4\n        /* \"@openzeppelin/contracts-upgradeable/utils/AddressUpgradeable.sol\":5590:5600  returndata */\n      dup4\n        /* \"@openzeppelin/contracts-upgradeable/utils/AddressUpgradeable.sol\":5602:5614  errorMessage */\n      dup8\n        /* \"@openzeppelin/contracts-upgradeable/utils/AddressUpgradeable.sol\":5546:5572  verifyCallResultFromTarget */\n      tag_368\n        /* \"@openzeppelin/contracts-upgradeable/utils/AddressUpgradeable.sol\":5546:5615  verifyCallResultFromTarget(target, success, returndata, errorMessage) */\n      jump\t// in\n    tag_367:\n        /* \"@openzeppelin/contracts-upgradeable/utils/AddressUpgradeable.sol\":5539:5615  return verifyCallResultFromTarget(target, success, returndata, errorMessage) */\n      swap3\n      pop\n      pop\n      pop\n        /* \"@openzeppelin/contracts-upgradeable/utils/AddressUpgradeable.sol\":5176:5622  function functionCallWithValue(... */\n      swap5\n      swap4\n      pop\n      pop\n      pop\n      pop\n      jump\t// out\n        /* \"@openzeppelin/contracts/utils/Address.sol\":4437:5019  function verifyCallResultFromTarget(... */\n    tag_356:\n        /* \"@openzeppelin/contracts/utils/Address.sol\":4581:4593  bytes memory */\n      0x60\n        /* \"@openzeppelin/contracts/utils/Address.sol\":4610:4617  success */\n      dup3\n        /* \"@openzeppelin/contracts/utils/Address.sol\":4605:5013  if (!success) {... */\n      tag_370\n      jumpi\n        /* \"@openzeppelin/contracts/utils/Address.sol\":4633:4652  _revert(returndata) */\n      tag_371\n        /* \"@openzeppelin/contracts/utils/Address.sol\":4641:4651  returndata */\n      dup3\n        /* \"@openzeppelin/contracts/utils/Address.sol\":4633:4640  _revert */\n      tag_372\n        /* \"@openzeppelin/contracts/utils/Address.sol\":4633:4652  _revert(returndata) */\n      jump\t// in\n    tag_371:\n        /* \"@openzeppelin/contracts/utils/Address.sol\":4605:5013  if (!success) {... */\n      jump(tag_373)\n    tag_370:\n        /* \"@openzeppelin/contracts/utils/Address.sol\":4878:4879  0 */\n      0x00\n        /* \"@openzeppelin/contracts/utils/Address.sol\":4857:4867  returndata */\n      dup3\n        /* \"@openzeppelin/contracts/utils/Address.sol\":4857:4874  returndata.length */\n      mload\n        /* \"@openzeppelin/contracts/utils/Address.sol\":4857:4879  returndata.length == 0 */\n      eq\n        /* \"@openzeppelin/contracts/utils/Address.sol\":4857:4906  returndata.length == 0 && target.code.length == 0 */\n      dup1\n      iszero\n      tag_374\n      jumpi\n      pop\n        /* \"@openzeppelin/contracts/utils/Address.sol\":4905:4906  0 */\n      0x00\n        /* \"@openzeppelin/contracts/utils/Address.sol\":4883:4889  target */\n      dup5\n        /* \"@openzeppelin/contracts/utils/Address.sol\":4883:4901  target.code.length */\n      0xffffffffffffffffffffffffffffffffffffffff\n      and\n      extcodesize\n        /* \"@openzeppelin/contracts/utils/Address.sol\":4883:4906  target.code.length == 0 */\n      eq\n        /* \"@openzeppelin/contracts/utils/Address.sol\":4857:4906  returndata.length == 0 && target.code.length == 0 */\n    tag_374:\n        /* \"@openzeppelin/contracts/utils/Address.sol\":4853:4972  if (returndata.length == 0 && target.code.length == 0) {... */\n      iszero\n      tag_375\n      jumpi\n        /* \"@openzeppelin/contracts/utils/Address.sol\":4950:4956  target */\n      dup4\n        /* \"@openzeppelin/contracts/utils/Address.sol\":4933:4957  AddressEmptyCode(target) */\n      mload(0x40)\n      0x9996b31500000000000000000000000000000000000000000000000000000000\n      dup2\n      mstore\n      0x04\n      add\n      tag_376\n      swap2\n      swap1\n      tag_66\n      jump\t// in\n    tag_376:\n      mload(0x40)\n      dup1\n      swap2\n      sub\n      swap1\n      revert\n        /* \"@openzeppelin/contracts/utils/Address.sol\":4853:4972  if (returndata.length == 0 && target.code.length == 0) {... */\n    tag_375:\n        /* \"@openzeppelin/contracts/utils/Address.sol\":4992:5002  returndata */\n      dup2\n        /* \"@openzeppelin/contracts/utils/Address.sol\":4985:5002  return returndata */\n      swap1\n      pop\n      jump(tag_369)\n        /* \"@openzeppelin/contracts/utils/Address.sol\":4605:5013  if (!success) {... */\n    tag_373:\n        /* \"@openzeppelin/contracts/utils/Address.sol\":4437:5019  function verifyCallResultFromTarget(... */\n    tag_369:\n      swap4\n      swap3\n      pop\n      pop\n      pop\n      jump\t// out\n        /* \"@openzeppelin/contracts-upgradeable/utils/AddressUpgradeable.sol\":7682:8310  function verifyCallResultFromTarget(... */\n    tag_368:\n        /* \"@openzeppelin/contracts-upgradeable/utils/AddressUpgradeable.sol\":7862:7874  bytes memory */\n      0x60\n        /* \"@openzeppelin/contracts-upgradeable/utils/AddressUpgradeable.sol\":7890:7897  success */\n      dup4\n        /* \"@openzeppelin/contracts-upgradeable/utils/AddressUpgradeable.sol\":7886:8304  if (success) {... */\n      iszero\n      tag_378\n      jumpi\n        /* \"@openzeppelin/contracts-upgradeable/utils/AddressUpgradeable.sol\":7938:7939  0 */\n      0x00\n        /* \"@openzeppelin/contracts-upgradeable/utils/AddressUpgradeable.sol\":7917:7927  returndata */\n      dup4\n        /* \"@openzeppelin/contracts-upgradeable/utils/AddressUpgradeable.sol\":7917:7934  returndata.length */\n      mload\n        /* \"@openzeppelin/contracts-upgradeable/utils/AddressUpgradeable.sol\":7917:7939  returndata.length == 0 */\n      sub\n        /* \"@openzeppelin/contracts-upgradeable/utils/AddressUpgradeable.sol\":7913:8199  if (returndata.length == 0) {... */\n      tag_379\n      jumpi\n        /* \"@openzeppelin/contracts-upgradeable/utils/AddressUpgradeable.sol\":8132:8150  isContract(target) */\n      tag_380\n        /* \"@openzeppelin/contracts-upgradeable/utils/AddressUpgradeable.sol\":8143:8149  target */\n      dup6\n        /* \"@openzeppelin/contracts-upgradeable/utils/AddressUpgradeable.sol\":8132:8142  isContract */\n      tag_310\n        /* \"@openzeppelin/contracts-upgradeable/utils/AddressUpgradeable.sol\":8132:8150  isContract(target) */\n      jump\t// in\n    tag_380:\n        /* \"@openzeppelin/contracts-upgradeable/utils/AddressUpgradeable.sol\":8124:8184  require(isContract(target), \"Address: call to non-contract\") */\n      tag_381\n      jumpi\n      mload(0x40)\n      0x08c379a000000000000000000000000000000000000000000000000000000000\n      dup2\n      mstore\n      0x04\n      add\n      tag_382\n      swap1\n      tag_383\n      jump\t// in\n    tag_382:\n      mload(0x40)\n      dup1\n      swap2\n      sub\n      swap1\n      revert\n    tag_381:\n        /* \"@openzeppelin/contracts-upgradeable/utils/AddressUpgradeable.sol\":7913:8199  if (returndata.length == 0) {... */\n    tag_379:\n        /* \"@openzeppelin/contracts-upgradeable/utils/AddressUpgradeable.sol\":8219:8229  returndata */\n      dup3\n        /* \"@openzeppelin/contracts-upgradeable/utils/AddressUpgradeable.sol\":8212:8229  return returndata */\n      swap1\n      pop\n      jump(tag_377)\n        /* \"@openzeppelin/contracts-upgradeable/utils/AddressUpgradeable.sol\":7886:8304  if (success) {... */\n    tag_378:\n        /* \"@openzeppelin/contracts-upgradeable/utils/AddressUpgradeable.sol\":8260:8293  _revert(returndata, errorMessage) */\n      tag_385\n        /* \"@openzeppelin/contracts-upgradeable/utils/AddressUpgradeable.sol\":8268:8278  returndata */\n      dup4\n        /* \"@openzeppelin/contracts-upgradeable/utils/AddressUpgradeable.sol\":8280:8292  errorMessage */\n      dup4\n        /* \"@openzeppelin/contracts-upgradeable/utils/AddressUpgradeable.sol\":8260:8267  _revert */\n      tag_386\n        /* \"@openzeppelin/contracts-upgradeable/utils/AddressUpgradeable.sol\":8260:8293  _revert(returndata, errorMessage) */\n      jump\t// in\n    tag_385:\n        /* \"@openzeppelin/contracts-upgradeable/utils/AddressUpgradeable.sol\":7682:8310  function verifyCallResultFromTarget(... */\n    tag_377:\n      swap5\n      swap4\n      pop\n      pop\n      pop\n      pop\n      jump\t// out\n        /* \"@openzeppelin/contracts/utils/Address.sol\":5559:5993  function _revert(bytes memory returndata) private pure {... */\n    tag_372:\n        /* \"@openzeppelin/contracts/utils/Address.sol\":5710:5711  0 */\n      0x00\n        /* \"@openzeppelin/contracts/utils/Address.sol\":5690:5700  returndata */\n      dup2\n        /* \"@openzeppelin/contracts/utils/Address.sol\":5690:5707  returndata.length */\n      mload\n        /* \"@openzeppelin/contracts/utils/Address.sol\":5690:5711  returndata.length > 0 */\n      gt\n        /* \"@openzeppelin/contracts/utils/Address.sol\":5686:5987  if (returndata.length > 0) {... */\n      iszero\n      tag_388\n      jumpi\n        /* \"@openzeppelin/contracts/utils/Address.sol\":5894:5904  returndata */\n      dup1\n        /* \"@openzeppelin/contracts/utils/Address.sol\":5888:5905  mload(returndata) */\n      mload\n        /* \"@openzeppelin/contracts/utils/Address.sol\":5881:5885  0x20 */\n      0x20\n        /* \"@openzeppelin/contracts/utils/Address.sol\":5869:5879  returndata */\n      dup3\n        /* \"@openzeppelin/contracts/utils/Address.sol\":5865:5886  add(returndata, 0x20) */\n      add\n        /* \"@openzeppelin/contracts/utils/Address.sol\":5858:5906  revert(add(returndata, 0x20), mload(returndata)) */\n      revert\n        /* \"@openzeppelin/contracts/utils/Address.sol\":5686:5987  if (returndata.length > 0) {... */\n    tag_388:\n        /* \"@openzeppelin/contracts/utils/Address.sol\":5957:5976  Errors.FailedCall() */\n      mload(0x40)\n      0xd6bda27500000000000000000000000000000000000000000000000000000000\n      dup2\n      mstore\n      0x04\n      add\n      mload(0x40)\n      dup1\n      swap2\n      sub\n      swap1\n      revert\n        /* \"@openzeppelin/contracts-upgradeable/utils/AddressUpgradeable.sol\":8832:9372  function _revert(bytes memory returndata, string memory errorMessage) private pure {... */\n    tag_386:\n        /* \"@openzeppelin/contracts-upgradeable/utils/AddressUpgradeable.sol\":9011:9012  0 */\n      0x00\n        /* \"@openzeppelin/contracts-upgradeable/utils/AddressUpgradeable.sol\":8991:9001  returndata */\n      dup3\n        /* \"@openzeppelin/contracts-upgradeable/utils/AddressUpgradeable.sol\":8991:9008  returndata.length */\n      mload\n        /* \"@openzeppelin/contracts-upgradeable/utils/AddressUpgradeable.sol\":8991:9012  returndata.length > 0 */\n      gt\n        /* \"@openzeppelin/contracts-upgradeable/utils/AddressUpgradeable.sol\":8987:9366  if (returndata.length > 0) {... */\n      iszero\n      tag_391\n      jumpi\n        /* \"@openzeppelin/contracts-upgradeable/utils/AddressUpgradeable.sol\":9219:9229  returndata */\n      dup2\n        /* \"@openzeppelin/contracts-upgradeable/utils/AddressUpgradeable.sol\":9213:9230  mload(returndata) */\n      mload\n        /* \"@openzeppelin/contracts-upgradeable/utils/AddressUpgradeable.sol\":9275:9290  returndata_size */\n      dup1\n        /* \"@openzeppelin/contracts-upgradeable/utils/AddressUpgradeable.sol\":9262:9272  returndata */\n      dup4\n        /* \"@openzeppelin/contracts-upgradeable/utils/AddressUpgradeable.sol\":9258:9260  32 */\n      0x20\n        /* \"@openzeppelin/contracts-upgradeable/utils/AddressUpgradeable.sol\":9254:9273  add(32, returndata) */\n      add\n        /* \"@openzeppelin/contracts-upgradeable/utils/AddressUpgradeable.sol\":9247:9291  revert(add(32, returndata), returndata_size) */\n      revert\n        /* \"@openzeppelin/contracts-upgradeable/utils/AddressUpgradeable.sol\":8987:9366  if (returndata.length > 0) {... */\n    tag_391:\n        /* \"@openzeppelin/contracts-upgradeable/utils/AddressUpgradeable.sol\":9342:9354  errorMessage */\n      dup1\n        /* \"@openzeppelin/contracts-upgradeable/utils/AddressUpgradeable.sol\":9335:9355  revert(errorMessage) */\n      mload(0x40)\n      0x08c379a000000000000000000000000000000000000000000000000000000000\n      dup2\n      mstore\n      0x04\n      add\n      tag_393\n      swap2\n      swap1\n      tag_61\n      jump\t// in\n    tag_393:\n      mload(0x40)\n      dup1\n      swap2\n      sub\n      swap1\n      revert\n        /* \"#utility.yul\":7:82   */\n    tag_394:\n        /* \"#utility.yul\":40:46   */\n      0x00\n        /* \"#utility.yul\":73:75   */\n      0x40\n        /* \"#utility.yul\":67:76   */\n      mload\n        /* \"#utility.yul\":57:76   */\n      swap1\n      pop\n        /* \"#utility.yul\":7:82   */\n      swap1\n      jump\t// out\n        /* \"#utility.yul\":88:205   */\n    tag_395:\n        /* \"#utility.yul\":197:198   */\n      0x00\n        /* \"#utility.yul\":194:195   */\n      0x00\n        /* \"#utility.yul\":187:199   */\n      revert\n        /* \"#utility.yul\":211:328   */\n    tag_396:\n        /* \"#utility.yul\":320:321   */\n      0x00\n        /* \"#utility.yul\":317:318   */\n      0x00\n        /* \"#utility.yul\":310:322   */\n      revert\n        /* \"#utility.yul\":334:411   */\n    tag_397:\n        /* \"#utility.yul\":371:378   */\n      0x00\n        /* \"#utility.yul\":400:405   */\n      dup2\n        /* \"#utility.yul\":389:405   */\n      swap1\n      pop\n        /* \"#utility.yul\":334:411   */\n      swap2\n      swap1\n      pop\n      jump\t// out\n        /* \"#utility.yul\":417:539   */\n    tag_398:\n        /* \"#utility.yul\":490:514   */\n      tag_497\n        /* \"#utility.yul\":508:513   */\n      dup2\n        /* \"#utility.yul\":490:514   */\n      tag_397\n      jump\t// in\n    tag_497:\n        /* \"#utility.yul\":483:488   */\n      dup2\n        /* \"#utility.yul\":480:515   */\n      eq\n        /* \"#utility.yul\":470:533   */\n      tag_498\n      jumpi\n        /* \"#utility.yul\":529:530   */\n      0x00\n        /* \"#utility.yul\":526:527   */\n      0x00\n        /* \"#utility.yul\":519:531   */\n      revert\n        /* \"#utility.yul\":470:533   */\n    tag_498:\n        /* \"#utility.yul\":417:539   */\n      pop\n      jump\t// out\n        /* \"#utility.yul\":545:684   */\n    tag_399:\n        /* \"#utility.yul\":591:596   */\n      0x00\n        /* \"#utility.yul\":629:635   */\n      dup2\n        /* \"#utility.yul\":616:636   */\n      calldataload\n        /* \"#utility.yul\":607:636   */\n      swap1\n      pop\n        /* \"#utility.yul\":645:678   */\n      tag_500\n        /* \"#utility.yul\":672:677   */\n      dup2\n        /* \"#utility.yul\":645:678   */\n      tag_398\n      jump\t// in\n    tag_500:\n        /* \"#utility.yul\":545:684   */\n      swap3\n      swap2\n      pop\n      pop\n      jump\t// out\n        /* \"#utility.yul\":690:807   */\n    tag_400:\n        /* \"#utility.yul\":799:800   */\n      0x00\n        /* \"#utility.yul\":796:797   */\n      0x00\n        /* \"#utility.yul\":789:801   */\n      revert\n        /* \"#utility.yul\":813:930   */\n    tag_401:\n        /* \"#utility.yul\":922:923   */\n      0x00\n        /* \"#utility.yul\":919:920   */\n      0x00\n        /* \"#utility.yul\":912:924   */\n      revert\n        /* \"#utility.yul\":936:1038   */\n    tag_402:\n        /* \"#utility.yul\":977:983   */\n      0x00\n        /* \"#utility.yul\":1028:1030   */\n      0x1f\n        /* \"#utility.yul\":1024:1031   */\n      not\n        /* \"#utility.yul\":1019:1021   */\n      0x1f\n        /* \"#utility.yul\":1012:1017   */\n      dup4\n        /* \"#utility.yul\":1008:1022   */\n      add\n        /* \"#utility.yul\":1004:1032   */\n      and\n        /* \"#utility.yul\":994:1032   */\n      swap1\n      pop\n        /* \"#utility.yul\":936:1038   */\n      swap2\n      swap1\n      pop\n      jump\t// out\n        /* \"#utility.yul\":1044:1224   */\n    tag_222:\n        /* \"#utility.yul\":1092:1169   */\n      0x4e487b7100000000000000000000000000000000000000000000000000000000\n        /* \"#utility.yul\":1089:1090   */\n      0x00\n        /* \"#utility.yul\":1082:1170   */\n      mstore\n        /* \"#utility.yul\":1189:1193   */\n      0x41\n        /* \"#utility.yul\":1186:1187   */\n      0x04\n        /* \"#utility.yul\":1179:1194   */\n      mstore\n        /* \"#utility.yul\":1213:1217   */\n      0x24\n        /* \"#utility.yul\":1210:1211   */\n      0x00\n        /* \"#utility.yul\":1203:1218   */\n      revert\n        /* \"#utility.yul\":1230:1511   */\n    tag_403:\n        /* \"#utility.yul\":1313:1340   */\n      tag_506\n        /* \"#utility.yul\":1335:1339   */\n      dup3\n        /* \"#utility.yul\":1313:1340   */\n      tag_402\n      jump\t// in\n    tag_506:\n        /* \"#utility.yul\":1305:1311   */\n      dup2\n        /* \"#utility.yul\":1301:1341   */\n      add\n        /* \"#utility.yul\":1443:1449   */\n      dup2\n        /* \"#utility.yul\":1431:1441   */\n      dup2\n        /* \"#utility.yul\":1428:1450   */\n      lt\n        /* \"#utility.yul\":1407:1425   */\n      0xffffffffffffffff\n        /* \"#utility.yul\":1395:1405   */\n      dup3\n        /* \"#utility.yul\":1392:1426   */\n      gt\n        /* \"#utility.yul\":1389:1451   */\n      or\n        /* \"#utility.yul\":1386:1474   */\n      iszero\n      tag_507\n      jumpi\n        /* \"#utility.yul\":1454:1472   */\n      tag_508\n      tag_222\n      jump\t// in\n    tag_508:\n        /* \"#utility.yul\":1386:1474   */\n    tag_507:\n        /* \"#utility.yul\":1494:1504   */\n      dup1\n        /* \"#utility.yul\":1490:1492   */\n      0x40\n        /* \"#utility.yul\":1483:1505   */\n      mstore\n        /* \"#utility.yul\":1273:1511   */\n      pop\n        /* \"#utility.yul\":1230:1511   */\n      pop\n      pop\n      jump\t// out\n        /* \"#utility.yul\":1517:1646   */\n    tag_404:\n        /* \"#utility.yul\":1551:1557   */\n      0x00\n        /* \"#utility.yul\":1578:1598   */\n      tag_510\n      tag_394\n      jump\t// in\n    tag_510:\n        /* \"#utility.yul\":1568:1598   */\n      swap1\n      pop\n        /* \"#utility.yul\":1607:1640   */\n      tag_511\n        /* \"#utility.yul\":1635:1639   */\n      dup3\n        /* \"#utility.yul\":1627:1633   */\n      dup3\n        /* \"#utility.yul\":1607:1640   */\n      tag_403\n      jump\t// in\n    tag_511:\n        /* \"#utility.yul\":1517:1646   */\n      swap2\n      swap1\n      pop\n      jump\t// out\n        /* \"#utility.yul\":1652:1960   */\n    tag_405:\n        /* \"#utility.yul\":1714:1718   */\n      0x00\n        /* \"#utility.yul\":1804:1822   */\n      0xffffffffffffffff\n        /* \"#utility.yul\":1796:1802   */\n      dup3\n        /* \"#utility.yul\":1793:1823   */\n      gt\n        /* \"#utility.yul\":1790:1846   */\n      iszero\n      tag_513\n      jumpi\n        /* \"#utility.yul\":1826:1844   */\n      tag_514\n      tag_222\n      jump\t// in\n    tag_514:\n        /* \"#utility.yul\":1790:1846   */\n    tag_513:\n        /* \"#utility.yul\":1864:1893   */\n      tag_515\n        /* \"#utility.yul\":1886:1892   */\n      dup3\n        /* \"#utility.yul\":1864:1893   */\n      tag_402\n      jump\t// in\n    tag_515:\n        /* \"#utility.yul\":1856:1893   */\n      swap1\n      pop\n        /* \"#utility.yul\":1948:1952   */\n      0x20\n        /* \"#utility.yul\":1942:1946   */\n      dup2\n        /* \"#utility.yul\":1938:1953   */\n      add\n        /* \"#utility.yul\":1930:1953   */\n      swap1\n      pop\n        /* \"#utility.yul\":1652:1960   */\n      swap2\n      swap1\n      pop\n      jump\t// out\n        /* \"#utility.yul\":1966:2114   */\n    tag_406:\n        /* \"#utility.yul\":2064:2070   */\n      dup3\n        /* \"#utility.yul\":2059:2062   */\n      dup2\n        /* \"#utility.yul\":2054:2057   */\n      dup4\n        /* \"#utility.yul\":2041:2071   */\n      calldatacopy\n        /* \"#utility.yul\":2105:2106   */\n      0x00\n        /* \"#utility.yul\":2096:2102   */\n      dup4\n        /* \"#utility.yul\":2091:2094   */\n      dup4\n        /* \"#utility.yul\":2087:2103   */\n      add\n        /* \"#utility.yul\":2080:2107   */\n      mstore\n        /* \"#utility.yul\":1966:2114   */\n      pop\n      pop\n      pop\n      jump\t// out\n        /* \"#utility.yul\":2120:2545   */\n    tag_407:\n        /* \"#utility.yul\":2198:2203   */\n      0x00\n        /* \"#utility.yul\":2223:2289   */\n      tag_518\n        /* \"#utility.yul\":2239:2288   */\n      tag_519\n        /* \"#utility.yul\":2281:2287   */\n      dup5\n        /* \"#utility.yul\":2239:2288   */\n      tag_405\n      jump\t// in\n    tag_519:\n        /* \"#utility.yul\":2223:2289   */\n      tag_404\n      jump\t// in\n    tag_518:\n        /* \"#utility.yul\":2214:2289   */\n      swap1\n      pop\n        /* \"#utility.yul\":2312:2318   */\n      dup3\n        /* \"#utility.yul\":2305:2310   */\n      dup2\n        /* \"#utility.yul\":2298:2319   */\n      mstore\n        /* \"#utility.yul\":2350:2354   */\n      0x20\n        /* \"#utility.yul\":2343:2348   */\n      dup2\n        /* \"#utility.yul\":2339:2355   */\n      add\n        /* \"#utility.yul\":2388:2391   */\n      dup5\n        /* \"#utility.yul\":2379:2385   */\n      dup5\n        /* \"#utility.yul\":2374:2377   */\n      dup5\n        /* \"#utility.yul\":2370:2386   */\n      add\n        /* \"#utility.yul\":2367:2392   */\n      gt\n        /* \"#utility.yul\":2364:2476   */\n      iszero\n      tag_520\n      jumpi\n        /* \"#utility.yul\":2395:2474   */\n      tag_521\n      tag_401\n      jump\t// in\n    tag_521:\n        /* \"#utility.yul\":2364:2476   */\n    tag_520:\n        /* \"#utility.yul\":2485:2539   */\n      tag_522\n        /* \"#utility.yul\":2532:2538   */\n      dup5\n        /* \"#utility.yul\":2527:2530   */\n      dup3\n        /* \"#utility.yul\":2522:2525   */\n      dup6\n        /* \"#utility.yul\":2485:2539   */\n      tag_406\n      jump\t// in\n    tag_522:\n        /* \"#utility.yul\":2204:2545   */\n      pop\n        /* \"#utility.yul\":2120:2545   */\n      swap4\n      swap3\n      pop\n      pop\n      pop\n      jump\t// out\n        /* \"#utility.yul\":2565:2905   */\n    tag_408:\n        /* \"#utility.yul\":2621:2626   */\n      0x00\n        /* \"#utility.yul\":2670:2673   */\n      dup3\n        /* \"#utility.yul\":2663:2667   */\n      0x1f\n        /* \"#utility.yul\":2655:2661   */\n      dup4\n        /* \"#utility.yul\":2651:2668   */\n      add\n        /* \"#utility.yul\":2647:2674   */\n      slt\n        /* \"#utility.yul\":2637:2759   */\n      tag_524\n      jumpi\n        /* \"#utility.yul\":2678:2757   */\n      tag_525\n      tag_400\n      jump\t// in\n    tag_525:\n        /* \"#utility.yul\":2637:2759   */\n    tag_524:\n        /* \"#utility.yul\":2795:2801   */\n      dup2\n        /* \"#utility.yul\":2782:2802   */\n      calldataload\n        /* \"#utility.yul\":2820:2899   */\n      tag_526\n        /* \"#utility.yul\":2895:2898   */\n      dup5\n        /* \"#utility.yul\":2887:2893   */\n      dup3\n        /* \"#utility.yul\":2880:2884   */\n      0x20\n        /* \"#utility.yul\":2872:2878   */\n      dup7\n        /* \"#utility.yul\":2868:2885   */\n      add\n        /* \"#utility.yul\":2820:2899   */\n      tag_407\n      jump\t// in\n    tag_526:\n        /* \"#utility.yul\":2811:2899   */\n      swap2\n      pop\n        /* \"#utility.yul\":2627:2905   */\n      pop\n        /* \"#utility.yul\":2565:2905   */\n      swap3\n      swap2\n      pop\n      pop\n      jump\t// out\n        /* \"#utility.yul\":2911:3565   */\n    tag_23:\n        /* \"#utility.yul\":2989:2995   */\n      0x00\n        /* \"#utility.yul\":2997:3003   */\n      0x00\n        /* \"#utility.yul\":3046:3048   */\n      0x40\n        /* \"#utility.yul\":3034:3043   */\n      dup4\n        /* \"#utility.yul\":3025:3032   */\n      dup6\n        /* \"#utility.yul\":3021:3044   */\n      sub\n        /* \"#utility.yul\":3017:3049   */\n      slt\n        /* \"#utility.yul\":3014:3133   */\n      iszero\n      tag_528\n      jumpi\n        /* \"#utility.yul\":3052:3131   */\n      tag_529\n      tag_395\n      jump\t// in\n    tag_529:\n        /* \"#utility.yul\":3014:3133   */\n    tag_528:\n        /* \"#utility.yul\":3172:3173   */\n      0x00\n        /* \"#utility.yul\":3197:3250   */\n      tag_530\n        /* \"#utility.yul\":3242:3249   */\n      dup6\n        /* \"#utility.yul\":3233:3239   */\n      dup3\n        /* \"#utility.yul\":3222:3231   */\n      dup7\n        /* \"#utility.yul\":3218:3240   */\n      add\n        /* \"#utility.yul\":3197:3250   */\n      tag_399\n      jump\t// in\n    tag_530:\n        /* \"#utility.yul\":3187:3250   */\n      swap3\n      pop\n        /* \"#utility.yul\":3143:3260   */\n      pop\n        /* \"#utility.yul\":3327:3329   */\n      0x20\n        /* \"#utility.yul\":3316:3325   */\n      dup4\n        /* \"#utility.yul\":3312:3330   */\n      add\n        /* \"#utility.yul\":3299:3331   */\n      calldataload\n        /* \"#utility.yul\":3358:3376   */\n      0xffffffffffffffff\n        /* \"#utility.yul\":3350:3356   */\n      dup2\n        /* \"#utility.yul\":3347:3377   */\n      gt\n        /* \"#utility.yul\":3344:3461   */\n      iszero\n      tag_531\n      jumpi\n        /* \"#utility.yul\":3380:3459   */\n      tag_532\n      tag_396\n      jump\t// in\n    tag_532:\n        /* \"#utility.yul\":3344:3461   */\n    tag_531:\n        /* \"#utility.yul\":3485:3548   */\n      tag_533\n        /* \"#utility.yul\":3540:3547   */\n      dup6\n        /* \"#utility.yul\":3531:3537   */\n      dup3\n        /* \"#utility.yul\":3520:3529   */\n      dup7\n        /* \"#utility.yul\":3516:3538   */\n      add\n        /* \"#utility.yul\":3485:3548   */\n      tag_408\n      jump\t// in\n    tag_533:\n        /* \"#utility.yul\":3475:3548   */\n      swap2\n      pop\n        /* \"#utility.yul\":3270:3558   */\n      pop\n        /* \"#utility.yul\":2911:3565   */\n      swap3\n      pop\n      swap3\n      swap1\n      pop\n      jump\t// out\n        /* \"#utility.yul\":3571:3697   */\n    tag_409:\n        /* \"#utility.yul\":3608:3615   */\n      0x00\n        /* \"#utility.yul\":3648:3690   */\n      0xffffffffffffffffffffffffffffffffffffffff\n        /* \"#utility.yul\":3641:3646   */\n      dup3\n        /* \"#utility.yul\":3637:3691   */\n      and\n        /* \"#utility.yul\":3626:3691   */\n      swap1\n      pop\n        /* \"#utility.yul\":3571:3697   */\n      swap2\n      swap1\n      pop\n      jump\t// out\n        /* \"#utility.yul\":3703:3763   */\n    tag_410:\n        /* \"#utility.yul\":3731:3734   */\n      0x00\n        /* \"#utility.yul\":3752:3757   */\n      dup2\n        /* \"#utility.yul\":3745:3757   */\n      swap1\n      pop\n        /* \"#utility.yul\":3703:3763   */\n      swap2\n      swap1\n      pop\n      jump\t// out\n        /* \"#utility.yul\":3769:3911   */\n    tag_411:\n        /* \"#utility.yul\":3819:3828   */\n      0x00\n        /* \"#utility.yul\":3852:3905   */\n      tag_537\n        /* \"#utility.yul\":3870:3904   */\n      tag_538\n        /* \"#utility.yul\":3879:3903   */\n      tag_539\n        /* \"#utility.yul\":3897:3902   */\n      dup5\n        /* \"#utility.yul\":3879:3903   */\n      tag_409\n      jump\t// in\n    tag_539:\n        /* \"#utility.yul\":3870:3904   */\n      tag_410\n      jump\t// in\n    tag_538:\n        /* \"#utility.yul\":3852:3905   */\n      tag_409\n      jump\t// in\n    tag_537:\n        /* \"#utility.yul\":3839:3905   */\n      swap1\n      pop\n        /* \"#utility.yul\":3769:3911   */\n      swap2\n      swap1\n      pop\n      jump\t// out\n        /* \"#utility.yul\":3917:4043   */\n    tag_412:\n        /* \"#utility.yul\":3967:3976   */\n      0x00\n        /* \"#utility.yul\":4000:4037   */\n      tag_541\n        /* \"#utility.yul\":4031:4036   */\n      dup3\n        /* \"#utility.yul\":4000:4037   */\n      tag_411\n      jump\t// in\n    tag_541:\n        /* \"#utility.yul\":3987:4037   */\n      swap1\n      pop\n        /* \"#utility.yul\":3917:4043   */\n      swap2\n      swap1\n      pop\n      jump\t// out\n        /* \"#utility.yul\":4049:4200   */\n    tag_413:\n        /* \"#utility.yul\":4124:4133   */\n      0x00\n        /* \"#utility.yul\":4157:4194   */\n      tag_543\n        /* \"#utility.yul\":4188:4193   */\n      dup3\n        /* \"#utility.yul\":4157:4194   */\n      tag_412\n      jump\t// in\n    tag_543:\n        /* \"#utility.yul\":4144:4194   */\n      swap1\n      pop\n        /* \"#utility.yul\":4049:4200   */\n      swap2\n      swap1\n      pop\n      jump\t// out\n        /* \"#utility.yul\":4206:4387   */\n    tag_414:\n        /* \"#utility.yul\":4318:4380   */\n      tag_545\n        /* \"#utility.yul\":4374:4379   */\n      dup2\n        /* \"#utility.yul\":4318:4380   */\n      tag_413\n      jump\t// in\n    tag_545:\n        /* \"#utility.yul\":4313:4316   */\n      dup3\n        /* \"#utility.yul\":4306:4381   */\n      mstore\n        /* \"#utility.yul\":4206:4387   */\n      pop\n      pop\n      jump\t// out\n        /* \"#utility.yul\":4393:4665   */\n    tag_29:\n        /* \"#utility.yul\":4511:4515   */\n      0x00\n        /* \"#utility.yul\":4549:4551   */\n      0x20\n        /* \"#utility.yul\":4538:4547   */\n      dup3\n        /* \"#utility.yul\":4534:4552   */\n      add\n        /* \"#utility.yul\":4526:4552   */\n      swap1\n      pop\n        /* \"#utility.yul\":4562:4658   */\n      tag_547\n        /* \"#utility.yul\":4655:4656   */\n      0x00\n        /* \"#utility.yul\":4644:4653   */\n      dup4\n        /* \"#utility.yul\":4640:4657   */\n      add\n        /* \"#utility.yul\":4631:4637   */\n      dup5\n        /* \"#utility.yul\":4562:4658   */\n      tag_414\n      jump\t// in\n    tag_547:\n        /* \"#utility.yul\":4393:4665   */\n      swap3\n      swap2\n      pop\n      pop\n      jump\t// out\n        /* \"#utility.yul\":4671:4767   */\n    tag_415:\n        /* \"#utility.yul\":4708:4715   */\n      0x00\n        /* \"#utility.yul\":4737:4761   */\n      tag_549\n        /* \"#utility.yul\":4755:4760   */\n      dup3\n        /* \"#utility.yul\":4737:4761   */\n      tag_409\n      jump\t// in\n    tag_549:\n        /* \"#utility.yul\":4726:4761   */\n      swap1\n      pop\n        /* \"#utility.yul\":4671:4767   */\n      swap2\n      swap1\n      pop\n      jump\t// out\n        /* \"#utility.yul\":4773:4895   */\n    tag_416:\n        /* \"#utility.yul\":4846:4870   */\n      tag_551\n        /* \"#utility.yul\":4864:4869   */\n      dup2\n        /* \"#utility.yul\":4846:4870   */\n      tag_415\n      jump\t// in\n    tag_551:\n        /* \"#utility.yul\":4839:4844   */\n      dup2\n        /* \"#utility.yul\":4836:4871   */\n      eq\n        /* \"#utility.yul\":4826:4889   */\n      tag_552\n      jumpi\n        /* \"#utility.yul\":4885:4886   */\n      0x00\n        /* \"#utility.yul\":4882:4883   */\n      0x00\n        /* \"#utility.yul\":4875:4887   */\n      revert\n        /* \"#utility.yul\":4826:4889   */\n    tag_552:\n        /* \"#utility.yul\":4773:4895   */\n      pop\n      jump\t// out\n        /* \"#utility.yul\":4901:5040   */\n    tag_417:\n        /* \"#utility.yul\":4947:4952   */\n      0x00\n        /* \"#utility.yul\":4985:4991   */\n      dup2\n        /* \"#utility.yul\":4972:4992   */\n      calldataload\n        /* \"#utility.yul\":4963:4992   */\n      swap1\n      pop\n        /* \"#utility.yul\":5001:5034   */\n      tag_554\n        /* \"#utility.yul\":5028:5033   */\n      dup2\n        /* \"#utility.yul\":5001:5034   */\n      tag_416\n      jump\t// in\n    tag_554:\n        /* \"#utility.yul\":4901:5040   */\n      swap3\n      swap2\n      pop\n      pop\n      jump\t// out\n        /* \"#utility.yul\":5046:5375   */\n    tag_33:\n        /* \"#utility.yul\":5105:5111   */\n      0x00\n        /* \"#utility.yul\":5154:5156   */\n      0x20\n        /* \"#utility.yul\":5142:5151   */\n      dup3\n        /* \"#utility.yul\":5133:5140   */\n      dup5\n        /* \"#utility.yul\":5129:5152   */\n      sub\n        /* \"#utility.yul\":5125:5157   */\n      slt\n        /* \"#utility.yul\":5122:5241   */\n      iszero\n      tag_556\n      jumpi\n        /* \"#utility.yul\":5160:5239   */\n      tag_557\n      tag_395\n      jump\t// in\n    tag_557:\n        /* \"#utility.yul\":5122:5241   */\n    tag_556:\n        /* \"#utility.yul\":5280:5281   */\n      0x00\n        /* \"#utility.yul\":5305:5358   */\n      tag_558\n        /* \"#utility.yul\":5350:5357   */\n      dup5\n        /* \"#utility.yul\":5341:5347   */\n      dup3\n        /* \"#utility.yul\":5330:5339   */\n      dup6\n        /* \"#utility.yul\":5326:5348   */\n      add\n        /* \"#utility.yul\":5305:5358   */\n      tag_417\n      jump\t// in\n    tag_558:\n        /* \"#utility.yul\":5295:5358   */\n      swap2\n      pop\n        /* \"#utility.yul\":5251:5368   */\n      pop\n        /* \"#utility.yul\":5046:5375   */\n      swap3\n      swap2\n      pop\n      pop\n      jump\t// out\n        /* \"#utility.yul\":5381:5499   */\n    tag_418:\n        /* \"#utility.yul\":5468:5492   */\n      tag_560\n        /* \"#utility.yul\":5486:5491   */\n      dup2\n        /* \"#utility.yul\":5468:5492   */\n      tag_397\n      jump\t// in\n    tag_560:\n        /* \"#utility.yul\":5463:5466   */\n      dup3\n        /* \"#utility.yul\":5456:5493   */\n      mstore\n        /* \"#utility.yul\":5381:5499   */\n      pop\n      pop\n      jump\t// out\n        /* \"#utility.yul\":5505:5623   */\n    tag_419:\n        /* \"#utility.yul\":5592:5616   */\n      tag_562\n        /* \"#utility.yul\":5610:5615   */\n      dup2\n        /* \"#utility.yul\":5592:5616   */\n      tag_415\n      jump\t// in\n    tag_562:\n        /* \"#utility.yul\":5587:5590   */\n      dup3\n        /* \"#utility.yul\":5580:5617   */\n      mstore\n        /* \"#utility.yul\":5505:5623   */\n      pop\n      pop\n      jump\t// out\n        /* \"#utility.yul\":5629:6071   */\n    tag_36:\n        /* \"#utility.yul\":5778:5782   */\n      0x00\n        /* \"#utility.yul\":5816:5818   */\n      0x60\n        /* \"#utility.yul\":5805:5814   */\n      dup3\n        /* \"#utility.yul\":5801:5819   */\n      add\n        /* \"#utility.yul\":5793:5819   */\n      swap1\n      pop\n        /* \"#utility.yul\":5829:5900   */\n      tag_564\n        /* \"#utility.yul\":5897:5898   */\n      0x00\n        /* \"#utility.yul\":5886:5895   */\n      dup4\n        /* \"#utility.yul\":5882:5899   */\n      add\n        /* \"#utility.yul\":5873:5879   */\n      dup7\n        /* \"#utility.yul\":5829:5900   */\n      tag_418\n      jump\t// in\n    tag_564:\n        /* \"#utility.yul\":5910:5982   */\n      tag_565\n        /* \"#utility.yul\":5978:5980   */\n      0x20\n        /* \"#utility.yul\":5967:5976   */\n      dup4\n        /* \"#utility.yul\":5963:5981   */\n      add\n        /* \"#utility.yul\":5954:5960   */\n      dup6\n        /* \"#utility.yul\":5910:5982   */\n      tag_418\n      jump\t// in\n    tag_565:\n        /* \"#utility.yul\":5992:6064   */\n      tag_566\n        /* \"#utility.yul\":6060:6062   */\n      0x40\n        /* \"#utility.yul\":6049:6058   */\n      dup4\n        /* \"#utility.yul\":6045:6063   */\n      add\n        /* \"#utility.yul\":6036:6042   */\n      dup5\n        /* \"#utility.yul\":5992:6064   */\n      tag_419\n      jump\t// in\n    tag_566:\n        /* \"#utility.yul\":5629:6071   */\n      swap5\n      swap4\n      pop\n      pop\n      pop\n      pop\n      jump\t// out\n        /* \"#utility.yul\":6077:6551   */\n    tag_43:\n        /* \"#utility.yul\":6145:6151   */\n      0x00\n        /* \"#utility.yul\":6153:6159   */\n      0x00\n        /* \"#utility.yul\":6202:6204   */\n      0x40\n        /* \"#utility.yul\":6190:6199   */\n      dup4\n        /* \"#utility.yul\":6181:6188   */\n      dup6\n        /* \"#utility.yul\":6177:6200   */\n      sub\n        /* \"#utility.yul\":6173:6205   */\n      slt\n        /* \"#utility.yul\":6170:6289   */\n      iszero\n      tag_568\n      jumpi\n        /* \"#utility.yul\":6208:6287   */\n      tag_569\n      tag_395\n      jump\t// in\n    tag_569:\n        /* \"#utility.yul\":6170:6289   */\n    tag_568:\n        /* \"#utility.yul\":6328:6329   */\n      0x00\n        /* \"#utility.yul\":6353:6406   */\n      tag_570\n        /* \"#utility.yul\":6398:6405   */\n      dup6\n        /* \"#utility.yul\":6389:6395   */\n      dup3\n        /* \"#utility.yul\":6378:6387   */\n      dup7\n        /* \"#utility.yul\":6374:6396   */\n      add\n        /* \"#utility.yul\":6353:6406   */\n      tag_417\n      jump\t// in\n    tag_570:\n        /* \"#utility.yul\":6343:6406   */\n      swap3\n      pop\n        /* \"#utility.yul\":6299:6416   */\n      pop\n        /* \"#utility.yul\":6455:6457   */\n      0x20\n        /* \"#utility.yul\":6481:6534   */\n      tag_571\n        /* \"#utility.yul\":6526:6533   */\n      dup6\n        /* \"#utility.yul\":6517:6523   */\n      dup3\n        /* \"#utility.yul\":6506:6515   */\n      dup7\n        /* \"#utility.yul\":6502:6524   */\n      add\n        /* \"#utility.yul\":6481:6534   */\n      tag_417\n      jump\t// in\n    tag_571:\n        /* \"#utility.yul\":6471:6534   */\n      swap2\n      pop\n        /* \"#utility.yul\":6426:6544   */\n      pop\n        /* \"#utility.yul\":6077:6551   */\n      swap3\n      pop\n      swap3\n      swap1\n      pop\n      jump\t// out\n        /* \"#utility.yul\":6557:6864   */\n    tag_420:\n        /* \"#utility.yul\":6618:6622   */\n      0x00\n        /* \"#utility.yul\":6708:6726   */\n      0xffffffffffffffff\n        /* \"#utility.yul\":6700:6706   */\n      dup3\n        /* \"#utility.yul\":6697:6727   */\n      gt\n        /* \"#utility.yul\":6694:6750   */\n      iszero\n      tag_573\n      jumpi\n        /* \"#utility.yul\":6730:6748   */\n      tag_574\n      tag_222\n      jump\t// in\n    tag_574:\n        /* \"#utility.yul\":6694:6750   */\n    tag_573:\n        /* \"#utility.yul\":6768:6797   */\n      tag_575\n        /* \"#utility.yul\":6790:6796   */\n      dup3\n        /* \"#utility.yul\":6768:6797   */\n      tag_402\n      jump\t// in\n    tag_575:\n        /* \"#utility.yul\":6760:6797   */\n      swap1\n      pop\n        /* \"#utility.yul\":6852:6856   */\n      0x20\n        /* \"#utility.yul\":6846:6850   */\n      dup2\n        /* \"#utility.yul\":6842:6857   */\n      add\n        /* \"#utility.yul\":6834:6857   */\n      swap1\n      pop\n        /* \"#utility.yul\":6557:6864   */\n      swap2\n      swap1\n      pop\n      jump\t// out\n        /* \"#utility.yul\":6870:7293   */\n    tag_421:\n        /* \"#utility.yul\":6947:6952   */\n      0x00\n        /* \"#utility.yul\":6972:7037   */\n      tag_577\n        /* \"#utility.yul\":6988:7036   */\n      tag_578\n        /* \"#utility.yul\":7029:7035   */\n      dup5\n        /* \"#utility.yul\":6988:7036   */\n      tag_420\n      jump\t// in\n    tag_578:\n        /* \"#utility.yul\":6972:7037   */\n      tag_404\n      jump\t// in\n    tag_577:\n        /* \"#utility.yul\":6963:7037   */\n      swap1\n      pop\n        /* \"#utility.yul\":7060:7066   */\n      dup3\n        /* \"#utility.yul\":7053:7058   */\n      dup2\n        /* \"#utility.yul\":7046:7067   */\n      mstore\n        /* \"#utility.yul\":7098:7102   */\n      0x20\n        /* \"#utility.yul\":7091:7096   */\n      dup2\n        /* \"#utility.yul\":7087:7103   */\n      add\n        /* \"#utility.yul\":7136:7139   */\n      dup5\n        /* \"#utility.yul\":7127:7133   */\n      dup5\n        /* \"#utility.yul\":7122:7125   */\n      dup5\n        /* \"#utility.yul\":7118:7134   */\n      add\n        /* \"#utility.yul\":7115:7140   */\n      gt\n        /* \"#utility.yul\":7112:7224   */\n      iszero\n      tag_579\n      jumpi\n        /* \"#utility.yul\":7143:7222   */\n      tag_580\n      tag_401\n      jump\t// in\n    tag_580:\n        /* \"#utility.yul\":7112:7224   */\n    tag_579:\n        /* \"#utility.yul\":7233:7287   */\n      tag_581\n        /* \"#utility.yul\":7280:7286   */\n      dup5\n        /* \"#utility.yul\":7275:7278   */\n      dup3\n        /* \"#utility.yul\":7270:7273   */\n      dup6\n        /* \"#utility.yul\":7233:7287   */\n      tag_406\n      jump\t// in\n    tag_581:\n        /* \"#utility.yul\":6953:7293   */\n      pop\n        /* \"#utility.yul\":6870:7293   */\n      swap4\n      swap3\n      pop\n      pop\n      pop\n      jump\t// out\n        /* \"#utility.yul\":7312:7650   */\n    tag_422:\n        /* \"#utility.yul\":7367:7372   */\n      0x00\n        /* \"#utility.yul\":7416:7419   */\n      dup3\n        /* \"#utility.yul\":7409:7413   */\n      0x1f\n        /* \"#utility.yul\":7401:7407   */\n      dup4\n        /* \"#utility.yul\":7397:7414   */\n      add\n        /* \"#utility.yul\":7393:7420   */\n      slt\n        /* \"#utility.yul\":7383:7505   */\n      tag_583\n      jumpi\n        /* \"#utility.yul\":7424:7503   */\n      tag_584\n      tag_400\n      jump\t// in\n    tag_584:\n        /* \"#utility.yul\":7383:7505   */\n    tag_583:\n        /* \"#utility.yul\":7541:7547   */\n      dup2\n        /* \"#utility.yul\":7528:7548   */\n      calldataload\n        /* \"#utility.yul\":7566:7644   */\n      tag_585\n        /* \"#utility.yul\":7640:7643   */\n      dup5\n        /* \"#utility.yul\":7632:7638   */\n      dup3\n        /* \"#utility.yul\":7625:7629   */\n      0x20\n        /* \"#utility.yul\":7617:7623   */\n      dup7\n        /* \"#utility.yul\":7613:7630   */\n      add\n        /* \"#utility.yul\":7566:7644   */\n      tag_421\n      jump\t// in\n    tag_585:\n        /* \"#utility.yul\":7557:7644   */\n      swap2\n      pop\n        /* \"#utility.yul\":7373:7650   */\n      pop\n        /* \"#utility.yul\":7312:7650   */\n      swap3\n      swap2\n      pop\n      pop\n      jump\t// out\n        /* \"#utility.yul\":7656:8308   */\n    tag_47:\n        /* \"#utility.yul\":7733:7739   */\n      0x00\n        /* \"#utility.yul\":7741:7747   */\n      0x00\n        /* \"#utility.yul\":7790:7792   */\n      0x40\n        /* \"#utility.yul\":7778:7787   */\n      dup4\n        /* \"#utility.yul\":7769:7776   */\n      dup6\n        /* \"#utility.yul\":7765:7788   */\n      sub\n        /* \"#utility.yul\":7761:7793   */\n      slt\n        /* \"#utility.yul\":7758:7877   */\n      iszero\n      tag_587\n      jumpi\n        /* \"#utility.yul\":7796:7875   */\n      tag_588\n      tag_395\n      jump\t// in\n    tag_588:\n        /* \"#utility.yul\":7758:7877   */\n    tag_587:\n        /* \"#utility.yul\":7916:7917   */\n      0x00\n        /* \"#utility.yul\":7941:7994   */\n      tag_589\n        /* \"#utility.yul\":7986:7993   */\n      dup6\n        /* \"#utility.yul\":7977:7983   */\n      dup3\n        /* \"#utility.yul\":7966:7975   */\n      dup7\n        /* \"#utility.yul\":7962:7984   */\n      add\n        /* \"#utility.yul\":7941:7994   */\n      tag_417\n      jump\t// in\n    tag_589:\n        /* \"#utility.yul\":7931:7994   */\n      swap3\n      pop\n        /* \"#utility.yul\":7887:8004   */\n      pop\n        /* \"#utility.yul\":8071:8073   */\n      0x20\n        /* \"#utility.yul\":8060:8069   */\n      dup4\n        /* \"#utility.yul\":8056:8074   */\n      add\n        /* \"#utility.yul\":8043:8075   */\n      calldataload\n        /* \"#utility.yul\":8102:8120   */\n      0xffffffffffffffff\n        /* \"#utility.yul\":8094:8100   */\n      dup2\n        /* \"#utility.yul\":8091:8121   */\n      gt\n        /* \"#utility.yul\":8088:8205   */\n      iszero\n      tag_590\n      jumpi\n        /* \"#utility.yul\":8124:8203   */\n      tag_591\n      tag_396\n      jump\t// in\n    tag_591:\n        /* \"#utility.yul\":8088:8205   */\n    tag_590:\n        /* \"#utility.yul\":8229:8291   */\n      tag_592\n        /* \"#utility.yul\":8283:8290   */\n      dup6\n        /* \"#utility.yul\":8274:8280   */\n      dup3\n        /* \"#utility.yul\":8263:8272   */\n      dup7\n        /* \"#utility.yul\":8259:8281   */\n      add\n        /* \"#utility.yul\":8229:8291   */\n      tag_422\n      jump\t// in\n    tag_592:\n        /* \"#utility.yul\":8219:8291   */\n      swap2\n      pop\n        /* \"#utility.yul\":8014:8301   */\n      pop\n        /* \"#utility.yul\":7656:8308   */\n      swap3\n      pop\n      swap3\n      swap1\n      pop\n      jump\t// out\n        /* \"#utility.yul\":8314:8391   */\n    tag_423:\n        /* \"#utility.yul\":8351:8358   */\n      0x00\n        /* \"#utility.yul\":8380:8385   */\n      dup2\n        /* \"#utility.yul\":8369:8385   */\n      swap1\n      pop\n        /* \"#utility.yul\":8314:8391   */\n      swap2\n      swap1\n      pop\n      jump\t// out\n        /* \"#utility.yul\":8397:8515   */\n    tag_424:\n        /* \"#utility.yul\":8484:8508   */\n      tag_595\n        /* \"#utility.yul\":8502:8507   */\n      dup2\n        /* \"#utility.yul\":8484:8508   */\n      tag_423\n      jump\t// in\n    tag_595:\n        /* \"#utility.yul\":8479:8482   */\n      dup3\n        /* \"#utility.yul\":8472:8509   */\n      mstore\n        /* \"#utility.yul\":8397:8515   */\n      pop\n      pop\n      jump\t// out\n        /* \"#utility.yul\":8521:8743   */\n    tag_53:\n        /* \"#utility.yul\":8614:8618   */\n      0x00\n        /* \"#utility.yul\":8652:8654   */\n      0x20\n        /* \"#utility.yul\":8641:8650   */\n      dup3\n        /* \"#utility.yul\":8637:8655   */\n      add\n        /* \"#utility.yul\":8629:8655   */\n      swap1\n      pop\n        /* \"#utility.yul\":8665:8736   */\n      tag_597\n        /* \"#utility.yul\":8733:8734   */\n      0x00\n        /* \"#utility.yul\":8722:8731   */\n      dup4\n        /* \"#utility.yul\":8718:8735   */\n      add\n        /* \"#utility.yul\":8709:8715   */\n      dup5\n        /* \"#utility.yul\":8665:8736   */\n      tag_424\n      jump\t// in\n    tag_597:\n        /* \"#utility.yul\":8521:8743   */\n      swap3\n      swap2\n      pop\n      pop\n      jump\t// out\n        /* \"#utility.yul\":8749:8848   */\n    tag_425:\n        /* \"#utility.yul\":8801:8807   */\n      0x00\n        /* \"#utility.yul\":8835:8840   */\n      dup2\n        /* \"#utility.yul\":8829:8841   */\n      mload\n        /* \"#utility.yul\":8819:8841   */\n      swap1\n      pop\n        /* \"#utility.yul\":8749:8848   */\n      swap2\n      swap1\n      pop\n      jump\t// out\n        /* \"#utility.yul\":8854:9023   */\n    tag_426:\n        /* \"#utility.yul\":8938:8949   */\n      0x00\n        /* \"#utility.yul\":8972:8978   */\n      dup3\n        /* \"#utility.yul\":8967:8970   */\n      dup3\n        /* \"#utility.yul\":8960:8979   */\n      mstore\n        /* \"#utility.yul\":9012:9016   */\n      0x20\n        /* \"#utility.yul\":9007:9010   */\n      dup3\n        /* \"#utility.yul\":9003:9017   */\n      add\n        /* \"#utility.yul\":8988:9017   */\n      swap1\n      pop\n        /* \"#utility.yul\":8854:9023   */\n      swap3\n      swap2\n      pop\n      pop\n      jump\t// out\n        /* \"#utility.yul\":9029:9168   */\n    tag_427:\n        /* \"#utility.yul\":9118:9124   */\n      dup3\n        /* \"#utility.yul\":9113:9116   */\n      dup2\n        /* \"#utility.yul\":9108:9111   */\n      dup4\n        /* \"#utility.yul\":9102:9125   */\n      mcopy\n        /* \"#utility.yul\":9159:9160   */\n      0x00\n        /* \"#utility.yul\":9150:9156   */\n      dup4\n        /* \"#utility.yul\":9145:9148   */\n      dup4\n        /* \"#utility.yul\":9141:9157   */\n      add\n        /* \"#utility.yul\":9134:9161   */\n      mstore\n        /* \"#utility.yul\":9029:9168   */\n      pop\n      pop\n      pop\n      jump\t// out\n        /* \"#utility.yul\":9174:9551   */\n    tag_428:\n        /* \"#utility.yul\":9262:9265   */\n      0x00\n        /* \"#utility.yul\":9290:9329   */\n      tag_602\n        /* \"#utility.yul\":9323:9328   */\n      dup3\n        /* \"#utility.yul\":9290:9329   */\n      tag_425\n      jump\t// in\n    tag_602:\n        /* \"#utility.yul\":9345:9416   */\n      tag_603\n        /* \"#utility.yul\":9409:9415   */\n      dup2\n        /* \"#utility.yul\":9404:9407   */\n      dup6\n        /* \"#utility.yul\":9345:9416   */\n      tag_426\n      jump\t// in\n    tag_603:\n        /* \"#utility.yul\":9338:9416   */\n      swap4\n      pop\n        /* \"#utility.yul\":9425:9490   */\n      tag_604\n        /* \"#utility.yul\":9483:9489   */\n      dup2\n        /* \"#utility.yul\":9478:9481   */\n      dup6\n        /* \"#utility.yul\":9471:9475   */\n      0x20\n        /* \"#utility.yul\":9464:9469   */\n      dup7\n        /* \"#utility.yul\":9460:9476   */\n      add\n        /* \"#utility.yul\":9425:9490   */\n      tag_427\n      jump\t// in\n    tag_604:\n        /* \"#utility.yul\":9515:9544   */\n      tag_605\n        /* \"#utility.yul\":9537:9543   */\n      dup2\n        /* \"#utility.yul\":9515:9544   */\n      tag_402\n      jump\t// in\n    tag_605:\n        /* \"#utility.yul\":9510:9513   */\n      dup5\n        /* \"#utility.yul\":9506:9545   */\n      add\n        /* \"#utility.yul\":9499:9545   */\n      swap2\n      pop\n        /* \"#utility.yul\":9266:9551   */\n      pop\n        /* \"#utility.yul\":9174:9551   */\n      swap3\n      swap2\n      pop\n      pop\n      jump\t// out\n        /* \"#utility.yul\":9557:9870   */\n    tag_61:\n        /* \"#utility.yul\":9670:9674   */\n      0x00\n        /* \"#utility.yul\":9708:9710   */\n      0x20\n        /* \"#utility.yul\":9697:9706   */\n      dup3\n        /* \"#utility.yul\":9693:9711   */\n      add\n        /* \"#utility.yul\":9685:9711   */\n      swap1\n      pop\n        /* \"#utility.yul\":9757:9766   */\n      dup2\n        /* \"#utility.yul\":9751:9755   */\n      dup2\n        /* \"#utility.yul\":9747:9767   */\n      sub\n        /* \"#utility.yul\":9743:9744   */\n      0x00\n        /* \"#utility.yul\":9732:9741   */\n      dup4\n        /* \"#utility.yul\":9728:9745   */\n      add\n        /* \"#utility.yul\":9721:9768   */\n      mstore\n        /* \"#utility.yul\":9785:9863   */\n      tag_607\n        /* \"#utility.yul\":9858:9862   */\n      dup2\n        /* \"#utility.yul\":9849:9855   */\n      dup5\n        /* \"#utility.yul\":9785:9863   */\n      tag_428\n      jump\t// in\n    tag_607:\n        /* \"#utility.yul\":9777:9863   */\n      swap1\n      pop\n        /* \"#utility.yul\":9557:9870   */\n      swap3\n      swap2\n      pop\n      pop\n      jump\t// out\n        /* \"#utility.yul\":9876:10098   */\n    tag_66:\n        /* \"#utility.yul\":9969:9973   */\n      0x00\n        /* \"#utility.yul\":10007:10009   */\n      0x20\n        /* \"#utility.yul\":9996:10005   */\n      dup3\n        /* \"#utility.yul\":9992:10010   */\n      add\n        /* \"#utility.yul\":9984:10010   */\n      swap1\n      pop\n        /* \"#utility.yul\":10020:10091   */\n      tag_609\n        /* \"#utility.yul\":10088:10089   */\n      0x00\n        /* \"#utility.yul\":10077:10086   */\n      dup4\n        /* \"#utility.yul\":10073:10090   */\n      add\n        /* \"#utility.yul\":10064:10070   */\n      dup5\n        /* \"#utility.yul\":10020:10091   */\n      tag_419\n      jump\t// in\n    tag_609:\n        /* \"#utility.yul\":9876:10098   */\n      swap3\n      swap2\n      pop\n      pop\n      jump\t// out\n        /* \"#utility.yul\":10104:10251   */\n    tag_429:\n        /* \"#utility.yul\":10175:10184   */\n      0x00\n        /* \"#utility.yul\":10208:10245   */\n      tag_611\n        /* \"#utility.yul\":10239:10244   */\n      dup3\n        /* \"#utility.yul\":10208:10245   */\n      tag_412\n      jump\t// in\n    tag_611:\n        /* \"#utility.yul\":10195:10245   */\n      swap1\n      pop\n        /* \"#utility.yul\":10104:10251   */\n      swap2\n      swap1\n      pop\n      jump\t// out\n        /* \"#utility.yul\":10257:10430   */\n    tag_430:\n        /* \"#utility.yul\":10365:10423   */\n      tag_613\n        /* \"#utility.yul\":10417:10422   */\n      dup2\n        /* \"#utility.yul\":10365:10423   */\n      tag_429\n      jump\t// in\n    tag_613:\n        /* \"#utility.yul\":10360:10363   */\n      dup3\n        /* \"#utility.yul\":10353:10424   */\n      mstore\n        /* \"#utility.yul\":10257:10430   */\n      pop\n      pop\n      jump\t// out\n        /* \"#utility.yul\":10436:10700   */\n    tag_71:\n        /* \"#utility.yul\":10550:10554   */\n      0x00\n        /* \"#utility.yul\":10588:10590   */\n      0x20\n        /* \"#utility.yul\":10577:10586   */\n      dup3\n        /* \"#utility.yul\":10573:10591   */\n      add\n        /* \"#utility.yul\":10565:10591   */\n      swap1\n      pop\n        /* \"#utility.yul\":10601:10693   */\n      tag_615\n        /* \"#utility.yul\":10690:10691   */\n      0x00\n        /* \"#utility.yul\":10679:10688   */\n      dup4\n        /* \"#utility.yul\":10675:10692   */\n      add\n        /* \"#utility.yul\":10666:10672   */\n      dup5\n        /* \"#utility.yul\":10601:10693   */\n      tag_430\n      jump\t// in\n    tag_615:\n        /* \"#utility.yul\":10436:10700   */\n      swap3\n      swap2\n      pop\n      pop\n      jump\t// out\n        /* \"#utility.yul\":10706:11215   */\n    tag_75:\n        /* \"#utility.yul\":10775:10781   */\n      0x00\n        /* \"#utility.yul\":10824:10826   */\n      0x20\n        /* \"#utility.yul\":10812:10821   */\n      dup3\n        /* \"#utility.yul\":10803:10810   */\n      dup5\n        /* \"#utility.yul\":10799:10822   */\n      sub\n        /* \"#utility.yul\":10795:10827   */\n      slt\n        /* \"#utility.yul\":10792:10911   */\n      iszero\n      tag_617\n      jumpi\n        /* \"#utility.yul\":10830:10909   */\n      tag_618\n      tag_395\n      jump\t// in\n    tag_618:\n        /* \"#utility.yul\":10792:10911   */\n    tag_617:\n        /* \"#utility.yul\":10978:10979   */\n      0x00\n        /* \"#utility.yul\":10967:10976   */\n      dup3\n        /* \"#utility.yul\":10963:10980   */\n      add\n        /* \"#utility.yul\":10950:10981   */\n      calldataload\n        /* \"#utility.yul\":11008:11026   */\n      0xffffffffffffffff\n        /* \"#utility.yul\":11000:11006   */\n      dup2\n        /* \"#utility.yul\":10997:11027   */\n      gt\n        /* \"#utility.yul\":10994:11111   */\n      iszero\n      tag_619\n      jumpi\n        /* \"#utility.yul\":11030:11109   */\n      tag_620\n      tag_396\n      jump\t// in\n    tag_620:\n        /* \"#utility.yul\":10994:11111   */\n    tag_619:\n        /* \"#utility.yul\":11135:11198   */\n      tag_621\n        /* \"#utility.yul\":11190:11197   */\n      dup5\n        /* \"#utility.yul\":11181:11187   */\n      dup3\n        /* \"#utility.yul\":11170:11179   */\n      dup6\n        /* \"#utility.yul\":11166:11188   */\n      add\n        /* \"#utility.yul\":11135:11198   */\n      tag_408\n      jump\t// in\n    tag_621:\n        /* \"#utility.yul\":11125:11198   */\n      swap2\n      pop\n        /* \"#utility.yul\":10921:11208   */\n      pop\n        /* \"#utility.yul\":10706:11215   */\n      swap3\n      swap2\n      pop\n      pop\n      jump\t// out\n        /* \"#utility.yul\":11221:11397   */\n    tag_431:\n        /* \"#utility.yul\":11361:11389   */\n      0x5a61704170793a20416d6f756e74206d757374206265203e2030000000000000\n        /* \"#utility.yul\":11357:11358   */\n      0x00\n        /* \"#utility.yul\":11349:11355   */\n      dup3\n        /* \"#utility.yul\":11345:11359   */\n      add\n        /* \"#utility.yul\":11338:11390   */\n      mstore\n        /* \"#utility.yul\":11221:11397   */\n      pop\n      jump\t// out\n        /* \"#utility.yul\":11403:11769   */\n    tag_432:\n        /* \"#utility.yul\":11545:11548   */\n      0x00\n        /* \"#utility.yul\":11566:11633   */\n      tag_624\n        /* \"#utility.yul\":11630:11632   */\n      0x1a\n        /* \"#utility.yul\":11625:11628   */\n      dup4\n        /* \"#utility.yul\":11566:11633   */\n      tag_426\n      jump\t// in\n    tag_624:\n        /* \"#utility.yul\":11559:11633   */\n      swap2\n      pop\n        /* \"#utility.yul\":11642:11735   */\n      tag_625\n        /* \"#utility.yul\":11731:11734   */\n      dup3\n        /* \"#utility.yul\":11642:11735   */\n      tag_431\n      jump\t// in\n    tag_625:\n        /* \"#utility.yul\":11760:11762   */\n      0x20\n        /* \"#utility.yul\":11755:11758   */\n      dup3\n        /* \"#utility.yul\":11751:11763   */\n      add\n        /* \"#utility.yul\":11744:11763   */\n      swap1\n      pop\n        /* \"#utility.yul\":11403:11769   */\n      swap2\n      swap1\n      pop\n      jump\t// out\n        /* \"#utility.yul\":11775:12194   */\n    tag_97:\n        /* \"#utility.yul\":11941:11945   */\n      0x00\n        /* \"#utility.yul\":11979:11981   */\n      0x20\n        /* \"#utility.yul\":11968:11977   */\n      dup3\n        /* \"#utility.yul\":11964:11982   */\n      add\n        /* \"#utility.yul\":11956:11982   */\n      swap1\n      pop\n        /* \"#utility.yul\":12028:12037   */\n      dup2\n        /* \"#utility.yul\":12022:12026   */\n      dup2\n        /* \"#utility.yul\":12018:12038   */\n      sub\n        /* \"#utility.yul\":12014:12015   */\n      0x00\n        /* \"#utility.yul\":12003:12012   */\n      dup4\n        /* \"#utility.yul\":11999:12016   */\n      add\n        /* \"#utility.yul\":11992:12039   */\n      mstore\n        /* \"#utility.yul\":12056:12187   */\n      tag_627\n        /* \"#utility.yul\":12182:12186   */\n      dup2\n        /* \"#utility.yul\":12056:12187   */\n      tag_432\n      jump\t// in\n    tag_627:\n        /* \"#utility.yul\":12048:12187   */\n      swap1\n      pop\n        /* \"#utility.yul\":11775:12194   */\n      swap2\n      swap1\n      pop\n      jump\t// out\n        /* \"#utility.yul\":12200:12420   */\n    tag_433:\n        /* \"#utility.yul\":12340:12374   */\n      0x5a61704170793a20526566657272616c20436f64652069732052455155495245\n        /* \"#utility.yul\":12336:12337   */\n      0x00\n        /* \"#utility.yul\":12328:12334   */\n      dup3\n        /* \"#utility.yul\":12324:12338   */\n      add\n        /* \"#utility.yul\":12317:12375   */\n      mstore\n        /* \"#utility.yul\":12409:12412   */\n      0x4400000000000000000000000000000000000000000000000000000000000000\n        /* \"#utility.yul\":12404:12406   */\n      0x20\n        /* \"#utility.yul\":12396:12402   */\n      dup3\n        /* \"#utility.yul\":12392:12407   */\n      add\n        /* \"#utility.yul\":12385:12413   */\n      mstore\n        /* \"#utility.yul\":12200:12420   */\n      pop\n      jump\t// out\n        /* \"#utility.yul\":12426:12792   */\n    tag_434:\n        /* \"#utility.yul\":12568:12571   */\n      0x00\n        /* \"#utility.yul\":12589:12656   */\n      tag_630\n        /* \"#utility.yul\":12653:12655   */\n      0x21\n        /* \"#utility.yul\":12648:12651   */\n      dup4\n        /* \"#utility.yul\":12589:12656   */\n      tag_426\n      jump\t// in\n    tag_630:\n        /* \"#utility.yul\":12582:12656   */\n      swap2\n      pop\n        /* \"#utility.yul\":12665:12758   */\n      tag_631\n        /* \"#utility.yul\":12754:12757   */\n      dup3\n        /* \"#utility.yul\":12665:12758   */\n      tag_433\n      jump\t// in\n    tag_631:\n        /* \"#utility.yul\":12783:12785   */\n      0x40\n        /* \"#utility.yul\":12778:12781   */\n      dup3\n        /* \"#utility.yul\":12774:12786   */\n      add\n        /* \"#utility.yul\":12767:12786   */\n      swap1\n      pop\n        /* \"#utility.yul\":12426:12792   */\n      swap2\n      swap1\n      pop\n      jump\t// out\n        /* \"#utility.yul\":12798:13217   */\n    tag_100:\n        /* \"#utility.yul\":12964:12968   */\n      0x00\n        /* \"#utility.yul\":13002:13004   */\n      0x20\n        /* \"#utility.yul\":12991:13000   */\n      dup3\n        /* \"#utility.yul\":12987:13005   */\n      add\n        /* \"#utility.yul\":12979:13005   */\n      swap1\n      pop\n        /* \"#utility.yul\":13051:13060   */\n      dup2\n        /* \"#utility.yul\":13045:13049   */\n      dup2\n        /* \"#utility.yul\":13041:13061   */\n      sub\n        /* \"#utility.yul\":13037:13038   */\n      0x00\n        /* \"#utility.yul\":13026:13035   */\n      dup4\n        /* \"#utility.yul\":13022:13039   */\n      add\n        /* \"#utility.yul\":13015:13062   */\n      mstore\n        /* \"#utility.yul\":13079:13210   */\n      tag_633\n        /* \"#utility.yul\":13205:13209   */\n      dup2\n        /* \"#utility.yul\":13079:13210   */\n      tag_434\n      jump\t// in\n    tag_633:\n        /* \"#utility.yul\":13071:13210   */\n      swap1\n      pop\n        /* \"#utility.yul\":12798:13217   */\n      swap2\n      swap1\n      pop\n      jump\t// out\n        /* \"#utility.yul\":13223:13371   */\n    tag_435:\n        /* \"#utility.yul\":13325:13336   */\n      0x00\n        /* \"#utility.yul\":13362:13365   */\n      dup2\n        /* \"#utility.yul\":13347:13365   */\n      swap1\n      pop\n        /* \"#utility.yul\":13223:13371   */\n      swap3\n      swap2\n      pop\n      pop\n      jump\t// out\n        /* \"#utility.yul\":13377:13767   */\n    tag_436:\n        /* \"#utility.yul\":13483:13486   */\n      0x00\n        /* \"#utility.yul\":13511:13550   */\n      tag_636\n        /* \"#utility.yul\":13544:13549   */\n      dup3\n        /* \"#utility.yul\":13511:13550   */\n      tag_425\n      jump\t// in\n    tag_636:\n        /* \"#utility.yul\":13566:13655   */\n      tag_637\n        /* \"#utility.yul\":13648:13654   */\n      dup2\n        /* \"#utility.yul\":13643:13646   */\n      dup6\n        /* \"#utility.yul\":13566:13655   */\n      tag_435\n      jump\t// in\n    tag_637:\n        /* \"#utility.yul\":13559:13655   */\n      swap4\n      pop\n        /* \"#utility.yul\":13664:13729   */\n      tag_638\n        /* \"#utility.yul\":13722:13728   */\n      dup2\n        /* \"#utility.yul\":13717:13720   */\n      dup6\n        /* \"#utility.yul\":13710:13714   */\n      0x20\n        /* \"#utility.yul\":13703:13708   */\n      dup7\n        /* \"#utility.yul\":13699:13715   */\n      add\n        /* \"#utility.yul\":13664:13729   */\n      tag_427\n      jump\t// in\n    tag_638:\n        /* \"#utility.yul\":13754:13760   */\n      dup1\n        /* \"#utility.yul\":13749:13752   */\n      dup5\n        /* \"#utility.yul\":13745:13761   */\n      add\n        /* \"#utility.yul\":13738:13761   */\n      swap2\n      pop\n        /* \"#utility.yul\":13487:13767   */\n      pop\n        /* \"#utility.yul\":13377:13767   */\n      swap3\n      swap2\n      pop\n      pop\n      jump\t// out\n        /* \"#utility.yul\":13773:14048   */\n    tag_102:\n        /* \"#utility.yul\":13905:13908   */\n      0x00\n        /* \"#utility.yul\":13927:14022   */\n      tag_640\n        /* \"#utility.yul\":14018:14021   */\n      dup3\n        /* \"#utility.yul\":14009:14015   */\n      dup5\n        /* \"#utility.yul\":13927:14022   */\n      tag_436\n      jump\t// in\n    tag_640:\n        /* \"#utility.yul\":13920:14022   */\n      swap2\n      pop\n        /* \"#utility.yul\":14039:14042   */\n      dup2\n        /* \"#utility.yul\":14032:14042   */\n      swap1\n      pop\n        /* \"#utility.yul\":13773:14048   */\n      swap3\n      swap2\n      pop\n      pop\n      jump\t// out\n        /* \"#utility.yul\":14054:14233   */\n    tag_437:\n        /* \"#utility.yul\":14194:14225   */\n      0x5a61704170793a20496e76616c696420526566657272616c20436f6465000000\n        /* \"#utility.yul\":14190:14191   */\n      0x00\n        /* \"#utility.yul\":14182:14188   */\n      dup3\n        /* \"#utility.yul\":14178:14192   */\n      add\n        /* \"#utility.yul\":14171:14226   */\n      mstore\n        /* \"#utility.yul\":14054:14233   */\n      pop\n      jump\t// out\n        /* \"#utility.yul\":14239:14605   */\n    tag_438:\n        /* \"#utility.yul\":14381:14384   */\n      0x00\n        /* \"#utility.yul\":14402:14469   */\n      tag_643\n        /* \"#utility.yul\":14466:14468   */\n      0x1d\n        /* \"#utility.yul\":14461:14464   */\n      dup4\n        /* \"#utility.yul\":14402:14469   */\n      tag_426\n      jump\t// in\n    tag_643:\n        /* \"#utility.yul\":14395:14469   */\n      swap2\n      pop\n        /* \"#utility.yul\":14478:14571   */\n      tag_644\n        /* \"#utility.yul\":14567:14570   */\n      dup3\n        /* \"#utility.yul\":14478:14571   */\n      tag_437\n      jump\t// in\n    tag_644:\n        /* \"#utility.yul\":14596:14598   */\n      0x20\n        /* \"#utility.yul\":14591:14594   */\n      dup3\n        /* \"#utility.yul\":14587:14599   */\n      add\n        /* \"#utility.yul\":14580:14599   */\n      swap1\n      pop\n        /* \"#utility.yul\":14239:14605   */\n      swap2\n      swap1\n      pop\n      jump\t// out\n        /* \"#utility.yul\":14611:15030   */\n    tag_105:\n        /* \"#utility.yul\":14777:14781   */\n      0x00\n        /* \"#utility.yul\":14815:14817   */\n      0x20\n        /* \"#utility.yul\":14804:14813   */\n      dup3\n        /* \"#utility.yul\":14800:14818   */\n      add\n        /* \"#utility.yul\":14792:14818   */\n      swap1\n      pop\n        /* \"#utility.yul\":14864:14873   */\n      dup2\n        /* \"#utility.yul\":14858:14862   */\n      dup2\n        /* \"#utility.yul\":14854:14874   */\n      sub\n        /* \"#utility.yul\":14850:14851   */\n      0x00\n        /* \"#utility.yul\":14839:14848   */\n      dup4\n        /* \"#utility.yul\":14835:14852   */\n      add\n        /* \"#utility.yul\":14828:14875   */\n      mstore\n        /* \"#utility.yul\":14892:15023   */\n      tag_646\n        /* \"#utility.yul\":15018:15022   */\n      dup2\n        /* \"#utility.yul\":14892:15023   */\n      tag_438\n      jump\t// in\n    tag_646:\n        /* \"#utility.yul\":14884:15023   */\n      swap1\n      pop\n        /* \"#utility.yul\":14611:15030   */\n      swap2\n      swap1\n      pop\n      jump\t// out\n        /* \"#utility.yul\":15036:15215   */\n    tag_439:\n        /* \"#utility.yul\":15176:15207   */\n      0x5a61704170793a2043616e6e6f7420726566657220796f757273656c66000000\n        /* \"#utility.yul\":15172:15173   */\n      0x00\n        /* \"#utility.yul\":15164:15170   */\n      dup3\n        /* \"#utility.yul\":15160:15174   */\n      add\n        /* \"#utility.yul\":15153:15208   */\n      mstore\n        /* \"#utility.yul\":15036:15215   */\n      pop\n      jump\t// out\n        /* \"#utility.yul\":15221:15587   */\n    tag_440:\n        /* \"#utility.yul\":15363:15366   */\n      0x00\n        /* \"#utility.yul\":15384:15451   */\n      tag_649\n        /* \"#utility.yul\":15448:15450   */\n      0x1d\n        /* \"#utility.yul\":15443:15446   */\n      dup4\n        /* \"#utility.yul\":15384:15451   */\n      tag_426\n      jump\t// in\n    tag_649:\n        /* \"#utility.yul\":15377:15451   */\n      swap2\n      pop\n        /* \"#utility.yul\":15460:15553   */\n      tag_650\n        /* \"#utility.yul\":15549:15552   */\n      dup3\n        /* \"#utility.yul\":15460:15553   */\n      tag_439\n      jump\t// in\n    tag_650:\n        /* \"#utility.yul\":15578:15580   */\n      0x20\n        /* \"#utility.yul\":15573:15576   */\n      dup3\n        /* \"#utility.yul\":15569:15581   */\n      add\n        /* \"#utility.yul\":15562:15581   */\n      swap1\n      pop\n        /* \"#utility.yul\":15221:15587   */\n      swap2\n      swap1\n      pop\n      jump\t// out\n        /* \"#utility.yul\":15593:16012   */\n    tag_108:\n        /* \"#utility.yul\":15759:15763   */\n      0x00\n        /* \"#utility.yul\":15797:15799   */\n      0x20\n        /* \"#utility.yul\":15786:15795   */\n      dup3\n        /* \"#utility.yul\":15782:15800   */\n      add\n        /* \"#utility.yul\":15774:15800   */\n      swap1\n      pop\n        /* \"#utility.yul\":15846:15855   */\n      dup2\n        /* \"#utility.yul\":15840:15844   */\n      dup2\n        /* \"#utility.yul\":15836:15856   */\n      sub\n        /* \"#utility.yul\":15832:15833   */\n      0x00\n        /* \"#utility.yul\":15821:15830   */\n      dup4\n        /* \"#utility.yul\":15817:15834   */\n      add\n        /* \"#utility.yul\":15810:15857   */\n      mstore\n        /* \"#utility.yul\":15874:16005   */\n      tag_652\n        /* \"#utility.yul\":16000:16004   */\n      dup2\n        /* \"#utility.yul\":15874:16005   */\n      tag_440\n      jump\t// in\n    tag_652:\n        /* \"#utility.yul\":15866:16005   */\n      swap1\n      pop\n        /* \"#utility.yul\":15593:16012   */\n      swap2\n      swap1\n      pop\n      jump\t// out\n        /* \"#utility.yul\":16018:16198   */\n    tag_441:\n        /* \"#utility.yul\":16066:16143   */\n      0x4e487b7100000000000000000000000000000000000000000000000000000000\n        /* \"#utility.yul\":16063:16064   */\n      0x00\n        /* \"#utility.yul\":16056:16144   */\n      mstore\n        /* \"#utility.yul\":16163:16167   */\n      0x11\n        /* \"#utility.yul\":16160:16161   */\n      0x04\n        /* \"#utility.yul\":16153:16168   */\n      mstore\n        /* \"#utility.yul\":16187:16191   */\n      0x24\n        /* \"#utility.yul\":16184:16185   */\n      0x00\n        /* \"#utility.yul\":16177:16192   */\n      revert\n        /* \"#utility.yul\":16204:16395   */\n    tag_111:\n        /* \"#utility.yul\":16244:16247   */\n      0x00\n        /* \"#utility.yul\":16263:16283   */\n      tag_655\n        /* \"#utility.yul\":16281:16282   */\n      dup3\n        /* \"#utility.yul\":16263:16283   */\n      tag_397\n      jump\t// in\n    tag_655:\n        /* \"#utility.yul\":16258:16283   */\n      swap2\n      pop\n        /* \"#utility.yul\":16297:16317   */\n      tag_656\n        /* \"#utility.yul\":16315:16316   */\n      dup4\n        /* \"#utility.yul\":16297:16317   */\n      tag_397\n      jump\t// in\n    tag_656:\n        /* \"#utility.yul\":16292:16317   */\n      swap3\n      pop\n        /* \"#utility.yul\":16340:16341   */\n      dup3\n        /* \"#utility.yul\":16337:16338   */\n      dup3\n        /* \"#utility.yul\":16333:16342   */\n      add\n        /* \"#utility.yul\":16326:16342   */\n      swap1\n      pop\n        /* \"#utility.yul\":16361:16364   */\n      dup1\n        /* \"#utility.yul\":16358:16359   */\n      dup3\n        /* \"#utility.yul\":16355:16365   */\n      gt\n        /* \"#utility.yul\":16352:16388   */\n      iszero\n      tag_657\n      jumpi\n        /* \"#utility.yul\":16368:16386   */\n      tag_658\n      tag_441\n      jump\t// in\n    tag_658:\n        /* \"#utility.yul\":16352:16388   */\n    tag_657:\n        /* \"#utility.yul\":16204:16395   */\n      swap3\n      swap2\n      pop\n      pop\n      jump\t// out\n        /* \"#utility.yul\":16401:16733   */\n    tag_117:\n        /* \"#utility.yul\":16522:16526   */\n      0x00\n        /* \"#utility.yul\":16560:16562   */\n      0x40\n        /* \"#utility.yul\":16549:16558   */\n      dup3\n        /* \"#utility.yul\":16545:16563   */\n      add\n        /* \"#utility.yul\":16537:16563   */\n      swap1\n      pop\n        /* \"#utility.yul\":16573:16644   */\n      tag_660\n        /* \"#utility.yul\":16641:16642   */\n      0x00\n        /* \"#utility.yul\":16630:16639   */\n      dup4\n        /* \"#utility.yul\":16626:16643   */\n      add\n        /* \"#utility.yul\":16617:16623   */\n      dup6\n        /* \"#utility.yul\":16573:16644   */\n      tag_418\n      jump\t// in\n    tag_660:\n        /* \"#utility.yul\":16654:16726   */\n      tag_661\n        /* \"#utility.yul\":16722:16724   */\n      0x20\n        /* \"#utility.yul\":16711:16720   */\n      dup4\n        /* \"#utility.yul\":16707:16725   */\n      add\n        /* \"#utility.yul\":16698:16704   */\n      dup5\n        /* \"#utility.yul\":16654:16726   */\n      tag_419\n      jump\t// in\n    tag_661:\n        /* \"#utility.yul\":16401:16733   */\n      swap4\n      swap3\n      pop\n      pop\n      pop\n      jump\t// out\n        /* \"#utility.yul\":16739:16882   */\n    tag_442:\n        /* \"#utility.yul\":16796:16801   */\n      0x00\n        /* \"#utility.yul\":16827:16833   */\n      dup2\n        /* \"#utility.yul\":16821:16834   */\n      mload\n        /* \"#utility.yul\":16812:16834   */\n      swap1\n      pop\n        /* \"#utility.yul\":16843:16876   */\n      tag_663\n        /* \"#utility.yul\":16870:16875   */\n      dup2\n        /* \"#utility.yul\":16843:16876   */\n      tag_398\n      jump\t// in\n    tag_663:\n        /* \"#utility.yul\":16739:16882   */\n      swap3\n      swap2\n      pop\n      pop\n      jump\t// out\n        /* \"#utility.yul\":16888:17239   */\n    tag_121:\n        /* \"#utility.yul\":16958:16964   */\n      0x00\n        /* \"#utility.yul\":17007:17009   */\n      0x20\n        /* \"#utility.yul\":16995:17004   */\n      dup3\n        /* \"#utility.yul\":16986:16993   */\n      dup5\n        /* \"#utility.yul\":16982:17005   */\n      sub\n        /* \"#utility.yul\":16978:17010   */\n      slt\n        /* \"#utility.yul\":16975:17094   */\n      iszero\n      tag_665\n      jumpi\n        /* \"#utility.yul\":17013:17092   */\n      tag_666\n      tag_395\n      jump\t// in\n    tag_666:\n        /* \"#utility.yul\":16975:17094   */\n    tag_665:\n        /* \"#utility.yul\":17133:17134   */\n      0x00\n        /* \"#utility.yul\":17158:17222   */\n      tag_667\n        /* \"#utility.yul\":17214:17221   */\n      dup5\n        /* \"#utility.yul\":17205:17211   */\n      dup3\n        /* \"#utility.yul\":17194:17203   */\n      dup6\n        /* \"#utility.yul\":17190:17212   */\n      add\n        /* \"#utility.yul\":17158:17222   */\n      tag_442\n      jump\t// in\n    tag_667:\n        /* \"#utility.yul\":17148:17222   */\n      swap2\n      pop\n        /* \"#utility.yul\":17104:17232   */\n      pop\n        /* \"#utility.yul\":16888:17239   */\n      swap3\n      swap2\n      pop\n      pop\n      jump\t// out\n        /* \"#utility.yul\":17245:17668   */\n    tag_123:\n        /* \"#utility.yul\":17386:17390   */\n      0x00\n        /* \"#utility.yul\":17424:17426   */\n      0x40\n        /* \"#utility.yul\":17413:17422   */\n      dup3\n        /* \"#utility.yul\":17409:17427   */\n      add\n        /* \"#utility.yul\":17401:17427   */\n      swap1\n      pop\n        /* \"#utility.yul\":17437:17508   */\n      tag_669\n        /* \"#utility.yul\":17505:17506   */\n      0x00\n        /* \"#utility.yul\":17494:17503   */\n      dup4\n        /* \"#utility.yul\":17490:17507   */\n      add\n        /* \"#utility.yul\":17481:17487   */\n      dup6\n        /* \"#utility.yul\":17437:17508   */\n      tag_418\n      jump\t// in\n    tag_669:\n        /* \"#utility.yul\":17555:17564   */\n      dup2\n        /* \"#utility.yul\":17549:17553   */\n      dup2\n        /* \"#utility.yul\":17545:17565   */\n      sub\n        /* \"#utility.yul\":17540:17542   */\n      0x20\n        /* \"#utility.yul\":17529:17538   */\n      dup4\n        /* \"#utility.yul\":17525:17543   */\n      add\n        /* \"#utility.yul\":17518:17566   */\n      mstore\n        /* \"#utility.yul\":17583:17661   */\n      tag_670\n        /* \"#utility.yul\":17656:17660   */\n      dup2\n        /* \"#utility.yul\":17647:17653   */\n      dup5\n        /* \"#utility.yul\":17583:17661   */\n      tag_428\n      jump\t// in\n    tag_670:\n        /* \"#utility.yul\":17575:17661   */\n      swap1\n      pop\n        /* \"#utility.yul\":17245:17668   */\n      swap4\n      swap3\n      pop\n      pop\n      pop\n      jump\t// out\n        /* \"#utility.yul\":17674:17854   */\n    tag_443:\n        /* \"#utility.yul\":17722:17799   */\n      0x4e487b7100000000000000000000000000000000000000000000000000000000\n        /* \"#utility.yul\":17719:17720   */\n      0x00\n        /* \"#utility.yul\":17712:17800   */\n      mstore\n        /* \"#utility.yul\":17819:17823   */\n      0x22\n        /* \"#utility.yul\":17816:17817   */\n      0x04\n        /* \"#utility.yul\":17809:17824   */\n      mstore\n        /* \"#utility.yul\":17843:17847   */\n      0x24\n        /* \"#utility.yul\":17840:17841   */\n      0x00\n        /* \"#utility.yul\":17833:17848   */\n      revert\n        /* \"#utility.yul\":17860:18180   */\n    tag_128:\n        /* \"#utility.yul\":17904:17910   */\n      0x00\n        /* \"#utility.yul\":17941:17942   */\n      0x02\n        /* \"#utility.yul\":17935:17939   */\n      dup3\n        /* \"#utility.yul\":17931:17943   */\n      div\n        /* \"#utility.yul\":17921:17943   */\n      swap1\n      pop\n        /* \"#utility.yul\":17988:17989   */\n      0x01\n        /* \"#utility.yul\":17982:17986   */\n      dup3\n        /* \"#utility.yul\":17978:17990   */\n      and\n        /* \"#utility.yul\":18009:18027   */\n      dup1\n        /* \"#utility.yul\":17999:18080   */\n      tag_673\n      jumpi\n        /* \"#utility.yul\":18065:18069   */\n      0x7f\n        /* \"#utility.yul\":18057:18063   */\n      dup3\n        /* \"#utility.yul\":18053:18070   */\n      and\n        /* \"#utility.yul\":18043:18070   */\n      swap2\n      pop\n        /* \"#utility.yul\":17999:18080   */\n    tag_673:\n        /* \"#utility.yul\":18127:18129   */\n      0x20\n        /* \"#utility.yul\":18119:18125   */\n      dup3\n        /* \"#utility.yul\":18116:18130   */\n      lt\n        /* \"#utility.yul\":18096:18114   */\n      dup2\n        /* \"#utility.yul\":18093:18131   */\n      sub\n        /* \"#utility.yul\":18090:18174   */\n      tag_674\n      jumpi\n        /* \"#utility.yul\":18146:18164   */\n      tag_675\n      tag_443\n      jump\t// in\n    tag_675:\n        /* \"#utility.yul\":18090:18174   */\n    tag_674:\n        /* \"#utility.yul\":17911:18180   */\n      pop\n        /* \"#utility.yul\":17860:18180   */\n      swap2\n      swap1\n      pop\n      jump\t// out\n        /* \"#utility.yul\":18186:18367   */\n    tag_444:\n        /* \"#utility.yul\":18326:18359   */\n      0x5a61704170793a20596f7520616c72656164792068617665206120636f646500\n        /* \"#utility.yul\":18322:18323   */\n      0x00\n        /* \"#utility.yul\":18314:18320   */\n      dup3\n        /* \"#utility.yul\":18310:18324   */\n      add\n        /* \"#utility.yul\":18303:18360   */\n      mstore\n        /* \"#utility.yul\":18186:18367   */\n      pop\n      jump\t// out\n        /* \"#utility.yul\":18373:18739   */\n    tag_445:\n        /* \"#utility.yul\":18515:18518   */\n      0x00\n        /* \"#utility.yul\":18536:18603   */\n      tag_678\n        /* \"#utility.yul\":18600:18602   */\n      0x1f\n        /* \"#utility.yul\":18595:18598   */\n      dup4\n        /* \"#utility.yul\":18536:18603   */\n      tag_426\n      jump\t// in\n    tag_678:\n        /* \"#utility.yul\":18529:18603   */\n      swap2\n      pop\n        /* \"#utility.yul\":18612:18705   */\n      tag_679\n        /* \"#utility.yul\":18701:18704   */\n      dup3\n        /* \"#utility.yul\":18612:18705   */\n      tag_444\n      jump\t// in\n    tag_679:\n        /* \"#utility.yul\":18730:18732   */\n      0x20\n        /* \"#utility.yul\":18725:18728   */\n      dup3\n        /* \"#utility.yul\":18721:18733   */\n      add\n        /* \"#utility.yul\":18714:18733   */\n      swap1\n      pop\n        /* \"#utility.yul\":18373:18739   */\n      swap2\n      swap1\n      pop\n      jump\t// out\n        /* \"#utility.yul\":18745:19164   */\n    tag_131:\n        /* \"#utility.yul\":18911:18915   */\n      0x00\n        /* \"#utility.yul\":18949:18951   */\n      0x20\n        /* \"#utility.yul\":18938:18947   */\n      dup3\n        /* \"#utility.yul\":18934:18952   */\n      add\n        /* \"#utility.yul\":18926:18952   */\n      swap1\n      pop\n        /* \"#utility.yul\":18998:19007   */\n      dup2\n        /* \"#utility.yul\":18992:18996   */\n      dup2\n        /* \"#utility.yul\":18988:19008   */\n      sub\n        /* \"#utility.yul\":18984:18985   */\n      0x00\n        /* \"#utility.yul\":18973:18982   */\n      dup4\n        /* \"#utility.yul\":18969:18986   */\n      add\n        /* \"#utility.yul\":18962:19009   */\n      mstore\n        /* \"#utility.yul\":19026:19157   */\n      tag_681\n        /* \"#utility.yul\":19152:19156   */\n      dup2\n        /* \"#utility.yul\":19026:19157   */\n      tag_445\n      jump\t// in\n    tag_681:\n        /* \"#utility.yul\":19018:19157   */\n      swap1\n      pop\n        /* \"#utility.yul\":18745:19164   */\n      swap2\n      swap1\n      pop\n      jump\t// out\n        /* \"#utility.yul\":19170:19390   */\n    tag_446:\n        /* \"#utility.yul\":19310:19344   */\n      0x5a61704170793a20436f646520636f6c6c6973696f6e2c207472792061676169\n        /* \"#utility.yul\":19306:19307   */\n      0x00\n        /* \"#utility.yul\":19298:19304   */\n      dup3\n        /* \"#utility.yul\":19294:19308   */\n      add\n        /* \"#utility.yul\":19287:19345   */\n      mstore\n        /* \"#utility.yul\":19379:19382   */\n      0x6e00000000000000000000000000000000000000000000000000000000000000\n        /* \"#utility.yul\":19374:19376   */\n      0x20\n        /* \"#utility.yul\":19366:19372   */\n      dup3\n        /* \"#utility.yul\":19362:19377   */\n      add\n        /* \"#utility.yul\":19355:19383   */\n      mstore\n        /* \"#utility.yul\":19170:19390   */\n      pop\n      jump\t// out\n        /* \"#utility.yul\":19396:19762   */\n    tag_447:\n        /* \"#utility.yul\":19538:19541   */\n      0x00\n        /* \"#utility.yul\":19559:19626   */\n      tag_684\n        /* \"#utility.yul\":19623:19625   */\n      0x21\n        /* \"#utility.yul\":19618:19621   */\n      dup4\n        /* \"#utility.yul\":19559:19626   */\n      tag_426\n      jump\t// in\n    tag_684:\n        /* \"#utility.yul\":19552:19626   */\n      swap2\n      pop\n        /* \"#utility.yul\":19635:19728   */\n      tag_685\n        /* \"#utility.yul\":19724:19727   */\n      dup3\n        /* \"#utility.yul\":19635:19728   */\n      tag_446\n      jump\t// in\n    tag_685:\n        /* \"#utility.yul\":19753:19755   */\n      0x40\n        /* \"#utility.yul\":19748:19751   */\n      dup3\n        /* \"#utility.yul\":19744:19756   */\n      add\n        /* \"#utility.yul\":19737:19756   */\n      swap1\n      pop\n        /* \"#utility.yul\":19396:19762   */\n      swap2\n      swap1\n      pop\n      jump\t// out\n        /* \"#utility.yul\":19768:20187   */\n    tag_137:\n        /* \"#utility.yul\":19934:19938   */\n      0x00\n        /* \"#utility.yul\":19972:19974   */\n      0x20\n        /* \"#utility.yul\":19961:19970   */\n      dup3\n        /* \"#utility.yul\":19957:19975   */\n      add\n        /* \"#utility.yul\":19949:19975   */\n      swap1\n      pop\n        /* \"#utility.yul\":20021:20030   */\n      dup2\n        /* \"#utility.yul\":20015:20019   */\n      dup2\n        /* \"#utility.yul\":20011:20031   */\n      sub\n        /* \"#utility.yul\":20007:20008   */\n      0x00\n        /* \"#utility.yul\":19996:20005   */\n      dup4\n        /* \"#utility.yul\":19992:20009   */\n      add\n        /* \"#utility.yul\":19985:20032   */\n      mstore\n        /* \"#utility.yul\":20049:20180   */\n      tag_687\n        /* \"#utility.yul\":20175:20179   */\n      dup2\n        /* \"#utility.yul\":20049:20180   */\n      tag_447\n      jump\t// in\n    tag_687:\n        /* \"#utility.yul\":20041:20180   */\n      swap1\n      pop\n        /* \"#utility.yul\":19768:20187   */\n      swap2\n      swap1\n      pop\n      jump\t// out\n        /* \"#utility.yul\":20193:20334   */\n    tag_448:\n        /* \"#utility.yul\":20242:20246   */\n      0x00\n        /* \"#utility.yul\":20265:20268   */\n      dup2\n        /* \"#utility.yul\":20257:20268   */\n      swap1\n      pop\n        /* \"#utility.yul\":20288:20291   */\n      dup2\n        /* \"#utility.yul\":20285:20286   */\n      0x00\n        /* \"#utility.yul\":20278:20292   */\n      mstore\n        /* \"#utility.yul\":20322:20326   */\n      0x20\n        /* \"#utility.yul\":20319:20320   */\n      0x00\n        /* \"#utility.yul\":20309:20327   */\n      keccak256\n        /* \"#utility.yul\":20301:20327   */\n      swap1\n      pop\n        /* \"#utility.yul\":20193:20334   */\n      swap2\n      swap1\n      pop\n      jump\t// out\n        /* \"#utility.yul\":20340:20433   */\n    tag_449:\n        /* \"#utility.yul\":20377:20383   */\n      0x00\n        /* \"#utility.yul\":20424:20426   */\n      0x20\n        /* \"#utility.yul\":20419:20421   */\n      0x1f\n        /* \"#utility.yul\":20412:20417   */\n      dup4\n        /* \"#utility.yul\":20408:20422   */\n      add\n        /* \"#utility.yul\":20404:20427   */\n      div\n        /* \"#utility.yul\":20394:20427   */\n      swap1\n      pop\n        /* \"#utility.yul\":20340:20433   */\n      swap2\n      swap1\n      pop\n      jump\t// out\n        /* \"#utility.yul\":20439:20546   */\n    tag_450:\n        /* \"#utility.yul\":20483:20491   */\n      0x00\n        /* \"#utility.yul\":20533:20538   */\n      dup3\n        /* \"#utility.yul\":20527:20531   */\n      dup3\n        /* \"#utility.yul\":20523:20539   */\n      shl\n        /* \"#utility.yul\":20502:20539   */\n      swap1\n      pop\n        /* \"#utility.yul\":20439:20546   */\n      swap3\n      swap2\n      pop\n      pop\n      jump\t// out\n        /* \"#utility.yul\":20552:20945   */\n    tag_451:\n        /* \"#utility.yul\":20621:20627   */\n      0x00\n        /* \"#utility.yul\":20671:20672   */\n      0x08\n        /* \"#utility.yul\":20659:20669   */\n      dup4\n        /* \"#utility.yul\":20655:20673   */\n      mul\n        /* \"#utility.yul\":20694:20791   */\n      tag_692\n        /* \"#utility.yul\":20724:20790   */\n      0xffffffffffffffffffffffffffffffffffffffffffffffffffffffffffffffff\n        /* \"#utility.yul\":20713:20722   */\n      dup3\n        /* \"#utility.yul\":20694:20791   */\n      tag_450\n      jump\t// in\n    tag_692:\n        /* \"#utility.yul\":20812:20851   */\n      tag_693\n        /* \"#utility.yul\":20842:20850   */\n      dup7\n        /* \"#utility.yul\":20831:20840   */\n      dup4\n        /* \"#utility.yul\":20812:20851   */\n      tag_450\n      jump\t// in\n    tag_693:\n        /* \"#utility.yul\":20800:20851   */\n      swap6\n      pop\n        /* \"#utility.yul\":20884:20888   */\n      dup1\n        /* \"#utility.yul\":20880:20889   */\n      not\n        /* \"#utility.yul\":20873:20878   */\n      dup5\n        /* \"#utility.yul\":20869:20890   */\n      and\n        /* \"#utility.yul\":20860:20890   */\n      swap4\n      pop\n        /* \"#utility.yul\":20933:20937   */\n      dup1\n        /* \"#utility.yul\":20923:20931   */\n      dup7\n        /* \"#utility.yul\":20919:20938   */\n      and\n        /* \"#utility.yul\":20912:20917   */\n      dup5\n        /* \"#utility.yul\":20909:20939   */\n      or\n        /* \"#utility.yul\":20899:20939   */\n      swap3\n      pop\n        /* \"#utility.yul\":20628:20945   */\n      pop\n      pop\n        /* \"#utility.yul\":20552:20945   */\n      swap4\n      swap3\n      pop\n      pop\n      pop\n      jump\t// out\n        /* \"#utility.yul\":20951:21093   */\n    tag_452:\n        /* \"#utility.yul\":21001:21010   */\n      0x00\n        /* \"#utility.yul\":21034:21087   */\n      tag_695\n        /* \"#utility.yul\":21052:21086   */\n      tag_696\n        /* \"#utility.yul\":21061:21085   */\n      tag_697\n        /* \"#utility.yul\":21079:21084   */\n      dup5\n        /* \"#utility.yul\":21061:21085   */\n      tag_397\n      jump\t// in\n    tag_697:\n        /* \"#utility.yul\":21052:21086   */\n      tag_410\n      jump\t// in\n    tag_696:\n        /* \"#utility.yul\":21034:21087   */\n      tag_397\n      jump\t// in\n    tag_695:\n        /* \"#utility.yul\":21021:21087   */\n      swap1\n      pop\n        /* \"#utility.yul\":20951:21093   */\n      swap2\n      swap1\n      pop\n      jump\t// out\n        /* \"#utility.yul\":21099:21174   */\n    tag_453:\n        /* \"#utility.yul\":21142:21145   */\n      0x00\n        /* \"#utility.yul\":21163:21168   */\n      dup2\n        /* \"#utility.yul\":21156:21168   */\n      swap1\n      pop\n        /* \"#utility.yul\":21099:21174   */\n      swap2\n      swap1\n      pop\n      jump\t// out\n        /* \"#utility.yul\":21180:21449   */\n    tag_454:\n        /* \"#utility.yul\":21290:21329   */\n      tag_700\n        /* \"#utility.yul\":21321:21328   */\n      dup4\n        /* \"#utility.yul\":21290:21329   */\n      tag_452\n      jump\t// in\n    tag_700:\n        /* \"#utility.yul\":21351:21442   */\n      tag_701\n        /* \"#utility.yul\":21400:21441   */\n      tag_702\n        /* \"#utility.yul\":21424:21440   */\n      dup3\n        /* \"#utility.yul\":21400:21441   */\n      tag_453\n      jump\t// in\n    tag_702:\n        /* \"#utility.yul\":21392:21398   */\n      dup5\n        /* \"#utility.yul\":21385:21389   */\n      dup5\n        /* \"#utility.yul\":21379:21390   */\n      sload\n        /* \"#utility.yul\":21351:21442   */\n      tag_451\n      jump\t// in\n    tag_701:\n        /* \"#utility.yul\":21345:21349   */\n      dup3\n        /* \"#utility.yul\":21338:21443   */\n      sstore\n        /* \"#utility.yul\":21256:21449   */\n      pop\n        /* \"#utility.yul\":21180:21449   */\n      pop\n      pop\n      pop\n      jump\t// out\n        /* \"#utility.yul\":21455:21528   */\n    tag_455:\n        /* \"#utility.yul\":21500:21503   */\n      0x00\n        /* \"#utility.yul\":21521:21522   */\n      0x00\n        /* \"#utility.yul\":21514:21522   */\n      swap1\n      pop\n        /* \"#utility.yul\":21455:21528   */\n      swap1\n      jump\t// out\n        /* \"#utility.yul\":21534:21723   */\n    tag_456:\n        /* \"#utility.yul\":21611:21643   */\n      tag_705\n      tag_455\n      jump\t// in\n    tag_705:\n        /* \"#utility.yul\":21652:21717   */\n      tag_706\n        /* \"#utility.yul\":21710:21716   */\n      dup2\n        /* \"#utility.yul\":21702:21708   */\n      dup5\n        /* \"#utility.yul\":21696:21700   */\n      dup5\n        /* \"#utility.yul\":21652:21717   */\n      tag_454\n      jump\t// in\n    tag_706:\n        /* \"#utility.yul\":21587:21723   */\n      pop\n        /* \"#utility.yul\":21534:21723   */\n      pop\n      pop\n      jump\t// out\n        /* \"#utility.yul\":21729:21915   */\n    tag_457:\n        /* \"#utility.yul\":21789:21909   */\n    tag_708:\n        /* \"#utility.yul\":21806:21809   */\n      dup2\n        /* \"#utility.yul\":21799:21804   */\n      dup2\n        /* \"#utility.yul\":21796:21810   */\n      lt\n        /* \"#utility.yul\":21789:21909   */\n      iszero\n      tag_710\n      jumpi\n        /* \"#utility.yul\":21860:21899   */\n      tag_711\n        /* \"#utility.yul\":21897:21898   */\n      0x00\n        /* \"#utility.yul\":21890:21895   */\n      dup3\n        /* \"#utility.yul\":21860:21899   */\n      tag_456\n      jump\t// in\n    tag_711:\n        /* \"#utility.yul\":21833:21834   */\n      0x01\n        /* \"#utility.yul\":21826:21831   */\n      dup2\n        /* \"#utility.yul\":21822:21835   */\n      add\n        /* \"#utility.yul\":21813:21835   */\n      swap1\n      pop\n        /* \"#utility.yul\":21789:21909   */\n      jump(tag_708)\n    tag_710:\n        /* \"#utility.yul\":21729:21915   */\n      pop\n      pop\n      jump\t// out\n        /* \"#utility.yul\":21921:22464   */\n    tag_458:\n        /* \"#utility.yul\":22022:22024   */\n      0x1f\n        /* \"#utility.yul\":22017:22020   */\n      dup3\n        /* \"#utility.yul\":22014:22025   */\n      gt\n        /* \"#utility.yul\":22011:22457   */\n      iszero\n      tag_713\n      jumpi\n        /* \"#utility.yul\":22056:22094   */\n      tag_714\n        /* \"#utility.yul\":22088:22093   */\n      dup2\n        /* \"#utility.yul\":22056:22094   */\n      tag_448\n      jump\t// in\n    tag_714:\n        /* \"#utility.yul\":22140:22169   */\n      tag_715\n        /* \"#utility.yul\":22158:22168   */\n      dup5\n        /* \"#utility.yul\":22140:22169   */\n      tag_449\n      jump\t// in\n    tag_715:\n        /* \"#utility.yul\":22130:22138   */\n      dup2\n        /* \"#utility.yul\":22126:22170   */\n      add\n        /* \"#utility.yul\":22323:22325   */\n      0x20\n        /* \"#utility.yul\":22311:22321   */\n      dup6\n        /* \"#utility.yul\":22308:22326   */\n      lt\n        /* \"#utility.yul\":22305:22354   */\n      iszero\n      tag_716\n      jumpi\n        /* \"#utility.yul\":22344:22352   */\n      dup2\n        /* \"#utility.yul\":22329:22352   */\n      swap1\n      pop\n        /* \"#utility.yul\":22305:22354   */\n    tag_716:\n        /* \"#utility.yul\":22367:22447   */\n      tag_717\n        /* \"#utility.yul\":22423:22445   */\n      tag_718\n        /* \"#utility.yul\":22441:22444   */\n      dup6\n        /* \"#utility.yul\":22423:22445   */\n      tag_449\n      jump\t// in\n    tag_718:\n        /* \"#utility.yul\":22413:22421   */\n      dup4\n        /* \"#utility.yul\":22409:22446   */\n      add\n        /* \"#utility.yul\":22396:22407   */\n      dup3\n        /* \"#utility.yul\":22367:22447   */\n      tag_457\n      jump\t// in\n    tag_717:\n        /* \"#utility.yul\":22026:22457   */\n      pop\n      pop\n        /* \"#utility.yul\":22011:22457   */\n    tag_713:\n        /* \"#utility.yul\":21921:22464   */\n      pop\n      pop\n      pop\n      jump\t// out\n        /* \"#utility.yul\":22470:22587   */\n    tag_459:\n        /* \"#utility.yul\":22524:22532   */\n      0x00\n        /* \"#utility.yul\":22574:22579   */\n      dup3\n        /* \"#utility.yul\":22568:22572   */\n      dup3\n        /* \"#utility.yul\":22564:22580   */\n      shr\n        /* \"#utility.yul\":22543:22580   */\n      swap1\n      pop\n        /* \"#utility.yul\":22470:22587   */\n      swap3\n      swap2\n      pop\n      pop\n      jump\t// out\n        /* \"#utility.yul\":22593:22762   */\n    tag_460:\n        /* \"#utility.yul\":22637:22643   */\n      0x00\n        /* \"#utility.yul\":22670:22721   */\n      tag_721\n        /* \"#utility.yul\":22718:22719   */\n      0x00\n        /* \"#utility.yul\":22714:22720   */\n      not\n        /* \"#utility.yul\":22706:22711   */\n      dup5\n        /* \"#utility.yul\":22703:22704   */\n      0x08\n        /* \"#utility.yul\":22699:22712   */\n      mul\n        /* \"#utility.yul\":22670:22721   */\n      tag_459\n      jump\t// in\n    tag_721:\n        /* \"#utility.yul\":22666:22722   */\n      not\n        /* \"#utility.yul\":22751:22755   */\n      dup1\n        /* \"#utility.yul\":22745:22749   */\n      dup4\n        /* \"#utility.yul\":22741:22756   */\n      and\n        /* \"#utility.yul\":22731:22756   */\n      swap2\n      pop\n        /* \"#utility.yul\":22644:22762   */\n      pop\n        /* \"#utility.yul\":22593:22762   */\n      swap3\n      swap2\n      pop\n      pop\n      jump\t// out\n        /* \"#utility.yul\":22767:23062   */\n    tag_461:\n        /* \"#utility.yul\":22843:22847   */\n      0x00\n        /* \"#utility.yul\":22989:23018   */\n      tag_723\n        /* \"#utility.yul\":23014:23017   */\n      dup4\n        /* \"#utility.yul\":23008:23012   */\n      dup4\n        /* \"#utility.yul\":22989:23018   */\n      tag_460\n      jump\t// in\n    tag_723:\n        /* \"#utility.yul\":22981:23018   */\n      swap2\n      pop\n        /* \"#utility.yul\":23051:23054   */\n      dup3\n        /* \"#utility.yul\":23048:23049   */\n      0x02\n        /* \"#utility.yul\":23044:23055   */\n      mul\n        /* \"#utility.yul\":23038:23042   */\n      dup3\n        /* \"#utility.yul\":23035:23056   */\n      or\n        /* \"#utility.yul\":23027:23056   */\n      swap1\n      pop\n        /* \"#utility.yul\":22767:23062   */\n      swap3\n      swap2\n      pop\n      pop\n      jump\t// out\n        /* \"#utility.yul\":23067:24462   */\n    tag_140:\n        /* \"#utility.yul\":23184:23221   */\n      tag_725\n        /* \"#utility.yul\":23217:23220   */\n      dup3\n        /* \"#utility.yul\":23184:23221   */\n      tag_425\n      jump\t// in\n    tag_725:\n        /* \"#utility.yul\":23286:23304   */\n      0xffffffffffffffff\n        /* \"#utility.yul\":23278:23284   */\n      dup2\n        /* \"#utility.yul\":23275:23305   */\n      gt\n        /* \"#utility.yul\":23272:23328   */\n      iszero\n      tag_726\n      jumpi\n        /* \"#utility.yul\":23308:23326   */\n      tag_727\n      tag_222\n      jump\t// in\n    tag_727:\n        /* \"#utility.yul\":23272:23328   */\n    tag_726:\n        /* \"#utility.yul\":23352:23390   */\n      tag_728\n        /* \"#utility.yul\":23384:23388   */\n      dup3\n        /* \"#utility.yul\":23378:23389   */\n      sload\n        /* \"#utility.yul\":23352:23390   */\n      tag_128\n      jump\t// in\n    tag_728:\n        /* \"#utility.yul\":23437:23504   */\n      tag_729\n        /* \"#utility.yul\":23497:23503   */\n      dup3\n        /* \"#utility.yul\":23489:23495   */\n      dup3\n        /* \"#utility.yul\":23483:23487   */\n      dup6\n        /* \"#utility.yul\":23437:23504   */\n      tag_458\n      jump\t// in\n    tag_729:\n        /* \"#utility.yul\":23531:23532   */\n      0x00\n        /* \"#utility.yul\":23555:23559   */\n      0x20\n        /* \"#utility.yul\":23542:23559   */\n      swap1\n      pop\n        /* \"#utility.yul\":23587:23589   */\n      0x1f\n        /* \"#utility.yul\":23579:23585   */\n      dup4\n        /* \"#utility.yul\":23576:23590   */\n      gt\n        /* \"#utility.yul\":23604:23605   */\n      0x01\n        /* \"#utility.yul\":23599:24217   */\n      dup2\n      eq\n      tag_731\n      jumpi\n        /* \"#utility.yul\":24261:24262   */\n      0x00\n        /* \"#utility.yul\":24278:24284   */\n      dup5\n        /* \"#utility.yul\":24275:24352   */\n      iszero\n      tag_732\n      jumpi\n        /* \"#utility.yul\":24327:24336   */\n      dup3\n        /* \"#utility.yul\":24322:24325   */\n      dup8\n        /* \"#utility.yul\":24318:24337   */\n      add\n        /* \"#utility.yul\":24312:24338   */\n      mload\n        /* \"#utility.yul\":24303:24338   */\n      swap1\n      pop\n        /* \"#utility.yul\":24275:24352   */\n    tag_732:\n        /* \"#utility.yul\":24378:24445   */\n      tag_733\n        /* \"#utility.yul\":24438:24444   */\n      dup6\n        /* \"#utility.yul\":24431:24436   */\n      dup3\n        /* \"#utility.yul\":24378:24445   */\n      tag_461\n      jump\t// in\n    tag_733:\n        /* \"#utility.yul\":24372:24376   */\n      dup7\n        /* \"#utility.yul\":24365:24446   */\n      sstore\n        /* \"#utility.yul\":24234:24456   */\n      pop\n        /* \"#utility.yul\":23569:24456   */\n      jump(tag_730)\n        /* \"#utility.yul\":23599:24217   */\n    tag_731:\n        /* \"#utility.yul\":23651:23655   */\n      0x1f\n        /* \"#utility.yul\":23647:23656   */\n      not\n        /* \"#utility.yul\":23639:23645   */\n      dup5\n        /* \"#utility.yul\":23635:23657   */\n      and\n        /* \"#utility.yul\":23685:23722   */\n      tag_734\n        /* \"#utility.yul\":23717:23721   */\n      dup7\n        /* \"#utility.yul\":23685:23722   */\n      tag_448\n      jump\t// in\n    tag_734:\n        /* \"#utility.yul\":23744:23745   */\n      0x00\n        /* \"#utility.yul\":23758:23966   */\n    tag_735:\n        /* \"#utility.yul\":23772:23779   */\n      dup3\n        /* \"#utility.yul\":23769:23770   */\n      dup2\n        /* \"#utility.yul\":23766:23780   */\n      lt\n        /* \"#utility.yul\":23758:23966   */\n      iszero\n      tag_737\n      jumpi\n        /* \"#utility.yul\":23851:23860   */\n      dup5\n        /* \"#utility.yul\":23846:23849   */\n      dup10\n        /* \"#utility.yul\":23842:23861   */\n      add\n        /* \"#utility.yul\":23836:23862   */\n      mload\n        /* \"#utility.yul\":23828:23834   */\n      dup3\n        /* \"#utility.yul\":23821:23863   */\n      sstore\n        /* \"#utility.yul\":23902:23903   */\n      0x01\n        /* \"#utility.yul\":23894:23900   */\n      dup3\n        /* \"#utility.yul\":23890:23904   */\n      add\n        /* \"#utility.yul\":23880:23904   */\n      swap2\n      pop\n        /* \"#utility.yul\":23949:23951   */\n      0x20\n        /* \"#utility.yul\":23938:23947   */\n      dup6\n        /* \"#utility.yul\":23934:23952   */\n      add\n        /* \"#utility.yul\":23921:23952   */\n      swap5\n      pop\n        /* \"#utility.yul\":23795:23799   */\n      0x20\n        /* \"#utility.yul\":23792:23793   */\n      dup2\n        /* \"#utility.yul\":23788:23800   */\n      add\n        /* \"#utility.yul\":23783:23800   */\n      swap1\n      pop\n        /* \"#utility.yul\":23758:23966   */\n      jump(tag_735)\n    tag_737:\n        /* \"#utility.yul\":23994:24000   */\n      dup7\n        /* \"#utility.yul\":23985:23992   */\n      dup4\n        /* \"#utility.yul\":23982:24001   */\n      lt\n        /* \"#utility.yul\":23979:24158   */\n      iszero\n      tag_738\n      jumpi\n        /* \"#utility.yul\":24052:24061   */\n      dup5\n        /* \"#utility.yul\":24047:24050   */\n      dup10\n        /* \"#utility.yul\":24043:24062   */\n      add\n        /* \"#utility.yul\":24037:24063   */\n      mload\n        /* \"#utility.yul\":24095:24143   */\n      tag_739\n        /* \"#utility.yul\":24137:24141   */\n      0x1f\n        /* \"#utility.yul\":24129:24135   */\n      dup10\n        /* \"#utility.yul\":24125:24142   */\n      and\n        /* \"#utility.yul\":24114:24123   */\n      dup3\n        /* \"#utility.yul\":24095:24143   */\n      tag_460\n      jump\t// in\n    tag_739:\n        /* \"#utility.yul\":24087:24093   */\n      dup4\n        /* \"#utility.yul\":24080:24144   */\n      sstore\n        /* \"#utility.yul\":24002:24158   */\n      pop\n        /* \"#utility.yul\":23979:24158   */\n    tag_738:\n        /* \"#utility.yul\":24204:24205   */\n      0x01\n        /* \"#utility.yul\":24200:24201   */\n      0x02\n        /* \"#utility.yul\":24192:24198   */\n      dup9\n        /* \"#utility.yul\":24188:24202   */\n      mul\n        /* \"#utility.yul\":24184:24206   */\n      add\n        /* \"#utility.yul\":24178:24182   */\n      dup9\n        /* \"#utility.yul\":24171:24207   */\n      sstore\n        /* \"#utility.yul\":23606:24217   */\n      pop\n      pop\n      pop\n        /* \"#utility.yul\":23569:24456   */\n    tag_730:\n      pop\n        /* \"#utility.yul\":23159:24462   */\n      pop\n      pop\n      pop\n        /* \"#utility.yul\":23067:24462   */\n      pop\n      pop\n      jump\t// out\n        /* \"#utility.yul\":24468:24553   */\n    tag_462:\n        /* \"#utility.yul\":24513:24520   */\n      0x00\n        /* \"#utility.yul\":24542:24547   */\n      dup2\n        /* \"#utility.yul\":24531:24547   */\n      swap1\n      pop\n        /* \"#utility.yul\":24468:24553   */\n      swap2\n      swap1\n      pop\n      jump\t// out\n        /* \"#utility.yul\":24559:24660   */\n    tag_463:\n        /* \"#utility.yul\":24595:24602   */\n      0x00\n        /* \"#utility.yul\":24635:24653   */\n      0xffffffffffffffff\n        /* \"#utility.yul\":24628:24633   */\n      dup3\n        /* \"#utility.yul\":24624:24654   */\n      and\n        /* \"#utility.yul\":24613:24654   */\n      swap1\n      pop\n        /* \"#utility.yul\":24559:24660   */\n      swap2\n      swap1\n      pop\n      jump\t// out\n        /* \"#utility.yul\":24666:24822   */\n    tag_464:\n        /* \"#utility.yul\":24723:24732   */\n      0x00\n        /* \"#utility.yul\":24756:24816   */\n      tag_743\n        /* \"#utility.yul\":24773:24815   */\n      tag_744\n        /* \"#utility.yul\":24782:24814   */\n      tag_745\n        /* \"#utility.yul\":24808:24813   */\n      dup5\n        /* \"#utility.yul\":24782:24814   */\n      tag_462\n      jump\t// in\n    tag_745:\n        /* \"#utility.yul\":24773:24815   */\n      tag_410\n      jump\t// in\n    tag_744:\n        /* \"#utility.yul\":24756:24816   */\n      tag_463\n      jump\t// in\n    tag_743:\n        /* \"#utility.yul\":24743:24816   */\n      swap1\n      pop\n        /* \"#utility.yul\":24666:24822   */\n      swap2\n      swap1\n      pop\n      jump\t// out\n        /* \"#utility.yul\":24828:24973   */\n    tag_465:\n        /* \"#utility.yul\":24922:24966   */\n      tag_747\n        /* \"#utility.yul\":24960:24965   */\n      dup2\n        /* \"#utility.yul\":24922:24966   */\n      tag_464\n      jump\t// in\n    tag_747:\n        /* \"#utility.yul\":24917:24920   */\n      dup3\n        /* \"#utility.yul\":24910:24967   */\n      mstore\n        /* \"#utility.yul\":24828:24973   */\n      pop\n      pop\n      jump\t// out\n        /* \"#utility.yul\":24979:25215   */\n    tag_159:\n        /* \"#utility.yul\":25079:25083   */\n      0x00\n        /* \"#utility.yul\":25117:25119   */\n      0x20\n        /* \"#utility.yul\":25106:25115   */\n      dup3\n        /* \"#utility.yul\":25102:25120   */\n      add\n        /* \"#utility.yul\":25094:25120   */\n      swap1\n      pop\n        /* \"#utility.yul\":25130:25208   */\n      tag_749\n        /* \"#utility.yul\":25205:25206   */\n      0x00\n        /* \"#utility.yul\":25194:25203   */\n      dup4\n        /* \"#utility.yul\":25190:25207   */\n      add\n        /* \"#utility.yul\":25181:25187   */\n      dup5\n        /* \"#utility.yul\":25130:25208   */\n      tag_465\n      jump\t// in\n    tag_749:\n        /* \"#utility.yul\":24979:25215   */\n      swap3\n      swap2\n      pop\n      pop\n      jump\t// out\n        /* \"#utility.yul\":25221:25663   */\n    tag_205:\n        /* \"#utility.yul\":25370:25374   */\n      0x00\n        /* \"#utility.yul\":25408:25410   */\n      0x60\n        /* \"#utility.yul\":25397:25406   */\n      dup3\n        /* \"#utility.yul\":25393:25411   */\n      add\n        /* \"#utility.yul\":25385:25411   */\n      swap1\n      pop\n        /* \"#utility.yul\":25421:25492   */\n      tag_751\n        /* \"#utility.yul\":25489:25490   */\n      0x00\n        /* \"#utility.yul\":25478:25487   */\n      dup4\n        /* \"#utility.yul\":25474:25491   */\n      add\n        /* \"#utility.yul\":25465:25471   */\n      dup7\n        /* \"#utility.yul\":25421:25492   */\n      tag_419\n      jump\t// in\n    tag_751:\n        /* \"#utility.yul\":25502:25574   */\n      tag_752\n        /* \"#utility.yul\":25570:25572   */\n      0x20\n        /* \"#utility.yul\":25559:25568   */\n      dup4\n        /* \"#utility.yul\":25555:25573   */\n      add\n        /* \"#utility.yul\":25546:25552   */\n      dup6\n        /* \"#utility.yul\":25502:25574   */\n      tag_419\n      jump\t// in\n    tag_752:\n        /* \"#utility.yul\":25584:25656   */\n      tag_753\n        /* \"#utility.yul\":25652:25654   */\n      0x40\n        /* \"#utility.yul\":25641:25650   */\n      dup4\n        /* \"#utility.yul\":25637:25655   */\n      add\n        /* \"#utility.yul\":25628:25634   */\n      dup5\n        /* \"#utility.yul\":25584:25656   */\n      tag_418\n      jump\t// in\n    tag_753:\n        /* \"#utility.yul\":25221:25663   */\n      swap5\n      swap4\n      pop\n      pop\n      pop\n      pop\n      jump\t// out\n        /* \"#utility.yul\":25669:26001   */\n    tag_209:\n        /* \"#utility.yul\":25790:25794   */\n      0x00\n        /* \"#utility.yul\":25828:25830   */\n      0x40\n        /* \"#utility.yul\":25817:25826   */\n      dup3\n        /* \"#utility.yul\":25813:25831   */\n      add\n        /* \"#utility.yul\":25805:25831   */\n      swap1\n      pop\n        /* \"#utility.yul\":25841:25912   */\n      tag_755\n        /* \"#utility.yul\":25909:25910   */\n      0x00\n        /* \"#utility.yul\":25898:25907   */\n      dup4\n        /* \"#utility.yul\":25894:25911   */\n      add\n        /* \"#utility.yul\":25885:25891   */\n      dup6\n        /* \"#utility.yul\":25841:25912   */\n      tag_419\n      jump\t// in\n    tag_755:\n        /* \"#utility.yul\":25922:25994   */\n      tag_756\n        /* \"#utility.yul\":25990:25992   */\n      0x20\n        /* \"#utility.yul\":25979:25988   */\n      dup4\n        /* \"#utility.yul\":25975:25993   */\n      add\n        /* \"#utility.yul\":25966:25972   */\n      dup5\n        /* \"#utility.yul\":25922:25994   */\n      tag_418\n      jump\t// in\n    tag_756:\n        /* \"#utility.yul\":25669:26001   */\n      swap4\n      swap3\n      pop\n      pop\n      pop\n      jump\t// out\n        /* \"#utility.yul\":26007:26092   */\n    tag_466:\n        /* \"#utility.yul\":26052:26059   */\n      0x00\n        /* \"#utility.yul\":26081:26086   */\n      dup2\n        /* \"#utility.yul\":26070:26086   */\n      swap1\n      pop\n        /* \"#utility.yul\":26007:26092   */\n      swap2\n      swap1\n      pop\n      jump\t// out\n        /* \"#utility.yul\":26098:26184   */\n    tag_467:\n        /* \"#utility.yul\":26133:26140   */\n      0x00\n        /* \"#utility.yul\":26173:26177   */\n      0xff\n        /* \"#utility.yul\":26166:26171   */\n      dup3\n        /* \"#utility.yul\":26162:26178   */\n      and\n        /* \"#utility.yul\":26151:26178   */\n      swap1\n      pop\n        /* \"#utility.yul\":26098:26184   */\n      swap2\n      swap1\n      pop\n      jump\t// out\n        /* \"#utility.yul\":26190:26344   */\n    tag_468:\n        /* \"#utility.yul\":26246:26255   */\n      0x00\n        /* \"#utility.yul\":26279:26338   */\n      tag_760\n        /* \"#utility.yul\":26295:26337   */\n      tag_761\n        /* \"#utility.yul\":26304:26336   */\n      tag_762\n        /* \"#utility.yul\":26330:26335   */\n      dup5\n        /* \"#utility.yul\":26304:26336   */\n      tag_466\n      jump\t// in\n    tag_762:\n        /* \"#utility.yul\":26295:26337   */\n      tag_410\n      jump\t// in\n    tag_761:\n        /* \"#utility.yul\":26279:26338   */\n      tag_467\n      jump\t// in\n    tag_760:\n        /* \"#utility.yul\":26266:26338   */\n      swap1\n      pop\n        /* \"#utility.yul\":26190:26344   */\n      swap2\n      swap1\n      pop\n      jump\t// out\n        /* \"#utility.yul\":26350:26493   */\n    tag_469:\n        /* \"#utility.yul\":26443:26486   */\n      tag_764\n        /* \"#utility.yul\":26480:26485   */\n      dup2\n        /* \"#utility.yul\":26443:26486   */\n      tag_468\n      jump\t// in\n    tag_764:\n        /* \"#utility.yul\":26438:26441   */\n      dup3\n        /* \"#utility.yul\":26431:26487   */\n      mstore\n        /* \"#utility.yul\":26350:26493   */\n      pop\n      pop\n      jump\t// out\n        /* \"#utility.yul\":26499:26843   */\n    tag_215:\n        /* \"#utility.yul\":26626:26630   */\n      0x00\n        /* \"#utility.yul\":26664:26666   */\n      0x40\n        /* \"#utility.yul\":26653:26662   */\n      dup3\n        /* \"#utility.yul\":26649:26667   */\n      add\n        /* \"#utility.yul\":26641:26667   */\n      swap1\n      pop\n        /* \"#utility.yul\":26677:26748   */\n      tag_766\n        /* \"#utility.yul\":26745:26746   */\n      0x00\n        /* \"#utility.yul\":26734:26743   */\n      dup4\n        /* \"#utility.yul\":26730:26747   */\n      add\n        /* \"#utility.yul\":26721:26727   */\n      dup6\n        /* \"#utility.yul\":26677:26748   */\n      tag_419\n      jump\t// in\n    tag_766:\n        /* \"#utility.yul\":26758:26836   */\n      tag_767\n        /* \"#utility.yul\":26832:26834   */\n      0x20\n        /* \"#utility.yul\":26821:26830   */\n      dup4\n        /* \"#utility.yul\":26817:26835   */\n      add\n        /* \"#utility.yul\":26808:26814   */\n      dup5\n        /* \"#utility.yul\":26758:26836   */\n      tag_469\n      jump\t// in\n    tag_767:\n        /* \"#utility.yul\":26499:26843   */\n      swap4\n      swap3\n      pop\n      pop\n      pop\n      jump\t// out\n        /* \"#utility.yul\":26849:26943   */\n    tag_470:\n        /* \"#utility.yul\":26882:26890   */\n      0x00\n        /* \"#utility.yul\":26930:26935   */\n      dup2\n        /* \"#utility.yul\":26926:26928   */\n      0x60\n        /* \"#utility.yul\":26922:26936   */\n      shl\n        /* \"#utility.yul\":26901:26936   */\n      swap1\n      pop\n        /* \"#utility.yul\":26849:26943   */\n      swap2\n      swap1\n      pop\n      jump\t// out\n        /* \"#utility.yul\":26949:27043   */\n    tag_471:\n        /* \"#utility.yul\":26988:26995   */\n      0x00\n        /* \"#utility.yul\":27017:27037   */\n      tag_770\n        /* \"#utility.yul\":27031:27036   */\n      dup3\n        /* \"#utility.yul\":27017:27037   */\n      tag_470\n      jump\t// in\n    tag_770:\n        /* \"#utility.yul\":27006:27037   */\n      swap1\n      pop\n        /* \"#utility.yul\":26949:27043   */\n      swap2\n      swap1\n      pop\n      jump\t// out\n        /* \"#utility.yul\":27049:27149   */\n    tag_472:\n        /* \"#utility.yul\":27088:27095   */\n      0x00\n        /* \"#utility.yul\":27117:27143   */\n      tag_772\n        /* \"#utility.yul\":27137:27142   */\n      dup3\n        /* \"#utility.yul\":27117:27143   */\n      tag_471\n      jump\t// in\n    tag_772:\n        /* \"#utility.yul\":27106:27143   */\n      swap1\n      pop\n        /* \"#utility.yul\":27049:27149   */\n      swap2\n      swap1\n      pop\n      jump\t// out\n        /* \"#utility.yul\":27155:27312   */\n    tag_473:\n        /* \"#utility.yul\":27260:27305   */\n      tag_774\n        /* \"#utility.yul\":27280:27304   */\n      tag_775\n        /* \"#utility.yul\":27298:27303   */\n      dup3\n        /* \"#utility.yul\":27280:27304   */\n      tag_415\n      jump\t// in\n    tag_775:\n        /* \"#utility.yul\":27260:27305   */\n      tag_472\n      jump\t// in\n    tag_774:\n        /* \"#utility.yul\":27255:27258   */\n      dup3\n        /* \"#utility.yul\":27248:27306   */\n      mstore\n        /* \"#utility.yul\":27155:27312   */\n      pop\n      pop\n      jump\t// out\n        /* \"#utility.yul\":27318:27397   */\n    tag_474:\n        /* \"#utility.yul\":27357:27364   */\n      0x00\n        /* \"#utility.yul\":27386:27391   */\n      dup2\n        /* \"#utility.yul\":27375:27391   */\n      swap1\n      pop\n        /* \"#utility.yul\":27318:27397   */\n      swap2\n      swap1\n      pop\n      jump\t// out\n        /* \"#utility.yul\":27403:27560   */\n    tag_475:\n        /* \"#utility.yul\":27508:27553   */\n      tag_778\n        /* \"#utility.yul\":27528:27552   */\n      tag_779\n        /* \"#utility.yul\":27546:27551   */\n      dup3\n        /* \"#utility.yul\":27528:27552   */\n      tag_397\n      jump\t// in\n    tag_779:\n        /* \"#utility.yul\":27508:27553   */\n      tag_474\n      jump\t// in\n    tag_778:\n        /* \"#utility.yul\":27503:27506   */\n      dup3\n        /* \"#utility.yul\":27496:27554   */\n      mstore\n        /* \"#utility.yul\":27403:27560   */\n      pop\n      pop\n      jump\t// out\n        /* \"#utility.yul\":27566:28104   */\n    tag_225:\n        /* \"#utility.yul\":27734:27737   */\n      0x00\n        /* \"#utility.yul\":27749:27824   */\n      tag_781\n        /* \"#utility.yul\":27820:27823   */\n      dup3\n        /* \"#utility.yul\":27811:27817   */\n      dup7\n        /* \"#utility.yul\":27749:27824   */\n      tag_473\n      jump\t// in\n    tag_781:\n        /* \"#utility.yul\":27849:27851   */\n      0x14\n        /* \"#utility.yul\":27844:27847   */\n      dup3\n        /* \"#utility.yul\":27840:27852   */\n      add\n        /* \"#utility.yul\":27833:27852   */\n      swap2\n      pop\n        /* \"#utility.yul\":27862:27937   */\n      tag_782\n        /* \"#utility.yul\":27933:27936   */\n      dup3\n        /* \"#utility.yul\":27924:27930   */\n      dup6\n        /* \"#utility.yul\":27862:27937   */\n      tag_475\n      jump\t// in\n    tag_782:\n        /* \"#utility.yul\":27962:27964   */\n      0x20\n        /* \"#utility.yul\":27957:27960   */\n      dup3\n        /* \"#utility.yul\":27953:27965   */\n      add\n        /* \"#utility.yul\":27946:27965   */\n      swap2\n      pop\n        /* \"#utility.yul\":27975:28050   */\n      tag_783\n        /* \"#utility.yul\":28046:28049   */\n      dup3\n        /* \"#utility.yul\":28037:28043   */\n      dup5\n        /* \"#utility.yul\":27975:28050   */\n      tag_475\n      jump\t// in\n    tag_783:\n        /* \"#utility.yul\":28075:28077   */\n      0x20\n        /* \"#utility.yul\":28070:28073   */\n      dup3\n        /* \"#utility.yul\":28066:28078   */\n      add\n        /* \"#utility.yul\":28059:28078   */\n      swap2\n      pop\n        /* \"#utility.yul\":28095:28098   */\n      dup2\n        /* \"#utility.yul\":28088:28098   */\n      swap1\n      pop\n        /* \"#utility.yul\":27566:28104   */\n      swap5\n      swap4\n      pop\n      pop\n      pop\n      pop\n      jump\t// out\n        /* \"#utility.yul\":28110:28290   */\n    tag_476:\n        /* \"#utility.yul\":28158:28235   */\n      0x4e487b7100000000000000000000000000000000000000000000000000000000\n        /* \"#utility.yul\":28155:28156   */\n      0x00\n        /* \"#utility.yul\":28148:28236   */\n      mstore\n        /* \"#utility.yul\":28255:28259   */\n      0x12\n        /* \"#utility.yul\":28252:28253   */\n      0x04\n        /* \"#utility.yul\":28245:28260   */\n      mstore\n        /* \"#utility.yul\":28279:28283   */\n      0x24\n        /* \"#utility.yul\":28276:28277   */\n      0x00\n        /* \"#utility.yul\":28269:28284   */\n      revert\n        /* \"#utility.yul\":28296:28472   */\n    tag_230:\n        /* \"#utility.yul\":28328:28329   */\n      0x00\n        /* \"#utility.yul\":28345:28365   */\n      tag_786\n        /* \"#utility.yul\":28363:28364   */\n      dup3\n        /* \"#utility.yul\":28345:28365   */\n      tag_397\n      jump\t// in\n    tag_786:\n        /* \"#utility.yul\":28340:28365   */\n      swap2\n      pop\n        /* \"#utility.yul\":28379:28399   */\n      tag_787\n        /* \"#utility.yul\":28397:28398   */\n      dup4\n        /* \"#utility.yul\":28379:28399   */\n      tag_397\n      jump\t// in\n    tag_787:\n        /* \"#utility.yul\":28374:28399   */\n      swap3\n      pop\n        /* \"#utility.yul\":28418:28419   */\n      dup3\n        /* \"#utility.yul\":28408:28443   */\n      tag_788\n      jumpi\n        /* \"#utility.yul\":28423:28441   */\n      tag_789\n      tag_476\n      jump\t// in\n    tag_789:\n        /* \"#utility.yul\":28408:28443   */\n    tag_788:\n        /* \"#utility.yul\":28464:28465   */\n      dup3\n        /* \"#utility.yul\":28461:28462   */\n      dup3\n        /* \"#utility.yul\":28457:28466   */\n      mod\n        /* \"#utility.yul\":28452:28466   */\n      swap1\n      pop\n        /* \"#utility.yul\":28296:28472   */\n      swap3\n      swap2\n      pop\n      pop\n      jump\t// out\n        /* \"#utility.yul\":28478:28658   */\n    tag_233:\n        /* \"#utility.yul\":28526:28603   */\n      0x4e487b7100000000000000000000000000000000000000000000000000000000\n        /* \"#utility.yul\":28523:28524   */\n      0x00\n        /* \"#utility.yul\":28516:28604   */\n      mstore\n        /* \"#utility.yul\":28623:28627   */\n      0x32\n        /* \"#utility.yul\":28620:28621   */\n      0x04\n        /* \"#utility.yul\":28613:28628   */\n      mstore\n        /* \"#utility.yul\":28647:28651   */\n      0x24\n        /* \"#utility.yul\":28644:28645   */\n      0x00\n        /* \"#utility.yul\":28637:28652   */\n      revert\n        /* \"#utility.yul\":28664:28849   */\n    tag_237:\n        /* \"#utility.yul\":28704:28705   */\n      0x00\n        /* \"#utility.yul\":28721:28741   */\n      tag_792\n        /* \"#utility.yul\":28739:28740   */\n      dup3\n        /* \"#utility.yul\":28721:28741   */\n      tag_397\n      jump\t// in\n    tag_792:\n        /* \"#utility.yul\":28716:28741   */\n      swap2\n      pop\n        /* \"#utility.yul\":28755:28775   */\n      tag_793\n        /* \"#utility.yul\":28773:28774   */\n      dup4\n        /* \"#utility.yul\":28755:28775   */\n      tag_397\n      jump\t// in\n    tag_793:\n        /* \"#utility.yul\":28750:28775   */\n      swap3\n      pop\n        /* \"#utility.yul\":28794:28795   */\n      dup3\n        /* \"#utility.yul\":28784:28819   */\n      tag_794\n      jumpi\n        /* \"#utility.yul\":28799:28817   */\n      tag_795\n      tag_476\n      jump\t// in\n    tag_795:\n        /* \"#utility.yul\":28784:28819   */\n    tag_794:\n        /* \"#utility.yul\":28841:28842   */\n      dup3\n        /* \"#utility.yul\":28838:28839   */\n      dup3\n        /* \"#utility.yul\":28834:28843   */\n      div\n        /* \"#utility.yul\":28829:28843   */\n      swap1\n      pop\n        /* \"#utility.yul\":28664:28849   */\n      swap3\n      swap2\n      pop\n      pop\n      jump\t// out\n        /* \"#utility.yul\":28855:28977   */\n    tag_477:\n        /* \"#utility.yul\":28928:28952   */\n      tag_797\n        /* \"#utility.yul\":28946:28951   */\n      dup2\n        /* \"#utility.yul\":28928:28952   */\n      tag_423\n      jump\t// in\n    tag_797:\n        /* \"#utility.yul\":28921:28926   */\n      dup2\n        /* \"#utility.yul\":28918:28953   */\n      eq\n        /* \"#utility.yul\":28908:28971   */\n      tag_798\n      jumpi\n        /* \"#utility.yul\":28967:28968   */\n      0x00\n        /* \"#utility.yul\":28964:28965   */\n      0x00\n        /* \"#utility.yul\":28957:28969   */\n      revert\n        /* \"#utility.yul\":28908:28971   */\n    tag_798:\n        /* \"#utility.yul\":28855:28977   */\n      pop\n      jump\t// out\n        /* \"#utility.yul\":28983:29126   */\n    tag_478:\n        /* \"#utility.yul\":29040:29045   */\n      0x00\n        /* \"#utility.yul\":29071:29077   */\n      dup2\n        /* \"#utility.yul\":29065:29078   */\n      mload\n        /* \"#utility.yul\":29056:29078   */\n      swap1\n      pop\n        /* \"#utility.yul\":29087:29120   */\n      tag_800\n        /* \"#utility.yul\":29114:29119   */\n      dup2\n        /* \"#utility.yul\":29087:29120   */\n      tag_477\n      jump\t// in\n    tag_800:\n        /* \"#utility.yul\":28983:29126   */\n      swap3\n      swap2\n      pop\n      pop\n      jump\t// out\n        /* \"#utility.yul\":29132:29483   */\n    tag_266:\n        /* \"#utility.yul\":29202:29208   */\n      0x00\n        /* \"#utility.yul\":29251:29253   */\n      0x20\n        /* \"#utility.yul\":29239:29248   */\n      dup3\n        /* \"#utility.yul\":29230:29237   */\n      dup5\n        /* \"#utility.yul\":29226:29249   */\n      sub\n        /* \"#utility.yul\":29222:29254   */\n      slt\n        /* \"#utility.yul\":29219:29338   */\n      iszero\n      tag_802\n      jumpi\n        /* \"#utility.yul\":29257:29336   */\n      tag_803\n      tag_395\n      jump\t// in\n    tag_803:\n        /* \"#utility.yul\":29219:29338   */\n    tag_802:\n        /* \"#utility.yul\":29377:29378   */\n      0x00\n        /* \"#utility.yul\":29402:29466   */\n      tag_804\n        /* \"#utility.yul\":29458:29465   */\n      dup5\n        /* \"#utility.yul\":29449:29455   */\n      dup3\n        /* \"#utility.yul\":29438:29447   */\n      dup6\n        /* \"#utility.yul\":29434:29456   */\n      add\n        /* \"#utility.yul\":29402:29466   */\n      tag_478\n      jump\t// in\n    tag_804:\n        /* \"#utility.yul\":29392:29466   */\n      swap2\n      pop\n        /* \"#utility.yul\":29348:29476   */\n      pop\n        /* \"#utility.yul\":29132:29483   */\n      swap3\n      swap2\n      pop\n      pop\n      jump\t// out\n        /* \"#utility.yul\":29489:29579   */\n    tag_479:\n        /* \"#utility.yul\":29523:29530   */\n      0x00\n        /* \"#utility.yul\":29566:29571   */\n      dup2\n        /* \"#utility.yul\":29559:29572   */\n      iszero\n        /* \"#utility.yul\":29552:29573   */\n      iszero\n        /* \"#utility.yul\":29541:29573   */\n      swap1\n      pop\n        /* \"#utility.yul\":29489:29579   */\n      swap2\n      swap1\n      pop\n      jump\t// out\n        /* \"#utility.yul\":29585:29701   */\n    tag_480:\n        /* \"#utility.yul\":29655:29676   */\n      tag_807\n        /* \"#utility.yul\":29670:29675   */\n      dup2\n        /* \"#utility.yul\":29655:29676   */\n      tag_479\n      jump\t// in\n    tag_807:\n        /* \"#utility.yul\":29648:29653   */\n      dup2\n        /* \"#utility.yul\":29645:29677   */\n      eq\n        /* \"#utility.yul\":29635:29695   */\n      tag_808\n      jumpi\n        /* \"#utility.yul\":29691:29692   */\n      0x00\n        /* \"#utility.yul\":29688:29689   */\n      0x00\n        /* \"#utility.yul\":29681:29693   */\n      revert\n        /* \"#utility.yul\":29635:29695   */\n    tag_808:\n        /* \"#utility.yul\":29585:29701   */\n      pop\n      jump\t// out\n        /* \"#utility.yul\":29707:29844   */\n    tag_481:\n        /* \"#utility.yul\":29761:29766   */\n      0x00\n        /* \"#utility.yul\":29792:29798   */\n      dup2\n        /* \"#utility.yul\":29786:29799   */\n      mload\n        /* \"#utility.yul\":29777:29799   */\n      swap1\n      pop\n        /* \"#utility.yul\":29808:29838   */\n      tag_810\n        /* \"#utility.yul\":29832:29837   */\n      dup2\n        /* \"#utility.yul\":29808:29838   */\n      tag_480\n      jump\t// in\n    tag_810:\n        /* \"#utility.yul\":29707:29844   */\n      swap3\n      swap2\n      pop\n      pop\n      jump\t// out\n        /* \"#utility.yul\":29850:30195   */\n    tag_295:\n        /* \"#utility.yul\":29917:29923   */\n      0x00\n        /* \"#utility.yul\":29966:29968   */\n      0x20\n        /* \"#utility.yul\":29954:29963   */\n      dup3\n        /* \"#utility.yul\":29945:29952   */\n      dup5\n        /* \"#utility.yul\":29941:29964   */\n      sub\n        /* \"#utility.yul\":29937:29969   */\n      slt\n        /* \"#utility.yul\":29934:30053   */\n      iszero\n      tag_812\n      jumpi\n        /* \"#utility.yul\":29972:30051   */\n      tag_813\n      tag_395\n      jump\t// in\n    tag_813:\n        /* \"#utility.yul\":29934:30053   */\n    tag_812:\n        /* \"#utility.yul\":30092:30093   */\n      0x00\n        /* \"#utility.yul\":30117:30178   */\n      tag_814\n        /* \"#utility.yul\":30170:30177   */\n      dup5\n        /* \"#utility.yul\":30161:30167   */\n      dup3\n        /* \"#utility.yul\":30150:30159   */\n      dup6\n        /* \"#utility.yul\":30146:30168   */\n      add\n        /* \"#utility.yul\":30117:30178   */\n      tag_481\n      jump\t// in\n    tag_814:\n        /* \"#utility.yul\":30107:30178   */\n      swap2\n      pop\n        /* \"#utility.yul\":30063:30188   */\n      pop\n        /* \"#utility.yul\":29850:30195   */\n      swap3\n      swap2\n      pop\n      pop\n      jump\t// out\n        /* \"#utility.yul\":30201:30430   */\n    tag_482:\n        /* \"#utility.yul\":30341:30375   */\n      0x5361666545524332303a204552433230206f7065726174696f6e20646964206e\n        /* \"#utility.yul\":30337:30338   */\n      0x00\n        /* \"#utility.yul\":30329:30335   */\n      dup3\n        /* \"#utility.yul\":30325:30339   */\n      add\n        /* \"#utility.yul\":30318:30376   */\n      mstore\n        /* \"#utility.yul\":30410:30422   */\n      0x6f74207375636365656400000000000000000000000000000000000000000000\n        /* \"#utility.yul\":30405:30407   */\n      0x20\n        /* \"#utility.yul\":30397:30403   */\n      dup3\n        /* \"#utility.yul\":30393:30408   */\n      add\n        /* \"#utility.yul\":30386:30423   */\n      mstore\n        /* \"#utility.yul\":30201:30430   */\n      pop\n      jump\t// out\n        /* \"#utility.yul\":30436:30802   */\n    tag_483:\n        /* \"#utility.yul\":30578:30581   */\n      0x00\n        /* \"#utility.yul\":30599:30666   */\n      tag_817\n        /* \"#utility.yul\":30663:30665   */\n      0x2a\n        /* \"#utility.yul\":30658:30661   */\n      dup4\n        /* \"#utility.yul\":30599:30666   */\n      tag_426\n      jump\t// in\n    tag_817:\n        /* \"#utility.yul\":30592:30666   */\n      swap2\n      pop\n        /* \"#utility.yul\":30675:30768   */\n      tag_818\n        /* \"#utility.yul\":30764:30767   */\n      dup3\n        /* \"#utility.yul\":30675:30768   */\n      tag_482\n      jump\t// in\n    tag_818:\n        /* \"#utility.yul\":30793:30795   */\n      0x40\n        /* \"#utility.yul\":30788:30791   */\n      dup3\n        /* \"#utility.yul\":30784:30796   */\n      add\n        /* \"#utility.yul\":30777:30796   */\n      swap1\n      pop\n        /* \"#utility.yul\":30436:30802   */\n      swap2\n      swap1\n      pop\n      jump\t// out\n        /* \"#utility.yul\":30808:31227   */\n    tag_298:\n        /* \"#utility.yul\":30974:30978   */\n      0x00\n        /* \"#utility.yul\":31012:31014   */\n      0x20\n        /* \"#utility.yul\":31001:31010   */\n      dup3\n        /* \"#utility.yul\":30997:31015   */\n      add\n        /* \"#utility.yul\":30989:31015   */\n      swap1\n      pop\n        /* \"#utility.yul\":31061:31070   */\n      dup2\n        /* \"#utility.yul\":31055:31059   */\n      dup2\n        /* \"#utility.yul\":31051:31071   */\n      sub\n        /* \"#utility.yul\":31047:31048   */\n      0x00\n        /* \"#utility.yul\":31036:31045   */\n      dup4\n        /* \"#utility.yul\":31032:31049   */\n      add\n        /* \"#utility.yul\":31025:31072   */\n      mstore\n        /* \"#utility.yul\":31089:31220   */\n      tag_820\n        /* \"#utility.yul\":31215:31219   */\n      dup2\n        /* \"#utility.yul\":31089:31220   */\n      tag_483\n      jump\t// in\n    tag_820:\n        /* \"#utility.yul\":31081:31220   */\n      swap1\n      pop\n        /* \"#utility.yul\":30808:31227   */\n      swap2\n      swap1\n      pop\n      jump\t// out\n        /* \"#utility.yul\":31233:31331   */\n    tag_484:\n        /* \"#utility.yul\":31284:31290   */\n      0x00\n        /* \"#utility.yul\":31318:31323   */\n      dup2\n        /* \"#utility.yul\":31312:31324   */\n      mload\n        /* \"#utility.yul\":31302:31324   */\n      swap1\n      pop\n        /* \"#utility.yul\":31233:31331   */\n      swap2\n      swap1\n      pop\n      jump\t// out\n        /* \"#utility.yul\":31337:31484   */\n    tag_485:\n        /* \"#utility.yul\":31438:31449   */\n      0x00\n        /* \"#utility.yul\":31475:31478   */\n      dup2\n        /* \"#utility.yul\":31460:31478   */\n      swap1\n      pop\n        /* \"#utility.yul\":31337:31484   */\n      swap3\n      swap2\n      pop\n      pop\n      jump\t// out\n        /* \"#utility.yul\":31490:31876   */\n    tag_486:\n        /* \"#utility.yul\":31594:31597   */\n      0x00\n        /* \"#utility.yul\":31622:31660   */\n      tag_824\n        /* \"#utility.yul\":31654:31659   */\n      dup3\n        /* \"#utility.yul\":31622:31660   */\n      tag_484\n      jump\t// in\n    tag_824:\n        /* \"#utility.yul\":31676:31764   */\n      tag_825\n        /* \"#utility.yul\":31757:31763   */\n      dup2\n        /* \"#utility.yul\":31752:31755   */\n      dup6\n        /* \"#utility.yul\":31676:31764   */\n      tag_485\n      jump\t// in\n    tag_825:\n        /* \"#utility.yul\":31669:31764   */\n      swap4\n      pop\n        /* \"#utility.yul\":31773:31838   */\n      tag_826\n        /* \"#utility.yul\":31831:31837   */\n      dup2\n        /* \"#utility.yul\":31826:31829   */\n      dup6\n        /* \"#utility.yul\":31819:31823   */\n      0x20\n        /* \"#utility.yul\":31812:31817   */\n      dup7\n        /* \"#utility.yul\":31808:31824   */\n      add\n        /* \"#utility.yul\":31773:31838   */\n      tag_427\n      jump\t// in\n    tag_826:\n        /* \"#utility.yul\":31863:31869   */\n      dup1\n        /* \"#utility.yul\":31858:31861   */\n      dup5\n        /* \"#utility.yul\":31854:31870   */\n      add\n        /* \"#utility.yul\":31847:31870   */\n      swap2\n      pop\n        /* \"#utility.yul\":31598:31876   */\n      pop\n        /* \"#utility.yul\":31490:31876   */\n      swap3\n      swap2\n      pop\n      pop\n      jump\t// out\n        /* \"#utility.yul\":31882:32153   */\n    tag_301:\n        /* \"#utility.yul\":32012:32015   */\n      0x00\n        /* \"#utility.yul\":32034:32127   */\n      tag_828\n        /* \"#utility.yul\":32123:32126   */\n      dup3\n        /* \"#utility.yul\":32114:32120   */\n      dup5\n        /* \"#utility.yul\":32034:32127   */\n      tag_486\n      jump\t// in\n    tag_828:\n        /* \"#utility.yul\":32027:32127   */\n      swap2\n      pop\n        /* \"#utility.yul\":32144:32147   */\n      dup2\n        /* \"#utility.yul\":32137:32147   */\n      swap1\n      pop\n        /* \"#utility.yul\":31882:32153   */\n      swap3\n      swap2\n      pop\n      pop\n      jump\t// out\n        /* \"#utility.yul\":32159:32384   */\n    tag_487:\n        /* \"#utility.yul\":32299:32333   */\n      0x416464726573733a20696e73756666696369656e742062616c616e636520666f\n        /* \"#utility.yul\":32295:32296   */\n      0x00\n        /* \"#utility.yul\":32287:32293   */\n      dup3\n        /* \"#utility.yul\":32283:32297   */\n      add\n        /* \"#utility.yul\":32276:32334   */\n      mstore\n        /* \"#utility.yul\":32368:32376   */\n      0x722063616c6c0000000000000000000000000000000000000000000000000000\n        /* \"#utility.yul\":32363:32365   */\n      0x20\n        /* \"#utility.yul\":32355:32361   */\n      dup3\n        /* \"#utility.yul\":32351:32366   */\n      add\n        /* \"#utility.yul\":32344:32377   */\n      mstore\n        /* \"#utility.yul\":32159:32384   */\n      pop\n      jump\t// out\n        /* \"#utility.yul\":32390:32756   */\n    tag_488:\n        /* \"#utility.yul\":32532:32535   */\n      0x00\n        /* \"#utility.yul\":32553:32620   */\n      tag_831\n        /* \"#utility.yul\":32617:32619   */\n      0x26\n        /* \"#utility.yul\":32612:32615   */\n      dup4\n        /* \"#utility.yul\":32553:32620   */\n      tag_426\n      jump\t// in\n    tag_831:\n        /* \"#utility.yul\":32546:32620   */\n      swap2\n      pop\n        /* \"#utility.yul\":32629:32722   */\n      tag_832\n        /* \"#utility.yul\":32718:32721   */\n      dup3\n        /* \"#utility.yul\":32629:32722   */\n      tag_487\n      jump\t// in\n    tag_832:\n        /* \"#utility.yul\":32747:32749   */\n      0x40\n        /* \"#utility.yul\":32742:32745   */\n      dup3\n        /* \"#utility.yul\":32738:32750   */\n      add\n        /* \"#utility.yul\":32731:32750   */\n      swap1\n      pop\n        /* \"#utility.yul\":32390:32756   */\n      swap2\n      swap1\n      pop\n      jump\t// out\n        /* \"#utility.yul\":32762:33181   */\n    tag_362:\n        /* \"#utility.yul\":32928:32932   */\n      0x00\n        /* \"#utility.yul\":32966:32968   */\n      0x20\n        /* \"#utility.yul\":32955:32964   */\n      dup3\n        /* \"#utility.yul\":32951:32969   */\n      add\n        /* \"#utility.yul\":32943:32969   */\n      swap1\n      pop\n        /* \"#utility.yul\":33015:33024   */\n      dup2\n        /* \"#utility.yul\":33009:33013   */\n      dup2\n        /* \"#utility.yul\":33005:33025   */\n      sub\n        /* \"#utility.yul\":33001:33002   */\n      0x00\n        /* \"#utility.yul\":32990:32999   */\n      dup4\n        /* \"#utility.yul\":32986:33003   */\n      add\n        /* \"#utility.yul\":32979:33026   */\n      mstore\n        /* \"#utility.yul\":33043:33174   */\n      tag_834\n        /* \"#utility.yul\":33169:33173   */\n      dup2\n        /* \"#utility.yul\":33043:33174   */\n      tag_488\n      jump\t// in\n    tag_834:\n        /* \"#utility.yul\":33035:33174   */\n      swap1\n      pop\n        /* \"#utility.yul\":32762:33181   */\n      swap2\n      swap1\n      pop\n      jump\t// out\n        /* \"#utility.yul\":33187:33366   */\n    tag_489:\n        /* \"#utility.yul\":33327:33358   */\n      0x416464726573733a2063616c6c20746f206e6f6e2d636f6e7472616374000000\n        /* \"#utility.yul\":33323:33324   */\n      0x00\n        /* \"#utility.yul\":33315:33321   */\n      dup3\n        /* \"#utility.yul\":33311:33325   */\n      add\n        /* \"#utility.yul\":33304:33359   */\n      mstore\n        /* \"#utility.yul\":33187:33366   */\n      pop\n      jump\t// out\n        /* \"#utility.yul\":33372:33738   */\n    tag_490:\n        /* \"#utility.yul\":33514:33517   */\n      0x00\n        /* \"#utility.yul\":33535:33602   */\n      tag_837\n        /* \"#utility.yul\":33599:33601   */\n      0x1d\n        /* \"#utility.yul\":33594:33597   */\n      dup4\n        /* \"#utility.yul\":33535:33602   */\n      tag_426\n      jump\t// in\n    tag_837:\n        /* \"#utility.yul\":33528:33602   */\n      swap2\n      pop\n        /* \"#utility.yul\":33611:33704   */\n      tag_838\n        /* \"#utility.yul\":33700:33703   */\n      dup3\n        /* \"#utility.yul\":33611:33704   */\n      tag_489\n      jump\t// in\n    tag_838:\n        /* \"#utility.yul\":33729:33731   */\n      0x20\n        /* \"#utility.yul\":33724:33727   */\n      dup3\n        /* \"#utility.yul\":33720:33732   */\n      add\n        /* \"#utility.yul\":33713:33732   */\n      swap1\n      pop\n        /* \"#utility.yul\":33372:33738   */\n      swap2\n      swap1\n      pop\n      jump\t// out\n        /* \"#utility.yul\":33744:34163   */\n    tag_383:\n        /* \"#utility.yul\":33910:33914   */\n      0x00\n        /* \"#utility.yul\":33948:33950   */\n      0x20\n        /* \"#utility.yul\":33937:33946   */\n      dup3\n        /* \"#utility.yul\":33933:33951   */\n      add\n        /* \"#utility.yul\":33925:33951   */\n      swap1\n      pop\n        /* \"#utility.yul\":33997:34006   */\n      dup2\n        /* \"#utility.yul\":33991:33995   */\n      dup2\n        /* \"#utility.yul\":33987:34007   */\n      sub\n        /* \"#utility.yul\":33983:33984   */\n      0x00\n        /* \"#utility.yul\":33972:33981   */\n      dup4\n        /* \"#utility.yul\":33968:33985   */\n      add\n        /* \"#utility.yul\":33961:34008   */\n      mstore\n        /* \"#utility.yul\":34025:34156   */\n      tag_840\n        /* \"#utility.yul\":34151:34155   */\n      dup2\n        /* \"#utility.yul\":34025:34156   */\n      tag_490\n      jump\t// in\n    tag_840:\n        /* \"#utility.yul\":34017:34156   */\n      swap1\n      pop\n        /* \"#utility.yul\":33744:34163   */\n      swap2\n      swap1\n      pop\n      jump\t// out\n    stop\n    data_aad385f9ef490de6f63bbbec6ad31ed8093d8d122d15a621c03d319331d68b03 303132333435363738394142434445464748494a4b4c4d4e4f505152535455565758595a\n\n    auxdata: 0xa2646970667358221220e958d7f3b15209ce5db307e66157f13838329ff3264c52600cc0abe0345d027d64736f6c634300081f0033\n}\n",
				"bytecode": {
					"linkReferences": {},
					"object": "60a06040523073ffffffffffffffffffffffffffffffffffffffff1660809073ffffffffffffffffffffffffffffffffffffffff16815250348015610042575f5ffd5b5061005161005660201b60201c565b6101d1565b5f61006561015460201b60201c565b9050805f0160089054906101000a900460ff16156100af576040517ff92ee8a900000000000000000000000000000000000000000000000000000000815260040160405180910390fd5b67ffffffffffffffff8016815f015f9054906101000a900467ffffffffffffffff1667ffffffffffffffff16146101515767ffffffffffffffff815f015f6101000a81548167ffffffffffffffff021916908367ffffffffffffffff1602179055507fc7f505b2f371ae2175ee4913f4499e1f2633a7b5936321eed1cdaeb6115181d267ffffffffffffffff60405161014891906101b8565b60405180910390a15b50565b5f5f61016461016d60201b60201c565b90508091505090565b5f7ff0c57e16840df040f15088dc2f81fe391c3923bec73e23a9662efc9c229c6a005f1b905090565b5f67ffffffffffffffff82169050919050565b6101b281610196565b82525050565b5f6020820190506101cb5f8301846101a9565b92915050565b6080516130776101f75f395f81816112d20152818161132701526114e101526130775ff3fe6080604052600436106100e7575f3560e01c8063715018a6116100895780639932dc05116100585780639932dc0514610293578063ad3cb1cc146102cf578063c4f74631146102f9578063f2fde38b14610335576100e7565b8063715018a6146101ff57806371cd28b4146102155780638da5cb5b1461023f57806397da7af714610269576100e7565b80632e108d1c116100c55780632e108d1c1461017b578063485cc955146101915780634f1ef286146101b957806352d1902d146101d5576100e7565b8063040d02e4146100eb57806311eac855146101135780631959a0021461013d575b5f5ffd5b3480156100f6575f5ffd5b50610111600480360381019061010c9190612019565b61035d565b005b34801561011e575f5ffd5b5061012761076a565b60405161013491906120ed565b60405180910390f35b348015610148575f5ffd5b50610163600480360381019061015e9190612141565b61078e565b6040516101729392919061218a565b60405180910390f35b348015610186575f5ffd5b5061018f6107d3565b005b34801561019c575f5ffd5b506101b760048036038101906101b291906121bf565b610a0c565b005b6101d360048036038101906101ce919061229b565b610c1d565b005b3480156101e0575f5ffd5b506101e9610c3c565b6040516101f6919061230d565b60405180910390f35b34801561020a575f5ffd5b50610213610c6d565b005b348015610220575f5ffd5b50610229610c80565b6040516102369190612386565b60405180910390f35b34801561024a575f5ffd5b50610253610d4b565b60405161026091906123a6565b60405180910390f35b348015610274575f5ffd5b5061027d610d80565b60405161028a91906123df565b60405180910390f35b34801561029e575f5ffd5b506102b960048036038101906102b491906123f8565b610da5565b6040516102c691906123a6565b60405180910390f35b3480156102da575f5ffd5b506102e3610ded565b6040516102f09190612386565b60405180910390f35b348015610304575f5ffd5b5061031f600480360381019061031a9190612141565b610e26565b60405161032c9190612386565b60405180910390f35b348015610340575f5ffd5b5061035b60048036038101906103569190612141565b610ec1565b005b610365610f45565b5f82116103a7576040517f08c379a000000000000000000000000000000000000000000000000000000000815260040161039e90612489565b60405180910390fd5b5f8151116103ea576040517f08c379a00000000000000000000000000000000000000000000000000000000081526004016103e190612517565b60405180910390fd5b5f6002826040516103fb919061256f565b90815260200160405180910390205f9054906101000a900473ffffffffffffffffffffffffffffffffffffffff1690505f73ffffffffffffffffffffffffffffffffffffffff168173ffffffffffffffffffffffffffffffffffffffff1603610499576040517f08c379a0000000000000000000000000000000000000000000000000000000008152600401610490906125cf565b60405180910390fd5b3373ffffffffffffffffffffffffffffffffffffffff168173ffffffffffffffffffffffffffffffffffffffff1603610507576040517f08c379a00000000000000000000000000000000000000000000000000000000081526004016104fe90612637565b60405180910390fd5b5f60045f3373ffffffffffffffffffffffffffffffffffffffff1673ffffffffffffffffffffffffffffffffffffffff1681526020019081526020015f2090505f815f0154036105945781816002015f6101000a81548173ffffffffffffffffffffffffffffffffffffffff021916908373ffffffffffffffffffffffffffffffffffffffff1602179055505b83815f015f8282546105a69190612682565b925050819055504281600101819055506106033330865f5f9054906101000a900473ffffffffffffffffffffffffffffffffffffffff1673ffffffffffffffffffffffffffffffffffffffff16610f99909392919063ffffffff16565b61066f60015f9054906101000a900473ffffffffffffffffffffffffffffffffffffffff16855f5f9054906101000a900473ffffffffffffffffffffffffffffffffffffffff1673ffffffffffffffffffffffffffffffffffffffff166110229092919063ffffffff16565b60015f9054906101000a900473ffffffffffffffffffffffffffffffffffffffff1673ffffffffffffffffffffffffffffffffffffffff16636e553f6585306040518363ffffffff1660e01b81526004016106cb9291906126b5565b6020604051808303815f875af11580156106e7573d5f5f3e3d5ffd5b505050506040513d601f19601f8201168201806040525081019061070b91906126f0565b503373ffffffffffffffffffffffffffffffffffffffff167f6a1db4f0607dd89cd0ee9ef3676c9521b6c9ce054afb4d659365a683e34030aa858560405161075492919061271b565b60405180910390a2505061076661113d565b5050565b5f5f9054906101000a900473ffffffffffffffffffffffffffffffffffffffff1681565b6004602052805f5260405f205f91509050805f015490806001015490806002015f9054906101000a900473ffffffffffffffffffffffffffffffffffffffff16905083565b5f60035f3373ffffffffffffffffffffffffffffffffffffffff1673ffffffffffffffffffffffffffffffffffffffff1681526020019081526020015f20805461081c90612776565b90501461085e576040517f08c379a0000000000000000000000000000000000000000000000000000000008152600401610855906127f0565b60405180910390fd5b5f610867611154565b90505f73ffffffffffffffffffffffffffffffffffffffff16600282604051610890919061256f565b90815260200160405180910390205f9054906101000a900473ffffffffffffffffffffffffffffffffffffffff1673ffffffffffffffffffffffffffffffffffffffff1614610914576040517f08c379a000000000000000000000000000000000000000000000000000000000815260040161090b9061287e565b60405180910390fd5b33600282604051610925919061256f565b90815260200160405180910390205f6101000a81548173ffffffffffffffffffffffffffffffffffffffff021916908373ffffffffffffffffffffffffffffffffffffffff1602179055508060035f3373ffffffffffffffffffffffffffffffffffffffff1673ffffffffffffffffffffffffffffffffffffffff1681526020019081526020015f2090816109ba9190612a33565b503373ffffffffffffffffffffffffffffffffffffffff167fbbba1cab2093e26ee6b388fefb2109576871f9236f9c1f22779dad4b82093b7b82604051610a019190612386565b60405180910390a250565b5f610a1561128d565b90505f815f0160089054906101000a900460ff161590505f825f015f9054906101000a900467ffffffffffffffff1690505f5f8267ffffffffffffffff16148015610a5d5750825b90505f60018367ffffffffffffffff16148015610a9057505f3073ffffffffffffffffffffffffffffffffffffffff163b145b905081158015610a9e575080155b15610ad5576040517ff92ee8a900000000000000000000000000000000000000000000000000000000815260040160405180910390fd5b6001855f015f6101000a81548167ffffffffffffffff021916908367ffffffffffffffff1602179055508315610b22576001855f0160086101000a81548160ff0219169083151502179055505b610b2b336112a0565b610b336112b4565b610b3b6112c6565b865f5f6101000a81548173ffffffffffffffffffffffffffffffffffffffff021916908373ffffffffffffffffffffffffffffffffffffffff1602179055508560015f6101000a81548173ffffffffffffffffffffffffffffffffffffffff021916908373ffffffffffffffffffffffffffffffffffffffff1602179055508315610c14575f855f0160086101000a81548160ff0219169083151502179055507fc7f505b2f371ae2175ee4913f4499e1f2633a7b5936321eed1cdaeb6115181d26001604051610c0b9190612b4e565b60405180910390a15b50505050505050565b610c256112d0565b610c2e826113b6565b610c3882826113c1565b5050565b5f610c456114df565b7f360894a13ba1a3210667c828492db98dca3e2076cc3735a920a3ca505d382bbc5f1b905090565b610c75611566565b610c7e5f6115ed565b565b606060035f3373ffffffffffffffffffffffffffffffffffffffff1673ffffffffffffffffffffffffffffffffffffffff1681526020019081526020015f208054610cca90612776565b80601f0160208091040260200160405190810160405280929190818152602001828054610cf690612776565b8015610d415780601f10610d1857610100808354040283529160200191610d41565b820191905f5260205f20905b815481529060010190602001808311610d2457829003601f168201915b5050505050905090565b5f5f610d556116be565b9050805f015f9054906101000a900473ffffffffffffffffffffffffffffffffffffffff1691505090565b60015f9054906101000a900473ffffffffffffffffffffffffffffffffffffffff1681565b6002818051602081018201805184825260208301602085012081835280955050505050505f915054906101000a900473ffffffffffffffffffffffffffffffffffffffff1681565b6040518060400160405280600581526020017f352e302e3000000000000000000000000000000000000000000000000000000081525081565b6003602052805f5260405f205f915090508054610e4290612776565b80601f0160208091040260200160405190810160405280929190818152602001828054610e6e90612776565b8015610eb95780601f10610e9057610100808354040283529160200191610eb9565b820191905f5260205f20905b815481529060010190602001808311610e9c57829003601f168201915b505050505081565b610ec9611566565b5f73ffffffffffffffffffffffffffffffffffffffff168173ffffffffffffffffffffffffffffffffffffffff1603610f39575f6040517f1e4fbdf7000000000000000000000000000000000000000000000000000000008152600401610f3091906123a6565b60405180910390fd5b610f42816115ed565b50565b5f610f4e6116e5565b90506002815f015403610f8d576040517f3ee5aeb500000000000000000000000000000000000000000000000000000000815260040160405180910390fd5b6002815f018190555050565b61101c846323b872dd60e01b858585604051602401610fba93929190612b67565b604051602081830303815290604052907bffffffffffffffffffffffffffffffffffffffffffffffffffffffff19166020820180517bffffffffffffffffffffffffffffffffffffffffffffffffffffffff838183161783525050505061170c565b50505050565b5f63095ea7b360e01b838360405160240161103e929190612b9c565b604051602081830303815290604052907bffffffffffffffffffffffffffffffffffffffffffffffffffffffff19166020820180517bffffffffffffffffffffffffffffffffffffffffffffffffffffffff838183161783525050505090506110a784826117d2565b6111375761112c8463095ea7b360e01b855f6040516024016110ca929190612c08565b604051602081830303815290604052907bffffffffffffffffffffffffffffffffffffffffffffffffffffffff19166020820180517bffffffffffffffffffffffffffffffffffffffffffffffffffffffff838183161783525050505061170c565b611136848261170c565b5b50505050565b5f6111466116e5565b90506001815f018190555050565b60605f600767ffffffffffffffff81111561117257611171611ef5565b5b6040519080825280601f01601f1916602001820160405280156111a45781602001600182028036833780820191505090505b5090505f3342446040516020016111bd93929190612c94565b604051602081830303815290604052805190602001205f1c90505f5f90505b60078110156112845760405180606001604052806024815260200161301e6024913960248361120b9190612cfd565b8151811061121c5761121b612d2d565b5b602001015160f81c60f81b83828151811061123a57611239612d2d565b5b60200101907effffffffffffffffffffffffffffffffffffffffffffffffffffffffffffff191690815f1a9053506024826112759190612d5a565b915080806001019150506111dc565b50819250505090565b5f5f611297611880565b90508091505090565b6112a86118a9565b6112b1816118e9565b50565b6112bc6118a9565b6112c461196d565b565b6112ce6118a9565b565b7f000000000000000000000000000000000000000000000000000000000000000073ffffffffffffffffffffffffffffffffffffffff163073ffffffffffffffffffffffffffffffffffffffff16148061137d57507f000000000000000000000000000000000000000000000000000000000000000073ffffffffffffffffffffffffffffffffffffffff1661136461198c565b73ffffffffffffffffffffffffffffffffffffffff1614155b156113b4576040517fe07c8dba00000000000000000000000000000000000000000000000000000000815260040160405180910390fd5b565b6113be611566565b50565b8173ffffffffffffffffffffffffffffffffffffffff166352d1902d6040518163ffffffff1660e01b8152600401602060405180830381865afa92505050801561142957506040513d601f19601f820116820180604052508101906114269190612db4565b60015b61146a57816040517f4c9c8ce300000000000000000000000000000000000000000000000000000000815260040161146191906123a6565b60405180910390fd5b7f360894a13ba1a3210667c828492db98dca3e2076cc3735a920a3ca505d382bbc5f1b81146114d057806040517faa1d49a40000000000000000000000000000000000000000000000000000000081526004016114c7919061230d565b60405180910390fd5b6114da83836119df565b505050565b7f000000000000000000000000000000000000000000000000000000000000000073ffffffffffffffffffffffffffffffffffffffff163073ffffffffffffffffffffffffffffffffffffffff1614611564576040517fe07c8dba00000000000000000000000000000000000000000000000000000000815260040160405180910390fd5b565b61156e611a51565b73ffffffffffffffffffffffffffffffffffffffff1661158c610d4b565b73ffffffffffffffffffffffffffffffffffffffff16146115eb576115af611a51565b6040517f118cdaa70000000000000000000000000000000000000000000000000000000081526004016115e291906123a6565b60405180910390fd5b565b5f6115f66116be565b90505f815f015f9054906101000a900473ffffffffffffffffffffffffffffffffffffffff16905082825f015f6101000a81548173ffffffffffffffffffffffffffffffffffffffff021916908373ffffffffffffffffffffffffffffffffffffffff1602179055508273ffffffffffffffffffffffffffffffffffffffff168173ffffffffffffffffffffffffffffffffffffffff167f8be0079c531659141344cd1fd0a4f28419497f9722a3daafe3b4186f6b6457e060405160405180910390a3505050565b5f7f9016d09d72d40fdae2fd8ceac6b6234c7706214fd39c1cd1e609a0528c199300905090565b5f7f9b779b17422d0df92223018b32b4d1fa46e071723d6817e2486d003becc55f00905090565b5f61176d826040518060400160405280602081526020017f5361666545524332303a206c6f772d6c6576656c2063616c6c206661696c65648152508573ffffffffffffffffffffffffffffffffffffffff16611a589092919063ffffffff16565b90505f8151148061178e57508080602001905181019061178d9190612e14565b5b6117cd576040517f08c379a00000000000000000000000000000000000000000000000000000000081526004016117c490612eaf565b60405180910390fd5b505050565b5f5f5f8473ffffffffffffffffffffffffffffffffffffffff16846040516117fa9190612f11565b5f604051808303815f865af19150503d805f8114611833576040519150601f19603f3d011682016040523d82523d5f602084013e611838565b606091505b509150915081801561186557505f815114806118645750808060200190518101906118639190612e14565b5b5b8015611876575061187585611a6f565b5b9250505092915050565b5f7ff0c57e16840df040f15088dc2f81fe391c3923bec73e23a9662efc9c229c6a005f1b905090565b6118b1611a91565b6118e7576040517fd7e6bcf800000000000000000000000000000000000000000000000000000000815260040160405180910390fd5b565b6118f16118a9565b5f73ffffffffffffffffffffffffffffffffffffffff168173ffffffffffffffffffffffffffffffffffffffff1603611961575f6040517f1e4fbdf700000000000000000000000000000000000000000000000000000000815260040161195891906123a6565b60405180910390fd5b61196a816115ed565b50565b6119756118a9565b5f61197e6116e5565b90506001815f018190555050565b5f6119b87f360894a13ba1a3210667c828492db98dca3e2076cc3735a920a3ca505d382bbc5f1b611aaf565b5f015f9054906101000a900473ffffffffffffffffffffffffffffffffffffffff16905090565b6119e882611ab8565b8173ffffffffffffffffffffffffffffffffffffffff167fbc7cd75a20ee27fd9adebab32041f755214dbc6bffa90cc0225b39da2e5c2d3b60405160405180910390a25f81511115611a4457611a3e8282611b81565b50611a4d565b611a4c611c01565b5b5050565b5f33905090565b6060611a6684845f85611c3d565b90509392505050565b5f5f8273ffffffffffffffffffffffffffffffffffffffff163b119050919050565b5f611a9a61128d565b5f0160089054906101000a900460ff16905090565b5f819050919050565b5f8173ffffffffffffffffffffffffffffffffffffffff163b03611b1357806040517f4c9c8ce3000000000000000000000000000000000000000000000000000000008152600401611b0a91906123a6565b60405180910390fd5b80611b3f7f360894a13ba1a3210667c828492db98dca3e2076cc3735a920a3ca505d382bbc5f1b611aaf565b5f015f6101000a81548173ffffffffffffffffffffffffffffffffffffffff021916908373ffffffffffffffffffffffffffffffffffffffff16021790555050565b60605f5f8473ffffffffffffffffffffffffffffffffffffffff1684604051611baa9190612f11565b5f60405180830381855af49150503d805f8114611be2576040519150601f19603f3d011682016040523d82523d5f602084013e611be7565b606091505b5091509150611bf7858383611d06565b9250505092915050565b5f341115611c3b576040517fb398979f00000000000000000000000000000000000000000000000000000000815260040160405180910390fd5b565b606082471015611c82576040517f08c379a0000000000000000000000000000000000000000000000000000000008152600401611c7990612f97565b60405180910390fd5b5f5f8673ffffffffffffffffffffffffffffffffffffffff168587604051611caa9190612f11565b5f6040518083038185875af1925050503d805f8114611ce4576040519150601f19603f3d011682016040523d82523d5f602084013e611ce9565b606091505b5091509150611cfa87838387611d93565b92505050949350505050565b606082611d1b57611d1682611e07565b611d8b565b5f8251148015611d4157505f8473ffffffffffffffffffffffffffffffffffffffff163b145b15611d8357836040517f9996b315000000000000000000000000000000000000000000000000000000008152600401611d7a91906123a6565b60405180910390fd5b819050611d8c565b5b9392505050565b60608315611df4575f835103611dec57611dac85611a6f565b611deb576040517f08c379a0000000000000000000000000000000000000000000000000000000008152600401611de290612fff565b60405180910390fd5b5b829050611dff565b611dfe8383611e4a565b5b949350505050565b5f81511115611e1857805160208201fd5b6040517fd6bda27500000000000000000000000000000000000000000000000000000000815260040160405180910390fd5b5f82511115611e5c5781518083602001fd5b806040517f08c379a0000000000000000000000000000000000000000000000000000000008152600401611e909190612386565b60405180910390fd5b5f604051905090565b5f5ffd5b5f5ffd5b5f819050919050565b611ebc81611eaa565b8114611ec6575f5ffd5b50565b5f81359050611ed781611eb3565b92915050565b5f5ffd5b5f5ffd5b5f601f19601f8301169050919050565b7f4e487b71000000000000000000000000000000000000000000000000000000005f52604160045260245ffd5b611f2b82611ee5565b810181811067ffffffffffffffff82111715611f4a57611f49611ef5565b5b80604052505050565b5f611f5c611e99565b9050611f688282611f22565b919050565b5f67ffffffffffffffff821115611f8757611f86611ef5565b5b611f9082611ee5565b9050602081019050919050565b828183375f83830152505050565b5f611fbd611fb884611f6d565b611f53565b905082815260208101848484011115611fd957611fd8611ee1565b5b611fe4848285611f9d565b509392505050565b5f82601f83011261200057611fff611edd565b5b8135612010848260208601611fab565b91505092915050565b5f5f6040838503121561202f5761202e611ea2565b5b5f61203c85828601611ec9565b925050602083013567ffffffffffffffff81111561205d5761205c611ea6565b5b61206985828601611fec565b9150509250929050565b5f73ffffffffffffffffffffffffffffffffffffffff82169050919050565b5f819050919050565b5f6120b56120b06120ab84612073565b612092565b612073565b9050919050565b5f6120c68261209b565b9050919050565b5f6120d7826120bc565b9050919050565b6120e7816120cd565b82525050565b5f6020820190506121005f8301846120de565b92915050565b5f61211082612073565b9050919050565b61212081612106565b811461212a575f5ffd5b50565b5f8135905061213b81612117565b92915050565b5f6020828403121561215657612155611ea2565b5b5f6121638482850161212d565b91505092915050565b61217581611eaa565b82525050565b61218481612106565b82525050565b5f60608201905061219d5f83018661216c565b6121aa602083018561216c565b6121b7604083018461217b565b949350505050565b5f5f604083850312156121d5576121d4611ea2565b5b5f6121e28582860161212d565b92505060206121f38582860161212d565b9150509250929050565b5f67ffffffffffffffff82111561221757612216611ef5565b5b61222082611ee5565b9050602081019050919050565b5f61223f61223a846121fd565b611f53565b90508281526020810184848401111561225b5761225a611ee1565b5b612266848285611f9d565b509392505050565b5f82601f83011261228257612281611edd565b5b813561229284826020860161222d565b91505092915050565b5f5f604083850312156122b1576122b0611ea2565b5b5f6122be8582860161212d565b925050602083013567ffffffffffffffff8111156122df576122de611ea6565b5b6122eb8582860161226e565b9150509250929050565b5f819050919050565b612307816122f5565b82525050565b5f6020820190506123205f8301846122fe565b92915050565b5f81519050919050565b5f82825260208201905092915050565b8281835e5f83830152505050565b5f61235882612326565b6123628185612330565b9350612372818560208601612340565b61237b81611ee5565b840191505092915050565b5f6020820190508181035f83015261239e818461234e565b905092915050565b5f6020820190506123b95f83018461217b565b92915050565b5f6123c9826120bc565b9050919050565b6123d9816123bf565b82525050565b5f6020820190506123f25f8301846123d0565b92915050565b5f6020828403121561240d5761240c611ea2565b5b5f82013567ffffffffffffffff81111561242a57612429611ea6565b5b61243684828501611fec565b91505092915050565b7f5a61704170793a20416d6f756e74206d757374206265203e20300000000000005f82015250565b5f612473601a83612330565b915061247e8261243f565b602082019050919050565b5f6020820190508181035f8301526124a081612467565b9050919050565b7f5a61704170793a20526566657272616c20436f646520697320524551554952455f8201527f4400000000000000000000000000000000000000000000000000000000000000602082015250565b5f612501602183612330565b915061250c826124a7565b604082019050919050565b5f6020820190508181035f83015261252e816124f5565b9050919050565b5f81905092915050565b5f61254982612326565b6125538185612535565b9350612563818560208601612340565b80840191505092915050565b5f61257a828461253f565b915081905092915050565b7f5a61704170793a20496e76616c696420526566657272616c20436f64650000005f82015250565b5f6125b9601d83612330565b91506125c482612585565b602082019050919050565b5f6020820190508181035f8301526125e6816125ad565b9050919050565b7f5a61704170793a2043616e6e6f7420726566657220796f757273656c660000005f82015250565b5f612621601d83612330565b915061262c826125ed565b602082019050919050565b5f6020820190508181035f83015261264e81612615565b9050919050565b7f4e487b71000000000000000000000000000000000000000000000000000000005f52601160045260245ffd5b5f61268c82611eaa565b915061269783611eaa565b92508282019050808211156126af576126ae612655565b5b92915050565b5f6040820190506126c85f83018561216c565b6126d5602083018461217b565b9392505050565b5f815190506126ea81611eb3565b92915050565b5f6020828403121561270557612704611ea2565b5b5f612712848285016126dc565b91505092915050565b5f60408201905061272e5f83018561216c565b8181036020830152612740818461234e565b90509392505050565b7f4e487b71000000000000000000000000000000000000000000000000000000005f52602260045260245ffd5b5f600282049050600182168061278d57607f821691505b6020821081036127a05761279f612749565b5b50919050565b7f5a61704170793a20596f7520616c72656164792068617665206120636f6465005f82015250565b5f6127da601f83612330565b91506127e5826127a6565b602082019050919050565b5f6020820190508181035f830152612807816127ce565b9050919050565b7f5a61704170793a20436f646520636f6c6c6973696f6e2c2074727920616761695f8201527f6e00000000000000000000000000000000000000000000000000000000000000602082015250565b5f612868602183612330565b91506128738261280e565b604082019050919050565b5f6020820190508181035f8301526128958161285c565b9050919050565b5f819050815f5260205f209050919050565b5f6020601f8301049050919050565b5f82821b905092915050565b5f600883026128f87fffffffffffffffffffffffffffffffffffffffffffffffffffffffffffffffff826128bd565b61290286836128bd565b95508019841693508086168417925050509392505050565b5f61293461292f61292a84611eaa565b612092565b611eaa565b9050919050565b5f819050919050565b61294d8361291a565b6129616129598261293b565b8484546128c9565b825550505050565b5f5f905090565b612978612969565b612983818484612944565b505050565b5b818110156129a65761299b5f82612970565b600181019050612989565b5050565b601f8211156129eb576129bc8161289c565b6129c5846128ae565b810160208510156129d4578190505b6129e86129e0856128ae565b830182612988565b50505b505050565b5f82821c905092915050565b5f612a0b5f19846008026129f0565b1980831691505092915050565b5f612a2383836129fc565b9150826002028217905092915050565b612a3c82612326565b67ffffffffffffffff811115612a5557612a54611ef5565b5b612a5f8254612776565b612a6a8282856129aa565b5f60209050601f831160018114612a9b575f8415612a89578287015190505b612a938582612a18565b865550612afa565b601f198416612aa98661289c565b5f5b82811015612ad057848901518255600182019150602085019450602081019050612aab565b86831015612aed5784890151612ae9601f8916826129fc565b8355505b6001600288020188555050505b505050505050565b5f819050919050565b5f67ffffffffffffffff82169050919050565b5f612b38612b33612b2e84612b02565b612092565b612b0b565b9050919050565b612b4881612b1e565b82525050565b5f602082019050612b615f830184612b3f565b92915050565b5f606082019050612b7a5f83018661217b565b612b87602083018561217b565b612b94604083018461216c565b949350505050565b5f604082019050612baf5f83018561217b565b612bbc602083018461216c565b9392505050565b5f819050919050565b5f60ff82169050919050565b5f612bf2612bed612be884612bc3565b612092565b612bcc565b9050919050565b612c0281612bd8565b82525050565b5f604082019050612c1b5f83018561217b565b612c286020830184612bf9565b9392505050565b5f8160601b9050919050565b5f612c4582612c2f565b9050919050565b5f612c5682612c3b565b9050919050565b612c6e612c6982612106565b612c4c565b82525050565b5f819050919050565b612c8e612c8982611eaa565b612c74565b82525050565b5f612c9f8286612c5d565b601482019150612caf8285612c7d565b602082019150612cbf8284612c7d565b602082019150819050949350505050565b7f4e487b71000000000000000000000000000000000000000000000000000000005f52601260045260245ffd5b5f612d0782611eaa565b9150612d1283611eaa565b925082612d2257612d21612cd0565b5b828206905092915050565b7f4e487b71000000000000000000000000000000000000000000000000000000005f52603260045260245ffd5b5f612d6482611eaa565b9150612d6f83611eaa565b925082612d7f57612d7e612cd0565b5b828204905092915050565b612d93816122f5565b8114612d9d575f5ffd5b50565b5f81519050612dae81612d8a565b92915050565b5f60208284031215612dc957612dc8611ea2565b5b5f612dd684828501612da0565b91505092915050565b5f8115159050919050565b612df381612ddf565b8114612dfd575f5ffd5b50565b5f81519050612e0e81612dea565b92915050565b5f60208284031215612e2957612e28611ea2565b5b5f612e3684828501612e00565b91505092915050565b7f5361666545524332303a204552433230206f7065726174696f6e20646964206e5f8201527f6f74207375636365656400000000000000000000000000000000000000000000602082015250565b5f612e99602a83612330565b9150612ea482612e3f565b604082019050919050565b5f6020820190508181035f830152612ec681612e8d565b9050919050565b5f81519050919050565b5f81905092915050565b5f612eeb82612ecd565b612ef58185612ed7565b9350612f05818560208601612340565b80840191505092915050565b5f612f1c8284612ee1565b915081905092915050565b7f416464726573733a20696e73756666696369656e742062616c616e636520666f5f8201527f722063616c6c0000000000000000000000000000000000000000000000000000602082015250565b5f612f81602683612330565b9150612f8c82612f27565b604082019050919050565b5f6020820190508181035f830152612fae81612f75565b9050919050565b7f416464726573733a2063616c6c20746f206e6f6e2d636f6e74726163740000005f82015250565b5f612fe9601d83612330565b9150612ff482612fb5565b602082019050919050565b5f6020820190508181035f83015261301681612fdd565b905091905056fe303132333435363738394142434445464748494a4b4c4d4e4f505152535455565758595aa2646970667358221220e958d7f3b15209ce5db307e66157f13838329ff3264c52600cc0abe0345d027d64736f6c634300081f0033",
					"opcodes": "PUSH1 0xA0 PUSH1 0x40 MSTORE ADDRESS PUSH20 0xFFFFFFFFFFFFFFFFFFFFFFFFFFFFFFFFFFFFFFFF AND PUSH1 0x80 SWAP1 PUSH20 0xFFFFFFFFFFFFFFFFFFFFFFFFFFFFFFFFFFFFFFFF AND DUP2 MSTORE POP CALLVALUE DUP1 ISZERO PUSH2 0x42 JUMPI PUSH0 PUSH0 REVERT JUMPDEST POP PUSH2 0x51 PUSH2 0x56 PUSH1 0x20 SHL PUSH1 0x20 SHR JUMP JUMPDEST PUSH2 0x1D1 JUMP JUMPDEST PUSH0 PUSH2 0x65 PUSH2 0x154 PUSH1 0x20 SHL PUSH1 0x20 SHR JUMP JUMPDEST SWAP1 POP DUP1 PUSH0 ADD PUSH1 0x8 SWAP1 SLOAD SWAP1 PUSH2 0x100 EXP SWAP1 DIV PUSH1 0xFF AND ISZERO PUSH2 0xAF JUMPI PUSH1 0x40 MLOAD PUSH32 0xF92EE8A900000000000000000000000000000000000000000000000000000000 DUP2 MSTORE PUSH1 0x4 ADD PUSH1 0x40 MLOAD DUP1 SWAP2 SUB SWAP1 REVERT JUMPDEST PUSH8 0xFFFFFFFFFFFFFFFF DUP1 AND DUP2 PUSH0 ADD PUSH0 SWAP1 SLOAD SWAP1 PUSH2 0x100 EXP SWAP1 DIV PUSH8 0xFFFFFFFFFFFFFFFF AND PUSH8 0xFFFFFFFFFFFFFFFF AND EQ PUSH2 0x151 JUMPI PUSH8 0xFFFFFFFFFFFFFFFF DUP2 PUSH0 ADD PUSH0 PUSH2 0x100 EXP DUP2 SLOAD DUP2 PUSH8 0xFFFFFFFFFFFFFFFF MUL NOT AND SWAP1 DUP4 PUSH8 0xFFFFFFFFFFFFFFFF AND MUL OR SWAP1 SSTORE POP PUSH32 0xC7F505B2F371AE2175EE4913F4499E1F2633A7B5936321EED1CDAEB6115181D2 PUSH8 0xFFFFFFFFFFFFFFFF PUSH1 0x40 MLOAD PUSH2 0x148 SWAP2 SWAP1 PUSH2 0x1B8 JUMP JUMPDEST PUSH1 0x40 MLOAD DUP1 SWAP2 SUB SWAP1 LOG1 JUMPDEST POP JUMP JUMPDEST PUSH0 PUSH0 PUSH2 0x164 PUSH2 0x16D PUSH1 0x20 SHL PUSH1 0x20 SHR JUMP JUMPDEST SWAP1 POP DUP1 SWAP2 POP POP SWAP1 JUMP JUMPDEST PUSH0 PUSH32 0xF0C57E16840DF040F15088DC2F81FE391C3923BEC73E23A9662EFC9C229C6A00 PUSH0 SHL SWAP1 POP SWAP1 JUMP JUMPDEST PUSH0 PUSH8 0xFFFFFFFFFFFFFFFF DUP3 AND SWAP1 POP SWAP2 SWAP1 POP JUMP JUMPDEST PUSH2 0x1B2 DUP2 PUSH2 0x196 JUMP JUMPDEST DUP3 MSTORE POP POP JUMP JUMPDEST PUSH0 PUSH1 0x20 DUP3 ADD SWAP1 POP PUSH2 0x1CB PUSH0 DUP4 ADD DUP5 PUSH2 0x1A9 JUMP JUMPDEST SWAP3 SWAP2 POP POP JUMP JUMPDEST PUSH1 0x80 MLOAD PUSH2 0x3077 PUSH2 0x1F7 PUSH0 CODECOPY PUSH0 DUP2 DUP2 PUSH2 0x12D2 ADD MSTORE DUP2 DUP2 PUSH2 0x1327 ADD MSTORE PUSH2 0x14E1 ADD MSTORE PUSH2 0x3077 PUSH0 RETURN INVALID PUSH1 0x80 PUSH1 0x40 MSTORE PUSH1 0x4 CALLDATASIZE LT PUSH2 0xE7 JUMPI PUSH0 CALLDATALOAD PUSH1 0xE0 SHR DUP1 PUSH4 0x715018A6 GT PUSH2 0x89 JUMPI DUP1 PUSH4 0x9932DC05 GT PUSH2 0x58 JUMPI DUP1 PUSH4 0x9932DC05 EQ PUSH2 0x293 JUMPI DUP1 PUSH4 0xAD3CB1CC EQ PUSH2 0x2CF JUMPI DUP1 PUSH4 0xC4F74631 EQ PUSH2 0x2F9 JUMPI DUP1 PUSH4 0xF2FDE38B EQ PUSH2 0x335 JUMPI PUSH2 0xE7 JUMP JUMPDEST DUP1 PUSH4 0x715018A6 EQ PUSH2 0x1FF JUMPI DUP1 PUSH4 0x71CD28B4 EQ PUSH2 0x215 JUMPI DUP1 PUSH4 0x8DA5CB5B EQ PUSH2 0x23F JUMPI DUP1 PUSH4 0x97DA7AF7 EQ PUSH2 0x269 JUMPI PUSH2 0xE7 JUMP JUMPDEST DUP1 PUSH4 0x2E108D1C GT PUSH2 0xC5 JUMPI DUP1 PUSH4 0x2E108D1C EQ PUSH2 0x17B JUMPI DUP1 PUSH4 0x485CC955 EQ PUSH2 0x191 JUMPI DUP1 PUSH4 0x4F1EF286 EQ PUSH2 0x1B9 JUMPI DUP1 PUSH4 0x52D1902D EQ PUSH2 0x1D5 JUMPI PUSH2 0xE7 JUMP JUMPDEST DUP1 PUSH4 0x40D02E4 EQ PUSH2 0xEB JUMPI DUP1 PUSH4 0x11EAC855 EQ PUSH2 0x113 JUMPI DUP1 PUSH4 0x1959A002 EQ PUSH2 0x13D JUMPI JUMPDEST PUSH0 PUSH0 REVERT JUMPDEST CALLVALUE DUP1 ISZERO PUSH2 0xF6 JUMPI PUSH0 PUSH0 REVERT JUMPDEST POP PUSH2 0x111 PUSH1 0x4 DUP1 CALLDATASIZE SUB DUP2 ADD SWAP1 PUSH2 0x10C SWAP2 SWAP1 PUSH2 0x2019 JUMP JUMPDEST PUSH2 0x35D JUMP JUMPDEST STOP JUMPDEST CALLVALUE DUP1 ISZERO PUSH2 0x11E JUMPI PUSH0 PUSH0 REVERT JUMPDEST POP PUSH2 0x127 PUSH2 0x76A JUMP JUMPDEST PUSH1 0x40 MLOAD PUSH2 0x134 SWAP2 SWAP1 PUSH2 0x20ED JUMP JUMPDEST PUSH1 0x40 MLOAD DUP1 SWAP2 SUB SWAP1 RETURN JUMPDEST CALLVALUE DUP1 ISZERO PUSH2 0x148 JUMPI PUSH0 PUSH0 REVERT JUMPDEST POP PUSH2 0x163 PUSH1 0x4 DUP1 CALLDATASIZE SUB DUP2 ADD SWAP1 PUSH2 0x15E SWAP2 SWAP1 PUSH2 0x2141 JUMP JUMPDEST PUSH2 0x78E JUMP JUMPDEST PUSH1 0x40 MLOAD PUSH2 0x172 SWAP4 SWAP3 SWAP2 SWAP1 PUSH2 0x218A JUMP JUMPDEST PUSH1 0x40 MLOAD DUP1 SWAP2 SUB SWAP1 RETURN JUMPDEST CALLVALUE DUP1 ISZERO PUSH2 0x186 JUMPI PUSH0 PUSH0 REVERT JUMPDEST POP PUSH2 0x18F PUSH2 0x7D3 JUMP JUMPDEST STOP JUMPDEST CALLVALUE DUP1 ISZERO PUSH2 0x19C JUMPI PUSH0 PUSH0 REVERT JUMPDEST POP PUSH2 0x1B7 PUSH1 0x4 DUP1 CALLDATASIZE SUB DUP2 ADD SWAP1 PUSH2 0x1B2 SWAP2 SWAP1 PUSH2 0x21BF JUMP JUMPDEST PUSH2 0xA0C JUMP JUMPDEST STOP JUMPDEST PUSH2 0x1D3 PUSH1 0x4 DUP1 CALLDATASIZE SUB DUP2 ADD SWAP1 PUSH2 0x1CE SWAP2 SWAP1 PUSH2 0x229B JUMP JUMPDEST PUSH2 0xC1D JUMP JUMPDEST STOP JUMPDEST CALLVALUE DUP1 ISZERO PUSH2 0x1E0 JUMPI PUSH0 PUSH0 REVERT JUMPDEST POP PUSH2 0x1E9 PUSH2 0xC3C JUMP JUMPDEST PUSH1 0x40 MLOAD PUSH2 0x1F6 SWAP2 SWAP1 PUSH2 0x230D JUMP JUMPDEST PUSH1 0x40 MLOAD DUP1 SWAP2 SUB SWAP1 RETURN JUMPDEST CALLVALUE DUP1 ISZERO PUSH2 0x20A JUMPI PUSH0 PUSH0 REVERT JUMPDEST POP PUSH2 0x213 PUSH2 0xC6D JUMP JUMPDEST STOP JUMPDEST CALLVALUE DUP1 ISZERO PUSH2 0x220 JUMPI PUSH0 PUSH0 REVERT JUMPDEST POP PUSH2 0x229 PUSH2 0xC80 JUMP JUMPDEST PUSH1 0x40 MLOAD PUSH2 0x236 SWAP2 SWAP1 PUSH2 0x2386 JUMP JUMPDEST PUSH1 0x40 MLOAD DUP1 SWAP2 SUB SWAP1 RETURN JUMPDEST CALLVALUE DUP1 ISZERO PUSH2 0x24A JUMPI PUSH0 PUSH0 REVERT JUMPDEST POP PUSH2 0x253 PUSH2 0xD4B JUMP JUMPDEST PUSH1 0x40 MLOAD PUSH2 0x260 SWAP2 SWAP1 PUSH2 0x23A6 JUMP JUMPDEST PUSH1 0x40 MLOAD DUP1 SWAP2 SUB SWAP1 RETURN JUMPDEST CALLVALUE DUP1 ISZERO PUSH2 0x274 JUMPI PUSH0 PUSH0 REVERT JUMPDEST POP PUSH2 0x27D PUSH2 0xD80 JUMP JUMPDEST PUSH1 0x40 MLOAD PUSH2 0x28A SWAP2 SWAP1 PUSH2 0x23DF JUMP JUMPDEST PUSH1 0x40 MLOAD DUP1 SWAP2 SUB SWAP1 RETURN JUMPDEST CALLVALUE DUP1 ISZERO PUSH2 0x29E JUMPI PUSH0 PUSH0 REVERT JUMPDEST POP PUSH2 0x2B9 PUSH1 0x4 DUP1 CALLDATASIZE SUB DUP2 ADD SWAP1 PUSH2 0x2B4 SWAP2 SWAP1 PUSH2 0x23F8 JUMP JUMPDEST PUSH2 0xDA5 JUMP JUMPDEST PUSH1 0x40 MLOAD PUSH2 0x2C6 SWAP2 SWAP1 PUSH2 0x23A6 JUMP JUMPDEST PUSH1 0x40 MLOAD DUP1 SWAP2 SUB SWAP1 RETURN JUMPDEST CALLVALUE DUP1 ISZERO PUSH2 0x2DA JUMPI PUSH0 PUSH0 REVERT JUMPDEST POP PUSH2 0x2E3 PUSH2 0xDED JUMP JUMPDEST PUSH1 0x40 MLOAD PUSH2 0x2F0 SWAP2 SWAP1 PUSH2 0x2386 JUMP JUMPDEST PUSH1 0x40 MLOAD DUP1 SWAP2 SUB SWAP1 RETURN JUMPDEST CALLVALUE DUP1 ISZERO PUSH2 0x304 JUMPI PUSH0 PUSH0 REVERT JUMPDEST POP PUSH2 0x31F PUSH1 0x4 DUP1 CALLDATASIZE SUB DUP2 ADD SWAP1 PUSH2 0x31A SWAP2 SWAP1 PUSH2 0x2141 JUMP JUMPDEST PUSH2 0xE26 JUMP JUMPDEST PUSH1 0x40 MLOAD PUSH2 0x32C SWAP2 SWAP1 PUSH2 0x2386 JUMP JUMPDEST PUSH1 0x40 MLOAD DUP1 SWAP2 SUB SWAP1 RETURN JUMPDEST CALLVALUE DUP1 ISZERO PUSH2 0x340 JUMPI PUSH0 PUSH0 REVERT JUMPDEST POP PUSH2 0x35B PUSH1 0x4 DUP1 CALLDATASIZE SUB DUP2 ADD SWAP1 PUSH2 0x356 SWAP2 SWAP1 PUSH2 0x2141 JUMP JUMPDEST PUSH2 0xEC1 JUMP JUMPDEST STOP JUMPDEST PUSH2 0x365 PUSH2 0xF45 JUMP JUMPDEST PUSH0 DUP3 GT PUSH2 0x3A7 JUMPI PUSH1 0x40 MLOAD PUSH32 0x8C379A000000000000000000000000000000000000000000000000000000000 DUP2 MSTORE PUSH1 0x4 ADD PUSH2 0x39E SWAP1 PUSH2 0x2489 JUMP JUMPDEST PUSH1 0x40 MLOAD DUP1 SWAP2 SUB SWAP1 REVERT JUMPDEST PUSH0 DUP2 MLOAD GT PUSH2 0x3EA JUMPI PUSH1 0x40 MLOAD PUSH32 0x8C379A000000000000000000000000000000000000000000000000000000000 DUP2 MSTORE PUSH1 0x4 ADD PUSH2 0x3E1 SWAP1 PUSH2 0x2517 JUMP JUMPDEST PUSH1 0x40 MLOAD DUP1 SWAP2 SUB SWAP1 REVERT JUMPDEST PUSH0 PUSH1 0x2 DUP3 PUSH1 0x40 MLOAD PUSH2 0x3FB SWAP2 SWAP1 PUSH2 0x256F JUMP JUMPDEST SWAP1 DUP2 MSTORE PUSH1 0x20 ADD PUSH1 0x40 MLOAD DUP1 SWAP2 SUB SWAP1 KECCAK256 PUSH0 SWAP1 SLOAD SWAP1 PUSH2 0x100 EXP SWAP1 DIV PUSH20 0xFFFFFFFFFFFFFFFFFFFFFFFFFFFFFFFFFFFFFFFF AND SWAP1 POP PUSH0 PUSH20 0xFFFFFFFFFFFFFFFFFFFFFFFFFFFFFFFFFFFFFFFF AND DUP2 PUSH20 0xFFFFFFFFFFFFFFFFFFFFFFFFFFFFFFFFFFFFFFFF AND SUB PUSH2 0x499 JUMPI PUSH1 0x40 MLOAD PUSH32 0x8C379A000000000000000000000000000000000000000000000000000000000 DUP2 MSTORE PUSH1 0x4 ADD PUSH2 0x490 SWAP1 PUSH2 0x25CF JUMP JUMPDEST PUSH1 0x40 MLOAD DUP1 SWAP2 SUB SWAP1 REVERT JUMPDEST CALLER PUSH20 0xFFFFFFFFFFFFFFFFFFFFFFFFFFFFFFFFFFFFFFFF AND DUP2 PUSH20 0xFFFFFFFFFFFFFFFFFFFFFFFFFFFFFFFFFFFFFFFF AND SUB PUSH2 0x507 JUMPI PUSH1 0x40 MLOAD PUSH32 0x8C379A000000000000000000000000000000000000000000000000000000000 DUP2 MSTORE PUSH1 0x4 ADD PUSH2 0x4FE SWAP1 PUSH2 0x2637 JUMP JUMPDEST PUSH1 0x40 MLOAD DUP1 SWAP2 SUB SWAP1 REVERT JUMPDEST PUSH0 PUSH1 0x4 PUSH0 CALLER PUSH20 0xFFFFFFFFFFFFFFFFFFFFFFFFFFFFFFFFFFFFFFFF AND PUSH20 0xFFFFFFFFFFFFFFFFFFFFFFFFFFFFFFFFFFFFFFFF AND DUP2 MSTORE PUSH1 0x20 ADD SWAP1 DUP2 MSTORE PUSH1 0x20 ADD PUSH0 KECCAK256 SWAP1 POP PUSH0 DUP2 PUSH0 ADD SLOAD SUB PUSH2 0x594 JUMPI DUP2 DUP2 PUSH1 0x2 ADD PUSH0 PUSH2 0x100 EXP DUP2 SLOAD DUP2 PUSH20 0xFFFFFFFFFFFFFFFFFFFFFFFFFFFFFFFFFFFFFFFF MUL NOT AND SWAP1 DUP4 PUSH20 0xFFFFFFFFFFFFFFFFFFFFFFFFFFFFFFFFFFFFFFFF AND MUL OR SWAP1 SSTORE POP JUMPDEST DUP4 DUP2 PUSH0 ADD PUSH0 DUP3 DUP3 SLOAD PUSH2 0x5A6 SWAP2 SWAP1 PUSH2 0x2682 JUMP JUMPDEST SWAP3 POP POP DUP2 SWAP1 SSTORE POP TIMESTAMP DUP2 PUSH1 0x1 ADD DUP2 SWAP1 SSTORE POP PUSH2 0x603 CALLER ADDRESS DUP7 PUSH0 PUSH0 SWAP1 SLOAD SWAP1 PUSH2 0x100 EXP SWAP1 DIV PUSH20 0xFFFFFFFFFFFFFFFFFFFFFFFFFFFFFFFFFFFFFFFF AND PUSH20 0xFFFFFFFFFFFFFFFFFFFFFFFFFFFFFFFFFFFFFFFF AND PUSH2 0xF99 SWAP1 SWAP4 SWAP3 SWAP2 SWAP1 PUSH4 0xFFFFFFFF AND JUMP JUMPDEST PUSH2 0x66F PUSH1 0x1 PUSH0 SWAP1 SLOAD SWAP1 PUSH2 0x100 EXP SWAP1 DIV PUSH20 0xFFFFFFFFFFFFFFFFFFFFFFFFFFFFFFFFFFFFFFFF AND DUP6 PUSH0 PUSH0 SWAP1 SLOAD SWAP1 PUSH2 0x100 EXP SWAP1 DIV PUSH20 0xFFFFFFFFFFFFFFFFFFFFFFFFFFFFFFFFFFFFFFFF AND PUSH20 0xFFFFFFFFFFFFFFFFFFFFFFFFFFFFFFFFFFFFFFFF AND PUSH2 0x1022 SWAP1 SWAP3 SWAP2 SWAP1 PUSH4 0xFFFFFFFF AND JUMP JUMPDEST PUSH1 0x1 PUSH0 SWAP1 SLOAD SWAP1 PUSH2 0x100 EXP SWAP1 DIV PUSH20 0xFFFFFFFFFFFFFFFFFFFFFFFFFFFFFFFFFFFFFFFF AND PUSH20 0xFFFFFFFFFFFFFFFFFFFFFFFFFFFFFFFFFFFFFFFF AND PUSH4 0x6E553F65 DUP6 ADDRESS PUSH1 0x40 MLOAD DUP4 PUSH4 0xFFFFFFFF AND PUSH1 0xE0 SHL DUP2 MSTORE PUSH1 0x4 ADD PUSH2 0x6CB SWAP3 SWAP2 SWAP1 PUSH2 0x26B5 JUMP JUMPDEST PUSH1 0x20 PUSH1 0x40 MLOAD DUP1 DUP4 SUB DUP2 PUSH0 DUP8 GAS CALL ISZERO DUP1 ISZERO PUSH2 0x6E7 JUMPI RETURNDATASIZE PUSH0 PUSH0 RETURNDATACOPY RETURNDATASIZE PUSH0 REVERT JUMPDEST POP POP POP POP PUSH1 0x40 MLOAD RETURNDATASIZE PUSH1 0x1F NOT PUSH1 0x1F DUP3 ADD AND DUP3 ADD DUP1 PUSH1 0x40 MSTORE POP DUP2 ADD SWAP1 PUSH2 0x70B SWAP2 SWAP1 PUSH2 0x26F0 JUMP JUMPDEST POP CALLER PUSH20 0xFFFFFFFFFFFFFFFFFFFFFFFFFFFFFFFFFFFFFFFF AND PUSH32 0x6A1DB4F0607DD89CD0EE9EF3676C9521B6C9CE054AFB4D659365A683E34030AA DUP6 DUP6 PUSH1 0x40 MLOAD PUSH2 0x754 SWAP3 SWAP2 SWAP1 PUSH2 0x271B JUMP JUMPDEST PUSH1 0x40 MLOAD DUP1 SWAP2 SUB SWAP1 LOG2 POP POP PUSH2 0x766 PUSH2 0x113D JUMP JUMPDEST POP POP JUMP JUMPDEST PUSH0 PUSH0 SWAP1 SLOAD SWAP1 PUSH2 0x100 EXP SWAP1 DIV PUSH20 0xFFFFFFFFFFFFFFFFFFFFFFFFFFFFFFFFFFFFFFFF AND DUP2 JUMP JUMPDEST PUSH1 0x4 PUSH1 0x20 MSTORE DUP1 PUSH0 MSTORE PUSH1 0x40 PUSH0 KECCAK256 PUSH0 SWAP2 POP SWAP1 POP DUP1 PUSH0 ADD SLOAD SWAP1 DUP1 PUSH1 0x1 ADD SLOAD SWAP1 DUP1 PUSH1 0x2 ADD PUSH0 SWAP1 SLOAD SWAP1 PUSH2 0x100 EXP SWAP1 DIV PUSH20 0xFFFFFFFFFFFFFFFFFFFFFFFFFFFFFFFFFFFFFFFF AND SWAP1 POP DUP4 JUMP JUMPDEST PUSH0 PUSH1 0x3 PUSH0 CALLER PUSH20 0xFFFFFFFFFFFFFFFFFFFFFFFFFFFFFFFFFFFFFFFF AND PUSH20 0xFFFFFFFFFFFFFFFFFFFFFFFFFFFFFFFFFFFFFFFF AND DUP2 MSTORE PUSH1 0x20 ADD SWAP1 DUP2 MSTORE PUSH1 0x20 ADD PUSH0 KECCAK256 DUP1 SLOAD PUSH2 0x81C SWAP1 PUSH2 0x2776 JUMP JUMPDEST SWAP1 POP EQ PUSH2 0x85E JUMPI PUSH1 0x40 MLOAD PUSH32 0x8C379A000000000000000000000000000000000000000000000000000000000 DUP2 MSTORE PUSH1 0x4 ADD PUSH2 0x855 SWAP1 PUSH2 0x27F0 JUMP JUMPDEST PUSH1 0x40 MLOAD DUP1 SWAP2 SUB SWAP1 REVERT JUMPDEST PUSH0 PUSH2 0x867 PUSH2 0x1154 JUMP JUMPDEST SWAP1 POP PUSH0 PUSH20 0xFFFFFFFFFFFFFFFFFFFFFFFFFFFFFFFFFFFFFFFF AND PUSH1 0x2 DUP3 PUSH1 0x40 MLOAD PUSH2 0x890 SWAP2 SWAP1 PUSH2 0x256F JUMP JUMPDEST SWAP1 DUP2 MSTORE PUSH1 0x20 ADD PUSH1 0x40 MLOAD DUP1 SWAP2 SUB SWAP1 KECCAK256 PUSH0 SWAP1 SLOAD SWAP1 PUSH2 0x100 EXP SWAP1 DIV PUSH20 0xFFFFFFFFFFFFFFFFFFFFFFFFFFFFFFFFFFFFFFFF AND PUSH20 0xFFFFFFFFFFFFFFFFFFFFFFFFFFFFFFFFFFFFFFFF AND EQ PUSH2 0x914 JUMPI PUSH1 0x40 MLOAD PUSH32 0x8C379A000000000000000000000000000000000000000000000000000000000 DUP2 MSTORE PUSH1 0x4 ADD PUSH2 0x90B SWAP1 PUSH2 0x287E JUMP JUMPDEST PUSH1 0x40 MLOAD DUP1 SWAP2 SUB SWAP1 REVERT JUMPDEST CALLER PUSH1 0x2 DUP3 PUSH1 0x40 MLOAD PUSH2 0x925 SWAP2 SWAP1 PUSH2 0x256F JUMP JUMPDEST SWAP1 DUP2 MSTORE PUSH1 0x20 ADD PUSH1 0x40 MLOAD DUP1 SWAP2 SUB SWAP1 KECCAK256 PUSH0 PUSH2 0x100 EXP DUP2 SLOAD DUP2 PUSH20 0xFFFFFFFFFFFFFFFFFFFFFFFFFFFFFFFFFFFFFFFF MUL NOT AND SWAP1 DUP4 PUSH20 0xFFFFFFFFFFFFFFFFFFFFFFFFFFFFFFFFFFFFFFFF AND MUL OR SWAP1 SSTORE POP DUP1 PUSH1 0x3 PUSH0 CALLER PUSH20 0xFFFFFFFFFFFFFFFFFFFFFFFFFFFFFFFFFFFFFFFF AND PUSH20 0xFFFFFFFFFFFFFFFFFFFFFFFFFFFFFFFFFFFFFFFF AND DUP2 MSTORE PUSH1 0x20 ADD SWAP1 DUP2 MSTORE PUSH1 0x20 ADD PUSH0 KECCAK256 SWAP1 DUP2 PUSH2 0x9BA SWAP2 SWAP1 PUSH2 0x2A33 JUMP JUMPDEST POP CALLER PUSH20 0xFFFFFFFFFFFFFFFFFFFFFFFFFFFFFFFFFFFFFFFF AND PUSH32 0xBBBA1CAB2093E26EE6B388FEFB2109576871F9236F9C1F22779DAD4B82093B7B DUP3 PUSH1 0x40 MLOAD PUSH2 0xA01 SWAP2 SWAP1 PUSH2 0x2386 JUMP JUMPDEST PUSH1 0x40 MLOAD DUP1 SWAP2 SUB SWAP1 LOG2 POP JUMP JUMPDEST PUSH0 PUSH2 0xA15 PUSH2 0x128D JUMP JUMPDEST SWAP1 POP PUSH0 DUP2 PUSH0 ADD PUSH1 0x8 SWAP1 SLOAD SWAP1 PUSH2 0x100 EXP SWAP1 DIV PUSH1 0xFF AND ISZERO SWAP1 POP PUSH0 DUP3 PUSH0 ADD PUSH0 SWAP1 SLOAD SWAP1 PUSH2 0x100 EXP SWAP1 DIV PUSH8 0xFFFFFFFFFFFFFFFF AND SWAP1 POP PUSH0 PUSH0 DUP3 PUSH8 0xFFFFFFFFFFFFFFFF AND EQ DUP1 ISZERO PUSH2 0xA5D JUMPI POP DUP3 JUMPDEST SWAP1 POP PUSH0 PUSH1 0x1 DUP4 PUSH8 0xFFFFFFFFFFFFFFFF AND EQ DUP1 ISZERO PUSH2 0xA90 JUMPI POP PUSH0 ADDRESS PUSH20 0xFFFFFFFFFFFFFFFFFFFFFFFFFFFFFFFFFFFFFFFF AND EXTCODESIZE EQ JUMPDEST SWAP1 POP DUP2 ISZERO DUP1 ISZERO PUSH2 0xA9E JUMPI POP DUP1 ISZERO JUMPDEST ISZERO PUSH2 0xAD5 JUMPI PUSH1 0x40 MLOAD PUSH32 0xF92EE8A900000000000000000000000000000000000000000000000000000000 DUP2 MSTORE PUSH1 0x4 ADD PUSH1 0x40 MLOAD DUP1 SWAP2 SUB SWAP1 REVERT JUMPDEST PUSH1 0x1 DUP6 PUSH0 ADD PUSH0 PUSH2 0x100 EXP DUP2 SLOAD DUP2 PUSH8 0xFFFFFFFFFFFFFFFF MUL NOT AND SWAP1 DUP4 PUSH8 0xFFFFFFFFFFFFFFFF AND MUL OR SWAP1 SSTORE POP DUP4 ISZERO PUSH2 0xB22 JUMPI PUSH1 0x1 DUP6 PUSH0 ADD PUSH1 0x8 PUSH2 0x100 EXP DUP2 SLOAD DUP2 PUSH1 0xFF MUL NOT AND SWAP1 DUP4 ISZERO ISZERO MUL OR SWAP1 SSTORE POP JUMPDEST PUSH2 0xB2B CALLER PUSH2 0x12A0 JUMP JUMPDEST PUSH2 0xB33 PUSH2 0x12B4 JUMP JUMPDEST PUSH2 0xB3B PUSH2 0x12C6 JUMP JUMPDEST DUP7 PUSH0 PUSH0 PUSH2 0x100 EXP DUP2 SLOAD DUP2 PUSH20 0xFFFFFFFFFFFFFFFFFFFFFFFFFFFFFFFFFFFFFFFF MUL NOT AND SWAP1 DUP4 PUSH20 0xFFFFFFFFFFFFFFFFFFFFFFFFFFFFFFFFFFFFFFFF AND MUL OR SWAP1 SSTORE POP DUP6 PUSH1 0x1 PUSH0 PUSH2 0x100 EXP DUP2 SLOAD DUP2 PUSH20 0xFFFFFFFFFFFFFFFFFFFFFFFFFFFFFFFFFFFFFFFF MUL NOT AND SWAP1 DUP4 PUSH20 0xFFFFFFFFFFFFFFFFFFFFFFFFFFFFFFFFFFFFFFFF AND MUL OR SWAP1 SSTORE POP DUP4 ISZERO PUSH2 0xC14 JUMPI PUSH0 DUP6 PUSH0 ADD PUSH1 0x8 PUSH2 0x100 EXP DUP2 SLOAD DUP2 PUSH1 0xFF MUL NOT AND SWAP1 DUP4 ISZERO ISZERO MUL OR SWAP1 SSTORE POP PUSH32 0xC7F505B2F371AE2175EE4913F4499E1F2633A7B5936321EED1CDAEB6115181D2 PUSH1 0x1 PUSH1 0x40 MLOAD PUSH2 0xC0B SWAP2 SWAP1 PUSH2 0x2B4E JUMP JUMPDEST PUSH1 0x40 MLOAD DUP1 SWAP2 SUB SWAP1 LOG1 JUMPDEST POP POP POP POP POP POP POP JUMP JUMPDEST PUSH2 0xC25 PUSH2 0x12D0 JUMP JUMPDEST PUSH2 0xC2E DUP3 PUSH2 0x13B6 JUMP JUMPDEST PUSH2 0xC38 DUP3 DUP3 PUSH2 0x13C1 JUMP JUMPDEST POP POP JUMP JUMPDEST PUSH0 PUSH2 0xC45 PUSH2 0x14DF JUMP JUMPDEST PUSH32 0x360894A13BA1A3210667C828492DB98DCA3E2076CC3735A920A3CA505D382BBC PUSH0 SHL SWAP1 POP SWAP1 JUMP JUMPDEST PUSH2 0xC75 PUSH2 0x1566 JUMP JUMPDEST PUSH2 0xC7E PUSH0 PUSH2 0x15ED JUMP JUMPDEST JUMP JUMPDEST PUSH1 0x60 PUSH1 0x3 PUSH0 CALLER PUSH20 0xFFFFFFFFFFFFFFFFFFFFFFFFFFFFFFFFFFFFFFFF AND PUSH20 0xFFFFFFFFFFFFFFFFFFFFFFFFFFFFFFFFFFFFFFFF AND DUP2 MSTORE PUSH1 0x20 ADD SWAP1 DUP2 MSTORE PUSH1 0x20 ADD PUSH0 KECCAK256 DUP1 SLOAD PUSH2 0xCCA SWAP1 PUSH2 0x2776 JUMP JUMPDEST DUP1 PUSH1 0x1F ADD PUSH1 0x20 DUP1 SWAP2 DIV MUL PUSH1 0x20 ADD PUSH1 0x40 MLOAD SWAP1 DUP2 ADD PUSH1 0x40 MSTORE DUP1 SWAP3 SWAP2 SWAP1 DUP2 DUP2 MSTORE PUSH1 0x20 ADD DUP3 DUP1 SLOAD PUSH2 0xCF6 SWAP1 PUSH2 0x2776 JUMP JUMPDEST DUP1 ISZERO PUSH2 0xD41 JUMPI DUP1 PUSH1 0x1F LT PUSH2 0xD18 JUMPI PUSH2 0x100 DUP1 DUP4 SLOAD DIV MUL DUP4 MSTORE SWAP2 PUSH1 0x20 ADD SWAP2 PUSH2 0xD41 JUMP JUMPDEST DUP3 ADD SWAP2 SWAP1 PUSH0 MSTORE PUSH1 0x20 PUSH0 KECCAK256 SWAP1 JUMPDEST DUP2 SLOAD DUP2 MSTORE SWAP1 PUSH1 0x1 ADD SWAP1 PUSH1 0x20 ADD DUP1 DUP4 GT PUSH2 0xD24 JUMPI DUP3 SWAP1 SUB PUSH1 0x1F AND DUP3 ADD SWAP2 JUMPDEST POP POP POP POP POP SWAP1 POP SWAP1 JUMP JUMPDEST PUSH0 PUSH0 PUSH2 0xD55 PUSH2 0x16BE JUMP JUMPDEST SWAP1 POP DUP1 PUSH0 ADD PUSH0 SWAP1 SLOAD SWAP1 PUSH2 0x100 EXP SWAP1 DIV PUSH20 0xFFFFFFFFFFFFFFFFFFFFFFFFFFFFFFFFFFFFFFFF AND SWAP2 POP POP SWAP1 JUMP JUMPDEST PUSH1 0x1 PUSH0 SWAP1 SLOAD SWAP1 PUSH2 0x100 EXP SWAP1 DIV PUSH20 0xFFFFFFFFFFFFFFFFFFFFFFFFFFFFFFFFFFFFFFFF AND DUP2 JUMP JUMPDEST PUSH1 0x2 DUP2 DUP1 MLOAD PUSH1 0x20 DUP2 ADD DUP3 ADD DUP1 MLOAD DUP5 DUP3 MSTORE PUSH1 0x20 DUP4 ADD PUSH1 0x20 DUP6 ADD KECCAK256 DUP2 DUP4 MSTORE DUP1 SWAP6 POP POP POP POP POP POP PUSH0 SWAP2 POP SLOAD SWAP1 PUSH2 0x100 EXP SWAP1 DIV PUSH20 0xFFFFFFFFFFFFFFFFFFFFFFFFFFFFFFFFFFFFFFFF AND DUP2 JUMP JUMPDEST PUSH1 0x40 MLOAD DUP1 PUSH1 0x40 ADD PUSH1 0x40 MSTORE DUP1 PUSH1 0x5 DUP2 MSTORE PUSH1 0x20 ADD PUSH32 0x352E302E30000000000000000000000000000000000000000000000000000000 DUP2 MSTORE POP DUP2 JUMP JUMPDEST PUSH1 0x3 PUSH1 0x20 MSTORE DUP1 PUSH0 MSTORE PUSH1 0x40 PUSH0 KECCAK256 PUSH0 SWAP2 POP SWAP1 POP DUP1 SLOAD PUSH2 0xE42 SWAP1 PUSH2 0x2776 JUMP JUMPDEST DUP1 PUSH1 0x1F ADD PUSH1 0x20 DUP1 SWAP2 DIV MUL PUSH1 0x20 ADD PUSH1 0x40 MLOAD SWAP1 DUP2 ADD PUSH1 0x40 MSTORE DUP1 SWAP3 SWAP2 SWAP1 DUP2 DUP2 MSTORE PUSH1 0x20 ADD DUP3 DUP1 SLOAD PUSH2 0xE6E SWAP1 PUSH2 0x2776 JUMP JUMPDEST DUP1 ISZERO PUSH2 0xEB9 JUMPI DUP1 PUSH1 0x1F LT PUSH2 0xE90 JUMPI PUSH2 0x100 DUP1 DUP4 SLOAD DIV MUL DUP4 MSTORE SWAP2 PUSH1 0x20 ADD SWAP2 PUSH2 0xEB9 JUMP JUMPDEST DUP3 ADD SWAP2 SWAP1 PUSH0 MSTORE PUSH1 0x20 PUSH0 KECCAK256 SWAP1 JUMPDEST DUP2 SLOAD DUP2 MSTORE SWAP1 PUSH1 0x1 ADD SWAP1 PUSH1 0x20 ADD DUP1 DUP4 GT PUSH2 0xE9C JUMPI DUP3 SWAP1 SUB PUSH1 0x1F AND DUP3 ADD SWAP2 JUMPDEST POP POP POP POP POP DUP2 JUMP JUMPDEST PUSH2 0xEC9 PUSH2 0x1566 JUMP JUMPDEST PUSH0 PUSH20 0xFFFFFFFFFFFFFFFFFFFFFFFFFFFFFFFFFFFFFFFF AND DUP2 PUSH20 0xFFFFFFFFFFFFFFFFFFFFFFFFFFFFFFFFFFFFFFFF AND SUB PUSH2 0xF39 JUMPI PUSH0 PUSH1 0x40 MLOAD PUSH32 0x1E4FBDF700000000000000000000000000000000000000000000000000000000 DUP2 MSTORE PUSH1 0x4 ADD PUSH2 0xF30 SWAP2 SWAP1 PUSH2 0x23A6 JUMP JUMPDEST PUSH1 0x40 MLOAD DUP1 SWAP2 SUB SWAP1 REVERT JUMPDEST PUSH2 0xF42 DUP2 PUSH2 0x15ED JUMP JUMPDEST POP JUMP JUMPDEST PUSH0 PUSH2 0xF4E PUSH2 0x16E5 JUMP JUMPDEST SWAP1 POP PUSH1 0x2 DUP2 PUSH0 ADD SLOAD SUB PUSH2 0xF8D JUMPI PUSH1 0x40 MLOAD PUSH32 0x3EE5AEB500000000000000000000000000000000000000000000000000000000 DUP2 MSTORE PUSH1 0x4 ADD PUSH1 0x40 MLOAD DUP1 SWAP2 SUB SWAP1 REVERT JUMPDEST PUSH1 0x2 DUP2 PUSH0 ADD DUP2 SWAP1 SSTORE POP POP JUMP JUMPDEST PUSH2 0x101C DUP5 PUSH4 0x23B872DD PUSH1 0xE0 SHL DUP6 DUP6 DUP6 PUSH1 0x40 MLOAD PUSH1 0x24 ADD PUSH2 0xFBA SWAP4 SWAP3 SWAP2 SWAP1 PUSH2 0x2B67 JUMP JUMPDEST PUSH1 0x40 MLOAD PUSH1 0x20 DUP2 DUP4 SUB SUB DUP2 MSTORE SWAP1 PUSH1 0x40 MSTORE SWAP1 PUSH28 0xFFFFFFFFFFFFFFFFFFFFFFFFFFFFFFFFFFFFFFFFFFFFFFFFFFFFFFFF NOT AND PUSH1 0x20 DUP3 ADD DUP1 MLOAD PUSH28 0xFFFFFFFFFFFFFFFFFFFFFFFFFFFFFFFFFFFFFFFFFFFFFFFFFFFFFFFF DUP4 DUP2 DUP4 AND OR DUP4 MSTORE POP POP POP POP PUSH2 0x170C JUMP JUMPDEST POP POP POP POP JUMP JUMPDEST PUSH0 PUSH4 0x95EA7B3 PUSH1 0xE0 SHL DUP4 DUP4 PUSH1 0x40 MLOAD PUSH1 0x24 ADD PUSH2 0x103E SWAP3 SWAP2 SWAP1 PUSH2 0x2B9C JUMP JUMPDEST PUSH1 0x40 MLOAD PUSH1 0x20 DUP2 DUP4 SUB SUB DUP2 MSTORE SWAP1 PUSH1 0x40 MSTORE SWAP1 PUSH28 0xFFFFFFFFFFFFFFFFFFFFFFFFFFFFFFFFFFFFFFFFFFFFFFFFFFFFFFFF NOT AND PUSH1 0x20 DUP3 ADD DUP1 MLOAD PUSH28 0xFFFFFFFFFFFFFFFFFFFFFFFFFFFFFFFFFFFFFFFFFFFFFFFFFFFFFFFF DUP4 DUP2 DUP4 AND OR DUP4 MSTORE POP POP POP POP SWAP1 POP PUSH2 0x10A7 DUP5 DUP3 PUSH2 0x17D2 JUMP JUMPDEST PUSH2 0x1137 JUMPI PUSH2 0x112C DUP5 PUSH4 0x95EA7B3 PUSH1 0xE0 SHL DUP6 PUSH0 PUSH1 0x40 MLOAD PUSH1 0x24 ADD PUSH2 0x10CA SWAP3 SWAP2 SWAP1 PUSH2 0x2C08 JUMP JUMPDEST PUSH1 0x40 MLOAD PUSH1 0x20 DUP2 DUP4 SUB SUB DUP2 MSTORE SWAP1 PUSH1 0x40 MSTORE SWAP1 PUSH28 0xFFFFFFFFFFFFFFFFFFFFFFFFFFFFFFFFFFFFFFFFFFFFFFFFFFFFFFFF NOT AND PUSH1 0x20 DUP3 ADD DUP1 MLOAD PUSH28 0xFFFFFFFFFFFFFFFFFFFFFFFFFFFFFFFFFFFFFFFFFFFFFFFFFFFFFFFF DUP4 DUP2 DUP4 AND OR DUP4 MSTORE POP POP POP POP PUSH2 0x170C JUMP JUMPDEST PUSH2 0x1136 DUP5 DUP3 PUSH2 0x170C JUMP JUMPDEST JUMPDEST POP POP POP POP JUMP JUMPDEST PUSH0 PUSH2 0x1146 PUSH2 0x16E5 JUMP JUMPDEST SWAP1 POP PUSH1 0x1 DUP2 PUSH0 ADD DUP2 SWAP1 SSTORE POP POP JUMP JUMPDEST PUSH1 0x60 PUSH0 PUSH1 0x7 PUSH8 0xFFFFFFFFFFFFFFFF DUP2 GT ISZERO PUSH2 0x1172 JUMPI PUSH2 0x1171 PUSH2 0x1EF5 JUMP JUMPDEST JUMPDEST PUSH1 0x40 MLOAD SWAP1 DUP1 DUP3 MSTORE DUP1 PUSH1 0x1F ADD PUSH1 0x1F NOT AND PUSH1 0x20 ADD DUP3 ADD PUSH1 0x40 MSTORE DUP1 ISZERO PUSH2 0x11A4 JUMPI DUP2 PUSH1 0x20 ADD PUSH1 0x1 DUP3 MUL DUP1 CALLDATASIZE DUP4 CALLDATACOPY DUP1 DUP3 ADD SWAP2 POP POP SWAP1 POP JUMPDEST POP SWAP1 POP PUSH0 CALLER TIMESTAMP PREVRANDAO PUSH1 0x40 MLOAD PUSH1 0x20 ADD PUSH2 0x11BD SWAP4 SWAP3 SWAP2 SWAP1 PUSH2 0x2C94 JUMP JUMPDEST PUSH1 0x40 MLOAD PUSH1 0x20 DUP2 DUP4 SUB SUB DUP2 MSTORE SWAP1 PUSH1 0x40 MSTORE DUP1 MLOAD SWAP1 PUSH1 0x20 ADD KECCAK256 PUSH0 SHR SWAP1 POP PUSH0 PUSH0 SWAP1 POP JUMPDEST PUSH1 0x7 DUP2 LT ISZERO PUSH2 0x1284 JUMPI PUSH1 0x40 MLOAD DUP1 PUSH1 0x60 ADD PUSH1 0x40 MSTORE DUP1 PUSH1 0x24 DUP2 MSTORE PUSH1 0x20 ADD PUSH2 0x301E PUSH1 0x24 SWAP2 CODECOPY PUSH1 0x24 DUP4 PUSH2 0x120B SWAP2 SWAP1 PUSH2 0x2CFD JUMP JUMPDEST DUP2 MLOAD DUP2 LT PUSH2 0x121C JUMPI PUSH2 0x121B PUSH2 0x2D2D JUMP JUMPDEST JUMPDEST PUSH1 0x20 ADD ADD MLOAD PUSH1 0xF8 SHR PUSH1 0xF8 SHL DUP4 DUP3 DUP2 MLOAD DUP2 LT PUSH2 0x123A JUMPI PUSH2 0x1239 PUSH2 0x2D2D JUMP JUMPDEST JUMPDEST PUSH1 0x20 ADD ADD SWAP1 PUSH31 0xFFFFFFFFFFFFFFFFFFFFFFFFFFFFFFFFFFFFFFFFFFFFFFFFFFFFFFFFFFFFFF NOT AND SWAP1 DUP2 PUSH0 BYTE SWAP1 MSTORE8 POP PUSH1 0x24 DUP3 PUSH2 0x1275 SWAP2 SWAP1 PUSH2 0x2D5A JUMP JUMPDEST SWAP2 POP DUP1 DUP1 PUSH1 0x1 ADD SWAP2 POP POP PUSH2 0x11DC JUMP JUMPDEST POP DUP2 SWAP3 POP POP POP SWAP1 JUMP JUMPDEST PUSH0 PUSH0 PUSH2 0x1297 PUSH2 0x1880 JUMP JUMPDEST SWAP1 POP DUP1 SWAP2 POP POP SWAP1 JUMP JUMPDEST PUSH2 0x12A8 PUSH2 0x18A9 JUMP JUMPDEST PUSH2 0x12B1 DUP2 PUSH2 0x18E9 JUMP JUMPDEST POP JUMP JUMPDEST PUSH2 0x12BC PUSH2 0x18A9 JUMP JUMPDEST PUSH2 0x12C4 PUSH2 0x196D JUMP JUMPDEST JUMP JUMPDEST PUSH2 0x12CE PUSH2 0x18A9 JUMP JUMPDEST JUMP JUMPDEST PUSH32 0x0 PUSH20 0xFFFFFFFFFFFFFFFFFFFFFFFFFFFFFFFFFFFFFFFF AND ADDRESS PUSH20 0xFFFFFFFFFFFFFFFFFFFFFFFFFFFFFFFFFFFFFFFF AND EQ DUP1 PUSH2 0x137D JUMPI POP PUSH32 0x0 PUSH20 0xFFFFFFFFFFFFFFFFFFFFFFFFFFFFFFFFFFFFFFFF AND PUSH2 0x1364 PUSH2 0x198C JUMP JUMPDEST PUSH20 0xFFFFFFFFFFFFFFFFFFFFFFFFFFFFFFFFFFFFFFFF AND EQ ISZERO JUMPDEST ISZERO PUSH2 0x13B4 JUMPI PUSH1 0x40 MLOAD PUSH32 0xE07C8DBA00000000000000000000000000000000000000000000000000000000 DUP2 MSTORE PUSH1 0x4 ADD PUSH1 0x40 MLOAD DUP1 SWAP2 SUB SWAP1 REVERT JUMPDEST JUMP JUMPDEST PUSH2 0x13BE PUSH2 0x1566 JUMP JUMPDEST POP JUMP JUMPDEST DUP2 PUSH20 0xFFFFFFFFFFFFFFFFFFFFFFFFFFFFFFFFFFFFFFFF AND PUSH4 0x52D1902D PUSH1 0x40 MLOAD DUP2 PUSH4 0xFFFFFFFF AND PUSH1 0xE0 SHL DUP2 MSTORE PUSH1 0x4 ADD PUSH1 0x20 PUSH1 0x40 MLOAD DUP1 DUP4 SUB DUP2 DUP7 GAS STATICCALL SWAP3 POP POP POP DUP1 ISZERO PUSH2 0x1429 JUMPI POP PUSH1 0x40 MLOAD RETURNDATASIZE PUSH1 0x1F NOT PUSH1 0x1F DUP3 ADD AND DUP3 ADD DUP1 PUSH1 0x40 MSTORE POP DUP2 ADD SWAP1 PUSH2 0x1426 SWAP2 SWAP1 PUSH2 0x2DB4 JUMP JUMPDEST PUSH1 0x1 JUMPDEST PUSH2 0x146A JUMPI DUP2 PUSH1 0x40 MLOAD PUSH32 0x4C9C8CE300000000000000000000000000000000000000000000000000000000 DUP2 MSTORE PUSH1 0x4 ADD PUSH2 0x1461 SWAP2 SWAP1 PUSH2 0x23A6 JUMP JUMPDEST PUSH1 0x40 MLOAD DUP1 SWAP2 SUB SWAP1 REVERT JUMPDEST PUSH32 0x360894A13BA1A3210667C828492DB98DCA3E2076CC3735A920A3CA505D382BBC PUSH0 SHL DUP2 EQ PUSH2 0x14D0 JUMPI DUP1 PUSH1 0x40 MLOAD PUSH32 0xAA1D49A400000000000000000000000000000000000000000000000000000000 DUP2 MSTORE PUSH1 0x4 ADD PUSH2 0x14C7 SWAP2 SWAP1 PUSH2 0x230D JUMP JUMPDEST PUSH1 0x40 MLOAD DUP1 SWAP2 SUB SWAP1 REVERT JUMPDEST PUSH2 0x14DA DUP4 DUP4 PUSH2 0x19DF JUMP JUMPDEST POP POP POP JUMP JUMPDEST PUSH32 0x0 PUSH20 0xFFFFFFFFFFFFFFFFFFFFFFFFFFFFFFFFFFFFFFFF AND ADDRESS PUSH20 0xFFFFFFFFFFFFFFFFFFFFFFFFFFFFFFFFFFFFFFFF AND EQ PUSH2 0x1564 JUMPI PUSH1 0x40 MLOAD PUSH32 0xE07C8DBA00000000000000000000000000000000000000000000000000000000 DUP2 MSTORE PUSH1 0x4 ADD PUSH1 0x40 MLOAD DUP1 SWAP2 SUB SWAP1 REVERT JUMPDEST JUMP JUMPDEST PUSH2 0x156E PUSH2 0x1A51 JUMP JUMPDEST PUSH20 0xFFFFFFFFFFFFFFFFFFFFFFFFFFFFFFFFFFFFFFFF AND PUSH2 0x158C PUSH2 0xD4B JUMP JUMPDEST PUSH20 0xFFFFFFFFFFFFFFFFFFFFFFFFFFFFFFFFFFFFFFFF AND EQ PUSH2 0x15EB JUMPI PUSH2 0x15AF PUSH2 0x1A51 JUMP JUMPDEST PUSH1 0x40 MLOAD PUSH32 0x118CDAA700000000000000000000000000000000000000000000000000000000 DUP2 MSTORE PUSH1 0x4 ADD PUSH2 0x15E2 SWAP2 SWAP1 PUSH2 0x23A6 JUMP JUMPDEST PUSH1 0x40 MLOAD DUP1 SWAP2 SUB SWAP1 REVERT JUMPDEST JUMP JUMPDEST PUSH0 PUSH2 0x15F6 PUSH2 0x16BE JUMP JUMPDEST SWAP1 POP PUSH0 DUP2 PUSH0 ADD PUSH0 SWAP1 SLOAD SWAP1 PUSH2 0x100 EXP SWAP1 DIV PUSH20 0xFFFFFFFFFFFFFFFFFFFFFFFFFFFFFFFFFFFFFFFF AND SWAP1 POP DUP3 DUP3 PUSH0 ADD PUSH0 PUSH2 0x100 EXP DUP2 SLOAD DUP2 PUSH20 0xFFFFFFFFFFFFFFFFFFFFFFFFFFFFFFFFFFFFFFFF MUL NOT AND SWAP1 DUP4 PUSH20 0xFFFFFFFFFFFFFFFFFFFFFFFFFFFFFFFFFFFFFFFF AND MUL OR SWAP1 SSTORE POP DUP3 PUSH20 0xFFFFFFFFFFFFFFFFFFFFFFFFFFFFFFFFFFFFFFFF AND DUP2 PUSH20 0xFFFFFFFFFFFFFFFFFFFFFFFFFFFFFFFFFFFFFFFF AND PUSH32 0x8BE0079C531659141344CD1FD0A4F28419497F9722A3DAAFE3B4186F6B6457E0 PUSH1 0x40 MLOAD PUSH1 0x40 MLOAD DUP1 SWAP2 SUB SWAP1 LOG3 POP POP POP JUMP JUMPDEST PUSH0 PUSH32 0x9016D09D72D40FDAE2FD8CEAC6B6234C7706214FD39C1CD1E609A0528C199300 SWAP1 POP SWAP1 JUMP JUMPDEST PUSH0 PUSH32 0x9B779B17422D0DF92223018B32B4D1FA46E071723D6817E2486D003BECC55F00 SWAP1 POP SWAP1 JUMP JUMPDEST PUSH0 PUSH2 0x176D DUP3 PUSH1 0x40 MLOAD DUP1 PUSH1 0x40 ADD PUSH1 0x40 MSTORE DUP1 PUSH1 0x20 DUP2 MSTORE PUSH1 0x20 ADD PUSH32 0x5361666545524332303A206C6F772D6C6576656C2063616C6C206661696C6564 DUP2 MSTORE POP DUP6 PUSH20 0xFFFFFFFFFFFFFFFFFFFFFFFFFFFFFFFFFFFFFFFF AND PUSH2 0x1A58 SWAP1 SWAP3 SWAP2 SWAP1 PUSH4 0xFFFFFFFF AND JUMP JUMPDEST SWAP1 POP PUSH0 DUP2 MLOAD EQ DUP1 PUSH2 0x178E JUMPI POP DUP1 DUP1 PUSH1 0x20 ADD SWAP1 MLOAD DUP2 ADD SWAP1 PUSH2 0x178D SWAP2 SWAP1 PUSH2 0x2E14 JUMP JUMPDEST JUMPDEST PUSH2 0x17CD JUMPI PUSH1 0x40 MLOAD PUSH32 0x8C379A000000000000000000000000000000000000000000000000000000000 DUP2 MSTORE PUSH1 0x4 ADD PUSH2 0x17C4 SWAP1 PUSH2 0x2EAF JUMP JUMPDEST PUSH1 0x40 MLOAD DUP1 SWAP2 SUB SWAP1 REVERT JUMPDEST POP POP POP JUMP JUMPDEST PUSH0 PUSH0 PUSH0 DUP5 PUSH20 0xFFFFFFFFFFFFFFFFFFFFFFFFFFFFFFFFFFFFFFFF AND DUP5 PUSH1 0x40 MLOAD PUSH2 0x17FA SWAP2 SWAP1 PUSH2 0x2F11 JUMP JUMPDEST PUSH0 PUSH1 0x40 MLOAD DUP1 DUP4 SUB DUP2 PUSH0 DUP7 GAS CALL SWAP2 POP POP RETURNDATASIZE DUP1 PUSH0 DUP2 EQ PUSH2 0x1833 JUMPI PUSH1 0x40 MLOAD SWAP2 POP PUSH1 0x1F NOT PUSH1 0x3F RETURNDATASIZE ADD AND DUP3 ADD PUSH1 0x40 MSTORE RETURNDATASIZE DUP3 MSTORE RETURNDATASIZE PUSH0 PUSH1 0x20 DUP5 ADD RETURNDATACOPY PUSH2 0x1838 JUMP JUMPDEST PUSH1 0x60 SWAP2 POP JUMPDEST POP SWAP2 POP SWAP2 POP DUP2 DUP1 ISZERO PUSH2 0x1865 JUMPI POP PUSH0 DUP2 MLOAD EQ DUP1 PUSH2 0x1864 JUMPI POP DUP1 DUP1 PUSH1 0x20 ADD SWAP1 MLOAD DUP2 ADD SWAP1 PUSH2 0x1863 SWAP2 SWAP1 PUSH2 0x2E14 JUMP JUMPDEST JUMPDEST JUMPDEST DUP1 ISZERO PUSH2 0x1876 JUMPI POP PUSH2 0x1875 DUP6 PUSH2 0x1A6F JUMP JUMPDEST JUMPDEST SWAP3 POP POP POP SWAP3 SWAP2 POP POP JUMP JUMPDEST PUSH0 PUSH32 0xF0C57E16840DF040F15088DC2F81FE391C3923BEC73E23A9662EFC9C229C6A00 PUSH0 SHL SWAP1 POP SWAP1 JUMP JUMPDEST PUSH2 0x18B1 PUSH2 0x1A91 JUMP JUMPDEST PUSH2 0x18E7 JUMPI PUSH1 0x40 MLOAD PUSH32 0xD7E6BCF800000000000000000000000000000000000000000000000000000000 DUP2 MSTORE PUSH1 0x4 ADD PUSH1 0x40 MLOAD DUP1 SWAP2 SUB SWAP1 REVERT JUMPDEST JUMP JUMPDEST PUSH2 0x18F1 PUSH2 0x18A9 JUMP JUMPDEST PUSH0 PUSH20 0xFFFFFFFFFFFFFFFFFFFFFFFFFFFFFFFFFFFFFFFF AND DUP2 PUSH20 0xFFFFFFFFFFFFFFFFFFFFFFFFFFFFFFFFFFFFFFFF AND SUB PUSH2 0x1961 JUMPI PUSH0 PUSH1 0x40 MLOAD PUSH32 0x1E4FBDF700000000000000000000000000000000000000000000000000000000 DUP2 MSTORE PUSH1 0x4 ADD PUSH2 0x1958 SWAP2 SWAP1 PUSH2 0x23A6 JUMP JUMPDEST PUSH1 0x40 MLOAD DUP1 SWAP2 SUB SWAP1 REVERT JUMPDEST PUSH2 0x196A DUP2 PUSH2 0x15ED JUMP JUMPDEST POP JUMP JUMPDEST PUSH2 0x1975 PUSH2 0x18A9 JUMP JUMPDEST PUSH0 PUSH2 0x197E PUSH2 0x16E5 JUMP JUMPDEST SWAP1 POP PUSH1 0x1 DUP2 PUSH0 ADD DUP2 SWAP1 SSTORE POP POP JUMP JUMPDEST PUSH0 PUSH2 0x19B8 PUSH32 0x360894A13BA1A3210667C828492DB98DCA3E2076CC3735A920A3CA505D382BBC PUSH0 SHL PUSH2 0x1AAF JUMP JUMPDEST PUSH0 ADD PUSH0 SWAP1 SLOAD SWAP1 PUSH2 0x100 EXP SWAP1 DIV PUSH20 0xFFFFFFFFFFFFFFFFFFFFFFFFFFFFFFFFFFFFFFFF AND SWAP1 POP SWAP1 JUMP JUMPDEST PUSH2 0x19E8 DUP3 PUSH2 0x1AB8 JUMP JUMPDEST DUP2 PUSH20 0xFFFFFFFFFFFFFFFFFFFFFFFFFFFFFFFFFFFFFFFF AND PUSH32 0xBC7CD75A20EE27FD9ADEBAB32041F755214DBC6BFFA90CC0225B39DA2E5C2D3B PUSH1 0x40 MLOAD PUSH1 0x40 MLOAD DUP1 SWAP2 SUB SWAP1 LOG2 PUSH0 DUP2 MLOAD GT ISZERO PUSH2 0x1A44 JUMPI PUSH2 0x1A3E DUP3 DUP3 PUSH2 0x1B81 JUMP JUMPDEST POP PUSH2 0x1A4D JUMP JUMPDEST PUSH2 0x1A4C PUSH2 0x1C01 JUMP JUMPDEST JUMPDEST POP POP JUMP JUMPDEST PUSH0 CALLER SWAP1 POP SWAP1 JUMP JUMPDEST PUSH1 0x60 PUSH2 0x1A66 DUP5 DUP5 PUSH0 DUP6 PUSH2 0x1C3D JUMP JUMPDEST SWAP1 POP SWAP4 SWAP3 POP POP POP JUMP JUMPDEST PUSH0 PUSH0 DUP3 PUSH20 0xFFFFFFFFFFFFFFFFFFFFFFFFFFFFFFFFFFFFFFFF AND EXTCODESIZE GT SWAP1 POP SWAP2 SWAP1 POP JUMP JUMPDEST PUSH0 PUSH2 0x1A9A PUSH2 0x128D JUMP JUMPDEST PUSH0 ADD PUSH1 0x8 SWAP1 SLOAD SWAP1 PUSH2 0x100 EXP SWAP1 DIV PUSH1 0xFF AND SWAP1 POP SWAP1 JUMP JUMPDEST PUSH0 DUP2 SWAP1 POP SWAP2 SWAP1 POP JUMP JUMPDEST PUSH0 DUP2 PUSH20 0xFFFFFFFFFFFFFFFFFFFFFFFFFFFFFFFFFFFFFFFF AND EXTCODESIZE SUB PUSH2 0x1B13 JUMPI DUP1 PUSH1 0x40 MLOAD PUSH32 0x4C9C8CE300000000000000000000000000000000000000000000000000000000 DUP2 MSTORE PUSH1 0x4 ADD PUSH2 0x1B0A SWAP2 SWAP1 PUSH2 0x23A6 JUMP JUMPDEST PUSH1 0x40 MLOAD DUP1 SWAP2 SUB SWAP1 REVERT JUMPDEST DUP1 PUSH2 0x1B3F PUSH32 0x360894A13BA1A3210667C828492DB98DCA3E2076CC3735A920A3CA505D382BBC PUSH0 SHL PUSH2 0x1AAF JUMP JUMPDEST PUSH0 ADD PUSH0 PUSH2 0x100 EXP DUP2 SLOAD DUP2 PUSH20 0xFFFFFFFFFFFFFFFFFFFFFFFFFFFFFFFFFFFFFFFF MUL NOT AND SWAP1 DUP4 PUSH20 0xFFFFFFFFFFFFFFFFFFFFFFFFFFFFFFFFFFFFFFFF AND MUL OR SWAP1 SSTORE POP POP JUMP JUMPDEST PUSH1 0x60 PUSH0 PUSH0 DUP5 PUSH20 0xFFFFFFFFFFFFFFFFFFFFFFFFFFFFFFFFFFFFFFFF AND DUP5 PUSH1 0x40 MLOAD PUSH2 0x1BAA SWAP2 SWAP1 PUSH2 0x2F11 JUMP JUMPDEST PUSH0 PUSH1 0x40 MLOAD DUP1 DUP4 SUB DUP2 DUP6 GAS DELEGATECALL SWAP2 POP POP RETURNDATASIZE DUP1 PUSH0 DUP2 EQ PUSH2 0x1BE2 JUMPI PUSH1 0x40 MLOAD SWAP2 POP PUSH1 0x1F NOT PUSH1 0x3F RETURNDATASIZE ADD AND DUP3 ADD PUSH1 0x40 MSTORE RETURNDATASIZE DUP3 MSTORE RETURNDATASIZE PUSH0 PUSH1 0x20 DUP5 ADD RETURNDATACOPY PUSH2 0x1BE7 JUMP JUMPDEST PUSH1 0x60 SWAP2 POP JUMPDEST POP SWAP2 POP SWAP2 POP PUSH2 0x1BF7 DUP6 DUP4 DUP4 PUSH2 0x1D06 JUMP JUMPDEST SWAP3 POP POP POP SWAP3 SWAP2 POP POP JUMP JUMPDEST PUSH0 CALLVALUE GT ISZERO PUSH2 0x1C3B JUMPI PUSH1 0x40 MLOAD PUSH32 0xB398979F00000000000000000000000000000000000000000000000000000000 DUP2 MSTORE PUSH1 0x4 ADD PUSH1 0x40 MLOAD DUP1 SWAP2 SUB SWAP1 REVERT JUMPDEST JUMP JUMPDEST PUSH1 0x60 DUP3 SELFBALANCE LT ISZERO PUSH2 0x1C82 JUMPI PUSH1 0x40 MLOAD PUSH32 0x8C379A000000000000000000000000000000000000000000000000000000000 DUP2 MSTORE PUSH1 0x4 ADD PUSH2 0x1C79 SWAP1 PUSH2 0x2F97 JUMP JUMPDEST PUSH1 0x40 MLOAD DUP1 SWAP2 SUB SWAP1 REVERT JUMPDEST PUSH0 PUSH0 DUP7 PUSH20 0xFFFFFFFFFFFFFFFFFFFFFFFFFFFFFFFFFFFFFFFF AND DUP6 DUP8 PUSH1 0x40 MLOAD PUSH2 0x1CAA SWAP2 SWAP1 PUSH2 0x2F11 JUMP JUMPDEST PUSH0 PUSH1 0x40 MLOAD DUP1 DUP4 SUB DUP2 DUP6 DUP8 GAS CALL SWAP3 POP POP POP RETURNDATASIZE DUP1 PUSH0 DUP2 EQ PUSH2 0x1CE4 JUMPI PUSH1 0x40 MLOAD SWAP2 POP PUSH1 0x1F NOT PUSH1 0x3F RETURNDATASIZE ADD AND DUP3 ADD PUSH1 0x40 MSTORE RETURNDATASIZE DUP3 MSTORE RETURNDATASIZE PUSH0 PUSH1 0x20 DUP5 ADD RETURNDATACOPY PUSH2 0x1CE9 JUMP JUMPDEST PUSH1 0x60 SWAP2 POP JUMPDEST POP SWAP2 POP SWAP2 POP PUSH2 0x1CFA DUP8 DUP4 DUP4 DUP8 PUSH2 0x1D93 JUMP JUMPDEST SWAP3 POP POP POP SWAP5 SWAP4 POP POP POP POP JUMP JUMPDEST PUSH1 0x60 DUP3 PUSH2 0x1D1B JUMPI PUSH2 0x1D16 DUP3 PUSH2 0x1E07 JUMP JUMPDEST PUSH2 0x1D8B JUMP JUMPDEST PUSH0 DUP3 MLOAD EQ DUP1 ISZERO PUSH2 0x1D41 JUMPI POP PUSH0 DUP5 PUSH20 0xFFFFFFFFFFFFFFFFFFFFFFFFFFFFFFFFFFFFFFFF AND EXTCODESIZE EQ JUMPDEST ISZERO PUSH2 0x1D83 JUMPI DUP4 PUSH1 0x40 MLOAD PUSH32 0x9996B31500000000000000000000000000000000000000000000000000000000 DUP2 MSTORE PUSH1 0x4 ADD PUSH2 0x1D7A SWAP2 SWAP1 PUSH2 0x23A6 JUMP JUMPDEST PUSH1 0x40 MLOAD DUP1 SWAP2 SUB SWAP1 REVERT JUMPDEST DUP2 SWAP1 POP PUSH2 0x1D8C JUMP JUMPDEST JUMPDEST SWAP4 SWAP3 POP POP POP JUMP JUMPDEST PUSH1 0x60 DUP4 ISZERO PUSH2 0x1DF4 JUMPI PUSH0 DUP4 MLOAD SUB PUSH2 0x1DEC JUMPI PUSH2 0x1DAC DUP6 PUSH2 0x1A6F JUMP JUMPDEST PUSH2 0x1DEB JUMPI PUSH1 0x40 MLOAD PUSH32 0x8C379A000000000000000000000000000000000000000000000000000000000 DUP2 MSTORE PUSH1 0x4 ADD PUSH2 0x1DE2 SWAP1 PUSH2 0x2FFF JUMP JUMPDEST PUSH1 0x40 MLOAD DUP1 SWAP2 SUB SWAP1 REVERT JUMPDEST JUMPDEST DUP3 SWAP1 POP PUSH2 0x1DFF JUMP JUMPDEST PUSH2 0x1DFE DUP4 DUP4 PUSH2 0x1E4A JUMP JUMPDEST JUMPDEST SWAP5 SWAP4 POP POP POP POP JUMP JUMPDEST PUSH0 DUP2 MLOAD GT ISZERO PUSH2 0x1E18 JUMPI DUP1 MLOAD PUSH1 0x20 DUP3 ADD REVERT JUMPDEST PUSH1 0x40 MLOAD PUSH32 0xD6BDA27500000000000000000000000000000000000000000000000000000000 DUP2 MSTORE PUSH1 0x4 ADD PUSH1 0x40 MLOAD DUP1 SWAP2 SUB SWAP1 REVERT JUMPDEST PUSH0 DUP3 MLOAD GT ISZERO PUSH2 0x1E5C JUMPI DUP2 MLOAD DUP1 DUP4 PUSH1 0x20 ADD REVERT JUMPDEST DUP1 PUSH1 0x40 MLOAD PUSH32 0x8C379A000000000000000000000000000000000000000000000000000000000 DUP2 MSTORE PUSH1 0x4 ADD PUSH2 0x1E90 SWAP2 SWAP1 PUSH2 0x2386 JUMP JUMPDEST PUSH1 0x40 MLOAD DUP1 SWAP2 SUB SWAP1 REVERT JUMPDEST PUSH0 PUSH1 0x40 MLOAD SWAP1 POP SWAP1 JUMP JUMPDEST PUSH0 PUSH0 REVERT JUMPDEST PUSH0 PUSH0 REVERT JUMPDEST PUSH0 DUP2 SWAP1 POP SWAP2 SWAP1 POP JUMP JUMPDEST PUSH2 0x1EBC DUP2 PUSH2 0x1EAA JUMP JUMPDEST DUP2 EQ PUSH2 0x1EC6 JUMPI PUSH0 PUSH0 REVERT JUMPDEST POP JUMP JUMPDEST PUSH0 DUP2 CALLDATALOAD SWAP1 POP PUSH2 0x1ED7 DUP2 PUSH2 0x1EB3 JUMP JUMPDEST SWAP3 SWAP2 POP POP JUMP JUMPDEST PUSH0 PUSH0 REVERT JUMPDEST PUSH0 PUSH0 REVERT JUMPDEST PUSH0 PUSH1 0x1F NOT PUSH1 0x1F DUP4 ADD AND SWAP1 POP SWAP2 SWAP1 POP JUMP JUMPDEST PUSH32 0x4E487B7100000000000000000000000000000000000000000000000000000000 PUSH0 MSTORE PUSH1 0x41 PUSH1 0x4 MSTORE PUSH1 0x24 PUSH0 REVERT JUMPDEST PUSH2 0x1F2B DUP3 PUSH2 0x1EE5 JUMP JUMPDEST DUP2 ADD DUP2 DUP2 LT PUSH8 0xFFFFFFFFFFFFFFFF DUP3 GT OR ISZERO PUSH2 0x1F4A JUMPI PUSH2 0x1F49 PUSH2 0x1EF5 JUMP JUMPDEST JUMPDEST DUP1 PUSH1 0x40 MSTORE POP POP POP JUMP JUMPDEST PUSH0 PUSH2 0x1F5C PUSH2 0x1E99 JUMP JUMPDEST SWAP1 POP PUSH2 0x1F68 DUP3 DUP3 PUSH2 0x1F22 JUMP JUMPDEST SWAP2 SWAP1 POP JUMP JUMPDEST PUSH0 PUSH8 0xFFFFFFFFFFFFFFFF DUP3 GT ISZERO PUSH2 0x1F87 JUMPI PUSH2 0x1F86 PUSH2 0x1EF5 JUMP JUMPDEST JUMPDEST PUSH2 0x1F90 DUP3 PUSH2 0x1EE5 JUMP JUMPDEST SWAP1 POP PUSH1 0x20 DUP2 ADD SWAP1 POP SWAP2 SWAP1 POP JUMP JUMPDEST DUP3 DUP2 DUP4 CALLDATACOPY PUSH0 DUP4 DUP4 ADD MSTORE POP POP POP JUMP JUMPDEST PUSH0 PUSH2 0x1FBD PUSH2 0x1FB8 DUP5 PUSH2 0x1F6D JUMP JUMPDEST PUSH2 0x1F53 JUMP JUMPDEST SWAP1 POP DUP3 DUP2 MSTORE PUSH1 0x20 DUP2 ADD DUP5 DUP5 DUP5 ADD GT ISZERO PUSH2 0x1FD9 JUMPI PUSH2 0x1FD8 PUSH2 0x1EE1 JUMP JUMPDEST JUMPDEST PUSH2 0x1FE4 DUP5 DUP3 DUP6 PUSH2 0x1F9D JUMP JUMPDEST POP SWAP4 SWAP3 POP POP POP JUMP JUMPDEST PUSH0 DUP3 PUSH1 0x1F DUP4 ADD SLT PUSH2 0x2000 JUMPI PUSH2 0x1FFF PUSH2 0x1EDD JUMP JUMPDEST JUMPDEST DUP2 CALLDATALOAD PUSH2 0x2010 DUP5 DUP3 PUSH1 0x20 DUP7 ADD PUSH2 0x1FAB JUMP JUMPDEST SWAP2 POP POP SWAP3 SWAP2 POP POP JUMP JUMPDEST PUSH0 PUSH0 PUSH1 0x40 DUP4 DUP6 SUB SLT ISZERO PUSH2 0x202F JUMPI PUSH2 0x202E PUSH2 0x1EA2 JUMP JUMPDEST JUMPDEST PUSH0 PUSH2 0x203C DUP6 DUP3 DUP7 ADD PUSH2 0x1EC9 JUMP JUMPDEST SWAP3 POP POP PUSH1 0x20 DUP4 ADD CALLDATALOAD PUSH8 0xFFFFFFFFFFFFFFFF DUP2 GT ISZERO PUSH2 0x205D JUMPI PUSH2 0x205C PUSH2 0x1EA6 JUMP JUMPDEST JUMPDEST PUSH2 0x2069 DUP6 DUP3 DUP7 ADD PUSH2 0x1FEC JUMP JUMPDEST SWAP2 POP POP SWAP3 POP SWAP3 SWAP1 POP JUMP JUMPDEST PUSH0 PUSH20 0xFFFFFFFFFFFFFFFFFFFFFFFFFFFFFFFFFFFFFFFF DUP3 AND SWAP1 POP SWAP2 SWAP1 POP JUMP JUMPDEST PUSH0 DUP2 SWAP1 POP SWAP2 SWAP1 POP JUMP JUMPDEST PUSH0 PUSH2 0x20B5 PUSH2 0x20B0 PUSH2 0x20AB DUP5 PUSH2 0x2073 JUMP JUMPDEST PUSH2 0x2092 JUMP JUMPDEST PUSH2 0x2073 JUMP JUMPDEST SWAP1 POP SWAP2 SWAP1 POP JUMP JUMPDEST PUSH0 PUSH2 0x20C6 DUP3 PUSH2 0x209B JUMP JUMPDEST SWAP1 POP SWAP2 SWAP1 POP JUMP JUMPDEST PUSH0 PUSH2 0x20D7 DUP3 PUSH2 0x20BC JUMP JUMPDEST SWAP1 POP SWAP2 SWAP1 POP JUMP JUMPDEST PUSH2 0x20E7 DUP2 PUSH2 0x20CD JUMP JUMPDEST DUP3 MSTORE POP POP JUMP JUMPDEST PUSH0 PUSH1 0x20 DUP3 ADD SWAP1 POP PUSH2 0x2100 PUSH0 DUP4 ADD DUP5 PUSH2 0x20DE JUMP JUMPDEST SWAP3 SWAP2 POP POP JUMP JUMPDEST PUSH0 PUSH2 0x2110 DUP3 PUSH2 0x2073 JUMP JUMPDEST SWAP1 POP SWAP2 SWAP1 POP JUMP JUMPDEST PUSH2 0x2120 DUP2 PUSH2 0x2106 JUMP JUMPDEST DUP2 EQ PUSH2 0x212A JUMPI PUSH0 PUSH0 REVERT JUMPDEST POP JUMP JUMPDEST PUSH0 DUP2 CALLDATALOAD SWAP1 POP PUSH2 0x213B DUP2 PUSH2 0x2117 JUMP JUMPDEST SWAP3 SWAP2 POP POP JUMP JUMPDEST PUSH0 PUSH1 0x20 DUP3 DUP5 SUB SLT ISZERO PUSH2 0x2156 JUMPI PUSH2 0x2155 PUSH2 0x1EA2 JUMP JUMPDEST JUMPDEST PUSH0 PUSH2 0x2163 DUP5 DUP3 DUP6 ADD PUSH2 0x212D JUMP JUMPDEST SWAP2 POP POP SWAP3 SWAP2 POP POP JUMP JUMPDEST PUSH2 0x2175 DUP2 PUSH2 0x1EAA JUMP JUMPDEST DUP3 MSTORE POP POP JUMP JUMPDEST PUSH2 0x2184 DUP2 PUSH2 0x2106 JUMP JUMPDEST DUP3 MSTORE POP POP JUMP JUMPDEST PUSH0 PUSH1 0x60 DUP3 ADD SWAP1 POP PUSH2 0x219D PUSH0 DUP4 ADD DUP7 PUSH2 0x216C JUMP JUMPDEST PUSH2 0x21AA PUSH1 0x20 DUP4 ADD DUP6 PUSH2 0x216C JUMP JUMPDEST PUSH2 0x21B7 PUSH1 0x40 DUP4 ADD DUP5 PUSH2 0x217B JUMP JUMPDEST SWAP5 SWAP4 POP POP POP POP JUMP JUMPDEST PUSH0 PUSH0 PUSH1 0x40 DUP4 DUP6 SUB SLT ISZERO PUSH2 0x21D5 JUMPI PUSH2 0x21D4 PUSH2 0x1EA2 JUMP JUMPDEST JUMPDEST PUSH0 PUSH2 0x21E2 DUP6 DUP3 DUP7 ADD PUSH2 0x212D JUMP JUMPDEST SWAP3 POP POP PUSH1 0x20 PUSH2 0x21F3 DUP6 DUP3 DUP7 ADD PUSH2 0x212D JUMP JUMPDEST SWAP2 POP POP SWAP3 POP SWAP3 SWAP1 POP JUMP JUMPDEST PUSH0 PUSH8 0xFFFFFFFFFFFFFFFF DUP3 GT ISZERO PUSH2 0x2217 JUMPI PUSH2 0x2216 PUSH2 0x1EF5 JUMP JUMPDEST JUMPDEST PUSH2 0x2220 DUP3 PUSH2 0x1EE5 JUMP JUMPDEST SWAP1 POP PUSH1 0x20 DUP2 ADD SWAP1 POP SWAP2 SWAP1 POP JUMP JUMPDEST PUSH0 PUSH2 0x223F PUSH2 0x223A DUP5 PUSH2 0x21FD JUMP JUMPDEST PUSH2 0x1F53 JUMP JUMPDEST SWAP1 POP DUP3 DUP2 MSTORE PUSH1 0x20 DUP2 ADD DUP5 DUP5 DUP5 ADD GT ISZERO PUSH2 0x225B JUMPI PUSH2 0x225A PUSH2 0x1EE1 JUMP JUMPDEST JUMPDEST PUSH2 0x2266 DUP5 DUP3 DUP6 PUSH2 0x1F9D JUMP JUMPDEST POP SWAP4 SWAP3 POP POP POP JUMP JUMPDEST PUSH0 DUP3 PUSH1 0x1F DUP4 ADD SLT PUSH2 0x2282 JUMPI PUSH2 0x2281 PUSH2 0x1EDD JUMP JUMPDEST JUMPDEST DUP2 CALLDATALOAD PUSH2 0x2292 DUP5 DUP3 PUSH1 0x20 DUP7 ADD PUSH2 0x222D JUMP JUMPDEST SWAP2 POP POP SWAP3 SWAP2 POP POP JUMP JUMPDEST PUSH0 PUSH0 PUSH1 0x40 DUP4 DUP6 SUB SLT ISZERO PUSH2 0x22B1 JUMPI PUSH2 0x22B0 PUSH2 0x1EA2 JUMP JUMPDEST JUMPDEST PUSH0 PUSH2 0x22BE DUP6 DUP3 DUP7 ADD PUSH2 0x212D JUMP JUMPDEST SWAP3 POP POP PUSH1 0x20 DUP4 ADD CALLDATALOAD PUSH8 0xFFFFFFFFFFFFFFFF DUP2 GT ISZERO PUSH2 0x22DF JUMPI PUSH2 0x22DE PUSH2 0x1EA6 JUMP JUMPDEST JUMPDEST PUSH2 0x22EB DUP6 DUP3 DUP7 ADD PUSH2 0x226E JUMP JUMPDEST SWAP2 POP POP SWAP3 POP SWAP3 SWAP1 POP JUMP JUMPDEST PUSH0 DUP2 SWAP1 POP SWAP2 SWAP1 POP JUMP JUMPDEST PUSH2 0x2307 DUP2 PUSH2 0x22F5 JUMP JUMPDEST DUP3 MSTORE POP POP JUMP JUMPDEST PUSH0 PUSH1 0x20 DUP3 ADD SWAP1 POP PUSH2 0x2320 PUSH0 DUP4 ADD DUP5 PUSH2 0x22FE JUMP JUMPDEST SWAP3 SWAP2 POP POP JUMP JUMPDEST PUSH0 DUP2 MLOAD SWAP1 POP SWAP2 SWAP1 POP JUMP JUMPDEST PUSH0 DUP3 DUP3 MSTORE PUSH1 0x20 DUP3 ADD SWAP1 POP SWAP3 SWAP2 POP POP JUMP JUMPDEST DUP3 DUP2 DUP4 MCOPY PUSH0 DUP4 DUP4 ADD MSTORE POP POP POP JUMP JUMPDEST PUSH0 PUSH2 0x2358 DUP3 PUSH2 0x2326 JUMP JUMPDEST PUSH2 0x2362 DUP2 DUP6 PUSH2 0x2330 JUMP JUMPDEST SWAP4 POP PUSH2 0x2372 DUP2 DUP6 PUSH1 0x20 DUP7 ADD PUSH2 0x2340 JUMP JUMPDEST PUSH2 0x237B DUP2 PUSH2 0x1EE5 JUMP JUMPDEST DUP5 ADD SWAP2 POP POP SWAP3 SWAP2 POP POP JUMP JUMPDEST PUSH0 PUSH1 0x20 DUP3 ADD SWAP1 POP DUP2 DUP2 SUB PUSH0 DUP4 ADD MSTORE PUSH2 0x239E DUP2 DUP5 PUSH2 0x234E JUMP JUMPDEST SWAP1 POP SWAP3 SWAP2 POP POP JUMP JUMPDEST PUSH0 PUSH1 0x20 DUP3 ADD SWAP1 POP PUSH2 0x23B9 PUSH0 DUP4 ADD DUP5 PUSH2 0x217B JUMP JUMPDEST SWAP3 SWAP2 POP POP JUMP JUMPDEST PUSH0 PUSH2 0x23C9 DUP3 PUSH2 0x20BC JUMP JUMPDEST SWAP1 POP SWAP2 SWAP1 POP JUMP JUMPDEST PUSH2 0x23D9 DUP2 PUSH2 0x23BF JUMP JUMPDEST DUP3 MSTORE POP POP JUMP JUMPDEST PUSH0 PUSH1 0x20 DUP3 ADD SWAP1 POP PUSH2 0x23F2 PUSH0 DUP4 ADD DUP5 PUSH2 0x23D0 JUMP JUMPDEST SWAP3 SWAP2 POP POP JUMP JUMPDEST PUSH0 PUSH1 0x20 DUP3 DUP5 SUB SLT ISZERO PUSH2 0x240D JUMPI PUSH2 0x240C PUSH2 0x1EA2 JUMP JUMPDEST JUMPDEST PUSH0 DUP3 ADD CALLDATALOAD PUSH8 0xFFFFFFFFFFFFFFFF DUP2 GT ISZERO PUSH2 0x242A JUMPI PUSH2 0x2429 PUSH2 0x1EA6 JUMP JUMPDEST JUMPDEST PUSH2 0x2436 DUP5 DUP3 DUP6 ADD PUSH2 0x1FEC JUMP JUMPDEST SWAP2 POP POP SWAP3 SWAP2 POP POP JUMP JUMPDEST PUSH32 0x5A61704170793A20416D6F756E74206D757374206265203E2030000000000000 PUSH0 DUP3 ADD MSTORE POP JUMP JUMPDEST PUSH0 PUSH2 0x2473 PUSH1 0x1A DUP4 PUSH2 0x2330 JUMP JUMPDEST SWAP2 POP PUSH2 0x247E DUP3 PUSH2 0x243F JUMP JUMPDEST PUSH1 0x20 DUP3 ADD SWAP1 POP SWAP2 SWAP1 POP JUMP JUMPDEST PUSH0 PUSH1 0x20 DUP3 ADD SWAP1 POP DUP2 DUP2 SUB PUSH0 DUP4 ADD MSTORE PUSH2 0x24A0 DUP2 PUSH2 0x2467 JUMP JUMPDEST SWAP1 POP SWAP2 SWAP1 POP JUMP JUMPDEST PUSH32 0x5A61704170793A20526566657272616C20436F64652069732052455155495245 PUSH0 DUP3 ADD MSTORE PUSH32 0x4400000000000000000000000000000000000000000000000000000000000000 PUSH1 0x20 DUP3 ADD MSTORE POP JUMP JUMPDEST PUSH0 PUSH2 0x2501 PUSH1 0x21 DUP4 PUSH2 0x2330 JUMP JUMPDEST SWAP2 POP PUSH2 0x250C DUP3 PUSH2 0x24A7 JUMP JUMPDEST PUSH1 0x40 DUP3 ADD SWAP1 POP SWAP2 SWAP1 POP JUMP JUMPDEST PUSH0 PUSH1 0x20 DUP3 ADD SWAP1 POP DUP2 DUP2 SUB PUSH0 DUP4 ADD MSTORE PUSH2 0x252E DUP2 PUSH2 0x24F5 JUMP JUMPDEST SWAP1 POP SWAP2 SWAP1 POP JUMP JUMPDEST PUSH0 DUP2 SWAP1 POP SWAP3 SWAP2 POP POP JUMP JUMPDEST PUSH0 PUSH2 0x2549 DUP3 PUSH2 0x2326 JUMP JUMPDEST PUSH2 0x2553 DUP2 DUP6 PUSH2 0x2535 JUMP JUMPDEST SWAP4 POP PUSH2 0x2563 DUP2 DUP6 PUSH1 0x20 DUP7 ADD PUSH2 0x2340 JUMP JUMPDEST DUP1 DUP5 ADD SWAP2 POP POP SWAP3 SWAP2 POP POP JUMP JUMPDEST PUSH0 PUSH2 0x257A DUP3 DUP5 PUSH2 0x253F JUMP JUMPDEST SWAP2 POP DUP2 SWAP1 POP SWAP3 SWAP2 POP POP JUMP JUMPDEST PUSH32 0x5A61704170793A20496E76616C696420526566657272616C20436F6465000000 PUSH0 DUP3 ADD MSTORE POP JUMP JUMPDEST PUSH0 PUSH2 0x25B9 PUSH1 0x1D DUP4 PUSH2 0x2330 JUMP JUMPDEST SWAP2 POP PUSH2 0x25C4 DUP3 PUSH2 0x2585 JUMP JUMPDEST PUSH1 0x20 DUP3 ADD SWAP1 POP SWAP2 SWAP1 POP JUMP JUMPDEST PUSH0 PUSH1 0x20 DUP3 ADD SWAP1 POP DUP2 DUP2 SUB PUSH0 DUP4 ADD MSTORE PUSH2 0x25E6 DUP2 PUSH2 0x25AD JUMP JUMPDEST SWAP1 POP SWAP2 SWAP1 POP JUMP JUMPDEST PUSH32 0x5A61704170793A2043616E6E6F7420726566657220796F757273656C66000000 PUSH0 DUP3 ADD MSTORE POP JUMP JUMPDEST PUSH0 PUSH2 0x2621 PUSH1 0x1D DUP4 PUSH2 0x2330 JUMP JUMPDEST SWAP2 POP PUSH2 0x262C DUP3 PUSH2 0x25ED JUMP JUMPDEST PUSH1 0x20 DUP3 ADD SWAP1 POP SWAP2 SWAP1 POP JUMP JUMPDEST PUSH0 PUSH1 0x20 DUP3 ADD SWAP1 POP DUP2 DUP2 SUB PUSH0 DUP4 ADD MSTORE PUSH2 0x264E DUP2 PUSH2 0x2615 JUMP JUMPDEST SWAP1 POP SWAP2 SWAP1 POP JUMP JUMPDEST PUSH32 0x4E487B7100000000000000000000000000000000000000000000000000000000 PUSH0 MSTORE PUSH1 0x11 PUSH1 0x4 MSTORE PUSH1 0x24 PUSH0 REVERT JUMPDEST PUSH0 PUSH2 0x268C DUP3 PUSH2 0x1EAA JUMP JUMPDEST SWAP2 POP PUSH2 0x2697 DUP4 PUSH2 0x1EAA JUMP JUMPDEST SWAP3 POP DUP3 DUP3 ADD SWAP1 POP DUP1 DUP3 GT ISZERO PUSH2 0x26AF JUMPI PUSH2 0x26AE PUSH2 0x2655 JUMP JUMPDEST JUMPDEST SWAP3 SWAP2 POP POP JUMP JUMPDEST PUSH0 PUSH1 0x40 DUP3 ADD SWAP1 POP PUSH2 0x26C8 PUSH0 DUP4 ADD DUP6 PUSH2 0x216C JUMP JUMPDEST PUSH2 0x26D5 PUSH1 0x20 DUP4 ADD DUP5 PUSH2 0x217B JUMP JUMPDEST SWAP4 SWAP3 POP POP POP JUMP JUMPDEST PUSH0 DUP2 MLOAD SWAP1 POP PUSH2 0x26EA DUP2 PUSH2 0x1EB3 JUMP JUMPDEST SWAP3 SWAP2 POP POP JUMP JUMPDEST PUSH0 PUSH1 0x20 DUP3 DUP5 SUB SLT ISZERO PUSH2 0x2705 JUMPI PUSH2 0x2704 PUSH2 0x1EA2 JUMP JUMPDEST JUMPDEST PUSH0 PUSH2 0x2712 DUP5 DUP3 DUP6 ADD PUSH2 0x26DC JUMP JUMPDEST SWAP2 POP POP SWAP3 SWAP2 POP POP JUMP JUMPDEST PUSH0 PUSH1 0x40 DUP3 ADD SWAP1 POP PUSH2 0x272E PUSH0 DUP4 ADD DUP6 PUSH2 0x216C JUMP JUMPDEST DUP2 DUP2 SUB PUSH1 0x20 DUP4 ADD MSTORE PUSH2 0x2740 DUP2 DUP5 PUSH2 0x234E JUMP JUMPDEST SWAP1 POP SWAP4 SWAP3 POP POP POP JUMP JUMPDEST PUSH32 0x4E487B7100000000000000000000000000000000000000000000000000000000 PUSH0 MSTORE PUSH1 0x22 PUSH1 0x4 MSTORE PUSH1 0x24 PUSH0 REVERT JUMPDEST PUSH0 PUSH1 0x2 DUP3 DIV SWAP1 POP PUSH1 0x1 DUP3 AND DUP1 PUSH2 0x278D JUMPI PUSH1 0x7F DUP3 AND SWAP2 POP JUMPDEST PUSH1 0x20 DUP3 LT DUP2 SUB PUSH2 0x27A0 JUMPI PUSH2 0x279F PUSH2 0x2749 JUMP JUMPDEST JUMPDEST POP SWAP2 SWAP1 POP JUMP JUMPDEST PUSH32 0x5A61704170793A20596F7520616C72656164792068617665206120636F646500 PUSH0 DUP3 ADD MSTORE POP JUMP JUMPDEST PUSH0 PUSH2 0x27DA PUSH1 0x1F DUP4 PUSH2 0x2330 JUMP JUMPDEST SWAP2 POP PUSH2 0x27E5 DUP3 PUSH2 0x27A6 JUMP JUMPDEST PUSH1 0x20 DUP3 ADD SWAP1 POP SWAP2 SWAP1 POP JUMP JUMPDEST PUSH0 PUSH1 0x20 DUP3 ADD SWAP1 POP DUP2 DUP2 SUB PUSH0 DUP4 ADD MSTORE PUSH2 0x2807 DUP2 PUSH2 0x27CE JUMP JUMPDEST SWAP1 POP SWAP2 SWAP1 POP JUMP JUMPDEST PUSH32 0x5A61704170793A20436F646520636F6C6C6973696F6E2C207472792061676169 PUSH0 DUP3 ADD MSTORE PUSH32 0x6E00000000000000000000000000000000000000000000000000000000000000 PUSH1 0x20 DUP3 ADD MSTORE POP JUMP JUMPDEST PUSH0 PUSH2 0x2868 PUSH1 0x21 DUP4 PUSH2 0x2330 JUMP JUMPDEST SWAP2 POP PUSH2 0x2873 DUP3 PUSH2 0x280E JUMP JUMPDEST PUSH1 0x40 DUP3 ADD SWAP1 POP SWAP2 SWAP1 POP JUMP JUMPDEST PUSH0 PUSH1 0x20 DUP3 ADD SWAP1 POP DUP2 DUP2 SUB PUSH0 DUP4 ADD MSTORE PUSH2 0x2895 DUP2 PUSH2 0x285C JUMP JUMPDEST SWAP1 POP SWAP2 SWAP1 POP JUMP JUMPDEST PUSH0 DUP2 SWAP1 POP DUP2 PUSH0 MSTORE PUSH1 0x20 PUSH0 KECCAK256 SWAP1 POP SWAP2 SWAP1 POP JUMP JUMPDEST PUSH0 PUSH1 0x20 PUSH1 0x1F DUP4 ADD DIV SWAP1 POP SWAP2 SWAP1 POP JUMP JUMPDEST PUSH0 DUP3 DUP3 SHL SWAP1 POP SWAP3 SWAP2 POP POP JUMP JUMPDEST PUSH0 PUSH1 0x8 DUP4 MUL PUSH2 0x28F8 PUSH32 0xFFFFFFFFFFFFFFFFFFFFFFFFFFFFFFFFFFFFFFFFFFFFFFFFFFFFFFFFFFFFFFFF DUP3 PUSH2 0x28BD JUMP JUMPDEST PUSH2 0x2902 DUP7 DUP4 PUSH2 0x28BD JUMP JUMPDEST SWAP6 POP DUP1 NOT DUP5 AND SWAP4 POP DUP1 DUP7 AND DUP5 OR SWAP3 POP POP POP SWAP4 SWAP3 POP POP POP JUMP JUMPDEST PUSH0 PUSH2 0x2934 PUSH2 0x292F PUSH2 0x292A DUP5 PUSH2 0x1EAA JUMP JUMPDEST PUSH2 0x2092 JUMP JUMPDEST PUSH2 0x1EAA JUMP JUMPDEST SWAP1 POP SWAP2 SWAP1 POP JUMP JUMPDEST PUSH0 DUP2 SWAP1 POP SWAP2 SWAP1 POP JUMP JUMPDEST PUSH2 0x294D DUP4 PUSH2 0x291A JUMP JUMPDEST PUSH2 0x2961 PUSH2 0x2959 DUP3 PUSH2 0x293B JUMP JUMPDEST DUP5 DUP5 SLOAD PUSH2 0x28C9 JUMP JUMPDEST DUP3 SSTORE POP POP POP POP JUMP JUMPDEST PUSH0 PUSH0 SWAP1 POP SWAP1 JUMP JUMPDEST PUSH2 0x2978 PUSH2 0x2969 JUMP JUMPDEST PUSH2 0x2983 DUP2 DUP5 DUP5 PUSH2 0x2944 JUMP JUMPDEST POP POP POP JUMP JUMPDEST JUMPDEST DUP2 DUP2 LT ISZERO PUSH2 0x29A6 JUMPI PUSH2 0x299B PUSH0 DUP3 PUSH2 0x2970 JUMP JUMPDEST PUSH1 0x1 DUP2 ADD SWAP1 POP PUSH2 0x2989 JUMP JUMPDEST POP POP JUMP JUMPDEST PUSH1 0x1F DUP3 GT ISZERO PUSH2 0x29EB JUMPI PUSH2 0x29BC DUP2 PUSH2 0x289C JUMP JUMPDEST PUSH2 0x29C5 DUP5 PUSH2 0x28AE JUMP JUMPDEST DUP2 ADD PUSH1 0x20 DUP6 LT ISZERO PUSH2 0x29D4 JUMPI DUP2 SWAP1 POP JUMPDEST PUSH2 0x29E8 PUSH2 0x29E0 DUP6 PUSH2 0x28AE JUMP JUMPDEST DUP4 ADD DUP3 PUSH2 0x2988 JUMP JUMPDEST POP POP JUMPDEST POP POP POP JUMP JUMPDEST PUSH0 DUP3 DUP3 SHR SWAP1 POP SWAP3 SWAP2 POP POP JUMP JUMPDEST PUSH0 PUSH2 0x2A0B PUSH0 NOT DUP5 PUSH1 0x8 MUL PUSH2 0x29F0 JUMP JUMPDEST NOT DUP1 DUP4 AND SWAP2 POP POP SWAP3 SWAP2 POP POP JUMP JUMPDEST PUSH0 PUSH2 0x2A23 DUP4 DUP4 PUSH2 0x29FC JUMP JUMPDEST SWAP2 POP DUP3 PUSH1 0x2 MUL DUP3 OR SWAP1 POP SWAP3 SWAP2 POP POP JUMP JUMPDEST PUSH2 0x2A3C DUP3 PUSH2 0x2326 JUMP JUMPDEST PUSH8 0xFFFFFFFFFFFFFFFF DUP2 GT ISZERO PUSH2 0x2A55 JUMPI PUSH2 0x2A54 PUSH2 0x1EF5 JUMP JUMPDEST JUMPDEST PUSH2 0x2A5F DUP3 SLOAD PUSH2 0x2776 JUMP JUMPDEST PUSH2 0x2A6A DUP3 DUP3 DUP6 PUSH2 0x29AA JUMP JUMPDEST PUSH0 PUSH1 0x20 SWAP1 POP PUSH1 0x1F DUP4 GT PUSH1 0x1 DUP2 EQ PUSH2 0x2A9B JUMPI PUSH0 DUP5 ISZERO PUSH2 0x2A89 JUMPI DUP3 DUP8 ADD MLOAD SWAP1 POP JUMPDEST PUSH2 0x2A93 DUP6 DUP3 PUSH2 0x2A18 JUMP JUMPDEST DUP7 SSTORE POP PUSH2 0x2AFA JUMP JUMPDEST PUSH1 0x1F NOT DUP5 AND PUSH2 0x2AA9 DUP7 PUSH2 0x289C JUMP JUMPDEST PUSH0 JUMPDEST DUP3 DUP2 LT ISZERO PUSH2 0x2AD0 JUMPI DUP5 DUP10 ADD MLOAD DUP3 SSTORE PUSH1 0x1 DUP3 ADD SWAP2 POP PUSH1 0x20 DUP6 ADD SWAP5 POP PUSH1 0x20 DUP2 ADD SWAP1 POP PUSH2 0x2AAB JUMP JUMPDEST DUP7 DUP4 LT ISZERO PUSH2 0x2AED JUMPI DUP5 DUP10 ADD MLOAD PUSH2 0x2AE9 PUSH1 0x1F DUP10 AND DUP3 PUSH2 0x29FC JUMP JUMPDEST DUP4 SSTORE POP JUMPDEST PUSH1 0x1 PUSH1 0x2 DUP9 MUL ADD DUP9 SSTORE POP POP POP JUMPDEST POP POP POP POP POP POP JUMP JUMPDEST PUSH0 DUP2 SWAP1 POP SWAP2 SWAP1 POP JUMP JUMPDEST PUSH0 PUSH8 0xFFFFFFFFFFFFFFFF DUP3 AND SWAP1 POP SWAP2 SWAP1 POP JUMP JUMPDEST PUSH0 PUSH2 0x2B38 PUSH2 0x2B33 PUSH2 0x2B2E DUP5 PUSH2 0x2B02 JUMP JUMPDEST PUSH2 0x2092 JUMP JUMPDEST PUSH2 0x2B0B JUMP JUMPDEST SWAP1 POP SWAP2 SWAP1 POP JUMP JUMPDEST PUSH2 0x2B48 DUP2 PUSH2 0x2B1E JUMP JUMPDEST DUP3 MSTORE POP POP JUMP JUMPDEST PUSH0 PUSH1 0x20 DUP3 ADD SWAP1 POP PUSH2 0x2B61 PUSH0 DUP4 ADD DUP5 PUSH2 0x2B3F JUMP JUMPDEST SWAP3 SWAP2 POP POP JUMP JUMPDEST PUSH0 PUSH1 0x60 DUP3 ADD SWAP1 POP PUSH2 0x2B7A PUSH0 DUP4 ADD DUP7 PUSH2 0x217B JUMP JUMPDEST PUSH2 0x2B87 PUSH1 0x20 DUP4 ADD DUP6 PUSH2 0x217B JUMP JUMPDEST PUSH2 0x2B94 PUSH1 0x40 DUP4 ADD DUP5 PUSH2 0x216C JUMP JUMPDEST SWAP5 SWAP4 POP POP POP POP JUMP JUMPDEST PUSH0 PUSH1 0x40 DUP3 ADD SWAP1 POP PUSH2 0x2BAF PUSH0 DUP4 ADD DUP6 PUSH2 0x217B JUMP JUMPDEST PUSH2 0x2BBC PUSH1 0x20 DUP4 ADD DUP5 PUSH2 0x216C JUMP JUMPDEST SWAP4 SWAP3 POP POP POP JUMP JUMPDEST PUSH0 DUP2 SWAP1 POP SWAP2 SWAP1 POP JUMP JUMPDEST PUSH0 PUSH1 0xFF DUP3 AND SWAP1 POP SWAP2 SWAP1 POP JUMP JUMPDEST PUSH0 PUSH2 0x2BF2 PUSH2 0x2BED PUSH2 0x2BE8 DUP5 PUSH2 0x2BC3 JUMP JUMPDEST PUSH2 0x2092 JUMP JUMPDEST PUSH2 0x2BCC JUMP JUMPDEST SWAP1 POP SWAP2 SWAP1 POP JUMP JUMPDEST PUSH2 0x2C02 DUP2 PUSH2 0x2BD8 JUMP JUMPDEST DUP3 MSTORE POP POP JUMP JUMPDEST PUSH0 PUSH1 0x40 DUP3 ADD SWAP1 POP PUSH2 0x2C1B PUSH0 DUP4 ADD DUP6 PUSH2 0x217B JUMP JUMPDEST PUSH2 0x2C28 PUSH1 0x20 DUP4 ADD DUP5 PUSH2 0x2BF9 JUMP JUMPDEST SWAP4 SWAP3 POP POP POP JUMP JUMPDEST PUSH0 DUP2 PUSH1 0x60 SHL SWAP1 POP SWAP2 SWAP1 POP JUMP JUMPDEST PUSH0 PUSH2 0x2C45 DUP3 PUSH2 0x2C2F JUMP JUMPDEST SWAP1 POP SWAP2 SWAP1 POP JUMP JUMPDEST PUSH0 PUSH2 0x2C56 DUP3 PUSH2 0x2C3B JUMP JUMPDEST SWAP1 POP SWAP2 SWAP1 POP JUMP JUMPDEST PUSH2 0x2C6E PUSH2 0x2C69 DUP3 PUSH2 0x2106 JUMP JUMPDEST PUSH2 0x2C4C JUMP JUMPDEST DUP3 MSTORE POP POP JUMP JUMPDEST PUSH0 DUP2 SWAP1 POP SWAP2 SWAP1 POP JUMP JUMPDEST PUSH2 0x2C8E PUSH2 0x2C89 DUP3 PUSH2 0x1EAA JUMP JUMPDEST PUSH2 0x2C74 JUMP JUMPDEST DUP3 MSTORE POP POP JUMP JUMPDEST PUSH0 PUSH2 0x2C9F DUP3 DUP7 PUSH2 0x2C5D JUMP JUMPDEST PUSH1 0x14 DUP3 ADD SWAP2 POP PUSH2 0x2CAF DUP3 DUP6 PUSH2 0x2C7D JUMP JUMPDEST PUSH1 0x20 DUP3 ADD SWAP2 POP PUSH2 0x2CBF DUP3 DUP5 PUSH2 0x2C7D JUMP JUMPDEST PUSH1 0x20 DUP3 ADD SWAP2 POP DUP2 SWAP1 POP SWAP5 SWAP4 POP POP POP POP JUMP JUMPDEST PUSH32 0x4E487B7100000000000000000000000000000000000000000000000000000000 PUSH0 MSTORE PUSH1 0x12 PUSH1 0x4 MSTORE PUSH1 0x24 PUSH0 REVERT JUMPDEST PUSH0 PUSH2 0x2D07 DUP3 PUSH2 0x1EAA JUMP JUMPDEST SWAP2 POP PUSH2 0x2D12 DUP4 PUSH2 0x1EAA JUMP JUMPDEST SWAP3 POP DUP3 PUSH2 0x2D22 JUMPI PUSH2 0x2D21 PUSH2 0x2CD0 JUMP JUMPDEST JUMPDEST DUP3 DUP3 MOD SWAP1 POP SWAP3 SWAP2 POP POP JUMP JUMPDEST PUSH32 0x4E487B7100000000000000000000000000000000000000000000000000000000 PUSH0 MSTORE PUSH1 0x32 PUSH1 0x4 MSTORE PUSH1 0x24 PUSH0 REVERT JUMPDEST PUSH0 PUSH2 0x2D64 DUP3 PUSH2 0x1EAA JUMP JUMPDEST SWAP2 POP PUSH2 0x2D6F DUP4 PUSH2 0x1EAA JUMP JUMPDEST SWAP3 POP DUP3 PUSH2 0x2D7F JUMPI PUSH2 0x2D7E PUSH2 0x2CD0 JUMP JUMPDEST JUMPDEST DUP3 DUP3 DIV SWAP1 POP SWAP3 SWAP2 POP POP JUMP JUMPDEST PUSH2 0x2D93 DUP2 PUSH2 0x22F5 JUMP JUMPDEST DUP2 EQ PUSH2 0x2D9D JUMPI PUSH0 PUSH0 REVERT JUMPDEST POP JUMP JUMPDEST PUSH0 DUP2 MLOAD SWAP1 POP PUSH2 0x2DAE DUP2 PUSH2 0x2D8A JUMP JUMPDEST SWAP3 SWAP2 POP POP JUMP JUMPDEST PUSH0 PUSH1 0x20 DUP3 DUP5 SUB SLT ISZERO PUSH2 0x2DC9 JUMPI PUSH2 0x2DC8 PUSH2 0x1EA2 JUMP JUMPDEST JUMPDEST PUSH0 PUSH2 0x2DD6 DUP5 DUP3 DUP6 ADD PUSH2 0x2DA0 JUMP JUMPDEST SWAP2 POP POP SWAP3 SWAP2 POP POP JUMP JUMPDEST PUSH0 DUP2 ISZERO ISZERO SWAP1 POP SWAP2 SWAP1 POP JUMP JUMPDEST PUSH2 0x2DF3 DUP2 PUSH2 0x2DDF JUMP JUMPDEST DUP2 EQ PUSH2 0x2DFD JUMPI PUSH0 PUSH0 REVERT JUMPDEST POP JUMP JUMPDEST PUSH0 DUP2 MLOAD SWAP1 POP PUSH2 0x2E0E DUP2 PUSH2 0x2DEA JUMP JUMPDEST SWAP3 SWAP2 POP POP JUMP JUMPDEST PUSH0 PUSH1 0x20 DUP3 DUP5 SUB SLT ISZERO PUSH2 0x2E29 JUMPI PUSH2 0x2E28 PUSH2 0x1EA2 JUMP JUMPDEST JUMPDEST PUSH0 PUSH2 0x2E36 DUP5 DUP3 DUP6 ADD PUSH2 0x2E00 JUMP JUMPDEST SWAP2 POP POP SWAP3 SWAP2 POP POP JUMP JUMPDEST PUSH32 0x5361666545524332303A204552433230206F7065726174696F6E20646964206E PUSH0 DUP3 ADD MSTORE PUSH32 0x6F74207375636365656400000000000000000000000000000000000000000000 PUSH1 0x20 DUP3 ADD MSTORE POP JUMP JUMPDEST PUSH0 PUSH2 0x2E99 PUSH1 0x2A DUP4 PUSH2 0x2330 JUMP JUMPDEST SWAP2 POP PUSH2 0x2EA4 DUP3 PUSH2 0x2E3F JUMP JUMPDEST PUSH1 0x40 DUP3 ADD SWAP1 POP SWAP2 SWAP1 POP JUMP JUMPDEST PUSH0 PUSH1 0x20 DUP3 ADD SWAP1 POP DUP2 DUP2 SUB PUSH0 DUP4 ADD MSTORE PUSH2 0x2EC6 DUP2 PUSH2 0x2E8D JUMP JUMPDEST SWAP1 POP SWAP2 SWAP1 POP JUMP JUMPDEST PUSH0 DUP2 MLOAD SWAP1 POP SWAP2 SWAP1 POP JUMP JUMPDEST PUSH0 DUP2 SWAP1 POP SWAP3 SWAP2 POP POP JUMP JUMPDEST PUSH0 PUSH2 0x2EEB DUP3 PUSH2 0x2ECD JUMP JUMPDEST PUSH2 0x2EF5 DUP2 DUP6 PUSH2 0x2ED7 JUMP JUMPDEST SWAP4 POP PUSH2 0x2F05 DUP2 DUP6 PUSH1 0x20 DUP7 ADD PUSH2 0x2340 JUMP JUMPDEST DUP1 DUP5 ADD SWAP2 POP POP SWAP3 SWAP2 POP POP JUMP JUMPDEST PUSH0 PUSH2 0x2F1C DUP3 DUP5 PUSH2 0x2EE1 JUMP JUMPDEST SWAP2 POP DUP2 SWAP1 POP SWAP3 SWAP2 POP POP JUMP JUMPDEST PUSH32 0x416464726573733A20696E73756666696369656E742062616C616E636520666F PUSH0 DUP3 ADD MSTORE PUSH32 0x722063616C6C0000000000000000000000000000000000000000000000000000 PUSH1 0x20 DUP3 ADD MSTORE POP JUMP JUMPDEST PUSH0 PUSH2 0x2F81 PUSH1 0x26 DUP4 PUSH2 0x2330 JUMP JUMPDEST SWAP2 POP PUSH2 0x2F8C DUP3 PUSH2 0x2F27 JUMP JUMPDEST PUSH1 0x40 DUP3 ADD SWAP1 POP SWAP2 SWAP1 POP JUMP JUMPDEST PUSH0 PUSH1 0x20 DUP3 ADD SWAP1 POP DUP2 DUP2 SUB PUSH0 DUP4 ADD MSTORE PUSH2 0x2FAE DUP2 PUSH2 0x2F75 JUMP JUMPDEST SWAP1 POP SWAP2 SWAP1 POP JUMP JUMPDEST PUSH32 0x416464726573733A2063616C6C20746F206E6F6E2D636F6E7472616374000000 PUSH0 DUP3 ADD MSTORE POP JUMP JUMPDEST PUSH0 PUSH2 0x2FE9 PUSH1 0x1D DUP4 PUSH2 0x2330 JUMP JUMPDEST SWAP2 POP PUSH2 0x2FF4 DUP3 PUSH2 0x2FB5 JUMP JUMPDEST PUSH1 0x20 DUP3 ADD SWAP1 POP SWAP2 SWAP1 POP JUMP JUMPDEST PUSH0 PUSH1 0x20 DUP3 ADD SWAP1 POP DUP2 DUP2 SUB PUSH0 DUP4 ADD MSTORE PUSH2 0x3016 DUP2 PUSH2 0x2FDD JUMP JUMPDEST SWAP1 POP SWAP2 SWAP1 POP JUMP INVALID ADDRESS BALANCE ORIGIN CALLER CALLVALUE CALLDATALOAD CALLDATASIZE CALLDATACOPY CODESIZE CODECOPY COINBASE TIMESTAMP NUMBER PREVRANDAO GASLIMIT CHAINID SELFBALANCE BASEFEE BLOBHASH BLOBBASEFEE 0x4B 0x4C 0x4D 0x4E 0x4F POP MLOAD MSTORE MSTORE8 SLOAD SSTORE JUMP JUMPI PC MSIZE GAS LOG2 PUSH5 0x6970667358 0x22 SLT KECCAK256 0xE9 PC 0xD7 RETURN 0xB1 MSTORE MULMOD 0xCE TSTORE 0xB3 SMOD DUPN 0x61 JUMPI CALL CODESIZE CODESIZE ORIGIN SWAP16 RETURN 0x26 0x4C MSTORE PUSH1 0xC 0xC0 0xAB RJUMP 0x345D MUL PUSH30 0x64736F6C634300081F003300000000000000000000000000000000000000 "
				},
				"gasEstimates": {
					"creation": {
						"codeDepositCost": "2481400",
						"executionCost": "infinite",
						"totalCost": "infinite"
					},
					"external": {
						"UPGRADE_INTERFACE_VERSION()": "infinite",
						"addressToCode(address)": "infinite",
						"codeToAddress(string)": "infinite",
						"createReferralCode()": "infinite",
						"getMyCode()": "infinite",
						"initialize(address,address)": "infinite",
						"moonwellVault()": "infinite",
						"owner()": "2633",
						"proxiableUUID()": "infinite",
						"renounceOwnership()": "infinite",
						"transferOwnership(address)": "infinite",
						"upgradeToAndCall(address,bytes)": "infinite",
						"usdcToken()": "infinite",
						"userInfo(address)": "infinite",
						"zapIn(uint256,string)": "infinite"
					},
					"internal": {
						"_authorizeUpgrade(address)": "infinite",
						"_generateRandomString()": "infinite"
					}
				},
				"methodIdentifiers": {
					"UPGRADE_INTERFACE_VERSION()": "ad3cb1cc",
					"addressToCode(address)": "c4f74631",
					"codeToAddress(string)": "9932dc05",
					"createReferralCode()": "2e108d1c",
					"getMyCode()": "71cd28b4",
					"initialize(address,address)": "485cc955",
					"moonwellVault()": "97da7af7",
					"owner()": "8da5cb5b",
					"proxiableUUID()": "52d1902d",
					"renounceOwnership()": "715018a6",
					"transferOwnership(address)": "f2fde38b",
					"upgradeToAndCall(address,bytes)": "4f1ef286",
					"usdcToken()": "11eac855",
					"userInfo(address)": "1959a002",
					"zapIn(uint256,string)": "040d02e4"
				}
			},
			"storageLayout": {
				"storage": [
					{
						"astId": 2424,
						"contract": "contracts/zapyield-mainnet-beta0.1.8.sol:ZapApyV3",
						"label": "usdcToken",
						"offset": 0,
						"slot": "0",
						"type": "t_contract(IERC20Upgradeable)722"
					},
					{
						"astId": 2427,
						"contract": "contracts/zapyield-mainnet-beta0.1.8.sol:ZapApyV3",
						"label": "moonwellVault",
						"offset": 0,
						"slot": "1",
						"type": "t_contract(IMorphoVault)2409"
					},
					{
						"astId": 2431,
						"contract": "contracts/zapyield-mainnet-beta0.1.8.sol:ZapApyV3",
						"label": "codeToAddress",
						"offset": 0,
						"slot": "2",
						"type": "t_mapping(t_string_memory_ptr,t_address)"
					},
					{
						"astId": 2435,
						"contract": "contracts/zapyield-mainnet-beta0.1.8.sol:ZapApyV3",
						"label": "addressToCode",
						"offset": 0,
						"slot": "3",
						"type": "t_mapping(t_address,t_string_storage)"
					},
					{
						"astId": 2450,
						"contract": "contracts/zapyield-mainnet-beta0.1.8.sol:ZapApyV3",
						"label": "userInfo",
						"offset": 0,
						"slot": "4",
						"type": "t_mapping(t_address,t_struct(UserInfo)2445_storage)"
					}
				],
				"types": {
					"t_address": {
						"encoding": "inplace",
						"label": "address",
						"numberOfBytes": "20"
					},
					"t_contract(IERC20Upgradeable)722": {
						"encoding": "inplace",
						"label": "contract IERC20Upgradeable",
						"numberOfBytes": "20"
					},
					"t_contract(IMorphoVault)2409": {
						"encoding": "inplace",
						"label": "contract IMorphoVault",
						"numberOfBytes": "20"
					},
					"t_mapping(t_address,t_string_storage)": {
						"encoding": "mapping",
						"key": "t_address",
						"label": "mapping(address => string)",
						"numberOfBytes": "32",
						"value": "t_string_storage"
					},
					"t_mapping(t_address,t_struct(UserInfo)2445_storage)": {
						"encoding": "mapping",
						"key": "t_address",
						"label": "mapping(address => struct ZapApyV3.UserInfo)",
						"numberOfBytes": "32",
						"value": "t_struct(UserInfo)2445_storage"
					},
					"t_mapping(t_string_memory_ptr,t_address)": {
						"encoding": "mapping",
						"key": "t_string_memory_ptr",
						"label": "mapping(string => address)",
						"numberOfBytes": "32",
						"value": "t_address"
					},
					"t_string_memory_ptr": {
						"encoding": "bytes",
						"label": "string",
						"numberOfBytes": "32"
					},
					"t_string_storage": {
						"encoding": "bytes",
						"label": "string",
						"numberOfBytes": "32"
					},
					"t_struct(UserInfo)2445_storage": {
						"encoding": "inplace",
						"label": "struct ZapApyV3.UserInfo",
						"members": [
							{
								"astId": 2440,
								"contract": "contracts/zapyield-mainnet-beta0.1.8.sol:ZapApyV3",
								"label": "principal",
								"offset": 0,
								"slot": "0",
								"type": "t_uint256"
							},
							{
								"astId": 2442,
								"contract": "contracts/zapyield-mainnet-beta0.1.8.sol:ZapApyV3",
								"label": "depositTime",
								"offset": 0,
								"slot": "1",
								"type": "t_uint256"
							},
							{
								"astId": 2444,
								"contract": "contracts/zapyield-mainnet-beta0.1.8.sol:ZapApyV3",
								"label": "referrer",
								"offset": 0,
								"slot": "2",
								"type": "t_address"
							}
						],
						"numberOfBytes": "96"
					},
					"t_uint256": {
						"encoding": "inplace",
						"label": "uint256",
						"numberOfBytes": "32"
					}
				}
			},
			"userdoc": {
				"kind": "user",
				"methods": {},
				"version": 1
			}
		}
	}
}