{
	"contracts/zapyield-mainnet-alpha0.002.sol": {
		"ZapYieldsMainnetLive": {
			"abi": [
				{
					"inputs": [],
					"stateMutability": "nonpayable",
					"type": "constructor"
				},
				{
					"inputs": [],
					"name": "MIN_INVESTMENT",
					"outputs": [
						{
							"internalType": "uint256",
							"name": "",
							"type": "uint256"
						}
					],
					"stateMutability": "view",
					"type": "function"
				},
				{
					"inputs": [],
					"name": "USDC",
					"outputs": [
						{
							"internalType": "contract IERC20",
							"name": "",
							"type": "address"
						}
					],
					"stateMutability": "view",
					"type": "function"
				},
				{
					"inputs": [
						{
							"internalType": "address",
							"name": "_user",
							"type": "address"
						}
					],
					"name": "getAccountValue",
					"outputs": [
						{
							"internalType": "uint256",
							"name": "",
							"type": "uint256"
						}
					],
					"stateMutability": "view",
					"type": "function"
				},
				{
					"inputs": [
						{
							"internalType": "address",
							"name": "_user",
							"type": "address"
						}
					],
					"name": "getDownlines",
					"outputs": [
						{
							"internalType": "address[]",
							"name": "",
							"type": "address[]"
						}
					],
					"stateMutability": "view",
					"type": "function"
				},
				{
					"inputs": [],
					"name": "mUSDC",
					"outputs": [
						{
							"internalType": "contract IMorphoVault",
							"name": "",
							"type": "address"
						}
					],
					"stateMutability": "view",
					"type": "function"
				},
				{
					"inputs": [],
					"name": "owner",
					"outputs": [
						{
							"internalType": "address",
							"name": "",
							"type": "address"
						}
					],
					"stateMutability": "view",
					"type": "function"
				},
				{
					"inputs": [
						{
							"internalType": "address",
							"name": "",
							"type": "address"
						},
						{
							"internalType": "uint256",
							"name": "",
							"type": "uint256"
						}
					],
					"name": "referralList",
					"outputs": [
						{
							"internalType": "address",
							"name": "",
							"type": "address"
						}
					],
					"stateMutability": "view",
					"type": "function"
				},
				{
					"inputs": [
						{
							"internalType": "address",
							"name": "",
							"type": "address"
						}
					],
					"name": "users",
					"outputs": [
						{
							"internalType": "uint256",
							"name": "principal",
							"type": "uint256"
						},
						{
							"internalType": "uint256",
							"name": "shareBalance",
							"type": "uint256"
						},
						{
							"internalType": "address",
							"name": "referrer",
							"type": "address"
						}
					],
					"stateMutability": "view",
					"type": "function"
				},
				{
					"inputs": [
						{
							"internalType": "uint256",
							"name": "_amount",
							"type": "uint256"
						},
						{
							"internalType": "address",
							"name": "_referrer",
							"type": "address"
						}
					],
					"name": "zapIn",
					"outputs": [],
					"stateMutability": "nonpayable",
					"type": "function"
				},
				{
					"inputs": [],
					"name": "zapOut",
					"outputs": [],
					"stateMutability": "nonpayable",
					"type": "function"
				}
			],
			"devdoc": {
				"kind": "dev",
				"methods": {},
				"version": 1
			},
			"evm": {
				"assembly": "    /* \"contracts/zapyield-mainnet-alpha0.002.sol\":2701:5002  contract ZapYieldsMainnetLive is Ownable, ReentrancyGuard {... */\n  mstore(0x40, 0x80)\n    /* \"contracts/zapyield-mainnet-alpha0.002.sol\":3313:3349  constructor() Ownable(msg.sender) {} */\n  callvalue\n  dup1\n  iszero\n  tag_1\n  jumpi\n  0x00\n  dup1\n  revert\ntag_1:\n  pop\n    /* \"contracts/zapyield-mainnet-alpha0.002.sol\":3335:3345  msg.sender */\n  caller\n    /* \"contracts/zapyield-mainnet-alpha0.002.sol\":1464:1476  initialOwner */\n  dup1\n    /* \"contracts/zapyield-mainnet-alpha0.002.sol\":1455:1461  _owner */\n  0x00\n  dup1\n    /* \"contracts/zapyield-mainnet-alpha0.002.sol\":1455:1476  _owner = initialOwner */\n  0x0100\n  exp\n  dup2\n  sload\n  dup2\n  0xffffffffffffffffffffffffffffffffffffffff\n  mul\n  not\n  and\n  swap1\n  dup4\n  0xffffffffffffffffffffffffffffffffffffffff\n  and\n  mul\n  or\n  swap1\n  sstore\n  pop\n    /* \"contracts/zapyield-mainnet-alpha0.002.sol\":1411:1483  constructor(address initialOwner) {... */\n  pop\n    /* \"contracts/zapyield-mainnet-alpha0.002.sol\":1658:1659  1 */\n  0x01\n    /* \"contracts/zapyield-mainnet-alpha0.002.sol\":1763:1770  _status */\n  dup1\n    /* \"contracts/zapyield-mainnet-alpha0.002.sol\":1763:1785  _status = _NOT_ENTERED */\n  dup2\n  swap1\n  sstore\n  pop\n    /* \"contracts/zapyield-mainnet-alpha0.002.sol\":2701:5002  contract ZapYieldsMainnetLive is Ownable, ReentrancyGuard {... */\n  dataSize(sub_0)\n  dup1\n  dataOffset(sub_0)\n  0x00\n  codecopy\n  0x00\n  return\nstop\n\nsub_0: assembly {\n        /* \"contracts/zapyield-mainnet-alpha0.002.sol\":2701:5002  contract ZapYieldsMainnetLive is Ownable, ReentrancyGuard {... */\n      mstore(0x40, 0x80)\n      callvalue\n      dup1\n      iszero\n      tag_1\n      jumpi\n      0x00\n      dup1\n      revert\n    tag_1:\n      pop\n      jumpi(tag_2, lt(calldatasize, 0x04))\n      shr(0xe0, calldataload(0x00))\n      dup1\n      0x8da5cb5b\n      gt\n      tag_13\n      jumpi\n      dup1\n      0x8da5cb5b\n      eq\n      tag_8\n      jumpi\n      dup1\n      0xa87430ba\n      eq\n      tag_9\n      jumpi\n      dup1\n      0xd12eb0a3\n      eq\n      tag_10\n      jumpi\n      dup1\n      0xdabeaecf\n      eq\n      tag_11\n      jumpi\n      dup1\n      0xf89ec5f5\n      eq\n      tag_12\n      jumpi\n      jump(tag_2)\n    tag_13:\n      dup1\n      0x23544748\n      eq\n      tag_3\n      jumpi\n      dup1\n      0x44051053\n      eq\n      tag_4\n      jumpi\n      dup1\n      0x4ef8ff33\n      eq\n      tag_5\n      jumpi\n      dup1\n      0x5ae80951\n      eq\n      tag_6\n      jumpi\n      dup1\n      0x89a30271\n      eq\n      tag_7\n      jumpi\n    tag_2:\n      0x00\n      dup1\n      revert\n        /* \"contracts/zapyield-mainnet-alpha0.002.sol\":4166:4641  function zapOut() external nonReentrant {... */\n    tag_3:\n      tag_14\n      tag_15\n      jump\t// in\n    tag_14:\n      stop\n        /* \"contracts/zapyield-mainnet-alpha0.002.sol\":4879:5000  function getDownlines(address _user) external view returns (address[] memory) {... */\n    tag_4:\n      tag_16\n      0x04\n      dup1\n      calldatasize\n      sub\n      dup2\n      add\n      swap1\n      tag_17\n      swap2\n      swap1\n      tag_18\n      jump\t// in\n    tag_17:\n      tag_19\n      jump\t// in\n    tag_16:\n      mload(0x40)\n      tag_20\n      swap2\n      swap1\n      tag_21\n      jump\t// in\n    tag_20:\n      mload(0x40)\n      dup1\n      swap2\n      sub\n      swap1\n      return\n        /* \"contracts/zapyield-mainnet-alpha0.002.sol\":3030:3079  uint256 public constant MIN_INVESTMENT = 10 * 1e6 */\n    tag_5:\n      tag_22\n      tag_23\n      jump\t// in\n    tag_22:\n      mload(0x40)\n      tag_24\n      swap2\n      swap1\n      tag_25\n      jump\t// in\n    tag_24:\n      mload(0x40)\n      dup1\n      swap2\n      sub\n      swap1\n      return\n        /* \"contracts/zapyield-mainnet-alpha0.002.sol\":4647:4873  function getAccountValue(address _user) external view returns (uint256) {... */\n    tag_6:\n      tag_26\n      0x04\n      dup1\n      calldatasize\n      sub\n      dup2\n      add\n      swap1\n      tag_27\n      swap2\n      swap1\n      tag_18\n      jump\t// in\n    tag_27:\n      tag_28\n      jump\t// in\n    tag_26:\n      mload(0x40)\n      tag_29\n      swap2\n      swap1\n      tag_25\n      jump\t// in\n    tag_29:\n      mload(0x40)\n      dup1\n      swap2\n      sub\n      swap1\n      return\n        /* \"contracts/zapyield-mainnet-alpha0.002.sol\":2842:2922  IERC20 public constant USDC = IERC20(0x833589fCD6eDb6E08f4c7C32D4f71b54bdA02913) */\n    tag_7:\n      tag_30\n      tag_31\n      jump\t// in\n    tag_30:\n      mload(0x40)\n      tag_32\n      swap2\n      swap1\n      tag_33\n      jump\t// in\n    tag_32:\n      mload(0x40)\n      dup1\n      swap2\n      sub\n      swap1\n      return\n        /* \"contracts/zapyield-mainnet-alpha0.002.sol\":1489:1574  function owner() public view virtual returns (address) {... */\n    tag_8:\n      tag_34\n      tag_35\n      jump\t// in\n    tag_34:\n      mload(0x40)\n      tag_36\n      swap2\n      swap1\n      tag_37\n      jump\t// in\n    tag_36:\n      mload(0x40)\n      dup1\n      swap2\n      sub\n      swap1\n      return\n        /* \"contracts/zapyield-mainnet-alpha0.002.sol\":3210:3251  mapping(address => UserInfo) public users */\n    tag_9:\n      tag_38\n      0x04\n      dup1\n      calldatasize\n      sub\n      dup2\n      add\n      swap1\n      tag_39\n      swap2\n      swap1\n      tag_18\n      jump\t// in\n    tag_39:\n      tag_40\n      jump\t// in\n    tag_38:\n      mload(0x40)\n      tag_41\n      swap4\n      swap3\n      swap2\n      swap1\n      tag_42\n      jump\t// in\n    tag_41:\n      mload(0x40)\n      dup1\n      swap2\n      sub\n      swap1\n      return\n        /* \"contracts/zapyield-mainnet-alpha0.002.sol\":3257:3306  mapping(address => address[]) public referralList */\n    tag_10:\n      tag_43\n      0x04\n      dup1\n      calldatasize\n      sub\n      dup2\n      add\n      swap1\n      tag_44\n      swap2\n      swap1\n      tag_45\n      jump\t// in\n    tag_44:\n      tag_46\n      jump\t// in\n    tag_43:\n      mload(0x40)\n      tag_47\n      swap2\n      swap1\n      tag_37\n      jump\t// in\n    tag_47:\n      mload(0x40)\n      dup1\n      swap2\n      sub\n      swap1\n      return\n        /* \"contracts/zapyield-mainnet-alpha0.002.sol\":3355:4160  function zapIn(uint256 _amount, address _referrer) external nonReentrant {... */\n    tag_11:\n      tag_48\n      0x04\n      dup1\n      calldatasize\n      sub\n      dup2\n      add\n      swap1\n      tag_49\n      swap2\n      swap1\n      tag_50\n      jump\t// in\n    tag_49:\n      tag_51\n      jump\t// in\n    tag_48:\n      stop\n        /* \"contracts/zapyield-mainnet-alpha0.002.sol\":2929:3022  IMorphoVault public constant mUSDC = IMorphoVault(0x1686616428c04907aB37A8987B7a97260714E290) */\n    tag_12:\n      tag_52\n      tag_53\n      jump\t// in\n    tag_52:\n      mload(0x40)\n      tag_54\n      swap2\n      swap1\n      tag_55\n      jump\t// in\n    tag_54:\n      mload(0x40)\n      dup1\n      swap2\n      sub\n      swap1\n      return\n        /* \"contracts/zapyield-mainnet-alpha0.002.sol\":4166:4641  function zapOut() external nonReentrant {... */\n    tag_15:\n        /* \"contracts/zapyield-mainnet-alpha0.002.sol\":1701:1702  2 */\n      0x02\n        /* \"contracts/zapyield-mainnet-alpha0.002.sol\":1840:1847  _status */\n      sload(0x01)\n        /* \"contracts/zapyield-mainnet-alpha0.002.sol\":1840:1859  _status != _ENTERED */\n      sub\n        /* \"contracts/zapyield-mainnet-alpha0.002.sol\":1832:1895  require(_status != _ENTERED, \"ReentrancyGuard: reentrant call\") */\n      tag_57\n      jumpi\n      mload(0x40)\n      0x08c379a000000000000000000000000000000000000000000000000000000000\n      dup2\n      mstore\n      0x04\n      add\n      tag_58\n      swap1\n      tag_59\n      jump\t// in\n    tag_58:\n      mload(0x40)\n      dup1\n      swap2\n      sub\n      swap1\n      revert\n    tag_57:\n        /* \"contracts/zapyield-mainnet-alpha0.002.sol\":1701:1702  2 */\n      0x02\n        /* \"contracts/zapyield-mainnet-alpha0.002.sol\":1905:1912  _status */\n      0x01\n        /* \"contracts/zapyield-mainnet-alpha0.002.sol\":1905:1923  _status = _ENTERED */\n      dup2\n      swap1\n      sstore\n      pop\n        /* \"contracts/zapyield-mainnet-alpha0.002.sol\":4216:4237  UserInfo storage user */\n      0x00\n        /* \"contracts/zapyield-mainnet-alpha0.002.sol\":4240:4245  users */\n      0x02\n        /* \"contracts/zapyield-mainnet-alpha0.002.sol\":4240:4257  users[msg.sender] */\n      0x00\n        /* \"contracts/zapyield-mainnet-alpha0.002.sol\":4246:4256  msg.sender */\n      caller\n        /* \"contracts/zapyield-mainnet-alpha0.002.sol\":4240:4257  users[msg.sender] */\n      0xffffffffffffffffffffffffffffffffffffffff\n      and\n      0xffffffffffffffffffffffffffffffffffffffff\n      and\n      dup2\n      mstore\n      0x20\n      add\n      swap1\n      dup2\n      mstore\n      0x20\n      add\n      0x00\n      keccak256\n        /* \"contracts/zapyield-mainnet-alpha0.002.sol\":4216:4257  UserInfo storage user = users[msg.sender] */\n      swap1\n      pop\n        /* \"contracts/zapyield-mainnet-alpha0.002.sol\":4295:4296  0 */\n      0x00\n        /* \"contracts/zapyield-mainnet-alpha0.002.sol\":4275:4279  user */\n      dup2\n        /* \"contracts/zapyield-mainnet-alpha0.002.sol\":4275:4292  user.shareBalance */\n      0x01\n      add\n      sload\n        /* \"contracts/zapyield-mainnet-alpha0.002.sol\":4275:4296  user.shareBalance > 0 */\n      gt\n        /* \"contracts/zapyield-mainnet-alpha0.002.sol\":4267:4311  require(user.shareBalance > 0, \"No balance\") */\n      tag_61\n      jumpi\n      mload(0x40)\n      0x08c379a000000000000000000000000000000000000000000000000000000000\n      dup2\n      mstore\n      0x04\n      add\n      tag_62\n      swap1\n      tag_63\n      jump\t// in\n    tag_62:\n      mload(0x40)\n      dup1\n      swap2\n      sub\n      swap1\n      revert\n    tag_61:\n        /* \"contracts/zapyield-mainnet-alpha0.002.sol\":4322:4336  uint256 shares */\n      0x00\n        /* \"contracts/zapyield-mainnet-alpha0.002.sol\":4339:4343  user */\n      dup2\n        /* \"contracts/zapyield-mainnet-alpha0.002.sol\":4339:4356  user.shareBalance */\n      0x01\n      add\n      sload\n        /* \"contracts/zapyield-mainnet-alpha0.002.sol\":4322:4356  uint256 shares = user.shareBalance */\n      swap1\n      pop\n        /* \"contracts/zapyield-mainnet-alpha0.002.sol\":4386:4387  0 */\n      0x00\n        /* \"contracts/zapyield-mainnet-alpha0.002.sol\":4366:4370  user */\n      dup3\n        /* \"contracts/zapyield-mainnet-alpha0.002.sol\":4366:4383  user.shareBalance */\n      0x01\n      add\n        /* \"contracts/zapyield-mainnet-alpha0.002.sol\":4366:4387  user.shareBalance = 0 */\n      dup2\n      swap1\n      sstore\n      pop\n        /* \"contracts/zapyield-mainnet-alpha0.002.sol\":4414:4415  0 */\n      0x00\n        /* \"contracts/zapyield-mainnet-alpha0.002.sol\":4397:4401  user */\n      dup3\n        /* \"contracts/zapyield-mainnet-alpha0.002.sol\":4397:4411  user.principal */\n      0x00\n      add\n        /* \"contracts/zapyield-mainnet-alpha0.002.sol\":4397:4415  user.principal = 0 */\n      dup2\n      swap1\n      sstore\n      pop\n        /* \"contracts/zapyield-mainnet-alpha0.002.sol\":2979:3021  0x1686616428c04907aB37A8987B7a97260714E290 */\n      0x1686616428c04907ab37a8987b7a97260714e290\n        /* \"contracts/zapyield-mainnet-alpha0.002.sol\":4479:4491  mUSDC.redeem */\n      0xffffffffffffffffffffffffffffffffffffffff\n      and\n      0xba087652\n        /* \"contracts/zapyield-mainnet-alpha0.002.sol\":4492:4498  shares */\n      dup3\n        /* \"contracts/zapyield-mainnet-alpha0.002.sol\":4508:4512  this */\n      address\n        /* \"contracts/zapyield-mainnet-alpha0.002.sol\":4523:4527  this */\n      address\n        /* \"contracts/zapyield-mainnet-alpha0.002.sol\":4479:4529  mUSDC.redeem(shares, address(this), address(this)) */\n      mload(0x40)\n      dup5\n      0xffffffff\n      and\n      0xe0\n      shl\n      dup2\n      mstore\n      0x04\n      add\n      tag_64\n      swap4\n      swap3\n      swap2\n      swap1\n      tag_65\n      jump\t// in\n    tag_64:\n      0x20\n      mload(0x40)\n      dup1\n      dup4\n      sub\n      dup2\n      0x00\n      dup8\n      gas\n      call\n      iszero\n      dup1\n      iszero\n      tag_67\n      jumpi\n      returndatasize\n      0x00\n      dup1\n      returndatacopy\n      revert(0x00, returndatasize)\n    tag_67:\n      pop\n      pop\n      pop\n      pop\n      mload(0x40)\n      returndatasize\n      not(0x1f)\n      0x1f\n      dup3\n      add\n      and\n      dup3\n      add\n      dup1\n      0x40\n      mstore\n      pop\n      dup2\n      add\n      swap1\n      tag_68\n      swap2\n      swap1\n      tag_69\n      jump\t// in\n    tag_68:\n      pop\n        /* \"contracts/zapyield-mainnet-alpha0.002.sol\":4539:4554  uint256 balance */\n      0x00\n        /* \"contracts/zapyield-mainnet-alpha0.002.sol\":2879:2921  0x833589fCD6eDb6E08f4c7C32D4f71b54bdA02913 */\n      0x833589fcd6edb6e08f4c7c32d4f71b54bda02913\n        /* \"contracts/zapyield-mainnet-alpha0.002.sol\":4557:4571  USDC.balanceOf */\n      0xffffffffffffffffffffffffffffffffffffffff\n      and\n      0x70a08231\n        /* \"contracts/zapyield-mainnet-alpha0.002.sol\":4580:4584  this */\n      address\n        /* \"contracts/zapyield-mainnet-alpha0.002.sol\":4557:4586  USDC.balanceOf(address(this)) */\n      mload(0x40)\n      dup3\n      0xffffffff\n      and\n      0xe0\n      shl\n      dup2\n      mstore\n      0x04\n      add\n      tag_70\n      swap2\n      swap1\n      tag_37\n      jump\t// in\n    tag_70:\n      0x20\n      mload(0x40)\n      dup1\n      dup4\n      sub\n      dup2\n      dup7\n      gas\n      staticcall\n      iszero\n      dup1\n      iszero\n      tag_72\n      jumpi\n      returndatasize\n      0x00\n      dup1\n      returndatacopy\n      revert(0x00, returndatasize)\n    tag_72:\n      pop\n      pop\n      pop\n      pop\n      mload(0x40)\n      returndatasize\n      not(0x1f)\n      0x1f\n      dup3\n      add\n      and\n      dup3\n      add\n      dup1\n      0x40\n      mstore\n      pop\n      dup2\n      add\n      swap1\n      tag_73\n      swap2\n      swap1\n      tag_69\n      jump\t// in\n    tag_73:\n        /* \"contracts/zapyield-mainnet-alpha0.002.sol\":4539:4586  uint256 balance = USDC.balanceOf(address(this)) */\n      swap1\n      pop\n        /* \"contracts/zapyield-mainnet-alpha0.002.sol\":4596:4634  USDC.safeTransfer(msg.sender, balance) */\n      tag_74\n        /* \"contracts/zapyield-mainnet-alpha0.002.sol\":4614:4624  msg.sender */\n      caller\n        /* \"contracts/zapyield-mainnet-alpha0.002.sol\":4626:4633  balance */\n      dup3\n        /* \"contracts/zapyield-mainnet-alpha0.002.sol\":2879:2921  0x833589fCD6eDb6E08f4c7C32D4f71b54bdA02913 */\n      0x833589fcd6edb6e08f4c7c32d4f71b54bda02913\n        /* \"contracts/zapyield-mainnet-alpha0.002.sol\":4596:4613  USDC.safeTransfer */\n      0xffffffffffffffffffffffffffffffffffffffff\n      and\n      tag_75\n      swap1\n        /* \"contracts/zapyield-mainnet-alpha0.002.sol\":4596:4634  USDC.safeTransfer(msg.sender, balance) */\n      swap3\n      swap2\n      swap1\n      0xffffffff\n      and\n      jump\t// in\n    tag_74:\n        /* \"contracts/zapyield-mainnet-alpha0.002.sol\":4206:4641  {... */\n      pop\n      pop\n      pop\n        /* \"contracts/zapyield-mainnet-alpha0.002.sol\":1658:1659  1 */\n      0x01\n        /* \"contracts/zapyield-mainnet-alpha0.002.sol\":1944:1951  _status */\n      dup1\n        /* \"contracts/zapyield-mainnet-alpha0.002.sol\":1944:1966  _status = _NOT_ENTERED */\n      dup2\n      swap1\n      sstore\n      pop\n        /* \"contracts/zapyield-mainnet-alpha0.002.sol\":4166:4641  function zapOut() external nonReentrant {... */\n      jump\t// out\n        /* \"contracts/zapyield-mainnet-alpha0.002.sol\":4879:5000  function getDownlines(address _user) external view returns (address[] memory) {... */\n    tag_19:\n        /* \"contracts/zapyield-mainnet-alpha0.002.sol\":4939:4955  address[] memory */\n      0x60\n        /* \"contracts/zapyield-mainnet-alpha0.002.sol\":4974:4986  referralList */\n      0x03\n        /* \"contracts/zapyield-mainnet-alpha0.002.sol\":4974:4993  referralList[_user] */\n      0x00\n        /* \"contracts/zapyield-mainnet-alpha0.002.sol\":4987:4992  _user */\n      dup4\n        /* \"contracts/zapyield-mainnet-alpha0.002.sol\":4974:4993  referralList[_user] */\n      0xffffffffffffffffffffffffffffffffffffffff\n      and\n      0xffffffffffffffffffffffffffffffffffffffff\n      and\n      dup2\n      mstore\n      0x20\n      add\n      swap1\n      dup2\n      mstore\n      0x20\n      add\n      0x00\n      keccak256\n        /* \"contracts/zapyield-mainnet-alpha0.002.sol\":4967:4993  return referralList[_user] */\n      dup1\n      sload\n      dup1\n      0x20\n      mul\n      0x20\n      add\n      mload(0x40)\n      swap1\n      dup2\n      add\n      0x40\n      mstore\n      dup1\n      swap3\n      swap2\n      swap1\n      dup2\n      dup2\n      mstore\n      0x20\n      add\n      dup3\n      dup1\n      sload\n      dup1\n      iszero\n      tag_77\n      jumpi\n      0x20\n      mul\n      dup3\n      add\n      swap2\n      swap1\n      0x00\n      mstore\n      keccak256(0x00, 0x20)\n      swap1\n    tag_78:\n      dup2\n      0x00\n      swap1\n      sload\n      swap1\n      0x0100\n      exp\n      swap1\n      div\n      0xffffffffffffffffffffffffffffffffffffffff\n      and\n      0xffffffffffffffffffffffffffffffffffffffff\n      and\n      dup2\n      mstore\n      0x20\n      add\n      swap1\n      0x01\n      add\n      swap1\n      dup1\n      dup4\n      gt\n      tag_78\n      jumpi\n    tag_77:\n      pop\n      pop\n      pop\n      pop\n      pop\n      swap1\n      pop\n        /* \"contracts/zapyield-mainnet-alpha0.002.sol\":4879:5000  function getDownlines(address _user) external view returns (address[] memory) {... */\n      swap2\n      swap1\n      pop\n      jump\t// out\n        /* \"contracts/zapyield-mainnet-alpha0.002.sol\":3030:3079  uint256 public constant MIN_INVESTMENT = 10 * 1e6 */\n    tag_23:\n        /* \"contracts/zapyield-mainnet-alpha0.002.sol\":3071:3079  10 * 1e6 */\n      0x989680\n        /* \"contracts/zapyield-mainnet-alpha0.002.sol\":3030:3079  uint256 public constant MIN_INVESTMENT = 10 * 1e6 */\n      dup2\n      jump\t// out\n        /* \"contracts/zapyield-mainnet-alpha0.002.sol\":4647:4873  function getAccountValue(address _user) external view returns (uint256) {... */\n    tag_28:\n        /* \"contracts/zapyield-mainnet-alpha0.002.sol\":4710:4717  uint256 */\n      0x00\n        /* \"contracts/zapyield-mainnet-alpha0.002.sol\":2979:3021  0x1686616428c04907aB37A8987B7a97260714E290 */\n      0x1686616428c04907ab37a8987b7a97260714e290\n        /* \"contracts/zapyield-mainnet-alpha0.002.sol\":4818:4839  mUSDC.convertToAssets */\n      0xffffffffffffffffffffffffffffffffffffffff\n      and\n      0x07a2d13a\n        /* \"contracts/zapyield-mainnet-alpha0.002.sol\":4840:4845  users */\n      0x02\n        /* \"contracts/zapyield-mainnet-alpha0.002.sol\":4840:4852  users[_user] */\n      0x00\n        /* \"contracts/zapyield-mainnet-alpha0.002.sol\":4846:4851  _user */\n      dup6\n        /* \"contracts/zapyield-mainnet-alpha0.002.sol\":4840:4852  users[_user] */\n      0xffffffffffffffffffffffffffffffffffffffff\n      and\n      0xffffffffffffffffffffffffffffffffffffffff\n      and\n      dup2\n      mstore\n      0x20\n      add\n      swap1\n      dup2\n      mstore\n      0x20\n      add\n      0x00\n      keccak256\n        /* \"contracts/zapyield-mainnet-alpha0.002.sol\":4840:4865  users[_user].shareBalance */\n      0x01\n      add\n      sload\n        /* \"contracts/zapyield-mainnet-alpha0.002.sol\":4818:4866  mUSDC.convertToAssets(users[_user].shareBalance) */\n      mload(0x40)\n      dup3\n      0xffffffff\n      and\n      0xe0\n      shl\n      dup2\n      mstore\n      0x04\n      add\n      tag_80\n      swap2\n      swap1\n      tag_25\n      jump\t// in\n    tag_80:\n      0x20\n      mload(0x40)\n      dup1\n      dup4\n      sub\n      dup2\n      dup7\n      gas\n      staticcall\n      iszero\n      dup1\n      iszero\n      tag_82\n      jumpi\n      returndatasize\n      0x00\n      dup1\n      returndatacopy\n      revert(0x00, returndatasize)\n    tag_82:\n      pop\n      pop\n      pop\n      pop\n      mload(0x40)\n      returndatasize\n      not(0x1f)\n      0x1f\n      dup3\n      add\n      and\n      dup3\n      add\n      dup1\n      0x40\n      mstore\n      pop\n      dup2\n      add\n      swap1\n      tag_83\n      swap2\n      swap1\n      tag_69\n      jump\t// in\n    tag_83:\n        /* \"contracts/zapyield-mainnet-alpha0.002.sol\":4811:4866  return mUSDC.convertToAssets(users[_user].shareBalance) */\n      swap1\n      pop\n        /* \"contracts/zapyield-mainnet-alpha0.002.sol\":4647:4873  function getAccountValue(address _user) external view returns (uint256) {... */\n      swap2\n      swap1\n      pop\n      jump\t// out\n        /* \"contracts/zapyield-mainnet-alpha0.002.sol\":2842:2922  IERC20 public constant USDC = IERC20(0x833589fCD6eDb6E08f4c7C32D4f71b54bdA02913) */\n    tag_31:\n        /* \"contracts/zapyield-mainnet-alpha0.002.sol\":2879:2921  0x833589fCD6eDb6E08f4c7C32D4f71b54bdA02913 */\n      0x833589fcd6edb6e08f4c7c32d4f71b54bda02913\n        /* \"contracts/zapyield-mainnet-alpha0.002.sol\":2842:2922  IERC20 public constant USDC = IERC20(0x833589fCD6eDb6E08f4c7C32D4f71b54bdA02913) */\n      dup2\n      jump\t// out\n        /* \"contracts/zapyield-mainnet-alpha0.002.sol\":1489:1574  function owner() public view virtual returns (address) {... */\n    tag_35:\n        /* \"contracts/zapyield-mainnet-alpha0.002.sol\":1535:1542  address */\n      0x00\n        /* \"contracts/zapyield-mainnet-alpha0.002.sol\":1561:1567  _owner */\n      dup1\n      0x00\n      swap1\n      sload\n      swap1\n      0x0100\n      exp\n      swap1\n      div\n      0xffffffffffffffffffffffffffffffffffffffff\n      and\n        /* \"contracts/zapyield-mainnet-alpha0.002.sol\":1554:1567  return _owner */\n      swap1\n      pop\n        /* \"contracts/zapyield-mainnet-alpha0.002.sol\":1489:1574  function owner() public view virtual returns (address) {... */\n      swap1\n      jump\t// out\n        /* \"contracts/zapyield-mainnet-alpha0.002.sol\":3210:3251  mapping(address => UserInfo) public users */\n    tag_40:\n      mstore(0x20, 0x02)\n      dup1\n      0x00\n      mstore\n      keccak256(0x00, 0x40)\n      0x00\n      swap2\n      pop\n      swap1\n      pop\n      dup1\n      0x00\n      add\n      sload\n      swap1\n      dup1\n      0x01\n      add\n      sload\n      swap1\n      dup1\n      0x02\n      add\n      0x00\n      swap1\n      sload\n      swap1\n      0x0100\n      exp\n      swap1\n      div\n      0xffffffffffffffffffffffffffffffffffffffff\n      and\n      swap1\n      pop\n      dup4\n      jump\t// out\n        /* \"contracts/zapyield-mainnet-alpha0.002.sol\":3257:3306  mapping(address => address[]) public referralList */\n    tag_46:\n      mstore(0x20, 0x03)\n      dup2\n      0x00\n      mstore\n      keccak256(0x00, 0x40)\n      dup2\n      dup2\n      sload\n      dup2\n      lt\n      tag_85\n      jumpi\n      0x00\n      dup1\n      revert\n    tag_85:\n      swap1\n      0x00\n      mstore\n      keccak256(0x00, 0x20)\n      add\n      0x00\n      swap2\n      pop\n      swap2\n      pop\n      swap1\n      sload\n      swap1\n      0x0100\n      exp\n      swap1\n      div\n      0xffffffffffffffffffffffffffffffffffffffff\n      and\n      dup2\n      jump\t// out\n        /* \"contracts/zapyield-mainnet-alpha0.002.sol\":3355:4160  function zapIn(uint256 _amount, address _referrer) external nonReentrant {... */\n    tag_51:\n        /* \"contracts/zapyield-mainnet-alpha0.002.sol\":1701:1702  2 */\n      0x02\n        /* \"contracts/zapyield-mainnet-alpha0.002.sol\":1840:1847  _status */\n      sload(0x01)\n        /* \"contracts/zapyield-mainnet-alpha0.002.sol\":1840:1859  _status != _ENTERED */\n      sub\n        /* \"contracts/zapyield-mainnet-alpha0.002.sol\":1832:1895  require(_status != _ENTERED, \"ReentrancyGuard: reentrant call\") */\n      tag_88\n      jumpi\n      mload(0x40)\n      0x08c379a000000000000000000000000000000000000000000000000000000000\n      dup2\n      mstore\n      0x04\n      add\n      tag_89\n      swap1\n      tag_59\n      jump\t// in\n    tag_89:\n      mload(0x40)\n      dup1\n      swap2\n      sub\n      swap1\n      revert\n    tag_88:\n        /* \"contracts/zapyield-mainnet-alpha0.002.sol\":1701:1702  2 */\n      0x02\n        /* \"contracts/zapyield-mainnet-alpha0.002.sol\":1905:1912  _status */\n      0x01\n        /* \"contracts/zapyield-mainnet-alpha0.002.sol\":1905:1923  _status = _ENTERED */\n      dup2\n      swap1\n      sstore\n      pop\n        /* \"contracts/zapyield-mainnet-alpha0.002.sol\":3071:3079  10 * 1e6 */\n      0x989680\n        /* \"contracts/zapyield-mainnet-alpha0.002.sol\":3446:3453  _amount */\n      dup3\n        /* \"contracts/zapyield-mainnet-alpha0.002.sol\":3446:3471  _amount >= MIN_INVESTMENT */\n      lt\n      iszero\n        /* \"contracts/zapyield-mainnet-alpha0.002.sol\":3438:3487  require(_amount >= MIN_INVESTMENT, \"Min 10 USDC\") */\n      tag_91\n      jumpi\n      mload(0x40)\n      0x08c379a000000000000000000000000000000000000000000000000000000000\n      dup2\n      mstore\n      0x04\n      add\n      tag_92\n      swap1\n      tag_93\n      jump\t// in\n    tag_92:\n      mload(0x40)\n      dup1\n      swap2\n      sub\n      swap1\n      revert\n    tag_91:\n        /* \"contracts/zapyield-mainnet-alpha0.002.sol\":3518:3528  msg.sender */\n      caller\n        /* \"contracts/zapyield-mainnet-alpha0.002.sol\":3505:3528  _referrer != msg.sender */\n      0xffffffffffffffffffffffffffffffffffffffff\n      and\n        /* \"contracts/zapyield-mainnet-alpha0.002.sol\":3505:3514  _referrer */\n      dup2\n        /* \"contracts/zapyield-mainnet-alpha0.002.sol\":3505:3528  _referrer != msg.sender */\n      0xffffffffffffffffffffffffffffffffffffffff\n      and\n      sub\n        /* \"contracts/zapyield-mainnet-alpha0.002.sol\":3497:3549  require(_referrer != msg.sender, \"No self-referral\") */\n      tag_94\n      jumpi\n      mload(0x40)\n      0x08c379a000000000000000000000000000000000000000000000000000000000\n      dup2\n      mstore\n      0x04\n      add\n      tag_95\n      swap1\n      tag_96\n      jump\t// in\n    tag_95:\n      mload(0x40)\n      dup1\n      swap2\n      sub\n      swap1\n      revert\n    tag_94:\n        /* \"contracts/zapyield-mainnet-alpha0.002.sol\":3602:3603  0 */\n      0x00\n        /* \"contracts/zapyield-mainnet-alpha0.002.sol\":3564:3604  users[msg.sender].referrer == address(0) */\n      0xffffffffffffffffffffffffffffffffffffffff\n      and\n        /* \"contracts/zapyield-mainnet-alpha0.002.sol\":3564:3569  users */\n      0x02\n        /* \"contracts/zapyield-mainnet-alpha0.002.sol\":3564:3581  users[msg.sender] */\n      0x00\n        /* \"contracts/zapyield-mainnet-alpha0.002.sol\":3570:3580  msg.sender */\n      caller\n        /* \"contracts/zapyield-mainnet-alpha0.002.sol\":3564:3581  users[msg.sender] */\n      0xffffffffffffffffffffffffffffffffffffffff\n      and\n      0xffffffffffffffffffffffffffffffffffffffff\n      and\n      dup2\n      mstore\n      0x20\n      add\n      swap1\n      dup2\n      mstore\n      0x20\n      add\n      0x00\n      keccak256\n        /* \"contracts/zapyield-mainnet-alpha0.002.sol\":3564:3590  users[msg.sender].referrer */\n      0x02\n      add\n      0x00\n      swap1\n      sload\n      swap1\n      0x0100\n      exp\n      swap1\n      div\n      0xffffffffffffffffffffffffffffffffffffffff\n      and\n        /* \"contracts/zapyield-mainnet-alpha0.002.sol\":3564:3604  users[msg.sender].referrer == address(0) */\n      0xffffffffffffffffffffffffffffffffffffffff\n      and\n      eq\n        /* \"contracts/zapyield-mainnet-alpha0.002.sol\":3564:3631  users[msg.sender].referrer == address(0) && _referrer != address(0) */\n      dup1\n      iszero\n      tag_97\n      jumpi\n      pop\n        /* \"contracts/zapyield-mainnet-alpha0.002.sol\":3629:3630  0 */\n      0x00\n        /* \"contracts/zapyield-mainnet-alpha0.002.sol\":3608:3631  _referrer != address(0) */\n      0xffffffffffffffffffffffffffffffffffffffff\n      and\n        /* \"contracts/zapyield-mainnet-alpha0.002.sol\":3608:3617  _referrer */\n      dup2\n        /* \"contracts/zapyield-mainnet-alpha0.002.sol\":3608:3631  _referrer != address(0) */\n      0xffffffffffffffffffffffffffffffffffffffff\n      and\n      eq\n      iszero\n        /* \"contracts/zapyield-mainnet-alpha0.002.sol\":3564:3631  users[msg.sender].referrer == address(0) && _referrer != address(0) */\n    tag_97:\n        /* \"contracts/zapyield-mainnet-alpha0.002.sol\":3560:3750  if (users[msg.sender].referrer == address(0) && _referrer != address(0)) {... */\n      iszero\n      tag_98\n      jumpi\n        /* \"contracts/zapyield-mainnet-alpha0.002.sol\":3676:3685  _referrer */\n      dup1\n        /* \"contracts/zapyield-mainnet-alpha0.002.sol\":3647:3652  users */\n      0x02\n        /* \"contracts/zapyield-mainnet-alpha0.002.sol\":3647:3664  users[msg.sender] */\n      0x00\n        /* \"contracts/zapyield-mainnet-alpha0.002.sol\":3653:3663  msg.sender */\n      caller\n        /* \"contracts/zapyield-mainnet-alpha0.002.sol\":3647:3664  users[msg.sender] */\n      0xffffffffffffffffffffffffffffffffffffffff\n      and\n      0xffffffffffffffffffffffffffffffffffffffff\n      and\n      dup2\n      mstore\n      0x20\n      add\n      swap1\n      dup2\n      mstore\n      0x20\n      add\n      0x00\n      keccak256\n        /* \"contracts/zapyield-mainnet-alpha0.002.sol\":3647:3673  users[msg.sender].referrer */\n      0x02\n      add\n      0x00\n        /* \"contracts/zapyield-mainnet-alpha0.002.sol\":3647:3685  users[msg.sender].referrer = _referrer */\n      0x0100\n      exp\n      dup2\n      sload\n      dup2\n      0xffffffffffffffffffffffffffffffffffffffff\n      mul\n      not\n      and\n      swap1\n      dup4\n      0xffffffffffffffffffffffffffffffffffffffff\n      and\n      mul\n      or\n      swap1\n      sstore\n      pop\n        /* \"contracts/zapyield-mainnet-alpha0.002.sol\":3699:3711  referralList */\n      0x03\n        /* \"contracts/zapyield-mainnet-alpha0.002.sol\":3699:3722  referralList[_referrer] */\n      0x00\n        /* \"contracts/zapyield-mainnet-alpha0.002.sol\":3712:3721  _referrer */\n      dup3\n        /* \"contracts/zapyield-mainnet-alpha0.002.sol\":3699:3722  referralList[_referrer] */\n      0xffffffffffffffffffffffffffffffffffffffff\n      and\n      0xffffffffffffffffffffffffffffffffffffffff\n      and\n      dup2\n      mstore\n      0x20\n      add\n      swap1\n      dup2\n      mstore\n      0x20\n      add\n      0x00\n      keccak256\n        /* \"contracts/zapyield-mainnet-alpha0.002.sol\":3728:3738  msg.sender */\n      caller\n        /* \"contracts/zapyield-mainnet-alpha0.002.sol\":3699:3739  referralList[_referrer].push(msg.sender) */\n      swap1\n      dup1\n      0x01\n      dup2\n      sload\n      add\n      dup1\n      dup3\n      sstore\n      dup1\n      swap2\n      pop\n      pop\n      0x01\n      swap1\n      sub\n      swap1\n      0x00\n      mstore\n      keccak256(0x00, 0x20)\n      add\n      0x00\n      swap1\n      swap2\n      swap1\n      swap2\n      swap1\n      swap2\n      0x0100\n      exp\n      dup2\n      sload\n      dup2\n      0xffffffffffffffffffffffffffffffffffffffff\n      mul\n      not\n      and\n      swap1\n      dup4\n      0xffffffffffffffffffffffffffffffffffffffff\n      and\n      mul\n      or\n      swap1\n      sstore\n      pop\n        /* \"contracts/zapyield-mainnet-alpha0.002.sol\":3560:3750  if (users[msg.sender].referrer == address(0) && _referrer != address(0)) {... */\n    tag_98:\n        /* \"contracts/zapyield-mainnet-alpha0.002.sol\":3760:3817  USDC.safeTransferFrom(msg.sender, address(this), _amount) */\n      tag_100\n        /* \"contracts/zapyield-mainnet-alpha0.002.sol\":3782:3792  msg.sender */\n      caller\n        /* \"contracts/zapyield-mainnet-alpha0.002.sol\":3802:3806  this */\n      address\n        /* \"contracts/zapyield-mainnet-alpha0.002.sol\":3809:3816  _amount */\n      dup5\n        /* \"contracts/zapyield-mainnet-alpha0.002.sol\":2879:2921  0x833589fCD6eDb6E08f4c7C32D4f71b54bdA02913 */\n      0x833589fcd6edb6e08f4c7c32d4f71b54bda02913\n        /* \"contracts/zapyield-mainnet-alpha0.002.sol\":3760:3781  USDC.safeTransferFrom */\n      0xffffffffffffffffffffffffffffffffffffffff\n      and\n      tag_101\n      swap1\n        /* \"contracts/zapyield-mainnet-alpha0.002.sol\":3760:3817  USDC.safeTransferFrom(msg.sender, address(this), _amount) */\n      swap4\n      swap3\n      swap2\n      swap1\n      0xffffffff\n      and\n      jump\t// in\n    tag_100:\n        /* \"contracts/zapyield-mainnet-alpha0.002.sol\":2879:2921  0x833589fCD6eDb6E08f4c7C32D4f71b54bdA02913 */\n      0x833589fcd6edb6e08f4c7c32d4f71b54bda02913\n        /* \"contracts/zapyield-mainnet-alpha0.002.sol\":3827:3839  USDC.approve */\n      0xffffffffffffffffffffffffffffffffffffffff\n      and\n      0x095ea7b3\n        /* \"contracts/zapyield-mainnet-alpha0.002.sol\":2979:3021  0x1686616428c04907aB37A8987B7a97260714E290 */\n      0x1686616428c04907ab37a8987b7a97260714e290\n        /* \"contracts/zapyield-mainnet-alpha0.002.sol\":3856:3863  _amount */\n      dup5\n        /* \"contracts/zapyield-mainnet-alpha0.002.sol\":3827:3864  USDC.approve(address(mUSDC), _amount) */\n      mload(0x40)\n      dup4\n      0xffffffff\n      and\n      0xe0\n      shl\n      dup2\n      mstore\n      0x04\n      add\n      tag_102\n      swap3\n      swap2\n      swap1\n      tag_103\n      jump\t// in\n    tag_102:\n      0x20\n      mload(0x40)\n      dup1\n      dup4\n      sub\n      dup2\n      0x00\n      dup8\n      gas\n      call\n      iszero\n      dup1\n      iszero\n      tag_105\n      jumpi\n      returndatasize\n      0x00\n      dup1\n      returndatacopy\n      revert(0x00, returndatasize)\n    tag_105:\n      pop\n      pop\n      pop\n      pop\n      mload(0x40)\n      returndatasize\n      not(0x1f)\n      0x1f\n      dup3\n      add\n      and\n      dup3\n      add\n      dup1\n      0x40\n      mstore\n      pop\n      dup2\n      add\n      swap1\n      tag_106\n      swap2\n      swap1\n      tag_107\n      jump\t// in\n    tag_106:\n      pop\n        /* \"contracts/zapyield-mainnet-alpha0.002.sol\":3937:3954  uint256 newShares */\n      0x00\n        /* \"contracts/zapyield-mainnet-alpha0.002.sol\":2979:3021  0x1686616428c04907aB37A8987B7a97260714E290 */\n      0x1686616428c04907ab37a8987b7a97260714e290\n        /* \"contracts/zapyield-mainnet-alpha0.002.sol\":3957:3970  mUSDC.deposit */\n      0xffffffffffffffffffffffffffffffffffffffff\n      and\n      0x6e553f65\n        /* \"contracts/zapyield-mainnet-alpha0.002.sol\":3971:3978  _amount */\n      dup5\n        /* \"contracts/zapyield-mainnet-alpha0.002.sol\":3988:3992  this */\n      address\n        /* \"contracts/zapyield-mainnet-alpha0.002.sol\":3957:3994  mUSDC.deposit(_amount, address(this)) */\n      mload(0x40)\n      dup4\n      0xffffffff\n      and\n      0xe0\n      shl\n      dup2\n      mstore\n      0x04\n      add\n      tag_108\n      swap3\n      swap2\n      swap1\n      tag_109\n      jump\t// in\n    tag_108:\n      0x20\n      mload(0x40)\n      dup1\n      dup4\n      sub\n      dup2\n      0x00\n      dup8\n      gas\n      call\n      iszero\n      dup1\n      iszero\n      tag_111\n      jumpi\n      returndatasize\n      0x00\n      dup1\n      returndatacopy\n      revert(0x00, returndatasize)\n    tag_111:\n      pop\n      pop\n      pop\n      pop\n      mload(0x40)\n      returndatasize\n      not(0x1f)\n      0x1f\n      dup3\n      add\n      and\n      dup3\n      add\n      dup1\n      0x40\n      mstore\n      pop\n      dup2\n      add\n      swap1\n      tag_112\n      swap2\n      swap1\n      tag_69\n      jump\t// in\n    tag_112:\n        /* \"contracts/zapyield-mainnet-alpha0.002.sol\":3937:3994  uint256 newShares = mUSDC.deposit(_amount, address(this)) */\n      swap1\n      pop\n        /* \"contracts/zapyield-mainnet-alpha0.002.sol\":4024:4025  0 */\n      0x00\n        /* \"contracts/zapyield-mainnet-alpha0.002.sol\":4012:4021  newShares */\n      dup2\n        /* \"contracts/zapyield-mainnet-alpha0.002.sol\":4012:4025  newShares > 0 */\n      gt\n        /* \"contracts/zapyield-mainnet-alpha0.002.sol\":4004:4051  require(newShares > 0, \"Morpho Deposit failed\") */\n      tag_113\n      jumpi\n      mload(0x40)\n      0x08c379a000000000000000000000000000000000000000000000000000000000\n      dup2\n      mstore\n      0x04\n      add\n      tag_114\n      swap1\n      tag_115\n      jump\t// in\n    tag_114:\n      mload(0x40)\n      dup1\n      swap2\n      sub\n      swap1\n      revert\n    tag_113:\n        /* \"contracts/zapyield-mainnet-alpha0.002.sol\":4093:4100  _amount */\n      dup3\n        /* \"contracts/zapyield-mainnet-alpha0.002.sol\":4062:4067  users */\n      0x02\n        /* \"contracts/zapyield-mainnet-alpha0.002.sol\":4062:4079  users[msg.sender] */\n      0x00\n        /* \"contracts/zapyield-mainnet-alpha0.002.sol\":4068:4078  msg.sender */\n      caller\n        /* \"contracts/zapyield-mainnet-alpha0.002.sol\":4062:4079  users[msg.sender] */\n      0xffffffffffffffffffffffffffffffffffffffff\n      and\n      0xffffffffffffffffffffffffffffffffffffffff\n      and\n      dup2\n      mstore\n      0x20\n      add\n      swap1\n      dup2\n      mstore\n      0x20\n      add\n      0x00\n      keccak256\n        /* \"contracts/zapyield-mainnet-alpha0.002.sol\":4062:4089  users[msg.sender].principal */\n      0x00\n      add\n      0x00\n        /* \"contracts/zapyield-mainnet-alpha0.002.sol\":4062:4100  users[msg.sender].principal += _amount */\n      dup3\n      dup3\n      sload\n      tag_116\n      swap2\n      swap1\n      tag_117\n      jump\t// in\n    tag_116:\n      swap3\n      pop\n      pop\n      dup2\n      swap1\n      sstore\n      pop\n        /* \"contracts/zapyield-mainnet-alpha0.002.sol\":4144:4153  newShares */\n      dup1\n        /* \"contracts/zapyield-mainnet-alpha0.002.sol\":4110:4115  users */\n      0x02\n        /* \"contracts/zapyield-mainnet-alpha0.002.sol\":4110:4127  users[msg.sender] */\n      0x00\n        /* \"contracts/zapyield-mainnet-alpha0.002.sol\":4116:4126  msg.sender */\n      caller\n        /* \"contracts/zapyield-mainnet-alpha0.002.sol\":4110:4127  users[msg.sender] */\n      0xffffffffffffffffffffffffffffffffffffffff\n      and\n      0xffffffffffffffffffffffffffffffffffffffff\n      and\n      dup2\n      mstore\n      0x20\n      add\n      swap1\n      dup2\n      mstore\n      0x20\n      add\n      0x00\n      keccak256\n        /* \"contracts/zapyield-mainnet-alpha0.002.sol\":4110:4140  users[msg.sender].shareBalance */\n      0x01\n      add\n      0x00\n        /* \"contracts/zapyield-mainnet-alpha0.002.sol\":4110:4153  users[msg.sender].shareBalance += newShares */\n      dup3\n      dup3\n      sload\n      tag_118\n      swap2\n      swap1\n      tag_117\n      jump\t// in\n    tag_118:\n      swap3\n      pop\n      pop\n      dup2\n      swap1\n      sstore\n      pop\n        /* \"contracts/zapyield-mainnet-alpha0.002.sol\":3428:4160  {... */\n      pop\n        /* \"contracts/zapyield-mainnet-alpha0.002.sol\":1658:1659  1 */\n      0x01\n        /* \"contracts/zapyield-mainnet-alpha0.002.sol\":1944:1951  _status */\n      dup1\n        /* \"contracts/zapyield-mainnet-alpha0.002.sol\":1944:1966  _status = _NOT_ENTERED */\n      dup2\n      swap1\n      sstore\n      pop\n        /* \"contracts/zapyield-mainnet-alpha0.002.sol\":3355:4160  function zapIn(uint256 _amount, address _referrer) external nonReentrant {... */\n      pop\n      pop\n      jump\t// out\n        /* \"contracts/zapyield-mainnet-alpha0.002.sol\":2929:3022  IMorphoVault public constant mUSDC = IMorphoVault(0x1686616428c04907aB37A8987B7a97260714E290) */\n    tag_53:\n        /* \"contracts/zapyield-mainnet-alpha0.002.sol\":2979:3021  0x1686616428c04907aB37A8987B7a97260714E290 */\n      0x1686616428c04907ab37a8987b7a97260714e290\n        /* \"contracts/zapyield-mainnet-alpha0.002.sol\":2929:3022  IMorphoVault public constant mUSDC = IMorphoVault(0x1686616428c04907aB37A8987B7a97260714E290) */\n      dup2\n      jump\t// out\n        /* \"contracts/zapyield-mainnet-alpha0.002.sol\":974:1143  function safeTransfer(IERC20 token, address to, uint256 value) internal {... */\n    tag_75:\n        /* \"contracts/zapyield-mainnet-alpha0.002.sol\":1064:1069  token */\n      dup3\n        /* \"contracts/zapyield-mainnet-alpha0.002.sol\":1064:1078  token.transfer */\n      0xffffffffffffffffffffffffffffffffffffffff\n      and\n      0xa9059cbb\n        /* \"contracts/zapyield-mainnet-alpha0.002.sol\":1079:1081  to */\n      dup4\n        /* \"contracts/zapyield-mainnet-alpha0.002.sol\":1083:1088  value */\n      dup4\n        /* \"contracts/zapyield-mainnet-alpha0.002.sol\":1064:1089  token.transfer(to, value) */\n      mload(0x40)\n      dup4\n      0xffffffff\n      and\n      0xe0\n      shl\n      dup2\n      mstore\n      0x04\n      add\n      tag_120\n      swap3\n      swap2\n      swap1\n      tag_103\n      jump\t// in\n    tag_120:\n      0x20\n      mload(0x40)\n      dup1\n      dup4\n      sub\n      dup2\n      0x00\n      dup8\n      gas\n      call\n      iszero\n      dup1\n      iszero\n      tag_122\n      jumpi\n      returndatasize\n      0x00\n      dup1\n      returndatacopy\n      revert(0x00, returndatasize)\n    tag_122:\n      pop\n      pop\n      pop\n      pop\n      mload(0x40)\n      returndatasize\n      not(0x1f)\n      0x1f\n      dup3\n      add\n      and\n      dup3\n      add\n      dup1\n      0x40\n      mstore\n      pop\n      dup2\n      add\n      swap1\n      tag_123\n      swap2\n      swap1\n      tag_107\n      jump\t// in\n    tag_123:\n        /* \"contracts/zapyield-mainnet-alpha0.002.sol\":1056:1136  require(token.transfer(to, value), \"SafeERC20: ERC20 operation did not succeed\") */\n      tag_124\n      jumpi\n      mload(0x40)\n      0x08c379a000000000000000000000000000000000000000000000000000000000\n      dup2\n      mstore\n      0x04\n      add\n      tag_125\n      swap1\n      tag_126\n      jump\t// in\n    tag_125:\n      mload(0x40)\n      dup1\n      swap2\n      sub\n      swap1\n      revert\n    tag_124:\n        /* \"contracts/zapyield-mainnet-alpha0.002.sol\":974:1143  function safeTransfer(IERC20 token, address to, uint256 value) internal {... */\n      pop\n      pop\n      pop\n      jump\t// out\n        /* \"contracts/zapyield-mainnet-alpha0.002.sol\":1149:1346  function safeTransferFrom(IERC20 token, address from, address to, uint256 value) internal {... */\n    tag_101:\n        /* \"contracts/zapyield-mainnet-alpha0.002.sol\":1257:1262  token */\n      dup4\n        /* \"contracts/zapyield-mainnet-alpha0.002.sol\":1257:1275  token.transferFrom */\n      0xffffffffffffffffffffffffffffffffffffffff\n      and\n      0x23b872dd\n        /* \"contracts/zapyield-mainnet-alpha0.002.sol\":1276:1280  from */\n      dup5\n        /* \"contracts/zapyield-mainnet-alpha0.002.sol\":1282:1284  to */\n      dup5\n        /* \"contracts/zapyield-mainnet-alpha0.002.sol\":1286:1291  value */\n      dup5\n        /* \"contracts/zapyield-mainnet-alpha0.002.sol\":1257:1292  token.transferFrom(from, to, value) */\n      mload(0x40)\n      dup5\n      0xffffffff\n      and\n      0xe0\n      shl\n      dup2\n      mstore\n      0x04\n      add\n      tag_128\n      swap4\n      swap3\n      swap2\n      swap1\n      tag_129\n      jump\t// in\n    tag_128:\n      0x20\n      mload(0x40)\n      dup1\n      dup4\n      sub\n      dup2\n      0x00\n      dup8\n      gas\n      call\n      iszero\n      dup1\n      iszero\n      tag_131\n      jumpi\n      returndatasize\n      0x00\n      dup1\n      returndatacopy\n      revert(0x00, returndatasize)\n    tag_131:\n      pop\n      pop\n      pop\n      pop\n      mload(0x40)\n      returndatasize\n      not(0x1f)\n      0x1f\n      dup3\n      add\n      and\n      dup3\n      add\n      dup1\n      0x40\n      mstore\n      pop\n      dup2\n      add\n      swap1\n      tag_132\n      swap2\n      swap1\n      tag_107\n      jump\t// in\n    tag_132:\n        /* \"contracts/zapyield-mainnet-alpha0.002.sol\":1249:1339  require(token.transferFrom(from, to, value), \"SafeERC20: ERC20 operation did not succeed\") */\n      tag_133\n      jumpi\n      mload(0x40)\n      0x08c379a000000000000000000000000000000000000000000000000000000000\n      dup2\n      mstore\n      0x04\n      add\n      tag_134\n      swap1\n      tag_126\n      jump\t// in\n    tag_134:\n      mload(0x40)\n      dup1\n      swap2\n      sub\n      swap1\n      revert\n    tag_133:\n        /* \"contracts/zapyield-mainnet-alpha0.002.sol\":1149:1346  function safeTransferFrom(IERC20 token, address from, address to, uint256 value) internal {... */\n      pop\n      pop\n      pop\n      pop\n      jump\t// out\n        /* \"#utility.yul\":88:205   */\n    tag_136:\n        /* \"#utility.yul\":197:198   */\n      0x00\n        /* \"#utility.yul\":194:195   */\n      dup1\n        /* \"#utility.yul\":187:199   */\n      revert\n        /* \"#utility.yul\":334:460   */\n    tag_138:\n        /* \"#utility.yul\":371:378   */\n      0x00\n        /* \"#utility.yul\":411:453   */\n      0xffffffffffffffffffffffffffffffffffffffff\n        /* \"#utility.yul\":404:409   */\n      dup3\n        /* \"#utility.yul\":400:454   */\n      and\n        /* \"#utility.yul\":389:454   */\n      swap1\n      pop\n        /* \"#utility.yul\":334:460   */\n      swap2\n      swap1\n      pop\n      jump\t// out\n        /* \"#utility.yul\":466:562   */\n    tag_139:\n        /* \"#utility.yul\":503:510   */\n      0x00\n        /* \"#utility.yul\":532:556   */\n      tag_185\n        /* \"#utility.yul\":550:555   */\n      dup3\n        /* \"#utility.yul\":532:556   */\n      tag_138\n      jump\t// in\n    tag_185:\n        /* \"#utility.yul\":521:556   */\n      swap1\n      pop\n        /* \"#utility.yul\":466:562   */\n      swap2\n      swap1\n      pop\n      jump\t// out\n        /* \"#utility.yul\":568:690   */\n    tag_140:\n        /* \"#utility.yul\":641:665   */\n      tag_187\n        /* \"#utility.yul\":659:664   */\n      dup2\n        /* \"#utility.yul\":641:665   */\n      tag_139\n      jump\t// in\n    tag_187:\n        /* \"#utility.yul\":634:639   */\n      dup2\n        /* \"#utility.yul\":631:666   */\n      eq\n        /* \"#utility.yul\":621:684   */\n      tag_188\n      jumpi\n        /* \"#utility.yul\":680:681   */\n      0x00\n        /* \"#utility.yul\":677:678   */\n      dup1\n        /* \"#utility.yul\":670:682   */\n      revert\n        /* \"#utility.yul\":621:684   */\n    tag_188:\n        /* \"#utility.yul\":568:690   */\n      pop\n      jump\t// out\n        /* \"#utility.yul\":696:835   */\n    tag_141:\n        /* \"#utility.yul\":742:747   */\n      0x00\n        /* \"#utility.yul\":780:786   */\n      dup2\n        /* \"#utility.yul\":767:787   */\n      calldataload\n        /* \"#utility.yul\":758:787   */\n      swap1\n      pop\n        /* \"#utility.yul\":796:829   */\n      tag_190\n        /* \"#utility.yul\":823:828   */\n      dup2\n        /* \"#utility.yul\":796:829   */\n      tag_140\n      jump\t// in\n    tag_190:\n        /* \"#utility.yul\":696:835   */\n      swap3\n      swap2\n      pop\n      pop\n      jump\t// out\n        /* \"#utility.yul\":841:1170   */\n    tag_18:\n        /* \"#utility.yul\":900:906   */\n      0x00\n        /* \"#utility.yul\":949:951   */\n      0x20\n        /* \"#utility.yul\":937:946   */\n      dup3\n        /* \"#utility.yul\":928:935   */\n      dup5\n        /* \"#utility.yul\":924:947   */\n      sub\n        /* \"#utility.yul\":920:952   */\n      slt\n        /* \"#utility.yul\":917:1036   */\n      iszero\n      tag_192\n      jumpi\n        /* \"#utility.yul\":955:1034   */\n      tag_193\n      tag_136\n      jump\t// in\n    tag_193:\n        /* \"#utility.yul\":917:1036   */\n    tag_192:\n        /* \"#utility.yul\":1075:1076   */\n      0x00\n        /* \"#utility.yul\":1100:1153   */\n      tag_194\n        /* \"#utility.yul\":1145:1152   */\n      dup5\n        /* \"#utility.yul\":1136:1142   */\n      dup3\n        /* \"#utility.yul\":1125:1134   */\n      dup6\n        /* \"#utility.yul\":1121:1143   */\n      add\n        /* \"#utility.yul\":1100:1153   */\n      tag_141\n      jump\t// in\n    tag_194:\n        /* \"#utility.yul\":1090:1153   */\n      swap2\n      pop\n        /* \"#utility.yul\":1046:1163   */\n      pop\n        /* \"#utility.yul\":841:1170   */\n      swap3\n      swap2\n      pop\n      pop\n      jump\t// out\n        /* \"#utility.yul\":1176:1290   */\n    tag_142:\n        /* \"#utility.yul\":1243:1249   */\n      0x00\n        /* \"#utility.yul\":1277:1282   */\n      dup2\n        /* \"#utility.yul\":1271:1283   */\n      mload\n        /* \"#utility.yul\":1261:1283   */\n      swap1\n      pop\n        /* \"#utility.yul\":1176:1290   */\n      swap2\n      swap1\n      pop\n      jump\t// out\n        /* \"#utility.yul\":1296:1480   */\n    tag_143:\n        /* \"#utility.yul\":1395:1406   */\n      0x00\n        /* \"#utility.yul\":1429:1435   */\n      dup3\n        /* \"#utility.yul\":1424:1427   */\n      dup3\n        /* \"#utility.yul\":1417:1436   */\n      mstore\n        /* \"#utility.yul\":1469:1473   */\n      0x20\n        /* \"#utility.yul\":1464:1467   */\n      dup3\n        /* \"#utility.yul\":1460:1474   */\n      add\n        /* \"#utility.yul\":1445:1474   */\n      swap1\n      pop\n        /* \"#utility.yul\":1296:1480   */\n      swap3\n      swap2\n      pop\n      pop\n      jump\t// out\n        /* \"#utility.yul\":1486:1618   */\n    tag_144:\n        /* \"#utility.yul\":1553:1557   */\n      0x00\n        /* \"#utility.yul\":1576:1579   */\n      dup2\n        /* \"#utility.yul\":1568:1579   */\n      swap1\n      pop\n        /* \"#utility.yul\":1606:1610   */\n      0x20\n        /* \"#utility.yul\":1601:1604   */\n      dup3\n        /* \"#utility.yul\":1597:1611   */\n      add\n        /* \"#utility.yul\":1589:1611   */\n      swap1\n      pop\n        /* \"#utility.yul\":1486:1618   */\n      swap2\n      swap1\n      pop\n      jump\t// out\n        /* \"#utility.yul\":1624:1732   */\n    tag_145:\n        /* \"#utility.yul\":1701:1725   */\n      tag_199\n        /* \"#utility.yul\":1719:1724   */\n      dup2\n        /* \"#utility.yul\":1701:1725   */\n      tag_139\n      jump\t// in\n    tag_199:\n        /* \"#utility.yul\":1696:1699   */\n      dup3\n        /* \"#utility.yul\":1689:1726   */\n      mstore\n        /* \"#utility.yul\":1624:1732   */\n      pop\n      pop\n      jump\t// out\n        /* \"#utility.yul\":1738:1917   */\n    tag_146:\n        /* \"#utility.yul\":1807:1817   */\n      0x00\n        /* \"#utility.yul\":1828:1874   */\n      tag_201\n        /* \"#utility.yul\":1870:1873   */\n      dup4\n        /* \"#utility.yul\":1862:1868   */\n      dup4\n        /* \"#utility.yul\":1828:1874   */\n      tag_145\n      jump\t// in\n    tag_201:\n        /* \"#utility.yul\":1906:1910   */\n      0x20\n        /* \"#utility.yul\":1901:1904   */\n      dup4\n        /* \"#utility.yul\":1897:1911   */\n      add\n        /* \"#utility.yul\":1883:1911   */\n      swap1\n      pop\n        /* \"#utility.yul\":1738:1917   */\n      swap3\n      swap2\n      pop\n      pop\n      jump\t// out\n        /* \"#utility.yul\":1923:2036   */\n    tag_147:\n        /* \"#utility.yul\":1993:1997   */\n      0x00\n        /* \"#utility.yul\":2025:2029   */\n      0x20\n        /* \"#utility.yul\":2020:2023   */\n      dup3\n        /* \"#utility.yul\":2016:2030   */\n      add\n        /* \"#utility.yul\":2008:2030   */\n      swap1\n      pop\n        /* \"#utility.yul\":1923:2036   */\n      swap2\n      swap1\n      pop\n      jump\t// out\n        /* \"#utility.yul\":2072:2804   */\n    tag_148:\n        /* \"#utility.yul\":2191:2194   */\n      0x00\n        /* \"#utility.yul\":2220:2274   */\n      tag_204\n        /* \"#utility.yul\":2268:2273   */\n      dup3\n        /* \"#utility.yul\":2220:2274   */\n      tag_142\n      jump\t// in\n    tag_204:\n        /* \"#utility.yul\":2290:2376   */\n      tag_205\n        /* \"#utility.yul\":2369:2375   */\n      dup2\n        /* \"#utility.yul\":2364:2367   */\n      dup6\n        /* \"#utility.yul\":2290:2376   */\n      tag_143\n      jump\t// in\n    tag_205:\n        /* \"#utility.yul\":2283:2376   */\n      swap4\n      pop\n        /* \"#utility.yul\":2400:2456   */\n      tag_206\n        /* \"#utility.yul\":2450:2455   */\n      dup4\n        /* \"#utility.yul\":2400:2456   */\n      tag_144\n      jump\t// in\n    tag_206:\n        /* \"#utility.yul\":2479:2486   */\n      dup1\n        /* \"#utility.yul\":2510:2511   */\n      0x00\n        /* \"#utility.yul\":2495:2779   */\n    tag_207:\n        /* \"#utility.yul\":2520:2526   */\n      dup4\n        /* \"#utility.yul\":2517:2518   */\n      dup2\n        /* \"#utility.yul\":2514:2527   */\n      lt\n        /* \"#utility.yul\":2495:2779   */\n      iszero\n      tag_209\n      jumpi\n        /* \"#utility.yul\":2596:2602   */\n      dup2\n        /* \"#utility.yul\":2590:2603   */\n      mload\n        /* \"#utility.yul\":2623:2686   */\n      tag_210\n        /* \"#utility.yul\":2682:2685   */\n      dup9\n        /* \"#utility.yul\":2667:2680   */\n      dup3\n        /* \"#utility.yul\":2623:2686   */\n      tag_146\n      jump\t// in\n    tag_210:\n        /* \"#utility.yul\":2616:2686   */\n      swap8\n      pop\n        /* \"#utility.yul\":2709:2769   */\n      tag_211\n        /* \"#utility.yul\":2762:2768   */\n      dup4\n        /* \"#utility.yul\":2709:2769   */\n      tag_147\n      jump\t// in\n    tag_211:\n        /* \"#utility.yul\":2699:2769   */\n      swap3\n      pop\n        /* \"#utility.yul\":2555:2779   */\n      pop\n        /* \"#utility.yul\":2542:2543   */\n      0x01\n        /* \"#utility.yul\":2539:2540   */\n      dup2\n        /* \"#utility.yul\":2535:2544   */\n      add\n        /* \"#utility.yul\":2530:2544   */\n      swap1\n      pop\n        /* \"#utility.yul\":2495:2779   */\n      jump(tag_207)\n    tag_209:\n        /* \"#utility.yul\":2499:2513   */\n      pop\n        /* \"#utility.yul\":2795:2798   */\n      dup6\n        /* \"#utility.yul\":2788:2798   */\n      swap4\n      pop\n        /* \"#utility.yul\":2196:2804   */\n      pop\n      pop\n      pop\n        /* \"#utility.yul\":2072:2804   */\n      swap3\n      swap2\n      pop\n      pop\n      jump\t// out\n        /* \"#utility.yul\":2810:3183   */\n    tag_21:\n        /* \"#utility.yul\":2953:2957   */\n      0x00\n        /* \"#utility.yul\":2991:2993   */\n      0x20\n        /* \"#utility.yul\":2980:2989   */\n      dup3\n        /* \"#utility.yul\":2976:2994   */\n      add\n        /* \"#utility.yul\":2968:2994   */\n      swap1\n      pop\n        /* \"#utility.yul\":3040:3049   */\n      dup2\n        /* \"#utility.yul\":3034:3038   */\n      dup2\n        /* \"#utility.yul\":3030:3050   */\n      sub\n        /* \"#utility.yul\":3026:3027   */\n      0x00\n        /* \"#utility.yul\":3015:3024   */\n      dup4\n        /* \"#utility.yul\":3011:3028   */\n      add\n        /* \"#utility.yul\":3004:3051   */\n      mstore\n        /* \"#utility.yul\":3068:3176   */\n      tag_213\n        /* \"#utility.yul\":3171:3175   */\n      dup2\n        /* \"#utility.yul\":3162:3168   */\n      dup5\n        /* \"#utility.yul\":3068:3176   */\n      tag_148\n      jump\t// in\n    tag_213:\n        /* \"#utility.yul\":3060:3176   */\n      swap1\n      pop\n        /* \"#utility.yul\":2810:3183   */\n      swap3\n      swap2\n      pop\n      pop\n      jump\t// out\n        /* \"#utility.yul\":3189:3266   */\n    tag_149:\n        /* \"#utility.yul\":3226:3233   */\n      0x00\n        /* \"#utility.yul\":3255:3260   */\n      dup2\n        /* \"#utility.yul\":3244:3260   */\n      swap1\n      pop\n        /* \"#utility.yul\":3189:3266   */\n      swap2\n      swap1\n      pop\n      jump\t// out\n        /* \"#utility.yul\":3272:3390   */\n    tag_150:\n        /* \"#utility.yul\":3359:3383   */\n      tag_216\n        /* \"#utility.yul\":3377:3382   */\n      dup2\n        /* \"#utility.yul\":3359:3383   */\n      tag_149\n      jump\t// in\n    tag_216:\n        /* \"#utility.yul\":3354:3357   */\n      dup3\n        /* \"#utility.yul\":3347:3384   */\n      mstore\n        /* \"#utility.yul\":3272:3390   */\n      pop\n      pop\n      jump\t// out\n        /* \"#utility.yul\":3396:3618   */\n    tag_25:\n        /* \"#utility.yul\":3489:3493   */\n      0x00\n        /* \"#utility.yul\":3527:3529   */\n      0x20\n        /* \"#utility.yul\":3516:3525   */\n      dup3\n        /* \"#utility.yul\":3512:3530   */\n      add\n        /* \"#utility.yul\":3504:3530   */\n      swap1\n      pop\n        /* \"#utility.yul\":3540:3611   */\n      tag_218\n        /* \"#utility.yul\":3608:3609   */\n      0x00\n        /* \"#utility.yul\":3597:3606   */\n      dup4\n        /* \"#utility.yul\":3593:3610   */\n      add\n        /* \"#utility.yul\":3584:3590   */\n      dup5\n        /* \"#utility.yul\":3540:3611   */\n      tag_150\n      jump\t// in\n    tag_218:\n        /* \"#utility.yul\":3396:3618   */\n      swap3\n      swap2\n      pop\n      pop\n      jump\t// out\n        /* \"#utility.yul\":3624:3684   */\n    tag_151:\n        /* \"#utility.yul\":3652:3655   */\n      0x00\n        /* \"#utility.yul\":3673:3678   */\n      dup2\n        /* \"#utility.yul\":3666:3678   */\n      swap1\n      pop\n        /* \"#utility.yul\":3624:3684   */\n      swap2\n      swap1\n      pop\n      jump\t// out\n        /* \"#utility.yul\":3690:3832   */\n    tag_152:\n        /* \"#utility.yul\":3740:3749   */\n      0x00\n        /* \"#utility.yul\":3773:3826   */\n      tag_221\n        /* \"#utility.yul\":3791:3825   */\n      tag_222\n        /* \"#utility.yul\":3800:3824   */\n      tag_223\n        /* \"#utility.yul\":3818:3823   */\n      dup5\n        /* \"#utility.yul\":3800:3824   */\n      tag_138\n      jump\t// in\n    tag_223:\n        /* \"#utility.yul\":3791:3825   */\n      tag_151\n      jump\t// in\n    tag_222:\n        /* \"#utility.yul\":3773:3826   */\n      tag_138\n      jump\t// in\n    tag_221:\n        /* \"#utility.yul\":3760:3826   */\n      swap1\n      pop\n        /* \"#utility.yul\":3690:3832   */\n      swap2\n      swap1\n      pop\n      jump\t// out\n        /* \"#utility.yul\":3838:3964   */\n    tag_153:\n        /* \"#utility.yul\":3888:3897   */\n      0x00\n        /* \"#utility.yul\":3921:3958   */\n      tag_225\n        /* \"#utility.yul\":3952:3957   */\n      dup3\n        /* \"#utility.yul\":3921:3958   */\n      tag_152\n      jump\t// in\n    tag_225:\n        /* \"#utility.yul\":3908:3958   */\n      swap1\n      pop\n        /* \"#utility.yul\":3838:3964   */\n      swap2\n      swap1\n      pop\n      jump\t// out\n        /* \"#utility.yul\":3970:4109   */\n    tag_154:\n        /* \"#utility.yul\":4033:4042   */\n      0x00\n        /* \"#utility.yul\":4066:4103   */\n      tag_227\n        /* \"#utility.yul\":4097:4102   */\n      dup3\n        /* \"#utility.yul\":4066:4103   */\n      tag_153\n      jump\t// in\n    tag_227:\n        /* \"#utility.yul\":4053:4103   */\n      swap1\n      pop\n        /* \"#utility.yul\":3970:4109   */\n      swap2\n      swap1\n      pop\n      jump\t// out\n        /* \"#utility.yul\":4115:4272   */\n    tag_155:\n        /* \"#utility.yul\":4215:4265   */\n      tag_229\n        /* \"#utility.yul\":4259:4264   */\n      dup2\n        /* \"#utility.yul\":4215:4265   */\n      tag_154\n      jump\t// in\n    tag_229:\n        /* \"#utility.yul\":4210:4213   */\n      dup3\n        /* \"#utility.yul\":4203:4266   */\n      mstore\n        /* \"#utility.yul\":4115:4272   */\n      pop\n      pop\n      jump\t// out\n        /* \"#utility.yul\":4278:4526   */\n    tag_33:\n        /* \"#utility.yul\":4384:4388   */\n      0x00\n        /* \"#utility.yul\":4422:4424   */\n      0x20\n        /* \"#utility.yul\":4411:4420   */\n      dup3\n        /* \"#utility.yul\":4407:4425   */\n      add\n        /* \"#utility.yul\":4399:4425   */\n      swap1\n      pop\n        /* \"#utility.yul\":4435:4519   */\n      tag_231\n        /* \"#utility.yul\":4516:4517   */\n      0x00\n        /* \"#utility.yul\":4505:4514   */\n      dup4\n        /* \"#utility.yul\":4501:4518   */\n      add\n        /* \"#utility.yul\":4492:4498   */\n      dup5\n        /* \"#utility.yul\":4435:4519   */\n      tag_155\n      jump\t// in\n    tag_231:\n        /* \"#utility.yul\":4278:4526   */\n      swap3\n      swap2\n      pop\n      pop\n      jump\t// out\n        /* \"#utility.yul\":4532:4650   */\n    tag_156:\n        /* \"#utility.yul\":4619:4643   */\n      tag_233\n        /* \"#utility.yul\":4637:4642   */\n      dup2\n        /* \"#utility.yul\":4619:4643   */\n      tag_139\n      jump\t// in\n    tag_233:\n        /* \"#utility.yul\":4614:4617   */\n      dup3\n        /* \"#utility.yul\":4607:4644   */\n      mstore\n        /* \"#utility.yul\":4532:4650   */\n      pop\n      pop\n      jump\t// out\n        /* \"#utility.yul\":4656:4878   */\n    tag_37:\n        /* \"#utility.yul\":4749:4753   */\n      0x00\n        /* \"#utility.yul\":4787:4789   */\n      0x20\n        /* \"#utility.yul\":4776:4785   */\n      dup3\n        /* \"#utility.yul\":4772:4790   */\n      add\n        /* \"#utility.yul\":4764:4790   */\n      swap1\n      pop\n        /* \"#utility.yul\":4800:4871   */\n      tag_235\n        /* \"#utility.yul\":4868:4869   */\n      0x00\n        /* \"#utility.yul\":4857:4866   */\n      dup4\n        /* \"#utility.yul\":4853:4870   */\n      add\n        /* \"#utility.yul\":4844:4850   */\n      dup5\n        /* \"#utility.yul\":4800:4871   */\n      tag_156\n      jump\t// in\n    tag_235:\n        /* \"#utility.yul\":4656:4878   */\n      swap3\n      swap2\n      pop\n      pop\n      jump\t// out\n        /* \"#utility.yul\":4884:5326   */\n    tag_42:\n        /* \"#utility.yul\":5033:5037   */\n      0x00\n        /* \"#utility.yul\":5071:5073   */\n      0x60\n        /* \"#utility.yul\":5060:5069   */\n      dup3\n        /* \"#utility.yul\":5056:5074   */\n      add\n        /* \"#utility.yul\":5048:5074   */\n      swap1\n      pop\n        /* \"#utility.yul\":5084:5155   */\n      tag_237\n        /* \"#utility.yul\":5152:5153   */\n      0x00\n        /* \"#utility.yul\":5141:5150   */\n      dup4\n        /* \"#utility.yul\":5137:5154   */\n      add\n        /* \"#utility.yul\":5128:5134   */\n      dup7\n        /* \"#utility.yul\":5084:5155   */\n      tag_150\n      jump\t// in\n    tag_237:\n        /* \"#utility.yul\":5165:5237   */\n      tag_238\n        /* \"#utility.yul\":5233:5235   */\n      0x20\n        /* \"#utility.yul\":5222:5231   */\n      dup4\n        /* \"#utility.yul\":5218:5236   */\n      add\n        /* \"#utility.yul\":5209:5215   */\n      dup6\n        /* \"#utility.yul\":5165:5237   */\n      tag_150\n      jump\t// in\n    tag_238:\n        /* \"#utility.yul\":5247:5319   */\n      tag_239\n        /* \"#utility.yul\":5315:5317   */\n      0x40\n        /* \"#utility.yul\":5304:5313   */\n      dup4\n        /* \"#utility.yul\":5300:5318   */\n      add\n        /* \"#utility.yul\":5291:5297   */\n      dup5\n        /* \"#utility.yul\":5247:5319   */\n      tag_156\n      jump\t// in\n    tag_239:\n        /* \"#utility.yul\":4884:5326   */\n      swap5\n      swap4\n      pop\n      pop\n      pop\n      pop\n      jump\t// out\n        /* \"#utility.yul\":5332:5454   */\n    tag_157:\n        /* \"#utility.yul\":5405:5429   */\n      tag_241\n        /* \"#utility.yul\":5423:5428   */\n      dup2\n        /* \"#utility.yul\":5405:5429   */\n      tag_149\n      jump\t// in\n    tag_241:\n        /* \"#utility.yul\":5398:5403   */\n      dup2\n        /* \"#utility.yul\":5395:5430   */\n      eq\n        /* \"#utility.yul\":5385:5448   */\n      tag_242\n      jumpi\n        /* \"#utility.yul\":5444:5445   */\n      0x00\n        /* \"#utility.yul\":5441:5442   */\n      dup1\n        /* \"#utility.yul\":5434:5446   */\n      revert\n        /* \"#utility.yul\":5385:5448   */\n    tag_242:\n        /* \"#utility.yul\":5332:5454   */\n      pop\n      jump\t// out\n        /* \"#utility.yul\":5460:5599   */\n    tag_158:\n        /* \"#utility.yul\":5506:5511   */\n      0x00\n        /* \"#utility.yul\":5544:5550   */\n      dup2\n        /* \"#utility.yul\":5531:5551   */\n      calldataload\n        /* \"#utility.yul\":5522:5551   */\n      swap1\n      pop\n        /* \"#utility.yul\":5560:5593   */\n      tag_244\n        /* \"#utility.yul\":5587:5592   */\n      dup2\n        /* \"#utility.yul\":5560:5593   */\n      tag_157\n      jump\t// in\n    tag_244:\n        /* \"#utility.yul\":5460:5599   */\n      swap3\n      swap2\n      pop\n      pop\n      jump\t// out\n        /* \"#utility.yul\":5605:6079   */\n    tag_45:\n        /* \"#utility.yul\":5673:5679   */\n      0x00\n        /* \"#utility.yul\":5681:5687   */\n      dup1\n        /* \"#utility.yul\":5730:5732   */\n      0x40\n        /* \"#utility.yul\":5718:5727   */\n      dup4\n        /* \"#utility.yul\":5709:5716   */\n      dup6\n        /* \"#utility.yul\":5705:5728   */\n      sub\n        /* \"#utility.yul\":5701:5733   */\n      slt\n        /* \"#utility.yul\":5698:5817   */\n      iszero\n      tag_246\n      jumpi\n        /* \"#utility.yul\":5736:5815   */\n      tag_247\n      tag_136\n      jump\t// in\n    tag_247:\n        /* \"#utility.yul\":5698:5817   */\n    tag_246:\n        /* \"#utility.yul\":5856:5857   */\n      0x00\n        /* \"#utility.yul\":5881:5934   */\n      tag_248\n        /* \"#utility.yul\":5926:5933   */\n      dup6\n        /* \"#utility.yul\":5917:5923   */\n      dup3\n        /* \"#utility.yul\":5906:5915   */\n      dup7\n        /* \"#utility.yul\":5902:5924   */\n      add\n        /* \"#utility.yul\":5881:5934   */\n      tag_141\n      jump\t// in\n    tag_248:\n        /* \"#utility.yul\":5871:5934   */\n      swap3\n      pop\n        /* \"#utility.yul\":5827:5944   */\n      pop\n        /* \"#utility.yul\":5983:5985   */\n      0x20\n        /* \"#utility.yul\":6009:6062   */\n      tag_249\n        /* \"#utility.yul\":6054:6061   */\n      dup6\n        /* \"#utility.yul\":6045:6051   */\n      dup3\n        /* \"#utility.yul\":6034:6043   */\n      dup7\n        /* \"#utility.yul\":6030:6052   */\n      add\n        /* \"#utility.yul\":6009:6062   */\n      tag_158\n      jump\t// in\n    tag_249:\n        /* \"#utility.yul\":5999:6062   */\n      swap2\n      pop\n        /* \"#utility.yul\":5954:6072   */\n      pop\n        /* \"#utility.yul\":5605:6079   */\n      swap3\n      pop\n      swap3\n      swap1\n      pop\n      jump\t// out\n        /* \"#utility.yul\":6085:6559   */\n    tag_50:\n        /* \"#utility.yul\":6153:6159   */\n      0x00\n        /* \"#utility.yul\":6161:6167   */\n      dup1\n        /* \"#utility.yul\":6210:6212   */\n      0x40\n        /* \"#utility.yul\":6198:6207   */\n      dup4\n        /* \"#utility.yul\":6189:6196   */\n      dup6\n        /* \"#utility.yul\":6185:6208   */\n      sub\n        /* \"#utility.yul\":6181:6213   */\n      slt\n        /* \"#utility.yul\":6178:6297   */\n      iszero\n      tag_251\n      jumpi\n        /* \"#utility.yul\":6216:6295   */\n      tag_252\n      tag_136\n      jump\t// in\n    tag_252:\n        /* \"#utility.yul\":6178:6297   */\n    tag_251:\n        /* \"#utility.yul\":6336:6337   */\n      0x00\n        /* \"#utility.yul\":6361:6414   */\n      tag_253\n        /* \"#utility.yul\":6406:6413   */\n      dup6\n        /* \"#utility.yul\":6397:6403   */\n      dup3\n        /* \"#utility.yul\":6386:6395   */\n      dup7\n        /* \"#utility.yul\":6382:6404   */\n      add\n        /* \"#utility.yul\":6361:6414   */\n      tag_158\n      jump\t// in\n    tag_253:\n        /* \"#utility.yul\":6351:6414   */\n      swap3\n      pop\n        /* \"#utility.yul\":6307:6424   */\n      pop\n        /* \"#utility.yul\":6463:6465   */\n      0x20\n        /* \"#utility.yul\":6489:6542   */\n      tag_254\n        /* \"#utility.yul\":6534:6541   */\n      dup6\n        /* \"#utility.yul\":6525:6531   */\n      dup3\n        /* \"#utility.yul\":6514:6523   */\n      dup7\n        /* \"#utility.yul\":6510:6532   */\n      add\n        /* \"#utility.yul\":6489:6542   */\n      tag_141\n      jump\t// in\n    tag_254:\n        /* \"#utility.yul\":6479:6542   */\n      swap2\n      pop\n        /* \"#utility.yul\":6434:6552   */\n      pop\n        /* \"#utility.yul\":6085:6559   */\n      swap3\n      pop\n      swap3\n      swap1\n      pop\n      jump\t// out\n        /* \"#utility.yul\":6565:6711   */\n    tag_159:\n        /* \"#utility.yul\":6635:6644   */\n      0x00\n        /* \"#utility.yul\":6668:6705   */\n      tag_256\n        /* \"#utility.yul\":6699:6704   */\n      dup3\n        /* \"#utility.yul\":6668:6705   */\n      tag_153\n      jump\t// in\n    tag_256:\n        /* \"#utility.yul\":6655:6705   */\n      swap1\n      pop\n        /* \"#utility.yul\":6565:6711   */\n      swap2\n      swap1\n      pop\n      jump\t// out\n        /* \"#utility.yul\":6717:6888   */\n    tag_160:\n        /* \"#utility.yul\":6824:6881   */\n      tag_258\n        /* \"#utility.yul\":6875:6880   */\n      dup2\n        /* \"#utility.yul\":6824:6881   */\n      tag_159\n      jump\t// in\n    tag_258:\n        /* \"#utility.yul\":6819:6822   */\n      dup3\n        /* \"#utility.yul\":6812:6882   */\n      mstore\n        /* \"#utility.yul\":6717:6888   */\n      pop\n      pop\n      jump\t// out\n        /* \"#utility.yul\":6894:7156   */\n    tag_55:\n        /* \"#utility.yul\":7007:7011   */\n      0x00\n        /* \"#utility.yul\":7045:7047   */\n      0x20\n        /* \"#utility.yul\":7034:7043   */\n      dup3\n        /* \"#utility.yul\":7030:7048   */\n      add\n        /* \"#utility.yul\":7022:7048   */\n      swap1\n      pop\n        /* \"#utility.yul\":7058:7149   */\n      tag_260\n        /* \"#utility.yul\":7146:7147   */\n      0x00\n        /* \"#utility.yul\":7135:7144   */\n      dup4\n        /* \"#utility.yul\":7131:7148   */\n      add\n        /* \"#utility.yul\":7122:7128   */\n      dup5\n        /* \"#utility.yul\":7058:7149   */\n      tag_160\n      jump\t// in\n    tag_260:\n        /* \"#utility.yul\":6894:7156   */\n      swap3\n      swap2\n      pop\n      pop\n      jump\t// out\n        /* \"#utility.yul\":7162:7331   */\n    tag_161:\n        /* \"#utility.yul\":7246:7257   */\n      0x00\n        /* \"#utility.yul\":7280:7286   */\n      dup3\n        /* \"#utility.yul\":7275:7278   */\n      dup3\n        /* \"#utility.yul\":7268:7287   */\n      mstore\n        /* \"#utility.yul\":7320:7324   */\n      0x20\n        /* \"#utility.yul\":7315:7318   */\n      dup3\n        /* \"#utility.yul\":7311:7325   */\n      add\n        /* \"#utility.yul\":7296:7325   */\n      swap1\n      pop\n        /* \"#utility.yul\":7162:7331   */\n      swap3\n      swap2\n      pop\n      pop\n      jump\t// out\n        /* \"#utility.yul\":7337:7518   */\n    tag_162:\n        /* \"#utility.yul\":7477:7510   */\n      0x5265656e7472616e637947756172643a207265656e7472616e742063616c6c00\n        /* \"#utility.yul\":7473:7474   */\n      0x00\n        /* \"#utility.yul\":7465:7471   */\n      dup3\n        /* \"#utility.yul\":7461:7475   */\n      add\n        /* \"#utility.yul\":7454:7511   */\n      mstore\n        /* \"#utility.yul\":7337:7518   */\n      pop\n      jump\t// out\n        /* \"#utility.yul\":7524:7890   */\n    tag_163:\n        /* \"#utility.yul\":7666:7669   */\n      0x00\n        /* \"#utility.yul\":7687:7754   */\n      tag_264\n        /* \"#utility.yul\":7751:7753   */\n      0x1f\n        /* \"#utility.yul\":7746:7749   */\n      dup4\n        /* \"#utility.yul\":7687:7754   */\n      tag_161\n      jump\t// in\n    tag_264:\n        /* \"#utility.yul\":7680:7754   */\n      swap2\n      pop\n        /* \"#utility.yul\":7763:7856   */\n      tag_265\n        /* \"#utility.yul\":7852:7855   */\n      dup3\n        /* \"#utility.yul\":7763:7856   */\n      tag_162\n      jump\t// in\n    tag_265:\n        /* \"#utility.yul\":7881:7883   */\n      0x20\n        /* \"#utility.yul\":7876:7879   */\n      dup3\n        /* \"#utility.yul\":7872:7884   */\n      add\n        /* \"#utility.yul\":7865:7884   */\n      swap1\n      pop\n        /* \"#utility.yul\":7524:7890   */\n      swap2\n      swap1\n      pop\n      jump\t// out\n        /* \"#utility.yul\":7896:8315   */\n    tag_59:\n        /* \"#utility.yul\":8062:8066   */\n      0x00\n        /* \"#utility.yul\":8100:8102   */\n      0x20\n        /* \"#utility.yul\":8089:8098   */\n      dup3\n        /* \"#utility.yul\":8085:8103   */\n      add\n        /* \"#utility.yul\":8077:8103   */\n      swap1\n      pop\n        /* \"#utility.yul\":8149:8158   */\n      dup2\n        /* \"#utility.yul\":8143:8147   */\n      dup2\n        /* \"#utility.yul\":8139:8159   */\n      sub\n        /* \"#utility.yul\":8135:8136   */\n      0x00\n        /* \"#utility.yul\":8124:8133   */\n      dup4\n        /* \"#utility.yul\":8120:8137   */\n      add\n        /* \"#utility.yul\":8113:8160   */\n      mstore\n        /* \"#utility.yul\":8177:8308   */\n      tag_267\n        /* \"#utility.yul\":8303:8307   */\n      dup2\n        /* \"#utility.yul\":8177:8308   */\n      tag_163\n      jump\t// in\n    tag_267:\n        /* \"#utility.yul\":8169:8308   */\n      swap1\n      pop\n        /* \"#utility.yul\":7896:8315   */\n      swap2\n      swap1\n      pop\n      jump\t// out\n        /* \"#utility.yul\":8321:8481   */\n    tag_164:\n        /* \"#utility.yul\":8461:8473   */\n      0x4e6f2062616c616e636500000000000000000000000000000000000000000000\n        /* \"#utility.yul\":8457:8458   */\n      0x00\n        /* \"#utility.yul\":8449:8455   */\n      dup3\n        /* \"#utility.yul\":8445:8459   */\n      add\n        /* \"#utility.yul\":8438:8474   */\n      mstore\n        /* \"#utility.yul\":8321:8481   */\n      pop\n      jump\t// out\n        /* \"#utility.yul\":8487:8853   */\n    tag_165:\n        /* \"#utility.yul\":8629:8632   */\n      0x00\n        /* \"#utility.yul\":8650:8717   */\n      tag_270\n        /* \"#utility.yul\":8714:8716   */\n      0x0a\n        /* \"#utility.yul\":8709:8712   */\n      dup4\n        /* \"#utility.yul\":8650:8717   */\n      tag_161\n      jump\t// in\n    tag_270:\n        /* \"#utility.yul\":8643:8717   */\n      swap2\n      pop\n        /* \"#utility.yul\":8726:8819   */\n      tag_271\n        /* \"#utility.yul\":8815:8818   */\n      dup3\n        /* \"#utility.yul\":8726:8819   */\n      tag_164\n      jump\t// in\n    tag_271:\n        /* \"#utility.yul\":8844:8846   */\n      0x20\n        /* \"#utility.yul\":8839:8842   */\n      dup3\n        /* \"#utility.yul\":8835:8847   */\n      add\n        /* \"#utility.yul\":8828:8847   */\n      swap1\n      pop\n        /* \"#utility.yul\":8487:8853   */\n      swap2\n      swap1\n      pop\n      jump\t// out\n        /* \"#utility.yul\":8859:9278   */\n    tag_63:\n        /* \"#utility.yul\":9025:9029   */\n      0x00\n        /* \"#utility.yul\":9063:9065   */\n      0x20\n        /* \"#utility.yul\":9052:9061   */\n      dup3\n        /* \"#utility.yul\":9048:9066   */\n      add\n        /* \"#utility.yul\":9040:9066   */\n      swap1\n      pop\n        /* \"#utility.yul\":9112:9121   */\n      dup2\n        /* \"#utility.yul\":9106:9110   */\n      dup2\n        /* \"#utility.yul\":9102:9122   */\n      sub\n        /* \"#utility.yul\":9098:9099   */\n      0x00\n        /* \"#utility.yul\":9087:9096   */\n      dup4\n        /* \"#utility.yul\":9083:9100   */\n      add\n        /* \"#utility.yul\":9076:9123   */\n      mstore\n        /* \"#utility.yul\":9140:9271   */\n      tag_273\n        /* \"#utility.yul\":9266:9270   */\n      dup2\n        /* \"#utility.yul\":9140:9271   */\n      tag_165\n      jump\t// in\n    tag_273:\n        /* \"#utility.yul\":9132:9271   */\n      swap1\n      pop\n        /* \"#utility.yul\":8859:9278   */\n      swap2\n      swap1\n      pop\n      jump\t// out\n        /* \"#utility.yul\":9284:9726   */\n    tag_65:\n        /* \"#utility.yul\":9433:9437   */\n      0x00\n        /* \"#utility.yul\":9471:9473   */\n      0x60\n        /* \"#utility.yul\":9460:9469   */\n      dup3\n        /* \"#utility.yul\":9456:9474   */\n      add\n        /* \"#utility.yul\":9448:9474   */\n      swap1\n      pop\n        /* \"#utility.yul\":9484:9555   */\n      tag_275\n        /* \"#utility.yul\":9552:9553   */\n      0x00\n        /* \"#utility.yul\":9541:9550   */\n      dup4\n        /* \"#utility.yul\":9537:9554   */\n      add\n        /* \"#utility.yul\":9528:9534   */\n      dup7\n        /* \"#utility.yul\":9484:9555   */\n      tag_150\n      jump\t// in\n    tag_275:\n        /* \"#utility.yul\":9565:9637   */\n      tag_276\n        /* \"#utility.yul\":9633:9635   */\n      0x20\n        /* \"#utility.yul\":9622:9631   */\n      dup4\n        /* \"#utility.yul\":9618:9636   */\n      add\n        /* \"#utility.yul\":9609:9615   */\n      dup6\n        /* \"#utility.yul\":9565:9637   */\n      tag_156\n      jump\t// in\n    tag_276:\n        /* \"#utility.yul\":9647:9719   */\n      tag_277\n        /* \"#utility.yul\":9715:9717   */\n      0x40\n        /* \"#utility.yul\":9704:9713   */\n      dup4\n        /* \"#utility.yul\":9700:9718   */\n      add\n        /* \"#utility.yul\":9691:9697   */\n      dup5\n        /* \"#utility.yul\":9647:9719   */\n      tag_156\n      jump\t// in\n    tag_277:\n        /* \"#utility.yul\":9284:9726   */\n      swap5\n      swap4\n      pop\n      pop\n      pop\n      pop\n      jump\t// out\n        /* \"#utility.yul\":9732:9875   */\n    tag_166:\n        /* \"#utility.yul\":9789:9794   */\n      0x00\n        /* \"#utility.yul\":9820:9826   */\n      dup2\n        /* \"#utility.yul\":9814:9827   */\n      mload\n        /* \"#utility.yul\":9805:9827   */\n      swap1\n      pop\n        /* \"#utility.yul\":9836:9869   */\n      tag_279\n        /* \"#utility.yul\":9863:9868   */\n      dup2\n        /* \"#utility.yul\":9836:9869   */\n      tag_157\n      jump\t// in\n    tag_279:\n        /* \"#utility.yul\":9732:9875   */\n      swap3\n      swap2\n      pop\n      pop\n      jump\t// out\n        /* \"#utility.yul\":9881:10232   */\n    tag_69:\n        /* \"#utility.yul\":9951:9957   */\n      0x00\n        /* \"#utility.yul\":10000:10002   */\n      0x20\n        /* \"#utility.yul\":9988:9997   */\n      dup3\n        /* \"#utility.yul\":9979:9986   */\n      dup5\n        /* \"#utility.yul\":9975:9998   */\n      sub\n        /* \"#utility.yul\":9971:10003   */\n      slt\n        /* \"#utility.yul\":9968:10087   */\n      iszero\n      tag_281\n      jumpi\n        /* \"#utility.yul\":10006:10085   */\n      tag_282\n      tag_136\n      jump\t// in\n    tag_282:\n        /* \"#utility.yul\":9968:10087   */\n    tag_281:\n        /* \"#utility.yul\":10126:10127   */\n      0x00\n        /* \"#utility.yul\":10151:10215   */\n      tag_283\n        /* \"#utility.yul\":10207:10214   */\n      dup5\n        /* \"#utility.yul\":10198:10204   */\n      dup3\n        /* \"#utility.yul\":10187:10196   */\n      dup6\n        /* \"#utility.yul\":10183:10205   */\n      add\n        /* \"#utility.yul\":10151:10215   */\n      tag_166\n      jump\t// in\n    tag_283:\n        /* \"#utility.yul\":10141:10215   */\n      swap2\n      pop\n        /* \"#utility.yul\":10097:10225   */\n      pop\n        /* \"#utility.yul\":9881:10232   */\n      swap3\n      swap2\n      pop\n      pop\n      jump\t// out\n        /* \"#utility.yul\":10238:10399   */\n    tag_167:\n        /* \"#utility.yul\":10378:10391   */\n      0x4d696e2031302055534443000000000000000000000000000000000000000000\n        /* \"#utility.yul\":10374:10375   */\n      0x00\n        /* \"#utility.yul\":10366:10372   */\n      dup3\n        /* \"#utility.yul\":10362:10376   */\n      add\n        /* \"#utility.yul\":10355:10392   */\n      mstore\n        /* \"#utility.yul\":10238:10399   */\n      pop\n      jump\t// out\n        /* \"#utility.yul\":10405:10771   */\n    tag_168:\n        /* \"#utility.yul\":10547:10550   */\n      0x00\n        /* \"#utility.yul\":10568:10635   */\n      tag_286\n        /* \"#utility.yul\":10632:10634   */\n      0x0b\n        /* \"#utility.yul\":10627:10630   */\n      dup4\n        /* \"#utility.yul\":10568:10635   */\n      tag_161\n      jump\t// in\n    tag_286:\n        /* \"#utility.yul\":10561:10635   */\n      swap2\n      pop\n        /* \"#utility.yul\":10644:10737   */\n      tag_287\n        /* \"#utility.yul\":10733:10736   */\n      dup3\n        /* \"#utility.yul\":10644:10737   */\n      tag_167\n      jump\t// in\n    tag_287:\n        /* \"#utility.yul\":10762:10764   */\n      0x20\n        /* \"#utility.yul\":10757:10760   */\n      dup3\n        /* \"#utility.yul\":10753:10765   */\n      add\n        /* \"#utility.yul\":10746:10765   */\n      swap1\n      pop\n        /* \"#utility.yul\":10405:10771   */\n      swap2\n      swap1\n      pop\n      jump\t// out\n        /* \"#utility.yul\":10777:11196   */\n    tag_93:\n        /* \"#utility.yul\":10943:10947   */\n      0x00\n        /* \"#utility.yul\":10981:10983   */\n      0x20\n        /* \"#utility.yul\":10970:10979   */\n      dup3\n        /* \"#utility.yul\":10966:10984   */\n      add\n        /* \"#utility.yul\":10958:10984   */\n      swap1\n      pop\n        /* \"#utility.yul\":11030:11039   */\n      dup2\n        /* \"#utility.yul\":11024:11028   */\n      dup2\n        /* \"#utility.yul\":11020:11040   */\n      sub\n        /* \"#utility.yul\":11016:11017   */\n      0x00\n        /* \"#utility.yul\":11005:11014   */\n      dup4\n        /* \"#utility.yul\":11001:11018   */\n      add\n        /* \"#utility.yul\":10994:11041   */\n      mstore\n        /* \"#utility.yul\":11058:11189   */\n      tag_289\n        /* \"#utility.yul\":11184:11188   */\n      dup2\n        /* \"#utility.yul\":11058:11189   */\n      tag_168\n      jump\t// in\n    tag_289:\n        /* \"#utility.yul\":11050:11189   */\n      swap1\n      pop\n        /* \"#utility.yul\":10777:11196   */\n      swap2\n      swap1\n      pop\n      jump\t// out\n        /* \"#utility.yul\":11202:11368   */\n    tag_169:\n        /* \"#utility.yul\":11342:11360   */\n      0x4e6f2073656c662d726566657272616c00000000000000000000000000000000\n        /* \"#utility.yul\":11338:11339   */\n      0x00\n        /* \"#utility.yul\":11330:11336   */\n      dup3\n        /* \"#utility.yul\":11326:11340   */\n      add\n        /* \"#utility.yul\":11319:11361   */\n      mstore\n        /* \"#utility.yul\":11202:11368   */\n      pop\n      jump\t// out\n        /* \"#utility.yul\":11374:11740   */\n    tag_170:\n        /* \"#utility.yul\":11516:11519   */\n      0x00\n        /* \"#utility.yul\":11537:11604   */\n      tag_292\n        /* \"#utility.yul\":11601:11603   */\n      0x10\n        /* \"#utility.yul\":11596:11599   */\n      dup4\n        /* \"#utility.yul\":11537:11604   */\n      tag_161\n      jump\t// in\n    tag_292:\n        /* \"#utility.yul\":11530:11604   */\n      swap2\n      pop\n        /* \"#utility.yul\":11613:11706   */\n      tag_293\n        /* \"#utility.yul\":11702:11705   */\n      dup3\n        /* \"#utility.yul\":11613:11706   */\n      tag_169\n      jump\t// in\n    tag_293:\n        /* \"#utility.yul\":11731:11733   */\n      0x20\n        /* \"#utility.yul\":11726:11729   */\n      dup3\n        /* \"#utility.yul\":11722:11734   */\n      add\n        /* \"#utility.yul\":11715:11734   */\n      swap1\n      pop\n        /* \"#utility.yul\":11374:11740   */\n      swap2\n      swap1\n      pop\n      jump\t// out\n        /* \"#utility.yul\":11746:12165   */\n    tag_96:\n        /* \"#utility.yul\":11912:11916   */\n      0x00\n        /* \"#utility.yul\":11950:11952   */\n      0x20\n        /* \"#utility.yul\":11939:11948   */\n      dup3\n        /* \"#utility.yul\":11935:11953   */\n      add\n        /* \"#utility.yul\":11927:11953   */\n      swap1\n      pop\n        /* \"#utility.yul\":11999:12008   */\n      dup2\n        /* \"#utility.yul\":11993:11997   */\n      dup2\n        /* \"#utility.yul\":11989:12009   */\n      sub\n        /* \"#utility.yul\":11985:11986   */\n      0x00\n        /* \"#utility.yul\":11974:11983   */\n      dup4\n        /* \"#utility.yul\":11970:11987   */\n      add\n        /* \"#utility.yul\":11963:12010   */\n      mstore\n        /* \"#utility.yul\":12027:12158   */\n      tag_295\n        /* \"#utility.yul\":12153:12157   */\n      dup2\n        /* \"#utility.yul\":12027:12158   */\n      tag_170\n      jump\t// in\n    tag_295:\n        /* \"#utility.yul\":12019:12158   */\n      swap1\n      pop\n        /* \"#utility.yul\":11746:12165   */\n      swap2\n      swap1\n      pop\n      jump\t// out\n        /* \"#utility.yul\":12171:12503   */\n    tag_103:\n        /* \"#utility.yul\":12292:12296   */\n      0x00\n        /* \"#utility.yul\":12330:12332   */\n      0x40\n        /* \"#utility.yul\":12319:12328   */\n      dup3\n        /* \"#utility.yul\":12315:12333   */\n      add\n        /* \"#utility.yul\":12307:12333   */\n      swap1\n      pop\n        /* \"#utility.yul\":12343:12414   */\n      tag_297\n        /* \"#utility.yul\":12411:12412   */\n      0x00\n        /* \"#utility.yul\":12400:12409   */\n      dup4\n        /* \"#utility.yul\":12396:12413   */\n      add\n        /* \"#utility.yul\":12387:12393   */\n      dup6\n        /* \"#utility.yul\":12343:12414   */\n      tag_156\n      jump\t// in\n    tag_297:\n        /* \"#utility.yul\":12424:12496   */\n      tag_298\n        /* \"#utility.yul\":12492:12494   */\n      0x20\n        /* \"#utility.yul\":12481:12490   */\n      dup4\n        /* \"#utility.yul\":12477:12495   */\n      add\n        /* \"#utility.yul\":12468:12474   */\n      dup5\n        /* \"#utility.yul\":12424:12496   */\n      tag_150\n      jump\t// in\n    tag_298:\n        /* \"#utility.yul\":12171:12503   */\n      swap4\n      swap3\n      pop\n      pop\n      pop\n      jump\t// out\n        /* \"#utility.yul\":12509:12599   */\n    tag_171:\n        /* \"#utility.yul\":12543:12550   */\n      0x00\n        /* \"#utility.yul\":12586:12591   */\n      dup2\n        /* \"#utility.yul\":12579:12592   */\n      iszero\n        /* \"#utility.yul\":12572:12593   */\n      iszero\n        /* \"#utility.yul\":12561:12593   */\n      swap1\n      pop\n        /* \"#utility.yul\":12509:12599   */\n      swap2\n      swap1\n      pop\n      jump\t// out\n        /* \"#utility.yul\":12605:12721   */\n    tag_172:\n        /* \"#utility.yul\":12675:12696   */\n      tag_301\n        /* \"#utility.yul\":12690:12695   */\n      dup2\n        /* \"#utility.yul\":12675:12696   */\n      tag_171\n      jump\t// in\n    tag_301:\n        /* \"#utility.yul\":12668:12673   */\n      dup2\n        /* \"#utility.yul\":12665:12697   */\n      eq\n        /* \"#utility.yul\":12655:12715   */\n      tag_302\n      jumpi\n        /* \"#utility.yul\":12711:12712   */\n      0x00\n        /* \"#utility.yul\":12708:12709   */\n      dup1\n        /* \"#utility.yul\":12701:12713   */\n      revert\n        /* \"#utility.yul\":12655:12715   */\n    tag_302:\n        /* \"#utility.yul\":12605:12721   */\n      pop\n      jump\t// out\n        /* \"#utility.yul\":12727:12864   */\n    tag_173:\n        /* \"#utility.yul\":12781:12786   */\n      0x00\n        /* \"#utility.yul\":12812:12818   */\n      dup2\n        /* \"#utility.yul\":12806:12819   */\n      mload\n        /* \"#utility.yul\":12797:12819   */\n      swap1\n      pop\n        /* \"#utility.yul\":12828:12858   */\n      tag_304\n        /* \"#utility.yul\":12852:12857   */\n      dup2\n        /* \"#utility.yul\":12828:12858   */\n      tag_172\n      jump\t// in\n    tag_304:\n        /* \"#utility.yul\":12727:12864   */\n      swap3\n      swap2\n      pop\n      pop\n      jump\t// out\n        /* \"#utility.yul\":12870:13215   */\n    tag_107:\n        /* \"#utility.yul\":12937:12943   */\n      0x00\n        /* \"#utility.yul\":12986:12988   */\n      0x20\n        /* \"#utility.yul\":12974:12983   */\n      dup3\n        /* \"#utility.yul\":12965:12972   */\n      dup5\n        /* \"#utility.yul\":12961:12984   */\n      sub\n        /* \"#utility.yul\":12957:12989   */\n      slt\n        /* \"#utility.yul\":12954:13073   */\n      iszero\n      tag_306\n      jumpi\n        /* \"#utility.yul\":12992:13071   */\n      tag_307\n      tag_136\n      jump\t// in\n    tag_307:\n        /* \"#utility.yul\":12954:13073   */\n    tag_306:\n        /* \"#utility.yul\":13112:13113   */\n      0x00\n        /* \"#utility.yul\":13137:13198   */\n      tag_308\n        /* \"#utility.yul\":13190:13197   */\n      dup5\n        /* \"#utility.yul\":13181:13187   */\n      dup3\n        /* \"#utility.yul\":13170:13179   */\n      dup6\n        /* \"#utility.yul\":13166:13188   */\n      add\n        /* \"#utility.yul\":13137:13198   */\n      tag_173\n      jump\t// in\n    tag_308:\n        /* \"#utility.yul\":13127:13198   */\n      swap2\n      pop\n        /* \"#utility.yul\":13083:13208   */\n      pop\n        /* \"#utility.yul\":12870:13215   */\n      swap3\n      swap2\n      pop\n      pop\n      jump\t// out\n        /* \"#utility.yul\":13221:13553   */\n    tag_109:\n        /* \"#utility.yul\":13342:13346   */\n      0x00\n        /* \"#utility.yul\":13380:13382   */\n      0x40\n        /* \"#utility.yul\":13369:13378   */\n      dup3\n        /* \"#utility.yul\":13365:13383   */\n      add\n        /* \"#utility.yul\":13357:13383   */\n      swap1\n      pop\n        /* \"#utility.yul\":13393:13464   */\n      tag_310\n        /* \"#utility.yul\":13461:13462   */\n      0x00\n        /* \"#utility.yul\":13450:13459   */\n      dup4\n        /* \"#utility.yul\":13446:13463   */\n      add\n        /* \"#utility.yul\":13437:13443   */\n      dup6\n        /* \"#utility.yul\":13393:13464   */\n      tag_150\n      jump\t// in\n    tag_310:\n        /* \"#utility.yul\":13474:13546   */\n      tag_311\n        /* \"#utility.yul\":13542:13544   */\n      0x20\n        /* \"#utility.yul\":13531:13540   */\n      dup4\n        /* \"#utility.yul\":13527:13545   */\n      add\n        /* \"#utility.yul\":13518:13524   */\n      dup5\n        /* \"#utility.yul\":13474:13546   */\n      tag_156\n      jump\t// in\n    tag_311:\n        /* \"#utility.yul\":13221:13553   */\n      swap4\n      swap3\n      pop\n      pop\n      pop\n      jump\t// out\n        /* \"#utility.yul\":13559:13730   */\n    tag_174:\n        /* \"#utility.yul\":13699:13722   */\n      0x4d6f7270686f204465706f736974206661696c65640000000000000000000000\n        /* \"#utility.yul\":13695:13696   */\n      0x00\n        /* \"#utility.yul\":13687:13693   */\n      dup3\n        /* \"#utility.yul\":13683:13697   */\n      add\n        /* \"#utility.yul\":13676:13723   */\n      mstore\n        /* \"#utility.yul\":13559:13730   */\n      pop\n      jump\t// out\n        /* \"#utility.yul\":13736:14102   */\n    tag_175:\n        /* \"#utility.yul\":13878:13881   */\n      0x00\n        /* \"#utility.yul\":13899:13966   */\n      tag_314\n        /* \"#utility.yul\":13963:13965   */\n      0x15\n        /* \"#utility.yul\":13958:13961   */\n      dup4\n        /* \"#utility.yul\":13899:13966   */\n      tag_161\n      jump\t// in\n    tag_314:\n        /* \"#utility.yul\":13892:13966   */\n      swap2\n      pop\n        /* \"#utility.yul\":13975:14068   */\n      tag_315\n        /* \"#utility.yul\":14064:14067   */\n      dup3\n        /* \"#utility.yul\":13975:14068   */\n      tag_174\n      jump\t// in\n    tag_315:\n        /* \"#utility.yul\":14093:14095   */\n      0x20\n        /* \"#utility.yul\":14088:14091   */\n      dup3\n        /* \"#utility.yul\":14084:14096   */\n      add\n        /* \"#utility.yul\":14077:14096   */\n      swap1\n      pop\n        /* \"#utility.yul\":13736:14102   */\n      swap2\n      swap1\n      pop\n      jump\t// out\n        /* \"#utility.yul\":14108:14527   */\n    tag_115:\n        /* \"#utility.yul\":14274:14278   */\n      0x00\n        /* \"#utility.yul\":14312:14314   */\n      0x20\n        /* \"#utility.yul\":14301:14310   */\n      dup3\n        /* \"#utility.yul\":14297:14315   */\n      add\n        /* \"#utility.yul\":14289:14315   */\n      swap1\n      pop\n        /* \"#utility.yul\":14361:14370   */\n      dup2\n        /* \"#utility.yul\":14355:14359   */\n      dup2\n        /* \"#utility.yul\":14351:14371   */\n      sub\n        /* \"#utility.yul\":14347:14348   */\n      0x00\n        /* \"#utility.yul\":14336:14345   */\n      dup4\n        /* \"#utility.yul\":14332:14349   */\n      add\n        /* \"#utility.yul\":14325:14372   */\n      mstore\n        /* \"#utility.yul\":14389:14520   */\n      tag_317\n        /* \"#utility.yul\":14515:14519   */\n      dup2\n        /* \"#utility.yul\":14389:14520   */\n      tag_175\n      jump\t// in\n    tag_317:\n        /* \"#utility.yul\":14381:14520   */\n      swap1\n      pop\n        /* \"#utility.yul\":14108:14527   */\n      swap2\n      swap1\n      pop\n      jump\t// out\n        /* \"#utility.yul\":14533:14713   */\n    tag_176:\n        /* \"#utility.yul\":14581:14658   */\n      0x4e487b7100000000000000000000000000000000000000000000000000000000\n        /* \"#utility.yul\":14578:14579   */\n      0x00\n        /* \"#utility.yul\":14571:14659   */\n      mstore\n        /* \"#utility.yul\":14678:14682   */\n      0x11\n        /* \"#utility.yul\":14675:14676   */\n      0x04\n        /* \"#utility.yul\":14668:14683   */\n      mstore\n        /* \"#utility.yul\":14702:14706   */\n      0x24\n        /* \"#utility.yul\":14699:14700   */\n      0x00\n        /* \"#utility.yul\":14692:14707   */\n      revert\n        /* \"#utility.yul\":14719:14910   */\n    tag_117:\n        /* \"#utility.yul\":14759:14762   */\n      0x00\n        /* \"#utility.yul\":14778:14798   */\n      tag_320\n        /* \"#utility.yul\":14796:14797   */\n      dup3\n        /* \"#utility.yul\":14778:14798   */\n      tag_149\n      jump\t// in\n    tag_320:\n        /* \"#utility.yul\":14773:14798   */\n      swap2\n      pop\n        /* \"#utility.yul\":14812:14832   */\n      tag_321\n        /* \"#utility.yul\":14830:14831   */\n      dup4\n        /* \"#utility.yul\":14812:14832   */\n      tag_149\n      jump\t// in\n    tag_321:\n        /* \"#utility.yul\":14807:14832   */\n      swap3\n      pop\n        /* \"#utility.yul\":14855:14856   */\n      dup3\n        /* \"#utility.yul\":14852:14853   */\n      dup3\n        /* \"#utility.yul\":14848:14857   */\n      add\n        /* \"#utility.yul\":14841:14857   */\n      swap1\n      pop\n        /* \"#utility.yul\":14876:14879   */\n      dup1\n        /* \"#utility.yul\":14873:14874   */\n      dup3\n        /* \"#utility.yul\":14870:14880   */\n      gt\n        /* \"#utility.yul\":14867:14903   */\n      iszero\n      tag_322\n      jumpi\n        /* \"#utility.yul\":14883:14901   */\n      tag_323\n      tag_176\n      jump\t// in\n    tag_323:\n        /* \"#utility.yul\":14867:14903   */\n    tag_322:\n        /* \"#utility.yul\":14719:14910   */\n      swap3\n      swap2\n      pop\n      pop\n      jump\t// out\n        /* \"#utility.yul\":14916:15145   */\n    tag_177:\n        /* \"#utility.yul\":15056:15090   */\n      0x5361666545524332303a204552433230206f7065726174696f6e20646964206e\n        /* \"#utility.yul\":15052:15053   */\n      0x00\n        /* \"#utility.yul\":15044:15050   */\n      dup3\n        /* \"#utility.yul\":15040:15054   */\n      add\n        /* \"#utility.yul\":15033:15091   */\n      mstore\n        /* \"#utility.yul\":15125:15137   */\n      0x6f74207375636365656400000000000000000000000000000000000000000000\n        /* \"#utility.yul\":15120:15122   */\n      0x20\n        /* \"#utility.yul\":15112:15118   */\n      dup3\n        /* \"#utility.yul\":15108:15123   */\n      add\n        /* \"#utility.yul\":15101:15138   */\n      mstore\n        /* \"#utility.yul\":14916:15145   */\n      pop\n      jump\t// out\n        /* \"#utility.yul\":15151:15517   */\n    tag_178:\n        /* \"#utility.yul\":15293:15296   */\n      0x00\n        /* \"#utility.yul\":15314:15381   */\n      tag_326\n        /* \"#utility.yul\":15378:15380   */\n      0x2a\n        /* \"#utility.yul\":15373:15376   */\n      dup4\n        /* \"#utility.yul\":15314:15381   */\n      tag_161\n      jump\t// in\n    tag_326:\n        /* \"#utility.yul\":15307:15381   */\n      swap2\n      pop\n        /* \"#utility.yul\":15390:15483   */\n      tag_327\n        /* \"#utility.yul\":15479:15482   */\n      dup3\n        /* \"#utility.yul\":15390:15483   */\n      tag_177\n      jump\t// in\n    tag_327:\n        /* \"#utility.yul\":15508:15510   */\n      0x40\n        /* \"#utility.yul\":15503:15506   */\n      dup3\n        /* \"#utility.yul\":15499:15511   */\n      add\n        /* \"#utility.yul\":15492:15511   */\n      swap1\n      pop\n        /* \"#utility.yul\":15151:15517   */\n      swap2\n      swap1\n      pop\n      jump\t// out\n        /* \"#utility.yul\":15523:15942   */\n    tag_126:\n        /* \"#utility.yul\":15689:15693   */\n      0x00\n        /* \"#utility.yul\":15727:15729   */\n      0x20\n        /* \"#utility.yul\":15716:15725   */\n      dup3\n        /* \"#utility.yul\":15712:15730   */\n      add\n        /* \"#utility.yul\":15704:15730   */\n      swap1\n      pop\n        /* \"#utility.yul\":15776:15785   */\n      dup2\n        /* \"#utility.yul\":15770:15774   */\n      dup2\n        /* \"#utility.yul\":15766:15786   */\n      sub\n        /* \"#utility.yul\":15762:15763   */\n      0x00\n        /* \"#utility.yul\":15751:15760   */\n      dup4\n        /* \"#utility.yul\":15747:15764   */\n      add\n        /* \"#utility.yul\":15740:15787   */\n      mstore\n        /* \"#utility.yul\":15804:15935   */\n      tag_329\n        /* \"#utility.yul\":15930:15934   */\n      dup2\n        /* \"#utility.yul\":15804:15935   */\n      tag_178\n      jump\t// in\n    tag_329:\n        /* \"#utility.yul\":15796:15935   */\n      swap1\n      pop\n        /* \"#utility.yul\":15523:15942   */\n      swap2\n      swap1\n      pop\n      jump\t// out\n        /* \"#utility.yul\":15948:16390   */\n    tag_129:\n        /* \"#utility.yul\":16097:16101   */\n      0x00\n        /* \"#utility.yul\":16135:16137   */\n      0x60\n        /* \"#utility.yul\":16124:16133   */\n      dup3\n        /* \"#utility.yul\":16120:16138   */\n      add\n        /* \"#utility.yul\":16112:16138   */\n      swap1\n      pop\n        /* \"#utility.yul\":16148:16219   */\n      tag_331\n        /* \"#utility.yul\":16216:16217   */\n      0x00\n        /* \"#utility.yul\":16205:16214   */\n      dup4\n        /* \"#utility.yul\":16201:16218   */\n      add\n        /* \"#utility.yul\":16192:16198   */\n      dup7\n        /* \"#utility.yul\":16148:16219   */\n      tag_156\n      jump\t// in\n    tag_331:\n        /* \"#utility.yul\":16229:16301   */\n      tag_332\n        /* \"#utility.yul\":16297:16299   */\n      0x20\n        /* \"#utility.yul\":16286:16295   */\n      dup4\n        /* \"#utility.yul\":16282:16300   */\n      add\n        /* \"#utility.yul\":16273:16279   */\n      dup6\n        /* \"#utility.yul\":16229:16301   */\n      tag_156\n      jump\t// in\n    tag_332:\n        /* \"#utility.yul\":16311:16383   */\n      tag_333\n        /* \"#utility.yul\":16379:16381   */\n      0x40\n        /* \"#utility.yul\":16368:16377   */\n      dup4\n        /* \"#utility.yul\":16364:16382   */\n      add\n        /* \"#utility.yul\":16355:16361   */\n      dup5\n        /* \"#utility.yul\":16311:16383   */\n      tag_150\n      jump\t// in\n    tag_333:\n        /* \"#utility.yul\":15948:16390   */\n      swap5\n      swap4\n      pop\n      pop\n      pop\n      pop\n      jump\t// out\n\n    auxdata: 0xa26469706673582212202fd2558d687d0444b9bffab6ec2a451d1a09cf77016797505d7d715c491dce5964736f6c63430008140033\n}\n",
				"bytecode": {
					"linkReferences": {},
					"object": "608060405234801561000f575f80fd5b5033805f806101000a81548173ffffffffffffffffffffffffffffffffffffffff021916908373ffffffffffffffffffffffffffffffffffffffff160217905550506001808190555061158a806100655f395ff3fe608060405234801561000f575f80fd5b506004361061009c575f3560e01c80638da5cb5b116100645780638da5cb5b14610146578063a87430ba14610164578063d12eb0a314610196578063dabeaecf146101c6578063f89ec5f5146101e25761009c565b806323544748146100a057806344051053146100aa5780634ef8ff33146100da5780635ae80951146100f857806389a3027114610128575b5f80fd5b6100a8610200565b005b6100c460048036038101906100bf9190610e14565b610458565b6040516100d19190610ef6565b60405180910390f35b6100e2610520565b6040516100ef9190610f2e565b60405180910390f35b610112600480360381019061010d9190610e14565b610527565b60405161011f9190610f2e565b60405180910390f35b6101306105fb565b60405161013d9190610fa2565b60405180910390f35b61014e610613565b60405161015b9190610fca565b60405180910390f35b61017e60048036038101906101799190610e14565b61063a565b60405161018d93929190610fe3565b60405180910390f35b6101b060048036038101906101ab9190611042565b61067f565b6040516101bd9190610fca565b60405180910390f35b6101e060048036038101906101db9190611080565b6106c7565b005b6101ea610c1d565b6040516101f791906110de565b60405180910390f35b600260015403610245576040517f08c379a000000000000000000000000000000000000000000000000000000000815260040161023c90611151565b60405180910390fd5b60026001819055505f60025f3373ffffffffffffffffffffffffffffffffffffffff1673ffffffffffffffffffffffffffffffffffffffff1681526020019081526020015f2090505f8160010154116102d3576040517f08c379a00000000000000000000000000000000000000000000000000000000081526004016102ca906111b9565b60405180910390fd5b5f816001015490505f82600101819055505f825f0181905550731686616428c04907ab37a8987b7a97260714e29073ffffffffffffffffffffffffffffffffffffffff1663ba0876528230306040518463ffffffff1660e01b815260040161033d939291906111d7565b6020604051808303815f875af1158015610359573d5f803e3d5ffd5b505050506040513d601f19601f8201168201806040525081019061037d9190611220565b505f73833589fcd6edb6e08f4c7c32d4f71b54bda0291373ffffffffffffffffffffffffffffffffffffffff166370a08231306040518263ffffffff1660e01b81526004016103cc9190610fca565b602060405180830381865afa1580156103e7573d5f803e3d5ffd5b505050506040513d601f19601f8201168201806040525081019061040b9190611220565b905061044c338273833589fcd6edb6e08f4c7c32d4f71b54bda0291373ffffffffffffffffffffffffffffffffffffffff16610c359092919063ffffffff16565b50505060018081905550565b606060035f8373ffffffffffffffffffffffffffffffffffffffff1673ffffffffffffffffffffffffffffffffffffffff1681526020019081526020015f2080548060200260200160405190810160405280929190818152602001828054801561051457602002820191905f5260205f20905b815f9054906101000a900473ffffffffffffffffffffffffffffffffffffffff1673ffffffffffffffffffffffffffffffffffffffff16815260200190600101908083116104cb575b50505050509050919050565b6298968081565b5f731686616428c04907ab37a8987b7a97260714e29073ffffffffffffffffffffffffffffffffffffffff166307a2d13a60025f8573ffffffffffffffffffffffffffffffffffffffff1673ffffffffffffffffffffffffffffffffffffffff1681526020019081526020015f20600101546040518263ffffffff1660e01b81526004016105b59190610f2e565b602060405180830381865afa1580156105d0573d5f803e3d5ffd5b505050506040513d601f19601f820116820180604052508101906105f49190611220565b9050919050565b73833589fcd6edb6e08f4c7c32d4f71b54bda0291381565b5f805f9054906101000a900473ffffffffffffffffffffffffffffffffffffffff16905090565b6002602052805f5260405f205f91509050805f015490806001015490806002015f9054906101000a900473ffffffffffffffffffffffffffffffffffffffff16905083565b6003602052815f5260405f208181548110610698575f80fd5b905f5260205f20015f915091509054906101000a900473ffffffffffffffffffffffffffffffffffffffff1681565b60026001540361070c576040517f08c379a000000000000000000000000000000000000000000000000000000000815260040161070390611151565b60405180910390fd5b60026001819055506298968082101561075a576040517f08c379a000000000000000000000000000000000000000000000000000000000815260040161075190611295565b60405180910390fd5b3373ffffffffffffffffffffffffffffffffffffffff168173ffffffffffffffffffffffffffffffffffffffff16036107c8576040517f08c379a00000000000000000000000000000000000000000000000000000000081526004016107bf906112fd565b60405180910390fd5b5f73ffffffffffffffffffffffffffffffffffffffff1660025f3373ffffffffffffffffffffffffffffffffffffffff1673ffffffffffffffffffffffffffffffffffffffff1681526020019081526020015f206002015f9054906101000a900473ffffffffffffffffffffffffffffffffffffffff1673ffffffffffffffffffffffffffffffffffffffff1614801561088e57505f73ffffffffffffffffffffffffffffffffffffffff168173ffffffffffffffffffffffffffffffffffffffff1614155b156109ad578060025f3373ffffffffffffffffffffffffffffffffffffffff1673ffffffffffffffffffffffffffffffffffffffff1681526020019081526020015f206002015f6101000a81548173ffffffffffffffffffffffffffffffffffffffff021916908373ffffffffffffffffffffffffffffffffffffffff16021790555060035f8273ffffffffffffffffffffffffffffffffffffffff1673ffffffffffffffffffffffffffffffffffffffff1681526020019081526020015f2033908060018154018082558091505060019003905f5260205f20015f9091909190916101000a81548173ffffffffffffffffffffffffffffffffffffffff021916908373ffffffffffffffffffffffffffffffffffffffff1602179055505b6109ee33308473833589fcd6edb6e08f4c7c32d4f71b54bda0291373ffffffffffffffffffffffffffffffffffffffff16610cf4909392919063ffffffff16565b73833589fcd6edb6e08f4c7c32d4f71b54bda0291373ffffffffffffffffffffffffffffffffffffffff1663095ea7b3731686616428c04907ab37a8987b7a97260714e290846040518363ffffffff1660e01b8152600401610a5192919061131b565b6020604051808303815f875af1158015610a6d573d5f803e3d5ffd5b505050506040513d601f19601f82011682018060405250810190610a919190611377565b505f731686616428c04907ab37a8987b7a97260714e29073ffffffffffffffffffffffffffffffffffffffff16636e553f6584306040518363ffffffff1660e01b8152600401610ae29291906113a2565b6020604051808303815f875af1158015610afe573d5f803e3d5ffd5b505050506040513d601f19601f82011682018060405250810190610b229190611220565b90505f8111610b66576040517f08c379a0000000000000000000000000000000000000000000000000000000008152600401610b5d90611413565b60405180910390fd5b8260025f3373ffffffffffffffffffffffffffffffffffffffff1673ffffffffffffffffffffffffffffffffffffffff1681526020019081526020015f205f015f828254610bb4919061145e565b925050819055508060025f3373ffffffffffffffffffffffffffffffffffffffff1673ffffffffffffffffffffffffffffffffffffffff1681526020019081526020015f206001015f828254610c0a919061145e565b9250508190555050600180819055505050565b731686616428c04907ab37a8987b7a97260714e29081565b8273ffffffffffffffffffffffffffffffffffffffff1663a9059cbb83836040518363ffffffff1660e01b8152600401610c7092919061131b565b6020604051808303815f875af1158015610c8c573d5f803e3d5ffd5b505050506040513d601f19601f82011682018060405250810190610cb09190611377565b610cef576040517f08c379a0000000000000000000000000000000000000000000000000000000008152600401610ce690611501565b60405180910390fd5b505050565b8373ffffffffffffffffffffffffffffffffffffffff166323b872dd8484846040518463ffffffff1660e01b8152600401610d319392919061151f565b6020604051808303815f875af1158015610d4d573d5f803e3d5ffd5b505050506040513d601f19601f82011682018060405250810190610d719190611377565b610db0576040517f08c379a0000000000000000000000000000000000000000000000000000000008152600401610da790611501565b60405180910390fd5b50505050565b5f80fd5b5f73ffffffffffffffffffffffffffffffffffffffff82169050919050565b5f610de382610dba565b9050919050565b610df381610dd9565b8114610dfd575f80fd5b50565b5f81359050610e0e81610dea565b92915050565b5f60208284031215610e2957610e28610db6565b5b5f610e3684828501610e00565b91505092915050565b5f81519050919050565b5f82825260208201905092915050565b5f819050602082019050919050565b610e7181610dd9565b82525050565b5f610e828383610e68565b60208301905092915050565b5f602082019050919050565b5f610ea482610e3f565b610eae8185610e49565b9350610eb983610e59565b805f5b83811015610ee9578151610ed08882610e77565b9750610edb83610e8e565b925050600181019050610ebc565b5085935050505092915050565b5f6020820190508181035f830152610f0e8184610e9a565b905092915050565b5f819050919050565b610f2881610f16565b82525050565b5f602082019050610f415f830184610f1f565b92915050565b5f819050919050565b5f610f6a610f65610f6084610dba565b610f47565b610dba565b9050919050565b5f610f7b82610f50565b9050919050565b5f610f8c82610f71565b9050919050565b610f9c81610f82565b82525050565b5f602082019050610fb55f830184610f93565b92915050565b610fc481610dd9565b82525050565b5f602082019050610fdd5f830184610fbb565b92915050565b5f606082019050610ff65f830186610f1f565b6110036020830185610f1f565b6110106040830184610fbb565b949350505050565b61102181610f16565b811461102b575f80fd5b50565b5f8135905061103c81611018565b92915050565b5f806040838503121561105857611057610db6565b5b5f61106585828601610e00565b92505060206110768582860161102e565b9150509250929050565b5f806040838503121561109657611095610db6565b5b5f6110a38582860161102e565b92505060206110b485828601610e00565b9150509250929050565b5f6110c882610f71565b9050919050565b6110d8816110be565b82525050565b5f6020820190506110f15f8301846110cf565b92915050565b5f82825260208201905092915050565b7f5265656e7472616e637947756172643a207265656e7472616e742063616c6c005f82015250565b5f61113b601f836110f7565b915061114682611107565b602082019050919050565b5f6020820190508181035f8301526111688161112f565b9050919050565b7f4e6f2062616c616e6365000000000000000000000000000000000000000000005f82015250565b5f6111a3600a836110f7565b91506111ae8261116f565b602082019050919050565b5f6020820190508181035f8301526111d081611197565b9050919050565b5f6060820190506111ea5f830186610f1f565b6111f76020830185610fbb565b6112046040830184610fbb565b949350505050565b5f8151905061121a81611018565b92915050565b5f6020828403121561123557611234610db6565b5b5f6112428482850161120c565b91505092915050565b7f4d696e20313020555344430000000000000000000000000000000000000000005f82015250565b5f61127f600b836110f7565b915061128a8261124b565b602082019050919050565b5f6020820190508181035f8301526112ac81611273565b9050919050565b7f4e6f2073656c662d726566657272616c000000000000000000000000000000005f82015250565b5f6112e76010836110f7565b91506112f2826112b3565b602082019050919050565b5f6020820190508181035f830152611314816112db565b9050919050565b5f60408201905061132e5f830185610fbb565b61133b6020830184610f1f565b9392505050565b5f8115159050919050565b61135681611342565b8114611360575f80fd5b50565b5f815190506113718161134d565b92915050565b5f6020828403121561138c5761138b610db6565b5b5f61139984828501611363565b91505092915050565b5f6040820190506113b55f830185610f1f565b6113c26020830184610fbb565b9392505050565b7f4d6f7270686f204465706f736974206661696c656400000000000000000000005f82015250565b5f6113fd6015836110f7565b9150611408826113c9565b602082019050919050565b5f6020820190508181035f83015261142a816113f1565b9050919050565b7f4e487b71000000000000000000000000000000000000000000000000000000005f52601160045260245ffd5b5f61146882610f16565b915061147383610f16565b925082820190508082111561148b5761148a611431565b5b92915050565b7f5361666545524332303a204552433230206f7065726174696f6e20646964206e5f8201527f6f74207375636365656400000000000000000000000000000000000000000000602082015250565b5f6114eb602a836110f7565b91506114f682611491565b604082019050919050565b5f6020820190508181035f830152611518816114df565b9050919050565b5f6060820190506115325f830186610fbb565b61153f6020830185610fbb565b61154c6040830184610f1f565b94935050505056fea26469706673582212202fd2558d687d0444b9bffab6ec2a451d1a09cf77016797505d7d715c491dce5964736f6c63430008140033",
					"opcodes": "PUSH1 0x80 PUSH1 0x40 MSTORE CALLVALUE DUP1 ISZERO PUSH2 0xF JUMPI PUSH0 DUP1 REVERT JUMPDEST POP CALLER DUP1 PUSH0 DUP1 PUSH2 0x100 EXP DUP2 SLOAD DUP2 PUSH20 0xFFFFFFFFFFFFFFFFFFFFFFFFFFFFFFFFFFFFFFFF MUL NOT AND SWAP1 DUP4 PUSH20 0xFFFFFFFFFFFFFFFFFFFFFFFFFFFFFFFFFFFFFFFF AND MUL OR SWAP1 SSTORE POP POP PUSH1 0x1 DUP1 DUP2 SWAP1 SSTORE POP PUSH2 0x158A DUP1 PUSH2 0x65 PUSH0 CODECOPY PUSH0 RETURN INVALID PUSH1 0x80 PUSH1 0x40 MSTORE CALLVALUE DUP1 ISZERO PUSH2 0xF JUMPI PUSH0 DUP1 REVERT JUMPDEST POP PUSH1 0x4 CALLDATASIZE LT PUSH2 0x9C JUMPI PUSH0 CALLDATALOAD PUSH1 0xE0 SHR DUP1 PUSH4 0x8DA5CB5B GT PUSH2 0x64 JUMPI DUP1 PUSH4 0x8DA5CB5B EQ PUSH2 0x146 JUMPI DUP1 PUSH4 0xA87430BA EQ PUSH2 0x164 JUMPI DUP1 PUSH4 0xD12EB0A3 EQ PUSH2 0x196 JUMPI DUP1 PUSH4 0xDABEAECF EQ PUSH2 0x1C6 JUMPI DUP1 PUSH4 0xF89EC5F5 EQ PUSH2 0x1E2 JUMPI PUSH2 0x9C JUMP JUMPDEST DUP1 PUSH4 0x23544748 EQ PUSH2 0xA0 JUMPI DUP1 PUSH4 0x44051053 EQ PUSH2 0xAA JUMPI DUP1 PUSH4 0x4EF8FF33 EQ PUSH2 0xDA JUMPI DUP1 PUSH4 0x5AE80951 EQ PUSH2 0xF8 JUMPI DUP1 PUSH4 0x89A30271 EQ PUSH2 0x128 JUMPI JUMPDEST PUSH0 DUP1 REVERT JUMPDEST PUSH2 0xA8 PUSH2 0x200 JUMP JUMPDEST STOP JUMPDEST PUSH2 0xC4 PUSH1 0x4 DUP1 CALLDATASIZE SUB DUP2 ADD SWAP1 PUSH2 0xBF SWAP2 SWAP1 PUSH2 0xE14 JUMP JUMPDEST PUSH2 0x458 JUMP JUMPDEST PUSH1 0x40 MLOAD PUSH2 0xD1 SWAP2 SWAP1 PUSH2 0xEF6 JUMP JUMPDEST PUSH1 0x40 MLOAD DUP1 SWAP2 SUB SWAP1 RETURN JUMPDEST PUSH2 0xE2 PUSH2 0x520 JUMP JUMPDEST PUSH1 0x40 MLOAD PUSH2 0xEF SWAP2 SWAP1 PUSH2 0xF2E JUMP JUMPDEST PUSH1 0x40 MLOAD DUP1 SWAP2 SUB SWAP1 RETURN JUMPDEST PUSH2 0x112 PUSH1 0x4 DUP1 CALLDATASIZE SUB DUP2 ADD SWAP1 PUSH2 0x10D SWAP2 SWAP1 PUSH2 0xE14 JUMP JUMPDEST PUSH2 0x527 JUMP JUMPDEST PUSH1 0x40 MLOAD PUSH2 0x11F SWAP2 SWAP1 PUSH2 0xF2E JUMP JUMPDEST PUSH1 0x40 MLOAD DUP1 SWAP2 SUB SWAP1 RETURN JUMPDEST PUSH2 0x130 PUSH2 0x5FB JUMP JUMPDEST PUSH1 0x40 MLOAD PUSH2 0x13D SWAP2 SWAP1 PUSH2 0xFA2 JUMP JUMPDEST PUSH1 0x40 MLOAD DUP1 SWAP2 SUB SWAP1 RETURN JUMPDEST PUSH2 0x14E PUSH2 0x613 JUMP JUMPDEST PUSH1 0x40 MLOAD PUSH2 0x15B SWAP2 SWAP1 PUSH2 0xFCA JUMP JUMPDEST PUSH1 0x40 MLOAD DUP1 SWAP2 SUB SWAP1 RETURN JUMPDEST PUSH2 0x17E PUSH1 0x4 DUP1 CALLDATASIZE SUB DUP2 ADD SWAP1 PUSH2 0x179 SWAP2 SWAP1 PUSH2 0xE14 JUMP JUMPDEST PUSH2 0x63A JUMP JUMPDEST PUSH1 0x40 MLOAD PUSH2 0x18D SWAP4 SWAP3 SWAP2 SWAP1 PUSH2 0xFE3 JUMP JUMPDEST PUSH1 0x40 MLOAD DUP1 SWAP2 SUB SWAP1 RETURN JUMPDEST PUSH2 0x1B0 PUSH1 0x4 DUP1 CALLDATASIZE SUB DUP2 ADD SWAP1 PUSH2 0x1AB SWAP2 SWAP1 PUSH2 0x1042 JUMP JUMPDEST PUSH2 0x67F JUMP JUMPDEST PUSH1 0x40 MLOAD PUSH2 0x1BD SWAP2 SWAP1 PUSH2 0xFCA JUMP JUMPDEST PUSH1 0x40 MLOAD DUP1 SWAP2 SUB SWAP1 RETURN JUMPDEST PUSH2 0x1E0 PUSH1 0x4 DUP1 CALLDATASIZE SUB DUP2 ADD SWAP1 PUSH2 0x1DB SWAP2 SWAP1 PUSH2 0x1080 JUMP JUMPDEST PUSH2 0x6C7 JUMP JUMPDEST STOP JUMPDEST PUSH2 0x1EA PUSH2 0xC1D JUMP JUMPDEST PUSH1 0x40 MLOAD PUSH2 0x1F7 SWAP2 SWAP1 PUSH2 0x10DE JUMP JUMPDEST PUSH1 0x40 MLOAD DUP1 SWAP2 SUB SWAP1 RETURN JUMPDEST PUSH1 0x2 PUSH1 0x1 SLOAD SUB PUSH2 0x245 JUMPI PUSH1 0x40 MLOAD PUSH32 0x8C379A000000000000000000000000000000000000000000000000000000000 DUP2 MSTORE PUSH1 0x4 ADD PUSH2 0x23C SWAP1 PUSH2 0x1151 JUMP JUMPDEST PUSH1 0x40 MLOAD DUP1 SWAP2 SUB SWAP1 REVERT JUMPDEST PUSH1 0x2 PUSH1 0x1 DUP2 SWAP1 SSTORE POP PUSH0 PUSH1 0x2 PUSH0 CALLER PUSH20 0xFFFFFFFFFFFFFFFFFFFFFFFFFFFFFFFFFFFFFFFF AND PUSH20 0xFFFFFFFFFFFFFFFFFFFFFFFFFFFFFFFFFFFFFFFF AND DUP2 MSTORE PUSH1 0x20 ADD SWAP1 DUP2 MSTORE PUSH1 0x20 ADD PUSH0 KECCAK256 SWAP1 POP PUSH0 DUP2 PUSH1 0x1 ADD SLOAD GT PUSH2 0x2D3 JUMPI PUSH1 0x40 MLOAD PUSH32 0x8C379A000000000000000000000000000000000000000000000000000000000 DUP2 MSTORE PUSH1 0x4 ADD PUSH2 0x2CA SWAP1 PUSH2 0x11B9 JUMP JUMPDEST PUSH1 0x40 MLOAD DUP1 SWAP2 SUB SWAP1 REVERT JUMPDEST PUSH0 DUP2 PUSH1 0x1 ADD SLOAD SWAP1 POP PUSH0 DUP3 PUSH1 0x1 ADD DUP2 SWAP1 SSTORE POP PUSH0 DUP3 PUSH0 ADD DUP2 SWAP1 SSTORE POP PUSH20 0x1686616428C04907AB37A8987B7A97260714E290 PUSH20 0xFFFFFFFFFFFFFFFFFFFFFFFFFFFFFFFFFFFFFFFF AND PUSH4 0xBA087652 DUP3 ADDRESS ADDRESS PUSH1 0x40 MLOAD DUP5 PUSH4 0xFFFFFFFF AND PUSH1 0xE0 SHL DUP2 MSTORE PUSH1 0x4 ADD PUSH2 0x33D SWAP4 SWAP3 SWAP2 SWAP1 PUSH2 0x11D7 JUMP JUMPDEST PUSH1 0x20 PUSH1 0x40 MLOAD DUP1 DUP4 SUB DUP2 PUSH0 DUP8 GAS CALL ISZERO DUP1 ISZERO PUSH2 0x359 JUMPI RETURNDATASIZE PUSH0 DUP1 RETURNDATACOPY RETURNDATASIZE PUSH0 REVERT JUMPDEST POP POP POP POP PUSH1 0x40 MLOAD RETURNDATASIZE PUSH1 0x1F NOT PUSH1 0x1F DUP3 ADD AND DUP3 ADD DUP1 PUSH1 0x40 MSTORE POP DUP2 ADD SWAP1 PUSH2 0x37D SWAP2 SWAP1 PUSH2 0x1220 JUMP JUMPDEST POP PUSH0 PUSH20 0x833589FCD6EDB6E08F4C7C32D4F71B54BDA02913 PUSH20 0xFFFFFFFFFFFFFFFFFFFFFFFFFFFFFFFFFFFFFFFF AND PUSH4 0x70A08231 ADDRESS PUSH1 0x40 MLOAD DUP3 PUSH4 0xFFFFFFFF AND PUSH1 0xE0 SHL DUP2 MSTORE PUSH1 0x4 ADD PUSH2 0x3CC SWAP2 SWAP1 PUSH2 0xFCA JUMP JUMPDEST PUSH1 0x20 PUSH1 0x40 MLOAD DUP1 DUP4 SUB DUP2 DUP7 GAS STATICCALL ISZERO DUP1 ISZERO PUSH2 0x3E7 JUMPI RETURNDATASIZE PUSH0 DUP1 RETURNDATACOPY RETURNDATASIZE PUSH0 REVERT JUMPDEST POP POP POP POP PUSH1 0x40 MLOAD RETURNDATASIZE PUSH1 0x1F NOT PUSH1 0x1F DUP3 ADD AND DUP3 ADD DUP1 PUSH1 0x40 MSTORE POP DUP2 ADD SWAP1 PUSH2 0x40B SWAP2 SWAP1 PUSH2 0x1220 JUMP JUMPDEST SWAP1 POP PUSH2 0x44C CALLER DUP3 PUSH20 0x833589FCD6EDB6E08F4C7C32D4F71B54BDA02913 PUSH20 0xFFFFFFFFFFFFFFFFFFFFFFFFFFFFFFFFFFFFFFFF AND PUSH2 0xC35 SWAP1 SWAP3 SWAP2 SWAP1 PUSH4 0xFFFFFFFF AND JUMP JUMPDEST POP POP POP PUSH1 0x1 DUP1 DUP2 SWAP1 SSTORE POP JUMP JUMPDEST PUSH1 0x60 PUSH1 0x3 PUSH0 DUP4 PUSH20 0xFFFFFFFFFFFFFFFFFFFFFFFFFFFFFFFFFFFFFFFF AND PUSH20 0xFFFFFFFFFFFFFFFFFFFFFFFFFFFFFFFFFFFFFFFF AND DUP2 MSTORE PUSH1 0x20 ADD SWAP1 DUP2 MSTORE PUSH1 0x20 ADD PUSH0 KECCAK256 DUP1 SLOAD DUP1 PUSH1 0x20 MUL PUSH1 0x20 ADD PUSH1 0x40 MLOAD SWAP1 DUP2 ADD PUSH1 0x40 MSTORE DUP1 SWAP3 SWAP2 SWAP1 DUP2 DUP2 MSTORE PUSH1 0x20 ADD DUP3 DUP1 SLOAD DUP1 ISZERO PUSH2 0x514 JUMPI PUSH1 0x20 MUL DUP3 ADD SWAP2 SWAP1 PUSH0 MSTORE PUSH1 0x20 PUSH0 KECCAK256 SWAP1 JUMPDEST DUP2 PUSH0 SWAP1 SLOAD SWAP1 PUSH2 0x100 EXP SWAP1 DIV PUSH20 0xFFFFFFFFFFFFFFFFFFFFFFFFFFFFFFFFFFFFFFFF AND PUSH20 0xFFFFFFFFFFFFFFFFFFFFFFFFFFFFFFFFFFFFFFFF AND DUP2 MSTORE PUSH1 0x20 ADD SWAP1 PUSH1 0x1 ADD SWAP1 DUP1 DUP4 GT PUSH2 0x4CB JUMPI JUMPDEST POP POP POP POP POP SWAP1 POP SWAP2 SWAP1 POP JUMP JUMPDEST PUSH3 0x989680 DUP2 JUMP JUMPDEST PUSH0 PUSH20 0x1686616428C04907AB37A8987B7A97260714E290 PUSH20 0xFFFFFFFFFFFFFFFFFFFFFFFFFFFFFFFFFFFFFFFF AND PUSH4 0x7A2D13A PUSH1 0x2 PUSH0 DUP6 PUSH20 0xFFFFFFFFFFFFFFFFFFFFFFFFFFFFFFFFFFFFFFFF AND PUSH20 0xFFFFFFFFFFFFFFFFFFFFFFFFFFFFFFFFFFFFFFFF AND DUP2 MSTORE PUSH1 0x20 ADD SWAP1 DUP2 MSTORE PUSH1 0x20 ADD PUSH0 KECCAK256 PUSH1 0x1 ADD SLOAD PUSH1 0x40 MLOAD DUP3 PUSH4 0xFFFFFFFF AND PUSH1 0xE0 SHL DUP2 MSTORE PUSH1 0x4 ADD PUSH2 0x5B5 SWAP2 SWAP1 PUSH2 0xF2E JUMP JUMPDEST PUSH1 0x20 PUSH1 0x40 MLOAD DUP1 DUP4 SUB DUP2 DUP7 GAS STATICCALL ISZERO DUP1 ISZERO PUSH2 0x5D0 JUMPI RETURNDATASIZE PUSH0 DUP1 RETURNDATACOPY RETURNDATASIZE PUSH0 REVERT JUMPDEST POP POP POP POP PUSH1 0x40 MLOAD RETURNDATASIZE PUSH1 0x1F NOT PUSH1 0x1F DUP3 ADD AND DUP3 ADD DUP1 PUSH1 0x40 MSTORE POP DUP2 ADD SWAP1 PUSH2 0x5F4 SWAP2 SWAP1 PUSH2 0x1220 JUMP JUMPDEST SWAP1 POP SWAP2 SWAP1 POP JUMP JUMPDEST PUSH20 0x833589FCD6EDB6E08F4C7C32D4F71B54BDA02913 DUP2 JUMP JUMPDEST PUSH0 DUP1 PUSH0 SWAP1 SLOAD SWAP1 PUSH2 0x100 EXP SWAP1 DIV PUSH20 0xFFFFFFFFFFFFFFFFFFFFFFFFFFFFFFFFFFFFFFFF AND SWAP1 POP SWAP1 JUMP JUMPDEST PUSH1 0x2 PUSH1 0x20 MSTORE DUP1 PUSH0 MSTORE PUSH1 0x40 PUSH0 KECCAK256 PUSH0 SWAP2 POP SWAP1 POP DUP1 PUSH0 ADD SLOAD SWAP1 DUP1 PUSH1 0x1 ADD SLOAD SWAP1 DUP1 PUSH1 0x2 ADD PUSH0 SWAP1 SLOAD SWAP1 PUSH2 0x100 EXP SWAP1 DIV PUSH20 0xFFFFFFFFFFFFFFFFFFFFFFFFFFFFFFFFFFFFFFFF AND SWAP1 POP DUP4 JUMP JUMPDEST PUSH1 0x3 PUSH1 0x20 MSTORE DUP2 PUSH0 MSTORE PUSH1 0x40 PUSH0 KECCAK256 DUP2 DUP2 SLOAD DUP2 LT PUSH2 0x698 JUMPI PUSH0 DUP1 REVERT JUMPDEST SWAP1 PUSH0 MSTORE PUSH1 0x20 PUSH0 KECCAK256 ADD PUSH0 SWAP2 POP SWAP2 POP SWAP1 SLOAD SWAP1 PUSH2 0x100 EXP SWAP1 DIV PUSH20 0xFFFFFFFFFFFFFFFFFFFFFFFFFFFFFFFFFFFFFFFF AND DUP2 JUMP JUMPDEST PUSH1 0x2 PUSH1 0x1 SLOAD SUB PUSH2 0x70C JUMPI PUSH1 0x40 MLOAD PUSH32 0x8C379A000000000000000000000000000000000000000000000000000000000 DUP2 MSTORE PUSH1 0x4 ADD PUSH2 0x703 SWAP1 PUSH2 0x1151 JUMP JUMPDEST PUSH1 0x40 MLOAD DUP1 SWAP2 SUB SWAP1 REVERT JUMPDEST PUSH1 0x2 PUSH1 0x1 DUP2 SWAP1 SSTORE POP PUSH3 0x989680 DUP3 LT ISZERO PUSH2 0x75A JUMPI PUSH1 0x40 MLOAD PUSH32 0x8C379A000000000000000000000000000000000000000000000000000000000 DUP2 MSTORE PUSH1 0x4 ADD PUSH2 0x751 SWAP1 PUSH2 0x1295 JUMP JUMPDEST PUSH1 0x40 MLOAD DUP1 SWAP2 SUB SWAP1 REVERT JUMPDEST CALLER PUSH20 0xFFFFFFFFFFFFFFFFFFFFFFFFFFFFFFFFFFFFFFFF AND DUP2 PUSH20 0xFFFFFFFFFFFFFFFFFFFFFFFFFFFFFFFFFFFFFFFF AND SUB PUSH2 0x7C8 JUMPI PUSH1 0x40 MLOAD PUSH32 0x8C379A000000000000000000000000000000000000000000000000000000000 DUP2 MSTORE PUSH1 0x4 ADD PUSH2 0x7BF SWAP1 PUSH2 0x12FD JUMP JUMPDEST PUSH1 0x40 MLOAD DUP1 SWAP2 SUB SWAP1 REVERT JUMPDEST PUSH0 PUSH20 0xFFFFFFFFFFFFFFFFFFFFFFFFFFFFFFFFFFFFFFFF AND PUSH1 0x2 PUSH0 CALLER PUSH20 0xFFFFFFFFFFFFFFFFFFFFFFFFFFFFFFFFFFFFFFFF AND PUSH20 0xFFFFFFFFFFFFFFFFFFFFFFFFFFFFFFFFFFFFFFFF AND DUP2 MSTORE PUSH1 0x20 ADD SWAP1 DUP2 MSTORE PUSH1 0x20 ADD PUSH0 KECCAK256 PUSH1 0x2 ADD PUSH0 SWAP1 SLOAD SWAP1 PUSH2 0x100 EXP SWAP1 DIV PUSH20 0xFFFFFFFFFFFFFFFFFFFFFFFFFFFFFFFFFFFFFFFF AND PUSH20 0xFFFFFFFFFFFFFFFFFFFFFFFFFFFFFFFFFFFFFFFF AND EQ DUP1 ISZERO PUSH2 0x88E JUMPI POP PUSH0 PUSH20 0xFFFFFFFFFFFFFFFFFFFFFFFFFFFFFFFFFFFFFFFF AND DUP2 PUSH20 0xFFFFFFFFFFFFFFFFFFFFFFFFFFFFFFFFFFFFFFFF AND EQ ISZERO JUMPDEST ISZERO PUSH2 0x9AD JUMPI DUP1 PUSH1 0x2 PUSH0 CALLER PUSH20 0xFFFFFFFFFFFFFFFFFFFFFFFFFFFFFFFFFFFFFFFF AND PUSH20 0xFFFFFFFFFFFFFFFFFFFFFFFFFFFFFFFFFFFFFFFF AND DUP2 MSTORE PUSH1 0x20 ADD SWAP1 DUP2 MSTORE PUSH1 0x20 ADD PUSH0 KECCAK256 PUSH1 0x2 ADD PUSH0 PUSH2 0x100 EXP DUP2 SLOAD DUP2 PUSH20 0xFFFFFFFFFFFFFFFFFFFFFFFFFFFFFFFFFFFFFFFF MUL NOT AND SWAP1 DUP4 PUSH20 0xFFFFFFFFFFFFFFFFFFFFFFFFFFFFFFFFFFFFFFFF AND MUL OR SWAP1 SSTORE POP PUSH1 0x3 PUSH0 DUP3 PUSH20 0xFFFFFFFFFFFFFFFFFFFFFFFFFFFFFFFFFFFFFFFF AND PUSH20 0xFFFFFFFFFFFFFFFFFFFFFFFFFFFFFFFFFFFFFFFF AND DUP2 MSTORE PUSH1 0x20 ADD SWAP1 DUP2 MSTORE PUSH1 0x20 ADD PUSH0 KECCAK256 CALLER SWAP1 DUP1 PUSH1 0x1 DUP2 SLOAD ADD DUP1 DUP3 SSTORE DUP1 SWAP2 POP POP PUSH1 0x1 SWAP1 SUB SWAP1 PUSH0 MSTORE PUSH1 0x20 PUSH0 KECCAK256 ADD PUSH0 SWAP1 SWAP2 SWAP1 SWAP2 SWAP1 SWAP2 PUSH2 0x100 EXP DUP2 SLOAD DUP2 PUSH20 0xFFFFFFFFFFFFFFFFFFFFFFFFFFFFFFFFFFFFFFFF MUL NOT AND SWAP1 DUP4 PUSH20 0xFFFFFFFFFFFFFFFFFFFFFFFFFFFFFFFFFFFFFFFF AND MUL OR SWAP1 SSTORE POP JUMPDEST PUSH2 0x9EE CALLER ADDRESS DUP5 PUSH20 0x833589FCD6EDB6E08F4C7C32D4F71B54BDA02913 PUSH20 0xFFFFFFFFFFFFFFFFFFFFFFFFFFFFFFFFFFFFFFFF AND PUSH2 0xCF4 SWAP1 SWAP4 SWAP3 SWAP2 SWAP1 PUSH4 0xFFFFFFFF AND JUMP JUMPDEST PUSH20 0x833589FCD6EDB6E08F4C7C32D4F71B54BDA02913 PUSH20 0xFFFFFFFFFFFFFFFFFFFFFFFFFFFFFFFFFFFFFFFF AND PUSH4 0x95EA7B3 PUSH20 0x1686616428C04907AB37A8987B7A97260714E290 DUP5 PUSH1 0x40 MLOAD DUP4 PUSH4 0xFFFFFFFF AND PUSH1 0xE0 SHL DUP2 MSTORE PUSH1 0x4 ADD PUSH2 0xA51 SWAP3 SWAP2 SWAP1 PUSH2 0x131B JUMP JUMPDEST PUSH1 0x20 PUSH1 0x40 MLOAD DUP1 DUP4 SUB DUP2 PUSH0 DUP8 GAS CALL ISZERO DUP1 ISZERO PUSH2 0xA6D JUMPI RETURNDATASIZE PUSH0 DUP1 RETURNDATACOPY RETURNDATASIZE PUSH0 REVERT JUMPDEST POP POP POP POP PUSH1 0x40 MLOAD RETURNDATASIZE PUSH1 0x1F NOT PUSH1 0x1F DUP3 ADD AND DUP3 ADD DUP1 PUSH1 0x40 MSTORE POP DUP2 ADD SWAP1 PUSH2 0xA91 SWAP2 SWAP1 PUSH2 0x1377 JUMP JUMPDEST POP PUSH0 PUSH20 0x1686616428C04907AB37A8987B7A97260714E290 PUSH20 0xFFFFFFFFFFFFFFFFFFFFFFFFFFFFFFFFFFFFFFFF AND PUSH4 0x6E553F65 DUP5 ADDRESS PUSH1 0x40 MLOAD DUP4 PUSH4 0xFFFFFFFF AND PUSH1 0xE0 SHL DUP2 MSTORE PUSH1 0x4 ADD PUSH2 0xAE2 SWAP3 SWAP2 SWAP1 PUSH2 0x13A2 JUMP JUMPDEST PUSH1 0x20 PUSH1 0x40 MLOAD DUP1 DUP4 SUB DUP2 PUSH0 DUP8 GAS CALL ISZERO DUP1 ISZERO PUSH2 0xAFE JUMPI RETURNDATASIZE PUSH0 DUP1 RETURNDATACOPY RETURNDATASIZE PUSH0 REVERT JUMPDEST POP POP POP POP PUSH1 0x40 MLOAD RETURNDATASIZE PUSH1 0x1F NOT PUSH1 0x1F DUP3 ADD AND DUP3 ADD DUP1 PUSH1 0x40 MSTORE POP DUP2 ADD SWAP1 PUSH2 0xB22 SWAP2 SWAP1 PUSH2 0x1220 JUMP JUMPDEST SWAP1 POP PUSH0 DUP2 GT PUSH2 0xB66 JUMPI PUSH1 0x40 MLOAD PUSH32 0x8C379A000000000000000000000000000000000000000000000000000000000 DUP2 MSTORE PUSH1 0x4 ADD PUSH2 0xB5D SWAP1 PUSH2 0x1413 JUMP JUMPDEST PUSH1 0x40 MLOAD DUP1 SWAP2 SUB SWAP1 REVERT JUMPDEST DUP3 PUSH1 0x2 PUSH0 CALLER PUSH20 0xFFFFFFFFFFFFFFFFFFFFFFFFFFFFFFFFFFFFFFFF AND PUSH20 0xFFFFFFFFFFFFFFFFFFFFFFFFFFFFFFFFFFFFFFFF AND DUP2 MSTORE PUSH1 0x20 ADD SWAP1 DUP2 MSTORE PUSH1 0x20 ADD PUSH0 KECCAK256 PUSH0 ADD PUSH0 DUP3 DUP3 SLOAD PUSH2 0xBB4 SWAP2 SWAP1 PUSH2 0x145E JUMP JUMPDEST SWAP3 POP POP DUP2 SWAP1 SSTORE POP DUP1 PUSH1 0x2 PUSH0 CALLER PUSH20 0xFFFFFFFFFFFFFFFFFFFFFFFFFFFFFFFFFFFFFFFF AND PUSH20 0xFFFFFFFFFFFFFFFFFFFFFFFFFFFFFFFFFFFFFFFF AND DUP2 MSTORE PUSH1 0x20 ADD SWAP1 DUP2 MSTORE PUSH1 0x20 ADD PUSH0 KECCAK256 PUSH1 0x1 ADD PUSH0 DUP3 DUP3 SLOAD PUSH2 0xC0A SWAP2 SWAP1 PUSH2 0x145E JUMP JUMPDEST SWAP3 POP POP DUP2 SWAP1 SSTORE POP POP PUSH1 0x1 DUP1 DUP2 SWAP1 SSTORE POP POP POP JUMP JUMPDEST PUSH20 0x1686616428C04907AB37A8987B7A97260714E290 DUP2 JUMP JUMPDEST DUP3 PUSH20 0xFFFFFFFFFFFFFFFFFFFFFFFFFFFFFFFFFFFFFFFF AND PUSH4 0xA9059CBB DUP4 DUP4 PUSH1 0x40 MLOAD DUP4 PUSH4 0xFFFFFFFF AND PUSH1 0xE0 SHL DUP2 MSTORE PUSH1 0x4 ADD PUSH2 0xC70 SWAP3 SWAP2 SWAP1 PUSH2 0x131B JUMP JUMPDEST PUSH1 0x20 PUSH1 0x40 MLOAD DUP1 DUP4 SUB DUP2 PUSH0 DUP8 GAS CALL ISZERO DUP1 ISZERO PUSH2 0xC8C JUMPI RETURNDATASIZE PUSH0 DUP1 RETURNDATACOPY RETURNDATASIZE PUSH0 REVERT JUMPDEST POP POP POP POP PUSH1 0x40 MLOAD RETURNDATASIZE PUSH1 0x1F NOT PUSH1 0x1F DUP3 ADD AND DUP3 ADD DUP1 PUSH1 0x40 MSTORE POP DUP2 ADD SWAP1 PUSH2 0xCB0 SWAP2 SWAP1 PUSH2 0x1377 JUMP JUMPDEST PUSH2 0xCEF JUMPI PUSH1 0x40 MLOAD PUSH32 0x8C379A000000000000000000000000000000000000000000000000000000000 DUP2 MSTORE PUSH1 0x4 ADD PUSH2 0xCE6 SWAP1 PUSH2 0x1501 JUMP JUMPDEST PUSH1 0x40 MLOAD DUP1 SWAP2 SUB SWAP1 REVERT JUMPDEST POP POP POP JUMP JUMPDEST DUP4 PUSH20 0xFFFFFFFFFFFFFFFFFFFFFFFFFFFFFFFFFFFFFFFF AND PUSH4 0x23B872DD DUP5 DUP5 DUP5 PUSH1 0x40 MLOAD DUP5 PUSH4 0xFFFFFFFF AND PUSH1 0xE0 SHL DUP2 MSTORE PUSH1 0x4 ADD PUSH2 0xD31 SWAP4 SWAP3 SWAP2 SWAP1 PUSH2 0x151F JUMP JUMPDEST PUSH1 0x20 PUSH1 0x40 MLOAD DUP1 DUP4 SUB DUP2 PUSH0 DUP8 GAS CALL ISZERO DUP1 ISZERO PUSH2 0xD4D JUMPI RETURNDATASIZE PUSH0 DUP1 RETURNDATACOPY RETURNDATASIZE PUSH0 REVERT JUMPDEST POP POP POP POP PUSH1 0x40 MLOAD RETURNDATASIZE PUSH1 0x1F NOT PUSH1 0x1F DUP3 ADD AND DUP3 ADD DUP1 PUSH1 0x40 MSTORE POP DUP2 ADD SWAP1 PUSH2 0xD71 SWAP2 SWAP1 PUSH2 0x1377 JUMP JUMPDEST PUSH2 0xDB0 JUMPI PUSH1 0x40 MLOAD PUSH32 0x8C379A000000000000000000000000000000000000000000000000000000000 DUP2 MSTORE PUSH1 0x4 ADD PUSH2 0xDA7 SWAP1 PUSH2 0x1501 JUMP JUMPDEST PUSH1 0x40 MLOAD DUP1 SWAP2 SUB SWAP1 REVERT JUMPDEST POP POP POP POP JUMP JUMPDEST PUSH0 DUP1 REVERT JUMPDEST PUSH0 PUSH20 0xFFFFFFFFFFFFFFFFFFFFFFFFFFFFFFFFFFFFFFFF DUP3 AND SWAP1 POP SWAP2 SWAP1 POP JUMP JUMPDEST PUSH0 PUSH2 0xDE3 DUP3 PUSH2 0xDBA JUMP JUMPDEST SWAP1 POP SWAP2 SWAP1 POP JUMP JUMPDEST PUSH2 0xDF3 DUP2 PUSH2 0xDD9 JUMP JUMPDEST DUP2 EQ PUSH2 0xDFD JUMPI PUSH0 DUP1 REVERT JUMPDEST POP JUMP JUMPDEST PUSH0 DUP2 CALLDATALOAD SWAP1 POP PUSH2 0xE0E DUP2 PUSH2 0xDEA JUMP JUMPDEST SWAP3 SWAP2 POP POP JUMP JUMPDEST PUSH0 PUSH1 0x20 DUP3 DUP5 SUB SLT ISZERO PUSH2 0xE29 JUMPI PUSH2 0xE28 PUSH2 0xDB6 JUMP JUMPDEST JUMPDEST PUSH0 PUSH2 0xE36 DUP5 DUP3 DUP6 ADD PUSH2 0xE00 JUMP JUMPDEST SWAP2 POP POP SWAP3 SWAP2 POP POP JUMP JUMPDEST PUSH0 DUP2 MLOAD SWAP1 POP SWAP2 SWAP1 POP JUMP JUMPDEST PUSH0 DUP3 DUP3 MSTORE PUSH1 0x20 DUP3 ADD SWAP1 POP SWAP3 SWAP2 POP POP JUMP JUMPDEST PUSH0 DUP2 SWAP1 POP PUSH1 0x20 DUP3 ADD SWAP1 POP SWAP2 SWAP1 POP JUMP JUMPDEST PUSH2 0xE71 DUP2 PUSH2 0xDD9 JUMP JUMPDEST DUP3 MSTORE POP POP JUMP JUMPDEST PUSH0 PUSH2 0xE82 DUP4 DUP4 PUSH2 0xE68 JUMP JUMPDEST PUSH1 0x20 DUP4 ADD SWAP1 POP SWAP3 SWAP2 POP POP JUMP JUMPDEST PUSH0 PUSH1 0x20 DUP3 ADD SWAP1 POP SWAP2 SWAP1 POP JUMP JUMPDEST PUSH0 PUSH2 0xEA4 DUP3 PUSH2 0xE3F JUMP JUMPDEST PUSH2 0xEAE DUP2 DUP6 PUSH2 0xE49 JUMP JUMPDEST SWAP4 POP PUSH2 0xEB9 DUP4 PUSH2 0xE59 JUMP JUMPDEST DUP1 PUSH0 JUMPDEST DUP4 DUP2 LT ISZERO PUSH2 0xEE9 JUMPI DUP2 MLOAD PUSH2 0xED0 DUP9 DUP3 PUSH2 0xE77 JUMP JUMPDEST SWAP8 POP PUSH2 0xEDB DUP4 PUSH2 0xE8E JUMP JUMPDEST SWAP3 POP POP PUSH1 0x1 DUP2 ADD SWAP1 POP PUSH2 0xEBC JUMP JUMPDEST POP DUP6 SWAP4 POP POP POP POP SWAP3 SWAP2 POP POP JUMP JUMPDEST PUSH0 PUSH1 0x20 DUP3 ADD SWAP1 POP DUP2 DUP2 SUB PUSH0 DUP4 ADD MSTORE PUSH2 0xF0E DUP2 DUP5 PUSH2 0xE9A JUMP JUMPDEST SWAP1 POP SWAP3 SWAP2 POP POP JUMP JUMPDEST PUSH0 DUP2 SWAP1 POP SWAP2 SWAP1 POP JUMP JUMPDEST PUSH2 0xF28 DUP2 PUSH2 0xF16 JUMP JUMPDEST DUP3 MSTORE POP POP JUMP JUMPDEST PUSH0 PUSH1 0x20 DUP3 ADD SWAP1 POP PUSH2 0xF41 PUSH0 DUP4 ADD DUP5 PUSH2 0xF1F JUMP JUMPDEST SWAP3 SWAP2 POP POP JUMP JUMPDEST PUSH0 DUP2 SWAP1 POP SWAP2 SWAP1 POP JUMP JUMPDEST PUSH0 PUSH2 0xF6A PUSH2 0xF65 PUSH2 0xF60 DUP5 PUSH2 0xDBA JUMP JUMPDEST PUSH2 0xF47 JUMP JUMPDEST PUSH2 0xDBA JUMP JUMPDEST SWAP1 POP SWAP2 SWAP1 POP JUMP JUMPDEST PUSH0 PUSH2 0xF7B DUP3 PUSH2 0xF50 JUMP JUMPDEST SWAP1 POP SWAP2 SWAP1 POP JUMP JUMPDEST PUSH0 PUSH2 0xF8C DUP3 PUSH2 0xF71 JUMP JUMPDEST SWAP1 POP SWAP2 SWAP1 POP JUMP JUMPDEST PUSH2 0xF9C DUP2 PUSH2 0xF82 JUMP JUMPDEST DUP3 MSTORE POP POP JUMP JUMPDEST PUSH0 PUSH1 0x20 DUP3 ADD SWAP1 POP PUSH2 0xFB5 PUSH0 DUP4 ADD DUP5 PUSH2 0xF93 JUMP JUMPDEST SWAP3 SWAP2 POP POP JUMP JUMPDEST PUSH2 0xFC4 DUP2 PUSH2 0xDD9 JUMP JUMPDEST DUP3 MSTORE POP POP JUMP JUMPDEST PUSH0 PUSH1 0x20 DUP3 ADD SWAP1 POP PUSH2 0xFDD PUSH0 DUP4 ADD DUP5 PUSH2 0xFBB JUMP JUMPDEST SWAP3 SWAP2 POP POP JUMP JUMPDEST PUSH0 PUSH1 0x60 DUP3 ADD SWAP1 POP PUSH2 0xFF6 PUSH0 DUP4 ADD DUP7 PUSH2 0xF1F JUMP JUMPDEST PUSH2 0x1003 PUSH1 0x20 DUP4 ADD DUP6 PUSH2 0xF1F JUMP JUMPDEST PUSH2 0x1010 PUSH1 0x40 DUP4 ADD DUP5 PUSH2 0xFBB JUMP JUMPDEST SWAP5 SWAP4 POP POP POP POP JUMP JUMPDEST PUSH2 0x1021 DUP2 PUSH2 0xF16 JUMP JUMPDEST DUP2 EQ PUSH2 0x102B JUMPI PUSH0 DUP1 REVERT JUMPDEST POP JUMP JUMPDEST PUSH0 DUP2 CALLDATALOAD SWAP1 POP PUSH2 0x103C DUP2 PUSH2 0x1018 JUMP JUMPDEST SWAP3 SWAP2 POP POP JUMP JUMPDEST PUSH0 DUP1 PUSH1 0x40 DUP4 DUP6 SUB SLT ISZERO PUSH2 0x1058 JUMPI PUSH2 0x1057 PUSH2 0xDB6 JUMP JUMPDEST JUMPDEST PUSH0 PUSH2 0x1065 DUP6 DUP3 DUP7 ADD PUSH2 0xE00 JUMP JUMPDEST SWAP3 POP POP PUSH1 0x20 PUSH2 0x1076 DUP6 DUP3 DUP7 ADD PUSH2 0x102E JUMP JUMPDEST SWAP2 POP POP SWAP3 POP SWAP3 SWAP1 POP JUMP JUMPDEST PUSH0 DUP1 PUSH1 0x40 DUP4 DUP6 SUB SLT ISZERO PUSH2 0x1096 JUMPI PUSH2 0x1095 PUSH2 0xDB6 JUMP JUMPDEST JUMPDEST PUSH0 PUSH2 0x10A3 DUP6 DUP3 DUP7 ADD PUSH2 0x102E JUMP JUMPDEST SWAP3 POP POP PUSH1 0x20 PUSH2 0x10B4 DUP6 DUP3 DUP7 ADD PUSH2 0xE00 JUMP JUMPDEST SWAP2 POP POP SWAP3 POP SWAP3 SWAP1 POP JUMP JUMPDEST PUSH0 PUSH2 0x10C8 DUP3 PUSH2 0xF71 JUMP JUMPDEST SWAP1 POP SWAP2 SWAP1 POP JUMP JUMPDEST PUSH2 0x10D8 DUP2 PUSH2 0x10BE JUMP JUMPDEST DUP3 MSTORE POP POP JUMP JUMPDEST PUSH0 PUSH1 0x20 DUP3 ADD SWAP1 POP PUSH2 0x10F1 PUSH0 DUP4 ADD DUP5 PUSH2 0x10CF JUMP JUMPDEST SWAP3 SWAP2 POP POP JUMP JUMPDEST PUSH0 DUP3 DUP3 MSTORE PUSH1 0x20 DUP3 ADD SWAP1 POP SWAP3 SWAP2 POP POP JUMP JUMPDEST PUSH32 0x5265656E7472616E637947756172643A207265656E7472616E742063616C6C00 PUSH0 DUP3 ADD MSTORE POP JUMP JUMPDEST PUSH0 PUSH2 0x113B PUSH1 0x1F DUP4 PUSH2 0x10F7 JUMP JUMPDEST SWAP2 POP PUSH2 0x1146 DUP3 PUSH2 0x1107 JUMP JUMPDEST PUSH1 0x20 DUP3 ADD SWAP1 POP SWAP2 SWAP1 POP JUMP JUMPDEST PUSH0 PUSH1 0x20 DUP3 ADD SWAP1 POP DUP2 DUP2 SUB PUSH0 DUP4 ADD MSTORE PUSH2 0x1168 DUP2 PUSH2 0x112F JUMP JUMPDEST SWAP1 POP SWAP2 SWAP1 POP JUMP JUMPDEST PUSH32 0x4E6F2062616C616E636500000000000000000000000000000000000000000000 PUSH0 DUP3 ADD MSTORE POP JUMP JUMPDEST PUSH0 PUSH2 0x11A3 PUSH1 0xA DUP4 PUSH2 0x10F7 JUMP JUMPDEST SWAP2 POP PUSH2 0x11AE DUP3 PUSH2 0x116F JUMP JUMPDEST PUSH1 0x20 DUP3 ADD SWAP1 POP SWAP2 SWAP1 POP JUMP JUMPDEST PUSH0 PUSH1 0x20 DUP3 ADD SWAP1 POP DUP2 DUP2 SUB PUSH0 DUP4 ADD MSTORE PUSH2 0x11D0 DUP2 PUSH2 0x1197 JUMP JUMPDEST SWAP1 POP SWAP2 SWAP1 POP JUMP JUMPDEST PUSH0 PUSH1 0x60 DUP3 ADD SWAP1 POP PUSH2 0x11EA PUSH0 DUP4 ADD DUP7 PUSH2 0xF1F JUMP JUMPDEST PUSH2 0x11F7 PUSH1 0x20 DUP4 ADD DUP6 PUSH2 0xFBB JUMP JUMPDEST PUSH2 0x1204 PUSH1 0x40 DUP4 ADD DUP5 PUSH2 0xFBB JUMP JUMPDEST SWAP5 SWAP4 POP POP POP POP JUMP JUMPDEST PUSH0 DUP2 MLOAD SWAP1 POP PUSH2 0x121A DUP2 PUSH2 0x1018 JUMP JUMPDEST SWAP3 SWAP2 POP POP JUMP JUMPDEST PUSH0 PUSH1 0x20 DUP3 DUP5 SUB SLT ISZERO PUSH2 0x1235 JUMPI PUSH2 0x1234 PUSH2 0xDB6 JUMP JUMPDEST JUMPDEST PUSH0 PUSH2 0x1242 DUP5 DUP3 DUP6 ADD PUSH2 0x120C JUMP JUMPDEST SWAP2 POP POP SWAP3 SWAP2 POP POP JUMP JUMPDEST PUSH32 0x4D696E2031302055534443000000000000000000000000000000000000000000 PUSH0 DUP3 ADD MSTORE POP JUMP JUMPDEST PUSH0 PUSH2 0x127F PUSH1 0xB DUP4 PUSH2 0x10F7 JUMP JUMPDEST SWAP2 POP PUSH2 0x128A DUP3 PUSH2 0x124B JUMP JUMPDEST PUSH1 0x20 DUP3 ADD SWAP1 POP SWAP2 SWAP1 POP JUMP JUMPDEST PUSH0 PUSH1 0x20 DUP3 ADD SWAP1 POP DUP2 DUP2 SUB PUSH0 DUP4 ADD MSTORE PUSH2 0x12AC DUP2 PUSH2 0x1273 JUMP JUMPDEST SWAP1 POP SWAP2 SWAP1 POP JUMP JUMPDEST PUSH32 0x4E6F2073656C662D726566657272616C00000000000000000000000000000000 PUSH0 DUP3 ADD MSTORE POP JUMP JUMPDEST PUSH0 PUSH2 0x12E7 PUSH1 0x10 DUP4 PUSH2 0x10F7 JUMP JUMPDEST SWAP2 POP PUSH2 0x12F2 DUP3 PUSH2 0x12B3 JUMP JUMPDEST PUSH1 0x20 DUP3 ADD SWAP1 POP SWAP2 SWAP1 POP JUMP JUMPDEST PUSH0 PUSH1 0x20 DUP3 ADD SWAP1 POP DUP2 DUP2 SUB PUSH0 DUP4 ADD MSTORE PUSH2 0x1314 DUP2 PUSH2 0x12DB JUMP JUMPDEST SWAP1 POP SWAP2 SWAP1 POP JUMP JUMPDEST PUSH0 PUSH1 0x40 DUP3 ADD SWAP1 POP PUSH2 0x132E PUSH0 DUP4 ADD DUP6 PUSH2 0xFBB JUMP JUMPDEST PUSH2 0x133B PUSH1 0x20 DUP4 ADD DUP5 PUSH2 0xF1F JUMP JUMPDEST SWAP4 SWAP3 POP POP POP JUMP JUMPDEST PUSH0 DUP2 ISZERO ISZERO SWAP1 POP SWAP2 SWAP1 POP JUMP JUMPDEST PUSH2 0x1356 DUP2 PUSH2 0x1342 JUMP JUMPDEST DUP2 EQ PUSH2 0x1360 JUMPI PUSH0 DUP1 REVERT JUMPDEST POP JUMP JUMPDEST PUSH0 DUP2 MLOAD SWAP1 POP PUSH2 0x1371 DUP2 PUSH2 0x134D JUMP JUMPDEST SWAP3 SWAP2 POP POP JUMP JUMPDEST PUSH0 PUSH1 0x20 DUP3 DUP5 SUB SLT ISZERO PUSH2 0x138C JUMPI PUSH2 0x138B PUSH2 0xDB6 JUMP JUMPDEST JUMPDEST PUSH0 PUSH2 0x1399 DUP5 DUP3 DUP6 ADD PUSH2 0x1363 JUMP JUMPDEST SWAP2 POP POP SWAP3 SWAP2 POP POP JUMP JUMPDEST PUSH0 PUSH1 0x40 DUP3 ADD SWAP1 POP PUSH2 0x13B5 PUSH0 DUP4 ADD DUP6 PUSH2 0xF1F JUMP JUMPDEST PUSH2 0x13C2 PUSH1 0x20 DUP4 ADD DUP5 PUSH2 0xFBB JUMP JUMPDEST SWAP4 SWAP3 POP POP POP JUMP JUMPDEST PUSH32 0x4D6F7270686F204465706F736974206661696C65640000000000000000000000 PUSH0 DUP3 ADD MSTORE POP JUMP JUMPDEST PUSH0 PUSH2 0x13FD PUSH1 0x15 DUP4 PUSH2 0x10F7 JUMP JUMPDEST SWAP2 POP PUSH2 0x1408 DUP3 PUSH2 0x13C9 JUMP JUMPDEST PUSH1 0x20 DUP3 ADD SWAP1 POP SWAP2 SWAP1 POP JUMP JUMPDEST PUSH0 PUSH1 0x20 DUP3 ADD SWAP1 POP DUP2 DUP2 SUB PUSH0 DUP4 ADD MSTORE PUSH2 0x142A DUP2 PUSH2 0x13F1 JUMP JUMPDEST SWAP1 POP SWAP2 SWAP1 POP JUMP JUMPDEST PUSH32 0x4E487B7100000000000000000000000000000000000000000000000000000000 PUSH0 MSTORE PUSH1 0x11 PUSH1 0x4 MSTORE PUSH1 0x24 PUSH0 REVERT JUMPDEST PUSH0 PUSH2 0x1468 DUP3 PUSH2 0xF16 JUMP JUMPDEST SWAP2 POP PUSH2 0x1473 DUP4 PUSH2 0xF16 JUMP JUMPDEST SWAP3 POP DUP3 DUP3 ADD SWAP1 POP DUP1 DUP3 GT ISZERO PUSH2 0x148B JUMPI PUSH2 0x148A PUSH2 0x1431 JUMP JUMPDEST JUMPDEST SWAP3 SWAP2 POP POP JUMP JUMPDEST PUSH32 0x5361666545524332303A204552433230206F7065726174696F6E20646964206E PUSH0 DUP3 ADD MSTORE PUSH32 0x6F74207375636365656400000000000000000000000000000000000000000000 PUSH1 0x20 DUP3 ADD MSTORE POP JUMP JUMPDEST PUSH0 PUSH2 0x14EB PUSH1 0x2A DUP4 PUSH2 0x10F7 JUMP JUMPDEST SWAP2 POP PUSH2 0x14F6 DUP3 PUSH2 0x1491 JUMP JUMPDEST PUSH1 0x40 DUP3 ADD SWAP1 POP SWAP2 SWAP1 POP JUMP JUMPDEST PUSH0 PUSH1 0x20 DUP3 ADD SWAP1 POP DUP2 DUP2 SUB PUSH0 DUP4 ADD MSTORE PUSH2 0x1518 DUP2 PUSH2 0x14DF JUMP JUMPDEST SWAP1 POP SWAP2 SWAP1 POP JUMP JUMPDEST PUSH0 PUSH1 0x60 DUP3 ADD SWAP1 POP PUSH2 0x1532 PUSH0 DUP4 ADD DUP7 PUSH2 0xFBB JUMP JUMPDEST PUSH2 0x153F PUSH1 0x20 DUP4 ADD DUP6 PUSH2 0xFBB JUMP JUMPDEST PUSH2 0x154C PUSH1 0x40 DUP4 ADD DUP5 PUSH2 0xF1F JUMP JUMPDEST SWAP5 SWAP4 POP POP POP POP JUMP INVALID LOG2 PUSH5 0x6970667358 0x22 SLT KECCAK256 0x2F 0xD2 SSTORE DUP14 PUSH9 0x7D0444B9BFFAB6EC2A GASLIMIT SAR BYTE MULMOD 0xCF PUSH24 0x16797505D7D715C491DCE5964736F6C6343000814003300 "
				},
				"gasEstimates": {
					"creation": {
						"codeDepositCost": "1102800",
						"executionCost": "47529",
						"totalCost": "1150329"
					},
					"external": {
						"MIN_INVESTMENT()": "370",
						"USDC()": "infinite",
						"getAccountValue(address)": "infinite",
						"getDownlines(address)": "infinite",
						"mUSDC()": "infinite",
						"owner()": "2515",
						"referralList(address,uint256)": "infinite",
						"users(address)": "infinite",
						"zapIn(uint256,address)": "infinite",
						"zapOut()": "infinite"
					}
				},
				"methodIdentifiers": {
					"MIN_INVESTMENT()": "4ef8ff33",
					"USDC()": "89a30271",
					"getAccountValue(address)": "5ae80951",
					"getDownlines(address)": "44051053",
					"mUSDC()": "f89ec5f5",
					"owner()": "8da5cb5b",
					"referralList(address,uint256)": "d12eb0a3",
					"users(address)": "a87430ba",
					"zapIn(uint256,address)": "dabeaecf",
					"zapOut()": "23544748"
				}
			},
			"storageLayout": {
				"storage": [
					{
						"astId": 116,
						"contract": "contracts/zapyield-mainnet-alpha0.002.sol:ZapYieldsMainnetLive",
						"label": "_owner",
						"offset": 0,
						"slot": "0",
						"type": "t_address"
					},
					{
						"astId": 143,
						"contract": "contracts/zapyield-mainnet-alpha0.002.sol:ZapYieldsMainnetLive",
						"label": "_status",
						"offset": 0,
						"slot": "1",
						"type": "t_uint256"
					},
					{
						"astId": 236,
						"contract": "contracts/zapyield-mainnet-alpha0.002.sol:ZapYieldsMainnetLive",
						"label": "users",
						"offset": 0,
						"slot": "2",
						"type": "t_mapping(t_address,t_struct(UserInfo)231_storage)"
					},
					{
						"astId": 241,
						"contract": "contracts/zapyield-mainnet-alpha0.002.sol:ZapYieldsMainnetLive",
						"label": "referralList",
						"offset": 0,
						"slot": "3",
						"type": "t_mapping(t_address,t_array(t_address)dyn_storage)"
					}
				],
				"types": {
					"t_address": {
						"encoding": "inplace",
						"label": "address",
						"numberOfBytes": "20"
					},
					"t_array(t_address)dyn_storage": {
						"base": "t_address",
						"encoding": "dynamic_array",
						"label": "address[]",
						"numberOfBytes": "32"
					},
					"t_mapping(t_address,t_array(t_address)dyn_storage)": {
						"encoding": "mapping",
						"key": "t_address",
						"label": "mapping(address => address[])",
						"numberOfBytes": "32",
						"value": "t_array(t_address)dyn_storage"
					},
					"t_mapping(t_address,t_struct(UserInfo)231_storage)": {
						"encoding": "mapping",
						"key": "t_address",
						"label": "mapping(address => struct ZapYieldsMainnetLive.UserInfo)",
						"numberOfBytes": "32",
						"value": "t_struct(UserInfo)231_storage"
					},
					"t_struct(UserInfo)231_storage": {
						"encoding": "inplace",
						"label": "struct ZapYieldsMainnetLive.UserInfo",
						"members": [
							{
								"astId": 226,
								"contract": "contracts/zapyield-mainnet-alpha0.002.sol:ZapYieldsMainnetLive",
								"label": "principal",
								"offset": 0,
								"slot": "0",
								"type": "t_uint256"
							},
							{
								"astId": 228,
								"contract": "contracts/zapyield-mainnet-alpha0.002.sol:ZapYieldsMainnetLive",
								"label": "shareBalance",
								"offset": 0,
								"slot": "1",
								"type": "t_uint256"
							},
							{
								"astId": 230,
								"contract": "contracts/zapyield-mainnet-alpha0.002.sol:ZapYieldsMainnetLive",
								"label": "referrer",
								"offset": 0,
								"slot": "2",
								"type": "t_address"
							}
						],
						"numberOfBytes": "96"
					},
					"t_uint256": {
						"encoding": "inplace",
						"label": "uint256",
						"numberOfBytes": "32"
					}
				}
			},
			"userdoc": {
				"kind": "user",
				"methods": {},
				"version": 1
			}
		}
	}
}