{
	"contracts/zapyield-mainnet-beta.0.16.sol": {
		"ZapApyV2Pro": {
			"abi": [
				{
					"inputs": [],
					"stateMutability": "nonpayable",
					"type": "constructor"
				},
				{
					"inputs": [
						{
							"internalType": "address",
							"name": "target",
							"type": "address"
						}
					],
					"name": "AddressEmptyCode",
					"type": "error"
				},
				{
					"inputs": [
						{
							"internalType": "address",
							"name": "implementation",
							"type": "address"
						}
					],
					"name": "ERC1967InvalidImplementation",
					"type": "error"
				},
				{
					"inputs": [],
					"name": "ERC1967NonPayable",
					"type": "error"
				},
				{
					"inputs": [],
					"name": "FailedCall",
					"type": "error"
				},
				{
					"inputs": [],
					"name": "InvalidInitialization",
					"type": "error"
				},
				{
					"inputs": [],
					"name": "NotInitializing",
					"type": "error"
				},
				{
					"inputs": [
						{
							"internalType": "address",
							"name": "owner",
							"type": "address"
						}
					],
					"name": "OwnableInvalidOwner",
					"type": "error"
				},
				{
					"inputs": [
						{
							"internalType": "address",
							"name": "account",
							"type": "address"
						}
					],
					"name": "OwnableUnauthorizedAccount",
					"type": "error"
				},
				{
					"inputs": [],
					"name": "ReentrancyGuardReentrantCall",
					"type": "error"
				},
				{
					"inputs": [],
					"name": "UUPSUnauthorizedCallContext",
					"type": "error"
				},
				{
					"inputs": [
						{
							"internalType": "bytes32",
							"name": "slot",
							"type": "bytes32"
						}
					],
					"name": "UUPSUnsupportedProxiableUUID",
					"type": "error"
				},
				{
					"anonymous": false,
					"inputs": [
						{
							"indexed": false,
							"internalType": "uint64",
							"name": "version",
							"type": "uint64"
						}
					],
					"name": "Initialized",
					"type": "event"
				},
				{
					"anonymous": false,
					"inputs": [
						{
							"indexed": true,
							"internalType": "address",
							"name": "previousOwner",
							"type": "address"
						},
						{
							"indexed": true,
							"internalType": "address",
							"name": "newOwner",
							"type": "address"
						}
					],
					"name": "OwnershipTransferred",
					"type": "event"
				},
				{
					"anonymous": false,
					"inputs": [
						{
							"indexed": true,
							"internalType": "address",
							"name": "user",
							"type": "address"
						},
						{
							"indexed": true,
							"internalType": "uint256",
							"name": "id",
							"type": "uint256"
						}
					],
					"name": "ReferralIdCreated",
					"type": "event"
				},
				{
					"anonymous": false,
					"inputs": [
						{
							"indexed": true,
							"internalType": "address",
							"name": "implementation",
							"type": "address"
						}
					],
					"name": "Upgraded",
					"type": "event"
				},
				{
					"anonymous": false,
					"inputs": [
						{
							"indexed": true,
							"internalType": "address",
							"name": "user",
							"type": "address"
						},
						{
							"indexed": false,
							"internalType": "uint256",
							"name": "amount",
							"type": "uint256"
						},
						{
							"indexed": false,
							"internalType": "uint256",
							"name": "penalty",
							"type": "uint256"
						}
					],
					"name": "Withdrawn",
					"type": "event"
				},
				{
					"anonymous": false,
					"inputs": [
						{
							"indexed": true,
							"internalType": "address",
							"name": "user",
							"type": "address"
						},
						{
							"indexed": false,
							"internalType": "uint256",
							"name": "amount",
							"type": "uint256"
						},
						{
							"indexed": false,
							"internalType": "uint256",
							"name": "referrerId",
							"type": "uint256"
						}
					],
					"name": "ZappedIn",
					"type": "event"
				},
				{
					"inputs": [],
					"name": "UPGRADE_INTERFACE_VERSION",
					"outputs": [
						{
							"internalType": "string",
							"name": "",
							"type": "string"
						}
					],
					"stateMutability": "view",
					"type": "function"
				},
				{
					"inputs": [
						{
							"internalType": "address",
							"name": "",
							"type": "address"
						}
					],
					"name": "addressToId",
					"outputs": [
						{
							"internalType": "uint256",
							"name": "",
							"type": "uint256"
						}
					],
					"stateMutability": "view",
					"type": "function"
				},
				{
					"inputs": [],
					"name": "createReferralId",
					"outputs": [],
					"stateMutability": "nonpayable",
					"type": "function"
				},
				{
					"inputs": [],
					"name": "getMyId",
					"outputs": [
						{
							"internalType": "uint256",
							"name": "",
							"type": "uint256"
						}
					],
					"stateMutability": "view",
					"type": "function"
				},
				{
					"inputs": [
						{
							"internalType": "uint256",
							"name": "",
							"type": "uint256"
						}
					],
					"name": "idToAddress",
					"outputs": [
						{
							"internalType": "address",
							"name": "",
							"type": "address"
						}
					],
					"stateMutability": "view",
					"type": "function"
				},
				{
					"inputs": [
						{
							"internalType": "address",
							"name": "_usdc",
							"type": "address"
						},
						{
							"internalType": "address",
							"name": "_vault",
							"type": "address"
						}
					],
					"name": "initialize",
					"outputs": [],
					"stateMutability": "nonpayable",
					"type": "function"
				},
				{
					"inputs": [],
					"name": "moonwellVault",
					"outputs": [
						{
							"internalType": "contract IMorphoVault",
							"name": "",
							"type": "address"
						}
					],
					"stateMutability": "view",
					"type": "function"
				},
				{
					"inputs": [],
					"name": "nextReferralId",
					"outputs": [
						{
							"internalType": "uint256",
							"name": "",
							"type": "uint256"
						}
					],
					"stateMutability": "view",
					"type": "function"
				},
				{
					"inputs": [],
					"name": "owner",
					"outputs": [
						{
							"internalType": "address",
							"name": "",
							"type": "address"
						}
					],
					"stateMutability": "view",
					"type": "function"
				},
				{
					"inputs": [],
					"name": "proxiableUUID",
					"outputs": [
						{
							"internalType": "bytes32",
							"name": "",
							"type": "bytes32"
						}
					],
					"stateMutability": "view",
					"type": "function"
				},
				{
					"inputs": [],
					"name": "renounceOwnership",
					"outputs": [],
					"stateMutability": "nonpayable",
					"type": "function"
				},
				{
					"inputs": [
						{
							"internalType": "address",
							"name": "newOwner",
							"type": "address"
						}
					],
					"name": "transferOwnership",
					"outputs": [],
					"stateMutability": "nonpayable",
					"type": "function"
				},
				{
					"inputs": [
						{
							"internalType": "address",
							"name": "newImplementation",
							"type": "address"
						},
						{
							"internalType": "bytes",
							"name": "data",
							"type": "bytes"
						}
					],
					"name": "upgradeToAndCall",
					"outputs": [],
					"stateMutability": "payable",
					"type": "function"
				},
				{
					"inputs": [],
					"name": "usdcToken",
					"outputs": [
						{
							"internalType": "contract IERC20Upgradeable",
							"name": "",
							"type": "address"
						}
					],
					"stateMutability": "view",
					"type": "function"
				},
				{
					"inputs": [
						{
							"internalType": "address",
							"name": "",
							"type": "address"
						}
					],
					"name": "userInfo",
					"outputs": [
						{
							"internalType": "uint256",
							"name": "principal",
							"type": "uint256"
						},
						{
							"internalType": "uint256",
							"name": "depositTime",
							"type": "uint256"
						},
						{
							"internalType": "address",
							"name": "referrer",
							"type": "address"
						}
					],
					"stateMutability": "view",
					"type": "function"
				},
				{
					"inputs": [
						{
							"internalType": "uint256",
							"name": "_amount",
							"type": "uint256"
						}
					],
					"name": "withdraw",
					"outputs": [],
					"stateMutability": "nonpayable",
					"type": "function"
				},
				{
					"inputs": [
						{
							"internalType": "uint256",
							"name": "_amount",
							"type": "uint256"
						},
						{
							"internalType": "uint256",
							"name": "_referrerId",
							"type": "uint256"
						}
					],
					"name": "zapIn",
					"outputs": [],
					"stateMutability": "nonpayable",
					"type": "function"
				}
			],
			"devdoc": {
				"errors": {
					"AddressEmptyCode(address)": [
						{
							"details": "There's no code at `target` (it is not a contract)."
						}
					],
					"ERC1967InvalidImplementation(address)": [
						{
							"details": "The `implementation` of the proxy is invalid."
						}
					],
					"ERC1967NonPayable()": [
						{
							"details": "An upgrade function sees `msg.value > 0` that may be lost."
						}
					],
					"FailedCall()": [
						{
							"details": "A call to an address target failed. The target may have reverted."
						}
					],
					"InvalidInitialization()": [
						{
							"details": "The contract is already initialized."
						}
					],
					"NotInitializing()": [
						{
							"details": "The contract is not initializing."
						}
					],
					"OwnableInvalidOwner(address)": [
						{
							"details": "The owner is not a valid owner account. (eg. `address(0)`)"
						}
					],
					"OwnableUnauthorizedAccount(address)": [
						{
							"details": "The caller account is not authorized to perform an operation."
						}
					],
					"ReentrancyGuardReentrantCall()": [
						{
							"details": "Unauthorized reentrant call."
						}
					],
					"UUPSUnauthorizedCallContext()": [
						{
							"details": "The call is from an unauthorized context."
						}
					],
					"UUPSUnsupportedProxiableUUID(bytes32)": [
						{
							"details": "The storage `slot` is unsupported as a UUID."
						}
					]
				},
				"events": {
					"Initialized(uint64)": {
						"details": "Triggered when the contract has been initialized or reinitialized."
					},
					"Upgraded(address)": {
						"details": "Emitted when the implementation is upgraded."
					}
				},
				"kind": "dev",
				"methods": {
					"constructor": {
						"custom:oz-upgrades-unsafe-allow": "constructor"
					},
					"initialize(address,address)": {
						"params": {
							"_usdc": "Address of the USDC Token on Base",
							"_vault": "Address of the Moonwell/Morpho Vault"
						}
					},
					"owner()": {
						"details": "Returns the address of the current owner."
					},
					"proxiableUUID()": {
						"details": "Implementation of the ERC-1822 {proxiableUUID} function. This returns the storage slot used by the implementation. It is used to validate the implementation's compatibility when performing an upgrade. IMPORTANT: A proxy pointing at a proxiable contract should not be considered proxiable itself, because this risks bricking a proxy that upgrades to it, by delegating to itself until out of gas. Thus it is critical that this function revert if invoked through a proxy. This is guaranteed by the `notDelegated` modifier."
					},
					"renounceOwnership()": {
						"details": "Leaves the contract without owner. It will not be possible to call `onlyOwner` functions. Can only be called by the current owner. NOTE: Renouncing ownership will leave the contract without an owner, thereby disabling any functionality that is only available to the owner."
					},
					"transferOwnership(address)": {
						"details": "Transfers ownership of the contract to a new account (`newOwner`). Can only be called by the current owner."
					},
					"upgradeToAndCall(address,bytes)": {
						"custom:oz-upgrades-unsafe-allow-reachable": "delegatecall",
						"details": "Upgrade the implementation of the proxy to `newImplementation`, and subsequently execute the function call encoded in `data`. Calls {_authorizeUpgrade}. Emits an {Upgraded} event."
					}
				},
				"stateVariables": {
					"__gap": {
						"details": "This empty reserved space ensures that if you add new variables in V3, they won't overwrite existing memory."
					}
				},
				"version": 1
			},
			"evm": {
				"assembly": "    /* \"contracts/zapyield-mainnet-beta.0.16.sol\":979:6234  contract ZapApyV2Pro is ... */\n  mstore(0x40, 0xa0)\n    /* \"@openzeppelin/contracts-upgradeable/proxy/utils/UUPSUpgradeable.sol\":1171:1175  this */\n  address\n    /* \"@openzeppelin/contracts-upgradeable/proxy/utils/UUPSUpgradeable.sol\":1128:1176  address private immutable __self = address(this) */\n  0xffffffffffffffffffffffffffffffffffffffff\n  and\n  0x80\n  swap1\n  0xffffffffffffffffffffffffffffffffffffffff\n  and\n  dup2\n  mstore\n  pop\n    /* \"contracts/zapyield-mainnet-beta.0.16.sol\":2117:2172  constructor() {... */\n  callvalue\n  dup1\n  iszero\n  tag_1\n  jumpi\n  revert(0x00, 0x00)\ntag_1:\n  pop\n    /* \"contracts/zapyield-mainnet-beta.0.16.sol\":2142:2164  _disableInitializers() */\n  tag_4\n    /* \"contracts/zapyield-mainnet-beta.0.16.sol\":2142:2162  _disableInitializers */\n  shl(0x20, tag_5)\n    /* \"contracts/zapyield-mainnet-beta.0.16.sol\":2142:2164  _disableInitializers() */\n  0x20\n  shr\n  jump\t// in\ntag_4:\n    /* \"contracts/zapyield-mainnet-beta.0.16.sol\":979:6234  contract ZapApyV2Pro is ... */\n  jump(tag_6)\n    /* \"@openzeppelin/contracts-upgradeable/proxy/utils/Initializable.sol\":7709:8131  function _disableInitializers() internal virtual {... */\ntag_5:\n    /* \"@openzeppelin/contracts-upgradeable/proxy/utils/Initializable.sol\":7824:7854  InitializableStorage storage $ */\n  0x00\n    /* \"@openzeppelin/contracts-upgradeable/proxy/utils/Initializable.sol\":7857:7883  _getInitializableStorage() */\n  tag_8\n    /* \"@openzeppelin/contracts-upgradeable/proxy/utils/Initializable.sol\":7857:7881  _getInitializableStorage */\n  shl(0x20, tag_9)\n    /* \"@openzeppelin/contracts-upgradeable/proxy/utils/Initializable.sol\":7857:7883  _getInitializableStorage() */\n  0x20\n  shr\n  jump\t// in\ntag_8:\n    /* \"@openzeppelin/contracts-upgradeable/proxy/utils/Initializable.sol\":7824:7883  InitializableStorage storage $ = _getInitializableStorage() */\n  swap1\n  pop\n    /* \"@openzeppelin/contracts-upgradeable/proxy/utils/Initializable.sol\":7898:7899  $ */\n  dup1\n    /* \"@openzeppelin/contracts-upgradeable/proxy/utils/Initializable.sol\":7898:7913  $._initializing */\n  0x00\n  add\n  0x08\n  swap1\n  sload\n  swap1\n  0x0100\n  exp\n  swap1\n  div\n  0xff\n  and\n    /* \"@openzeppelin/contracts-upgradeable/proxy/utils/Initializable.sol\":7894:7970  if ($._initializing) {... */\n  iszero\n  tag_10\n  jumpi\n    /* \"@openzeppelin/contracts-upgradeable/proxy/utils/Initializable.sol\":7936:7959  InvalidInitialization() */\n  mload(0x40)\n  0xf92ee8a900000000000000000000000000000000000000000000000000000000\n  dup2\n  mstore\n  0x04\n  add\n  mload(0x40)\n  dup1\n  swap2\n  sub\n  swap1\n  revert\n    /* \"@openzeppelin/contracts-upgradeable/proxy/utils/Initializable.sol\":7894:7970  if ($._initializing) {... */\ntag_10:\n    /* \"@openzeppelin/contracts-upgradeable/proxy/utils/Initializable.sol\":8001:8017  type(uint64).max */\n  0xffffffffffffffff\n    /* \"@openzeppelin/contracts-upgradeable/proxy/utils/Initializable.sol\":7983:8017  $._initialized != type(uint64).max */\n  dup1\n  and\n    /* \"@openzeppelin/contracts-upgradeable/proxy/utils/Initializable.sol\":7983:7984  $ */\n  dup2\n    /* \"@openzeppelin/contracts-upgradeable/proxy/utils/Initializable.sol\":7983:7997  $._initialized */\n  0x00\n  add\n  0x00\n  swap1\n  sload\n  swap1\n  0x0100\n  exp\n  swap1\n  div\n  0xffffffffffffffff\n  and\n    /* \"@openzeppelin/contracts-upgradeable/proxy/utils/Initializable.sol\":7983:8017  $._initialized != type(uint64).max */\n  0xffffffffffffffff\n  and\n  eq\n    /* \"@openzeppelin/contracts-upgradeable/proxy/utils/Initializable.sol\":7979:8125  if ($._initialized != type(uint64).max) {... */\n  tag_11\n  jumpi\n    /* \"@openzeppelin/contracts-upgradeable/proxy/utils/Initializable.sol\":8050:8066  type(uint64).max */\n  0xffffffffffffffff\n    /* \"@openzeppelin/contracts-upgradeable/proxy/utils/Initializable.sol\":8033:8034  $ */\n  dup2\n    /* \"@openzeppelin/contracts-upgradeable/proxy/utils/Initializable.sol\":8033:8047  $._initialized */\n  0x00\n  add\n  0x00\n    /* \"@openzeppelin/contracts-upgradeable/proxy/utils/Initializable.sol\":8033:8066  $._initialized = type(uint64).max */\n  0x0100\n  exp\n  dup2\n  sload\n  dup2\n  0xffffffffffffffff\n  mul\n  not\n  and\n  swap1\n  dup4\n  0xffffffffffffffff\n  and\n  mul\n  or\n  swap1\n  sstore\n  pop\n    /* \"@openzeppelin/contracts-upgradeable/proxy/utils/Initializable.sol\":8085:8114  Initialized(type(uint64).max) */\n  0xc7f505b2f371ae2175ee4913f4499e1f2633a7b5936321eed1cdaeb6115181d2\n    /* \"@openzeppelin/contracts-upgradeable/proxy/utils/Initializable.sol\":8097:8113  type(uint64).max */\n  0xffffffffffffffff\n    /* \"@openzeppelin/contracts-upgradeable/proxy/utils/Initializable.sol\":8085:8114  Initialized(type(uint64).max) */\n  mload(0x40)\n  tag_12\n  swap2\n  swap1\n  tag_13\n  jump\t// in\ntag_12:\n  mload(0x40)\n  dup1\n  swap2\n  sub\n  swap1\n  log1\n    /* \"@openzeppelin/contracts-upgradeable/proxy/utils/Initializable.sol\":7979:8125  if ($._initialized != type(uint64).max) {... */\ntag_11:\n    /* \"@openzeppelin/contracts-upgradeable/proxy/utils/Initializable.sol\":7758:8131  {... */\n  pop\n    /* \"@openzeppelin/contracts-upgradeable/proxy/utils/Initializable.sol\":7709:8131  function _disableInitializers() internal virtual {... */\n  jump\t// out\n    /* \"@openzeppelin/contracts-upgradeable/proxy/utils/Initializable.sol\":9071:9276  function _getInitializableStorage() private pure returns (InitializableStorage storage $) {... */\ntag_9:\n    /* \"@openzeppelin/contracts-upgradeable/proxy/utils/Initializable.sol\":9129:9159  InitializableStorage storage $ */\n  0x00\n    /* \"@openzeppelin/contracts-upgradeable/proxy/utils/Initializable.sol\":9171:9183  bytes32 slot */\n  0x00\n    /* \"@openzeppelin/contracts-upgradeable/proxy/utils/Initializable.sol\":9186:9213  _initializableStorageSlot() */\n  tag_15\n    /* \"@openzeppelin/contracts-upgradeable/proxy/utils/Initializable.sol\":9186:9211  _initializableStorageSlot */\n  shl(0x20, tag_16)\n    /* \"@openzeppelin/contracts-upgradeable/proxy/utils/Initializable.sol\":9186:9213  _initializableStorageSlot() */\n  0x20\n  shr\n  jump\t// in\ntag_15:\n    /* \"@openzeppelin/contracts-upgradeable/proxy/utils/Initializable.sol\":9171:9213  bytes32 slot = _initializableStorageSlot() */\n  swap1\n  pop\n    /* \"@openzeppelin/contracts-upgradeable/proxy/utils/Initializable.sol\":9256:9260  slot */\n  dup1\n    /* \"@openzeppelin/contracts-upgradeable/proxy/utils/Initializable.sol\":9246:9260  $.slot := slot */\n  swap2\n  pop\n    /* \"@openzeppelin/contracts-upgradeable/proxy/utils/Initializable.sol\":9232:9270  {... */\n  pop\n    /* \"@openzeppelin/contracts-upgradeable/proxy/utils/Initializable.sol\":9071:9276  function _getInitializableStorage() private pure returns (InitializableStorage storage $) {... */\n  swap1\n  jump\t// out\n    /* \"@openzeppelin/contracts-upgradeable/proxy/utils/Initializable.sol\":8819:8941  function _initializableStorageSlot() internal pure virtual returns (bytes32) {... */\ntag_16:\n    /* \"@openzeppelin/contracts-upgradeable/proxy/utils/Initializable.sol\":8887:8894  bytes32 */\n  0x00\n    /* \"@openzeppelin/contracts-upgradeable/proxy/utils/Initializable.sol\":3147:3213  0xf0c57e16840df040f15088dc2f81fe391c3923bec73e23a9662efc9c229c6a00 */\n  0xf0c57e16840df040f15088dc2f81fe391c3923bec73e23a9662efc9c229c6a00\n    /* \"@openzeppelin/contracts-upgradeable/proxy/utils/Initializable.sol\":8913:8934  INITIALIZABLE_STORAGE */\n  0x00\n  shl\n    /* \"@openzeppelin/contracts-upgradeable/proxy/utils/Initializable.sol\":8906:8934  return INITIALIZABLE_STORAGE */\n  swap1\n  pop\n    /* \"@openzeppelin/contracts-upgradeable/proxy/utils/Initializable.sol\":8819:8941  function _initializableStorageSlot() internal pure virtual returns (bytes32) {... */\n  swap1\n  jump\t// out\n    /* \"#utility.yul\":7:108   */\ntag_18:\n    /* \"#utility.yul\":43:50   */\n  0x00\n    /* \"#utility.yul\":83:101   */\n  0xffffffffffffffff\n    /* \"#utility.yul\":76:81   */\n  dup3\n    /* \"#utility.yul\":72:102   */\n  and\n    /* \"#utility.yul\":61:102   */\n  swap1\n  pop\n    /* \"#utility.yul\":7:108   */\n  swap2\n  swap1\n  pop\n  jump\t// out\n    /* \"#utility.yul\":114:229   */\ntag_19:\n    /* \"#utility.yul\":199:222   */\n  tag_23\n    /* \"#utility.yul\":216:221   */\n  dup2\n    /* \"#utility.yul\":199:222   */\n  tag_18\n  jump\t// in\ntag_23:\n    /* \"#utility.yul\":194:197   */\n  dup3\n    /* \"#utility.yul\":187:223   */\n  mstore\n    /* \"#utility.yul\":114:229   */\n  pop\n  pop\n  jump\t// out\n    /* \"#utility.yul\":235:453   */\ntag_13:\n    /* \"#utility.yul\":326:330   */\n  0x00\n    /* \"#utility.yul\":364:366   */\n  0x20\n    /* \"#utility.yul\":353:362   */\n  dup3\n    /* \"#utility.yul\":349:367   */\n  add\n    /* \"#utility.yul\":341:367   */\n  swap1\n  pop\n    /* \"#utility.yul\":377:446   */\n  tag_25\n    /* \"#utility.yul\":443:444   */\n  0x00\n    /* \"#utility.yul\":432:441   */\n  dup4\n    /* \"#utility.yul\":428:445   */\n  add\n    /* \"#utility.yul\":419:425   */\n  dup5\n    /* \"#utility.yul\":377:446   */\n  tag_19\n  jump\t// in\ntag_25:\n    /* \"#utility.yul\":235:453   */\n  swap3\n  swap2\n  pop\n  pop\n  jump\t// out\n    /* \"contracts/zapyield-mainnet-beta.0.16.sol\":979:6234  contract ZapApyV2Pro is ... */\ntag_6:\n  mload(0x80)\n  codecopy(0x00, dataOffset(sub_0), dataSize(sub_0))\n  0x00\n  assignImmutable(\"0x4ce4dab4689da140a0c12de1a6af6b8f679594aeb723205f513e052d27f5b26f\")\n  return(0x00, dataSize(sub_0))\nstop\n\nsub_0: assembly {\n        /* \"contracts/zapyield-mainnet-beta.0.16.sol\":979:6234  contract ZapApyV2Pro is ... */\n      mstore(0x40, 0x80)\n      jumpi(tag_1, lt(calldatasize, 0x04))\n      shr(0xe0, calldataload(0x00))\n      dup1\n      0x52d1902d\n      gt\n      tag_19\n      jumpi\n      dup1\n      0x97da7af7\n      gt\n      tag_20\n      jumpi\n      dup1\n      0x97da7af7\n      eq\n      tag_14\n      jumpi\n      dup1\n      0xaa5d0063\n      eq\n      tag_15\n      jumpi\n      dup1\n      0xad3cb1cc\n      eq\n      tag_16\n      jumpi\n      dup1\n      0xcb0e0d7d\n      eq\n      tag_17\n      jumpi\n      dup1\n      0xf2fde38b\n      eq\n      tag_18\n      jumpi\n      jump(tag_1)\n    tag_20:\n      dup1\n      0x52d1902d\n      eq\n      tag_10\n      jumpi\n      dup1\n      0x715018a6\n      eq\n      tag_11\n      jumpi\n      dup1\n      0x8bda03a7\n      eq\n      tag_12\n      jumpi\n      dup1\n      0x8da5cb5b\n      eq\n      tag_13\n      jumpi\n      jump(tag_1)\n    tag_19:\n      dup1\n      0x2dee2327\n      gt\n      tag_21\n      jumpi\n      dup1\n      0x2dee2327\n      eq\n      tag_6\n      jumpi\n      dup1\n      0x2e1a7d4d\n      eq\n      tag_7\n      jumpi\n      dup1\n      0x485cc955\n      eq\n      tag_8\n      jumpi\n      dup1\n      0x4f1ef286\n      eq\n      tag_9\n      jumpi\n      jump(tag_1)\n    tag_21:\n      dup1\n      0x11eac855\n      eq\n      tag_2\n      jumpi\n      dup1\n      0x1959a002\n      eq\n      tag_3\n      jumpi\n      dup1\n      0x27ed00ee\n      eq\n      tag_4\n      jumpi\n      dup1\n      0x2a2d0c47\n      eq\n      tag_5\n      jumpi\n    tag_1:\n      revert(0x00, 0x00)\n        /* \"contracts/zapyield-mainnet-beta.0.16.sol\":1244:1278  IERC20Upgradeable public usdcToken */\n    tag_2:\n      callvalue\n      dup1\n      iszero\n      tag_22\n      jumpi\n      revert(0x00, 0x00)\n    tag_22:\n      pop\n      tag_23\n      tag_24\n      jump\t// in\n    tag_23:\n      mload(0x40)\n      tag_25\n      swap2\n      swap1\n      tag_26\n      jump\t// in\n    tag_25:\n      mload(0x40)\n      dup1\n      swap2\n      sub\n      swap1\n      return\n        /* \"contracts/zapyield-mainnet-beta.0.16.sol\":1765:1809  mapping(address => UserInfo) public userInfo */\n    tag_3:\n      callvalue\n      dup1\n      iszero\n      tag_27\n      jumpi\n      revert(0x00, 0x00)\n    tag_27:\n      pop\n      tag_28\n      0x04\n      dup1\n      calldatasize\n      sub\n      dup2\n      add\n      swap1\n      tag_29\n      swap2\n      swap1\n      tag_30\n      jump\t// in\n    tag_29:\n      tag_31\n      jump\t// in\n    tag_28:\n      mload(0x40)\n      tag_32\n      swap4\n      swap3\n      swap2\n      swap1\n      tag_33\n      jump\t// in\n    tag_32:\n      mload(0x40)\n      dup1\n      swap2\n      sub\n      swap1\n      return\n        /* \"contracts/zapyield-mainnet-beta.0.16.sol\":3785:3885  function getMyId() external view returns (uint256) {... */\n    tag_4:\n      callvalue\n      dup1\n      iszero\n      tag_34\n      jumpi\n      revert(0x00, 0x00)\n    tag_34:\n      pop\n      tag_35\n      tag_36\n      jump\t// in\n    tag_35:\n      mload(0x40)\n      tag_37\n      swap2\n      swap1\n      tag_38\n      jump\t// in\n    tag_37:\n      mload(0x40)\n      dup1\n      swap2\n      sub\n      swap1\n      return\n        /* \"contracts/zapyield-mainnet-beta.0.16.sol\":1393:1439  mapping(uint256 => address) public idToAddress */\n    tag_5:\n      callvalue\n      dup1\n      iszero\n      tag_39\n      jumpi\n      revert(0x00, 0x00)\n    tag_39:\n      pop\n      tag_40\n      0x04\n      dup1\n      calldatasize\n      sub\n      dup2\n      add\n      swap1\n      tag_41\n      swap2\n      swap1\n      tag_42\n      jump\t// in\n    tag_41:\n      tag_43\n      jump\t// in\n    tag_40:\n      mload(0x40)\n      tag_44\n      swap2\n      swap1\n      tag_45\n      jump\t// in\n    tag_44:\n      mload(0x40)\n      dup1\n      swap2\n      sub\n      swap1\n      return\n        /* \"contracts/zapyield-mainnet-beta.0.16.sol\":4034:4909  function zapIn(uint256 _amount, uint256 _referrerId) external nonReentrant {... */\n    tag_6:\n      callvalue\n      dup1\n      iszero\n      tag_46\n      jumpi\n      revert(0x00, 0x00)\n    tag_46:\n      pop\n      tag_47\n      0x04\n      dup1\n      calldatasize\n      sub\n      dup2\n      add\n      swap1\n      tag_48\n      swap2\n      swap1\n      tag_49\n      jump\t// in\n    tag_48:\n      tag_50\n      jump\t// in\n    tag_47:\n      stop\n        /* \"contracts/zapyield-mainnet-beta.0.16.sol\":4917:5889  function withdraw(uint256 _amount) external nonReentrant {... */\n    tag_7:\n      callvalue\n      dup1\n      iszero\n      tag_51\n      jumpi\n      revert(0x00, 0x00)\n    tag_51:\n      pop\n      tag_52\n      0x04\n      dup1\n      calldatasize\n      sub\n      dup2\n      add\n      swap1\n      tag_53\n      swap2\n      swap1\n      tag_42\n      jump\t// in\n    tag_53:\n      tag_54\n      jump\t// in\n    tag_52:\n      stop\n        /* \"contracts/zapyield-mainnet-beta.0.16.sol\":2553:2924  function initialize(address _usdc, address _vault) public initializer {... */\n    tag_8:\n      callvalue\n      dup1\n      iszero\n      tag_55\n      jumpi\n      revert(0x00, 0x00)\n    tag_55:\n      pop\n      tag_56\n      0x04\n      dup1\n      calldatasize\n      sub\n      dup2\n      add\n      swap1\n      tag_57\n      swap2\n      swap1\n      tag_58\n      jump\t// in\n    tag_57:\n      tag_59\n      jump\t// in\n    tag_56:\n      stop\n        /* \"@openzeppelin/contracts-upgradeable/proxy/utils/UUPSUpgradeable.sol\":4161:4375  function upgradeToAndCall(address newImplementation, bytes memory data) public payable virtual onlyProxy {... */\n    tag_9:\n      tag_60\n      0x04\n      dup1\n      calldatasize\n      sub\n      dup2\n      add\n      swap1\n      tag_61\n      swap2\n      swap1\n      tag_62\n      jump\t// in\n    tag_61:\n      tag_63\n      jump\t// in\n    tag_60:\n      stop\n        /* \"@openzeppelin/contracts-upgradeable/proxy/utils/UUPSUpgradeable.sol\":3708:3842  function proxiableUUID() external view virtual notDelegated returns (bytes32) {... */\n    tag_10:\n      callvalue\n      dup1\n      iszero\n      tag_64\n      jumpi\n      revert(0x00, 0x00)\n    tag_64:\n      pop\n      tag_65\n      tag_66\n      jump\t// in\n    tag_65:\n      mload(0x40)\n      tag_67\n      swap2\n      swap1\n      tag_68\n      jump\t// in\n    tag_67:\n      mload(0x40)\n      dup1\n      swap2\n      sub\n      swap1\n      return\n        /* \"@openzeppelin/contracts-upgradeable/access/OwnableUpgradeable.sol\":3155:3256  function renounceOwnership() public virtual onlyOwner {... */\n    tag_11:\n      callvalue\n      dup1\n      iszero\n      tag_69\n      jumpi\n      revert(0x00, 0x00)\n    tag_69:\n      pop\n      tag_70\n      tag_71\n      jump\t// in\n    tag_70:\n      stop\n        /* \"contracts/zapyield-mainnet-beta.0.16.sol\":3402:3773  function createReferralId() external {... */\n    tag_12:\n      callvalue\n      dup1\n      iszero\n      tag_72\n      jumpi\n      revert(0x00, 0x00)\n    tag_72:\n      pop\n      tag_73\n      tag_74\n      jump\t// in\n    tag_73:\n      stop\n        /* \"@openzeppelin/contracts-upgradeable/access/OwnableUpgradeable.sol\":2441:2585  function owner() public view virtual returns (address) {... */\n    tag_13:\n      callvalue\n      dup1\n      iszero\n      tag_75\n      jumpi\n      revert(0x00, 0x00)\n    tag_75:\n      pop\n      tag_76\n      tag_77\n      jump\t// in\n    tag_76:\n      mload(0x40)\n      tag_78\n      swap2\n      swap1\n      tag_45\n      jump\t// in\n    tag_78:\n      mload(0x40)\n      dup1\n      swap2\n      sub\n      swap1\n      return\n        /* \"contracts/zapyield-mainnet-beta.0.16.sol\":1285:1318  IMorphoVault public moonwellVault */\n    tag_14:\n      callvalue\n      dup1\n      iszero\n      tag_79\n      jumpi\n      revert(0x00, 0x00)\n    tag_79:\n      pop\n      tag_80\n      tag_81\n      jump\t// in\n    tag_80:\n      mload(0x40)\n      tag_82\n      swap2\n      swap1\n      tag_83\n      jump\t// in\n    tag_82:\n      mload(0x40)\n      dup1\n      swap2\n      sub\n      swap1\n      return\n        /* \"contracts/zapyield-mainnet-beta.0.16.sol\":1357:1386  uint256 public nextReferralId */\n    tag_15:\n      callvalue\n      dup1\n      iszero\n      tag_84\n      jumpi\n      revert(0x00, 0x00)\n    tag_84:\n      pop\n      tag_85\n      tag_86\n      jump\t// in\n    tag_85:\n      mload(0x40)\n      tag_87\n      swap2\n      swap1\n      tag_38\n      jump\t// in\n    tag_87:\n      mload(0x40)\n      dup1\n      swap2\n      sub\n      swap1\n      return\n        /* \"@openzeppelin/contracts-upgradeable/proxy/utils/UUPSUpgradeable.sol\":1819:1877  string public constant UPGRADE_INTERFACE_VERSION = \"5.0.0\" */\n    tag_16:\n      callvalue\n      dup1\n      iszero\n      tag_88\n      jumpi\n      revert(0x00, 0x00)\n    tag_88:\n      pop\n      tag_89\n      tag_90\n      jump\t// in\n    tag_89:\n      mload(0x40)\n      tag_91\n      swap2\n      swap1\n      tag_92\n      jump\t// in\n    tag_91:\n      mload(0x40)\n      dup1\n      swap2\n      sub\n      swap1\n      return\n        /* \"contracts/zapyield-mainnet-beta.0.16.sol\":1462:1508  mapping(address => uint256) public addressToId */\n    tag_17:\n      callvalue\n      dup1\n      iszero\n      tag_93\n      jumpi\n      revert(0x00, 0x00)\n    tag_93:\n      pop\n      tag_94\n      0x04\n      dup1\n      calldatasize\n      sub\n      dup2\n      add\n      swap1\n      tag_95\n      swap2\n      swap1\n      tag_30\n      jump\t// in\n    tag_95:\n      tag_96\n      jump\t// in\n    tag_94:\n      mload(0x40)\n      tag_97\n      swap2\n      swap1\n      tag_38\n      jump\t// in\n    tag_97:\n      mload(0x40)\n      dup1\n      swap2\n      sub\n      swap1\n      return\n        /* \"@openzeppelin/contracts-upgradeable/access/OwnableUpgradeable.sol\":3405:3620  function transferOwnership(address newOwner) public virtual onlyOwner {... */\n    tag_18:\n      callvalue\n      dup1\n      iszero\n      tag_98\n      jumpi\n      revert(0x00, 0x00)\n    tag_98:\n      pop\n      tag_99\n      0x04\n      dup1\n      calldatasize\n      sub\n      dup2\n      add\n      swap1\n      tag_100\n      swap2\n      swap1\n      tag_30\n      jump\t// in\n    tag_100:\n      tag_101\n      jump\t// in\n    tag_99:\n      stop\n        /* \"contracts/zapyield-mainnet-beta.0.16.sol\":1244:1278  IERC20Upgradeable public usdcToken */\n    tag_24:\n      0x00\n      0x00\n      swap1\n      sload\n      swap1\n      0x0100\n      exp\n      swap1\n      div\n      0xffffffffffffffffffffffffffffffffffffffff\n      and\n      dup2\n      jump\t// out\n        /* \"contracts/zapyield-mainnet-beta.0.16.sol\":1765:1809  mapping(address => UserInfo) public userInfo */\n    tag_31:\n      mstore(0x20, 0x05)\n      dup1\n      0x00\n      mstore\n      keccak256(0x00, 0x40)\n      0x00\n      swap2\n      pop\n      swap1\n      pop\n      dup1\n      0x00\n      add\n      sload\n      swap1\n      dup1\n      0x01\n      add\n      sload\n      swap1\n      dup1\n      0x02\n      add\n      0x00\n      swap1\n      sload\n      swap1\n      0x0100\n      exp\n      swap1\n      div\n      0xffffffffffffffffffffffffffffffffffffffff\n      and\n      swap1\n      pop\n      dup4\n      jump\t// out\n        /* \"contracts/zapyield-mainnet-beta.0.16.sol\":3785:3885  function getMyId() external view returns (uint256) {... */\n    tag_36:\n        /* \"contracts/zapyield-mainnet-beta.0.16.sol\":3827:3834  uint256 */\n      0x00\n        /* \"contracts/zapyield-mainnet-beta.0.16.sol\":3854:3865  addressToId */\n      0x04\n        /* \"contracts/zapyield-mainnet-beta.0.16.sol\":3854:3877  addressToId[msg.sender] */\n      0x00\n        /* \"contracts/zapyield-mainnet-beta.0.16.sol\":3866:3876  msg.sender */\n      caller\n        /* \"contracts/zapyield-mainnet-beta.0.16.sol\":3854:3877  addressToId[msg.sender] */\n      0xffffffffffffffffffffffffffffffffffffffff\n      and\n      0xffffffffffffffffffffffffffffffffffffffff\n      and\n      dup2\n      mstore\n      0x20\n      add\n      swap1\n      dup2\n      mstore\n      0x20\n      add\n      0x00\n      keccak256\n      sload\n        /* \"contracts/zapyield-mainnet-beta.0.16.sol\":3847:3877  return addressToId[msg.sender] */\n      swap1\n      pop\n        /* \"contracts/zapyield-mainnet-beta.0.16.sol\":3785:3885  function getMyId() external view returns (uint256) {... */\n      swap1\n      jump\t// out\n        /* \"contracts/zapyield-mainnet-beta.0.16.sol\":1393:1439  mapping(uint256 => address) public idToAddress */\n    tag_43:\n      mstore(0x20, 0x03)\n      dup1\n      0x00\n      mstore\n      keccak256(0x00, 0x40)\n      0x00\n      swap2\n      pop\n      sload\n      swap1\n      0x0100\n      exp\n      swap1\n      div\n      0xffffffffffffffffffffffffffffffffffffffff\n      and\n      dup2\n      jump\t// out\n        /* \"contracts/zapyield-mainnet-beta.0.16.sol\":4034:4909  function zapIn(uint256 _amount, uint256 _referrerId) external nonReentrant {... */\n    tag_50:\n        /* \"@openzeppelin/contracts-upgradeable/utils/ReentrancyGuardUpgradeable.sol\":3395:3416  _nonReentrantBefore() */\n      tag_104\n        /* \"@openzeppelin/contracts-upgradeable/utils/ReentrancyGuardUpgradeable.sol\":3395:3414  _nonReentrantBefore */\n      tag_105\n        /* \"@openzeppelin/contracts-upgradeable/utils/ReentrancyGuardUpgradeable.sol\":3395:3416  _nonReentrantBefore() */\n      jump\t// in\n    tag_104:\n        /* \"contracts/zapyield-mainnet-beta.0.16.sol\":4138:4139  0 */\n      0x00\n        /* \"contracts/zapyield-mainnet-beta.0.16.sol\":4128:4135  _amount */\n      dup3\n        /* \"contracts/zapyield-mainnet-beta.0.16.sol\":4128:4139  _amount > 0 */\n      gt\n        /* \"contracts/zapyield-mainnet-beta.0.16.sol\":4120:4170  require(_amount > 0, \"ZapApy: Amount must be > 0\") */\n      tag_107\n      jumpi\n      mload(0x40)\n      0x08c379a000000000000000000000000000000000000000000000000000000000\n      dup2\n      mstore\n      0x04\n      add\n      tag_108\n      swap1\n      tag_109\n      jump\t// in\n    tag_108:\n      mload(0x40)\n      dup1\n      swap2\n      sub\n      swap1\n      revert\n    tag_107:\n        /* \"contracts/zapyield-mainnet-beta.0.16.sol\":4212:4232  address referrerAddr */\n      0x00\n        /* \"contracts/zapyield-mainnet-beta.0.16.sol\":4235:4246  idToAddress */\n      0x03\n        /* \"contracts/zapyield-mainnet-beta.0.16.sol\":4235:4259  idToAddress[_referrerId] */\n      0x00\n        /* \"contracts/zapyield-mainnet-beta.0.16.sol\":4247:4258  _referrerId */\n      dup4\n        /* \"contracts/zapyield-mainnet-beta.0.16.sol\":4235:4259  idToAddress[_referrerId] */\n      dup2\n      mstore\n      0x20\n      add\n      swap1\n      dup2\n      mstore\n      0x20\n      add\n      0x00\n      keccak256\n      0x00\n      swap1\n      sload\n      swap1\n      0x0100\n      exp\n      swap1\n      div\n      0xffffffffffffffffffffffffffffffffffffffff\n      and\n        /* \"contracts/zapyield-mainnet-beta.0.16.sol\":4212:4259  address referrerAddr = idToAddress[_referrerId] */\n      swap1\n      pop\n        /* \"contracts/zapyield-mainnet-beta.0.16.sol\":4298:4299  0 */\n      0x00\n        /* \"contracts/zapyield-mainnet-beta.0.16.sol\":4274:4300  referrerAddr == address(0) */\n      0xffffffffffffffffffffffffffffffffffffffff\n      and\n        /* \"contracts/zapyield-mainnet-beta.0.16.sol\":4274:4286  referrerAddr */\n      dup2\n        /* \"contracts/zapyield-mainnet-beta.0.16.sol\":4274:4300  referrerAddr == address(0) */\n      0xffffffffffffffffffffffffffffffffffffffff\n      and\n      eq\n        /* \"contracts/zapyield-mainnet-beta.0.16.sol\":4274:4330  referrerAddr == address(0) || referrerAddr == msg.sender */\n      dup1\n      tag_110\n      jumpi\n      pop\n        /* \"contracts/zapyield-mainnet-beta.0.16.sol\":4320:4330  msg.sender */\n      caller\n        /* \"contracts/zapyield-mainnet-beta.0.16.sol\":4304:4330  referrerAddr == msg.sender */\n      0xffffffffffffffffffffffffffffffffffffffff\n      and\n        /* \"contracts/zapyield-mainnet-beta.0.16.sol\":4304:4316  referrerAddr */\n      dup2\n        /* \"contracts/zapyield-mainnet-beta.0.16.sol\":4304:4330  referrerAddr == msg.sender */\n      0xffffffffffffffffffffffffffffffffffffffff\n      and\n      eq\n        /* \"contracts/zapyield-mainnet-beta.0.16.sol\":4274:4330  referrerAddr == address(0) || referrerAddr == msg.sender */\n    tag_110:\n        /* \"contracts/zapyield-mainnet-beta.0.16.sol\":4270:4384  if (referrerAddr == address(0) || referrerAddr == msg.sender) {... */\n      iszero\n      tag_111\n      jumpi\n        /* \"contracts/zapyield-mainnet-beta.0.16.sol\":4370:4371  0 */\n      0x00\n        /* \"contracts/zapyield-mainnet-beta.0.16.sol\":4347:4372  referrerAddr = address(0) */\n      swap1\n      pop\n        /* \"contracts/zapyield-mainnet-beta.0.16.sol\":4270:4384  if (referrerAddr == address(0) || referrerAddr == msg.sender) {... */\n    tag_111:\n        /* \"contracts/zapyield-mainnet-beta.0.16.sol\":4396:4417  UserInfo storage user */\n      0x00\n        /* \"contracts/zapyield-mainnet-beta.0.16.sol\":4420:4428  userInfo */\n      0x05\n        /* \"contracts/zapyield-mainnet-beta.0.16.sol\":4420:4440  userInfo[msg.sender] */\n      0x00\n        /* \"contracts/zapyield-mainnet-beta.0.16.sol\":4429:4439  msg.sender */\n      caller\n        /* \"contracts/zapyield-mainnet-beta.0.16.sol\":4420:4440  userInfo[msg.sender] */\n      0xffffffffffffffffffffffffffffffffffffffff\n      and\n      0xffffffffffffffffffffffffffffffffffffffff\n      and\n      dup2\n      mstore\n      0x20\n      add\n      swap1\n      dup2\n      mstore\n      0x20\n      add\n      0x00\n      keccak256\n        /* \"contracts/zapyield-mainnet-beta.0.16.sol\":4396:4440  UserInfo storage user = userInfo[msg.sender] */\n      swap1\n      pop\n        /* \"contracts/zapyield-mainnet-beta.0.16.sol\":4473:4474  0 */\n      0x00\n        /* \"contracts/zapyield-mainnet-beta.0.16.sol\":4455:4459  user */\n      dup2\n        /* \"contracts/zapyield-mainnet-beta.0.16.sol\":4455:4469  user.principal */\n      0x00\n      add\n      sload\n        /* \"contracts/zapyield-mainnet-beta.0.16.sol\":4455:4474  user.principal == 0 */\n      sub\n        /* \"contracts/zapyield-mainnet-beta.0.16.sol\":4451:4531  if (user.principal == 0) {... */\n      tag_112\n      jumpi\n        /* \"contracts/zapyield-mainnet-beta.0.16.sol\":4507:4519  referrerAddr */\n      dup2\n        /* \"contracts/zapyield-mainnet-beta.0.16.sol\":4491:4495  user */\n      dup2\n        /* \"contracts/zapyield-mainnet-beta.0.16.sol\":4491:4504  user.referrer */\n      0x02\n      add\n      0x00\n        /* \"contracts/zapyield-mainnet-beta.0.16.sol\":4491:4519  user.referrer = referrerAddr */\n      0x0100\n      exp\n      dup2\n      sload\n      dup2\n      0xffffffffffffffffffffffffffffffffffffffff\n      mul\n      not\n      and\n      swap1\n      dup4\n      0xffffffffffffffffffffffffffffffffffffffff\n      and\n      mul\n      or\n      swap1\n      sstore\n      pop\n        /* \"contracts/zapyield-mainnet-beta.0.16.sol\":4451:4531  if (user.principal == 0) {... */\n    tag_112:\n        /* \"contracts/zapyield-mainnet-beta.0.16.sol\":4561:4568  _amount */\n      dup4\n        /* \"contracts/zapyield-mainnet-beta.0.16.sol\":4543:4547  user */\n      dup2\n        /* \"contracts/zapyield-mainnet-beta.0.16.sol\":4543:4557  user.principal */\n      0x00\n      add\n      0x00\n        /* \"contracts/zapyield-mainnet-beta.0.16.sol\":4543:4568  user.principal += _amount */\n      dup3\n      dup3\n      sload\n      tag_113\n      swap2\n      swap1\n      tag_114\n      jump\t// in\n    tag_113:\n      swap3\n      pop\n      pop\n      dup2\n      swap1\n      sstore\n      pop\n        /* \"contracts/zapyield-mainnet-beta.0.16.sol\":4598:4613  block.timestamp */\n      timestamp\n        /* \"contracts/zapyield-mainnet-beta.0.16.sol\":4579:4583  user */\n      dup2\n        /* \"contracts/zapyield-mainnet-beta.0.16.sol\":4579:4595  user.depositTime */\n      0x01\n      add\n        /* \"contracts/zapyield-mainnet-beta.0.16.sol\":4579:4613  user.depositTime = block.timestamp */\n      dup2\n      swap1\n      sstore\n      pop\n        /* \"contracts/zapyield-mainnet-beta.0.16.sol\":4657:4719  usdcToken.safeTransferFrom(msg.sender, address(this), _amount) */\n      tag_115\n        /* \"contracts/zapyield-mainnet-beta.0.16.sol\":4684:4694  msg.sender */\n      caller\n        /* \"contracts/zapyield-mainnet-beta.0.16.sol\":4704:4708  this */\n      address\n        /* \"contracts/zapyield-mainnet-beta.0.16.sol\":4711:4718  _amount */\n      dup7\n        /* \"contracts/zapyield-mainnet-beta.0.16.sol\":4657:4666  usdcToken */\n      0x00\n      0x00\n      swap1\n      sload\n      swap1\n      0x0100\n      exp\n      swap1\n      div\n      0xffffffffffffffffffffffffffffffffffffffff\n      and\n        /* \"contracts/zapyield-mainnet-beta.0.16.sol\":4657:4683  usdcToken.safeTransferFrom */\n      0xffffffffffffffffffffffffffffffffffffffff\n      and\n      tag_116\n      swap1\n        /* \"contracts/zapyield-mainnet-beta.0.16.sol\":4657:4719  usdcToken.safeTransferFrom(msg.sender, address(this), _amount) */\n      swap4\n      swap3\n      swap2\n      swap1\n      0xffffffff\n      and\n      jump\t// in\n    tag_115:\n        /* \"contracts/zapyield-mainnet-beta.0.16.sol\":4730:4785  usdcToken.forceApprove(address(moonwellVault), _amount) */\n      tag_117\n        /* \"contracts/zapyield-mainnet-beta.0.16.sol\":4761:4774  moonwellVault */\n      0x01\n      0x00\n      swap1\n      sload\n      swap1\n      0x0100\n      exp\n      swap1\n      div\n      0xffffffffffffffffffffffffffffffffffffffff\n      and\n        /* \"contracts/zapyield-mainnet-beta.0.16.sol\":4777:4784  _amount */\n      dup6\n        /* \"contracts/zapyield-mainnet-beta.0.16.sol\":4730:4739  usdcToken */\n      0x00\n      0x00\n      swap1\n      sload\n      swap1\n      0x0100\n      exp\n      swap1\n      div\n      0xffffffffffffffffffffffffffffffffffffffff\n      and\n        /* \"contracts/zapyield-mainnet-beta.0.16.sol\":4730:4752  usdcToken.forceApprove */\n      0xffffffffffffffffffffffffffffffffffffffff\n      and\n      tag_118\n      swap1\n        /* \"contracts/zapyield-mainnet-beta.0.16.sol\":4730:4785  usdcToken.forceApprove(address(moonwellVault), _amount) */\n      swap3\n      swap2\n      swap1\n      0xffffffff\n      and\n      jump\t// in\n    tag_117:\n        /* \"contracts/zapyield-mainnet-beta.0.16.sol\":4796:4809  moonwellVault */\n      0x01\n      0x00\n      swap1\n      sload\n      swap1\n      0x0100\n      exp\n      swap1\n      div\n      0xffffffffffffffffffffffffffffffffffffffff\n      and\n        /* \"contracts/zapyield-mainnet-beta.0.16.sol\":4796:4817  moonwellVault.deposit */\n      0xffffffffffffffffffffffffffffffffffffffff\n      and\n      0x6e553f65\n        /* \"contracts/zapyield-mainnet-beta.0.16.sol\":4818:4825  _amount */\n      dup6\n        /* \"contracts/zapyield-mainnet-beta.0.16.sol\":4835:4839  this */\n      address\n        /* \"contracts/zapyield-mainnet-beta.0.16.sol\":4796:4841  moonwellVault.deposit(_amount, address(this)) */\n      mload(0x40)\n      dup4\n      0xffffffff\n      and\n      0xe0\n      shl\n      dup2\n      mstore\n      0x04\n      add\n      tag_119\n      swap3\n      swap2\n      swap1\n      tag_120\n      jump\t// in\n    tag_119:\n      0x20\n      mload(0x40)\n      dup1\n      dup4\n      sub\n      dup2\n      0x00\n      dup8\n      gas\n      call\n      iszero\n      dup1\n      iszero\n      tag_122\n      jumpi\n      returndatacopy(0x00, 0x00, returndatasize)\n      revert(0x00, returndatasize)\n    tag_122:\n      pop\n      pop\n      pop\n      pop\n      mload(0x40)\n      returndatasize\n      not(0x1f)\n      0x1f\n      dup3\n      add\n      and\n      dup3\n      add\n      dup1\n      0x40\n      mstore\n      pop\n      dup2\n      add\n      swap1\n      tag_123\n      swap2\n      swap1\n      tag_124\n      jump\t// in\n    tag_123:\n      pop\n        /* \"contracts/zapyield-mainnet-beta.0.16.sol\":4868:4878  msg.sender */\n      caller\n        /* \"contracts/zapyield-mainnet-beta.0.16.sol\":4859:4901  ZappedIn(msg.sender, _amount, _referrerId) */\n      0xffffffffffffffffffffffffffffffffffffffff\n      and\n      0xd2b1037dae85880a8b3da140fdf093c0a4b7f0dca733773cfec6804c2a903bf5\n        /* \"contracts/zapyield-mainnet-beta.0.16.sol\":4880:4887  _amount */\n      dup6\n        /* \"contracts/zapyield-mainnet-beta.0.16.sol\":4889:4900  _referrerId */\n      dup6\n        /* \"contracts/zapyield-mainnet-beta.0.16.sol\":4859:4901  ZappedIn(msg.sender, _amount, _referrerId) */\n      mload(0x40)\n      tag_125\n      swap3\n      swap2\n      swap1\n      tag_126\n      jump\t// in\n    tag_125:\n      mload(0x40)\n      dup1\n      swap2\n      sub\n      swap1\n      log2\n        /* \"contracts/zapyield-mainnet-beta.0.16.sol\":4109:4909  {... */\n      pop\n      pop\n        /* \"@openzeppelin/contracts-upgradeable/utils/ReentrancyGuardUpgradeable.sol\":3437:3457  _nonReentrantAfter() */\n      tag_127\n        /* \"@openzeppelin/contracts-upgradeable/utils/ReentrancyGuardUpgradeable.sol\":3437:3455  _nonReentrantAfter */\n      tag_128\n        /* \"@openzeppelin/contracts-upgradeable/utils/ReentrancyGuardUpgradeable.sol\":3437:3457  _nonReentrantAfter() */\n      jump\t// in\n    tag_127:\n        /* \"contracts/zapyield-mainnet-beta.0.16.sol\":4034:4909  function zapIn(uint256 _amount, uint256 _referrerId) external nonReentrant {... */\n      pop\n      pop\n      jump\t// out\n        /* \"contracts/zapyield-mainnet-beta.0.16.sol\":4917:5889  function withdraw(uint256 _amount) external nonReentrant {... */\n    tag_54:\n        /* \"@openzeppelin/contracts-upgradeable/utils/ReentrancyGuardUpgradeable.sol\":3395:3416  _nonReentrantBefore() */\n      tag_130\n        /* \"@openzeppelin/contracts-upgradeable/utils/ReentrancyGuardUpgradeable.sol\":3395:3414  _nonReentrantBefore */\n      tag_105\n        /* \"@openzeppelin/contracts-upgradeable/utils/ReentrancyGuardUpgradeable.sol\":3395:3416  _nonReentrantBefore() */\n      jump\t// in\n    tag_130:\n        /* \"contracts/zapyield-mainnet-beta.0.16.sol\":4985:5006  UserInfo storage user */\n      0x00\n        /* \"contracts/zapyield-mainnet-beta.0.16.sol\":5009:5017  userInfo */\n      0x05\n        /* \"contracts/zapyield-mainnet-beta.0.16.sol\":5009:5029  userInfo[msg.sender] */\n      0x00\n        /* \"contracts/zapyield-mainnet-beta.0.16.sol\":5018:5028  msg.sender */\n      caller\n        /* \"contracts/zapyield-mainnet-beta.0.16.sol\":5009:5029  userInfo[msg.sender] */\n      0xffffffffffffffffffffffffffffffffffffffff\n      and\n      0xffffffffffffffffffffffffffffffffffffffff\n      and\n      dup2\n      mstore\n      0x20\n      add\n      swap1\n      dup2\n      mstore\n      0x20\n      add\n      0x00\n      keccak256\n        /* \"contracts/zapyield-mainnet-beta.0.16.sol\":4985:5029  UserInfo storage user = userInfo[msg.sender] */\n      swap1\n      pop\n        /* \"contracts/zapyield-mainnet-beta.0.16.sol\":5066:5073  _amount */\n      dup2\n        /* \"contracts/zapyield-mainnet-beta.0.16.sol\":5048:5052  user */\n      dup2\n        /* \"contracts/zapyield-mainnet-beta.0.16.sol\":5048:5062  user.principal */\n      0x00\n      add\n      sload\n        /* \"contracts/zapyield-mainnet-beta.0.16.sol\":5048:5073  user.principal >= _amount */\n      lt\n      iszero\n        /* \"contracts/zapyield-mainnet-beta.0.16.sol\":5040:5106  require(user.principal >= _amount, \"ZapApy: Insufficient balance\") */\n      tag_132\n      jumpi\n      mload(0x40)\n      0x08c379a000000000000000000000000000000000000000000000000000000000\n      dup2\n      mstore\n      0x04\n      add\n      tag_133\n      swap1\n      tag_134\n      jump\t// in\n    tag_133:\n      mload(0x40)\n      dup1\n      swap2\n      sub\n      swap1\n      revert\n    tag_132:\n        /* \"contracts/zapyield-mainnet-beta.0.16.sol\":5166:5181  uint256 penalty */\n      0x00\n        /* \"contracts/zapyield-mainnet-beta.0.16.sol\":5184:5185  0 */\n      0x00\n        /* \"contracts/zapyield-mainnet-beta.0.16.sol\":5166:5185  uint256 penalty = 0 */\n      swap1\n      pop\n        /* \"contracts/zapyield-mainnet-beta.0.16.sol\":5237:5245  76 hours */\n      0x042cc0\n        /* \"contracts/zapyield-mainnet-beta.0.16.sol\":5218:5222  user */\n      dup3\n        /* \"contracts/zapyield-mainnet-beta.0.16.sol\":5218:5234  user.depositTime */\n      0x01\n      add\n      sload\n        /* \"contracts/zapyield-mainnet-beta.0.16.sol\":5218:5245  user.depositTime + 76 hours */\n      tag_135\n      swap2\n      swap1\n      tag_114\n      jump\t// in\n    tag_135:\n        /* \"contracts/zapyield-mainnet-beta.0.16.sol\":5200:5215  block.timestamp */\n      timestamp\n        /* \"contracts/zapyield-mainnet-beta.0.16.sol\":5200:5245  block.timestamp < user.depositTime + 76 hours */\n      lt\n        /* \"contracts/zapyield-mainnet-beta.0.16.sol\":5196:5307  if (block.timestamp < user.depositTime + 76 hours) {... */\n      iszero\n      tag_136\n      jumpi\n        /* \"contracts/zapyield-mainnet-beta.0.16.sol\":5290:5295  10000 */\n      0x2710\n        /* \"contracts/zapyield-mainnet-beta.0.16.sol\":5283:5286  100 */\n      0x64\n        /* \"contracts/zapyield-mainnet-beta.0.16.sol\":5273:5280  _amount */\n      dup5\n        /* \"contracts/zapyield-mainnet-beta.0.16.sol\":5273:5286  _amount * 100 */\n      tag_137\n      swap2\n      swap1\n      tag_138\n      jump\t// in\n    tag_137:\n        /* \"contracts/zapyield-mainnet-beta.0.16.sol\":5272:5295  (_amount * 100) / 10000 */\n      tag_139\n      swap2\n      swap1\n      tag_140\n      jump\t// in\n    tag_139:\n        /* \"contracts/zapyield-mainnet-beta.0.16.sol\":5262:5295  penalty = (_amount * 100) / 10000 */\n      swap1\n      pop\n        /* \"contracts/zapyield-mainnet-beta.0.16.sol\":5196:5307  if (block.timestamp < user.depositTime + 76 hours) {... */\n    tag_136:\n        /* \"contracts/zapyield-mainnet-beta.0.16.sol\":5317:5343  uint256 amountAfterPenalty */\n      0x00\n        /* \"contracts/zapyield-mainnet-beta.0.16.sol\":5356:5363  penalty */\n      dup2\n        /* \"contracts/zapyield-mainnet-beta.0.16.sol\":5346:5353  _amount */\n      dup5\n        /* \"contracts/zapyield-mainnet-beta.0.16.sol\":5346:5363  _amount - penalty */\n      tag_141\n      swap2\n      swap1\n      tag_142\n      jump\t// in\n    tag_141:\n        /* \"contracts/zapyield-mainnet-beta.0.16.sol\":5317:5363  uint256 amountAfterPenalty = _amount - penalty */\n      swap1\n      pop\n        /* \"contracts/zapyield-mainnet-beta.0.16.sol\":5463:5476  moonwellVault */\n      0x01\n      0x00\n      swap1\n      sload\n      swap1\n      0x0100\n      exp\n      swap1\n      div\n      0xffffffffffffffffffffffffffffffffffffffff\n      and\n        /* \"contracts/zapyield-mainnet-beta.0.16.sol\":5463:5485  moonwellVault.withdraw */\n      0xffffffffffffffffffffffffffffffffffffffff\n      and\n      0xb460af94\n        /* \"contracts/zapyield-mainnet-beta.0.16.sol\":5486:5493  _amount */\n      dup6\n        /* \"contracts/zapyield-mainnet-beta.0.16.sol\":5503:5507  this */\n      address\n        /* \"contracts/zapyield-mainnet-beta.0.16.sol\":5518:5522  this */\n      address\n        /* \"contracts/zapyield-mainnet-beta.0.16.sol\":5463:5524  moonwellVault.withdraw(_amount, address(this), address(this)) */\n      mload(0x40)\n      dup5\n      0xffffffff\n      and\n      0xe0\n      shl\n      dup2\n      mstore\n      0x04\n      add\n      tag_143\n      swap4\n      swap3\n      swap2\n      swap1\n      tag_144\n      jump\t// in\n    tag_143:\n      0x20\n      mload(0x40)\n      dup1\n      dup4\n      sub\n      dup2\n      0x00\n      dup8\n      gas\n      call\n      iszero\n      dup1\n      iszero\n      tag_146\n      jumpi\n      returndatacopy(0x00, 0x00, returndatasize)\n      revert(0x00, returndatasize)\n    tag_146:\n      pop\n      pop\n      pop\n      pop\n      mload(0x40)\n      returndatasize\n      not(0x1f)\n      0x1f\n      dup3\n      add\n      and\n      dup3\n      add\n      dup1\n      0x40\n      mstore\n      pop\n      dup2\n      add\n      swap1\n      tag_147\n      swap2\n      swap1\n      tag_124\n      jump\t// in\n    tag_147:\n      pop\n        /* \"contracts/zapyield-mainnet-beta.0.16.sol\":5726:5780  usdcToken.safeTransfer(msg.sender, amountAfterPenalty) */\n      tag_148\n        /* \"contracts/zapyield-mainnet-beta.0.16.sol\":5749:5759  msg.sender */\n      caller\n        /* \"contracts/zapyield-mainnet-beta.0.16.sol\":5761:5779  amountAfterPenalty */\n      dup3\n        /* \"contracts/zapyield-mainnet-beta.0.16.sol\":5726:5735  usdcToken */\n      0x00\n      0x00\n      swap1\n      sload\n      swap1\n      0x0100\n      exp\n      swap1\n      div\n      0xffffffffffffffffffffffffffffffffffffffff\n      and\n        /* \"contracts/zapyield-mainnet-beta.0.16.sol\":5726:5748  usdcToken.safeTransfer */\n      0xffffffffffffffffffffffffffffffffffffffff\n      and\n      tag_149\n      swap1\n        /* \"contracts/zapyield-mainnet-beta.0.16.sol\":5726:5780  usdcToken.safeTransfer(msg.sender, amountAfterPenalty) */\n      swap3\n      swap2\n      swap1\n      0xffffffff\n      and\n      jump\t// in\n    tag_148:\n        /* \"contracts/zapyield-mainnet-beta.0.16.sol\":5809:5816  _amount */\n      dup4\n        /* \"contracts/zapyield-mainnet-beta.0.16.sol\":5791:5795  user */\n      dup4\n        /* \"contracts/zapyield-mainnet-beta.0.16.sol\":5791:5805  user.principal */\n      0x00\n      add\n      0x00\n        /* \"contracts/zapyield-mainnet-beta.0.16.sol\":5791:5816  user.principal -= _amount */\n      dup3\n      dup3\n      sload\n      tag_150\n      swap2\n      swap1\n      tag_142\n      jump\t// in\n    tag_150:\n      swap3\n      pop\n      pop\n      dup2\n      swap1\n      sstore\n      pop\n        /* \"contracts/zapyield-mainnet-beta.0.16.sol\":5852:5862  msg.sender */\n      caller\n        /* \"contracts/zapyield-mainnet-beta.0.16.sol\":5842:5881  Withdrawn(msg.sender, _amount, penalty) */\n      0xffffffffffffffffffffffffffffffffffffffff\n      and\n      0x92ccf450a286a957af52509bc1c9939d1a6a481783e142e41e2499f0bb66ebc6\n        /* \"contracts/zapyield-mainnet-beta.0.16.sol\":5864:5871  _amount */\n      dup6\n        /* \"contracts/zapyield-mainnet-beta.0.16.sol\":5873:5880  penalty */\n      dup5\n        /* \"contracts/zapyield-mainnet-beta.0.16.sol\":5842:5881  Withdrawn(msg.sender, _amount, penalty) */\n      mload(0x40)\n      tag_151\n      swap3\n      swap2\n      swap1\n      tag_126\n      jump\t// in\n    tag_151:\n      mload(0x40)\n      dup1\n      swap2\n      sub\n      swap1\n      log2\n        /* \"contracts/zapyield-mainnet-beta.0.16.sol\":4974:5889  {... */\n      pop\n      pop\n      pop\n        /* \"@openzeppelin/contracts-upgradeable/utils/ReentrancyGuardUpgradeable.sol\":3437:3457  _nonReentrantAfter() */\n      tag_152\n        /* \"@openzeppelin/contracts-upgradeable/utils/ReentrancyGuardUpgradeable.sol\":3437:3455  _nonReentrantAfter */\n      tag_128\n        /* \"@openzeppelin/contracts-upgradeable/utils/ReentrancyGuardUpgradeable.sol\":3437:3457  _nonReentrantAfter() */\n      jump\t// in\n    tag_152:\n        /* \"contracts/zapyield-mainnet-beta.0.16.sol\":4917:5889  function withdraw(uint256 _amount) external nonReentrant {... */\n      pop\n      jump\t// out\n        /* \"contracts/zapyield-mainnet-beta.0.16.sol\":2553:2924  function initialize(address _usdc, address _vault) public initializer {... */\n    tag_59:\n        /* \"@openzeppelin/contracts-upgradeable/proxy/utils/Initializable.sol\":4158:4188  InitializableStorage storage $ */\n      0x00\n        /* \"@openzeppelin/contracts-upgradeable/proxy/utils/Initializable.sol\":4191:4217  _getInitializableStorage() */\n      tag_154\n        /* \"@openzeppelin/contracts-upgradeable/proxy/utils/Initializable.sol\":4191:4215  _getInitializableStorage */\n      tag_155\n        /* \"@openzeppelin/contracts-upgradeable/proxy/utils/Initializable.sol\":4191:4217  _getInitializableStorage() */\n      jump\t// in\n    tag_154:\n        /* \"@openzeppelin/contracts-upgradeable/proxy/utils/Initializable.sol\":4158:4217  InitializableStorage storage $ = _getInitializableStorage() */\n      swap1\n      pop\n        /* \"@openzeppelin/contracts-upgradeable/proxy/utils/Initializable.sol\":4279:4298  bool isTopLevelCall */\n      0x00\n        /* \"@openzeppelin/contracts-upgradeable/proxy/utils/Initializable.sol\":4302:4303  $ */\n      dup2\n        /* \"@openzeppelin/contracts-upgradeable/proxy/utils/Initializable.sol\":4302:4317  $._initializing */\n      0x00\n      add\n      0x08\n      swap1\n      sload\n      swap1\n      0x0100\n      exp\n      swap1\n      div\n      0xff\n      and\n        /* \"@openzeppelin/contracts-upgradeable/proxy/utils/Initializable.sol\":4301:4317  !$._initializing */\n      iszero\n        /* \"@openzeppelin/contracts-upgradeable/proxy/utils/Initializable.sol\":4279:4317  bool isTopLevelCall = !$._initializing */\n      swap1\n      pop\n        /* \"@openzeppelin/contracts-upgradeable/proxy/utils/Initializable.sol\":4327:4345  uint64 initialized */\n      0x00\n        /* \"@openzeppelin/contracts-upgradeable/proxy/utils/Initializable.sol\":4348:4349  $ */\n      dup3\n        /* \"@openzeppelin/contracts-upgradeable/proxy/utils/Initializable.sol\":4348:4362  $._initialized */\n      0x00\n      add\n      0x00\n      swap1\n      sload\n      swap1\n      0x0100\n      exp\n      swap1\n      div\n      0xffffffffffffffff\n      and\n        /* \"@openzeppelin/contracts-upgradeable/proxy/utils/Initializable.sol\":4327:4362  uint64 initialized = $._initialized */\n      swap1\n      pop\n        /* \"@openzeppelin/contracts-upgradeable/proxy/utils/Initializable.sol\":4704:4721  bool initialSetup */\n      0x00\n        /* \"@openzeppelin/contracts-upgradeable/proxy/utils/Initializable.sol\":4739:4740  0 */\n      0x00\n        /* \"@openzeppelin/contracts-upgradeable/proxy/utils/Initializable.sol\":4724:4735  initialized */\n      dup3\n        /* \"@openzeppelin/contracts-upgradeable/proxy/utils/Initializable.sol\":4724:4740  initialized == 0 */\n      0xffffffffffffffff\n      and\n      eq\n        /* \"@openzeppelin/contracts-upgradeable/proxy/utils/Initializable.sol\":4724:4758  initialized == 0 && isTopLevelCall */\n      dup1\n      iszero\n      tag_156\n      jumpi\n      pop\n        /* \"@openzeppelin/contracts-upgradeable/proxy/utils/Initializable.sol\":4744:4758  isTopLevelCall */\n      dup3\n        /* \"@openzeppelin/contracts-upgradeable/proxy/utils/Initializable.sol\":4724:4758  initialized == 0 && isTopLevelCall */\n    tag_156:\n        /* \"@openzeppelin/contracts-upgradeable/proxy/utils/Initializable.sol\":4704:4758  bool initialSetup = initialized == 0 && isTopLevelCall */\n      swap1\n      pop\n        /* \"@openzeppelin/contracts-upgradeable/proxy/utils/Initializable.sol\":4768:4785  bool construction */\n      0x00\n        /* \"@openzeppelin/contracts-upgradeable/proxy/utils/Initializable.sol\":4803:4804  1 */\n      0x01\n        /* \"@openzeppelin/contracts-upgradeable/proxy/utils/Initializable.sol\":4788:4799  initialized */\n      dup4\n        /* \"@openzeppelin/contracts-upgradeable/proxy/utils/Initializable.sol\":4788:4804  initialized == 1 */\n      0xffffffffffffffff\n      and\n      eq\n        /* \"@openzeppelin/contracts-upgradeable/proxy/utils/Initializable.sol\":4788:4838  initialized == 1 && address(this).code.length == 0 */\n      dup1\n      iszero\n      tag_157\n      jumpi\n      pop\n        /* \"@openzeppelin/contracts-upgradeable/proxy/utils/Initializable.sol\":4837:4838  0 */\n      0x00\n        /* \"@openzeppelin/contracts-upgradeable/proxy/utils/Initializable.sol\":4816:4820  this */\n      address\n        /* \"@openzeppelin/contracts-upgradeable/proxy/utils/Initializable.sol\":4808:4833  address(this).code.length */\n      0xffffffffffffffffffffffffffffffffffffffff\n      and\n      extcodesize\n        /* \"@openzeppelin/contracts-upgradeable/proxy/utils/Initializable.sol\":4808:4838  address(this).code.length == 0 */\n      eq\n        /* \"@openzeppelin/contracts-upgradeable/proxy/utils/Initializable.sol\":4788:4838  initialized == 1 && address(this).code.length == 0 */\n    tag_157:\n        /* \"@openzeppelin/contracts-upgradeable/proxy/utils/Initializable.sol\":4768:4838  bool construction = initialized == 1 && address(this).code.length == 0 */\n      swap1\n      pop\n        /* \"@openzeppelin/contracts-upgradeable/proxy/utils/Initializable.sol\":4854:4866  initialSetup */\n      dup2\n        /* \"@openzeppelin/contracts-upgradeable/proxy/utils/Initializable.sol\":4853:4866  !initialSetup */\n      iszero\n        /* \"@openzeppelin/contracts-upgradeable/proxy/utils/Initializable.sol\":4853:4883  !initialSetup && !construction */\n      dup1\n      iszero\n      tag_158\n      jumpi\n      pop\n        /* \"@openzeppelin/contracts-upgradeable/proxy/utils/Initializable.sol\":4871:4883  construction */\n      dup1\n        /* \"@openzeppelin/contracts-upgradeable/proxy/utils/Initializable.sol\":4870:4883  !construction */\n      iszero\n        /* \"@openzeppelin/contracts-upgradeable/proxy/utils/Initializable.sol\":4853:4883  !initialSetup && !construction */\n    tag_158:\n        /* \"@openzeppelin/contracts-upgradeable/proxy/utils/Initializable.sol\":4849:4940  if (!initialSetup && !construction) {... */\n      iszero\n      tag_159\n      jumpi\n        /* \"@openzeppelin/contracts-upgradeable/proxy/utils/Initializable.sol\":4906:4929  InvalidInitialization() */\n      mload(0x40)\n      0xf92ee8a900000000000000000000000000000000000000000000000000000000\n      dup2\n      mstore\n      0x04\n      add\n      mload(0x40)\n      dup1\n      swap2\n      sub\n      swap1\n      revert\n        /* \"@openzeppelin/contracts-upgradeable/proxy/utils/Initializable.sol\":4849:4940  if (!initialSetup && !construction) {... */\n    tag_159:\n        /* \"@openzeppelin/contracts-upgradeable/proxy/utils/Initializable.sol\":4966:4967  1 */\n      0x01\n        /* \"@openzeppelin/contracts-upgradeable/proxy/utils/Initializable.sol\":4949:4950  $ */\n      dup6\n        /* \"@openzeppelin/contracts-upgradeable/proxy/utils/Initializable.sol\":4949:4963  $._initialized */\n      0x00\n      add\n      0x00\n        /* \"@openzeppelin/contracts-upgradeable/proxy/utils/Initializable.sol\":4949:4967  $._initialized = 1 */\n      0x0100\n      exp\n      dup2\n      sload\n      dup2\n      0xffffffffffffffff\n      mul\n      not\n      and\n      swap1\n      dup4\n      0xffffffffffffffff\n      and\n      mul\n      or\n      swap1\n      sstore\n      pop\n        /* \"@openzeppelin/contracts-upgradeable/proxy/utils/Initializable.sol\":4981:4995  isTopLevelCall */\n      dup4\n        /* \"@openzeppelin/contracts-upgradeable/proxy/utils/Initializable.sol\":4977:5044  if (isTopLevelCall) {... */\n      iszero\n      tag_160\n      jumpi\n        /* \"@openzeppelin/contracts-upgradeable/proxy/utils/Initializable.sol\":5029:5033  true */\n      0x01\n        /* \"@openzeppelin/contracts-upgradeable/proxy/utils/Initializable.sol\":5011:5012  $ */\n      dup6\n        /* \"@openzeppelin/contracts-upgradeable/proxy/utils/Initializable.sol\":5011:5026  $._initializing */\n      0x00\n      add\n      0x08\n        /* \"@openzeppelin/contracts-upgradeable/proxy/utils/Initializable.sol\":5011:5033  $._initializing = true */\n      0x0100\n      exp\n      dup2\n      sload\n      dup2\n      0xff\n      mul\n      not\n      and\n      swap1\n      dup4\n      iszero\n      iszero\n      mul\n      or\n      swap1\n      sstore\n      pop\n        /* \"@openzeppelin/contracts-upgradeable/proxy/utils/Initializable.sol\":4977:5044  if (isTopLevelCall) {... */\n    tag_160:\n        /* \"contracts/zapyield-mainnet-beta.0.16.sol\":2634:2660  __Ownable_init(msg.sender) */\n      tag_162\n        /* \"contracts/zapyield-mainnet-beta.0.16.sol\":2649:2659  msg.sender */\n      caller\n        /* \"contracts/zapyield-mainnet-beta.0.16.sol\":2634:2648  __Ownable_init */\n      tag_163\n        /* \"contracts/zapyield-mainnet-beta.0.16.sol\":2634:2660  __Ownable_init(msg.sender) */\n      jump\t// in\n    tag_162:\n        /* \"contracts/zapyield-mainnet-beta.0.16.sol\":2671:2695  __ReentrancyGuard_init() */\n      tag_164\n        /* \"contracts/zapyield-mainnet-beta.0.16.sol\":2671:2693  __ReentrancyGuard_init */\n      tag_165\n        /* \"contracts/zapyield-mainnet-beta.0.16.sol\":2671:2695  __ReentrancyGuard_init() */\n      jump\t// in\n    tag_164:\n        /* \"contracts/zapyield-mainnet-beta.0.16.sol\":2706:2730  __UUPSUpgradeable_init() */\n      tag_166\n        /* \"contracts/zapyield-mainnet-beta.0.16.sol\":2706:2728  __UUPSUpgradeable_init */\n      tag_167\n        /* \"contracts/zapyield-mainnet-beta.0.16.sol\":2706:2730  __UUPSUpgradeable_init() */\n      jump\t// in\n    tag_166:\n        /* \"contracts/zapyield-mainnet-beta.0.16.sol\":2781:2786  _usdc */\n      dup7\n        /* \"contracts/zapyield-mainnet-beta.0.16.sol\":2751:2760  usdcToken */\n      0x00\n      0x00\n        /* \"contracts/zapyield-mainnet-beta.0.16.sol\":2751:2787  usdcToken = IERC20Upgradeable(_usdc) */\n      0x0100\n      exp\n      dup2\n      sload\n      dup2\n      0xffffffffffffffffffffffffffffffffffffffff\n      mul\n      not\n      and\n      swap1\n      dup4\n      0xffffffffffffffffffffffffffffffffffffffff\n      and\n      mul\n      or\n      swap1\n      sstore\n      pop\n        /* \"contracts/zapyield-mainnet-beta.0.16.sol\":2827:2833  _vault */\n      dup6\n        /* \"contracts/zapyield-mainnet-beta.0.16.sol\":2798:2811  moonwellVault */\n      0x01\n      0x00\n        /* \"contracts/zapyield-mainnet-beta.0.16.sol\":2798:2834  moonwellVault = IMorphoVault(_vault) */\n      0x0100\n      exp\n      dup2\n      sload\n      dup2\n      0xffffffffffffffffffffffffffffffffffffffff\n      mul\n      not\n      and\n      swap1\n      dup4\n      0xffffffffffffffffffffffffffffffffffffffff\n      and\n      mul\n      or\n      swap1\n      sstore\n      pop\n        /* \"contracts/zapyield-mainnet-beta.0.16.sol\":2912:2916  1000 */\n      0x03e8\n        /* \"contracts/zapyield-mainnet-beta.0.16.sol\":2895:2909  nextReferralId */\n      0x02\n        /* \"contracts/zapyield-mainnet-beta.0.16.sol\":2895:2916  nextReferralId = 1000 */\n      dup2\n      swap1\n      sstore\n      pop\n        /* \"@openzeppelin/contracts-upgradeable/proxy/utils/Initializable.sol\":5068:5082  isTopLevelCall */\n      dup4\n        /* \"@openzeppelin/contracts-upgradeable/proxy/utils/Initializable.sol\":5064:5165  if (isTopLevelCall) {... */\n      iszero\n      tag_168\n      jumpi\n        /* \"@openzeppelin/contracts-upgradeable/proxy/utils/Initializable.sol\":5116:5121  false */\n      0x00\n        /* \"@openzeppelin/contracts-upgradeable/proxy/utils/Initializable.sol\":5098:5099  $ */\n      dup6\n        /* \"@openzeppelin/contracts-upgradeable/proxy/utils/Initializable.sol\":5098:5113  $._initializing */\n      0x00\n      add\n      0x08\n        /* \"@openzeppelin/contracts-upgradeable/proxy/utils/Initializable.sol\":5098:5121  $._initializing = false */\n      0x0100\n      exp\n      dup2\n      sload\n      dup2\n      0xff\n      mul\n      not\n      and\n      swap1\n      dup4\n      iszero\n      iszero\n      mul\n      or\n      swap1\n      sstore\n      pop\n        /* \"@openzeppelin/contracts-upgradeable/proxy/utils/Initializable.sol\":5140:5154  Initialized(1) */\n      0xc7f505b2f371ae2175ee4913f4499e1f2633a7b5936321eed1cdaeb6115181d2\n        /* \"@openzeppelin/contracts-upgradeable/proxy/utils/Initializable.sol\":5152:5153  1 */\n      0x01\n        /* \"@openzeppelin/contracts-upgradeable/proxy/utils/Initializable.sol\":5140:5154  Initialized(1) */\n      mload(0x40)\n      tag_169\n      swap2\n      swap1\n      tag_170\n      jump\t// in\n    tag_169:\n      mload(0x40)\n      dup1\n      swap2\n      sub\n      swap1\n      log1\n        /* \"@openzeppelin/contracts-upgradeable/proxy/utils/Initializable.sol\":5064:5165  if (isTopLevelCall) {... */\n    tag_168:\n        /* \"@openzeppelin/contracts-upgradeable/proxy/utils/Initializable.sol\":4092:5171  {... */\n      pop\n      pop\n      pop\n      pop\n      pop\n        /* \"contracts/zapyield-mainnet-beta.0.16.sol\":2553:2924  function initialize(address _usdc, address _vault) public initializer {... */\n      pop\n      pop\n      jump\t// out\n        /* \"@openzeppelin/contracts-upgradeable/proxy/utils/UUPSUpgradeable.sol\":4161:4375  function upgradeToAndCall(address newImplementation, bytes memory data) public payable virtual onlyProxy {... */\n    tag_63:\n        /* \"@openzeppelin/contracts-upgradeable/proxy/utils/UUPSUpgradeable.sol\":2655:2668  _checkProxy() */\n      tag_172\n        /* \"@openzeppelin/contracts-upgradeable/proxy/utils/UUPSUpgradeable.sol\":2655:2666  _checkProxy */\n      tag_173\n        /* \"@openzeppelin/contracts-upgradeable/proxy/utils/UUPSUpgradeable.sol\":2655:2668  _checkProxy() */\n      jump\t// in\n    tag_172:\n        /* \"@openzeppelin/contracts-upgradeable/proxy/utils/UUPSUpgradeable.sol\":4276:4312  _authorizeUpgrade(newImplementation) */\n      tag_175\n        /* \"@openzeppelin/contracts-upgradeable/proxy/utils/UUPSUpgradeable.sol\":4294:4311  newImplementation */\n      dup3\n        /* \"@openzeppelin/contracts-upgradeable/proxy/utils/UUPSUpgradeable.sol\":4276:4293  _authorizeUpgrade */\n      tag_176\n        /* \"@openzeppelin/contracts-upgradeable/proxy/utils/UUPSUpgradeable.sol\":4276:4312  _authorizeUpgrade(newImplementation) */\n      jump\t// in\n    tag_175:\n        /* \"@openzeppelin/contracts-upgradeable/proxy/utils/UUPSUpgradeable.sol\":4322:4368  _upgradeToAndCallUUPS(newImplementation, data) */\n      tag_177\n        /* \"@openzeppelin/contracts-upgradeable/proxy/utils/UUPSUpgradeable.sol\":4344:4361  newImplementation */\n      dup3\n        /* \"@openzeppelin/contracts-upgradeable/proxy/utils/UUPSUpgradeable.sol\":4363:4367  data */\n      dup3\n        /* \"@openzeppelin/contracts-upgradeable/proxy/utils/UUPSUpgradeable.sol\":4322:4343  _upgradeToAndCallUUPS */\n      tag_178\n        /* \"@openzeppelin/contracts-upgradeable/proxy/utils/UUPSUpgradeable.sol\":4322:4368  _upgradeToAndCallUUPS(newImplementation, data) */\n      jump\t// in\n    tag_177:\n        /* \"@openzeppelin/contracts-upgradeable/proxy/utils/UUPSUpgradeable.sol\":4161:4375  function upgradeToAndCall(address newImplementation, bytes memory data) public payable virtual onlyProxy {... */\n      pop\n      pop\n      jump\t// out\n        /* \"@openzeppelin/contracts-upgradeable/proxy/utils/UUPSUpgradeable.sol\":3708:3842  function proxiableUUID() external view virtual notDelegated returns (bytes32) {... */\n    tag_66:\n        /* \"@openzeppelin/contracts-upgradeable/proxy/utils/UUPSUpgradeable.sol\":3777:3784  bytes32 */\n      0x00\n        /* \"@openzeppelin/contracts-upgradeable/proxy/utils/UUPSUpgradeable.sol\":2926:2946  _checkNotDelegated() */\n      tag_180\n        /* \"@openzeppelin/contracts-upgradeable/proxy/utils/UUPSUpgradeable.sol\":2926:2944  _checkNotDelegated */\n      tag_181\n        /* \"@openzeppelin/contracts-upgradeable/proxy/utils/UUPSUpgradeable.sol\":2926:2946  _checkNotDelegated() */\n      jump\t// in\n    tag_180:\n        /* \"@openzeppelin/contracts/proxy/ERC1967/ERC1967Utils.sol\":811:877  0x360894a13ba1a3210667c828492db98dca3e2076cc3735a920a3ca505d382bbc */\n      0x360894a13ba1a3210667c828492db98dca3e2076cc3735a920a3ca505d382bbc\n        /* \"@openzeppelin/contracts-upgradeable/proxy/utils/UUPSUpgradeable.sol\":3803:3835  ERC1967Utils.IMPLEMENTATION_SLOT */\n      0x00\n      shl\n        /* \"@openzeppelin/contracts-upgradeable/proxy/utils/UUPSUpgradeable.sol\":3796:3835  return ERC1967Utils.IMPLEMENTATION_SLOT */\n      swap1\n      pop\n        /* \"@openzeppelin/contracts-upgradeable/proxy/utils/UUPSUpgradeable.sol\":3708:3842  function proxiableUUID() external view virtual notDelegated returns (bytes32) {... */\n      swap1\n      jump\t// out\n        /* \"@openzeppelin/contracts-upgradeable/access/OwnableUpgradeable.sol\":3155:3256  function renounceOwnership() public virtual onlyOwner {... */\n    tag_71:\n        /* \"@openzeppelin/contracts-upgradeable/access/OwnableUpgradeable.sol\":2334:2347  _checkOwner() */\n      tag_184\n        /* \"@openzeppelin/contracts-upgradeable/access/OwnableUpgradeable.sol\":2334:2345  _checkOwner */\n      tag_185\n        /* \"@openzeppelin/contracts-upgradeable/access/OwnableUpgradeable.sol\":2334:2347  _checkOwner() */\n      jump\t// in\n    tag_184:\n        /* \"@openzeppelin/contracts-upgradeable/access/OwnableUpgradeable.sol\":3219:3249  _transferOwnership(address(0)) */\n      tag_187\n        /* \"@openzeppelin/contracts-upgradeable/access/OwnableUpgradeable.sol\":3246:3247  0 */\n      0x00\n        /* \"@openzeppelin/contracts-upgradeable/access/OwnableUpgradeable.sol\":3219:3237  _transferOwnership */\n      tag_188\n        /* \"@openzeppelin/contracts-upgradeable/access/OwnableUpgradeable.sol\":3219:3249  _transferOwnership(address(0)) */\n      jump\t// in\n    tag_187:\n        /* \"@openzeppelin/contracts-upgradeable/access/OwnableUpgradeable.sol\":3155:3256  function renounceOwnership() public virtual onlyOwner {... */\n      jump\t// out\n        /* \"contracts/zapyield-mainnet-beta.0.16.sol\":3402:3773  function createReferralId() external {... */\n    tag_74:\n        /* \"contracts/zapyield-mainnet-beta.0.16.sol\":3485:3486  0 */\n      0x00\n        /* \"contracts/zapyield-mainnet-beta.0.16.sol\":3458:3469  addressToId */\n      0x04\n        /* \"contracts/zapyield-mainnet-beta.0.16.sol\":3458:3481  addressToId[msg.sender] */\n      0x00\n        /* \"contracts/zapyield-mainnet-beta.0.16.sol\":3470:3480  msg.sender */\n      caller\n        /* \"contracts/zapyield-mainnet-beta.0.16.sol\":3458:3481  addressToId[msg.sender] */\n      0xffffffffffffffffffffffffffffffffffffffff\n      and\n      0xffffffffffffffffffffffffffffffffffffffff\n      and\n      dup2\n      mstore\n      0x20\n      add\n      swap1\n      dup2\n      mstore\n      0x20\n      add\n      0x00\n      keccak256\n      sload\n        /* \"contracts/zapyield-mainnet-beta.0.16.sol\":3458:3486  addressToId[msg.sender] == 0 */\n      eq\n        /* \"contracts/zapyield-mainnet-beta.0.16.sol\":3450:3521  require(addressToId[msg.sender] == 0, \"ZapApy: You already have an ID\") */\n      tag_190\n      jumpi\n      mload(0x40)\n      0x08c379a000000000000000000000000000000000000000000000000000000000\n      dup2\n      mstore\n      0x04\n      add\n      tag_191\n      swap1\n      tag_192\n      jump\t// in\n    tag_191:\n      mload(0x40)\n      dup1\n      swap2\n      sub\n      swap1\n      revert\n    tag_190:\n        /* \"contracts/zapyield-mainnet-beta.0.16.sol\":3542:3555  uint256 newId */\n      0x00\n        /* \"contracts/zapyield-mainnet-beta.0.16.sol\":3558:3572  nextReferralId */\n      sload(0x02)\n        /* \"contracts/zapyield-mainnet-beta.0.16.sol\":3542:3572  uint256 newId = nextReferralId */\n      swap1\n      pop\n        /* \"contracts/zapyield-mainnet-beta.0.16.sol\":3614:3624  msg.sender */\n      caller\n        /* \"contracts/zapyield-mainnet-beta.0.16.sol\":3593:3604  idToAddress */\n      0x03\n        /* \"contracts/zapyield-mainnet-beta.0.16.sol\":3593:3611  idToAddress[newId] */\n      0x00\n        /* \"contracts/zapyield-mainnet-beta.0.16.sol\":3605:3610  newId */\n      dup4\n        /* \"contracts/zapyield-mainnet-beta.0.16.sol\":3593:3611  idToAddress[newId] */\n      dup2\n      mstore\n      0x20\n      add\n      swap1\n      dup2\n      mstore\n      0x20\n      add\n      0x00\n      keccak256\n      0x00\n        /* \"contracts/zapyield-mainnet-beta.0.16.sol\":3593:3624  idToAddress[newId] = msg.sender */\n      0x0100\n      exp\n      dup2\n      sload\n      dup2\n      0xffffffffffffffffffffffffffffffffffffffff\n      mul\n      not\n      and\n      swap1\n      dup4\n      0xffffffffffffffffffffffffffffffffffffffff\n      and\n      mul\n      or\n      swap1\n      sstore\n      pop\n        /* \"contracts/zapyield-mainnet-beta.0.16.sol\":3661:3666  newId */\n      dup1\n        /* \"contracts/zapyield-mainnet-beta.0.16.sol\":3635:3646  addressToId */\n      0x04\n        /* \"contracts/zapyield-mainnet-beta.0.16.sol\":3635:3658  addressToId[msg.sender] */\n      0x00\n        /* \"contracts/zapyield-mainnet-beta.0.16.sol\":3647:3657  msg.sender */\n      caller\n        /* \"contracts/zapyield-mainnet-beta.0.16.sol\":3635:3658  addressToId[msg.sender] */\n      0xffffffffffffffffffffffffffffffffffffffff\n      and\n      0xffffffffffffffffffffffffffffffffffffffff\n      and\n      dup2\n      mstore\n      0x20\n      add\n      swap1\n      dup2\n      mstore\n      0x20\n      add\n      0x00\n      keccak256\n        /* \"contracts/zapyield-mainnet-beta.0.16.sol\":3635:3666  addressToId[msg.sender] = newId */\n      dup2\n      swap1\n      sstore\n      pop\n        /* \"contracts/zapyield-mainnet-beta.0.16.sol\":3687:3701  nextReferralId */\n      0x02\n      0x00\n        /* \"contracts/zapyield-mainnet-beta.0.16.sol\":3687:3703  nextReferralId++ */\n      dup2\n      sload\n      dup1\n      swap3\n      swap2\n      swap1\n      tag_193\n      swap1\n      tag_194\n      jump\t// in\n    tag_193:\n      swap2\n      swap1\n      pop\n      sstore\n      pop\n        /* \"contracts/zapyield-mainnet-beta.0.16.sol\":3759:3764  newId */\n      dup1\n        /* \"contracts/zapyield-mainnet-beta.0.16.sol\":3747:3757  msg.sender */\n      caller\n        /* \"contracts/zapyield-mainnet-beta.0.16.sol\":3729:3765  ReferralIdCreated(msg.sender, newId) */\n      0xffffffffffffffffffffffffffffffffffffffff\n      and\n      0x5ece152ee1e9dd87770d07505ddd04d9139849b716d01b7c715e946f8538e462\n      mload(0x40)\n      mload(0x40)\n      dup1\n      swap2\n      sub\n      swap1\n      log3\n        /* \"contracts/zapyield-mainnet-beta.0.16.sol\":3439:3773  {... */\n      pop\n        /* \"contracts/zapyield-mainnet-beta.0.16.sol\":3402:3773  function createReferralId() external {... */\n      jump\t// out\n        /* \"@openzeppelin/contracts-upgradeable/access/OwnableUpgradeable.sol\":2441:2585  function owner() public view virtual returns (address) {... */\n    tag_77:\n        /* \"@openzeppelin/contracts-upgradeable/access/OwnableUpgradeable.sol\":2487:2494  address */\n      0x00\n        /* \"@openzeppelin/contracts-upgradeable/access/OwnableUpgradeable.sol\":2506:2530  OwnableStorage storage $ */\n      0x00\n        /* \"@openzeppelin/contracts-upgradeable/access/OwnableUpgradeable.sol\":2533:2553  _getOwnableStorage() */\n      tag_196\n        /* \"@openzeppelin/contracts-upgradeable/access/OwnableUpgradeable.sol\":2533:2551  _getOwnableStorage */\n      tag_197\n        /* \"@openzeppelin/contracts-upgradeable/access/OwnableUpgradeable.sol\":2533:2553  _getOwnableStorage() */\n      jump\t// in\n    tag_196:\n        /* \"@openzeppelin/contracts-upgradeable/access/OwnableUpgradeable.sol\":2506:2553  OwnableStorage storage $ = _getOwnableStorage() */\n      swap1\n      pop\n        /* \"@openzeppelin/contracts-upgradeable/access/OwnableUpgradeable.sol\":2570:2571  $ */\n      dup1\n        /* \"@openzeppelin/contracts-upgradeable/access/OwnableUpgradeable.sol\":2570:2578  $._owner */\n      0x00\n      add\n      0x00\n      swap1\n      sload\n      swap1\n      0x0100\n      exp\n      swap1\n      div\n      0xffffffffffffffffffffffffffffffffffffffff\n      and\n        /* \"@openzeppelin/contracts-upgradeable/access/OwnableUpgradeable.sol\":2563:2578  return $._owner */\n      swap2\n      pop\n      pop\n        /* \"@openzeppelin/contracts-upgradeable/access/OwnableUpgradeable.sol\":2441:2585  function owner() public view virtual returns (address) {... */\n      swap1\n      jump\t// out\n        /* \"contracts/zapyield-mainnet-beta.0.16.sol\":1285:1318  IMorphoVault public moonwellVault */\n    tag_81:\n      0x01\n      0x00\n      swap1\n      sload\n      swap1\n      0x0100\n      exp\n      swap1\n      div\n      0xffffffffffffffffffffffffffffffffffffffff\n      and\n      dup2\n      jump\t// out\n        /* \"contracts/zapyield-mainnet-beta.0.16.sol\":1357:1386  uint256 public nextReferralId */\n    tag_86:\n      sload(0x02)\n      dup2\n      jump\t// out\n        /* \"@openzeppelin/contracts-upgradeable/proxy/utils/UUPSUpgradeable.sol\":1819:1877  string public constant UPGRADE_INTERFACE_VERSION = \"5.0.0\" */\n    tag_90:\n      mload(0x40)\n      dup1\n      0x40\n      add\n      0x40\n      mstore\n      dup1\n      0x05\n      dup2\n      mstore\n      0x20\n      add\n      0x352e302e30000000000000000000000000000000000000000000000000000000\n      dup2\n      mstore\n      pop\n      dup2\n      jump\t// out\n        /* \"contracts/zapyield-mainnet-beta.0.16.sol\":1462:1508  mapping(address => uint256) public addressToId */\n    tag_96:\n      mstore(0x20, 0x04)\n      dup1\n      0x00\n      mstore\n      keccak256(0x00, 0x40)\n      0x00\n      swap2\n      pop\n      swap1\n      pop\n      sload\n      dup2\n      jump\t// out\n        /* \"@openzeppelin/contracts-upgradeable/access/OwnableUpgradeable.sol\":3405:3620  function transferOwnership(address newOwner) public virtual onlyOwner {... */\n    tag_101:\n        /* \"@openzeppelin/contracts-upgradeable/access/OwnableUpgradeable.sol\":2334:2347  _checkOwner() */\n      tag_199\n        /* \"@openzeppelin/contracts-upgradeable/access/OwnableUpgradeable.sol\":2334:2345  _checkOwner */\n      tag_185\n        /* \"@openzeppelin/contracts-upgradeable/access/OwnableUpgradeable.sol\":2334:2347  _checkOwner() */\n      jump\t// in\n    tag_199:\n        /* \"@openzeppelin/contracts-upgradeable/access/OwnableUpgradeable.sol\":3509:3510  0 */\n      0x00\n        /* \"@openzeppelin/contracts-upgradeable/access/OwnableUpgradeable.sol\":3489:3511  newOwner == address(0) */\n      0xffffffffffffffffffffffffffffffffffffffff\n      and\n        /* \"@openzeppelin/contracts-upgradeable/access/OwnableUpgradeable.sol\":3489:3497  newOwner */\n      dup2\n        /* \"@openzeppelin/contracts-upgradeable/access/OwnableUpgradeable.sol\":3489:3511  newOwner == address(0) */\n      0xffffffffffffffffffffffffffffffffffffffff\n      and\n      sub\n        /* \"@openzeppelin/contracts-upgradeable/access/OwnableUpgradeable.sol\":3485:3576  if (newOwner == address(0)) {... */\n      tag_201\n      jumpi\n        /* \"@openzeppelin/contracts-upgradeable/access/OwnableUpgradeable.sol\":3562:3563  0 */\n      0x00\n        /* \"@openzeppelin/contracts-upgradeable/access/OwnableUpgradeable.sol\":3534:3565  OwnableInvalidOwner(address(0)) */\n      mload(0x40)\n      0x1e4fbdf700000000000000000000000000000000000000000000000000000000\n      dup2\n      mstore\n      0x04\n      add\n      tag_202\n      swap2\n      swap1\n      tag_45\n      jump\t// in\n    tag_202:\n      mload(0x40)\n      dup1\n      swap2\n      sub\n      swap1\n      revert\n        /* \"@openzeppelin/contracts-upgradeable/access/OwnableUpgradeable.sol\":3485:3576  if (newOwner == address(0)) {... */\n    tag_201:\n        /* \"@openzeppelin/contracts-upgradeable/access/OwnableUpgradeable.sol\":3585:3613  _transferOwnership(newOwner) */\n      tag_203\n        /* \"@openzeppelin/contracts-upgradeable/access/OwnableUpgradeable.sol\":3604:3612  newOwner */\n      dup2\n        /* \"@openzeppelin/contracts-upgradeable/access/OwnableUpgradeable.sol\":3585:3603  _transferOwnership */\n      tag_188\n        /* \"@openzeppelin/contracts-upgradeable/access/OwnableUpgradeable.sol\":3585:3613  _transferOwnership(newOwner) */\n      jump\t// in\n    tag_203:\n        /* \"@openzeppelin/contracts-upgradeable/access/OwnableUpgradeable.sol\":3405:3620  function transferOwnership(address newOwner) public virtual onlyOwner {... */\n      pop\n      jump\t// out\n        /* \"@openzeppelin/contracts-upgradeable/utils/ReentrancyGuardUpgradeable.sol\":3470:3854  function _nonReentrantBefore() private {... */\n    tag_105:\n        /* \"@openzeppelin/contracts-upgradeable/utils/ReentrancyGuardUpgradeable.sol\":3519:3551  ReentrancyGuardStorage storage $ */\n      0x00\n        /* \"@openzeppelin/contracts-upgradeable/utils/ReentrancyGuardUpgradeable.sol\":3554:3582  _getReentrancyGuardStorage() */\n      tag_205\n        /* \"@openzeppelin/contracts-upgradeable/utils/ReentrancyGuardUpgradeable.sol\":3554:3580  _getReentrancyGuardStorage */\n      tag_206\n        /* \"@openzeppelin/contracts-upgradeable/utils/ReentrancyGuardUpgradeable.sol\":3554:3582  _getReentrancyGuardStorage() */\n      jump\t// in\n    tag_205:\n        /* \"@openzeppelin/contracts-upgradeable/utils/ReentrancyGuardUpgradeable.sol\":3519:3582  ReentrancyGuardStorage storage $ = _getReentrancyGuardStorage() */\n      swap1\n      pop\n        /* \"@openzeppelin/contracts-upgradeable/utils/ReentrancyGuardUpgradeable.sol\":1991:1992  2 */\n      0x02\n        /* \"@openzeppelin/contracts-upgradeable/utils/ReentrancyGuardUpgradeable.sol\":3670:3671  $ */\n      dup2\n        /* \"@openzeppelin/contracts-upgradeable/utils/ReentrancyGuardUpgradeable.sol\":3670:3679  $._status */\n      0x00\n      add\n      sload\n        /* \"@openzeppelin/contracts-upgradeable/utils/ReentrancyGuardUpgradeable.sol\":3670:3690  $._status == ENTERED */\n      sub\n        /* \"@openzeppelin/contracts-upgradeable/utils/ReentrancyGuardUpgradeable.sol\":3666:3754  if ($._status == ENTERED) {... */\n      tag_207\n      jumpi\n        /* \"@openzeppelin/contracts-upgradeable/utils/ReentrancyGuardUpgradeable.sol\":3713:3743  ReentrancyGuardReentrantCall() */\n      mload(0x40)\n      0x3ee5aeb500000000000000000000000000000000000000000000000000000000\n      dup2\n      mstore\n      0x04\n      add\n      mload(0x40)\n      dup1\n      swap2\n      sub\n      swap1\n      revert\n        /* \"@openzeppelin/contracts-upgradeable/utils/ReentrancyGuardUpgradeable.sol\":3666:3754  if ($._status == ENTERED) {... */\n    tag_207:\n        /* \"@openzeppelin/contracts-upgradeable/utils/ReentrancyGuardUpgradeable.sol\":1991:1992  2 */\n      0x02\n        /* \"@openzeppelin/contracts-upgradeable/utils/ReentrancyGuardUpgradeable.sol\":3828:3829  $ */\n      dup2\n        /* \"@openzeppelin/contracts-upgradeable/utils/ReentrancyGuardUpgradeable.sol\":3828:3837  $._status */\n      0x00\n      add\n        /* \"@openzeppelin/contracts-upgradeable/utils/ReentrancyGuardUpgradeable.sol\":3828:3847  $._status = ENTERED */\n      dup2\n      swap1\n      sstore\n      pop\n        /* \"@openzeppelin/contracts-upgradeable/utils/ReentrancyGuardUpgradeable.sol\":3509:3854  {... */\n      pop\n        /* \"@openzeppelin/contracts-upgradeable/utils/ReentrancyGuardUpgradeable.sol\":3470:3854  function _nonReentrantBefore() private {... */\n      jump\t// out\n        /* \"@openzeppelin/contracts-upgradeable/token/ERC20/utils/SafeERC20Upgradeable.sol\":1421:1635  function safeTransferFrom(IERC20Upgradeable token, address from, address to, uint256 value) internal {... */\n    tag_116:\n        /* \"@openzeppelin/contracts-upgradeable/token/ERC20/utils/SafeERC20Upgradeable.sol\":1532:1628  _callOptionalReturn(token, abi.encodeWithSelector(token.transferFrom.selector, from, to, value)) */\n      tag_209\n        /* \"@openzeppelin/contracts-upgradeable/token/ERC20/utils/SafeERC20Upgradeable.sol\":1552:1557  token */\n      dup5\n        /* \"@openzeppelin/contracts-upgradeable/token/ERC20/utils/SafeERC20Upgradeable.sol\":1582:1609  token.transferFrom.selector */\n      shl(0xe0, 0x23b872dd)\n        /* \"@openzeppelin/contracts-upgradeable/token/ERC20/utils/SafeERC20Upgradeable.sol\":1611:1615  from */\n      dup6\n        /* \"@openzeppelin/contracts-upgradeable/token/ERC20/utils/SafeERC20Upgradeable.sol\":1617:1619  to */\n      dup6\n        /* \"@openzeppelin/contracts-upgradeable/token/ERC20/utils/SafeERC20Upgradeable.sol\":1621:1626  value */\n      dup6\n        /* \"@openzeppelin/contracts-upgradeable/token/ERC20/utils/SafeERC20Upgradeable.sol\":1559:1627  abi.encodeWithSelector(token.transferFrom.selector, from, to, value) */\n      add(0x24, mload(0x40))\n      tag_210\n      swap4\n      swap3\n      swap2\n      swap1\n      tag_211\n      jump\t// in\n    tag_210:\n      mload(0x40)\n      0x20\n      dup2\n      dup4\n      sub\n      sub\n      dup2\n      mstore\n      swap1\n      0x40\n      mstore\n      swap1\n      not(0xffffffffffffffffffffffffffffffffffffffffffffffffffffffff)\n      and\n      0x20\n      dup3\n      add\n      dup1\n      mload\n      0xffffffffffffffffffffffffffffffffffffffffffffffffffffffff\n      dup4\n      dup2\n      dup4\n      and\n      or\n      dup4\n      mstore\n      pop\n      pop\n      pop\n      pop\n        /* \"@openzeppelin/contracts-upgradeable/token/ERC20/utils/SafeERC20Upgradeable.sol\":1532:1551  _callOptionalReturn */\n      tag_212\n        /* \"@openzeppelin/contracts-upgradeable/token/ERC20/utils/SafeERC20Upgradeable.sol\":1532:1628  _callOptionalReturn(token, abi.encodeWithSelector(token.transferFrom.selector, from, to, value)) */\n      jump\t// in\n    tag_209:\n        /* \"@openzeppelin/contracts-upgradeable/token/ERC20/utils/SafeERC20Upgradeable.sol\":1421:1635  function safeTransferFrom(IERC20Upgradeable token, address from, address to, uint256 value) internal {... */\n      pop\n      pop\n      pop\n      pop\n      jump\t// out\n        /* \"@openzeppelin/contracts-upgradeable/token/ERC20/utils/SafeERC20Upgradeable.sol\":3889:4310  function forceApprove(IERC20Upgradeable token, address spender, uint256 value) internal {... */\n    tag_118:\n        /* \"@openzeppelin/contracts-upgradeable/token/ERC20/utils/SafeERC20Upgradeable.sol\":3987:4012  bytes memory approvalCall */\n      0x00\n        /* \"@openzeppelin/contracts-upgradeable/token/ERC20/utils/SafeERC20Upgradeable.sol\":4038:4060  token.approve.selector */\n      shl(0xe0, 0x095ea7b3)\n        /* \"@openzeppelin/contracts-upgradeable/token/ERC20/utils/SafeERC20Upgradeable.sol\":4062:4069  spender */\n      dup4\n        /* \"@openzeppelin/contracts-upgradeable/token/ERC20/utils/SafeERC20Upgradeable.sol\":4071:4076  value */\n      dup4\n        /* \"@openzeppelin/contracts-upgradeable/token/ERC20/utils/SafeERC20Upgradeable.sol\":4015:4077  abi.encodeWithSelector(token.approve.selector, spender, value) */\n      add(0x24, mload(0x40))\n      tag_214\n      swap3\n      swap2\n      swap1\n      tag_215\n      jump\t// in\n    tag_214:\n      mload(0x40)\n      0x20\n      dup2\n      dup4\n      sub\n      sub\n      dup2\n      mstore\n      swap1\n      0x40\n      mstore\n      swap1\n      not(0xffffffffffffffffffffffffffffffffffffffffffffffffffffffff)\n      and\n      0x20\n      dup3\n      add\n      dup1\n      mload\n      0xffffffffffffffffffffffffffffffffffffffffffffffffffffffff\n      dup4\n      dup2\n      dup4\n      and\n      or\n      dup4\n      mstore\n      pop\n      pop\n      pop\n      pop\n        /* \"@openzeppelin/contracts-upgradeable/token/ERC20/utils/SafeERC20Upgradeable.sol\":3987:4077  bytes memory approvalCall = abi.encodeWithSelector(token.approve.selector, spender, value) */\n      swap1\n      pop\n        /* \"@openzeppelin/contracts-upgradeable/token/ERC20/utils/SafeERC20Upgradeable.sol\":4093:4137  _callOptionalReturnBool(token, approvalCall) */\n      tag_216\n        /* \"@openzeppelin/contracts-upgradeable/token/ERC20/utils/SafeERC20Upgradeable.sol\":4117:4122  token */\n      dup5\n        /* \"@openzeppelin/contracts-upgradeable/token/ERC20/utils/SafeERC20Upgradeable.sol\":4124:4136  approvalCall */\n      dup3\n        /* \"@openzeppelin/contracts-upgradeable/token/ERC20/utils/SafeERC20Upgradeable.sol\":4093:4116  _callOptionalReturnBool */\n      tag_217\n        /* \"@openzeppelin/contracts-upgradeable/token/ERC20/utils/SafeERC20Upgradeable.sol\":4093:4137  _callOptionalReturnBool(token, approvalCall) */\n      jump\t// in\n    tag_216:\n        /* \"@openzeppelin/contracts-upgradeable/token/ERC20/utils/SafeERC20Upgradeable.sol\":4088:4304  if (!_callOptionalReturnBool(token, approvalCall)) {... */\n      tag_218\n      jumpi\n        /* \"@openzeppelin/contracts-upgradeable/token/ERC20/utils/SafeERC20Upgradeable.sol\":4153:4239  _callOptionalReturn(token, abi.encodeWithSelector(token.approve.selector, spender, 0)) */\n      tag_219\n        /* \"@openzeppelin/contracts-upgradeable/token/ERC20/utils/SafeERC20Upgradeable.sol\":4173:4178  token */\n      dup5\n        /* \"@openzeppelin/contracts-upgradeable/token/ERC20/utils/SafeERC20Upgradeable.sol\":4203:4225  token.approve.selector */\n      shl(0xe0, 0x095ea7b3)\n        /* \"@openzeppelin/contracts-upgradeable/token/ERC20/utils/SafeERC20Upgradeable.sol\":4227:4234  spender */\n      dup6\n        /* \"@openzeppelin/contracts-upgradeable/token/ERC20/utils/SafeERC20Upgradeable.sol\":4236:4237  0 */\n      0x00\n        /* \"@openzeppelin/contracts-upgradeable/token/ERC20/utils/SafeERC20Upgradeable.sol\":4180:4238  abi.encodeWithSelector(token.approve.selector, spender, 0) */\n      add(0x24, mload(0x40))\n      tag_220\n      swap3\n      swap2\n      swap1\n      tag_221\n      jump\t// in\n    tag_220:\n      mload(0x40)\n      0x20\n      dup2\n      dup4\n      sub\n      sub\n      dup2\n      mstore\n      swap1\n      0x40\n      mstore\n      swap1\n      not(0xffffffffffffffffffffffffffffffffffffffffffffffffffffffff)\n      and\n      0x20\n      dup3\n      add\n      dup1\n      mload\n      0xffffffffffffffffffffffffffffffffffffffffffffffffffffffff\n      dup4\n      dup2\n      dup4\n      and\n      or\n      dup4\n      mstore\n      pop\n      pop\n      pop\n      pop\n        /* \"@openzeppelin/contracts-upgradeable/token/ERC20/utils/SafeERC20Upgradeable.sol\":4153:4172  _callOptionalReturn */\n      tag_212\n        /* \"@openzeppelin/contracts-upgradeable/token/ERC20/utils/SafeERC20Upgradeable.sol\":4153:4239  _callOptionalReturn(token, abi.encodeWithSelector(token.approve.selector, spender, 0)) */\n      jump\t// in\n    tag_219:\n        /* \"@openzeppelin/contracts-upgradeable/token/ERC20/utils/SafeERC20Upgradeable.sol\":4253:4293  _callOptionalReturn(token, approvalCall) */\n      tag_222\n        /* \"@openzeppelin/contracts-upgradeable/token/ERC20/utils/SafeERC20Upgradeable.sol\":4273:4278  token */\n      dup5\n        /* \"@openzeppelin/contracts-upgradeable/token/ERC20/utils/SafeERC20Upgradeable.sol\":4280:4292  approvalCall */\n      dup3\n        /* \"@openzeppelin/contracts-upgradeable/token/ERC20/utils/SafeERC20Upgradeable.sol\":4253:4272  _callOptionalReturn */\n      tag_212\n        /* \"@openzeppelin/contracts-upgradeable/token/ERC20/utils/SafeERC20Upgradeable.sol\":4253:4293  _callOptionalReturn(token, approvalCall) */\n      jump\t// in\n    tag_222:\n        /* \"@openzeppelin/contracts-upgradeable/token/ERC20/utils/SafeERC20Upgradeable.sol\":4088:4304  if (!_callOptionalReturnBool(token, approvalCall)) {... */\n    tag_218:\n        /* \"@openzeppelin/contracts-upgradeable/token/ERC20/utils/SafeERC20Upgradeable.sol\":3977:4310  {... */\n      pop\n        /* \"@openzeppelin/contracts-upgradeable/token/ERC20/utils/SafeERC20Upgradeable.sol\":3889:4310  function forceApprove(IERC20Upgradeable token, address spender, uint256 value) internal {... */\n      pop\n      pop\n      pop\n      jump\t// out\n        /* \"@openzeppelin/contracts-upgradeable/utils/ReentrancyGuardUpgradeable.sol\":3860:4143  function _nonReentrantAfter() private {... */\n    tag_128:\n        /* \"@openzeppelin/contracts-upgradeable/utils/ReentrancyGuardUpgradeable.sol\":3908:3940  ReentrancyGuardStorage storage $ */\n      0x00\n        /* \"@openzeppelin/contracts-upgradeable/utils/ReentrancyGuardUpgradeable.sol\":3943:3971  _getReentrancyGuardStorage() */\n      tag_224\n        /* \"@openzeppelin/contracts-upgradeable/utils/ReentrancyGuardUpgradeable.sol\":3943:3969  _getReentrancyGuardStorage */\n      tag_206\n        /* \"@openzeppelin/contracts-upgradeable/utils/ReentrancyGuardUpgradeable.sol\":3943:3971  _getReentrancyGuardStorage() */\n      jump\t// in\n    tag_224:\n        /* \"@openzeppelin/contracts-upgradeable/utils/ReentrancyGuardUpgradeable.sol\":3908:3971  ReentrancyGuardStorage storage $ = _getReentrancyGuardStorage() */\n      swap1\n      pop\n        /* \"@openzeppelin/contracts-upgradeable/utils/ReentrancyGuardUpgradeable.sol\":1949:1950  1 */\n      0x01\n        /* \"@openzeppelin/contracts-upgradeable/utils/ReentrancyGuardUpgradeable.sol\":4113:4114  $ */\n      dup2\n        /* \"@openzeppelin/contracts-upgradeable/utils/ReentrancyGuardUpgradeable.sol\":4113:4122  $._status */\n      0x00\n      add\n        /* \"@openzeppelin/contracts-upgradeable/utils/ReentrancyGuardUpgradeable.sol\":4113:4136  $._status = NOT_ENTERED */\n      dup2\n      swap1\n      sstore\n      pop\n        /* \"@openzeppelin/contracts-upgradeable/utils/ReentrancyGuardUpgradeable.sol\":3898:4143  {... */\n      pop\n        /* \"@openzeppelin/contracts-upgradeable/utils/ReentrancyGuardUpgradeable.sol\":3860:4143  function _nonReentrantAfter() private {... */\n      jump\t// out\n        /* \"@openzeppelin/contracts-upgradeable/token/ERC20/utils/SafeERC20Upgradeable.sol\":996:1182  function safeTransfer(IERC20Upgradeable token, address to, uint256 value) internal {... */\n    tag_149:\n        /* \"@openzeppelin/contracts-upgradeable/token/ERC20/utils/SafeERC20Upgradeable.sol\":1089:1175  _callOptionalReturn(token, abi.encodeWithSelector(token.transfer.selector, to, value)) */\n      tag_226\n        /* \"@openzeppelin/contracts-upgradeable/token/ERC20/utils/SafeERC20Upgradeable.sol\":1109:1114  token */\n      dup4\n        /* \"@openzeppelin/contracts-upgradeable/token/ERC20/utils/SafeERC20Upgradeable.sol\":1139:1162  token.transfer.selector */\n      shl(0xe0, 0xa9059cbb)\n        /* \"@openzeppelin/contracts-upgradeable/token/ERC20/utils/SafeERC20Upgradeable.sol\":1164:1166  to */\n      dup5\n        /* \"@openzeppelin/contracts-upgradeable/token/ERC20/utils/SafeERC20Upgradeable.sol\":1168:1173  value */\n      dup5\n        /* \"@openzeppelin/contracts-upgradeable/token/ERC20/utils/SafeERC20Upgradeable.sol\":1116:1174  abi.encodeWithSelector(token.transfer.selector, to, value) */\n      add(0x24, mload(0x40))\n      tag_227\n      swap3\n      swap2\n      swap1\n      tag_215\n      jump\t// in\n    tag_227:\n      mload(0x40)\n      0x20\n      dup2\n      dup4\n      sub\n      sub\n      dup2\n      mstore\n      swap1\n      0x40\n      mstore\n      swap1\n      not(0xffffffffffffffffffffffffffffffffffffffffffffffffffffffff)\n      and\n      0x20\n      dup3\n      add\n      dup1\n      mload\n      0xffffffffffffffffffffffffffffffffffffffffffffffffffffffff\n      dup4\n      dup2\n      dup4\n      and\n      or\n      dup4\n      mstore\n      pop\n      pop\n      pop\n      pop\n        /* \"@openzeppelin/contracts-upgradeable/token/ERC20/utils/SafeERC20Upgradeable.sol\":1089:1108  _callOptionalReturn */\n      tag_212\n        /* \"@openzeppelin/contracts-upgradeable/token/ERC20/utils/SafeERC20Upgradeable.sol\":1089:1175  _callOptionalReturn(token, abi.encodeWithSelector(token.transfer.selector, to, value)) */\n      jump\t// in\n    tag_226:\n        /* \"@openzeppelin/contracts-upgradeable/token/ERC20/utils/SafeERC20Upgradeable.sol\":996:1182  function safeTransfer(IERC20Upgradeable token, address to, uint256 value) internal {... */\n      pop\n      pop\n      pop\n      jump\t// out\n        /* \"@openzeppelin/contracts-upgradeable/proxy/utils/Initializable.sol\":9071:9276  function _getInitializableStorage() private pure returns (InitializableStorage storage $) {... */\n    tag_155:\n        /* \"@openzeppelin/contracts-upgradeable/proxy/utils/Initializable.sol\":9129:9159  InitializableStorage storage $ */\n      0x00\n        /* \"@openzeppelin/contracts-upgradeable/proxy/utils/Initializable.sol\":9171:9183  bytes32 slot */\n      0x00\n        /* \"@openzeppelin/contracts-upgradeable/proxy/utils/Initializable.sol\":9186:9213  _initializableStorageSlot() */\n      tag_229\n        /* \"@openzeppelin/contracts-upgradeable/proxy/utils/Initializable.sol\":9186:9211  _initializableStorageSlot */\n      tag_230\n        /* \"@openzeppelin/contracts-upgradeable/proxy/utils/Initializable.sol\":9186:9213  _initializableStorageSlot() */\n      jump\t// in\n    tag_229:\n        /* \"@openzeppelin/contracts-upgradeable/proxy/utils/Initializable.sol\":9171:9213  bytes32 slot = _initializableStorageSlot() */\n      swap1\n      pop\n        /* \"@openzeppelin/contracts-upgradeable/proxy/utils/Initializable.sol\":9256:9260  slot */\n      dup1\n        /* \"@openzeppelin/contracts-upgradeable/proxy/utils/Initializable.sol\":9246:9260  $.slot := slot */\n      swap2\n      pop\n        /* \"@openzeppelin/contracts-upgradeable/proxy/utils/Initializable.sol\":9232:9270  {... */\n      pop\n        /* \"@openzeppelin/contracts-upgradeable/proxy/utils/Initializable.sol\":9071:9276  function _getInitializableStorage() private pure returns (InitializableStorage storage $) {... */\n      swap1\n      jump\t// out\n        /* \"@openzeppelin/contracts-upgradeable/access/OwnableUpgradeable.sol\":1847:1974  function __Ownable_init(address initialOwner) internal onlyInitializing {... */\n    tag_163:\n        /* \"@openzeppelin/contracts-upgradeable/proxy/utils/Initializable.sol\":6929:6949  _checkInitializing() */\n      tag_232\n        /* \"@openzeppelin/contracts-upgradeable/proxy/utils/Initializable.sol\":6929:6947  _checkInitializing */\n      tag_233\n        /* \"@openzeppelin/contracts-upgradeable/proxy/utils/Initializable.sol\":6929:6949  _checkInitializing() */\n      jump\t// in\n    tag_232:\n        /* \"@openzeppelin/contracts-upgradeable/access/OwnableUpgradeable.sol\":1929:1967  __Ownable_init_unchained(initialOwner) */\n      tag_235\n        /* \"@openzeppelin/contracts-upgradeable/access/OwnableUpgradeable.sol\":1954:1966  initialOwner */\n      dup2\n        /* \"@openzeppelin/contracts-upgradeable/access/OwnableUpgradeable.sol\":1929:1953  __Ownable_init_unchained */\n      tag_236\n        /* \"@openzeppelin/contracts-upgradeable/access/OwnableUpgradeable.sol\":1929:1967  __Ownable_init_unchained(initialOwner) */\n      jump\t// in\n    tag_235:\n        /* \"@openzeppelin/contracts-upgradeable/access/OwnableUpgradeable.sol\":1847:1974  function __Ownable_init(address initialOwner) internal onlyInitializing {... */\n      pop\n      jump\t// out\n        /* \"@openzeppelin/contracts-upgradeable/utils/ReentrancyGuardUpgradeable.sol\":2684:2795  function __ReentrancyGuard_init() internal onlyInitializing {... */\n    tag_165:\n        /* \"@openzeppelin/contracts-upgradeable/proxy/utils/Initializable.sol\":6929:6949  _checkInitializing() */\n      tag_238\n        /* \"@openzeppelin/contracts-upgradeable/proxy/utils/Initializable.sol\":6929:6947  _checkInitializing */\n      tag_233\n        /* \"@openzeppelin/contracts-upgradeable/proxy/utils/Initializable.sol\":6929:6949  _checkInitializing() */\n      jump\t// in\n    tag_238:\n        /* \"@openzeppelin/contracts-upgradeable/utils/ReentrancyGuardUpgradeable.sol\":2754:2788  __ReentrancyGuard_init_unchained() */\n      tag_240\n        /* \"@openzeppelin/contracts-upgradeable/utils/ReentrancyGuardUpgradeable.sol\":2754:2786  __ReentrancyGuard_init_unchained */\n      tag_241\n        /* \"@openzeppelin/contracts-upgradeable/utils/ReentrancyGuardUpgradeable.sol\":2754:2788  __ReentrancyGuard_init_unchained() */\n      jump\t// in\n    tag_240:\n        /* \"@openzeppelin/contracts-upgradeable/utils/ReentrancyGuardUpgradeable.sol\":2684:2795  function __ReentrancyGuard_init() internal onlyInitializing {... */\n      jump\t// out\n        /* \"@openzeppelin/contracts-upgradeable/proxy/utils/UUPSUpgradeable.sol\":2970:3037  function __UUPSUpgradeable_init() internal onlyInitializing {... */\n    tag_167:\n        /* \"@openzeppelin/contracts-upgradeable/proxy/utils/Initializable.sol\":6929:6949  _checkInitializing() */\n      tag_243\n        /* \"@openzeppelin/contracts-upgradeable/proxy/utils/Initializable.sol\":6929:6947  _checkInitializing */\n      tag_233\n        /* \"@openzeppelin/contracts-upgradeable/proxy/utils/Initializable.sol\":6929:6949  _checkInitializing() */\n      jump\t// in\n    tag_243:\n        /* \"@openzeppelin/contracts-upgradeable/proxy/utils/UUPSUpgradeable.sol\":2970:3037  function __UUPSUpgradeable_init() internal onlyInitializing {... */\n      jump\t// out\n        /* \"@openzeppelin/contracts-upgradeable/proxy/utils/UUPSUpgradeable.sol\":4578:4890  function _checkProxy() internal view virtual {... */\n    tag_173:\n        /* \"@openzeppelin/contracts-upgradeable/proxy/utils/UUPSUpgradeable.sol\":4667:4673  __self */\n      immutable(\"0x4ce4dab4689da140a0c12de1a6af6b8f679594aeb723205f513e052d27f5b26f\")\n        /* \"@openzeppelin/contracts-upgradeable/proxy/utils/UUPSUpgradeable.sol\":4650:4673  address(this) == __self */\n      0xffffffffffffffffffffffffffffffffffffffff\n      and\n        /* \"@openzeppelin/contracts-upgradeable/proxy/utils/UUPSUpgradeable.sol\":4658:4662  this */\n      address\n        /* \"@openzeppelin/contracts-upgradeable/proxy/utils/UUPSUpgradeable.sol\":4650:4673  address(this) == __self */\n      0xffffffffffffffffffffffffffffffffffffffff\n      and\n      eq\n        /* \"@openzeppelin/contracts-upgradeable/proxy/utils/UUPSUpgradeable.sol\":4650:4770  address(this) == __self || // Must be called through delegatecall... */\n      dup1\n      tag_246\n      jumpi\n      pop\n        /* \"@openzeppelin/contracts-upgradeable/proxy/utils/UUPSUpgradeable.sol\":4764:4770  __self */\n      immutable(\"0x4ce4dab4689da140a0c12de1a6af6b8f679594aeb723205f513e052d27f5b26f\")\n        /* \"@openzeppelin/contracts-upgradeable/proxy/utils/UUPSUpgradeable.sol\":4728:4770  ERC1967Utils.getImplementation() != __self */\n      0xffffffffffffffffffffffffffffffffffffffff\n      and\n        /* \"@openzeppelin/contracts-upgradeable/proxy/utils/UUPSUpgradeable.sol\":4728:4760  ERC1967Utils.getImplementation() */\n      tag_247\n        /* \"@openzeppelin/contracts-upgradeable/proxy/utils/UUPSUpgradeable.sol\":4728:4758  ERC1967Utils.getImplementation */\n      tag_248\n        /* \"@openzeppelin/contracts-upgradeable/proxy/utils/UUPSUpgradeable.sol\":4728:4760  ERC1967Utils.getImplementation() */\n      jump\t// in\n    tag_247:\n        /* \"@openzeppelin/contracts-upgradeable/proxy/utils/UUPSUpgradeable.sol\":4728:4770  ERC1967Utils.getImplementation() != __self */\n      0xffffffffffffffffffffffffffffffffffffffff\n      and\n      eq\n      iszero\n        /* \"@openzeppelin/contracts-upgradeable/proxy/utils/UUPSUpgradeable.sol\":4650:4770  address(this) == __self || // Must be called through delegatecall... */\n    tag_246:\n        /* \"@openzeppelin/contracts-upgradeable/proxy/utils/UUPSUpgradeable.sol\":4633:4884  if (... */\n      iszero\n      tag_249\n      jumpi\n        /* \"@openzeppelin/contracts-upgradeable/proxy/utils/UUPSUpgradeable.sol\":4844:4873  UUPSUnauthorizedCallContext() */\n      mload(0x40)\n      0xe07c8dba00000000000000000000000000000000000000000000000000000000\n      dup2\n      mstore\n      0x04\n      add\n      mload(0x40)\n      dup1\n      swap2\n      sub\n      swap1\n      revert\n        /* \"@openzeppelin/contracts-upgradeable/proxy/utils/UUPSUpgradeable.sol\":4633:4884  if (... */\n    tag_249:\n        /* \"@openzeppelin/contracts-upgradeable/proxy/utils/UUPSUpgradeable.sol\":4578:4890  function _checkProxy() internal view virtual {... */\n      jump\t// out\n        /* \"contracts/zapyield-mainnet-beta.0.16.sol\":3174:3258  function _authorizeUpgrade(address newImplementation) internal override onlyOwner {} */\n    tag_176:\n        /* \"@openzeppelin/contracts-upgradeable/access/OwnableUpgradeable.sol\":2334:2347  _checkOwner() */\n      tag_251\n        /* \"@openzeppelin/contracts-upgradeable/access/OwnableUpgradeable.sol\":2334:2345  _checkOwner */\n      tag_185\n        /* \"@openzeppelin/contracts-upgradeable/access/OwnableUpgradeable.sol\":2334:2347  _checkOwner() */\n      jump\t// in\n    tag_251:\n        /* \"contracts/zapyield-mainnet-beta.0.16.sol\":3174:3258  function _authorizeUpgrade(address newImplementation) internal override onlyOwner {} */\n      pop\n      jump\t// out\n        /* \"@openzeppelin/contracts-upgradeable/proxy/utils/UUPSUpgradeable.sol\":6032:6570  function _upgradeToAndCallUUPS(address newImplementation, bytes memory data) private {... */\n    tag_178:\n        /* \"@openzeppelin/contracts-upgradeable/proxy/utils/UUPSUpgradeable.sol\":6149:6166  newImplementation */\n      dup2\n        /* \"@openzeppelin/contracts-upgradeable/proxy/utils/UUPSUpgradeable.sol\":6131:6181  IERC1822Proxiable(newImplementation).proxiableUUID */\n      0xffffffffffffffffffffffffffffffffffffffff\n      and\n      0x52d1902d\n        /* \"@openzeppelin/contracts-upgradeable/proxy/utils/UUPSUpgradeable.sol\":6131:6183  IERC1822Proxiable(newImplementation).proxiableUUID() */\n      mload(0x40)\n      dup2\n      0xffffffff\n      and\n      0xe0\n      shl\n      dup2\n      mstore\n      0x04\n      add\n      0x20\n      mload(0x40)\n      dup1\n      dup4\n      sub\n      dup2\n      dup7\n      gas\n      staticcall\n      swap3\n      pop\n      pop\n      pop\n      dup1\n      iszero\n      tag_254\n      jumpi\n      pop\n      mload(0x40)\n      returndatasize\n      not(0x1f)\n      0x1f\n      dup3\n      add\n      and\n      dup3\n      add\n      dup1\n      0x40\n      mstore\n      pop\n      dup2\n      add\n      swap1\n      tag_255\n      swap2\n      swap1\n      tag_256\n      jump\t// in\n    tag_255:\n      0x01\n    tag_254:\n        /* \"@openzeppelin/contracts-upgradeable/proxy/utils/UUPSUpgradeable.sol\":6127:6564  try IERC1822Proxiable(newImplementation).proxiableUUID() returns (bytes32 slot) {... */\n      tag_257\n      jumpi\n        /* \"@openzeppelin/contracts-upgradeable/proxy/utils/UUPSUpgradeable.sol\":6535:6552  newImplementation */\n      dup2\n        /* \"@openzeppelin/contracts-upgradeable/proxy/utils/UUPSUpgradeable.sol\":6493:6553  ERC1967Utils.ERC1967InvalidImplementation(newImplementation) */\n      mload(0x40)\n      0x4c9c8ce300000000000000000000000000000000000000000000000000000000\n      dup2\n      mstore\n      0x04\n      add\n      tag_261\n      swap2\n      swap1\n      tag_45\n      jump\t// in\n    tag_261:\n      mload(0x40)\n      dup1\n      swap2\n      sub\n      swap1\n      revert\n        /* \"@openzeppelin/contracts-upgradeable/proxy/utils/UUPSUpgradeable.sol\":6127:6564  try IERC1822Proxiable(newImplementation).proxiableUUID() returns (bytes32 slot) {... */\n    tag_257:\n        /* \"@openzeppelin/contracts/proxy/ERC1967/ERC1967Utils.sol\":811:877  0x360894a13ba1a3210667c828492db98dca3e2076cc3735a920a3ca505d382bbc */\n      0x360894a13ba1a3210667c828492db98dca3e2076cc3735a920a3ca505d382bbc\n        /* \"@openzeppelin/contracts-upgradeable/proxy/utils/UUPSUpgradeable.sol\":6233:6265  ERC1967Utils.IMPLEMENTATION_SLOT */\n      0x00\n      shl\n        /* \"@openzeppelin/contracts-upgradeable/proxy/utils/UUPSUpgradeable.sol\":6225:6229  slot */\n      dup2\n        /* \"@openzeppelin/contracts-upgradeable/proxy/utils/UUPSUpgradeable.sol\":6225:6265  slot != ERC1967Utils.IMPLEMENTATION_SLOT */\n      eq\n        /* \"@openzeppelin/contracts-upgradeable/proxy/utils/UUPSUpgradeable.sol\":6221:6341  if (slot != ERC1967Utils.IMPLEMENTATION_SLOT) {... */\n      tag_263\n      jumpi\n        /* \"@openzeppelin/contracts-upgradeable/proxy/utils/UUPSUpgradeable.sol\":6321:6325  slot */\n      dup1\n        /* \"@openzeppelin/contracts-upgradeable/proxy/utils/UUPSUpgradeable.sol\":6292:6326  UUPSUnsupportedProxiableUUID(slot) */\n      mload(0x40)\n      0xaa1d49a400000000000000000000000000000000000000000000000000000000\n      dup2\n      mstore\n      0x04\n      add\n      tag_264\n      swap2\n      swap1\n      tag_68\n      jump\t// in\n    tag_264:\n      mload(0x40)\n      dup1\n      swap2\n      sub\n      swap1\n      revert\n        /* \"@openzeppelin/contracts-upgradeable/proxy/utils/UUPSUpgradeable.sol\":6221:6341  if (slot != ERC1967Utils.IMPLEMENTATION_SLOT) {... */\n    tag_263:\n        /* \"@openzeppelin/contracts-upgradeable/proxy/utils/UUPSUpgradeable.sol\":6354:6408  ERC1967Utils.upgradeToAndCall(newImplementation, data) */\n      tag_265\n        /* \"@openzeppelin/contracts-upgradeable/proxy/utils/UUPSUpgradeable.sol\":6384:6401  newImplementation */\n      dup4\n        /* \"@openzeppelin/contracts-upgradeable/proxy/utils/UUPSUpgradeable.sol\":6403:6407  data */\n      dup4\n        /* \"@openzeppelin/contracts-upgradeable/proxy/utils/UUPSUpgradeable.sol\":6354:6383  ERC1967Utils.upgradeToAndCall */\n      tag_266\n        /* \"@openzeppelin/contracts-upgradeable/proxy/utils/UUPSUpgradeable.sol\":6354:6408  ERC1967Utils.upgradeToAndCall(newImplementation, data) */\n      jump\t// in\n    tag_265:\n        /* \"@openzeppelin/contracts-upgradeable/proxy/utils/UUPSUpgradeable.sol\":6184:6419  returns (bytes32 slot) {... */\n      pop\n        /* \"@openzeppelin/contracts-upgradeable/proxy/utils/UUPSUpgradeable.sol\":6032:6570  function _upgradeToAndCallUUPS(address newImplementation, bytes memory data) private {... */\n      pop\n      pop\n      jump\t// out\n        /* \"@openzeppelin/contracts-upgradeable/proxy/utils/UUPSUpgradeable.sol\":5007:5220  function _checkNotDelegated() internal view virtual {... */\n    tag_181:\n        /* \"@openzeppelin/contracts-upgradeable/proxy/utils/UUPSUpgradeable.sol\":5090:5096  __self */\n      immutable(\"0x4ce4dab4689da140a0c12de1a6af6b8f679594aeb723205f513e052d27f5b26f\")\n        /* \"@openzeppelin/contracts-upgradeable/proxy/utils/UUPSUpgradeable.sol\":5073:5096  address(this) != __self */\n      0xffffffffffffffffffffffffffffffffffffffff\n      and\n        /* \"@openzeppelin/contracts-upgradeable/proxy/utils/UUPSUpgradeable.sol\":5081:5085  this */\n      address\n        /* \"@openzeppelin/contracts-upgradeable/proxy/utils/UUPSUpgradeable.sol\":5073:5096  address(this) != __self */\n      0xffffffffffffffffffffffffffffffffffffffff\n      and\n      eq\n        /* \"@openzeppelin/contracts-upgradeable/proxy/utils/UUPSUpgradeable.sol\":5069:5214  if (address(this) != __self) {... */\n      tag_268\n      jumpi\n        /* \"@openzeppelin/contracts-upgradeable/proxy/utils/UUPSUpgradeable.sol\":5174:5203  UUPSUnauthorizedCallContext() */\n      mload(0x40)\n      0xe07c8dba00000000000000000000000000000000000000000000000000000000\n      dup2\n      mstore\n      0x04\n      add\n      mload(0x40)\n      dup1\n      swap2\n      sub\n      swap1\n      revert\n        /* \"@openzeppelin/contracts-upgradeable/proxy/utils/UUPSUpgradeable.sol\":5069:5214  if (address(this) != __self) {... */\n    tag_268:\n        /* \"@openzeppelin/contracts-upgradeable/proxy/utils/UUPSUpgradeable.sol\":5007:5220  function _checkNotDelegated() internal view virtual {... */\n      jump\t// out\n        /* \"@openzeppelin/contracts-upgradeable/access/OwnableUpgradeable.sol\":2658:2820  function _checkOwner() internal view virtual {... */\n    tag_185:\n        /* \"@openzeppelin/contracts-upgradeable/access/OwnableUpgradeable.sol\":2728:2740  _msgSender() */\n      tag_270\n        /* \"@openzeppelin/contracts-upgradeable/access/OwnableUpgradeable.sol\":2728:2738  _msgSender */\n      tag_271\n        /* \"@openzeppelin/contracts-upgradeable/access/OwnableUpgradeable.sol\":2728:2740  _msgSender() */\n      jump\t// in\n    tag_270:\n        /* \"@openzeppelin/contracts-upgradeable/access/OwnableUpgradeable.sol\":2717:2740  owner() != _msgSender() */\n      0xffffffffffffffffffffffffffffffffffffffff\n      and\n        /* \"@openzeppelin/contracts-upgradeable/access/OwnableUpgradeable.sol\":2717:2724  owner() */\n      tag_272\n        /* \"@openzeppelin/contracts-upgradeable/access/OwnableUpgradeable.sol\":2717:2722  owner */\n      tag_77\n        /* \"@openzeppelin/contracts-upgradeable/access/OwnableUpgradeable.sol\":2717:2724  owner() */\n      jump\t// in\n    tag_272:\n        /* \"@openzeppelin/contracts-upgradeable/access/OwnableUpgradeable.sol\":2717:2740  owner() != _msgSender() */\n      0xffffffffffffffffffffffffffffffffffffffff\n      and\n      eq\n        /* \"@openzeppelin/contracts-upgradeable/access/OwnableUpgradeable.sol\":2713:2814  if (owner() != _msgSender()) {... */\n      tag_273\n      jumpi\n        /* \"@openzeppelin/contracts-upgradeable/access/OwnableUpgradeable.sol\":2790:2802  _msgSender() */\n      tag_274\n        /* \"@openzeppelin/contracts-upgradeable/access/OwnableUpgradeable.sol\":2790:2800  _msgSender */\n      tag_271\n        /* \"@openzeppelin/contracts-upgradeable/access/OwnableUpgradeable.sol\":2790:2802  _msgSender() */\n      jump\t// in\n    tag_274:\n        /* \"@openzeppelin/contracts-upgradeable/access/OwnableUpgradeable.sol\":2763:2803  OwnableUnauthorizedAccount(_msgSender()) */\n      mload(0x40)\n      0x118cdaa700000000000000000000000000000000000000000000000000000000\n      dup2\n      mstore\n      0x04\n      add\n      tag_275\n      swap2\n      swap1\n      tag_45\n      jump\t// in\n    tag_275:\n      mload(0x40)\n      dup1\n      swap2\n      sub\n      swap1\n      revert\n        /* \"@openzeppelin/contracts-upgradeable/access/OwnableUpgradeable.sol\":2713:2814  if (owner() != _msgSender()) {... */\n    tag_273:\n        /* \"@openzeppelin/contracts-upgradeable/access/OwnableUpgradeable.sol\":2658:2820  function _checkOwner() internal view virtual {... */\n      jump\t// out\n        /* \"@openzeppelin/contracts-upgradeable/access/OwnableUpgradeable.sol\":3774:4022  function _transferOwnership(address newOwner) internal virtual {... */\n    tag_188:\n        /* \"@openzeppelin/contracts-upgradeable/access/OwnableUpgradeable.sol\":3847:3871  OwnableStorage storage $ */\n      0x00\n        /* \"@openzeppelin/contracts-upgradeable/access/OwnableUpgradeable.sol\":3874:3894  _getOwnableStorage() */\n      tag_277\n        /* \"@openzeppelin/contracts-upgradeable/access/OwnableUpgradeable.sol\":3874:3892  _getOwnableStorage */\n      tag_197\n        /* \"@openzeppelin/contracts-upgradeable/access/OwnableUpgradeable.sol\":3874:3894  _getOwnableStorage() */\n      jump\t// in\n    tag_277:\n        /* \"@openzeppelin/contracts-upgradeable/access/OwnableUpgradeable.sol\":3847:3894  OwnableStorage storage $ = _getOwnableStorage() */\n      swap1\n      pop\n        /* \"@openzeppelin/contracts-upgradeable/access/OwnableUpgradeable.sol\":3904:3920  address oldOwner */\n      0x00\n        /* \"@openzeppelin/contracts-upgradeable/access/OwnableUpgradeable.sol\":3923:3924  $ */\n      dup2\n        /* \"@openzeppelin/contracts-upgradeable/access/OwnableUpgradeable.sol\":3923:3931  $._owner */\n      0x00\n      add\n      0x00\n      swap1\n      sload\n      swap1\n      0x0100\n      exp\n      swap1\n      div\n      0xffffffffffffffffffffffffffffffffffffffff\n      and\n        /* \"@openzeppelin/contracts-upgradeable/access/OwnableUpgradeable.sol\":3904:3931  address oldOwner = $._owner */\n      swap1\n      pop\n        /* \"@openzeppelin/contracts-upgradeable/access/OwnableUpgradeable.sol\":3952:3960  newOwner */\n      dup3\n        /* \"@openzeppelin/contracts-upgradeable/access/OwnableUpgradeable.sol\":3941:3942  $ */\n      dup3\n        /* \"@openzeppelin/contracts-upgradeable/access/OwnableUpgradeable.sol\":3941:3949  $._owner */\n      0x00\n      add\n      0x00\n        /* \"@openzeppelin/contracts-upgradeable/access/OwnableUpgradeable.sol\":3941:3960  $._owner = newOwner */\n      0x0100\n      exp\n      dup2\n      sload\n      dup2\n      0xffffffffffffffffffffffffffffffffffffffff\n      mul\n      not\n      and\n      swap1\n      dup4\n      0xffffffffffffffffffffffffffffffffffffffff\n      and\n      mul\n      or\n      swap1\n      sstore\n      pop\n        /* \"@openzeppelin/contracts-upgradeable/access/OwnableUpgradeable.sol\":4006:4014  newOwner */\n      dup3\n        /* \"@openzeppelin/contracts-upgradeable/access/OwnableUpgradeable.sol\":3975:4015  OwnershipTransferred(oldOwner, newOwner) */\n      0xffffffffffffffffffffffffffffffffffffffff\n      and\n        /* \"@openzeppelin/contracts-upgradeable/access/OwnableUpgradeable.sol\":3996:4004  oldOwner */\n      dup2\n        /* \"@openzeppelin/contracts-upgradeable/access/OwnableUpgradeable.sol\":3975:4015  OwnershipTransferred(oldOwner, newOwner) */\n      0xffffffffffffffffffffffffffffffffffffffff\n      and\n      0x8be0079c531659141344cd1fd0a4f28419497f9722a3daafe3b4186f6b6457e0\n      mload(0x40)\n      mload(0x40)\n      dup1\n      swap2\n      sub\n      swap1\n      log3\n        /* \"@openzeppelin/contracts-upgradeable/access/OwnableUpgradeable.sol\":3837:4022  {... */\n      pop\n      pop\n        /* \"@openzeppelin/contracts-upgradeable/access/OwnableUpgradeable.sol\":3774:4022  function _transferOwnership(address newOwner) internal virtual {... */\n      pop\n      jump\t// out\n        /* \"@openzeppelin/contracts-upgradeable/access/OwnableUpgradeable.sol\":1192:1351  function _getOwnableStorage() private pure returns (OwnableStorage storage $) {... */\n    tag_197:\n        /* \"@openzeppelin/contracts-upgradeable/access/OwnableUpgradeable.sol\":1244:1268  OwnableStorage storage $ */\n      0x00\n        /* \"@openzeppelin/contracts-upgradeable/access/OwnableUpgradeable.sol\":1313:1335  OwnableStorageLocation */\n      0x9016d09d72d40fdae2fd8ceac6b6234c7706214fd39c1cd1e609a0528c199300\n        /* \"@openzeppelin/contracts-upgradeable/access/OwnableUpgradeable.sol\":1303:1335  $.slot := OwnableStorageLocation */\n      swap1\n      pop\n        /* \"@openzeppelin/contracts-upgradeable/access/OwnableUpgradeable.sol\":1192:1351  function _getOwnableStorage() private pure returns (OwnableStorage storage $) {... */\n      swap1\n      jump\t// out\n        /* \"@openzeppelin/contracts-upgradeable/utils/ReentrancyGuardUpgradeable.sol\":2395:2578  function _getReentrancyGuardStorage() private pure returns (ReentrancyGuardStorage storage $) {... */\n    tag_206:\n        /* \"@openzeppelin/contracts-upgradeable/utils/ReentrancyGuardUpgradeable.sol\":2455:2487  ReentrancyGuardStorage storage $ */\n      0x00\n        /* \"@openzeppelin/contracts-upgradeable/utils/ReentrancyGuardUpgradeable.sol\":2532:2562  ReentrancyGuardStorageLocation */\n      0x9b779b17422d0df92223018b32b4d1fa46e071723d6817e2486d003becc55f00\n        /* \"@openzeppelin/contracts-upgradeable/utils/ReentrancyGuardUpgradeable.sol\":2522:2562  $.slot := ReentrancyGuardStorageLocation */\n      swap1\n      pop\n        /* \"@openzeppelin/contracts-upgradeable/utils/ReentrancyGuardUpgradeable.sol\":2395:2578  function _getReentrancyGuardStorage() private pure returns (ReentrancyGuardStorage storage $) {... */\n      swap1\n      jump\t// out\n        /* \"@openzeppelin/contracts-upgradeable/token/ERC20/utils/SafeERC20Upgradeable.sol\":5328:5981  function _callOptionalReturn(IERC20Upgradeable token, bytes memory data) private {... */\n    tag_212:\n        /* \"@openzeppelin/contracts-upgradeable/token/ERC20/utils/SafeERC20Upgradeable.sol\":5758:5781  bytes memory returndata */\n      0x00\n        /* \"@openzeppelin/contracts-upgradeable/token/ERC20/utils/SafeERC20Upgradeable.sol\":5784:5853  address(token).functionCall(data, \"SafeERC20: low-level call failed\") */\n      tag_281\n        /* \"@openzeppelin/contracts-upgradeable/token/ERC20/utils/SafeERC20Upgradeable.sol\":5812:5816  data */\n      dup3\n        /* \"@openzeppelin/contracts-upgradeable/token/ERC20/utils/SafeERC20Upgradeable.sol\":5784:5853  address(token).functionCall(data, \"SafeERC20: low-level call failed\") */\n      mload(0x40)\n      dup1\n      0x40\n      add\n      0x40\n      mstore\n      dup1\n      0x20\n      dup2\n      mstore\n      0x20\n      add\n      0x5361666545524332303a206c6f772d6c6576656c2063616c6c206661696c6564\n      dup2\n      mstore\n      pop\n        /* \"@openzeppelin/contracts-upgradeable/token/ERC20/utils/SafeERC20Upgradeable.sol\":5792:5797  token */\n      dup6\n        /* \"@openzeppelin/contracts-upgradeable/token/ERC20/utils/SafeERC20Upgradeable.sol\":5784:5811  address(token).functionCall */\n      0xffffffffffffffffffffffffffffffffffffffff\n      and\n      tag_282\n      swap1\n        /* \"@openzeppelin/contracts-upgradeable/token/ERC20/utils/SafeERC20Upgradeable.sol\":5784:5853  address(token).functionCall(data, \"SafeERC20: low-level call failed\") */\n      swap3\n      swap2\n      swap1\n      0xffffffff\n      and\n      jump\t// in\n    tag_281:\n        /* \"@openzeppelin/contracts-upgradeable/token/ERC20/utils/SafeERC20Upgradeable.sol\":5758:5853  bytes memory returndata = address(token).functionCall(data, \"SafeERC20: low-level call failed\") */\n      swap1\n      pop\n        /* \"@openzeppelin/contracts-upgradeable/token/ERC20/utils/SafeERC20Upgradeable.sol\":5892:5893  0 */\n      0x00\n        /* \"@openzeppelin/contracts-upgradeable/token/ERC20/utils/SafeERC20Upgradeable.sol\":5871:5881  returndata */\n      dup2\n        /* \"@openzeppelin/contracts-upgradeable/token/ERC20/utils/SafeERC20Upgradeable.sol\":5871:5888  returndata.length */\n      mload\n        /* \"@openzeppelin/contracts-upgradeable/token/ERC20/utils/SafeERC20Upgradeable.sol\":5871:5893  returndata.length == 0 */\n      eq\n        /* \"@openzeppelin/contracts-upgradeable/token/ERC20/utils/SafeERC20Upgradeable.sol\":5871:5927  returndata.length == 0 || abi.decode(returndata, (bool)) */\n      dup1\n      tag_283\n      jumpi\n      pop\n        /* \"@openzeppelin/contracts-upgradeable/token/ERC20/utils/SafeERC20Upgradeable.sol\":5908:5918  returndata */\n      dup1\n        /* \"@openzeppelin/contracts-upgradeable/token/ERC20/utils/SafeERC20Upgradeable.sol\":5897:5927  abi.decode(returndata, (bool)) */\n      dup1\n      0x20\n      add\n      swap1\n      mload\n      dup2\n      add\n      swap1\n      tag_284\n      swap2\n      swap1\n      tag_285\n      jump\t// in\n    tag_284:\n        /* \"@openzeppelin/contracts-upgradeable/token/ERC20/utils/SafeERC20Upgradeable.sol\":5871:5927  returndata.length == 0 || abi.decode(returndata, (bool)) */\n    tag_283:\n        /* \"@openzeppelin/contracts-upgradeable/token/ERC20/utils/SafeERC20Upgradeable.sol\":5863:5974  require(returndata.length == 0 || abi.decode(returndata, (bool)), \"SafeERC20: ERC20 operation did not succeed\") */\n      tag_286\n      jumpi\n      mload(0x40)\n      0x08c379a000000000000000000000000000000000000000000000000000000000\n      dup2\n      mstore\n      0x04\n      add\n      tag_287\n      swap1\n      tag_288\n      jump\t// in\n    tag_287:\n      mload(0x40)\n      dup1\n      swap2\n      sub\n      swap1\n      revert\n    tag_286:\n        /* \"@openzeppelin/contracts-upgradeable/token/ERC20/utils/SafeERC20Upgradeable.sol\":5409:5981  {... */\n      pop\n        /* \"@openzeppelin/contracts-upgradeable/token/ERC20/utils/SafeERC20Upgradeable.sol\":5328:5981  function _callOptionalReturn(IERC20Upgradeable token, bytes memory data) private {... */\n      pop\n      pop\n      jump\t// out\n        /* \"@openzeppelin/contracts-upgradeable/token/ERC20/utils/SafeERC20Upgradeable.sol\":6482:7098  function _callOptionalReturnBool(IERC20Upgradeable token, bytes memory data) private returns (bool) {... */\n    tag_217:\n        /* \"@openzeppelin/contracts-upgradeable/token/ERC20/utils/SafeERC20Upgradeable.sol\":6576:6580  bool */\n      0x00\n        /* \"@openzeppelin/contracts-upgradeable/token/ERC20/utils/SafeERC20Upgradeable.sol\":6878:6890  bool success */\n      0x00\n        /* \"@openzeppelin/contracts-upgradeable/token/ERC20/utils/SafeERC20Upgradeable.sol\":6892:6915  bytes memory returndata */\n      0x00\n        /* \"@openzeppelin/contracts-upgradeable/token/ERC20/utils/SafeERC20Upgradeable.sol\":6927:6932  token */\n      dup5\n        /* \"@openzeppelin/contracts-upgradeable/token/ERC20/utils/SafeERC20Upgradeable.sol\":6919:6938  address(token).call */\n      0xffffffffffffffffffffffffffffffffffffffff\n      and\n        /* \"@openzeppelin/contracts-upgradeable/token/ERC20/utils/SafeERC20Upgradeable.sol\":6939:6943  data */\n      dup5\n        /* \"@openzeppelin/contracts-upgradeable/token/ERC20/utils/SafeERC20Upgradeable.sol\":6919:6944  address(token).call(data) */\n      mload(0x40)\n      tag_290\n      swap2\n      swap1\n      tag_291\n      jump\t// in\n    tag_290:\n      0x00\n      mload(0x40)\n      dup1\n      dup4\n      sub\n      dup2\n      0x00\n      dup7\n      gas\n      call\n      swap2\n      pop\n      pop\n      returndatasize\n      dup1\n      0x00\n      dup2\n      eq\n      tag_294\n      jumpi\n      mload(0x40)\n      swap2\n      pop\n      and(add(returndatasize, 0x3f), not(0x1f))\n      dup3\n      add\n      0x40\n      mstore\n      returndatasize\n      dup3\n      mstore\n      returndatasize\n      0x00\n      0x20\n      dup5\n      add\n      returndatacopy\n      jump(tag_293)\n    tag_294:\n      0x60\n      swap2\n      pop\n    tag_293:\n      pop\n        /* \"@openzeppelin/contracts-upgradeable/token/ERC20/utils/SafeERC20Upgradeable.sol\":6877:6944  (bool success, bytes memory returndata) = address(token).call(data) */\n      swap2\n      pop\n      swap2\n      pop\n        /* \"@openzeppelin/contracts-upgradeable/token/ERC20/utils/SafeERC20Upgradeable.sol\":6973:6980  success */\n      dup2\n        /* \"@openzeppelin/contracts-upgradeable/token/ERC20/utils/SafeERC20Upgradeable.sol\":6973:7042  success && (returndata.length == 0 || abi.decode(returndata, (bool))) */\n      dup1\n      iszero\n      tag_295\n      jumpi\n      pop\n        /* \"@openzeppelin/contracts-upgradeable/token/ERC20/utils/SafeERC20Upgradeable.sol\":7006:7007  0 */\n      0x00\n        /* \"@openzeppelin/contracts-upgradeable/token/ERC20/utils/SafeERC20Upgradeable.sol\":6985:6995  returndata */\n      dup2\n        /* \"@openzeppelin/contracts-upgradeable/token/ERC20/utils/SafeERC20Upgradeable.sol\":6985:7002  returndata.length */\n      mload\n        /* \"@openzeppelin/contracts-upgradeable/token/ERC20/utils/SafeERC20Upgradeable.sol\":6985:7007  returndata.length == 0 */\n      eq\n        /* \"@openzeppelin/contracts-upgradeable/token/ERC20/utils/SafeERC20Upgradeable.sol\":6985:7041  returndata.length == 0 || abi.decode(returndata, (bool)) */\n      dup1\n      tag_296\n      jumpi\n      pop\n        /* \"@openzeppelin/contracts-upgradeable/token/ERC20/utils/SafeERC20Upgradeable.sol\":7022:7032  returndata */\n      dup1\n        /* \"@openzeppelin/contracts-upgradeable/token/ERC20/utils/SafeERC20Upgradeable.sol\":7011:7041  abi.decode(returndata, (bool)) */\n      dup1\n      0x20\n      add\n      swap1\n      mload\n      dup2\n      add\n      swap1\n      tag_297\n      swap2\n      swap1\n      tag_285\n      jump\t// in\n    tag_297:\n        /* \"@openzeppelin/contracts-upgradeable/token/ERC20/utils/SafeERC20Upgradeable.sol\":6985:7041  returndata.length == 0 || abi.decode(returndata, (bool)) */\n    tag_296:\n        /* \"@openzeppelin/contracts-upgradeable/token/ERC20/utils/SafeERC20Upgradeable.sol\":6973:7042  success && (returndata.length == 0 || abi.decode(returndata, (bool))) */\n    tag_295:\n        /* \"@openzeppelin/contracts-upgradeable/token/ERC20/utils/SafeERC20Upgradeable.sol\":6973:7091  success && (returndata.length == 0 || abi.decode(returndata, (bool))) && AddressUpgradeable.isContract(address(token)) */\n      dup1\n      iszero\n      tag_298\n      jumpi\n      pop\n        /* \"@openzeppelin/contracts-upgradeable/token/ERC20/utils/SafeERC20Upgradeable.sol\":7046:7091  AddressUpgradeable.isContract(address(token)) */\n      tag_299\n        /* \"@openzeppelin/contracts-upgradeable/token/ERC20/utils/SafeERC20Upgradeable.sol\":7084:7089  token */\n      dup6\n        /* \"@openzeppelin/contracts-upgradeable/token/ERC20/utils/SafeERC20Upgradeable.sol\":7046:7075  AddressUpgradeable.isContract */\n      tag_300\n        /* \"@openzeppelin/contracts-upgradeable/token/ERC20/utils/SafeERC20Upgradeable.sol\":7046:7091  AddressUpgradeable.isContract(address(token)) */\n      jump\t// in\n    tag_299:\n        /* \"@openzeppelin/contracts-upgradeable/token/ERC20/utils/SafeERC20Upgradeable.sol\":6973:7091  success && (returndata.length == 0 || abi.decode(returndata, (bool))) && AddressUpgradeable.isContract(address(token)) */\n    tag_298:\n        /* \"@openzeppelin/contracts-upgradeable/token/ERC20/utils/SafeERC20Upgradeable.sol\":6954:7091  return... */\n      swap3\n      pop\n      pop\n      pop\n        /* \"@openzeppelin/contracts-upgradeable/token/ERC20/utils/SafeERC20Upgradeable.sol\":6482:7098  function _callOptionalReturnBool(IERC20Upgradeable token, bytes memory data) private returns (bool) {... */\n      swap3\n      swap2\n      pop\n      pop\n      jump\t// out\n        /* \"@openzeppelin/contracts-upgradeable/proxy/utils/Initializable.sol\":8819:8941  function _initializableStorageSlot() internal pure virtual returns (bytes32) {... */\n    tag_230:\n        /* \"@openzeppelin/contracts-upgradeable/proxy/utils/Initializable.sol\":8887:8894  bytes32 */\n      0x00\n        /* \"@openzeppelin/contracts-upgradeable/proxy/utils/Initializable.sol\":3147:3213  0xf0c57e16840df040f15088dc2f81fe391c3923bec73e23a9662efc9c229c6a00 */\n      0xf0c57e16840df040f15088dc2f81fe391c3923bec73e23a9662efc9c229c6a00\n        /* \"@openzeppelin/contracts-upgradeable/proxy/utils/Initializable.sol\":8913:8934  INITIALIZABLE_STORAGE */\n      0x00\n      shl\n        /* \"@openzeppelin/contracts-upgradeable/proxy/utils/Initializable.sol\":8906:8934  return INITIALIZABLE_STORAGE */\n      swap1\n      pop\n        /* \"@openzeppelin/contracts-upgradeable/proxy/utils/Initializable.sol\":8819:8941  function _initializableStorageSlot() internal pure virtual returns (bytes32) {... */\n      swap1\n      jump\t// out\n        /* \"@openzeppelin/contracts-upgradeable/proxy/utils/Initializable.sol\":7082:7223  function _checkInitializing() internal view virtual {... */\n    tag_233:\n        /* \"@openzeppelin/contracts-upgradeable/proxy/utils/Initializable.sol\":7149:7166  _isInitializing() */\n      tag_303\n        /* \"@openzeppelin/contracts-upgradeable/proxy/utils/Initializable.sol\":7149:7164  _isInitializing */\n      tag_304\n        /* \"@openzeppelin/contracts-upgradeable/proxy/utils/Initializable.sol\":7149:7166  _isInitializing() */\n      jump\t// in\n    tag_303:\n        /* \"@openzeppelin/contracts-upgradeable/proxy/utils/Initializable.sol\":7144:7217  if (!_isInitializing()) {... */\n      tag_305\n      jumpi\n        /* \"@openzeppelin/contracts-upgradeable/proxy/utils/Initializable.sol\":7189:7206  NotInitializing() */\n      mload(0x40)\n      0xd7e6bcf800000000000000000000000000000000000000000000000000000000\n      dup2\n      mstore\n      0x04\n      add\n      mload(0x40)\n      dup1\n      swap2\n      sub\n      swap1\n      revert\n        /* \"@openzeppelin/contracts-upgradeable/proxy/utils/Initializable.sol\":7144:7217  if (!_isInitializing()) {... */\n    tag_305:\n        /* \"@openzeppelin/contracts-upgradeable/proxy/utils/Initializable.sol\":7082:7223  function _checkInitializing() internal view virtual {... */\n      jump\t// out\n        /* \"@openzeppelin/contracts-upgradeable/access/OwnableUpgradeable.sol\":1980:2215  function __Ownable_init_unchained(address initialOwner) internal onlyInitializing {... */\n    tag_236:\n        /* \"@openzeppelin/contracts-upgradeable/proxy/utils/Initializable.sol\":6929:6949  _checkInitializing() */\n      tag_307\n        /* \"@openzeppelin/contracts-upgradeable/proxy/utils/Initializable.sol\":6929:6947  _checkInitializing */\n      tag_233\n        /* \"@openzeppelin/contracts-upgradeable/proxy/utils/Initializable.sol\":6929:6949  _checkInitializing() */\n      jump\t// in\n    tag_307:\n        /* \"@openzeppelin/contracts-upgradeable/access/OwnableUpgradeable.sol\":2100:2101  0 */\n      0x00\n        /* \"@openzeppelin/contracts-upgradeable/access/OwnableUpgradeable.sol\":2076:2102  initialOwner == address(0) */\n      0xffffffffffffffffffffffffffffffffffffffff\n      and\n        /* \"@openzeppelin/contracts-upgradeable/access/OwnableUpgradeable.sol\":2076:2088  initialOwner */\n      dup2\n        /* \"@openzeppelin/contracts-upgradeable/access/OwnableUpgradeable.sol\":2076:2102  initialOwner == address(0) */\n      0xffffffffffffffffffffffffffffffffffffffff\n      and\n      sub\n        /* \"@openzeppelin/contracts-upgradeable/access/OwnableUpgradeable.sol\":2072:2167  if (initialOwner == address(0)) {... */\n      tag_309\n      jumpi\n        /* \"@openzeppelin/contracts-upgradeable/access/OwnableUpgradeable.sol\":2153:2154  0 */\n      0x00\n        /* \"@openzeppelin/contracts-upgradeable/access/OwnableUpgradeable.sol\":2125:2156  OwnableInvalidOwner(address(0)) */\n      mload(0x40)\n      0x1e4fbdf700000000000000000000000000000000000000000000000000000000\n      dup2\n      mstore\n      0x04\n      add\n      tag_310\n      swap2\n      swap1\n      tag_45\n      jump\t// in\n    tag_310:\n      mload(0x40)\n      dup1\n      swap2\n      sub\n      swap1\n      revert\n        /* \"@openzeppelin/contracts-upgradeable/access/OwnableUpgradeable.sol\":2072:2167  if (initialOwner == address(0)) {... */\n    tag_309:\n        /* \"@openzeppelin/contracts-upgradeable/access/OwnableUpgradeable.sol\":2176:2208  _transferOwnership(initialOwner) */\n      tag_311\n        /* \"@openzeppelin/contracts-upgradeable/access/OwnableUpgradeable.sol\":2195:2207  initialOwner */\n      dup2\n        /* \"@openzeppelin/contracts-upgradeable/access/OwnableUpgradeable.sol\":2176:2194  _transferOwnership */\n      tag_188\n        /* \"@openzeppelin/contracts-upgradeable/access/OwnableUpgradeable.sol\":2176:2208  _transferOwnership(initialOwner) */\n      jump\t// in\n    tag_311:\n        /* \"@openzeppelin/contracts-upgradeable/access/OwnableUpgradeable.sol\":1980:2215  function __Ownable_init_unchained(address initialOwner) internal onlyInitializing {... */\n      pop\n      jump\t// out\n        /* \"@openzeppelin/contracts-upgradeable/utils/ReentrancyGuardUpgradeable.sol\":2801:2984  function __ReentrancyGuard_init_unchained() internal onlyInitializing {... */\n    tag_241:\n        /* \"@openzeppelin/contracts-upgradeable/proxy/utils/Initializable.sol\":6929:6949  _checkInitializing() */\n      tag_313\n        /* \"@openzeppelin/contracts-upgradeable/proxy/utils/Initializable.sol\":6929:6947  _checkInitializing */\n      tag_233\n        /* \"@openzeppelin/contracts-upgradeable/proxy/utils/Initializable.sol\":6929:6949  _checkInitializing() */\n      jump\t// in\n    tag_313:\n        /* \"@openzeppelin/contracts-upgradeable/utils/ReentrancyGuardUpgradeable.sol\":2881:2913  ReentrancyGuardStorage storage $ */\n      0x00\n        /* \"@openzeppelin/contracts-upgradeable/utils/ReentrancyGuardUpgradeable.sol\":2916:2944  _getReentrancyGuardStorage() */\n      tag_315\n        /* \"@openzeppelin/contracts-upgradeable/utils/ReentrancyGuardUpgradeable.sol\":2916:2942  _getReentrancyGuardStorage */\n      tag_206\n        /* \"@openzeppelin/contracts-upgradeable/utils/ReentrancyGuardUpgradeable.sol\":2916:2944  _getReentrancyGuardStorage() */\n      jump\t// in\n    tag_315:\n        /* \"@openzeppelin/contracts-upgradeable/utils/ReentrancyGuardUpgradeable.sol\":2881:2944  ReentrancyGuardStorage storage $ = _getReentrancyGuardStorage() */\n      swap1\n      pop\n        /* \"@openzeppelin/contracts-upgradeable/utils/ReentrancyGuardUpgradeable.sol\":1949:1950  1 */\n      0x01\n        /* \"@openzeppelin/contracts-upgradeable/utils/ReentrancyGuardUpgradeable.sol\":2954:2955  $ */\n      dup2\n        /* \"@openzeppelin/contracts-upgradeable/utils/ReentrancyGuardUpgradeable.sol\":2954:2963  $._status */\n      0x00\n      add\n        /* \"@openzeppelin/contracts-upgradeable/utils/ReentrancyGuardUpgradeable.sol\":2954:2977  $._status = NOT_ENTERED */\n      dup2\n      swap1\n      sstore\n      pop\n        /* \"@openzeppelin/contracts-upgradeable/utils/ReentrancyGuardUpgradeable.sol\":2871:2984  {... */\n      pop\n        /* \"@openzeppelin/contracts-upgradeable/utils/ReentrancyGuardUpgradeable.sol\":2801:2984  function __ReentrancyGuard_init_unchained() internal onlyInitializing {... */\n      jump\t// out\n        /* \"@openzeppelin/contracts/proxy/ERC1967/ERC1967Utils.sol\":1441:1579  function getImplementation() internal view returns (address) {... */\n    tag_248:\n        /* \"@openzeppelin/contracts/proxy/ERC1967/ERC1967Utils.sol\":1493:1500  address */\n      0x00\n        /* \"@openzeppelin/contracts/proxy/ERC1967/ERC1967Utils.sol\":1519:1566  StorageSlot.getAddressSlot(IMPLEMENTATION_SLOT) */\n      tag_317\n        /* \"@openzeppelin/contracts/proxy/ERC1967/ERC1967Utils.sol\":811:877  0x360894a13ba1a3210667c828492db98dca3e2076cc3735a920a3ca505d382bbc */\n      0x360894a13ba1a3210667c828492db98dca3e2076cc3735a920a3ca505d382bbc\n        /* \"@openzeppelin/contracts/proxy/ERC1967/ERC1967Utils.sol\":1546:1565  IMPLEMENTATION_SLOT */\n      0x00\n      shl\n        /* \"@openzeppelin/contracts/proxy/ERC1967/ERC1967Utils.sol\":1519:1545  StorageSlot.getAddressSlot */\n      tag_318\n        /* \"@openzeppelin/contracts/proxy/ERC1967/ERC1967Utils.sol\":1519:1566  StorageSlot.getAddressSlot(IMPLEMENTATION_SLOT) */\n      jump\t// in\n    tag_317:\n        /* \"@openzeppelin/contracts/proxy/ERC1967/ERC1967Utils.sol\":1519:1572  StorageSlot.getAddressSlot(IMPLEMENTATION_SLOT).value */\n      0x00\n      add\n      0x00\n      swap1\n      sload\n      swap1\n      0x0100\n      exp\n      swap1\n      div\n      0xffffffffffffffffffffffffffffffffffffffff\n      and\n        /* \"@openzeppelin/contracts/proxy/ERC1967/ERC1967Utils.sol\":1512:1572  return StorageSlot.getAddressSlot(IMPLEMENTATION_SLOT).value */\n      swap1\n      pop\n        /* \"@openzeppelin/contracts/proxy/ERC1967/ERC1967Utils.sol\":1441:1579  function getImplementation() internal view returns (address) {... */\n      swap1\n      jump\t// out\n        /* \"@openzeppelin/contracts/proxy/ERC1967/ERC1967Utils.sol\":2264:2608  function upgradeToAndCall(address newImplementation, bytes memory data) internal {... */\n    tag_266:\n        /* \"@openzeppelin/contracts/proxy/ERC1967/ERC1967Utils.sol\":2355:2392  _setImplementation(newImplementation) */\n      tag_320\n        /* \"@openzeppelin/contracts/proxy/ERC1967/ERC1967Utils.sol\":2374:2391  newImplementation */\n      dup3\n        /* \"@openzeppelin/contracts/proxy/ERC1967/ERC1967Utils.sol\":2355:2373  _setImplementation */\n      tag_321\n        /* \"@openzeppelin/contracts/proxy/ERC1967/ERC1967Utils.sol\":2355:2392  _setImplementation(newImplementation) */\n      jump\t// in\n    tag_320:\n        /* \"@openzeppelin/contracts/proxy/ERC1967/ERC1967Utils.sol\":2425:2442  newImplementation */\n      dup2\n        /* \"@openzeppelin/contracts/proxy/ERC1967/ERC1967Utils.sol\":2407:2443  IERC1967.Upgraded(newImplementation) */\n      0xffffffffffffffffffffffffffffffffffffffff\n      and\n      0xbc7cd75a20ee27fd9adebab32041f755214dbc6bffa90cc0225b39da2e5c2d3b\n      mload(0x40)\n      mload(0x40)\n      dup1\n      swap2\n      sub\n      swap1\n      log2\n        /* \"@openzeppelin/contracts/proxy/ERC1967/ERC1967Utils.sol\":2472:2473  0 */\n      0x00\n        /* \"@openzeppelin/contracts/proxy/ERC1967/ERC1967Utils.sol\":2458:2462  data */\n      dup2\n        /* \"@openzeppelin/contracts/proxy/ERC1967/ERC1967Utils.sol\":2458:2469  data.length */\n      mload\n        /* \"@openzeppelin/contracts/proxy/ERC1967/ERC1967Utils.sol\":2458:2473  data.length > 0 */\n      gt\n        /* \"@openzeppelin/contracts/proxy/ERC1967/ERC1967Utils.sol\":2454:2602  if (data.length > 0) {... */\n      iszero\n      tag_322\n      jumpi\n        /* \"@openzeppelin/contracts/proxy/ERC1967/ERC1967Utils.sol\":2489:2542  Address.functionDelegateCall(newImplementation, data) */\n      tag_323\n        /* \"@openzeppelin/contracts/proxy/ERC1967/ERC1967Utils.sol\":2518:2535  newImplementation */\n      dup3\n        /* \"@openzeppelin/contracts/proxy/ERC1967/ERC1967Utils.sol\":2537:2541  data */\n      dup3\n        /* \"@openzeppelin/contracts/proxy/ERC1967/ERC1967Utils.sol\":2489:2517  Address.functionDelegateCall */\n      tag_324\n        /* \"@openzeppelin/contracts/proxy/ERC1967/ERC1967Utils.sol\":2489:2542  Address.functionDelegateCall(newImplementation, data) */\n      jump\t// in\n    tag_323:\n      pop\n        /* \"@openzeppelin/contracts/proxy/ERC1967/ERC1967Utils.sol\":2454:2602  if (data.length > 0) {... */\n      jump(tag_325)\n    tag_322:\n        /* \"@openzeppelin/contracts/proxy/ERC1967/ERC1967Utils.sol\":2573:2591  _checkNonPayable() */\n      tag_326\n        /* \"@openzeppelin/contracts/proxy/ERC1967/ERC1967Utils.sol\":2573:2589  _checkNonPayable */\n      tag_327\n        /* \"@openzeppelin/contracts/proxy/ERC1967/ERC1967Utils.sol\":2573:2591  _checkNonPayable() */\n      jump\t// in\n    tag_326:\n        /* \"@openzeppelin/contracts/proxy/ERC1967/ERC1967Utils.sol\":2454:2602  if (data.length > 0) {... */\n    tag_325:\n        /* \"@openzeppelin/contracts/proxy/ERC1967/ERC1967Utils.sol\":2264:2608  function upgradeToAndCall(address newImplementation, bytes memory data) internal {... */\n      pop\n      pop\n      jump\t// out\n        /* \"@openzeppelin/contracts-upgradeable/utils/ContextUpgradeable.sol\":887:983  function _msgSender() internal view virtual returns (address) {... */\n    tag_271:\n        /* \"@openzeppelin/contracts-upgradeable/utils/ContextUpgradeable.sol\":940:947  address */\n      0x00\n        /* \"@openzeppelin/contracts-upgradeable/utils/ContextUpgradeable.sol\":966:976  msg.sender */\n      caller\n        /* \"@openzeppelin/contracts-upgradeable/utils/ContextUpgradeable.sol\":959:976  return msg.sender */\n      swap1\n      pop\n        /* \"@openzeppelin/contracts-upgradeable/utils/ContextUpgradeable.sol\":887:983  function _msgSender() internal view virtual returns (address) {... */\n      swap1\n      jump\t// out\n        /* \"@openzeppelin/contracts-upgradeable/utils/AddressUpgradeable.sol\":4119:4342  function functionCall(... */\n    tag_282:\n        /* \"@openzeppelin/contracts-upgradeable/utils/AddressUpgradeable.sol\":4252:4264  bytes memory */\n      0x60\n        /* \"@openzeppelin/contracts-upgradeable/utils/AddressUpgradeable.sol\":4283:4335  functionCallWithValue(target, data, 0, errorMessage) */\n      tag_330\n        /* \"@openzeppelin/contracts-upgradeable/utils/AddressUpgradeable.sol\":4305:4311  target */\n      dup5\n        /* \"@openzeppelin/contracts-upgradeable/utils/AddressUpgradeable.sol\":4313:4317  data */\n      dup5\n        /* \"@openzeppelin/contracts-upgradeable/utils/AddressUpgradeable.sol\":4319:4320  0 */\n      0x00\n        /* \"@openzeppelin/contracts-upgradeable/utils/AddressUpgradeable.sol\":4322:4334  errorMessage */\n      dup6\n        /* \"@openzeppelin/contracts-upgradeable/utils/AddressUpgradeable.sol\":4283:4304  functionCallWithValue */\n      tag_331\n        /* \"@openzeppelin/contracts-upgradeable/utils/AddressUpgradeable.sol\":4283:4335  functionCallWithValue(target, data, 0, errorMessage) */\n      jump\t// in\n    tag_330:\n        /* \"@openzeppelin/contracts-upgradeable/utils/AddressUpgradeable.sol\":4276:4335  return functionCallWithValue(target, data, 0, errorMessage) */\n      swap1\n      pop\n        /* \"@openzeppelin/contracts-upgradeable/utils/AddressUpgradeable.sol\":4119:4342  function functionCall(... */\n      swap4\n      swap3\n      pop\n      pop\n      pop\n      jump\t// out\n        /* \"@openzeppelin/contracts-upgradeable/utils/AddressUpgradeable.sol\":1423:1743  function isContract(address account) internal view returns (bool) {... */\n    tag_300:\n        /* \"@openzeppelin/contracts-upgradeable/utils/AddressUpgradeable.sol\":1483:1487  bool */\n      0x00\n        /* \"@openzeppelin/contracts-upgradeable/utils/AddressUpgradeable.sol\":1735:1736  0 */\n      0x00\n        /* \"@openzeppelin/contracts-upgradeable/utils/AddressUpgradeable.sol\":1713:1720  account */\n      dup3\n        /* \"@openzeppelin/contracts-upgradeable/utils/AddressUpgradeable.sol\":1713:1732  account.code.length */\n      0xffffffffffffffffffffffffffffffffffffffff\n      and\n      extcodesize\n        /* \"@openzeppelin/contracts-upgradeable/utils/AddressUpgradeable.sol\":1713:1736  account.code.length > 0 */\n      gt\n        /* \"@openzeppelin/contracts-upgradeable/utils/AddressUpgradeable.sol\":1706:1736  return account.code.length > 0 */\n      swap1\n      pop\n        /* \"@openzeppelin/contracts-upgradeable/utils/AddressUpgradeable.sol\":1423:1743  function isContract(address account) internal view returns (bool) {... */\n      swap2\n      swap1\n      pop\n      jump\t// out\n        /* \"@openzeppelin/contracts-upgradeable/proxy/utils/Initializable.sol\":8485:8605  function _isInitializing() internal view returns (bool) {... */\n    tag_304:\n        /* \"@openzeppelin/contracts-upgradeable/proxy/utils/Initializable.sol\":8535:8539  bool */\n      0x00\n        /* \"@openzeppelin/contracts-upgradeable/proxy/utils/Initializable.sol\":8558:8584  _getInitializableStorage() */\n      tag_334\n        /* \"@openzeppelin/contracts-upgradeable/proxy/utils/Initializable.sol\":8558:8582  _getInitializableStorage */\n      tag_155\n        /* \"@openzeppelin/contracts-upgradeable/proxy/utils/Initializable.sol\":8558:8584  _getInitializableStorage() */\n      jump\t// in\n    tag_334:\n        /* \"@openzeppelin/contracts-upgradeable/proxy/utils/Initializable.sol\":8558:8598  _getInitializableStorage()._initializing */\n      0x00\n      add\n      0x08\n      swap1\n      sload\n      swap1\n      0x0100\n      exp\n      swap1\n      div\n      0xff\n      and\n        /* \"@openzeppelin/contracts-upgradeable/proxy/utils/Initializable.sol\":8551:8598  return _getInitializableStorage()._initializing */\n      swap1\n      pop\n        /* \"@openzeppelin/contracts-upgradeable/proxy/utils/Initializable.sol\":8485:8605  function _isInitializing() internal view returns (bool) {... */\n      swap1\n      jump\t// out\n        /* \"@openzeppelin/contracts/utils/StorageSlot.sol\":1899:2062  function getAddressSlot(bytes32 slot) internal pure returns (AddressSlot storage r) {... */\n    tag_318:\n        /* \"@openzeppelin/contracts/utils/StorageSlot.sol\":1960:1981  AddressSlot storage r */\n      0x00\n        /* \"@openzeppelin/contracts/utils/StorageSlot.sol\":2042:2046  slot */\n      dup2\n        /* \"@openzeppelin/contracts/utils/StorageSlot.sol\":2032:2046  r.slot := slot */\n      swap1\n      pop\n        /* \"@openzeppelin/contracts/utils/StorageSlot.sol\":1899:2062  function getAddressSlot(bytes32 slot) internal pure returns (AddressSlot storage r) {... */\n      swap2\n      swap1\n      pop\n      jump\t// out\n        /* \"@openzeppelin/contracts/proxy/ERC1967/ERC1967Utils.sol\":1671:1952  function _setImplementation(address newImplementation) private {... */\n    tag_321:\n        /* \"@openzeppelin/contracts/proxy/ERC1967/ERC1967Utils.sol\":1781:1782  0 */\n      0x00\n        /* \"@openzeppelin/contracts/proxy/ERC1967/ERC1967Utils.sol\":1748:1765  newImplementation */\n      dup2\n        /* \"@openzeppelin/contracts/proxy/ERC1967/ERC1967Utils.sol\":1748:1777  newImplementation.code.length */\n      0xffffffffffffffffffffffffffffffffffffffff\n      and\n      extcodesize\n        /* \"@openzeppelin/contracts/proxy/ERC1967/ERC1967Utils.sol\":1748:1782  newImplementation.code.length == 0 */\n      sub\n        /* \"@openzeppelin/contracts/proxy/ERC1967/ERC1967Utils.sol\":1744:1863  if (newImplementation.code.length == 0) {... */\n      tag_337\n      jumpi\n        /* \"@openzeppelin/contracts/proxy/ERC1967/ERC1967Utils.sol\":1834:1851  newImplementation */\n      dup1\n        /* \"@openzeppelin/contracts/proxy/ERC1967/ERC1967Utils.sol\":1805:1852  ERC1967InvalidImplementation(newImplementation) */\n      mload(0x40)\n      0x4c9c8ce300000000000000000000000000000000000000000000000000000000\n      dup2\n      mstore\n      0x04\n      add\n      tag_338\n      swap2\n      swap1\n      tag_45\n      jump\t// in\n    tag_338:\n      mload(0x40)\n      dup1\n      swap2\n      sub\n      swap1\n      revert\n        /* \"@openzeppelin/contracts/proxy/ERC1967/ERC1967Utils.sol\":1744:1863  if (newImplementation.code.length == 0) {... */\n    tag_337:\n        /* \"@openzeppelin/contracts/proxy/ERC1967/ERC1967Utils.sol\":1928:1945  newImplementation */\n      dup1\n        /* \"@openzeppelin/contracts/proxy/ERC1967/ERC1967Utils.sol\":1872:1919  StorageSlot.getAddressSlot(IMPLEMENTATION_SLOT) */\n      tag_339\n        /* \"@openzeppelin/contracts/proxy/ERC1967/ERC1967Utils.sol\":811:877  0x360894a13ba1a3210667c828492db98dca3e2076cc3735a920a3ca505d382bbc */\n      0x360894a13ba1a3210667c828492db98dca3e2076cc3735a920a3ca505d382bbc\n        /* \"@openzeppelin/contracts/proxy/ERC1967/ERC1967Utils.sol\":1899:1918  IMPLEMENTATION_SLOT */\n      0x00\n      shl\n        /* \"@openzeppelin/contracts/proxy/ERC1967/ERC1967Utils.sol\":1872:1898  StorageSlot.getAddressSlot */\n      tag_318\n        /* \"@openzeppelin/contracts/proxy/ERC1967/ERC1967Utils.sol\":1872:1919  StorageSlot.getAddressSlot(IMPLEMENTATION_SLOT) */\n      jump\t// in\n    tag_339:\n        /* \"@openzeppelin/contracts/proxy/ERC1967/ERC1967Utils.sol\":1872:1925  StorageSlot.getAddressSlot(IMPLEMENTATION_SLOT).value */\n      0x00\n      add\n      0x00\n        /* \"@openzeppelin/contracts/proxy/ERC1967/ERC1967Utils.sol\":1872:1945  StorageSlot.getAddressSlot(IMPLEMENTATION_SLOT).value = newImplementation */\n      0x0100\n      exp\n      dup2\n      sload\n      dup2\n      0xffffffffffffffffffffffffffffffffffffffff\n      mul\n      not\n      and\n      swap1\n      dup4\n      0xffffffffffffffffffffffffffffffffffffffff\n      and\n      mul\n      or\n      swap1\n      sstore\n      pop\n        /* \"@openzeppelin/contracts/proxy/ERC1967/ERC1967Utils.sol\":1671:1952  function _setImplementation(address newImplementation) private {... */\n      pop\n      jump\t// out\n        /* \"@openzeppelin/contracts/utils/Address.sol\":3916:4169  function functionDelegateCall(address target, bytes memory data) internal returns (bytes memory) {... */\n    tag_324:\n        /* \"@openzeppelin/contracts/utils/Address.sol\":3999:4011  bytes memory */\n      0x60\n        /* \"@openzeppelin/contracts/utils/Address.sol\":4024:4036  bool success */\n      0x00\n        /* \"@openzeppelin/contracts/utils/Address.sol\":4038:4061  bytes memory returndata */\n      0x00\n        /* \"@openzeppelin/contracts/utils/Address.sol\":4065:4071  target */\n      dup5\n        /* \"@openzeppelin/contracts/utils/Address.sol\":4065:4084  target.delegatecall */\n      0xffffffffffffffffffffffffffffffffffffffff\n      and\n        /* \"@openzeppelin/contracts/utils/Address.sol\":4085:4089  data */\n      dup5\n        /* \"@openzeppelin/contracts/utils/Address.sol\":4065:4090  target.delegatecall(data) */\n      mload(0x40)\n      tag_341\n      swap2\n      swap1\n      tag_291\n      jump\t// in\n    tag_341:\n      0x00\n      mload(0x40)\n      dup1\n      dup4\n      sub\n      dup2\n      dup6\n      gas\n      delegatecall\n      swap2\n      pop\n      pop\n      returndatasize\n      dup1\n      0x00\n      dup2\n      eq\n      tag_344\n      jumpi\n      mload(0x40)\n      swap2\n      pop\n      and(add(returndatasize, 0x3f), not(0x1f))\n      dup3\n      add\n      0x40\n      mstore\n      returndatasize\n      dup3\n      mstore\n      returndatasize\n      0x00\n      0x20\n      dup5\n      add\n      returndatacopy\n      jump(tag_343)\n    tag_344:\n      0x60\n      swap2\n      pop\n    tag_343:\n      pop\n        /* \"@openzeppelin/contracts/utils/Address.sol\":4023:4090  (bool success, bytes memory returndata) = target.delegatecall(data) */\n      swap2\n      pop\n      swap2\n      pop\n        /* \"@openzeppelin/contracts/utils/Address.sol\":4107:4162  verifyCallResultFromTarget(target, success, returndata) */\n      tag_345\n        /* \"@openzeppelin/contracts/utils/Address.sol\":4134:4140  target */\n      dup6\n        /* \"@openzeppelin/contracts/utils/Address.sol\":4142:4149  success */\n      dup4\n        /* \"@openzeppelin/contracts/utils/Address.sol\":4151:4161  returndata */\n      dup4\n        /* \"@openzeppelin/contracts/utils/Address.sol\":4107:4133  verifyCallResultFromTarget */\n      tag_346\n        /* \"@openzeppelin/contracts/utils/Address.sol\":4107:4162  verifyCallResultFromTarget(target, success, returndata) */\n      jump\t// in\n    tag_345:\n        /* \"@openzeppelin/contracts/utils/Address.sol\":4100:4162  return verifyCallResultFromTarget(target, success, returndata) */\n      swap3\n      pop\n      pop\n      pop\n        /* \"@openzeppelin/contracts/utils/Address.sol\":3916:4169  function functionDelegateCall(address target, bytes memory data) internal returns (bytes memory) {... */\n      swap3\n      swap2\n      pop\n      pop\n      jump\t// out\n        /* \"@openzeppelin/contracts/proxy/ERC1967/ERC1967Utils.sol\":6113:6235  function _checkNonPayable() private {... */\n    tag_327:\n        /* \"@openzeppelin/contracts/proxy/ERC1967/ERC1967Utils.sol\":6175:6176  0 */\n      0x00\n        /* \"@openzeppelin/contracts/proxy/ERC1967/ERC1967Utils.sol\":6163:6172  msg.value */\n      callvalue\n        /* \"@openzeppelin/contracts/proxy/ERC1967/ERC1967Utils.sol\":6163:6176  msg.value > 0 */\n      gt\n        /* \"@openzeppelin/contracts/proxy/ERC1967/ERC1967Utils.sol\":6159:6229  if (msg.value > 0) {... */\n      iszero\n      tag_348\n      jumpi\n        /* \"@openzeppelin/contracts/proxy/ERC1967/ERC1967Utils.sol\":6199:6218  ERC1967NonPayable() */\n      mload(0x40)\n      0xb398979f00000000000000000000000000000000000000000000000000000000\n      dup2\n      mstore\n      0x04\n      add\n      mload(0x40)\n      dup1\n      swap2\n      sub\n      swap1\n      revert\n        /* \"@openzeppelin/contracts/proxy/ERC1967/ERC1967Utils.sol\":6159:6229  if (msg.value > 0) {... */\n    tag_348:\n        /* \"@openzeppelin/contracts/proxy/ERC1967/ERC1967Utils.sol\":6113:6235  function _checkNonPayable() private {... */\n      jump\t// out\n        /* \"@openzeppelin/contracts-upgradeable/utils/AddressUpgradeable.sol\":5176:5622  function functionCallWithValue(... */\n    tag_331:\n        /* \"@openzeppelin/contracts-upgradeable/utils/AddressUpgradeable.sol\":5341:5353  bytes memory */\n      0x60\n        /* \"@openzeppelin/contracts-upgradeable/utils/AddressUpgradeable.sol\":5398:5403  value */\n      dup3\n        /* \"@openzeppelin/contracts-upgradeable/utils/AddressUpgradeable.sol\":5373:5394  address(this).balance */\n      selfbalance\n        /* \"@openzeppelin/contracts-upgradeable/utils/AddressUpgradeable.sol\":5373:5403  address(this).balance >= value */\n      lt\n      iszero\n        /* \"@openzeppelin/contracts-upgradeable/utils/AddressUpgradeable.sol\":5365:5446  require(address(this).balance >= value, \"Address: insufficient balance for call\") */\n      tag_350\n      jumpi\n      mload(0x40)\n      0x08c379a000000000000000000000000000000000000000000000000000000000\n      dup2\n      mstore\n      0x04\n      add\n      tag_351\n      swap1\n      tag_352\n      jump\t// in\n    tag_351:\n      mload(0x40)\n      dup1\n      swap2\n      sub\n      swap1\n      revert\n    tag_350:\n        /* \"@openzeppelin/contracts-upgradeable/utils/AddressUpgradeable.sol\":5457:5469  bool success */\n      0x00\n        /* \"@openzeppelin/contracts-upgradeable/utils/AddressUpgradeable.sol\":5471:5494  bytes memory returndata */\n      0x00\n        /* \"@openzeppelin/contracts-upgradeable/utils/AddressUpgradeable.sol\":5498:5504  target */\n      dup7\n        /* \"@openzeppelin/contracts-upgradeable/utils/AddressUpgradeable.sol\":5498:5509  target.call */\n      0xffffffffffffffffffffffffffffffffffffffff\n      and\n        /* \"@openzeppelin/contracts-upgradeable/utils/AddressUpgradeable.sol\":5517:5522  value */\n      dup6\n        /* \"@openzeppelin/contracts-upgradeable/utils/AddressUpgradeable.sol\":5524:5528  data */\n      dup8\n        /* \"@openzeppelin/contracts-upgradeable/utils/AddressUpgradeable.sol\":5498:5529  target.call{value: value}(data) */\n      mload(0x40)\n      tag_353\n      swap2\n      swap1\n      tag_291\n      jump\t// in\n    tag_353:\n      0x00\n      mload(0x40)\n      dup1\n      dup4\n      sub\n      dup2\n      dup6\n      dup8\n      gas\n      call\n      swap3\n      pop\n      pop\n      pop\n      returndatasize\n      dup1\n      0x00\n      dup2\n      eq\n      tag_356\n      jumpi\n      mload(0x40)\n      swap2\n      pop\n      and(add(returndatasize, 0x3f), not(0x1f))\n      dup3\n      add\n      0x40\n      mstore\n      returndatasize\n      dup3\n      mstore\n      returndatasize\n      0x00\n      0x20\n      dup5\n      add\n      returndatacopy\n      jump(tag_355)\n    tag_356:\n      0x60\n      swap2\n      pop\n    tag_355:\n      pop\n        /* \"@openzeppelin/contracts-upgradeable/utils/AddressUpgradeable.sol\":5456:5529  (bool success, bytes memory returndata) = target.call{value: value}(data) */\n      swap2\n      pop\n      swap2\n      pop\n        /* \"@openzeppelin/contracts-upgradeable/utils/AddressUpgradeable.sol\":5546:5615  verifyCallResultFromTarget(target, success, returndata, errorMessage) */\n      tag_357\n        /* \"@openzeppelin/contracts-upgradeable/utils/AddressUpgradeable.sol\":5573:5579  target */\n      dup8\n        /* \"@openzeppelin/contracts-upgradeable/utils/AddressUpgradeable.sol\":5581:5588  success */\n      dup4\n        /* \"@openzeppelin/contracts-upgradeable/utils/AddressUpgradeable.sol\":5590:5600  returndata */\n      dup4\n        /* \"@openzeppelin/contracts-upgradeable/utils/AddressUpgradeable.sol\":5602:5614  errorMessage */\n      dup8\n        /* \"@openzeppelin/contracts-upgradeable/utils/AddressUpgradeable.sol\":5546:5572  verifyCallResultFromTarget */\n      tag_358\n        /* \"@openzeppelin/contracts-upgradeable/utils/AddressUpgradeable.sol\":5546:5615  verifyCallResultFromTarget(target, success, returndata, errorMessage) */\n      jump\t// in\n    tag_357:\n        /* \"@openzeppelin/contracts-upgradeable/utils/AddressUpgradeable.sol\":5539:5615  return verifyCallResultFromTarget(target, success, returndata, errorMessage) */\n      swap3\n      pop\n      pop\n      pop\n        /* \"@openzeppelin/contracts-upgradeable/utils/AddressUpgradeable.sol\":5176:5622  function functionCallWithValue(... */\n      swap5\n      swap4\n      pop\n      pop\n      pop\n      pop\n      jump\t// out\n        /* \"@openzeppelin/contracts/utils/Address.sol\":4437:5019  function verifyCallResultFromTarget(... */\n    tag_346:\n        /* \"@openzeppelin/contracts/utils/Address.sol\":4581:4593  bytes memory */\n      0x60\n        /* \"@openzeppelin/contracts/utils/Address.sol\":4610:4617  success */\n      dup3\n        /* \"@openzeppelin/contracts/utils/Address.sol\":4605:5013  if (!success) {... */\n      tag_360\n      jumpi\n        /* \"@openzeppelin/contracts/utils/Address.sol\":4633:4652  _revert(returndata) */\n      tag_361\n        /* \"@openzeppelin/contracts/utils/Address.sol\":4641:4651  returndata */\n      dup3\n        /* \"@openzeppelin/contracts/utils/Address.sol\":4633:4640  _revert */\n      tag_362\n        /* \"@openzeppelin/contracts/utils/Address.sol\":4633:4652  _revert(returndata) */\n      jump\t// in\n    tag_361:\n        /* \"@openzeppelin/contracts/utils/Address.sol\":4605:5013  if (!success) {... */\n      jump(tag_363)\n    tag_360:\n        /* \"@openzeppelin/contracts/utils/Address.sol\":4878:4879  0 */\n      0x00\n        /* \"@openzeppelin/contracts/utils/Address.sol\":4857:4867  returndata */\n      dup3\n        /* \"@openzeppelin/contracts/utils/Address.sol\":4857:4874  returndata.length */\n      mload\n        /* \"@openzeppelin/contracts/utils/Address.sol\":4857:4879  returndata.length == 0 */\n      eq\n        /* \"@openzeppelin/contracts/utils/Address.sol\":4857:4906  returndata.length == 0 && target.code.length == 0 */\n      dup1\n      iszero\n      tag_364\n      jumpi\n      pop\n        /* \"@openzeppelin/contracts/utils/Address.sol\":4905:4906  0 */\n      0x00\n        /* \"@openzeppelin/contracts/utils/Address.sol\":4883:4889  target */\n      dup5\n        /* \"@openzeppelin/contracts/utils/Address.sol\":4883:4901  target.code.length */\n      0xffffffffffffffffffffffffffffffffffffffff\n      and\n      extcodesize\n        /* \"@openzeppelin/contracts/utils/Address.sol\":4883:4906  target.code.length == 0 */\n      eq\n        /* \"@openzeppelin/contracts/utils/Address.sol\":4857:4906  returndata.length == 0 && target.code.length == 0 */\n    tag_364:\n        /* \"@openzeppelin/contracts/utils/Address.sol\":4853:4972  if (returndata.length == 0 && target.code.length == 0) {... */\n      iszero\n      tag_365\n      jumpi\n        /* \"@openzeppelin/contracts/utils/Address.sol\":4950:4956  target */\n      dup4\n        /* \"@openzeppelin/contracts/utils/Address.sol\":4933:4957  AddressEmptyCode(target) */\n      mload(0x40)\n      0x9996b31500000000000000000000000000000000000000000000000000000000\n      dup2\n      mstore\n      0x04\n      add\n      tag_366\n      swap2\n      swap1\n      tag_45\n      jump\t// in\n    tag_366:\n      mload(0x40)\n      dup1\n      swap2\n      sub\n      swap1\n      revert\n        /* \"@openzeppelin/contracts/utils/Address.sol\":4853:4972  if (returndata.length == 0 && target.code.length == 0) {... */\n    tag_365:\n        /* \"@openzeppelin/contracts/utils/Address.sol\":4992:5002  returndata */\n      dup2\n        /* \"@openzeppelin/contracts/utils/Address.sol\":4985:5002  return returndata */\n      swap1\n      pop\n      jump(tag_359)\n        /* \"@openzeppelin/contracts/utils/Address.sol\":4605:5013  if (!success) {... */\n    tag_363:\n        /* \"@openzeppelin/contracts/utils/Address.sol\":4437:5019  function verifyCallResultFromTarget(... */\n    tag_359:\n      swap4\n      swap3\n      pop\n      pop\n      pop\n      jump\t// out\n        /* \"@openzeppelin/contracts-upgradeable/utils/AddressUpgradeable.sol\":7682:8310  function verifyCallResultFromTarget(... */\n    tag_358:\n        /* \"@openzeppelin/contracts-upgradeable/utils/AddressUpgradeable.sol\":7862:7874  bytes memory */\n      0x60\n        /* \"@openzeppelin/contracts-upgradeable/utils/AddressUpgradeable.sol\":7890:7897  success */\n      dup4\n        /* \"@openzeppelin/contracts-upgradeable/utils/AddressUpgradeable.sol\":7886:8304  if (success) {... */\n      iszero\n      tag_368\n      jumpi\n        /* \"@openzeppelin/contracts-upgradeable/utils/AddressUpgradeable.sol\":7938:7939  0 */\n      0x00\n        /* \"@openzeppelin/contracts-upgradeable/utils/AddressUpgradeable.sol\":7917:7927  returndata */\n      dup4\n        /* \"@openzeppelin/contracts-upgradeable/utils/AddressUpgradeable.sol\":7917:7934  returndata.length */\n      mload\n        /* \"@openzeppelin/contracts-upgradeable/utils/AddressUpgradeable.sol\":7917:7939  returndata.length == 0 */\n      sub\n        /* \"@openzeppelin/contracts-upgradeable/utils/AddressUpgradeable.sol\":7913:8199  if (returndata.length == 0) {... */\n      tag_369\n      jumpi\n        /* \"@openzeppelin/contracts-upgradeable/utils/AddressUpgradeable.sol\":8132:8150  isContract(target) */\n      tag_370\n        /* \"@openzeppelin/contracts-upgradeable/utils/AddressUpgradeable.sol\":8143:8149  target */\n      dup6\n        /* \"@openzeppelin/contracts-upgradeable/utils/AddressUpgradeable.sol\":8132:8142  isContract */\n      tag_300\n        /* \"@openzeppelin/contracts-upgradeable/utils/AddressUpgradeable.sol\":8132:8150  isContract(target) */\n      jump\t// in\n    tag_370:\n        /* \"@openzeppelin/contracts-upgradeable/utils/AddressUpgradeable.sol\":8124:8184  require(isContract(target), \"Address: call to non-contract\") */\n      tag_371\n      jumpi\n      mload(0x40)\n      0x08c379a000000000000000000000000000000000000000000000000000000000\n      dup2\n      mstore\n      0x04\n      add\n      tag_372\n      swap1\n      tag_373\n      jump\t// in\n    tag_372:\n      mload(0x40)\n      dup1\n      swap2\n      sub\n      swap1\n      revert\n    tag_371:\n        /* \"@openzeppelin/contracts-upgradeable/utils/AddressUpgradeable.sol\":7913:8199  if (returndata.length == 0) {... */\n    tag_369:\n        /* \"@openzeppelin/contracts-upgradeable/utils/AddressUpgradeable.sol\":8219:8229  returndata */\n      dup3\n        /* \"@openzeppelin/contracts-upgradeable/utils/AddressUpgradeable.sol\":8212:8229  return returndata */\n      swap1\n      pop\n      jump(tag_367)\n        /* \"@openzeppelin/contracts-upgradeable/utils/AddressUpgradeable.sol\":7886:8304  if (success) {... */\n    tag_368:\n        /* \"@openzeppelin/contracts-upgradeable/utils/AddressUpgradeable.sol\":8260:8293  _revert(returndata, errorMessage) */\n      tag_375\n        /* \"@openzeppelin/contracts-upgradeable/utils/AddressUpgradeable.sol\":8268:8278  returndata */\n      dup4\n        /* \"@openzeppelin/contracts-upgradeable/utils/AddressUpgradeable.sol\":8280:8292  errorMessage */\n      dup4\n        /* \"@openzeppelin/contracts-upgradeable/utils/AddressUpgradeable.sol\":8260:8267  _revert */\n      tag_376\n        /* \"@openzeppelin/contracts-upgradeable/utils/AddressUpgradeable.sol\":8260:8293  _revert(returndata, errorMessage) */\n      jump\t// in\n    tag_375:\n        /* \"@openzeppelin/contracts-upgradeable/utils/AddressUpgradeable.sol\":7682:8310  function verifyCallResultFromTarget(... */\n    tag_367:\n      swap5\n      swap4\n      pop\n      pop\n      pop\n      pop\n      jump\t// out\n        /* \"@openzeppelin/contracts/utils/Address.sol\":5559:5993  function _revert(bytes memory returndata) private pure {... */\n    tag_362:\n        /* \"@openzeppelin/contracts/utils/Address.sol\":5710:5711  0 */\n      0x00\n        /* \"@openzeppelin/contracts/utils/Address.sol\":5690:5700  returndata */\n      dup2\n        /* \"@openzeppelin/contracts/utils/Address.sol\":5690:5707  returndata.length */\n      mload\n        /* \"@openzeppelin/contracts/utils/Address.sol\":5690:5711  returndata.length > 0 */\n      gt\n        /* \"@openzeppelin/contracts/utils/Address.sol\":5686:5987  if (returndata.length > 0) {... */\n      iszero\n      tag_378\n      jumpi\n        /* \"@openzeppelin/contracts/utils/Address.sol\":5894:5904  returndata */\n      dup1\n        /* \"@openzeppelin/contracts/utils/Address.sol\":5888:5905  mload(returndata) */\n      mload\n        /* \"@openzeppelin/contracts/utils/Address.sol\":5881:5885  0x20 */\n      0x20\n        /* \"@openzeppelin/contracts/utils/Address.sol\":5869:5879  returndata */\n      dup3\n        /* \"@openzeppelin/contracts/utils/Address.sol\":5865:5886  add(returndata, 0x20) */\n      add\n        /* \"@openzeppelin/contracts/utils/Address.sol\":5858:5906  revert(add(returndata, 0x20), mload(returndata)) */\n      revert\n        /* \"@openzeppelin/contracts/utils/Address.sol\":5686:5987  if (returndata.length > 0) {... */\n    tag_378:\n        /* \"@openzeppelin/contracts/utils/Address.sol\":5957:5976  Errors.FailedCall() */\n      mload(0x40)\n      0xd6bda27500000000000000000000000000000000000000000000000000000000\n      dup2\n      mstore\n      0x04\n      add\n      mload(0x40)\n      dup1\n      swap2\n      sub\n      swap1\n      revert\n        /* \"@openzeppelin/contracts-upgradeable/utils/AddressUpgradeable.sol\":8832:9372  function _revert(bytes memory returndata, string memory errorMessage) private pure {... */\n    tag_376:\n        /* \"@openzeppelin/contracts-upgradeable/utils/AddressUpgradeable.sol\":9011:9012  0 */\n      0x00\n        /* \"@openzeppelin/contracts-upgradeable/utils/AddressUpgradeable.sol\":8991:9001  returndata */\n      dup3\n        /* \"@openzeppelin/contracts-upgradeable/utils/AddressUpgradeable.sol\":8991:9008  returndata.length */\n      mload\n        /* \"@openzeppelin/contracts-upgradeable/utils/AddressUpgradeable.sol\":8991:9012  returndata.length > 0 */\n      gt\n        /* \"@openzeppelin/contracts-upgradeable/utils/AddressUpgradeable.sol\":8987:9366  if (returndata.length > 0) {... */\n      iszero\n      tag_381\n      jumpi\n        /* \"@openzeppelin/contracts-upgradeable/utils/AddressUpgradeable.sol\":9219:9229  returndata */\n      dup2\n        /* \"@openzeppelin/contracts-upgradeable/utils/AddressUpgradeable.sol\":9213:9230  mload(returndata) */\n      mload\n        /* \"@openzeppelin/contracts-upgradeable/utils/AddressUpgradeable.sol\":9275:9290  returndata_size */\n      dup1\n        /* \"@openzeppelin/contracts-upgradeable/utils/AddressUpgradeable.sol\":9262:9272  returndata */\n      dup4\n        /* \"@openzeppelin/contracts-upgradeable/utils/AddressUpgradeable.sol\":9258:9260  32 */\n      0x20\n        /* \"@openzeppelin/contracts-upgradeable/utils/AddressUpgradeable.sol\":9254:9273  add(32, returndata) */\n      add\n        /* \"@openzeppelin/contracts-upgradeable/utils/AddressUpgradeable.sol\":9247:9291  revert(add(32, returndata), returndata_size) */\n      revert\n        /* \"@openzeppelin/contracts-upgradeable/utils/AddressUpgradeable.sol\":8987:9366  if (returndata.length > 0) {... */\n    tag_381:\n        /* \"@openzeppelin/contracts-upgradeable/utils/AddressUpgradeable.sol\":9342:9354  errorMessage */\n      dup1\n        /* \"@openzeppelin/contracts-upgradeable/utils/AddressUpgradeable.sol\":9335:9355  revert(errorMessage) */\n      mload(0x40)\n      0x08c379a000000000000000000000000000000000000000000000000000000000\n      dup2\n      mstore\n      0x04\n      add\n      tag_383\n      swap2\n      swap1\n      tag_92\n      jump\t// in\n    tag_383:\n      mload(0x40)\n      dup1\n      swap2\n      sub\n      swap1\n      revert\n        /* \"#utility.yul\":7:133   */\n    tag_384:\n        /* \"#utility.yul\":44:51   */\n      0x00\n        /* \"#utility.yul\":84:126   */\n      0xffffffffffffffffffffffffffffffffffffffff\n        /* \"#utility.yul\":77:82   */\n      dup3\n        /* \"#utility.yul\":73:127   */\n      and\n        /* \"#utility.yul\":62:127   */\n      swap1\n      pop\n        /* \"#utility.yul\":7:133   */\n      swap2\n      swap1\n      pop\n      jump\t// out\n        /* \"#utility.yul\":139:199   */\n    tag_385:\n        /* \"#utility.yul\":167:170   */\n      0x00\n        /* \"#utility.yul\":188:193   */\n      dup2\n        /* \"#utility.yul\":181:193   */\n      swap1\n      pop\n        /* \"#utility.yul\":139:199   */\n      swap2\n      swap1\n      pop\n      jump\t// out\n        /* \"#utility.yul\":205:347   */\n    tag_386:\n        /* \"#utility.yul\":255:264   */\n      0x00\n        /* \"#utility.yul\":288:341   */\n      tag_454\n        /* \"#utility.yul\":306:340   */\n      tag_455\n        /* \"#utility.yul\":315:339   */\n      tag_456\n        /* \"#utility.yul\":333:338   */\n      dup5\n        /* \"#utility.yul\":315:339   */\n      tag_384\n      jump\t// in\n    tag_456:\n        /* \"#utility.yul\":306:340   */\n      tag_385\n      jump\t// in\n    tag_455:\n        /* \"#utility.yul\":288:341   */\n      tag_384\n      jump\t// in\n    tag_454:\n        /* \"#utility.yul\":275:341   */\n      swap1\n      pop\n        /* \"#utility.yul\":205:347   */\n      swap2\n      swap1\n      pop\n      jump\t// out\n        /* \"#utility.yul\":353:479   */\n    tag_387:\n        /* \"#utility.yul\":403:412   */\n      0x00\n        /* \"#utility.yul\":436:473   */\n      tag_458\n        /* \"#utility.yul\":467:472   */\n      dup3\n        /* \"#utility.yul\":436:473   */\n      tag_386\n      jump\t// in\n    tag_458:\n        /* \"#utility.yul\":423:473   */\n      swap1\n      pop\n        /* \"#utility.yul\":353:479   */\n      swap2\n      swap1\n      pop\n      jump\t// out\n        /* \"#utility.yul\":485:636   */\n    tag_388:\n        /* \"#utility.yul\":560:569   */\n      0x00\n        /* \"#utility.yul\":593:630   */\n      tag_460\n        /* \"#utility.yul\":624:629   */\n      dup3\n        /* \"#utility.yul\":593:630   */\n      tag_387\n      jump\t// in\n    tag_460:\n        /* \"#utility.yul\":580:630   */\n      swap1\n      pop\n        /* \"#utility.yul\":485:636   */\n      swap2\n      swap1\n      pop\n      jump\t// out\n        /* \"#utility.yul\":642:823   */\n    tag_389:\n        /* \"#utility.yul\":754:816   */\n      tag_462\n        /* \"#utility.yul\":810:815   */\n      dup2\n        /* \"#utility.yul\":754:816   */\n      tag_388\n      jump\t// in\n    tag_462:\n        /* \"#utility.yul\":749:752   */\n      dup3\n        /* \"#utility.yul\":742:817   */\n      mstore\n        /* \"#utility.yul\":642:823   */\n      pop\n      pop\n      jump\t// out\n        /* \"#utility.yul\":829:1101   */\n    tag_26:\n        /* \"#utility.yul\":947:951   */\n      0x00\n        /* \"#utility.yul\":985:987   */\n      0x20\n        /* \"#utility.yul\":974:983   */\n      dup3\n        /* \"#utility.yul\":970:988   */\n      add\n        /* \"#utility.yul\":962:988   */\n      swap1\n      pop\n        /* \"#utility.yul\":998:1094   */\n      tag_464\n        /* \"#utility.yul\":1091:1092   */\n      0x00\n        /* \"#utility.yul\":1080:1089   */\n      dup4\n        /* \"#utility.yul\":1076:1093   */\n      add\n        /* \"#utility.yul\":1067:1073   */\n      dup5\n        /* \"#utility.yul\":998:1094   */\n      tag_389\n      jump\t// in\n    tag_464:\n        /* \"#utility.yul\":829:1101   */\n      swap3\n      swap2\n      pop\n      pop\n      jump\t// out\n        /* \"#utility.yul\":1107:1182   */\n    tag_390:\n        /* \"#utility.yul\":1140:1146   */\n      0x00\n        /* \"#utility.yul\":1173:1175   */\n      0x40\n        /* \"#utility.yul\":1167:1176   */\n      mload\n        /* \"#utility.yul\":1157:1176   */\n      swap1\n      pop\n        /* \"#utility.yul\":1107:1182   */\n      swap1\n      jump\t// out\n        /* \"#utility.yul\":1188:1305   */\n    tag_391:\n        /* \"#utility.yul\":1297:1298   */\n      0x00\n        /* \"#utility.yul\":1294:1295   */\n      0x00\n        /* \"#utility.yul\":1287:1299   */\n      revert\n        /* \"#utility.yul\":1311:1428   */\n    tag_392:\n        /* \"#utility.yul\":1420:1421   */\n      0x00\n        /* \"#utility.yul\":1417:1418   */\n      0x00\n        /* \"#utility.yul\":1410:1422   */\n      revert\n        /* \"#utility.yul\":1434:1530   */\n    tag_393:\n        /* \"#utility.yul\":1471:1478   */\n      0x00\n        /* \"#utility.yul\":1500:1524   */\n      tag_469\n        /* \"#utility.yul\":1518:1523   */\n      dup3\n        /* \"#utility.yul\":1500:1524   */\n      tag_384\n      jump\t// in\n    tag_469:\n        /* \"#utility.yul\":1489:1524   */\n      swap1\n      pop\n        /* \"#utility.yul\":1434:1530   */\n      swap2\n      swap1\n      pop\n      jump\t// out\n        /* \"#utility.yul\":1536:1658   */\n    tag_394:\n        /* \"#utility.yul\":1609:1633   */\n      tag_471\n        /* \"#utility.yul\":1627:1632   */\n      dup2\n        /* \"#utility.yul\":1609:1633   */\n      tag_393\n      jump\t// in\n    tag_471:\n        /* \"#utility.yul\":1602:1607   */\n      dup2\n        /* \"#utility.yul\":1599:1634   */\n      eq\n        /* \"#utility.yul\":1589:1652   */\n      tag_472\n      jumpi\n        /* \"#utility.yul\":1648:1649   */\n      0x00\n        /* \"#utility.yul\":1645:1646   */\n      0x00\n        /* \"#utility.yul\":1638:1650   */\n      revert\n        /* \"#utility.yul\":1589:1652   */\n    tag_472:\n        /* \"#utility.yul\":1536:1658   */\n      pop\n      jump\t// out\n        /* \"#utility.yul\":1664:1803   */\n    tag_395:\n        /* \"#utility.yul\":1710:1715   */\n      0x00\n        /* \"#utility.yul\":1748:1754   */\n      dup2\n        /* \"#utility.yul\":1735:1755   */\n      calldataload\n        /* \"#utility.yul\":1726:1755   */\n      swap1\n      pop\n        /* \"#utility.yul\":1764:1797   */\n      tag_474\n        /* \"#utility.yul\":1791:1796   */\n      dup2\n        /* \"#utility.yul\":1764:1797   */\n      tag_394\n      jump\t// in\n    tag_474:\n        /* \"#utility.yul\":1664:1803   */\n      swap3\n      swap2\n      pop\n      pop\n      jump\t// out\n        /* \"#utility.yul\":1809:2138   */\n    tag_30:\n        /* \"#utility.yul\":1868:1874   */\n      0x00\n        /* \"#utility.yul\":1917:1919   */\n      0x20\n        /* \"#utility.yul\":1905:1914   */\n      dup3\n        /* \"#utility.yul\":1896:1903   */\n      dup5\n        /* \"#utility.yul\":1892:1915   */\n      sub\n        /* \"#utility.yul\":1888:1920   */\n      slt\n        /* \"#utility.yul\":1885:2004   */\n      iszero\n      tag_476\n      jumpi\n        /* \"#utility.yul\":1923:2002   */\n      tag_477\n      tag_391\n      jump\t// in\n    tag_477:\n        /* \"#utility.yul\":1885:2004   */\n    tag_476:\n        /* \"#utility.yul\":2043:2044   */\n      0x00\n        /* \"#utility.yul\":2068:2121   */\n      tag_478\n        /* \"#utility.yul\":2113:2120   */\n      dup5\n        /* \"#utility.yul\":2104:2110   */\n      dup3\n        /* \"#utility.yul\":2093:2102   */\n      dup6\n        /* \"#utility.yul\":2089:2111   */\n      add\n        /* \"#utility.yul\":2068:2121   */\n      tag_395\n      jump\t// in\n    tag_478:\n        /* \"#utility.yul\":2058:2121   */\n      swap2\n      pop\n        /* \"#utility.yul\":2014:2131   */\n      pop\n        /* \"#utility.yul\":1809:2138   */\n      swap3\n      swap2\n      pop\n      pop\n      jump\t// out\n        /* \"#utility.yul\":2144:2221   */\n    tag_396:\n        /* \"#utility.yul\":2181:2188   */\n      0x00\n        /* \"#utility.yul\":2210:2215   */\n      dup2\n        /* \"#utility.yul\":2199:2215   */\n      swap1\n      pop\n        /* \"#utility.yul\":2144:2221   */\n      swap2\n      swap1\n      pop\n      jump\t// out\n        /* \"#utility.yul\":2227:2345   */\n    tag_397:\n        /* \"#utility.yul\":2314:2338   */\n      tag_481\n        /* \"#utility.yul\":2332:2337   */\n      dup2\n        /* \"#utility.yul\":2314:2338   */\n      tag_396\n      jump\t// in\n    tag_481:\n        /* \"#utility.yul\":2309:2312   */\n      dup3\n        /* \"#utility.yul\":2302:2339   */\n      mstore\n        /* \"#utility.yul\":2227:2345   */\n      pop\n      pop\n      jump\t// out\n        /* \"#utility.yul\":2351:2469   */\n    tag_398:\n        /* \"#utility.yul\":2438:2462   */\n      tag_483\n        /* \"#utility.yul\":2456:2461   */\n      dup2\n        /* \"#utility.yul\":2438:2462   */\n      tag_393\n      jump\t// in\n    tag_483:\n        /* \"#utility.yul\":2433:2436   */\n      dup3\n        /* \"#utility.yul\":2426:2463   */\n      mstore\n        /* \"#utility.yul\":2351:2469   */\n      pop\n      pop\n      jump\t// out\n        /* \"#utility.yul\":2475:2917   */\n    tag_33:\n        /* \"#utility.yul\":2624:2628   */\n      0x00\n        /* \"#utility.yul\":2662:2664   */\n      0x60\n        /* \"#utility.yul\":2651:2660   */\n      dup3\n        /* \"#utility.yul\":2647:2665   */\n      add\n        /* \"#utility.yul\":2639:2665   */\n      swap1\n      pop\n        /* \"#utility.yul\":2675:2746   */\n      tag_485\n        /* \"#utility.yul\":2743:2744   */\n      0x00\n        /* \"#utility.yul\":2732:2741   */\n      dup4\n        /* \"#utility.yul\":2728:2745   */\n      add\n        /* \"#utility.yul\":2719:2725   */\n      dup7\n        /* \"#utility.yul\":2675:2746   */\n      tag_397\n      jump\t// in\n    tag_485:\n        /* \"#utility.yul\":2756:2828   */\n      tag_486\n        /* \"#utility.yul\":2824:2826   */\n      0x20\n        /* \"#utility.yul\":2813:2822   */\n      dup4\n        /* \"#utility.yul\":2809:2827   */\n      add\n        /* \"#utility.yul\":2800:2806   */\n      dup6\n        /* \"#utility.yul\":2756:2828   */\n      tag_397\n      jump\t// in\n    tag_486:\n        /* \"#utility.yul\":2838:2910   */\n      tag_487\n        /* \"#utility.yul\":2906:2908   */\n      0x40\n        /* \"#utility.yul\":2895:2904   */\n      dup4\n        /* \"#utility.yul\":2891:2909   */\n      add\n        /* \"#utility.yul\":2882:2888   */\n      dup5\n        /* \"#utility.yul\":2838:2910   */\n      tag_398\n      jump\t// in\n    tag_487:\n        /* \"#utility.yul\":2475:2917   */\n      swap5\n      swap4\n      pop\n      pop\n      pop\n      pop\n      jump\t// out\n        /* \"#utility.yul\":2923:3145   */\n    tag_38:\n        /* \"#utility.yul\":3016:3020   */\n      0x00\n        /* \"#utility.yul\":3054:3056   */\n      0x20\n        /* \"#utility.yul\":3043:3052   */\n      dup3\n        /* \"#utility.yul\":3039:3057   */\n      add\n        /* \"#utility.yul\":3031:3057   */\n      swap1\n      pop\n        /* \"#utility.yul\":3067:3138   */\n      tag_489\n        /* \"#utility.yul\":3135:3136   */\n      0x00\n        /* \"#utility.yul\":3124:3133   */\n      dup4\n        /* \"#utility.yul\":3120:3137   */\n      add\n        /* \"#utility.yul\":3111:3117   */\n      dup5\n        /* \"#utility.yul\":3067:3138   */\n      tag_397\n      jump\t// in\n    tag_489:\n        /* \"#utility.yul\":2923:3145   */\n      swap3\n      swap2\n      pop\n      pop\n      jump\t// out\n        /* \"#utility.yul\":3151:3273   */\n    tag_399:\n        /* \"#utility.yul\":3224:3248   */\n      tag_491\n        /* \"#utility.yul\":3242:3247   */\n      dup2\n        /* \"#utility.yul\":3224:3248   */\n      tag_396\n      jump\t// in\n    tag_491:\n        /* \"#utility.yul\":3217:3222   */\n      dup2\n        /* \"#utility.yul\":3214:3249   */\n      eq\n        /* \"#utility.yul\":3204:3267   */\n      tag_492\n      jumpi\n        /* \"#utility.yul\":3263:3264   */\n      0x00\n        /* \"#utility.yul\":3260:3261   */\n      0x00\n        /* \"#utility.yul\":3253:3265   */\n      revert\n        /* \"#utility.yul\":3204:3267   */\n    tag_492:\n        /* \"#utility.yul\":3151:3273   */\n      pop\n      jump\t// out\n        /* \"#utility.yul\":3279:3418   */\n    tag_400:\n        /* \"#utility.yul\":3325:3330   */\n      0x00\n        /* \"#utility.yul\":3363:3369   */\n      dup2\n        /* \"#utility.yul\":3350:3370   */\n      calldataload\n        /* \"#utility.yul\":3341:3370   */\n      swap1\n      pop\n        /* \"#utility.yul\":3379:3412   */\n      tag_494\n        /* \"#utility.yul\":3406:3411   */\n      dup2\n        /* \"#utility.yul\":3379:3412   */\n      tag_399\n      jump\t// in\n    tag_494:\n        /* \"#utility.yul\":3279:3418   */\n      swap3\n      swap2\n      pop\n      pop\n      jump\t// out\n        /* \"#utility.yul\":3424:3753   */\n    tag_42:\n        /* \"#utility.yul\":3483:3489   */\n      0x00\n        /* \"#utility.yul\":3532:3534   */\n      0x20\n        /* \"#utility.yul\":3520:3529   */\n      dup3\n        /* \"#utility.yul\":3511:3518   */\n      dup5\n        /* \"#utility.yul\":3507:3530   */\n      sub\n        /* \"#utility.yul\":3503:3535   */\n      slt\n        /* \"#utility.yul\":3500:3619   */\n      iszero\n      tag_496\n      jumpi\n        /* \"#utility.yul\":3538:3617   */\n      tag_497\n      tag_391\n      jump\t// in\n    tag_497:\n        /* \"#utility.yul\":3500:3619   */\n    tag_496:\n        /* \"#utility.yul\":3658:3659   */\n      0x00\n        /* \"#utility.yul\":3683:3736   */\n      tag_498\n        /* \"#utility.yul\":3728:3735   */\n      dup5\n        /* \"#utility.yul\":3719:3725   */\n      dup3\n        /* \"#utility.yul\":3708:3717   */\n      dup6\n        /* \"#utility.yul\":3704:3726   */\n      add\n        /* \"#utility.yul\":3683:3736   */\n      tag_400\n      jump\t// in\n    tag_498:\n        /* \"#utility.yul\":3673:3736   */\n      swap2\n      pop\n        /* \"#utility.yul\":3629:3746   */\n      pop\n        /* \"#utility.yul\":3424:3753   */\n      swap3\n      swap2\n      pop\n      pop\n      jump\t// out\n        /* \"#utility.yul\":3759:3981   */\n    tag_45:\n        /* \"#utility.yul\":3852:3856   */\n      0x00\n        /* \"#utility.yul\":3890:3892   */\n      0x20\n        /* \"#utility.yul\":3879:3888   */\n      dup3\n        /* \"#utility.yul\":3875:3893   */\n      add\n        /* \"#utility.yul\":3867:3893   */\n      swap1\n      pop\n        /* \"#utility.yul\":3903:3974   */\n      tag_500\n        /* \"#utility.yul\":3971:3972   */\n      0x00\n        /* \"#utility.yul\":3960:3969   */\n      dup4\n        /* \"#utility.yul\":3956:3973   */\n      add\n        /* \"#utility.yul\":3947:3953   */\n      dup5\n        /* \"#utility.yul\":3903:3974   */\n      tag_398\n      jump\t// in\n    tag_500:\n        /* \"#utility.yul\":3759:3981   */\n      swap3\n      swap2\n      pop\n      pop\n      jump\t// out\n        /* \"#utility.yul\":3987:4461   */\n    tag_49:\n        /* \"#utility.yul\":4055:4061   */\n      0x00\n        /* \"#utility.yul\":4063:4069   */\n      0x00\n        /* \"#utility.yul\":4112:4114   */\n      0x40\n        /* \"#utility.yul\":4100:4109   */\n      dup4\n        /* \"#utility.yul\":4091:4098   */\n      dup6\n        /* \"#utility.yul\":4087:4110   */\n      sub\n        /* \"#utility.yul\":4083:4115   */\n      slt\n        /* \"#utility.yul\":4080:4199   */\n      iszero\n      tag_502\n      jumpi\n        /* \"#utility.yul\":4118:4197   */\n      tag_503\n      tag_391\n      jump\t// in\n    tag_503:\n        /* \"#utility.yul\":4080:4199   */\n    tag_502:\n        /* \"#utility.yul\":4238:4239   */\n      0x00\n        /* \"#utility.yul\":4263:4316   */\n      tag_504\n        /* \"#utility.yul\":4308:4315   */\n      dup6\n        /* \"#utility.yul\":4299:4305   */\n      dup3\n        /* \"#utility.yul\":4288:4297   */\n      dup7\n        /* \"#utility.yul\":4284:4306   */\n      add\n        /* \"#utility.yul\":4263:4316   */\n      tag_400\n      jump\t// in\n    tag_504:\n        /* \"#utility.yul\":4253:4316   */\n      swap3\n      pop\n        /* \"#utility.yul\":4209:4326   */\n      pop\n        /* \"#utility.yul\":4365:4367   */\n      0x20\n        /* \"#utility.yul\":4391:4444   */\n      tag_505\n        /* \"#utility.yul\":4436:4443   */\n      dup6\n        /* \"#utility.yul\":4427:4433   */\n      dup3\n        /* \"#utility.yul\":4416:4425   */\n      dup7\n        /* \"#utility.yul\":4412:4434   */\n      add\n        /* \"#utility.yul\":4391:4444   */\n      tag_400\n      jump\t// in\n    tag_505:\n        /* \"#utility.yul\":4381:4444   */\n      swap2\n      pop\n        /* \"#utility.yul\":4336:4454   */\n      pop\n        /* \"#utility.yul\":3987:4461   */\n      swap3\n      pop\n      swap3\n      swap1\n      pop\n      jump\t// out\n        /* \"#utility.yul\":4467:4941   */\n    tag_58:\n        /* \"#utility.yul\":4535:4541   */\n      0x00\n        /* \"#utility.yul\":4543:4549   */\n      0x00\n        /* \"#utility.yul\":4592:4594   */\n      0x40\n        /* \"#utility.yul\":4580:4589   */\n      dup4\n        /* \"#utility.yul\":4571:4578   */\n      dup6\n        /* \"#utility.yul\":4567:4590   */\n      sub\n        /* \"#utility.yul\":4563:4595   */\n      slt\n        /* \"#utility.yul\":4560:4679   */\n      iszero\n      tag_507\n      jumpi\n        /* \"#utility.yul\":4598:4677   */\n      tag_508\n      tag_391\n      jump\t// in\n    tag_508:\n        /* \"#utility.yul\":4560:4679   */\n    tag_507:\n        /* \"#utility.yul\":4718:4719   */\n      0x00\n        /* \"#utility.yul\":4743:4796   */\n      tag_509\n        /* \"#utility.yul\":4788:4795   */\n      dup6\n        /* \"#utility.yul\":4779:4785   */\n      dup3\n        /* \"#utility.yul\":4768:4777   */\n      dup7\n        /* \"#utility.yul\":4764:4786   */\n      add\n        /* \"#utility.yul\":4743:4796   */\n      tag_395\n      jump\t// in\n    tag_509:\n        /* \"#utility.yul\":4733:4796   */\n      swap3\n      pop\n        /* \"#utility.yul\":4689:4806   */\n      pop\n        /* \"#utility.yul\":4845:4847   */\n      0x20\n        /* \"#utility.yul\":4871:4924   */\n      tag_510\n        /* \"#utility.yul\":4916:4923   */\n      dup6\n        /* \"#utility.yul\":4907:4913   */\n      dup3\n        /* \"#utility.yul\":4896:4905   */\n      dup7\n        /* \"#utility.yul\":4892:4914   */\n      add\n        /* \"#utility.yul\":4871:4924   */\n      tag_395\n      jump\t// in\n    tag_510:\n        /* \"#utility.yul\":4861:4924   */\n      swap2\n      pop\n        /* \"#utility.yul\":4816:4934   */\n      pop\n        /* \"#utility.yul\":4467:4941   */\n      swap3\n      pop\n      swap3\n      swap1\n      pop\n      jump\t// out\n        /* \"#utility.yul\":4947:5064   */\n    tag_401:\n        /* \"#utility.yul\":5056:5057   */\n      0x00\n        /* \"#utility.yul\":5053:5054   */\n      0x00\n        /* \"#utility.yul\":5046:5058   */\n      revert\n        /* \"#utility.yul\":5070:5187   */\n    tag_402:\n        /* \"#utility.yul\":5179:5180   */\n      0x00\n        /* \"#utility.yul\":5176:5177   */\n      0x00\n        /* \"#utility.yul\":5169:5181   */\n      revert\n        /* \"#utility.yul\":5193:5295   */\n    tag_403:\n        /* \"#utility.yul\":5234:5240   */\n      0x00\n        /* \"#utility.yul\":5285:5287   */\n      0x1f\n        /* \"#utility.yul\":5281:5288   */\n      not\n        /* \"#utility.yul\":5276:5278   */\n      0x1f\n        /* \"#utility.yul\":5269:5274   */\n      dup4\n        /* \"#utility.yul\":5265:5279   */\n      add\n        /* \"#utility.yul\":5261:5289   */\n      and\n        /* \"#utility.yul\":5251:5289   */\n      swap1\n      pop\n        /* \"#utility.yul\":5193:5295   */\n      swap2\n      swap1\n      pop\n      jump\t// out\n        /* \"#utility.yul\":5301:5481   */\n    tag_404:\n        /* \"#utility.yul\":5349:5426   */\n      0x4e487b7100000000000000000000000000000000000000000000000000000000\n        /* \"#utility.yul\":5346:5347   */\n      0x00\n        /* \"#utility.yul\":5339:5427   */\n      mstore\n        /* \"#utility.yul\":5446:5450   */\n      0x41\n        /* \"#utility.yul\":5443:5444   */\n      0x04\n        /* \"#utility.yul\":5436:5451   */\n      mstore\n        /* \"#utility.yul\":5470:5474   */\n      0x24\n        /* \"#utility.yul\":5467:5468   */\n      0x00\n        /* \"#utility.yul\":5460:5475   */\n      revert\n        /* \"#utility.yul\":5487:5768   */\n    tag_405:\n        /* \"#utility.yul\":5570:5597   */\n      tag_516\n        /* \"#utility.yul\":5592:5596   */\n      dup3\n        /* \"#utility.yul\":5570:5597   */\n      tag_403\n      jump\t// in\n    tag_516:\n        /* \"#utility.yul\":5562:5568   */\n      dup2\n        /* \"#utility.yul\":5558:5598   */\n      add\n        /* \"#utility.yul\":5700:5706   */\n      dup2\n        /* \"#utility.yul\":5688:5698   */\n      dup2\n        /* \"#utility.yul\":5685:5707   */\n      lt\n        /* \"#utility.yul\":5664:5682   */\n      0xffffffffffffffff\n        /* \"#utility.yul\":5652:5662   */\n      dup3\n        /* \"#utility.yul\":5649:5683   */\n      gt\n        /* \"#utility.yul\":5646:5708   */\n      or\n        /* \"#utility.yul\":5643:5731   */\n      iszero\n      tag_517\n      jumpi\n        /* \"#utility.yul\":5711:5729   */\n      tag_518\n      tag_404\n      jump\t// in\n    tag_518:\n        /* \"#utility.yul\":5643:5731   */\n    tag_517:\n        /* \"#utility.yul\":5751:5761   */\n      dup1\n        /* \"#utility.yul\":5747:5749   */\n      0x40\n        /* \"#utility.yul\":5740:5762   */\n      mstore\n        /* \"#utility.yul\":5530:5768   */\n      pop\n        /* \"#utility.yul\":5487:5768   */\n      pop\n      pop\n      jump\t// out\n        /* \"#utility.yul\":5774:5903   */\n    tag_406:\n        /* \"#utility.yul\":5808:5814   */\n      0x00\n        /* \"#utility.yul\":5835:5855   */\n      tag_520\n      tag_390\n      jump\t// in\n    tag_520:\n        /* \"#utility.yul\":5825:5855   */\n      swap1\n      pop\n        /* \"#utility.yul\":5864:5897   */\n      tag_521\n        /* \"#utility.yul\":5892:5896   */\n      dup3\n        /* \"#utility.yul\":5884:5890   */\n      dup3\n        /* \"#utility.yul\":5864:5897   */\n      tag_405\n      jump\t// in\n    tag_521:\n        /* \"#utility.yul\":5774:5903   */\n      swap2\n      swap1\n      pop\n      jump\t// out\n        /* \"#utility.yul\":5909:6216   */\n    tag_407:\n        /* \"#utility.yul\":5970:5974   */\n      0x00\n        /* \"#utility.yul\":6060:6078   */\n      0xffffffffffffffff\n        /* \"#utility.yul\":6052:6058   */\n      dup3\n        /* \"#utility.yul\":6049:6079   */\n      gt\n        /* \"#utility.yul\":6046:6102   */\n      iszero\n      tag_523\n      jumpi\n        /* \"#utility.yul\":6082:6100   */\n      tag_524\n      tag_404\n      jump\t// in\n    tag_524:\n        /* \"#utility.yul\":6046:6102   */\n    tag_523:\n        /* \"#utility.yul\":6120:6149   */\n      tag_525\n        /* \"#utility.yul\":6142:6148   */\n      dup3\n        /* \"#utility.yul\":6120:6149   */\n      tag_403\n      jump\t// in\n    tag_525:\n        /* \"#utility.yul\":6112:6149   */\n      swap1\n      pop\n        /* \"#utility.yul\":6204:6208   */\n      0x20\n        /* \"#utility.yul\":6198:6202   */\n      dup2\n        /* \"#utility.yul\":6194:6209   */\n      add\n        /* \"#utility.yul\":6186:6209   */\n      swap1\n      pop\n        /* \"#utility.yul\":5909:6216   */\n      swap2\n      swap1\n      pop\n      jump\t// out\n        /* \"#utility.yul\":6222:6370   */\n    tag_408:\n        /* \"#utility.yul\":6320:6326   */\n      dup3\n        /* \"#utility.yul\":6315:6318   */\n      dup2\n        /* \"#utility.yul\":6310:6313   */\n      dup4\n        /* \"#utility.yul\":6297:6327   */\n      calldatacopy\n        /* \"#utility.yul\":6361:6362   */\n      0x00\n        /* \"#utility.yul\":6352:6358   */\n      dup4\n        /* \"#utility.yul\":6347:6350   */\n      dup4\n        /* \"#utility.yul\":6343:6359   */\n      add\n        /* \"#utility.yul\":6336:6363   */\n      mstore\n        /* \"#utility.yul\":6222:6370   */\n      pop\n      pop\n      pop\n      jump\t// out\n        /* \"#utility.yul\":6376:6799   */\n    tag_409:\n        /* \"#utility.yul\":6453:6458   */\n      0x00\n        /* \"#utility.yul\":6478:6543   */\n      tag_528\n        /* \"#utility.yul\":6494:6542   */\n      tag_529\n        /* \"#utility.yul\":6535:6541   */\n      dup5\n        /* \"#utility.yul\":6494:6542   */\n      tag_407\n      jump\t// in\n    tag_529:\n        /* \"#utility.yul\":6478:6543   */\n      tag_406\n      jump\t// in\n    tag_528:\n        /* \"#utility.yul\":6469:6543   */\n      swap1\n      pop\n        /* \"#utility.yul\":6566:6572   */\n      dup3\n        /* \"#utility.yul\":6559:6564   */\n      dup2\n        /* \"#utility.yul\":6552:6573   */\n      mstore\n        /* \"#utility.yul\":6604:6608   */\n      0x20\n        /* \"#utility.yul\":6597:6602   */\n      dup2\n        /* \"#utility.yul\":6593:6609   */\n      add\n        /* \"#utility.yul\":6642:6645   */\n      dup5\n        /* \"#utility.yul\":6633:6639   */\n      dup5\n        /* \"#utility.yul\":6628:6631   */\n      dup5\n        /* \"#utility.yul\":6624:6640   */\n      add\n        /* \"#utility.yul\":6621:6646   */\n      gt\n        /* \"#utility.yul\":6618:6730   */\n      iszero\n      tag_530\n      jumpi\n        /* \"#utility.yul\":6649:6728   */\n      tag_531\n      tag_402\n      jump\t// in\n    tag_531:\n        /* \"#utility.yul\":6618:6730   */\n    tag_530:\n        /* \"#utility.yul\":6739:6793   */\n      tag_532\n        /* \"#utility.yul\":6786:6792   */\n      dup5\n        /* \"#utility.yul\":6781:6784   */\n      dup3\n        /* \"#utility.yul\":6776:6779   */\n      dup6\n        /* \"#utility.yul\":6739:6793   */\n      tag_408\n      jump\t// in\n    tag_532:\n        /* \"#utility.yul\":6459:6799   */\n      pop\n        /* \"#utility.yul\":6376:6799   */\n      swap4\n      swap3\n      pop\n      pop\n      pop\n      jump\t// out\n        /* \"#utility.yul\":6818:7156   */\n    tag_410:\n        /* \"#utility.yul\":6873:6878   */\n      0x00\n        /* \"#utility.yul\":6922:6925   */\n      dup3\n        /* \"#utility.yul\":6915:6919   */\n      0x1f\n        /* \"#utility.yul\":6907:6913   */\n      dup4\n        /* \"#utility.yul\":6903:6920   */\n      add\n        /* \"#utility.yul\":6899:6926   */\n      slt\n        /* \"#utility.yul\":6889:7011   */\n      tag_534\n      jumpi\n        /* \"#utility.yul\":6930:7009   */\n      tag_535\n      tag_401\n      jump\t// in\n    tag_535:\n        /* \"#utility.yul\":6889:7011   */\n    tag_534:\n        /* \"#utility.yul\":7047:7053   */\n      dup2\n        /* \"#utility.yul\":7034:7054   */\n      calldataload\n        /* \"#utility.yul\":7072:7150   */\n      tag_536\n        /* \"#utility.yul\":7146:7149   */\n      dup5\n        /* \"#utility.yul\":7138:7144   */\n      dup3\n        /* \"#utility.yul\":7131:7135   */\n      0x20\n        /* \"#utility.yul\":7123:7129   */\n      dup7\n        /* \"#utility.yul\":7119:7136   */\n      add\n        /* \"#utility.yul\":7072:7150   */\n      tag_409\n      jump\t// in\n    tag_536:\n        /* \"#utility.yul\":7063:7150   */\n      swap2\n      pop\n        /* \"#utility.yul\":6879:7156   */\n      pop\n        /* \"#utility.yul\":6818:7156   */\n      swap3\n      swap2\n      pop\n      pop\n      jump\t// out\n        /* \"#utility.yul\":7162:7814   */\n    tag_62:\n        /* \"#utility.yul\":7239:7245   */\n      0x00\n        /* \"#utility.yul\":7247:7253   */\n      0x00\n        /* \"#utility.yul\":7296:7298   */\n      0x40\n        /* \"#utility.yul\":7284:7293   */\n      dup4\n        /* \"#utility.yul\":7275:7282   */\n      dup6\n        /* \"#utility.yul\":7271:7294   */\n      sub\n        /* \"#utility.yul\":7267:7299   */\n      slt\n        /* \"#utility.yul\":7264:7383   */\n      iszero\n      tag_538\n      jumpi\n        /* \"#utility.yul\":7302:7381   */\n      tag_539\n      tag_391\n      jump\t// in\n    tag_539:\n        /* \"#utility.yul\":7264:7383   */\n    tag_538:\n        /* \"#utility.yul\":7422:7423   */\n      0x00\n        /* \"#utility.yul\":7447:7500   */\n      tag_540\n        /* \"#utility.yul\":7492:7499   */\n      dup6\n        /* \"#utility.yul\":7483:7489   */\n      dup3\n        /* \"#utility.yul\":7472:7481   */\n      dup7\n        /* \"#utility.yul\":7468:7490   */\n      add\n        /* \"#utility.yul\":7447:7500   */\n      tag_395\n      jump\t// in\n    tag_540:\n        /* \"#utility.yul\":7437:7500   */\n      swap3\n      pop\n        /* \"#utility.yul\":7393:7510   */\n      pop\n        /* \"#utility.yul\":7577:7579   */\n      0x20\n        /* \"#utility.yul\":7566:7575   */\n      dup4\n        /* \"#utility.yul\":7562:7580   */\n      add\n        /* \"#utility.yul\":7549:7581   */\n      calldataload\n        /* \"#utility.yul\":7608:7626   */\n      0xffffffffffffffff\n        /* \"#utility.yul\":7600:7606   */\n      dup2\n        /* \"#utility.yul\":7597:7627   */\n      gt\n        /* \"#utility.yul\":7594:7711   */\n      iszero\n      tag_541\n      jumpi\n        /* \"#utility.yul\":7630:7709   */\n      tag_542\n      tag_392\n      jump\t// in\n    tag_542:\n        /* \"#utility.yul\":7594:7711   */\n    tag_541:\n        /* \"#utility.yul\":7735:7797   */\n      tag_543\n        /* \"#utility.yul\":7789:7796   */\n      dup6\n        /* \"#utility.yul\":7780:7786   */\n      dup3\n        /* \"#utility.yul\":7769:7778   */\n      dup7\n        /* \"#utility.yul\":7765:7787   */\n      add\n        /* \"#utility.yul\":7735:7797   */\n      tag_410\n      jump\t// in\n    tag_543:\n        /* \"#utility.yul\":7725:7797   */\n      swap2\n      pop\n        /* \"#utility.yul\":7520:7807   */\n      pop\n        /* \"#utility.yul\":7162:7814   */\n      swap3\n      pop\n      swap3\n      swap1\n      pop\n      jump\t// out\n        /* \"#utility.yul\":7820:7897   */\n    tag_411:\n        /* \"#utility.yul\":7857:7864   */\n      0x00\n        /* \"#utility.yul\":7886:7891   */\n      dup2\n        /* \"#utility.yul\":7875:7891   */\n      swap1\n      pop\n        /* \"#utility.yul\":7820:7897   */\n      swap2\n      swap1\n      pop\n      jump\t// out\n        /* \"#utility.yul\":7903:8021   */\n    tag_412:\n        /* \"#utility.yul\":7990:8014   */\n      tag_546\n        /* \"#utility.yul\":8008:8013   */\n      dup2\n        /* \"#utility.yul\":7990:8014   */\n      tag_411\n      jump\t// in\n    tag_546:\n        /* \"#utility.yul\":7985:7988   */\n      dup3\n        /* \"#utility.yul\":7978:8015   */\n      mstore\n        /* \"#utility.yul\":7903:8021   */\n      pop\n      pop\n      jump\t// out\n        /* \"#utility.yul\":8027:8249   */\n    tag_68:\n        /* \"#utility.yul\":8120:8124   */\n      0x00\n        /* \"#utility.yul\":8158:8160   */\n      0x20\n        /* \"#utility.yul\":8147:8156   */\n      dup3\n        /* \"#utility.yul\":8143:8161   */\n      add\n        /* \"#utility.yul\":8135:8161   */\n      swap1\n      pop\n        /* \"#utility.yul\":8171:8242   */\n      tag_548\n        /* \"#utility.yul\":8239:8240   */\n      0x00\n        /* \"#utility.yul\":8228:8237   */\n      dup4\n        /* \"#utility.yul\":8224:8241   */\n      add\n        /* \"#utility.yul\":8215:8221   */\n      dup5\n        /* \"#utility.yul\":8171:8242   */\n      tag_412\n      jump\t// in\n    tag_548:\n        /* \"#utility.yul\":8027:8249   */\n      swap3\n      swap2\n      pop\n      pop\n      jump\t// out\n        /* \"#utility.yul\":8255:8402   */\n    tag_413:\n        /* \"#utility.yul\":8326:8335   */\n      0x00\n        /* \"#utility.yul\":8359:8396   */\n      tag_550\n        /* \"#utility.yul\":8390:8395   */\n      dup3\n        /* \"#utility.yul\":8359:8396   */\n      tag_387\n      jump\t// in\n    tag_550:\n        /* \"#utility.yul\":8346:8396   */\n      swap1\n      pop\n        /* \"#utility.yul\":8255:8402   */\n      swap2\n      swap1\n      pop\n      jump\t// out\n        /* \"#utility.yul\":8408:8581   */\n    tag_414:\n        /* \"#utility.yul\":8516:8574   */\n      tag_552\n        /* \"#utility.yul\":8568:8573   */\n      dup2\n        /* \"#utility.yul\":8516:8574   */\n      tag_413\n      jump\t// in\n    tag_552:\n        /* \"#utility.yul\":8511:8514   */\n      dup3\n        /* \"#utility.yul\":8504:8575   */\n      mstore\n        /* \"#utility.yul\":8408:8581   */\n      pop\n      pop\n      jump\t// out\n        /* \"#utility.yul\":8587:8851   */\n    tag_83:\n        /* \"#utility.yul\":8701:8705   */\n      0x00\n        /* \"#utility.yul\":8739:8741   */\n      0x20\n        /* \"#utility.yul\":8728:8737   */\n      dup3\n        /* \"#utility.yul\":8724:8742   */\n      add\n        /* \"#utility.yul\":8716:8742   */\n      swap1\n      pop\n        /* \"#utility.yul\":8752:8844   */\n      tag_554\n        /* \"#utility.yul\":8841:8842   */\n      0x00\n        /* \"#utility.yul\":8830:8839   */\n      dup4\n        /* \"#utility.yul\":8826:8843   */\n      add\n        /* \"#utility.yul\":8817:8823   */\n      dup5\n        /* \"#utility.yul\":8752:8844   */\n      tag_414\n      jump\t// in\n    tag_554:\n        /* \"#utility.yul\":8587:8851   */\n      swap3\n      swap2\n      pop\n      pop\n      jump\t// out\n        /* \"#utility.yul\":8857:8956   */\n    tag_415:\n        /* \"#utility.yul\":8909:8915   */\n      0x00\n        /* \"#utility.yul\":8943:8948   */\n      dup2\n        /* \"#utility.yul\":8937:8949   */\n      mload\n        /* \"#utility.yul\":8927:8949   */\n      swap1\n      pop\n        /* \"#utility.yul\":8857:8956   */\n      swap2\n      swap1\n      pop\n      jump\t// out\n        /* \"#utility.yul\":8962:9131   */\n    tag_416:\n        /* \"#utility.yul\":9046:9057   */\n      0x00\n        /* \"#utility.yul\":9080:9086   */\n      dup3\n        /* \"#utility.yul\":9075:9078   */\n      dup3\n        /* \"#utility.yul\":9068:9087   */\n      mstore\n        /* \"#utility.yul\":9120:9124   */\n      0x20\n        /* \"#utility.yul\":9115:9118   */\n      dup3\n        /* \"#utility.yul\":9111:9125   */\n      add\n        /* \"#utility.yul\":9096:9125   */\n      swap1\n      pop\n        /* \"#utility.yul\":8962:9131   */\n      swap3\n      swap2\n      pop\n      pop\n      jump\t// out\n        /* \"#utility.yul\":9137:9276   */\n    tag_417:\n        /* \"#utility.yul\":9226:9232   */\n      dup3\n        /* \"#utility.yul\":9221:9224   */\n      dup2\n        /* \"#utility.yul\":9216:9219   */\n      dup4\n        /* \"#utility.yul\":9210:9233   */\n      mcopy\n        /* \"#utility.yul\":9267:9268   */\n      0x00\n        /* \"#utility.yul\":9258:9264   */\n      dup4\n        /* \"#utility.yul\":9253:9256   */\n      dup4\n        /* \"#utility.yul\":9249:9265   */\n      add\n        /* \"#utility.yul\":9242:9269   */\n      mstore\n        /* \"#utility.yul\":9137:9276   */\n      pop\n      pop\n      pop\n      jump\t// out\n        /* \"#utility.yul\":9282:9659   */\n    tag_418:\n        /* \"#utility.yul\":9370:9373   */\n      0x00\n        /* \"#utility.yul\":9398:9437   */\n      tag_559\n        /* \"#utility.yul\":9431:9436   */\n      dup3\n        /* \"#utility.yul\":9398:9437   */\n      tag_415\n      jump\t// in\n    tag_559:\n        /* \"#utility.yul\":9453:9524   */\n      tag_560\n        /* \"#utility.yul\":9517:9523   */\n      dup2\n        /* \"#utility.yul\":9512:9515   */\n      dup6\n        /* \"#utility.yul\":9453:9524   */\n      tag_416\n      jump\t// in\n    tag_560:\n        /* \"#utility.yul\":9446:9524   */\n      swap4\n      pop\n        /* \"#utility.yul\":9533:9598   */\n      tag_561\n        /* \"#utility.yul\":9591:9597   */\n      dup2\n        /* \"#utility.yul\":9586:9589   */\n      dup6\n        /* \"#utility.yul\":9579:9583   */\n      0x20\n        /* \"#utility.yul\":9572:9577   */\n      dup7\n        /* \"#utility.yul\":9568:9584   */\n      add\n        /* \"#utility.yul\":9533:9598   */\n      tag_417\n      jump\t// in\n    tag_561:\n        /* \"#utility.yul\":9623:9652   */\n      tag_562\n        /* \"#utility.yul\":9645:9651   */\n      dup2\n        /* \"#utility.yul\":9623:9652   */\n      tag_403\n      jump\t// in\n    tag_562:\n        /* \"#utility.yul\":9618:9621   */\n      dup5\n        /* \"#utility.yul\":9614:9653   */\n      add\n        /* \"#utility.yul\":9607:9653   */\n      swap2\n      pop\n        /* \"#utility.yul\":9374:9659   */\n      pop\n        /* \"#utility.yul\":9282:9659   */\n      swap3\n      swap2\n      pop\n      pop\n      jump\t// out\n        /* \"#utility.yul\":9665:9978   */\n    tag_92:\n        /* \"#utility.yul\":9778:9782   */\n      0x00\n        /* \"#utility.yul\":9816:9818   */\n      0x20\n        /* \"#utility.yul\":9805:9814   */\n      dup3\n        /* \"#utility.yul\":9801:9819   */\n      add\n        /* \"#utility.yul\":9793:9819   */\n      swap1\n      pop\n        /* \"#utility.yul\":9865:9874   */\n      dup2\n        /* \"#utility.yul\":9859:9863   */\n      dup2\n        /* \"#utility.yul\":9855:9875   */\n      sub\n        /* \"#utility.yul\":9851:9852   */\n      0x00\n        /* \"#utility.yul\":9840:9849   */\n      dup4\n        /* \"#utility.yul\":9836:9853   */\n      add\n        /* \"#utility.yul\":9829:9876   */\n      mstore\n        /* \"#utility.yul\":9893:9971   */\n      tag_564\n        /* \"#utility.yul\":9966:9970   */\n      dup2\n        /* \"#utility.yul\":9957:9963   */\n      dup5\n        /* \"#utility.yul\":9893:9971   */\n      tag_418\n      jump\t// in\n    tag_564:\n        /* \"#utility.yul\":9885:9971   */\n      swap1\n      pop\n        /* \"#utility.yul\":9665:9978   */\n      swap3\n      swap2\n      pop\n      pop\n      jump\t// out\n        /* \"#utility.yul\":9984:10160   */\n    tag_419:\n        /* \"#utility.yul\":10124:10152   */\n      0x5a61704170793a20416d6f756e74206d757374206265203e2030000000000000\n        /* \"#utility.yul\":10120:10121   */\n      0x00\n        /* \"#utility.yul\":10112:10118   */\n      dup3\n        /* \"#utility.yul\":10108:10122   */\n      add\n        /* \"#utility.yul\":10101:10153   */\n      mstore\n        /* \"#utility.yul\":9984:10160   */\n      pop\n      jump\t// out\n        /* \"#utility.yul\":10166:10532   */\n    tag_420:\n        /* \"#utility.yul\":10308:10311   */\n      0x00\n        /* \"#utility.yul\":10329:10396   */\n      tag_567\n        /* \"#utility.yul\":10393:10395   */\n      0x1a\n        /* \"#utility.yul\":10388:10391   */\n      dup4\n        /* \"#utility.yul\":10329:10396   */\n      tag_416\n      jump\t// in\n    tag_567:\n        /* \"#utility.yul\":10322:10396   */\n      swap2\n      pop\n        /* \"#utility.yul\":10405:10498   */\n      tag_568\n        /* \"#utility.yul\":10494:10497   */\n      dup3\n        /* \"#utility.yul\":10405:10498   */\n      tag_419\n      jump\t// in\n    tag_568:\n        /* \"#utility.yul\":10523:10525   */\n      0x20\n        /* \"#utility.yul\":10518:10521   */\n      dup3\n        /* \"#utility.yul\":10514:10526   */\n      add\n        /* \"#utility.yul\":10507:10526   */\n      swap1\n      pop\n        /* \"#utility.yul\":10166:10532   */\n      swap2\n      swap1\n      pop\n      jump\t// out\n        /* \"#utility.yul\":10538:10957   */\n    tag_109:\n        /* \"#utility.yul\":10704:10708   */\n      0x00\n        /* \"#utility.yul\":10742:10744   */\n      0x20\n        /* \"#utility.yul\":10731:10740   */\n      dup3\n        /* \"#utility.yul\":10727:10745   */\n      add\n        /* \"#utility.yul\":10719:10745   */\n      swap1\n      pop\n        /* \"#utility.yul\":10791:10800   */\n      dup2\n        /* \"#utility.yul\":10785:10789   */\n      dup2\n        /* \"#utility.yul\":10781:10801   */\n      sub\n        /* \"#utility.yul\":10777:10778   */\n      0x00\n        /* \"#utility.yul\":10766:10775   */\n      dup4\n        /* \"#utility.yul\":10762:10779   */\n      add\n        /* \"#utility.yul\":10755:10802   */\n      mstore\n        /* \"#utility.yul\":10819:10950   */\n      tag_570\n        /* \"#utility.yul\":10945:10949   */\n      dup2\n        /* \"#utility.yul\":10819:10950   */\n      tag_420\n      jump\t// in\n    tag_570:\n        /* \"#utility.yul\":10811:10950   */\n      swap1\n      pop\n        /* \"#utility.yul\":10538:10957   */\n      swap2\n      swap1\n      pop\n      jump\t// out\n        /* \"#utility.yul\":10963:11143   */\n    tag_421:\n        /* \"#utility.yul\":11011:11088   */\n      0x4e487b7100000000000000000000000000000000000000000000000000000000\n        /* \"#utility.yul\":11008:11009   */\n      0x00\n        /* \"#utility.yul\":11001:11089   */\n      mstore\n        /* \"#utility.yul\":11108:11112   */\n      0x11\n        /* \"#utility.yul\":11105:11106   */\n      0x04\n        /* \"#utility.yul\":11098:11113   */\n      mstore\n        /* \"#utility.yul\":11132:11136   */\n      0x24\n        /* \"#utility.yul\":11129:11130   */\n      0x00\n        /* \"#utility.yul\":11122:11137   */\n      revert\n        /* \"#utility.yul\":11149:11340   */\n    tag_114:\n        /* \"#utility.yul\":11189:11192   */\n      0x00\n        /* \"#utility.yul\":11208:11228   */\n      tag_573\n        /* \"#utility.yul\":11226:11227   */\n      dup3\n        /* \"#utility.yul\":11208:11228   */\n      tag_396\n      jump\t// in\n    tag_573:\n        /* \"#utility.yul\":11203:11228   */\n      swap2\n      pop\n        /* \"#utility.yul\":11242:11262   */\n      tag_574\n        /* \"#utility.yul\":11260:11261   */\n      dup4\n        /* \"#utility.yul\":11242:11262   */\n      tag_396\n      jump\t// in\n    tag_574:\n        /* \"#utility.yul\":11237:11262   */\n      swap3\n      pop\n        /* \"#utility.yul\":11285:11286   */\n      dup3\n        /* \"#utility.yul\":11282:11283   */\n      dup3\n        /* \"#utility.yul\":11278:11287   */\n      add\n        /* \"#utility.yul\":11271:11287   */\n      swap1\n      pop\n        /* \"#utility.yul\":11306:11309   */\n      dup1\n        /* \"#utility.yul\":11303:11304   */\n      dup3\n        /* \"#utility.yul\":11300:11310   */\n      gt\n        /* \"#utility.yul\":11297:11333   */\n      iszero\n      tag_575\n      jumpi\n        /* \"#utility.yul\":11313:11331   */\n      tag_576\n      tag_421\n      jump\t// in\n    tag_576:\n        /* \"#utility.yul\":11297:11333   */\n    tag_575:\n        /* \"#utility.yul\":11149:11340   */\n      swap3\n      swap2\n      pop\n      pop\n      jump\t// out\n        /* \"#utility.yul\":11346:11678   */\n    tag_120:\n        /* \"#utility.yul\":11467:11471   */\n      0x00\n        /* \"#utility.yul\":11505:11507   */\n      0x40\n        /* \"#utility.yul\":11494:11503   */\n      dup3\n        /* \"#utility.yul\":11490:11508   */\n      add\n        /* \"#utility.yul\":11482:11508   */\n      swap1\n      pop\n        /* \"#utility.yul\":11518:11589   */\n      tag_578\n        /* \"#utility.yul\":11586:11587   */\n      0x00\n        /* \"#utility.yul\":11575:11584   */\n      dup4\n        /* \"#utility.yul\":11571:11588   */\n      add\n        /* \"#utility.yul\":11562:11568   */\n      dup6\n        /* \"#utility.yul\":11518:11589   */\n      tag_397\n      jump\t// in\n    tag_578:\n        /* \"#utility.yul\":11599:11671   */\n      tag_579\n        /* \"#utility.yul\":11667:11669   */\n      0x20\n        /* \"#utility.yul\":11656:11665   */\n      dup4\n        /* \"#utility.yul\":11652:11670   */\n      add\n        /* \"#utility.yul\":11643:11649   */\n      dup5\n        /* \"#utility.yul\":11599:11671   */\n      tag_398\n      jump\t// in\n    tag_579:\n        /* \"#utility.yul\":11346:11678   */\n      swap4\n      swap3\n      pop\n      pop\n      pop\n      jump\t// out\n        /* \"#utility.yul\":11684:11827   */\n    tag_422:\n        /* \"#utility.yul\":11741:11746   */\n      0x00\n        /* \"#utility.yul\":11772:11778   */\n      dup2\n        /* \"#utility.yul\":11766:11779   */\n      mload\n        /* \"#utility.yul\":11757:11779   */\n      swap1\n      pop\n        /* \"#utility.yul\":11788:11821   */\n      tag_581\n        /* \"#utility.yul\":11815:11820   */\n      dup2\n        /* \"#utility.yul\":11788:11821   */\n      tag_399\n      jump\t// in\n    tag_581:\n        /* \"#utility.yul\":11684:11827   */\n      swap3\n      swap2\n      pop\n      pop\n      jump\t// out\n        /* \"#utility.yul\":11833:12184   */\n    tag_124:\n        /* \"#utility.yul\":11903:11909   */\n      0x00\n        /* \"#utility.yul\":11952:11954   */\n      0x20\n        /* \"#utility.yul\":11940:11949   */\n      dup3\n        /* \"#utility.yul\":11931:11938   */\n      dup5\n        /* \"#utility.yul\":11927:11950   */\n      sub\n        /* \"#utility.yul\":11923:11955   */\n      slt\n        /* \"#utility.yul\":11920:12039   */\n      iszero\n      tag_583\n      jumpi\n        /* \"#utility.yul\":11958:12037   */\n      tag_584\n      tag_391\n      jump\t// in\n    tag_584:\n        /* \"#utility.yul\":11920:12039   */\n    tag_583:\n        /* \"#utility.yul\":12078:12079   */\n      0x00\n        /* \"#utility.yul\":12103:12167   */\n      tag_585\n        /* \"#utility.yul\":12159:12166   */\n      dup5\n        /* \"#utility.yul\":12150:12156   */\n      dup3\n        /* \"#utility.yul\":12139:12148   */\n      dup6\n        /* \"#utility.yul\":12135:12157   */\n      add\n        /* \"#utility.yul\":12103:12167   */\n      tag_422\n      jump\t// in\n    tag_585:\n        /* \"#utility.yul\":12093:12167   */\n      swap2\n      pop\n        /* \"#utility.yul\":12049:12177   */\n      pop\n        /* \"#utility.yul\":11833:12184   */\n      swap3\n      swap2\n      pop\n      pop\n      jump\t// out\n        /* \"#utility.yul\":12190:12522   */\n    tag_126:\n        /* \"#utility.yul\":12311:12315   */\n      0x00\n        /* \"#utility.yul\":12349:12351   */\n      0x40\n        /* \"#utility.yul\":12338:12347   */\n      dup3\n        /* \"#utility.yul\":12334:12352   */\n      add\n        /* \"#utility.yul\":12326:12352   */\n      swap1\n      pop\n        /* \"#utility.yul\":12362:12433   */\n      tag_587\n        /* \"#utility.yul\":12430:12431   */\n      0x00\n        /* \"#utility.yul\":12419:12428   */\n      dup4\n        /* \"#utility.yul\":12415:12432   */\n      add\n        /* \"#utility.yul\":12406:12412   */\n      dup6\n        /* \"#utility.yul\":12362:12433   */\n      tag_397\n      jump\t// in\n    tag_587:\n        /* \"#utility.yul\":12443:12515   */\n      tag_588\n        /* \"#utility.yul\":12511:12513   */\n      0x20\n        /* \"#utility.yul\":12500:12509   */\n      dup4\n        /* \"#utility.yul\":12496:12514   */\n      add\n        /* \"#utility.yul\":12487:12493   */\n      dup5\n        /* \"#utility.yul\":12443:12515   */\n      tag_397\n      jump\t// in\n    tag_588:\n        /* \"#utility.yul\":12190:12522   */\n      swap4\n      swap3\n      pop\n      pop\n      pop\n      jump\t// out\n        /* \"#utility.yul\":12528:12706   */\n    tag_423:\n        /* \"#utility.yul\":12668:12698   */\n      0x5a61704170793a20496e73756666696369656e742062616c616e636500000000\n        /* \"#utility.yul\":12664:12665   */\n      0x00\n        /* \"#utility.yul\":12656:12662   */\n      dup3\n        /* \"#utility.yul\":12652:12666   */\n      add\n        /* \"#utility.yul\":12645:12699   */\n      mstore\n        /* \"#utility.yul\":12528:12706   */\n      pop\n      jump\t// out\n        /* \"#utility.yul\":12712:13078   */\n    tag_424:\n        /* \"#utility.yul\":12854:12857   */\n      0x00\n        /* \"#utility.yul\":12875:12942   */\n      tag_591\n        /* \"#utility.yul\":12939:12941   */\n      0x1c\n        /* \"#utility.yul\":12934:12937   */\n      dup4\n        /* \"#utility.yul\":12875:12942   */\n      tag_416\n      jump\t// in\n    tag_591:\n        /* \"#utility.yul\":12868:12942   */\n      swap2\n      pop\n        /* \"#utility.yul\":12951:13044   */\n      tag_592\n        /* \"#utility.yul\":13040:13043   */\n      dup3\n        /* \"#utility.yul\":12951:13044   */\n      tag_423\n      jump\t// in\n    tag_592:\n        /* \"#utility.yul\":13069:13071   */\n      0x20\n        /* \"#utility.yul\":13064:13067   */\n      dup3\n        /* \"#utility.yul\":13060:13072   */\n      add\n        /* \"#utility.yul\":13053:13072   */\n      swap1\n      pop\n        /* \"#utility.yul\":12712:13078   */\n      swap2\n      swap1\n      pop\n      jump\t// out\n        /* \"#utility.yul\":13084:13503   */\n    tag_134:\n        /* \"#utility.yul\":13250:13254   */\n      0x00\n        /* \"#utility.yul\":13288:13290   */\n      0x20\n        /* \"#utility.yul\":13277:13286   */\n      dup3\n        /* \"#utility.yul\":13273:13291   */\n      add\n        /* \"#utility.yul\":13265:13291   */\n      swap1\n      pop\n        /* \"#utility.yul\":13337:13346   */\n      dup2\n        /* \"#utility.yul\":13331:13335   */\n      dup2\n        /* \"#utility.yul\":13327:13347   */\n      sub\n        /* \"#utility.yul\":13323:13324   */\n      0x00\n        /* \"#utility.yul\":13312:13321   */\n      dup4\n        /* \"#utility.yul\":13308:13325   */\n      add\n        /* \"#utility.yul\":13301:13348   */\n      mstore\n        /* \"#utility.yul\":13365:13496   */\n      tag_594\n        /* \"#utility.yul\":13491:13495   */\n      dup2\n        /* \"#utility.yul\":13365:13496   */\n      tag_424\n      jump\t// in\n    tag_594:\n        /* \"#utility.yul\":13357:13496   */\n      swap1\n      pop\n        /* \"#utility.yul\":13084:13503   */\n      swap2\n      swap1\n      pop\n      jump\t// out\n        /* \"#utility.yul\":13509:13919   */\n    tag_138:\n        /* \"#utility.yul\":13549:13556   */\n      0x00\n        /* \"#utility.yul\":13572:13592   */\n      tag_596\n        /* \"#utility.yul\":13590:13591   */\n      dup3\n        /* \"#utility.yul\":13572:13592   */\n      tag_396\n      jump\t// in\n    tag_596:\n        /* \"#utility.yul\":13567:13592   */\n      swap2\n      pop\n        /* \"#utility.yul\":13606:13626   */\n      tag_597\n        /* \"#utility.yul\":13624:13625   */\n      dup4\n        /* \"#utility.yul\":13606:13626   */\n      tag_396\n      jump\t// in\n    tag_597:\n        /* \"#utility.yul\":13601:13626   */\n      swap3\n      pop\n        /* \"#utility.yul\":13661:13662   */\n      dup3\n        /* \"#utility.yul\":13658:13659   */\n      dup3\n        /* \"#utility.yul\":13654:13663   */\n      mul\n        /* \"#utility.yul\":13683:13713   */\n      tag_598\n        /* \"#utility.yul\":13701:13712   */\n      dup2\n        /* \"#utility.yul\":13683:13713   */\n      tag_396\n      jump\t// in\n    tag_598:\n        /* \"#utility.yul\":13672:13713   */\n      swap2\n      pop\n        /* \"#utility.yul\":13862:13863   */\n      dup3\n        /* \"#utility.yul\":13853:13860   */\n      dup3\n        /* \"#utility.yul\":13849:13864   */\n      div\n        /* \"#utility.yul\":13846:13847   */\n      dup5\n        /* \"#utility.yul\":13843:13865   */\n      eq\n        /* \"#utility.yul\":13823:13824   */\n      dup4\n        /* \"#utility.yul\":13816:13825   */\n      iszero\n        /* \"#utility.yul\":13796:13879   */\n      or\n        /* \"#utility.yul\":13773:13912   */\n      tag_599\n      jumpi\n        /* \"#utility.yul\":13892:13910   */\n      tag_600\n      tag_421\n      jump\t// in\n    tag_600:\n        /* \"#utility.yul\":13773:13912   */\n    tag_599:\n        /* \"#utility.yul\":13557:13919   */\n      pop\n        /* \"#utility.yul\":13509:13919   */\n      swap3\n      swap2\n      pop\n      pop\n      jump\t// out\n        /* \"#utility.yul\":13925:14105   */\n    tag_425:\n        /* \"#utility.yul\":13973:14050   */\n      0x4e487b7100000000000000000000000000000000000000000000000000000000\n        /* \"#utility.yul\":13970:13971   */\n      0x00\n        /* \"#utility.yul\":13963:14051   */\n      mstore\n        /* \"#utility.yul\":14070:14074   */\n      0x12\n        /* \"#utility.yul\":14067:14068   */\n      0x04\n        /* \"#utility.yul\":14060:14075   */\n      mstore\n        /* \"#utility.yul\":14094:14098   */\n      0x24\n        /* \"#utility.yul\":14091:14092   */\n      0x00\n        /* \"#utility.yul\":14084:14099   */\n      revert\n        /* \"#utility.yul\":14111:14296   */\n    tag_140:\n        /* \"#utility.yul\":14151:14152   */\n      0x00\n        /* \"#utility.yul\":14168:14188   */\n      tag_603\n        /* \"#utility.yul\":14186:14187   */\n      dup3\n        /* \"#utility.yul\":14168:14188   */\n      tag_396\n      jump\t// in\n    tag_603:\n        /* \"#utility.yul\":14163:14188   */\n      swap2\n      pop\n        /* \"#utility.yul\":14202:14222   */\n      tag_604\n        /* \"#utility.yul\":14220:14221   */\n      dup4\n        /* \"#utility.yul\":14202:14222   */\n      tag_396\n      jump\t// in\n    tag_604:\n        /* \"#utility.yul\":14197:14222   */\n      swap3\n      pop\n        /* \"#utility.yul\":14241:14242   */\n      dup3\n        /* \"#utility.yul\":14231:14266   */\n      tag_605\n      jumpi\n        /* \"#utility.yul\":14246:14264   */\n      tag_606\n      tag_425\n      jump\t// in\n    tag_606:\n        /* \"#utility.yul\":14231:14266   */\n    tag_605:\n        /* \"#utility.yul\":14288:14289   */\n      dup3\n        /* \"#utility.yul\":14285:14286   */\n      dup3\n        /* \"#utility.yul\":14281:14290   */\n      div\n        /* \"#utility.yul\":14276:14290   */\n      swap1\n      pop\n        /* \"#utility.yul\":14111:14296   */\n      swap3\n      swap2\n      pop\n      pop\n      jump\t// out\n        /* \"#utility.yul\":14302:14496   */\n    tag_142:\n        /* \"#utility.yul\":14342:14346   */\n      0x00\n        /* \"#utility.yul\":14362:14382   */\n      tag_608\n        /* \"#utility.yul\":14380:14381   */\n      dup3\n        /* \"#utility.yul\":14362:14382   */\n      tag_396\n      jump\t// in\n    tag_608:\n        /* \"#utility.yul\":14357:14382   */\n      swap2\n      pop\n        /* \"#utility.yul\":14396:14416   */\n      tag_609\n        /* \"#utility.yul\":14414:14415   */\n      dup4\n        /* \"#utility.yul\":14396:14416   */\n      tag_396\n      jump\t// in\n    tag_609:\n        /* \"#utility.yul\":14391:14416   */\n      swap3\n      pop\n        /* \"#utility.yul\":14440:14441   */\n      dup3\n        /* \"#utility.yul\":14437:14438   */\n      dup3\n        /* \"#utility.yul\":14433:14442   */\n      sub\n        /* \"#utility.yul\":14425:14442   */\n      swap1\n      pop\n        /* \"#utility.yul\":14464:14465   */\n      dup2\n        /* \"#utility.yul\":14458:14462   */\n      dup2\n        /* \"#utility.yul\":14455:14466   */\n      gt\n        /* \"#utility.yul\":14452:14489   */\n      iszero\n      tag_610\n      jumpi\n        /* \"#utility.yul\":14469:14487   */\n      tag_611\n      tag_421\n      jump\t// in\n    tag_611:\n        /* \"#utility.yul\":14452:14489   */\n    tag_610:\n        /* \"#utility.yul\":14302:14496   */\n      swap3\n      swap2\n      pop\n      pop\n      jump\t// out\n        /* \"#utility.yul\":14502:14944   */\n    tag_144:\n        /* \"#utility.yul\":14651:14655   */\n      0x00\n        /* \"#utility.yul\":14689:14691   */\n      0x60\n        /* \"#utility.yul\":14678:14687   */\n      dup3\n        /* \"#utility.yul\":14674:14692   */\n      add\n        /* \"#utility.yul\":14666:14692   */\n      swap1\n      pop\n        /* \"#utility.yul\":14702:14773   */\n      tag_613\n        /* \"#utility.yul\":14770:14771   */\n      0x00\n        /* \"#utility.yul\":14759:14768   */\n      dup4\n        /* \"#utility.yul\":14755:14772   */\n      add\n        /* \"#utility.yul\":14746:14752   */\n      dup7\n        /* \"#utility.yul\":14702:14773   */\n      tag_397\n      jump\t// in\n    tag_613:\n        /* \"#utility.yul\":14783:14855   */\n      tag_614\n        /* \"#utility.yul\":14851:14853   */\n      0x20\n        /* \"#utility.yul\":14840:14849   */\n      dup4\n        /* \"#utility.yul\":14836:14854   */\n      add\n        /* \"#utility.yul\":14827:14833   */\n      dup6\n        /* \"#utility.yul\":14783:14855   */\n      tag_398\n      jump\t// in\n    tag_614:\n        /* \"#utility.yul\":14865:14937   */\n      tag_615\n        /* \"#utility.yul\":14933:14935   */\n      0x40\n        /* \"#utility.yul\":14922:14931   */\n      dup4\n        /* \"#utility.yul\":14918:14936   */\n      add\n        /* \"#utility.yul\":14909:14915   */\n      dup5\n        /* \"#utility.yul\":14865:14937   */\n      tag_398\n      jump\t// in\n    tag_615:\n        /* \"#utility.yul\":14502:14944   */\n      swap5\n      swap4\n      pop\n      pop\n      pop\n      pop\n      jump\t// out\n        /* \"#utility.yul\":14950:15035   */\n    tag_426:\n        /* \"#utility.yul\":14995:15002   */\n      0x00\n        /* \"#utility.yul\":15024:15029   */\n      dup2\n        /* \"#utility.yul\":15013:15029   */\n      swap1\n      pop\n        /* \"#utility.yul\":14950:15035   */\n      swap2\n      swap1\n      pop\n      jump\t// out\n        /* \"#utility.yul\":15041:15142   */\n    tag_427:\n        /* \"#utility.yul\":15077:15084   */\n      0x00\n        /* \"#utility.yul\":15117:15135   */\n      0xffffffffffffffff\n        /* \"#utility.yul\":15110:15115   */\n      dup3\n        /* \"#utility.yul\":15106:15136   */\n      and\n        /* \"#utility.yul\":15095:15136   */\n      swap1\n      pop\n        /* \"#utility.yul\":15041:15142   */\n      swap2\n      swap1\n      pop\n      jump\t// out\n        /* \"#utility.yul\":15148:15304   */\n    tag_428:\n        /* \"#utility.yul\":15205:15214   */\n      0x00\n        /* \"#utility.yul\":15238:15298   */\n      tag_619\n        /* \"#utility.yul\":15255:15297   */\n      tag_620\n        /* \"#utility.yul\":15264:15296   */\n      tag_621\n        /* \"#utility.yul\":15290:15295   */\n      dup5\n        /* \"#utility.yul\":15264:15296   */\n      tag_426\n      jump\t// in\n    tag_621:\n        /* \"#utility.yul\":15255:15297   */\n      tag_385\n      jump\t// in\n    tag_620:\n        /* \"#utility.yul\":15238:15298   */\n      tag_427\n      jump\t// in\n    tag_619:\n        /* \"#utility.yul\":15225:15298   */\n      swap1\n      pop\n        /* \"#utility.yul\":15148:15304   */\n      swap2\n      swap1\n      pop\n      jump\t// out\n        /* \"#utility.yul\":15310:15455   */\n    tag_429:\n        /* \"#utility.yul\":15404:15448   */\n      tag_623\n        /* \"#utility.yul\":15442:15447   */\n      dup2\n        /* \"#utility.yul\":15404:15448   */\n      tag_428\n      jump\t// in\n    tag_623:\n        /* \"#utility.yul\":15399:15402   */\n      dup3\n        /* \"#utility.yul\":15392:15449   */\n      mstore\n        /* \"#utility.yul\":15310:15455   */\n      pop\n      pop\n      jump\t// out\n        /* \"#utility.yul\":15461:15697   */\n    tag_170:\n        /* \"#utility.yul\":15561:15565   */\n      0x00\n        /* \"#utility.yul\":15599:15601   */\n      0x20\n        /* \"#utility.yul\":15588:15597   */\n      dup3\n        /* \"#utility.yul\":15584:15602   */\n      add\n        /* \"#utility.yul\":15576:15602   */\n      swap1\n      pop\n        /* \"#utility.yul\":15612:15690   */\n      tag_625\n        /* \"#utility.yul\":15687:15688   */\n      0x00\n        /* \"#utility.yul\":15676:15685   */\n      dup4\n        /* \"#utility.yul\":15672:15689   */\n      add\n        /* \"#utility.yul\":15663:15669   */\n      dup5\n        /* \"#utility.yul\":15612:15690   */\n      tag_429\n      jump\t// in\n    tag_625:\n        /* \"#utility.yul\":15461:15697   */\n      swap3\n      swap2\n      pop\n      pop\n      jump\t// out\n        /* \"#utility.yul\":15703:15883   */\n    tag_430:\n        /* \"#utility.yul\":15843:15875   */\n      0x5a61704170793a20596f7520616c7265616479206861766520616e2049440000\n        /* \"#utility.yul\":15839:15840   */\n      0x00\n        /* \"#utility.yul\":15831:15837   */\n      dup3\n        /* \"#utility.yul\":15827:15841   */\n      add\n        /* \"#utility.yul\":15820:15876   */\n      mstore\n        /* \"#utility.yul\":15703:15883   */\n      pop\n      jump\t// out\n        /* \"#utility.yul\":15889:16255   */\n    tag_431:\n        /* \"#utility.yul\":16031:16034   */\n      0x00\n        /* \"#utility.yul\":16052:16119   */\n      tag_628\n        /* \"#utility.yul\":16116:16118   */\n      0x1e\n        /* \"#utility.yul\":16111:16114   */\n      dup4\n        /* \"#utility.yul\":16052:16119   */\n      tag_416\n      jump\t// in\n    tag_628:\n        /* \"#utility.yul\":16045:16119   */\n      swap2\n      pop\n        /* \"#utility.yul\":16128:16221   */\n      tag_629\n        /* \"#utility.yul\":16217:16220   */\n      dup3\n        /* \"#utility.yul\":16128:16221   */\n      tag_430\n      jump\t// in\n    tag_629:\n        /* \"#utility.yul\":16246:16248   */\n      0x20\n        /* \"#utility.yul\":16241:16244   */\n      dup3\n        /* \"#utility.yul\":16237:16249   */\n      add\n        /* \"#utility.yul\":16230:16249   */\n      swap1\n      pop\n        /* \"#utility.yul\":15889:16255   */\n      swap2\n      swap1\n      pop\n      jump\t// out\n        /* \"#utility.yul\":16261:16680   */\n    tag_192:\n        /* \"#utility.yul\":16427:16431   */\n      0x00\n        /* \"#utility.yul\":16465:16467   */\n      0x20\n        /* \"#utility.yul\":16454:16463   */\n      dup3\n        /* \"#utility.yul\":16450:16468   */\n      add\n        /* \"#utility.yul\":16442:16468   */\n      swap1\n      pop\n        /* \"#utility.yul\":16514:16523   */\n      dup2\n        /* \"#utility.yul\":16508:16512   */\n      dup2\n        /* \"#utility.yul\":16504:16524   */\n      sub\n        /* \"#utility.yul\":16500:16501   */\n      0x00\n        /* \"#utility.yul\":16489:16498   */\n      dup4\n        /* \"#utility.yul\":16485:16502   */\n      add\n        /* \"#utility.yul\":16478:16525   */\n      mstore\n        /* \"#utility.yul\":16542:16673   */\n      tag_631\n        /* \"#utility.yul\":16668:16672   */\n      dup2\n        /* \"#utility.yul\":16542:16673   */\n      tag_431\n      jump\t// in\n    tag_631:\n        /* \"#utility.yul\":16534:16673   */\n      swap1\n      pop\n        /* \"#utility.yul\":16261:16680   */\n      swap2\n      swap1\n      pop\n      jump\t// out\n        /* \"#utility.yul\":16686:16919   */\n    tag_194:\n        /* \"#utility.yul\":16725:16728   */\n      0x00\n        /* \"#utility.yul\":16748:16772   */\n      tag_633\n        /* \"#utility.yul\":16766:16771   */\n      dup3\n        /* \"#utility.yul\":16748:16772   */\n      tag_396\n      jump\t// in\n    tag_633:\n        /* \"#utility.yul\":16739:16772   */\n      swap2\n      pop\n        /* \"#utility.yul\":16794:16860   */\n      0xffffffffffffffffffffffffffffffffffffffffffffffffffffffffffffffff\n        /* \"#utility.yul\":16787:16792   */\n      dup3\n        /* \"#utility.yul\":16784:16861   */\n      sub\n        /* \"#utility.yul\":16781:16884   */\n      tag_634\n      jumpi\n        /* \"#utility.yul\":16864:16882   */\n      tag_635\n      tag_421\n      jump\t// in\n    tag_635:\n        /* \"#utility.yul\":16781:16884   */\n    tag_634:\n        /* \"#utility.yul\":16911:16912   */\n      0x01\n        /* \"#utility.yul\":16904:16909   */\n      dup3\n        /* \"#utility.yul\":16900:16913   */\n      add\n        /* \"#utility.yul\":16893:16913   */\n      swap1\n      pop\n        /* \"#utility.yul\":16686:16919   */\n      swap2\n      swap1\n      pop\n      jump\t// out\n        /* \"#utility.yul\":16925:17367   */\n    tag_211:\n        /* \"#utility.yul\":17074:17078   */\n      0x00\n        /* \"#utility.yul\":17112:17114   */\n      0x60\n        /* \"#utility.yul\":17101:17110   */\n      dup3\n        /* \"#utility.yul\":17097:17115   */\n      add\n        /* \"#utility.yul\":17089:17115   */\n      swap1\n      pop\n        /* \"#utility.yul\":17125:17196   */\n      tag_637\n        /* \"#utility.yul\":17193:17194   */\n      0x00\n        /* \"#utility.yul\":17182:17191   */\n      dup4\n        /* \"#utility.yul\":17178:17195   */\n      add\n        /* \"#utility.yul\":17169:17175   */\n      dup7\n        /* \"#utility.yul\":17125:17196   */\n      tag_398\n      jump\t// in\n    tag_637:\n        /* \"#utility.yul\":17206:17278   */\n      tag_638\n        /* \"#utility.yul\":17274:17276   */\n      0x20\n        /* \"#utility.yul\":17263:17272   */\n      dup4\n        /* \"#utility.yul\":17259:17277   */\n      add\n        /* \"#utility.yul\":17250:17256   */\n      dup6\n        /* \"#utility.yul\":17206:17278   */\n      tag_398\n      jump\t// in\n    tag_638:\n        /* \"#utility.yul\":17288:17360   */\n      tag_639\n        /* \"#utility.yul\":17356:17358   */\n      0x40\n        /* \"#utility.yul\":17345:17354   */\n      dup4\n        /* \"#utility.yul\":17341:17359   */\n      add\n        /* \"#utility.yul\":17332:17338   */\n      dup5\n        /* \"#utility.yul\":17288:17360   */\n      tag_397\n      jump\t// in\n    tag_639:\n        /* \"#utility.yul\":16925:17367   */\n      swap5\n      swap4\n      pop\n      pop\n      pop\n      pop\n      jump\t// out\n        /* \"#utility.yul\":17373:17705   */\n    tag_215:\n        /* \"#utility.yul\":17494:17498   */\n      0x00\n        /* \"#utility.yul\":17532:17534   */\n      0x40\n        /* \"#utility.yul\":17521:17530   */\n      dup3\n        /* \"#utility.yul\":17517:17535   */\n      add\n        /* \"#utility.yul\":17509:17535   */\n      swap1\n      pop\n        /* \"#utility.yul\":17545:17616   */\n      tag_641\n        /* \"#utility.yul\":17613:17614   */\n      0x00\n        /* \"#utility.yul\":17602:17611   */\n      dup4\n        /* \"#utility.yul\":17598:17615   */\n      add\n        /* \"#utility.yul\":17589:17595   */\n      dup6\n        /* \"#utility.yul\":17545:17616   */\n      tag_398\n      jump\t// in\n    tag_641:\n        /* \"#utility.yul\":17626:17698   */\n      tag_642\n        /* \"#utility.yul\":17694:17696   */\n      0x20\n        /* \"#utility.yul\":17683:17692   */\n      dup4\n        /* \"#utility.yul\":17679:17697   */\n      add\n        /* \"#utility.yul\":17670:17676   */\n      dup5\n        /* \"#utility.yul\":17626:17698   */\n      tag_397\n      jump\t// in\n    tag_642:\n        /* \"#utility.yul\":17373:17705   */\n      swap4\n      swap3\n      pop\n      pop\n      pop\n      jump\t// out\n        /* \"#utility.yul\":17711:17796   */\n    tag_432:\n        /* \"#utility.yul\":17756:17763   */\n      0x00\n        /* \"#utility.yul\":17785:17790   */\n      dup2\n        /* \"#utility.yul\":17774:17790   */\n      swap1\n      pop\n        /* \"#utility.yul\":17711:17796   */\n      swap2\n      swap1\n      pop\n      jump\t// out\n        /* \"#utility.yul\":17802:17888   */\n    tag_433:\n        /* \"#utility.yul\":17837:17844   */\n      0x00\n        /* \"#utility.yul\":17877:17881   */\n      0xff\n        /* \"#utility.yul\":17870:17875   */\n      dup3\n        /* \"#utility.yul\":17866:17882   */\n      and\n        /* \"#utility.yul\":17855:17882   */\n      swap1\n      pop\n        /* \"#utility.yul\":17802:17888   */\n      swap2\n      swap1\n      pop\n      jump\t// out\n        /* \"#utility.yul\":17894:18048   */\n    tag_434:\n        /* \"#utility.yul\":17950:17959   */\n      0x00\n        /* \"#utility.yul\":17983:18042   */\n      tag_646\n        /* \"#utility.yul\":17999:18041   */\n      tag_647\n        /* \"#utility.yul\":18008:18040   */\n      tag_648\n        /* \"#utility.yul\":18034:18039   */\n      dup5\n        /* \"#utility.yul\":18008:18040   */\n      tag_432\n      jump\t// in\n    tag_648:\n        /* \"#utility.yul\":17999:18041   */\n      tag_385\n      jump\t// in\n    tag_647:\n        /* \"#utility.yul\":17983:18042   */\n      tag_433\n      jump\t// in\n    tag_646:\n        /* \"#utility.yul\":17970:18042   */\n      swap1\n      pop\n        /* \"#utility.yul\":17894:18048   */\n      swap2\n      swap1\n      pop\n      jump\t// out\n        /* \"#utility.yul\":18054:18197   */\n    tag_435:\n        /* \"#utility.yul\":18147:18190   */\n      tag_650\n        /* \"#utility.yul\":18184:18189   */\n      dup2\n        /* \"#utility.yul\":18147:18190   */\n      tag_434\n      jump\t// in\n    tag_650:\n        /* \"#utility.yul\":18142:18145   */\n      dup3\n        /* \"#utility.yul\":18135:18191   */\n      mstore\n        /* \"#utility.yul\":18054:18197   */\n      pop\n      pop\n      jump\t// out\n        /* \"#utility.yul\":18203:18547   */\n    tag_221:\n        /* \"#utility.yul\":18330:18334   */\n      0x00\n        /* \"#utility.yul\":18368:18370   */\n      0x40\n        /* \"#utility.yul\":18357:18366   */\n      dup3\n        /* \"#utility.yul\":18353:18371   */\n      add\n        /* \"#utility.yul\":18345:18371   */\n      swap1\n      pop\n        /* \"#utility.yul\":18381:18452   */\n      tag_652\n        /* \"#utility.yul\":18449:18450   */\n      0x00\n        /* \"#utility.yul\":18438:18447   */\n      dup4\n        /* \"#utility.yul\":18434:18451   */\n      add\n        /* \"#utility.yul\":18425:18431   */\n      dup6\n        /* \"#utility.yul\":18381:18452   */\n      tag_398\n      jump\t// in\n    tag_652:\n        /* \"#utility.yul\":18462:18540   */\n      tag_653\n        /* \"#utility.yul\":18536:18538   */\n      0x20\n        /* \"#utility.yul\":18525:18534   */\n      dup4\n        /* \"#utility.yul\":18521:18539   */\n      add\n        /* \"#utility.yul\":18512:18518   */\n      dup5\n        /* \"#utility.yul\":18462:18540   */\n      tag_435\n      jump\t// in\n    tag_653:\n        /* \"#utility.yul\":18203:18547   */\n      swap4\n      swap3\n      pop\n      pop\n      pop\n      jump\t// out\n        /* \"#utility.yul\":18553:18675   */\n    tag_436:\n        /* \"#utility.yul\":18626:18650   */\n      tag_655\n        /* \"#utility.yul\":18644:18649   */\n      dup2\n        /* \"#utility.yul\":18626:18650   */\n      tag_411\n      jump\t// in\n    tag_655:\n        /* \"#utility.yul\":18619:18624   */\n      dup2\n        /* \"#utility.yul\":18616:18651   */\n      eq\n        /* \"#utility.yul\":18606:18669   */\n      tag_656\n      jumpi\n        /* \"#utility.yul\":18665:18666   */\n      0x00\n        /* \"#utility.yul\":18662:18663   */\n      0x00\n        /* \"#utility.yul\":18655:18667   */\n      revert\n        /* \"#utility.yul\":18606:18669   */\n    tag_656:\n        /* \"#utility.yul\":18553:18675   */\n      pop\n      jump\t// out\n        /* \"#utility.yul\":18681:18824   */\n    tag_437:\n        /* \"#utility.yul\":18738:18743   */\n      0x00\n        /* \"#utility.yul\":18769:18775   */\n      dup2\n        /* \"#utility.yul\":18763:18776   */\n      mload\n        /* \"#utility.yul\":18754:18776   */\n      swap1\n      pop\n        /* \"#utility.yul\":18785:18818   */\n      tag_658\n        /* \"#utility.yul\":18812:18817   */\n      dup2\n        /* \"#utility.yul\":18785:18818   */\n      tag_436\n      jump\t// in\n    tag_658:\n        /* \"#utility.yul\":18681:18824   */\n      swap3\n      swap2\n      pop\n      pop\n      jump\t// out\n        /* \"#utility.yul\":18830:19181   */\n    tag_256:\n        /* \"#utility.yul\":18900:18906   */\n      0x00\n        /* \"#utility.yul\":18949:18951   */\n      0x20\n        /* \"#utility.yul\":18937:18946   */\n      dup3\n        /* \"#utility.yul\":18928:18935   */\n      dup5\n        /* \"#utility.yul\":18924:18947   */\n      sub\n        /* \"#utility.yul\":18920:18952   */\n      slt\n        /* \"#utility.yul\":18917:19036   */\n      iszero\n      tag_660\n      jumpi\n        /* \"#utility.yul\":18955:19034   */\n      tag_661\n      tag_391\n      jump\t// in\n    tag_661:\n        /* \"#utility.yul\":18917:19036   */\n    tag_660:\n        /* \"#utility.yul\":19075:19076   */\n      0x00\n        /* \"#utility.yul\":19100:19164   */\n      tag_662\n        /* \"#utility.yul\":19156:19163   */\n      dup5\n        /* \"#utility.yul\":19147:19153   */\n      dup3\n        /* \"#utility.yul\":19136:19145   */\n      dup6\n        /* \"#utility.yul\":19132:19154   */\n      add\n        /* \"#utility.yul\":19100:19164   */\n      tag_437\n      jump\t// in\n    tag_662:\n        /* \"#utility.yul\":19090:19164   */\n      swap2\n      pop\n        /* \"#utility.yul\":19046:19174   */\n      pop\n        /* \"#utility.yul\":18830:19181   */\n      swap3\n      swap2\n      pop\n      pop\n      jump\t// out\n        /* \"#utility.yul\":19187:19277   */\n    tag_438:\n        /* \"#utility.yul\":19221:19228   */\n      0x00\n        /* \"#utility.yul\":19264:19269   */\n      dup2\n        /* \"#utility.yul\":19257:19270   */\n      iszero\n        /* \"#utility.yul\":19250:19271   */\n      iszero\n        /* \"#utility.yul\":19239:19271   */\n      swap1\n      pop\n        /* \"#utility.yul\":19187:19277   */\n      swap2\n      swap1\n      pop\n      jump\t// out\n        /* \"#utility.yul\":19283:19399   */\n    tag_439:\n        /* \"#utility.yul\":19353:19374   */\n      tag_665\n        /* \"#utility.yul\":19368:19373   */\n      dup2\n        /* \"#utility.yul\":19353:19374   */\n      tag_438\n      jump\t// in\n    tag_665:\n        /* \"#utility.yul\":19346:19351   */\n      dup2\n        /* \"#utility.yul\":19343:19375   */\n      eq\n        /* \"#utility.yul\":19333:19393   */\n      tag_666\n      jumpi\n        /* \"#utility.yul\":19389:19390   */\n      0x00\n        /* \"#utility.yul\":19386:19387   */\n      0x00\n        /* \"#utility.yul\":19379:19391   */\n      revert\n        /* \"#utility.yul\":19333:19393   */\n    tag_666:\n        /* \"#utility.yul\":19283:19399   */\n      pop\n      jump\t// out\n        /* \"#utility.yul\":19405:19542   */\n    tag_440:\n        /* \"#utility.yul\":19459:19464   */\n      0x00\n        /* \"#utility.yul\":19490:19496   */\n      dup2\n        /* \"#utility.yul\":19484:19497   */\n      mload\n        /* \"#utility.yul\":19475:19497   */\n      swap1\n      pop\n        /* \"#utility.yul\":19506:19536   */\n      tag_668\n        /* \"#utility.yul\":19530:19535   */\n      dup2\n        /* \"#utility.yul\":19506:19536   */\n      tag_439\n      jump\t// in\n    tag_668:\n        /* \"#utility.yul\":19405:19542   */\n      swap3\n      swap2\n      pop\n      pop\n      jump\t// out\n        /* \"#utility.yul\":19548:19893   */\n    tag_285:\n        /* \"#utility.yul\":19615:19621   */\n      0x00\n        /* \"#utility.yul\":19664:19666   */\n      0x20\n        /* \"#utility.yul\":19652:19661   */\n      dup3\n        /* \"#utility.yul\":19643:19650   */\n      dup5\n        /* \"#utility.yul\":19639:19662   */\n      sub\n        /* \"#utility.yul\":19635:19667   */\n      slt\n        /* \"#utility.yul\":19632:19751   */\n      iszero\n      tag_670\n      jumpi\n        /* \"#utility.yul\":19670:19749   */\n      tag_671\n      tag_391\n      jump\t// in\n    tag_671:\n        /* \"#utility.yul\":19632:19751   */\n    tag_670:\n        /* \"#utility.yul\":19790:19791   */\n      0x00\n        /* \"#utility.yul\":19815:19876   */\n      tag_672\n        /* \"#utility.yul\":19868:19875   */\n      dup5\n        /* \"#utility.yul\":19859:19865   */\n      dup3\n        /* \"#utility.yul\":19848:19857   */\n      dup6\n        /* \"#utility.yul\":19844:19866   */\n      add\n        /* \"#utility.yul\":19815:19876   */\n      tag_440\n      jump\t// in\n    tag_672:\n        /* \"#utility.yul\":19805:19876   */\n      swap2\n      pop\n        /* \"#utility.yul\":19761:19886   */\n      pop\n        /* \"#utility.yul\":19548:19893   */\n      swap3\n      swap2\n      pop\n      pop\n      jump\t// out\n        /* \"#utility.yul\":19899:20128   */\n    tag_441:\n        /* \"#utility.yul\":20039:20073   */\n      0x5361666545524332303a204552433230206f7065726174696f6e20646964206e\n        /* \"#utility.yul\":20035:20036   */\n      0x00\n        /* \"#utility.yul\":20027:20033   */\n      dup3\n        /* \"#utility.yul\":20023:20037   */\n      add\n        /* \"#utility.yul\":20016:20074   */\n      mstore\n        /* \"#utility.yul\":20108:20120   */\n      0x6f74207375636365656400000000000000000000000000000000000000000000\n        /* \"#utility.yul\":20103:20105   */\n      0x20\n        /* \"#utility.yul\":20095:20101   */\n      dup3\n        /* \"#utility.yul\":20091:20106   */\n      add\n        /* \"#utility.yul\":20084:20121   */\n      mstore\n        /* \"#utility.yul\":19899:20128   */\n      pop\n      jump\t// out\n        /* \"#utility.yul\":20134:20500   */\n    tag_442:\n        /* \"#utility.yul\":20276:20279   */\n      0x00\n        /* \"#utility.yul\":20297:20364   */\n      tag_675\n        /* \"#utility.yul\":20361:20363   */\n      0x2a\n        /* \"#utility.yul\":20356:20359   */\n      dup4\n        /* \"#utility.yul\":20297:20364   */\n      tag_416\n      jump\t// in\n    tag_675:\n        /* \"#utility.yul\":20290:20364   */\n      swap2\n      pop\n        /* \"#utility.yul\":20373:20466   */\n      tag_676\n        /* \"#utility.yul\":20462:20465   */\n      dup3\n        /* \"#utility.yul\":20373:20466   */\n      tag_441\n      jump\t// in\n    tag_676:\n        /* \"#utility.yul\":20491:20493   */\n      0x40\n        /* \"#utility.yul\":20486:20489   */\n      dup3\n        /* \"#utility.yul\":20482:20494   */\n      add\n        /* \"#utility.yul\":20475:20494   */\n      swap1\n      pop\n        /* \"#utility.yul\":20134:20500   */\n      swap2\n      swap1\n      pop\n      jump\t// out\n        /* \"#utility.yul\":20506:20925   */\n    tag_288:\n        /* \"#utility.yul\":20672:20676   */\n      0x00\n        /* \"#utility.yul\":20710:20712   */\n      0x20\n        /* \"#utility.yul\":20699:20708   */\n      dup3\n        /* \"#utility.yul\":20695:20713   */\n      add\n        /* \"#utility.yul\":20687:20713   */\n      swap1\n      pop\n        /* \"#utility.yul\":20759:20768   */\n      dup2\n        /* \"#utility.yul\":20753:20757   */\n      dup2\n        /* \"#utility.yul\":20749:20769   */\n      sub\n        /* \"#utility.yul\":20745:20746   */\n      0x00\n        /* \"#utility.yul\":20734:20743   */\n      dup4\n        /* \"#utility.yul\":20730:20747   */\n      add\n        /* \"#utility.yul\":20723:20770   */\n      mstore\n        /* \"#utility.yul\":20787:20918   */\n      tag_678\n        /* \"#utility.yul\":20913:20917   */\n      dup2\n        /* \"#utility.yul\":20787:20918   */\n      tag_442\n      jump\t// in\n    tag_678:\n        /* \"#utility.yul\":20779:20918   */\n      swap1\n      pop\n        /* \"#utility.yul\":20506:20925   */\n      swap2\n      swap1\n      pop\n      jump\t// out\n        /* \"#utility.yul\":20931:21029   */\n    tag_443:\n        /* \"#utility.yul\":20982:20988   */\n      0x00\n        /* \"#utility.yul\":21016:21021   */\n      dup2\n        /* \"#utility.yul\":21010:21022   */\n      mload\n        /* \"#utility.yul\":21000:21022   */\n      swap1\n      pop\n        /* \"#utility.yul\":20931:21029   */\n      swap2\n      swap1\n      pop\n      jump\t// out\n        /* \"#utility.yul\":21035:21182   */\n    tag_444:\n        /* \"#utility.yul\":21136:21147   */\n      0x00\n        /* \"#utility.yul\":21173:21176   */\n      dup2\n        /* \"#utility.yul\":21158:21176   */\n      swap1\n      pop\n        /* \"#utility.yul\":21035:21182   */\n      swap3\n      swap2\n      pop\n      pop\n      jump\t// out\n        /* \"#utility.yul\":21188:21574   */\n    tag_445:\n        /* \"#utility.yul\":21292:21295   */\n      0x00\n        /* \"#utility.yul\":21320:21358   */\n      tag_682\n        /* \"#utility.yul\":21352:21357   */\n      dup3\n        /* \"#utility.yul\":21320:21358   */\n      tag_443\n      jump\t// in\n    tag_682:\n        /* \"#utility.yul\":21374:21462   */\n      tag_683\n        /* \"#utility.yul\":21455:21461   */\n      dup2\n        /* \"#utility.yul\":21450:21453   */\n      dup6\n        /* \"#utility.yul\":21374:21462   */\n      tag_444\n      jump\t// in\n    tag_683:\n        /* \"#utility.yul\":21367:21462   */\n      swap4\n      pop\n        /* \"#utility.yul\":21471:21536   */\n      tag_684\n        /* \"#utility.yul\":21529:21535   */\n      dup2\n        /* \"#utility.yul\":21524:21527   */\n      dup6\n        /* \"#utility.yul\":21517:21521   */\n      0x20\n        /* \"#utility.yul\":21510:21515   */\n      dup7\n        /* \"#utility.yul\":21506:21522   */\n      add\n        /* \"#utility.yul\":21471:21536   */\n      tag_417\n      jump\t// in\n    tag_684:\n        /* \"#utility.yul\":21561:21567   */\n      dup1\n        /* \"#utility.yul\":21556:21559   */\n      dup5\n        /* \"#utility.yul\":21552:21568   */\n      add\n        /* \"#utility.yul\":21545:21568   */\n      swap2\n      pop\n        /* \"#utility.yul\":21296:21574   */\n      pop\n        /* \"#utility.yul\":21188:21574   */\n      swap3\n      swap2\n      pop\n      pop\n      jump\t// out\n        /* \"#utility.yul\":21580:21851   */\n    tag_291:\n        /* \"#utility.yul\":21710:21713   */\n      0x00\n        /* \"#utility.yul\":21732:21825   */\n      tag_686\n        /* \"#utility.yul\":21821:21824   */\n      dup3\n        /* \"#utility.yul\":21812:21818   */\n      dup5\n        /* \"#utility.yul\":21732:21825   */\n      tag_445\n      jump\t// in\n    tag_686:\n        /* \"#utility.yul\":21725:21825   */\n      swap2\n      pop\n        /* \"#utility.yul\":21842:21845   */\n      dup2\n        /* \"#utility.yul\":21835:21845   */\n      swap1\n      pop\n        /* \"#utility.yul\":21580:21851   */\n      swap3\n      swap2\n      pop\n      pop\n      jump\t// out\n        /* \"#utility.yul\":21857:22082   */\n    tag_446:\n        /* \"#utility.yul\":21997:22031   */\n      0x416464726573733a20696e73756666696369656e742062616c616e636520666f\n        /* \"#utility.yul\":21993:21994   */\n      0x00\n        /* \"#utility.yul\":21985:21991   */\n      dup3\n        /* \"#utility.yul\":21981:21995   */\n      add\n        /* \"#utility.yul\":21974:22032   */\n      mstore\n        /* \"#utility.yul\":22066:22074   */\n      0x722063616c6c0000000000000000000000000000000000000000000000000000\n        /* \"#utility.yul\":22061:22063   */\n      0x20\n        /* \"#utility.yul\":22053:22059   */\n      dup3\n        /* \"#utility.yul\":22049:22064   */\n      add\n        /* \"#utility.yul\":22042:22075   */\n      mstore\n        /* \"#utility.yul\":21857:22082   */\n      pop\n      jump\t// out\n        /* \"#utility.yul\":22088:22454   */\n    tag_447:\n        /* \"#utility.yul\":22230:22233   */\n      0x00\n        /* \"#utility.yul\":22251:22318   */\n      tag_689\n        /* \"#utility.yul\":22315:22317   */\n      0x26\n        /* \"#utility.yul\":22310:22313   */\n      dup4\n        /* \"#utility.yul\":22251:22318   */\n      tag_416\n      jump\t// in\n    tag_689:\n        /* \"#utility.yul\":22244:22318   */\n      swap2\n      pop\n        /* \"#utility.yul\":22327:22420   */\n      tag_690\n        /* \"#utility.yul\":22416:22419   */\n      dup3\n        /* \"#utility.yul\":22327:22420   */\n      tag_446\n      jump\t// in\n    tag_690:\n        /* \"#utility.yul\":22445:22447   */\n      0x40\n        /* \"#utility.yul\":22440:22443   */\n      dup3\n        /* \"#utility.yul\":22436:22448   */\n      add\n        /* \"#utility.yul\":22429:22448   */\n      swap1\n      pop\n        /* \"#utility.yul\":22088:22454   */\n      swap2\n      swap1\n      pop\n      jump\t// out\n        /* \"#utility.yul\":22460:22879   */\n    tag_352:\n        /* \"#utility.yul\":22626:22630   */\n      0x00\n        /* \"#utility.yul\":22664:22666   */\n      0x20\n        /* \"#utility.yul\":22653:22662   */\n      dup3\n        /* \"#utility.yul\":22649:22667   */\n      add\n        /* \"#utility.yul\":22641:22667   */\n      swap1\n      pop\n        /* \"#utility.yul\":22713:22722   */\n      dup2\n        /* \"#utility.yul\":22707:22711   */\n      dup2\n        /* \"#utility.yul\":22703:22723   */\n      sub\n        /* \"#utility.yul\":22699:22700   */\n      0x00\n        /* \"#utility.yul\":22688:22697   */\n      dup4\n        /* \"#utility.yul\":22684:22701   */\n      add\n        /* \"#utility.yul\":22677:22724   */\n      mstore\n        /* \"#utility.yul\":22741:22872   */\n      tag_692\n        /* \"#utility.yul\":22867:22871   */\n      dup2\n        /* \"#utility.yul\":22741:22872   */\n      tag_447\n      jump\t// in\n    tag_692:\n        /* \"#utility.yul\":22733:22872   */\n      swap1\n      pop\n        /* \"#utility.yul\":22460:22879   */\n      swap2\n      swap1\n      pop\n      jump\t// out\n        /* \"#utility.yul\":22885:23064   */\n    tag_448:\n        /* \"#utility.yul\":23025:23056   */\n      0x416464726573733a2063616c6c20746f206e6f6e2d636f6e7472616374000000\n        /* \"#utility.yul\":23021:23022   */\n      0x00\n        /* \"#utility.yul\":23013:23019   */\n      dup3\n        /* \"#utility.yul\":23009:23023   */\n      add\n        /* \"#utility.yul\":23002:23057   */\n      mstore\n        /* \"#utility.yul\":22885:23064   */\n      pop\n      jump\t// out\n        /* \"#utility.yul\":23070:23436   */\n    tag_449:\n        /* \"#utility.yul\":23212:23215   */\n      0x00\n        /* \"#utility.yul\":23233:23300   */\n      tag_695\n        /* \"#utility.yul\":23297:23299   */\n      0x1d\n        /* \"#utility.yul\":23292:23295   */\n      dup4\n        /* \"#utility.yul\":23233:23300   */\n      tag_416\n      jump\t// in\n    tag_695:\n        /* \"#utility.yul\":23226:23300   */\n      swap2\n      pop\n        /* \"#utility.yul\":23309:23402   */\n      tag_696\n        /* \"#utility.yul\":23398:23401   */\n      dup3\n        /* \"#utility.yul\":23309:23402   */\n      tag_448\n      jump\t// in\n    tag_696:\n        /* \"#utility.yul\":23427:23429   */\n      0x20\n        /* \"#utility.yul\":23422:23425   */\n      dup3\n        /* \"#utility.yul\":23418:23430   */\n      add\n        /* \"#utility.yul\":23411:23430   */\n      swap1\n      pop\n        /* \"#utility.yul\":23070:23436   */\n      swap2\n      swap1\n      pop\n      jump\t// out\n        /* \"#utility.yul\":23442:23861   */\n    tag_373:\n        /* \"#utility.yul\":23608:23612   */\n      0x00\n        /* \"#utility.yul\":23646:23648   */\n      0x20\n        /* \"#utility.yul\":23635:23644   */\n      dup3\n        /* \"#utility.yul\":23631:23649   */\n      add\n        /* \"#utility.yul\":23623:23649   */\n      swap1\n      pop\n        /* \"#utility.yul\":23695:23704   */\n      dup2\n        /* \"#utility.yul\":23689:23693   */\n      dup2\n        /* \"#utility.yul\":23685:23705   */\n      sub\n        /* \"#utility.yul\":23681:23682   */\n      0x00\n        /* \"#utility.yul\":23670:23679   */\n      dup4\n        /* \"#utility.yul\":23666:23683   */\n      add\n        /* \"#utility.yul\":23659:23706   */\n      mstore\n        /* \"#utility.yul\":23723:23854   */\n      tag_698\n        /* \"#utility.yul\":23849:23853   */\n      dup2\n        /* \"#utility.yul\":23723:23854   */\n      tag_449\n      jump\t// in\n    tag_698:\n        /* \"#utility.yul\":23715:23854   */\n      swap1\n      pop\n        /* \"#utility.yul\":23442:23861   */\n      swap2\n      swap1\n      pop\n      jump\t// out\n\n    auxdata: 0xa264697066735822122085fbd0943ccabf40e22867809c7ead1be25ff2430ee6d3bfa2af22a905171fec64736f6c634300081f0033\n}\n",
				"bytecode": {
					"linkReferences": {},
					"object": "60a06040523073ffffffffffffffffffffffffffffffffffffffff1660809073ffffffffffffffffffffffffffffffffffffffff16815250348015610042575f5ffd5b5061005161005660201b60201c565b6101d1565b5f61006561015460201b60201c565b9050805f0160089054906101000a900460ff16156100af576040517ff92ee8a900000000000000000000000000000000000000000000000000000000815260040160405180910390fd5b67ffffffffffffffff8016815f015f9054906101000a900467ffffffffffffffff1667ffffffffffffffff16146101515767ffffffffffffffff815f015f6101000a81548167ffffffffffffffff021916908367ffffffffffffffff1602179055507fc7f505b2f371ae2175ee4913f4499e1f2633a7b5936321eed1cdaeb6115181d267ffffffffffffffff60405161014891906101b8565b60405180910390a15b50565b5f5f61016461016d60201b60201c565b90508091505090565b5f7ff0c57e16840df040f15088dc2f81fe391c3923bec73e23a9662efc9c229c6a005f1b905090565b5f67ffffffffffffffff82169050919050565b6101b281610196565b82525050565b5f6020820190506101cb5f8301846101a9565b92915050565b608051612a3f6101f75f395f81816112270152818161127c01526114360152612a3f5ff3fe6080604052600436106100fd575f3560e01c806352d1902d1161009457806397da7af71161006357806397da7af7146102e3578063aa5d00631461030d578063ad3cb1cc14610337578063cb0e0d7d14610361578063f2fde38b1461039d576100fd565b806352d1902d14610263578063715018a61461028d5780638bda03a7146102a35780638da5cb5b146102b9576100fd565b80632dee2327116100d05780632dee2327146101cf5780632e1a7d4d146101f7578063485cc9551461021f5780634f1ef28614610247576100fd565b806311eac855146101015780631959a0021461012b57806327ed00ee146101695780632a2d0c4714610193575b5f5ffd5b34801561010c575f5ffd5b506101156103c5565b6040516101229190611e68565b60405180910390f35b348015610136575f5ffd5b50610151600480360381019061014c9190611ecd565b6103e9565b60405161016093929190611f1f565b60405180910390f35b348015610174575f5ffd5b5061017d61042e565b60405161018a9190611f54565b60405180910390f35b34801561019e575f5ffd5b506101b960048036038101906101b49190611f97565b610472565b6040516101c69190611fc2565b60405180910390f35b3480156101da575f5ffd5b506101f560048036038101906101f09190611fdb565b6104a2565b005b348015610202575f5ffd5b5061021d60048036038101906102189190611f97565b6107f1565b005b34801561022a575f5ffd5b5061024560048036038101906102409190612019565b610a2a565b005b610261600480360381019061025c9190612193565b610c44565b005b34801561026e575f5ffd5b50610277610c63565b6040516102849190612205565b60405180910390f35b348015610298575f5ffd5b506102a1610c94565b005b3480156102ae575f5ffd5b506102b7610ca7565b005b3480156102c4575f5ffd5b506102cd610e1b565b6040516102da9190611fc2565b60405180910390f35b3480156102ee575f5ffd5b506102f7610e50565b604051610304919061223e565b60405180910390f35b348015610318575f5ffd5b50610321610e75565b60405161032e9190611f54565b60405180910390f35b348015610342575f5ffd5b5061034b610e7b565b60405161035891906122b7565b60405180910390f35b34801561036c575f5ffd5b5061038760048036038101906103829190611ecd565b610eb4565b6040516103949190611f54565b60405180910390f35b3480156103a8575f5ffd5b506103c360048036038101906103be9190611ecd565b610ec9565b005b5f5f9054906101000a900473ffffffffffffffffffffffffffffffffffffffff1681565b6005602052805f5260405f205f91509050805f015490806001015490806002015f9054906101000a900473ffffffffffffffffffffffffffffffffffffffff16905083565b5f60045f3373ffffffffffffffffffffffffffffffffffffffff1673ffffffffffffffffffffffffffffffffffffffff1681526020019081526020015f2054905090565b6003602052805f5260405f205f915054906101000a900473ffffffffffffffffffffffffffffffffffffffff1681565b6104aa610f4d565b5f82116104ec576040517f08c379a00000000000000000000000000000000000000000000000000000000081526004016104e390612321565b60405180910390fd5b5f60035f8381526020019081526020015f205f9054906101000a900473ffffffffffffffffffffffffffffffffffffffff1690505f73ffffffffffffffffffffffffffffffffffffffff168173ffffffffffffffffffffffffffffffffffffffff16148061058557503373ffffffffffffffffffffffffffffffffffffffff168173ffffffffffffffffffffffffffffffffffffffff16145b1561058e575f90505b5f60055f3373ffffffffffffffffffffffffffffffffffffffff1673ffffffffffffffffffffffffffffffffffffffff1681526020019081526020015f2090505f815f01540361061b5781816002015f6101000a81548173ffffffffffffffffffffffffffffffffffffffff021916908373ffffffffffffffffffffffffffffffffffffffff1602179055505b83815f015f82825461062d919061236c565b9250508190555042816001018190555061068a3330865f5f9054906101000a900473ffffffffffffffffffffffffffffffffffffffff1673ffffffffffffffffffffffffffffffffffffffff16610fa1909392919063ffffffff16565b6106f660015f9054906101000a900473ffffffffffffffffffffffffffffffffffffffff16855f5f9054906101000a900473ffffffffffffffffffffffffffffffffffffffff1673ffffffffffffffffffffffffffffffffffffffff1661102a9092919063ffffffff16565b60015f9054906101000a900473ffffffffffffffffffffffffffffffffffffffff1673ffffffffffffffffffffffffffffffffffffffff16636e553f6585306040518363ffffffff1660e01b815260040161075292919061239f565b6020604051808303815f875af115801561076e573d5f5f3e3d5ffd5b505050506040513d601f19601f8201168201806040525081019061079291906123da565b503373ffffffffffffffffffffffffffffffffffffffff167fd2b1037dae85880a8b3da140fdf093c0a4b7f0dca733773cfec6804c2a903bf585856040516107db929190612405565b60405180910390a250506107ed611145565b5050565b6107f9610f4d565b5f60055f3373ffffffffffffffffffffffffffffffffffffffff1673ffffffffffffffffffffffffffffffffffffffff1681526020019081526020015f20905081815f0154101561087f576040517f08c379a000000000000000000000000000000000000000000000000000000000815260040161087690612476565b60405180910390fd5b5f5f905062042cc08260010154610896919061236c565b4210156108ba576127106064846108ad9190612494565b6108b79190612502565b90505b5f81846108c79190612532565b905060015f9054906101000a900473ffffffffffffffffffffffffffffffffffffffff1673ffffffffffffffffffffffffffffffffffffffff1663b460af948530306040518463ffffffff1660e01b815260040161092793929190612565565b6020604051808303815f875af1158015610943573d5f5f3e3d5ffd5b505050506040513d601f19601f8201168201806040525081019061096791906123da565b506109b333825f5f9054906101000a900473ffffffffffffffffffffffffffffffffffffffff1673ffffffffffffffffffffffffffffffffffffffff1661115c9092919063ffffffff16565b83835f015f8282546109c59190612532565b925050819055503373ffffffffffffffffffffffffffffffffffffffff167f92ccf450a286a957af52509bc1c9939d1a6a481783e142e41e2499f0bb66ebc68584604051610a14929190612405565b60405180910390a2505050610a27611145565b50565b5f610a336111e2565b90505f815f0160089054906101000a900460ff161590505f825f015f9054906101000a900467ffffffffffffffff1690505f5f8267ffffffffffffffff16148015610a7b5750825b90505f60018367ffffffffffffffff16148015610aae57505f3073ffffffffffffffffffffffffffffffffffffffff163b145b905081158015610abc575080155b15610af3576040517ff92ee8a900000000000000000000000000000000000000000000000000000000815260040160405180910390fd5b6001855f015f6101000a81548167ffffffffffffffff021916908367ffffffffffffffff1602179055508315610b40576001855f0160086101000a81548160ff0219169083151502179055505b610b49336111f5565b610b51611209565b610b5961121b565b865f5f6101000a81548173ffffffffffffffffffffffffffffffffffffffff021916908373ffffffffffffffffffffffffffffffffffffffff1602179055508560015f6101000a81548173ffffffffffffffffffffffffffffffffffffffff021916908373ffffffffffffffffffffffffffffffffffffffff1602179055506103e86002819055508315610c3b575f855f0160086101000a81548160ff0219169083151502179055507fc7f505b2f371ae2175ee4913f4499e1f2633a7b5936321eed1cdaeb6115181d26001604051610c3291906125e6565b60405180910390a15b50505050505050565b610c4c611225565b610c558261130b565b610c5f8282611316565b5050565b5f610c6c611434565b7f360894a13ba1a3210667c828492db98dca3e2076cc3735a920a3ca505d382bbc5f1b905090565b610c9c6114bb565b610ca55f611542565b565b5f60045f3373ffffffffffffffffffffffffffffffffffffffff1673ffffffffffffffffffffffffffffffffffffffff1681526020019081526020015f205414610d26576040517f08c379a0000000000000000000000000000000000000000000000000000000008152600401610d1d90612649565b60405180910390fd5b5f60025490503360035f8381526020019081526020015f205f6101000a81548173ffffffffffffffffffffffffffffffffffffffff021916908373ffffffffffffffffffffffffffffffffffffffff1602179055508060045f3373ffffffffffffffffffffffffffffffffffffffff1673ffffffffffffffffffffffffffffffffffffffff1681526020019081526020015f208190555060025f815480929190610dcf90612667565b9190505550803373ffffffffffffffffffffffffffffffffffffffff167f5ece152ee1e9dd87770d07505ddd04d9139849b716d01b7c715e946f8538e46260405160405180910390a350565b5f5f610e25611613565b9050805f015f9054906101000a900473ffffffffffffffffffffffffffffffffffffffff1691505090565b60015f9054906101000a900473ffffffffffffffffffffffffffffffffffffffff1681565b60025481565b6040518060400160405280600581526020017f352e302e3000000000000000000000000000000000000000000000000000000081525081565b6004602052805f5260405f205f915090505481565b610ed16114bb565b5f73ffffffffffffffffffffffffffffffffffffffff168173ffffffffffffffffffffffffffffffffffffffff1603610f41575f6040517f1e4fbdf7000000000000000000000000000000000000000000000000000000008152600401610f389190611fc2565b60405180910390fd5b610f4a81611542565b50565b5f610f5661163a565b90506002815f015403610f95576040517f3ee5aeb500000000000000000000000000000000000000000000000000000000815260040160405180910390fd5b6002815f018190555050565b611024846323b872dd60e01b858585604051602401610fc2939291906126ae565b604051602081830303815290604052907bffffffffffffffffffffffffffffffffffffffffffffffffffffffff19166020820180517bffffffffffffffffffffffffffffffffffffffffffffffffffffffff8381831617835250505050611661565b50505050565b5f63095ea7b360e01b83836040516024016110469291906126e3565b604051602081830303815290604052907bffffffffffffffffffffffffffffffffffffffffffffffffffffffff19166020820180517bffffffffffffffffffffffffffffffffffffffffffffffffffffffff838183161783525050505090506110af8482611727565b61113f576111348463095ea7b360e01b855f6040516024016110d292919061274f565b604051602081830303815290604052907bffffffffffffffffffffffffffffffffffffffffffffffffffffffff19166020820180517bffffffffffffffffffffffffffffffffffffffffffffffffffffffff8381831617835250505050611661565b61113e8482611661565b5b50505050565b5f61114e61163a565b90506001815f018190555050565b6111dd8363a9059cbb60e01b848460405160240161117b9291906126e3565b604051602081830303815290604052907bffffffffffffffffffffffffffffffffffffffffffffffffffffffff19166020820180517bffffffffffffffffffffffffffffffffffffffffffffffffffffffff8381831617835250505050611661565b505050565b5f5f6111ec6117d5565b90508091505090565b6111fd6117fe565b6112068161183e565b50565b6112116117fe565b6112196118c2565b565b6112236117fe565b565b7f000000000000000000000000000000000000000000000000000000000000000073ffffffffffffffffffffffffffffffffffffffff163073ffffffffffffffffffffffffffffffffffffffff1614806112d257507f000000000000000000000000000000000000000000000000000000000000000073ffffffffffffffffffffffffffffffffffffffff166112b96118e1565b73ffffffffffffffffffffffffffffffffffffffff1614155b15611309576040517fe07c8dba00000000000000000000000000000000000000000000000000000000815260040160405180910390fd5b565b6113136114bb565b50565b8173ffffffffffffffffffffffffffffffffffffffff166352d1902d6040518163ffffffff1660e01b8152600401602060405180830381865afa92505050801561137e57506040513d601f19601f8201168201806040525081019061137b91906127a0565b60015b6113bf57816040517f4c9c8ce30000000000000000000000000000000000000000000000000000000081526004016113b69190611fc2565b60405180910390fd5b7f360894a13ba1a3210667c828492db98dca3e2076cc3735a920a3ca505d382bbc5f1b811461142557806040517faa1d49a400000000000000000000000000000000000000000000000000000000815260040161141c9190612205565b60405180910390fd5b61142f8383611934565b505050565b7f000000000000000000000000000000000000000000000000000000000000000073ffffffffffffffffffffffffffffffffffffffff163073ffffffffffffffffffffffffffffffffffffffff16146114b9576040517fe07c8dba00000000000000000000000000000000000000000000000000000000815260040160405180910390fd5b565b6114c36119a6565b73ffffffffffffffffffffffffffffffffffffffff166114e1610e1b565b73ffffffffffffffffffffffffffffffffffffffff1614611540576115046119a6565b6040517f118cdaa70000000000000000000000000000000000000000000000000000000081526004016115379190611fc2565b60405180910390fd5b565b5f61154b611613565b90505f815f015f9054906101000a900473ffffffffffffffffffffffffffffffffffffffff16905082825f015f6101000a81548173ffffffffffffffffffffffffffffffffffffffff021916908373ffffffffffffffffffffffffffffffffffffffff1602179055508273ffffffffffffffffffffffffffffffffffffffff168173ffffffffffffffffffffffffffffffffffffffff167f8be0079c531659141344cd1fd0a4f28419497f9722a3daafe3b4186f6b6457e060405160405180910390a3505050565b5f7f9016d09d72d40fdae2fd8ceac6b6234c7706214fd39c1cd1e609a0528c199300905090565b5f7f9b779b17422d0df92223018b32b4d1fa46e071723d6817e2486d003becc55f00905090565b5f6116c2826040518060400160405280602081526020017f5361666545524332303a206c6f772d6c6576656c2063616c6c206661696c65648152508573ffffffffffffffffffffffffffffffffffffffff166119ad9092919063ffffffff16565b90505f815114806116e35750808060200190518101906116e29190612800565b5b611722576040517f08c379a00000000000000000000000000000000000000000000000000000000081526004016117199061289b565b60405180910390fd5b505050565b5f5f5f8473ffffffffffffffffffffffffffffffffffffffff168460405161174f91906128fd565b5f604051808303815f865af19150503d805f8114611788576040519150601f19603f3d011682016040523d82523d5f602084013e61178d565b606091505b50915091508180156117ba57505f815114806117b95750808060200190518101906117b89190612800565b5b5b80156117cb57506117ca856119c4565b5b9250505092915050565b5f7ff0c57e16840df040f15088dc2f81fe391c3923bec73e23a9662efc9c229c6a005f1b905090565b6118066119e6565b61183c576040517fd7e6bcf800000000000000000000000000000000000000000000000000000000815260040160405180910390fd5b565b6118466117fe565b5f73ffffffffffffffffffffffffffffffffffffffff168173ffffffffffffffffffffffffffffffffffffffff16036118b6575f6040517f1e4fbdf70000000000000000000000000000000000000000000000000000000081526004016118ad9190611fc2565b60405180910390fd5b6118bf81611542565b50565b6118ca6117fe565b5f6118d361163a565b90506001815f018190555050565b5f61190d7f360894a13ba1a3210667c828492db98dca3e2076cc3735a920a3ca505d382bbc5f1b611a04565b5f015f9054906101000a900473ffffffffffffffffffffffffffffffffffffffff16905090565b61193d82611a0d565b8173ffffffffffffffffffffffffffffffffffffffff167fbc7cd75a20ee27fd9adebab32041f755214dbc6bffa90cc0225b39da2e5c2d3b60405160405180910390a25f81511115611999576119938282611ad6565b506119a2565b6119a1611b56565b5b5050565b5f33905090565b60606119bb84845f85611b92565b90509392505050565b5f5f8273ffffffffffffffffffffffffffffffffffffffff163b119050919050565b5f6119ef6111e2565b5f0160089054906101000a900460ff16905090565b5f819050919050565b5f8173ffffffffffffffffffffffffffffffffffffffff163b03611a6857806040517f4c9c8ce3000000000000000000000000000000000000000000000000000000008152600401611a5f9190611fc2565b60405180910390fd5b80611a947f360894a13ba1a3210667c828492db98dca3e2076cc3735a920a3ca505d382bbc5f1b611a04565b5f015f6101000a81548173ffffffffffffffffffffffffffffffffffffffff021916908373ffffffffffffffffffffffffffffffffffffffff16021790555050565b60605f5f8473ffffffffffffffffffffffffffffffffffffffff1684604051611aff91906128fd565b5f60405180830381855af49150503d805f8114611b37576040519150601f19603f3d011682016040523d82523d5f602084013e611b3c565b606091505b5091509150611b4c858383611c5b565b9250505092915050565b5f341115611b90576040517fb398979f00000000000000000000000000000000000000000000000000000000815260040160405180910390fd5b565b606082471015611bd7576040517f08c379a0000000000000000000000000000000000000000000000000000000008152600401611bce90612983565b60405180910390fd5b5f5f8673ffffffffffffffffffffffffffffffffffffffff168587604051611bff91906128fd565b5f6040518083038185875af1925050503d805f8114611c39576040519150601f19603f3d011682016040523d82523d5f602084013e611c3e565b606091505b5091509150611c4f87838387611ce8565b92505050949350505050565b606082611c7057611c6b82611d5c565b611ce0565b5f8251148015611c9657505f8473ffffffffffffffffffffffffffffffffffffffff163b145b15611cd857836040517f9996b315000000000000000000000000000000000000000000000000000000008152600401611ccf9190611fc2565b60405180910390fd5b819050611ce1565b5b9392505050565b60608315611d49575f835103611d4157611d01856119c4565b611d40576040517f08c379a0000000000000000000000000000000000000000000000000000000008152600401611d37906129eb565b60405180910390fd5b5b829050611d54565b611d538383611d9f565b5b949350505050565b5f81511115611d6d57805160208201fd5b6040517fd6bda27500000000000000000000000000000000000000000000000000000000815260040160405180910390fd5b5f82511115611db15781518083602001fd5b806040517f08c379a0000000000000000000000000000000000000000000000000000000008152600401611de591906122b7565b60405180910390fd5b5f73ffffffffffffffffffffffffffffffffffffffff82169050919050565b5f819050919050565b5f611e30611e2b611e2684611dee565b611e0d565b611dee565b9050919050565b5f611e4182611e16565b9050919050565b5f611e5282611e37565b9050919050565b611e6281611e48565b82525050565b5f602082019050611e7b5f830184611e59565b92915050565b5f604051905090565b5f5ffd5b5f5ffd5b5f611e9c82611dee565b9050919050565b611eac81611e92565b8114611eb6575f5ffd5b50565b5f81359050611ec781611ea3565b92915050565b5f60208284031215611ee257611ee1611e8a565b5b5f611eef84828501611eb9565b91505092915050565b5f819050919050565b611f0a81611ef8565b82525050565b611f1981611e92565b82525050565b5f606082019050611f325f830186611f01565b611f3f6020830185611f01565b611f4c6040830184611f10565b949350505050565b5f602082019050611f675f830184611f01565b92915050565b611f7681611ef8565b8114611f80575f5ffd5b50565b5f81359050611f9181611f6d565b92915050565b5f60208284031215611fac57611fab611e8a565b5b5f611fb984828501611f83565b91505092915050565b5f602082019050611fd55f830184611f10565b92915050565b5f5f60408385031215611ff157611ff0611e8a565b5b5f611ffe85828601611f83565b925050602061200f85828601611f83565b9150509250929050565b5f5f6040838503121561202f5761202e611e8a565b5b5f61203c85828601611eb9565b925050602061204d85828601611eb9565b9150509250929050565b5f5ffd5b5f5ffd5b5f601f19601f8301169050919050565b7f4e487b71000000000000000000000000000000000000000000000000000000005f52604160045260245ffd5b6120a58261205f565b810181811067ffffffffffffffff821117156120c4576120c361206f565b5b80604052505050565b5f6120d6611e81565b90506120e2828261209c565b919050565b5f67ffffffffffffffff8211156121015761210061206f565b5b61210a8261205f565b9050602081019050919050565b828183375f83830152505050565b5f612137612132846120e7565b6120cd565b9050828152602081018484840111156121535761215261205b565b5b61215e848285612117565b509392505050565b5f82601f83011261217a57612179612057565b5b813561218a848260208601612125565b91505092915050565b5f5f604083850312156121a9576121a8611e8a565b5b5f6121b685828601611eb9565b925050602083013567ffffffffffffffff8111156121d7576121d6611e8e565b5b6121e385828601612166565b9150509250929050565b5f819050919050565b6121ff816121ed565b82525050565b5f6020820190506122185f8301846121f6565b92915050565b5f61222882611e37565b9050919050565b6122388161221e565b82525050565b5f6020820190506122515f83018461222f565b92915050565b5f81519050919050565b5f82825260208201905092915050565b8281835e5f83830152505050565b5f61228982612257565b6122938185612261565b93506122a3818560208601612271565b6122ac8161205f565b840191505092915050565b5f6020820190508181035f8301526122cf818461227f565b905092915050565b7f5a61704170793a20416d6f756e74206d757374206265203e20300000000000005f82015250565b5f61230b601a83612261565b9150612316826122d7565b602082019050919050565b5f6020820190508181035f830152612338816122ff565b9050919050565b7f4e487b71000000000000000000000000000000000000000000000000000000005f52601160045260245ffd5b5f61237682611ef8565b915061238183611ef8565b92508282019050808211156123995761239861233f565b5b92915050565b5f6040820190506123b25f830185611f01565b6123bf6020830184611f10565b9392505050565b5f815190506123d481611f6d565b92915050565b5f602082840312156123ef576123ee611e8a565b5b5f6123fc848285016123c6565b91505092915050565b5f6040820190506124185f830185611f01565b6124256020830184611f01565b9392505050565b7f5a61704170793a20496e73756666696369656e742062616c616e6365000000005f82015250565b5f612460601c83612261565b915061246b8261242c565b602082019050919050565b5f6020820190508181035f83015261248d81612454565b9050919050565b5f61249e82611ef8565b91506124a983611ef8565b92508282026124b781611ef8565b915082820484148315176124ce576124cd61233f565b5b5092915050565b7f4e487b71000000000000000000000000000000000000000000000000000000005f52601260045260245ffd5b5f61250c82611ef8565b915061251783611ef8565b925082612527576125266124d5565b5b828204905092915050565b5f61253c82611ef8565b915061254783611ef8565b925082820390508181111561255f5761255e61233f565b5b92915050565b5f6060820190506125785f830186611f01565b6125856020830185611f10565b6125926040830184611f10565b949350505050565b5f819050919050565b5f67ffffffffffffffff82169050919050565b5f6125d06125cb6125c68461259a565b611e0d565b6125a3565b9050919050565b6125e0816125b6565b82525050565b5f6020820190506125f95f8301846125d7565b92915050565b7f5a61704170793a20596f7520616c7265616479206861766520616e20494400005f82015250565b5f612633601e83612261565b915061263e826125ff565b602082019050919050565b5f6020820190508181035f83015261266081612627565b9050919050565b5f61267182611ef8565b91507fffffffffffffffffffffffffffffffffffffffffffffffffffffffffffffffff82036126a3576126a261233f565b5b600182019050919050565b5f6060820190506126c15f830186611f10565b6126ce6020830185611f10565b6126db6040830184611f01565b949350505050565b5f6040820190506126f65f830185611f10565b6127036020830184611f01565b9392505050565b5f819050919050565b5f60ff82169050919050565b5f61273961273461272f8461270a565b611e0d565b612713565b9050919050565b6127498161271f565b82525050565b5f6040820190506127625f830185611f10565b61276f6020830184612740565b9392505050565b61277f816121ed565b8114612789575f5ffd5b50565b5f8151905061279a81612776565b92915050565b5f602082840312156127b5576127b4611e8a565b5b5f6127c28482850161278c565b91505092915050565b5f8115159050919050565b6127df816127cb565b81146127e9575f5ffd5b50565b5f815190506127fa816127d6565b92915050565b5f6020828403121561281557612814611e8a565b5b5f612822848285016127ec565b91505092915050565b7f5361666545524332303a204552433230206f7065726174696f6e20646964206e5f8201527f6f74207375636365656400000000000000000000000000000000000000000000602082015250565b5f612885602a83612261565b91506128908261282b565b604082019050919050565b5f6020820190508181035f8301526128b281612879565b9050919050565b5f81519050919050565b5f81905092915050565b5f6128d7826128b9565b6128e181856128c3565b93506128f1818560208601612271565b80840191505092915050565b5f61290882846128cd565b915081905092915050565b7f416464726573733a20696e73756666696369656e742062616c616e636520666f5f8201527f722063616c6c0000000000000000000000000000000000000000000000000000602082015250565b5f61296d602683612261565b915061297882612913565b604082019050919050565b5f6020820190508181035f83015261299a81612961565b9050919050565b7f416464726573733a2063616c6c20746f206e6f6e2d636f6e74726163740000005f82015250565b5f6129d5601d83612261565b91506129e0826129a1565b602082019050919050565b5f6020820190508181035f830152612a02816129c9565b905091905056fea264697066735822122085fbd0943ccabf40e22867809c7ead1be25ff2430ee6d3bfa2af22a905171fec64736f6c634300081f0033",
					"opcodes": "PUSH1 0xA0 PUSH1 0x40 MSTORE ADDRESS PUSH20 0xFFFFFFFFFFFFFFFFFFFFFFFFFFFFFFFFFFFFFFFF AND PUSH1 0x80 SWAP1 PUSH20 0xFFFFFFFFFFFFFFFFFFFFFFFFFFFFFFFFFFFFFFFF AND DUP2 MSTORE POP CALLVALUE DUP1 ISZERO PUSH2 0x42 JUMPI PUSH0 PUSH0 REVERT JUMPDEST POP PUSH2 0x51 PUSH2 0x56 PUSH1 0x20 SHL PUSH1 0x20 SHR JUMP JUMPDEST PUSH2 0x1D1 JUMP JUMPDEST PUSH0 PUSH2 0x65 PUSH2 0x154 PUSH1 0x20 SHL PUSH1 0x20 SHR JUMP JUMPDEST SWAP1 POP DUP1 PUSH0 ADD PUSH1 0x8 SWAP1 SLOAD SWAP1 PUSH2 0x100 EXP SWAP1 DIV PUSH1 0xFF AND ISZERO PUSH2 0xAF JUMPI PUSH1 0x40 MLOAD PUSH32 0xF92EE8A900000000000000000000000000000000000000000000000000000000 DUP2 MSTORE PUSH1 0x4 ADD PUSH1 0x40 MLOAD DUP1 SWAP2 SUB SWAP1 REVERT JUMPDEST PUSH8 0xFFFFFFFFFFFFFFFF DUP1 AND DUP2 PUSH0 ADD PUSH0 SWAP1 SLOAD SWAP1 PUSH2 0x100 EXP SWAP1 DIV PUSH8 0xFFFFFFFFFFFFFFFF AND PUSH8 0xFFFFFFFFFFFFFFFF AND EQ PUSH2 0x151 JUMPI PUSH8 0xFFFFFFFFFFFFFFFF DUP2 PUSH0 ADD PUSH0 PUSH2 0x100 EXP DUP2 SLOAD DUP2 PUSH8 0xFFFFFFFFFFFFFFFF MUL NOT AND SWAP1 DUP4 PUSH8 0xFFFFFFFFFFFFFFFF AND MUL OR SWAP1 SSTORE POP PUSH32 0xC7F505B2F371AE2175EE4913F4499E1F2633A7B5936321EED1CDAEB6115181D2 PUSH8 0xFFFFFFFFFFFFFFFF PUSH1 0x40 MLOAD PUSH2 0x148 SWAP2 SWAP1 PUSH2 0x1B8 JUMP JUMPDEST PUSH1 0x40 MLOAD DUP1 SWAP2 SUB SWAP1 LOG1 JUMPDEST POP JUMP JUMPDEST PUSH0 PUSH0 PUSH2 0x164 PUSH2 0x16D PUSH1 0x20 SHL PUSH1 0x20 SHR JUMP JUMPDEST SWAP1 POP DUP1 SWAP2 POP POP SWAP1 JUMP JUMPDEST PUSH0 PUSH32 0xF0C57E16840DF040F15088DC2F81FE391C3923BEC73E23A9662EFC9C229C6A00 PUSH0 SHL SWAP1 POP SWAP1 JUMP JUMPDEST PUSH0 PUSH8 0xFFFFFFFFFFFFFFFF DUP3 AND SWAP1 POP SWAP2 SWAP1 POP JUMP JUMPDEST PUSH2 0x1B2 DUP2 PUSH2 0x196 JUMP JUMPDEST DUP3 MSTORE POP POP JUMP JUMPDEST PUSH0 PUSH1 0x20 DUP3 ADD SWAP1 POP PUSH2 0x1CB PUSH0 DUP4 ADD DUP5 PUSH2 0x1A9 JUMP JUMPDEST SWAP3 SWAP2 POP POP JUMP JUMPDEST PUSH1 0x80 MLOAD PUSH2 0x2A3F PUSH2 0x1F7 PUSH0 CODECOPY PUSH0 DUP2 DUP2 PUSH2 0x1227 ADD MSTORE DUP2 DUP2 PUSH2 0x127C ADD MSTORE PUSH2 0x1436 ADD MSTORE PUSH2 0x2A3F PUSH0 RETURN INVALID PUSH1 0x80 PUSH1 0x40 MSTORE PUSH1 0x4 CALLDATASIZE LT PUSH2 0xFD JUMPI PUSH0 CALLDATALOAD PUSH1 0xE0 SHR DUP1 PUSH4 0x52D1902D GT PUSH2 0x94 JUMPI DUP1 PUSH4 0x97DA7AF7 GT PUSH2 0x63 JUMPI DUP1 PUSH4 0x97DA7AF7 EQ PUSH2 0x2E3 JUMPI DUP1 PUSH4 0xAA5D0063 EQ PUSH2 0x30D JUMPI DUP1 PUSH4 0xAD3CB1CC EQ PUSH2 0x337 JUMPI DUP1 PUSH4 0xCB0E0D7D EQ PUSH2 0x361 JUMPI DUP1 PUSH4 0xF2FDE38B EQ PUSH2 0x39D JUMPI PUSH2 0xFD JUMP JUMPDEST DUP1 PUSH4 0x52D1902D EQ PUSH2 0x263 JUMPI DUP1 PUSH4 0x715018A6 EQ PUSH2 0x28D JUMPI DUP1 PUSH4 0x8BDA03A7 EQ PUSH2 0x2A3 JUMPI DUP1 PUSH4 0x8DA5CB5B EQ PUSH2 0x2B9 JUMPI PUSH2 0xFD JUMP JUMPDEST DUP1 PUSH4 0x2DEE2327 GT PUSH2 0xD0 JUMPI DUP1 PUSH4 0x2DEE2327 EQ PUSH2 0x1CF JUMPI DUP1 PUSH4 0x2E1A7D4D EQ PUSH2 0x1F7 JUMPI DUP1 PUSH4 0x485CC955 EQ PUSH2 0x21F JUMPI DUP1 PUSH4 0x4F1EF286 EQ PUSH2 0x247 JUMPI PUSH2 0xFD JUMP JUMPDEST DUP1 PUSH4 0x11EAC855 EQ PUSH2 0x101 JUMPI DUP1 PUSH4 0x1959A002 EQ PUSH2 0x12B JUMPI DUP1 PUSH4 0x27ED00EE EQ PUSH2 0x169 JUMPI DUP1 PUSH4 0x2A2D0C47 EQ PUSH2 0x193 JUMPI JUMPDEST PUSH0 PUSH0 REVERT JUMPDEST CALLVALUE DUP1 ISZERO PUSH2 0x10C JUMPI PUSH0 PUSH0 REVERT JUMPDEST POP PUSH2 0x115 PUSH2 0x3C5 JUMP JUMPDEST PUSH1 0x40 MLOAD PUSH2 0x122 SWAP2 SWAP1 PUSH2 0x1E68 JUMP JUMPDEST PUSH1 0x40 MLOAD DUP1 SWAP2 SUB SWAP1 RETURN JUMPDEST CALLVALUE DUP1 ISZERO PUSH2 0x136 JUMPI PUSH0 PUSH0 REVERT JUMPDEST POP PUSH2 0x151 PUSH1 0x4 DUP1 CALLDATASIZE SUB DUP2 ADD SWAP1 PUSH2 0x14C SWAP2 SWAP1 PUSH2 0x1ECD JUMP JUMPDEST PUSH2 0x3E9 JUMP JUMPDEST PUSH1 0x40 MLOAD PUSH2 0x160 SWAP4 SWAP3 SWAP2 SWAP1 PUSH2 0x1F1F JUMP JUMPDEST PUSH1 0x40 MLOAD DUP1 SWAP2 SUB SWAP1 RETURN JUMPDEST CALLVALUE DUP1 ISZERO PUSH2 0x174 JUMPI PUSH0 PUSH0 REVERT JUMPDEST POP PUSH2 0x17D PUSH2 0x42E JUMP JUMPDEST PUSH1 0x40 MLOAD PUSH2 0x18A SWAP2 SWAP1 PUSH2 0x1F54 JUMP JUMPDEST PUSH1 0x40 MLOAD DUP1 SWAP2 SUB SWAP1 RETURN JUMPDEST CALLVALUE DUP1 ISZERO PUSH2 0x19E JUMPI PUSH0 PUSH0 REVERT JUMPDEST POP PUSH2 0x1B9 PUSH1 0x4 DUP1 CALLDATASIZE SUB DUP2 ADD SWAP1 PUSH2 0x1B4 SWAP2 SWAP1 PUSH2 0x1F97 JUMP JUMPDEST PUSH2 0x472 JUMP JUMPDEST PUSH1 0x40 MLOAD PUSH2 0x1C6 SWAP2 SWAP1 PUSH2 0x1FC2 JUMP JUMPDEST PUSH1 0x40 MLOAD DUP1 SWAP2 SUB SWAP1 RETURN JUMPDEST CALLVALUE DUP1 ISZERO PUSH2 0x1DA JUMPI PUSH0 PUSH0 REVERT JUMPDEST POP PUSH2 0x1F5 PUSH1 0x4 DUP1 CALLDATASIZE SUB DUP2 ADD SWAP1 PUSH2 0x1F0 SWAP2 SWAP1 PUSH2 0x1FDB JUMP JUMPDEST PUSH2 0x4A2 JUMP JUMPDEST STOP JUMPDEST CALLVALUE DUP1 ISZERO PUSH2 0x202 JUMPI PUSH0 PUSH0 REVERT JUMPDEST POP PUSH2 0x21D PUSH1 0x4 DUP1 CALLDATASIZE SUB DUP2 ADD SWAP1 PUSH2 0x218 SWAP2 SWAP1 PUSH2 0x1F97 JUMP JUMPDEST PUSH2 0x7F1 JUMP JUMPDEST STOP JUMPDEST CALLVALUE DUP1 ISZERO PUSH2 0x22A JUMPI PUSH0 PUSH0 REVERT JUMPDEST POP PUSH2 0x245 PUSH1 0x4 DUP1 CALLDATASIZE SUB DUP2 ADD SWAP1 PUSH2 0x240 SWAP2 SWAP1 PUSH2 0x2019 JUMP JUMPDEST PUSH2 0xA2A JUMP JUMPDEST STOP JUMPDEST PUSH2 0x261 PUSH1 0x4 DUP1 CALLDATASIZE SUB DUP2 ADD SWAP1 PUSH2 0x25C SWAP2 SWAP1 PUSH2 0x2193 JUMP JUMPDEST PUSH2 0xC44 JUMP JUMPDEST STOP JUMPDEST CALLVALUE DUP1 ISZERO PUSH2 0x26E JUMPI PUSH0 PUSH0 REVERT JUMPDEST POP PUSH2 0x277 PUSH2 0xC63 JUMP JUMPDEST PUSH1 0x40 MLOAD PUSH2 0x284 SWAP2 SWAP1 PUSH2 0x2205 JUMP JUMPDEST PUSH1 0x40 MLOAD DUP1 SWAP2 SUB SWAP1 RETURN JUMPDEST CALLVALUE DUP1 ISZERO PUSH2 0x298 JUMPI PUSH0 PUSH0 REVERT JUMPDEST POP PUSH2 0x2A1 PUSH2 0xC94 JUMP JUMPDEST STOP JUMPDEST CALLVALUE DUP1 ISZERO PUSH2 0x2AE JUMPI PUSH0 PUSH0 REVERT JUMPDEST POP PUSH2 0x2B7 PUSH2 0xCA7 JUMP JUMPDEST STOP JUMPDEST CALLVALUE DUP1 ISZERO PUSH2 0x2C4 JUMPI PUSH0 PUSH0 REVERT JUMPDEST POP PUSH2 0x2CD PUSH2 0xE1B JUMP JUMPDEST PUSH1 0x40 MLOAD PUSH2 0x2DA SWAP2 SWAP1 PUSH2 0x1FC2 JUMP JUMPDEST PUSH1 0x40 MLOAD DUP1 SWAP2 SUB SWAP1 RETURN JUMPDEST CALLVALUE DUP1 ISZERO PUSH2 0x2EE JUMPI PUSH0 PUSH0 REVERT JUMPDEST POP PUSH2 0x2F7 PUSH2 0xE50 JUMP JUMPDEST PUSH1 0x40 MLOAD PUSH2 0x304 SWAP2 SWAP1 PUSH2 0x223E JUMP JUMPDEST PUSH1 0x40 MLOAD DUP1 SWAP2 SUB SWAP1 RETURN JUMPDEST CALLVALUE DUP1 ISZERO PUSH2 0x318 JUMPI PUSH0 PUSH0 REVERT JUMPDEST POP PUSH2 0x321 PUSH2 0xE75 JUMP JUMPDEST PUSH1 0x40 MLOAD PUSH2 0x32E SWAP2 SWAP1 PUSH2 0x1F54 JUMP JUMPDEST PUSH1 0x40 MLOAD DUP1 SWAP2 SUB SWAP1 RETURN JUMPDEST CALLVALUE DUP1 ISZERO PUSH2 0x342 JUMPI PUSH0 PUSH0 REVERT JUMPDEST POP PUSH2 0x34B PUSH2 0xE7B JUMP JUMPDEST PUSH1 0x40 MLOAD PUSH2 0x358 SWAP2 SWAP1 PUSH2 0x22B7 JUMP JUMPDEST PUSH1 0x40 MLOAD DUP1 SWAP2 SUB SWAP1 RETURN JUMPDEST CALLVALUE DUP1 ISZERO PUSH2 0x36C JUMPI PUSH0 PUSH0 REVERT JUMPDEST POP PUSH2 0x387 PUSH1 0x4 DUP1 CALLDATASIZE SUB DUP2 ADD SWAP1 PUSH2 0x382 SWAP2 SWAP1 PUSH2 0x1ECD JUMP JUMPDEST PUSH2 0xEB4 JUMP JUMPDEST PUSH1 0x40 MLOAD PUSH2 0x394 SWAP2 SWAP1 PUSH2 0x1F54 JUMP JUMPDEST PUSH1 0x40 MLOAD DUP1 SWAP2 SUB SWAP1 RETURN JUMPDEST CALLVALUE DUP1 ISZERO PUSH2 0x3A8 JUMPI PUSH0 PUSH0 REVERT JUMPDEST POP PUSH2 0x3C3 PUSH1 0x4 DUP1 CALLDATASIZE SUB DUP2 ADD SWAP1 PUSH2 0x3BE SWAP2 SWAP1 PUSH2 0x1ECD JUMP JUMPDEST PUSH2 0xEC9 JUMP JUMPDEST STOP JUMPDEST PUSH0 PUSH0 SWAP1 SLOAD SWAP1 PUSH2 0x100 EXP SWAP1 DIV PUSH20 0xFFFFFFFFFFFFFFFFFFFFFFFFFFFFFFFFFFFFFFFF AND DUP2 JUMP JUMPDEST PUSH1 0x5 PUSH1 0x20 MSTORE DUP1 PUSH0 MSTORE PUSH1 0x40 PUSH0 KECCAK256 PUSH0 SWAP2 POP SWAP1 POP DUP1 PUSH0 ADD SLOAD SWAP1 DUP1 PUSH1 0x1 ADD SLOAD SWAP1 DUP1 PUSH1 0x2 ADD PUSH0 SWAP1 SLOAD SWAP1 PUSH2 0x100 EXP SWAP1 DIV PUSH20 0xFFFFFFFFFFFFFFFFFFFFFFFFFFFFFFFFFFFFFFFF AND SWAP1 POP DUP4 JUMP JUMPDEST PUSH0 PUSH1 0x4 PUSH0 CALLER PUSH20 0xFFFFFFFFFFFFFFFFFFFFFFFFFFFFFFFFFFFFFFFF AND PUSH20 0xFFFFFFFFFFFFFFFFFFFFFFFFFFFFFFFFFFFFFFFF AND DUP2 MSTORE PUSH1 0x20 ADD SWAP1 DUP2 MSTORE PUSH1 0x20 ADD PUSH0 KECCAK256 SLOAD SWAP1 POP SWAP1 JUMP JUMPDEST PUSH1 0x3 PUSH1 0x20 MSTORE DUP1 PUSH0 MSTORE PUSH1 0x40 PUSH0 KECCAK256 PUSH0 SWAP2 POP SLOAD SWAP1 PUSH2 0x100 EXP SWAP1 DIV PUSH20 0xFFFFFFFFFFFFFFFFFFFFFFFFFFFFFFFFFFFFFFFF AND DUP2 JUMP JUMPDEST PUSH2 0x4AA PUSH2 0xF4D JUMP JUMPDEST PUSH0 DUP3 GT PUSH2 0x4EC JUMPI PUSH1 0x40 MLOAD PUSH32 0x8C379A000000000000000000000000000000000000000000000000000000000 DUP2 MSTORE PUSH1 0x4 ADD PUSH2 0x4E3 SWAP1 PUSH2 0x2321 JUMP JUMPDEST PUSH1 0x40 MLOAD DUP1 SWAP2 SUB SWAP1 REVERT JUMPDEST PUSH0 PUSH1 0x3 PUSH0 DUP4 DUP2 MSTORE PUSH1 0x20 ADD SWAP1 DUP2 MSTORE PUSH1 0x20 ADD PUSH0 KECCAK256 PUSH0 SWAP1 SLOAD SWAP1 PUSH2 0x100 EXP SWAP1 DIV PUSH20 0xFFFFFFFFFFFFFFFFFFFFFFFFFFFFFFFFFFFFFFFF AND SWAP1 POP PUSH0 PUSH20 0xFFFFFFFFFFFFFFFFFFFFFFFFFFFFFFFFFFFFFFFF AND DUP2 PUSH20 0xFFFFFFFFFFFFFFFFFFFFFFFFFFFFFFFFFFFFFFFF AND EQ DUP1 PUSH2 0x585 JUMPI POP CALLER PUSH20 0xFFFFFFFFFFFFFFFFFFFFFFFFFFFFFFFFFFFFFFFF AND DUP2 PUSH20 0xFFFFFFFFFFFFFFFFFFFFFFFFFFFFFFFFFFFFFFFF AND EQ JUMPDEST ISZERO PUSH2 0x58E JUMPI PUSH0 SWAP1 POP JUMPDEST PUSH0 PUSH1 0x5 PUSH0 CALLER PUSH20 0xFFFFFFFFFFFFFFFFFFFFFFFFFFFFFFFFFFFFFFFF AND PUSH20 0xFFFFFFFFFFFFFFFFFFFFFFFFFFFFFFFFFFFFFFFF AND DUP2 MSTORE PUSH1 0x20 ADD SWAP1 DUP2 MSTORE PUSH1 0x20 ADD PUSH0 KECCAK256 SWAP1 POP PUSH0 DUP2 PUSH0 ADD SLOAD SUB PUSH2 0x61B JUMPI DUP2 DUP2 PUSH1 0x2 ADD PUSH0 PUSH2 0x100 EXP DUP2 SLOAD DUP2 PUSH20 0xFFFFFFFFFFFFFFFFFFFFFFFFFFFFFFFFFFFFFFFF MUL NOT AND SWAP1 DUP4 PUSH20 0xFFFFFFFFFFFFFFFFFFFFFFFFFFFFFFFFFFFFFFFF AND MUL OR SWAP1 SSTORE POP JUMPDEST DUP4 DUP2 PUSH0 ADD PUSH0 DUP3 DUP3 SLOAD PUSH2 0x62D SWAP2 SWAP1 PUSH2 0x236C JUMP JUMPDEST SWAP3 POP POP DUP2 SWAP1 SSTORE POP TIMESTAMP DUP2 PUSH1 0x1 ADD DUP2 SWAP1 SSTORE POP PUSH2 0x68A CALLER ADDRESS DUP7 PUSH0 PUSH0 SWAP1 SLOAD SWAP1 PUSH2 0x100 EXP SWAP1 DIV PUSH20 0xFFFFFFFFFFFFFFFFFFFFFFFFFFFFFFFFFFFFFFFF AND PUSH20 0xFFFFFFFFFFFFFFFFFFFFFFFFFFFFFFFFFFFFFFFF AND PUSH2 0xFA1 SWAP1 SWAP4 SWAP3 SWAP2 SWAP1 PUSH4 0xFFFFFFFF AND JUMP JUMPDEST PUSH2 0x6F6 PUSH1 0x1 PUSH0 SWAP1 SLOAD SWAP1 PUSH2 0x100 EXP SWAP1 DIV PUSH20 0xFFFFFFFFFFFFFFFFFFFFFFFFFFFFFFFFFFFFFFFF AND DUP6 PUSH0 PUSH0 SWAP1 SLOAD SWAP1 PUSH2 0x100 EXP SWAP1 DIV PUSH20 0xFFFFFFFFFFFFFFFFFFFFFFFFFFFFFFFFFFFFFFFF AND PUSH20 0xFFFFFFFFFFFFFFFFFFFFFFFFFFFFFFFFFFFFFFFF AND PUSH2 0x102A SWAP1 SWAP3 SWAP2 SWAP1 PUSH4 0xFFFFFFFF AND JUMP JUMPDEST PUSH1 0x1 PUSH0 SWAP1 SLOAD SWAP1 PUSH2 0x100 EXP SWAP1 DIV PUSH20 0xFFFFFFFFFFFFFFFFFFFFFFFFFFFFFFFFFFFFFFFF AND PUSH20 0xFFFFFFFFFFFFFFFFFFFFFFFFFFFFFFFFFFFFFFFF AND PUSH4 0x6E553F65 DUP6 ADDRESS PUSH1 0x40 MLOAD DUP4 PUSH4 0xFFFFFFFF AND PUSH1 0xE0 SHL DUP2 MSTORE PUSH1 0x4 ADD PUSH2 0x752 SWAP3 SWAP2 SWAP1 PUSH2 0x239F JUMP JUMPDEST PUSH1 0x20 PUSH1 0x40 MLOAD DUP1 DUP4 SUB DUP2 PUSH0 DUP8 GAS CALL ISZERO DUP1 ISZERO PUSH2 0x76E JUMPI RETURNDATASIZE PUSH0 PUSH0 RETURNDATACOPY RETURNDATASIZE PUSH0 REVERT JUMPDEST POP POP POP POP PUSH1 0x40 MLOAD RETURNDATASIZE PUSH1 0x1F NOT PUSH1 0x1F DUP3 ADD AND DUP3 ADD DUP1 PUSH1 0x40 MSTORE POP DUP2 ADD SWAP1 PUSH2 0x792 SWAP2 SWAP1 PUSH2 0x23DA JUMP JUMPDEST POP CALLER PUSH20 0xFFFFFFFFFFFFFFFFFFFFFFFFFFFFFFFFFFFFFFFF AND PUSH32 0xD2B1037DAE85880A8B3DA140FDF093C0A4B7F0DCA733773CFEC6804C2A903BF5 DUP6 DUP6 PUSH1 0x40 MLOAD PUSH2 0x7DB SWAP3 SWAP2 SWAP1 PUSH2 0x2405 JUMP JUMPDEST PUSH1 0x40 MLOAD DUP1 SWAP2 SUB SWAP1 LOG2 POP POP PUSH2 0x7ED PUSH2 0x1145 JUMP JUMPDEST POP POP JUMP JUMPDEST PUSH2 0x7F9 PUSH2 0xF4D JUMP JUMPDEST PUSH0 PUSH1 0x5 PUSH0 CALLER PUSH20 0xFFFFFFFFFFFFFFFFFFFFFFFFFFFFFFFFFFFFFFFF AND PUSH20 0xFFFFFFFFFFFFFFFFFFFFFFFFFFFFFFFFFFFFFFFF AND DUP2 MSTORE PUSH1 0x20 ADD SWAP1 DUP2 MSTORE PUSH1 0x20 ADD PUSH0 KECCAK256 SWAP1 POP DUP2 DUP2 PUSH0 ADD SLOAD LT ISZERO PUSH2 0x87F JUMPI PUSH1 0x40 MLOAD PUSH32 0x8C379A000000000000000000000000000000000000000000000000000000000 DUP2 MSTORE PUSH1 0x4 ADD PUSH2 0x876 SWAP1 PUSH2 0x2476 JUMP JUMPDEST PUSH1 0x40 MLOAD DUP1 SWAP2 SUB SWAP1 REVERT JUMPDEST PUSH0 PUSH0 SWAP1 POP PUSH3 0x42CC0 DUP3 PUSH1 0x1 ADD SLOAD PUSH2 0x896 SWAP2 SWAP1 PUSH2 0x236C JUMP JUMPDEST TIMESTAMP LT ISZERO PUSH2 0x8BA JUMPI PUSH2 0x2710 PUSH1 0x64 DUP5 PUSH2 0x8AD SWAP2 SWAP1 PUSH2 0x2494 JUMP JUMPDEST PUSH2 0x8B7 SWAP2 SWAP1 PUSH2 0x2502 JUMP JUMPDEST SWAP1 POP JUMPDEST PUSH0 DUP2 DUP5 PUSH2 0x8C7 SWAP2 SWAP1 PUSH2 0x2532 JUMP JUMPDEST SWAP1 POP PUSH1 0x1 PUSH0 SWAP1 SLOAD SWAP1 PUSH2 0x100 EXP SWAP1 DIV PUSH20 0xFFFFFFFFFFFFFFFFFFFFFFFFFFFFFFFFFFFFFFFF AND PUSH20 0xFFFFFFFFFFFFFFFFFFFFFFFFFFFFFFFFFFFFFFFF AND PUSH4 0xB460AF94 DUP6 ADDRESS ADDRESS PUSH1 0x40 MLOAD DUP5 PUSH4 0xFFFFFFFF AND PUSH1 0xE0 SHL DUP2 MSTORE PUSH1 0x4 ADD PUSH2 0x927 SWAP4 SWAP3 SWAP2 SWAP1 PUSH2 0x2565 JUMP JUMPDEST PUSH1 0x20 PUSH1 0x40 MLOAD DUP1 DUP4 SUB DUP2 PUSH0 DUP8 GAS CALL ISZERO DUP1 ISZERO PUSH2 0x943 JUMPI RETURNDATASIZE PUSH0 PUSH0 RETURNDATACOPY RETURNDATASIZE PUSH0 REVERT JUMPDEST POP POP POP POP PUSH1 0x40 MLOAD RETURNDATASIZE PUSH1 0x1F NOT PUSH1 0x1F DUP3 ADD AND DUP3 ADD DUP1 PUSH1 0x40 MSTORE POP DUP2 ADD SWAP1 PUSH2 0x967 SWAP2 SWAP1 PUSH2 0x23DA JUMP JUMPDEST POP PUSH2 0x9B3 CALLER DUP3 PUSH0 PUSH0 SWAP1 SLOAD SWAP1 PUSH2 0x100 EXP SWAP1 DIV PUSH20 0xFFFFFFFFFFFFFFFFFFFFFFFFFFFFFFFFFFFFFFFF AND PUSH20 0xFFFFFFFFFFFFFFFFFFFFFFFFFFFFFFFFFFFFFFFF AND PUSH2 0x115C SWAP1 SWAP3 SWAP2 SWAP1 PUSH4 0xFFFFFFFF AND JUMP JUMPDEST DUP4 DUP4 PUSH0 ADD PUSH0 DUP3 DUP3 SLOAD PUSH2 0x9C5 SWAP2 SWAP1 PUSH2 0x2532 JUMP JUMPDEST SWAP3 POP POP DUP2 SWAP1 SSTORE POP CALLER PUSH20 0xFFFFFFFFFFFFFFFFFFFFFFFFFFFFFFFFFFFFFFFF AND PUSH32 0x92CCF450A286A957AF52509BC1C9939D1A6A481783E142E41E2499F0BB66EBC6 DUP6 DUP5 PUSH1 0x40 MLOAD PUSH2 0xA14 SWAP3 SWAP2 SWAP1 PUSH2 0x2405 JUMP JUMPDEST PUSH1 0x40 MLOAD DUP1 SWAP2 SUB SWAP1 LOG2 POP POP POP PUSH2 0xA27 PUSH2 0x1145 JUMP JUMPDEST POP JUMP JUMPDEST PUSH0 PUSH2 0xA33 PUSH2 0x11E2 JUMP JUMPDEST SWAP1 POP PUSH0 DUP2 PUSH0 ADD PUSH1 0x8 SWAP1 SLOAD SWAP1 PUSH2 0x100 EXP SWAP1 DIV PUSH1 0xFF AND ISZERO SWAP1 POP PUSH0 DUP3 PUSH0 ADD PUSH0 SWAP1 SLOAD SWAP1 PUSH2 0x100 EXP SWAP1 DIV PUSH8 0xFFFFFFFFFFFFFFFF AND SWAP1 POP PUSH0 PUSH0 DUP3 PUSH8 0xFFFFFFFFFFFFFFFF AND EQ DUP1 ISZERO PUSH2 0xA7B JUMPI POP DUP3 JUMPDEST SWAP1 POP PUSH0 PUSH1 0x1 DUP4 PUSH8 0xFFFFFFFFFFFFFFFF AND EQ DUP1 ISZERO PUSH2 0xAAE JUMPI POP PUSH0 ADDRESS PUSH20 0xFFFFFFFFFFFFFFFFFFFFFFFFFFFFFFFFFFFFFFFF AND EXTCODESIZE EQ JUMPDEST SWAP1 POP DUP2 ISZERO DUP1 ISZERO PUSH2 0xABC JUMPI POP DUP1 ISZERO JUMPDEST ISZERO PUSH2 0xAF3 JUMPI PUSH1 0x40 MLOAD PUSH32 0xF92EE8A900000000000000000000000000000000000000000000000000000000 DUP2 MSTORE PUSH1 0x4 ADD PUSH1 0x40 MLOAD DUP1 SWAP2 SUB SWAP1 REVERT JUMPDEST PUSH1 0x1 DUP6 PUSH0 ADD PUSH0 PUSH2 0x100 EXP DUP2 SLOAD DUP2 PUSH8 0xFFFFFFFFFFFFFFFF MUL NOT AND SWAP1 DUP4 PUSH8 0xFFFFFFFFFFFFFFFF AND MUL OR SWAP1 SSTORE POP DUP4 ISZERO PUSH2 0xB40 JUMPI PUSH1 0x1 DUP6 PUSH0 ADD PUSH1 0x8 PUSH2 0x100 EXP DUP2 SLOAD DUP2 PUSH1 0xFF MUL NOT AND SWAP1 DUP4 ISZERO ISZERO MUL OR SWAP1 SSTORE POP JUMPDEST PUSH2 0xB49 CALLER PUSH2 0x11F5 JUMP JUMPDEST PUSH2 0xB51 PUSH2 0x1209 JUMP JUMPDEST PUSH2 0xB59 PUSH2 0x121B JUMP JUMPDEST DUP7 PUSH0 PUSH0 PUSH2 0x100 EXP DUP2 SLOAD DUP2 PUSH20 0xFFFFFFFFFFFFFFFFFFFFFFFFFFFFFFFFFFFFFFFF MUL NOT AND SWAP1 DUP4 PUSH20 0xFFFFFFFFFFFFFFFFFFFFFFFFFFFFFFFFFFFFFFFF AND MUL OR SWAP1 SSTORE POP DUP6 PUSH1 0x1 PUSH0 PUSH2 0x100 EXP DUP2 SLOAD DUP2 PUSH20 0xFFFFFFFFFFFFFFFFFFFFFFFFFFFFFFFFFFFFFFFF MUL NOT AND SWAP1 DUP4 PUSH20 0xFFFFFFFFFFFFFFFFFFFFFFFFFFFFFFFFFFFFFFFF AND MUL OR SWAP1 SSTORE POP PUSH2 0x3E8 PUSH1 0x2 DUP2 SWAP1 SSTORE POP DUP4 ISZERO PUSH2 0xC3B JUMPI PUSH0 DUP6 PUSH0 ADD PUSH1 0x8 PUSH2 0x100 EXP DUP2 SLOAD DUP2 PUSH1 0xFF MUL NOT AND SWAP1 DUP4 ISZERO ISZERO MUL OR SWAP1 SSTORE POP PUSH32 0xC7F505B2F371AE2175EE4913F4499E1F2633A7B5936321EED1CDAEB6115181D2 PUSH1 0x1 PUSH1 0x40 MLOAD PUSH2 0xC32 SWAP2 SWAP1 PUSH2 0x25E6 JUMP JUMPDEST PUSH1 0x40 MLOAD DUP1 SWAP2 SUB SWAP1 LOG1 JUMPDEST POP POP POP POP POP POP POP JUMP JUMPDEST PUSH2 0xC4C PUSH2 0x1225 JUMP JUMPDEST PUSH2 0xC55 DUP3 PUSH2 0x130B JUMP JUMPDEST PUSH2 0xC5F DUP3 DUP3 PUSH2 0x1316 JUMP JUMPDEST POP POP JUMP JUMPDEST PUSH0 PUSH2 0xC6C PUSH2 0x1434 JUMP JUMPDEST PUSH32 0x360894A13BA1A3210667C828492DB98DCA3E2076CC3735A920A3CA505D382BBC PUSH0 SHL SWAP1 POP SWAP1 JUMP JUMPDEST PUSH2 0xC9C PUSH2 0x14BB JUMP JUMPDEST PUSH2 0xCA5 PUSH0 PUSH2 0x1542 JUMP JUMPDEST JUMP JUMPDEST PUSH0 PUSH1 0x4 PUSH0 CALLER PUSH20 0xFFFFFFFFFFFFFFFFFFFFFFFFFFFFFFFFFFFFFFFF AND PUSH20 0xFFFFFFFFFFFFFFFFFFFFFFFFFFFFFFFFFFFFFFFF AND DUP2 MSTORE PUSH1 0x20 ADD SWAP1 DUP2 MSTORE PUSH1 0x20 ADD PUSH0 KECCAK256 SLOAD EQ PUSH2 0xD26 JUMPI PUSH1 0x40 MLOAD PUSH32 0x8C379A000000000000000000000000000000000000000000000000000000000 DUP2 MSTORE PUSH1 0x4 ADD PUSH2 0xD1D SWAP1 PUSH2 0x2649 JUMP JUMPDEST PUSH1 0x40 MLOAD DUP1 SWAP2 SUB SWAP1 REVERT JUMPDEST PUSH0 PUSH1 0x2 SLOAD SWAP1 POP CALLER PUSH1 0x3 PUSH0 DUP4 DUP2 MSTORE PUSH1 0x20 ADD SWAP1 DUP2 MSTORE PUSH1 0x20 ADD PUSH0 KECCAK256 PUSH0 PUSH2 0x100 EXP DUP2 SLOAD DUP2 PUSH20 0xFFFFFFFFFFFFFFFFFFFFFFFFFFFFFFFFFFFFFFFF MUL NOT AND SWAP1 DUP4 PUSH20 0xFFFFFFFFFFFFFFFFFFFFFFFFFFFFFFFFFFFFFFFF AND MUL OR SWAP1 SSTORE POP DUP1 PUSH1 0x4 PUSH0 CALLER PUSH20 0xFFFFFFFFFFFFFFFFFFFFFFFFFFFFFFFFFFFFFFFF AND PUSH20 0xFFFFFFFFFFFFFFFFFFFFFFFFFFFFFFFFFFFFFFFF AND DUP2 MSTORE PUSH1 0x20 ADD SWAP1 DUP2 MSTORE PUSH1 0x20 ADD PUSH0 KECCAK256 DUP2 SWAP1 SSTORE POP PUSH1 0x2 PUSH0 DUP2 SLOAD DUP1 SWAP3 SWAP2 SWAP1 PUSH2 0xDCF SWAP1 PUSH2 0x2667 JUMP JUMPDEST SWAP2 SWAP1 POP SSTORE POP DUP1 CALLER PUSH20 0xFFFFFFFFFFFFFFFFFFFFFFFFFFFFFFFFFFFFFFFF AND PUSH32 0x5ECE152EE1E9DD87770D07505DDD04D9139849B716D01B7C715E946F8538E462 PUSH1 0x40 MLOAD PUSH1 0x40 MLOAD DUP1 SWAP2 SUB SWAP1 LOG3 POP JUMP JUMPDEST PUSH0 PUSH0 PUSH2 0xE25 PUSH2 0x1613 JUMP JUMPDEST SWAP1 POP DUP1 PUSH0 ADD PUSH0 SWAP1 SLOAD SWAP1 PUSH2 0x100 EXP SWAP1 DIV PUSH20 0xFFFFFFFFFFFFFFFFFFFFFFFFFFFFFFFFFFFFFFFF AND SWAP2 POP POP SWAP1 JUMP JUMPDEST PUSH1 0x1 PUSH0 SWAP1 SLOAD SWAP1 PUSH2 0x100 EXP SWAP1 DIV PUSH20 0xFFFFFFFFFFFFFFFFFFFFFFFFFFFFFFFFFFFFFFFF AND DUP2 JUMP JUMPDEST PUSH1 0x2 SLOAD DUP2 JUMP JUMPDEST PUSH1 0x40 MLOAD DUP1 PUSH1 0x40 ADD PUSH1 0x40 MSTORE DUP1 PUSH1 0x5 DUP2 MSTORE PUSH1 0x20 ADD PUSH32 0x352E302E30000000000000000000000000000000000000000000000000000000 DUP2 MSTORE POP DUP2 JUMP JUMPDEST PUSH1 0x4 PUSH1 0x20 MSTORE DUP1 PUSH0 MSTORE PUSH1 0x40 PUSH0 KECCAK256 PUSH0 SWAP2 POP SWAP1 POP SLOAD DUP2 JUMP JUMPDEST PUSH2 0xED1 PUSH2 0x14BB JUMP JUMPDEST PUSH0 PUSH20 0xFFFFFFFFFFFFFFFFFFFFFFFFFFFFFFFFFFFFFFFF AND DUP2 PUSH20 0xFFFFFFFFFFFFFFFFFFFFFFFFFFFFFFFFFFFFFFFF AND SUB PUSH2 0xF41 JUMPI PUSH0 PUSH1 0x40 MLOAD PUSH32 0x1E4FBDF700000000000000000000000000000000000000000000000000000000 DUP2 MSTORE PUSH1 0x4 ADD PUSH2 0xF38 SWAP2 SWAP1 PUSH2 0x1FC2 JUMP JUMPDEST PUSH1 0x40 MLOAD DUP1 SWAP2 SUB SWAP1 REVERT JUMPDEST PUSH2 0xF4A DUP2 PUSH2 0x1542 JUMP JUMPDEST POP JUMP JUMPDEST PUSH0 PUSH2 0xF56 PUSH2 0x163A JUMP JUMPDEST SWAP1 POP PUSH1 0x2 DUP2 PUSH0 ADD SLOAD SUB PUSH2 0xF95 JUMPI PUSH1 0x40 MLOAD PUSH32 0x3EE5AEB500000000000000000000000000000000000000000000000000000000 DUP2 MSTORE PUSH1 0x4 ADD PUSH1 0x40 MLOAD DUP1 SWAP2 SUB SWAP1 REVERT JUMPDEST PUSH1 0x2 DUP2 PUSH0 ADD DUP2 SWAP1 SSTORE POP POP JUMP JUMPDEST PUSH2 0x1024 DUP5 PUSH4 0x23B872DD PUSH1 0xE0 SHL DUP6 DUP6 DUP6 PUSH1 0x40 MLOAD PUSH1 0x24 ADD PUSH2 0xFC2 SWAP4 SWAP3 SWAP2 SWAP1 PUSH2 0x26AE JUMP JUMPDEST PUSH1 0x40 MLOAD PUSH1 0x20 DUP2 DUP4 SUB SUB DUP2 MSTORE SWAP1 PUSH1 0x40 MSTORE SWAP1 PUSH28 0xFFFFFFFFFFFFFFFFFFFFFFFFFFFFFFFFFFFFFFFFFFFFFFFFFFFFFFFF NOT AND PUSH1 0x20 DUP3 ADD DUP1 MLOAD PUSH28 0xFFFFFFFFFFFFFFFFFFFFFFFFFFFFFFFFFFFFFFFFFFFFFFFFFFFFFFFF DUP4 DUP2 DUP4 AND OR DUP4 MSTORE POP POP POP POP PUSH2 0x1661 JUMP JUMPDEST POP POP POP POP JUMP JUMPDEST PUSH0 PUSH4 0x95EA7B3 PUSH1 0xE0 SHL DUP4 DUP4 PUSH1 0x40 MLOAD PUSH1 0x24 ADD PUSH2 0x1046 SWAP3 SWAP2 SWAP1 PUSH2 0x26E3 JUMP JUMPDEST PUSH1 0x40 MLOAD PUSH1 0x20 DUP2 DUP4 SUB SUB DUP2 MSTORE SWAP1 PUSH1 0x40 MSTORE SWAP1 PUSH28 0xFFFFFFFFFFFFFFFFFFFFFFFFFFFFFFFFFFFFFFFFFFFFFFFFFFFFFFFF NOT AND PUSH1 0x20 DUP3 ADD DUP1 MLOAD PUSH28 0xFFFFFFFFFFFFFFFFFFFFFFFFFFFFFFFFFFFFFFFFFFFFFFFFFFFFFFFF DUP4 DUP2 DUP4 AND OR DUP4 MSTORE POP POP POP POP SWAP1 POP PUSH2 0x10AF DUP5 DUP3 PUSH2 0x1727 JUMP JUMPDEST PUSH2 0x113F JUMPI PUSH2 0x1134 DUP5 PUSH4 0x95EA7B3 PUSH1 0xE0 SHL DUP6 PUSH0 PUSH1 0x40 MLOAD PUSH1 0x24 ADD PUSH2 0x10D2 SWAP3 SWAP2 SWAP1 PUSH2 0x274F JUMP JUMPDEST PUSH1 0x40 MLOAD PUSH1 0x20 DUP2 DUP4 SUB SUB DUP2 MSTORE SWAP1 PUSH1 0x40 MSTORE SWAP1 PUSH28 0xFFFFFFFFFFFFFFFFFFFFFFFFFFFFFFFFFFFFFFFFFFFFFFFFFFFFFFFF NOT AND PUSH1 0x20 DUP3 ADD DUP1 MLOAD PUSH28 0xFFFFFFFFFFFFFFFFFFFFFFFFFFFFFFFFFFFFFFFFFFFFFFFFFFFFFFFF DUP4 DUP2 DUP4 AND OR DUP4 MSTORE POP POP POP POP PUSH2 0x1661 JUMP JUMPDEST PUSH2 0x113E DUP5 DUP3 PUSH2 0x1661 JUMP JUMPDEST JUMPDEST POP POP POP POP JUMP JUMPDEST PUSH0 PUSH2 0x114E PUSH2 0x163A JUMP JUMPDEST SWAP1 POP PUSH1 0x1 DUP2 PUSH0 ADD DUP2 SWAP1 SSTORE POP POP JUMP JUMPDEST PUSH2 0x11DD DUP4 PUSH4 0xA9059CBB PUSH1 0xE0 SHL DUP5 DUP5 PUSH1 0x40 MLOAD PUSH1 0x24 ADD PUSH2 0x117B SWAP3 SWAP2 SWAP1 PUSH2 0x26E3 JUMP JUMPDEST PUSH1 0x40 MLOAD PUSH1 0x20 DUP2 DUP4 SUB SUB DUP2 MSTORE SWAP1 PUSH1 0x40 MSTORE SWAP1 PUSH28 0xFFFFFFFFFFFFFFFFFFFFFFFFFFFFFFFFFFFFFFFFFFFFFFFFFFFFFFFF NOT AND PUSH1 0x20 DUP3 ADD DUP1 MLOAD PUSH28 0xFFFFFFFFFFFFFFFFFFFFFFFFFFFFFFFFFFFFFFFFFFFFFFFFFFFFFFFF DUP4 DUP2 DUP4 AND OR DUP4 MSTORE POP POP POP POP PUSH2 0x1661 JUMP JUMPDEST POP POP POP JUMP JUMPDEST PUSH0 PUSH0 PUSH2 0x11EC PUSH2 0x17D5 JUMP JUMPDEST SWAP1 POP DUP1 SWAP2 POP POP SWAP1 JUMP JUMPDEST PUSH2 0x11FD PUSH2 0x17FE JUMP JUMPDEST PUSH2 0x1206 DUP2 PUSH2 0x183E JUMP JUMPDEST POP JUMP JUMPDEST PUSH2 0x1211 PUSH2 0x17FE JUMP JUMPDEST PUSH2 0x1219 PUSH2 0x18C2 JUMP JUMPDEST JUMP JUMPDEST PUSH2 0x1223 PUSH2 0x17FE JUMP JUMPDEST JUMP JUMPDEST PUSH32 0x0 PUSH20 0xFFFFFFFFFFFFFFFFFFFFFFFFFFFFFFFFFFFFFFFF AND ADDRESS PUSH20 0xFFFFFFFFFFFFFFFFFFFFFFFFFFFFFFFFFFFFFFFF AND EQ DUP1 PUSH2 0x12D2 JUMPI POP PUSH32 0x0 PUSH20 0xFFFFFFFFFFFFFFFFFFFFFFFFFFFFFFFFFFFFFFFF AND PUSH2 0x12B9 PUSH2 0x18E1 JUMP JUMPDEST PUSH20 0xFFFFFFFFFFFFFFFFFFFFFFFFFFFFFFFFFFFFFFFF AND EQ ISZERO JUMPDEST ISZERO PUSH2 0x1309 JUMPI PUSH1 0x40 MLOAD PUSH32 0xE07C8DBA00000000000000000000000000000000000000000000000000000000 DUP2 MSTORE PUSH1 0x4 ADD PUSH1 0x40 MLOAD DUP1 SWAP2 SUB SWAP1 REVERT JUMPDEST JUMP JUMPDEST PUSH2 0x1313 PUSH2 0x14BB JUMP JUMPDEST POP JUMP JUMPDEST DUP2 PUSH20 0xFFFFFFFFFFFFFFFFFFFFFFFFFFFFFFFFFFFFFFFF AND PUSH4 0x52D1902D PUSH1 0x40 MLOAD DUP2 PUSH4 0xFFFFFFFF AND PUSH1 0xE0 SHL DUP2 MSTORE PUSH1 0x4 ADD PUSH1 0x20 PUSH1 0x40 MLOAD DUP1 DUP4 SUB DUP2 DUP7 GAS STATICCALL SWAP3 POP POP POP DUP1 ISZERO PUSH2 0x137E JUMPI POP PUSH1 0x40 MLOAD RETURNDATASIZE PUSH1 0x1F NOT PUSH1 0x1F DUP3 ADD AND DUP3 ADD DUP1 PUSH1 0x40 MSTORE POP DUP2 ADD SWAP1 PUSH2 0x137B SWAP2 SWAP1 PUSH2 0x27A0 JUMP JUMPDEST PUSH1 0x1 JUMPDEST PUSH2 0x13BF JUMPI DUP2 PUSH1 0x40 MLOAD PUSH32 0x4C9C8CE300000000000000000000000000000000000000000000000000000000 DUP2 MSTORE PUSH1 0x4 ADD PUSH2 0x13B6 SWAP2 SWAP1 PUSH2 0x1FC2 JUMP JUMPDEST PUSH1 0x40 MLOAD DUP1 SWAP2 SUB SWAP1 REVERT JUMPDEST PUSH32 0x360894A13BA1A3210667C828492DB98DCA3E2076CC3735A920A3CA505D382BBC PUSH0 SHL DUP2 EQ PUSH2 0x1425 JUMPI DUP1 PUSH1 0x40 MLOAD PUSH32 0xAA1D49A400000000000000000000000000000000000000000000000000000000 DUP2 MSTORE PUSH1 0x4 ADD PUSH2 0x141C SWAP2 SWAP1 PUSH2 0x2205 JUMP JUMPDEST PUSH1 0x40 MLOAD DUP1 SWAP2 SUB SWAP1 REVERT JUMPDEST PUSH2 0x142F DUP4 DUP4 PUSH2 0x1934 JUMP JUMPDEST POP POP POP JUMP JUMPDEST PUSH32 0x0 PUSH20 0xFFFFFFFFFFFFFFFFFFFFFFFFFFFFFFFFFFFFFFFF AND ADDRESS PUSH20 0xFFFFFFFFFFFFFFFFFFFFFFFFFFFFFFFFFFFFFFFF AND EQ PUSH2 0x14B9 JUMPI PUSH1 0x40 MLOAD PUSH32 0xE07C8DBA00000000000000000000000000000000000000000000000000000000 DUP2 MSTORE PUSH1 0x4 ADD PUSH1 0x40 MLOAD DUP1 SWAP2 SUB SWAP1 REVERT JUMPDEST JUMP JUMPDEST PUSH2 0x14C3 PUSH2 0x19A6 JUMP JUMPDEST PUSH20 0xFFFFFFFFFFFFFFFFFFFFFFFFFFFFFFFFFFFFFFFF AND PUSH2 0x14E1 PUSH2 0xE1B JUMP JUMPDEST PUSH20 0xFFFFFFFFFFFFFFFFFFFFFFFFFFFFFFFFFFFFFFFF AND EQ PUSH2 0x1540 JUMPI PUSH2 0x1504 PUSH2 0x19A6 JUMP JUMPDEST PUSH1 0x40 MLOAD PUSH32 0x118CDAA700000000000000000000000000000000000000000000000000000000 DUP2 MSTORE PUSH1 0x4 ADD PUSH2 0x1537 SWAP2 SWAP1 PUSH2 0x1FC2 JUMP JUMPDEST PUSH1 0x40 MLOAD DUP1 SWAP2 SUB SWAP1 REVERT JUMPDEST JUMP JUMPDEST PUSH0 PUSH2 0x154B PUSH2 0x1613 JUMP JUMPDEST SWAP1 POP PUSH0 DUP2 PUSH0 ADD PUSH0 SWAP1 SLOAD SWAP1 PUSH2 0x100 EXP SWAP1 DIV PUSH20 0xFFFFFFFFFFFFFFFFFFFFFFFFFFFFFFFFFFFFFFFF AND SWAP1 POP DUP3 DUP3 PUSH0 ADD PUSH0 PUSH2 0x100 EXP DUP2 SLOAD DUP2 PUSH20 0xFFFFFFFFFFFFFFFFFFFFFFFFFFFFFFFFFFFFFFFF MUL NOT AND SWAP1 DUP4 PUSH20 0xFFFFFFFFFFFFFFFFFFFFFFFFFFFFFFFFFFFFFFFF AND MUL OR SWAP1 SSTORE POP DUP3 PUSH20 0xFFFFFFFFFFFFFFFFFFFFFFFFFFFFFFFFFFFFFFFF AND DUP2 PUSH20 0xFFFFFFFFFFFFFFFFFFFFFFFFFFFFFFFFFFFFFFFF AND PUSH32 0x8BE0079C531659141344CD1FD0A4F28419497F9722A3DAAFE3B4186F6B6457E0 PUSH1 0x40 MLOAD PUSH1 0x40 MLOAD DUP1 SWAP2 SUB SWAP1 LOG3 POP POP POP JUMP JUMPDEST PUSH0 PUSH32 0x9016D09D72D40FDAE2FD8CEAC6B6234C7706214FD39C1CD1E609A0528C199300 SWAP1 POP SWAP1 JUMP JUMPDEST PUSH0 PUSH32 0x9B779B17422D0DF92223018B32B4D1FA46E071723D6817E2486D003BECC55F00 SWAP1 POP SWAP1 JUMP JUMPDEST PUSH0 PUSH2 0x16C2 DUP3 PUSH1 0x40 MLOAD DUP1 PUSH1 0x40 ADD PUSH1 0x40 MSTORE DUP1 PUSH1 0x20 DUP2 MSTORE PUSH1 0x20 ADD PUSH32 0x5361666545524332303A206C6F772D6C6576656C2063616C6C206661696C6564 DUP2 MSTORE POP DUP6 PUSH20 0xFFFFFFFFFFFFFFFFFFFFFFFFFFFFFFFFFFFFFFFF AND PUSH2 0x19AD SWAP1 SWAP3 SWAP2 SWAP1 PUSH4 0xFFFFFFFF AND JUMP JUMPDEST SWAP1 POP PUSH0 DUP2 MLOAD EQ DUP1 PUSH2 0x16E3 JUMPI POP DUP1 DUP1 PUSH1 0x20 ADD SWAP1 MLOAD DUP2 ADD SWAP1 PUSH2 0x16E2 SWAP2 SWAP1 PUSH2 0x2800 JUMP JUMPDEST JUMPDEST PUSH2 0x1722 JUMPI PUSH1 0x40 MLOAD PUSH32 0x8C379A000000000000000000000000000000000000000000000000000000000 DUP2 MSTORE PUSH1 0x4 ADD PUSH2 0x1719 SWAP1 PUSH2 0x289B JUMP JUMPDEST PUSH1 0x40 MLOAD DUP1 SWAP2 SUB SWAP1 REVERT JUMPDEST POP POP POP JUMP JUMPDEST PUSH0 PUSH0 PUSH0 DUP5 PUSH20 0xFFFFFFFFFFFFFFFFFFFFFFFFFFFFFFFFFFFFFFFF AND DUP5 PUSH1 0x40 MLOAD PUSH2 0x174F SWAP2 SWAP1 PUSH2 0x28FD JUMP JUMPDEST PUSH0 PUSH1 0x40 MLOAD DUP1 DUP4 SUB DUP2 PUSH0 DUP7 GAS CALL SWAP2 POP POP RETURNDATASIZE DUP1 PUSH0 DUP2 EQ PUSH2 0x1788 JUMPI PUSH1 0x40 MLOAD SWAP2 POP PUSH1 0x1F NOT PUSH1 0x3F RETURNDATASIZE ADD AND DUP3 ADD PUSH1 0x40 MSTORE RETURNDATASIZE DUP3 MSTORE RETURNDATASIZE PUSH0 PUSH1 0x20 DUP5 ADD RETURNDATACOPY PUSH2 0x178D JUMP JUMPDEST PUSH1 0x60 SWAP2 POP JUMPDEST POP SWAP2 POP SWAP2 POP DUP2 DUP1 ISZERO PUSH2 0x17BA JUMPI POP PUSH0 DUP2 MLOAD EQ DUP1 PUSH2 0x17B9 JUMPI POP DUP1 DUP1 PUSH1 0x20 ADD SWAP1 MLOAD DUP2 ADD SWAP1 PUSH2 0x17B8 SWAP2 SWAP1 PUSH2 0x2800 JUMP JUMPDEST JUMPDEST JUMPDEST DUP1 ISZERO PUSH2 0x17CB JUMPI POP PUSH2 0x17CA DUP6 PUSH2 0x19C4 JUMP JUMPDEST JUMPDEST SWAP3 POP POP POP SWAP3 SWAP2 POP POP JUMP JUMPDEST PUSH0 PUSH32 0xF0C57E16840DF040F15088DC2F81FE391C3923BEC73E23A9662EFC9C229C6A00 PUSH0 SHL SWAP1 POP SWAP1 JUMP JUMPDEST PUSH2 0x1806 PUSH2 0x19E6 JUMP JUMPDEST PUSH2 0x183C JUMPI PUSH1 0x40 MLOAD PUSH32 0xD7E6BCF800000000000000000000000000000000000000000000000000000000 DUP2 MSTORE PUSH1 0x4 ADD PUSH1 0x40 MLOAD DUP1 SWAP2 SUB SWAP1 REVERT JUMPDEST JUMP JUMPDEST PUSH2 0x1846 PUSH2 0x17FE JUMP JUMPDEST PUSH0 PUSH20 0xFFFFFFFFFFFFFFFFFFFFFFFFFFFFFFFFFFFFFFFF AND DUP2 PUSH20 0xFFFFFFFFFFFFFFFFFFFFFFFFFFFFFFFFFFFFFFFF AND SUB PUSH2 0x18B6 JUMPI PUSH0 PUSH1 0x40 MLOAD PUSH32 0x1E4FBDF700000000000000000000000000000000000000000000000000000000 DUP2 MSTORE PUSH1 0x4 ADD PUSH2 0x18AD SWAP2 SWAP1 PUSH2 0x1FC2 JUMP JUMPDEST PUSH1 0x40 MLOAD DUP1 SWAP2 SUB SWAP1 REVERT JUMPDEST PUSH2 0x18BF DUP2 PUSH2 0x1542 JUMP JUMPDEST POP JUMP JUMPDEST PUSH2 0x18CA PUSH2 0x17FE JUMP JUMPDEST PUSH0 PUSH2 0x18D3 PUSH2 0x163A JUMP JUMPDEST SWAP1 POP PUSH1 0x1 DUP2 PUSH0 ADD DUP2 SWAP1 SSTORE POP POP JUMP JUMPDEST PUSH0 PUSH2 0x190D PUSH32 0x360894A13BA1A3210667C828492DB98DCA3E2076CC3735A920A3CA505D382BBC PUSH0 SHL PUSH2 0x1A04 JUMP JUMPDEST PUSH0 ADD PUSH0 SWAP1 SLOAD SWAP1 PUSH2 0x100 EXP SWAP1 DIV PUSH20 0xFFFFFFFFFFFFFFFFFFFFFFFFFFFFFFFFFFFFFFFF AND SWAP1 POP SWAP1 JUMP JUMPDEST PUSH2 0x193D DUP3 PUSH2 0x1A0D JUMP JUMPDEST DUP2 PUSH20 0xFFFFFFFFFFFFFFFFFFFFFFFFFFFFFFFFFFFFFFFF AND PUSH32 0xBC7CD75A20EE27FD9ADEBAB32041F755214DBC6BFFA90CC0225B39DA2E5C2D3B PUSH1 0x40 MLOAD PUSH1 0x40 MLOAD DUP1 SWAP2 SUB SWAP1 LOG2 PUSH0 DUP2 MLOAD GT ISZERO PUSH2 0x1999 JUMPI PUSH2 0x1993 DUP3 DUP3 PUSH2 0x1AD6 JUMP JUMPDEST POP PUSH2 0x19A2 JUMP JUMPDEST PUSH2 0x19A1 PUSH2 0x1B56 JUMP JUMPDEST JUMPDEST POP POP JUMP JUMPDEST PUSH0 CALLER SWAP1 POP SWAP1 JUMP JUMPDEST PUSH1 0x60 PUSH2 0x19BB DUP5 DUP5 PUSH0 DUP6 PUSH2 0x1B92 JUMP JUMPDEST SWAP1 POP SWAP4 SWAP3 POP POP POP JUMP JUMPDEST PUSH0 PUSH0 DUP3 PUSH20 0xFFFFFFFFFFFFFFFFFFFFFFFFFFFFFFFFFFFFFFFF AND EXTCODESIZE GT SWAP1 POP SWAP2 SWAP1 POP JUMP JUMPDEST PUSH0 PUSH2 0x19EF PUSH2 0x11E2 JUMP JUMPDEST PUSH0 ADD PUSH1 0x8 SWAP1 SLOAD SWAP1 PUSH2 0x100 EXP SWAP1 DIV PUSH1 0xFF AND SWAP1 POP SWAP1 JUMP JUMPDEST PUSH0 DUP2 SWAP1 POP SWAP2 SWAP1 POP JUMP JUMPDEST PUSH0 DUP2 PUSH20 0xFFFFFFFFFFFFFFFFFFFFFFFFFFFFFFFFFFFFFFFF AND EXTCODESIZE SUB PUSH2 0x1A68 JUMPI DUP1 PUSH1 0x40 MLOAD PUSH32 0x4C9C8CE300000000000000000000000000000000000000000000000000000000 DUP2 MSTORE PUSH1 0x4 ADD PUSH2 0x1A5F SWAP2 SWAP1 PUSH2 0x1FC2 JUMP JUMPDEST PUSH1 0x40 MLOAD DUP1 SWAP2 SUB SWAP1 REVERT JUMPDEST DUP1 PUSH2 0x1A94 PUSH32 0x360894A13BA1A3210667C828492DB98DCA3E2076CC3735A920A3CA505D382BBC PUSH0 SHL PUSH2 0x1A04 JUMP JUMPDEST PUSH0 ADD PUSH0 PUSH2 0x100 EXP DUP2 SLOAD DUP2 PUSH20 0xFFFFFFFFFFFFFFFFFFFFFFFFFFFFFFFFFFFFFFFF MUL NOT AND SWAP1 DUP4 PUSH20 0xFFFFFFFFFFFFFFFFFFFFFFFFFFFFFFFFFFFFFFFF AND MUL OR SWAP1 SSTORE POP POP JUMP JUMPDEST PUSH1 0x60 PUSH0 PUSH0 DUP5 PUSH20 0xFFFFFFFFFFFFFFFFFFFFFFFFFFFFFFFFFFFFFFFF AND DUP5 PUSH1 0x40 MLOAD PUSH2 0x1AFF SWAP2 SWAP1 PUSH2 0x28FD JUMP JUMPDEST PUSH0 PUSH1 0x40 MLOAD DUP1 DUP4 SUB DUP2 DUP6 GAS DELEGATECALL SWAP2 POP POP RETURNDATASIZE DUP1 PUSH0 DUP2 EQ PUSH2 0x1B37 JUMPI PUSH1 0x40 MLOAD SWAP2 POP PUSH1 0x1F NOT PUSH1 0x3F RETURNDATASIZE ADD AND DUP3 ADD PUSH1 0x40 MSTORE RETURNDATASIZE DUP3 MSTORE RETURNDATASIZE PUSH0 PUSH1 0x20 DUP5 ADD RETURNDATACOPY PUSH2 0x1B3C JUMP JUMPDEST PUSH1 0x60 SWAP2 POP JUMPDEST POP SWAP2 POP SWAP2 POP PUSH2 0x1B4C DUP6 DUP4 DUP4 PUSH2 0x1C5B JUMP JUMPDEST SWAP3 POP POP POP SWAP3 SWAP2 POP POP JUMP JUMPDEST PUSH0 CALLVALUE GT ISZERO PUSH2 0x1B90 JUMPI PUSH1 0x40 MLOAD PUSH32 0xB398979F00000000000000000000000000000000000000000000000000000000 DUP2 MSTORE PUSH1 0x4 ADD PUSH1 0x40 MLOAD DUP1 SWAP2 SUB SWAP1 REVERT JUMPDEST JUMP JUMPDEST PUSH1 0x60 DUP3 SELFBALANCE LT ISZERO PUSH2 0x1BD7 JUMPI PUSH1 0x40 MLOAD PUSH32 0x8C379A000000000000000000000000000000000000000000000000000000000 DUP2 MSTORE PUSH1 0x4 ADD PUSH2 0x1BCE SWAP1 PUSH2 0x2983 JUMP JUMPDEST PUSH1 0x40 MLOAD DUP1 SWAP2 SUB SWAP1 REVERT JUMPDEST PUSH0 PUSH0 DUP7 PUSH20 0xFFFFFFFFFFFFFFFFFFFFFFFFFFFFFFFFFFFFFFFF AND DUP6 DUP8 PUSH1 0x40 MLOAD PUSH2 0x1BFF SWAP2 SWAP1 PUSH2 0x28FD JUMP JUMPDEST PUSH0 PUSH1 0x40 MLOAD DUP1 DUP4 SUB DUP2 DUP6 DUP8 GAS CALL SWAP3 POP POP POP RETURNDATASIZE DUP1 PUSH0 DUP2 EQ PUSH2 0x1C39 JUMPI PUSH1 0x40 MLOAD SWAP2 POP PUSH1 0x1F NOT PUSH1 0x3F RETURNDATASIZE ADD AND DUP3 ADD PUSH1 0x40 MSTORE RETURNDATASIZE DUP3 MSTORE RETURNDATASIZE PUSH0 PUSH1 0x20 DUP5 ADD RETURNDATACOPY PUSH2 0x1C3E JUMP JUMPDEST PUSH1 0x60 SWAP2 POP JUMPDEST POP SWAP2 POP SWAP2 POP PUSH2 0x1C4F DUP8 DUP4 DUP4 DUP8 PUSH2 0x1CE8 JUMP JUMPDEST SWAP3 POP POP POP SWAP5 SWAP4 POP POP POP POP JUMP JUMPDEST PUSH1 0x60 DUP3 PUSH2 0x1C70 JUMPI PUSH2 0x1C6B DUP3 PUSH2 0x1D5C JUMP JUMPDEST PUSH2 0x1CE0 JUMP JUMPDEST PUSH0 DUP3 MLOAD EQ DUP1 ISZERO PUSH2 0x1C96 JUMPI POP PUSH0 DUP5 PUSH20 0xFFFFFFFFFFFFFFFFFFFFFFFFFFFFFFFFFFFFFFFF AND EXTCODESIZE EQ JUMPDEST ISZERO PUSH2 0x1CD8 JUMPI DUP4 PUSH1 0x40 MLOAD PUSH32 0x9996B31500000000000000000000000000000000000000000000000000000000 DUP2 MSTORE PUSH1 0x4 ADD PUSH2 0x1CCF SWAP2 SWAP1 PUSH2 0x1FC2 JUMP JUMPDEST PUSH1 0x40 MLOAD DUP1 SWAP2 SUB SWAP1 REVERT JUMPDEST DUP2 SWAP1 POP PUSH2 0x1CE1 JUMP JUMPDEST JUMPDEST SWAP4 SWAP3 POP POP POP JUMP JUMPDEST PUSH1 0x60 DUP4 ISZERO PUSH2 0x1D49 JUMPI PUSH0 DUP4 MLOAD SUB PUSH2 0x1D41 JUMPI PUSH2 0x1D01 DUP6 PUSH2 0x19C4 JUMP JUMPDEST PUSH2 0x1D40 JUMPI PUSH1 0x40 MLOAD PUSH32 0x8C379A000000000000000000000000000000000000000000000000000000000 DUP2 MSTORE PUSH1 0x4 ADD PUSH2 0x1D37 SWAP1 PUSH2 0x29EB JUMP JUMPDEST PUSH1 0x40 MLOAD DUP1 SWAP2 SUB SWAP1 REVERT JUMPDEST JUMPDEST DUP3 SWAP1 POP PUSH2 0x1D54 JUMP JUMPDEST PUSH2 0x1D53 DUP4 DUP4 PUSH2 0x1D9F JUMP JUMPDEST JUMPDEST SWAP5 SWAP4 POP POP POP POP JUMP JUMPDEST PUSH0 DUP2 MLOAD GT ISZERO PUSH2 0x1D6D JUMPI DUP1 MLOAD PUSH1 0x20 DUP3 ADD REVERT JUMPDEST PUSH1 0x40 MLOAD PUSH32 0xD6BDA27500000000000000000000000000000000000000000000000000000000 DUP2 MSTORE PUSH1 0x4 ADD PUSH1 0x40 MLOAD DUP1 SWAP2 SUB SWAP1 REVERT JUMPDEST PUSH0 DUP3 MLOAD GT ISZERO PUSH2 0x1DB1 JUMPI DUP2 MLOAD DUP1 DUP4 PUSH1 0x20 ADD REVERT JUMPDEST DUP1 PUSH1 0x40 MLOAD PUSH32 0x8C379A000000000000000000000000000000000000000000000000000000000 DUP2 MSTORE PUSH1 0x4 ADD PUSH2 0x1DE5 SWAP2 SWAP1 PUSH2 0x22B7 JUMP JUMPDEST PUSH1 0x40 MLOAD DUP1 SWAP2 SUB SWAP1 REVERT JUMPDEST PUSH0 PUSH20 0xFFFFFFFFFFFFFFFFFFFFFFFFFFFFFFFFFFFFFFFF DUP3 AND SWAP1 POP SWAP2 SWAP1 POP JUMP JUMPDEST PUSH0 DUP2 SWAP1 POP SWAP2 SWAP1 POP JUMP JUMPDEST PUSH0 PUSH2 0x1E30 PUSH2 0x1E2B PUSH2 0x1E26 DUP5 PUSH2 0x1DEE JUMP JUMPDEST PUSH2 0x1E0D JUMP JUMPDEST PUSH2 0x1DEE JUMP JUMPDEST SWAP1 POP SWAP2 SWAP1 POP JUMP JUMPDEST PUSH0 PUSH2 0x1E41 DUP3 PUSH2 0x1E16 JUMP JUMPDEST SWAP1 POP SWAP2 SWAP1 POP JUMP JUMPDEST PUSH0 PUSH2 0x1E52 DUP3 PUSH2 0x1E37 JUMP JUMPDEST SWAP1 POP SWAP2 SWAP1 POP JUMP JUMPDEST PUSH2 0x1E62 DUP2 PUSH2 0x1E48 JUMP JUMPDEST DUP3 MSTORE POP POP JUMP JUMPDEST PUSH0 PUSH1 0x20 DUP3 ADD SWAP1 POP PUSH2 0x1E7B PUSH0 DUP4 ADD DUP5 PUSH2 0x1E59 JUMP JUMPDEST SWAP3 SWAP2 POP POP JUMP JUMPDEST PUSH0 PUSH1 0x40 MLOAD SWAP1 POP SWAP1 JUMP JUMPDEST PUSH0 PUSH0 REVERT JUMPDEST PUSH0 PUSH0 REVERT JUMPDEST PUSH0 PUSH2 0x1E9C DUP3 PUSH2 0x1DEE JUMP JUMPDEST SWAP1 POP SWAP2 SWAP1 POP JUMP JUMPDEST PUSH2 0x1EAC DUP2 PUSH2 0x1E92 JUMP JUMPDEST DUP2 EQ PUSH2 0x1EB6 JUMPI PUSH0 PUSH0 REVERT JUMPDEST POP JUMP JUMPDEST PUSH0 DUP2 CALLDATALOAD SWAP1 POP PUSH2 0x1EC7 DUP2 PUSH2 0x1EA3 JUMP JUMPDEST SWAP3 SWAP2 POP POP JUMP JUMPDEST PUSH0 PUSH1 0x20 DUP3 DUP5 SUB SLT ISZERO PUSH2 0x1EE2 JUMPI PUSH2 0x1EE1 PUSH2 0x1E8A JUMP JUMPDEST JUMPDEST PUSH0 PUSH2 0x1EEF DUP5 DUP3 DUP6 ADD PUSH2 0x1EB9 JUMP JUMPDEST SWAP2 POP POP SWAP3 SWAP2 POP POP JUMP JUMPDEST PUSH0 DUP2 SWAP1 POP SWAP2 SWAP1 POP JUMP JUMPDEST PUSH2 0x1F0A DUP2 PUSH2 0x1EF8 JUMP JUMPDEST DUP3 MSTORE POP POP JUMP JUMPDEST PUSH2 0x1F19 DUP2 PUSH2 0x1E92 JUMP JUMPDEST DUP3 MSTORE POP POP JUMP JUMPDEST PUSH0 PUSH1 0x60 DUP3 ADD SWAP1 POP PUSH2 0x1F32 PUSH0 DUP4 ADD DUP7 PUSH2 0x1F01 JUMP JUMPDEST PUSH2 0x1F3F PUSH1 0x20 DUP4 ADD DUP6 PUSH2 0x1F01 JUMP JUMPDEST PUSH2 0x1F4C PUSH1 0x40 DUP4 ADD DUP5 PUSH2 0x1F10 JUMP JUMPDEST SWAP5 SWAP4 POP POP POP POP JUMP JUMPDEST PUSH0 PUSH1 0x20 DUP3 ADD SWAP1 POP PUSH2 0x1F67 PUSH0 DUP4 ADD DUP5 PUSH2 0x1F01 JUMP JUMPDEST SWAP3 SWAP2 POP POP JUMP JUMPDEST PUSH2 0x1F76 DUP2 PUSH2 0x1EF8 JUMP JUMPDEST DUP2 EQ PUSH2 0x1F80 JUMPI PUSH0 PUSH0 REVERT JUMPDEST POP JUMP JUMPDEST PUSH0 DUP2 CALLDATALOAD SWAP1 POP PUSH2 0x1F91 DUP2 PUSH2 0x1F6D JUMP JUMPDEST SWAP3 SWAP2 POP POP JUMP JUMPDEST PUSH0 PUSH1 0x20 DUP3 DUP5 SUB SLT ISZERO PUSH2 0x1FAC JUMPI PUSH2 0x1FAB PUSH2 0x1E8A JUMP JUMPDEST JUMPDEST PUSH0 PUSH2 0x1FB9 DUP5 DUP3 DUP6 ADD PUSH2 0x1F83 JUMP JUMPDEST SWAP2 POP POP SWAP3 SWAP2 POP POP JUMP JUMPDEST PUSH0 PUSH1 0x20 DUP3 ADD SWAP1 POP PUSH2 0x1FD5 PUSH0 DUP4 ADD DUP5 PUSH2 0x1F10 JUMP JUMPDEST SWAP3 SWAP2 POP POP JUMP JUMPDEST PUSH0 PUSH0 PUSH1 0x40 DUP4 DUP6 SUB SLT ISZERO PUSH2 0x1FF1 JUMPI PUSH2 0x1FF0 PUSH2 0x1E8A JUMP JUMPDEST JUMPDEST PUSH0 PUSH2 0x1FFE DUP6 DUP3 DUP7 ADD PUSH2 0x1F83 JUMP JUMPDEST SWAP3 POP POP PUSH1 0x20 PUSH2 0x200F DUP6 DUP3 DUP7 ADD PUSH2 0x1F83 JUMP JUMPDEST SWAP2 POP POP SWAP3 POP SWAP3 SWAP1 POP JUMP JUMPDEST PUSH0 PUSH0 PUSH1 0x40 DUP4 DUP6 SUB SLT ISZERO PUSH2 0x202F JUMPI PUSH2 0x202E PUSH2 0x1E8A JUMP JUMPDEST JUMPDEST PUSH0 PUSH2 0x203C DUP6 DUP3 DUP7 ADD PUSH2 0x1EB9 JUMP JUMPDEST SWAP3 POP POP PUSH1 0x20 PUSH2 0x204D DUP6 DUP3 DUP7 ADD PUSH2 0x1EB9 JUMP JUMPDEST SWAP2 POP POP SWAP3 POP SWAP3 SWAP1 POP JUMP JUMPDEST PUSH0 PUSH0 REVERT JUMPDEST PUSH0 PUSH0 REVERT JUMPDEST PUSH0 PUSH1 0x1F NOT PUSH1 0x1F DUP4 ADD AND SWAP1 POP SWAP2 SWAP1 POP JUMP JUMPDEST PUSH32 0x4E487B7100000000000000000000000000000000000000000000000000000000 PUSH0 MSTORE PUSH1 0x41 PUSH1 0x4 MSTORE PUSH1 0x24 PUSH0 REVERT JUMPDEST PUSH2 0x20A5 DUP3 PUSH2 0x205F JUMP JUMPDEST DUP2 ADD DUP2 DUP2 LT PUSH8 0xFFFFFFFFFFFFFFFF DUP3 GT OR ISZERO PUSH2 0x20C4 JUMPI PUSH2 0x20C3 PUSH2 0x206F JUMP JUMPDEST JUMPDEST DUP1 PUSH1 0x40 MSTORE POP POP POP JUMP JUMPDEST PUSH0 PUSH2 0x20D6 PUSH2 0x1E81 JUMP JUMPDEST SWAP1 POP PUSH2 0x20E2 DUP3 DUP3 PUSH2 0x209C JUMP JUMPDEST SWAP2 SWAP1 POP JUMP JUMPDEST PUSH0 PUSH8 0xFFFFFFFFFFFFFFFF DUP3 GT ISZERO PUSH2 0x2101 JUMPI PUSH2 0x2100 PUSH2 0x206F JUMP JUMPDEST JUMPDEST PUSH2 0x210A DUP3 PUSH2 0x205F JUMP JUMPDEST SWAP1 POP PUSH1 0x20 DUP2 ADD SWAP1 POP SWAP2 SWAP1 POP JUMP JUMPDEST DUP3 DUP2 DUP4 CALLDATACOPY PUSH0 DUP4 DUP4 ADD MSTORE POP POP POP JUMP JUMPDEST PUSH0 PUSH2 0x2137 PUSH2 0x2132 DUP5 PUSH2 0x20E7 JUMP JUMPDEST PUSH2 0x20CD JUMP JUMPDEST SWAP1 POP DUP3 DUP2 MSTORE PUSH1 0x20 DUP2 ADD DUP5 DUP5 DUP5 ADD GT ISZERO PUSH2 0x2153 JUMPI PUSH2 0x2152 PUSH2 0x205B JUMP JUMPDEST JUMPDEST PUSH2 0x215E DUP5 DUP3 DUP6 PUSH2 0x2117 JUMP JUMPDEST POP SWAP4 SWAP3 POP POP POP JUMP JUMPDEST PUSH0 DUP3 PUSH1 0x1F DUP4 ADD SLT PUSH2 0x217A JUMPI PUSH2 0x2179 PUSH2 0x2057 JUMP JUMPDEST JUMPDEST DUP2 CALLDATALOAD PUSH2 0x218A DUP5 DUP3 PUSH1 0x20 DUP7 ADD PUSH2 0x2125 JUMP JUMPDEST SWAP2 POP POP SWAP3 SWAP2 POP POP JUMP JUMPDEST PUSH0 PUSH0 PUSH1 0x40 DUP4 DUP6 SUB SLT ISZERO PUSH2 0x21A9 JUMPI PUSH2 0x21A8 PUSH2 0x1E8A JUMP JUMPDEST JUMPDEST PUSH0 PUSH2 0x21B6 DUP6 DUP3 DUP7 ADD PUSH2 0x1EB9 JUMP JUMPDEST SWAP3 POP POP PUSH1 0x20 DUP4 ADD CALLDATALOAD PUSH8 0xFFFFFFFFFFFFFFFF DUP2 GT ISZERO PUSH2 0x21D7 JUMPI PUSH2 0x21D6 PUSH2 0x1E8E JUMP JUMPDEST JUMPDEST PUSH2 0x21E3 DUP6 DUP3 DUP7 ADD PUSH2 0x2166 JUMP JUMPDEST SWAP2 POP POP SWAP3 POP SWAP3 SWAP1 POP JUMP JUMPDEST PUSH0 DUP2 SWAP1 POP SWAP2 SWAP1 POP JUMP JUMPDEST PUSH2 0x21FF DUP2 PUSH2 0x21ED JUMP JUMPDEST DUP3 MSTORE POP POP JUMP JUMPDEST PUSH0 PUSH1 0x20 DUP3 ADD SWAP1 POP PUSH2 0x2218 PUSH0 DUP4 ADD DUP5 PUSH2 0x21F6 JUMP JUMPDEST SWAP3 SWAP2 POP POP JUMP JUMPDEST PUSH0 PUSH2 0x2228 DUP3 PUSH2 0x1E37 JUMP JUMPDEST SWAP1 POP SWAP2 SWAP1 POP JUMP JUMPDEST PUSH2 0x2238 DUP2 PUSH2 0x221E JUMP JUMPDEST DUP3 MSTORE POP POP JUMP JUMPDEST PUSH0 PUSH1 0x20 DUP3 ADD SWAP1 POP PUSH2 0x2251 PUSH0 DUP4 ADD DUP5 PUSH2 0x222F JUMP JUMPDEST SWAP3 SWAP2 POP POP JUMP JUMPDEST PUSH0 DUP2 MLOAD SWAP1 POP SWAP2 SWAP1 POP JUMP JUMPDEST PUSH0 DUP3 DUP3 MSTORE PUSH1 0x20 DUP3 ADD SWAP1 POP SWAP3 SWAP2 POP POP JUMP JUMPDEST DUP3 DUP2 DUP4 MCOPY PUSH0 DUP4 DUP4 ADD MSTORE POP POP POP JUMP JUMPDEST PUSH0 PUSH2 0x2289 DUP3 PUSH2 0x2257 JUMP JUMPDEST PUSH2 0x2293 DUP2 DUP6 PUSH2 0x2261 JUMP JUMPDEST SWAP4 POP PUSH2 0x22A3 DUP2 DUP6 PUSH1 0x20 DUP7 ADD PUSH2 0x2271 JUMP JUMPDEST PUSH2 0x22AC DUP2 PUSH2 0x205F JUMP JUMPDEST DUP5 ADD SWAP2 POP POP SWAP3 SWAP2 POP POP JUMP JUMPDEST PUSH0 PUSH1 0x20 DUP3 ADD SWAP1 POP DUP2 DUP2 SUB PUSH0 DUP4 ADD MSTORE PUSH2 0x22CF DUP2 DUP5 PUSH2 0x227F JUMP JUMPDEST SWAP1 POP SWAP3 SWAP2 POP POP JUMP JUMPDEST PUSH32 0x5A61704170793A20416D6F756E74206D757374206265203E2030000000000000 PUSH0 DUP3 ADD MSTORE POP JUMP JUMPDEST PUSH0 PUSH2 0x230B PUSH1 0x1A DUP4 PUSH2 0x2261 JUMP JUMPDEST SWAP2 POP PUSH2 0x2316 DUP3 PUSH2 0x22D7 JUMP JUMPDEST PUSH1 0x20 DUP3 ADD SWAP1 POP SWAP2 SWAP1 POP JUMP JUMPDEST PUSH0 PUSH1 0x20 DUP3 ADD SWAP1 POP DUP2 DUP2 SUB PUSH0 DUP4 ADD MSTORE PUSH2 0x2338 DUP2 PUSH2 0x22FF JUMP JUMPDEST SWAP1 POP SWAP2 SWAP1 POP JUMP JUMPDEST PUSH32 0x4E487B7100000000000000000000000000000000000000000000000000000000 PUSH0 MSTORE PUSH1 0x11 PUSH1 0x4 MSTORE PUSH1 0x24 PUSH0 REVERT JUMPDEST PUSH0 PUSH2 0x2376 DUP3 PUSH2 0x1EF8 JUMP JUMPDEST SWAP2 POP PUSH2 0x2381 DUP4 PUSH2 0x1EF8 JUMP JUMPDEST SWAP3 POP DUP3 DUP3 ADD SWAP1 POP DUP1 DUP3 GT ISZERO PUSH2 0x2399 JUMPI PUSH2 0x2398 PUSH2 0x233F JUMP JUMPDEST JUMPDEST SWAP3 SWAP2 POP POP JUMP JUMPDEST PUSH0 PUSH1 0x40 DUP3 ADD SWAP1 POP PUSH2 0x23B2 PUSH0 DUP4 ADD DUP6 PUSH2 0x1F01 JUMP JUMPDEST PUSH2 0x23BF PUSH1 0x20 DUP4 ADD DUP5 PUSH2 0x1F10 JUMP JUMPDEST SWAP4 SWAP3 POP POP POP JUMP JUMPDEST PUSH0 DUP2 MLOAD SWAP1 POP PUSH2 0x23D4 DUP2 PUSH2 0x1F6D JUMP JUMPDEST SWAP3 SWAP2 POP POP JUMP JUMPDEST PUSH0 PUSH1 0x20 DUP3 DUP5 SUB SLT ISZERO PUSH2 0x23EF JUMPI PUSH2 0x23EE PUSH2 0x1E8A JUMP JUMPDEST JUMPDEST PUSH0 PUSH2 0x23FC DUP5 DUP3 DUP6 ADD PUSH2 0x23C6 JUMP JUMPDEST SWAP2 POP POP SWAP3 SWAP2 POP POP JUMP JUMPDEST PUSH0 PUSH1 0x40 DUP3 ADD SWAP1 POP PUSH2 0x2418 PUSH0 DUP4 ADD DUP6 PUSH2 0x1F01 JUMP JUMPDEST PUSH2 0x2425 PUSH1 0x20 DUP4 ADD DUP5 PUSH2 0x1F01 JUMP JUMPDEST SWAP4 SWAP3 POP POP POP JUMP JUMPDEST PUSH32 0x5A61704170793A20496E73756666696369656E742062616C616E636500000000 PUSH0 DUP3 ADD MSTORE POP JUMP JUMPDEST PUSH0 PUSH2 0x2460 PUSH1 0x1C DUP4 PUSH2 0x2261 JUMP JUMPDEST SWAP2 POP PUSH2 0x246B DUP3 PUSH2 0x242C JUMP JUMPDEST PUSH1 0x20 DUP3 ADD SWAP1 POP SWAP2 SWAP1 POP JUMP JUMPDEST PUSH0 PUSH1 0x20 DUP3 ADD SWAP1 POP DUP2 DUP2 SUB PUSH0 DUP4 ADD MSTORE PUSH2 0x248D DUP2 PUSH2 0x2454 JUMP JUMPDEST SWAP1 POP SWAP2 SWAP1 POP JUMP JUMPDEST PUSH0 PUSH2 0x249E DUP3 PUSH2 0x1EF8 JUMP JUMPDEST SWAP2 POP PUSH2 0x24A9 DUP4 PUSH2 0x1EF8 JUMP JUMPDEST SWAP3 POP DUP3 DUP3 MUL PUSH2 0x24B7 DUP2 PUSH2 0x1EF8 JUMP JUMPDEST SWAP2 POP DUP3 DUP3 DIV DUP5 EQ DUP4 ISZERO OR PUSH2 0x24CE JUMPI PUSH2 0x24CD PUSH2 0x233F JUMP JUMPDEST JUMPDEST POP SWAP3 SWAP2 POP POP JUMP JUMPDEST PUSH32 0x4E487B7100000000000000000000000000000000000000000000000000000000 PUSH0 MSTORE PUSH1 0x12 PUSH1 0x4 MSTORE PUSH1 0x24 PUSH0 REVERT JUMPDEST PUSH0 PUSH2 0x250C DUP3 PUSH2 0x1EF8 JUMP JUMPDEST SWAP2 POP PUSH2 0x2517 DUP4 PUSH2 0x1EF8 JUMP JUMPDEST SWAP3 POP DUP3 PUSH2 0x2527 JUMPI PUSH2 0x2526 PUSH2 0x24D5 JUMP JUMPDEST JUMPDEST DUP3 DUP3 DIV SWAP1 POP SWAP3 SWAP2 POP POP JUMP JUMPDEST PUSH0 PUSH2 0x253C DUP3 PUSH2 0x1EF8 JUMP JUMPDEST SWAP2 POP PUSH2 0x2547 DUP4 PUSH2 0x1EF8 JUMP JUMPDEST SWAP3 POP DUP3 DUP3 SUB SWAP1 POP DUP2 DUP2 GT ISZERO PUSH2 0x255F JUMPI PUSH2 0x255E PUSH2 0x233F JUMP JUMPDEST JUMPDEST SWAP3 SWAP2 POP POP JUMP JUMPDEST PUSH0 PUSH1 0x60 DUP3 ADD SWAP1 POP PUSH2 0x2578 PUSH0 DUP4 ADD DUP7 PUSH2 0x1F01 JUMP JUMPDEST PUSH2 0x2585 PUSH1 0x20 DUP4 ADD DUP6 PUSH2 0x1F10 JUMP JUMPDEST PUSH2 0x2592 PUSH1 0x40 DUP4 ADD DUP5 PUSH2 0x1F10 JUMP JUMPDEST SWAP5 SWAP4 POP POP POP POP JUMP JUMPDEST PUSH0 DUP2 SWAP1 POP SWAP2 SWAP1 POP JUMP JUMPDEST PUSH0 PUSH8 0xFFFFFFFFFFFFFFFF DUP3 AND SWAP1 POP SWAP2 SWAP1 POP JUMP JUMPDEST PUSH0 PUSH2 0x25D0 PUSH2 0x25CB PUSH2 0x25C6 DUP5 PUSH2 0x259A JUMP JUMPDEST PUSH2 0x1E0D JUMP JUMPDEST PUSH2 0x25A3 JUMP JUMPDEST SWAP1 POP SWAP2 SWAP1 POP JUMP JUMPDEST PUSH2 0x25E0 DUP2 PUSH2 0x25B6 JUMP JUMPDEST DUP3 MSTORE POP POP JUMP JUMPDEST PUSH0 PUSH1 0x20 DUP3 ADD SWAP1 POP PUSH2 0x25F9 PUSH0 DUP4 ADD DUP5 PUSH2 0x25D7 JUMP JUMPDEST SWAP3 SWAP2 POP POP JUMP JUMPDEST PUSH32 0x5A61704170793A20596F7520616C7265616479206861766520616E2049440000 PUSH0 DUP3 ADD MSTORE POP JUMP JUMPDEST PUSH0 PUSH2 0x2633 PUSH1 0x1E DUP4 PUSH2 0x2261 JUMP JUMPDEST SWAP2 POP PUSH2 0x263E DUP3 PUSH2 0x25FF JUMP JUMPDEST PUSH1 0x20 DUP3 ADD SWAP1 POP SWAP2 SWAP1 POP JUMP JUMPDEST PUSH0 PUSH1 0x20 DUP3 ADD SWAP1 POP DUP2 DUP2 SUB PUSH0 DUP4 ADD MSTORE PUSH2 0x2660 DUP2 PUSH2 0x2627 JUMP JUMPDEST SWAP1 POP SWAP2 SWAP1 POP JUMP JUMPDEST PUSH0 PUSH2 0x2671 DUP3 PUSH2 0x1EF8 JUMP JUMPDEST SWAP2 POP PUSH32 0xFFFFFFFFFFFFFFFFFFFFFFFFFFFFFFFFFFFFFFFFFFFFFFFFFFFFFFFFFFFFFFFF DUP3 SUB PUSH2 0x26A3 JUMPI PUSH2 0x26A2 PUSH2 0x233F JUMP JUMPDEST JUMPDEST PUSH1 0x1 DUP3 ADD SWAP1 POP SWAP2 SWAP1 POP JUMP JUMPDEST PUSH0 PUSH1 0x60 DUP3 ADD SWAP1 POP PUSH2 0x26C1 PUSH0 DUP4 ADD DUP7 PUSH2 0x1F10 JUMP JUMPDEST PUSH2 0x26CE PUSH1 0x20 DUP4 ADD DUP6 PUSH2 0x1F10 JUMP JUMPDEST PUSH2 0x26DB PUSH1 0x40 DUP4 ADD DUP5 PUSH2 0x1F01 JUMP JUMPDEST SWAP5 SWAP4 POP POP POP POP JUMP JUMPDEST PUSH0 PUSH1 0x40 DUP3 ADD SWAP1 POP PUSH2 0x26F6 PUSH0 DUP4 ADD DUP6 PUSH2 0x1F10 JUMP JUMPDEST PUSH2 0x2703 PUSH1 0x20 DUP4 ADD DUP5 PUSH2 0x1F01 JUMP JUMPDEST SWAP4 SWAP3 POP POP POP JUMP JUMPDEST PUSH0 DUP2 SWAP1 POP SWAP2 SWAP1 POP JUMP JUMPDEST PUSH0 PUSH1 0xFF DUP3 AND SWAP1 POP SWAP2 SWAP1 POP JUMP JUMPDEST PUSH0 PUSH2 0x2739 PUSH2 0x2734 PUSH2 0x272F DUP5 PUSH2 0x270A JUMP JUMPDEST PUSH2 0x1E0D JUMP JUMPDEST PUSH2 0x2713 JUMP JUMPDEST SWAP1 POP SWAP2 SWAP1 POP JUMP JUMPDEST PUSH2 0x2749 DUP2 PUSH2 0x271F JUMP JUMPDEST DUP3 MSTORE POP POP JUMP JUMPDEST PUSH0 PUSH1 0x40 DUP3 ADD SWAP1 POP PUSH2 0x2762 PUSH0 DUP4 ADD DUP6 PUSH2 0x1F10 JUMP JUMPDEST PUSH2 0x276F PUSH1 0x20 DUP4 ADD DUP5 PUSH2 0x2740 JUMP JUMPDEST SWAP4 SWAP3 POP POP POP JUMP JUMPDEST PUSH2 0x277F DUP2 PUSH2 0x21ED JUMP JUMPDEST DUP2 EQ PUSH2 0x2789 JUMPI PUSH0 PUSH0 REVERT JUMPDEST POP JUMP JUMPDEST PUSH0 DUP2 MLOAD SWAP1 POP PUSH2 0x279A DUP2 PUSH2 0x2776 JUMP JUMPDEST SWAP3 SWAP2 POP POP JUMP JUMPDEST PUSH0 PUSH1 0x20 DUP3 DUP5 SUB SLT ISZERO PUSH2 0x27B5 JUMPI PUSH2 0x27B4 PUSH2 0x1E8A JUMP JUMPDEST JUMPDEST PUSH0 PUSH2 0x27C2 DUP5 DUP3 DUP6 ADD PUSH2 0x278C JUMP JUMPDEST SWAP2 POP POP SWAP3 SWAP2 POP POP JUMP JUMPDEST PUSH0 DUP2 ISZERO ISZERO SWAP1 POP SWAP2 SWAP1 POP JUMP JUMPDEST PUSH2 0x27DF DUP2 PUSH2 0x27CB JUMP JUMPDEST DUP2 EQ PUSH2 0x27E9 JUMPI PUSH0 PUSH0 REVERT JUMPDEST POP JUMP JUMPDEST PUSH0 DUP2 MLOAD SWAP1 POP PUSH2 0x27FA DUP2 PUSH2 0x27D6 JUMP JUMPDEST SWAP3 SWAP2 POP POP JUMP JUMPDEST PUSH0 PUSH1 0x20 DUP3 DUP5 SUB SLT ISZERO PUSH2 0x2815 JUMPI PUSH2 0x2814 PUSH2 0x1E8A JUMP JUMPDEST JUMPDEST PUSH0 PUSH2 0x2822 DUP5 DUP3 DUP6 ADD PUSH2 0x27EC JUMP JUMPDEST SWAP2 POP POP SWAP3 SWAP2 POP POP JUMP JUMPDEST PUSH32 0x5361666545524332303A204552433230206F7065726174696F6E20646964206E PUSH0 DUP3 ADD MSTORE PUSH32 0x6F74207375636365656400000000000000000000000000000000000000000000 PUSH1 0x20 DUP3 ADD MSTORE POP JUMP JUMPDEST PUSH0 PUSH2 0x2885 PUSH1 0x2A DUP4 PUSH2 0x2261 JUMP JUMPDEST SWAP2 POP PUSH2 0x2890 DUP3 PUSH2 0x282B JUMP JUMPDEST PUSH1 0x40 DUP3 ADD SWAP1 POP SWAP2 SWAP1 POP JUMP JUMPDEST PUSH0 PUSH1 0x20 DUP3 ADD SWAP1 POP DUP2 DUP2 SUB PUSH0 DUP4 ADD MSTORE PUSH2 0x28B2 DUP2 PUSH2 0x2879 JUMP JUMPDEST SWAP1 POP SWAP2 SWAP1 POP JUMP JUMPDEST PUSH0 DUP2 MLOAD SWAP1 POP SWAP2 SWAP1 POP JUMP JUMPDEST PUSH0 DUP2 SWAP1 POP SWAP3 SWAP2 POP POP JUMP JUMPDEST PUSH0 PUSH2 0x28D7 DUP3 PUSH2 0x28B9 JUMP JUMPDEST PUSH2 0x28E1 DUP2 DUP6 PUSH2 0x28C3 JUMP JUMPDEST SWAP4 POP PUSH2 0x28F1 DUP2 DUP6 PUSH1 0x20 DUP7 ADD PUSH2 0x2271 JUMP JUMPDEST DUP1 DUP5 ADD SWAP2 POP POP SWAP3 SWAP2 POP POP JUMP JUMPDEST PUSH0 PUSH2 0x2908 DUP3 DUP5 PUSH2 0x28CD JUMP JUMPDEST SWAP2 POP DUP2 SWAP1 POP SWAP3 SWAP2 POP POP JUMP JUMPDEST PUSH32 0x416464726573733A20696E73756666696369656E742062616C616E636520666F PUSH0 DUP3 ADD MSTORE PUSH32 0x722063616C6C0000000000000000000000000000000000000000000000000000 PUSH1 0x20 DUP3 ADD MSTORE POP JUMP JUMPDEST PUSH0 PUSH2 0x296D PUSH1 0x26 DUP4 PUSH2 0x2261 JUMP JUMPDEST SWAP2 POP PUSH2 0x2978 DUP3 PUSH2 0x2913 JUMP JUMPDEST PUSH1 0x40 DUP3 ADD SWAP1 POP SWAP2 SWAP1 POP JUMP JUMPDEST PUSH0 PUSH1 0x20 DUP3 ADD SWAP1 POP DUP2 DUP2 SUB PUSH0 DUP4 ADD MSTORE PUSH2 0x299A DUP2 PUSH2 0x2961 JUMP JUMPDEST SWAP1 POP SWAP2 SWAP1 POP JUMP JUMPDEST PUSH32 0x416464726573733A2063616C6C20746F206E6F6E2D636F6E7472616374000000 PUSH0 DUP3 ADD MSTORE POP JUMP JUMPDEST PUSH0 PUSH2 0x29D5 PUSH1 0x1D DUP4 PUSH2 0x2261 JUMP JUMPDEST SWAP2 POP PUSH2 0x29E0 DUP3 PUSH2 0x29A1 JUMP JUMPDEST PUSH1 0x20 DUP3 ADD SWAP1 POP SWAP2 SWAP1 POP JUMP JUMPDEST PUSH0 PUSH1 0x20 DUP3 ADD SWAP1 POP DUP2 DUP2 SUB PUSH0 DUP4 ADD MSTORE PUSH2 0x2A02 DUP2 PUSH2 0x29C9 JUMP JUMPDEST SWAP1 POP SWAP2 SWAP1 POP JUMP INVALID LOG2 PUSH5 0x6970667358 0x22 SLT KECCAK256 DUP6 EXTSTATICCALL 0xD0 SWAP5 EXTCODECOPY 0xCA 0xBF BLOCKHASH 0xE2 0x28 PUSH8 0x809C7EAD1BE25FF2 NUMBER 0xE DUPN 0xD3 0xBF LOG2 0xAF 0x22 0xA9 SDIV OR 0x1F EOFCREATE 0x64 PUSH20 0x6F6C634300081F00330000000000000000000000 "
				},
				"gasEstimates": {
					"creation": {
						"codeDepositCost": "2163000",
						"executionCost": "infinite",
						"totalCost": "infinite"
					},
					"external": {
						"UPGRADE_INTERFACE_VERSION()": "infinite",
						"addressToId(address)": "2890",
						"createReferralId()": "76965",
						"getMyId()": "2587",
						"idToAddress(uint256)": "2917",
						"initialize(address,address)": "infinite",
						"moonwellVault()": "infinite",
						"nextReferralId()": "2469",
						"owner()": "2655",
						"proxiableUUID()": "infinite",
						"renounceOwnership()": "infinite",
						"transferOwnership(address)": "infinite",
						"upgradeToAndCall(address,bytes)": "infinite",
						"usdcToken()": "infinite",
						"userInfo(address)": "infinite",
						"withdraw(uint256)": "infinite",
						"zapIn(uint256,uint256)": "infinite"
					},
					"internal": {
						"_authorizeUpgrade(address)": "infinite"
					}
				},
				"methodIdentifiers": {
					"UPGRADE_INTERFACE_VERSION()": "ad3cb1cc",
					"addressToId(address)": "cb0e0d7d",
					"createReferralId()": "8bda03a7",
					"getMyId()": "27ed00ee",
					"idToAddress(uint256)": "2a2d0c47",
					"initialize(address,address)": "485cc955",
					"moonwellVault()": "97da7af7",
					"nextReferralId()": "aa5d0063",
					"owner()": "8da5cb5b",
					"proxiableUUID()": "52d1902d",
					"renounceOwnership()": "715018a6",
					"transferOwnership(address)": "f2fde38b",
					"upgradeToAndCall(address,bytes)": "4f1ef286",
					"usdcToken()": "11eac855",
					"userInfo(address)": "1959a002",
					"withdraw(uint256)": "2e1a7d4d",
					"zapIn(uint256,uint256)": "2dee2327"
				}
			},
			"storageLayout": {
				"storage": [
					{
						"astId": 2438,
						"contract": "contracts/zapyield-mainnet-beta.0.16.sol:ZapApyV2Pro",
						"label": "usdcToken",
						"offset": 0,
						"slot": "0",
						"type": "t_contract(IERC20Upgradeable)722"
					},
					{
						"astId": 2441,
						"contract": "contracts/zapyield-mainnet-beta.0.16.sol:ZapApyV2Pro",
						"label": "moonwellVault",
						"offset": 0,
						"slot": "1",
						"type": "t_contract(IMorphoVault)2423"
					},
					{
						"astId": 2443,
						"contract": "contracts/zapyield-mainnet-beta.0.16.sol:ZapApyV2Pro",
						"label": "nextReferralId",
						"offset": 0,
						"slot": "2",
						"type": "t_uint256"
					},
					{
						"astId": 2447,
						"contract": "contracts/zapyield-mainnet-beta.0.16.sol:ZapApyV2Pro",
						"label": "idToAddress",
						"offset": 0,
						"slot": "3",
						"type": "t_mapping(t_uint256,t_address)"
					},
					{
						"astId": 2451,
						"contract": "contracts/zapyield-mainnet-beta.0.16.sol:ZapApyV2Pro",
						"label": "addressToId",
						"offset": 0,
						"slot": "4",
						"type": "t_mapping(t_address,t_uint256)"
					},
					{
						"astId": 2463,
						"contract": "contracts/zapyield-mainnet-beta.0.16.sol:ZapApyV2Pro",
						"label": "userInfo",
						"offset": 0,
						"slot": "5",
						"type": "t_mapping(t_address,t_struct(UserInfo)2458_storage)"
					},
					{
						"astId": 2800,
						"contract": "contracts/zapyield-mainnet-beta.0.16.sol:ZapApyV2Pro",
						"label": "__gap",
						"offset": 0,
						"slot": "6",
						"type": "t_array(t_uint256)50_storage"
					}
				],
				"types": {
					"t_address": {
						"encoding": "inplace",
						"label": "address",
						"numberOfBytes": "20"
					},
					"t_array(t_uint256)50_storage": {
						"base": "t_uint256",
						"encoding": "inplace",
						"label": "uint256[50]",
						"numberOfBytes": "1600"
					},
					"t_contract(IERC20Upgradeable)722": {
						"encoding": "inplace",
						"label": "contract IERC20Upgradeable",
						"numberOfBytes": "20"
					},
					"t_contract(IMorphoVault)2423": {
						"encoding": "inplace",
						"label": "contract IMorphoVault",
						"numberOfBytes": "20"
					},
					"t_mapping(t_address,t_struct(UserInfo)2458_storage)": {
						"encoding": "mapping",
						"key": "t_address",
						"label": "mapping(address => struct ZapApyV2Pro.UserInfo)",
						"numberOfBytes": "32",
						"value": "t_struct(UserInfo)2458_storage"
					},
					"t_mapping(t_address,t_uint256)": {
						"encoding": "mapping",
						"key": "t_address",
						"label": "mapping(address => uint256)",
						"numberOfBytes": "32",
						"value": "t_uint256"
					},
					"t_mapping(t_uint256,t_address)": {
						"encoding": "mapping",
						"key": "t_uint256",
						"label": "mapping(uint256 => address)",
						"numberOfBytes": "32",
						"value": "t_address"
					},
					"t_struct(UserInfo)2458_storage": {
						"encoding": "inplace",
						"label": "struct ZapApyV2Pro.UserInfo",
						"members": [
							{
								"astId": 2453,
								"contract": "contracts/zapyield-mainnet-beta.0.16.sol:ZapApyV2Pro",
								"label": "principal",
								"offset": 0,
								"slot": "0",
								"type": "t_uint256"
							},
							{
								"astId": 2455,
								"contract": "contracts/zapyield-mainnet-beta.0.16.sol:ZapApyV2Pro",
								"label": "depositTime",
								"offset": 0,
								"slot": "1",
								"type": "t_uint256"
							},
							{
								"astId": 2457,
								"contract": "contracts/zapyield-mainnet-beta.0.16.sol:ZapApyV2Pro",
								"label": "referrer",
								"offset": 0,
								"slot": "2",
								"type": "t_address"
							}
						],
						"numberOfBytes": "96"
					},
					"t_uint256": {
						"encoding": "inplace",
						"label": "uint256",
						"numberOfBytes": "32"
					}
				}
			},
			"userdoc": {
				"kind": "user",
				"methods": {
					"initialize(address,address)": {
						"notice": "Initializes the proxy. This runs only once when you first deploy."
					}
				},
				"version": 1
			}
		}
	}
}