{
	"contracts/zapyield-mainnet-alpha.sol": {
		"ZapYieldsMainnetLive": {
			"abi": [
				{
					"inputs": [],
					"stateMutability": "nonpayable",
					"type": "constructor"
				},
				{
					"inputs": [
						{
							"internalType": "address",
							"name": "owner",
							"type": "address"
						}
					],
					"name": "OwnableInvalidOwner",
					"type": "error"
				},
				{
					"inputs": [
						{
							"internalType": "address",
							"name": "account",
							"type": "address"
						}
					],
					"name": "OwnableUnauthorizedAccount",
					"type": "error"
				},
				{
					"inputs": [
						{
							"internalType": "address",
							"name": "token",
							"type": "address"
						}
					],
					"name": "SafeERC20FailedOperation",
					"type": "error"
				},
				{
					"anonymous": false,
					"inputs": [
						{
							"indexed": true,
							"internalType": "address",
							"name": "previousOwner",
							"type": "address"
						},
						{
							"indexed": true,
							"internalType": "address",
							"name": "newOwner",
							"type": "address"
						}
					],
					"name": "OwnershipTransferred",
					"type": "event"
				},
				{
					"inputs": [],
					"name": "MIN_INVESTMENT",
					"outputs": [
						{
							"internalType": "uint256",
							"name": "",
							"type": "uint256"
						}
					],
					"stateMutability": "view",
					"type": "function"
				},
				{
					"inputs": [],
					"name": "USDC",
					"outputs": [
						{
							"internalType": "contract IERC20",
							"name": "",
							"type": "address"
						}
					],
					"stateMutability": "view",
					"type": "function"
				},
				{
					"inputs": [
						{
							"internalType": "address",
							"name": "_user",
							"type": "address"
						}
					],
					"name": "getAccountValue",
					"outputs": [
						{
							"internalType": "uint256",
							"name": "",
							"type": "uint256"
						}
					],
					"stateMutability": "view",
					"type": "function"
				},
				{
					"inputs": [
						{
							"internalType": "address",
							"name": "_user",
							"type": "address"
						}
					],
					"name": "getDownlines",
					"outputs": [
						{
							"internalType": "address[]",
							"name": "",
							"type": "address[]"
						}
					],
					"stateMutability": "view",
					"type": "function"
				},
				{
					"inputs": [],
					"name": "mUSDC",
					"outputs": [
						{
							"internalType": "contract IMToken",
							"name": "",
							"type": "address"
						}
					],
					"stateMutability": "view",
					"type": "function"
				},
				{
					"inputs": [],
					"name": "owner",
					"outputs": [
						{
							"internalType": "address",
							"name": "",
							"type": "address"
						}
					],
					"stateMutability": "view",
					"type": "function"
				},
				{
					"inputs": [
						{
							"internalType": "address",
							"name": "",
							"type": "address"
						},
						{
							"internalType": "uint256",
							"name": "",
							"type": "uint256"
						}
					],
					"name": "referralList",
					"outputs": [
						{
							"internalType": "address",
							"name": "",
							"type": "address"
						}
					],
					"stateMutability": "view",
					"type": "function"
				},
				{
					"inputs": [],
					"name": "renounceOwnership",
					"outputs": [],
					"stateMutability": "nonpayable",
					"type": "function"
				},
				{
					"inputs": [
						{
							"internalType": "address",
							"name": "newOwner",
							"type": "address"
						}
					],
					"name": "transferOwnership",
					"outputs": [],
					"stateMutability": "nonpayable",
					"type": "function"
				},
				{
					"inputs": [
						{
							"internalType": "address",
							"name": "",
							"type": "address"
						}
					],
					"name": "users",
					"outputs": [
						{
							"internalType": "uint256",
							"name": "principal",
							"type": "uint256"
						},
						{
							"internalType": "uint256",
							"name": "shareBalance",
							"type": "uint256"
						},
						{
							"internalType": "address",
							"name": "referrer",
							"type": "address"
						}
					],
					"stateMutability": "view",
					"type": "function"
				},
				{
					"inputs": [
						{
							"internalType": "uint256",
							"name": "_amount",
							"type": "uint256"
						},
						{
							"internalType": "address",
							"name": "_referrer",
							"type": "address"
						}
					],
					"name": "zapIn",
					"outputs": [],
					"stateMutability": "nonpayable",
					"type": "function"
				},
				{
					"inputs": [],
					"name": "zapOut",
					"outputs": [],
					"stateMutability": "nonpayable",
					"type": "function"
				}
			],
			"devdoc": {
				"errors": {
					"OwnableInvalidOwner(address)": [
						{
							"details": "The owner is not a valid owner account. (eg. `address(0)`)"
						}
					],
					"OwnableUnauthorizedAccount(address)": [
						{
							"details": "The caller account is not authorized to perform an operation."
						}
					],
					"SafeERC20FailedOperation(address)": [
						{
							"details": "An operation with an ERC-20 token failed."
						}
					]
				},
				"kind": "dev",
				"methods": {
					"owner()": {
						"details": "Returns the address of the current owner."
					},
					"renounceOwnership()": {
						"details": "Leaves the contract without owner. It will not be possible to call `onlyOwner` functions. Can only be called by the current owner. NOTE: Renouncing ownership will leave the contract without an owner, thereby disabling any functionality that is only available to the owner."
					},
					"transferOwnership(address)": {
						"details": "Transfers ownership of the contract to a new account (`newOwner`). Can only be called by the current owner."
					}
				},
				"version": 1
			},
			"evm": {
				"assembly": "    /* \"contracts/zapyield-mainnet-alpha.sol\":577:2788  contract ZapYieldsMainnetLive is Ownable, ReentrancyGuard {... */\n  mstore(0x40, 0x80)\n    /* \"contracts/zapyield-mainnet-alpha.sol\":1169:1205  constructor() Ownable(msg.sender) {} */\n  callvalue\n  dup1\n  iszero\n  tag_1\n  jumpi\n  0x00\n  dup1\n  revert\ntag_1:\n  pop\n    /* \"contracts/zapyield-mainnet-alpha.sol\":1191:1201  msg.sender */\n  caller\n    /* \"@openzeppelin/contracts/access/Ownable.sol\":1297:1298  0 */\n  0x00\n    /* \"@openzeppelin/contracts/access/Ownable.sol\":1273:1299  initialOwner == address(0) */\n  0xffffffffffffffffffffffffffffffffffffffff\n  and\n    /* \"@openzeppelin/contracts/access/Ownable.sol\":1273:1285  initialOwner */\n  dup2\n    /* \"@openzeppelin/contracts/access/Ownable.sol\":1273:1299  initialOwner == address(0) */\n  0xffffffffffffffffffffffffffffffffffffffff\n  and\n  sub\n    /* \"@openzeppelin/contracts/access/Ownable.sol\":1269:1364  if (initialOwner == address(0)) {... */\n  tag_6\n  jumpi\n    /* \"@openzeppelin/contracts/access/Ownable.sol\":1350:1351  0 */\n  0x00\n    /* \"@openzeppelin/contracts/access/Ownable.sol\":1322:1353  OwnableInvalidOwner(address(0)) */\n  mload(0x40)\n  0x1e4fbdf700000000000000000000000000000000000000000000000000000000\n  dup2\n  mstore\n  0x04\n  add\n  tag_7\n  swap2\n  swap1\n  tag_8\n  jump\t// in\ntag_7:\n  mload(0x40)\n  dup1\n  swap2\n  sub\n  swap1\n  revert\n    /* \"@openzeppelin/contracts/access/Ownable.sol\":1269:1364  if (initialOwner == address(0)) {... */\ntag_6:\n    /* \"@openzeppelin/contracts/access/Ownable.sol\":1373:1405  _transferOwnership(initialOwner) */\n  tag_9\n    /* \"@openzeppelin/contracts/access/Ownable.sol\":1392:1404  initialOwner */\n  dup2\n    /* \"@openzeppelin/contracts/access/Ownable.sol\":1373:1391  _transferOwnership */\n  shl(0x20, tag_10)\n    /* \"@openzeppelin/contracts/access/Ownable.sol\":1373:1405  _transferOwnership(initialOwner) */\n  0x20\n  shr\n  jump\t// in\ntag_9:\n    /* \"@openzeppelin/contracts/access/Ownable.sol\":1225:1412  constructor(address initialOwner) {... */\n  pop\n    /* \"@openzeppelin/contracts/security/ReentrancyGuard.sol\":1716:1717  1 */\n  0x01\n    /* \"@openzeppelin/contracts/security/ReentrancyGuard.sol\":1821:1828  _status */\n  dup1\n    /* \"@openzeppelin/contracts/security/ReentrancyGuard.sol\":1821:1843  _status = _NOT_ENTERED */\n  dup2\n  swap1\n  sstore\n  pop\n    /* \"contracts/zapyield-mainnet-alpha.sol\":577:2788  contract ZapYieldsMainnetLive is Ownable, ReentrancyGuard {... */\n  jump(tag_13)\n    /* \"@openzeppelin/contracts/access/Ownable.sol\":2912:3099  function _transferOwnership(address newOwner) internal virtual {... */\ntag_10:\n    /* \"@openzeppelin/contracts/access/Ownable.sol\":2985:3001  address oldOwner */\n  0x00\n    /* \"@openzeppelin/contracts/access/Ownable.sol\":3004:3010  _owner */\n  dup1\n  0x00\n  swap1\n  sload\n  swap1\n  0x0100\n  exp\n  swap1\n  div\n  0xffffffffffffffffffffffffffffffffffffffff\n  and\n    /* \"@openzeppelin/contracts/access/Ownable.sol\":2985:3010  address oldOwner = _owner */\n  swap1\n  pop\n    /* \"@openzeppelin/contracts/access/Ownable.sol\":3029:3037  newOwner */\n  dup2\n    /* \"@openzeppelin/contracts/access/Ownable.sol\":3020:3026  _owner */\n  0x00\n  dup1\n    /* \"@openzeppelin/contracts/access/Ownable.sol\":3020:3037  _owner = newOwner */\n  0x0100\n  exp\n  dup2\n  sload\n  dup2\n  0xffffffffffffffffffffffffffffffffffffffff\n  mul\n  not\n  and\n  swap1\n  dup4\n  0xffffffffffffffffffffffffffffffffffffffff\n  and\n  mul\n  or\n  swap1\n  sstore\n  pop\n    /* \"@openzeppelin/contracts/access/Ownable.sol\":3083:3091  newOwner */\n  dup2\n    /* \"@openzeppelin/contracts/access/Ownable.sol\":3052:3092  OwnershipTransferred(oldOwner, newOwner) */\n  0xffffffffffffffffffffffffffffffffffffffff\n  and\n    /* \"@openzeppelin/contracts/access/Ownable.sol\":3073:3081  oldOwner */\n  dup2\n    /* \"@openzeppelin/contracts/access/Ownable.sol\":3052:3092  OwnershipTransferred(oldOwner, newOwner) */\n  0xffffffffffffffffffffffffffffffffffffffff\n  and\n  0x8be0079c531659141344cd1fd0a4f28419497f9722a3daafe3b4186f6b6457e0\n  mload(0x40)\n  mload(0x40)\n  dup1\n  swap2\n  sub\n  swap1\n  log3\n    /* \"@openzeppelin/contracts/access/Ownable.sol\":2975:3099  {... */\n  pop\n    /* \"@openzeppelin/contracts/access/Ownable.sol\":2912:3099  function _transferOwnership(address newOwner) internal virtual {... */\n  pop\n  jump\t// out\n    /* \"#utility.yul\":7:133   */\ntag_15:\n    /* \"#utility.yul\":44:51   */\n  0x00\n    /* \"#utility.yul\":84:126   */\n  0xffffffffffffffffffffffffffffffffffffffff\n    /* \"#utility.yul\":77:82   */\n  dup3\n    /* \"#utility.yul\":73:127   */\n  and\n    /* \"#utility.yul\":62:127   */\n  swap1\n  pop\n    /* \"#utility.yul\":7:133   */\n  swap2\n  swap1\n  pop\n  jump\t// out\n    /* \"#utility.yul\":139:235   */\ntag_16:\n    /* \"#utility.yul\":176:183   */\n  0x00\n    /* \"#utility.yul\":205:229   */\n  tag_21\n    /* \"#utility.yul\":223:228   */\n  dup3\n    /* \"#utility.yul\":205:229   */\n  tag_15\n  jump\t// in\ntag_21:\n    /* \"#utility.yul\":194:229   */\n  swap1\n  pop\n    /* \"#utility.yul\":139:235   */\n  swap2\n  swap1\n  pop\n  jump\t// out\n    /* \"#utility.yul\":241:359   */\ntag_17:\n    /* \"#utility.yul\":328:352   */\n  tag_23\n    /* \"#utility.yul\":346:351   */\n  dup2\n    /* \"#utility.yul\":328:352   */\n  tag_16\n  jump\t// in\ntag_23:\n    /* \"#utility.yul\":323:326   */\n  dup3\n    /* \"#utility.yul\":316:353   */\n  mstore\n    /* \"#utility.yul\":241:359   */\n  pop\n  pop\n  jump\t// out\n    /* \"#utility.yul\":365:587   */\ntag_8:\n    /* \"#utility.yul\":458:462   */\n  0x00\n    /* \"#utility.yul\":496:498   */\n  0x20\n    /* \"#utility.yul\":485:494   */\n  dup3\n    /* \"#utility.yul\":481:499   */\n  add\n    /* \"#utility.yul\":473:499   */\n  swap1\n  pop\n    /* \"#utility.yul\":509:580   */\n  tag_25\n    /* \"#utility.yul\":577:578   */\n  0x00\n    /* \"#utility.yul\":566:575   */\n  dup4\n    /* \"#utility.yul\":562:579   */\n  add\n    /* \"#utility.yul\":553:559   */\n  dup5\n    /* \"#utility.yul\":509:580   */\n  tag_17\n  jump\t// in\ntag_25:\n    /* \"#utility.yul\":365:587   */\n  swap3\n  swap2\n  pop\n  pop\n  jump\t// out\n    /* \"contracts/zapyield-mainnet-alpha.sol\":577:2788  contract ZapYieldsMainnetLive is Ownable, ReentrancyGuard {... */\ntag_13:\n  dataSize(sub_0)\n  dup1\n  dataOffset(sub_0)\n  0x00\n  codecopy\n  0x00\n  return\nstop\n\nsub_0: assembly {\n        /* \"contracts/zapyield-mainnet-alpha.sol\":577:2788  contract ZapYieldsMainnetLive is Ownable, ReentrancyGuard {... */\n      mstore(0x40, 0x80)\n      callvalue\n      dup1\n      iszero\n      tag_1\n      jumpi\n      0x00\n      dup1\n      revert\n    tag_1:\n      pop\n      jumpi(tag_2, lt(calldatasize, 0x04))\n      shr(0xe0, calldataload(0x00))\n      dup1\n      0x8da5cb5b\n      gt\n      tag_15\n      jumpi\n      dup1\n      0x8da5cb5b\n      eq\n      tag_9\n      jumpi\n      dup1\n      0xa87430ba\n      eq\n      tag_10\n      jumpi\n      dup1\n      0xd12eb0a3\n      eq\n      tag_11\n      jumpi\n      dup1\n      0xdabeaecf\n      eq\n      tag_12\n      jumpi\n      dup1\n      0xf2fde38b\n      eq\n      tag_13\n      jumpi\n      dup1\n      0xf89ec5f5\n      eq\n      tag_14\n      jumpi\n      jump(tag_2)\n    tag_15:\n      dup1\n      0x23544748\n      eq\n      tag_3\n      jumpi\n      dup1\n      0x44051053\n      eq\n      tag_4\n      jumpi\n      dup1\n      0x4ef8ff33\n      eq\n      tag_5\n      jumpi\n      dup1\n      0x5ae80951\n      eq\n      tag_6\n      jumpi\n      dup1\n      0x715018a6\n      eq\n      tag_7\n      jumpi\n      dup1\n      0x89a30271\n      eq\n      tag_8\n      jumpi\n    tag_2:\n      0x00\n      dup1\n      revert\n        /* \"contracts/zapyield-mainnet-alpha.sol\":2035:2465  function zapOut() external nonReentrant {... */\n    tag_3:\n      tag_16\n      tag_17\n      jump\t// in\n    tag_16:\n      stop\n        /* \"contracts/zapyield-mainnet-alpha.sol\":2665:2786  function getDownlines(address _user) external view returns (address[] memory) {... */\n    tag_4:\n      tag_18\n      0x04\n      dup1\n      calldatasize\n      sub\n      dup2\n      add\n      swap1\n      tag_19\n      swap2\n      swap1\n      tag_20\n      jump\t// in\n    tag_19:\n      tag_21\n      jump\t// in\n    tag_18:\n      mload(0x40)\n      tag_22\n      swap2\n      swap1\n      tag_23\n      jump\t// in\n    tag_22:\n      mload(0x40)\n      dup1\n      swap2\n      sub\n      swap1\n      return\n        /* \"contracts/zapyield-mainnet-alpha.sol\":897:946  uint256 public constant MIN_INVESTMENT = 10 * 1e6 */\n    tag_5:\n      tag_24\n      tag_25\n      jump\t// in\n    tag_24:\n      mload(0x40)\n      tag_26\n      swap2\n      swap1\n      tag_27\n      jump\t// in\n    tag_26:\n      mload(0x40)\n      dup1\n      swap2\n      sub\n      swap1\n      return\n        /* \"contracts/zapyield-mainnet-alpha.sol\":2471:2659  function getAccountValue(address _user) external view returns (uint256) {... */\n    tag_6:\n      tag_28\n      0x04\n      dup1\n      calldatasize\n      sub\n      dup2\n      add\n      swap1\n      tag_29\n      swap2\n      swap1\n      tag_20\n      jump\t// in\n    tag_29:\n      tag_30\n      jump\t// in\n    tag_28:\n      mload(0x40)\n      tag_31\n      swap2\n      swap1\n      tag_27\n      jump\t// in\n    tag_31:\n      mload(0x40)\n      dup1\n      swap2\n      sub\n      swap1\n      return\n        /* \"@openzeppelin/contracts/access/Ownable.sol\":2293:2394  function renounceOwnership() public virtual onlyOwner {... */\n    tag_7:\n      tag_32\n      tag_33\n      jump\t// in\n    tag_32:\n      stop\n        /* \"contracts/zapyield-mainnet-alpha.sol\":719:799  IERC20 public constant USDC = IERC20(0x833589fCD6eDb6E08f4c7C32D4f71b54bdA02913) */\n    tag_8:\n      tag_34\n      tag_35\n      jump\t// in\n    tag_34:\n      mload(0x40)\n      tag_36\n      swap2\n      swap1\n      tag_37\n      jump\t// in\n    tag_36:\n      mload(0x40)\n      dup1\n      swap2\n      sub\n      swap1\n      return\n        /* \"@openzeppelin/contracts/access/Ownable.sol\":1638:1723  function owner() public view virtual returns (address) {... */\n    tag_9:\n      tag_38\n      tag_39\n      jump\t// in\n    tag_38:\n      mload(0x40)\n      tag_40\n      swap2\n      swap1\n      tag_41\n      jump\t// in\n    tag_40:\n      mload(0x40)\n      dup1\n      swap2\n      sub\n      swap1\n      return\n        /* \"contracts/zapyield-mainnet-alpha.sol\":1066:1107  mapping(address => UserInfo) public users */\n    tag_10:\n      tag_42\n      0x04\n      dup1\n      calldatasize\n      sub\n      dup2\n      add\n      swap1\n      tag_43\n      swap2\n      swap1\n      tag_20\n      jump\t// in\n    tag_43:\n      tag_44\n      jump\t// in\n    tag_42:\n      mload(0x40)\n      tag_45\n      swap4\n      swap3\n      swap2\n      swap1\n      tag_46\n      jump\t// in\n    tag_45:\n      mload(0x40)\n      dup1\n      swap2\n      sub\n      swap1\n      return\n        /* \"contracts/zapyield-mainnet-alpha.sol\":1113:1162  mapping(address => address[]) public referralList */\n    tag_11:\n      tag_47\n      0x04\n      dup1\n      calldatasize\n      sub\n      dup2\n      add\n      swap1\n      tag_48\n      swap2\n      swap1\n      tag_49\n      jump\t// in\n    tag_48:\n      tag_50\n      jump\t// in\n    tag_47:\n      mload(0x40)\n      tag_51\n      swap2\n      swap1\n      tag_41\n      jump\t// in\n    tag_51:\n      mload(0x40)\n      dup1\n      swap2\n      sub\n      swap1\n      return\n        /* \"contracts/zapyield-mainnet-alpha.sol\":1211:2029  function zapIn(uint256 _amount, address _referrer) external nonReentrant {... */\n    tag_12:\n      tag_52\n      0x04\n      dup1\n      calldatasize\n      sub\n      dup2\n      add\n      swap1\n      tag_53\n      swap2\n      swap1\n      tag_54\n      jump\t// in\n    tag_53:\n      tag_55\n      jump\t// in\n    tag_52:\n      stop\n        /* \"@openzeppelin/contracts/access/Ownable.sol\":2543:2758  function transferOwnership(address newOwner) public virtual onlyOwner {... */\n    tag_13:\n      tag_56\n      0x04\n      dup1\n      calldatasize\n      sub\n      dup2\n      add\n      swap1\n      tag_57\n      swap2\n      swap1\n      tag_20\n      jump\t// in\n    tag_57:\n      tag_58\n      jump\t// in\n    tag_56:\n      stop\n        /* \"contracts/zapyield-mainnet-alpha.sol\":806:889  IMToken public constant mUSDC = IMToken(0x1686616428c04907aB37A8987B7a97260714E290) */\n    tag_14:\n      tag_59\n      tag_60\n      jump\t// in\n    tag_59:\n      mload(0x40)\n      tag_61\n      swap2\n      swap1\n      tag_62\n      jump\t// in\n    tag_61:\n      mload(0x40)\n      dup1\n      swap2\n      sub\n      swap1\n      return\n        /* \"contracts/zapyield-mainnet-alpha.sol\":2035:2465  function zapOut() external nonReentrant {... */\n    tag_17:\n        /* \"@openzeppelin/contracts/security/ReentrancyGuard.sol\":2261:2282  _nonReentrantBefore() */\n      tag_64\n        /* \"@openzeppelin/contracts/security/ReentrancyGuard.sol\":2261:2280  _nonReentrantBefore */\n      tag_65\n        /* \"@openzeppelin/contracts/security/ReentrancyGuard.sol\":2261:2282  _nonReentrantBefore() */\n      jump\t// in\n    tag_64:\n        /* \"contracts/zapyield-mainnet-alpha.sol\":2085:2106  UserInfo storage user */\n      0x00\n        /* \"contracts/zapyield-mainnet-alpha.sol\":2109:2114  users */\n      0x02\n        /* \"contracts/zapyield-mainnet-alpha.sol\":2109:2126  users[msg.sender] */\n      0x00\n        /* \"contracts/zapyield-mainnet-alpha.sol\":2115:2125  msg.sender */\n      caller\n        /* \"contracts/zapyield-mainnet-alpha.sol\":2109:2126  users[msg.sender] */\n      0xffffffffffffffffffffffffffffffffffffffff\n      and\n      0xffffffffffffffffffffffffffffffffffffffff\n      and\n      dup2\n      mstore\n      0x20\n      add\n      swap1\n      dup2\n      mstore\n      0x20\n      add\n      0x00\n      keccak256\n        /* \"contracts/zapyield-mainnet-alpha.sol\":2085:2126  UserInfo storage user = users[msg.sender] */\n      swap1\n      pop\n        /* \"contracts/zapyield-mainnet-alpha.sol\":2164:2165  0 */\n      0x00\n        /* \"contracts/zapyield-mainnet-alpha.sol\":2144:2148  user */\n      dup2\n        /* \"contracts/zapyield-mainnet-alpha.sol\":2144:2161  user.shareBalance */\n      0x01\n      add\n      sload\n        /* \"contracts/zapyield-mainnet-alpha.sol\":2144:2165  user.shareBalance > 0 */\n      gt\n        /* \"contracts/zapyield-mainnet-alpha.sol\":2136:2180  require(user.shareBalance > 0, \"No balance\") */\n      tag_67\n      jumpi\n      mload(0x40)\n      0x08c379a000000000000000000000000000000000000000000000000000000000\n      dup2\n      mstore\n      0x04\n      add\n      tag_68\n      swap1\n      tag_69\n      jump\t// in\n    tag_68:\n      mload(0x40)\n      dup1\n      swap2\n      sub\n      swap1\n      revert\n    tag_67:\n        /* \"contracts/zapyield-mainnet-alpha.sol\":2191:2205  uint256 shares */\n      0x00\n        /* \"contracts/zapyield-mainnet-alpha.sol\":2208:2212  user */\n      dup2\n        /* \"contracts/zapyield-mainnet-alpha.sol\":2208:2225  user.shareBalance */\n      0x01\n      add\n      sload\n        /* \"contracts/zapyield-mainnet-alpha.sol\":2191:2225  uint256 shares = user.shareBalance */\n      swap1\n      pop\n        /* \"contracts/zapyield-mainnet-alpha.sol\":2255:2256  0 */\n      0x00\n        /* \"contracts/zapyield-mainnet-alpha.sol\":2235:2239  user */\n      dup3\n        /* \"contracts/zapyield-mainnet-alpha.sol\":2235:2252  user.shareBalance */\n      0x01\n      add\n        /* \"contracts/zapyield-mainnet-alpha.sol\":2235:2256  user.shareBalance = 0 */\n      dup2\n      swap1\n      sstore\n      pop\n        /* \"contracts/zapyield-mainnet-alpha.sol\":2283:2284  0 */\n      0x00\n        /* \"contracts/zapyield-mainnet-alpha.sol\":2266:2270  user */\n      dup3\n        /* \"contracts/zapyield-mainnet-alpha.sol\":2266:2280  user.principal */\n      0x00\n      add\n        /* \"contracts/zapyield-mainnet-alpha.sol\":2266:2284  user.principal = 0 */\n      dup2\n      swap1\n      sstore\n      pop\n        /* \"contracts/zapyield-mainnet-alpha.sol\":2327:2328  0 */\n      0x00\n        /* \"contracts/zapyield-mainnet-alpha.sol\":846:888  0x1686616428c04907aB37A8987B7a97260714E290 */\n      0x1686616428c04907ab37a8987b7a97260714e290\n        /* \"contracts/zapyield-mainnet-alpha.sol\":2303:2315  mUSDC.redeem */\n      0xffffffffffffffffffffffffffffffffffffffff\n      and\n      0xdb006a75\n        /* \"contracts/zapyield-mainnet-alpha.sol\":2316:2322  shares */\n      dup4\n        /* \"contracts/zapyield-mainnet-alpha.sol\":2303:2323  mUSDC.redeem(shares) */\n      mload(0x40)\n      dup3\n      0xffffffff\n      and\n      0xe0\n      shl\n      dup2\n      mstore\n      0x04\n      add\n      tag_70\n      swap2\n      swap1\n      tag_27\n      jump\t// in\n    tag_70:\n      0x20\n      mload(0x40)\n      dup1\n      dup4\n      sub\n      dup2\n      0x00\n      dup8\n      gas\n      call\n      iszero\n      dup1\n      iszero\n      tag_72\n      jumpi\n      returndatasize\n      0x00\n      dup1\n      returndatacopy\n      revert(0x00, returndatasize)\n    tag_72:\n      pop\n      pop\n      pop\n      pop\n      mload(0x40)\n      returndatasize\n      not(0x1f)\n      0x1f\n      dup3\n      add\n      and\n      dup3\n      add\n      dup1\n      0x40\n      mstore\n      pop\n      dup2\n      add\n      swap1\n      tag_73\n      swap2\n      swap1\n      tag_74\n      jump\t// in\n    tag_73:\n        /* \"contracts/zapyield-mainnet-alpha.sol\":2303:2328  mUSDC.redeem(shares) == 0 */\n      eq\n        /* \"contracts/zapyield-mainnet-alpha.sol\":2295:2353  require(mUSDC.redeem(shares) == 0, \"Morpho Redeem failed\") */\n      tag_75\n      jumpi\n      mload(0x40)\n      0x08c379a000000000000000000000000000000000000000000000000000000000\n      dup2\n      mstore\n      0x04\n      add\n      tag_76\n      swap1\n      tag_77\n      jump\t// in\n    tag_76:\n      mload(0x40)\n      dup1\n      swap2\n      sub\n      swap1\n      revert\n    tag_75:\n        /* \"contracts/zapyield-mainnet-alpha.sol\":2363:2378  uint256 balance */\n      0x00\n        /* \"contracts/zapyield-mainnet-alpha.sol\":756:798  0x833589fCD6eDb6E08f4c7C32D4f71b54bdA02913 */\n      0x833589fcd6edb6e08f4c7c32d4f71b54bda02913\n        /* \"contracts/zapyield-mainnet-alpha.sol\":2381:2395  USDC.balanceOf */\n      0xffffffffffffffffffffffffffffffffffffffff\n      and\n      0x70a08231\n        /* \"contracts/zapyield-mainnet-alpha.sol\":2404:2408  this */\n      address\n        /* \"contracts/zapyield-mainnet-alpha.sol\":2381:2410  USDC.balanceOf(address(this)) */\n      mload(0x40)\n      dup3\n      0xffffffff\n      and\n      0xe0\n      shl\n      dup2\n      mstore\n      0x04\n      add\n      tag_78\n      swap2\n      swap1\n      tag_41\n      jump\t// in\n    tag_78:\n      0x20\n      mload(0x40)\n      dup1\n      dup4\n      sub\n      dup2\n      dup7\n      gas\n      staticcall\n      iszero\n      dup1\n      iszero\n      tag_80\n      jumpi\n      returndatasize\n      0x00\n      dup1\n      returndatacopy\n      revert(0x00, returndatasize)\n    tag_80:\n      pop\n      pop\n      pop\n      pop\n      mload(0x40)\n      returndatasize\n      not(0x1f)\n      0x1f\n      dup3\n      add\n      and\n      dup3\n      add\n      dup1\n      0x40\n      mstore\n      pop\n      dup2\n      add\n      swap1\n      tag_81\n      swap2\n      swap1\n      tag_74\n      jump\t// in\n    tag_81:\n        /* \"contracts/zapyield-mainnet-alpha.sol\":2363:2410  uint256 balance = USDC.balanceOf(address(this)) */\n      swap1\n      pop\n        /* \"contracts/zapyield-mainnet-alpha.sol\":2420:2458  USDC.safeTransfer(msg.sender, balance) */\n      tag_82\n        /* \"contracts/zapyield-mainnet-alpha.sol\":2438:2448  msg.sender */\n      caller\n        /* \"contracts/zapyield-mainnet-alpha.sol\":2450:2457  balance */\n      dup3\n        /* \"contracts/zapyield-mainnet-alpha.sol\":756:798  0x833589fCD6eDb6E08f4c7C32D4f71b54bdA02913 */\n      0x833589fcd6edb6e08f4c7c32d4f71b54bda02913\n        /* \"contracts/zapyield-mainnet-alpha.sol\":2420:2437  USDC.safeTransfer */\n      0xffffffffffffffffffffffffffffffffffffffff\n      and\n      tag_83\n      swap1\n        /* \"contracts/zapyield-mainnet-alpha.sol\":2420:2458  USDC.safeTransfer(msg.sender, balance) */\n      swap3\n      swap2\n      swap1\n      0xffffffff\n      and\n      jump\t// in\n    tag_82:\n        /* \"contracts/zapyield-mainnet-alpha.sol\":2075:2465  {... */\n      pop\n      pop\n      pop\n        /* \"@openzeppelin/contracts/security/ReentrancyGuard.sol\":2303:2323  _nonReentrantAfter() */\n      tag_84\n        /* \"@openzeppelin/contracts/security/ReentrancyGuard.sol\":2303:2321  _nonReentrantAfter */\n      tag_85\n        /* \"@openzeppelin/contracts/security/ReentrancyGuard.sol\":2303:2323  _nonReentrantAfter() */\n      jump\t// in\n    tag_84:\n        /* \"contracts/zapyield-mainnet-alpha.sol\":2035:2465  function zapOut() external nonReentrant {... */\n      jump\t// out\n        /* \"contracts/zapyield-mainnet-alpha.sol\":2665:2786  function getDownlines(address _user) external view returns (address[] memory) {... */\n    tag_21:\n        /* \"contracts/zapyield-mainnet-alpha.sol\":2725:2741  address[] memory */\n      0x60\n        /* \"contracts/zapyield-mainnet-alpha.sol\":2760:2772  referralList */\n      0x03\n        /* \"contracts/zapyield-mainnet-alpha.sol\":2760:2779  referralList[_user] */\n      0x00\n        /* \"contracts/zapyield-mainnet-alpha.sol\":2773:2778  _user */\n      dup4\n        /* \"contracts/zapyield-mainnet-alpha.sol\":2760:2779  referralList[_user] */\n      0xffffffffffffffffffffffffffffffffffffffff\n      and\n      0xffffffffffffffffffffffffffffffffffffffff\n      and\n      dup2\n      mstore\n      0x20\n      add\n      swap1\n      dup2\n      mstore\n      0x20\n      add\n      0x00\n      keccak256\n        /* \"contracts/zapyield-mainnet-alpha.sol\":2753:2779  return referralList[_user] */\n      dup1\n      sload\n      dup1\n      0x20\n      mul\n      0x20\n      add\n      mload(0x40)\n      swap1\n      dup2\n      add\n      0x40\n      mstore\n      dup1\n      swap3\n      swap2\n      swap1\n      dup2\n      dup2\n      mstore\n      0x20\n      add\n      dup3\n      dup1\n      sload\n      dup1\n      iszero\n      tag_87\n      jumpi\n      0x20\n      mul\n      dup3\n      add\n      swap2\n      swap1\n      0x00\n      mstore\n      keccak256(0x00, 0x20)\n      swap1\n    tag_88:\n      dup2\n      0x00\n      swap1\n      sload\n      swap1\n      0x0100\n      exp\n      swap1\n      div\n      0xffffffffffffffffffffffffffffffffffffffff\n      and\n      0xffffffffffffffffffffffffffffffffffffffff\n      and\n      dup2\n      mstore\n      0x20\n      add\n      swap1\n      0x01\n      add\n      swap1\n      dup1\n      dup4\n      gt\n      tag_88\n      jumpi\n    tag_87:\n      pop\n      pop\n      pop\n      pop\n      pop\n      swap1\n      pop\n        /* \"contracts/zapyield-mainnet-alpha.sol\":2665:2786  function getDownlines(address _user) external view returns (address[] memory) {... */\n      swap2\n      swap1\n      pop\n      jump\t// out\n        /* \"contracts/zapyield-mainnet-alpha.sol\":897:946  uint256 public constant MIN_INVESTMENT = 10 * 1e6 */\n    tag_25:\n        /* \"contracts/zapyield-mainnet-alpha.sol\":938:946  10 * 1e6 */\n      0x989680\n        /* \"contracts/zapyield-mainnet-alpha.sol\":897:946  uint256 public constant MIN_INVESTMENT = 10 * 1e6 */\n      dup2\n      jump\t// out\n        /* \"contracts/zapyield-mainnet-alpha.sol\":2471:2659  function getAccountValue(address _user) external view returns (uint256) {... */\n    tag_30:\n        /* \"contracts/zapyield-mainnet-alpha.sol\":2534:2541  uint256 */\n      0x00\n        /* \"contracts/zapyield-mainnet-alpha.sol\":2553:2565  uint256 rate */\n      dup1\n        /* \"contracts/zapyield-mainnet-alpha.sol\":846:888  0x1686616428c04907aB37A8987B7a97260714E290 */\n      0x1686616428c04907ab37a8987b7a97260714e290\n        /* \"contracts/zapyield-mainnet-alpha.sol\":2568:2592  mUSDC.exchangeRateStored */\n      0xffffffffffffffffffffffffffffffffffffffff\n      and\n      0x182df0f5\n        /* \"contracts/zapyield-mainnet-alpha.sol\":2568:2594  mUSDC.exchangeRateStored() */\n      mload(0x40)\n      dup2\n      0xffffffff\n      and\n      0xe0\n      shl\n      dup2\n      mstore\n      0x04\n      add\n      0x20\n      mload(0x40)\n      dup1\n      dup4\n      sub\n      dup2\n      dup7\n      gas\n      staticcall\n      iszero\n      dup1\n      iszero\n      tag_91\n      jumpi\n      returndatasize\n      0x00\n      dup1\n      returndatacopy\n      revert(0x00, returndatasize)\n    tag_91:\n      pop\n      pop\n      pop\n      pop\n      mload(0x40)\n      returndatasize\n      not(0x1f)\n      0x1f\n      dup3\n      add\n      and\n      dup3\n      add\n      dup1\n      0x40\n      mstore\n      pop\n      dup2\n      add\n      swap1\n      tag_92\n      swap2\n      swap1\n      tag_74\n      jump\t// in\n    tag_92:\n        /* \"contracts/zapyield-mainnet-alpha.sol\":2553:2594  uint256 rate = mUSDC.exchangeRateStored() */\n      swap1\n      pop\n        /* \"contracts/zapyield-mainnet-alpha.sol\":2648:2652  1e18 */\n      0x0de0b6b3a7640000\n        /* \"contracts/zapyield-mainnet-alpha.sol\":2640:2644  rate */\n      dup2\n        /* \"contracts/zapyield-mainnet-alpha.sol\":2612:2617  users */\n      0x02\n        /* \"contracts/zapyield-mainnet-alpha.sol\":2612:2624  users[_user] */\n      0x00\n        /* \"contracts/zapyield-mainnet-alpha.sol\":2618:2623  _user */\n      dup7\n        /* \"contracts/zapyield-mainnet-alpha.sol\":2612:2624  users[_user] */\n      0xffffffffffffffffffffffffffffffffffffffff\n      and\n      0xffffffffffffffffffffffffffffffffffffffff\n      and\n      dup2\n      mstore\n      0x20\n      add\n      swap1\n      dup2\n      mstore\n      0x20\n      add\n      0x00\n      keccak256\n        /* \"contracts/zapyield-mainnet-alpha.sol\":2612:2637  users[_user].shareBalance */\n      0x01\n      add\n      sload\n        /* \"contracts/zapyield-mainnet-alpha.sol\":2612:2644  users[_user].shareBalance * rate */\n      tag_93\n      swap2\n      swap1\n      tag_94\n      jump\t// in\n    tag_93:\n        /* \"contracts/zapyield-mainnet-alpha.sol\":2611:2652  (users[_user].shareBalance * rate) / 1e18 */\n      tag_95\n      swap2\n      swap1\n      tag_96\n      jump\t// in\n    tag_95:\n        /* \"contracts/zapyield-mainnet-alpha.sol\":2604:2652  return (users[_user].shareBalance * rate) / 1e18 */\n      swap2\n      pop\n      pop\n        /* \"contracts/zapyield-mainnet-alpha.sol\":2471:2659  function getAccountValue(address _user) external view returns (uint256) {... */\n      swap2\n      swap1\n      pop\n      jump\t// out\n        /* \"@openzeppelin/contracts/access/Ownable.sol\":2293:2394  function renounceOwnership() public virtual onlyOwner {... */\n    tag_33:\n        /* \"@openzeppelin/contracts/access/Ownable.sol\":1531:1544  _checkOwner() */\n      tag_98\n        /* \"@openzeppelin/contracts/access/Ownable.sol\":1531:1542  _checkOwner */\n      tag_99\n        /* \"@openzeppelin/contracts/access/Ownable.sol\":1531:1544  _checkOwner() */\n      jump\t// in\n    tag_98:\n        /* \"@openzeppelin/contracts/access/Ownable.sol\":2357:2387  _transferOwnership(address(0)) */\n      tag_101\n        /* \"@openzeppelin/contracts/access/Ownable.sol\":2384:2385  0 */\n      0x00\n        /* \"@openzeppelin/contracts/access/Ownable.sol\":2357:2375  _transferOwnership */\n      tag_102\n        /* \"@openzeppelin/contracts/access/Ownable.sol\":2357:2387  _transferOwnership(address(0)) */\n      jump\t// in\n    tag_101:\n        /* \"@openzeppelin/contracts/access/Ownable.sol\":2293:2394  function renounceOwnership() public virtual onlyOwner {... */\n      jump\t// out\n        /* \"contracts/zapyield-mainnet-alpha.sol\":719:799  IERC20 public constant USDC = IERC20(0x833589fCD6eDb6E08f4c7C32D4f71b54bdA02913) */\n    tag_35:\n        /* \"contracts/zapyield-mainnet-alpha.sol\":756:798  0x833589fCD6eDb6E08f4c7C32D4f71b54bdA02913 */\n      0x833589fcd6edb6e08f4c7c32d4f71b54bda02913\n        /* \"contracts/zapyield-mainnet-alpha.sol\":719:799  IERC20 public constant USDC = IERC20(0x833589fCD6eDb6E08f4c7C32D4f71b54bdA02913) */\n      dup2\n      jump\t// out\n        /* \"@openzeppelin/contracts/access/Ownable.sol\":1638:1723  function owner() public view virtual returns (address) {... */\n    tag_39:\n        /* \"@openzeppelin/contracts/access/Ownable.sol\":1684:1691  address */\n      0x00\n        /* \"@openzeppelin/contracts/access/Ownable.sol\":1710:1716  _owner */\n      dup1\n      0x00\n      swap1\n      sload\n      swap1\n      0x0100\n      exp\n      swap1\n      div\n      0xffffffffffffffffffffffffffffffffffffffff\n      and\n        /* \"@openzeppelin/contracts/access/Ownable.sol\":1703:1716  return _owner */\n      swap1\n      pop\n        /* \"@openzeppelin/contracts/access/Ownable.sol\":1638:1723  function owner() public view virtual returns (address) {... */\n      swap1\n      jump\t// out\n        /* \"contracts/zapyield-mainnet-alpha.sol\":1066:1107  mapping(address => UserInfo) public users */\n    tag_44:\n      mstore(0x20, 0x02)\n      dup1\n      0x00\n      mstore\n      keccak256(0x00, 0x40)\n      0x00\n      swap2\n      pop\n      swap1\n      pop\n      dup1\n      0x00\n      add\n      sload\n      swap1\n      dup1\n      0x01\n      add\n      sload\n      swap1\n      dup1\n      0x02\n      add\n      0x00\n      swap1\n      sload\n      swap1\n      0x0100\n      exp\n      swap1\n      div\n      0xffffffffffffffffffffffffffffffffffffffff\n      and\n      swap1\n      pop\n      dup4\n      jump\t// out\n        /* \"contracts/zapyield-mainnet-alpha.sol\":1113:1162  mapping(address => address[]) public referralList */\n    tag_50:\n      mstore(0x20, 0x03)\n      dup2\n      0x00\n      mstore\n      keccak256(0x00, 0x40)\n      dup2\n      dup2\n      sload\n      dup2\n      lt\n      tag_104\n      jumpi\n      0x00\n      dup1\n      revert\n    tag_104:\n      swap1\n      0x00\n      mstore\n      keccak256(0x00, 0x20)\n      add\n      0x00\n      swap2\n      pop\n      swap2\n      pop\n      swap1\n      sload\n      swap1\n      0x0100\n      exp\n      swap1\n      div\n      0xffffffffffffffffffffffffffffffffffffffff\n      and\n      dup2\n      jump\t// out\n        /* \"contracts/zapyield-mainnet-alpha.sol\":1211:2029  function zapIn(uint256 _amount, address _referrer) external nonReentrant {... */\n    tag_55:\n        /* \"@openzeppelin/contracts/security/ReentrancyGuard.sol\":2261:2282  _nonReentrantBefore() */\n      tag_107\n        /* \"@openzeppelin/contracts/security/ReentrancyGuard.sol\":2261:2280  _nonReentrantBefore */\n      tag_65\n        /* \"@openzeppelin/contracts/security/ReentrancyGuard.sol\":2261:2282  _nonReentrantBefore() */\n      jump\t// in\n    tag_107:\n        /* \"contracts/zapyield-mainnet-alpha.sol\":938:946  10 * 1e6 */\n      0x989680\n        /* \"contracts/zapyield-mainnet-alpha.sol\":1302:1309  _amount */\n      dup3\n        /* \"contracts/zapyield-mainnet-alpha.sol\":1302:1327  _amount >= MIN_INVESTMENT */\n      lt\n      iszero\n        /* \"contracts/zapyield-mainnet-alpha.sol\":1294:1343  require(_amount >= MIN_INVESTMENT, \"Min 10 USDC\") */\n      tag_109\n      jumpi\n      mload(0x40)\n      0x08c379a000000000000000000000000000000000000000000000000000000000\n      dup2\n      mstore\n      0x04\n      add\n      tag_110\n      swap1\n      tag_111\n      jump\t// in\n    tag_110:\n      mload(0x40)\n      dup1\n      swap2\n      sub\n      swap1\n      revert\n    tag_109:\n        /* \"contracts/zapyield-mainnet-alpha.sol\":1374:1384  msg.sender */\n      caller\n        /* \"contracts/zapyield-mainnet-alpha.sol\":1361:1384  _referrer != msg.sender */\n      0xffffffffffffffffffffffffffffffffffffffff\n      and\n        /* \"contracts/zapyield-mainnet-alpha.sol\":1361:1370  _referrer */\n      dup2\n        /* \"contracts/zapyield-mainnet-alpha.sol\":1361:1384  _referrer != msg.sender */\n      0xffffffffffffffffffffffffffffffffffffffff\n      and\n      sub\n        /* \"contracts/zapyield-mainnet-alpha.sol\":1353:1405  require(_referrer != msg.sender, \"No self-referral\") */\n      tag_112\n      jumpi\n      mload(0x40)\n      0x08c379a000000000000000000000000000000000000000000000000000000000\n      dup2\n      mstore\n      0x04\n      add\n      tag_113\n      swap1\n      tag_114\n      jump\t// in\n    tag_113:\n      mload(0x40)\n      dup1\n      swap2\n      sub\n      swap1\n      revert\n    tag_112:\n        /* \"contracts/zapyield-mainnet-alpha.sol\":1458:1459  0 */\n      0x00\n        /* \"contracts/zapyield-mainnet-alpha.sol\":1420:1460  users[msg.sender].referrer == address(0) */\n      0xffffffffffffffffffffffffffffffffffffffff\n      and\n        /* \"contracts/zapyield-mainnet-alpha.sol\":1420:1425  users */\n      0x02\n        /* \"contracts/zapyield-mainnet-alpha.sol\":1420:1437  users[msg.sender] */\n      0x00\n        /* \"contracts/zapyield-mainnet-alpha.sol\":1426:1436  msg.sender */\n      caller\n        /* \"contracts/zapyield-mainnet-alpha.sol\":1420:1437  users[msg.sender] */\n      0xffffffffffffffffffffffffffffffffffffffff\n      and\n      0xffffffffffffffffffffffffffffffffffffffff\n      and\n      dup2\n      mstore\n      0x20\n      add\n      swap1\n      dup2\n      mstore\n      0x20\n      add\n      0x00\n      keccak256\n        /* \"contracts/zapyield-mainnet-alpha.sol\":1420:1446  users[msg.sender].referrer */\n      0x02\n      add\n      0x00\n      swap1\n      sload\n      swap1\n      0x0100\n      exp\n      swap1\n      div\n      0xffffffffffffffffffffffffffffffffffffffff\n      and\n        /* \"contracts/zapyield-mainnet-alpha.sol\":1420:1460  users[msg.sender].referrer == address(0) */\n      0xffffffffffffffffffffffffffffffffffffffff\n      and\n      eq\n        /* \"contracts/zapyield-mainnet-alpha.sol\":1420:1487  users[msg.sender].referrer == address(0) && _referrer != address(0) */\n      dup1\n      iszero\n      tag_115\n      jumpi\n      pop\n        /* \"contracts/zapyield-mainnet-alpha.sol\":1485:1486  0 */\n      0x00\n        /* \"contracts/zapyield-mainnet-alpha.sol\":1464:1487  _referrer != address(0) */\n      0xffffffffffffffffffffffffffffffffffffffff\n      and\n        /* \"contracts/zapyield-mainnet-alpha.sol\":1464:1473  _referrer */\n      dup2\n        /* \"contracts/zapyield-mainnet-alpha.sol\":1464:1487  _referrer != address(0) */\n      0xffffffffffffffffffffffffffffffffffffffff\n      and\n      eq\n      iszero\n        /* \"contracts/zapyield-mainnet-alpha.sol\":1420:1487  users[msg.sender].referrer == address(0) && _referrer != address(0) */\n    tag_115:\n        /* \"contracts/zapyield-mainnet-alpha.sol\":1416:1606  if (users[msg.sender].referrer == address(0) && _referrer != address(0)) {... */\n      iszero\n      tag_116\n      jumpi\n        /* \"contracts/zapyield-mainnet-alpha.sol\":1532:1541  _referrer */\n      dup1\n        /* \"contracts/zapyield-mainnet-alpha.sol\":1503:1508  users */\n      0x02\n        /* \"contracts/zapyield-mainnet-alpha.sol\":1503:1520  users[msg.sender] */\n      0x00\n        /* \"contracts/zapyield-mainnet-alpha.sol\":1509:1519  msg.sender */\n      caller\n        /* \"contracts/zapyield-mainnet-alpha.sol\":1503:1520  users[msg.sender] */\n      0xffffffffffffffffffffffffffffffffffffffff\n      and\n      0xffffffffffffffffffffffffffffffffffffffff\n      and\n      dup2\n      mstore\n      0x20\n      add\n      swap1\n      dup2\n      mstore\n      0x20\n      add\n      0x00\n      keccak256\n        /* \"contracts/zapyield-mainnet-alpha.sol\":1503:1529  users[msg.sender].referrer */\n      0x02\n      add\n      0x00\n        /* \"contracts/zapyield-mainnet-alpha.sol\":1503:1541  users[msg.sender].referrer = _referrer */\n      0x0100\n      exp\n      dup2\n      sload\n      dup2\n      0xffffffffffffffffffffffffffffffffffffffff\n      mul\n      not\n      and\n      swap1\n      dup4\n      0xffffffffffffffffffffffffffffffffffffffff\n      and\n      mul\n      or\n      swap1\n      sstore\n      pop\n        /* \"contracts/zapyield-mainnet-alpha.sol\":1555:1567  referralList */\n      0x03\n        /* \"contracts/zapyield-mainnet-alpha.sol\":1555:1578  referralList[_referrer] */\n      0x00\n        /* \"contracts/zapyield-mainnet-alpha.sol\":1568:1577  _referrer */\n      dup3\n        /* \"contracts/zapyield-mainnet-alpha.sol\":1555:1578  referralList[_referrer] */\n      0xffffffffffffffffffffffffffffffffffffffff\n      and\n      0xffffffffffffffffffffffffffffffffffffffff\n      and\n      dup2\n      mstore\n      0x20\n      add\n      swap1\n      dup2\n      mstore\n      0x20\n      add\n      0x00\n      keccak256\n        /* \"contracts/zapyield-mainnet-alpha.sol\":1584:1594  msg.sender */\n      caller\n        /* \"contracts/zapyield-mainnet-alpha.sol\":1555:1595  referralList[_referrer].push(msg.sender) */\n      swap1\n      dup1\n      0x01\n      dup2\n      sload\n      add\n      dup1\n      dup3\n      sstore\n      dup1\n      swap2\n      pop\n      pop\n      0x01\n      swap1\n      sub\n      swap1\n      0x00\n      mstore\n      keccak256(0x00, 0x20)\n      add\n      0x00\n      swap1\n      swap2\n      swap1\n      swap2\n      swap1\n      swap2\n      0x0100\n      exp\n      dup2\n      sload\n      dup2\n      0xffffffffffffffffffffffffffffffffffffffff\n      mul\n      not\n      and\n      swap1\n      dup4\n      0xffffffffffffffffffffffffffffffffffffffff\n      and\n      mul\n      or\n      swap1\n      sstore\n      pop\n        /* \"contracts/zapyield-mainnet-alpha.sol\":1416:1606  if (users[msg.sender].referrer == address(0) && _referrer != address(0)) {... */\n    tag_116:\n        /* \"contracts/zapyield-mainnet-alpha.sol\":1616:1673  USDC.safeTransferFrom(msg.sender, address(this), _amount) */\n      tag_118\n        /* \"contracts/zapyield-mainnet-alpha.sol\":1638:1648  msg.sender */\n      caller\n        /* \"contracts/zapyield-mainnet-alpha.sol\":1658:1662  this */\n      address\n        /* \"contracts/zapyield-mainnet-alpha.sol\":1665:1672  _amount */\n      dup5\n        /* \"contracts/zapyield-mainnet-alpha.sol\":756:798  0x833589fCD6eDb6E08f4c7C32D4f71b54bdA02913 */\n      0x833589fcd6edb6e08f4c7c32d4f71b54bda02913\n        /* \"contracts/zapyield-mainnet-alpha.sol\":1616:1637  USDC.safeTransferFrom */\n      0xffffffffffffffffffffffffffffffffffffffff\n      and\n      tag_119\n      swap1\n        /* \"contracts/zapyield-mainnet-alpha.sol\":1616:1673  USDC.safeTransferFrom(msg.sender, address(this), _amount) */\n      swap4\n      swap3\n      swap2\n      swap1\n      0xffffffff\n      and\n      jump\t// in\n    tag_118:\n        /* \"contracts/zapyield-mainnet-alpha.sol\":756:798  0x833589fCD6eDb6E08f4c7C32D4f71b54bdA02913 */\n      0x833589fcd6edb6e08f4c7c32d4f71b54bda02913\n        /* \"contracts/zapyield-mainnet-alpha.sol\":1683:1695  USDC.approve */\n      0xffffffffffffffffffffffffffffffffffffffff\n      and\n      0x095ea7b3\n        /* \"contracts/zapyield-mainnet-alpha.sol\":846:888  0x1686616428c04907aB37A8987B7a97260714E290 */\n      0x1686616428c04907ab37a8987b7a97260714e290\n        /* \"contracts/zapyield-mainnet-alpha.sol\":1712:1719  _amount */\n      dup5\n        /* \"contracts/zapyield-mainnet-alpha.sol\":1683:1720  USDC.approve(address(mUSDC), _amount) */\n      mload(0x40)\n      dup4\n      0xffffffff\n      and\n      0xe0\n      shl\n      dup2\n      mstore\n      0x04\n      add\n      tag_120\n      swap3\n      swap2\n      swap1\n      tag_121\n      jump\t// in\n    tag_120:\n      0x20\n      mload(0x40)\n      dup1\n      dup4\n      sub\n      dup2\n      0x00\n      dup8\n      gas\n      call\n      iszero\n      dup1\n      iszero\n      tag_123\n      jumpi\n      returndatasize\n      0x00\n      dup1\n      returndatacopy\n      revert(0x00, returndatasize)\n    tag_123:\n      pop\n      pop\n      pop\n      pop\n      mload(0x40)\n      returndatasize\n      not(0x1f)\n      0x1f\n      dup3\n      add\n      and\n      dup3\n      add\n      dup1\n      0x40\n      mstore\n      pop\n      dup2\n      add\n      swap1\n      tag_124\n      swap2\n      swap1\n      tag_125\n      jump\t// in\n    tag_124:\n      pop\n        /* \"contracts/zapyield-mainnet-alpha.sol\":1739:1753  uint256 preBal */\n      0x00\n        /* \"contracts/zapyield-mainnet-alpha.sol\":846:888  0x1686616428c04907aB37A8987B7a97260714E290 */\n      0x1686616428c04907ab37a8987b7a97260714e290\n        /* \"contracts/zapyield-mainnet-alpha.sol\":1756:1771  mUSDC.balanceOf */\n      0xffffffffffffffffffffffffffffffffffffffff\n      and\n      0x70a08231\n        /* \"contracts/zapyield-mainnet-alpha.sol\":1780:1784  this */\n      address\n        /* \"contracts/zapyield-mainnet-alpha.sol\":1756:1786  mUSDC.balanceOf(address(this)) */\n      mload(0x40)\n      dup3\n      0xffffffff\n      and\n      0xe0\n      shl\n      dup2\n      mstore\n      0x04\n      add\n      tag_126\n      swap2\n      swap1\n      tag_41\n      jump\t// in\n    tag_126:\n      0x20\n      mload(0x40)\n      dup1\n      dup4\n      sub\n      dup2\n      dup7\n      gas\n      staticcall\n      iszero\n      dup1\n      iszero\n      tag_128\n      jumpi\n      returndatasize\n      0x00\n      dup1\n      returndatacopy\n      revert(0x00, returndatasize)\n    tag_128:\n      pop\n      pop\n      pop\n      pop\n      mload(0x40)\n      returndatasize\n      not(0x1f)\n      0x1f\n      dup3\n      add\n      and\n      dup3\n      add\n      dup1\n      0x40\n      mstore\n      pop\n      dup2\n      add\n      swap1\n      tag_129\n      swap2\n      swap1\n      tag_74\n      jump\t// in\n    tag_129:\n        /* \"contracts/zapyield-mainnet-alpha.sol\":1739:1786  uint256 preBal = mUSDC.balanceOf(address(this)) */\n      swap1\n      pop\n        /* \"contracts/zapyield-mainnet-alpha.sol\":1827:1828  0 */\n      0x00\n        /* \"contracts/zapyield-mainnet-alpha.sol\":846:888  0x1686616428c04907aB37A8987B7a97260714E290 */\n      0x1686616428c04907ab37a8987b7a97260714e290\n        /* \"contracts/zapyield-mainnet-alpha.sol\":1804:1814  mUSDC.mint */\n      0xffffffffffffffffffffffffffffffffffffffff\n      and\n      0xa0712d68\n        /* \"contracts/zapyield-mainnet-alpha.sol\":1815:1822  _amount */\n      dup6\n        /* \"contracts/zapyield-mainnet-alpha.sol\":1804:1823  mUSDC.mint(_amount) */\n      mload(0x40)\n      dup3\n      0xffffffff\n      and\n      0xe0\n      shl\n      dup2\n      mstore\n      0x04\n      add\n      tag_130\n      swap2\n      swap1\n      tag_27\n      jump\t// in\n    tag_130:\n      0x20\n      mload(0x40)\n      dup1\n      dup4\n      sub\n      dup2\n      0x00\n      dup8\n      gas\n      call\n      iszero\n      dup1\n      iszero\n      tag_132\n      jumpi\n      returndatasize\n      0x00\n      dup1\n      returndatacopy\n      revert(0x00, returndatasize)\n    tag_132:\n      pop\n      pop\n      pop\n      pop\n      mload(0x40)\n      returndatasize\n      not(0x1f)\n      0x1f\n      dup3\n      add\n      and\n      dup3\n      add\n      dup1\n      0x40\n      mstore\n      pop\n      dup2\n      add\n      swap1\n      tag_133\n      swap2\n      swap1\n      tag_74\n      jump\t// in\n    tag_133:\n        /* \"contracts/zapyield-mainnet-alpha.sol\":1804:1828  mUSDC.mint(_amount) == 0 */\n      eq\n        /* \"contracts/zapyield-mainnet-alpha.sol\":1796:1851  require(mUSDC.mint(_amount) == 0, \"Morpho Mint failed\") */\n      tag_134\n      jumpi\n      mload(0x40)\n      0x08c379a000000000000000000000000000000000000000000000000000000000\n      dup2\n      mstore\n      0x04\n      add\n      tag_135\n      swap1\n      tag_136\n      jump\t// in\n    tag_135:\n      mload(0x40)\n      dup1\n      swap2\n      sub\n      swap1\n      revert\n    tag_134:\n        /* \"contracts/zapyield-mainnet-alpha.sol\":1861:1878  uint256 newShares */\n      0x00\n        /* \"contracts/zapyield-mainnet-alpha.sol\":1914:1920  preBal */\n      dup2\n        /* \"contracts/zapyield-mainnet-alpha.sol\":846:888  0x1686616428c04907aB37A8987B7a97260714E290 */\n      0x1686616428c04907ab37a8987b7a97260714e290\n        /* \"contracts/zapyield-mainnet-alpha.sol\":1881:1896  mUSDC.balanceOf */\n      0xffffffffffffffffffffffffffffffffffffffff\n      and\n      0x70a08231\n        /* \"contracts/zapyield-mainnet-alpha.sol\":1905:1909  this */\n      address\n        /* \"contracts/zapyield-mainnet-alpha.sol\":1881:1911  mUSDC.balanceOf(address(this)) */\n      mload(0x40)\n      dup3\n      0xffffffff\n      and\n      0xe0\n      shl\n      dup2\n      mstore\n      0x04\n      add\n      tag_137\n      swap2\n      swap1\n      tag_41\n      jump\t// in\n    tag_137:\n      0x20\n      mload(0x40)\n      dup1\n      dup4\n      sub\n      dup2\n      dup7\n      gas\n      staticcall\n      iszero\n      dup1\n      iszero\n      tag_139\n      jumpi\n      returndatasize\n      0x00\n      dup1\n      returndatacopy\n      revert(0x00, returndatasize)\n    tag_139:\n      pop\n      pop\n      pop\n      pop\n      mload(0x40)\n      returndatasize\n      not(0x1f)\n      0x1f\n      dup3\n      add\n      and\n      dup3\n      add\n      dup1\n      0x40\n      mstore\n      pop\n      dup2\n      add\n      swap1\n      tag_140\n      swap2\n      swap1\n      tag_74\n      jump\t// in\n    tag_140:\n        /* \"contracts/zapyield-mainnet-alpha.sol\":1881:1920  mUSDC.balanceOf(address(this)) - preBal */\n      tag_141\n      swap2\n      swap1\n      tag_142\n      jump\t// in\n    tag_141:\n        /* \"contracts/zapyield-mainnet-alpha.sol\":1861:1920  uint256 newShares = mUSDC.balanceOf(address(this)) - preBal */\n      swap1\n      pop\n        /* \"contracts/zapyield-mainnet-alpha.sol\":1962:1969  _amount */\n      dup4\n        /* \"contracts/zapyield-mainnet-alpha.sol\":1931:1936  users */\n      0x02\n        /* \"contracts/zapyield-mainnet-alpha.sol\":1931:1948  users[msg.sender] */\n      0x00\n        /* \"contracts/zapyield-mainnet-alpha.sol\":1937:1947  msg.sender */\n      caller\n        /* \"contracts/zapyield-mainnet-alpha.sol\":1931:1948  users[msg.sender] */\n      0xffffffffffffffffffffffffffffffffffffffff\n      and\n      0xffffffffffffffffffffffffffffffffffffffff\n      and\n      dup2\n      mstore\n      0x20\n      add\n      swap1\n      dup2\n      mstore\n      0x20\n      add\n      0x00\n      keccak256\n        /* \"contracts/zapyield-mainnet-alpha.sol\":1931:1958  users[msg.sender].principal */\n      0x00\n      add\n      0x00\n        /* \"contracts/zapyield-mainnet-alpha.sol\":1931:1969  users[msg.sender].principal += _amount */\n      dup3\n      dup3\n      sload\n      tag_143\n      swap2\n      swap1\n      tag_144\n      jump\t// in\n    tag_143:\n      swap3\n      pop\n      pop\n      dup2\n      swap1\n      sstore\n      pop\n        /* \"contracts/zapyield-mainnet-alpha.sol\":2013:2022  newShares */\n      dup1\n        /* \"contracts/zapyield-mainnet-alpha.sol\":1979:1984  users */\n      0x02\n        /* \"contracts/zapyield-mainnet-alpha.sol\":1979:1996  users[msg.sender] */\n      0x00\n        /* \"contracts/zapyield-mainnet-alpha.sol\":1985:1995  msg.sender */\n      caller\n        /* \"contracts/zapyield-mainnet-alpha.sol\":1979:1996  users[msg.sender] */\n      0xffffffffffffffffffffffffffffffffffffffff\n      and\n      0xffffffffffffffffffffffffffffffffffffffff\n      and\n      dup2\n      mstore\n      0x20\n      add\n      swap1\n      dup2\n      mstore\n      0x20\n      add\n      0x00\n      keccak256\n        /* \"contracts/zapyield-mainnet-alpha.sol\":1979:2009  users[msg.sender].shareBalance */\n      0x01\n      add\n      0x00\n        /* \"contracts/zapyield-mainnet-alpha.sol\":1979:2022  users[msg.sender].shareBalance += newShares */\n      dup3\n      dup3\n      sload\n      tag_145\n      swap2\n      swap1\n      tag_144\n      jump\t// in\n    tag_145:\n      swap3\n      pop\n      pop\n      dup2\n      swap1\n      sstore\n      pop\n        /* \"contracts/zapyield-mainnet-alpha.sol\":1284:2029  {... */\n      pop\n      pop\n        /* \"@openzeppelin/contracts/security/ReentrancyGuard.sol\":2303:2323  _nonReentrantAfter() */\n      tag_146\n        /* \"@openzeppelin/contracts/security/ReentrancyGuard.sol\":2303:2321  _nonReentrantAfter */\n      tag_85\n        /* \"@openzeppelin/contracts/security/ReentrancyGuard.sol\":2303:2323  _nonReentrantAfter() */\n      jump\t// in\n    tag_146:\n        /* \"contracts/zapyield-mainnet-alpha.sol\":1211:2029  function zapIn(uint256 _amount, address _referrer) external nonReentrant {... */\n      pop\n      pop\n      jump\t// out\n        /* \"@openzeppelin/contracts/access/Ownable.sol\":2543:2758  function transferOwnership(address newOwner) public virtual onlyOwner {... */\n    tag_58:\n        /* \"@openzeppelin/contracts/access/Ownable.sol\":1531:1544  _checkOwner() */\n      tag_148\n        /* \"@openzeppelin/contracts/access/Ownable.sol\":1531:1542  _checkOwner */\n      tag_99\n        /* \"@openzeppelin/contracts/access/Ownable.sol\":1531:1544  _checkOwner() */\n      jump\t// in\n    tag_148:\n        /* \"@openzeppelin/contracts/access/Ownable.sol\":2647:2648  0 */\n      0x00\n        /* \"@openzeppelin/contracts/access/Ownable.sol\":2627:2649  newOwner == address(0) */\n      0xffffffffffffffffffffffffffffffffffffffff\n      and\n        /* \"@openzeppelin/contracts/access/Ownable.sol\":2627:2635  newOwner */\n      dup2\n        /* \"@openzeppelin/contracts/access/Ownable.sol\":2627:2649  newOwner == address(0) */\n      0xffffffffffffffffffffffffffffffffffffffff\n      and\n      sub\n        /* \"@openzeppelin/contracts/access/Ownable.sol\":2623:2714  if (newOwner == address(0)) {... */\n      tag_150\n      jumpi\n        /* \"@openzeppelin/contracts/access/Ownable.sol\":2700:2701  0 */\n      0x00\n        /* \"@openzeppelin/contracts/access/Ownable.sol\":2672:2703  OwnableInvalidOwner(address(0)) */\n      mload(0x40)\n      0x1e4fbdf700000000000000000000000000000000000000000000000000000000\n      dup2\n      mstore\n      0x04\n      add\n      tag_151\n      swap2\n      swap1\n      tag_41\n      jump\t// in\n    tag_151:\n      mload(0x40)\n      dup1\n      swap2\n      sub\n      swap1\n      revert\n        /* \"@openzeppelin/contracts/access/Ownable.sol\":2623:2714  if (newOwner == address(0)) {... */\n    tag_150:\n        /* \"@openzeppelin/contracts/access/Ownable.sol\":2723:2751  _transferOwnership(newOwner) */\n      tag_152\n        /* \"@openzeppelin/contracts/access/Ownable.sol\":2742:2750  newOwner */\n      dup2\n        /* \"@openzeppelin/contracts/access/Ownable.sol\":2723:2741  _transferOwnership */\n      tag_102\n        /* \"@openzeppelin/contracts/access/Ownable.sol\":2723:2751  _transferOwnership(newOwner) */\n      jump\t// in\n    tag_152:\n        /* \"@openzeppelin/contracts/access/Ownable.sol\":2543:2758  function transferOwnership(address newOwner) public virtual onlyOwner {... */\n      pop\n      jump\t// out\n        /* \"contracts/zapyield-mainnet-alpha.sol\":806:889  IMToken public constant mUSDC = IMToken(0x1686616428c04907aB37A8987B7a97260714E290) */\n    tag_60:\n        /* \"contracts/zapyield-mainnet-alpha.sol\":846:888  0x1686616428c04907aB37A8987B7a97260714E290 */\n      0x1686616428c04907ab37a8987b7a97260714e290\n        /* \"contracts/zapyield-mainnet-alpha.sol\":806:889  IMToken public constant mUSDC = IMToken(0x1686616428c04907aB37A8987B7a97260714E290) */\n      dup2\n      jump\t// out\n        /* \"@openzeppelin/contracts/security/ReentrancyGuard.sol\":2336:2623  function _nonReentrantBefore() private {... */\n    tag_65:\n        /* \"@openzeppelin/contracts/security/ReentrancyGuard.sol\":1759:1760  2 */\n      0x02\n        /* \"@openzeppelin/contracts/security/ReentrancyGuard.sol\":2468:2475  _status */\n      sload(0x01)\n        /* \"@openzeppelin/contracts/security/ReentrancyGuard.sol\":2468:2487  _status != _ENTERED */\n      sub\n        /* \"@openzeppelin/contracts/security/ReentrancyGuard.sol\":2460:2523  require(_status != _ENTERED, \"ReentrancyGuard: reentrant call\") */\n      tag_154\n      jumpi\n      mload(0x40)\n      0x08c379a000000000000000000000000000000000000000000000000000000000\n      dup2\n      mstore\n      0x04\n      add\n      tag_155\n      swap1\n      tag_156\n      jump\t// in\n    tag_155:\n      mload(0x40)\n      dup1\n      swap2\n      sub\n      swap1\n      revert\n    tag_154:\n        /* \"@openzeppelin/contracts/security/ReentrancyGuard.sol\":1759:1760  2 */\n      0x02\n        /* \"@openzeppelin/contracts/security/ReentrancyGuard.sol\":2598:2605  _status */\n      0x01\n        /* \"@openzeppelin/contracts/security/ReentrancyGuard.sol\":2598:2616  _status = _ENTERED */\n      dup2\n      swap1\n      sstore\n      pop\n        /* \"@openzeppelin/contracts/security/ReentrancyGuard.sol\":2336:2623  function _nonReentrantBefore() private {... */\n      jump\t// out\n        /* \"@openzeppelin/contracts/token/ERC20/utils/SafeERC20.sol\":1219:1379  function safeTransfer(IERC20 token, address to, uint256 value) internal {... */\n    tag_83:\n        /* \"@openzeppelin/contracts/token/ERC20/utils/SafeERC20.sol\":1301:1372  _callOptionalReturn(token, abi.encodeCall(token.transfer, (to, value))) */\n      tag_158\n        /* \"@openzeppelin/contracts/token/ERC20/utils/SafeERC20.sol\":1321:1326  token */\n      dup4\n        /* \"@openzeppelin/contracts/token/ERC20/utils/SafeERC20.sol\":1343:1348  token */\n      dup5\n        /* \"@openzeppelin/contracts/token/ERC20/utils/SafeERC20.sol\":1343:1357  token.transfer */\n      0xffffffffffffffffffffffffffffffffffffffff\n      and\n      0xa9059cbb\n        /* \"@openzeppelin/contracts/token/ERC20/utils/SafeERC20.sol\":1360:1362  to */\n      dup6\n        /* \"@openzeppelin/contracts/token/ERC20/utils/SafeERC20.sol\":1364:1369  value */\n      dup6\n        /* \"@openzeppelin/contracts/token/ERC20/utils/SafeERC20.sol\":1328:1371  abi.encodeCall(token.transfer, (to, value)) */\n      add(0x24, mload(0x40))\n      tag_159\n      swap3\n      swap2\n      swap1\n      tag_121\n      jump\t// in\n    tag_159:\n      mload(0x40)\n      0x20\n      dup2\n      dup4\n      sub\n      sub\n      dup2\n      mstore\n      swap1\n      0x40\n      mstore\n      swap2\n      pop\n      0xe0\n      shl\n      0x20\n      dup3\n      add\n      dup1\n      mload\n      0xffffffffffffffffffffffffffffffffffffffffffffffffffffffff\n      dup4\n      dup2\n      dup4\n      and\n      or\n      dup4\n      mstore\n      pop\n      pop\n      pop\n      pop\n        /* \"@openzeppelin/contracts/token/ERC20/utils/SafeERC20.sol\":1301:1320  _callOptionalReturn */\n      tag_160\n        /* \"@openzeppelin/contracts/token/ERC20/utils/SafeERC20.sol\":1301:1372  _callOptionalReturn(token, abi.encodeCall(token.transfer, (to, value))) */\n      jump\t// in\n    tag_158:\n        /* \"@openzeppelin/contracts/token/ERC20/utils/SafeERC20.sol\":1219:1379  function safeTransfer(IERC20 token, address to, uint256 value) internal {... */\n      pop\n      pop\n      pop\n      jump\t// out\n        /* \"@openzeppelin/contracts/security/ReentrancyGuard.sol\":2629:2838  function _nonReentrantAfter() private {... */\n    tag_85:\n        /* \"@openzeppelin/contracts/security/ReentrancyGuard.sol\":1716:1717  1 */\n      0x01\n        /* \"@openzeppelin/contracts/security/ReentrancyGuard.sol\":2809:2816  _status */\n      dup1\n        /* \"@openzeppelin/contracts/security/ReentrancyGuard.sol\":2809:2831  _status = _NOT_ENTERED */\n      dup2\n      swap1\n      sstore\n      pop\n        /* \"@openzeppelin/contracts/security/ReentrancyGuard.sol\":2629:2838  function _nonReentrantAfter() private {... */\n      jump\t// out\n        /* \"@openzeppelin/contracts/access/Ownable.sol\":1796:1958  function _checkOwner() internal view virtual {... */\n    tag_99:\n        /* \"@openzeppelin/contracts/access/Ownable.sol\":1866:1878  _msgSender() */\n      tag_163\n        /* \"@openzeppelin/contracts/access/Ownable.sol\":1866:1876  _msgSender */\n      tag_164\n        /* \"@openzeppelin/contracts/access/Ownable.sol\":1866:1878  _msgSender() */\n      jump\t// in\n    tag_163:\n        /* \"@openzeppelin/contracts/access/Ownable.sol\":1855:1878  owner() != _msgSender() */\n      0xffffffffffffffffffffffffffffffffffffffff\n      and\n        /* \"@openzeppelin/contracts/access/Ownable.sol\":1855:1862  owner() */\n      tag_165\n        /* \"@openzeppelin/contracts/access/Ownable.sol\":1855:1860  owner */\n      tag_39\n        /* \"@openzeppelin/contracts/access/Ownable.sol\":1855:1862  owner() */\n      jump\t// in\n    tag_165:\n        /* \"@openzeppelin/contracts/access/Ownable.sol\":1855:1878  owner() != _msgSender() */\n      0xffffffffffffffffffffffffffffffffffffffff\n      and\n      eq\n        /* \"@openzeppelin/contracts/access/Ownable.sol\":1851:1952  if (owner() != _msgSender()) {... */\n      tag_166\n      jumpi\n        /* \"@openzeppelin/contracts/access/Ownable.sol\":1928:1940  _msgSender() */\n      tag_167\n        /* \"@openzeppelin/contracts/access/Ownable.sol\":1928:1938  _msgSender */\n      tag_164\n        /* \"@openzeppelin/contracts/access/Ownable.sol\":1928:1940  _msgSender() */\n      jump\t// in\n    tag_167:\n        /* \"@openzeppelin/contracts/access/Ownable.sol\":1901:1941  OwnableUnauthorizedAccount(_msgSender()) */\n      mload(0x40)\n      0x118cdaa700000000000000000000000000000000000000000000000000000000\n      dup2\n      mstore\n      0x04\n      add\n      tag_168\n      swap2\n      swap1\n      tag_41\n      jump\t// in\n    tag_168:\n      mload(0x40)\n      dup1\n      swap2\n      sub\n      swap1\n      revert\n        /* \"@openzeppelin/contracts/access/Ownable.sol\":1851:1952  if (owner() != _msgSender()) {... */\n    tag_166:\n        /* \"@openzeppelin/contracts/access/Ownable.sol\":1796:1958  function _checkOwner() internal view virtual {... */\n      jump\t// out\n        /* \"@openzeppelin/contracts/access/Ownable.sol\":2912:3099  function _transferOwnership(address newOwner) internal virtual {... */\n    tag_102:\n        /* \"@openzeppelin/contracts/access/Ownable.sol\":2985:3001  address oldOwner */\n      0x00\n        /* \"@openzeppelin/contracts/access/Ownable.sol\":3004:3010  _owner */\n      dup1\n      0x00\n      swap1\n      sload\n      swap1\n      0x0100\n      exp\n      swap1\n      div\n      0xffffffffffffffffffffffffffffffffffffffff\n      and\n        /* \"@openzeppelin/contracts/access/Ownable.sol\":2985:3010  address oldOwner = _owner */\n      swap1\n      pop\n        /* \"@openzeppelin/contracts/access/Ownable.sol\":3029:3037  newOwner */\n      dup2\n        /* \"@openzeppelin/contracts/access/Ownable.sol\":3020:3026  _owner */\n      0x00\n      dup1\n        /* \"@openzeppelin/contracts/access/Ownable.sol\":3020:3037  _owner = newOwner */\n      0x0100\n      exp\n      dup2\n      sload\n      dup2\n      0xffffffffffffffffffffffffffffffffffffffff\n      mul\n      not\n      and\n      swap1\n      dup4\n      0xffffffffffffffffffffffffffffffffffffffff\n      and\n      mul\n      or\n      swap1\n      sstore\n      pop\n        /* \"@openzeppelin/contracts/access/Ownable.sol\":3083:3091  newOwner */\n      dup2\n        /* \"@openzeppelin/contracts/access/Ownable.sol\":3052:3092  OwnershipTransferred(oldOwner, newOwner) */\n      0xffffffffffffffffffffffffffffffffffffffff\n      and\n        /* \"@openzeppelin/contracts/access/Ownable.sol\":3073:3081  oldOwner */\n      dup2\n        /* \"@openzeppelin/contracts/access/Ownable.sol\":3052:3092  OwnershipTransferred(oldOwner, newOwner) */\n      0xffffffffffffffffffffffffffffffffffffffff\n      and\n      0x8be0079c531659141344cd1fd0a4f28419497f9722a3daafe3b4186f6b6457e0\n      mload(0x40)\n      mload(0x40)\n      dup1\n      swap2\n      sub\n      swap1\n      log3\n        /* \"@openzeppelin/contracts/access/Ownable.sol\":2975:3099  {... */\n      pop\n        /* \"@openzeppelin/contracts/access/Ownable.sol\":2912:3099  function _transferOwnership(address newOwner) internal virtual {... */\n      pop\n      jump\t// out\n        /* \"@openzeppelin/contracts/token/ERC20/utils/SafeERC20.sol\":1618:1806  function safeTransferFrom(IERC20 token, address from, address to, uint256 value) internal {... */\n    tag_119:\n        /* \"@openzeppelin/contracts/token/ERC20/utils/SafeERC20.sol\":1718:1799  _callOptionalReturn(token, abi.encodeCall(token.transferFrom, (from, to, value))) */\n      tag_171\n        /* \"@openzeppelin/contracts/token/ERC20/utils/SafeERC20.sol\":1738:1743  token */\n      dup5\n        /* \"@openzeppelin/contracts/token/ERC20/utils/SafeERC20.sol\":1760:1765  token */\n      dup6\n        /* \"@openzeppelin/contracts/token/ERC20/utils/SafeERC20.sol\":1760:1778  token.transferFrom */\n      0xffffffffffffffffffffffffffffffffffffffff\n      and\n      0x23b872dd\n        /* \"@openzeppelin/contracts/token/ERC20/utils/SafeERC20.sol\":1781:1785  from */\n      dup7\n        /* \"@openzeppelin/contracts/token/ERC20/utils/SafeERC20.sol\":1787:1789  to */\n      dup7\n        /* \"@openzeppelin/contracts/token/ERC20/utils/SafeERC20.sol\":1791:1796  value */\n      dup7\n        /* \"@openzeppelin/contracts/token/ERC20/utils/SafeERC20.sol\":1745:1798  abi.encodeCall(token.transferFrom, (from, to, value)) */\n      add(0x24, mload(0x40))\n      tag_172\n      swap4\n      swap3\n      swap2\n      swap1\n      tag_173\n      jump\t// in\n    tag_172:\n      mload(0x40)\n      0x20\n      dup2\n      dup4\n      sub\n      sub\n      dup2\n      mstore\n      swap1\n      0x40\n      mstore\n      swap2\n      pop\n      0xe0\n      shl\n      0x20\n      dup3\n      add\n      dup1\n      mload\n      0xffffffffffffffffffffffffffffffffffffffffffffffffffffffff\n      dup4\n      dup2\n      dup4\n      and\n      or\n      dup4\n      mstore\n      pop\n      pop\n      pop\n      pop\n        /* \"@openzeppelin/contracts/token/ERC20/utils/SafeERC20.sol\":1718:1737  _callOptionalReturn */\n      tag_160\n        /* \"@openzeppelin/contracts/token/ERC20/utils/SafeERC20.sol\":1718:1799  _callOptionalReturn(token, abi.encodeCall(token.transferFrom, (from, to, value))) */\n      jump\t// in\n    tag_171:\n        /* \"@openzeppelin/contracts/token/ERC20/utils/SafeERC20.sol\":1618:1806  function safeTransferFrom(IERC20 token, address from, address to, uint256 value) internal {... */\n      pop\n      pop\n      pop\n      pop\n      jump\t// out\n        /* \"@openzeppelin/contracts/token/ERC20/utils/SafeERC20.sol\":8370:9090  function _callOptionalReturn(IERC20 token, bytes memory data) private {... */\n    tag_160:\n        /* \"@openzeppelin/contracts/token/ERC20/utils/SafeERC20.sol\":8450:8468  uint256 returnSize */\n      0x00\n        /* \"@openzeppelin/contracts/token/ERC20/utils/SafeERC20.sol\":8478:8497  uint256 returnValue */\n      dup1\n        /* \"@openzeppelin/contracts/token/ERC20/utils/SafeERC20.sol\":8616:8620  0x20 */\n      0x20\n        /* \"@openzeppelin/contracts/token/ERC20/utils/SafeERC20.sol\":8613:8614  0 */\n      0x00\n        /* \"@openzeppelin/contracts/token/ERC20/utils/SafeERC20.sol\":8606:8610  data */\n      dup5\n        /* \"@openzeppelin/contracts/token/ERC20/utils/SafeERC20.sol\":8600:8611  mload(data) */\n      mload\n        /* \"@openzeppelin/contracts/token/ERC20/utils/SafeERC20.sol\":8593:8597  0x20 */\n      0x20\n        /* \"@openzeppelin/contracts/token/ERC20/utils/SafeERC20.sol\":8587:8591  data */\n      dup7\n        /* \"@openzeppelin/contracts/token/ERC20/utils/SafeERC20.sol\":8583:8598  add(data, 0x20) */\n      add\n        /* \"@openzeppelin/contracts/token/ERC20/utils/SafeERC20.sol\":8580:8581  0 */\n      0x00\n        /* \"@openzeppelin/contracts/token/ERC20/utils/SafeERC20.sol\":8573:8578  token */\n      dup9\n        /* \"@openzeppelin/contracts/token/ERC20/utils/SafeERC20.sol\":8566:8571  gas() */\n      gas\n        /* \"@openzeppelin/contracts/token/ERC20/utils/SafeERC20.sol\":8561:8621  call(gas(), token, 0, add(data, 0x20), mload(data), 0, 0x20) */\n      call\n        /* \"@openzeppelin/contracts/token/ERC20/utils/SafeERC20.sol\":8673:8680  success */\n      dup1\n        /* \"@openzeppelin/contracts/token/ERC20/utils/SafeERC20.sol\":8663:8839  if iszero(success) {... */\n      tag_175\n      jumpi\n        /* \"@openzeppelin/contracts/token/ERC20/utils/SafeERC20.sol\":8717:8721  0x40 */\n      0x40\n        /* \"@openzeppelin/contracts/token/ERC20/utils/SafeERC20.sol\":8711:8722  mload(0x40) */\n      mload\n        /* \"@openzeppelin/contracts/token/ERC20/utils/SafeERC20.sol\":8762:8778  returndatasize() */\n      returndatasize\n        /* \"@openzeppelin/contracts/token/ERC20/utils/SafeERC20.sol\":8759:8760  0 */\n      0x00\n        /* \"@openzeppelin/contracts/token/ERC20/utils/SafeERC20.sol\":8754:8757  ptr */\n      dup3\n        /* \"@openzeppelin/contracts/token/ERC20/utils/SafeERC20.sol\":8739:8779  returndatacopy(ptr, 0, returndatasize()) */\n      returndatacopy\n        /* \"@openzeppelin/contracts/token/ERC20/utils/SafeERC20.sol\":8808:8824  returndatasize() */\n      returndatasize\n        /* \"@openzeppelin/contracts/token/ERC20/utils/SafeERC20.sol\":8803:8806  ptr */\n      dup2\n        /* \"@openzeppelin/contracts/token/ERC20/utils/SafeERC20.sol\":8796:8825  revert(ptr, returndatasize()) */\n      revert\n        /* \"@openzeppelin/contracts/token/ERC20/utils/SafeERC20.sol\":8663:8839  if iszero(success) {... */\n    tag_175:\n        /* \"@openzeppelin/contracts/token/ERC20/utils/SafeERC20.sol\":8866:8882  returndatasize() */\n      returndatasize\n        /* \"@openzeppelin/contracts/token/ERC20/utils/SafeERC20.sol\":8852:8882  returnSize := returndatasize() */\n      swap3\n      pop\n        /* \"@openzeppelin/contracts/token/ERC20/utils/SafeERC20.sol\":8916:8917  0 */\n      0x00\n        /* \"@openzeppelin/contracts/token/ERC20/utils/SafeERC20.sol\":8910:8918  mload(0) */\n      mload\n        /* \"@openzeppelin/contracts/token/ERC20/utils/SafeERC20.sol\":8895:8918  returnValue := mload(0) */\n      swap2\n      pop\n        /* \"@openzeppelin/contracts/token/ERC20/utils/SafeERC20.sol\":8532:8928  {... */\n      pop\n        /* \"@openzeppelin/contracts/token/ERC20/utils/SafeERC20.sol\":8956:8957  0 */\n      0x00\n        /* \"@openzeppelin/contracts/token/ERC20/utils/SafeERC20.sol\":8942:8952  returnSize */\n      dup3\n        /* \"@openzeppelin/contracts/token/ERC20/utils/SafeERC20.sol\":8942:8957  returnSize == 0 */\n      eq\n        /* \"@openzeppelin/contracts/token/ERC20/utils/SafeERC20.sol\":8942:9010  returnSize == 0 ? address(token).code.length == 0 : returnValue != 1 */\n      tag_176\n      jumpi\n        /* \"@openzeppelin/contracts/token/ERC20/utils/SafeERC20.sol\":9009:9010  1 */\n      0x01\n        /* \"@openzeppelin/contracts/token/ERC20/utils/SafeERC20.sol\":8994:9005  returnValue */\n      dup2\n        /* \"@openzeppelin/contracts/token/ERC20/utils/SafeERC20.sol\":8994:9010  returnValue != 1 */\n      eq\n      iszero\n        /* \"@openzeppelin/contracts/token/ERC20/utils/SafeERC20.sol\":8942:9010  returnSize == 0 ? address(token).code.length == 0 : returnValue != 1 */\n      jump(tag_177)\n    tag_176:\n        /* \"@openzeppelin/contracts/token/ERC20/utils/SafeERC20.sol\":8990:8991  0 */\n      0x00\n        /* \"@openzeppelin/contracts/token/ERC20/utils/SafeERC20.sol\":8968:8973  token */\n      dup5\n        /* \"@openzeppelin/contracts/token/ERC20/utils/SafeERC20.sol\":8960:8986  address(token).code.length */\n      0xffffffffffffffffffffffffffffffffffffffff\n      and\n      extcodesize\n        /* \"@openzeppelin/contracts/token/ERC20/utils/SafeERC20.sol\":8960:8991  address(token).code.length == 0 */\n      eq\n        /* \"@openzeppelin/contracts/token/ERC20/utils/SafeERC20.sol\":8942:9010  returnSize == 0 ? address(token).code.length == 0 : returnValue != 1 */\n    tag_177:\n        /* \"@openzeppelin/contracts/token/ERC20/utils/SafeERC20.sol\":8938:9084  if (returnSize == 0 ? address(token).code.length == 0 : returnValue != 1) {... */\n      iszero\n      tag_178\n      jumpi\n        /* \"@openzeppelin/contracts/token/ERC20/utils/SafeERC20.sol\":9066:9071  token */\n      dup4\n        /* \"@openzeppelin/contracts/token/ERC20/utils/SafeERC20.sol\":9033:9073  SafeERC20FailedOperation(address(token)) */\n      mload(0x40)\n      0x5274afe700000000000000000000000000000000000000000000000000000000\n      dup2\n      mstore\n      0x04\n      add\n      tag_179\n      swap2\n      swap1\n      tag_41\n      jump\t// in\n    tag_179:\n      mload(0x40)\n      dup1\n      swap2\n      sub\n      swap1\n      revert\n        /* \"@openzeppelin/contracts/token/ERC20/utils/SafeERC20.sol\":8938:9084  if (returnSize == 0 ? address(token).code.length == 0 : returnValue != 1) {... */\n    tag_178:\n        /* \"@openzeppelin/contracts/token/ERC20/utils/SafeERC20.sol\":8440:9090  {... */\n      pop\n      pop\n        /* \"@openzeppelin/contracts/token/ERC20/utils/SafeERC20.sol\":8370:9090  function _callOptionalReturn(IERC20 token, bytes memory data) private {... */\n      pop\n      pop\n      jump\t// out\n        /* \"@openzeppelin/contracts/utils/Context.sol\":656:752  function _msgSender() internal view virtual returns (address) {... */\n    tag_164:\n        /* \"@openzeppelin/contracts/utils/Context.sol\":709:716  address */\n      0x00\n        /* \"@openzeppelin/contracts/utils/Context.sol\":735:745  msg.sender */\n      caller\n        /* \"@openzeppelin/contracts/utils/Context.sol\":728:745  return msg.sender */\n      swap1\n      pop\n        /* \"@openzeppelin/contracts/utils/Context.sol\":656:752  function _msgSender() internal view virtual returns (address) {... */\n      swap1\n      jump\t// out\n        /* \"#utility.yul\":88:205   */\n    tag_182:\n        /* \"#utility.yul\":197:198   */\n      0x00\n        /* \"#utility.yul\":194:195   */\n      dup1\n        /* \"#utility.yul\":187:199   */\n      revert\n        /* \"#utility.yul\":334:460   */\n    tag_184:\n        /* \"#utility.yul\":371:378   */\n      0x00\n        /* \"#utility.yul\":411:453   */\n      0xffffffffffffffffffffffffffffffffffffffff\n        /* \"#utility.yul\":404:409   */\n      dup3\n        /* \"#utility.yul\":400:454   */\n      and\n        /* \"#utility.yul\":389:454   */\n      swap1\n      pop\n        /* \"#utility.yul\":334:460   */\n      swap2\n      swap1\n      pop\n      jump\t// out\n        /* \"#utility.yul\":466:562   */\n    tag_185:\n        /* \"#utility.yul\":503:510   */\n      0x00\n        /* \"#utility.yul\":532:556   */\n      tag_232\n        /* \"#utility.yul\":550:555   */\n      dup3\n        /* \"#utility.yul\":532:556   */\n      tag_184\n      jump\t// in\n    tag_232:\n        /* \"#utility.yul\":521:556   */\n      swap1\n      pop\n        /* \"#utility.yul\":466:562   */\n      swap2\n      swap1\n      pop\n      jump\t// out\n        /* \"#utility.yul\":568:690   */\n    tag_186:\n        /* \"#utility.yul\":641:665   */\n      tag_234\n        /* \"#utility.yul\":659:664   */\n      dup2\n        /* \"#utility.yul\":641:665   */\n      tag_185\n      jump\t// in\n    tag_234:\n        /* \"#utility.yul\":634:639   */\n      dup2\n        /* \"#utility.yul\":631:666   */\n      eq\n        /* \"#utility.yul\":621:684   */\n      tag_235\n      jumpi\n        /* \"#utility.yul\":680:681   */\n      0x00\n        /* \"#utility.yul\":677:678   */\n      dup1\n        /* \"#utility.yul\":670:682   */\n      revert\n        /* \"#utility.yul\":621:684   */\n    tag_235:\n        /* \"#utility.yul\":568:690   */\n      pop\n      jump\t// out\n        /* \"#utility.yul\":696:835   */\n    tag_187:\n        /* \"#utility.yul\":742:747   */\n      0x00\n        /* \"#utility.yul\":780:786   */\n      dup2\n        /* \"#utility.yul\":767:787   */\n      calldataload\n        /* \"#utility.yul\":758:787   */\n      swap1\n      pop\n        /* \"#utility.yul\":796:829   */\n      tag_237\n        /* \"#utility.yul\":823:828   */\n      dup2\n        /* \"#utility.yul\":796:829   */\n      tag_186\n      jump\t// in\n    tag_237:\n        /* \"#utility.yul\":696:835   */\n      swap3\n      swap2\n      pop\n      pop\n      jump\t// out\n        /* \"#utility.yul\":841:1170   */\n    tag_20:\n        /* \"#utility.yul\":900:906   */\n      0x00\n        /* \"#utility.yul\":949:951   */\n      0x20\n        /* \"#utility.yul\":937:946   */\n      dup3\n        /* \"#utility.yul\":928:935   */\n      dup5\n        /* \"#utility.yul\":924:947   */\n      sub\n        /* \"#utility.yul\":920:952   */\n      slt\n        /* \"#utility.yul\":917:1036   */\n      iszero\n      tag_239\n      jumpi\n        /* \"#utility.yul\":955:1034   */\n      tag_240\n      tag_182\n      jump\t// in\n    tag_240:\n        /* \"#utility.yul\":917:1036   */\n    tag_239:\n        /* \"#utility.yul\":1075:1076   */\n      0x00\n        /* \"#utility.yul\":1100:1153   */\n      tag_241\n        /* \"#utility.yul\":1145:1152   */\n      dup5\n        /* \"#utility.yul\":1136:1142   */\n      dup3\n        /* \"#utility.yul\":1125:1134   */\n      dup6\n        /* \"#utility.yul\":1121:1143   */\n      add\n        /* \"#utility.yul\":1100:1153   */\n      tag_187\n      jump\t// in\n    tag_241:\n        /* \"#utility.yul\":1090:1153   */\n      swap2\n      pop\n        /* \"#utility.yul\":1046:1163   */\n      pop\n        /* \"#utility.yul\":841:1170   */\n      swap3\n      swap2\n      pop\n      pop\n      jump\t// out\n        /* \"#utility.yul\":1176:1290   */\n    tag_188:\n        /* \"#utility.yul\":1243:1249   */\n      0x00\n        /* \"#utility.yul\":1277:1282   */\n      dup2\n        /* \"#utility.yul\":1271:1283   */\n      mload\n        /* \"#utility.yul\":1261:1283   */\n      swap1\n      pop\n        /* \"#utility.yul\":1176:1290   */\n      swap2\n      swap1\n      pop\n      jump\t// out\n        /* \"#utility.yul\":1296:1480   */\n    tag_189:\n        /* \"#utility.yul\":1395:1406   */\n      0x00\n        /* \"#utility.yul\":1429:1435   */\n      dup3\n        /* \"#utility.yul\":1424:1427   */\n      dup3\n        /* \"#utility.yul\":1417:1436   */\n      mstore\n        /* \"#utility.yul\":1469:1473   */\n      0x20\n        /* \"#utility.yul\":1464:1467   */\n      dup3\n        /* \"#utility.yul\":1460:1474   */\n      add\n        /* \"#utility.yul\":1445:1474   */\n      swap1\n      pop\n        /* \"#utility.yul\":1296:1480   */\n      swap3\n      swap2\n      pop\n      pop\n      jump\t// out\n        /* \"#utility.yul\":1486:1618   */\n    tag_190:\n        /* \"#utility.yul\":1553:1557   */\n      0x00\n        /* \"#utility.yul\":1576:1579   */\n      dup2\n        /* \"#utility.yul\":1568:1579   */\n      swap1\n      pop\n        /* \"#utility.yul\":1606:1610   */\n      0x20\n        /* \"#utility.yul\":1601:1604   */\n      dup3\n        /* \"#utility.yul\":1597:1611   */\n      add\n        /* \"#utility.yul\":1589:1611   */\n      swap1\n      pop\n        /* \"#utility.yul\":1486:1618   */\n      swap2\n      swap1\n      pop\n      jump\t// out\n        /* \"#utility.yul\":1624:1732   */\n    tag_191:\n        /* \"#utility.yul\":1701:1725   */\n      tag_246\n        /* \"#utility.yul\":1719:1724   */\n      dup2\n        /* \"#utility.yul\":1701:1725   */\n      tag_185\n      jump\t// in\n    tag_246:\n        /* \"#utility.yul\":1696:1699   */\n      dup3\n        /* \"#utility.yul\":1689:1726   */\n      mstore\n        /* \"#utility.yul\":1624:1732   */\n      pop\n      pop\n      jump\t// out\n        /* \"#utility.yul\":1738:1917   */\n    tag_192:\n        /* \"#utility.yul\":1807:1817   */\n      0x00\n        /* \"#utility.yul\":1828:1874   */\n      tag_248\n        /* \"#utility.yul\":1870:1873   */\n      dup4\n        /* \"#utility.yul\":1862:1868   */\n      dup4\n        /* \"#utility.yul\":1828:1874   */\n      tag_191\n      jump\t// in\n    tag_248:\n        /* \"#utility.yul\":1906:1910   */\n      0x20\n        /* \"#utility.yul\":1901:1904   */\n      dup4\n        /* \"#utility.yul\":1897:1911   */\n      add\n        /* \"#utility.yul\":1883:1911   */\n      swap1\n      pop\n        /* \"#utility.yul\":1738:1917   */\n      swap3\n      swap2\n      pop\n      pop\n      jump\t// out\n        /* \"#utility.yul\":1923:2036   */\n    tag_193:\n        /* \"#utility.yul\":1993:1997   */\n      0x00\n        /* \"#utility.yul\":2025:2029   */\n      0x20\n        /* \"#utility.yul\":2020:2023   */\n      dup3\n        /* \"#utility.yul\":2016:2030   */\n      add\n        /* \"#utility.yul\":2008:2030   */\n      swap1\n      pop\n        /* \"#utility.yul\":1923:2036   */\n      swap2\n      swap1\n      pop\n      jump\t// out\n        /* \"#utility.yul\":2072:2804   */\n    tag_194:\n        /* \"#utility.yul\":2191:2194   */\n      0x00\n        /* \"#utility.yul\":2220:2274   */\n      tag_251\n        /* \"#utility.yul\":2268:2273   */\n      dup3\n        /* \"#utility.yul\":2220:2274   */\n      tag_188\n      jump\t// in\n    tag_251:\n        /* \"#utility.yul\":2290:2376   */\n      tag_252\n        /* \"#utility.yul\":2369:2375   */\n      dup2\n        /* \"#utility.yul\":2364:2367   */\n      dup6\n        /* \"#utility.yul\":2290:2376   */\n      tag_189\n      jump\t// in\n    tag_252:\n        /* \"#utility.yul\":2283:2376   */\n      swap4\n      pop\n        /* \"#utility.yul\":2400:2456   */\n      tag_253\n        /* \"#utility.yul\":2450:2455   */\n      dup4\n        /* \"#utility.yul\":2400:2456   */\n      tag_190\n      jump\t// in\n    tag_253:\n        /* \"#utility.yul\":2479:2486   */\n      dup1\n        /* \"#utility.yul\":2510:2511   */\n      0x00\n        /* \"#utility.yul\":2495:2779   */\n    tag_254:\n        /* \"#utility.yul\":2520:2526   */\n      dup4\n        /* \"#utility.yul\":2517:2518   */\n      dup2\n        /* \"#utility.yul\":2514:2527   */\n      lt\n        /* \"#utility.yul\":2495:2779   */\n      iszero\n      tag_256\n      jumpi\n        /* \"#utility.yul\":2596:2602   */\n      dup2\n        /* \"#utility.yul\":2590:2603   */\n      mload\n        /* \"#utility.yul\":2623:2686   */\n      tag_257\n        /* \"#utility.yul\":2682:2685   */\n      dup9\n        /* \"#utility.yul\":2667:2680   */\n      dup3\n        /* \"#utility.yul\":2623:2686   */\n      tag_192\n      jump\t// in\n    tag_257:\n        /* \"#utility.yul\":2616:2686   */\n      swap8\n      pop\n        /* \"#utility.yul\":2709:2769   */\n      tag_258\n        /* \"#utility.yul\":2762:2768   */\n      dup4\n        /* \"#utility.yul\":2709:2769   */\n      tag_193\n      jump\t// in\n    tag_258:\n        /* \"#utility.yul\":2699:2769   */\n      swap3\n      pop\n        /* \"#utility.yul\":2555:2779   */\n      pop\n        /* \"#utility.yul\":2542:2543   */\n      0x01\n        /* \"#utility.yul\":2539:2540   */\n      dup2\n        /* \"#utility.yul\":2535:2544   */\n      add\n        /* \"#utility.yul\":2530:2544   */\n      swap1\n      pop\n        /* \"#utility.yul\":2495:2779   */\n      jump(tag_254)\n    tag_256:\n        /* \"#utility.yul\":2499:2513   */\n      pop\n        /* \"#utility.yul\":2795:2798   */\n      dup6\n        /* \"#utility.yul\":2788:2798   */\n      swap4\n      pop\n        /* \"#utility.yul\":2196:2804   */\n      pop\n      pop\n      pop\n        /* \"#utility.yul\":2072:2804   */\n      swap3\n      swap2\n      pop\n      pop\n      jump\t// out\n        /* \"#utility.yul\":2810:3183   */\n    tag_23:\n        /* \"#utility.yul\":2953:2957   */\n      0x00\n        /* \"#utility.yul\":2991:2993   */\n      0x20\n        /* \"#utility.yul\":2980:2989   */\n      dup3\n        /* \"#utility.yul\":2976:2994   */\n      add\n        /* \"#utility.yul\":2968:2994   */\n      swap1\n      pop\n        /* \"#utility.yul\":3040:3049   */\n      dup2\n        /* \"#utility.yul\":3034:3038   */\n      dup2\n        /* \"#utility.yul\":3030:3050   */\n      sub\n        /* \"#utility.yul\":3026:3027   */\n      0x00\n        /* \"#utility.yul\":3015:3024   */\n      dup4\n        /* \"#utility.yul\":3011:3028   */\n      add\n        /* \"#utility.yul\":3004:3051   */\n      mstore\n        /* \"#utility.yul\":3068:3176   */\n      tag_260\n        /* \"#utility.yul\":3171:3175   */\n      dup2\n        /* \"#utility.yul\":3162:3168   */\n      dup5\n        /* \"#utility.yul\":3068:3176   */\n      tag_194\n      jump\t// in\n    tag_260:\n        /* \"#utility.yul\":3060:3176   */\n      swap1\n      pop\n        /* \"#utility.yul\":2810:3183   */\n      swap3\n      swap2\n      pop\n      pop\n      jump\t// out\n        /* \"#utility.yul\":3189:3266   */\n    tag_195:\n        /* \"#utility.yul\":3226:3233   */\n      0x00\n        /* \"#utility.yul\":3255:3260   */\n      dup2\n        /* \"#utility.yul\":3244:3260   */\n      swap1\n      pop\n        /* \"#utility.yul\":3189:3266   */\n      swap2\n      swap1\n      pop\n      jump\t// out\n        /* \"#utility.yul\":3272:3390   */\n    tag_196:\n        /* \"#utility.yul\":3359:3383   */\n      tag_263\n        /* \"#utility.yul\":3377:3382   */\n      dup2\n        /* \"#utility.yul\":3359:3383   */\n      tag_195\n      jump\t// in\n    tag_263:\n        /* \"#utility.yul\":3354:3357   */\n      dup3\n        /* \"#utility.yul\":3347:3384   */\n      mstore\n        /* \"#utility.yul\":3272:3390   */\n      pop\n      pop\n      jump\t// out\n        /* \"#utility.yul\":3396:3618   */\n    tag_27:\n        /* \"#utility.yul\":3489:3493   */\n      0x00\n        /* \"#utility.yul\":3527:3529   */\n      0x20\n        /* \"#utility.yul\":3516:3525   */\n      dup3\n        /* \"#utility.yul\":3512:3530   */\n      add\n        /* \"#utility.yul\":3504:3530   */\n      swap1\n      pop\n        /* \"#utility.yul\":3540:3611   */\n      tag_265\n        /* \"#utility.yul\":3608:3609   */\n      0x00\n        /* \"#utility.yul\":3597:3606   */\n      dup4\n        /* \"#utility.yul\":3593:3610   */\n      add\n        /* \"#utility.yul\":3584:3590   */\n      dup5\n        /* \"#utility.yul\":3540:3611   */\n      tag_196\n      jump\t// in\n    tag_265:\n        /* \"#utility.yul\":3396:3618   */\n      swap3\n      swap2\n      pop\n      pop\n      jump\t// out\n        /* \"#utility.yul\":3624:3684   */\n    tag_197:\n        /* \"#utility.yul\":3652:3655   */\n      0x00\n        /* \"#utility.yul\":3673:3678   */\n      dup2\n        /* \"#utility.yul\":3666:3678   */\n      swap1\n      pop\n        /* \"#utility.yul\":3624:3684   */\n      swap2\n      swap1\n      pop\n      jump\t// out\n        /* \"#utility.yul\":3690:3832   */\n    tag_198:\n        /* \"#utility.yul\":3740:3749   */\n      0x00\n        /* \"#utility.yul\":3773:3826   */\n      tag_268\n        /* \"#utility.yul\":3791:3825   */\n      tag_269\n        /* \"#utility.yul\":3800:3824   */\n      tag_270\n        /* \"#utility.yul\":3818:3823   */\n      dup5\n        /* \"#utility.yul\":3800:3824   */\n      tag_184\n      jump\t// in\n    tag_270:\n        /* \"#utility.yul\":3791:3825   */\n      tag_197\n      jump\t// in\n    tag_269:\n        /* \"#utility.yul\":3773:3826   */\n      tag_184\n      jump\t// in\n    tag_268:\n        /* \"#utility.yul\":3760:3826   */\n      swap1\n      pop\n        /* \"#utility.yul\":3690:3832   */\n      swap2\n      swap1\n      pop\n      jump\t// out\n        /* \"#utility.yul\":3838:3964   */\n    tag_199:\n        /* \"#utility.yul\":3888:3897   */\n      0x00\n        /* \"#utility.yul\":3921:3958   */\n      tag_272\n        /* \"#utility.yul\":3952:3957   */\n      dup3\n        /* \"#utility.yul\":3921:3958   */\n      tag_198\n      jump\t// in\n    tag_272:\n        /* \"#utility.yul\":3908:3958   */\n      swap1\n      pop\n        /* \"#utility.yul\":3838:3964   */\n      swap2\n      swap1\n      pop\n      jump\t// out\n        /* \"#utility.yul\":3970:4110   */\n    tag_200:\n        /* \"#utility.yul\":4034:4043   */\n      0x00\n        /* \"#utility.yul\":4067:4104   */\n      tag_274\n        /* \"#utility.yul\":4098:4103   */\n      dup3\n        /* \"#utility.yul\":4067:4104   */\n      tag_199\n      jump\t// in\n    tag_274:\n        /* \"#utility.yul\":4054:4104   */\n      swap1\n      pop\n        /* \"#utility.yul\":3970:4110   */\n      swap2\n      swap1\n      pop\n      jump\t// out\n        /* \"#utility.yul\":4116:4275   */\n    tag_201:\n        /* \"#utility.yul\":4217:4268   */\n      tag_276\n        /* \"#utility.yul\":4262:4267   */\n      dup2\n        /* \"#utility.yul\":4217:4268   */\n      tag_200\n      jump\t// in\n    tag_276:\n        /* \"#utility.yul\":4212:4215   */\n      dup3\n        /* \"#utility.yul\":4205:4269   */\n      mstore\n        /* \"#utility.yul\":4116:4275   */\n      pop\n      pop\n      jump\t// out\n        /* \"#utility.yul\":4281:4531   */\n    tag_37:\n        /* \"#utility.yul\":4388:4392   */\n      0x00\n        /* \"#utility.yul\":4426:4428   */\n      0x20\n        /* \"#utility.yul\":4415:4424   */\n      dup3\n        /* \"#utility.yul\":4411:4429   */\n      add\n        /* \"#utility.yul\":4403:4429   */\n      swap1\n      pop\n        /* \"#utility.yul\":4439:4524   */\n      tag_278\n        /* \"#utility.yul\":4521:4522   */\n      0x00\n        /* \"#utility.yul\":4510:4519   */\n      dup4\n        /* \"#utility.yul\":4506:4523   */\n      add\n        /* \"#utility.yul\":4497:4503   */\n      dup5\n        /* \"#utility.yul\":4439:4524   */\n      tag_201\n      jump\t// in\n    tag_278:\n        /* \"#utility.yul\":4281:4531   */\n      swap3\n      swap2\n      pop\n      pop\n      jump\t// out\n        /* \"#utility.yul\":4537:4655   */\n    tag_202:\n        /* \"#utility.yul\":4624:4648   */\n      tag_280\n        /* \"#utility.yul\":4642:4647   */\n      dup2\n        /* \"#utility.yul\":4624:4648   */\n      tag_185\n      jump\t// in\n    tag_280:\n        /* \"#utility.yul\":4619:4622   */\n      dup3\n        /* \"#utility.yul\":4612:4649   */\n      mstore\n        /* \"#utility.yul\":4537:4655   */\n      pop\n      pop\n      jump\t// out\n        /* \"#utility.yul\":4661:4883   */\n    tag_41:\n        /* \"#utility.yul\":4754:4758   */\n      0x00\n        /* \"#utility.yul\":4792:4794   */\n      0x20\n        /* \"#utility.yul\":4781:4790   */\n      dup3\n        /* \"#utility.yul\":4777:4795   */\n      add\n        /* \"#utility.yul\":4769:4795   */\n      swap1\n      pop\n        /* \"#utility.yul\":4805:4876   */\n      tag_282\n        /* \"#utility.yul\":4873:4874   */\n      0x00\n        /* \"#utility.yul\":4862:4871   */\n      dup4\n        /* \"#utility.yul\":4858:4875   */\n      add\n        /* \"#utility.yul\":4849:4855   */\n      dup5\n        /* \"#utility.yul\":4805:4876   */\n      tag_202\n      jump\t// in\n    tag_282:\n        /* \"#utility.yul\":4661:4883   */\n      swap3\n      swap2\n      pop\n      pop\n      jump\t// out\n        /* \"#utility.yul\":4889:5331   */\n    tag_46:\n        /* \"#utility.yul\":5038:5042   */\n      0x00\n        /* \"#utility.yul\":5076:5078   */\n      0x60\n        /* \"#utility.yul\":5065:5074   */\n      dup3\n        /* \"#utility.yul\":5061:5079   */\n      add\n        /* \"#utility.yul\":5053:5079   */\n      swap1\n      pop\n        /* \"#utility.yul\":5089:5160   */\n      tag_284\n        /* \"#utility.yul\":5157:5158   */\n      0x00\n        /* \"#utility.yul\":5146:5155   */\n      dup4\n        /* \"#utility.yul\":5142:5159   */\n      add\n        /* \"#utility.yul\":5133:5139   */\n      dup7\n        /* \"#utility.yul\":5089:5160   */\n      tag_196\n      jump\t// in\n    tag_284:\n        /* \"#utility.yul\":5170:5242   */\n      tag_285\n        /* \"#utility.yul\":5238:5240   */\n      0x20\n        /* \"#utility.yul\":5227:5236   */\n      dup4\n        /* \"#utility.yul\":5223:5241   */\n      add\n        /* \"#utility.yul\":5214:5220   */\n      dup6\n        /* \"#utility.yul\":5170:5242   */\n      tag_196\n      jump\t// in\n    tag_285:\n        /* \"#utility.yul\":5252:5324   */\n      tag_286\n        /* \"#utility.yul\":5320:5322   */\n      0x40\n        /* \"#utility.yul\":5309:5318   */\n      dup4\n        /* \"#utility.yul\":5305:5323   */\n      add\n        /* \"#utility.yul\":5296:5302   */\n      dup5\n        /* \"#utility.yul\":5252:5324   */\n      tag_202\n      jump\t// in\n    tag_286:\n        /* \"#utility.yul\":4889:5331   */\n      swap5\n      swap4\n      pop\n      pop\n      pop\n      pop\n      jump\t// out\n        /* \"#utility.yul\":5337:5459   */\n    tag_203:\n        /* \"#utility.yul\":5410:5434   */\n      tag_288\n        /* \"#utility.yul\":5428:5433   */\n      dup2\n        /* \"#utility.yul\":5410:5434   */\n      tag_195\n      jump\t// in\n    tag_288:\n        /* \"#utility.yul\":5403:5408   */\n      dup2\n        /* \"#utility.yul\":5400:5435   */\n      eq\n        /* \"#utility.yul\":5390:5453   */\n      tag_289\n      jumpi\n        /* \"#utility.yul\":5449:5450   */\n      0x00\n        /* \"#utility.yul\":5446:5447   */\n      dup1\n        /* \"#utility.yul\":5439:5451   */\n      revert\n        /* \"#utility.yul\":5390:5453   */\n    tag_289:\n        /* \"#utility.yul\":5337:5459   */\n      pop\n      jump\t// out\n        /* \"#utility.yul\":5465:5604   */\n    tag_204:\n        /* \"#utility.yul\":5511:5516   */\n      0x00\n        /* \"#utility.yul\":5549:5555   */\n      dup2\n        /* \"#utility.yul\":5536:5556   */\n      calldataload\n        /* \"#utility.yul\":5527:5556   */\n      swap1\n      pop\n        /* \"#utility.yul\":5565:5598   */\n      tag_291\n        /* \"#utility.yul\":5592:5597   */\n      dup2\n        /* \"#utility.yul\":5565:5598   */\n      tag_203\n      jump\t// in\n    tag_291:\n        /* \"#utility.yul\":5465:5604   */\n      swap3\n      swap2\n      pop\n      pop\n      jump\t// out\n        /* \"#utility.yul\":5610:6084   */\n    tag_49:\n        /* \"#utility.yul\":5678:5684   */\n      0x00\n        /* \"#utility.yul\":5686:5692   */\n      dup1\n        /* \"#utility.yul\":5735:5737   */\n      0x40\n        /* \"#utility.yul\":5723:5732   */\n      dup4\n        /* \"#utility.yul\":5714:5721   */\n      dup6\n        /* \"#utility.yul\":5710:5733   */\n      sub\n        /* \"#utility.yul\":5706:5738   */\n      slt\n        /* \"#utility.yul\":5703:5822   */\n      iszero\n      tag_293\n      jumpi\n        /* \"#utility.yul\":5741:5820   */\n      tag_294\n      tag_182\n      jump\t// in\n    tag_294:\n        /* \"#utility.yul\":5703:5822   */\n    tag_293:\n        /* \"#utility.yul\":5861:5862   */\n      0x00\n        /* \"#utility.yul\":5886:5939   */\n      tag_295\n        /* \"#utility.yul\":5931:5938   */\n      dup6\n        /* \"#utility.yul\":5922:5928   */\n      dup3\n        /* \"#utility.yul\":5911:5920   */\n      dup7\n        /* \"#utility.yul\":5907:5929   */\n      add\n        /* \"#utility.yul\":5886:5939   */\n      tag_187\n      jump\t// in\n    tag_295:\n        /* \"#utility.yul\":5876:5939   */\n      swap3\n      pop\n        /* \"#utility.yul\":5832:5949   */\n      pop\n        /* \"#utility.yul\":5988:5990   */\n      0x20\n        /* \"#utility.yul\":6014:6067   */\n      tag_296\n        /* \"#utility.yul\":6059:6066   */\n      dup6\n        /* \"#utility.yul\":6050:6056   */\n      dup3\n        /* \"#utility.yul\":6039:6048   */\n      dup7\n        /* \"#utility.yul\":6035:6057   */\n      add\n        /* \"#utility.yul\":6014:6067   */\n      tag_204\n      jump\t// in\n    tag_296:\n        /* \"#utility.yul\":6004:6067   */\n      swap2\n      pop\n        /* \"#utility.yul\":5959:6077   */\n      pop\n        /* \"#utility.yul\":5610:6084   */\n      swap3\n      pop\n      swap3\n      swap1\n      pop\n      jump\t// out\n        /* \"#utility.yul\":6090:6564   */\n    tag_54:\n        /* \"#utility.yul\":6158:6164   */\n      0x00\n        /* \"#utility.yul\":6166:6172   */\n      dup1\n        /* \"#utility.yul\":6215:6217   */\n      0x40\n        /* \"#utility.yul\":6203:6212   */\n      dup4\n        /* \"#utility.yul\":6194:6201   */\n      dup6\n        /* \"#utility.yul\":6190:6213   */\n      sub\n        /* \"#utility.yul\":6186:6218   */\n      slt\n        /* \"#utility.yul\":6183:6302   */\n      iszero\n      tag_298\n      jumpi\n        /* \"#utility.yul\":6221:6300   */\n      tag_299\n      tag_182\n      jump\t// in\n    tag_299:\n        /* \"#utility.yul\":6183:6302   */\n    tag_298:\n        /* \"#utility.yul\":6341:6342   */\n      0x00\n        /* \"#utility.yul\":6366:6419   */\n      tag_300\n        /* \"#utility.yul\":6411:6418   */\n      dup6\n        /* \"#utility.yul\":6402:6408   */\n      dup3\n        /* \"#utility.yul\":6391:6400   */\n      dup7\n        /* \"#utility.yul\":6387:6409   */\n      add\n        /* \"#utility.yul\":6366:6419   */\n      tag_204\n      jump\t// in\n    tag_300:\n        /* \"#utility.yul\":6356:6419   */\n      swap3\n      pop\n        /* \"#utility.yul\":6312:6429   */\n      pop\n        /* \"#utility.yul\":6468:6470   */\n      0x20\n        /* \"#utility.yul\":6494:6547   */\n      tag_301\n        /* \"#utility.yul\":6539:6546   */\n      dup6\n        /* \"#utility.yul\":6530:6536   */\n      dup3\n        /* \"#utility.yul\":6519:6528   */\n      dup7\n        /* \"#utility.yul\":6515:6537   */\n      add\n        /* \"#utility.yul\":6494:6547   */\n      tag_187\n      jump\t// in\n    tag_301:\n        /* \"#utility.yul\":6484:6547   */\n      swap2\n      pop\n        /* \"#utility.yul\":6439:6557   */\n      pop\n        /* \"#utility.yul\":6090:6564   */\n      swap3\n      pop\n      swap3\n      swap1\n      pop\n      jump\t// out\n        /* \"#utility.yul\":6570:6711   */\n    tag_205:\n        /* \"#utility.yul\":6635:6644   */\n      0x00\n        /* \"#utility.yul\":6668:6705   */\n      tag_303\n        /* \"#utility.yul\":6699:6704   */\n      dup3\n        /* \"#utility.yul\":6668:6705   */\n      tag_199\n      jump\t// in\n    tag_303:\n        /* \"#utility.yul\":6655:6705   */\n      swap1\n      pop\n        /* \"#utility.yul\":6570:6711   */\n      swap2\n      swap1\n      pop\n      jump\t// out\n        /* \"#utility.yul\":6717:6878   */\n    tag_206:\n        /* \"#utility.yul\":6819:6871   */\n      tag_305\n        /* \"#utility.yul\":6865:6870   */\n      dup2\n        /* \"#utility.yul\":6819:6871   */\n      tag_205\n      jump\t// in\n    tag_305:\n        /* \"#utility.yul\":6814:6817   */\n      dup3\n        /* \"#utility.yul\":6807:6872   */\n      mstore\n        /* \"#utility.yul\":6717:6878   */\n      pop\n      pop\n      jump\t// out\n        /* \"#utility.yul\":6884:7136   */\n    tag_62:\n        /* \"#utility.yul\":6992:6996   */\n      0x00\n        /* \"#utility.yul\":7030:7032   */\n      0x20\n        /* \"#utility.yul\":7019:7028   */\n      dup3\n        /* \"#utility.yul\":7015:7033   */\n      add\n        /* \"#utility.yul\":7007:7033   */\n      swap1\n      pop\n        /* \"#utility.yul\":7043:7129   */\n      tag_307\n        /* \"#utility.yul\":7126:7127   */\n      0x00\n        /* \"#utility.yul\":7115:7124   */\n      dup4\n        /* \"#utility.yul\":7111:7128   */\n      add\n        /* \"#utility.yul\":7102:7108   */\n      dup5\n        /* \"#utility.yul\":7043:7129   */\n      tag_206\n      jump\t// in\n    tag_307:\n        /* \"#utility.yul\":6884:7136   */\n      swap3\n      swap2\n      pop\n      pop\n      jump\t// out\n        /* \"#utility.yul\":7142:7311   */\n    tag_207:\n        /* \"#utility.yul\":7226:7237   */\n      0x00\n        /* \"#utility.yul\":7260:7266   */\n      dup3\n        /* \"#utility.yul\":7255:7258   */\n      dup3\n        /* \"#utility.yul\":7248:7267   */\n      mstore\n        /* \"#utility.yul\":7300:7304   */\n      0x20\n        /* \"#utility.yul\":7295:7298   */\n      dup3\n        /* \"#utility.yul\":7291:7305   */\n      add\n        /* \"#utility.yul\":7276:7305   */\n      swap1\n      pop\n        /* \"#utility.yul\":7142:7311   */\n      swap3\n      swap2\n      pop\n      pop\n      jump\t// out\n        /* \"#utility.yul\":7317:7477   */\n    tag_208:\n        /* \"#utility.yul\":7457:7469   */\n      0x4e6f2062616c616e636500000000000000000000000000000000000000000000\n        /* \"#utility.yul\":7453:7454   */\n      0x00\n        /* \"#utility.yul\":7445:7451   */\n      dup3\n        /* \"#utility.yul\":7441:7455   */\n      add\n        /* \"#utility.yul\":7434:7470   */\n      mstore\n        /* \"#utility.yul\":7317:7477   */\n      pop\n      jump\t// out\n        /* \"#utility.yul\":7483:7849   */\n    tag_209:\n        /* \"#utility.yul\":7625:7628   */\n      0x00\n        /* \"#utility.yul\":7646:7713   */\n      tag_311\n        /* \"#utility.yul\":7710:7712   */\n      0x0a\n        /* \"#utility.yul\":7705:7708   */\n      dup4\n        /* \"#utility.yul\":7646:7713   */\n      tag_207\n      jump\t// in\n    tag_311:\n        /* \"#utility.yul\":7639:7713   */\n      swap2\n      pop\n        /* \"#utility.yul\":7722:7815   */\n      tag_312\n        /* \"#utility.yul\":7811:7814   */\n      dup3\n        /* \"#utility.yul\":7722:7815   */\n      tag_208\n      jump\t// in\n    tag_312:\n        /* \"#utility.yul\":7840:7842   */\n      0x20\n        /* \"#utility.yul\":7835:7838   */\n      dup3\n        /* \"#utility.yul\":7831:7843   */\n      add\n        /* \"#utility.yul\":7824:7843   */\n      swap1\n      pop\n        /* \"#utility.yul\":7483:7849   */\n      swap2\n      swap1\n      pop\n      jump\t// out\n        /* \"#utility.yul\":7855:8274   */\n    tag_69:\n        /* \"#utility.yul\":8021:8025   */\n      0x00\n        /* \"#utility.yul\":8059:8061   */\n      0x20\n        /* \"#utility.yul\":8048:8057   */\n      dup3\n        /* \"#utility.yul\":8044:8062   */\n      add\n        /* \"#utility.yul\":8036:8062   */\n      swap1\n      pop\n        /* \"#utility.yul\":8108:8117   */\n      dup2\n        /* \"#utility.yul\":8102:8106   */\n      dup2\n        /* \"#utility.yul\":8098:8118   */\n      sub\n        /* \"#utility.yul\":8094:8095   */\n      0x00\n        /* \"#utility.yul\":8083:8092   */\n      dup4\n        /* \"#utility.yul\":8079:8096   */\n      add\n        /* \"#utility.yul\":8072:8119   */\n      mstore\n        /* \"#utility.yul\":8136:8267   */\n      tag_314\n        /* \"#utility.yul\":8262:8266   */\n      dup2\n        /* \"#utility.yul\":8136:8267   */\n      tag_209\n      jump\t// in\n    tag_314:\n        /* \"#utility.yul\":8128:8267   */\n      swap1\n      pop\n        /* \"#utility.yul\":7855:8274   */\n      swap2\n      swap1\n      pop\n      jump\t// out\n        /* \"#utility.yul\":8280:8423   */\n    tag_210:\n        /* \"#utility.yul\":8337:8342   */\n      0x00\n        /* \"#utility.yul\":8368:8374   */\n      dup2\n        /* \"#utility.yul\":8362:8375   */\n      mload\n        /* \"#utility.yul\":8353:8375   */\n      swap1\n      pop\n        /* \"#utility.yul\":8384:8417   */\n      tag_316\n        /* \"#utility.yul\":8411:8416   */\n      dup2\n        /* \"#utility.yul\":8384:8417   */\n      tag_203\n      jump\t// in\n    tag_316:\n        /* \"#utility.yul\":8280:8423   */\n      swap3\n      swap2\n      pop\n      pop\n      jump\t// out\n        /* \"#utility.yul\":8429:8780   */\n    tag_74:\n        /* \"#utility.yul\":8499:8505   */\n      0x00\n        /* \"#utility.yul\":8548:8550   */\n      0x20\n        /* \"#utility.yul\":8536:8545   */\n      dup3\n        /* \"#utility.yul\":8527:8534   */\n      dup5\n        /* \"#utility.yul\":8523:8546   */\n      sub\n        /* \"#utility.yul\":8519:8551   */\n      slt\n        /* \"#utility.yul\":8516:8635   */\n      iszero\n      tag_318\n      jumpi\n        /* \"#utility.yul\":8554:8633   */\n      tag_319\n      tag_182\n      jump\t// in\n    tag_319:\n        /* \"#utility.yul\":8516:8635   */\n    tag_318:\n        /* \"#utility.yul\":8674:8675   */\n      0x00\n        /* \"#utility.yul\":8699:8763   */\n      tag_320\n        /* \"#utility.yul\":8755:8762   */\n      dup5\n        /* \"#utility.yul\":8746:8752   */\n      dup3\n        /* \"#utility.yul\":8735:8744   */\n      dup6\n        /* \"#utility.yul\":8731:8753   */\n      add\n        /* \"#utility.yul\":8699:8763   */\n      tag_210\n      jump\t// in\n    tag_320:\n        /* \"#utility.yul\":8689:8763   */\n      swap2\n      pop\n        /* \"#utility.yul\":8645:8773   */\n      pop\n        /* \"#utility.yul\":8429:8780   */\n      swap3\n      swap2\n      pop\n      pop\n      jump\t// out\n        /* \"#utility.yul\":8786:8956   */\n    tag_211:\n        /* \"#utility.yul\":8926:8948   */\n      0x4d6f7270686f2052656465656d206661696c6564000000000000000000000000\n        /* \"#utility.yul\":8922:8923   */\n      0x00\n        /* \"#utility.yul\":8914:8920   */\n      dup3\n        /* \"#utility.yul\":8910:8924   */\n      add\n        /* \"#utility.yul\":8903:8949   */\n      mstore\n        /* \"#utility.yul\":8786:8956   */\n      pop\n      jump\t// out\n        /* \"#utility.yul\":8962:9328   */\n    tag_212:\n        /* \"#utility.yul\":9104:9107   */\n      0x00\n        /* \"#utility.yul\":9125:9192   */\n      tag_323\n        /* \"#utility.yul\":9189:9191   */\n      0x14\n        /* \"#utility.yul\":9184:9187   */\n      dup4\n        /* \"#utility.yul\":9125:9192   */\n      tag_207\n      jump\t// in\n    tag_323:\n        /* \"#utility.yul\":9118:9192   */\n      swap2\n      pop\n        /* \"#utility.yul\":9201:9294   */\n      tag_324\n        /* \"#utility.yul\":9290:9293   */\n      dup3\n        /* \"#utility.yul\":9201:9294   */\n      tag_211\n      jump\t// in\n    tag_324:\n        /* \"#utility.yul\":9319:9321   */\n      0x20\n        /* \"#utility.yul\":9314:9317   */\n      dup3\n        /* \"#utility.yul\":9310:9322   */\n      add\n        /* \"#utility.yul\":9303:9322   */\n      swap1\n      pop\n        /* \"#utility.yul\":8962:9328   */\n      swap2\n      swap1\n      pop\n      jump\t// out\n        /* \"#utility.yul\":9334:9753   */\n    tag_77:\n        /* \"#utility.yul\":9500:9504   */\n      0x00\n        /* \"#utility.yul\":9538:9540   */\n      0x20\n        /* \"#utility.yul\":9527:9536   */\n      dup3\n        /* \"#utility.yul\":9523:9541   */\n      add\n        /* \"#utility.yul\":9515:9541   */\n      swap1\n      pop\n        /* \"#utility.yul\":9587:9596   */\n      dup2\n        /* \"#utility.yul\":9581:9585   */\n      dup2\n        /* \"#utility.yul\":9577:9597   */\n      sub\n        /* \"#utility.yul\":9573:9574   */\n      0x00\n        /* \"#utility.yul\":9562:9571   */\n      dup4\n        /* \"#utility.yul\":9558:9575   */\n      add\n        /* \"#utility.yul\":9551:9598   */\n      mstore\n        /* \"#utility.yul\":9615:9746   */\n      tag_326\n        /* \"#utility.yul\":9741:9745   */\n      dup2\n        /* \"#utility.yul\":9615:9746   */\n      tag_212\n      jump\t// in\n    tag_326:\n        /* \"#utility.yul\":9607:9746   */\n      swap1\n      pop\n        /* \"#utility.yul\":9334:9753   */\n      swap2\n      swap1\n      pop\n      jump\t// out\n        /* \"#utility.yul\":9759:9939   */\n    tag_213:\n        /* \"#utility.yul\":9807:9884   */\n      0x4e487b7100000000000000000000000000000000000000000000000000000000\n        /* \"#utility.yul\":9804:9805   */\n      0x00\n        /* \"#utility.yul\":9797:9885   */\n      mstore\n        /* \"#utility.yul\":9904:9908   */\n      0x11\n        /* \"#utility.yul\":9901:9902   */\n      0x04\n        /* \"#utility.yul\":9894:9909   */\n      mstore\n        /* \"#utility.yul\":9928:9932   */\n      0x24\n        /* \"#utility.yul\":9925:9926   */\n      0x00\n        /* \"#utility.yul\":9918:9933   */\n      revert\n        /* \"#utility.yul\":9945:10355   */\n    tag_94:\n        /* \"#utility.yul\":9985:9992   */\n      0x00\n        /* \"#utility.yul\":10008:10028   */\n      tag_329\n        /* \"#utility.yul\":10026:10027   */\n      dup3\n        /* \"#utility.yul\":10008:10028   */\n      tag_195\n      jump\t// in\n    tag_329:\n        /* \"#utility.yul\":10003:10028   */\n      swap2\n      pop\n        /* \"#utility.yul\":10042:10062   */\n      tag_330\n        /* \"#utility.yul\":10060:10061   */\n      dup4\n        /* \"#utility.yul\":10042:10062   */\n      tag_195\n      jump\t// in\n    tag_330:\n        /* \"#utility.yul\":10037:10062   */\n      swap3\n      pop\n        /* \"#utility.yul\":10097:10098   */\n      dup3\n        /* \"#utility.yul\":10094:10095   */\n      dup3\n        /* \"#utility.yul\":10090:10099   */\n      mul\n        /* \"#utility.yul\":10119:10149   */\n      tag_331\n        /* \"#utility.yul\":10137:10148   */\n      dup2\n        /* \"#utility.yul\":10119:10149   */\n      tag_195\n      jump\t// in\n    tag_331:\n        /* \"#utility.yul\":10108:10149   */\n      swap2\n      pop\n        /* \"#utility.yul\":10298:10299   */\n      dup3\n        /* \"#utility.yul\":10289:10296   */\n      dup3\n        /* \"#utility.yul\":10285:10300   */\n      div\n        /* \"#utility.yul\":10282:10283   */\n      dup5\n        /* \"#utility.yul\":10279:10301   */\n      eq\n        /* \"#utility.yul\":10259:10260   */\n      dup4\n        /* \"#utility.yul\":10252:10261   */\n      iszero\n        /* \"#utility.yul\":10232:10315   */\n      or\n        /* \"#utility.yul\":10209:10348   */\n      tag_332\n      jumpi\n        /* \"#utility.yul\":10328:10346   */\n      tag_333\n      tag_213\n      jump\t// in\n    tag_333:\n        /* \"#utility.yul\":10209:10348   */\n    tag_332:\n        /* \"#utility.yul\":9993:10355   */\n      pop\n        /* \"#utility.yul\":9945:10355   */\n      swap3\n      swap2\n      pop\n      pop\n      jump\t// out\n        /* \"#utility.yul\":10361:10541   */\n    tag_214:\n        /* \"#utility.yul\":10409:10486   */\n      0x4e487b7100000000000000000000000000000000000000000000000000000000\n        /* \"#utility.yul\":10406:10407   */\n      0x00\n        /* \"#utility.yul\":10399:10487   */\n      mstore\n        /* \"#utility.yul\":10506:10510   */\n      0x12\n        /* \"#utility.yul\":10503:10504   */\n      0x04\n        /* \"#utility.yul\":10496:10511   */\n      mstore\n        /* \"#utility.yul\":10530:10534   */\n      0x24\n        /* \"#utility.yul\":10527:10528   */\n      0x00\n        /* \"#utility.yul\":10520:10535   */\n      revert\n        /* \"#utility.yul\":10547:10732   */\n    tag_96:\n        /* \"#utility.yul\":10587:10588   */\n      0x00\n        /* \"#utility.yul\":10604:10624   */\n      tag_336\n        /* \"#utility.yul\":10622:10623   */\n      dup3\n        /* \"#utility.yul\":10604:10624   */\n      tag_195\n      jump\t// in\n    tag_336:\n        /* \"#utility.yul\":10599:10624   */\n      swap2\n      pop\n        /* \"#utility.yul\":10638:10658   */\n      tag_337\n        /* \"#utility.yul\":10656:10657   */\n      dup4\n        /* \"#utility.yul\":10638:10658   */\n      tag_195\n      jump\t// in\n    tag_337:\n        /* \"#utility.yul\":10633:10658   */\n      swap3\n      pop\n        /* \"#utility.yul\":10677:10678   */\n      dup3\n        /* \"#utility.yul\":10667:10702   */\n      tag_338\n      jumpi\n        /* \"#utility.yul\":10682:10700   */\n      tag_339\n      tag_214\n      jump\t// in\n    tag_339:\n        /* \"#utility.yul\":10667:10702   */\n    tag_338:\n        /* \"#utility.yul\":10724:10725   */\n      dup3\n        /* \"#utility.yul\":10721:10722   */\n      dup3\n        /* \"#utility.yul\":10717:10726   */\n      div\n        /* \"#utility.yul\":10712:10726   */\n      swap1\n      pop\n        /* \"#utility.yul\":10547:10732   */\n      swap3\n      swap2\n      pop\n      pop\n      jump\t// out\n        /* \"#utility.yul\":10738:10899   */\n    tag_215:\n        /* \"#utility.yul\":10878:10891   */\n      0x4d696e2031302055534443000000000000000000000000000000000000000000\n        /* \"#utility.yul\":10874:10875   */\n      0x00\n        /* \"#utility.yul\":10866:10872   */\n      dup3\n        /* \"#utility.yul\":10862:10876   */\n      add\n        /* \"#utility.yul\":10855:10892   */\n      mstore\n        /* \"#utility.yul\":10738:10899   */\n      pop\n      jump\t// out\n        /* \"#utility.yul\":10905:11271   */\n    tag_216:\n        /* \"#utility.yul\":11047:11050   */\n      0x00\n        /* \"#utility.yul\":11068:11135   */\n      tag_342\n        /* \"#utility.yul\":11132:11134   */\n      0x0b\n        /* \"#utility.yul\":11127:11130   */\n      dup4\n        /* \"#utility.yul\":11068:11135   */\n      tag_207\n      jump\t// in\n    tag_342:\n        /* \"#utility.yul\":11061:11135   */\n      swap2\n      pop\n        /* \"#utility.yul\":11144:11237   */\n      tag_343\n        /* \"#utility.yul\":11233:11236   */\n      dup3\n        /* \"#utility.yul\":11144:11237   */\n      tag_215\n      jump\t// in\n    tag_343:\n        /* \"#utility.yul\":11262:11264   */\n      0x20\n        /* \"#utility.yul\":11257:11260   */\n      dup3\n        /* \"#utility.yul\":11253:11265   */\n      add\n        /* \"#utility.yul\":11246:11265   */\n      swap1\n      pop\n        /* \"#utility.yul\":10905:11271   */\n      swap2\n      swap1\n      pop\n      jump\t// out\n        /* \"#utility.yul\":11277:11696   */\n    tag_111:\n        /* \"#utility.yul\":11443:11447   */\n      0x00\n        /* \"#utility.yul\":11481:11483   */\n      0x20\n        /* \"#utility.yul\":11470:11479   */\n      dup3\n        /* \"#utility.yul\":11466:11484   */\n      add\n        /* \"#utility.yul\":11458:11484   */\n      swap1\n      pop\n        /* \"#utility.yul\":11530:11539   */\n      dup2\n        /* \"#utility.yul\":11524:11528   */\n      dup2\n        /* \"#utility.yul\":11520:11540   */\n      sub\n        /* \"#utility.yul\":11516:11517   */\n      0x00\n        /* \"#utility.yul\":11505:11514   */\n      dup4\n        /* \"#utility.yul\":11501:11518   */\n      add\n        /* \"#utility.yul\":11494:11541   */\n      mstore\n        /* \"#utility.yul\":11558:11689   */\n      tag_345\n        /* \"#utility.yul\":11684:11688   */\n      dup2\n        /* \"#utility.yul\":11558:11689   */\n      tag_216\n      jump\t// in\n    tag_345:\n        /* \"#utility.yul\":11550:11689   */\n      swap1\n      pop\n        /* \"#utility.yul\":11277:11696   */\n      swap2\n      swap1\n      pop\n      jump\t// out\n        /* \"#utility.yul\":11702:11868   */\n    tag_217:\n        /* \"#utility.yul\":11842:11860   */\n      0x4e6f2073656c662d726566657272616c00000000000000000000000000000000\n        /* \"#utility.yul\":11838:11839   */\n      0x00\n        /* \"#utility.yul\":11830:11836   */\n      dup3\n        /* \"#utility.yul\":11826:11840   */\n      add\n        /* \"#utility.yul\":11819:11861   */\n      mstore\n        /* \"#utility.yul\":11702:11868   */\n      pop\n      jump\t// out\n        /* \"#utility.yul\":11874:12240   */\n    tag_218:\n        /* \"#utility.yul\":12016:12019   */\n      0x00\n        /* \"#utility.yul\":12037:12104   */\n      tag_348\n        /* \"#utility.yul\":12101:12103   */\n      0x10\n        /* \"#utility.yul\":12096:12099   */\n      dup4\n        /* \"#utility.yul\":12037:12104   */\n      tag_207\n      jump\t// in\n    tag_348:\n        /* \"#utility.yul\":12030:12104   */\n      swap2\n      pop\n        /* \"#utility.yul\":12113:12206   */\n      tag_349\n        /* \"#utility.yul\":12202:12205   */\n      dup3\n        /* \"#utility.yul\":12113:12206   */\n      tag_217\n      jump\t// in\n    tag_349:\n        /* \"#utility.yul\":12231:12233   */\n      0x20\n        /* \"#utility.yul\":12226:12229   */\n      dup3\n        /* \"#utility.yul\":12222:12234   */\n      add\n        /* \"#utility.yul\":12215:12234   */\n      swap1\n      pop\n        /* \"#utility.yul\":11874:12240   */\n      swap2\n      swap1\n      pop\n      jump\t// out\n        /* \"#utility.yul\":12246:12665   */\n    tag_114:\n        /* \"#utility.yul\":12412:12416   */\n      0x00\n        /* \"#utility.yul\":12450:12452   */\n      0x20\n        /* \"#utility.yul\":12439:12448   */\n      dup3\n        /* \"#utility.yul\":12435:12453   */\n      add\n        /* \"#utility.yul\":12427:12453   */\n      swap1\n      pop\n        /* \"#utility.yul\":12499:12508   */\n      dup2\n        /* \"#utility.yul\":12493:12497   */\n      dup2\n        /* \"#utility.yul\":12489:12509   */\n      sub\n        /* \"#utility.yul\":12485:12486   */\n      0x00\n        /* \"#utility.yul\":12474:12483   */\n      dup4\n        /* \"#utility.yul\":12470:12487   */\n      add\n        /* \"#utility.yul\":12463:12510   */\n      mstore\n        /* \"#utility.yul\":12527:12658   */\n      tag_351\n        /* \"#utility.yul\":12653:12657   */\n      dup2\n        /* \"#utility.yul\":12527:12658   */\n      tag_218\n      jump\t// in\n    tag_351:\n        /* \"#utility.yul\":12519:12658   */\n      swap1\n      pop\n        /* \"#utility.yul\":12246:12665   */\n      swap2\n      swap1\n      pop\n      jump\t// out\n        /* \"#utility.yul\":12671:13003   */\n    tag_121:\n        /* \"#utility.yul\":12792:12796   */\n      0x00\n        /* \"#utility.yul\":12830:12832   */\n      0x40\n        /* \"#utility.yul\":12819:12828   */\n      dup3\n        /* \"#utility.yul\":12815:12833   */\n      add\n        /* \"#utility.yul\":12807:12833   */\n      swap1\n      pop\n        /* \"#utility.yul\":12843:12914   */\n      tag_353\n        /* \"#utility.yul\":12911:12912   */\n      0x00\n        /* \"#utility.yul\":12900:12909   */\n      dup4\n        /* \"#utility.yul\":12896:12913   */\n      add\n        /* \"#utility.yul\":12887:12893   */\n      dup6\n        /* \"#utility.yul\":12843:12914   */\n      tag_202\n      jump\t// in\n    tag_353:\n        /* \"#utility.yul\":12924:12996   */\n      tag_354\n        /* \"#utility.yul\":12992:12994   */\n      0x20\n        /* \"#utility.yul\":12981:12990   */\n      dup4\n        /* \"#utility.yul\":12977:12995   */\n      add\n        /* \"#utility.yul\":12968:12974   */\n      dup5\n        /* \"#utility.yul\":12924:12996   */\n      tag_196\n      jump\t// in\n    tag_354:\n        /* \"#utility.yul\":12671:13003   */\n      swap4\n      swap3\n      pop\n      pop\n      pop\n      jump\t// out\n        /* \"#utility.yul\":13009:13099   */\n    tag_219:\n        /* \"#utility.yul\":13043:13050   */\n      0x00\n        /* \"#utility.yul\":13086:13091   */\n      dup2\n        /* \"#utility.yul\":13079:13092   */\n      iszero\n        /* \"#utility.yul\":13072:13093   */\n      iszero\n        /* \"#utility.yul\":13061:13093   */\n      swap1\n      pop\n        /* \"#utility.yul\":13009:13099   */\n      swap2\n      swap1\n      pop\n      jump\t// out\n        /* \"#utility.yul\":13105:13221   */\n    tag_220:\n        /* \"#utility.yul\":13175:13196   */\n      tag_357\n        /* \"#utility.yul\":13190:13195   */\n      dup2\n        /* \"#utility.yul\":13175:13196   */\n      tag_219\n      jump\t// in\n    tag_357:\n        /* \"#utility.yul\":13168:13173   */\n      dup2\n        /* \"#utility.yul\":13165:13197   */\n      eq\n        /* \"#utility.yul\":13155:13215   */\n      tag_358\n      jumpi\n        /* \"#utility.yul\":13211:13212   */\n      0x00\n        /* \"#utility.yul\":13208:13209   */\n      dup1\n        /* \"#utility.yul\":13201:13213   */\n      revert\n        /* \"#utility.yul\":13155:13215   */\n    tag_358:\n        /* \"#utility.yul\":13105:13221   */\n      pop\n      jump\t// out\n        /* \"#utility.yul\":13227:13364   */\n    tag_221:\n        /* \"#utility.yul\":13281:13286   */\n      0x00\n        /* \"#utility.yul\":13312:13318   */\n      dup2\n        /* \"#utility.yul\":13306:13319   */\n      mload\n        /* \"#utility.yul\":13297:13319   */\n      swap1\n      pop\n        /* \"#utility.yul\":13328:13358   */\n      tag_360\n        /* \"#utility.yul\":13352:13357   */\n      dup2\n        /* \"#utility.yul\":13328:13358   */\n      tag_220\n      jump\t// in\n    tag_360:\n        /* \"#utility.yul\":13227:13364   */\n      swap3\n      swap2\n      pop\n      pop\n      jump\t// out\n        /* \"#utility.yul\":13370:13715   */\n    tag_125:\n        /* \"#utility.yul\":13437:13443   */\n      0x00\n        /* \"#utility.yul\":13486:13488   */\n      0x20\n        /* \"#utility.yul\":13474:13483   */\n      dup3\n        /* \"#utility.yul\":13465:13472   */\n      dup5\n        /* \"#utility.yul\":13461:13484   */\n      sub\n        /* \"#utility.yul\":13457:13489   */\n      slt\n        /* \"#utility.yul\":13454:13573   */\n      iszero\n      tag_362\n      jumpi\n        /* \"#utility.yul\":13492:13571   */\n      tag_363\n      tag_182\n      jump\t// in\n    tag_363:\n        /* \"#utility.yul\":13454:13573   */\n    tag_362:\n        /* \"#utility.yul\":13612:13613   */\n      0x00\n        /* \"#utility.yul\":13637:13698   */\n      tag_364\n        /* \"#utility.yul\":13690:13697   */\n      dup5\n        /* \"#utility.yul\":13681:13687   */\n      dup3\n        /* \"#utility.yul\":13670:13679   */\n      dup6\n        /* \"#utility.yul\":13666:13688   */\n      add\n        /* \"#utility.yul\":13637:13698   */\n      tag_221\n      jump\t// in\n    tag_364:\n        /* \"#utility.yul\":13627:13698   */\n      swap2\n      pop\n        /* \"#utility.yul\":13583:13708   */\n      pop\n        /* \"#utility.yul\":13370:13715   */\n      swap3\n      swap2\n      pop\n      pop\n      jump\t// out\n        /* \"#utility.yul\":13721:13889   */\n    tag_222:\n        /* \"#utility.yul\":13861:13881   */\n      0x4d6f7270686f204d696e74206661696c65640000000000000000000000000000\n        /* \"#utility.yul\":13857:13858   */\n      0x00\n        /* \"#utility.yul\":13849:13855   */\n      dup3\n        /* \"#utility.yul\":13845:13859   */\n      add\n        /* \"#utility.yul\":13838:13882   */\n      mstore\n        /* \"#utility.yul\":13721:13889   */\n      pop\n      jump\t// out\n        /* \"#utility.yul\":13895:14261   */\n    tag_223:\n        /* \"#utility.yul\":14037:14040   */\n      0x00\n        /* \"#utility.yul\":14058:14125   */\n      tag_367\n        /* \"#utility.yul\":14122:14124   */\n      0x12\n        /* \"#utility.yul\":14117:14120   */\n      dup4\n        /* \"#utility.yul\":14058:14125   */\n      tag_207\n      jump\t// in\n    tag_367:\n        /* \"#utility.yul\":14051:14125   */\n      swap2\n      pop\n        /* \"#utility.yul\":14134:14227   */\n      tag_368\n        /* \"#utility.yul\":14223:14226   */\n      dup3\n        /* \"#utility.yul\":14134:14227   */\n      tag_222\n      jump\t// in\n    tag_368:\n        /* \"#utility.yul\":14252:14254   */\n      0x20\n        /* \"#utility.yul\":14247:14250   */\n      dup3\n        /* \"#utility.yul\":14243:14255   */\n      add\n        /* \"#utility.yul\":14236:14255   */\n      swap1\n      pop\n        /* \"#utility.yul\":13895:14261   */\n      swap2\n      swap1\n      pop\n      jump\t// out\n        /* \"#utility.yul\":14267:14686   */\n    tag_136:\n        /* \"#utility.yul\":14433:14437   */\n      0x00\n        /* \"#utility.yul\":14471:14473   */\n      0x20\n        /* \"#utility.yul\":14460:14469   */\n      dup3\n        /* \"#utility.yul\":14456:14474   */\n      add\n        /* \"#utility.yul\":14448:14474   */\n      swap1\n      pop\n        /* \"#utility.yul\":14520:14529   */\n      dup2\n        /* \"#utility.yul\":14514:14518   */\n      dup2\n        /* \"#utility.yul\":14510:14530   */\n      sub\n        /* \"#utility.yul\":14506:14507   */\n      0x00\n        /* \"#utility.yul\":14495:14504   */\n      dup4\n        /* \"#utility.yul\":14491:14508   */\n      add\n        /* \"#utility.yul\":14484:14531   */\n      mstore\n        /* \"#utility.yul\":14548:14679   */\n      tag_370\n        /* \"#utility.yul\":14674:14678   */\n      dup2\n        /* \"#utility.yul\":14548:14679   */\n      tag_223\n      jump\t// in\n    tag_370:\n        /* \"#utility.yul\":14540:14679   */\n      swap1\n      pop\n        /* \"#utility.yul\":14267:14686   */\n      swap2\n      swap1\n      pop\n      jump\t// out\n        /* \"#utility.yul\":14692:14886   */\n    tag_142:\n        /* \"#utility.yul\":14732:14736   */\n      0x00\n        /* \"#utility.yul\":14752:14772   */\n      tag_372\n        /* \"#utility.yul\":14770:14771   */\n      dup3\n        /* \"#utility.yul\":14752:14772   */\n      tag_195\n      jump\t// in\n    tag_372:\n        /* \"#utility.yul\":14747:14772   */\n      swap2\n      pop\n        /* \"#utility.yul\":14786:14806   */\n      tag_373\n        /* \"#utility.yul\":14804:14805   */\n      dup4\n        /* \"#utility.yul\":14786:14806   */\n      tag_195\n      jump\t// in\n    tag_373:\n        /* \"#utility.yul\":14781:14806   */\n      swap3\n      pop\n        /* \"#utility.yul\":14830:14831   */\n      dup3\n        /* \"#utility.yul\":14827:14828   */\n      dup3\n        /* \"#utility.yul\":14823:14832   */\n      sub\n        /* \"#utility.yul\":14815:14832   */\n      swap1\n      pop\n        /* \"#utility.yul\":14854:14855   */\n      dup2\n        /* \"#utility.yul\":14848:14852   */\n      dup2\n        /* \"#utility.yul\":14845:14856   */\n      gt\n        /* \"#utility.yul\":14842:14879   */\n      iszero\n      tag_374\n      jumpi\n        /* \"#utility.yul\":14859:14877   */\n      tag_375\n      tag_213\n      jump\t// in\n    tag_375:\n        /* \"#utility.yul\":14842:14879   */\n    tag_374:\n        /* \"#utility.yul\":14692:14886   */\n      swap3\n      swap2\n      pop\n      pop\n      jump\t// out\n        /* \"#utility.yul\":14892:15083   */\n    tag_144:\n        /* \"#utility.yul\":14932:14935   */\n      0x00\n        /* \"#utility.yul\":14951:14971   */\n      tag_377\n        /* \"#utility.yul\":14969:14970   */\n      dup3\n        /* \"#utility.yul\":14951:14971   */\n      tag_195\n      jump\t// in\n    tag_377:\n        /* \"#utility.yul\":14946:14971   */\n      swap2\n      pop\n        /* \"#utility.yul\":14985:15005   */\n      tag_378\n        /* \"#utility.yul\":15003:15004   */\n      dup4\n        /* \"#utility.yul\":14985:15005   */\n      tag_195\n      jump\t// in\n    tag_378:\n        /* \"#utility.yul\":14980:15005   */\n      swap3\n      pop\n        /* \"#utility.yul\":15028:15029   */\n      dup3\n        /* \"#utility.yul\":15025:15026   */\n      dup3\n        /* \"#utility.yul\":15021:15030   */\n      add\n        /* \"#utility.yul\":15014:15030   */\n      swap1\n      pop\n        /* \"#utility.yul\":15049:15052   */\n      dup1\n        /* \"#utility.yul\":15046:15047   */\n      dup3\n        /* \"#utility.yul\":15043:15053   */\n      gt\n        /* \"#utility.yul\":15040:15076   */\n      iszero\n      tag_379\n      jumpi\n        /* \"#utility.yul\":15056:15074   */\n      tag_380\n      tag_213\n      jump\t// in\n    tag_380:\n        /* \"#utility.yul\":15040:15076   */\n    tag_379:\n        /* \"#utility.yul\":14892:15083   */\n      swap3\n      swap2\n      pop\n      pop\n      jump\t// out\n        /* \"#utility.yul\":15089:15270   */\n    tag_224:\n        /* \"#utility.yul\":15229:15262   */\n      0x5265656e7472616e637947756172643a207265656e7472616e742063616c6c00\n        /* \"#utility.yul\":15225:15226   */\n      0x00\n        /* \"#utility.yul\":15217:15223   */\n      dup3\n        /* \"#utility.yul\":15213:15227   */\n      add\n        /* \"#utility.yul\":15206:15263   */\n      mstore\n        /* \"#utility.yul\":15089:15270   */\n      pop\n      jump\t// out\n        /* \"#utility.yul\":15276:15642   */\n    tag_225:\n        /* \"#utility.yul\":15418:15421   */\n      0x00\n        /* \"#utility.yul\":15439:15506   */\n      tag_383\n        /* \"#utility.yul\":15503:15505   */\n      0x1f\n        /* \"#utility.yul\":15498:15501   */\n      dup4\n        /* \"#utility.yul\":15439:15506   */\n      tag_207\n      jump\t// in\n    tag_383:\n        /* \"#utility.yul\":15432:15506   */\n      swap2\n      pop\n        /* \"#utility.yul\":15515:15608   */\n      tag_384\n        /* \"#utility.yul\":15604:15607   */\n      dup3\n        /* \"#utility.yul\":15515:15608   */\n      tag_224\n      jump\t// in\n    tag_384:\n        /* \"#utility.yul\":15633:15635   */\n      0x20\n        /* \"#utility.yul\":15628:15631   */\n      dup3\n        /* \"#utility.yul\":15624:15636   */\n      add\n        /* \"#utility.yul\":15617:15636   */\n      swap1\n      pop\n        /* \"#utility.yul\":15276:15642   */\n      swap2\n      swap1\n      pop\n      jump\t// out\n        /* \"#utility.yul\":15648:16067   */\n    tag_156:\n        /* \"#utility.yul\":15814:15818   */\n      0x00\n        /* \"#utility.yul\":15852:15854   */\n      0x20\n        /* \"#utility.yul\":15841:15850   */\n      dup3\n        /* \"#utility.yul\":15837:15855   */\n      add\n        /* \"#utility.yul\":15829:15855   */\n      swap1\n      pop\n        /* \"#utility.yul\":15901:15910   */\n      dup2\n        /* \"#utility.yul\":15895:15899   */\n      dup2\n        /* \"#utility.yul\":15891:15911   */\n      sub\n        /* \"#utility.yul\":15887:15888   */\n      0x00\n        /* \"#utility.yul\":15876:15885   */\n      dup4\n        /* \"#utility.yul\":15872:15889   */\n      add\n        /* \"#utility.yul\":15865:15912   */\n      mstore\n        /* \"#utility.yul\":15929:16060   */\n      tag_386\n        /* \"#utility.yul\":16055:16059   */\n      dup2\n        /* \"#utility.yul\":15929:16060   */\n      tag_225\n      jump\t// in\n    tag_386:\n        /* \"#utility.yul\":15921:16060   */\n      swap1\n      pop\n        /* \"#utility.yul\":15648:16067   */\n      swap2\n      swap1\n      pop\n      jump\t// out\n        /* \"#utility.yul\":16073:16515   */\n    tag_173:\n        /* \"#utility.yul\":16222:16226   */\n      0x00\n        /* \"#utility.yul\":16260:16262   */\n      0x60\n        /* \"#utility.yul\":16249:16258   */\n      dup3\n        /* \"#utility.yul\":16245:16263   */\n      add\n        /* \"#utility.yul\":16237:16263   */\n      swap1\n      pop\n        /* \"#utility.yul\":16273:16344   */\n      tag_388\n        /* \"#utility.yul\":16341:16342   */\n      0x00\n        /* \"#utility.yul\":16330:16339   */\n      dup4\n        /* \"#utility.yul\":16326:16343   */\n      add\n        /* \"#utility.yul\":16317:16323   */\n      dup7\n        /* \"#utility.yul\":16273:16344   */\n      tag_202\n      jump\t// in\n    tag_388:\n        /* \"#utility.yul\":16354:16426   */\n      tag_389\n        /* \"#utility.yul\":16422:16424   */\n      0x20\n        /* \"#utility.yul\":16411:16420   */\n      dup4\n        /* \"#utility.yul\":16407:16425   */\n      add\n        /* \"#utility.yul\":16398:16404   */\n      dup6\n        /* \"#utility.yul\":16354:16426   */\n      tag_202\n      jump\t// in\n    tag_389:\n        /* \"#utility.yul\":16436:16508   */\n      tag_390\n        /* \"#utility.yul\":16504:16506   */\n      0x40\n        /* \"#utility.yul\":16493:16502   */\n      dup4\n        /* \"#utility.yul\":16489:16507   */\n      add\n        /* \"#utility.yul\":16480:16486   */\n      dup5\n        /* \"#utility.yul\":16436:16508   */\n      tag_196\n      jump\t// in\n    tag_390:\n        /* \"#utility.yul\":16073:16515   */\n      swap5\n      swap4\n      pop\n      pop\n      pop\n      pop\n      jump\t// out\n\n    auxdata: 0xa2646970667358221220c4c70b7b9836bacfb4f0ccf6b50f85eac179e1c3f73bef26f68cea5ec873fcb864736f6c63430008140033\n}\n",
				"bytecode": {
					"linkReferences": {},
					"object": "608060405234801562000010575f80fd5b50335f73ffffffffffffffffffffffffffffffffffffffff168173ffffffffffffffffffffffffffffffffffffffff160362000085575f6040517f1e4fbdf70000000000000000000000000000000000000000000000000000000081526004016200007c9190620001a8565b60405180910390fd5b6200009681620000a460201b60201c565b5060018081905550620001c3565b5f805f9054906101000a900473ffffffffffffffffffffffffffffffffffffffff169050815f806101000a81548173ffffffffffffffffffffffffffffffffffffffff021916908373ffffffffffffffffffffffffffffffffffffffff1602179055508173ffffffffffffffffffffffffffffffffffffffff168173ffffffffffffffffffffffffffffffffffffffff167f8be0079c531659141344cd1fd0a4f28419497f9722a3daafe3b4186f6b6457e060405160405180910390a35050565b5f73ffffffffffffffffffffffffffffffffffffffff82169050919050565b5f620001908262000165565b9050919050565b620001a28162000184565b82525050565b5f602082019050620001bd5f83018462000197565b92915050565b61195e80620001d15f395ff3fe608060405234801561000f575f80fd5b50600436106100b2575f3560e01c80638da5cb5b1161006f5780638da5cb5b14610166578063a87430ba14610184578063d12eb0a3146101b6578063dabeaecf146101e6578063f2fde38b14610202578063f89ec5f51461021e576100b2565b806323544748146100b657806344051053146100c05780634ef8ff33146100f05780635ae809511461010e578063715018a61461013e57806389a3027114610148575b5f80fd5b6100be61023c565b005b6100da60048036038101906100d59190611199565b61048c565b6040516100e7919061127b565b60405180910390f35b6100f8610554565b60405161010591906112b3565b60405180910390f35b61012860048036038101906101239190611199565b61055b565b60405161013591906112b3565b60405180910390f35b610146610647565b005b61015061065a565b60405161015d9190611327565b60405180910390f35b61016e610672565b60405161017b919061134f565b60405180910390f35b61019e60048036038101906101999190611199565b610699565b6040516101ad93929190611368565b60405180910390f35b6101d060048036038101906101cb91906113c7565b6106de565b6040516101dd919061134f565b60405180910390f35b61020060048036038101906101fb9190611405565b610726565b005b61021c60048036038101906102179190611199565b610d5c565b005b610226610de0565b6040516102339190611463565b60405180910390f35b610244610df8565b5f60025f3373ffffffffffffffffffffffffffffffffffffffff1673ffffffffffffffffffffffffffffffffffffffff1681526020019081526020015f2090505f8160010154116102ca576040517f08c379a00000000000000000000000000000000000000000000000000000000081526004016102c1906114d6565b60405180910390fd5b5f816001015490505f82600101819055505f825f01819055505f731686616428c04907ab37a8987b7a97260714e29073ffffffffffffffffffffffffffffffffffffffff1663db006a75836040518263ffffffff1660e01b815260040161033191906112b3565b6020604051808303815f875af115801561034d573d5f803e3d5ffd5b505050506040513d601f19601f820116820180604052508101906103719190611508565b146103b1576040517f08c379a00000000000000000000000000000000000000000000000000000000081526004016103a89061157d565b60405180910390fd5b5f73833589fcd6edb6e08f4c7c32d4f71b54bda0291373ffffffffffffffffffffffffffffffffffffffff166370a08231306040518263ffffffff1660e01b81526004016103ff919061134f565b602060405180830381865afa15801561041a573d5f803e3d5ffd5b505050506040513d601f19601f8201168201806040525081019061043e9190611508565b905061047f338273833589fcd6edb6e08f4c7c32d4f71b54bda0291373ffffffffffffffffffffffffffffffffffffffff16610e479092919063ffffffff16565b50505061048a610ec6565b565b606060035f8373ffffffffffffffffffffffffffffffffffffffff1673ffffffffffffffffffffffffffffffffffffffff1681526020019081526020015f2080548060200260200160405190810160405280929190818152602001828054801561054857602002820191905f5260205f20905b815f9054906101000a900473ffffffffffffffffffffffffffffffffffffffff1673ffffffffffffffffffffffffffffffffffffffff16815260200190600101908083116104ff575b50505050509050919050565b6298968081565b5f80731686616428c04907ab37a8987b7a97260714e29073ffffffffffffffffffffffffffffffffffffffff1663182df0f56040518163ffffffff1660e01b8152600401602060405180830381865afa1580156105ba573d5f803e3d5ffd5b505050506040513d601f19601f820116820180604052508101906105de9190611508565b9050670de0b6b3a76400008160025f8673ffffffffffffffffffffffffffffffffffffffff1673ffffffffffffffffffffffffffffffffffffffff1681526020019081526020015f206001015461063591906115c8565b61063f9190611636565b915050919050565b61064f610ecf565b6106585f610f56565b565b73833589fcd6edb6e08f4c7c32d4f71b54bda0291381565b5f805f9054906101000a900473ffffffffffffffffffffffffffffffffffffffff16905090565b6002602052805f5260405f205f91509050805f015490806001015490806002015f9054906101000a900473ffffffffffffffffffffffffffffffffffffffff16905083565b6003602052815f5260405f2081815481106106f7575f80fd5b905f5260205f20015f915091509054906101000a900473ffffffffffffffffffffffffffffffffffffffff1681565b61072e610df8565b62989680821015610774576040517f08c379a000000000000000000000000000000000000000000000000000000000815260040161076b906116b0565b60405180910390fd5b3373ffffffffffffffffffffffffffffffffffffffff168173ffffffffffffffffffffffffffffffffffffffff16036107e2576040517f08c379a00000000000000000000000000000000000000000000000000000000081526004016107d990611718565b60405180910390fd5b5f73ffffffffffffffffffffffffffffffffffffffff1660025f3373ffffffffffffffffffffffffffffffffffffffff1673ffffffffffffffffffffffffffffffffffffffff1681526020019081526020015f206002015f9054906101000a900473ffffffffffffffffffffffffffffffffffffffff1673ffffffffffffffffffffffffffffffffffffffff161480156108a857505f73ffffffffffffffffffffffffffffffffffffffff168173ffffffffffffffffffffffffffffffffffffffff1614155b156109c7578060025f3373ffffffffffffffffffffffffffffffffffffffff1673ffffffffffffffffffffffffffffffffffffffff1681526020019081526020015f206002015f6101000a81548173ffffffffffffffffffffffffffffffffffffffff021916908373ffffffffffffffffffffffffffffffffffffffff16021790555060035f8273ffffffffffffffffffffffffffffffffffffffff1673ffffffffffffffffffffffffffffffffffffffff1681526020019081526020015f2033908060018154018082558091505060019003905f5260205f20015f9091909190916101000a81548173ffffffffffffffffffffffffffffffffffffffff021916908373ffffffffffffffffffffffffffffffffffffffff1602179055505b610a0833308473833589fcd6edb6e08f4c7c32d4f71b54bda0291373ffffffffffffffffffffffffffffffffffffffff16611017909392919063ffffffff16565b73833589fcd6edb6e08f4c7c32d4f71b54bda0291373ffffffffffffffffffffffffffffffffffffffff1663095ea7b3731686616428c04907ab37a8987b7a97260714e290846040518363ffffffff1660e01b8152600401610a6b929190611736565b6020604051808303815f875af1158015610a87573d5f803e3d5ffd5b505050506040513d601f19601f82011682018060405250810190610aab9190611792565b505f731686616428c04907ab37a8987b7a97260714e29073ffffffffffffffffffffffffffffffffffffffff166370a08231306040518263ffffffff1660e01b8152600401610afa919061134f565b602060405180830381865afa158015610b15573d5f803e3d5ffd5b505050506040513d601f19601f82011682018060405250810190610b399190611508565b90505f731686616428c04907ab37a8987b7a97260714e29073ffffffffffffffffffffffffffffffffffffffff1663a0712d68856040518263ffffffff1660e01b8152600401610b8991906112b3565b6020604051808303815f875af1158015610ba5573d5f803e3d5ffd5b505050506040513d601f19601f82011682018060405250810190610bc99190611508565b14610c09576040517f08c379a0000000000000000000000000000000000000000000000000000000008152600401610c0090611807565b60405180910390fd5b5f81731686616428c04907ab37a8987b7a97260714e29073ffffffffffffffffffffffffffffffffffffffff166370a08231306040518263ffffffff1660e01b8152600401610c58919061134f565b602060405180830381865afa158015610c73573d5f803e3d5ffd5b505050506040513d601f19601f82011682018060405250810190610c979190611508565b610ca19190611825565b90508360025f3373ffffffffffffffffffffffffffffffffffffffff1673ffffffffffffffffffffffffffffffffffffffff1681526020019081526020015f205f015f828254610cf19190611858565b925050819055508060025f3373ffffffffffffffffffffffffffffffffffffffff1673ffffffffffffffffffffffffffffffffffffffff1681526020019081526020015f206001015f828254610d479190611858565b925050819055505050610d58610ec6565b5050565b610d64610ecf565b5f73ffffffffffffffffffffffffffffffffffffffff168173ffffffffffffffffffffffffffffffffffffffff1603610dd4575f6040517f1e4fbdf7000000000000000000000000000000000000000000000000000000008152600401610dcb919061134f565b60405180910390fd5b610ddd81610f56565b50565b731686616428c04907ab37a8987b7a97260714e29081565b600260015403610e3d576040517f08c379a0000000000000000000000000000000000000000000000000000000008152600401610e34906118d5565b60405180910390fd5b6002600181905550565b610ec1838473ffffffffffffffffffffffffffffffffffffffff1663a9059cbb8585604051602401610e7a929190611736565b604051602081830303815290604052915060e01b6020820180517bffffffffffffffffffffffffffffffffffffffffffffffffffffffff8381831617835250505050611099565b505050565b60018081905550565b610ed7611134565b73ffffffffffffffffffffffffffffffffffffffff16610ef5610672565b73ffffffffffffffffffffffffffffffffffffffff1614610f5457610f18611134565b6040517f118cdaa7000000000000000000000000000000000000000000000000000000008152600401610f4b919061134f565b60405180910390fd5b565b5f805f9054906101000a900473ffffffffffffffffffffffffffffffffffffffff169050815f806101000a81548173ffffffffffffffffffffffffffffffffffffffff021916908373ffffffffffffffffffffffffffffffffffffffff1602179055508173ffffffffffffffffffffffffffffffffffffffff168173ffffffffffffffffffffffffffffffffffffffff167f8be0079c531659141344cd1fd0a4f28419497f9722a3daafe3b4186f6b6457e060405160405180910390a35050565b611093848573ffffffffffffffffffffffffffffffffffffffff166323b872dd86868660405160240161104c939291906118f3565b604051602081830303815290604052915060e01b6020820180517bffffffffffffffffffffffffffffffffffffffffffffffffffffffff8381831617835250505050611099565b50505050565b5f8060205f8451602086015f885af1806110b8576040513d5f823e3d81fd5b3d92505f519150505f82146110d15760018114156110ec565b5f8473ffffffffffffffffffffffffffffffffffffffff163b145b1561112e57836040517f5274afe7000000000000000000000000000000000000000000000000000000008152600401611125919061134f565b60405180910390fd5b50505050565b5f33905090565b5f80fd5b5f73ffffffffffffffffffffffffffffffffffffffff82169050919050565b5f6111688261113f565b9050919050565b6111788161115e565b8114611182575f80fd5b50565b5f813590506111938161116f565b92915050565b5f602082840312156111ae576111ad61113b565b5b5f6111bb84828501611185565b91505092915050565b5f81519050919050565b5f82825260208201905092915050565b5f819050602082019050919050565b6111f68161115e565b82525050565b5f61120783836111ed565b60208301905092915050565b5f602082019050919050565b5f611229826111c4565b61123381856111ce565b935061123e836111de565b805f5b8381101561126e57815161125588826111fc565b975061126083611213565b925050600181019050611241565b5085935050505092915050565b5f6020820190508181035f830152611293818461121f565b905092915050565b5f819050919050565b6112ad8161129b565b82525050565b5f6020820190506112c65f8301846112a4565b92915050565b5f819050919050565b5f6112ef6112ea6112e58461113f565b6112cc565b61113f565b9050919050565b5f611300826112d5565b9050919050565b5f611311826112f6565b9050919050565b61132181611307565b82525050565b5f60208201905061133a5f830184611318565b92915050565b6113498161115e565b82525050565b5f6020820190506113625f830184611340565b92915050565b5f60608201905061137b5f8301866112a4565b61138860208301856112a4565b6113956040830184611340565b949350505050565b6113a68161129b565b81146113b0575f80fd5b50565b5f813590506113c18161139d565b92915050565b5f80604083850312156113dd576113dc61113b565b5b5f6113ea85828601611185565b92505060206113fb858286016113b3565b9150509250929050565b5f806040838503121561141b5761141a61113b565b5b5f611428858286016113b3565b925050602061143985828601611185565b9150509250929050565b5f61144d826112f6565b9050919050565b61145d81611443565b82525050565b5f6020820190506114765f830184611454565b92915050565b5f82825260208201905092915050565b7f4e6f2062616c616e6365000000000000000000000000000000000000000000005f82015250565b5f6114c0600a8361147c565b91506114cb8261148c565b602082019050919050565b5f6020820190508181035f8301526114ed816114b4565b9050919050565b5f815190506115028161139d565b92915050565b5f6020828403121561151d5761151c61113b565b5b5f61152a848285016114f4565b91505092915050565b7f4d6f7270686f2052656465656d206661696c65640000000000000000000000005f82015250565b5f61156760148361147c565b915061157282611533565b602082019050919050565b5f6020820190508181035f8301526115948161155b565b9050919050565b7f4e487b71000000000000000000000000000000000000000000000000000000005f52601160045260245ffd5b5f6115d28261129b565b91506115dd8361129b565b92508282026115eb8161129b565b915082820484148315176116025761160161159b565b5b5092915050565b7f4e487b71000000000000000000000000000000000000000000000000000000005f52601260045260245ffd5b5f6116408261129b565b915061164b8361129b565b92508261165b5761165a611609565b5b828204905092915050565b7f4d696e20313020555344430000000000000000000000000000000000000000005f82015250565b5f61169a600b8361147c565b91506116a582611666565b602082019050919050565b5f6020820190508181035f8301526116c78161168e565b9050919050565b7f4e6f2073656c662d726566657272616c000000000000000000000000000000005f82015250565b5f61170260108361147c565b915061170d826116ce565b602082019050919050565b5f6020820190508181035f83015261172f816116f6565b9050919050565b5f6040820190506117495f830185611340565b61175660208301846112a4565b9392505050565b5f8115159050919050565b6117718161175d565b811461177b575f80fd5b50565b5f8151905061178c81611768565b92915050565b5f602082840312156117a7576117a661113b565b5b5f6117b48482850161177e565b91505092915050565b7f4d6f7270686f204d696e74206661696c656400000000000000000000000000005f82015250565b5f6117f160128361147c565b91506117fc826117bd565b602082019050919050565b5f6020820190508181035f83015261181e816117e5565b9050919050565b5f61182f8261129b565b915061183a8361129b565b92508282039050818111156118525761185161159b565b5b92915050565b5f6118628261129b565b915061186d8361129b565b92508282019050808211156118855761188461159b565b5b92915050565b7f5265656e7472616e637947756172643a207265656e7472616e742063616c6c005f82015250565b5f6118bf601f8361147c565b91506118ca8261188b565b602082019050919050565b5f6020820190508181035f8301526118ec816118b3565b9050919050565b5f6060820190506119065f830186611340565b6119136020830185611340565b61192060408301846112a4565b94935050505056fea2646970667358221220c4c70b7b9836bacfb4f0ccf6b50f85eac179e1c3f73bef26f68cea5ec873fcb864736f6c63430008140033",
					"opcodes": "PUSH1 0x80 PUSH1 0x40 MSTORE CALLVALUE DUP1 ISZERO PUSH3 0x10 JUMPI PUSH0 DUP1 REVERT JUMPDEST POP CALLER PUSH0 PUSH20 0xFFFFFFFFFFFFFFFFFFFFFFFFFFFFFFFFFFFFFFFF AND DUP2 PUSH20 0xFFFFFFFFFFFFFFFFFFFFFFFFFFFFFFFFFFFFFFFF AND SUB PUSH3 0x85 JUMPI PUSH0 PUSH1 0x40 MLOAD PUSH32 0x1E4FBDF700000000000000000000000000000000000000000000000000000000 DUP2 MSTORE PUSH1 0x4 ADD PUSH3 0x7C SWAP2 SWAP1 PUSH3 0x1A8 JUMP JUMPDEST PUSH1 0x40 MLOAD DUP1 SWAP2 SUB SWAP1 REVERT JUMPDEST PUSH3 0x96 DUP2 PUSH3 0xA4 PUSH1 0x20 SHL PUSH1 0x20 SHR JUMP JUMPDEST POP PUSH1 0x1 DUP1 DUP2 SWAP1 SSTORE POP PUSH3 0x1C3 JUMP JUMPDEST PUSH0 DUP1 PUSH0 SWAP1 SLOAD SWAP1 PUSH2 0x100 EXP SWAP1 DIV PUSH20 0xFFFFFFFFFFFFFFFFFFFFFFFFFFFFFFFFFFFFFFFF AND SWAP1 POP DUP2 PUSH0 DUP1 PUSH2 0x100 EXP DUP2 SLOAD DUP2 PUSH20 0xFFFFFFFFFFFFFFFFFFFFFFFFFFFFFFFFFFFFFFFF MUL NOT AND SWAP1 DUP4 PUSH20 0xFFFFFFFFFFFFFFFFFFFFFFFFFFFFFFFFFFFFFFFF AND MUL OR SWAP1 SSTORE POP DUP2 PUSH20 0xFFFFFFFFFFFFFFFFFFFFFFFFFFFFFFFFFFFFFFFF AND DUP2 PUSH20 0xFFFFFFFFFFFFFFFFFFFFFFFFFFFFFFFFFFFFFFFF AND PUSH32 0x8BE0079C531659141344CD1FD0A4F28419497F9722A3DAAFE3B4186F6B6457E0 PUSH1 0x40 MLOAD PUSH1 0x40 MLOAD DUP1 SWAP2 SUB SWAP1 LOG3 POP POP JUMP JUMPDEST PUSH0 PUSH20 0xFFFFFFFFFFFFFFFFFFFFFFFFFFFFFFFFFFFFFFFF DUP3 AND SWAP1 POP SWAP2 SWAP1 POP JUMP JUMPDEST PUSH0 PUSH3 0x190 DUP3 PUSH3 0x165 JUMP JUMPDEST SWAP1 POP SWAP2 SWAP1 POP JUMP JUMPDEST PUSH3 0x1A2 DUP2 PUSH3 0x184 JUMP JUMPDEST DUP3 MSTORE POP POP JUMP JUMPDEST PUSH0 PUSH1 0x20 DUP3 ADD SWAP1 POP PUSH3 0x1BD PUSH0 DUP4 ADD DUP5 PUSH3 0x197 JUMP JUMPDEST SWAP3 SWAP2 POP POP JUMP JUMPDEST PUSH2 0x195E DUP1 PUSH3 0x1D1 PUSH0 CODECOPY PUSH0 RETURN INVALID PUSH1 0x80 PUSH1 0x40 MSTORE CALLVALUE DUP1 ISZERO PUSH2 0xF JUMPI PUSH0 DUP1 REVERT JUMPDEST POP PUSH1 0x4 CALLDATASIZE LT PUSH2 0xB2 JUMPI PUSH0 CALLDATALOAD PUSH1 0xE0 SHR DUP1 PUSH4 0x8DA5CB5B GT PUSH2 0x6F JUMPI DUP1 PUSH4 0x8DA5CB5B EQ PUSH2 0x166 JUMPI DUP1 PUSH4 0xA87430BA EQ PUSH2 0x184 JUMPI DUP1 PUSH4 0xD12EB0A3 EQ PUSH2 0x1B6 JUMPI DUP1 PUSH4 0xDABEAECF EQ PUSH2 0x1E6 JUMPI DUP1 PUSH4 0xF2FDE38B EQ PUSH2 0x202 JUMPI DUP1 PUSH4 0xF89EC5F5 EQ PUSH2 0x21E JUMPI PUSH2 0xB2 JUMP JUMPDEST DUP1 PUSH4 0x23544748 EQ PUSH2 0xB6 JUMPI DUP1 PUSH4 0x44051053 EQ PUSH2 0xC0 JUMPI DUP1 PUSH4 0x4EF8FF33 EQ PUSH2 0xF0 JUMPI DUP1 PUSH4 0x5AE80951 EQ PUSH2 0x10E JUMPI DUP1 PUSH4 0x715018A6 EQ PUSH2 0x13E JUMPI DUP1 PUSH4 0x89A30271 EQ PUSH2 0x148 JUMPI JUMPDEST PUSH0 DUP1 REVERT JUMPDEST PUSH2 0xBE PUSH2 0x23C JUMP JUMPDEST STOP JUMPDEST PUSH2 0xDA PUSH1 0x4 DUP1 CALLDATASIZE SUB DUP2 ADD SWAP1 PUSH2 0xD5 SWAP2 SWAP1 PUSH2 0x1199 JUMP JUMPDEST PUSH2 0x48C JUMP JUMPDEST PUSH1 0x40 MLOAD PUSH2 0xE7 SWAP2 SWAP1 PUSH2 0x127B JUMP JUMPDEST PUSH1 0x40 MLOAD DUP1 SWAP2 SUB SWAP1 RETURN JUMPDEST PUSH2 0xF8 PUSH2 0x554 JUMP JUMPDEST PUSH1 0x40 MLOAD PUSH2 0x105 SWAP2 SWAP1 PUSH2 0x12B3 JUMP JUMPDEST PUSH1 0x40 MLOAD DUP1 SWAP2 SUB SWAP1 RETURN JUMPDEST PUSH2 0x128 PUSH1 0x4 DUP1 CALLDATASIZE SUB DUP2 ADD SWAP1 PUSH2 0x123 SWAP2 SWAP1 PUSH2 0x1199 JUMP JUMPDEST PUSH2 0x55B JUMP JUMPDEST PUSH1 0x40 MLOAD PUSH2 0x135 SWAP2 SWAP1 PUSH2 0x12B3 JUMP JUMPDEST PUSH1 0x40 MLOAD DUP1 SWAP2 SUB SWAP1 RETURN JUMPDEST PUSH2 0x146 PUSH2 0x647 JUMP JUMPDEST STOP JUMPDEST PUSH2 0x150 PUSH2 0x65A JUMP JUMPDEST PUSH1 0x40 MLOAD PUSH2 0x15D SWAP2 SWAP1 PUSH2 0x1327 JUMP JUMPDEST PUSH1 0x40 MLOAD DUP1 SWAP2 SUB SWAP1 RETURN JUMPDEST PUSH2 0x16E PUSH2 0x672 JUMP JUMPDEST PUSH1 0x40 MLOAD PUSH2 0x17B SWAP2 SWAP1 PUSH2 0x134F JUMP JUMPDEST PUSH1 0x40 MLOAD DUP1 SWAP2 SUB SWAP1 RETURN JUMPDEST PUSH2 0x19E PUSH1 0x4 DUP1 CALLDATASIZE SUB DUP2 ADD SWAP1 PUSH2 0x199 SWAP2 SWAP1 PUSH2 0x1199 JUMP JUMPDEST PUSH2 0x699 JUMP JUMPDEST PUSH1 0x40 MLOAD PUSH2 0x1AD SWAP4 SWAP3 SWAP2 SWAP1 PUSH2 0x1368 JUMP JUMPDEST PUSH1 0x40 MLOAD DUP1 SWAP2 SUB SWAP1 RETURN JUMPDEST PUSH2 0x1D0 PUSH1 0x4 DUP1 CALLDATASIZE SUB DUP2 ADD SWAP1 PUSH2 0x1CB SWAP2 SWAP1 PUSH2 0x13C7 JUMP JUMPDEST PUSH2 0x6DE JUMP JUMPDEST PUSH1 0x40 MLOAD PUSH2 0x1DD SWAP2 SWAP1 PUSH2 0x134F JUMP JUMPDEST PUSH1 0x40 MLOAD DUP1 SWAP2 SUB SWAP1 RETURN JUMPDEST PUSH2 0x200 PUSH1 0x4 DUP1 CALLDATASIZE SUB DUP2 ADD SWAP1 PUSH2 0x1FB SWAP2 SWAP1 PUSH2 0x1405 JUMP JUMPDEST PUSH2 0x726 JUMP JUMPDEST STOP JUMPDEST PUSH2 0x21C PUSH1 0x4 DUP1 CALLDATASIZE SUB DUP2 ADD SWAP1 PUSH2 0x217 SWAP2 SWAP1 PUSH2 0x1199 JUMP JUMPDEST PUSH2 0xD5C JUMP JUMPDEST STOP JUMPDEST PUSH2 0x226 PUSH2 0xDE0 JUMP JUMPDEST PUSH1 0x40 MLOAD PUSH2 0x233 SWAP2 SWAP1 PUSH2 0x1463 JUMP JUMPDEST PUSH1 0x40 MLOAD DUP1 SWAP2 SUB SWAP1 RETURN JUMPDEST PUSH2 0x244 PUSH2 0xDF8 JUMP JUMPDEST PUSH0 PUSH1 0x2 PUSH0 CALLER PUSH20 0xFFFFFFFFFFFFFFFFFFFFFFFFFFFFFFFFFFFFFFFF AND PUSH20 0xFFFFFFFFFFFFFFFFFFFFFFFFFFFFFFFFFFFFFFFF AND DUP2 MSTORE PUSH1 0x20 ADD SWAP1 DUP2 MSTORE PUSH1 0x20 ADD PUSH0 KECCAK256 SWAP1 POP PUSH0 DUP2 PUSH1 0x1 ADD SLOAD GT PUSH2 0x2CA JUMPI PUSH1 0x40 MLOAD PUSH32 0x8C379A000000000000000000000000000000000000000000000000000000000 DUP2 MSTORE PUSH1 0x4 ADD PUSH2 0x2C1 SWAP1 PUSH2 0x14D6 JUMP JUMPDEST PUSH1 0x40 MLOAD DUP1 SWAP2 SUB SWAP1 REVERT JUMPDEST PUSH0 DUP2 PUSH1 0x1 ADD SLOAD SWAP1 POP PUSH0 DUP3 PUSH1 0x1 ADD DUP2 SWAP1 SSTORE POP PUSH0 DUP3 PUSH0 ADD DUP2 SWAP1 SSTORE POP PUSH0 PUSH20 0x1686616428C04907AB37A8987B7A97260714E290 PUSH20 0xFFFFFFFFFFFFFFFFFFFFFFFFFFFFFFFFFFFFFFFF AND PUSH4 0xDB006A75 DUP4 PUSH1 0x40 MLOAD DUP3 PUSH4 0xFFFFFFFF AND PUSH1 0xE0 SHL DUP2 MSTORE PUSH1 0x4 ADD PUSH2 0x331 SWAP2 SWAP1 PUSH2 0x12B3 JUMP JUMPDEST PUSH1 0x20 PUSH1 0x40 MLOAD DUP1 DUP4 SUB DUP2 PUSH0 DUP8 GAS CALL ISZERO DUP1 ISZERO PUSH2 0x34D JUMPI RETURNDATASIZE PUSH0 DUP1 RETURNDATACOPY RETURNDATASIZE PUSH0 REVERT JUMPDEST POP POP POP POP PUSH1 0x40 MLOAD RETURNDATASIZE PUSH1 0x1F NOT PUSH1 0x1F DUP3 ADD AND DUP3 ADD DUP1 PUSH1 0x40 MSTORE POP DUP2 ADD SWAP1 PUSH2 0x371 SWAP2 SWAP1 PUSH2 0x1508 JUMP JUMPDEST EQ PUSH2 0x3B1 JUMPI PUSH1 0x40 MLOAD PUSH32 0x8C379A000000000000000000000000000000000000000000000000000000000 DUP2 MSTORE PUSH1 0x4 ADD PUSH2 0x3A8 SWAP1 PUSH2 0x157D JUMP JUMPDEST PUSH1 0x40 MLOAD DUP1 SWAP2 SUB SWAP1 REVERT JUMPDEST PUSH0 PUSH20 0x833589FCD6EDB6E08F4C7C32D4F71B54BDA02913 PUSH20 0xFFFFFFFFFFFFFFFFFFFFFFFFFFFFFFFFFFFFFFFF AND PUSH4 0x70A08231 ADDRESS PUSH1 0x40 MLOAD DUP3 PUSH4 0xFFFFFFFF AND PUSH1 0xE0 SHL DUP2 MSTORE PUSH1 0x4 ADD PUSH2 0x3FF SWAP2 SWAP1 PUSH2 0x134F JUMP JUMPDEST PUSH1 0x20 PUSH1 0x40 MLOAD DUP1 DUP4 SUB DUP2 DUP7 GAS STATICCALL ISZERO DUP1 ISZERO PUSH2 0x41A JUMPI RETURNDATASIZE PUSH0 DUP1 RETURNDATACOPY RETURNDATASIZE PUSH0 REVERT JUMPDEST POP POP POP POP PUSH1 0x40 MLOAD RETURNDATASIZE PUSH1 0x1F NOT PUSH1 0x1F DUP3 ADD AND DUP3 ADD DUP1 PUSH1 0x40 MSTORE POP DUP2 ADD SWAP1 PUSH2 0x43E SWAP2 SWAP1 PUSH2 0x1508 JUMP JUMPDEST SWAP1 POP PUSH2 0x47F CALLER DUP3 PUSH20 0x833589FCD6EDB6E08F4C7C32D4F71B54BDA02913 PUSH20 0xFFFFFFFFFFFFFFFFFFFFFFFFFFFFFFFFFFFFFFFF AND PUSH2 0xE47 SWAP1 SWAP3 SWAP2 SWAP1 PUSH4 0xFFFFFFFF AND JUMP JUMPDEST POP POP POP PUSH2 0x48A PUSH2 0xEC6 JUMP JUMPDEST JUMP JUMPDEST PUSH1 0x60 PUSH1 0x3 PUSH0 DUP4 PUSH20 0xFFFFFFFFFFFFFFFFFFFFFFFFFFFFFFFFFFFFFFFF AND PUSH20 0xFFFFFFFFFFFFFFFFFFFFFFFFFFFFFFFFFFFFFFFF AND DUP2 MSTORE PUSH1 0x20 ADD SWAP1 DUP2 MSTORE PUSH1 0x20 ADD PUSH0 KECCAK256 DUP1 SLOAD DUP1 PUSH1 0x20 MUL PUSH1 0x20 ADD PUSH1 0x40 MLOAD SWAP1 DUP2 ADD PUSH1 0x40 MSTORE DUP1 SWAP3 SWAP2 SWAP1 DUP2 DUP2 MSTORE PUSH1 0x20 ADD DUP3 DUP1 SLOAD DUP1 ISZERO PUSH2 0x548 JUMPI PUSH1 0x20 MUL DUP3 ADD SWAP2 SWAP1 PUSH0 MSTORE PUSH1 0x20 PUSH0 KECCAK256 SWAP1 JUMPDEST DUP2 PUSH0 SWAP1 SLOAD SWAP1 PUSH2 0x100 EXP SWAP1 DIV PUSH20 0xFFFFFFFFFFFFFFFFFFFFFFFFFFFFFFFFFFFFFFFF AND PUSH20 0xFFFFFFFFFFFFFFFFFFFFFFFFFFFFFFFFFFFFFFFF AND DUP2 MSTORE PUSH1 0x20 ADD SWAP1 PUSH1 0x1 ADD SWAP1 DUP1 DUP4 GT PUSH2 0x4FF JUMPI JUMPDEST POP POP POP POP POP SWAP1 POP SWAP2 SWAP1 POP JUMP JUMPDEST PUSH3 0x989680 DUP2 JUMP JUMPDEST PUSH0 DUP1 PUSH20 0x1686616428C04907AB37A8987B7A97260714E290 PUSH20 0xFFFFFFFFFFFFFFFFFFFFFFFFFFFFFFFFFFFFFFFF AND PUSH4 0x182DF0F5 PUSH1 0x40 MLOAD DUP2 PUSH4 0xFFFFFFFF AND PUSH1 0xE0 SHL DUP2 MSTORE PUSH1 0x4 ADD PUSH1 0x20 PUSH1 0x40 MLOAD DUP1 DUP4 SUB DUP2 DUP7 GAS STATICCALL ISZERO DUP1 ISZERO PUSH2 0x5BA JUMPI RETURNDATASIZE PUSH0 DUP1 RETURNDATACOPY RETURNDATASIZE PUSH0 REVERT JUMPDEST POP POP POP POP PUSH1 0x40 MLOAD RETURNDATASIZE PUSH1 0x1F NOT PUSH1 0x1F DUP3 ADD AND DUP3 ADD DUP1 PUSH1 0x40 MSTORE POP DUP2 ADD SWAP1 PUSH2 0x5DE SWAP2 SWAP1 PUSH2 0x1508 JUMP JUMPDEST SWAP1 POP PUSH8 0xDE0B6B3A7640000 DUP2 PUSH1 0x2 PUSH0 DUP7 PUSH20 0xFFFFFFFFFFFFFFFFFFFFFFFFFFFFFFFFFFFFFFFF AND PUSH20 0xFFFFFFFFFFFFFFFFFFFFFFFFFFFFFFFFFFFFFFFF AND DUP2 MSTORE PUSH1 0x20 ADD SWAP1 DUP2 MSTORE PUSH1 0x20 ADD PUSH0 KECCAK256 PUSH1 0x1 ADD SLOAD PUSH2 0x635 SWAP2 SWAP1 PUSH2 0x15C8 JUMP JUMPDEST PUSH2 0x63F SWAP2 SWAP1 PUSH2 0x1636 JUMP JUMPDEST SWAP2 POP POP SWAP2 SWAP1 POP JUMP JUMPDEST PUSH2 0x64F PUSH2 0xECF JUMP JUMPDEST PUSH2 0x658 PUSH0 PUSH2 0xF56 JUMP JUMPDEST JUMP JUMPDEST PUSH20 0x833589FCD6EDB6E08F4C7C32D4F71B54BDA02913 DUP2 JUMP JUMPDEST PUSH0 DUP1 PUSH0 SWAP1 SLOAD SWAP1 PUSH2 0x100 EXP SWAP1 DIV PUSH20 0xFFFFFFFFFFFFFFFFFFFFFFFFFFFFFFFFFFFFFFFF AND SWAP1 POP SWAP1 JUMP JUMPDEST PUSH1 0x2 PUSH1 0x20 MSTORE DUP1 PUSH0 MSTORE PUSH1 0x40 PUSH0 KECCAK256 PUSH0 SWAP2 POP SWAP1 POP DUP1 PUSH0 ADD SLOAD SWAP1 DUP1 PUSH1 0x1 ADD SLOAD SWAP1 DUP1 PUSH1 0x2 ADD PUSH0 SWAP1 SLOAD SWAP1 PUSH2 0x100 EXP SWAP1 DIV PUSH20 0xFFFFFFFFFFFFFFFFFFFFFFFFFFFFFFFFFFFFFFFF AND SWAP1 POP DUP4 JUMP JUMPDEST PUSH1 0x3 PUSH1 0x20 MSTORE DUP2 PUSH0 MSTORE PUSH1 0x40 PUSH0 KECCAK256 DUP2 DUP2 SLOAD DUP2 LT PUSH2 0x6F7 JUMPI PUSH0 DUP1 REVERT JUMPDEST SWAP1 PUSH0 MSTORE PUSH1 0x20 PUSH0 KECCAK256 ADD PUSH0 SWAP2 POP SWAP2 POP SWAP1 SLOAD SWAP1 PUSH2 0x100 EXP SWAP1 DIV PUSH20 0xFFFFFFFFFFFFFFFFFFFFFFFFFFFFFFFFFFFFFFFF AND DUP2 JUMP JUMPDEST PUSH2 0x72E PUSH2 0xDF8 JUMP JUMPDEST PUSH3 0x989680 DUP3 LT ISZERO PUSH2 0x774 JUMPI PUSH1 0x40 MLOAD PUSH32 0x8C379A000000000000000000000000000000000000000000000000000000000 DUP2 MSTORE PUSH1 0x4 ADD PUSH2 0x76B SWAP1 PUSH2 0x16B0 JUMP JUMPDEST PUSH1 0x40 MLOAD DUP1 SWAP2 SUB SWAP1 REVERT JUMPDEST CALLER PUSH20 0xFFFFFFFFFFFFFFFFFFFFFFFFFFFFFFFFFFFFFFFF AND DUP2 PUSH20 0xFFFFFFFFFFFFFFFFFFFFFFFFFFFFFFFFFFFFFFFF AND SUB PUSH2 0x7E2 JUMPI PUSH1 0x40 MLOAD PUSH32 0x8C379A000000000000000000000000000000000000000000000000000000000 DUP2 MSTORE PUSH1 0x4 ADD PUSH2 0x7D9 SWAP1 PUSH2 0x1718 JUMP JUMPDEST PUSH1 0x40 MLOAD DUP1 SWAP2 SUB SWAP1 REVERT JUMPDEST PUSH0 PUSH20 0xFFFFFFFFFFFFFFFFFFFFFFFFFFFFFFFFFFFFFFFF AND PUSH1 0x2 PUSH0 CALLER PUSH20 0xFFFFFFFFFFFFFFFFFFFFFFFFFFFFFFFFFFFFFFFF AND PUSH20 0xFFFFFFFFFFFFFFFFFFFFFFFFFFFFFFFFFFFFFFFF AND DUP2 MSTORE PUSH1 0x20 ADD SWAP1 DUP2 MSTORE PUSH1 0x20 ADD PUSH0 KECCAK256 PUSH1 0x2 ADD PUSH0 SWAP1 SLOAD SWAP1 PUSH2 0x100 EXP SWAP1 DIV PUSH20 0xFFFFFFFFFFFFFFFFFFFFFFFFFFFFFFFFFFFFFFFF AND PUSH20 0xFFFFFFFFFFFFFFFFFFFFFFFFFFFFFFFFFFFFFFFF AND EQ DUP1 ISZERO PUSH2 0x8A8 JUMPI POP PUSH0 PUSH20 0xFFFFFFFFFFFFFFFFFFFFFFFFFFFFFFFFFFFFFFFF AND DUP2 PUSH20 0xFFFFFFFFFFFFFFFFFFFFFFFFFFFFFFFFFFFFFFFF AND EQ ISZERO JUMPDEST ISZERO PUSH2 0x9C7 JUMPI DUP1 PUSH1 0x2 PUSH0 CALLER PUSH20 0xFFFFFFFFFFFFFFFFFFFFFFFFFFFFFFFFFFFFFFFF AND PUSH20 0xFFFFFFFFFFFFFFFFFFFFFFFFFFFFFFFFFFFFFFFF AND DUP2 MSTORE PUSH1 0x20 ADD SWAP1 DUP2 MSTORE PUSH1 0x20 ADD PUSH0 KECCAK256 PUSH1 0x2 ADD PUSH0 PUSH2 0x100 EXP DUP2 SLOAD DUP2 PUSH20 0xFFFFFFFFFFFFFFFFFFFFFFFFFFFFFFFFFFFFFFFF MUL NOT AND SWAP1 DUP4 PUSH20 0xFFFFFFFFFFFFFFFFFFFFFFFFFFFFFFFFFFFFFFFF AND MUL OR SWAP1 SSTORE POP PUSH1 0x3 PUSH0 DUP3 PUSH20 0xFFFFFFFFFFFFFFFFFFFFFFFFFFFFFFFFFFFFFFFF AND PUSH20 0xFFFFFFFFFFFFFFFFFFFFFFFFFFFFFFFFFFFFFFFF AND DUP2 MSTORE PUSH1 0x20 ADD SWAP1 DUP2 MSTORE PUSH1 0x20 ADD PUSH0 KECCAK256 CALLER SWAP1 DUP1 PUSH1 0x1 DUP2 SLOAD ADD DUP1 DUP3 SSTORE DUP1 SWAP2 POP POP PUSH1 0x1 SWAP1 SUB SWAP1 PUSH0 MSTORE PUSH1 0x20 PUSH0 KECCAK256 ADD PUSH0 SWAP1 SWAP2 SWAP1 SWAP2 SWAP1 SWAP2 PUSH2 0x100 EXP DUP2 SLOAD DUP2 PUSH20 0xFFFFFFFFFFFFFFFFFFFFFFFFFFFFFFFFFFFFFFFF MUL NOT AND SWAP1 DUP4 PUSH20 0xFFFFFFFFFFFFFFFFFFFFFFFFFFFFFFFFFFFFFFFF AND MUL OR SWAP1 SSTORE POP JUMPDEST PUSH2 0xA08 CALLER ADDRESS DUP5 PUSH20 0x833589FCD6EDB6E08F4C7C32D4F71B54BDA02913 PUSH20 0xFFFFFFFFFFFFFFFFFFFFFFFFFFFFFFFFFFFFFFFF AND PUSH2 0x1017 SWAP1 SWAP4 SWAP3 SWAP2 SWAP1 PUSH4 0xFFFFFFFF AND JUMP JUMPDEST PUSH20 0x833589FCD6EDB6E08F4C7C32D4F71B54BDA02913 PUSH20 0xFFFFFFFFFFFFFFFFFFFFFFFFFFFFFFFFFFFFFFFF AND PUSH4 0x95EA7B3 PUSH20 0x1686616428C04907AB37A8987B7A97260714E290 DUP5 PUSH1 0x40 MLOAD DUP4 PUSH4 0xFFFFFFFF AND PUSH1 0xE0 SHL DUP2 MSTORE PUSH1 0x4 ADD PUSH2 0xA6B SWAP3 SWAP2 SWAP1 PUSH2 0x1736 JUMP JUMPDEST PUSH1 0x20 PUSH1 0x40 MLOAD DUP1 DUP4 SUB DUP2 PUSH0 DUP8 GAS CALL ISZERO DUP1 ISZERO PUSH2 0xA87 JUMPI RETURNDATASIZE PUSH0 DUP1 RETURNDATACOPY RETURNDATASIZE PUSH0 REVERT JUMPDEST POP POP POP POP PUSH1 0x40 MLOAD RETURNDATASIZE PUSH1 0x1F NOT PUSH1 0x1F DUP3 ADD AND DUP3 ADD DUP1 PUSH1 0x40 MSTORE POP DUP2 ADD SWAP1 PUSH2 0xAAB SWAP2 SWAP1 PUSH2 0x1792 JUMP JUMPDEST POP PUSH0 PUSH20 0x1686616428C04907AB37A8987B7A97260714E290 PUSH20 0xFFFFFFFFFFFFFFFFFFFFFFFFFFFFFFFFFFFFFFFF AND PUSH4 0x70A08231 ADDRESS PUSH1 0x40 MLOAD DUP3 PUSH4 0xFFFFFFFF AND PUSH1 0xE0 SHL DUP2 MSTORE PUSH1 0x4 ADD PUSH2 0xAFA SWAP2 SWAP1 PUSH2 0x134F JUMP JUMPDEST PUSH1 0x20 PUSH1 0x40 MLOAD DUP1 DUP4 SUB DUP2 DUP7 GAS STATICCALL ISZERO DUP1 ISZERO PUSH2 0xB15 JUMPI RETURNDATASIZE PUSH0 DUP1 RETURNDATACOPY RETURNDATASIZE PUSH0 REVERT JUMPDEST POP POP POP POP PUSH1 0x40 MLOAD RETURNDATASIZE PUSH1 0x1F NOT PUSH1 0x1F DUP3 ADD AND DUP3 ADD DUP1 PUSH1 0x40 MSTORE POP DUP2 ADD SWAP1 PUSH2 0xB39 SWAP2 SWAP1 PUSH2 0x1508 JUMP JUMPDEST SWAP1 POP PUSH0 PUSH20 0x1686616428C04907AB37A8987B7A97260714E290 PUSH20 0xFFFFFFFFFFFFFFFFFFFFFFFFFFFFFFFFFFFFFFFF AND PUSH4 0xA0712D68 DUP6 PUSH1 0x40 MLOAD DUP3 PUSH4 0xFFFFFFFF AND PUSH1 0xE0 SHL DUP2 MSTORE PUSH1 0x4 ADD PUSH2 0xB89 SWAP2 SWAP1 PUSH2 0x12B3 JUMP JUMPDEST PUSH1 0x20 PUSH1 0x40 MLOAD DUP1 DUP4 SUB DUP2 PUSH0 DUP8 GAS CALL ISZERO DUP1 ISZERO PUSH2 0xBA5 JUMPI RETURNDATASIZE PUSH0 DUP1 RETURNDATACOPY RETURNDATASIZE PUSH0 REVERT JUMPDEST POP POP POP POP PUSH1 0x40 MLOAD RETURNDATASIZE PUSH1 0x1F NOT PUSH1 0x1F DUP3 ADD AND DUP3 ADD DUP1 PUSH1 0x40 MSTORE POP DUP2 ADD SWAP1 PUSH2 0xBC9 SWAP2 SWAP1 PUSH2 0x1508 JUMP JUMPDEST EQ PUSH2 0xC09 JUMPI PUSH1 0x40 MLOAD PUSH32 0x8C379A000000000000000000000000000000000000000000000000000000000 DUP2 MSTORE PUSH1 0x4 ADD PUSH2 0xC00 SWAP1 PUSH2 0x1807 JUMP JUMPDEST PUSH1 0x40 MLOAD DUP1 SWAP2 SUB SWAP1 REVERT JUMPDEST PUSH0 DUP2 PUSH20 0x1686616428C04907AB37A8987B7A97260714E290 PUSH20 0xFFFFFFFFFFFFFFFFFFFFFFFFFFFFFFFFFFFFFFFF AND PUSH4 0x70A08231 ADDRESS PUSH1 0x40 MLOAD DUP3 PUSH4 0xFFFFFFFF AND PUSH1 0xE0 SHL DUP2 MSTORE PUSH1 0x4 ADD PUSH2 0xC58 SWAP2 SWAP1 PUSH2 0x134F JUMP JUMPDEST PUSH1 0x20 PUSH1 0x40 MLOAD DUP1 DUP4 SUB DUP2 DUP7 GAS STATICCALL ISZERO DUP1 ISZERO PUSH2 0xC73 JUMPI RETURNDATASIZE PUSH0 DUP1 RETURNDATACOPY RETURNDATASIZE PUSH0 REVERT JUMPDEST POP POP POP POP PUSH1 0x40 MLOAD RETURNDATASIZE PUSH1 0x1F NOT PUSH1 0x1F DUP3 ADD AND DUP3 ADD DUP1 PUSH1 0x40 MSTORE POP DUP2 ADD SWAP1 PUSH2 0xC97 SWAP2 SWAP1 PUSH2 0x1508 JUMP JUMPDEST PUSH2 0xCA1 SWAP2 SWAP1 PUSH2 0x1825 JUMP JUMPDEST SWAP1 POP DUP4 PUSH1 0x2 PUSH0 CALLER PUSH20 0xFFFFFFFFFFFFFFFFFFFFFFFFFFFFFFFFFFFFFFFF AND PUSH20 0xFFFFFFFFFFFFFFFFFFFFFFFFFFFFFFFFFFFFFFFF AND DUP2 MSTORE PUSH1 0x20 ADD SWAP1 DUP2 MSTORE PUSH1 0x20 ADD PUSH0 KECCAK256 PUSH0 ADD PUSH0 DUP3 DUP3 SLOAD PUSH2 0xCF1 SWAP2 SWAP1 PUSH2 0x1858 JUMP JUMPDEST SWAP3 POP POP DUP2 SWAP1 SSTORE POP DUP1 PUSH1 0x2 PUSH0 CALLER PUSH20 0xFFFFFFFFFFFFFFFFFFFFFFFFFFFFFFFFFFFFFFFF AND PUSH20 0xFFFFFFFFFFFFFFFFFFFFFFFFFFFFFFFFFFFFFFFF AND DUP2 MSTORE PUSH1 0x20 ADD SWAP1 DUP2 MSTORE PUSH1 0x20 ADD PUSH0 KECCAK256 PUSH1 0x1 ADD PUSH0 DUP3 DUP3 SLOAD PUSH2 0xD47 SWAP2 SWAP1 PUSH2 0x1858 JUMP JUMPDEST SWAP3 POP POP DUP2 SWAP1 SSTORE POP POP POP PUSH2 0xD58 PUSH2 0xEC6 JUMP JUMPDEST POP POP JUMP JUMPDEST PUSH2 0xD64 PUSH2 0xECF JUMP JUMPDEST PUSH0 PUSH20 0xFFFFFFFFFFFFFFFFFFFFFFFFFFFFFFFFFFFFFFFF AND DUP2 PUSH20 0xFFFFFFFFFFFFFFFFFFFFFFFFFFFFFFFFFFFFFFFF AND SUB PUSH2 0xDD4 JUMPI PUSH0 PUSH1 0x40 MLOAD PUSH32 0x1E4FBDF700000000000000000000000000000000000000000000000000000000 DUP2 MSTORE PUSH1 0x4 ADD PUSH2 0xDCB SWAP2 SWAP1 PUSH2 0x134F JUMP JUMPDEST PUSH1 0x40 MLOAD DUP1 SWAP2 SUB SWAP1 REVERT JUMPDEST PUSH2 0xDDD DUP2 PUSH2 0xF56 JUMP JUMPDEST POP JUMP JUMPDEST PUSH20 0x1686616428C04907AB37A8987B7A97260714E290 DUP2 JUMP JUMPDEST PUSH1 0x2 PUSH1 0x1 SLOAD SUB PUSH2 0xE3D JUMPI PUSH1 0x40 MLOAD PUSH32 0x8C379A000000000000000000000000000000000000000000000000000000000 DUP2 MSTORE PUSH1 0x4 ADD PUSH2 0xE34 SWAP1 PUSH2 0x18D5 JUMP JUMPDEST PUSH1 0x40 MLOAD DUP1 SWAP2 SUB SWAP1 REVERT JUMPDEST PUSH1 0x2 PUSH1 0x1 DUP2 SWAP1 SSTORE POP JUMP JUMPDEST PUSH2 0xEC1 DUP4 DUP5 PUSH20 0xFFFFFFFFFFFFFFFFFFFFFFFFFFFFFFFFFFFFFFFF AND PUSH4 0xA9059CBB DUP6 DUP6 PUSH1 0x40 MLOAD PUSH1 0x24 ADD PUSH2 0xE7A SWAP3 SWAP2 SWAP1 PUSH2 0x1736 JUMP JUMPDEST PUSH1 0x40 MLOAD PUSH1 0x20 DUP2 DUP4 SUB SUB DUP2 MSTORE SWAP1 PUSH1 0x40 MSTORE SWAP2 POP PUSH1 0xE0 SHL PUSH1 0x20 DUP3 ADD DUP1 MLOAD PUSH28 0xFFFFFFFFFFFFFFFFFFFFFFFFFFFFFFFFFFFFFFFFFFFFFFFFFFFFFFFF DUP4 DUP2 DUP4 AND OR DUP4 MSTORE POP POP POP POP PUSH2 0x1099 JUMP JUMPDEST POP POP POP JUMP JUMPDEST PUSH1 0x1 DUP1 DUP2 SWAP1 SSTORE POP JUMP JUMPDEST PUSH2 0xED7 PUSH2 0x1134 JUMP JUMPDEST PUSH20 0xFFFFFFFFFFFFFFFFFFFFFFFFFFFFFFFFFFFFFFFF AND PUSH2 0xEF5 PUSH2 0x672 JUMP JUMPDEST PUSH20 0xFFFFFFFFFFFFFFFFFFFFFFFFFFFFFFFFFFFFFFFF AND EQ PUSH2 0xF54 JUMPI PUSH2 0xF18 PUSH2 0x1134 JUMP JUMPDEST PUSH1 0x40 MLOAD PUSH32 0x118CDAA700000000000000000000000000000000000000000000000000000000 DUP2 MSTORE PUSH1 0x4 ADD PUSH2 0xF4B SWAP2 SWAP1 PUSH2 0x134F JUMP JUMPDEST PUSH1 0x40 MLOAD DUP1 SWAP2 SUB SWAP1 REVERT JUMPDEST JUMP JUMPDEST PUSH0 DUP1 PUSH0 SWAP1 SLOAD SWAP1 PUSH2 0x100 EXP SWAP1 DIV PUSH20 0xFFFFFFFFFFFFFFFFFFFFFFFFFFFFFFFFFFFFFFFF AND SWAP1 POP DUP2 PUSH0 DUP1 PUSH2 0x100 EXP DUP2 SLOAD DUP2 PUSH20 0xFFFFFFFFFFFFFFFFFFFFFFFFFFFFFFFFFFFFFFFF MUL NOT AND SWAP1 DUP4 PUSH20 0xFFFFFFFFFFFFFFFFFFFFFFFFFFFFFFFFFFFFFFFF AND MUL OR SWAP1 SSTORE POP DUP2 PUSH20 0xFFFFFFFFFFFFFFFFFFFFFFFFFFFFFFFFFFFFFFFF AND DUP2 PUSH20 0xFFFFFFFFFFFFFFFFFFFFFFFFFFFFFFFFFFFFFFFF AND PUSH32 0x8BE0079C531659141344CD1FD0A4F28419497F9722A3DAAFE3B4186F6B6457E0 PUSH1 0x40 MLOAD PUSH1 0x40 MLOAD DUP1 SWAP2 SUB SWAP1 LOG3 POP POP JUMP JUMPDEST PUSH2 0x1093 DUP5 DUP6 PUSH20 0xFFFFFFFFFFFFFFFFFFFFFFFFFFFFFFFFFFFFFFFF AND PUSH4 0x23B872DD DUP7 DUP7 DUP7 PUSH1 0x40 MLOAD PUSH1 0x24 ADD PUSH2 0x104C SWAP4 SWAP3 SWAP2 SWAP1 PUSH2 0x18F3 JUMP JUMPDEST PUSH1 0x40 MLOAD PUSH1 0x20 DUP2 DUP4 SUB SUB DUP2 MSTORE SWAP1 PUSH1 0x40 MSTORE SWAP2 POP PUSH1 0xE0 SHL PUSH1 0x20 DUP3 ADD DUP1 MLOAD PUSH28 0xFFFFFFFFFFFFFFFFFFFFFFFFFFFFFFFFFFFFFFFFFFFFFFFFFFFFFFFF DUP4 DUP2 DUP4 AND OR DUP4 MSTORE POP POP POP POP PUSH2 0x1099 JUMP JUMPDEST POP POP POP POP JUMP JUMPDEST PUSH0 DUP1 PUSH1 0x20 PUSH0 DUP5 MLOAD PUSH1 0x20 DUP7 ADD PUSH0 DUP9 GAS CALL DUP1 PUSH2 0x10B8 JUMPI PUSH1 0x40 MLOAD RETURNDATASIZE PUSH0 DUP3 RETURNDATACOPY RETURNDATASIZE DUP2 REVERT JUMPDEST RETURNDATASIZE SWAP3 POP PUSH0 MLOAD SWAP2 POP POP PUSH0 DUP3 EQ PUSH2 0x10D1 JUMPI PUSH1 0x1 DUP2 EQ ISZERO PUSH2 0x10EC JUMP JUMPDEST PUSH0 DUP5 PUSH20 0xFFFFFFFFFFFFFFFFFFFFFFFFFFFFFFFFFFFFFFFF AND EXTCODESIZE EQ JUMPDEST ISZERO PUSH2 0x112E JUMPI DUP4 PUSH1 0x40 MLOAD PUSH32 0x5274AFE700000000000000000000000000000000000000000000000000000000 DUP2 MSTORE PUSH1 0x4 ADD PUSH2 0x1125 SWAP2 SWAP1 PUSH2 0x134F JUMP JUMPDEST PUSH1 0x40 MLOAD DUP1 SWAP2 SUB SWAP1 REVERT JUMPDEST POP POP POP POP JUMP JUMPDEST PUSH0 CALLER SWAP1 POP SWAP1 JUMP JUMPDEST PUSH0 DUP1 REVERT JUMPDEST PUSH0 PUSH20 0xFFFFFFFFFFFFFFFFFFFFFFFFFFFFFFFFFFFFFFFF DUP3 AND SWAP1 POP SWAP2 SWAP1 POP JUMP JUMPDEST PUSH0 PUSH2 0x1168 DUP3 PUSH2 0x113F JUMP JUMPDEST SWAP1 POP SWAP2 SWAP1 POP JUMP JUMPDEST PUSH2 0x1178 DUP2 PUSH2 0x115E JUMP JUMPDEST DUP2 EQ PUSH2 0x1182 JUMPI PUSH0 DUP1 REVERT JUMPDEST POP JUMP JUMPDEST PUSH0 DUP2 CALLDATALOAD SWAP1 POP PUSH2 0x1193 DUP2 PUSH2 0x116F JUMP JUMPDEST SWAP3 SWAP2 POP POP JUMP JUMPDEST PUSH0 PUSH1 0x20 DUP3 DUP5 SUB SLT ISZERO PUSH2 0x11AE JUMPI PUSH2 0x11AD PUSH2 0x113B JUMP JUMPDEST JUMPDEST PUSH0 PUSH2 0x11BB DUP5 DUP3 DUP6 ADD PUSH2 0x1185 JUMP JUMPDEST SWAP2 POP POP SWAP3 SWAP2 POP POP JUMP JUMPDEST PUSH0 DUP2 MLOAD SWAP1 POP SWAP2 SWAP1 POP JUMP JUMPDEST PUSH0 DUP3 DUP3 MSTORE PUSH1 0x20 DUP3 ADD SWAP1 POP SWAP3 SWAP2 POP POP JUMP JUMPDEST PUSH0 DUP2 SWAP1 POP PUSH1 0x20 DUP3 ADD SWAP1 POP SWAP2 SWAP1 POP JUMP JUMPDEST PUSH2 0x11F6 DUP2 PUSH2 0x115E JUMP JUMPDEST DUP3 MSTORE POP POP JUMP JUMPDEST PUSH0 PUSH2 0x1207 DUP4 DUP4 PUSH2 0x11ED JUMP JUMPDEST PUSH1 0x20 DUP4 ADD SWAP1 POP SWAP3 SWAP2 POP POP JUMP JUMPDEST PUSH0 PUSH1 0x20 DUP3 ADD SWAP1 POP SWAP2 SWAP1 POP JUMP JUMPDEST PUSH0 PUSH2 0x1229 DUP3 PUSH2 0x11C4 JUMP JUMPDEST PUSH2 0x1233 DUP2 DUP6 PUSH2 0x11CE JUMP JUMPDEST SWAP4 POP PUSH2 0x123E DUP4 PUSH2 0x11DE JUMP JUMPDEST DUP1 PUSH0 JUMPDEST DUP4 DUP2 LT ISZERO PUSH2 0x126E JUMPI DUP2 MLOAD PUSH2 0x1255 DUP9 DUP3 PUSH2 0x11FC JUMP JUMPDEST SWAP8 POP PUSH2 0x1260 DUP4 PUSH2 0x1213 JUMP JUMPDEST SWAP3 POP POP PUSH1 0x1 DUP2 ADD SWAP1 POP PUSH2 0x1241 JUMP JUMPDEST POP DUP6 SWAP4 POP POP POP POP SWAP3 SWAP2 POP POP JUMP JUMPDEST PUSH0 PUSH1 0x20 DUP3 ADD SWAP1 POP DUP2 DUP2 SUB PUSH0 DUP4 ADD MSTORE PUSH2 0x1293 DUP2 DUP5 PUSH2 0x121F JUMP JUMPDEST SWAP1 POP SWAP3 SWAP2 POP POP JUMP JUMPDEST PUSH0 DUP2 SWAP1 POP SWAP2 SWAP1 POP JUMP JUMPDEST PUSH2 0x12AD DUP2 PUSH2 0x129B JUMP JUMPDEST DUP3 MSTORE POP POP JUMP JUMPDEST PUSH0 PUSH1 0x20 DUP3 ADD SWAP1 POP PUSH2 0x12C6 PUSH0 DUP4 ADD DUP5 PUSH2 0x12A4 JUMP JUMPDEST SWAP3 SWAP2 POP POP JUMP JUMPDEST PUSH0 DUP2 SWAP1 POP SWAP2 SWAP1 POP JUMP JUMPDEST PUSH0 PUSH2 0x12EF PUSH2 0x12EA PUSH2 0x12E5 DUP5 PUSH2 0x113F JUMP JUMPDEST PUSH2 0x12CC JUMP JUMPDEST PUSH2 0x113F JUMP JUMPDEST SWAP1 POP SWAP2 SWAP1 POP JUMP JUMPDEST PUSH0 PUSH2 0x1300 DUP3 PUSH2 0x12D5 JUMP JUMPDEST SWAP1 POP SWAP2 SWAP1 POP JUMP JUMPDEST PUSH0 PUSH2 0x1311 DUP3 PUSH2 0x12F6 JUMP JUMPDEST SWAP1 POP SWAP2 SWAP1 POP JUMP JUMPDEST PUSH2 0x1321 DUP2 PUSH2 0x1307 JUMP JUMPDEST DUP3 MSTORE POP POP JUMP JUMPDEST PUSH0 PUSH1 0x20 DUP3 ADD SWAP1 POP PUSH2 0x133A PUSH0 DUP4 ADD DUP5 PUSH2 0x1318 JUMP JUMPDEST SWAP3 SWAP2 POP POP JUMP JUMPDEST PUSH2 0x1349 DUP2 PUSH2 0x115E JUMP JUMPDEST DUP3 MSTORE POP POP JUMP JUMPDEST PUSH0 PUSH1 0x20 DUP3 ADD SWAP1 POP PUSH2 0x1362 PUSH0 DUP4 ADD DUP5 PUSH2 0x1340 JUMP JUMPDEST SWAP3 SWAP2 POP POP JUMP JUMPDEST PUSH0 PUSH1 0x60 DUP3 ADD SWAP1 POP PUSH2 0x137B PUSH0 DUP4 ADD DUP7 PUSH2 0x12A4 JUMP JUMPDEST PUSH2 0x1388 PUSH1 0x20 DUP4 ADD DUP6 PUSH2 0x12A4 JUMP JUMPDEST PUSH2 0x1395 PUSH1 0x40 DUP4 ADD DUP5 PUSH2 0x1340 JUMP JUMPDEST SWAP5 SWAP4 POP POP POP POP JUMP JUMPDEST PUSH2 0x13A6 DUP2 PUSH2 0x129B JUMP JUMPDEST DUP2 EQ PUSH2 0x13B0 JUMPI PUSH0 DUP1 REVERT JUMPDEST POP JUMP JUMPDEST PUSH0 DUP2 CALLDATALOAD SWAP1 POP PUSH2 0x13C1 DUP2 PUSH2 0x139D JUMP JUMPDEST SWAP3 SWAP2 POP POP JUMP JUMPDEST PUSH0 DUP1 PUSH1 0x40 DUP4 DUP6 SUB SLT ISZERO PUSH2 0x13DD JUMPI PUSH2 0x13DC PUSH2 0x113B JUMP JUMPDEST JUMPDEST PUSH0 PUSH2 0x13EA DUP6 DUP3 DUP7 ADD PUSH2 0x1185 JUMP JUMPDEST SWAP3 POP POP PUSH1 0x20 PUSH2 0x13FB DUP6 DUP3 DUP7 ADD PUSH2 0x13B3 JUMP JUMPDEST SWAP2 POP POP SWAP3 POP SWAP3 SWAP1 POP JUMP JUMPDEST PUSH0 DUP1 PUSH1 0x40 DUP4 DUP6 SUB SLT ISZERO PUSH2 0x141B JUMPI PUSH2 0x141A PUSH2 0x113B JUMP JUMPDEST JUMPDEST PUSH0 PUSH2 0x1428 DUP6 DUP3 DUP7 ADD PUSH2 0x13B3 JUMP JUMPDEST SWAP3 POP POP PUSH1 0x20 PUSH2 0x1439 DUP6 DUP3 DUP7 ADD PUSH2 0x1185 JUMP JUMPDEST SWAP2 POP POP SWAP3 POP SWAP3 SWAP1 POP JUMP JUMPDEST PUSH0 PUSH2 0x144D DUP3 PUSH2 0x12F6 JUMP JUMPDEST SWAP1 POP SWAP2 SWAP1 POP JUMP JUMPDEST PUSH2 0x145D DUP2 PUSH2 0x1443 JUMP JUMPDEST DUP3 MSTORE POP POP JUMP JUMPDEST PUSH0 PUSH1 0x20 DUP3 ADD SWAP1 POP PUSH2 0x1476 PUSH0 DUP4 ADD DUP5 PUSH2 0x1454 JUMP JUMPDEST SWAP3 SWAP2 POP POP JUMP JUMPDEST PUSH0 DUP3 DUP3 MSTORE PUSH1 0x20 DUP3 ADD SWAP1 POP SWAP3 SWAP2 POP POP JUMP JUMPDEST PUSH32 0x4E6F2062616C616E636500000000000000000000000000000000000000000000 PUSH0 DUP3 ADD MSTORE POP JUMP JUMPDEST PUSH0 PUSH2 0x14C0 PUSH1 0xA DUP4 PUSH2 0x147C JUMP JUMPDEST SWAP2 POP PUSH2 0x14CB DUP3 PUSH2 0x148C JUMP JUMPDEST PUSH1 0x20 DUP3 ADD SWAP1 POP SWAP2 SWAP1 POP JUMP JUMPDEST PUSH0 PUSH1 0x20 DUP3 ADD SWAP1 POP DUP2 DUP2 SUB PUSH0 DUP4 ADD MSTORE PUSH2 0x14ED DUP2 PUSH2 0x14B4 JUMP JUMPDEST SWAP1 POP SWAP2 SWAP1 POP JUMP JUMPDEST PUSH0 DUP2 MLOAD SWAP1 POP PUSH2 0x1502 DUP2 PUSH2 0x139D JUMP JUMPDEST SWAP3 SWAP2 POP POP JUMP JUMPDEST PUSH0 PUSH1 0x20 DUP3 DUP5 SUB SLT ISZERO PUSH2 0x151D JUMPI PUSH2 0x151C PUSH2 0x113B JUMP JUMPDEST JUMPDEST PUSH0 PUSH2 0x152A DUP5 DUP3 DUP6 ADD PUSH2 0x14F4 JUMP JUMPDEST SWAP2 POP POP SWAP3 SWAP2 POP POP JUMP JUMPDEST PUSH32 0x4D6F7270686F2052656465656D206661696C6564000000000000000000000000 PUSH0 DUP3 ADD MSTORE POP JUMP JUMPDEST PUSH0 PUSH2 0x1567 PUSH1 0x14 DUP4 PUSH2 0x147C JUMP JUMPDEST SWAP2 POP PUSH2 0x1572 DUP3 PUSH2 0x1533 JUMP JUMPDEST PUSH1 0x20 DUP3 ADD SWAP1 POP SWAP2 SWAP1 POP JUMP JUMPDEST PUSH0 PUSH1 0x20 DUP3 ADD SWAP1 POP DUP2 DUP2 SUB PUSH0 DUP4 ADD MSTORE PUSH2 0x1594 DUP2 PUSH2 0x155B JUMP JUMPDEST SWAP1 POP SWAP2 SWAP1 POP JUMP JUMPDEST PUSH32 0x4E487B7100000000000000000000000000000000000000000000000000000000 PUSH0 MSTORE PUSH1 0x11 PUSH1 0x4 MSTORE PUSH1 0x24 PUSH0 REVERT JUMPDEST PUSH0 PUSH2 0x15D2 DUP3 PUSH2 0x129B JUMP JUMPDEST SWAP2 POP PUSH2 0x15DD DUP4 PUSH2 0x129B JUMP JUMPDEST SWAP3 POP DUP3 DUP3 MUL PUSH2 0x15EB DUP2 PUSH2 0x129B JUMP JUMPDEST SWAP2 POP DUP3 DUP3 DIV DUP5 EQ DUP4 ISZERO OR PUSH2 0x1602 JUMPI PUSH2 0x1601 PUSH2 0x159B JUMP JUMPDEST JUMPDEST POP SWAP3 SWAP2 POP POP JUMP JUMPDEST PUSH32 0x4E487B7100000000000000000000000000000000000000000000000000000000 PUSH0 MSTORE PUSH1 0x12 PUSH1 0x4 MSTORE PUSH1 0x24 PUSH0 REVERT JUMPDEST PUSH0 PUSH2 0x1640 DUP3 PUSH2 0x129B JUMP JUMPDEST SWAP2 POP PUSH2 0x164B DUP4 PUSH2 0x129B JUMP JUMPDEST SWAP3 POP DUP3 PUSH2 0x165B JUMPI PUSH2 0x165A PUSH2 0x1609 JUMP JUMPDEST JUMPDEST DUP3 DUP3 DIV SWAP1 POP SWAP3 SWAP2 POP POP JUMP JUMPDEST PUSH32 0x4D696E2031302055534443000000000000000000000000000000000000000000 PUSH0 DUP3 ADD MSTORE POP JUMP JUMPDEST PUSH0 PUSH2 0x169A PUSH1 0xB DUP4 PUSH2 0x147C JUMP JUMPDEST SWAP2 POP PUSH2 0x16A5 DUP3 PUSH2 0x1666 JUMP JUMPDEST PUSH1 0x20 DUP3 ADD SWAP1 POP SWAP2 SWAP1 POP JUMP JUMPDEST PUSH0 PUSH1 0x20 DUP3 ADD SWAP1 POP DUP2 DUP2 SUB PUSH0 DUP4 ADD MSTORE PUSH2 0x16C7 DUP2 PUSH2 0x168E JUMP JUMPDEST SWAP1 POP SWAP2 SWAP1 POP JUMP JUMPDEST PUSH32 0x4E6F2073656C662D726566657272616C00000000000000000000000000000000 PUSH0 DUP3 ADD MSTORE POP JUMP JUMPDEST PUSH0 PUSH2 0x1702 PUSH1 0x10 DUP4 PUSH2 0x147C JUMP JUMPDEST SWAP2 POP PUSH2 0x170D DUP3 PUSH2 0x16CE JUMP JUMPDEST PUSH1 0x20 DUP3 ADD SWAP1 POP SWAP2 SWAP1 POP JUMP JUMPDEST PUSH0 PUSH1 0x20 DUP3 ADD SWAP1 POP DUP2 DUP2 SUB PUSH0 DUP4 ADD MSTORE PUSH2 0x172F DUP2 PUSH2 0x16F6 JUMP JUMPDEST SWAP1 POP SWAP2 SWAP1 POP JUMP JUMPDEST PUSH0 PUSH1 0x40 DUP3 ADD SWAP1 POP PUSH2 0x1749 PUSH0 DUP4 ADD DUP6 PUSH2 0x1340 JUMP JUMPDEST PUSH2 0x1756 PUSH1 0x20 DUP4 ADD DUP5 PUSH2 0x12A4 JUMP JUMPDEST SWAP4 SWAP3 POP POP POP JUMP JUMPDEST PUSH0 DUP2 ISZERO ISZERO SWAP1 POP SWAP2 SWAP1 POP JUMP JUMPDEST PUSH2 0x1771 DUP2 PUSH2 0x175D JUMP JUMPDEST DUP2 EQ PUSH2 0x177B JUMPI PUSH0 DUP1 REVERT JUMPDEST POP JUMP JUMPDEST PUSH0 DUP2 MLOAD SWAP1 POP PUSH2 0x178C DUP2 PUSH2 0x1768 JUMP JUMPDEST SWAP3 SWAP2 POP POP JUMP JUMPDEST PUSH0 PUSH1 0x20 DUP3 DUP5 SUB SLT ISZERO PUSH2 0x17A7 JUMPI PUSH2 0x17A6 PUSH2 0x113B JUMP JUMPDEST JUMPDEST PUSH0 PUSH2 0x17B4 DUP5 DUP3 DUP6 ADD PUSH2 0x177E JUMP JUMPDEST SWAP2 POP POP SWAP3 SWAP2 POP POP JUMP JUMPDEST PUSH32 0x4D6F7270686F204D696E74206661696C65640000000000000000000000000000 PUSH0 DUP3 ADD MSTORE POP JUMP JUMPDEST PUSH0 PUSH2 0x17F1 PUSH1 0x12 DUP4 PUSH2 0x147C JUMP JUMPDEST SWAP2 POP PUSH2 0x17FC DUP3 PUSH2 0x17BD JUMP JUMPDEST PUSH1 0x20 DUP3 ADD SWAP1 POP SWAP2 SWAP1 POP JUMP JUMPDEST PUSH0 PUSH1 0x20 DUP3 ADD SWAP1 POP DUP2 DUP2 SUB PUSH0 DUP4 ADD MSTORE PUSH2 0x181E DUP2 PUSH2 0x17E5 JUMP JUMPDEST SWAP1 POP SWAP2 SWAP1 POP JUMP JUMPDEST PUSH0 PUSH2 0x182F DUP3 PUSH2 0x129B JUMP JUMPDEST SWAP2 POP PUSH2 0x183A DUP4 PUSH2 0x129B JUMP JUMPDEST SWAP3 POP DUP3 DUP3 SUB SWAP1 POP DUP2 DUP2 GT ISZERO PUSH2 0x1852 JUMPI PUSH2 0x1851 PUSH2 0x159B JUMP JUMPDEST JUMPDEST SWAP3 SWAP2 POP POP JUMP JUMPDEST PUSH0 PUSH2 0x1862 DUP3 PUSH2 0x129B JUMP JUMPDEST SWAP2 POP PUSH2 0x186D DUP4 PUSH2 0x129B JUMP JUMPDEST SWAP3 POP DUP3 DUP3 ADD SWAP1 POP DUP1 DUP3 GT ISZERO PUSH2 0x1885 JUMPI PUSH2 0x1884 PUSH2 0x159B JUMP JUMPDEST JUMPDEST SWAP3 SWAP2 POP POP JUMP JUMPDEST PUSH32 0x5265656E7472616E637947756172643A207265656E7472616E742063616C6C00 PUSH0 DUP3 ADD MSTORE POP JUMP JUMPDEST PUSH0 PUSH2 0x18BF PUSH1 0x1F DUP4 PUSH2 0x147C JUMP JUMPDEST SWAP2 POP PUSH2 0x18CA DUP3 PUSH2 0x188B JUMP JUMPDEST PUSH1 0x20 DUP3 ADD SWAP1 POP SWAP2 SWAP1 POP JUMP JUMPDEST PUSH0 PUSH1 0x20 DUP3 ADD SWAP1 POP DUP2 DUP2 SUB PUSH0 DUP4 ADD MSTORE PUSH2 0x18EC DUP2 PUSH2 0x18B3 JUMP JUMPDEST SWAP1 POP SWAP2 SWAP1 POP JUMP JUMPDEST PUSH0 PUSH1 0x60 DUP3 ADD SWAP1 POP PUSH2 0x1906 PUSH0 DUP4 ADD DUP7 PUSH2 0x1340 JUMP JUMPDEST PUSH2 0x1913 PUSH1 0x20 DUP4 ADD DUP6 PUSH2 0x1340 JUMP JUMPDEST PUSH2 0x1920 PUSH1 0x40 DUP4 ADD DUP5 PUSH2 0x12A4 JUMP JUMPDEST SWAP5 SWAP4 POP POP POP POP JUMP INVALID LOG2 PUSH5 0x6970667358 0x22 SLT KECCAK256 0xC4 0xC7 SIGNEXTEND PUSH28 0x9836BACFB4F0CCF6B50F85EAC179E1C3F73BEF26F68CEA5EC873FCB8 PUSH5 0x736F6C6343 STOP ADDMOD EQ STOP CALLER "
				},
				"gasEstimates": {
					"creation": {
						"codeDepositCost": "1298800",
						"executionCost": "infinite",
						"totalCost": "infinite"
					},
					"external": {
						"MIN_INVESTMENT()": "370",
						"USDC()": "infinite",
						"getAccountValue(address)": "infinite",
						"getDownlines(address)": "infinite",
						"mUSDC()": "infinite",
						"owner()": "2515",
						"referralList(address,uint256)": "infinite",
						"renounceOwnership()": "infinite",
						"transferOwnership(address)": "infinite",
						"users(address)": "infinite",
						"zapIn(uint256,address)": "infinite",
						"zapOut()": "infinite"
					}
				},
				"methodIdentifiers": {
					"MIN_INVESTMENT()": "4ef8ff33",
					"USDC()": "89a30271",
					"getAccountValue(address)": "5ae80951",
					"getDownlines(address)": "44051053",
					"mUSDC()": "f89ec5f5",
					"owner()": "8da5cb5b",
					"referralList(address,uint256)": "d12eb0a3",
					"renounceOwnership()": "715018a6",
					"transferOwnership(address)": "f2fde38b",
					"users(address)": "a87430ba",
					"zapIn(uint256,address)": "dabeaecf",
					"zapOut()": "23544748"
				}
			},
			"storageLayout": {
				"storage": [
					{
						"astId": 8,
						"contract": "contracts/zapyield-mainnet-alpha.sol:ZapYieldsMainnetLive",
						"label": "_owner",
						"offset": 0,
						"slot": "0",
						"type": "t_address"
					},
					{
						"astId": 248,
						"contract": "contracts/zapyield-mainnet-alpha.sol:ZapYieldsMainnetLive",
						"label": "_status",
						"offset": 0,
						"slot": "1",
						"type": "t_uint256"
					},
					{
						"astId": 956,
						"contract": "contracts/zapyield-mainnet-alpha.sol:ZapYieldsMainnetLive",
						"label": "users",
						"offset": 0,
						"slot": "2",
						"type": "t_mapping(t_address,t_struct(UserInfo)951_storage)"
					},
					{
						"astId": 961,
						"contract": "contracts/zapyield-mainnet-alpha.sol:ZapYieldsMainnetLive",
						"label": "referralList",
						"offset": 0,
						"slot": "3",
						"type": "t_mapping(t_address,t_array(t_address)dyn_storage)"
					}
				],
				"types": {
					"t_address": {
						"encoding": "inplace",
						"label": "address",
						"numberOfBytes": "20"
					},
					"t_array(t_address)dyn_storage": {
						"base": "t_address",
						"encoding": "dynamic_array",
						"label": "address[]",
						"numberOfBytes": "32"
					},
					"t_mapping(t_address,t_array(t_address)dyn_storage)": {
						"encoding": "mapping",
						"key": "t_address",
						"label": "mapping(address => address[])",
						"numberOfBytes": "32",
						"value": "t_array(t_address)dyn_storage"
					},
					"t_mapping(t_address,t_struct(UserInfo)951_storage)": {
						"encoding": "mapping",
						"key": "t_address",
						"label": "mapping(address => struct ZapYieldsMainnetLive.UserInfo)",
						"numberOfBytes": "32",
						"value": "t_struct(UserInfo)951_storage"
					},
					"t_struct(UserInfo)951_storage": {
						"encoding": "inplace",
						"label": "struct ZapYieldsMainnetLive.UserInfo",
						"members": [
							{
								"astId": 946,
								"contract": "contracts/zapyield-mainnet-alpha.sol:ZapYieldsMainnetLive",
								"label": "principal",
								"offset": 0,
								"slot": "0",
								"type": "t_uint256"
							},
							{
								"astId": 948,
								"contract": "contracts/zapyield-mainnet-alpha.sol:ZapYieldsMainnetLive",
								"label": "shareBalance",
								"offset": 0,
								"slot": "1",
								"type": "t_uint256"
							},
							{
								"astId": 950,
								"contract": "contracts/zapyield-mainnet-alpha.sol:ZapYieldsMainnetLive",
								"label": "referrer",
								"offset": 0,
								"slot": "2",
								"type": "t_address"
							}
						],
						"numberOfBytes": "96"
					},
					"t_uint256": {
						"encoding": "inplace",
						"label": "uint256",
						"numberOfBytes": "32"
					}
				}
			},
			"userdoc": {
				"kind": "user",
				"methods": {},
				"version": 1
			}
		}
	}
}